{
	"lession6.2-Library/WhiteList.sol": {
		"WhiteList": {
			"abi": [
				{
					"inputs": [
						{
							"internalType": "address",
							"name": "user",
							"type": "address"
						}
					],
					"name": "addUser",
					"outputs": [],
					"stateMutability": "nonpayable",
					"type": "function"
				},
				{
					"inputs": [
						{
							"internalType": "uint256",
							"name": "index",
							"type": "uint256"
						}
					],
					"name": "checkUser",
					"outputs": [
						{
							"internalType": "address",
							"name": "",
							"type": "address"
						}
					],
					"stateMutability": "view",
					"type": "function"
				},
				{
					"inputs": [],
					"name": "getAll",
					"outputs": [
						{
							"internalType": "address[]",
							"name": "",
							"type": "address[]"
						}
					],
					"stateMutability": "view",
					"type": "function"
				},
				{
					"inputs": [
						{
							"internalType": "address",
							"name": "user",
							"type": "address"
						}
					],
					"name": "removeUser",
					"outputs": [],
					"stateMutability": "nonpayable",
					"type": "function"
				}
			],
			"devdoc": {
				"kind": "dev",
				"methods": {},
				"version": 1
			},
			"evm": {
				"assembly": "    /* \"lession6.2-Library/WhiteList.sol\":289:980  contract WhiteList {... */\n  mstore(0x40, 0x80)\n  callvalue\n  dup1\n  iszero\n  tag_1\n  jumpi\n  revert(0x00, 0x00)\ntag_1:\n  pop\n  dataSize(sub_0)\n  dup1\n  dataOffset(sub_0)\n  0x00\n  codecopy\n  0x00\n  return\nstop\n\nsub_0: assembly {\n        /* \"lession6.2-Library/WhiteList.sol\":289:980  contract WhiteList {... */\n      mstore(0x40, 0x80)\n      callvalue\n      dup1\n      iszero\n      tag_1\n      jumpi\n      revert(0x00, 0x00)\n    tag_1:\n      pop\n      jumpi(tag_2, lt(calldatasize, 0x04))\n      shr(0xe0, calldataload(0x00))\n      dup1\n      0x421b2d8b\n      eq\n      tag_3\n      jumpi\n      dup1\n      0x53ed5143\n      eq\n      tag_4\n      jumpi\n      dup1\n      0x723331bb\n      eq\n      tag_5\n      jumpi\n      dup1\n      0x98575188\n      eq\n      tag_6\n      jumpi\n    tag_2:\n      revert(0x00, 0x00)\n        /* \"lession6.2-Library/WhiteList.sol\":419:550  function addUser(address user) public {... */\n    tag_3:\n      tag_7\n      0x04\n      dup1\n      calldatasize\n      sub\n      dup2\n      add\n      swap1\n      tag_8\n      swap2\n      swap1\n      tag_9\n      jump\t// in\n    tag_8:\n      tag_10\n      jump\t// in\n    tag_7:\n      stop\n        /* \"lession6.2-Library/WhiteList.sol\":880:977  function getAll() public view returns (address[] memory) {... */\n    tag_4:\n      tag_11\n      tag_12\n      jump\t// in\n    tag_11:\n      mload(0x40)\n      tag_13\n      swap2\n      swap1\n      tag_14\n      jump\t// in\n    tag_13:\n      mload(0x40)\n      dup1\n      swap2\n      sub\n      swap1\n      return\n        /* \"lession6.2-Library/WhiteList.sol\":704:872  function checkUser(uint index) public view returns (address) {... */\n    tag_5:\n      tag_15\n      0x04\n      dup1\n      calldatasize\n      sub\n      dup2\n      add\n      swap1\n      tag_16\n      swap2\n      swap1\n      tag_17\n      jump\t// in\n    tag_16:\n      tag_18\n      jump\t// in\n    tag_15:\n      mload(0x40)\n      tag_19\n      swap2\n      swap1\n      tag_20\n      jump\t// in\n    tag_19:\n      mload(0x40)\n      dup1\n      swap2\n      sub\n      swap1\n      return\n        /* \"lession6.2-Library/WhiteList.sol\":558:696  function removeUser(address user) public  {... */\n    tag_6:\n      tag_21\n      0x04\n      dup1\n      calldatasize\n      sub\n      dup2\n      add\n      swap1\n      tag_22\n      swap2\n      swap1\n      tag_9\n      jump\t// in\n    tag_22:\n      tag_23\n      jump\t// in\n    tag_21:\n      stop\n        /* \"lession6.2-Library/WhiteList.sol\":419:550  function addUser(address user) public {... */\n    tag_10:\n        /* \"lession6.2-Library/WhiteList.sol\":477:497  users.contains(user) */\n      tag_25\n        /* \"lession6.2-Library/WhiteList.sol\":492:496  user */\n      dup2\n        /* \"lession6.2-Library/WhiteList.sol\":477:482  users */\n      0x00\n        /* \"lession6.2-Library/WhiteList.sol\":477:491  users.contains */\n      tag_26\n      swap1\n        /* \"lession6.2-Library/WhiteList.sol\":477:497  users.contains(user) */\n      swap2\n      swap1\n      0xffffffff\n      and\n      jump\t// in\n    tag_25:\n        /* \"lession6.2-Library/WhiteList.sol\":476:497  !users.contains(user) */\n      iszero\n        /* \"lession6.2-Library/WhiteList.sol\":468:516  require(!users.contains(user), \"Already exist!\") */\n      tag_27\n      jumpi\n      mload(0x40)\n      0x08c379a000000000000000000000000000000000000000000000000000000000\n      dup2\n      mstore\n      0x04\n      add\n      tag_28\n      swap1\n      tag_29\n      jump\t// in\n    tag_28:\n      mload(0x40)\n      dup1\n      swap2\n      sub\n      swap1\n      revert\n    tag_27:\n        /* \"lession6.2-Library/WhiteList.sol\":527:542  users.add(user) */\n      tag_30\n        /* \"lession6.2-Library/WhiteList.sol\":537:541  user */\n      dup2\n        /* \"lession6.2-Library/WhiteList.sol\":527:532  users */\n      0x00\n        /* \"lession6.2-Library/WhiteList.sol\":527:536  users.add */\n      tag_31\n      swap1\n        /* \"lession6.2-Library/WhiteList.sol\":527:542  users.add(user) */\n      swap2\n      swap1\n      0xffffffff\n      and\n      jump\t// in\n    tag_30:\n      pop\n        /* \"lession6.2-Library/WhiteList.sol\":419:550  function addUser(address user) public {... */\n      pop\n      jump\t// out\n        /* \"lession6.2-Library/WhiteList.sol\":880:977  function getAll() public view returns (address[] memory) {... */\n    tag_12:\n        /* \"lession6.2-Library/WhiteList.sol\":919:935  address[] memory */\n      0x60\n        /* \"lession6.2-Library/WhiteList.sol\":955:969  users.values() */\n      tag_33\n        /* \"lession6.2-Library/WhiteList.sol\":955:960  users */\n      0x00\n        /* \"lession6.2-Library/WhiteList.sol\":955:967  users.values */\n      tag_34\n        /* \"lession6.2-Library/WhiteList.sol\":955:969  users.values() */\n      jump\t// in\n    tag_33:\n        /* \"lession6.2-Library/WhiteList.sol\":948:969  return users.values() */\n      swap1\n      pop\n        /* \"lession6.2-Library/WhiteList.sol\":880:977  function getAll() public view returns (address[] memory) {... */\n      swap1\n      jump\t// out\n        /* \"lession6.2-Library/WhiteList.sol\":704:872  function checkUser(uint index) public view returns (address) {... */\n    tag_18:\n        /* \"lession6.2-Library/WhiteList.sol\":756:763  address */\n      0x00\n        /* \"lession6.2-Library/WhiteList.sol\":792:806  users.length() */\n      tag_36\n        /* \"lession6.2-Library/WhiteList.sol\":792:797  users */\n      0x00\n        /* \"lession6.2-Library/WhiteList.sol\":792:804  users.length */\n      tag_37\n        /* \"lession6.2-Library/WhiteList.sol\":792:806  users.length() */\n      jump\t// in\n    tag_36:\n        /* \"lession6.2-Library/WhiteList.sol\":784:789  index */\n      dup3\n        /* \"lession6.2-Library/WhiteList.sol\":784:806  index < users.length() */\n      lt\n        /* \"lession6.2-Library/WhiteList.sol\":776:831  require(index < users.length(), \"Index out of bounds!\") */\n      tag_38\n      jumpi\n      mload(0x40)\n      0x08c379a000000000000000000000000000000000000000000000000000000000\n      dup2\n      mstore\n      0x04\n      add\n      tag_39\n      swap1\n      tag_40\n      jump\t// in\n    tag_39:\n      mload(0x40)\n      dup1\n      swap2\n      sub\n      swap1\n      revert\n    tag_38:\n        /* \"lession6.2-Library/WhiteList.sol\":849:864  users.at(index) */\n      tag_41\n        /* \"lession6.2-Library/WhiteList.sol\":858:863  index */\n      dup3\n        /* \"lession6.2-Library/WhiteList.sol\":849:854  users */\n      0x00\n        /* \"lession6.2-Library/WhiteList.sol\":849:857  users.at */\n      tag_42\n      swap1\n        /* \"lession6.2-Library/WhiteList.sol\":849:864  users.at(index) */\n      swap2\n      swap1\n      0xffffffff\n      and\n      jump\t// in\n    tag_41:\n        /* \"lession6.2-Library/WhiteList.sol\":842:864  return users.at(index) */\n      swap1\n      pop\n        /* \"lession6.2-Library/WhiteList.sol\":704:872  function checkUser(uint index) public view returns (address) {... */\n      swap2\n      swap1\n      pop\n      jump\t// out\n        /* \"lession6.2-Library/WhiteList.sol\":558:696  function removeUser(address user) public  {... */\n    tag_23:\n        /* \"lession6.2-Library/WhiteList.sol\":619:639  users.contains(user) */\n      tag_44\n        /* \"lession6.2-Library/WhiteList.sol\":634:638  user */\n      dup2\n        /* \"lession6.2-Library/WhiteList.sol\":619:624  users */\n      0x00\n        /* \"lession6.2-Library/WhiteList.sol\":619:633  users.contains */\n      tag_26\n      swap1\n        /* \"lession6.2-Library/WhiteList.sol\":619:639  users.contains(user) */\n      swap2\n      swap1\n      0xffffffff\n      and\n      jump\t// in\n    tag_44:\n        /* \"lession6.2-Library/WhiteList.sol\":611:659  require(users.contains(user), \"User not exist!\") */\n      tag_45\n      jumpi\n      mload(0x40)\n      0x08c379a000000000000000000000000000000000000000000000000000000000\n      dup2\n      mstore\n      0x04\n      add\n      tag_46\n      swap1\n      tag_47\n      jump\t// in\n    tag_46:\n      mload(0x40)\n      dup1\n      swap2\n      sub\n      swap1\n      revert\n    tag_45:\n        /* \"lession6.2-Library/WhiteList.sol\":670:688  users.remove(user) */\n      tag_48\n        /* \"lession6.2-Library/WhiteList.sol\":683:687  user */\n      dup2\n        /* \"lession6.2-Library/WhiteList.sol\":670:675  users */\n      0x00\n        /* \"lession6.2-Library/WhiteList.sol\":670:682  users.remove */\n      tag_49\n      swap1\n        /* \"lession6.2-Library/WhiteList.sol\":670:688  users.remove(user) */\n      swap2\n      swap1\n      0xffffffff\n      and\n      jump\t// in\n    tag_48:\n      pop\n        /* \"lession6.2-Library/WhiteList.sol\":558:696  function removeUser(address user) public  {... */\n      pop\n      jump\t// out\n        /* \"@openzeppelin/contracts/utils/structs/EnumerableSet.sol\":16041:16206  function contains(AddressSet storage set, address value) internal view returns (bool) {... */\n    tag_26:\n        /* \"@openzeppelin/contracts/utils/structs/EnumerableSet.sol\":16121:16125  bool */\n      0x00\n        /* \"@openzeppelin/contracts/utils/structs/EnumerableSet.sol\":16144:16199  _contains(set._inner, bytes32(uint256(uint160(value)))) */\n      tag_51\n        /* \"@openzeppelin/contracts/utils/structs/EnumerableSet.sol\":16154:16157  set */\n      dup4\n        /* \"@openzeppelin/contracts/utils/structs/EnumerableSet.sol\":16154:16164  set._inner */\n      0x00\n      add\n        /* \"@openzeppelin/contracts/utils/structs/EnumerableSet.sol\":16190:16195  value */\n      dup4\n        /* \"@openzeppelin/contracts/utils/structs/EnumerableSet.sol\":16174:16197  uint256(uint160(value)) */\n      0xffffffffffffffffffffffffffffffffffffffff\n      and\n        /* \"@openzeppelin/contracts/utils/structs/EnumerableSet.sol\":16166:16198  bytes32(uint256(uint160(value))) */\n      0x00\n      shl\n        /* \"@openzeppelin/contracts/utils/structs/EnumerableSet.sol\":16144:16153  _contains */\n      tag_52\n        /* \"@openzeppelin/contracts/utils/structs/EnumerableSet.sol\":16144:16199  _contains(set._inner, bytes32(uint256(uint160(value)))) */\n      jump\t// in\n    tag_51:\n        /* \"@openzeppelin/contracts/utils/structs/EnumerableSet.sol\":16137:16199  return _contains(set._inner, bytes32(uint256(uint160(value)))) */\n      swap1\n      pop\n        /* \"@openzeppelin/contracts/utils/structs/EnumerableSet.sol\":16041:16206  function contains(AddressSet storage set, address value) internal view returns (bool) {... */\n      swap3\n      swap2\n      pop\n      pop\n      jump\t// out\n        /* \"@openzeppelin/contracts/utils/structs/EnumerableSet.sol\":15089:15239  function add(AddressSet storage set, address value) internal returns (bool) {... */\n    tag_31:\n        /* \"@openzeppelin/contracts/utils/structs/EnumerableSet.sol\":15159:15163  bool */\n      0x00\n        /* \"@openzeppelin/contracts/utils/structs/EnumerableSet.sol\":15182:15232  _add(set._inner, bytes32(uint256(uint160(value)))) */\n      tag_54\n        /* \"@openzeppelin/contracts/utils/structs/EnumerableSet.sol\":15187:15190  set */\n      dup4\n        /* \"@openzeppelin/contracts/utils/structs/EnumerableSet.sol\":15187:15197  set._inner */\n      0x00\n      add\n        /* \"@openzeppelin/contracts/utils/structs/EnumerableSet.sol\":15223:15228  value */\n      dup4\n        /* \"@openzeppelin/contracts/utils/structs/EnumerableSet.sol\":15207:15230  uint256(uint160(value)) */\n      0xffffffffffffffffffffffffffffffffffffffff\n      and\n        /* \"@openzeppelin/contracts/utils/structs/EnumerableSet.sol\":15199:15231  bytes32(uint256(uint160(value))) */\n      0x00\n      shl\n        /* \"@openzeppelin/contracts/utils/structs/EnumerableSet.sol\":15182:15186  _add */\n      tag_55\n        /* \"@openzeppelin/contracts/utils/structs/EnumerableSet.sol\":15182:15232  _add(set._inner, bytes32(uint256(uint160(value)))) */\n      jump\t// in\n    tag_54:\n        /* \"@openzeppelin/contracts/utils/structs/EnumerableSet.sol\":15175:15232  return _add(set._inner, bytes32(uint256(uint160(value)))) */\n      swap1\n      pop\n        /* \"@openzeppelin/contracts/utils/structs/EnumerableSet.sol\":15089:15239  function add(AddressSet storage set, address value) internal returns (bool) {... */\n      swap3\n      swap2\n      pop\n      pop\n      jump\t// out\n        /* \"@openzeppelin/contracts/utils/structs/EnumerableSet.sol\":17440:17713  function values(AddressSet storage set) internal view returns (address[] memory) {... */\n    tag_34:\n        /* \"@openzeppelin/contracts/utils/structs/EnumerableSet.sol\":17503:17519  address[] memory */\n      0x60\n        /* \"@openzeppelin/contracts/utils/structs/EnumerableSet.sol\":17531:17553  bytes32[] memory store */\n      0x00\n        /* \"@openzeppelin/contracts/utils/structs/EnumerableSet.sol\":17556:17575  _values(set._inner) */\n      tag_57\n        /* \"@openzeppelin/contracts/utils/structs/EnumerableSet.sol\":17564:17567  set */\n      dup4\n        /* \"@openzeppelin/contracts/utils/structs/EnumerableSet.sol\":17564:17574  set._inner */\n      0x00\n      add\n        /* \"@openzeppelin/contracts/utils/structs/EnumerableSet.sol\":17556:17563  _values */\n      tag_58\n        /* \"@openzeppelin/contracts/utils/structs/EnumerableSet.sol\":17556:17575  _values(set._inner) */\n      jump\t// in\n    tag_57:\n        /* \"@openzeppelin/contracts/utils/structs/EnumerableSet.sol\":17531:17575  bytes32[] memory store = _values(set._inner) */\n      swap1\n      pop\n        /* \"@openzeppelin/contracts/utils/structs/EnumerableSet.sol\":17585:17608  address[] memory result */\n      0x60\n        /* \"@openzeppelin/contracts/utils/structs/EnumerableSet.sol\":17668:17673  store */\n      dup2\n        /* \"@openzeppelin/contracts/utils/structs/EnumerableSet.sol\":17658:17673  result := store */\n      swap1\n      pop\n        /* \"@openzeppelin/contracts/utils/structs/EnumerableSet.sol\":17700:17706  result */\n      dup1\n        /* \"@openzeppelin/contracts/utils/structs/EnumerableSet.sol\":17693:17706  return result */\n      swap3\n      pop\n      pop\n      pop\n        /* \"@openzeppelin/contracts/utils/structs/EnumerableSet.sol\":17440:17713  function values(AddressSet storage set) internal view returns (address[] memory) {... */\n      swap2\n      swap1\n      pop\n      jump\t// out\n        /* \"@openzeppelin/contracts/utils/structs/EnumerableSet.sol\":16287:16402  function length(AddressSet storage set) internal view returns (uint256) {... */\n    tag_37:\n        /* \"@openzeppelin/contracts/utils/structs/EnumerableSet.sol\":16350:16357  uint256 */\n      0x00\n        /* \"@openzeppelin/contracts/utils/structs/EnumerableSet.sol\":16376:16395  _length(set._inner) */\n      tag_60\n        /* \"@openzeppelin/contracts/utils/structs/EnumerableSet.sol\":16384:16387  set */\n      dup3\n        /* \"@openzeppelin/contracts/utils/structs/EnumerableSet.sol\":16384:16394  set._inner */\n      0x00\n      add\n        /* \"@openzeppelin/contracts/utils/structs/EnumerableSet.sol\":16376:16383  _length */\n      tag_61\n        /* \"@openzeppelin/contracts/utils/structs/EnumerableSet.sol\":16376:16395  _length(set._inner) */\n      jump\t// in\n    tag_60:\n        /* \"@openzeppelin/contracts/utils/structs/EnumerableSet.sol\":16369:16395  return _length(set._inner) */\n      swap1\n      pop\n        /* \"@openzeppelin/contracts/utils/structs/EnumerableSet.sol\":16287:16402  function length(AddressSet storage set) internal view returns (uint256) {... */\n      swap2\n      swap1\n      pop\n      jump\t// out\n        /* \"@openzeppelin/contracts/utils/structs/EnumerableSet.sol\":16744:16900  function at(AddressSet storage set, uint256 index) internal view returns (address) {... */\n    tag_42:\n        /* \"@openzeppelin/contracts/utils/structs/EnumerableSet.sol\":16818:16825  address */\n      0x00\n        /* \"@openzeppelin/contracts/utils/structs/EnumerableSet.sol\":16868:16890  _at(set._inner, index) */\n      tag_63\n        /* \"@openzeppelin/contracts/utils/structs/EnumerableSet.sol\":16872:16875  set */\n      dup4\n        /* \"@openzeppelin/contracts/utils/structs/EnumerableSet.sol\":16872:16882  set._inner */\n      0x00\n      add\n        /* \"@openzeppelin/contracts/utils/structs/EnumerableSet.sol\":16884:16889  index */\n      dup4\n        /* \"@openzeppelin/contracts/utils/structs/EnumerableSet.sol\":16868:16871  _at */\n      tag_64\n        /* \"@openzeppelin/contracts/utils/structs/EnumerableSet.sol\":16868:16890  _at(set._inner, index) */\n      jump\t// in\n    tag_63:\n        /* \"@openzeppelin/contracts/utils/structs/EnumerableSet.sol\":16860:16891  uint256(_at(set._inner, index)) */\n      0x00\n      shr\n        /* \"@openzeppelin/contracts/utils/structs/EnumerableSet.sol\":16837:16893  return address(uint160(uint256(_at(set._inner, index)))) */\n      swap1\n      pop\n        /* \"@openzeppelin/contracts/utils/structs/EnumerableSet.sol\":16744:16900  function at(AddressSet storage set, uint256 index) internal view returns (address) {... */\n      swap3\n      swap2\n      pop\n      pop\n      jump\t// out\n        /* \"@openzeppelin/contracts/utils/structs/EnumerableSet.sol\":15407:15563  function remove(AddressSet storage set, address value) internal returns (bool) {... */\n    tag_49:\n        /* \"@openzeppelin/contracts/utils/structs/EnumerableSet.sol\":15480:15484  bool */\n      0x00\n        /* \"@openzeppelin/contracts/utils/structs/EnumerableSet.sol\":15503:15556  _remove(set._inner, bytes32(uint256(uint160(value)))) */\n      tag_66\n        /* \"@openzeppelin/contracts/utils/structs/EnumerableSet.sol\":15511:15514  set */\n      dup4\n        /* \"@openzeppelin/contracts/utils/structs/EnumerableSet.sol\":15511:15521  set._inner */\n      0x00\n      add\n        /* \"@openzeppelin/contracts/utils/structs/EnumerableSet.sol\":15547:15552  value */\n      dup4\n        /* \"@openzeppelin/contracts/utils/structs/EnumerableSet.sol\":15531:15554  uint256(uint160(value)) */\n      0xffffffffffffffffffffffffffffffffffffffff\n      and\n        /* \"@openzeppelin/contracts/utils/structs/EnumerableSet.sol\":15523:15555  bytes32(uint256(uint160(value))) */\n      0x00\n      shl\n        /* \"@openzeppelin/contracts/utils/structs/EnumerableSet.sol\":15503:15510  _remove */\n      tag_67\n        /* \"@openzeppelin/contracts/utils/structs/EnumerableSet.sol\":15503:15556  _remove(set._inner, bytes32(uint256(uint160(value)))) */\n      jump\t// in\n    tag_66:\n        /* \"@openzeppelin/contracts/utils/structs/EnumerableSet.sol\":15496:15556  return _remove(set._inner, bytes32(uint256(uint160(value)))) */\n      swap1\n      pop\n        /* \"@openzeppelin/contracts/utils/structs/EnumerableSet.sol\":15407:15563  function remove(AddressSet storage set, address value) internal returns (bool) {... */\n      swap3\n      swap2\n      pop\n      pop\n      jump\t// out\n        /* \"@openzeppelin/contracts/utils/structs/EnumerableSet.sol\":5142:5271  function _contains(Set storage set, bytes32 value) private view returns (bool) {... */\n    tag_52:\n        /* \"@openzeppelin/contracts/utils/structs/EnumerableSet.sol\":5215:5219  bool */\n      0x00\n        /* \"@openzeppelin/contracts/utils/structs/EnumerableSet.sol\":5263:5264  0 */\n      0x00\n        /* \"@openzeppelin/contracts/utils/structs/EnumerableSet.sol\":5238:5241  set */\n      dup4\n        /* \"@openzeppelin/contracts/utils/structs/EnumerableSet.sol\":5238:5252  set._positions */\n      0x01\n      add\n        /* \"@openzeppelin/contracts/utils/structs/EnumerableSet.sol\":5238:5259  set._positions[value] */\n      0x00\n        /* \"@openzeppelin/contracts/utils/structs/EnumerableSet.sol\":5253:5258  value */\n      dup5\n        /* \"@openzeppelin/contracts/utils/structs/EnumerableSet.sol\":5238:5259  set._positions[value] */\n      dup2\n      mstore\n      0x20\n      add\n      swap1\n      dup2\n      mstore\n      0x20\n      add\n      0x00\n      keccak256\n      sload\n        /* \"@openzeppelin/contracts/utils/structs/EnumerableSet.sol\":5238:5264  set._positions[value] != 0 */\n      eq\n      iszero\n        /* \"@openzeppelin/contracts/utils/structs/EnumerableSet.sol\":5231:5264  return set._positions[value] != 0 */\n      swap1\n      pop\n        /* \"@openzeppelin/contracts/utils/structs/EnumerableSet.sol\":5142:5271  function _contains(Set storage set, bytes32 value) private view returns (bool) {... */\n      swap3\n      swap2\n      pop\n      pop\n      jump\t// out\n        /* \"@openzeppelin/contracts/utils/structs/EnumerableSet.sol\":2538:2944  function _add(Set storage set, bytes32 value) private returns (bool) {... */\n    tag_55:\n        /* \"@openzeppelin/contracts/utils/structs/EnumerableSet.sol\":2601:2605  bool */\n      0x00\n        /* \"@openzeppelin/contracts/utils/structs/EnumerableSet.sol\":2622:2643  _contains(set, value) */\n      tag_70\n        /* \"@openzeppelin/contracts/utils/structs/EnumerableSet.sol\":2632:2635  set */\n      dup4\n        /* \"@openzeppelin/contracts/utils/structs/EnumerableSet.sol\":2637:2642  value */\n      dup4\n        /* \"@openzeppelin/contracts/utils/structs/EnumerableSet.sol\":2622:2631  _contains */\n      tag_52\n        /* \"@openzeppelin/contracts/utils/structs/EnumerableSet.sol\":2622:2643  _contains(set, value) */\n      jump\t// in\n    tag_70:\n        /* \"@openzeppelin/contracts/utils/structs/EnumerableSet.sol\":2617:2938  if (!_contains(set, value)) {... */\n      tag_71\n      jumpi\n        /* \"@openzeppelin/contracts/utils/structs/EnumerableSet.sol\":2659:2662  set */\n      dup3\n        /* \"@openzeppelin/contracts/utils/structs/EnumerableSet.sol\":2659:2670  set._values */\n      0x00\n      add\n        /* \"@openzeppelin/contracts/utils/structs/EnumerableSet.sol\":2676:2681  value */\n      dup3\n        /* \"@openzeppelin/contracts/utils/structs/EnumerableSet.sol\":2659:2682  set._values.push(value) */\n      swap1\n      dup1\n      0x01\n      dup2\n      sload\n      add\n      dup1\n      dup3\n      sstore\n      dup1\n      swap2\n      pop\n      pop\n      0x01\n      swap1\n      sub\n      swap1\n      0x00\n      mstore\n      keccak256(0x00, 0x20)\n      add\n      0x00\n      swap1\n      swap2\n      swap1\n      swap2\n      swap1\n      swap2\n      pop\n      sstore\n        /* \"@openzeppelin/contracts/utils/structs/EnumerableSet.sol\":2841:2844  set */\n      dup3\n        /* \"@openzeppelin/contracts/utils/structs/EnumerableSet.sol\":2841:2852  set._values */\n      0x00\n      add\n        /* \"@openzeppelin/contracts/utils/structs/EnumerableSet.sol\":2841:2859  set._values.length */\n      dup1\n      sload\n      swap1\n      pop\n        /* \"@openzeppelin/contracts/utils/structs/EnumerableSet.sol\":2817:2820  set */\n      dup4\n        /* \"@openzeppelin/contracts/utils/structs/EnumerableSet.sol\":2817:2831  set._positions */\n      0x01\n      add\n        /* \"@openzeppelin/contracts/utils/structs/EnumerableSet.sol\":2817:2838  set._positions[value] */\n      0x00\n        /* \"@openzeppelin/contracts/utils/structs/EnumerableSet.sol\":2832:2837  value */\n      dup5\n        /* \"@openzeppelin/contracts/utils/structs/EnumerableSet.sol\":2817:2838  set._positions[value] */\n      dup2\n      mstore\n      0x20\n      add\n      swap1\n      dup2\n      mstore\n      0x20\n      add\n      0x00\n      keccak256\n        /* \"@openzeppelin/contracts/utils/structs/EnumerableSet.sol\":2817:2859  set._positions[value] = set._values.length */\n      dup2\n      swap1\n      sstore\n      pop\n        /* \"@openzeppelin/contracts/utils/structs/EnumerableSet.sol\":2880:2884  true */\n      0x01\n        /* \"@openzeppelin/contracts/utils/structs/EnumerableSet.sol\":2873:2884  return true */\n      swap1\n      pop\n      jump(tag_69)\n        /* \"@openzeppelin/contracts/utils/structs/EnumerableSet.sol\":2617:2938  if (!_contains(set, value)) {... */\n    tag_71:\n        /* \"@openzeppelin/contracts/utils/structs/EnumerableSet.sol\":2922:2927  false */\n      0x00\n        /* \"@openzeppelin/contracts/utils/structs/EnumerableSet.sol\":2915:2927  return false */\n      swap1\n      pop\n        /* \"@openzeppelin/contracts/utils/structs/EnumerableSet.sol\":2538:2944  function _add(Set storage set, bytes32 value) private returns (bool) {... */\n    tag_69:\n      swap3\n      swap2\n      pop\n      pop\n      jump\t// out\n        /* \"@openzeppelin/contracts/utils/structs/EnumerableSet.sol\":6459:6568  function _values(Set storage set) private view returns (bytes32[] memory) {... */\n    tag_58:\n        /* \"@openzeppelin/contracts/utils/structs/EnumerableSet.sol\":6515:6531  bytes32[] memory */\n      0x60\n        /* \"@openzeppelin/contracts/utils/structs/EnumerableSet.sol\":6550:6553  set */\n      dup2\n        /* \"@openzeppelin/contracts/utils/structs/EnumerableSet.sol\":6550:6561  set._values */\n      0x00\n      add\n        /* \"@openzeppelin/contracts/utils/structs/EnumerableSet.sol\":6543:6561  return set._values */\n      dup1\n      sload\n      dup1\n      0x20\n      mul\n      0x20\n      add\n      mload(0x40)\n      swap1\n      dup2\n      add\n      0x40\n      mstore\n      dup1\n      swap3\n      swap2\n      swap1\n      dup2\n      dup2\n      mstore\n      0x20\n      add\n      dup3\n      dup1\n      sload\n      dup1\n      iszero\n      tag_75\n      jumpi\n      0x20\n      mul\n      dup3\n      add\n      swap2\n      swap1\n      0x00\n      mstore\n      keccak256(0x00, 0x20)\n      swap1\n    tag_76:\n      dup2\n      sload\n      dup2\n      mstore\n      0x20\n      add\n      swap1\n      0x01\n      add\n      swap1\n      dup1\n      dup4\n      gt\n      tag_76\n      jumpi\n    tag_75:\n      pop\n      pop\n      pop\n      pop\n      pop\n      swap1\n      pop\n        /* \"@openzeppelin/contracts/utils/structs/EnumerableSet.sol\":6459:6568  function _values(Set storage set) private view returns (bytes32[] memory) {... */\n      swap2\n      swap1\n      pop\n      jump\t// out\n        /* \"@openzeppelin/contracts/utils/structs/EnumerableSet.sol\":5352:5459  function _length(Set storage set) private view returns (uint256) {... */\n    tag_61:\n        /* \"@openzeppelin/contracts/utils/structs/EnumerableSet.sol\":5408:5415  uint256 */\n      0x00\n        /* \"@openzeppelin/contracts/utils/structs/EnumerableSet.sol\":5434:5437  set */\n      dup2\n        /* \"@openzeppelin/contracts/utils/structs/EnumerableSet.sol\":5434:5445  set._values */\n      0x00\n      add\n        /* \"@openzeppelin/contracts/utils/structs/EnumerableSet.sol\":5434:5452  set._values.length */\n      dup1\n      sload\n      swap1\n      pop\n        /* \"@openzeppelin/contracts/utils/structs/EnumerableSet.sol\":5427:5452  return set._values.length */\n      swap1\n      pop\n        /* \"@openzeppelin/contracts/utils/structs/EnumerableSet.sol\":5352:5459  function _length(Set storage set) private view returns (uint256) {... */\n      swap2\n      swap1\n      pop\n      jump\t// out\n        /* \"@openzeppelin/contracts/utils/structs/EnumerableSet.sol\":5801:5919  function _at(Set storage set, uint256 index) private view returns (bytes32) {... */\n    tag_64:\n        /* \"@openzeppelin/contracts/utils/structs/EnumerableSet.sol\":5868:5875  bytes32 */\n      0x00\n        /* \"@openzeppelin/contracts/utils/structs/EnumerableSet.sol\":5894:5897  set */\n      dup3\n        /* \"@openzeppelin/contracts/utils/structs/EnumerableSet.sol\":5894:5905  set._values */\n      0x00\n      add\n        /* \"@openzeppelin/contracts/utils/structs/EnumerableSet.sol\":5906:5911  index */\n      dup3\n        /* \"@openzeppelin/contracts/utils/structs/EnumerableSet.sol\":5894:5912  set._values[index] */\n      dup2\n      sload\n      dup2\n      lt\n      tag_79\n      jumpi\n      tag_80\n      tag_81\n      jump\t// in\n    tag_80:\n    tag_79:\n      swap1\n      0x00\n      mstore\n      keccak256(0x00, 0x20)\n      add\n      sload\n        /* \"@openzeppelin/contracts/utils/structs/EnumerableSet.sol\":5887:5912  return set._values[index] */\n      swap1\n      pop\n        /* \"@openzeppelin/contracts/utils/structs/EnumerableSet.sol\":5801:5919  function _at(Set storage set, uint256 index) private view returns (bytes32) {... */\n      swap3\n      swap2\n      pop\n      pop\n      jump\t// out\n        /* \"@openzeppelin/contracts/utils/structs/EnumerableSet.sol\":3112:4480  function _remove(Set storage set, bytes32 value) private returns (bool) {... */\n    tag_67:\n        /* \"@openzeppelin/contracts/utils/structs/EnumerableSet.sol\":3178:3182  bool */\n      0x00\n        /* \"@openzeppelin/contracts/utils/structs/EnumerableSet.sol\":3288:3304  uint256 position */\n      0x00\n        /* \"@openzeppelin/contracts/utils/structs/EnumerableSet.sol\":3307:3310  set */\n      dup4\n        /* \"@openzeppelin/contracts/utils/structs/EnumerableSet.sol\":3307:3321  set._positions */\n      0x01\n      add\n        /* \"@openzeppelin/contracts/utils/structs/EnumerableSet.sol\":3307:3328  set._positions[value] */\n      0x00\n        /* \"@openzeppelin/contracts/utils/structs/EnumerableSet.sol\":3322:3327  value */\n      dup5\n        /* \"@openzeppelin/contracts/utils/structs/EnumerableSet.sol\":3307:3328  set._positions[value] */\n      dup2\n      mstore\n      0x20\n      add\n      swap1\n      dup2\n      mstore\n      0x20\n      add\n      0x00\n      keccak256\n      sload\n        /* \"@openzeppelin/contracts/utils/structs/EnumerableSet.sol\":3288:3328  uint256 position = set._positions[value] */\n      swap1\n      pop\n        /* \"@openzeppelin/contracts/utils/structs/EnumerableSet.sol\":3355:3356  0 */\n      0x00\n        /* \"@openzeppelin/contracts/utils/structs/EnumerableSet.sol\":3343:3351  position */\n      dup2\n        /* \"@openzeppelin/contracts/utils/structs/EnumerableSet.sol\":3343:3356  position != 0 */\n      eq\n        /* \"@openzeppelin/contracts/utils/structs/EnumerableSet.sol\":3339:4474  if (position != 0) {... */\n      tag_84\n      jumpi\n        /* \"@openzeppelin/contracts/utils/structs/EnumerableSet.sol\":3710:3728  uint256 valueIndex */\n      0x00\n        /* \"@openzeppelin/contracts/utils/structs/EnumerableSet.sol\":3742:3743  1 */\n      0x01\n        /* \"@openzeppelin/contracts/utils/structs/EnumerableSet.sol\":3731:3739  position */\n      dup3\n        /* \"@openzeppelin/contracts/utils/structs/EnumerableSet.sol\":3731:3743  position - 1 */\n      tag_85\n      swap2\n      swap1\n      tag_86\n      jump\t// in\n    tag_85:\n        /* \"@openzeppelin/contracts/utils/structs/EnumerableSet.sol\":3710:3743  uint256 valueIndex = position - 1 */\n      swap1\n      pop\n        /* \"@openzeppelin/contracts/utils/structs/EnumerableSet.sol\":3757:3774  uint256 lastIndex */\n      0x00\n        /* \"@openzeppelin/contracts/utils/structs/EnumerableSet.sol\":3798:3799  1 */\n      0x01\n        /* \"@openzeppelin/contracts/utils/structs/EnumerableSet.sol\":3777:3780  set */\n      dup7\n        /* \"@openzeppelin/contracts/utils/structs/EnumerableSet.sol\":3777:3788  set._values */\n      0x00\n      add\n        /* \"@openzeppelin/contracts/utils/structs/EnumerableSet.sol\":3777:3795  set._values.length */\n      dup1\n      sload\n      swap1\n      pop\n        /* \"@openzeppelin/contracts/utils/structs/EnumerableSet.sol\":3777:3799  set._values.length - 1 */\n      tag_87\n      swap2\n      swap1\n      tag_86\n      jump\t// in\n    tag_87:\n        /* \"@openzeppelin/contracts/utils/structs/EnumerableSet.sol\":3757:3799  uint256 lastIndex = set._values.length - 1 */\n      swap1\n      pop\n        /* \"@openzeppelin/contracts/utils/structs/EnumerableSet.sol\":3832:3841  lastIndex */\n      dup1\n        /* \"@openzeppelin/contracts/utils/structs/EnumerableSet.sol\":3818:3828  valueIndex */\n      dup3\n        /* \"@openzeppelin/contracts/utils/structs/EnumerableSet.sol\":3818:3841  valueIndex != lastIndex */\n      eq\n        /* \"@openzeppelin/contracts/utils/structs/EnumerableSet.sol\":3814:4192  if (valueIndex != lastIndex) {... */\n      tag_88\n      jumpi\n        /* \"@openzeppelin/contracts/utils/structs/EnumerableSet.sol\":3861:3878  bytes32 lastValue */\n      0x00\n        /* \"@openzeppelin/contracts/utils/structs/EnumerableSet.sol\":3881:3884  set */\n      dup7\n        /* \"@openzeppelin/contracts/utils/structs/EnumerableSet.sol\":3881:3892  set._values */\n      0x00\n      add\n        /* \"@openzeppelin/contracts/utils/structs/EnumerableSet.sol\":3893:3902  lastIndex */\n      dup3\n        /* \"@openzeppelin/contracts/utils/structs/EnumerableSet.sol\":3881:3903  set._values[lastIndex] */\n      dup2\n      sload\n      dup2\n      lt\n      tag_89\n      jumpi\n      tag_90\n      tag_81\n      jump\t// in\n    tag_90:\n    tag_89:\n      swap1\n      0x00\n      mstore\n      keccak256(0x00, 0x20)\n      add\n      sload\n        /* \"@openzeppelin/contracts/utils/structs/EnumerableSet.sol\":3861:3903  bytes32 lastValue = set._values[lastIndex] */\n      swap1\n      pop\n        /* \"@openzeppelin/contracts/utils/structs/EnumerableSet.sol\":4028:4037  lastValue */\n      dup1\n        /* \"@openzeppelin/contracts/utils/structs/EnumerableSet.sol\":4002:4005  set */\n      dup8\n        /* \"@openzeppelin/contracts/utils/structs/EnumerableSet.sol\":4002:4013  set._values */\n      0x00\n      add\n        /* \"@openzeppelin/contracts/utils/structs/EnumerableSet.sol\":4014:4024  valueIndex */\n      dup5\n        /* \"@openzeppelin/contracts/utils/structs/EnumerableSet.sol\":4002:4025  set._values[valueIndex] */\n      dup2\n      sload\n      dup2\n      lt\n      tag_92\n      jumpi\n      tag_93\n      tag_81\n      jump\t// in\n    tag_93:\n    tag_92:\n      swap1\n      0x00\n      mstore\n      keccak256(0x00, 0x20)\n      add\n        /* \"@openzeppelin/contracts/utils/structs/EnumerableSet.sol\":4002:4037  set._values[valueIndex] = lastValue */\n      dup2\n      swap1\n      sstore\n      pop\n        /* \"@openzeppelin/contracts/utils/structs/EnumerableSet.sol\":4169:4177  position */\n      dup4\n        /* \"@openzeppelin/contracts/utils/structs/EnumerableSet.sol\":4141:4144  set */\n      dup8\n        /* \"@openzeppelin/contracts/utils/structs/EnumerableSet.sol\":4141:4155  set._positions */\n      0x01\n      add\n        /* \"@openzeppelin/contracts/utils/structs/EnumerableSet.sol\":4141:4166  set._positions[lastValue] */\n      0x00\n        /* \"@openzeppelin/contracts/utils/structs/EnumerableSet.sol\":4156:4165  lastValue */\n      dup4\n        /* \"@openzeppelin/contracts/utils/structs/EnumerableSet.sol\":4141:4166  set._positions[lastValue] */\n      dup2\n      mstore\n      0x20\n      add\n      swap1\n      dup2\n      mstore\n      0x20\n      add\n      0x00\n      keccak256\n        /* \"@openzeppelin/contracts/utils/structs/EnumerableSet.sol\":4141:4177  set._positions[lastValue] = position */\n      dup2\n      swap1\n      sstore\n      pop\n        /* \"@openzeppelin/contracts/utils/structs/EnumerableSet.sol\":3843:4192  {... */\n      pop\n        /* \"@openzeppelin/contracts/utils/structs/EnumerableSet.sol\":3814:4192  if (valueIndex != lastIndex) {... */\n    tag_88:\n        /* \"@openzeppelin/contracts/utils/structs/EnumerableSet.sol\":4270:4273  set */\n      dup6\n        /* \"@openzeppelin/contracts/utils/structs/EnumerableSet.sol\":4270:4281  set._values */\n      0x00\n      add\n        /* \"@openzeppelin/contracts/utils/structs/EnumerableSet.sol\":4270:4287  set._values.pop() */\n      dup1\n      sload\n      dup1\n      tag_95\n      jumpi\n      tag_96\n      tag_97\n      jump\t// in\n    tag_96:\n    tag_95:\n      0x01\n      swap1\n      sub\n      dup2\n      dup2\n      swap1\n      0x00\n      mstore\n      keccak256(0x00, 0x20)\n      add\n      0x00\n      swap1\n      sstore\n      swap1\n      sstore\n        /* \"@openzeppelin/contracts/utils/structs/EnumerableSet.sol\":4373:4376  set */\n      dup6\n        /* \"@openzeppelin/contracts/utils/structs/EnumerableSet.sol\":4373:4387  set._positions */\n      0x01\n      add\n        /* \"@openzeppelin/contracts/utils/structs/EnumerableSet.sol\":4373:4394  set._positions[value] */\n      0x00\n        /* \"@openzeppelin/contracts/utils/structs/EnumerableSet.sol\":4388:4393  value */\n      dup7\n        /* \"@openzeppelin/contracts/utils/structs/EnumerableSet.sol\":4373:4394  set._positions[value] */\n      dup2\n      mstore\n      0x20\n      add\n      swap1\n      dup2\n      mstore\n      0x20\n      add\n      0x00\n      keccak256\n        /* \"@openzeppelin/contracts/utils/structs/EnumerableSet.sol\":4366:4394  delete set._positions[value] */\n      0x00\n      swap1\n      sstore\n        /* \"@openzeppelin/contracts/utils/structs/EnumerableSet.sol\":4416:4420  true */\n      0x01\n        /* \"@openzeppelin/contracts/utils/structs/EnumerableSet.sol\":4409:4420  return true */\n      swap4\n      pop\n      pop\n      pop\n      pop\n      jump(tag_83)\n        /* \"@openzeppelin/contracts/utils/structs/EnumerableSet.sol\":3339:4474  if (position != 0) {... */\n    tag_84:\n        /* \"@openzeppelin/contracts/utils/structs/EnumerableSet.sol\":4458:4463  false */\n      0x00\n        /* \"@openzeppelin/contracts/utils/structs/EnumerableSet.sol\":4451:4463  return false */\n      swap2\n      pop\n      pop\n        /* \"@openzeppelin/contracts/utils/structs/EnumerableSet.sol\":3112:4480  function _remove(Set storage set, bytes32 value) private returns (bool) {... */\n    tag_83:\n      swap3\n      swap2\n      pop\n      pop\n      jump\t// out\n        /* \"#utility.yul\":88:205   */\n    tag_101:\n        /* \"#utility.yul\":197:198   */\n      0x00\n        /* \"#utility.yul\":194:195   */\n      0x00\n        /* \"#utility.yul\":187:199   */\n      revert\n        /* \"#utility.yul\":334:460   */\n    tag_103:\n        /* \"#utility.yul\":371:378   */\n      0x00\n        /* \"#utility.yul\":411:453   */\n      0xffffffffffffffffffffffffffffffffffffffff\n        /* \"#utility.yul\":404:409   */\n      dup3\n        /* \"#utility.yul\":400:454   */\n      and\n        /* \"#utility.yul\":389:454   */\n      swap1\n      pop\n        /* \"#utility.yul\":334:460   */\n      swap2\n      swap1\n      pop\n      jump\t// out\n        /* \"#utility.yul\":466:562   */\n    tag_104:\n        /* \"#utility.yul\":503:510   */\n      0x00\n        /* \"#utility.yul\":532:556   */\n      tag_132\n        /* \"#utility.yul\":550:555   */\n      dup3\n        /* \"#utility.yul\":532:556   */\n      tag_103\n      jump\t// in\n    tag_132:\n        /* \"#utility.yul\":521:556   */\n      swap1\n      pop\n        /* \"#utility.yul\":466:562   */\n      swap2\n      swap1\n      pop\n      jump\t// out\n        /* \"#utility.yul\":568:690   */\n    tag_105:\n        /* \"#utility.yul\":641:665   */\n      tag_134\n        /* \"#utility.yul\":659:664   */\n      dup2\n        /* \"#utility.yul\":641:665   */\n      tag_104\n      jump\t// in\n    tag_134:\n        /* \"#utility.yul\":634:639   */\n      dup2\n        /* \"#utility.yul\":631:666   */\n      eq\n        /* \"#utility.yul\":621:684   */\n      tag_135\n      jumpi\n        /* \"#utility.yul\":680:681   */\n      0x00\n        /* \"#utility.yul\":677:678   */\n      0x00\n        /* \"#utility.yul\":670:682   */\n      revert\n        /* \"#utility.yul\":621:684   */\n    tag_135:\n        /* \"#utility.yul\":568:690   */\n      pop\n      jump\t// out\n        /* \"#utility.yul\":696:835   */\n    tag_106:\n        /* \"#utility.yul\":742:747   */\n      0x00\n        /* \"#utility.yul\":780:786   */\n      dup2\n        /* \"#utility.yul\":767:787   */\n      calldataload\n        /* \"#utility.yul\":758:787   */\n      swap1\n      pop\n        /* \"#utility.yul\":796:829   */\n      tag_137\n        /* \"#utility.yul\":823:828   */\n      dup2\n        /* \"#utility.yul\":796:829   */\n      tag_105\n      jump\t// in\n    tag_137:\n        /* \"#utility.yul\":696:835   */\n      swap3\n      swap2\n      pop\n      pop\n      jump\t// out\n        /* \"#utility.yul\":841:1170   */\n    tag_9:\n        /* \"#utility.yul\":900:906   */\n      0x00\n        /* \"#utility.yul\":949:951   */\n      0x20\n        /* \"#utility.yul\":937:946   */\n      dup3\n        /* \"#utility.yul\":928:935   */\n      dup5\n        /* \"#utility.yul\":924:947   */\n      sub\n        /* \"#utility.yul\":920:952   */\n      slt\n        /* \"#utility.yul\":917:1036   */\n      iszero\n      tag_139\n      jumpi\n        /* \"#utility.yul\":955:1034   */\n      tag_140\n      tag_101\n      jump\t// in\n    tag_140:\n        /* \"#utility.yul\":917:1036   */\n    tag_139:\n        /* \"#utility.yul\":1075:1076   */\n      0x00\n        /* \"#utility.yul\":1100:1153   */\n      tag_141\n        /* \"#utility.yul\":1145:1152   */\n      dup5\n        /* \"#utility.yul\":1136:1142   */\n      dup3\n        /* \"#utility.yul\":1125:1134   */\n      dup6\n        /* \"#utility.yul\":1121:1143   */\n      add\n        /* \"#utility.yul\":1100:1153   */\n      tag_106\n      jump\t// in\n    tag_141:\n        /* \"#utility.yul\":1090:1153   */\n      swap2\n      pop\n        /* \"#utility.yul\":1046:1163   */\n      pop\n        /* \"#utility.yul\":841:1170   */\n      swap3\n      swap2\n      pop\n      pop\n      jump\t// out\n        /* \"#utility.yul\":1176:1290   */\n    tag_107:\n        /* \"#utility.yul\":1243:1249   */\n      0x00\n        /* \"#utility.yul\":1277:1282   */\n      dup2\n        /* \"#utility.yul\":1271:1283   */\n      mload\n        /* \"#utility.yul\":1261:1283   */\n      swap1\n      pop\n        /* \"#utility.yul\":1176:1290   */\n      swap2\n      swap1\n      pop\n      jump\t// out\n        /* \"#utility.yul\":1296:1480   */\n    tag_108:\n        /* \"#utility.yul\":1395:1406   */\n      0x00\n        /* \"#utility.yul\":1429:1435   */\n      dup3\n        /* \"#utility.yul\":1424:1427   */\n      dup3\n        /* \"#utility.yul\":1417:1436   */\n      mstore\n        /* \"#utility.yul\":1469:1473   */\n      0x20\n        /* \"#utility.yul\":1464:1467   */\n      dup3\n        /* \"#utility.yul\":1460:1474   */\n      add\n        /* \"#utility.yul\":1445:1474   */\n      swap1\n      pop\n        /* \"#utility.yul\":1296:1480   */\n      swap3\n      swap2\n      pop\n      pop\n      jump\t// out\n        /* \"#utility.yul\":1486:1618   */\n    tag_109:\n        /* \"#utility.yul\":1553:1557   */\n      0x00\n        /* \"#utility.yul\":1576:1579   */\n      dup2\n        /* \"#utility.yul\":1568:1579   */\n      swap1\n      pop\n        /* \"#utility.yul\":1606:1610   */\n      0x20\n        /* \"#utility.yul\":1601:1604   */\n      dup3\n        /* \"#utility.yul\":1597:1611   */\n      add\n        /* \"#utility.yul\":1589:1611   */\n      swap1\n      pop\n        /* \"#utility.yul\":1486:1618   */\n      swap2\n      swap1\n      pop\n      jump\t// out\n        /* \"#utility.yul\":1624:1732   */\n    tag_110:\n        /* \"#utility.yul\":1701:1725   */\n      tag_146\n        /* \"#utility.yul\":1719:1724   */\n      dup2\n        /* \"#utility.yul\":1701:1725   */\n      tag_104\n      jump\t// in\n    tag_146:\n        /* \"#utility.yul\":1696:1699   */\n      dup3\n        /* \"#utility.yul\":1689:1726   */\n      mstore\n        /* \"#utility.yul\":1624:1732   */\n      pop\n      pop\n      jump\t// out\n        /* \"#utility.yul\":1738:1917   */\n    tag_111:\n        /* \"#utility.yul\":1807:1817   */\n      0x00\n        /* \"#utility.yul\":1828:1874   */\n      tag_148\n        /* \"#utility.yul\":1870:1873   */\n      dup4\n        /* \"#utility.yul\":1862:1868   */\n      dup4\n        /* \"#utility.yul\":1828:1874   */\n      tag_110\n      jump\t// in\n    tag_148:\n        /* \"#utility.yul\":1906:1910   */\n      0x20\n        /* \"#utility.yul\":1901:1904   */\n      dup4\n        /* \"#utility.yul\":1897:1911   */\n      add\n        /* \"#utility.yul\":1883:1911   */\n      swap1\n      pop\n        /* \"#utility.yul\":1738:1917   */\n      swap3\n      swap2\n      pop\n      pop\n      jump\t// out\n        /* \"#utility.yul\":1923:2036   */\n    tag_112:\n        /* \"#utility.yul\":1993:1997   */\n      0x00\n        /* \"#utility.yul\":2025:2029   */\n      0x20\n        /* \"#utility.yul\":2020:2023   */\n      dup3\n        /* \"#utility.yul\":2016:2030   */\n      add\n        /* \"#utility.yul\":2008:2030   */\n      swap1\n      pop\n        /* \"#utility.yul\":1923:2036   */\n      swap2\n      swap1\n      pop\n      jump\t// out\n        /* \"#utility.yul\":2072:2804   */\n    tag_113:\n        /* \"#utility.yul\":2191:2194   */\n      0x00\n        /* \"#utility.yul\":2220:2274   */\n      tag_151\n        /* \"#utility.yul\":2268:2273   */\n      dup3\n        /* \"#utility.yul\":2220:2274   */\n      tag_107\n      jump\t// in\n    tag_151:\n        /* \"#utility.yul\":2290:2376   */\n      tag_152\n        /* \"#utility.yul\":2369:2375   */\n      dup2\n        /* \"#utility.yul\":2364:2367   */\n      dup6\n        /* \"#utility.yul\":2290:2376   */\n      tag_108\n      jump\t// in\n    tag_152:\n        /* \"#utility.yul\":2283:2376   */\n      swap4\n      pop\n        /* \"#utility.yul\":2400:2456   */\n      tag_153\n        /* \"#utility.yul\":2450:2455   */\n      dup4\n        /* \"#utility.yul\":2400:2456   */\n      tag_109\n      jump\t// in\n    tag_153:\n        /* \"#utility.yul\":2479:2486   */\n      dup1\n        /* \"#utility.yul\":2510:2511   */\n      0x00\n        /* \"#utility.yul\":2495:2779   */\n    tag_154:\n        /* \"#utility.yul\":2520:2526   */\n      dup4\n        /* \"#utility.yul\":2517:2518   */\n      dup2\n        /* \"#utility.yul\":2514:2527   */\n      lt\n        /* \"#utility.yul\":2495:2779   */\n      iszero\n      tag_156\n      jumpi\n        /* \"#utility.yul\":2596:2602   */\n      dup2\n        /* \"#utility.yul\":2590:2603   */\n      mload\n        /* \"#utility.yul\":2623:2686   */\n      tag_157\n        /* \"#utility.yul\":2682:2685   */\n      dup9\n        /* \"#utility.yul\":2667:2680   */\n      dup3\n        /* \"#utility.yul\":2623:2686   */\n      tag_111\n      jump\t// in\n    tag_157:\n        /* \"#utility.yul\":2616:2686   */\n      swap8\n      pop\n        /* \"#utility.yul\":2709:2769   */\n      tag_158\n        /* \"#utility.yul\":2762:2768   */\n      dup4\n        /* \"#utility.yul\":2709:2769   */\n      tag_112\n      jump\t// in\n    tag_158:\n        /* \"#utility.yul\":2699:2769   */\n      swap3\n      pop\n        /* \"#utility.yul\":2555:2779   */\n      pop\n        /* \"#utility.yul\":2542:2543   */\n      0x01\n        /* \"#utility.yul\":2539:2540   */\n      dup2\n        /* \"#utility.yul\":2535:2544   */\n      add\n        /* \"#utility.yul\":2530:2544   */\n      swap1\n      pop\n        /* \"#utility.yul\":2495:2779   */\n      jump(tag_154)\n    tag_156:\n        /* \"#utility.yul\":2499:2513   */\n      pop\n        /* \"#utility.yul\":2795:2798   */\n      dup6\n        /* \"#utility.yul\":2788:2798   */\n      swap4\n      pop\n        /* \"#utility.yul\":2196:2804   */\n      pop\n      pop\n      pop\n        /* \"#utility.yul\":2072:2804   */\n      swap3\n      swap2\n      pop\n      pop\n      jump\t// out\n        /* \"#utility.yul\":2810:3183   */\n    tag_14:\n        /* \"#utility.yul\":2953:2957   */\n      0x00\n        /* \"#utility.yul\":2991:2993   */\n      0x20\n        /* \"#utility.yul\":2980:2989   */\n      dup3\n        /* \"#utility.yul\":2976:2994   */\n      add\n        /* \"#utility.yul\":2968:2994   */\n      swap1\n      pop\n        /* \"#utility.yul\":3040:3049   */\n      dup2\n        /* \"#utility.yul\":3034:3038   */\n      dup2\n        /* \"#utility.yul\":3030:3050   */\n      sub\n        /* \"#utility.yul\":3026:3027   */\n      0x00\n        /* \"#utility.yul\":3015:3024   */\n      dup4\n        /* \"#utility.yul\":3011:3028   */\n      add\n        /* \"#utility.yul\":3004:3051   */\n      mstore\n        /* \"#utility.yul\":3068:3176   */\n      tag_160\n        /* \"#utility.yul\":3171:3175   */\n      dup2\n        /* \"#utility.yul\":3162:3168   */\n      dup5\n        /* \"#utility.yul\":3068:3176   */\n      tag_113\n      jump\t// in\n    tag_160:\n        /* \"#utility.yul\":3060:3176   */\n      swap1\n      pop\n        /* \"#utility.yul\":2810:3183   */\n      swap3\n      swap2\n      pop\n      pop\n      jump\t// out\n        /* \"#utility.yul\":3189:3266   */\n    tag_114:\n        /* \"#utility.yul\":3226:3233   */\n      0x00\n        /* \"#utility.yul\":3255:3260   */\n      dup2\n        /* \"#utility.yul\":3244:3260   */\n      swap1\n      pop\n        /* \"#utility.yul\":3189:3266   */\n      swap2\n      swap1\n      pop\n      jump\t// out\n        /* \"#utility.yul\":3272:3394   */\n    tag_115:\n        /* \"#utility.yul\":3345:3369   */\n      tag_163\n        /* \"#utility.yul\":3363:3368   */\n      dup2\n        /* \"#utility.yul\":3345:3369   */\n      tag_114\n      jump\t// in\n    tag_163:\n        /* \"#utility.yul\":3338:3343   */\n      dup2\n        /* \"#utility.yul\":3335:3370   */\n      eq\n        /* \"#utility.yul\":3325:3388   */\n      tag_164\n      jumpi\n        /* \"#utility.yul\":3384:3385   */\n      0x00\n        /* \"#utility.yul\":3381:3382   */\n      0x00\n        /* \"#utility.yul\":3374:3386   */\n      revert\n        /* \"#utility.yul\":3325:3388   */\n    tag_164:\n        /* \"#utility.yul\":3272:3394   */\n      pop\n      jump\t// out\n        /* \"#utility.yul\":3400:3539   */\n    tag_116:\n        /* \"#utility.yul\":3446:3451   */\n      0x00\n        /* \"#utility.yul\":3484:3490   */\n      dup2\n        /* \"#utility.yul\":3471:3491   */\n      calldataload\n        /* \"#utility.yul\":3462:3491   */\n      swap1\n      pop\n        /* \"#utility.yul\":3500:3533   */\n      tag_166\n        /* \"#utility.yul\":3527:3532   */\n      dup2\n        /* \"#utility.yul\":3500:3533   */\n      tag_115\n      jump\t// in\n    tag_166:\n        /* \"#utility.yul\":3400:3539   */\n      swap3\n      swap2\n      pop\n      pop\n      jump\t// out\n        /* \"#utility.yul\":3545:3874   */\n    tag_17:\n        /* \"#utility.yul\":3604:3610   */\n      0x00\n        /* \"#utility.yul\":3653:3655   */\n      0x20\n        /* \"#utility.yul\":3641:3650   */\n      dup3\n        /* \"#utility.yul\":3632:3639   */\n      dup5\n        /* \"#utility.yul\":3628:3651   */\n      sub\n        /* \"#utility.yul\":3624:3656   */\n      slt\n        /* \"#utility.yul\":3621:3740   */\n      iszero\n      tag_168\n      jumpi\n        /* \"#utility.yul\":3659:3738   */\n      tag_169\n      tag_101\n      jump\t// in\n    tag_169:\n        /* \"#utility.yul\":3621:3740   */\n    tag_168:\n        /* \"#utility.yul\":3779:3780   */\n      0x00\n        /* \"#utility.yul\":3804:3857   */\n      tag_170\n        /* \"#utility.yul\":3849:3856   */\n      dup5\n        /* \"#utility.yul\":3840:3846   */\n      dup3\n        /* \"#utility.yul\":3829:3838   */\n      dup6\n        /* \"#utility.yul\":3825:3847   */\n      add\n        /* \"#utility.yul\":3804:3857   */\n      tag_116\n      jump\t// in\n    tag_170:\n        /* \"#utility.yul\":3794:3857   */\n      swap2\n      pop\n        /* \"#utility.yul\":3750:3867   */\n      pop\n        /* \"#utility.yul\":3545:3874   */\n      swap3\n      swap2\n      pop\n      pop\n      jump\t// out\n        /* \"#utility.yul\":3880:3998   */\n    tag_117:\n        /* \"#utility.yul\":3967:3991   */\n      tag_172\n        /* \"#utility.yul\":3985:3990   */\n      dup2\n        /* \"#utility.yul\":3967:3991   */\n      tag_104\n      jump\t// in\n    tag_172:\n        /* \"#utility.yul\":3962:3965   */\n      dup3\n        /* \"#utility.yul\":3955:3992   */\n      mstore\n        /* \"#utility.yul\":3880:3998   */\n      pop\n      pop\n      jump\t// out\n        /* \"#utility.yul\":4004:4226   */\n    tag_20:\n        /* \"#utility.yul\":4097:4101   */\n      0x00\n        /* \"#utility.yul\":4135:4137   */\n      0x20\n        /* \"#utility.yul\":4124:4133   */\n      dup3\n        /* \"#utility.yul\":4120:4138   */\n      add\n        /* \"#utility.yul\":4112:4138   */\n      swap1\n      pop\n        /* \"#utility.yul\":4148:4219   */\n      tag_174\n        /* \"#utility.yul\":4216:4217   */\n      0x00\n        /* \"#utility.yul\":4205:4214   */\n      dup4\n        /* \"#utility.yul\":4201:4218   */\n      add\n        /* \"#utility.yul\":4192:4198   */\n      dup5\n        /* \"#utility.yul\":4148:4219   */\n      tag_117\n      jump\t// in\n    tag_174:\n        /* \"#utility.yul\":4004:4226   */\n      swap3\n      swap2\n      pop\n      pop\n      jump\t// out\n        /* \"#utility.yul\":4232:4401   */\n    tag_118:\n        /* \"#utility.yul\":4316:4327   */\n      0x00\n        /* \"#utility.yul\":4350:4356   */\n      dup3\n        /* \"#utility.yul\":4345:4348   */\n      dup3\n        /* \"#utility.yul\":4338:4357   */\n      mstore\n        /* \"#utility.yul\":4390:4394   */\n      0x20\n        /* \"#utility.yul\":4385:4388   */\n      dup3\n        /* \"#utility.yul\":4381:4395   */\n      add\n        /* \"#utility.yul\":4366:4395   */\n      swap1\n      pop\n        /* \"#utility.yul\":4232:4401   */\n      swap3\n      swap2\n      pop\n      pop\n      jump\t// out\n        /* \"#utility.yul\":4407:4571   */\n    tag_119:\n        /* \"#utility.yul\":4547:4563   */\n      0x416c726561647920657869737421000000000000000000000000000000000000\n        /* \"#utility.yul\":4543:4544   */\n      0x00\n        /* \"#utility.yul\":4535:4541   */\n      dup3\n        /* \"#utility.yul\":4531:4545   */\n      add\n        /* \"#utility.yul\":4524:4564   */\n      mstore\n        /* \"#utility.yul\":4407:4571   */\n      pop\n      jump\t// out\n        /* \"#utility.yul\":4577:4943   */\n    tag_120:\n        /* \"#utility.yul\":4719:4722   */\n      0x00\n        /* \"#utility.yul\":4740:4807   */\n      tag_178\n        /* \"#utility.yul\":4804:4806   */\n      0x0e\n        /* \"#utility.yul\":4799:4802   */\n      dup4\n        /* \"#utility.yul\":4740:4807   */\n      tag_118\n      jump\t// in\n    tag_178:\n        /* \"#utility.yul\":4733:4807   */\n      swap2\n      pop\n        /* \"#utility.yul\":4816:4909   */\n      tag_179\n        /* \"#utility.yul\":4905:4908   */\n      dup3\n        /* \"#utility.yul\":4816:4909   */\n      tag_119\n      jump\t// in\n    tag_179:\n        /* \"#utility.yul\":4934:4936   */\n      0x20\n        /* \"#utility.yul\":4929:4932   */\n      dup3\n        /* \"#utility.yul\":4925:4937   */\n      add\n        /* \"#utility.yul\":4918:4937   */\n      swap1\n      pop\n        /* \"#utility.yul\":4577:4943   */\n      swap2\n      swap1\n      pop\n      jump\t// out\n        /* \"#utility.yul\":4949:5368   */\n    tag_29:\n        /* \"#utility.yul\":5115:5119   */\n      0x00\n        /* \"#utility.yul\":5153:5155   */\n      0x20\n        /* \"#utility.yul\":5142:5151   */\n      dup3\n        /* \"#utility.yul\":5138:5156   */\n      add\n        /* \"#utility.yul\":5130:5156   */\n      swap1\n      pop\n        /* \"#utility.yul\":5202:5211   */\n      dup2\n        /* \"#utility.yul\":5196:5200   */\n      dup2\n        /* \"#utility.yul\":5192:5212   */\n      sub\n        /* \"#utility.yul\":5188:5189   */\n      0x00\n        /* \"#utility.yul\":5177:5186   */\n      dup4\n        /* \"#utility.yul\":5173:5190   */\n      add\n        /* \"#utility.yul\":5166:5213   */\n      mstore\n        /* \"#utility.yul\":5230:5361   */\n      tag_181\n        /* \"#utility.yul\":5356:5360   */\n      dup2\n        /* \"#utility.yul\":5230:5361   */\n      tag_120\n      jump\t// in\n    tag_181:\n        /* \"#utility.yul\":5222:5361   */\n      swap1\n      pop\n        /* \"#utility.yul\":4949:5368   */\n      swap2\n      swap1\n      pop\n      jump\t// out\n        /* \"#utility.yul\":5374:5544   */\n    tag_121:\n        /* \"#utility.yul\":5514:5536   */\n      0x496e646578206f7574206f6620626f756e647321000000000000000000000000\n        /* \"#utility.yul\":5510:5511   */\n      0x00\n        /* \"#utility.yul\":5502:5508   */\n      dup3\n        /* \"#utility.yul\":5498:5512   */\n      add\n        /* \"#utility.yul\":5491:5537   */\n      mstore\n        /* \"#utility.yul\":5374:5544   */\n      pop\n      jump\t// out\n        /* \"#utility.yul\":5550:5916   */\n    tag_122:\n        /* \"#utility.yul\":5692:5695   */\n      0x00\n        /* \"#utility.yul\":5713:5780   */\n      tag_184\n        /* \"#utility.yul\":5777:5779   */\n      0x14\n        /* \"#utility.yul\":5772:5775   */\n      dup4\n        /* \"#utility.yul\":5713:5780   */\n      tag_118\n      jump\t// in\n    tag_184:\n        /* \"#utility.yul\":5706:5780   */\n      swap2\n      pop\n        /* \"#utility.yul\":5789:5882   */\n      tag_185\n        /* \"#utility.yul\":5878:5881   */\n      dup3\n        /* \"#utility.yul\":5789:5882   */\n      tag_121\n      jump\t// in\n    tag_185:\n        /* \"#utility.yul\":5907:5909   */\n      0x20\n        /* \"#utility.yul\":5902:5905   */\n      dup3\n        /* \"#utility.yul\":5898:5910   */\n      add\n        /* \"#utility.yul\":5891:5910   */\n      swap1\n      pop\n        /* \"#utility.yul\":5550:5916   */\n      swap2\n      swap1\n      pop\n      jump\t// out\n        /* \"#utility.yul\":5922:6341   */\n    tag_40:\n        /* \"#utility.yul\":6088:6092   */\n      0x00\n        /* \"#utility.yul\":6126:6128   */\n      0x20\n        /* \"#utility.yul\":6115:6124   */\n      dup3\n        /* \"#utility.yul\":6111:6129   */\n      add\n        /* \"#utility.yul\":6103:6129   */\n      swap1\n      pop\n        /* \"#utility.yul\":6175:6184   */\n      dup2\n        /* \"#utility.yul\":6169:6173   */\n      dup2\n        /* \"#utility.yul\":6165:6185   */\n      sub\n        /* \"#utility.yul\":6161:6162   */\n      0x00\n        /* \"#utility.yul\":6150:6159   */\n      dup4\n        /* \"#utility.yul\":6146:6163   */\n      add\n        /* \"#utility.yul\":6139:6186   */\n      mstore\n        /* \"#utility.yul\":6203:6334   */\n      tag_187\n        /* \"#utility.yul\":6329:6333   */\n      dup2\n        /* \"#utility.yul\":6203:6334   */\n      tag_122\n      jump\t// in\n    tag_187:\n        /* \"#utility.yul\":6195:6334   */\n      swap1\n      pop\n        /* \"#utility.yul\":5922:6341   */\n      swap2\n      swap1\n      pop\n      jump\t// out\n        /* \"#utility.yul\":6347:6512   */\n    tag_123:\n        /* \"#utility.yul\":6487:6504   */\n      0x55736572206e6f74206578697374210000000000000000000000000000000000\n        /* \"#utility.yul\":6483:6484   */\n      0x00\n        /* \"#utility.yul\":6475:6481   */\n      dup3\n        /* \"#utility.yul\":6471:6485   */\n      add\n        /* \"#utility.yul\":6464:6505   */\n      mstore\n        /* \"#utility.yul\":6347:6512   */\n      pop\n      jump\t// out\n        /* \"#utility.yul\":6518:6884   */\n    tag_124:\n        /* \"#utility.yul\":6660:6663   */\n      0x00\n        /* \"#utility.yul\":6681:6748   */\n      tag_190\n        /* \"#utility.yul\":6745:6747   */\n      0x0f\n        /* \"#utility.yul\":6740:6743   */\n      dup4\n        /* \"#utility.yul\":6681:6748   */\n      tag_118\n      jump\t// in\n    tag_190:\n        /* \"#utility.yul\":6674:6748   */\n      swap2\n      pop\n        /* \"#utility.yul\":6757:6850   */\n      tag_191\n        /* \"#utility.yul\":6846:6849   */\n      dup3\n        /* \"#utility.yul\":6757:6850   */\n      tag_123\n      jump\t// in\n    tag_191:\n        /* \"#utility.yul\":6875:6877   */\n      0x20\n        /* \"#utility.yul\":6870:6873   */\n      dup3\n        /* \"#utility.yul\":6866:6878   */\n      add\n        /* \"#utility.yul\":6859:6878   */\n      swap1\n      pop\n        /* \"#utility.yul\":6518:6884   */\n      swap2\n      swap1\n      pop\n      jump\t// out\n        /* \"#utility.yul\":6890:7309   */\n    tag_47:\n        /* \"#utility.yul\":7056:7060   */\n      0x00\n        /* \"#utility.yul\":7094:7096   */\n      0x20\n        /* \"#utility.yul\":7083:7092   */\n      dup3\n        /* \"#utility.yul\":7079:7097   */\n      add\n        /* \"#utility.yul\":7071:7097   */\n      swap1\n      pop\n        /* \"#utility.yul\":7143:7152   */\n      dup2\n        /* \"#utility.yul\":7137:7141   */\n      dup2\n        /* \"#utility.yul\":7133:7153   */\n      sub\n        /* \"#utility.yul\":7129:7130   */\n      0x00\n        /* \"#utility.yul\":7118:7127   */\n      dup4\n        /* \"#utility.yul\":7114:7131   */\n      add\n        /* \"#utility.yul\":7107:7154   */\n      mstore\n        /* \"#utility.yul\":7171:7302   */\n      tag_193\n        /* \"#utility.yul\":7297:7301   */\n      dup2\n        /* \"#utility.yul\":7171:7302   */\n      tag_124\n      jump\t// in\n    tag_193:\n        /* \"#utility.yul\":7163:7302   */\n      swap1\n      pop\n        /* \"#utility.yul\":6890:7309   */\n      swap2\n      swap1\n      pop\n      jump\t// out\n        /* \"#utility.yul\":7315:7495   */\n    tag_81:\n        /* \"#utility.yul\":7363:7440   */\n      0x4e487b7100000000000000000000000000000000000000000000000000000000\n        /* \"#utility.yul\":7360:7361   */\n      0x00\n        /* \"#utility.yul\":7353:7441   */\n      mstore\n        /* \"#utility.yul\":7460:7464   */\n      0x32\n        /* \"#utility.yul\":7457:7458   */\n      0x04\n        /* \"#utility.yul\":7450:7465   */\n      mstore\n        /* \"#utility.yul\":7484:7488   */\n      0x24\n        /* \"#utility.yul\":7481:7482   */\n      0x00\n        /* \"#utility.yul\":7474:7489   */\n      revert\n        /* \"#utility.yul\":7501:7681   */\n    tag_125:\n        /* \"#utility.yul\":7549:7626   */\n      0x4e487b7100000000000000000000000000000000000000000000000000000000\n        /* \"#utility.yul\":7546:7547   */\n      0x00\n        /* \"#utility.yul\":7539:7627   */\n      mstore\n        /* \"#utility.yul\":7646:7650   */\n      0x11\n        /* \"#utility.yul\":7643:7644   */\n      0x04\n        /* \"#utility.yul\":7636:7651   */\n      mstore\n        /* \"#utility.yul\":7670:7674   */\n      0x24\n        /* \"#utility.yul\":7667:7668   */\n      0x00\n        /* \"#utility.yul\":7660:7675   */\n      revert\n        /* \"#utility.yul\":7687:7881   */\n    tag_86:\n        /* \"#utility.yul\":7727:7731   */\n      0x00\n        /* \"#utility.yul\":7747:7767   */\n      tag_197\n        /* \"#utility.yul\":7765:7766   */\n      dup3\n        /* \"#utility.yul\":7747:7767   */\n      tag_114\n      jump\t// in\n    tag_197:\n        /* \"#utility.yul\":7742:7767   */\n      swap2\n      pop\n        /* \"#utility.yul\":7781:7801   */\n      tag_198\n        /* \"#utility.yul\":7799:7800   */\n      dup4\n        /* \"#utility.yul\":7781:7801   */\n      tag_114\n      jump\t// in\n    tag_198:\n        /* \"#utility.yul\":7776:7801   */\n      swap3\n      pop\n        /* \"#utility.yul\":7825:7826   */\n      dup3\n        /* \"#utility.yul\":7822:7823   */\n      dup3\n        /* \"#utility.yul\":7818:7827   */\n      sub\n        /* \"#utility.yul\":7810:7827   */\n      swap1\n      pop\n        /* \"#utility.yul\":7849:7850   */\n      dup2\n        /* \"#utility.yul\":7843:7847   */\n      dup2\n        /* \"#utility.yul\":7840:7851   */\n      gt\n        /* \"#utility.yul\":7837:7874   */\n      iszero\n      tag_199\n      jumpi\n        /* \"#utility.yul\":7854:7872   */\n      tag_200\n      tag_125\n      jump\t// in\n    tag_200:\n        /* \"#utility.yul\":7837:7874   */\n    tag_199:\n        /* \"#utility.yul\":7687:7881   */\n      swap3\n      swap2\n      pop\n      pop\n      jump\t// out\n        /* \"#utility.yul\":7887:8067   */\n    tag_97:\n        /* \"#utility.yul\":7935:8012   */\n      0x4e487b7100000000000000000000000000000000000000000000000000000000\n        /* \"#utility.yul\":7932:7933   */\n      0x00\n        /* \"#utility.yul\":7925:8013   */\n      mstore\n        /* \"#utility.yul\":8032:8036   */\n      0x31\n        /* \"#utility.yul\":8029:8030   */\n      0x04\n        /* \"#utility.yul\":8022:8037   */\n      mstore\n        /* \"#utility.yul\":8056:8060   */\n      0x24\n        /* \"#utility.yul\":8053:8054   */\n      0x00\n        /* \"#utility.yul\":8046:8061   */\n      revert\n\n    auxdata: 0xa264697066735822122097d3b2fff8d1063766f45c35a54d598b01839963595860fe339da541faeccafa64736f6c63430008220033\n}\n",
				"bytecode": {
					"linkReferences": {},
					"object": "6080604052348015600e575f5ffd5b5061091c8061001c5f395ff3fe608060405234801561000f575f5ffd5b506004361061004a575f3560e01c8063421b2d8b1461004e57806353ed51431461006a578063723331bb1461008857806398575188146100b8575b5f5ffd5b6100686004803603810190610063919061055c565b6100d4565b005b61007261013e565b60405161007f919061063e565b60405180910390f35b6100a2600480360381019061009d9190610691565b61014e565b6040516100af91906106cb565b60405180910390f35b6100d260048036038101906100cd919061055c565b6101b3565b005b6100e7815f61021c90919063ffffffff16565b15610127576040517f08c379a000000000000000000000000000000000000000000000000000000000815260040161011e9061073e565b60405180910390fd5b61013a815f61024990919063ffffffff16565b5050565b60606101495f610276565b905090565b5f6101585f610295565b8210610199576040517f08c379a0000000000000000000000000000000000000000000000000000000008152600401610190906107a6565b60405180910390fd5b6101ac825f6102a890919063ffffffff16565b9050919050565b6101c6815f61021c90919063ffffffff16565b610205576040517f08c379a00000000000000000000000000000000000000000000000000000000081526004016101fc9061080e565b60405180910390fd5b610218815f6102bf90919063ffffffff16565b5050565b5f610241835f018373ffffffffffffffffffffffffffffffffffffffff165f1b6102ec565b905092915050565b5f61026e835f018373ffffffffffffffffffffffffffffffffffffffff165f1b61030c565b905092915050565b60605f610284835f01610373565b905060608190508092505050919050565b5f6102a1825f016103cc565b9050919050565b5f6102b5835f01836103db565b5f1c905092915050565b5f6102e4835f018373ffffffffffffffffffffffffffffffffffffffff165f1b610402565b905092915050565b5f5f836001015f8481526020019081526020015f20541415905092915050565b5f61031783836102ec565b61036957825f0182908060018154018082558091505060019003905f5260205f20015f9091909190915055825f0180549050836001015f8481526020019081526020015f20819055506001905061036d565b5f90505b92915050565b6060815f018054806020026020016040519081016040528092919081815260200182805480156103c057602002820191905f5260205f20905b8154815260200190600101908083116103ac575b50505050509050919050565b5f815f01805490509050919050565b5f825f0182815481106103f1576103f061082c565b5b905f5260205f200154905092915050565b5f5f836001015f8481526020019081526020015f205490505f81146104f3575f60018261042f9190610886565b90505f6001865f01805490506104459190610886565b90508082146104ab575f865f0182815481106104645761046361082c565b5b905f5260205f200154905080875f0184815481106104855761048461082c565b5b905f5260205f20018190555083876001015f8381526020019081526020015f2081905550505b855f018054806104be576104bd6108b9565b5b600190038181905f5260205f20015f90559055856001015f8681526020019081526020015f205f9055600193505050506104f8565b5f9150505b92915050565b5f5ffd5b5f73ffffffffffffffffffffffffffffffffffffffff82169050919050565b5f61052b82610502565b9050919050565b61053b81610521565b8114610545575f5ffd5b50565b5f8135905061055681610532565b92915050565b5f60208284031215610571576105706104fe565b5b5f61057e84828501610548565b91505092915050565b5f81519050919050565b5f82825260208201905092915050565b5f819050602082019050919050565b6105b981610521565b82525050565b5f6105ca83836105b0565b60208301905092915050565b5f602082019050919050565b5f6105ec82610587565b6105f68185610591565b9350610601836105a1565b805f5b8381101561063157815161061888826105bf565b9750610623836105d6565b925050600181019050610604565b5085935050505092915050565b5f6020820190508181035f83015261065681846105e2565b905092915050565b5f819050919050565b6106708161065e565b811461067a575f5ffd5b50565b5f8135905061068b81610667565b92915050565b5f602082840312156106a6576106a56104fe565b5b5f6106b38482850161067d565b91505092915050565b6106c581610521565b82525050565b5f6020820190506106de5f8301846106bc565b92915050565b5f82825260208201905092915050565b7f416c7265616479206578697374210000000000000000000000000000000000005f82015250565b5f610728600e836106e4565b9150610733826106f4565b602082019050919050565b5f6020820190508181035f8301526107558161071c565b9050919050565b7f496e646578206f7574206f6620626f756e6473210000000000000000000000005f82015250565b5f6107906014836106e4565b915061079b8261075c565b602082019050919050565b5f6020820190508181035f8301526107bd81610784565b9050919050565b7f55736572206e6f742065786973742100000000000000000000000000000000005f82015250565b5f6107f8600f836106e4565b9150610803826107c4565b602082019050919050565b5f6020820190508181035f830152610825816107ec565b9050919050565b7f4e487b71000000000000000000000000000000000000000000000000000000005f52603260045260245ffd5b7f4e487b71000000000000000000000000000000000000000000000000000000005f52601160045260245ffd5b5f6108908261065e565b915061089b8361065e565b92508282039050818111156108b3576108b2610859565b5b92915050565b7f4e487b71000000000000000000000000000000000000000000000000000000005f52603160045260245ffdfea264697066735822122097d3b2fff8d1063766f45c35a54d598b01839963595860fe339da541faeccafa64736f6c63430008220033",
					"opcodes": "PUSH1 0x80 PUSH1 0x40 MSTORE CALLVALUE DUP1 ISZERO PUSH1 0xE JUMPI PUSH0 PUSH0 REVERT JUMPDEST POP PUSH2 0x91C DUP1 PUSH2 0x1C PUSH0 CODECOPY PUSH0 RETURN INVALID PUSH1 0x80 PUSH1 0x40 MSTORE CALLVALUE DUP1 ISZERO PUSH2 0xF JUMPI PUSH0 PUSH0 REVERT JUMPDEST POP PUSH1 0x4 CALLDATASIZE LT PUSH2 0x4A JUMPI PUSH0 CALLDATALOAD PUSH1 0xE0 SHR DUP1 PUSH4 0x421B2D8B EQ PUSH2 0x4E JUMPI DUP1 PUSH4 0x53ED5143 EQ PUSH2 0x6A JUMPI DUP1 PUSH4 0x723331BB EQ PUSH2 0x88 JUMPI DUP1 PUSH4 0x98575188 EQ PUSH2 0xB8 JUMPI JUMPDEST PUSH0 PUSH0 REVERT JUMPDEST PUSH2 0x68 PUSH1 0x4 DUP1 CALLDATASIZE SUB DUP2 ADD SWAP1 PUSH2 0x63 SWAP2 SWAP1 PUSH2 0x55C JUMP JUMPDEST PUSH2 0xD4 JUMP JUMPDEST STOP JUMPDEST PUSH2 0x72 PUSH2 0x13E JUMP JUMPDEST PUSH1 0x40 MLOAD PUSH2 0x7F SWAP2 SWAP1 PUSH2 0x63E JUMP JUMPDEST PUSH1 0x40 MLOAD DUP1 SWAP2 SUB SWAP1 RETURN JUMPDEST PUSH2 0xA2 PUSH1 0x4 DUP1 CALLDATASIZE SUB DUP2 ADD SWAP1 PUSH2 0x9D SWAP2 SWAP1 PUSH2 0x691 JUMP JUMPDEST PUSH2 0x14E JUMP JUMPDEST PUSH1 0x40 MLOAD PUSH2 0xAF SWAP2 SWAP1 PUSH2 0x6CB JUMP JUMPDEST PUSH1 0x40 MLOAD DUP1 SWAP2 SUB SWAP1 RETURN JUMPDEST PUSH2 0xD2 PUSH1 0x4 DUP1 CALLDATASIZE SUB DUP2 ADD SWAP1 PUSH2 0xCD SWAP2 SWAP1 PUSH2 0x55C JUMP JUMPDEST PUSH2 0x1B3 JUMP JUMPDEST STOP JUMPDEST PUSH2 0xE7 DUP2 PUSH0 PUSH2 0x21C SWAP1 SWAP2 SWAP1 PUSH4 0xFFFFFFFF AND JUMP JUMPDEST ISZERO PUSH2 0x127 JUMPI PUSH1 0x40 MLOAD PUSH32 0x8C379A000000000000000000000000000000000000000000000000000000000 DUP2 MSTORE PUSH1 0x4 ADD PUSH2 0x11E SWAP1 PUSH2 0x73E JUMP JUMPDEST PUSH1 0x40 MLOAD DUP1 SWAP2 SUB SWAP1 REVERT JUMPDEST PUSH2 0x13A DUP2 PUSH0 PUSH2 0x249 SWAP1 SWAP2 SWAP1 PUSH4 0xFFFFFFFF AND JUMP JUMPDEST POP POP JUMP JUMPDEST PUSH1 0x60 PUSH2 0x149 PUSH0 PUSH2 0x276 JUMP JUMPDEST SWAP1 POP SWAP1 JUMP JUMPDEST PUSH0 PUSH2 0x158 PUSH0 PUSH2 0x295 JUMP JUMPDEST DUP3 LT PUSH2 0x199 JUMPI PUSH1 0x40 MLOAD PUSH32 0x8C379A000000000000000000000000000000000000000000000000000000000 DUP2 MSTORE PUSH1 0x4 ADD PUSH2 0x190 SWAP1 PUSH2 0x7A6 JUMP JUMPDEST PUSH1 0x40 MLOAD DUP1 SWAP2 SUB SWAP1 REVERT JUMPDEST PUSH2 0x1AC DUP3 PUSH0 PUSH2 0x2A8 SWAP1 SWAP2 SWAP1 PUSH4 0xFFFFFFFF AND JUMP JUMPDEST SWAP1 POP SWAP2 SWAP1 POP JUMP JUMPDEST PUSH2 0x1C6 DUP2 PUSH0 PUSH2 0x21C SWAP1 SWAP2 SWAP1 PUSH4 0xFFFFFFFF AND JUMP JUMPDEST PUSH2 0x205 JUMPI PUSH1 0x40 MLOAD PUSH32 0x8C379A000000000000000000000000000000000000000000000000000000000 DUP2 MSTORE PUSH1 0x4 ADD PUSH2 0x1FC SWAP1 PUSH2 0x80E JUMP JUMPDEST PUSH1 0x40 MLOAD DUP1 SWAP2 SUB SWAP1 REVERT JUMPDEST PUSH2 0x218 DUP2 PUSH0 PUSH2 0x2BF SWAP1 SWAP2 SWAP1 PUSH4 0xFFFFFFFF AND JUMP JUMPDEST POP POP JUMP JUMPDEST PUSH0 PUSH2 0x241 DUP4 PUSH0 ADD DUP4 PUSH20 0xFFFFFFFFFFFFFFFFFFFFFFFFFFFFFFFFFFFFFFFF AND PUSH0 SHL PUSH2 0x2EC JUMP JUMPDEST SWAP1 POP SWAP3 SWAP2 POP POP JUMP JUMPDEST PUSH0 PUSH2 0x26E DUP4 PUSH0 ADD DUP4 PUSH20 0xFFFFFFFFFFFFFFFFFFFFFFFFFFFFFFFFFFFFFFFF AND PUSH0 SHL PUSH2 0x30C JUMP JUMPDEST SWAP1 POP SWAP3 SWAP2 POP POP JUMP JUMPDEST PUSH1 0x60 PUSH0 PUSH2 0x284 DUP4 PUSH0 ADD PUSH2 0x373 JUMP JUMPDEST SWAP1 POP PUSH1 0x60 DUP2 SWAP1 POP DUP1 SWAP3 POP POP POP SWAP2 SWAP1 POP JUMP JUMPDEST PUSH0 PUSH2 0x2A1 DUP3 PUSH0 ADD PUSH2 0x3CC JUMP JUMPDEST SWAP1 POP SWAP2 SWAP1 POP JUMP JUMPDEST PUSH0 PUSH2 0x2B5 DUP4 PUSH0 ADD DUP4 PUSH2 0x3DB JUMP JUMPDEST PUSH0 SHR SWAP1 POP SWAP3 SWAP2 POP POP JUMP JUMPDEST PUSH0 PUSH2 0x2E4 DUP4 PUSH0 ADD DUP4 PUSH20 0xFFFFFFFFFFFFFFFFFFFFFFFFFFFFFFFFFFFFFFFF AND PUSH0 SHL PUSH2 0x402 JUMP JUMPDEST SWAP1 POP SWAP3 SWAP2 POP POP JUMP JUMPDEST PUSH0 PUSH0 DUP4 PUSH1 0x1 ADD PUSH0 DUP5 DUP2 MSTORE PUSH1 0x20 ADD SWAP1 DUP2 MSTORE PUSH1 0x20 ADD PUSH0 KECCAK256 SLOAD EQ ISZERO SWAP1 POP SWAP3 SWAP2 POP POP JUMP JUMPDEST PUSH0 PUSH2 0x317 DUP4 DUP4 PUSH2 0x2EC JUMP JUMPDEST PUSH2 0x369 JUMPI DUP3 PUSH0 ADD DUP3 SWAP1 DUP1 PUSH1 0x1 DUP2 SLOAD ADD DUP1 DUP3 SSTORE DUP1 SWAP2 POP POP PUSH1 0x1 SWAP1 SUB SWAP1 PUSH0 MSTORE PUSH1 0x20 PUSH0 KECCAK256 ADD PUSH0 SWAP1 SWAP2 SWAP1 SWAP2 SWAP1 SWAP2 POP SSTORE DUP3 PUSH0 ADD DUP1 SLOAD SWAP1 POP DUP4 PUSH1 0x1 ADD PUSH0 DUP5 DUP2 MSTORE PUSH1 0x20 ADD SWAP1 DUP2 MSTORE PUSH1 0x20 ADD PUSH0 KECCAK256 DUP2 SWAP1 SSTORE POP PUSH1 0x1 SWAP1 POP PUSH2 0x36D JUMP JUMPDEST PUSH0 SWAP1 POP JUMPDEST SWAP3 SWAP2 POP POP JUMP JUMPDEST PUSH1 0x60 DUP2 PUSH0 ADD DUP1 SLOAD DUP1 PUSH1 0x20 MUL PUSH1 0x20 ADD PUSH1 0x40 MLOAD SWAP1 DUP2 ADD PUSH1 0x40 MSTORE DUP1 SWAP3 SWAP2 SWAP1 DUP2 DUP2 MSTORE PUSH1 0x20 ADD DUP3 DUP1 SLOAD DUP1 ISZERO PUSH2 0x3C0 JUMPI PUSH1 0x20 MUL DUP3 ADD SWAP2 SWAP1 PUSH0 MSTORE PUSH1 0x20 PUSH0 KECCAK256 SWAP1 JUMPDEST DUP2 SLOAD DUP2 MSTORE PUSH1 0x20 ADD SWAP1 PUSH1 0x1 ADD SWAP1 DUP1 DUP4 GT PUSH2 0x3AC JUMPI JUMPDEST POP POP POP POP POP SWAP1 POP SWAP2 SWAP1 POP JUMP JUMPDEST PUSH0 DUP2 PUSH0 ADD DUP1 SLOAD SWAP1 POP SWAP1 POP SWAP2 SWAP1 POP JUMP JUMPDEST PUSH0 DUP3 PUSH0 ADD DUP3 DUP2 SLOAD DUP2 LT PUSH2 0x3F1 JUMPI PUSH2 0x3F0 PUSH2 0x82C JUMP JUMPDEST JUMPDEST SWAP1 PUSH0 MSTORE PUSH1 0x20 PUSH0 KECCAK256 ADD SLOAD SWAP1 POP SWAP3 SWAP2 POP POP JUMP JUMPDEST PUSH0 PUSH0 DUP4 PUSH1 0x1 ADD PUSH0 DUP5 DUP2 MSTORE PUSH1 0x20 ADD SWAP1 DUP2 MSTORE PUSH1 0x20 ADD PUSH0 KECCAK256 SLOAD SWAP1 POP PUSH0 DUP2 EQ PUSH2 0x4F3 JUMPI PUSH0 PUSH1 0x1 DUP3 PUSH2 0x42F SWAP2 SWAP1 PUSH2 0x886 JUMP JUMPDEST SWAP1 POP PUSH0 PUSH1 0x1 DUP7 PUSH0 ADD DUP1 SLOAD SWAP1 POP PUSH2 0x445 SWAP2 SWAP1 PUSH2 0x886 JUMP JUMPDEST SWAP1 POP DUP1 DUP3 EQ PUSH2 0x4AB JUMPI PUSH0 DUP7 PUSH0 ADD DUP3 DUP2 SLOAD DUP2 LT PUSH2 0x464 JUMPI PUSH2 0x463 PUSH2 0x82C JUMP JUMPDEST JUMPDEST SWAP1 PUSH0 MSTORE PUSH1 0x20 PUSH0 KECCAK256 ADD SLOAD SWAP1 POP DUP1 DUP8 PUSH0 ADD DUP5 DUP2 SLOAD DUP2 LT PUSH2 0x485 JUMPI PUSH2 0x484 PUSH2 0x82C JUMP JUMPDEST JUMPDEST SWAP1 PUSH0 MSTORE PUSH1 0x20 PUSH0 KECCAK256 ADD DUP2 SWAP1 SSTORE POP DUP4 DUP8 PUSH1 0x1 ADD PUSH0 DUP4 DUP2 MSTORE PUSH1 0x20 ADD SWAP1 DUP2 MSTORE PUSH1 0x20 ADD PUSH0 KECCAK256 DUP2 SWAP1 SSTORE POP POP JUMPDEST DUP6 PUSH0 ADD DUP1 SLOAD DUP1 PUSH2 0x4BE JUMPI PUSH2 0x4BD PUSH2 0x8B9 JUMP JUMPDEST JUMPDEST PUSH1 0x1 SWAP1 SUB DUP2 DUP2 SWAP1 PUSH0 MSTORE PUSH1 0x20 PUSH0 KECCAK256 ADD PUSH0 SWAP1 SSTORE SWAP1 SSTORE DUP6 PUSH1 0x1 ADD PUSH0 DUP7 DUP2 MSTORE PUSH1 0x20 ADD SWAP1 DUP2 MSTORE PUSH1 0x20 ADD PUSH0 KECCAK256 PUSH0 SWAP1 SSTORE PUSH1 0x1 SWAP4 POP POP POP POP PUSH2 0x4F8 JUMP JUMPDEST PUSH0 SWAP2 POP POP JUMPDEST SWAP3 SWAP2 POP POP JUMP JUMPDEST PUSH0 PUSH0 REVERT JUMPDEST PUSH0 PUSH20 0xFFFFFFFFFFFFFFFFFFFFFFFFFFFFFFFFFFFFFFFF DUP3 AND SWAP1 POP SWAP2 SWAP1 POP JUMP JUMPDEST PUSH0 PUSH2 0x52B DUP3 PUSH2 0x502 JUMP JUMPDEST SWAP1 POP SWAP2 SWAP1 POP JUMP JUMPDEST PUSH2 0x53B DUP2 PUSH2 0x521 JUMP JUMPDEST DUP2 EQ PUSH2 0x545 JUMPI PUSH0 PUSH0 REVERT JUMPDEST POP JUMP JUMPDEST PUSH0 DUP2 CALLDATALOAD SWAP1 POP PUSH2 0x556 DUP2 PUSH2 0x532 JUMP JUMPDEST SWAP3 SWAP2 POP POP JUMP JUMPDEST PUSH0 PUSH1 0x20 DUP3 DUP5 SUB SLT ISZERO PUSH2 0x571 JUMPI PUSH2 0x570 PUSH2 0x4FE JUMP JUMPDEST JUMPDEST PUSH0 PUSH2 0x57E DUP5 DUP3 DUP6 ADD PUSH2 0x548 JUMP JUMPDEST SWAP2 POP POP SWAP3 SWAP2 POP POP JUMP JUMPDEST PUSH0 DUP2 MLOAD SWAP1 POP SWAP2 SWAP1 POP JUMP JUMPDEST PUSH0 DUP3 DUP3 MSTORE PUSH1 0x20 DUP3 ADD SWAP1 POP SWAP3 SWAP2 POP POP JUMP JUMPDEST PUSH0 DUP2 SWAP1 POP PUSH1 0x20 DUP3 ADD SWAP1 POP SWAP2 SWAP1 POP JUMP JUMPDEST PUSH2 0x5B9 DUP2 PUSH2 0x521 JUMP JUMPDEST DUP3 MSTORE POP POP JUMP JUMPDEST PUSH0 PUSH2 0x5CA DUP4 DUP4 PUSH2 0x5B0 JUMP JUMPDEST PUSH1 0x20 DUP4 ADD SWAP1 POP SWAP3 SWAP2 POP POP JUMP JUMPDEST PUSH0 PUSH1 0x20 DUP3 ADD SWAP1 POP SWAP2 SWAP1 POP JUMP JUMPDEST PUSH0 PUSH2 0x5EC DUP3 PUSH2 0x587 JUMP JUMPDEST PUSH2 0x5F6 DUP2 DUP6 PUSH2 0x591 JUMP JUMPDEST SWAP4 POP PUSH2 0x601 DUP4 PUSH2 0x5A1 JUMP JUMPDEST DUP1 PUSH0 JUMPDEST DUP4 DUP2 LT ISZERO PUSH2 0x631 JUMPI DUP2 MLOAD PUSH2 0x618 DUP9 DUP3 PUSH2 0x5BF JUMP JUMPDEST SWAP8 POP PUSH2 0x623 DUP4 PUSH2 0x5D6 JUMP JUMPDEST SWAP3 POP POP PUSH1 0x1 DUP2 ADD SWAP1 POP PUSH2 0x604 JUMP JUMPDEST POP DUP6 SWAP4 POP POP POP POP SWAP3 SWAP2 POP POP JUMP JUMPDEST PUSH0 PUSH1 0x20 DUP3 ADD SWAP1 POP DUP2 DUP2 SUB PUSH0 DUP4 ADD MSTORE PUSH2 0x656 DUP2 DUP5 PUSH2 0x5E2 JUMP JUMPDEST SWAP1 POP SWAP3 SWAP2 POP POP JUMP JUMPDEST PUSH0 DUP2 SWAP1 POP SWAP2 SWAP1 POP JUMP JUMPDEST PUSH2 0x670 DUP2 PUSH2 0x65E JUMP JUMPDEST DUP2 EQ PUSH2 0x67A JUMPI PUSH0 PUSH0 REVERT JUMPDEST POP JUMP JUMPDEST PUSH0 DUP2 CALLDATALOAD SWAP1 POP PUSH2 0x68B DUP2 PUSH2 0x667 JUMP JUMPDEST SWAP3 SWAP2 POP POP JUMP JUMPDEST PUSH0 PUSH1 0x20 DUP3 DUP5 SUB SLT ISZERO PUSH2 0x6A6 JUMPI PUSH2 0x6A5 PUSH2 0x4FE JUMP JUMPDEST JUMPDEST PUSH0 PUSH2 0x6B3 DUP5 DUP3 DUP6 ADD PUSH2 0x67D JUMP JUMPDEST SWAP2 POP POP SWAP3 SWAP2 POP POP JUMP JUMPDEST PUSH2 0x6C5 DUP2 PUSH2 0x521 JUMP JUMPDEST DUP3 MSTORE POP POP JUMP JUMPDEST PUSH0 PUSH1 0x20 DUP3 ADD SWAP1 POP PUSH2 0x6DE PUSH0 DUP4 ADD DUP5 PUSH2 0x6BC JUMP JUMPDEST SWAP3 SWAP2 POP POP JUMP JUMPDEST PUSH0 DUP3 DUP3 MSTORE PUSH1 0x20 DUP3 ADD SWAP1 POP SWAP3 SWAP2 POP POP JUMP JUMPDEST PUSH32 0x416C726561647920657869737421000000000000000000000000000000000000 PUSH0 DUP3 ADD MSTORE POP JUMP JUMPDEST PUSH0 PUSH2 0x728 PUSH1 0xE DUP4 PUSH2 0x6E4 JUMP JUMPDEST SWAP2 POP PUSH2 0x733 DUP3 PUSH2 0x6F4 JUMP JUMPDEST PUSH1 0x20 DUP3 ADD SWAP1 POP SWAP2 SWAP1 POP JUMP JUMPDEST PUSH0 PUSH1 0x20 DUP3 ADD SWAP1 POP DUP2 DUP2 SUB PUSH0 DUP4 ADD MSTORE PUSH2 0x755 DUP2 PUSH2 0x71C JUMP JUMPDEST SWAP1 POP SWAP2 SWAP1 POP JUMP JUMPDEST PUSH32 0x496E646578206F7574206F6620626F756E647321000000000000000000000000 PUSH0 DUP3 ADD MSTORE POP JUMP JUMPDEST PUSH0 PUSH2 0x790 PUSH1 0x14 DUP4 PUSH2 0x6E4 JUMP JUMPDEST SWAP2 POP PUSH2 0x79B DUP3 PUSH2 0x75C JUMP JUMPDEST PUSH1 0x20 DUP3 ADD SWAP1 POP SWAP2 SWAP1 POP JUMP JUMPDEST PUSH0 PUSH1 0x20 DUP3 ADD SWAP1 POP DUP2 DUP2 SUB PUSH0 DUP4 ADD MSTORE PUSH2 0x7BD DUP2 PUSH2 0x784 JUMP JUMPDEST SWAP1 POP SWAP2 SWAP1 POP JUMP JUMPDEST PUSH32 0x55736572206E6F74206578697374210000000000000000000000000000000000 PUSH0 DUP3 ADD MSTORE POP JUMP JUMPDEST PUSH0 PUSH2 0x7F8 PUSH1 0xF DUP4 PUSH2 0x6E4 JUMP JUMPDEST SWAP2 POP PUSH2 0x803 DUP3 PUSH2 0x7C4 JUMP JUMPDEST PUSH1 0x20 DUP3 ADD SWAP1 POP SWAP2 SWAP1 POP JUMP JUMPDEST PUSH0 PUSH1 0x20 DUP3 ADD SWAP1 POP DUP2 DUP2 SUB PUSH0 DUP4 ADD MSTORE PUSH2 0x825 DUP2 PUSH2 0x7EC JUMP JUMPDEST SWAP1 POP SWAP2 SWAP1 POP JUMP JUMPDEST PUSH32 0x4E487B7100000000000000000000000000000000000000000000000000000000 PUSH0 MSTORE PUSH1 0x32 PUSH1 0x4 MSTORE PUSH1 0x24 PUSH0 REVERT JUMPDEST PUSH32 0x4E487B7100000000000000000000000000000000000000000000000000000000 PUSH0 MSTORE PUSH1 0x11 PUSH1 0x4 MSTORE PUSH1 0x24 PUSH0 REVERT JUMPDEST PUSH0 PUSH2 0x890 DUP3 PUSH2 0x65E JUMP JUMPDEST SWAP2 POP PUSH2 0x89B DUP4 PUSH2 0x65E JUMP JUMPDEST SWAP3 POP DUP3 DUP3 SUB SWAP1 POP DUP2 DUP2 GT ISZERO PUSH2 0x8B3 JUMPI PUSH2 0x8B2 PUSH2 0x859 JUMP JUMPDEST JUMPDEST SWAP3 SWAP2 POP POP JUMP JUMPDEST PUSH32 0x4E487B7100000000000000000000000000000000000000000000000000000000 PUSH0 MSTORE PUSH1 0x31 PUSH1 0x4 MSTORE PUSH1 0x24 PUSH0 REVERT INVALID LOG2 PUSH5 0x6970667358 0x22 SLT KECCAK256 SWAP8 0xD3 0xB2 SELFDESTRUCT EXTCALL DATALOADN 0x637 PUSH7 0xF45C35A54D598B ADD DUP4 SWAP10 PUSH4 0x595860FE CALLER SWAP14 0xA5 COINBASE STATICCALL EOFCREATE 0xCA STATICCALL PUSH5 0x736F6C6343 STOP ADDMOD 0x22 STOP CALLER "
				},
				"gasEstimates": {
					"creation": {
						"codeDepositCost": "466400",
						"executionCost": "497",
						"totalCost": "466897"
					},
					"external": {
						"addUser(address)": "infinite",
						"checkUser(uint256)": "infinite",
						"getAll()": "infinite",
						"removeUser(address)": "infinite"
					}
				},
				"methodIdentifiers": {
					"addUser(address)": "421b2d8b",
					"checkUser(uint256)": "723331bb",
					"getAll()": "53ed5143",
					"removeUser(address)": "98575188"
				}
			},
			"storageLayout": {
				"storage": [
					{
						"astId": 7077,
						"contract": "lession6.2-Library/WhiteList.sol:WhiteList",
						"label": "users",
						"offset": 0,
						"slot": "0",
						"type": "t_struct(AddressSet)6041_storage"
					}
				],
				"types": {
					"t_array(t_bytes32)dyn_storage": {
						"base": "t_bytes32",
						"encoding": "dynamic_array",
						"label": "bytes32[]",
						"numberOfBytes": "32"
					},
					"t_bytes32": {
						"encoding": "inplace",
						"label": "bytes32",
						"numberOfBytes": "32"
					},
					"t_mapping(t_bytes32,t_uint256)": {
						"encoding": "mapping",
						"key": "t_bytes32",
						"label": "mapping(bytes32 => uint256)",
						"numberOfBytes": "32",
						"value": "t_uint256"
					},
					"t_struct(AddressSet)6041_storage": {
						"encoding": "inplace",
						"label": "struct EnumerableSet.AddressSet",
						"members": [
							{
								"astId": 6040,
								"contract": "lession6.2-Library/WhiteList.sol:WhiteList",
								"label": "_inner",
								"offset": 0,
								"slot": "0",
								"type": "t_struct(Set)5373_storage"
							}
						],
						"numberOfBytes": "64"
					},
					"t_struct(Set)5373_storage": {
						"encoding": "inplace",
						"label": "struct EnumerableSet.Set",
						"members": [
							{
								"astId": 5368,
								"contract": "lession6.2-Library/WhiteList.sol:WhiteList",
								"label": "_values",
								"offset": 0,
								"slot": "0",
								"type": "t_array(t_bytes32)dyn_storage"
							},
							{
								"astId": 5372,
								"contract": "lession6.2-Library/WhiteList.sol:WhiteList",
								"label": "_positions",
								"offset": 0,
								"slot": "1",
								"type": "t_mapping(t_bytes32,t_uint256)"
							}
						],
						"numberOfBytes": "64"
					},
					"t_uint256": {
						"encoding": "inplace",
						"label": "uint256",
						"numberOfBytes": "32"
					}
				}
			},
			"userdoc": {
				"kind": "user",
				"methods": {},
				"notice": "使用OpenZepplin标准库实现如下功能: 1. 使⽤EnumerableSet数据结构 2. 实现添加、移除、检查功能 3. ⽀持遍历所有地址",
				"version": 1
			}
		}
	}
}