{
	"lession8.2-Security/SafeRewardDistribution.sol": {
		"SafeRewardDistribution": {
			"abi": [
				{
					"inputs": [],
					"name": "CLAIM_PREIOD",
					"outputs": [
						{
							"internalType": "uint256",
							"name": "",
							"type": "uint256"
						}
					],
					"stateMutability": "view",
					"type": "function"
				},
				{
					"inputs": [
						{
							"internalType": "address",
							"name": "",
							"type": "address"
						}
					],
					"name": "claimDeadline",
					"outputs": [
						{
							"internalType": "uint256",
							"name": "",
							"type": "uint256"
						}
					],
					"stateMutability": "view",
					"type": "function"
				},
				{
					"inputs": [],
					"name": "claimReward",
					"outputs": [],
					"stateMutability": "nonpayable",
					"type": "function"
				},
				{
					"inputs": [
						{
							"internalType": "address",
							"name": "",
							"type": "address"
						}
					],
					"name": "rewards",
					"outputs": [
						{
							"internalType": "uint256",
							"name": "",
							"type": "uint256"
						}
					],
					"stateMutability": "view",
					"type": "function"
				},
				{
					"inputs": [
						{
							"internalType": "address",
							"name": "user",
							"type": "address"
						},
						{
							"internalType": "uint256",
							"name": "amount",
							"type": "uint256"
						}
					],
					"name": "setReward",
					"outputs": [],
					"stateMutability": "nonpayable",
					"type": "function"
				}
			],
			"devdoc": {
				"kind": "dev",
				"methods": {},
				"version": 1
			},
			"evm": {
				"assembly": "    /* \"lession8.2-Security/SafeRewardDistribution.sol\":211:915  contract SafeRewardDistribution {... */\n  mstore(0x40, 0x80)\n  callvalue\n  dup1\n  iszero\n  tag_1\n  jumpi\n  revert(0x00, 0x00)\ntag_1:\n  pop\n  dataSize(sub_0)\n  dup1\n  dataOffset(sub_0)\n  0x00\n  codecopy\n  0x00\n  return\nstop\n\nsub_0: assembly {\n        /* \"lession8.2-Security/SafeRewardDistribution.sol\":211:915  contract SafeRewardDistribution {... */\n      mstore(0x40, 0x80)\n      callvalue\n      dup1\n      iszero\n      tag_1\n      jumpi\n      revert(0x00, 0x00)\n    tag_1:\n      pop\n      jumpi(tag_2, lt(calldatasize, 0x04))\n      shr(0xe0, calldataload(0x00))\n      dup1\n      0x0700037d\n      eq\n      tag_3\n      jumpi\n      dup1\n      0x1c061ca3\n      eq\n      tag_4\n      jumpi\n      dup1\n      0xb88a802f\n      eq\n      tag_5\n      jumpi\n      dup1\n      0xeacccaf0\n      eq\n      tag_6\n      jumpi\n      dup1\n      0xee5437b7\n      eq\n      tag_7\n      jumpi\n    tag_2:\n      revert(0x00, 0x00)\n        /* \"lession8.2-Security/SafeRewardDistribution.sol\":249:289  mapping (address => uint) public rewards */\n    tag_3:\n      tag_8\n      0x04\n      dup1\n      calldatasize\n      sub\n      dup2\n      add\n      swap1\n      tag_9\n      swap2\n      swap1\n      tag_10\n      jump\t// in\n    tag_9:\n      tag_11\n      jump\t// in\n    tag_8:\n      mload(0x40)\n      tag_12\n      swap2\n      swap1\n      tag_13\n      jump\t// in\n    tag_12:\n      mload(0x40)\n      dup1\n      swap2\n      sub\n      swap1\n      return\n        /* \"lession8.2-Security/SafeRewardDistribution.sol\":348:391  uint public constant CLAIM_PREIOD = 30 days */\n    tag_4:\n      tag_14\n      tag_15\n      jump\t// in\n    tag_14:\n      mload(0x40)\n      tag_16\n      swap2\n      swap1\n      tag_13\n      jump\t// in\n    tag_16:\n      mload(0x40)\n      dup1\n      swap2\n      sub\n      swap1\n      return\n        /* \"lession8.2-Security/SafeRewardDistribution.sol\":559:913  function claimReward() external {... */\n    tag_5:\n      tag_17\n      tag_18\n      jump\t// in\n    tag_17:\n      stop\n        /* \"lession8.2-Security/SafeRewardDistribution.sol\":398:553  function setReward(address user,uint amount) external {... */\n    tag_6:\n      tag_19\n      0x04\n      dup1\n      calldatasize\n      sub\n      dup2\n      add\n      swap1\n      tag_20\n      swap2\n      swap1\n      tag_21\n      jump\t// in\n    tag_20:\n      tag_22\n      jump\t// in\n    tag_19:\n      stop\n        /* \"lession8.2-Security/SafeRewardDistribution.sol\":295:341  mapping (address => uint) public claimDeadline */\n    tag_7:\n      tag_23\n      0x04\n      dup1\n      calldatasize\n      sub\n      dup2\n      add\n      swap1\n      tag_24\n      swap2\n      swap1\n      tag_10\n      jump\t// in\n    tag_24:\n      tag_25\n      jump\t// in\n    tag_23:\n      mload(0x40)\n      tag_26\n      swap2\n      swap1\n      tag_13\n      jump\t// in\n    tag_26:\n      mload(0x40)\n      dup1\n      swap2\n      sub\n      swap1\n      return\n        /* \"lession8.2-Security/SafeRewardDistribution.sol\":249:289  mapping (address => uint) public rewards */\n    tag_11:\n      mstore(0x20, 0x00)\n      dup1\n      0x00\n      mstore\n      keccak256(0x00, 0x40)\n      0x00\n      swap2\n      pop\n      swap1\n      pop\n      sload\n      dup2\n      jump\t// out\n        /* \"lession8.2-Security/SafeRewardDistribution.sol\":348:391  uint public constant CLAIM_PREIOD = 30 days */\n    tag_15:\n        /* \"lession8.2-Security/SafeRewardDistribution.sol\":384:391  30 days */\n      0x278d00\n        /* \"lession8.2-Security/SafeRewardDistribution.sol\":348:391  uint public constant CLAIM_PREIOD = 30 days */\n      dup2\n      jump\t// out\n        /* \"lession8.2-Security/SafeRewardDistribution.sol\":559:913  function claimReward() external {... */\n    tag_18:\n        /* \"lession8.2-Security/SafeRewardDistribution.sol\":601:612  uint amount */\n      0x00\n        /* \"lession8.2-Security/SafeRewardDistribution.sol\":615:622  rewards */\n      0x00\n        /* \"lession8.2-Security/SafeRewardDistribution.sol\":615:634  rewards[msg.sender] */\n      0x00\n        /* \"lession8.2-Security/SafeRewardDistribution.sol\":623:633  msg.sender */\n      caller\n        /* \"lession8.2-Security/SafeRewardDistribution.sol\":615:634  rewards[msg.sender] */\n      0xffffffffffffffffffffffffffffffffffffffff\n      and\n      0xffffffffffffffffffffffffffffffffffffffff\n      and\n      dup2\n      mstore\n      0x20\n      add\n      swap1\n      dup2\n      mstore\n      0x20\n      add\n      0x00\n      keccak256\n      sload\n        /* \"lession8.2-Security/SafeRewardDistribution.sol\":601:634  uint amount = rewards[msg.sender] */\n      swap1\n      pop\n        /* \"lession8.2-Security/SafeRewardDistribution.sol\":661:662  0 */\n      0x00\n        /* \"lession8.2-Security/SafeRewardDistribution.sol\":652:658  amount */\n      dup2\n        /* \"lession8.2-Security/SafeRewardDistribution.sol\":652:662  amount > 0 */\n      gt\n        /* \"lession8.2-Security/SafeRewardDistribution.sol\":644:678  require(amount > 0, \"No rewards!\") */\n      tag_28\n      jumpi\n      mload(0x40)\n      0x08c379a000000000000000000000000000000000000000000000000000000000\n      dup2\n      mstore\n      0x04\n      add\n      tag_29\n      swap1\n      tag_30\n      jump\t// in\n    tag_29:\n      mload(0x40)\n      dup1\n      swap2\n      sub\n      swap1\n      revert\n    tag_28:\n        /* \"lession8.2-Security/SafeRewardDistribution.sol\":733:748  block.timestamp */\n      timestamp\n        /* \"lession8.2-Security/SafeRewardDistribution.sol\":705:718  claimDeadline */\n      0x01\n        /* \"lession8.2-Security/SafeRewardDistribution.sol\":705:730  claimDeadline[msg.sender] */\n      0x00\n        /* \"lession8.2-Security/SafeRewardDistribution.sol\":719:729  msg.sender */\n      caller\n        /* \"lession8.2-Security/SafeRewardDistribution.sol\":705:730  claimDeadline[msg.sender] */\n      0xffffffffffffffffffffffffffffffffffffffff\n      and\n      0xffffffffffffffffffffffffffffffffffffffff\n      and\n      dup2\n      mstore\n      0x20\n      add\n      swap1\n      dup2\n      mstore\n      0x20\n      add\n      0x00\n      keccak256\n      sload\n        /* \"lession8.2-Security/SafeRewardDistribution.sol\":705:748  claimDeadline[msg.sender] < block.timestamp */\n      lt\n        /* \"lession8.2-Security/SafeRewardDistribution.sol\":697:761  require(claimDeadline[msg.sender] < block.timestamp, \"Expired!\") */\n      tag_31\n      jumpi\n      mload(0x40)\n      0x08c379a000000000000000000000000000000000000000000000000000000000\n      dup2\n      mstore\n      0x04\n      add\n      tag_32\n      swap1\n      tag_33\n      jump\t// in\n    tag_32:\n      mload(0x40)\n      dup1\n      swap2\n      sub\n      swap1\n      revert\n    tag_31:\n        /* \"lession8.2-Security/SafeRewardDistribution.sol\":794:795  0 */\n      0x00\n        /* \"lession8.2-Security/SafeRewardDistribution.sol\":772:779  rewards */\n      0x00\n        /* \"lession8.2-Security/SafeRewardDistribution.sol\":772:791  rewards[msg.sender] */\n      0x00\n        /* \"lession8.2-Security/SafeRewardDistribution.sol\":780:790  msg.sender */\n      caller\n        /* \"lession8.2-Security/SafeRewardDistribution.sol\":772:791  rewards[msg.sender] */\n      0xffffffffffffffffffffffffffffffffffffffff\n      and\n      0xffffffffffffffffffffffffffffffffffffffff\n      and\n      dup2\n      mstore\n      0x20\n      add\n      swap1\n      dup2\n      mstore\n      0x20\n      add\n      0x00\n      keccak256\n        /* \"lession8.2-Security/SafeRewardDistribution.sol\":772:795  rewards[msg.sender] = 0 */\n      dup2\n      swap1\n      sstore\n      pop\n        /* \"lession8.2-Security/SafeRewardDistribution.sol\":807:819  bool success */\n      0x00\n        /* \"lession8.2-Security/SafeRewardDistribution.sol\":824:834  msg.sender */\n      caller\n        /* \"lession8.2-Security/SafeRewardDistribution.sol\":824:839  msg.sender.call */\n      0xffffffffffffffffffffffffffffffffffffffff\n      and\n        /* \"lession8.2-Security/SafeRewardDistribution.sol\":846:852  amount */\n      dup3\n        /* \"lession8.2-Security/SafeRewardDistribution.sol\":824:857  msg.sender.call{value:amount}(\"\") */\n      mload(0x40)\n      tag_34\n      swap1\n      tag_35\n      jump\t// in\n    tag_34:\n      0x00\n      mload(0x40)\n      dup1\n      dup4\n      sub\n      dup2\n      dup6\n      dup8\n      gas\n      call\n      swap3\n      pop\n      pop\n      pop\n      returndatasize\n      dup1\n      0x00\n      dup2\n      eq\n      tag_38\n      jumpi\n      mload(0x40)\n      swap2\n      pop\n      and(add(returndatasize, 0x3f), not(0x1f))\n      dup3\n      add\n      0x40\n      mstore\n      returndatasize\n      dup3\n      mstore\n      returndatasize\n      0x00\n      0x20\n      dup5\n      add\n      returndatacopy\n      jump(tag_37)\n    tag_38:\n      0x60\n      swap2\n      pop\n    tag_37:\n      pop\n        /* \"lession8.2-Security/SafeRewardDistribution.sol\":806:857  (bool success,) = msg.sender.call{value:amount}(\"\") */\n      pop\n      swap1\n      pop\n        /* \"lession8.2-Security/SafeRewardDistribution.sol\":875:882  success */\n      dup1\n        /* \"lession8.2-Security/SafeRewardDistribution.sol\":867:906  require(success, \"Transaction failed!\") */\n      tag_39\n      jumpi\n      mload(0x40)\n      0x08c379a000000000000000000000000000000000000000000000000000000000\n      dup2\n      mstore\n      0x04\n      add\n      tag_40\n      swap1\n      tag_41\n      jump\t// in\n    tag_40:\n      mload(0x40)\n      dup1\n      swap2\n      sub\n      swap1\n      revert\n    tag_39:\n        /* \"lession8.2-Security/SafeRewardDistribution.sol\":591:913  {... */\n      pop\n      pop\n        /* \"lession8.2-Security/SafeRewardDistribution.sol\":559:913  function claimReward() external {... */\n      jump\t// out\n        /* \"lession8.2-Security/SafeRewardDistribution.sol\":398:553  function setReward(address user,uint amount) external {... */\n    tag_22:\n        /* \"lession8.2-Security/SafeRewardDistribution.sol\":478:484  amount */\n      dup1\n        /* \"lession8.2-Security/SafeRewardDistribution.sol\":462:469  rewards */\n      0x00\n        /* \"lession8.2-Security/SafeRewardDistribution.sol\":462:475  rewards[user] */\n      0x00\n        /* \"lession8.2-Security/SafeRewardDistribution.sol\":470:474  user */\n      dup5\n        /* \"lession8.2-Security/SafeRewardDistribution.sol\":462:475  rewards[user] */\n      0xffffffffffffffffffffffffffffffffffffffff\n      and\n      0xffffffffffffffffffffffffffffffffffffffff\n      and\n      dup2\n      mstore\n      0x20\n      add\n      swap1\n      dup2\n      mstore\n      0x20\n      add\n      0x00\n      keccak256\n        /* \"lession8.2-Security/SafeRewardDistribution.sol\":462:484  rewards[user] = amount */\n      dup2\n      swap1\n      sstore\n      pop\n        /* \"lession8.2-Security/SafeRewardDistribution.sol\":384:391  30 days */\n      0x278d00\n        /* \"lession8.2-Security/SafeRewardDistribution.sol\":516:531  block.timestamp */\n      timestamp\n        /* \"lession8.2-Security/SafeRewardDistribution.sol\":516:546  block.timestamp + CLAIM_PREIOD */\n      tag_43\n      swap2\n      swap1\n      tag_44\n      jump\t// in\n    tag_43:\n        /* \"lession8.2-Security/SafeRewardDistribution.sol\":494:507  claimDeadline */\n      0x01\n        /* \"lession8.2-Security/SafeRewardDistribution.sol\":494:513  claimDeadline[user] */\n      0x00\n        /* \"lession8.2-Security/SafeRewardDistribution.sol\":508:512  user */\n      dup5\n        /* \"lession8.2-Security/SafeRewardDistribution.sol\":494:513  claimDeadline[user] */\n      0xffffffffffffffffffffffffffffffffffffffff\n      and\n      0xffffffffffffffffffffffffffffffffffffffff\n      and\n      dup2\n      mstore\n      0x20\n      add\n      swap1\n      dup2\n      mstore\n      0x20\n      add\n      0x00\n      keccak256\n        /* \"lession8.2-Security/SafeRewardDistribution.sol\":494:546  claimDeadline[user] = block.timestamp + CLAIM_PREIOD */\n      dup2\n      swap1\n      sstore\n      pop\n        /* \"lession8.2-Security/SafeRewardDistribution.sol\":398:553  function setReward(address user,uint amount) external {... */\n      pop\n      pop\n      jump\t// out\n        /* \"lession8.2-Security/SafeRewardDistribution.sol\":295:341  mapping (address => uint) public claimDeadline */\n    tag_25:\n      mstore(0x20, 0x01)\n      dup1\n      0x00\n      mstore\n      keccak256(0x00, 0x40)\n      0x00\n      swap2\n      pop\n      swap1\n      pop\n      sload\n      dup2\n      jump\t// out\n        /* \"#utility.yul\":88:205   */\n    tag_46:\n        /* \"#utility.yul\":197:198   */\n      0x00\n        /* \"#utility.yul\":194:195   */\n      0x00\n        /* \"#utility.yul\":187:199   */\n      revert\n        /* \"#utility.yul\":334:460   */\n    tag_48:\n        /* \"#utility.yul\":371:378   */\n      0x00\n        /* \"#utility.yul\":411:453   */\n      0xffffffffffffffffffffffffffffffffffffffff\n        /* \"#utility.yul\":404:409   */\n      dup3\n        /* \"#utility.yul\":400:454   */\n      and\n        /* \"#utility.yul\":389:454   */\n      swap1\n      pop\n        /* \"#utility.yul\":334:460   */\n      swap2\n      swap1\n      pop\n      jump\t// out\n        /* \"#utility.yul\":466:562   */\n    tag_49:\n        /* \"#utility.yul\":503:510   */\n      0x00\n        /* \"#utility.yul\":532:556   */\n      tag_73\n        /* \"#utility.yul\":550:555   */\n      dup3\n        /* \"#utility.yul\":532:556   */\n      tag_48\n      jump\t// in\n    tag_73:\n        /* \"#utility.yul\":521:556   */\n      swap1\n      pop\n        /* \"#utility.yul\":466:562   */\n      swap2\n      swap1\n      pop\n      jump\t// out\n        /* \"#utility.yul\":568:690   */\n    tag_50:\n        /* \"#utility.yul\":641:665   */\n      tag_75\n        /* \"#utility.yul\":659:664   */\n      dup2\n        /* \"#utility.yul\":641:665   */\n      tag_49\n      jump\t// in\n    tag_75:\n        /* \"#utility.yul\":634:639   */\n      dup2\n        /* \"#utility.yul\":631:666   */\n      eq\n        /* \"#utility.yul\":621:684   */\n      tag_76\n      jumpi\n        /* \"#utility.yul\":680:681   */\n      0x00\n        /* \"#utility.yul\":677:678   */\n      0x00\n        /* \"#utility.yul\":670:682   */\n      revert\n        /* \"#utility.yul\":621:684   */\n    tag_76:\n        /* \"#utility.yul\":568:690   */\n      pop\n      jump\t// out\n        /* \"#utility.yul\":696:835   */\n    tag_51:\n        /* \"#utility.yul\":742:747   */\n      0x00\n        /* \"#utility.yul\":780:786   */\n      dup2\n        /* \"#utility.yul\":767:787   */\n      calldataload\n        /* \"#utility.yul\":758:787   */\n      swap1\n      pop\n        /* \"#utility.yul\":796:829   */\n      tag_78\n        /* \"#utility.yul\":823:828   */\n      dup2\n        /* \"#utility.yul\":796:829   */\n      tag_50\n      jump\t// in\n    tag_78:\n        /* \"#utility.yul\":696:835   */\n      swap3\n      swap2\n      pop\n      pop\n      jump\t// out\n        /* \"#utility.yul\":841:1170   */\n    tag_10:\n        /* \"#utility.yul\":900:906   */\n      0x00\n        /* \"#utility.yul\":949:951   */\n      0x20\n        /* \"#utility.yul\":937:946   */\n      dup3\n        /* \"#utility.yul\":928:935   */\n      dup5\n        /* \"#utility.yul\":924:947   */\n      sub\n        /* \"#utility.yul\":920:952   */\n      slt\n        /* \"#utility.yul\":917:1036   */\n      iszero\n      tag_80\n      jumpi\n        /* \"#utility.yul\":955:1034   */\n      tag_81\n      tag_46\n      jump\t// in\n    tag_81:\n        /* \"#utility.yul\":917:1036   */\n    tag_80:\n        /* \"#utility.yul\":1075:1076   */\n      0x00\n        /* \"#utility.yul\":1100:1153   */\n      tag_82\n        /* \"#utility.yul\":1145:1152   */\n      dup5\n        /* \"#utility.yul\":1136:1142   */\n      dup3\n        /* \"#utility.yul\":1125:1134   */\n      dup6\n        /* \"#utility.yul\":1121:1143   */\n      add\n        /* \"#utility.yul\":1100:1153   */\n      tag_51\n      jump\t// in\n    tag_82:\n        /* \"#utility.yul\":1090:1153   */\n      swap2\n      pop\n        /* \"#utility.yul\":1046:1163   */\n      pop\n        /* \"#utility.yul\":841:1170   */\n      swap3\n      swap2\n      pop\n      pop\n      jump\t// out\n        /* \"#utility.yul\":1176:1253   */\n    tag_52:\n        /* \"#utility.yul\":1213:1220   */\n      0x00\n        /* \"#utility.yul\":1242:1247   */\n      dup2\n        /* \"#utility.yul\":1231:1247   */\n      swap1\n      pop\n        /* \"#utility.yul\":1176:1253   */\n      swap2\n      swap1\n      pop\n      jump\t// out\n        /* \"#utility.yul\":1259:1377   */\n    tag_53:\n        /* \"#utility.yul\":1346:1370   */\n      tag_85\n        /* \"#utility.yul\":1364:1369   */\n      dup2\n        /* \"#utility.yul\":1346:1370   */\n      tag_52\n      jump\t// in\n    tag_85:\n        /* \"#utility.yul\":1341:1344   */\n      dup3\n        /* \"#utility.yul\":1334:1371   */\n      mstore\n        /* \"#utility.yul\":1259:1377   */\n      pop\n      pop\n      jump\t// out\n        /* \"#utility.yul\":1383:1605   */\n    tag_13:\n        /* \"#utility.yul\":1476:1480   */\n      0x00\n        /* \"#utility.yul\":1514:1516   */\n      0x20\n        /* \"#utility.yul\":1503:1512   */\n      dup3\n        /* \"#utility.yul\":1499:1517   */\n      add\n        /* \"#utility.yul\":1491:1517   */\n      swap1\n      pop\n        /* \"#utility.yul\":1527:1598   */\n      tag_87\n        /* \"#utility.yul\":1595:1596   */\n      0x00\n        /* \"#utility.yul\":1584:1593   */\n      dup4\n        /* \"#utility.yul\":1580:1597   */\n      add\n        /* \"#utility.yul\":1571:1577   */\n      dup5\n        /* \"#utility.yul\":1527:1598   */\n      tag_53\n      jump\t// in\n    tag_87:\n        /* \"#utility.yul\":1383:1605   */\n      swap3\n      swap2\n      pop\n      pop\n      jump\t// out\n        /* \"#utility.yul\":1611:1733   */\n    tag_54:\n        /* \"#utility.yul\":1684:1708   */\n      tag_89\n        /* \"#utility.yul\":1702:1707   */\n      dup2\n        /* \"#utility.yul\":1684:1708   */\n      tag_52\n      jump\t// in\n    tag_89:\n        /* \"#utility.yul\":1677:1682   */\n      dup2\n        /* \"#utility.yul\":1674:1709   */\n      eq\n        /* \"#utility.yul\":1664:1727   */\n      tag_90\n      jumpi\n        /* \"#utility.yul\":1723:1724   */\n      0x00\n        /* \"#utility.yul\":1720:1721   */\n      0x00\n        /* \"#utility.yul\":1713:1725   */\n      revert\n        /* \"#utility.yul\":1664:1727   */\n    tag_90:\n        /* \"#utility.yul\":1611:1733   */\n      pop\n      jump\t// out\n        /* \"#utility.yul\":1739:1878   */\n    tag_55:\n        /* \"#utility.yul\":1785:1790   */\n      0x00\n        /* \"#utility.yul\":1823:1829   */\n      dup2\n        /* \"#utility.yul\":1810:1830   */\n      calldataload\n        /* \"#utility.yul\":1801:1830   */\n      swap1\n      pop\n        /* \"#utility.yul\":1839:1872   */\n      tag_92\n        /* \"#utility.yul\":1866:1871   */\n      dup2\n        /* \"#utility.yul\":1839:1872   */\n      tag_54\n      jump\t// in\n    tag_92:\n        /* \"#utility.yul\":1739:1878   */\n      swap3\n      swap2\n      pop\n      pop\n      jump\t// out\n        /* \"#utility.yul\":1884:2358   */\n    tag_21:\n        /* \"#utility.yul\":1952:1958   */\n      0x00\n        /* \"#utility.yul\":1960:1966   */\n      0x00\n        /* \"#utility.yul\":2009:2011   */\n      0x40\n        /* \"#utility.yul\":1997:2006   */\n      dup4\n        /* \"#utility.yul\":1988:1995   */\n      dup6\n        /* \"#utility.yul\":1984:2007   */\n      sub\n        /* \"#utility.yul\":1980:2012   */\n      slt\n        /* \"#utility.yul\":1977:2096   */\n      iszero\n      tag_94\n      jumpi\n        /* \"#utility.yul\":2015:2094   */\n      tag_95\n      tag_46\n      jump\t// in\n    tag_95:\n        /* \"#utility.yul\":1977:2096   */\n    tag_94:\n        /* \"#utility.yul\":2135:2136   */\n      0x00\n        /* \"#utility.yul\":2160:2213   */\n      tag_96\n        /* \"#utility.yul\":2205:2212   */\n      dup6\n        /* \"#utility.yul\":2196:2202   */\n      dup3\n        /* \"#utility.yul\":2185:2194   */\n      dup7\n        /* \"#utility.yul\":2181:2203   */\n      add\n        /* \"#utility.yul\":2160:2213   */\n      tag_51\n      jump\t// in\n    tag_96:\n        /* \"#utility.yul\":2150:2213   */\n      swap3\n      pop\n        /* \"#utility.yul\":2106:2223   */\n      pop\n        /* \"#utility.yul\":2262:2264   */\n      0x20\n        /* \"#utility.yul\":2288:2341   */\n      tag_97\n        /* \"#utility.yul\":2333:2340   */\n      dup6\n        /* \"#utility.yul\":2324:2330   */\n      dup3\n        /* \"#utility.yul\":2313:2322   */\n      dup7\n        /* \"#utility.yul\":2309:2331   */\n      add\n        /* \"#utility.yul\":2288:2341   */\n      tag_55\n      jump\t// in\n    tag_97:\n        /* \"#utility.yul\":2278:2341   */\n      swap2\n      pop\n        /* \"#utility.yul\":2233:2351   */\n      pop\n        /* \"#utility.yul\":1884:2358   */\n      swap3\n      pop\n      swap3\n      swap1\n      pop\n      jump\t// out\n        /* \"#utility.yul\":2364:2533   */\n    tag_56:\n        /* \"#utility.yul\":2448:2459   */\n      0x00\n        /* \"#utility.yul\":2482:2488   */\n      dup3\n        /* \"#utility.yul\":2477:2480   */\n      dup3\n        /* \"#utility.yul\":2470:2489   */\n      mstore\n        /* \"#utility.yul\":2522:2526   */\n      0x20\n        /* \"#utility.yul\":2517:2520   */\n      dup3\n        /* \"#utility.yul\":2513:2527   */\n      add\n        /* \"#utility.yul\":2498:2527   */\n      swap1\n      pop\n        /* \"#utility.yul\":2364:2533   */\n      swap3\n      swap2\n      pop\n      pop\n      jump\t// out\n        /* \"#utility.yul\":2539:2700   */\n    tag_57:\n        /* \"#utility.yul\":2679:2692   */\n      0x4e6f207265776172647321000000000000000000000000000000000000000000\n        /* \"#utility.yul\":2675:2676   */\n      0x00\n        /* \"#utility.yul\":2667:2673   */\n      dup3\n        /* \"#utility.yul\":2663:2677   */\n      add\n        /* \"#utility.yul\":2656:2693   */\n      mstore\n        /* \"#utility.yul\":2539:2700   */\n      pop\n      jump\t// out\n        /* \"#utility.yul\":2706:3072   */\n    tag_58:\n        /* \"#utility.yul\":2848:2851   */\n      0x00\n        /* \"#utility.yul\":2869:2936   */\n      tag_101\n        /* \"#utility.yul\":2933:2935   */\n      0x0b\n        /* \"#utility.yul\":2928:2931   */\n      dup4\n        /* \"#utility.yul\":2869:2936   */\n      tag_56\n      jump\t// in\n    tag_101:\n        /* \"#utility.yul\":2862:2936   */\n      swap2\n      pop\n        /* \"#utility.yul\":2945:3038   */\n      tag_102\n        /* \"#utility.yul\":3034:3037   */\n      dup3\n        /* \"#utility.yul\":2945:3038   */\n      tag_57\n      jump\t// in\n    tag_102:\n        /* \"#utility.yul\":3063:3065   */\n      0x20\n        /* \"#utility.yul\":3058:3061   */\n      dup3\n        /* \"#utility.yul\":3054:3066   */\n      add\n        /* \"#utility.yul\":3047:3066   */\n      swap1\n      pop\n        /* \"#utility.yul\":2706:3072   */\n      swap2\n      swap1\n      pop\n      jump\t// out\n        /* \"#utility.yul\":3078:3497   */\n    tag_30:\n        /* \"#utility.yul\":3244:3248   */\n      0x00\n        /* \"#utility.yul\":3282:3284   */\n      0x20\n        /* \"#utility.yul\":3271:3280   */\n      dup3\n        /* \"#utility.yul\":3267:3285   */\n      add\n        /* \"#utility.yul\":3259:3285   */\n      swap1\n      pop\n        /* \"#utility.yul\":3331:3340   */\n      dup2\n        /* \"#utility.yul\":3325:3329   */\n      dup2\n        /* \"#utility.yul\":3321:3341   */\n      sub\n        /* \"#utility.yul\":3317:3318   */\n      0x00\n        /* \"#utility.yul\":3306:3315   */\n      dup4\n        /* \"#utility.yul\":3302:3319   */\n      add\n        /* \"#utility.yul\":3295:3342   */\n      mstore\n        /* \"#utility.yul\":3359:3490   */\n      tag_104\n        /* \"#utility.yul\":3485:3489   */\n      dup2\n        /* \"#utility.yul\":3359:3490   */\n      tag_58\n      jump\t// in\n    tag_104:\n        /* \"#utility.yul\":3351:3490   */\n      swap1\n      pop\n        /* \"#utility.yul\":3078:3497   */\n      swap2\n      swap1\n      pop\n      jump\t// out\n        /* \"#utility.yul\":3503:3661   */\n    tag_59:\n        /* \"#utility.yul\":3643:3653   */\n      0x4578706972656421000000000000000000000000000000000000000000000000\n        /* \"#utility.yul\":3639:3640   */\n      0x00\n        /* \"#utility.yul\":3631:3637   */\n      dup3\n        /* \"#utility.yul\":3627:3641   */\n      add\n        /* \"#utility.yul\":3620:3654   */\n      mstore\n        /* \"#utility.yul\":3503:3661   */\n      pop\n      jump\t// out\n        /* \"#utility.yul\":3667:4032   */\n    tag_60:\n        /* \"#utility.yul\":3809:3812   */\n      0x00\n        /* \"#utility.yul\":3830:3896   */\n      tag_107\n        /* \"#utility.yul\":3894:3895   */\n      0x08\n        /* \"#utility.yul\":3889:3892   */\n      dup4\n        /* \"#utility.yul\":3830:3896   */\n      tag_56\n      jump\t// in\n    tag_107:\n        /* \"#utility.yul\":3823:3896   */\n      swap2\n      pop\n        /* \"#utility.yul\":3905:3998   */\n      tag_108\n        /* \"#utility.yul\":3994:3997   */\n      dup3\n        /* \"#utility.yul\":3905:3998   */\n      tag_59\n      jump\t// in\n    tag_108:\n        /* \"#utility.yul\":4023:4025   */\n      0x20\n        /* \"#utility.yul\":4018:4021   */\n      dup3\n        /* \"#utility.yul\":4014:4026   */\n      add\n        /* \"#utility.yul\":4007:4026   */\n      swap1\n      pop\n        /* \"#utility.yul\":3667:4032   */\n      swap2\n      swap1\n      pop\n      jump\t// out\n        /* \"#utility.yul\":4038:4457   */\n    tag_33:\n        /* \"#utility.yul\":4204:4208   */\n      0x00\n        /* \"#utility.yul\":4242:4244   */\n      0x20\n        /* \"#utility.yul\":4231:4240   */\n      dup3\n        /* \"#utility.yul\":4227:4245   */\n      add\n        /* \"#utility.yul\":4219:4245   */\n      swap1\n      pop\n        /* \"#utility.yul\":4291:4300   */\n      dup2\n        /* \"#utility.yul\":4285:4289   */\n      dup2\n        /* \"#utility.yul\":4281:4301   */\n      sub\n        /* \"#utility.yul\":4277:4278   */\n      0x00\n        /* \"#utility.yul\":4266:4275   */\n      dup4\n        /* \"#utility.yul\":4262:4279   */\n      add\n        /* \"#utility.yul\":4255:4302   */\n      mstore\n        /* \"#utility.yul\":4319:4450   */\n      tag_110\n        /* \"#utility.yul\":4445:4449   */\n      dup2\n        /* \"#utility.yul\":4319:4450   */\n      tag_60\n      jump\t// in\n    tag_110:\n        /* \"#utility.yul\":4311:4450   */\n      swap1\n      pop\n        /* \"#utility.yul\":4038:4457   */\n      swap2\n      swap1\n      pop\n      jump\t// out\n        /* \"#utility.yul\":4463:4610   */\n    tag_61:\n        /* \"#utility.yul\":4564:4575   */\n      0x00\n        /* \"#utility.yul\":4601:4604   */\n      dup2\n        /* \"#utility.yul\":4586:4604   */\n      swap1\n      pop\n        /* \"#utility.yul\":4463:4610   */\n      swap3\n      swap2\n      pop\n      pop\n      jump\t// out\n        /* \"#utility.yul\":4616:4730   */\n    tag_62:\n      pop\n      jump\t// out\n        /* \"#utility.yul\":4736:5134   */\n    tag_63:\n        /* \"#utility.yul\":4895:4898   */\n      0x00\n        /* \"#utility.yul\":4916:4999   */\n      tag_114\n        /* \"#utility.yul\":4997:4998   */\n      0x00\n        /* \"#utility.yul\":4992:4995   */\n      dup4\n        /* \"#utility.yul\":4916:4999   */\n      tag_61\n      jump\t// in\n    tag_114:\n        /* \"#utility.yul\":4909:4999   */\n      swap2\n      pop\n        /* \"#utility.yul\":5008:5101   */\n      tag_115\n        /* \"#utility.yul\":5097:5100   */\n      dup3\n        /* \"#utility.yul\":5008:5101   */\n      tag_62\n      jump\t// in\n    tag_115:\n        /* \"#utility.yul\":5126:5127   */\n      0x00\n        /* \"#utility.yul\":5121:5124   */\n      dup3\n        /* \"#utility.yul\":5117:5128   */\n      add\n        /* \"#utility.yul\":5110:5128   */\n      swap1\n      pop\n        /* \"#utility.yul\":4736:5134   */\n      swap2\n      swap1\n      pop\n      jump\t// out\n        /* \"#utility.yul\":5140:5519   */\n    tag_35:\n        /* \"#utility.yul\":5324:5327   */\n      0x00\n        /* \"#utility.yul\":5346:5493   */\n      tag_117\n        /* \"#utility.yul\":5489:5492   */\n      dup3\n        /* \"#utility.yul\":5346:5493   */\n      tag_63\n      jump\t// in\n    tag_117:\n        /* \"#utility.yul\":5339:5493   */\n      swap2\n      pop\n        /* \"#utility.yul\":5510:5513   */\n      dup2\n        /* \"#utility.yul\":5503:5513   */\n      swap1\n      pop\n        /* \"#utility.yul\":5140:5519   */\n      swap2\n      swap1\n      pop\n      jump\t// out\n        /* \"#utility.yul\":5525:5694   */\n    tag_64:\n        /* \"#utility.yul\":5665:5686   */\n      0x5472616e73616374696f6e206661696c65642100000000000000000000000000\n        /* \"#utility.yul\":5661:5662   */\n      0x00\n        /* \"#utility.yul\":5653:5659   */\n      dup3\n        /* \"#utility.yul\":5649:5663   */\n      add\n        /* \"#utility.yul\":5642:5687   */\n      mstore\n        /* \"#utility.yul\":5525:5694   */\n      pop\n      jump\t// out\n        /* \"#utility.yul\":5700:6066   */\n    tag_65:\n        /* \"#utility.yul\":5842:5845   */\n      0x00\n        /* \"#utility.yul\":5863:5930   */\n      tag_120\n        /* \"#utility.yul\":5927:5929   */\n      0x13\n        /* \"#utility.yul\":5922:5925   */\n      dup4\n        /* \"#utility.yul\":5863:5930   */\n      tag_56\n      jump\t// in\n    tag_120:\n        /* \"#utility.yul\":5856:5930   */\n      swap2\n      pop\n        /* \"#utility.yul\":5939:6032   */\n      tag_121\n        /* \"#utility.yul\":6028:6031   */\n      dup3\n        /* \"#utility.yul\":5939:6032   */\n      tag_64\n      jump\t// in\n    tag_121:\n        /* \"#utility.yul\":6057:6059   */\n      0x20\n        /* \"#utility.yul\":6052:6055   */\n      dup3\n        /* \"#utility.yul\":6048:6060   */\n      add\n        /* \"#utility.yul\":6041:6060   */\n      swap1\n      pop\n        /* \"#utility.yul\":5700:6066   */\n      swap2\n      swap1\n      pop\n      jump\t// out\n        /* \"#utility.yul\":6072:6491   */\n    tag_41:\n        /* \"#utility.yul\":6238:6242   */\n      0x00\n        /* \"#utility.yul\":6276:6278   */\n      0x20\n        /* \"#utility.yul\":6265:6274   */\n      dup3\n        /* \"#utility.yul\":6261:6279   */\n      add\n        /* \"#utility.yul\":6253:6279   */\n      swap1\n      pop\n        /* \"#utility.yul\":6325:6334   */\n      dup2\n        /* \"#utility.yul\":6319:6323   */\n      dup2\n        /* \"#utility.yul\":6315:6335   */\n      sub\n        /* \"#utility.yul\":6311:6312   */\n      0x00\n        /* \"#utility.yul\":6300:6309   */\n      dup4\n        /* \"#utility.yul\":6296:6313   */\n      add\n        /* \"#utility.yul\":6289:6336   */\n      mstore\n        /* \"#utility.yul\":6353:6484   */\n      tag_123\n        /* \"#utility.yul\":6479:6483   */\n      dup2\n        /* \"#utility.yul\":6353:6484   */\n      tag_65\n      jump\t// in\n    tag_123:\n        /* \"#utility.yul\":6345:6484   */\n      swap1\n      pop\n        /* \"#utility.yul\":6072:6491   */\n      swap2\n      swap1\n      pop\n      jump\t// out\n        /* \"#utility.yul\":6497:6677   */\n    tag_66:\n        /* \"#utility.yul\":6545:6622   */\n      0x4e487b7100000000000000000000000000000000000000000000000000000000\n        /* \"#utility.yul\":6542:6543   */\n      0x00\n        /* \"#utility.yul\":6535:6623   */\n      mstore\n        /* \"#utility.yul\":6642:6646   */\n      0x11\n        /* \"#utility.yul\":6639:6640   */\n      0x04\n        /* \"#utility.yul\":6632:6647   */\n      mstore\n        /* \"#utility.yul\":6666:6670   */\n      0x24\n        /* \"#utility.yul\":6663:6664   */\n      0x00\n        /* \"#utility.yul\":6656:6671   */\n      revert\n        /* \"#utility.yul\":6683:6874   */\n    tag_44:\n        /* \"#utility.yul\":6723:6726   */\n      0x00\n        /* \"#utility.yul\":6742:6762   */\n      tag_126\n        /* \"#utility.yul\":6760:6761   */\n      dup3\n        /* \"#utility.yul\":6742:6762   */\n      tag_52\n      jump\t// in\n    tag_126:\n        /* \"#utility.yul\":6737:6762   */\n      swap2\n      pop\n        /* \"#utility.yul\":6776:6796   */\n      tag_127\n        /* \"#utility.yul\":6794:6795   */\n      dup4\n        /* \"#utility.yul\":6776:6796   */\n      tag_52\n      jump\t// in\n    tag_127:\n        /* \"#utility.yul\":6771:6796   */\n      swap3\n      pop\n        /* \"#utility.yul\":6819:6820   */\n      dup3\n        /* \"#utility.yul\":6816:6817   */\n      dup3\n        /* \"#utility.yul\":6812:6821   */\n      add\n        /* \"#utility.yul\":6805:6821   */\n      swap1\n      pop\n        /* \"#utility.yul\":6840:6843   */\n      dup1\n        /* \"#utility.yul\":6837:6838   */\n      dup3\n        /* \"#utility.yul\":6834:6844   */\n      gt\n        /* \"#utility.yul\":6831:6867   */\n      iszero\n      tag_128\n      jumpi\n        /* \"#utility.yul\":6847:6865   */\n      tag_129\n      tag_66\n      jump\t// in\n    tag_129:\n        /* \"#utility.yul\":6831:6867   */\n    tag_128:\n        /* \"#utility.yul\":6683:6874   */\n      swap3\n      swap2\n      pop\n      pop\n      jump\t// out\n\n    auxdata: 0xa2646970667358221220b32680a8a2adb35496794dbae1f29840190a71712c86053f29eaa7287908d5f264736f6c63430008220033\n}\n",
				"bytecode": {
					"linkReferences": {},
					"object": "6080604052348015600e575f5ffd5b506106f18061001c5f395ff3fe608060405234801561000f575f5ffd5b5060043610610055575f3560e01c80630700037d146100595780631c061ca314610089578063b88a802f146100a7578063eacccaf0146100b1578063ee5437b7146100cd575b5f5ffd5b610073600480360381019061006e919061040e565b6100fd565b6040516100809190610451565b60405180910390f35b610091610111565b60405161009e9190610451565b60405180910390f35b6100af610118565b005b6100cb60048036038101906100c69190610494565b610306565b005b6100e760048036038101906100e2919061040e565b61039b565b6040516100f49190610451565b60405180910390f35b5f602052805f5260405f205f915090505481565b62278d0081565b5f5f5f3373ffffffffffffffffffffffffffffffffffffffff1673ffffffffffffffffffffffffffffffffffffffff1681526020019081526020015f205490505f811161019a576040517f08c379a00000000000000000000000000000000000000000000000000000000081526004016101919061052c565b60405180910390fd5b4260015f3373ffffffffffffffffffffffffffffffffffffffff1673ffffffffffffffffffffffffffffffffffffffff1681526020019081526020015f205410610219576040517f08c379a000000000000000000000000000000000000000000000000000000000815260040161021090610594565b60405180910390fd5b5f5f5f3373ffffffffffffffffffffffffffffffffffffffff1673ffffffffffffffffffffffffffffffffffffffff1681526020019081526020015f20819055505f3373ffffffffffffffffffffffffffffffffffffffff168260405161027f906105df565b5f6040518083038185875af1925050503d805f81146102b9576040519150601f19603f3d011682016040523d82523d5f602084013e6102be565b606091505b5050905080610302576040517f08c379a00000000000000000000000000000000000000000000000000000000081526004016102f99061063d565b60405180910390fd5b5050565b805f5f8473ffffffffffffffffffffffffffffffffffffffff1673ffffffffffffffffffffffffffffffffffffffff1681526020019081526020015f208190555062278d00426103569190610688565b60015f8473ffffffffffffffffffffffffffffffffffffffff1673ffffffffffffffffffffffffffffffffffffffff1681526020019081526020015f20819055505050565b6001602052805f5260405f205f915090505481565b5f5ffd5b5f73ffffffffffffffffffffffffffffffffffffffff82169050919050565b5f6103dd826103b4565b9050919050565b6103ed816103d3565b81146103f7575f5ffd5b50565b5f81359050610408816103e4565b92915050565b5f60208284031215610423576104226103b0565b5b5f610430848285016103fa565b91505092915050565b5f819050919050565b61044b81610439565b82525050565b5f6020820190506104645f830184610442565b92915050565b61047381610439565b811461047d575f5ffd5b50565b5f8135905061048e8161046a565b92915050565b5f5f604083850312156104aa576104a96103b0565b5b5f6104b7858286016103fa565b92505060206104c885828601610480565b9150509250929050565b5f82825260208201905092915050565b7f4e6f2072657761726473210000000000000000000000000000000000000000005f82015250565b5f610516600b836104d2565b9150610521826104e2565b602082019050919050565b5f6020820190508181035f8301526105438161050a565b9050919050565b7f45787069726564210000000000000000000000000000000000000000000000005f82015250565b5f61057e6008836104d2565b91506105898261054a565b602082019050919050565b5f6020820190508181035f8301526105ab81610572565b9050919050565b5f81905092915050565b50565b5f6105ca5f836105b2565b91506105d5826105bc565b5f82019050919050565b5f6105e9826105bf565b9150819050919050565b7f5472616e73616374696f6e206661696c656421000000000000000000000000005f82015250565b5f6106276013836104d2565b9150610632826105f3565b602082019050919050565b5f6020820190508181035f8301526106548161061b565b9050919050565b7f4e487b71000000000000000000000000000000000000000000000000000000005f52601160045260245ffd5b5f61069282610439565b915061069d83610439565b92508282019050808211156106b5576106b461065b565b5b9291505056fea2646970667358221220b32680a8a2adb35496794dbae1f29840190a71712c86053f29eaa7287908d5f264736f6c63430008220033",
					"opcodes": "PUSH1 0x80 PUSH1 0x40 MSTORE CALLVALUE DUP1 ISZERO PUSH1 0xE JUMPI PUSH0 PUSH0 REVERT JUMPDEST POP PUSH2 0x6F1 DUP1 PUSH2 0x1C PUSH0 CODECOPY PUSH0 RETURN INVALID PUSH1 0x80 PUSH1 0x40 MSTORE CALLVALUE DUP1 ISZERO PUSH2 0xF JUMPI PUSH0 PUSH0 REVERT JUMPDEST POP PUSH1 0x4 CALLDATASIZE LT PUSH2 0x55 JUMPI PUSH0 CALLDATALOAD PUSH1 0xE0 SHR DUP1 PUSH4 0x700037D EQ PUSH2 0x59 JUMPI DUP1 PUSH4 0x1C061CA3 EQ PUSH2 0x89 JUMPI DUP1 PUSH4 0xB88A802F EQ PUSH2 0xA7 JUMPI DUP1 PUSH4 0xEACCCAF0 EQ PUSH2 0xB1 JUMPI DUP1 PUSH4 0xEE5437B7 EQ PUSH2 0xCD JUMPI JUMPDEST PUSH0 PUSH0 REVERT JUMPDEST PUSH2 0x73 PUSH1 0x4 DUP1 CALLDATASIZE SUB DUP2 ADD SWAP1 PUSH2 0x6E SWAP2 SWAP1 PUSH2 0x40E JUMP JUMPDEST PUSH2 0xFD JUMP JUMPDEST PUSH1 0x40 MLOAD PUSH2 0x80 SWAP2 SWAP1 PUSH2 0x451 JUMP JUMPDEST PUSH1 0x40 MLOAD DUP1 SWAP2 SUB SWAP1 RETURN JUMPDEST PUSH2 0x91 PUSH2 0x111 JUMP JUMPDEST PUSH1 0x40 MLOAD PUSH2 0x9E SWAP2 SWAP1 PUSH2 0x451 JUMP JUMPDEST PUSH1 0x40 MLOAD DUP1 SWAP2 SUB SWAP1 RETURN JUMPDEST PUSH2 0xAF PUSH2 0x118 JUMP JUMPDEST STOP JUMPDEST PUSH2 0xCB PUSH1 0x4 DUP1 CALLDATASIZE SUB DUP2 ADD SWAP1 PUSH2 0xC6 SWAP2 SWAP1 PUSH2 0x494 JUMP JUMPDEST PUSH2 0x306 JUMP JUMPDEST STOP JUMPDEST PUSH2 0xE7 PUSH1 0x4 DUP1 CALLDATASIZE SUB DUP2 ADD SWAP1 PUSH2 0xE2 SWAP2 SWAP1 PUSH2 0x40E JUMP JUMPDEST PUSH2 0x39B JUMP JUMPDEST PUSH1 0x40 MLOAD PUSH2 0xF4 SWAP2 SWAP1 PUSH2 0x451 JUMP JUMPDEST PUSH1 0x40 MLOAD DUP1 SWAP2 SUB SWAP1 RETURN JUMPDEST PUSH0 PUSH1 0x20 MSTORE DUP1 PUSH0 MSTORE PUSH1 0x40 PUSH0 KECCAK256 PUSH0 SWAP2 POP SWAP1 POP SLOAD DUP2 JUMP JUMPDEST PUSH3 0x278D00 DUP2 JUMP JUMPDEST PUSH0 PUSH0 PUSH0 CALLER PUSH20 0xFFFFFFFFFFFFFFFFFFFFFFFFFFFFFFFFFFFFFFFF AND PUSH20 0xFFFFFFFFFFFFFFFFFFFFFFFFFFFFFFFFFFFFFFFF AND DUP2 MSTORE PUSH1 0x20 ADD SWAP1 DUP2 MSTORE PUSH1 0x20 ADD PUSH0 KECCAK256 SLOAD SWAP1 POP PUSH0 DUP2 GT PUSH2 0x19A JUMPI PUSH1 0x40 MLOAD PUSH32 0x8C379A000000000000000000000000000000000000000000000000000000000 DUP2 MSTORE PUSH1 0x4 ADD PUSH2 0x191 SWAP1 PUSH2 0x52C JUMP JUMPDEST PUSH1 0x40 MLOAD DUP1 SWAP2 SUB SWAP1 REVERT JUMPDEST TIMESTAMP PUSH1 0x1 PUSH0 CALLER PUSH20 0xFFFFFFFFFFFFFFFFFFFFFFFFFFFFFFFFFFFFFFFF AND PUSH20 0xFFFFFFFFFFFFFFFFFFFFFFFFFFFFFFFFFFFFFFFF AND DUP2 MSTORE PUSH1 0x20 ADD SWAP1 DUP2 MSTORE PUSH1 0x20 ADD PUSH0 KECCAK256 SLOAD LT PUSH2 0x219 JUMPI PUSH1 0x40 MLOAD PUSH32 0x8C379A000000000000000000000000000000000000000000000000000000000 DUP2 MSTORE PUSH1 0x4 ADD PUSH2 0x210 SWAP1 PUSH2 0x594 JUMP JUMPDEST PUSH1 0x40 MLOAD DUP1 SWAP2 SUB SWAP1 REVERT JUMPDEST PUSH0 PUSH0 PUSH0 CALLER PUSH20 0xFFFFFFFFFFFFFFFFFFFFFFFFFFFFFFFFFFFFFFFF AND PUSH20 0xFFFFFFFFFFFFFFFFFFFFFFFFFFFFFFFFFFFFFFFF AND DUP2 MSTORE PUSH1 0x20 ADD SWAP1 DUP2 MSTORE PUSH1 0x20 ADD PUSH0 KECCAK256 DUP2 SWAP1 SSTORE POP PUSH0 CALLER PUSH20 0xFFFFFFFFFFFFFFFFFFFFFFFFFFFFFFFFFFFFFFFF AND DUP3 PUSH1 0x40 MLOAD PUSH2 0x27F SWAP1 PUSH2 0x5DF JUMP JUMPDEST PUSH0 PUSH1 0x40 MLOAD DUP1 DUP4 SUB DUP2 DUP6 DUP8 GAS CALL SWAP3 POP POP POP RETURNDATASIZE DUP1 PUSH0 DUP2 EQ PUSH2 0x2B9 JUMPI PUSH1 0x40 MLOAD SWAP2 POP PUSH1 0x1F NOT PUSH1 0x3F RETURNDATASIZE ADD AND DUP3 ADD PUSH1 0x40 MSTORE RETURNDATASIZE DUP3 MSTORE RETURNDATASIZE PUSH0 PUSH1 0x20 DUP5 ADD RETURNDATACOPY PUSH2 0x2BE JUMP JUMPDEST PUSH1 0x60 SWAP2 POP JUMPDEST POP POP SWAP1 POP DUP1 PUSH2 0x302 JUMPI PUSH1 0x40 MLOAD PUSH32 0x8C379A000000000000000000000000000000000000000000000000000000000 DUP2 MSTORE PUSH1 0x4 ADD PUSH2 0x2F9 SWAP1 PUSH2 0x63D JUMP JUMPDEST PUSH1 0x40 MLOAD DUP1 SWAP2 SUB SWAP1 REVERT JUMPDEST POP POP JUMP JUMPDEST DUP1 PUSH0 PUSH0 DUP5 PUSH20 0xFFFFFFFFFFFFFFFFFFFFFFFFFFFFFFFFFFFFFFFF AND PUSH20 0xFFFFFFFFFFFFFFFFFFFFFFFFFFFFFFFFFFFFFFFF AND DUP2 MSTORE PUSH1 0x20 ADD SWAP1 DUP2 MSTORE PUSH1 0x20 ADD PUSH0 KECCAK256 DUP2 SWAP1 SSTORE POP PUSH3 0x278D00 TIMESTAMP PUSH2 0x356 SWAP2 SWAP1 PUSH2 0x688 JUMP JUMPDEST PUSH1 0x1 PUSH0 DUP5 PUSH20 0xFFFFFFFFFFFFFFFFFFFFFFFFFFFFFFFFFFFFFFFF AND PUSH20 0xFFFFFFFFFFFFFFFFFFFFFFFFFFFFFFFFFFFFFFFF AND DUP2 MSTORE PUSH1 0x20 ADD SWAP1 DUP2 MSTORE PUSH1 0x20 ADD PUSH0 KECCAK256 DUP2 SWAP1 SSTORE POP POP POP JUMP JUMPDEST PUSH1 0x1 PUSH1 0x20 MSTORE DUP1 PUSH0 MSTORE PUSH1 0x40 PUSH0 KECCAK256 PUSH0 SWAP2 POP SWAP1 POP SLOAD DUP2 JUMP JUMPDEST PUSH0 PUSH0 REVERT JUMPDEST PUSH0 PUSH20 0xFFFFFFFFFFFFFFFFFFFFFFFFFFFFFFFFFFFFFFFF DUP3 AND SWAP1 POP SWAP2 SWAP1 POP JUMP JUMPDEST PUSH0 PUSH2 0x3DD DUP3 PUSH2 0x3B4 JUMP JUMPDEST SWAP1 POP SWAP2 SWAP1 POP JUMP JUMPDEST PUSH2 0x3ED DUP2 PUSH2 0x3D3 JUMP JUMPDEST DUP2 EQ PUSH2 0x3F7 JUMPI PUSH0 PUSH0 REVERT JUMPDEST POP JUMP JUMPDEST PUSH0 DUP2 CALLDATALOAD SWAP1 POP PUSH2 0x408 DUP2 PUSH2 0x3E4 JUMP JUMPDEST SWAP3 SWAP2 POP POP JUMP JUMPDEST PUSH0 PUSH1 0x20 DUP3 DUP5 SUB SLT ISZERO PUSH2 0x423 JUMPI PUSH2 0x422 PUSH2 0x3B0 JUMP JUMPDEST JUMPDEST PUSH0 PUSH2 0x430 DUP5 DUP3 DUP6 ADD PUSH2 0x3FA JUMP JUMPDEST SWAP2 POP POP SWAP3 SWAP2 POP POP JUMP JUMPDEST PUSH0 DUP2 SWAP1 POP SWAP2 SWAP1 POP JUMP JUMPDEST PUSH2 0x44B DUP2 PUSH2 0x439 JUMP JUMPDEST DUP3 MSTORE POP POP JUMP JUMPDEST PUSH0 PUSH1 0x20 DUP3 ADD SWAP1 POP PUSH2 0x464 PUSH0 DUP4 ADD DUP5 PUSH2 0x442 JUMP JUMPDEST SWAP3 SWAP2 POP POP JUMP JUMPDEST PUSH2 0x473 DUP2 PUSH2 0x439 JUMP JUMPDEST DUP2 EQ PUSH2 0x47D JUMPI PUSH0 PUSH0 REVERT JUMPDEST POP JUMP JUMPDEST PUSH0 DUP2 CALLDATALOAD SWAP1 POP PUSH2 0x48E DUP2 PUSH2 0x46A JUMP JUMPDEST SWAP3 SWAP2 POP POP JUMP JUMPDEST PUSH0 PUSH0 PUSH1 0x40 DUP4 DUP6 SUB SLT ISZERO PUSH2 0x4AA JUMPI PUSH2 0x4A9 PUSH2 0x3B0 JUMP JUMPDEST JUMPDEST PUSH0 PUSH2 0x4B7 DUP6 DUP3 DUP7 ADD PUSH2 0x3FA JUMP JUMPDEST SWAP3 POP POP PUSH1 0x20 PUSH2 0x4C8 DUP6 DUP3 DUP7 ADD PUSH2 0x480 JUMP JUMPDEST SWAP2 POP POP SWAP3 POP SWAP3 SWAP1 POP JUMP JUMPDEST PUSH0 DUP3 DUP3 MSTORE PUSH1 0x20 DUP3 ADD SWAP1 POP SWAP3 SWAP2 POP POP JUMP JUMPDEST PUSH32 0x4E6F207265776172647321000000000000000000000000000000000000000000 PUSH0 DUP3 ADD MSTORE POP JUMP JUMPDEST PUSH0 PUSH2 0x516 PUSH1 0xB DUP4 PUSH2 0x4D2 JUMP JUMPDEST SWAP2 POP PUSH2 0x521 DUP3 PUSH2 0x4E2 JUMP JUMPDEST PUSH1 0x20 DUP3 ADD SWAP1 POP SWAP2 SWAP1 POP JUMP JUMPDEST PUSH0 PUSH1 0x20 DUP3 ADD SWAP1 POP DUP2 DUP2 SUB PUSH0 DUP4 ADD MSTORE PUSH2 0x543 DUP2 PUSH2 0x50A JUMP JUMPDEST SWAP1 POP SWAP2 SWAP1 POP JUMP JUMPDEST PUSH32 0x4578706972656421000000000000000000000000000000000000000000000000 PUSH0 DUP3 ADD MSTORE POP JUMP JUMPDEST PUSH0 PUSH2 0x57E PUSH1 0x8 DUP4 PUSH2 0x4D2 JUMP JUMPDEST SWAP2 POP PUSH2 0x589 DUP3 PUSH2 0x54A JUMP JUMPDEST PUSH1 0x20 DUP3 ADD SWAP1 POP SWAP2 SWAP1 POP JUMP JUMPDEST PUSH0 PUSH1 0x20 DUP3 ADD SWAP1 POP DUP2 DUP2 SUB PUSH0 DUP4 ADD MSTORE PUSH2 0x5AB DUP2 PUSH2 0x572 JUMP JUMPDEST SWAP1 POP SWAP2 SWAP1 POP JUMP JUMPDEST PUSH0 DUP2 SWAP1 POP SWAP3 SWAP2 POP POP JUMP JUMPDEST POP JUMP JUMPDEST PUSH0 PUSH2 0x5CA PUSH0 DUP4 PUSH2 0x5B2 JUMP JUMPDEST SWAP2 POP PUSH2 0x5D5 DUP3 PUSH2 0x5BC JUMP JUMPDEST PUSH0 DUP3 ADD SWAP1 POP SWAP2 SWAP1 POP JUMP JUMPDEST PUSH0 PUSH2 0x5E9 DUP3 PUSH2 0x5BF JUMP JUMPDEST SWAP2 POP DUP2 SWAP1 POP SWAP2 SWAP1 POP JUMP JUMPDEST PUSH32 0x5472616E73616374696F6E206661696C65642100000000000000000000000000 PUSH0 DUP3 ADD MSTORE POP JUMP JUMPDEST PUSH0 PUSH2 0x627 PUSH1 0x13 DUP4 PUSH2 0x4D2 JUMP JUMPDEST SWAP2 POP PUSH2 0x632 DUP3 PUSH2 0x5F3 JUMP JUMPDEST PUSH1 0x20 DUP3 ADD SWAP1 POP SWAP2 SWAP1 POP JUMP JUMPDEST PUSH0 PUSH1 0x20 DUP3 ADD SWAP1 POP DUP2 DUP2 SUB PUSH0 DUP4 ADD MSTORE PUSH2 0x654 DUP2 PUSH2 0x61B JUMP JUMPDEST SWAP1 POP SWAP2 SWAP1 POP JUMP JUMPDEST PUSH32 0x4E487B7100000000000000000000000000000000000000000000000000000000 PUSH0 MSTORE PUSH1 0x11 PUSH1 0x4 MSTORE PUSH1 0x24 PUSH0 REVERT JUMPDEST PUSH0 PUSH2 0x692 DUP3 PUSH2 0x439 JUMP JUMPDEST SWAP2 POP PUSH2 0x69D DUP4 PUSH2 0x439 JUMP JUMPDEST SWAP3 POP DUP3 DUP3 ADD SWAP1 POP DUP1 DUP3 GT ISZERO PUSH2 0x6B5 JUMPI PUSH2 0x6B4 PUSH2 0x65B JUMP JUMPDEST JUMPDEST SWAP3 SWAP2 POP POP JUMP INVALID LOG2 PUSH5 0x6970667358 0x22 SLT KECCAK256 0xB3 0x26 DUP1 0xA8 LOG2 0xAD 0xB3 SLOAD SWAP7 PUSH26 0x4DBAE1F29840190A71712C86053F29EAA7287908D5F264736F6C PUSH4 0x43000822 STOP CALLER "
				},
				"gasEstimates": {
					"creation": {
						"codeDepositCost": "355400",
						"executionCost": "391",
						"totalCost": "355791"
					},
					"external": {
						"CLAIM_PREIOD()": "325",
						"claimDeadline(address)": "2868",
						"claimReward()": "infinite",
						"rewards(address)": "2779",
						"setReward(address,uint256)": "infinite"
					}
				},
				"methodIdentifiers": {
					"CLAIM_PREIOD()": "1c061ca3",
					"claimDeadline(address)": "ee5437b7",
					"claimReward()": "b88a802f",
					"rewards(address)": "0700037d",
					"setReward(address,uint256)": "eacccaf0"
				}
			},
			"storageLayout": {
				"storage": [
					{
						"astId": 6,
						"contract": "lession8.2-Security/SafeRewardDistribution.sol:SafeRewardDistribution",
						"label": "rewards",
						"offset": 0,
						"slot": "0",
						"type": "t_mapping(t_address,t_uint256)"
					},
					{
						"astId": 10,
						"contract": "lession8.2-Security/SafeRewardDistribution.sol:SafeRewardDistribution",
						"label": "claimDeadline",
						"offset": 0,
						"slot": "1",
						"type": "t_mapping(t_address,t_uint256)"
					}
				],
				"types": {
					"t_address": {
						"encoding": "inplace",
						"label": "address",
						"numberOfBytes": "20"
					},
					"t_mapping(t_address,t_uint256)": {
						"encoding": "mapping",
						"key": "t_address",
						"label": "mapping(address => uint256)",
						"numberOfBytes": "32",
						"value": "t_uint256"
					},
					"t_uint256": {
						"encoding": "inplace",
						"label": "uint256",
						"numberOfBytes": "32"
					}
				}
			},
			"userdoc": {
				"kind": "user",
				"methods": {},
				"notice": "任务：实现安全的奖励分配合约。 要求： 1. 使⽤拉取模式 2. 避免Gas限制问题 3. 添加超时机制 4. ⽀持批量处理",
				"version": 1
			}
		}
	}
}