{
	"lession4.1-Control/VotingSystem.sol": {
		"VotingSystem": {
			"abi": [
				{
					"inputs": [],
					"stateMutability": "nonpayable",
					"type": "constructor"
				},
				{
					"anonymous": false,
					"inputs": [
						{
							"indexed": true,
							"internalType": "uint256",
							"name": "pId",
							"type": "uint256"
						}
					],
					"name": "CreateProposal",
					"type": "event"
				},
				{
					"anonymous": false,
					"inputs": [
						{
							"indexed": true,
							"internalType": "address",
							"name": "user",
							"type": "address"
						},
						{
							"indexed": false,
							"internalType": "uint256",
							"name": "pId",
							"type": "uint256"
						}
					],
					"name": "UserVoted",
					"type": "event"
				},
				{
					"inputs": [],
					"name": "MAX_COUNT",
					"outputs": [
						{
							"internalType": "uint256",
							"name": "",
							"type": "uint256"
						}
					],
					"stateMutability": "view",
					"type": "function"
				},
				{
					"inputs": [
						{
							"internalType": "string[]",
							"name": "descriptions",
							"type": "string[]"
						},
						{
							"internalType": "uint256[]",
							"name": "deadlines",
							"type": "uint256[]"
						}
					],
					"name": "createProposals",
					"outputs": [],
					"stateMutability": "nonpayable",
					"type": "function"
				},
				{
					"inputs": [],
					"name": "getAll",
					"outputs": [
						{
							"internalType": "uint256[]",
							"name": "",
							"type": "uint256[]"
						}
					],
					"stateMutability": "view",
					"type": "function"
				},
				{
					"inputs": [
						{
							"internalType": "uint256",
							"name": "pId",
							"type": "uint256"
						}
					],
					"name": "getVoteInformation",
					"outputs": [
						{
							"internalType": "uint256",
							"name": "",
							"type": "uint256"
						}
					],
					"stateMutability": "view",
					"type": "function"
				},
				{
					"inputs": [],
					"name": "getWin",
					"outputs": [
						{
							"internalType": "uint256",
							"name": "",
							"type": "uint256"
						},
						{
							"internalType": "uint256",
							"name": "",
							"type": "uint256"
						}
					],
					"stateMutability": "view",
					"type": "function"
				},
				{
					"inputs": [],
					"name": "owner",
					"outputs": [
						{
							"internalType": "address",
							"name": "",
							"type": "address"
						}
					],
					"stateMutability": "view",
					"type": "function"
				},
				{
					"inputs": [
						{
							"internalType": "uint256",
							"name": "",
							"type": "uint256"
						}
					],
					"name": "pIds",
					"outputs": [
						{
							"internalType": "uint256",
							"name": "",
							"type": "uint256"
						}
					],
					"stateMutability": "view",
					"type": "function"
				},
				{
					"inputs": [],
					"name": "proposalCount",
					"outputs": [
						{
							"internalType": "uint256",
							"name": "",
							"type": "uint256"
						}
					],
					"stateMutability": "view",
					"type": "function"
				},
				{
					"inputs": [
						{
							"internalType": "uint256",
							"name": "",
							"type": "uint256"
						}
					],
					"name": "proposals",
					"outputs": [
						{
							"internalType": "string",
							"name": "description",
							"type": "string"
						},
						{
							"internalType": "uint256",
							"name": "deadline",
							"type": "uint256"
						},
						{
							"internalType": "bool",
							"name": "exisit",
							"type": "bool"
						},
						{
							"internalType": "uint256",
							"name": "voteCount",
							"type": "uint256"
						}
					],
					"stateMutability": "view",
					"type": "function"
				},
				{
					"inputs": [
						{
							"internalType": "uint256",
							"name": "pId",
							"type": "uint256"
						}
					],
					"name": "vote",
					"outputs": [],
					"stateMutability": "nonpayable",
					"type": "function"
				}
			],
			"devdoc": {
				"kind": "dev",
				"methods": {},
				"version": 1
			},
			"evm": {
				"assembly": "    /* \"lession4.1-Control/VotingSystem.sol\":306:3488  contract VotingSystem {... */\n  mstore(0x40, 0x80)\n    /* \"lession4.1-Control/VotingSystem.sol\":593:594  0 */\n  0x00\n    /* \"lession4.1-Control/VotingSystem.sol\":565:594  uint public proposalCount = 0 */\n  0x01\n  sstore\n    /* \"lession4.1-Control/VotingSystem.sol\":997:1048  constructor() {... */\n  callvalue\n  dup1\n  iszero\n  tag_1\n  jumpi\n  revert(0x00, 0x00)\ntag_1:\n  pop\n    /* \"lession4.1-Control/VotingSystem.sol\":1030:1040  msg.sender */\n  caller\n    /* \"lession4.1-Control/VotingSystem.sol\":1022:1027  owner */\n  0x00\n  0x00\n    /* \"lession4.1-Control/VotingSystem.sol\":1022:1040  owner = msg.sender */\n  0x0100\n  exp\n  dup2\n  sload\n  dup2\n  0xffffffffffffffffffffffffffffffffffffffff\n  mul\n  not\n  and\n  swap1\n  dup4\n  0xffffffffffffffffffffffffffffffffffffffff\n  and\n  mul\n  or\n  swap1\n  sstore\n  pop\n    /* \"lession4.1-Control/VotingSystem.sol\":306:3488  contract VotingSystem {... */\n  dataSize(sub_0)\n  dup1\n  dataOffset(sub_0)\n  0x00\n  codecopy\n  0x00\n  return\nstop\n\nsub_0: assembly {\n        /* \"lession4.1-Control/VotingSystem.sol\":306:3488  contract VotingSystem {... */\n      mstore(0x40, 0x80)\n      callvalue\n      dup1\n      iszero\n      tag_1\n      jumpi\n      revert(0x00, 0x00)\n    tag_1:\n      pop\n      jumpi(tag_2, lt(calldatasize, 0x04))\n      shr(0xe0, calldataload(0x00))\n      dup1\n      0x8da5cb5b\n      gt\n      tag_13\n      jumpi\n      dup1\n      0x8da5cb5b\n      eq\n      tag_8\n      jumpi\n      dup1\n      0xa95b62e3\n      eq\n      tag_9\n      jumpi\n      dup1\n      0xd39350ac\n      eq\n      tag_10\n      jumpi\n      dup1\n      0xd6d36b92\n      eq\n      tag_11\n      jumpi\n      dup1\n      0xda35c664\n      eq\n      tag_12\n      jumpi\n      jump(tag_2)\n    tag_13:\n      dup1\n      0x0121b93f\n      eq\n      tag_3\n      jumpi\n      dup1\n      0x013cf08b\n      eq\n      tag_4\n      jumpi\n      dup1\n      0x1e3f6082\n      eq\n      tag_5\n      jumpi\n      dup1\n      0x53ed5143\n      eq\n      tag_6\n      jumpi\n      dup1\n      0x77163c1d\n      eq\n      tag_7\n      jumpi\n    tag_2:\n      revert(0x00, 0x00)\n        /* \"lession4.1-Control/VotingSystem.sol\":2586:2793  function vote(uint pId) public isExist(pId) isExpired(pId) isVoted(pId) {... */\n    tag_3:\n      tag_14\n      0x04\n      dup1\n      calldatasize\n      sub\n      dup2\n      add\n      swap1\n      tag_15\n      swap2\n      swap1\n      tag_16\n      jump\t// in\n    tag_15:\n      tag_17\n      jump\t// in\n    tag_14:\n      stop\n        /* \"lession4.1-Control/VotingSystem.sol\":624:667  mapping (uint => Proposal) public proposals */\n    tag_4:\n      tag_18\n      0x04\n      dup1\n      calldatasize\n      sub\n      dup2\n      add\n      swap1\n      tag_19\n      swap2\n      swap1\n      tag_16\n      jump\t// in\n    tag_19:\n      tag_20\n      jump\t// in\n    tag_18:\n      mload(0x40)\n      tag_21\n      swap5\n      swap4\n      swap3\n      swap2\n      swap1\n      tag_22\n      jump\t// in\n    tag_21:\n      mload(0x40)\n      dup1\n      swap2\n      sub\n      swap1\n      return\n        /* \"lession4.1-Control/VotingSystem.sol\":1969:2563  function createProposals(string[] calldata descriptions,uint[] calldata deadlines) external  ... */\n    tag_5:\n      tag_23\n      0x04\n      dup1\n      calldatasize\n      sub\n      dup2\n      add\n      swap1\n      tag_24\n      swap2\n      swap1\n      tag_25\n      jump\t// in\n    tag_24:\n      tag_26\n      jump\t// in\n    tag_23:\n      stop\n        /* \"lession4.1-Control/VotingSystem.sol\":3399:3483  function getAll() public view returns (uint[] memory) {... */\n    tag_6:\n      tag_27\n      tag_28\n      jump\t// in\n    tag_27:\n      mload(0x40)\n      tag_29\n      swap2\n      swap1\n      tag_30\n      jump\t// in\n    tag_29:\n      mload(0x40)\n      dup1\n      swap2\n      sub\n      swap1\n      return\n        /* \"lession4.1-Control/VotingSystem.sol\":852:888  uint public constant MAX_COUNT = 100 */\n    tag_7:\n      tag_31\n      tag_32\n      jump\t// in\n    tag_31:\n      mload(0x40)\n      tag_33\n      swap2\n      swap1\n      tag_34\n      jump\t// in\n    tag_33:\n      mload(0x40)\n      dup1\n      swap2\n      sub\n      swap1\n      return\n        /* \"lession4.1-Control/VotingSystem.sol\":511:531  address public owner */\n    tag_8:\n      tag_35\n      tag_36\n      jump\t// in\n    tag_35:\n      mload(0x40)\n      tag_37\n      swap2\n      swap1\n      tag_38\n      jump\t// in\n    tag_37:\n      mload(0x40)\n      dup1\n      swap2\n      sub\n      swap1\n      return\n        /* \"lession4.1-Control/VotingSystem.sol\":2828:2956  function getVoteInformation(uint pId) public isExist(pId) view returns (uint) {... */\n    tag_9:\n      tag_39\n      0x04\n      dup1\n      calldatasize\n      sub\n      dup2\n      add\n      swap1\n      tag_40\n      swap2\n      swap1\n      tag_16\n      jump\t// in\n    tag_40:\n      tag_41\n      jump\t// in\n    tag_39:\n      mload(0x40)\n      tag_42\n      swap2\n      swap1\n      tag_34\n      jump\t// in\n    tag_42:\n      mload(0x40)\n      dup1\n      swap2\n      sub\n      swap1\n      return\n        /* \"lession4.1-Control/VotingSystem.sol\":674:692  uint[] public pIds */\n    tag_10:\n      tag_43\n      0x04\n      dup1\n      calldatasize\n      sub\n      dup2\n      add\n      swap1\n      tag_44\n      swap2\n      swap1\n      tag_16\n      jump\t// in\n    tag_44:\n      tag_45\n      jump\t// in\n    tag_43:\n      mload(0x40)\n      tag_46\n      swap2\n      swap1\n      tag_34\n      jump\t// in\n    tag_46:\n      mload(0x40)\n      dup1\n      swap2\n      sub\n      swap1\n      return\n        /* \"lession4.1-Control/VotingSystem.sol\":2991:3358  function getWin() public view returns (uint,uint) {... */\n    tag_11:\n      tag_47\n      tag_48\n      jump\t// in\n    tag_47:\n      mload(0x40)\n      tag_49\n      swap3\n      swap2\n      swap1\n      tag_50\n      jump\t// in\n    tag_49:\n      mload(0x40)\n      dup1\n      swap2\n      sub\n      swap1\n      return\n        /* \"lession4.1-Control/VotingSystem.sol\":565:594  uint public proposalCount = 0 */\n    tag_12:\n      tag_51\n      tag_52\n      jump\t// in\n    tag_51:\n      mload(0x40)\n      tag_53\n      swap2\n      swap1\n      tag_34\n      jump\t// in\n    tag_53:\n      mload(0x40)\n      dup1\n      swap2\n      sub\n      swap1\n      return\n        /* \"lession4.1-Control/VotingSystem.sol\":2586:2793  function vote(uint pId) public isExist(pId) isExpired(pId) isVoted(pId) {... */\n    tag_17:\n        /* \"lession4.1-Control/VotingSystem.sol\":2625:2628  pId */\n      dup1\n        /* \"lession4.1-Control/VotingSystem.sol\":1550:1563  proposalCount */\n      sload(0x01)\n        /* \"lession4.1-Control/VotingSystem.sol\":1543:1546  pId */\n      dup2\n        /* \"lession4.1-Control/VotingSystem.sol\":1543:1563  pId <= proposalCount */\n      gt\n      iszero\n        /* \"lession4.1-Control/VotingSystem.sol\":1535:1587  require(pId <= proposalCount, \"Proposal not exist!\") */\n      tag_55\n      jumpi\n      mload(0x40)\n      0x08c379a000000000000000000000000000000000000000000000000000000000\n      dup2\n      mstore\n      0x04\n      add\n      tag_56\n      swap1\n      tag_57\n      jump\t// in\n    tag_56:\n      mload(0x40)\n      dup1\n      swap2\n      sub\n      swap1\n      revert\n    tag_55:\n        /* \"lession4.1-Control/VotingSystem.sol\":2640:2643  pId */\n      dup2\n        /* \"lession4.1-Control/VotingSystem.sol\":1716:1731  block.timestamp */\n      timestamp\n        /* \"lession4.1-Control/VotingSystem.sol\":1690:1699  proposals */\n      0x02\n        /* \"lession4.1-Control/VotingSystem.sol\":1690:1704  proposals[pId] */\n      0x00\n        /* \"lession4.1-Control/VotingSystem.sol\":1700:1703  pId */\n      dup4\n        /* \"lession4.1-Control/VotingSystem.sol\":1690:1704  proposals[pId] */\n      dup2\n      mstore\n      0x20\n      add\n      swap1\n      dup2\n      mstore\n      0x20\n      add\n      0x00\n      keccak256\n        /* \"lession4.1-Control/VotingSystem.sol\":1690:1713  proposals[pId].deadline */\n      0x01\n      add\n      sload\n        /* \"lession4.1-Control/VotingSystem.sol\":1690:1731  proposals[pId].deadline > block.timestamp */\n      gt\n        /* \"lession4.1-Control/VotingSystem.sol\":1682:1756  require(proposals[pId].deadline > block.timestamp, \"Proposal is Expired!\") */\n      tag_59\n      jumpi\n      mload(0x40)\n      0x08c379a000000000000000000000000000000000000000000000000000000000\n      dup2\n      mstore\n      0x04\n      add\n      tag_60\n      swap1\n      tag_61\n      jump\t// in\n    tag_60:\n      mload(0x40)\n      dup1\n      swap2\n      sub\n      swap1\n      revert\n    tag_59:\n        /* \"lession4.1-Control/VotingSystem.sol\":2653:2656  pId */\n      dup3\n        /* \"lession4.1-Control/VotingSystem.sol\":1873:1884  proposalRes */\n      0x04\n        /* \"lession4.1-Control/VotingSystem.sol\":1873:1889  proposalRes[pid] */\n      0x00\n        /* \"lession4.1-Control/VotingSystem.sol\":1885:1888  pid */\n      dup3\n        /* \"lession4.1-Control/VotingSystem.sol\":1873:1889  proposalRes[pid] */\n      dup2\n      mstore\n      0x20\n      add\n      swap1\n      dup2\n      mstore\n      0x20\n      add\n      0x00\n      keccak256\n        /* \"lession4.1-Control/VotingSystem.sol\":1873:1901  proposalRes[pid][msg.sender] */\n      0x00\n        /* \"lession4.1-Control/VotingSystem.sol\":1890:1900  msg.sender */\n      caller\n        /* \"lession4.1-Control/VotingSystem.sol\":1873:1901  proposalRes[pid][msg.sender] */\n      0xffffffffffffffffffffffffffffffffffffffff\n      and\n      0xffffffffffffffffffffffffffffffffffffffff\n      and\n      dup2\n      mstore\n      0x20\n      add\n      swap1\n      dup2\n      mstore\n      0x20\n      add\n      0x00\n      keccak256\n      0x00\n      swap1\n      sload\n      swap1\n      0x0100\n      exp\n      swap1\n      div\n      0xff\n      and\n        /* \"lession4.1-Control/VotingSystem.sol\":1872:1901  !proposalRes[pid][msg.sender] */\n      iszero\n        /* \"lession4.1-Control/VotingSystem.sol\":1864:1920  require(!proposalRes[pid][msg.sender], \"Already voted!\") */\n      tag_63\n      jumpi\n      mload(0x40)\n      0x08c379a000000000000000000000000000000000000000000000000000000000\n      dup2\n      mstore\n      0x04\n      add\n      tag_64\n      swap1\n      tag_65\n      jump\t// in\n    tag_64:\n      mload(0x40)\n      dup1\n      swap2\n      sub\n      swap1\n      revert\n    tag_63:\n        /* \"lession4.1-Control/VotingSystem.sol\":2669:2678  proposals */\n      0x02\n        /* \"lession4.1-Control/VotingSystem.sol\":2669:2683  proposals[pId] */\n      0x00\n        /* \"lession4.1-Control/VotingSystem.sol\":2679:2682  pId */\n      dup6\n        /* \"lession4.1-Control/VotingSystem.sol\":2669:2683  proposals[pId] */\n      dup2\n      mstore\n      0x20\n      add\n      swap1\n      dup2\n      mstore\n      0x20\n      add\n      0x00\n      keccak256\n        /* \"lession4.1-Control/VotingSystem.sol\":2669:2693  proposals[pId].voteCount */\n      0x03\n      add\n      0x00\n        /* \"lession4.1-Control/VotingSystem.sol\":2669:2695  proposals[pId].voteCount++ */\n      dup2\n      sload\n      dup1\n      swap3\n      swap2\n      swap1\n      tag_67\n      swap1\n      tag_68\n      jump\t// in\n    tag_67:\n      swap2\n      swap1\n      pop\n      sstore\n      pop\n        /* \"lession4.1-Control/VotingSystem.sol\":2737:2741  true */\n      0x01\n        /* \"lession4.1-Control/VotingSystem.sol\":2706:2717  proposalRes */\n      0x04\n        /* \"lession4.1-Control/VotingSystem.sol\":2706:2722  proposalRes[pId] */\n      0x00\n        /* \"lession4.1-Control/VotingSystem.sol\":2718:2721  pId */\n      dup7\n        /* \"lession4.1-Control/VotingSystem.sol\":2706:2722  proposalRes[pId] */\n      dup2\n      mstore\n      0x20\n      add\n      swap1\n      dup2\n      mstore\n      0x20\n      add\n      0x00\n      keccak256\n        /* \"lession4.1-Control/VotingSystem.sol\":2706:2734  proposalRes[pId][msg.sender] */\n      0x00\n        /* \"lession4.1-Control/VotingSystem.sol\":2723:2733  msg.sender */\n      caller\n        /* \"lession4.1-Control/VotingSystem.sol\":2706:2734  proposalRes[pId][msg.sender] */\n      0xffffffffffffffffffffffffffffffffffffffff\n      and\n      0xffffffffffffffffffffffffffffffffffffffff\n      and\n      dup2\n      mstore\n      0x20\n      add\n      swap1\n      dup2\n      mstore\n      0x20\n      add\n      0x00\n      keccak256\n      0x00\n        /* \"lession4.1-Control/VotingSystem.sol\":2706:2741  proposalRes[pId][msg.sender] = true */\n      0x0100\n      exp\n      dup2\n      sload\n      dup2\n      0xff\n      mul\n      not\n      and\n      swap1\n      dup4\n      iszero\n      iszero\n      mul\n      or\n      swap1\n      sstore\n      pop\n        /* \"lession4.1-Control/VotingSystem.sol\":2769:2779  msg.sender */\n      caller\n        /* \"lession4.1-Control/VotingSystem.sol\":2759:2785  UserVoted(msg.sender, pId) */\n      0xffffffffffffffffffffffffffffffffffffffff\n      and\n      0xf96c2f69411bb3382b4317aa45d6825624b91ceeac9ff0d68b911356d1dcf07c\n        /* \"lession4.1-Control/VotingSystem.sol\":2781:2784  pId */\n      dup6\n        /* \"lession4.1-Control/VotingSystem.sol\":2759:2785  UserVoted(msg.sender, pId) */\n      mload(0x40)\n      tag_69\n      swap2\n      swap1\n      tag_34\n      jump\t// in\n    tag_69:\n      mload(0x40)\n      dup1\n      swap2\n      sub\n      swap1\n      log2\n        /* \"lession4.1-Control/VotingSystem.sol\":1767:1768  _ */\n      pop\n        /* \"lession4.1-Control/VotingSystem.sol\":1598:1599  _ */\n      pop\n        /* \"lession4.1-Control/VotingSystem.sol\":2586:2793  function vote(uint pId) public isExist(pId) isExpired(pId) isVoted(pId) {... */\n      pop\n      pop\n      jump\t// out\n        /* \"lession4.1-Control/VotingSystem.sol\":624:667  mapping (uint => Proposal) public proposals */\n    tag_20:\n      mstore(0x20, 0x02)\n      dup1\n      0x00\n      mstore\n      keccak256(0x00, 0x40)\n      0x00\n      swap2\n      pop\n      swap1\n      pop\n      dup1\n      0x00\n      add\n      dup1\n      sload\n      tag_70\n      swap1\n      tag_71\n      jump\t// in\n    tag_70:\n      dup1\n      0x1f\n      add\n      0x20\n      dup1\n      swap2\n      div\n      mul\n      0x20\n      add\n      mload(0x40)\n      swap1\n      dup2\n      add\n      0x40\n      mstore\n      dup1\n      swap3\n      swap2\n      swap1\n      dup2\n      dup2\n      mstore\n      0x20\n      add\n      dup3\n      dup1\n      sload\n      tag_72\n      swap1\n      tag_71\n      jump\t// in\n    tag_72:\n      dup1\n      iszero\n      tag_73\n      jumpi\n      dup1\n      0x1f\n      lt\n      tag_74\n      jumpi\n      0x0100\n      dup1\n      dup4\n      sload\n      div\n      mul\n      dup4\n      mstore\n      swap2\n      0x20\n      add\n      swap2\n      jump(tag_73)\n    tag_74:\n      dup3\n      add\n      swap2\n      swap1\n      0x00\n      mstore\n      keccak256(0x00, 0x20)\n      swap1\n    tag_75:\n      dup2\n      sload\n      dup2\n      mstore\n      swap1\n      0x01\n      add\n      swap1\n      0x20\n      add\n      dup1\n      dup4\n      gt\n      tag_75\n      jumpi\n      dup3\n      swap1\n      sub\n      0x1f\n      and\n      dup3\n      add\n      swap2\n    tag_73:\n      pop\n      pop\n      pop\n      pop\n      pop\n      swap1\n      dup1\n      0x01\n      add\n      sload\n      swap1\n      dup1\n      0x02\n      add\n      0x00\n      swap1\n      sload\n      swap1\n      0x0100\n      exp\n      swap1\n      div\n      0xff\n      and\n      swap1\n      dup1\n      0x03\n      add\n      sload\n      swap1\n      pop\n      dup5\n      jump\t// out\n        /* \"lession4.1-Control/VotingSystem.sol\":1969:2563  function createProposals(string[] calldata descriptions,uint[] calldata deadlines) external  ... */\n    tag_26:\n        /* \"lession4.1-Control/VotingSystem.sol\":2081:2093  descriptions */\n      dup4\n      dup4\n        /* \"lession4.1-Control/VotingSystem.sol\":2081:2100  descriptions.length */\n      swap1\n      pop\n        /* \"lession4.1-Control/VotingSystem.sol\":2101:2110  deadlines */\n      dup3\n      dup3\n        /* \"lession4.1-Control/VotingSystem.sol\":2101:2117  deadlines.length */\n      swap1\n      pop\n        /* \"lession4.1-Control/VotingSystem.sol\":1279:1290  deadlineLen */\n      dup1\n        /* \"lession4.1-Control/VotingSystem.sol\":1269:1275  desLen */\n      dup3\n        /* \"lession4.1-Control/VotingSystem.sol\":1269:1290  desLen == deadlineLen */\n      eq\n        /* \"lession4.1-Control/VotingSystem.sol\":1261:1338  require(desLen == deadlineLen, \"Descritions and deadlines length not match!\") */\n      tag_77\n      jumpi\n      mload(0x40)\n      0x08c379a000000000000000000000000000000000000000000000000000000000\n      dup2\n      mstore\n      0x04\n      add\n      tag_78\n      swap1\n      tag_79\n      jump\t// in\n    tag_78:\n      mload(0x40)\n      dup1\n      swap2\n      sub\n      swap1\n      revert\n    tag_77:\n        /* \"lession4.1-Control/VotingSystem.sol\":2134:2146  descriptions */\n      dup6\n      dup6\n        /* \"lession4.1-Control/VotingSystem.sol\":2134:2153  descriptions.length */\n      swap1\n      pop\n        /* \"lession4.1-Control/VotingSystem.sol\":885:888  100 */\n      0x64\n        /* \"lession4.1-Control/VotingSystem.sol\":1431:1436  limit */\n      dup1\n        /* \"lession4.1-Control/VotingSystem.sol\":1424:1427  len */\n      dup3\n        /* \"lession4.1-Control/VotingSystem.sol\":1424:1436  len <= limit */\n      gt\n      iszero\n        /* \"lession4.1-Control/VotingSystem.sol\":1416:1469  require(len <= limit, \"Exceeding the maximum limit!\") */\n      tag_81\n      jumpi\n      mload(0x40)\n      0x08c379a000000000000000000000000000000000000000000000000000000000\n      dup2\n      mstore\n      0x04\n      add\n      tag_82\n      swap1\n      tag_83\n      jump\t// in\n    tag_82:\n      mload(0x40)\n      dup1\n      swap2\n      sub\n      swap1\n      revert\n    tag_81:\n        /* \"lession4.1-Control/VotingSystem.sol\":1129:1134  owner */\n      0x00\n      0x00\n      swap1\n      sload\n      swap1\n      0x0100\n      exp\n      swap1\n      div\n      0xffffffffffffffffffffffffffffffffffffffff\n      and\n        /* \"lession4.1-Control/VotingSystem.sol\":1115:1134  msg.sender == owner */\n      0xffffffffffffffffffffffffffffffffffffffff\n      and\n        /* \"lession4.1-Control/VotingSystem.sol\":1115:1125  msg.sender */\n      caller\n        /* \"lession4.1-Control/VotingSystem.sol\":1115:1134  msg.sender == owner */\n      0xffffffffffffffffffffffffffffffffffffffff\n      and\n      eq\n        /* \"lession4.1-Control/VotingSystem.sol\":1107:1170  require(msg.sender == owner, \"Only owner can create proposal!\") */\n      tag_85\n      jumpi\n      mload(0x40)\n      0x08c379a000000000000000000000000000000000000000000000000000000000\n      dup2\n      mstore\n      0x04\n      add\n      tag_86\n      swap1\n      tag_87\n      jump\t// in\n    tag_86:\n      mload(0x40)\n      dup1\n      swap2\n      sub\n      swap1\n      revert\n    tag_85:\n        /* \"lession4.1-Control/VotingSystem.sol\":2196:2202  uint i */\n      0x00\n        /* \"lession4.1-Control/VotingSystem.sol\":2205:2206  0 */\n      0x00\n        /* \"lession4.1-Control/VotingSystem.sol\":2196:2206  uint i = 0 */\n      swap1\n      pop\n        /* \"lession4.1-Control/VotingSystem.sol\":2191:2556  for (uint i = 0; i < descriptions.length; i ++) {... */\n    tag_89:\n        /* \"lession4.1-Control/VotingSystem.sol\":2212:2224  descriptions */\n      dup9\n      dup9\n        /* \"lession4.1-Control/VotingSystem.sol\":2212:2231  descriptions.length */\n      swap1\n      pop\n        /* \"lession4.1-Control/VotingSystem.sol\":2208:2209  i */\n      dup2\n        /* \"lession4.1-Control/VotingSystem.sol\":2208:2231  i < descriptions.length */\n      lt\n        /* \"lession4.1-Control/VotingSystem.sol\":2191:2556  for (uint i = 0; i < descriptions.length; i ++) {... */\n      iszero\n      tag_90\n      jumpi\n        /* \"lession4.1-Control/VotingSystem.sol\":2254:2267  proposalCount */\n      0x01\n      0x00\n        /* \"lession4.1-Control/VotingSystem.sol\":2254:2269  proposalCount++ */\n      dup2\n      sload\n      dup1\n      swap3\n      swap2\n      swap1\n      tag_92\n      swap1\n      tag_68\n      jump\t// in\n    tag_92:\n      swap2\n      swap1\n      pop\n      sstore\n      pop\n        /* \"lession4.1-Control/VotingSystem.sol\":2311:2505  Proposal({... */\n      mload(0x40)\n      dup1\n      0x80\n      add\n      0x40\n      mstore\n      dup1\n        /* \"lession4.1-Control/VotingSystem.sol\":2352:2364  descriptions */\n      dup11\n      dup11\n        /* \"lession4.1-Control/VotingSystem.sol\":2365:2366  i */\n      dup5\n        /* \"lession4.1-Control/VotingSystem.sol\":2352:2367  descriptions[i] */\n      dup2\n      dup2\n      lt\n      tag_93\n      jumpi\n      tag_94\n      tag_95\n      jump\t// in\n    tag_94:\n    tag_93:\n      swap1\n      pop\n      0x20\n      mul\n      dup2\n      add\n      swap1\n      tag_96\n      swap2\n      swap1\n      tag_97\n      jump\t// in\n    tag_96:\n        /* \"lession4.1-Control/VotingSystem.sol\":2311:2505  Proposal({... */\n      dup1\n      dup1\n      0x1f\n      add\n      0x20\n      dup1\n      swap2\n      div\n      mul\n      0x20\n      add\n      mload(0x40)\n      swap1\n      dup2\n      add\n      0x40\n      mstore\n      dup1\n      swap4\n      swap3\n      swap2\n      swap1\n      dup2\n      dup2\n      mstore\n      0x20\n      add\n      dup4\n      dup4\n      dup1\n      dup3\n      dup5\n      calldatacopy\n      0x00\n      dup2\n      dup5\n      add\n      mstore\n      not(0x1f)\n      0x1f\n      dup3\n      add\n      and\n      swap1\n      pop\n      dup1\n      dup4\n      add\n      swap3\n      pop\n      pop\n      pop\n      pop\n      pop\n      pop\n      pop\n      dup2\n      mstore\n      0x20\n      add\n        /* \"lession4.1-Control/VotingSystem.sol\":2446:2455  deadlines */\n      dup9\n      dup9\n        /* \"lession4.1-Control/VotingSystem.sol\":2456:2457  i */\n      dup5\n        /* \"lession4.1-Control/VotingSystem.sol\":2446:2458  deadlines[i] */\n      dup2\n      dup2\n      lt\n      tag_98\n      jumpi\n      tag_99\n      tag_95\n      jump\t// in\n    tag_99:\n    tag_98:\n      swap1\n      pop\n      0x20\n      mul\n      add\n      calldataload\n        /* \"lession4.1-Control/VotingSystem.sol\":2428:2443  block.timestamp */\n      timestamp\n        /* \"lession4.1-Control/VotingSystem.sol\":2428:2458  block.timestamp + deadlines[i] */\n      tag_100\n      swap2\n      swap1\n      tag_101\n      jump\t// in\n    tag_100:\n        /* \"lession4.1-Control/VotingSystem.sol\":2311:2505  Proposal({... */\n      dup2\n      mstore\n      0x20\n      add\n        /* \"lession4.1-Control/VotingSystem.sol\":2485:2489  true */\n      0x01\n        /* \"lession4.1-Control/VotingSystem.sol\":2311:2505  Proposal({... */\n      iszero\n      iszero\n      dup2\n      mstore\n      0x20\n      add\n        /* \"lession4.1-Control/VotingSystem.sol\":2397:2398  0 */\n      0x00\n        /* \"lession4.1-Control/VotingSystem.sol\":2311:2505  Proposal({... */\n      dup2\n      mstore\n      pop\n        /* \"lession4.1-Control/VotingSystem.sol\":2284:2293  proposals */\n      0x02\n        /* \"lession4.1-Control/VotingSystem.sol\":2284:2308  proposals[proposalCount] */\n      0x00\n        /* \"lession4.1-Control/VotingSystem.sol\":2294:2307  proposalCount */\n      sload(0x01)\n        /* \"lession4.1-Control/VotingSystem.sol\":2284:2308  proposals[proposalCount] */\n      dup2\n      mstore\n      0x20\n      add\n      swap1\n      dup2\n      mstore\n      0x20\n      add\n      0x00\n      keccak256\n        /* \"lession4.1-Control/VotingSystem.sol\":2284:2505  proposals[proposalCount] = Proposal({... */\n      0x00\n      dup3\n      add\n      mload\n      dup2\n      0x00\n      add\n      swap1\n      dup2\n      tag_102\n      swap2\n      swap1\n      tag_103\n      jump\t// in\n    tag_102:\n      pop\n      0x20\n      dup3\n      add\n      mload\n      dup2\n      0x01\n      add\n      sstore\n      0x40\n      dup3\n      add\n      mload\n      dup2\n      0x02\n      add\n      exp(0x0100, 0x00)\n      dup2\n      sload\n      dup2\n      0xff\n      mul\n      not\n      and\n      swap1\n      dup4\n      iszero\n      iszero\n      mul\n      or\n      swap1\n      sstore\n      pop\n      0x60\n      dup3\n      add\n      mload\n      dup2\n      0x03\n      add\n      sstore\n      swap1\n      pop\n      pop\n        /* \"lession4.1-Control/VotingSystem.sol\":2520:2524  pIds */\n      0x03\n        /* \"lession4.1-Control/VotingSystem.sol\":2530:2543  proposalCount */\n      sload(0x01)\n        /* \"lession4.1-Control/VotingSystem.sol\":2520:2544  pIds.push(proposalCount) */\n      swap1\n      dup1\n      0x01\n      dup2\n      sload\n      add\n      dup1\n      dup3\n      sstore\n      dup1\n      swap2\n      pop\n      pop\n      0x01\n      swap1\n      sub\n      swap1\n      0x00\n      mstore\n      keccak256(0x00, 0x20)\n      add\n      0x00\n      swap1\n      swap2\n      swap1\n      swap2\n      swap1\n      swap2\n      pop\n      sstore\n        /* \"lession4.1-Control/VotingSystem.sol\":2233:2237  i ++ */\n      dup1\n      dup1\n      0x01\n      add\n      swap2\n      pop\n      pop\n        /* \"lession4.1-Control/VotingSystem.sol\":2191:2556  for (uint i = 0; i < descriptions.length; i ++) {... */\n      jump(tag_89)\n    tag_90:\n      pop\n        /* \"lession4.1-Control/VotingSystem.sol\":1349:1350  _ */\n      pop\n      pop\n        /* \"lession4.1-Control/VotingSystem.sol\":1969:2563  function createProposals(string[] calldata descriptions,uint[] calldata deadlines) external  ... */\n      pop\n      pop\n      pop\n      pop\n      pop\n      pop\n      jump\t// out\n        /* \"lession4.1-Control/VotingSystem.sol\":3399:3483  function getAll() public view returns (uint[] memory) {... */\n    tag_28:\n        /* \"lession4.1-Control/VotingSystem.sol\":3438:3451  uint[] memory */\n      0x60\n        /* \"lession4.1-Control/VotingSystem.sol\":3471:3475  pIds */\n      0x03\n        /* \"lession4.1-Control/VotingSystem.sol\":3464:3475  return pIds */\n      dup1\n      sload\n      dup1\n      0x20\n      mul\n      0x20\n      add\n      mload(0x40)\n      swap1\n      dup2\n      add\n      0x40\n      mstore\n      dup1\n      swap3\n      swap2\n      swap1\n      dup2\n      dup2\n      mstore\n      0x20\n      add\n      dup3\n      dup1\n      sload\n      dup1\n      iszero\n      tag_106\n      jumpi\n      0x20\n      mul\n      dup3\n      add\n      swap2\n      swap1\n      0x00\n      mstore\n      keccak256(0x00, 0x20)\n      swap1\n    tag_107:\n      dup2\n      sload\n      dup2\n      mstore\n      0x20\n      add\n      swap1\n      0x01\n      add\n      swap1\n      dup1\n      dup4\n      gt\n      tag_107\n      jumpi\n    tag_106:\n      pop\n      pop\n      pop\n      pop\n      pop\n      swap1\n      pop\n        /* \"lession4.1-Control/VotingSystem.sol\":3399:3483  function getAll() public view returns (uint[] memory) {... */\n      swap1\n      jump\t// out\n        /* \"lession4.1-Control/VotingSystem.sol\":852:888  uint public constant MAX_COUNT = 100 */\n    tag_32:\n        /* \"lession4.1-Control/VotingSystem.sol\":885:888  100 */\n      0x64\n        /* \"lession4.1-Control/VotingSystem.sol\":852:888  uint public constant MAX_COUNT = 100 */\n      dup2\n      jump\t// out\n        /* \"lession4.1-Control/VotingSystem.sol\":511:531  address public owner */\n    tag_36:\n      0x00\n      0x00\n      swap1\n      sload\n      swap1\n      0x0100\n      exp\n      swap1\n      div\n      0xffffffffffffffffffffffffffffffffffffffff\n      and\n      dup2\n      jump\t// out\n        /* \"lession4.1-Control/VotingSystem.sol\":2828:2956  function getVoteInformation(uint pId) public isExist(pId) view returns (uint) {... */\n    tag_41:\n        /* \"lession4.1-Control/VotingSystem.sol\":2900:2904  uint */\n      0x00\n        /* \"lession4.1-Control/VotingSystem.sol\":2881:2884  pId */\n      dup2\n        /* \"lession4.1-Control/VotingSystem.sol\":1550:1563  proposalCount */\n      sload(0x01)\n        /* \"lession4.1-Control/VotingSystem.sol\":1543:1546  pId */\n      dup2\n        /* \"lession4.1-Control/VotingSystem.sol\":1543:1563  pId <= proposalCount */\n      gt\n      iszero\n        /* \"lession4.1-Control/VotingSystem.sol\":1535:1587  require(pId <= proposalCount, \"Proposal not exist!\") */\n      tag_109\n      jumpi\n      mload(0x40)\n      0x08c379a000000000000000000000000000000000000000000000000000000000\n      dup2\n      mstore\n      0x04\n      add\n      tag_110\n      swap1\n      tag_57\n      jump\t// in\n    tag_110:\n      mload(0x40)\n      dup1\n      swap2\n      sub\n      swap1\n      revert\n    tag_109:\n        /* \"lession4.1-Control/VotingSystem.sol\":2924:2933  proposals */\n      0x02\n        /* \"lession4.1-Control/VotingSystem.sol\":2924:2938  proposals[pId] */\n      0x00\n        /* \"lession4.1-Control/VotingSystem.sol\":2934:2937  pId */\n      dup5\n        /* \"lession4.1-Control/VotingSystem.sol\":2924:2938  proposals[pId] */\n      dup2\n      mstore\n      0x20\n      add\n      swap1\n      dup2\n      mstore\n      0x20\n      add\n      0x00\n      keccak256\n        /* \"lession4.1-Control/VotingSystem.sol\":2924:2948  proposals[pId].voteCount */\n      0x03\n      add\n      sload\n        /* \"lession4.1-Control/VotingSystem.sol\":2917:2948  return proposals[pId].voteCount */\n      swap2\n      pop\n        /* \"lession4.1-Control/VotingSystem.sol\":2828:2956  function getVoteInformation(uint pId) public isExist(pId) view returns (uint) {... */\n      pop\n      swap2\n      swap1\n      pop\n      jump\t// out\n        /* \"lession4.1-Control/VotingSystem.sol\":674:692  uint[] public pIds */\n    tag_45:\n      0x03\n      dup2\n      dup2\n      sload\n      dup2\n      lt\n      tag_112\n      jumpi\n      0x00\n      dup1\n      revert\n    tag_112:\n      swap1\n      0x00\n      mstore\n      keccak256(0x00, 0x20)\n      add\n      0x00\n      swap2\n      pop\n      swap1\n      pop\n      sload\n      dup2\n      jump\t// out\n        /* \"lession4.1-Control/VotingSystem.sol\":2991:3358  function getWin() public view returns (uint,uint) {... */\n    tag_48:\n        /* \"lession4.1-Control/VotingSystem.sol\":3030:3034  uint */\n      0x00\n        /* \"lession4.1-Control/VotingSystem.sol\":3035:3039  uint */\n      0x00\n        /* \"lession4.1-Control/VotingSystem.sol\":3052:3065  uint maxCount */\n      0x00\n        /* \"lession4.1-Control/VotingSystem.sol\":3068:3069  0 */\n      0x00\n        /* \"lession4.1-Control/VotingSystem.sol\":3052:3069  uint maxCount = 0 */\n      swap1\n      pop\n        /* \"lession4.1-Control/VotingSystem.sol\":3080:3090  uint index */\n      0x00\n        /* \"lession4.1-Control/VotingSystem.sol\":3093:3094  0 */\n      0x00\n        /* \"lession4.1-Control/VotingSystem.sol\":3080:3094  uint index = 0 */\n      swap1\n      pop\n        /* \"lession4.1-Control/VotingSystem.sol\":3110:3116  uint i */\n      0x00\n        /* \"lession4.1-Control/VotingSystem.sol\":3119:3120  1 */\n      0x01\n        /* \"lession4.1-Control/VotingSystem.sol\":3110:3120  uint i = 1 */\n      swap1\n      pop\n        /* \"lession4.1-Control/VotingSystem.sol\":3105:3317  for (uint i = 1; i < proposalCount; i++) ... */\n    tag_115:\n        /* \"lession4.1-Control/VotingSystem.sol\":3126:3139  proposalCount */\n      sload(0x01)\n        /* \"lession4.1-Control/VotingSystem.sol\":3122:3123  i */\n      dup2\n        /* \"lession4.1-Control/VotingSystem.sol\":3122:3139  i < proposalCount */\n      lt\n        /* \"lession4.1-Control/VotingSystem.sol\":3105:3317  for (uint i = 1; i < proposalCount; i++) ... */\n      iszero\n      tag_116\n      jumpi\n        /* \"lession4.1-Control/VotingSystem.sol\":3186:3195  proposals */\n      0x02\n        /* \"lession4.1-Control/VotingSystem.sol\":3186:3198  proposals[i] */\n      0x00\n        /* \"lession4.1-Control/VotingSystem.sol\":3196:3197  i */\n      dup3\n        /* \"lession4.1-Control/VotingSystem.sol\":3186:3198  proposals[i] */\n      dup2\n      mstore\n      0x20\n      add\n      swap1\n      dup2\n      mstore\n      0x20\n      add\n      0x00\n      keccak256\n        /* \"lession4.1-Control/VotingSystem.sol\":3186:3208  proposals[i].voteCount */\n      0x03\n      add\n      sload\n        /* \"lession4.1-Control/VotingSystem.sol\":3175:3183  maxCount */\n      dup4\n        /* \"lession4.1-Control/VotingSystem.sol\":3175:3208  maxCount < proposals[i].voteCount */\n      lt\n        /* \"lession4.1-Control/VotingSystem.sol\":3171:3306  if (maxCount < proposals[i].voteCount) {... */\n      iszero\n      tag_118\n      jumpi\n        /* \"lession4.1-Control/VotingSystem.sol\":3240:3249  proposals */\n      0x02\n        /* \"lession4.1-Control/VotingSystem.sol\":3240:3252  proposals[i] */\n      0x00\n        /* \"lession4.1-Control/VotingSystem.sol\":3250:3251  i */\n      dup3\n        /* \"lession4.1-Control/VotingSystem.sol\":3240:3252  proposals[i] */\n      dup2\n      mstore\n      0x20\n      add\n      swap1\n      dup2\n      mstore\n      0x20\n      add\n      0x00\n      keccak256\n        /* \"lession4.1-Control/VotingSystem.sol\":3240:3262  proposals[i].voteCount */\n      0x03\n      add\n      sload\n        /* \"lession4.1-Control/VotingSystem.sol\":3229:3262  maxCount = proposals[i].voteCount */\n      swap3\n      pop\n        /* \"lession4.1-Control/VotingSystem.sol\":3289:3290  i */\n      dup1\n        /* \"lession4.1-Control/VotingSystem.sol\":3281:3290  index = i */\n      swap2\n      pop\n        /* \"lession4.1-Control/VotingSystem.sol\":3171:3306  if (maxCount < proposals[i].voteCount) {... */\n    tag_118:\n        /* \"lession4.1-Control/VotingSystem.sol\":3141:3144  i++ */\n      dup1\n      dup1\n      0x01\n      add\n      swap2\n      pop\n      pop\n        /* \"lession4.1-Control/VotingSystem.sol\":3105:3317  for (uint i = 1; i < proposalCount; i++) ... */\n      jump(tag_115)\n    tag_116:\n      pop\n        /* \"lession4.1-Control/VotingSystem.sol\":3335:3340  index */\n      dup1\n        /* \"lession4.1-Control/VotingSystem.sol\":3341:3349  maxCount */\n      dup3\n        /* \"lession4.1-Control/VotingSystem.sol\":3327:3350  return (index,maxCount) */\n      swap4\n      pop\n      swap4\n      pop\n      pop\n      pop\n        /* \"lession4.1-Control/VotingSystem.sol\":2991:3358  function getWin() public view returns (uint,uint) {... */\n      swap1\n      swap2\n      jump\t// out\n        /* \"lession4.1-Control/VotingSystem.sol\":565:594  uint public proposalCount = 0 */\n    tag_52:\n      sload(0x01)\n      dup2\n      jump\t// out\n        /* \"#utility.yul\":88:205   */\n    tag_120:\n        /* \"#utility.yul\":197:198   */\n      0x00\n        /* \"#utility.yul\":194:195   */\n      0x00\n        /* \"#utility.yul\":187:199   */\n      revert\n        /* \"#utility.yul\":211:328   */\n    tag_121:\n        /* \"#utility.yul\":320:321   */\n      0x00\n        /* \"#utility.yul\":317:318   */\n      0x00\n        /* \"#utility.yul\":310:322   */\n      revert\n        /* \"#utility.yul\":334:411   */\n    tag_122:\n        /* \"#utility.yul\":371:378   */\n      0x00\n        /* \"#utility.yul\":400:405   */\n      dup2\n        /* \"#utility.yul\":389:405   */\n      swap1\n      pop\n        /* \"#utility.yul\":334:411   */\n      swap2\n      swap1\n      pop\n      jump\t// out\n        /* \"#utility.yul\":417:539   */\n    tag_123:\n        /* \"#utility.yul\":490:514   */\n      tag_187\n        /* \"#utility.yul\":508:513   */\n      dup2\n        /* \"#utility.yul\":490:514   */\n      tag_122\n      jump\t// in\n    tag_187:\n        /* \"#utility.yul\":483:488   */\n      dup2\n        /* \"#utility.yul\":480:515   */\n      eq\n        /* \"#utility.yul\":470:533   */\n      tag_188\n      jumpi\n        /* \"#utility.yul\":529:530   */\n      0x00\n        /* \"#utility.yul\":526:527   */\n      0x00\n        /* \"#utility.yul\":519:531   */\n      revert\n        /* \"#utility.yul\":470:533   */\n    tag_188:\n        /* \"#utility.yul\":417:539   */\n      pop\n      jump\t// out\n        /* \"#utility.yul\":545:684   */\n    tag_124:\n        /* \"#utility.yul\":591:596   */\n      0x00\n        /* \"#utility.yul\":629:635   */\n      dup2\n        /* \"#utility.yul\":616:636   */\n      calldataload\n        /* \"#utility.yul\":607:636   */\n      swap1\n      pop\n        /* \"#utility.yul\":645:678   */\n      tag_190\n        /* \"#utility.yul\":672:677   */\n      dup2\n        /* \"#utility.yul\":645:678   */\n      tag_123\n      jump\t// in\n    tag_190:\n        /* \"#utility.yul\":545:684   */\n      swap3\n      swap2\n      pop\n      pop\n      jump\t// out\n        /* \"#utility.yul\":690:1019   */\n    tag_16:\n        /* \"#utility.yul\":749:755   */\n      0x00\n        /* \"#utility.yul\":798:800   */\n      0x20\n        /* \"#utility.yul\":786:795   */\n      dup3\n        /* \"#utility.yul\":777:784   */\n      dup5\n        /* \"#utility.yul\":773:796   */\n      sub\n        /* \"#utility.yul\":769:801   */\n      slt\n        /* \"#utility.yul\":766:885   */\n      iszero\n      tag_192\n      jumpi\n        /* \"#utility.yul\":804:883   */\n      tag_193\n      tag_120\n      jump\t// in\n    tag_193:\n        /* \"#utility.yul\":766:885   */\n    tag_192:\n        /* \"#utility.yul\":924:925   */\n      0x00\n        /* \"#utility.yul\":949:1002   */\n      tag_194\n        /* \"#utility.yul\":994:1001   */\n      dup5\n        /* \"#utility.yul\":985:991   */\n      dup3\n        /* \"#utility.yul\":974:983   */\n      dup6\n        /* \"#utility.yul\":970:992   */\n      add\n        /* \"#utility.yul\":949:1002   */\n      tag_124\n      jump\t// in\n    tag_194:\n        /* \"#utility.yul\":939:1002   */\n      swap2\n      pop\n        /* \"#utility.yul\":895:1012   */\n      pop\n        /* \"#utility.yul\":690:1019   */\n      swap3\n      swap2\n      pop\n      pop\n      jump\t// out\n        /* \"#utility.yul\":1025:1124   */\n    tag_125:\n        /* \"#utility.yul\":1077:1083   */\n      0x00\n        /* \"#utility.yul\":1111:1116   */\n      dup2\n        /* \"#utility.yul\":1105:1117   */\n      mload\n        /* \"#utility.yul\":1095:1117   */\n      swap1\n      pop\n        /* \"#utility.yul\":1025:1124   */\n      swap2\n      swap1\n      pop\n      jump\t// out\n        /* \"#utility.yul\":1130:1299   */\n    tag_126:\n        /* \"#utility.yul\":1214:1225   */\n      0x00\n        /* \"#utility.yul\":1248:1254   */\n      dup3\n        /* \"#utility.yul\":1243:1246   */\n      dup3\n        /* \"#utility.yul\":1236:1255   */\n      mstore\n        /* \"#utility.yul\":1288:1292   */\n      0x20\n        /* \"#utility.yul\":1283:1286   */\n      dup3\n        /* \"#utility.yul\":1279:1293   */\n      add\n        /* \"#utility.yul\":1264:1293   */\n      swap1\n      pop\n        /* \"#utility.yul\":1130:1299   */\n      swap3\n      swap2\n      pop\n      pop\n      jump\t// out\n        /* \"#utility.yul\":1305:1444   */\n    tag_127:\n        /* \"#utility.yul\":1394:1400   */\n      dup3\n        /* \"#utility.yul\":1389:1392   */\n      dup2\n        /* \"#utility.yul\":1384:1387   */\n      dup4\n        /* \"#utility.yul\":1378:1401   */\n      mcopy\n        /* \"#utility.yul\":1435:1436   */\n      0x00\n        /* \"#utility.yul\":1426:1432   */\n      dup4\n        /* \"#utility.yul\":1421:1424   */\n      dup4\n        /* \"#utility.yul\":1417:1433   */\n      add\n        /* \"#utility.yul\":1410:1437   */\n      mstore\n        /* \"#utility.yul\":1305:1444   */\n      pop\n      pop\n      pop\n      jump\t// out\n        /* \"#utility.yul\":1450:1552   */\n    tag_128:\n        /* \"#utility.yul\":1491:1497   */\n      0x00\n        /* \"#utility.yul\":1542:1544   */\n      0x1f\n        /* \"#utility.yul\":1538:1545   */\n      not\n        /* \"#utility.yul\":1533:1535   */\n      0x1f\n        /* \"#utility.yul\":1526:1531   */\n      dup4\n        /* \"#utility.yul\":1522:1536   */\n      add\n        /* \"#utility.yul\":1518:1546   */\n      and\n        /* \"#utility.yul\":1508:1546   */\n      swap1\n      pop\n        /* \"#utility.yul\":1450:1552   */\n      swap2\n      swap1\n      pop\n      jump\t// out\n        /* \"#utility.yul\":1558:1935   */\n    tag_129:\n        /* \"#utility.yul\":1646:1649   */\n      0x00\n        /* \"#utility.yul\":1674:1713   */\n      tag_200\n        /* \"#utility.yul\":1707:1712   */\n      dup3\n        /* \"#utility.yul\":1674:1713   */\n      tag_125\n      jump\t// in\n    tag_200:\n        /* \"#utility.yul\":1729:1800   */\n      tag_201\n        /* \"#utility.yul\":1793:1799   */\n      dup2\n        /* \"#utility.yul\":1788:1791   */\n      dup6\n        /* \"#utility.yul\":1729:1800   */\n      tag_126\n      jump\t// in\n    tag_201:\n        /* \"#utility.yul\":1722:1800   */\n      swap4\n      pop\n        /* \"#utility.yul\":1809:1874   */\n      tag_202\n        /* \"#utility.yul\":1867:1873   */\n      dup2\n        /* \"#utility.yul\":1862:1865   */\n      dup6\n        /* \"#utility.yul\":1855:1859   */\n      0x20\n        /* \"#utility.yul\":1848:1853   */\n      dup7\n        /* \"#utility.yul\":1844:1860   */\n      add\n        /* \"#utility.yul\":1809:1874   */\n      tag_127\n      jump\t// in\n    tag_202:\n        /* \"#utility.yul\":1899:1928   */\n      tag_203\n        /* \"#utility.yul\":1921:1927   */\n      dup2\n        /* \"#utility.yul\":1899:1928   */\n      tag_128\n      jump\t// in\n    tag_203:\n        /* \"#utility.yul\":1894:1897   */\n      dup5\n        /* \"#utility.yul\":1890:1929   */\n      add\n        /* \"#utility.yul\":1883:1929   */\n      swap2\n      pop\n        /* \"#utility.yul\":1650:1935   */\n      pop\n        /* \"#utility.yul\":1558:1935   */\n      swap3\n      swap2\n      pop\n      pop\n      jump\t// out\n        /* \"#utility.yul\":1941:2059   */\n    tag_130:\n        /* \"#utility.yul\":2028:2052   */\n      tag_205\n        /* \"#utility.yul\":2046:2051   */\n      dup2\n        /* \"#utility.yul\":2028:2052   */\n      tag_122\n      jump\t// in\n    tag_205:\n        /* \"#utility.yul\":2023:2026   */\n      dup3\n        /* \"#utility.yul\":2016:2053   */\n      mstore\n        /* \"#utility.yul\":1941:2059   */\n      pop\n      pop\n      jump\t// out\n        /* \"#utility.yul\":2065:2155   */\n    tag_131:\n        /* \"#utility.yul\":2099:2106   */\n      0x00\n        /* \"#utility.yul\":2142:2147   */\n      dup2\n        /* \"#utility.yul\":2135:2148   */\n      iszero\n        /* \"#utility.yul\":2128:2149   */\n      iszero\n        /* \"#utility.yul\":2117:2149   */\n      swap1\n      pop\n        /* \"#utility.yul\":2065:2155   */\n      swap2\n      swap1\n      pop\n      jump\t// out\n        /* \"#utility.yul\":2161:2270   */\n    tag_132:\n        /* \"#utility.yul\":2242:2263   */\n      tag_208\n        /* \"#utility.yul\":2257:2262   */\n      dup2\n        /* \"#utility.yul\":2242:2263   */\n      tag_131\n      jump\t// in\n    tag_208:\n        /* \"#utility.yul\":2237:2240   */\n      dup3\n        /* \"#utility.yul\":2230:2264   */\n      mstore\n        /* \"#utility.yul\":2161:2270   */\n      pop\n      pop\n      jump\t// out\n        /* \"#utility.yul\":2276:2908   */\n    tag_22:\n        /* \"#utility.yul\":2467:2471   */\n      0x00\n        /* \"#utility.yul\":2505:2508   */\n      0x80\n        /* \"#utility.yul\":2494:2503   */\n      dup3\n        /* \"#utility.yul\":2490:2509   */\n      add\n        /* \"#utility.yul\":2482:2509   */\n      swap1\n      pop\n        /* \"#utility.yul\":2555:2564   */\n      dup2\n        /* \"#utility.yul\":2549:2553   */\n      dup2\n        /* \"#utility.yul\":2545:2565   */\n      sub\n        /* \"#utility.yul\":2541:2542   */\n      0x00\n        /* \"#utility.yul\":2530:2539   */\n      dup4\n        /* \"#utility.yul\":2526:2543   */\n      add\n        /* \"#utility.yul\":2519:2566   */\n      mstore\n        /* \"#utility.yul\":2583:2661   */\n      tag_210\n        /* \"#utility.yul\":2656:2660   */\n      dup2\n        /* \"#utility.yul\":2647:2653   */\n      dup8\n        /* \"#utility.yul\":2583:2661   */\n      tag_129\n      jump\t// in\n    tag_210:\n        /* \"#utility.yul\":2575:2661   */\n      swap1\n      pop\n        /* \"#utility.yul\":2671:2743   */\n      tag_211\n        /* \"#utility.yul\":2739:2741   */\n      0x20\n        /* \"#utility.yul\":2728:2737   */\n      dup4\n        /* \"#utility.yul\":2724:2742   */\n      add\n        /* \"#utility.yul\":2715:2721   */\n      dup7\n        /* \"#utility.yul\":2671:2743   */\n      tag_130\n      jump\t// in\n    tag_211:\n        /* \"#utility.yul\":2753:2819   */\n      tag_212\n        /* \"#utility.yul\":2815:2817   */\n      0x40\n        /* \"#utility.yul\":2804:2813   */\n      dup4\n        /* \"#utility.yul\":2800:2818   */\n      add\n        /* \"#utility.yul\":2791:2797   */\n      dup6\n        /* \"#utility.yul\":2753:2819   */\n      tag_132\n      jump\t// in\n    tag_212:\n        /* \"#utility.yul\":2829:2901   */\n      tag_213\n        /* \"#utility.yul\":2897:2899   */\n      0x60\n        /* \"#utility.yul\":2886:2895   */\n      dup4\n        /* \"#utility.yul\":2882:2900   */\n      add\n        /* \"#utility.yul\":2873:2879   */\n      dup5\n        /* \"#utility.yul\":2829:2901   */\n      tag_130\n      jump\t// in\n    tag_213:\n        /* \"#utility.yul\":2276:2908   */\n      swap6\n      swap5\n      pop\n      pop\n      pop\n      pop\n      pop\n      jump\t// out\n        /* \"#utility.yul\":2914:3031   */\n    tag_133:\n        /* \"#utility.yul\":3023:3024   */\n      0x00\n        /* \"#utility.yul\":3020:3021   */\n      0x00\n        /* \"#utility.yul\":3013:3025   */\n      revert\n        /* \"#utility.yul\":3037:3154   */\n    tag_134:\n        /* \"#utility.yul\":3146:3147   */\n      0x00\n        /* \"#utility.yul\":3143:3144   */\n      0x00\n        /* \"#utility.yul\":3136:3148   */\n      revert\n        /* \"#utility.yul\":3160:3277   */\n    tag_135:\n        /* \"#utility.yul\":3269:3270   */\n      0x00\n        /* \"#utility.yul\":3266:3267   */\n      0x00\n        /* \"#utility.yul\":3259:3271   */\n      revert\n        /* \"#utility.yul\":3299:3879   */\n    tag_136:\n        /* \"#utility.yul\":3384:3392   */\n      0x00\n        /* \"#utility.yul\":3394:3400   */\n      0x00\n        /* \"#utility.yul\":3444:3447   */\n      dup4\n        /* \"#utility.yul\":3437:3441   */\n      0x1f\n        /* \"#utility.yul\":3429:3435   */\n      dup5\n        /* \"#utility.yul\":3425:3442   */\n      add\n        /* \"#utility.yul\":3421:3448   */\n      slt\n        /* \"#utility.yul\":3411:3533   */\n      tag_218\n      jumpi\n        /* \"#utility.yul\":3452:3531   */\n      tag_219\n      tag_133\n      jump\t// in\n    tag_219:\n        /* \"#utility.yul\":3411:3533   */\n    tag_218:\n        /* \"#utility.yul\":3565:3571   */\n      dup3\n        /* \"#utility.yul\":3552:3572   */\n      calldataload\n        /* \"#utility.yul\":3542:3572   */\n      swap1\n      pop\n        /* \"#utility.yul\":3595:3613   */\n      0xffffffffffffffff\n        /* \"#utility.yul\":3587:3593   */\n      dup2\n        /* \"#utility.yul\":3584:3614   */\n      gt\n        /* \"#utility.yul\":3581:3698   */\n      iszero\n      tag_220\n      jumpi\n        /* \"#utility.yul\":3617:3696   */\n      tag_221\n      tag_134\n      jump\t// in\n    tag_221:\n        /* \"#utility.yul\":3581:3698   */\n    tag_220:\n        /* \"#utility.yul\":3731:3735   */\n      0x20\n        /* \"#utility.yul\":3723:3729   */\n      dup4\n        /* \"#utility.yul\":3719:3736   */\n      add\n        /* \"#utility.yul\":3707:3736   */\n      swap2\n      pop\n        /* \"#utility.yul\":3785:3788   */\n      dup4\n        /* \"#utility.yul\":3777:3781   */\n      0x20\n        /* \"#utility.yul\":3769:3775   */\n      dup3\n        /* \"#utility.yul\":3765:3782   */\n      mul\n        /* \"#utility.yul\":3755:3763   */\n      dup4\n        /* \"#utility.yul\":3751:3783   */\n      add\n        /* \"#utility.yul\":3748:3789   */\n      gt\n        /* \"#utility.yul\":3745:3873   */\n      iszero\n      tag_222\n      jumpi\n        /* \"#utility.yul\":3792:3871   */\n      tag_223\n      tag_135\n      jump\t// in\n    tag_223:\n        /* \"#utility.yul\":3745:3873   */\n    tag_222:\n        /* \"#utility.yul\":3299:3879   */\n      swap3\n      pop\n      swap3\n      swap1\n      pop\n      jump\t// out\n        /* \"#utility.yul\":3902:4470   */\n    tag_137:\n        /* \"#utility.yul\":3975:3983   */\n      0x00\n        /* \"#utility.yul\":3985:3991   */\n      0x00\n        /* \"#utility.yul\":4035:4038   */\n      dup4\n        /* \"#utility.yul\":4028:4032   */\n      0x1f\n        /* \"#utility.yul\":4020:4026   */\n      dup5\n        /* \"#utility.yul\":4016:4033   */\n      add\n        /* \"#utility.yul\":4012:4039   */\n      slt\n        /* \"#utility.yul\":4002:4124   */\n      tag_225\n      jumpi\n        /* \"#utility.yul\":4043:4122   */\n      tag_226\n      tag_133\n      jump\t// in\n    tag_226:\n        /* \"#utility.yul\":4002:4124   */\n    tag_225:\n        /* \"#utility.yul\":4156:4162   */\n      dup3\n        /* \"#utility.yul\":4143:4163   */\n      calldataload\n        /* \"#utility.yul\":4133:4163   */\n      swap1\n      pop\n        /* \"#utility.yul\":4186:4204   */\n      0xffffffffffffffff\n        /* \"#utility.yul\":4178:4184   */\n      dup2\n        /* \"#utility.yul\":4175:4205   */\n      gt\n        /* \"#utility.yul\":4172:4289   */\n      iszero\n      tag_227\n      jumpi\n        /* \"#utility.yul\":4208:4287   */\n      tag_228\n      tag_134\n      jump\t// in\n    tag_228:\n        /* \"#utility.yul\":4172:4289   */\n    tag_227:\n        /* \"#utility.yul\":4322:4326   */\n      0x20\n        /* \"#utility.yul\":4314:4320   */\n      dup4\n        /* \"#utility.yul\":4310:4327   */\n      add\n        /* \"#utility.yul\":4298:4327   */\n      swap2\n      pop\n        /* \"#utility.yul\":4376:4379   */\n      dup4\n        /* \"#utility.yul\":4368:4372   */\n      0x20\n        /* \"#utility.yul\":4360:4366   */\n      dup3\n        /* \"#utility.yul\":4356:4373   */\n      mul\n        /* \"#utility.yul\":4346:4354   */\n      dup4\n        /* \"#utility.yul\":4342:4374   */\n      add\n        /* \"#utility.yul\":4339:4380   */\n      gt\n        /* \"#utility.yul\":4336:4464   */\n      iszero\n      tag_229\n      jumpi\n        /* \"#utility.yul\":4383:4462   */\n      tag_230\n      tag_135\n      jump\t// in\n    tag_230:\n        /* \"#utility.yul\":4336:4464   */\n    tag_229:\n        /* \"#utility.yul\":3902:4470   */\n      swap3\n      pop\n      swap3\n      swap1\n      pop\n      jump\t// out\n        /* \"#utility.yul\":4476:5434   */\n    tag_25:\n        /* \"#utility.yul\":4610:4616   */\n      0x00\n        /* \"#utility.yul\":4618:4624   */\n      0x00\n        /* \"#utility.yul\":4626:4632   */\n      0x00\n        /* \"#utility.yul\":4634:4640   */\n      0x00\n        /* \"#utility.yul\":4683:4685   */\n      0x40\n        /* \"#utility.yul\":4671:4680   */\n      dup6\n        /* \"#utility.yul\":4662:4669   */\n      dup8\n        /* \"#utility.yul\":4658:4681   */\n      sub\n        /* \"#utility.yul\":4654:4686   */\n      slt\n        /* \"#utility.yul\":4651:4770   */\n      iszero\n      tag_232\n      jumpi\n        /* \"#utility.yul\":4689:4768   */\n      tag_233\n      tag_120\n      jump\t// in\n    tag_233:\n        /* \"#utility.yul\":4651:4770   */\n    tag_232:\n        /* \"#utility.yul\":4837:4838   */\n      0x00\n        /* \"#utility.yul\":4826:4835   */\n      dup6\n        /* \"#utility.yul\":4822:4839   */\n      add\n        /* \"#utility.yul\":4809:4840   */\n      calldataload\n        /* \"#utility.yul\":4867:4885   */\n      0xffffffffffffffff\n        /* \"#utility.yul\":4859:4865   */\n      dup2\n        /* \"#utility.yul\":4856:4886   */\n      gt\n        /* \"#utility.yul\":4853:4970   */\n      iszero\n      tag_234\n      jumpi\n        /* \"#utility.yul\":4889:4968   */\n      tag_235\n      tag_121\n      jump\t// in\n    tag_235:\n        /* \"#utility.yul\":4853:4970   */\n    tag_234:\n        /* \"#utility.yul\":5002:5094   */\n      tag_236\n        /* \"#utility.yul\":5086:5093   */\n      dup8\n        /* \"#utility.yul\":5077:5083   */\n      dup3\n        /* \"#utility.yul\":5066:5075   */\n      dup9\n        /* \"#utility.yul\":5062:5084   */\n      add\n        /* \"#utility.yul\":5002:5094   */\n      tag_136\n      jump\t// in\n    tag_236:\n        /* \"#utility.yul\":4984:5094   */\n      swap5\n      pop\n      swap5\n      pop\n        /* \"#utility.yul\":4780:5104   */\n      pop\n        /* \"#utility.yul\":5171:5173   */\n      0x20\n        /* \"#utility.yul\":5160:5169   */\n      dup6\n        /* \"#utility.yul\":5156:5174   */\n      add\n        /* \"#utility.yul\":5143:5175   */\n      calldataload\n        /* \"#utility.yul\":5202:5220   */\n      0xffffffffffffffff\n        /* \"#utility.yul\":5194:5200   */\n      dup2\n        /* \"#utility.yul\":5191:5221   */\n      gt\n        /* \"#utility.yul\":5188:5305   */\n      iszero\n      tag_237\n      jumpi\n        /* \"#utility.yul\":5224:5303   */\n      tag_238\n      tag_121\n      jump\t// in\n    tag_238:\n        /* \"#utility.yul\":5188:5305   */\n    tag_237:\n        /* \"#utility.yul\":5337:5417   */\n      tag_239\n        /* \"#utility.yul\":5409:5416   */\n      dup8\n        /* \"#utility.yul\":5400:5406   */\n      dup3\n        /* \"#utility.yul\":5389:5398   */\n      dup9\n        /* \"#utility.yul\":5385:5407   */\n      add\n        /* \"#utility.yul\":5337:5417   */\n      tag_137\n      jump\t// in\n    tag_239:\n        /* \"#utility.yul\":5319:5417   */\n      swap3\n      pop\n      swap3\n      pop\n        /* \"#utility.yul\":5114:5427   */\n      pop\n        /* \"#utility.yul\":4476:5434   */\n      swap3\n      swap6\n      swap2\n      swap5\n      pop\n      swap3\n      pop\n      jump\t// out\n        /* \"#utility.yul\":5440:5554   */\n    tag_138:\n        /* \"#utility.yul\":5507:5513   */\n      0x00\n        /* \"#utility.yul\":5541:5546   */\n      dup2\n        /* \"#utility.yul\":5535:5547   */\n      mload\n        /* \"#utility.yul\":5525:5547   */\n      swap1\n      pop\n        /* \"#utility.yul\":5440:5554   */\n      swap2\n      swap1\n      pop\n      jump\t// out\n        /* \"#utility.yul\":5560:5744   */\n    tag_139:\n        /* \"#utility.yul\":5659:5670   */\n      0x00\n        /* \"#utility.yul\":5693:5699   */\n      dup3\n        /* \"#utility.yul\":5688:5691   */\n      dup3\n        /* \"#utility.yul\":5681:5700   */\n      mstore\n        /* \"#utility.yul\":5733:5737   */\n      0x20\n        /* \"#utility.yul\":5728:5731   */\n      dup3\n        /* \"#utility.yul\":5724:5738   */\n      add\n        /* \"#utility.yul\":5709:5738   */\n      swap1\n      pop\n        /* \"#utility.yul\":5560:5744   */\n      swap3\n      swap2\n      pop\n      pop\n      jump\t// out\n        /* \"#utility.yul\":5750:5882   */\n    tag_140:\n        /* \"#utility.yul\":5817:5821   */\n      0x00\n        /* \"#utility.yul\":5840:5843   */\n      dup2\n        /* \"#utility.yul\":5832:5843   */\n      swap1\n      pop\n        /* \"#utility.yul\":5870:5874   */\n      0x20\n        /* \"#utility.yul\":5865:5868   */\n      dup3\n        /* \"#utility.yul\":5861:5875   */\n      add\n        /* \"#utility.yul\":5853:5875   */\n      swap1\n      pop\n        /* \"#utility.yul\":5750:5882   */\n      swap2\n      swap1\n      pop\n      jump\t// out\n        /* \"#utility.yul\":5888:5996   */\n    tag_141:\n        /* \"#utility.yul\":5965:5989   */\n      tag_244\n        /* \"#utility.yul\":5983:5988   */\n      dup2\n        /* \"#utility.yul\":5965:5989   */\n      tag_122\n      jump\t// in\n    tag_244:\n        /* \"#utility.yul\":5960:5963   */\n      dup3\n        /* \"#utility.yul\":5953:5990   */\n      mstore\n        /* \"#utility.yul\":5888:5996   */\n      pop\n      pop\n      jump\t// out\n        /* \"#utility.yul\":6002:6181   */\n    tag_142:\n        /* \"#utility.yul\":6071:6081   */\n      0x00\n        /* \"#utility.yul\":6092:6138   */\n      tag_246\n        /* \"#utility.yul\":6134:6137   */\n      dup4\n        /* \"#utility.yul\":6126:6132   */\n      dup4\n        /* \"#utility.yul\":6092:6138   */\n      tag_141\n      jump\t// in\n    tag_246:\n        /* \"#utility.yul\":6170:6174   */\n      0x20\n        /* \"#utility.yul\":6165:6168   */\n      dup4\n        /* \"#utility.yul\":6161:6175   */\n      add\n        /* \"#utility.yul\":6147:6175   */\n      swap1\n      pop\n        /* \"#utility.yul\":6002:6181   */\n      swap3\n      swap2\n      pop\n      pop\n      jump\t// out\n        /* \"#utility.yul\":6187:6300   */\n    tag_143:\n        /* \"#utility.yul\":6257:6261   */\n      0x00\n        /* \"#utility.yul\":6289:6293   */\n      0x20\n        /* \"#utility.yul\":6284:6287   */\n      dup3\n        /* \"#utility.yul\":6280:6294   */\n      add\n        /* \"#utility.yul\":6272:6294   */\n      swap1\n      pop\n        /* \"#utility.yul\":6187:6300   */\n      swap2\n      swap1\n      pop\n      jump\t// out\n        /* \"#utility.yul\":6336:7068   */\n    tag_144:\n        /* \"#utility.yul\":6455:6458   */\n      0x00\n        /* \"#utility.yul\":6484:6538   */\n      tag_249\n        /* \"#utility.yul\":6532:6537   */\n      dup3\n        /* \"#utility.yul\":6484:6538   */\n      tag_138\n      jump\t// in\n    tag_249:\n        /* \"#utility.yul\":6554:6640   */\n      tag_250\n        /* \"#utility.yul\":6633:6639   */\n      dup2\n        /* \"#utility.yul\":6628:6631   */\n      dup6\n        /* \"#utility.yul\":6554:6640   */\n      tag_139\n      jump\t// in\n    tag_250:\n        /* \"#utility.yul\":6547:6640   */\n      swap4\n      pop\n        /* \"#utility.yul\":6664:6720   */\n      tag_251\n        /* \"#utility.yul\":6714:6719   */\n      dup4\n        /* \"#utility.yul\":6664:6720   */\n      tag_140\n      jump\t// in\n    tag_251:\n        /* \"#utility.yul\":6743:6750   */\n      dup1\n        /* \"#utility.yul\":6774:6775   */\n      0x00\n        /* \"#utility.yul\":6759:7043   */\n    tag_252:\n        /* \"#utility.yul\":6784:6790   */\n      dup4\n        /* \"#utility.yul\":6781:6782   */\n      dup2\n        /* \"#utility.yul\":6778:6791   */\n      lt\n        /* \"#utility.yul\":6759:7043   */\n      iszero\n      tag_254\n      jumpi\n        /* \"#utility.yul\":6860:6866   */\n      dup2\n        /* \"#utility.yul\":6854:6867   */\n      mload\n        /* \"#utility.yul\":6887:6950   */\n      tag_255\n        /* \"#utility.yul\":6946:6949   */\n      dup9\n        /* \"#utility.yul\":6931:6944   */\n      dup3\n        /* \"#utility.yul\":6887:6950   */\n      tag_142\n      jump\t// in\n    tag_255:\n        /* \"#utility.yul\":6880:6950   */\n      swap8\n      pop\n        /* \"#utility.yul\":6973:7033   */\n      tag_256\n        /* \"#utility.yul\":7026:7032   */\n      dup4\n        /* \"#utility.yul\":6973:7033   */\n      tag_143\n      jump\t// in\n    tag_256:\n        /* \"#utility.yul\":6963:7033   */\n      swap3\n      pop\n        /* \"#utility.yul\":6819:7043   */\n      pop\n        /* \"#utility.yul\":6806:6807   */\n      0x01\n        /* \"#utility.yul\":6803:6804   */\n      dup2\n        /* \"#utility.yul\":6799:6808   */\n      add\n        /* \"#utility.yul\":6794:6808   */\n      swap1\n      pop\n        /* \"#utility.yul\":6759:7043   */\n      jump(tag_252)\n    tag_254:\n        /* \"#utility.yul\":6763:6777   */\n      pop\n        /* \"#utility.yul\":7059:7062   */\n      dup6\n        /* \"#utility.yul\":7052:7062   */\n      swap4\n      pop\n        /* \"#utility.yul\":6460:7068   */\n      pop\n      pop\n      pop\n        /* \"#utility.yul\":6336:7068   */\n      swap3\n      swap2\n      pop\n      pop\n      jump\t// out\n        /* \"#utility.yul\":7074:7447   */\n    tag_30:\n        /* \"#utility.yul\":7217:7221   */\n      0x00\n        /* \"#utility.yul\":7255:7257   */\n      0x20\n        /* \"#utility.yul\":7244:7253   */\n      dup3\n        /* \"#utility.yul\":7240:7258   */\n      add\n        /* \"#utility.yul\":7232:7258   */\n      swap1\n      pop\n        /* \"#utility.yul\":7304:7313   */\n      dup2\n        /* \"#utility.yul\":7298:7302   */\n      dup2\n        /* \"#utility.yul\":7294:7314   */\n      sub\n        /* \"#utility.yul\":7290:7291   */\n      0x00\n        /* \"#utility.yul\":7279:7288   */\n      dup4\n        /* \"#utility.yul\":7275:7292   */\n      add\n        /* \"#utility.yul\":7268:7315   */\n      mstore\n        /* \"#utility.yul\":7332:7440   */\n      tag_258\n        /* \"#utility.yul\":7435:7439   */\n      dup2\n        /* \"#utility.yul\":7426:7432   */\n      dup5\n        /* \"#utility.yul\":7332:7440   */\n      tag_144\n      jump\t// in\n    tag_258:\n        /* \"#utility.yul\":7324:7440   */\n      swap1\n      pop\n        /* \"#utility.yul\":7074:7447   */\n      swap3\n      swap2\n      pop\n      pop\n      jump\t// out\n        /* \"#utility.yul\":7453:7675   */\n    tag_34:\n        /* \"#utility.yul\":7546:7550   */\n      0x00\n        /* \"#utility.yul\":7584:7586   */\n      0x20\n        /* \"#utility.yul\":7573:7582   */\n      dup3\n        /* \"#utility.yul\":7569:7587   */\n      add\n        /* \"#utility.yul\":7561:7587   */\n      swap1\n      pop\n        /* \"#utility.yul\":7597:7668   */\n      tag_260\n        /* \"#utility.yul\":7665:7666   */\n      0x00\n        /* \"#utility.yul\":7654:7663   */\n      dup4\n        /* \"#utility.yul\":7650:7667   */\n      add\n        /* \"#utility.yul\":7641:7647   */\n      dup5\n        /* \"#utility.yul\":7597:7668   */\n      tag_130\n      jump\t// in\n    tag_260:\n        /* \"#utility.yul\":7453:7675   */\n      swap3\n      swap2\n      pop\n      pop\n      jump\t// out\n        /* \"#utility.yul\":7681:7807   */\n    tag_145:\n        /* \"#utility.yul\":7718:7725   */\n      0x00\n        /* \"#utility.yul\":7758:7800   */\n      0xffffffffffffffffffffffffffffffffffffffff\n        /* \"#utility.yul\":7751:7756   */\n      dup3\n        /* \"#utility.yul\":7747:7801   */\n      and\n        /* \"#utility.yul\":7736:7801   */\n      swap1\n      pop\n        /* \"#utility.yul\":7681:7807   */\n      swap2\n      swap1\n      pop\n      jump\t// out\n        /* \"#utility.yul\":7813:7909   */\n    tag_146:\n        /* \"#utility.yul\":7850:7857   */\n      0x00\n        /* \"#utility.yul\":7879:7903   */\n      tag_263\n        /* \"#utility.yul\":7897:7902   */\n      dup3\n        /* \"#utility.yul\":7879:7903   */\n      tag_145\n      jump\t// in\n    tag_263:\n        /* \"#utility.yul\":7868:7903   */\n      swap1\n      pop\n        /* \"#utility.yul\":7813:7909   */\n      swap2\n      swap1\n      pop\n      jump\t// out\n        /* \"#utility.yul\":7915:8033   */\n    tag_147:\n        /* \"#utility.yul\":8002:8026   */\n      tag_265\n        /* \"#utility.yul\":8020:8025   */\n      dup2\n        /* \"#utility.yul\":8002:8026   */\n      tag_146\n      jump\t// in\n    tag_265:\n        /* \"#utility.yul\":7997:8000   */\n      dup3\n        /* \"#utility.yul\":7990:8027   */\n      mstore\n        /* \"#utility.yul\":7915:8033   */\n      pop\n      pop\n      jump\t// out\n        /* \"#utility.yul\":8039:8261   */\n    tag_38:\n        /* \"#utility.yul\":8132:8136   */\n      0x00\n        /* \"#utility.yul\":8170:8172   */\n      0x20\n        /* \"#utility.yul\":8159:8168   */\n      dup3\n        /* \"#utility.yul\":8155:8173   */\n      add\n        /* \"#utility.yul\":8147:8173   */\n      swap1\n      pop\n        /* \"#utility.yul\":8183:8254   */\n      tag_267\n        /* \"#utility.yul\":8251:8252   */\n      0x00\n        /* \"#utility.yul\":8240:8249   */\n      dup4\n        /* \"#utility.yul\":8236:8253   */\n      add\n        /* \"#utility.yul\":8227:8233   */\n      dup5\n        /* \"#utility.yul\":8183:8254   */\n      tag_147\n      jump\t// in\n    tag_267:\n        /* \"#utility.yul\":8039:8261   */\n      swap3\n      swap2\n      pop\n      pop\n      jump\t// out\n        /* \"#utility.yul\":8267:8599   */\n    tag_50:\n        /* \"#utility.yul\":8388:8392   */\n      0x00\n        /* \"#utility.yul\":8426:8428   */\n      0x40\n        /* \"#utility.yul\":8415:8424   */\n      dup3\n        /* \"#utility.yul\":8411:8429   */\n      add\n        /* \"#utility.yul\":8403:8429   */\n      swap1\n      pop\n        /* \"#utility.yul\":8439:8510   */\n      tag_269\n        /* \"#utility.yul\":8507:8508   */\n      0x00\n        /* \"#utility.yul\":8496:8505   */\n      dup4\n        /* \"#utility.yul\":8492:8509   */\n      add\n        /* \"#utility.yul\":8483:8489   */\n      dup6\n        /* \"#utility.yul\":8439:8510   */\n      tag_130\n      jump\t// in\n    tag_269:\n        /* \"#utility.yul\":8520:8592   */\n      tag_270\n        /* \"#utility.yul\":8588:8590   */\n      0x20\n        /* \"#utility.yul\":8577:8586   */\n      dup4\n        /* \"#utility.yul\":8573:8591   */\n      add\n        /* \"#utility.yul\":8564:8570   */\n      dup5\n        /* \"#utility.yul\":8520:8592   */\n      tag_130\n      jump\t// in\n    tag_270:\n        /* \"#utility.yul\":8267:8599   */\n      swap4\n      swap3\n      pop\n      pop\n      pop\n      jump\t// out\n        /* \"#utility.yul\":8605:8774   */\n    tag_148:\n        /* \"#utility.yul\":8745:8766   */\n      0x50726f706f73616c206e6f742065786973742100000000000000000000000000\n        /* \"#utility.yul\":8741:8742   */\n      0x00\n        /* \"#utility.yul\":8733:8739   */\n      dup3\n        /* \"#utility.yul\":8729:8743   */\n      add\n        /* \"#utility.yul\":8722:8767   */\n      mstore\n        /* \"#utility.yul\":8605:8774   */\n      pop\n      jump\t// out\n        /* \"#utility.yul\":8780:9146   */\n    tag_149:\n        /* \"#utility.yul\":8922:8925   */\n      0x00\n        /* \"#utility.yul\":8943:9010   */\n      tag_273\n        /* \"#utility.yul\":9007:9009   */\n      0x13\n        /* \"#utility.yul\":9002:9005   */\n      dup4\n        /* \"#utility.yul\":8943:9010   */\n      tag_126\n      jump\t// in\n    tag_273:\n        /* \"#utility.yul\":8936:9010   */\n      swap2\n      pop\n        /* \"#utility.yul\":9019:9112   */\n      tag_274\n        /* \"#utility.yul\":9108:9111   */\n      dup3\n        /* \"#utility.yul\":9019:9112   */\n      tag_148\n      jump\t// in\n    tag_274:\n        /* \"#utility.yul\":9137:9139   */\n      0x20\n        /* \"#utility.yul\":9132:9135   */\n      dup3\n        /* \"#utility.yul\":9128:9140   */\n      add\n        /* \"#utility.yul\":9121:9140   */\n      swap1\n      pop\n        /* \"#utility.yul\":8780:9146   */\n      swap2\n      swap1\n      pop\n      jump\t// out\n        /* \"#utility.yul\":9152:9571   */\n    tag_57:\n        /* \"#utility.yul\":9318:9322   */\n      0x00\n        /* \"#utility.yul\":9356:9358   */\n      0x20\n        /* \"#utility.yul\":9345:9354   */\n      dup3\n        /* \"#utility.yul\":9341:9359   */\n      add\n        /* \"#utility.yul\":9333:9359   */\n      swap1\n      pop\n        /* \"#utility.yul\":9405:9414   */\n      dup2\n        /* \"#utility.yul\":9399:9403   */\n      dup2\n        /* \"#utility.yul\":9395:9415   */\n      sub\n        /* \"#utility.yul\":9391:9392   */\n      0x00\n        /* \"#utility.yul\":9380:9389   */\n      dup4\n        /* \"#utility.yul\":9376:9393   */\n      add\n        /* \"#utility.yul\":9369:9416   */\n      mstore\n        /* \"#utility.yul\":9433:9564   */\n      tag_276\n        /* \"#utility.yul\":9559:9563   */\n      dup2\n        /* \"#utility.yul\":9433:9564   */\n      tag_149\n      jump\t// in\n    tag_276:\n        /* \"#utility.yul\":9425:9564   */\n      swap1\n      pop\n        /* \"#utility.yul\":9152:9571   */\n      swap2\n      swap1\n      pop\n      jump\t// out\n        /* \"#utility.yul\":9577:9747   */\n    tag_150:\n        /* \"#utility.yul\":9717:9739   */\n      0x50726f706f73616c206973204578706972656421000000000000000000000000\n        /* \"#utility.yul\":9713:9714   */\n      0x00\n        /* \"#utility.yul\":9705:9711   */\n      dup3\n        /* \"#utility.yul\":9701:9715   */\n      add\n        /* \"#utility.yul\":9694:9740   */\n      mstore\n        /* \"#utility.yul\":9577:9747   */\n      pop\n      jump\t// out\n        /* \"#utility.yul\":9753:10119   */\n    tag_151:\n        /* \"#utility.yul\":9895:9898   */\n      0x00\n        /* \"#utility.yul\":9916:9983   */\n      tag_279\n        /* \"#utility.yul\":9980:9982   */\n      0x14\n        /* \"#utility.yul\":9975:9978   */\n      dup4\n        /* \"#utility.yul\":9916:9983   */\n      tag_126\n      jump\t// in\n    tag_279:\n        /* \"#utility.yul\":9909:9983   */\n      swap2\n      pop\n        /* \"#utility.yul\":9992:10085   */\n      tag_280\n        /* \"#utility.yul\":10081:10084   */\n      dup3\n        /* \"#utility.yul\":9992:10085   */\n      tag_150\n      jump\t// in\n    tag_280:\n        /* \"#utility.yul\":10110:10112   */\n      0x20\n        /* \"#utility.yul\":10105:10108   */\n      dup3\n        /* \"#utility.yul\":10101:10113   */\n      add\n        /* \"#utility.yul\":10094:10113   */\n      swap1\n      pop\n        /* \"#utility.yul\":9753:10119   */\n      swap2\n      swap1\n      pop\n      jump\t// out\n        /* \"#utility.yul\":10125:10544   */\n    tag_61:\n        /* \"#utility.yul\":10291:10295   */\n      0x00\n        /* \"#utility.yul\":10329:10331   */\n      0x20\n        /* \"#utility.yul\":10318:10327   */\n      dup3\n        /* \"#utility.yul\":10314:10332   */\n      add\n        /* \"#utility.yul\":10306:10332   */\n      swap1\n      pop\n        /* \"#utility.yul\":10378:10387   */\n      dup2\n        /* \"#utility.yul\":10372:10376   */\n      dup2\n        /* \"#utility.yul\":10368:10388   */\n      sub\n        /* \"#utility.yul\":10364:10365   */\n      0x00\n        /* \"#utility.yul\":10353:10362   */\n      dup4\n        /* \"#utility.yul\":10349:10366   */\n      add\n        /* \"#utility.yul\":10342:10389   */\n      mstore\n        /* \"#utility.yul\":10406:10537   */\n      tag_282\n        /* \"#utility.yul\":10532:10536   */\n      dup2\n        /* \"#utility.yul\":10406:10537   */\n      tag_151\n      jump\t// in\n    tag_282:\n        /* \"#utility.yul\":10398:10537   */\n      swap1\n      pop\n        /* \"#utility.yul\":10125:10544   */\n      swap2\n      swap1\n      pop\n      jump\t// out\n        /* \"#utility.yul\":10550:10714   */\n    tag_152:\n        /* \"#utility.yul\":10690:10706   */\n      0x416c726561647920766f74656421000000000000000000000000000000000000\n        /* \"#utility.yul\":10686:10687   */\n      0x00\n        /* \"#utility.yul\":10678:10684   */\n      dup3\n        /* \"#utility.yul\":10674:10688   */\n      add\n        /* \"#utility.yul\":10667:10707   */\n      mstore\n        /* \"#utility.yul\":10550:10714   */\n      pop\n      jump\t// out\n        /* \"#utility.yul\":10720:11086   */\n    tag_153:\n        /* \"#utility.yul\":10862:10865   */\n      0x00\n        /* \"#utility.yul\":10883:10950   */\n      tag_285\n        /* \"#utility.yul\":10947:10949   */\n      0x0e\n        /* \"#utility.yul\":10942:10945   */\n      dup4\n        /* \"#utility.yul\":10883:10950   */\n      tag_126\n      jump\t// in\n    tag_285:\n        /* \"#utility.yul\":10876:10950   */\n      swap2\n      pop\n        /* \"#utility.yul\":10959:11052   */\n      tag_286\n        /* \"#utility.yul\":11048:11051   */\n      dup3\n        /* \"#utility.yul\":10959:11052   */\n      tag_152\n      jump\t// in\n    tag_286:\n        /* \"#utility.yul\":11077:11079   */\n      0x20\n        /* \"#utility.yul\":11072:11075   */\n      dup3\n        /* \"#utility.yul\":11068:11080   */\n      add\n        /* \"#utility.yul\":11061:11080   */\n      swap1\n      pop\n        /* \"#utility.yul\":10720:11086   */\n      swap2\n      swap1\n      pop\n      jump\t// out\n        /* \"#utility.yul\":11092:11511   */\n    tag_65:\n        /* \"#utility.yul\":11258:11262   */\n      0x00\n        /* \"#utility.yul\":11296:11298   */\n      0x20\n        /* \"#utility.yul\":11285:11294   */\n      dup3\n        /* \"#utility.yul\":11281:11299   */\n      add\n        /* \"#utility.yul\":11273:11299   */\n      swap1\n      pop\n        /* \"#utility.yul\":11345:11354   */\n      dup2\n        /* \"#utility.yul\":11339:11343   */\n      dup2\n        /* \"#utility.yul\":11335:11355   */\n      sub\n        /* \"#utility.yul\":11331:11332   */\n      0x00\n        /* \"#utility.yul\":11320:11329   */\n      dup4\n        /* \"#utility.yul\":11316:11333   */\n      add\n        /* \"#utility.yul\":11309:11356   */\n      mstore\n        /* \"#utility.yul\":11373:11504   */\n      tag_288\n        /* \"#utility.yul\":11499:11503   */\n      dup2\n        /* \"#utility.yul\":11373:11504   */\n      tag_153\n      jump\t// in\n    tag_288:\n        /* \"#utility.yul\":11365:11504   */\n      swap1\n      pop\n        /* \"#utility.yul\":11092:11511   */\n      swap2\n      swap1\n      pop\n      jump\t// out\n        /* \"#utility.yul\":11517:11697   */\n    tag_154:\n        /* \"#utility.yul\":11565:11642   */\n      0x4e487b7100000000000000000000000000000000000000000000000000000000\n        /* \"#utility.yul\":11562:11563   */\n      0x00\n        /* \"#utility.yul\":11555:11643   */\n      mstore\n        /* \"#utility.yul\":11662:11666   */\n      0x11\n        /* \"#utility.yul\":11659:11660   */\n      0x04\n        /* \"#utility.yul\":11652:11667   */\n      mstore\n        /* \"#utility.yul\":11686:11690   */\n      0x24\n        /* \"#utility.yul\":11683:11684   */\n      0x00\n        /* \"#utility.yul\":11676:11691   */\n      revert\n        /* \"#utility.yul\":11703:11936   */\n    tag_68:\n        /* \"#utility.yul\":11742:11745   */\n      0x00\n        /* \"#utility.yul\":11765:11789   */\n      tag_291\n        /* \"#utility.yul\":11783:11788   */\n      dup3\n        /* \"#utility.yul\":11765:11789   */\n      tag_122\n      jump\t// in\n    tag_291:\n        /* \"#utility.yul\":11756:11789   */\n      swap2\n      pop\n        /* \"#utility.yul\":11811:11877   */\n      0xffffffffffffffffffffffffffffffffffffffffffffffffffffffffffffffff\n        /* \"#utility.yul\":11804:11809   */\n      dup3\n        /* \"#utility.yul\":11801:11878   */\n      sub\n        /* \"#utility.yul\":11798:11901   */\n      tag_292\n      jumpi\n        /* \"#utility.yul\":11881:11899   */\n      tag_293\n      tag_154\n      jump\t// in\n    tag_293:\n        /* \"#utility.yul\":11798:11901   */\n    tag_292:\n        /* \"#utility.yul\":11928:11929   */\n      0x01\n        /* \"#utility.yul\":11921:11926   */\n      dup3\n        /* \"#utility.yul\":11917:11930   */\n      add\n        /* \"#utility.yul\":11910:11930   */\n      swap1\n      pop\n        /* \"#utility.yul\":11703:11936   */\n      swap2\n      swap1\n      pop\n      jump\t// out\n        /* \"#utility.yul\":11942:12122   */\n    tag_155:\n        /* \"#utility.yul\":11990:12067   */\n      0x4e487b7100000000000000000000000000000000000000000000000000000000\n        /* \"#utility.yul\":11987:11988   */\n      0x00\n        /* \"#utility.yul\":11980:12068   */\n      mstore\n        /* \"#utility.yul\":12087:12091   */\n      0x22\n        /* \"#utility.yul\":12084:12085   */\n      0x04\n        /* \"#utility.yul\":12077:12092   */\n      mstore\n        /* \"#utility.yul\":12111:12115   */\n      0x24\n        /* \"#utility.yul\":12108:12109   */\n      0x00\n        /* \"#utility.yul\":12101:12116   */\n      revert\n        /* \"#utility.yul\":12128:12448   */\n    tag_71:\n        /* \"#utility.yul\":12172:12178   */\n      0x00\n        /* \"#utility.yul\":12209:12210   */\n      0x02\n        /* \"#utility.yul\":12203:12207   */\n      dup3\n        /* \"#utility.yul\":12199:12211   */\n      div\n        /* \"#utility.yul\":12189:12211   */\n      swap1\n      pop\n        /* \"#utility.yul\":12256:12257   */\n      0x01\n        /* \"#utility.yul\":12250:12254   */\n      dup3\n        /* \"#utility.yul\":12246:12258   */\n      and\n        /* \"#utility.yul\":12277:12295   */\n      dup1\n        /* \"#utility.yul\":12267:12348   */\n      tag_296\n      jumpi\n        /* \"#utility.yul\":12333:12337   */\n      0x7f\n        /* \"#utility.yul\":12325:12331   */\n      dup3\n        /* \"#utility.yul\":12321:12338   */\n      and\n        /* \"#utility.yul\":12311:12338   */\n      swap2\n      pop\n        /* \"#utility.yul\":12267:12348   */\n    tag_296:\n        /* \"#utility.yul\":12395:12397   */\n      0x20\n        /* \"#utility.yul\":12387:12393   */\n      dup3\n        /* \"#utility.yul\":12384:12398   */\n      lt\n        /* \"#utility.yul\":12364:12382   */\n      dup2\n        /* \"#utility.yul\":12361:12399   */\n      sub\n        /* \"#utility.yul\":12358:12442   */\n      tag_297\n      jumpi\n        /* \"#utility.yul\":12414:12432   */\n      tag_298\n      tag_155\n      jump\t// in\n    tag_298:\n        /* \"#utility.yul\":12358:12442   */\n    tag_297:\n        /* \"#utility.yul\":12179:12448   */\n      pop\n        /* \"#utility.yul\":12128:12448   */\n      swap2\n      swap1\n      pop\n      jump\t// out\n        /* \"#utility.yul\":12454:12684   */\n    tag_156:\n        /* \"#utility.yul\":12594:12628   */\n      0x44657363726974696f6e7320616e6420646561646c696e6573206c656e677468\n        /* \"#utility.yul\":12590:12591   */\n      0x00\n        /* \"#utility.yul\":12582:12588   */\n      dup3\n        /* \"#utility.yul\":12578:12592   */\n      add\n        /* \"#utility.yul\":12571:12629   */\n      mstore\n        /* \"#utility.yul\":12663:12676   */\n      0x206e6f74206d6174636821000000000000000000000000000000000000000000\n        /* \"#utility.yul\":12658:12660   */\n      0x20\n        /* \"#utility.yul\":12650:12656   */\n      dup3\n        /* \"#utility.yul\":12646:12661   */\n      add\n        /* \"#utility.yul\":12639:12677   */\n      mstore\n        /* \"#utility.yul\":12454:12684   */\n      pop\n      jump\t// out\n        /* \"#utility.yul\":12690:13056   */\n    tag_157:\n        /* \"#utility.yul\":12832:12835   */\n      0x00\n        /* \"#utility.yul\":12853:12920   */\n      tag_301\n        /* \"#utility.yul\":12917:12919   */\n      0x2b\n        /* \"#utility.yul\":12912:12915   */\n      dup4\n        /* \"#utility.yul\":12853:12920   */\n      tag_126\n      jump\t// in\n    tag_301:\n        /* \"#utility.yul\":12846:12920   */\n      swap2\n      pop\n        /* \"#utility.yul\":12929:13022   */\n      tag_302\n        /* \"#utility.yul\":13018:13021   */\n      dup3\n        /* \"#utility.yul\":12929:13022   */\n      tag_156\n      jump\t// in\n    tag_302:\n        /* \"#utility.yul\":13047:13049   */\n      0x40\n        /* \"#utility.yul\":13042:13045   */\n      dup3\n        /* \"#utility.yul\":13038:13050   */\n      add\n        /* \"#utility.yul\":13031:13050   */\n      swap1\n      pop\n        /* \"#utility.yul\":12690:13056   */\n      swap2\n      swap1\n      pop\n      jump\t// out\n        /* \"#utility.yul\":13062:13481   */\n    tag_79:\n        /* \"#utility.yul\":13228:13232   */\n      0x00\n        /* \"#utility.yul\":13266:13268   */\n      0x20\n        /* \"#utility.yul\":13255:13264   */\n      dup3\n        /* \"#utility.yul\":13251:13269   */\n      add\n        /* \"#utility.yul\":13243:13269   */\n      swap1\n      pop\n        /* \"#utility.yul\":13315:13324   */\n      dup2\n        /* \"#utility.yul\":13309:13313   */\n      dup2\n        /* \"#utility.yul\":13305:13325   */\n      sub\n        /* \"#utility.yul\":13301:13302   */\n      0x00\n        /* \"#utility.yul\":13290:13299   */\n      dup4\n        /* \"#utility.yul\":13286:13303   */\n      add\n        /* \"#utility.yul\":13279:13326   */\n      mstore\n        /* \"#utility.yul\":13343:13474   */\n      tag_304\n        /* \"#utility.yul\":13469:13473   */\n      dup2\n        /* \"#utility.yul\":13343:13474   */\n      tag_157\n      jump\t// in\n    tag_304:\n        /* \"#utility.yul\":13335:13474   */\n      swap1\n      pop\n        /* \"#utility.yul\":13062:13481   */\n      swap2\n      swap1\n      pop\n      jump\t// out\n        /* \"#utility.yul\":13487:13665   */\n    tag_158:\n        /* \"#utility.yul\":13627:13657   */\n      0x457863656564696e6720746865206d6178696d756d206c696d69742100000000\n        /* \"#utility.yul\":13623:13624   */\n      0x00\n        /* \"#utility.yul\":13615:13621   */\n      dup3\n        /* \"#utility.yul\":13611:13625   */\n      add\n        /* \"#utility.yul\":13604:13658   */\n      mstore\n        /* \"#utility.yul\":13487:13665   */\n      pop\n      jump\t// out\n        /* \"#utility.yul\":13671:14037   */\n    tag_159:\n        /* \"#utility.yul\":13813:13816   */\n      0x00\n        /* \"#utility.yul\":13834:13901   */\n      tag_307\n        /* \"#utility.yul\":13898:13900   */\n      0x1c\n        /* \"#utility.yul\":13893:13896   */\n      dup4\n        /* \"#utility.yul\":13834:13901   */\n      tag_126\n      jump\t// in\n    tag_307:\n        /* \"#utility.yul\":13827:13901   */\n      swap2\n      pop\n        /* \"#utility.yul\":13910:14003   */\n      tag_308\n        /* \"#utility.yul\":13999:14002   */\n      dup3\n        /* \"#utility.yul\":13910:14003   */\n      tag_158\n      jump\t// in\n    tag_308:\n        /* \"#utility.yul\":14028:14030   */\n      0x20\n        /* \"#utility.yul\":14023:14026   */\n      dup3\n        /* \"#utility.yul\":14019:14031   */\n      add\n        /* \"#utility.yul\":14012:14031   */\n      swap1\n      pop\n        /* \"#utility.yul\":13671:14037   */\n      swap2\n      swap1\n      pop\n      jump\t// out\n        /* \"#utility.yul\":14043:14462   */\n    tag_83:\n        /* \"#utility.yul\":14209:14213   */\n      0x00\n        /* \"#utility.yul\":14247:14249   */\n      0x20\n        /* \"#utility.yul\":14236:14245   */\n      dup3\n        /* \"#utility.yul\":14232:14250   */\n      add\n        /* \"#utility.yul\":14224:14250   */\n      swap1\n      pop\n        /* \"#utility.yul\":14296:14305   */\n      dup2\n        /* \"#utility.yul\":14290:14294   */\n      dup2\n        /* \"#utility.yul\":14286:14306   */\n      sub\n        /* \"#utility.yul\":14282:14283   */\n      0x00\n        /* \"#utility.yul\":14271:14280   */\n      dup4\n        /* \"#utility.yul\":14267:14284   */\n      add\n        /* \"#utility.yul\":14260:14307   */\n      mstore\n        /* \"#utility.yul\":14324:14455   */\n      tag_310\n        /* \"#utility.yul\":14450:14454   */\n      dup2\n        /* \"#utility.yul\":14324:14455   */\n      tag_159\n      jump\t// in\n    tag_310:\n        /* \"#utility.yul\":14316:14455   */\n      swap1\n      pop\n        /* \"#utility.yul\":14043:14462   */\n      swap2\n      swap1\n      pop\n      jump\t// out\n        /* \"#utility.yul\":14468:14649   */\n    tag_160:\n        /* \"#utility.yul\":14608:14641   */\n      0x4f6e6c79206f776e65722063616e206372656174652070726f706f73616c2100\n        /* \"#utility.yul\":14604:14605   */\n      0x00\n        /* \"#utility.yul\":14596:14602   */\n      dup3\n        /* \"#utility.yul\":14592:14606   */\n      add\n        /* \"#utility.yul\":14585:14642   */\n      mstore\n        /* \"#utility.yul\":14468:14649   */\n      pop\n      jump\t// out\n        /* \"#utility.yul\":14655:15021   */\n    tag_161:\n        /* \"#utility.yul\":14797:14800   */\n      0x00\n        /* \"#utility.yul\":14818:14885   */\n      tag_313\n        /* \"#utility.yul\":14882:14884   */\n      0x1f\n        /* \"#utility.yul\":14877:14880   */\n      dup4\n        /* \"#utility.yul\":14818:14885   */\n      tag_126\n      jump\t// in\n    tag_313:\n        /* \"#utility.yul\":14811:14885   */\n      swap2\n      pop\n        /* \"#utility.yul\":14894:14987   */\n      tag_314\n        /* \"#utility.yul\":14983:14986   */\n      dup3\n        /* \"#utility.yul\":14894:14987   */\n      tag_160\n      jump\t// in\n    tag_314:\n        /* \"#utility.yul\":15012:15014   */\n      0x20\n        /* \"#utility.yul\":15007:15010   */\n      dup3\n        /* \"#utility.yul\":15003:15015   */\n      add\n        /* \"#utility.yul\":14996:15015   */\n      swap1\n      pop\n        /* \"#utility.yul\":14655:15021   */\n      swap2\n      swap1\n      pop\n      jump\t// out\n        /* \"#utility.yul\":15027:15446   */\n    tag_87:\n        /* \"#utility.yul\":15193:15197   */\n      0x00\n        /* \"#utility.yul\":15231:15233   */\n      0x20\n        /* \"#utility.yul\":15220:15229   */\n      dup3\n        /* \"#utility.yul\":15216:15234   */\n      add\n        /* \"#utility.yul\":15208:15234   */\n      swap1\n      pop\n        /* \"#utility.yul\":15280:15289   */\n      dup2\n        /* \"#utility.yul\":15274:15278   */\n      dup2\n        /* \"#utility.yul\":15270:15290   */\n      sub\n        /* \"#utility.yul\":15266:15267   */\n      0x00\n        /* \"#utility.yul\":15255:15264   */\n      dup4\n        /* \"#utility.yul\":15251:15268   */\n      add\n        /* \"#utility.yul\":15244:15291   */\n      mstore\n        /* \"#utility.yul\":15308:15439   */\n      tag_316\n        /* \"#utility.yul\":15434:15438   */\n      dup2\n        /* \"#utility.yul\":15308:15439   */\n      tag_161\n      jump\t// in\n    tag_316:\n        /* \"#utility.yul\":15300:15439   */\n      swap1\n      pop\n        /* \"#utility.yul\":15027:15446   */\n      swap2\n      swap1\n      pop\n      jump\t// out\n        /* \"#utility.yul\":15452:15632   */\n    tag_95:\n        /* \"#utility.yul\":15500:15577   */\n      0x4e487b7100000000000000000000000000000000000000000000000000000000\n        /* \"#utility.yul\":15497:15498   */\n      0x00\n        /* \"#utility.yul\":15490:15578   */\n      mstore\n        /* \"#utility.yul\":15597:15601   */\n      0x32\n        /* \"#utility.yul\":15594:15595   */\n      0x04\n        /* \"#utility.yul\":15587:15602   */\n      mstore\n        /* \"#utility.yul\":15621:15625   */\n      0x24\n        /* \"#utility.yul\":15618:15619   */\n      0x00\n        /* \"#utility.yul\":15611:15626   */\n      revert\n        /* \"#utility.yul\":15638:15755   */\n    tag_162:\n        /* \"#utility.yul\":15747:15748   */\n      0x00\n        /* \"#utility.yul\":15744:15745   */\n      0x00\n        /* \"#utility.yul\":15737:15749   */\n      revert\n        /* \"#utility.yul\":15761:15878   */\n    tag_163:\n        /* \"#utility.yul\":15870:15871   */\n      0x00\n        /* \"#utility.yul\":15867:15868   */\n      0x00\n        /* \"#utility.yul\":15860:15872   */\n      revert\n        /* \"#utility.yul\":15884:16001   */\n    tag_164:\n        /* \"#utility.yul\":15993:15994   */\n      0x00\n        /* \"#utility.yul\":15990:15991   */\n      0x00\n        /* \"#utility.yul\":15983:15995   */\n      revert\n        /* \"#utility.yul\":16007:16732   */\n    tag_97:\n        /* \"#utility.yul\":16085:16089   */\n      0x00\n        /* \"#utility.yul\":16091:16097   */\n      0x00\n        /* \"#utility.yul\":16147:16158   */\n      dup4\n        /* \"#utility.yul\":16134:16159   */\n      calldataload\n        /* \"#utility.yul\":16247:16248   */\n      0x01\n        /* \"#utility.yul\":16241:16245   */\n      0x20\n        /* \"#utility.yul\":16237:16249   */\n      sub\n        /* \"#utility.yul\":16226:16234   */\n      dup5\n        /* \"#utility.yul\":16210:16224   */\n      calldatasize\n        /* \"#utility.yul\":16206:16235   */\n      sub\n        /* \"#utility.yul\":16202:16250   */\n      sub\n        /* \"#utility.yul\":16182:16200   */\n      dup2\n        /* \"#utility.yul\":16178:16251   */\n      slt\n        /* \"#utility.yul\":16168:16336   */\n      tag_322\n      jumpi\n        /* \"#utility.yul\":16255:16334   */\n      tag_323\n      tag_162\n      jump\t// in\n    tag_323:\n        /* \"#utility.yul\":16168:16336   */\n    tag_322:\n        /* \"#utility.yul\":16367:16385   */\n      dup1\n        /* \"#utility.yul\":16357:16365   */\n      dup5\n        /* \"#utility.yul\":16353:16386   */\n      add\n        /* \"#utility.yul\":16345:16386   */\n      swap3\n      pop\n        /* \"#utility.yul\":16419:16423   */\n      dup3\n        /* \"#utility.yul\":16406:16424   */\n      calldataload\n        /* \"#utility.yul\":16396:16424   */\n      swap2\n      pop\n        /* \"#utility.yul\":16447:16465   */\n      0xffffffffffffffff\n        /* \"#utility.yul\":16439:16445   */\n      dup3\n        /* \"#utility.yul\":16436:16466   */\n      gt\n        /* \"#utility.yul\":16433:16550   */\n      iszero\n      tag_324\n      jumpi\n        /* \"#utility.yul\":16469:16548   */\n      tag_325\n      tag_163\n      jump\t// in\n    tag_325:\n        /* \"#utility.yul\":16433:16550   */\n    tag_324:\n        /* \"#utility.yul\":16577:16579   */\n      0x20\n        /* \"#utility.yul\":16571:16575   */\n      dup4\n        /* \"#utility.yul\":16567:16580   */\n      add\n        /* \"#utility.yul\":16559:16580   */\n      swap3\n      pop\n        /* \"#utility.yul\":16634:16638   */\n      0x01\n        /* \"#utility.yul\":16626:16632   */\n      dup3\n        /* \"#utility.yul\":16622:16639   */\n      mul\n        /* \"#utility.yul\":16606:16620   */\n      calldatasize\n        /* \"#utility.yul\":16602:16640   */\n      sub\n        /* \"#utility.yul\":16596:16600   */\n      dup4\n        /* \"#utility.yul\":16592:16641   */\n      sgt\n        /* \"#utility.yul\":16589:16725   */\n      iszero\n      tag_326\n      jumpi\n        /* \"#utility.yul\":16644:16723   */\n      tag_327\n      tag_164\n      jump\t// in\n    tag_327:\n        /* \"#utility.yul\":16589:16725   */\n    tag_326:\n        /* \"#utility.yul\":16098:16732   */\n      pop\n        /* \"#utility.yul\":16007:16732   */\n      swap3\n      pop\n      swap3\n      swap1\n      pop\n      jump\t// out\n        /* \"#utility.yul\":16738:16929   */\n    tag_101:\n        /* \"#utility.yul\":16778:16781   */\n      0x00\n        /* \"#utility.yul\":16797:16817   */\n      tag_329\n        /* \"#utility.yul\":16815:16816   */\n      dup3\n        /* \"#utility.yul\":16797:16817   */\n      tag_122\n      jump\t// in\n    tag_329:\n        /* \"#utility.yul\":16792:16817   */\n      swap2\n      pop\n        /* \"#utility.yul\":16831:16851   */\n      tag_330\n        /* \"#utility.yul\":16849:16850   */\n      dup4\n        /* \"#utility.yul\":16831:16851   */\n      tag_122\n      jump\t// in\n    tag_330:\n        /* \"#utility.yul\":16826:16851   */\n      swap3\n      pop\n        /* \"#utility.yul\":16874:16875   */\n      dup3\n        /* \"#utility.yul\":16871:16872   */\n      dup3\n        /* \"#utility.yul\":16867:16876   */\n      add\n        /* \"#utility.yul\":16860:16876   */\n      swap1\n      pop\n        /* \"#utility.yul\":16895:16898   */\n      dup1\n        /* \"#utility.yul\":16892:16893   */\n      dup3\n        /* \"#utility.yul\":16889:16899   */\n      gt\n        /* \"#utility.yul\":16886:16922   */\n      iszero\n      tag_331\n      jumpi\n        /* \"#utility.yul\":16902:16920   */\n      tag_332\n      tag_154\n      jump\t// in\n    tag_332:\n        /* \"#utility.yul\":16886:16922   */\n    tag_331:\n        /* \"#utility.yul\":16738:16929   */\n      swap3\n      swap2\n      pop\n      pop\n      jump\t// out\n        /* \"#utility.yul\":16935:17115   */\n    tag_165:\n        /* \"#utility.yul\":16983:17060   */\n      0x4e487b7100000000000000000000000000000000000000000000000000000000\n        /* \"#utility.yul\":16980:16981   */\n      0x00\n        /* \"#utility.yul\":16973:17061   */\n      mstore\n        /* \"#utility.yul\":17080:17084   */\n      0x41\n        /* \"#utility.yul\":17077:17078   */\n      0x04\n        /* \"#utility.yul\":17070:17085   */\n      mstore\n        /* \"#utility.yul\":17104:17108   */\n      0x24\n        /* \"#utility.yul\":17101:17102   */\n      0x00\n        /* \"#utility.yul\":17094:17109   */\n      revert\n        /* \"#utility.yul\":17121:17262   */\n    tag_166:\n        /* \"#utility.yul\":17170:17174   */\n      0x00\n        /* \"#utility.yul\":17193:17196   */\n      dup2\n        /* \"#utility.yul\":17185:17196   */\n      swap1\n      pop\n        /* \"#utility.yul\":17216:17219   */\n      dup2\n        /* \"#utility.yul\":17213:17214   */\n      0x00\n        /* \"#utility.yul\":17206:17220   */\n      mstore\n        /* \"#utility.yul\":17250:17254   */\n      0x20\n        /* \"#utility.yul\":17247:17248   */\n      0x00\n        /* \"#utility.yul\":17237:17255   */\n      keccak256\n        /* \"#utility.yul\":17229:17255   */\n      swap1\n      pop\n        /* \"#utility.yul\":17121:17262   */\n      swap2\n      swap1\n      pop\n      jump\t// out\n        /* \"#utility.yul\":17268:17361   */\n    tag_167:\n        /* \"#utility.yul\":17305:17311   */\n      0x00\n        /* \"#utility.yul\":17352:17354   */\n      0x20\n        /* \"#utility.yul\":17347:17349   */\n      0x1f\n        /* \"#utility.yul\":17340:17345   */\n      dup4\n        /* \"#utility.yul\":17336:17350   */\n      add\n        /* \"#utility.yul\":17332:17355   */\n      div\n        /* \"#utility.yul\":17322:17355   */\n      swap1\n      pop\n        /* \"#utility.yul\":17268:17361   */\n      swap2\n      swap1\n      pop\n      jump\t// out\n        /* \"#utility.yul\":17367:17474   */\n    tag_168:\n        /* \"#utility.yul\":17411:17419   */\n      0x00\n        /* \"#utility.yul\":17461:17466   */\n      dup3\n        /* \"#utility.yul\":17455:17459   */\n      dup3\n        /* \"#utility.yul\":17451:17467   */\n      shl\n        /* \"#utility.yul\":17430:17467   */\n      swap1\n      pop\n        /* \"#utility.yul\":17367:17474   */\n      swap3\n      swap2\n      pop\n      pop\n      jump\t// out\n        /* \"#utility.yul\":17480:17873   */\n    tag_169:\n        /* \"#utility.yul\":17549:17555   */\n      0x00\n        /* \"#utility.yul\":17599:17600   */\n      0x08\n        /* \"#utility.yul\":17587:17597   */\n      dup4\n        /* \"#utility.yul\":17583:17601   */\n      mul\n        /* \"#utility.yul\":17622:17719   */\n      tag_338\n        /* \"#utility.yul\":17652:17718   */\n      0xffffffffffffffffffffffffffffffffffffffffffffffffffffffffffffffff\n        /* \"#utility.yul\":17641:17650   */\n      dup3\n        /* \"#utility.yul\":17622:17719   */\n      tag_168\n      jump\t// in\n    tag_338:\n        /* \"#utility.yul\":17740:17779   */\n      tag_339\n        /* \"#utility.yul\":17770:17778   */\n      dup7\n        /* \"#utility.yul\":17759:17768   */\n      dup4\n        /* \"#utility.yul\":17740:17779   */\n      tag_168\n      jump\t// in\n    tag_339:\n        /* \"#utility.yul\":17728:17779   */\n      swap6\n      pop\n        /* \"#utility.yul\":17812:17816   */\n      dup1\n        /* \"#utility.yul\":17808:17817   */\n      not\n        /* \"#utility.yul\":17801:17806   */\n      dup5\n        /* \"#utility.yul\":17797:17818   */\n      and\n        /* \"#utility.yul\":17788:17818   */\n      swap4\n      pop\n        /* \"#utility.yul\":17861:17865   */\n      dup1\n        /* \"#utility.yul\":17851:17859   */\n      dup7\n        /* \"#utility.yul\":17847:17866   */\n      and\n        /* \"#utility.yul\":17840:17845   */\n      dup5\n        /* \"#utility.yul\":17837:17867   */\n      or\n        /* \"#utility.yul\":17827:17867   */\n      swap3\n      pop\n        /* \"#utility.yul\":17556:17873   */\n      pop\n      pop\n        /* \"#utility.yul\":17480:17873   */\n      swap4\n      swap3\n      pop\n      pop\n      pop\n      jump\t// out\n        /* \"#utility.yul\":17879:17939   */\n    tag_170:\n        /* \"#utility.yul\":17907:17910   */\n      0x00\n        /* \"#utility.yul\":17928:17933   */\n      dup2\n        /* \"#utility.yul\":17921:17933   */\n      swap1\n      pop\n        /* \"#utility.yul\":17879:17939   */\n      swap2\n      swap1\n      pop\n      jump\t// out\n        /* \"#utility.yul\":17945:18087   */\n    tag_171:\n        /* \"#utility.yul\":17995:18004   */\n      0x00\n        /* \"#utility.yul\":18028:18081   */\n      tag_342\n        /* \"#utility.yul\":18046:18080   */\n      tag_343\n        /* \"#utility.yul\":18055:18079   */\n      tag_344\n        /* \"#utility.yul\":18073:18078   */\n      dup5\n        /* \"#utility.yul\":18055:18079   */\n      tag_122\n      jump\t// in\n    tag_344:\n        /* \"#utility.yul\":18046:18080   */\n      tag_170\n      jump\t// in\n    tag_343:\n        /* \"#utility.yul\":18028:18081   */\n      tag_122\n      jump\t// in\n    tag_342:\n        /* \"#utility.yul\":18015:18081   */\n      swap1\n      pop\n        /* \"#utility.yul\":17945:18087   */\n      swap2\n      swap1\n      pop\n      jump\t// out\n        /* \"#utility.yul\":18093:18168   */\n    tag_172:\n        /* \"#utility.yul\":18136:18139   */\n      0x00\n        /* \"#utility.yul\":18157:18162   */\n      dup2\n        /* \"#utility.yul\":18150:18162   */\n      swap1\n      pop\n        /* \"#utility.yul\":18093:18168   */\n      swap2\n      swap1\n      pop\n      jump\t// out\n        /* \"#utility.yul\":18174:18443   */\n    tag_173:\n        /* \"#utility.yul\":18284:18323   */\n      tag_347\n        /* \"#utility.yul\":18315:18322   */\n      dup4\n        /* \"#utility.yul\":18284:18323   */\n      tag_171\n      jump\t// in\n    tag_347:\n        /* \"#utility.yul\":18345:18436   */\n      tag_348\n        /* \"#utility.yul\":18394:18435   */\n      tag_349\n        /* \"#utility.yul\":18418:18434   */\n      dup3\n        /* \"#utility.yul\":18394:18435   */\n      tag_172\n      jump\t// in\n    tag_349:\n        /* \"#utility.yul\":18386:18392   */\n      dup5\n        /* \"#utility.yul\":18379:18383   */\n      dup5\n        /* \"#utility.yul\":18373:18384   */\n      sload\n        /* \"#utility.yul\":18345:18436   */\n      tag_169\n      jump\t// in\n    tag_348:\n        /* \"#utility.yul\":18339:18343   */\n      dup3\n        /* \"#utility.yul\":18332:18437   */\n      sstore\n        /* \"#utility.yul\":18250:18443   */\n      pop\n        /* \"#utility.yul\":18174:18443   */\n      pop\n      pop\n      pop\n      jump\t// out\n        /* \"#utility.yul\":18449:18522   */\n    tag_174:\n        /* \"#utility.yul\":18494:18497   */\n      0x00\n        /* \"#utility.yul\":18515:18516   */\n      0x00\n        /* \"#utility.yul\":18508:18516   */\n      swap1\n      pop\n        /* \"#utility.yul\":18449:18522   */\n      swap1\n      jump\t// out\n        /* \"#utility.yul\":18528:18717   */\n    tag_175:\n        /* \"#utility.yul\":18605:18637   */\n      tag_352\n      tag_174\n      jump\t// in\n    tag_352:\n        /* \"#utility.yul\":18646:18711   */\n      tag_353\n        /* \"#utility.yul\":18704:18710   */\n      dup2\n        /* \"#utility.yul\":18696:18702   */\n      dup5\n        /* \"#utility.yul\":18690:18694   */\n      dup5\n        /* \"#utility.yul\":18646:18711   */\n      tag_173\n      jump\t// in\n    tag_353:\n        /* \"#utility.yul\":18581:18717   */\n      pop\n        /* \"#utility.yul\":18528:18717   */\n      pop\n      pop\n      jump\t// out\n        /* \"#utility.yul\":18723:18937   */\n    tag_176:\n        /* \"#utility.yul\":18808:18809   */\n      0x00\n        /* \"#utility.yul\":18793:18931   */\n    tag_355:\n        /* \"#utility.yul\":18818:18827   */\n      dup3\n        /* \"#utility.yul\":18815:18816   */\n      dup2\n        /* \"#utility.yul\":18812:18828   */\n      lt\n        /* \"#utility.yul\":18793:18931   */\n      iszero\n      tag_357\n      jumpi\n        /* \"#utility.yul\":18870:18921   */\n      tag_358\n        /* \"#utility.yul\":18919:18920   */\n      0x00\n        /* \"#utility.yul\":18915:18916   */\n      dup3\n        /* \"#utility.yul\":18904:18913   */\n      dup5\n        /* \"#utility.yul\":18900:18917   */\n      add\n        /* \"#utility.yul\":18870:18921   */\n      tag_175\n      jump\t// in\n    tag_358:\n        /* \"#utility.yul\":18843:18844   */\n      0x01\n        /* \"#utility.yul\":18840:18841   */\n      dup2\n        /* \"#utility.yul\":18836:18845   */\n      add\n        /* \"#utility.yul\":18831:18845   */\n      swap1\n      pop\n        /* \"#utility.yul\":18793:18931   */\n      jump(tag_355)\n    tag_357:\n        /* \"#utility.yul\":18797:18811   */\n      pop\n        /* \"#utility.yul\":18723:18937   */\n      pop\n      pop\n      jump\t// out\n        /* \"#utility.yul\":18943:19689   */\n    tag_177:\n        /* \"#utility.yul\":19044:19046   */\n      0x1f\n        /* \"#utility.yul\":19039:19042   */\n      dup3\n        /* \"#utility.yul\":19036:19047   */\n      gt\n        /* \"#utility.yul\":19033:19682   */\n      iszero\n      tag_360\n      jumpi\n        /* \"#utility.yul\":19073:19083   */\n      dup3\n        /* \"#utility.yul\":19068:19071   */\n      dup3\n        /* \"#utility.yul\":19065:19084   */\n      gt\n        /* \"#utility.yul\":19062:19672   */\n      iszero\n      tag_361\n      jumpi\n        /* \"#utility.yul\":19119:19157   */\n      tag_362\n        /* \"#utility.yul\":19151:19156   */\n      dup2\n        /* \"#utility.yul\":19119:19157   */\n      tag_166\n      jump\t// in\n    tag_362:\n        /* \"#utility.yul\":19194:19216   */\n      tag_363\n        /* \"#utility.yul\":19212:19215   */\n      dup4\n        /* \"#utility.yul\":19194:19216   */\n      tag_167\n      jump\t// in\n    tag_363:\n        /* \"#utility.yul\":19253:19282   */\n      tag_364\n        /* \"#utility.yul\":19271:19281   */\n      dup6\n        /* \"#utility.yul\":19253:19282   */\n      tag_167\n      jump\t// in\n    tag_364:\n        /* \"#utility.yul\":19443:19445   */\n      0x20\n        /* \"#utility.yul\":19431:19441   */\n      dup7\n        /* \"#utility.yul\":19428:19446   */\n      lt\n        /* \"#utility.yul\":19425:19504   */\n      iszero\n      tag_365\n      jumpi\n        /* \"#utility.yul\":19485:19486   */\n      0x00\n        /* \"#utility.yul\":19469:19486   */\n      swap1\n      pop\n        /* \"#utility.yul\":19425:19504   */\n    tag_365:\n        /* \"#utility.yul\":19554:19566   */\n      dup1\n        /* \"#utility.yul\":19544:19552   */\n      dup4\n        /* \"#utility.yul\":19540:19567   */\n      add\n        /* \"#utility.yul\":19584:19658   */\n      tag_366\n        /* \"#utility.yul\":19644:19656   */\n      dup3\n        /* \"#utility.yul\":19630:19642   */\n      dup5\n        /* \"#utility.yul\":19626:19657   */\n      sub\n        /* \"#utility.yul\":19613:19624   */\n      dup3\n        /* \"#utility.yul\":19584:19658   */\n      tag_176\n      jump\t// in\n    tag_366:\n        /* \"#utility.yul\":19085:19672   */\n      pop\n      pop\n      pop\n      pop\n        /* \"#utility.yul\":19062:19672   */\n    tag_361:\n        /* \"#utility.yul\":19033:19682   */\n    tag_360:\n        /* \"#utility.yul\":18943:19689   */\n      pop\n      pop\n      pop\n      jump\t// out\n        /* \"#utility.yul\":19695:19812   */\n    tag_178:\n        /* \"#utility.yul\":19749:19757   */\n      0x00\n        /* \"#utility.yul\":19799:19804   */\n      dup3\n        /* \"#utility.yul\":19793:19797   */\n      dup3\n        /* \"#utility.yul\":19789:19805   */\n      shr\n        /* \"#utility.yul\":19768:19805   */\n      swap1\n      pop\n        /* \"#utility.yul\":19695:19812   */\n      swap3\n      swap2\n      pop\n      pop\n      jump\t// out\n        /* \"#utility.yul\":19818:19987   */\n    tag_179:\n        /* \"#utility.yul\":19862:19868   */\n      0x00\n        /* \"#utility.yul\":19895:19946   */\n      tag_369\n        /* \"#utility.yul\":19943:19944   */\n      0x00\n        /* \"#utility.yul\":19939:19945   */\n      not\n        /* \"#utility.yul\":19931:19936   */\n      dup5\n        /* \"#utility.yul\":19928:19929   */\n      0x08\n        /* \"#utility.yul\":19924:19937   */\n      mul\n        /* \"#utility.yul\":19895:19946   */\n      tag_178\n      jump\t// in\n    tag_369:\n        /* \"#utility.yul\":19891:19947   */\n      not\n        /* \"#utility.yul\":19976:19980   */\n      dup1\n        /* \"#utility.yul\":19970:19974   */\n      dup4\n        /* \"#utility.yul\":19966:19981   */\n      and\n        /* \"#utility.yul\":19956:19981   */\n      swap2\n      pop\n        /* \"#utility.yul\":19869:19987   */\n      pop\n        /* \"#utility.yul\":19818:19987   */\n      swap3\n      swap2\n      pop\n      pop\n      jump\t// out\n        /* \"#utility.yul\":19992:20287   */\n    tag_180:\n        /* \"#utility.yul\":20068:20072   */\n      0x00\n        /* \"#utility.yul\":20214:20243   */\n      tag_371\n        /* \"#utility.yul\":20239:20242   */\n      dup4\n        /* \"#utility.yul\":20233:20237   */\n      dup4\n        /* \"#utility.yul\":20214:20243   */\n      tag_179\n      jump\t// in\n    tag_371:\n        /* \"#utility.yul\":20206:20243   */\n      swap2\n      pop\n        /* \"#utility.yul\":20276:20279   */\n      dup3\n        /* \"#utility.yul\":20273:20274   */\n      0x02\n        /* \"#utility.yul\":20269:20280   */\n      mul\n        /* \"#utility.yul\":20263:20267   */\n      dup3\n        /* \"#utility.yul\":20260:20281   */\n      or\n        /* \"#utility.yul\":20252:20281   */\n      swap1\n      pop\n        /* \"#utility.yul\":19992:20287   */\n      swap3\n      swap2\n      pop\n      pop\n      jump\t// out\n        /* \"#utility.yul\":20292:21687   */\n    tag_103:\n        /* \"#utility.yul\":20409:20446   */\n      tag_373\n        /* \"#utility.yul\":20442:20445   */\n      dup3\n        /* \"#utility.yul\":20409:20446   */\n      tag_125\n      jump\t// in\n    tag_373:\n        /* \"#utility.yul\":20511:20529   */\n      0xffffffffffffffff\n        /* \"#utility.yul\":20503:20509   */\n      dup2\n        /* \"#utility.yul\":20500:20530   */\n      gt\n        /* \"#utility.yul\":20497:20553   */\n      iszero\n      tag_374\n      jumpi\n        /* \"#utility.yul\":20533:20551   */\n      tag_375\n      tag_165\n      jump\t// in\n    tag_375:\n        /* \"#utility.yul\":20497:20553   */\n    tag_374:\n        /* \"#utility.yul\":20577:20615   */\n      tag_376\n        /* \"#utility.yul\":20609:20613   */\n      dup3\n        /* \"#utility.yul\":20603:20614   */\n      sload\n        /* \"#utility.yul\":20577:20615   */\n      tag_71\n      jump\t// in\n    tag_376:\n        /* \"#utility.yul\":20662:20729   */\n      tag_377\n        /* \"#utility.yul\":20722:20728   */\n      dup3\n        /* \"#utility.yul\":20714:20720   */\n      dup3\n        /* \"#utility.yul\":20708:20712   */\n      dup6\n        /* \"#utility.yul\":20662:20729   */\n      tag_177\n      jump\t// in\n    tag_377:\n        /* \"#utility.yul\":20756:20757   */\n      0x00\n        /* \"#utility.yul\":20780:20784   */\n      0x20\n        /* \"#utility.yul\":20767:20784   */\n      swap1\n      pop\n        /* \"#utility.yul\":20812:20814   */\n      0x1f\n        /* \"#utility.yul\":20804:20810   */\n      dup4\n        /* \"#utility.yul\":20801:20815   */\n      gt\n        /* \"#utility.yul\":20829:20830   */\n      0x01\n        /* \"#utility.yul\":20824:21442   */\n      dup2\n      eq\n      tag_379\n      jumpi\n        /* \"#utility.yul\":21486:21487   */\n      0x00\n        /* \"#utility.yul\":21503:21509   */\n      dup5\n        /* \"#utility.yul\":21500:21577   */\n      iszero\n      tag_380\n      jumpi\n        /* \"#utility.yul\":21552:21561   */\n      dup3\n        /* \"#utility.yul\":21547:21550   */\n      dup8\n        /* \"#utility.yul\":21543:21562   */\n      add\n        /* \"#utility.yul\":21537:21563   */\n      mload\n        /* \"#utility.yul\":21528:21563   */\n      swap1\n      pop\n        /* \"#utility.yul\":21500:21577   */\n    tag_380:\n        /* \"#utility.yul\":21603:21670   */\n      tag_381\n        /* \"#utility.yul\":21663:21669   */\n      dup6\n        /* \"#utility.yul\":21656:21661   */\n      dup3\n        /* \"#utility.yul\":21603:21670   */\n      tag_180\n      jump\t// in\n    tag_381:\n        /* \"#utility.yul\":21597:21601   */\n      dup7\n        /* \"#utility.yul\":21590:21671   */\n      sstore\n        /* \"#utility.yul\":21459:21681   */\n      pop\n        /* \"#utility.yul\":20794:21681   */\n      jump(tag_378)\n        /* \"#utility.yul\":20824:21442   */\n    tag_379:\n        /* \"#utility.yul\":20876:20880   */\n      0x1f\n        /* \"#utility.yul\":20872:20881   */\n      not\n        /* \"#utility.yul\":20864:20870   */\n      dup5\n        /* \"#utility.yul\":20860:20882   */\n      and\n        /* \"#utility.yul\":20910:20947   */\n      tag_382\n        /* \"#utility.yul\":20942:20946   */\n      dup7\n        /* \"#utility.yul\":20910:20947   */\n      tag_166\n      jump\t// in\n    tag_382:\n        /* \"#utility.yul\":20969:20970   */\n      0x00\n        /* \"#utility.yul\":20983:21191   */\n    tag_383:\n        /* \"#utility.yul\":20997:21004   */\n      dup3\n        /* \"#utility.yul\":20994:20995   */\n      dup2\n        /* \"#utility.yul\":20991:21005   */\n      lt\n        /* \"#utility.yul\":20983:21191   */\n      iszero\n      tag_385\n      jumpi\n        /* \"#utility.yul\":21076:21085   */\n      dup5\n        /* \"#utility.yul\":21071:21074   */\n      dup10\n        /* \"#utility.yul\":21067:21086   */\n      add\n        /* \"#utility.yul\":21061:21087   */\n      mload\n        /* \"#utility.yul\":21053:21059   */\n      dup3\n        /* \"#utility.yul\":21046:21088   */\n      sstore\n        /* \"#utility.yul\":21127:21128   */\n      0x01\n        /* \"#utility.yul\":21119:21125   */\n      dup3\n        /* \"#utility.yul\":21115:21129   */\n      add\n        /* \"#utility.yul\":21105:21129   */\n      swap2\n      pop\n        /* \"#utility.yul\":21174:21176   */\n      0x20\n        /* \"#utility.yul\":21163:21172   */\n      dup6\n        /* \"#utility.yul\":21159:21177   */\n      add\n        /* \"#utility.yul\":21146:21177   */\n      swap5\n      pop\n        /* \"#utility.yul\":21020:21024   */\n      0x20\n        /* \"#utility.yul\":21017:21018   */\n      dup2\n        /* \"#utility.yul\":21013:21025   */\n      add\n        /* \"#utility.yul\":21008:21025   */\n      swap1\n      pop\n        /* \"#utility.yul\":20983:21191   */\n      jump(tag_383)\n    tag_385:\n        /* \"#utility.yul\":21219:21225   */\n      dup7\n        /* \"#utility.yul\":21210:21217   */\n      dup4\n        /* \"#utility.yul\":21207:21226   */\n      lt\n        /* \"#utility.yul\":21204:21383   */\n      iszero\n      tag_386\n      jumpi\n        /* \"#utility.yul\":21277:21286   */\n      dup5\n        /* \"#utility.yul\":21272:21275   */\n      dup10\n        /* \"#utility.yul\":21268:21287   */\n      add\n        /* \"#utility.yul\":21262:21288   */\n      mload\n        /* \"#utility.yul\":21320:21368   */\n      tag_387\n        /* \"#utility.yul\":21362:21366   */\n      0x1f\n        /* \"#utility.yul\":21354:21360   */\n      dup10\n        /* \"#utility.yul\":21350:21367   */\n      and\n        /* \"#utility.yul\":21339:21348   */\n      dup3\n        /* \"#utility.yul\":21320:21368   */\n      tag_179\n      jump\t// in\n    tag_387:\n        /* \"#utility.yul\":21312:21318   */\n      dup4\n        /* \"#utility.yul\":21305:21369   */\n      sstore\n        /* \"#utility.yul\":21227:21383   */\n      pop\n        /* \"#utility.yul\":21204:21383   */\n    tag_386:\n        /* \"#utility.yul\":21429:21430   */\n      0x01\n        /* \"#utility.yul\":21425:21426   */\n      0x02\n        /* \"#utility.yul\":21417:21423   */\n      dup9\n        /* \"#utility.yul\":21413:21427   */\n      mul\n        /* \"#utility.yul\":21409:21431   */\n      add\n        /* \"#utility.yul\":21403:21407   */\n      dup9\n        /* \"#utility.yul\":21396:21432   */\n      sstore\n        /* \"#utility.yul\":20831:21442   */\n      pop\n      pop\n      pop\n        /* \"#utility.yul\":20794:21681   */\n    tag_378:\n      pop\n        /* \"#utility.yul\":20384:21687   */\n      pop\n      pop\n      pop\n        /* \"#utility.yul\":20292:21687   */\n      pop\n      pop\n      jump\t// out\n\n    auxdata: 0xa26469706673582212200b8d71c99f43079a280b16ebc8ae067d13255ebe718bf98f295fb122fe2952c564736f6c63430008220033\n}\n",
				"bytecode": {
					"linkReferences": {},
					"object": "60806040525f6001553480156012575f5ffd5b50335f5f6101000a81548173ffffffffffffffffffffffffffffffffffffffff021916908373ffffffffffffffffffffffffffffffffffffffff1602179055506113e38061005f5f395ff3fe608060405234801561000f575f5ffd5b506004361061009c575f3560e01c80638da5cb5b116100645780638da5cb5b14610147578063a95b62e314610165578063d39350ac14610195578063d6d36b92146101c5578063da35c664146101e45761009c565b80630121b93f146100a0578063013cf08b146100bc5780631e3f6082146100ef57806353ed51431461010b57806377163c1d14610129575b5f5ffd5b6100ba60048036038101906100b5919061091a565b610202565b005b6100d660048036038101906100d1919061091a565b61041a565b6040516100e694939291906109de565b60405180910390f35b61010960048036038101906101049190610ade565b6104d8565b005b61011361076b565b6040516101209190610c13565b60405180910390f35b6101316107c1565b60405161013e9190610c33565b60405180910390f35b61014f6107c6565b60405161015c9190610c8b565b60405180910390f35b61017f600480360381019061017a919061091a565b6107ea565b60405161018c9190610c33565b60405180910390f35b6101af60048036038101906101aa919061091a565b61084e565b6040516101bc9190610c33565b60405180910390f35b6101cd61086e565b6040516101db929190610ca4565b60405180910390f35b6101ec6108d9565b6040516101f99190610c33565b60405180910390f35b80600154811115610248576040517f08c379a000000000000000000000000000000000000000000000000000000000815260040161023f90610d15565b60405180910390fd5b814260025f8381526020019081526020015f20600101541161029f576040517f08c379a000000000000000000000000000000000000000000000000000000000815260040161029690610d7d565b60405180910390fd5b8260045f8281526020019081526020015f205f3373ffffffffffffffffffffffffffffffffffffffff1673ffffffffffffffffffffffffffffffffffffffff1681526020019081526020015f205f9054906101000a900460ff1615610339576040517f08c379a000000000000000000000000000000000000000000000000000000000815260040161033090610de5565b60405180910390fd5b60025f8581526020019081526020015f206003015f81548092919061035d90610e30565b9190505550600160045f8681526020019081526020015f205f3373ffffffffffffffffffffffffffffffffffffffff1673ffffffffffffffffffffffffffffffffffffffff1681526020019081526020015f205f6101000a81548160ff0219169083151502179055503373ffffffffffffffffffffffffffffffffffffffff167ff96c2f69411bb3382b4317aa45d6825624b91ceeac9ff0d68b911356d1dcf07c8560405161040c9190610c33565b60405180910390a250505050565b6002602052805f5260405f205f91509050805f01805461043990610ea4565b80601f016020809104026020016040519081016040528092919081815260200182805461046590610ea4565b80156104b05780601f10610487576101008083540402835291602001916104b0565b820191905f5260205f20905b81548152906001019060200180831161049357829003601f168201915b505050505090806001015490806002015f9054906101000a900460ff16908060030154905084565b8383905082829050808214610522576040517f08c379a000000000000000000000000000000000000000000000000000000000815260040161051990610f44565b60405180910390fd5b8585905060648082111561056b576040517f08c379a000000000000000000000000000000000000000000000000000000000815260040161056290610fac565b60405180910390fd5b5f5f9054906101000a900473ffffffffffffffffffffffffffffffffffffffff1673ffffffffffffffffffffffffffffffffffffffff163373ffffffffffffffffffffffffffffffffffffffff16146105f9576040517f08c379a00000000000000000000000000000000000000000000000000000000081526004016105f090611014565b60405180910390fd5b5f5f90505b888890508110156107605760015f81548092919061061b90610e30565b919050555060405180608001604052808a8a8481811061063e5761063d611032565b5b9050602002810190610650919061106b565b8080601f0160208091040260200160405190810160405280939291908181526020018383808284375f81840152601f19601f8201169050808301925050505050505081526020018888848181106106aa576106a9611032565b5b90506020020135426106bc91906110cd565b81526020016001151581526020015f81525060025f60015481526020019081526020015f205f820151815f0190816106f491906112de565b50602082015181600101556040820151816002015f6101000a81548160ff021916908315150217905550606082015181600301559050506003600154908060018154018082558091505060019003905f5260205f20015f909190919091505580806001019150506105fe565b505050505050505050565b606060038054806020026020016040519081016040528092919081815260200182805480156107b757602002820191905f5260205f20905b8154815260200190600101908083116107a3575b5050505050905090565b606481565b5f5f9054906101000a900473ffffffffffffffffffffffffffffffffffffffff1681565b5f81600154811115610831576040517f08c379a000000000000000000000000000000000000000000000000000000000815260040161082890610d15565b60405180910390fd5b60025f8481526020019081526020015f2060030154915050919050565b6003818154811061085d575f80fd5b905f5260205f20015f915090505481565b5f5f5f5f90505f5f90505f600190505b6001548110156108cc5760025f8281526020019081526020015f20600301548310156108bf5760025f8281526020019081526020015f206003015492508091505b808060010191505061087e565b5080829350935050509091565b60015481565b5f5ffd5b5f5ffd5b5f819050919050565b6108f9816108e7565b8114610903575f5ffd5b50565b5f81359050610914816108f0565b92915050565b5f6020828403121561092f5761092e6108df565b5b5f61093c84828501610906565b91505092915050565b5f81519050919050565b5f82825260208201905092915050565b8281835e5f83830152505050565b5f601f19601f8301169050919050565b5f61098782610945565b610991818561094f565b93506109a181856020860161095f565b6109aa8161096d565b840191505092915050565b6109be816108e7565b82525050565b5f8115159050919050565b6109d8816109c4565b82525050565b5f6080820190508181035f8301526109f6818761097d565b9050610a0560208301866109b5565b610a1260408301856109cf565b610a1f60608301846109b5565b95945050505050565b5f5ffd5b5f5ffd5b5f5ffd5b5f5f83601f840112610a4957610a48610a28565b5b8235905067ffffffffffffffff811115610a6657610a65610a2c565b5b602083019150836020820283011115610a8257610a81610a30565b5b9250929050565b5f5f83601f840112610a9e57610a9d610a28565b5b8235905067ffffffffffffffff811115610abb57610aba610a2c565b5b602083019150836020820283011115610ad757610ad6610a30565b5b9250929050565b5f5f5f5f60408587031215610af657610af56108df565b5b5f85013567ffffffffffffffff811115610b1357610b126108e3565b5b610b1f87828801610a34565b9450945050602085013567ffffffffffffffff811115610b4257610b416108e3565b5b610b4e87828801610a89565b925092505092959194509250565b5f81519050919050565b5f82825260208201905092915050565b5f819050602082019050919050565b610b8e816108e7565b82525050565b5f610b9f8383610b85565b60208301905092915050565b5f602082019050919050565b5f610bc182610b5c565b610bcb8185610b66565b9350610bd683610b76565b805f5b83811015610c06578151610bed8882610b94565b9750610bf883610bab565b925050600181019050610bd9565b5085935050505092915050565b5f6020820190508181035f830152610c2b8184610bb7565b905092915050565b5f602082019050610c465f8301846109b5565b92915050565b5f73ffffffffffffffffffffffffffffffffffffffff82169050919050565b5f610c7582610c4c565b9050919050565b610c8581610c6b565b82525050565b5f602082019050610c9e5f830184610c7c565b92915050565b5f604082019050610cb75f8301856109b5565b610cc460208301846109b5565b9392505050565b7f50726f706f73616c206e6f7420657869737421000000000000000000000000005f82015250565b5f610cff60138361094f565b9150610d0a82610ccb565b602082019050919050565b5f6020820190508181035f830152610d2c81610cf3565b9050919050565b7f50726f706f73616c2069732045787069726564210000000000000000000000005f82015250565b5f610d6760148361094f565b9150610d7282610d33565b602082019050919050565b5f6020820190508181035f830152610d9481610d5b565b9050919050565b7f416c726561647920766f746564210000000000000000000000000000000000005f82015250565b5f610dcf600e8361094f565b9150610dda82610d9b565b602082019050919050565b5f6020820190508181035f830152610dfc81610dc3565b9050919050565b7f4e487b71000000000000000000000000000000000000000000000000000000005f52601160045260245ffd5b5f610e3a826108e7565b91507fffffffffffffffffffffffffffffffffffffffffffffffffffffffffffffffff8203610e6c57610e6b610e03565b5b600182019050919050565b7f4e487b71000000000000000000000000000000000000000000000000000000005f52602260045260245ffd5b5f6002820490506001821680610ebb57607f821691505b602082108103610ece57610ecd610e77565b5b50919050565b7f44657363726974696f6e7320616e6420646561646c696e6573206c656e6774685f8201527f206e6f74206d6174636821000000000000000000000000000000000000000000602082015250565b5f610f2e602b8361094f565b9150610f3982610ed4565b604082019050919050565b5f6020820190508181035f830152610f5b81610f22565b9050919050565b7f457863656564696e6720746865206d6178696d756d206c696d697421000000005f82015250565b5f610f96601c8361094f565b9150610fa182610f62565b602082019050919050565b5f6020820190508181035f830152610fc381610f8a565b9050919050565b7f4f6e6c79206f776e65722063616e206372656174652070726f706f73616c21005f82015250565b5f610ffe601f8361094f565b915061100982610fca565b602082019050919050565b5f6020820190508181035f83015261102b81610ff2565b9050919050565b7f4e487b71000000000000000000000000000000000000000000000000000000005f52603260045260245ffd5b5f5ffd5b5f5ffd5b5f5ffd5b5f5f833560016020038436030381126110875761108661105f565b5b80840192508235915067ffffffffffffffff8211156110a9576110a8611063565b5b6020830192506001820236038313156110c5576110c4611067565b5b509250929050565b5f6110d7826108e7565b91506110e2836108e7565b92508282019050808211156110fa576110f9610e03565b5b92915050565b7f4e487b71000000000000000000000000000000000000000000000000000000005f52604160045260245ffd5b5f819050815f5260205f209050919050565b5f6020601f8301049050919050565b5f82821b905092915050565b5f600883026111897fffffffffffffffffffffffffffffffffffffffffffffffffffffffffffffffff8261114e565b611193868361114e565b95508019841693508086168417925050509392505050565b5f819050919050565b5f6111ce6111c96111c4846108e7565b6111ab565b6108e7565b9050919050565b5f819050919050565b6111e7836111b4565b6111fb6111f3826111d5565b84845461115a565b825550505050565b5f5f905090565b611212611203565b61121d8184846111de565b505050565b5f5b82811015611243576112385f82840161120a565b600181019050611224565b505050565b601f8211156112965782821115611295576112628161112d565b61126b8361113f565b6112748561113f565b6020861015611281575f90505b80830161129082840382611222565b505050505b5b505050565b5f82821c905092915050565b5f6112b65f198460080261129b565b1980831691505092915050565b5f6112ce83836112a7565b9150826002028217905092915050565b6112e782610945565b67ffffffffffffffff811115611300576112ff611100565b5b61130a8254610ea4565b611315828285611248565b5f60209050601f831160018114611346575f8415611334578287015190505b61133e85826112c3565b8655506113a5565b601f1984166113548661112d565b5f5b8281101561137b57848901518255600182019150602085019450602081019050611356565b868310156113985784890151611394601f8916826112a7565b8355505b6001600288020188555050505b50505050505056fea26469706673582212200b8d71c99f43079a280b16ebc8ae067d13255ebe718bf98f295fb122fe2952c564736f6c63430008220033",
					"opcodes": "PUSH1 0x80 PUSH1 0x40 MSTORE PUSH0 PUSH1 0x1 SSTORE CALLVALUE DUP1 ISZERO PUSH1 0x12 JUMPI PUSH0 PUSH0 REVERT JUMPDEST POP CALLER PUSH0 PUSH0 PUSH2 0x100 EXP DUP2 SLOAD DUP2 PUSH20 0xFFFFFFFFFFFFFFFFFFFFFFFFFFFFFFFFFFFFFFFF MUL NOT AND SWAP1 DUP4 PUSH20 0xFFFFFFFFFFFFFFFFFFFFFFFFFFFFFFFFFFFFFFFF AND MUL OR SWAP1 SSTORE POP PUSH2 0x13E3 DUP1 PUSH2 0x5F PUSH0 CODECOPY PUSH0 RETURN INVALID PUSH1 0x80 PUSH1 0x40 MSTORE CALLVALUE DUP1 ISZERO PUSH2 0xF JUMPI PUSH0 PUSH0 REVERT JUMPDEST POP PUSH1 0x4 CALLDATASIZE LT PUSH2 0x9C JUMPI PUSH0 CALLDATALOAD PUSH1 0xE0 SHR DUP1 PUSH4 0x8DA5CB5B GT PUSH2 0x64 JUMPI DUP1 PUSH4 0x8DA5CB5B EQ PUSH2 0x147 JUMPI DUP1 PUSH4 0xA95B62E3 EQ PUSH2 0x165 JUMPI DUP1 PUSH4 0xD39350AC EQ PUSH2 0x195 JUMPI DUP1 PUSH4 0xD6D36B92 EQ PUSH2 0x1C5 JUMPI DUP1 PUSH4 0xDA35C664 EQ PUSH2 0x1E4 JUMPI PUSH2 0x9C JUMP JUMPDEST DUP1 PUSH4 0x121B93F EQ PUSH2 0xA0 JUMPI DUP1 PUSH4 0x13CF08B EQ PUSH2 0xBC JUMPI DUP1 PUSH4 0x1E3F6082 EQ PUSH2 0xEF JUMPI DUP1 PUSH4 0x53ED5143 EQ PUSH2 0x10B JUMPI DUP1 PUSH4 0x77163C1D EQ PUSH2 0x129 JUMPI JUMPDEST PUSH0 PUSH0 REVERT JUMPDEST PUSH2 0xBA PUSH1 0x4 DUP1 CALLDATASIZE SUB DUP2 ADD SWAP1 PUSH2 0xB5 SWAP2 SWAP1 PUSH2 0x91A JUMP JUMPDEST PUSH2 0x202 JUMP JUMPDEST STOP JUMPDEST PUSH2 0xD6 PUSH1 0x4 DUP1 CALLDATASIZE SUB DUP2 ADD SWAP1 PUSH2 0xD1 SWAP2 SWAP1 PUSH2 0x91A JUMP JUMPDEST PUSH2 0x41A JUMP JUMPDEST PUSH1 0x40 MLOAD PUSH2 0xE6 SWAP5 SWAP4 SWAP3 SWAP2 SWAP1 PUSH2 0x9DE JUMP JUMPDEST PUSH1 0x40 MLOAD DUP1 SWAP2 SUB SWAP1 RETURN JUMPDEST PUSH2 0x109 PUSH1 0x4 DUP1 CALLDATASIZE SUB DUP2 ADD SWAP1 PUSH2 0x104 SWAP2 SWAP1 PUSH2 0xADE JUMP JUMPDEST PUSH2 0x4D8 JUMP JUMPDEST STOP JUMPDEST PUSH2 0x113 PUSH2 0x76B JUMP JUMPDEST PUSH1 0x40 MLOAD PUSH2 0x120 SWAP2 SWAP1 PUSH2 0xC13 JUMP JUMPDEST PUSH1 0x40 MLOAD DUP1 SWAP2 SUB SWAP1 RETURN JUMPDEST PUSH2 0x131 PUSH2 0x7C1 JUMP JUMPDEST PUSH1 0x40 MLOAD PUSH2 0x13E SWAP2 SWAP1 PUSH2 0xC33 JUMP JUMPDEST PUSH1 0x40 MLOAD DUP1 SWAP2 SUB SWAP1 RETURN JUMPDEST PUSH2 0x14F PUSH2 0x7C6 JUMP JUMPDEST PUSH1 0x40 MLOAD PUSH2 0x15C SWAP2 SWAP1 PUSH2 0xC8B JUMP JUMPDEST PUSH1 0x40 MLOAD DUP1 SWAP2 SUB SWAP1 RETURN JUMPDEST PUSH2 0x17F PUSH1 0x4 DUP1 CALLDATASIZE SUB DUP2 ADD SWAP1 PUSH2 0x17A SWAP2 SWAP1 PUSH2 0x91A JUMP JUMPDEST PUSH2 0x7EA JUMP JUMPDEST PUSH1 0x40 MLOAD PUSH2 0x18C SWAP2 SWAP1 PUSH2 0xC33 JUMP JUMPDEST PUSH1 0x40 MLOAD DUP1 SWAP2 SUB SWAP1 RETURN JUMPDEST PUSH2 0x1AF PUSH1 0x4 DUP1 CALLDATASIZE SUB DUP2 ADD SWAP1 PUSH2 0x1AA SWAP2 SWAP1 PUSH2 0x91A JUMP JUMPDEST PUSH2 0x84E JUMP JUMPDEST PUSH1 0x40 MLOAD PUSH2 0x1BC SWAP2 SWAP1 PUSH2 0xC33 JUMP JUMPDEST PUSH1 0x40 MLOAD DUP1 SWAP2 SUB SWAP1 RETURN JUMPDEST PUSH2 0x1CD PUSH2 0x86E JUMP JUMPDEST PUSH1 0x40 MLOAD PUSH2 0x1DB SWAP3 SWAP2 SWAP1 PUSH2 0xCA4 JUMP JUMPDEST PUSH1 0x40 MLOAD DUP1 SWAP2 SUB SWAP1 RETURN JUMPDEST PUSH2 0x1EC PUSH2 0x8D9 JUMP JUMPDEST PUSH1 0x40 MLOAD PUSH2 0x1F9 SWAP2 SWAP1 PUSH2 0xC33 JUMP JUMPDEST PUSH1 0x40 MLOAD DUP1 SWAP2 SUB SWAP1 RETURN JUMPDEST DUP1 PUSH1 0x1 SLOAD DUP2 GT ISZERO PUSH2 0x248 JUMPI PUSH1 0x40 MLOAD PUSH32 0x8C379A000000000000000000000000000000000000000000000000000000000 DUP2 MSTORE PUSH1 0x4 ADD PUSH2 0x23F SWAP1 PUSH2 0xD15 JUMP JUMPDEST PUSH1 0x40 MLOAD DUP1 SWAP2 SUB SWAP1 REVERT JUMPDEST DUP2 TIMESTAMP PUSH1 0x2 PUSH0 DUP4 DUP2 MSTORE PUSH1 0x20 ADD SWAP1 DUP2 MSTORE PUSH1 0x20 ADD PUSH0 KECCAK256 PUSH1 0x1 ADD SLOAD GT PUSH2 0x29F JUMPI PUSH1 0x40 MLOAD PUSH32 0x8C379A000000000000000000000000000000000000000000000000000000000 DUP2 MSTORE PUSH1 0x4 ADD PUSH2 0x296 SWAP1 PUSH2 0xD7D JUMP JUMPDEST PUSH1 0x40 MLOAD DUP1 SWAP2 SUB SWAP1 REVERT JUMPDEST DUP3 PUSH1 0x4 PUSH0 DUP3 DUP2 MSTORE PUSH1 0x20 ADD SWAP1 DUP2 MSTORE PUSH1 0x20 ADD PUSH0 KECCAK256 PUSH0 CALLER PUSH20 0xFFFFFFFFFFFFFFFFFFFFFFFFFFFFFFFFFFFFFFFF AND PUSH20 0xFFFFFFFFFFFFFFFFFFFFFFFFFFFFFFFFFFFFFFFF AND DUP2 MSTORE PUSH1 0x20 ADD SWAP1 DUP2 MSTORE PUSH1 0x20 ADD PUSH0 KECCAK256 PUSH0 SWAP1 SLOAD SWAP1 PUSH2 0x100 EXP SWAP1 DIV PUSH1 0xFF AND ISZERO PUSH2 0x339 JUMPI PUSH1 0x40 MLOAD PUSH32 0x8C379A000000000000000000000000000000000000000000000000000000000 DUP2 MSTORE PUSH1 0x4 ADD PUSH2 0x330 SWAP1 PUSH2 0xDE5 JUMP JUMPDEST PUSH1 0x40 MLOAD DUP1 SWAP2 SUB SWAP1 REVERT JUMPDEST PUSH1 0x2 PUSH0 DUP6 DUP2 MSTORE PUSH1 0x20 ADD SWAP1 DUP2 MSTORE PUSH1 0x20 ADD PUSH0 KECCAK256 PUSH1 0x3 ADD PUSH0 DUP2 SLOAD DUP1 SWAP3 SWAP2 SWAP1 PUSH2 0x35D SWAP1 PUSH2 0xE30 JUMP JUMPDEST SWAP2 SWAP1 POP SSTORE POP PUSH1 0x1 PUSH1 0x4 PUSH0 DUP7 DUP2 MSTORE PUSH1 0x20 ADD SWAP1 DUP2 MSTORE PUSH1 0x20 ADD PUSH0 KECCAK256 PUSH0 CALLER PUSH20 0xFFFFFFFFFFFFFFFFFFFFFFFFFFFFFFFFFFFFFFFF AND PUSH20 0xFFFFFFFFFFFFFFFFFFFFFFFFFFFFFFFFFFFFFFFF AND DUP2 MSTORE PUSH1 0x20 ADD SWAP1 DUP2 MSTORE PUSH1 0x20 ADD PUSH0 KECCAK256 PUSH0 PUSH2 0x100 EXP DUP2 SLOAD DUP2 PUSH1 0xFF MUL NOT AND SWAP1 DUP4 ISZERO ISZERO MUL OR SWAP1 SSTORE POP CALLER PUSH20 0xFFFFFFFFFFFFFFFFFFFFFFFFFFFFFFFFFFFFFFFF AND PUSH32 0xF96C2F69411BB3382B4317AA45D6825624B91CEEAC9FF0D68B911356D1DCF07C DUP6 PUSH1 0x40 MLOAD PUSH2 0x40C SWAP2 SWAP1 PUSH2 0xC33 JUMP JUMPDEST PUSH1 0x40 MLOAD DUP1 SWAP2 SUB SWAP1 LOG2 POP POP POP POP JUMP JUMPDEST PUSH1 0x2 PUSH1 0x20 MSTORE DUP1 PUSH0 MSTORE PUSH1 0x40 PUSH0 KECCAK256 PUSH0 SWAP2 POP SWAP1 POP DUP1 PUSH0 ADD DUP1 SLOAD PUSH2 0x439 SWAP1 PUSH2 0xEA4 JUMP JUMPDEST DUP1 PUSH1 0x1F ADD PUSH1 0x20 DUP1 SWAP2 DIV MUL PUSH1 0x20 ADD PUSH1 0x40 MLOAD SWAP1 DUP2 ADD PUSH1 0x40 MSTORE DUP1 SWAP3 SWAP2 SWAP1 DUP2 DUP2 MSTORE PUSH1 0x20 ADD DUP3 DUP1 SLOAD PUSH2 0x465 SWAP1 PUSH2 0xEA4 JUMP JUMPDEST DUP1 ISZERO PUSH2 0x4B0 JUMPI DUP1 PUSH1 0x1F LT PUSH2 0x487 JUMPI PUSH2 0x100 DUP1 DUP4 SLOAD DIV MUL DUP4 MSTORE SWAP2 PUSH1 0x20 ADD SWAP2 PUSH2 0x4B0 JUMP JUMPDEST DUP3 ADD SWAP2 SWAP1 PUSH0 MSTORE PUSH1 0x20 PUSH0 KECCAK256 SWAP1 JUMPDEST DUP2 SLOAD DUP2 MSTORE SWAP1 PUSH1 0x1 ADD SWAP1 PUSH1 0x20 ADD DUP1 DUP4 GT PUSH2 0x493 JUMPI DUP3 SWAP1 SUB PUSH1 0x1F AND DUP3 ADD SWAP2 JUMPDEST POP POP POP POP POP SWAP1 DUP1 PUSH1 0x1 ADD SLOAD SWAP1 DUP1 PUSH1 0x2 ADD PUSH0 SWAP1 SLOAD SWAP1 PUSH2 0x100 EXP SWAP1 DIV PUSH1 0xFF AND SWAP1 DUP1 PUSH1 0x3 ADD SLOAD SWAP1 POP DUP5 JUMP JUMPDEST DUP4 DUP4 SWAP1 POP DUP3 DUP3 SWAP1 POP DUP1 DUP3 EQ PUSH2 0x522 JUMPI PUSH1 0x40 MLOAD PUSH32 0x8C379A000000000000000000000000000000000000000000000000000000000 DUP2 MSTORE PUSH1 0x4 ADD PUSH2 0x519 SWAP1 PUSH2 0xF44 JUMP JUMPDEST PUSH1 0x40 MLOAD DUP1 SWAP2 SUB SWAP1 REVERT JUMPDEST DUP6 DUP6 SWAP1 POP PUSH1 0x64 DUP1 DUP3 GT ISZERO PUSH2 0x56B JUMPI PUSH1 0x40 MLOAD PUSH32 0x8C379A000000000000000000000000000000000000000000000000000000000 DUP2 MSTORE PUSH1 0x4 ADD PUSH2 0x562 SWAP1 PUSH2 0xFAC JUMP JUMPDEST PUSH1 0x40 MLOAD DUP1 SWAP2 SUB SWAP1 REVERT JUMPDEST PUSH0 PUSH0 SWAP1 SLOAD SWAP1 PUSH2 0x100 EXP SWAP1 DIV PUSH20 0xFFFFFFFFFFFFFFFFFFFFFFFFFFFFFFFFFFFFFFFF AND PUSH20 0xFFFFFFFFFFFFFFFFFFFFFFFFFFFFFFFFFFFFFFFF AND CALLER PUSH20 0xFFFFFFFFFFFFFFFFFFFFFFFFFFFFFFFFFFFFFFFF AND EQ PUSH2 0x5F9 JUMPI PUSH1 0x40 MLOAD PUSH32 0x8C379A000000000000000000000000000000000000000000000000000000000 DUP2 MSTORE PUSH1 0x4 ADD PUSH2 0x5F0 SWAP1 PUSH2 0x1014 JUMP JUMPDEST PUSH1 0x40 MLOAD DUP1 SWAP2 SUB SWAP1 REVERT JUMPDEST PUSH0 PUSH0 SWAP1 POP JUMPDEST DUP9 DUP9 SWAP1 POP DUP2 LT ISZERO PUSH2 0x760 JUMPI PUSH1 0x1 PUSH0 DUP2 SLOAD DUP1 SWAP3 SWAP2 SWAP1 PUSH2 0x61B SWAP1 PUSH2 0xE30 JUMP JUMPDEST SWAP2 SWAP1 POP SSTORE POP PUSH1 0x40 MLOAD DUP1 PUSH1 0x80 ADD PUSH1 0x40 MSTORE DUP1 DUP11 DUP11 DUP5 DUP2 DUP2 LT PUSH2 0x63E JUMPI PUSH2 0x63D PUSH2 0x1032 JUMP JUMPDEST JUMPDEST SWAP1 POP PUSH1 0x20 MUL DUP2 ADD SWAP1 PUSH2 0x650 SWAP2 SWAP1 PUSH2 0x106B JUMP JUMPDEST DUP1 DUP1 PUSH1 0x1F ADD PUSH1 0x20 DUP1 SWAP2 DIV MUL PUSH1 0x20 ADD PUSH1 0x40 MLOAD SWAP1 DUP2 ADD PUSH1 0x40 MSTORE DUP1 SWAP4 SWAP3 SWAP2 SWAP1 DUP2 DUP2 MSTORE PUSH1 0x20 ADD DUP4 DUP4 DUP1 DUP3 DUP5 CALLDATACOPY PUSH0 DUP2 DUP5 ADD MSTORE PUSH1 0x1F NOT PUSH1 0x1F DUP3 ADD AND SWAP1 POP DUP1 DUP4 ADD SWAP3 POP POP POP POP POP POP POP DUP2 MSTORE PUSH1 0x20 ADD DUP9 DUP9 DUP5 DUP2 DUP2 LT PUSH2 0x6AA JUMPI PUSH2 0x6A9 PUSH2 0x1032 JUMP JUMPDEST JUMPDEST SWAP1 POP PUSH1 0x20 MUL ADD CALLDATALOAD TIMESTAMP PUSH2 0x6BC SWAP2 SWAP1 PUSH2 0x10CD JUMP JUMPDEST DUP2 MSTORE PUSH1 0x20 ADD PUSH1 0x1 ISZERO ISZERO DUP2 MSTORE PUSH1 0x20 ADD PUSH0 DUP2 MSTORE POP PUSH1 0x2 PUSH0 PUSH1 0x1 SLOAD DUP2 MSTORE PUSH1 0x20 ADD SWAP1 DUP2 MSTORE PUSH1 0x20 ADD PUSH0 KECCAK256 PUSH0 DUP3 ADD MLOAD DUP2 PUSH0 ADD SWAP1 DUP2 PUSH2 0x6F4 SWAP2 SWAP1 PUSH2 0x12DE JUMP JUMPDEST POP PUSH1 0x20 DUP3 ADD MLOAD DUP2 PUSH1 0x1 ADD SSTORE PUSH1 0x40 DUP3 ADD MLOAD DUP2 PUSH1 0x2 ADD PUSH0 PUSH2 0x100 EXP DUP2 SLOAD DUP2 PUSH1 0xFF MUL NOT AND SWAP1 DUP4 ISZERO ISZERO MUL OR SWAP1 SSTORE POP PUSH1 0x60 DUP3 ADD MLOAD DUP2 PUSH1 0x3 ADD SSTORE SWAP1 POP POP PUSH1 0x3 PUSH1 0x1 SLOAD SWAP1 DUP1 PUSH1 0x1 DUP2 SLOAD ADD DUP1 DUP3 SSTORE DUP1 SWAP2 POP POP PUSH1 0x1 SWAP1 SUB SWAP1 PUSH0 MSTORE PUSH1 0x20 PUSH0 KECCAK256 ADD PUSH0 SWAP1 SWAP2 SWAP1 SWAP2 SWAP1 SWAP2 POP SSTORE DUP1 DUP1 PUSH1 0x1 ADD SWAP2 POP POP PUSH2 0x5FE JUMP JUMPDEST POP POP POP POP POP POP POP POP POP JUMP JUMPDEST PUSH1 0x60 PUSH1 0x3 DUP1 SLOAD DUP1 PUSH1 0x20 MUL PUSH1 0x20 ADD PUSH1 0x40 MLOAD SWAP1 DUP2 ADD PUSH1 0x40 MSTORE DUP1 SWAP3 SWAP2 SWAP1 DUP2 DUP2 MSTORE PUSH1 0x20 ADD DUP3 DUP1 SLOAD DUP1 ISZERO PUSH2 0x7B7 JUMPI PUSH1 0x20 MUL DUP3 ADD SWAP2 SWAP1 PUSH0 MSTORE PUSH1 0x20 PUSH0 KECCAK256 SWAP1 JUMPDEST DUP2 SLOAD DUP2 MSTORE PUSH1 0x20 ADD SWAP1 PUSH1 0x1 ADD SWAP1 DUP1 DUP4 GT PUSH2 0x7A3 JUMPI JUMPDEST POP POP POP POP POP SWAP1 POP SWAP1 JUMP JUMPDEST PUSH1 0x64 DUP2 JUMP JUMPDEST PUSH0 PUSH0 SWAP1 SLOAD SWAP1 PUSH2 0x100 EXP SWAP1 DIV PUSH20 0xFFFFFFFFFFFFFFFFFFFFFFFFFFFFFFFFFFFFFFFF AND DUP2 JUMP JUMPDEST PUSH0 DUP2 PUSH1 0x1 SLOAD DUP2 GT ISZERO PUSH2 0x831 JUMPI PUSH1 0x40 MLOAD PUSH32 0x8C379A000000000000000000000000000000000000000000000000000000000 DUP2 MSTORE PUSH1 0x4 ADD PUSH2 0x828 SWAP1 PUSH2 0xD15 JUMP JUMPDEST PUSH1 0x40 MLOAD DUP1 SWAP2 SUB SWAP1 REVERT JUMPDEST PUSH1 0x2 PUSH0 DUP5 DUP2 MSTORE PUSH1 0x20 ADD SWAP1 DUP2 MSTORE PUSH1 0x20 ADD PUSH0 KECCAK256 PUSH1 0x3 ADD SLOAD SWAP2 POP POP SWAP2 SWAP1 POP JUMP JUMPDEST PUSH1 0x3 DUP2 DUP2 SLOAD DUP2 LT PUSH2 0x85D JUMPI PUSH0 DUP1 REVERT JUMPDEST SWAP1 PUSH0 MSTORE PUSH1 0x20 PUSH0 KECCAK256 ADD PUSH0 SWAP2 POP SWAP1 POP SLOAD DUP2 JUMP JUMPDEST PUSH0 PUSH0 PUSH0 PUSH0 SWAP1 POP PUSH0 PUSH0 SWAP1 POP PUSH0 PUSH1 0x1 SWAP1 POP JUMPDEST PUSH1 0x1 SLOAD DUP2 LT ISZERO PUSH2 0x8CC JUMPI PUSH1 0x2 PUSH0 DUP3 DUP2 MSTORE PUSH1 0x20 ADD SWAP1 DUP2 MSTORE PUSH1 0x20 ADD PUSH0 KECCAK256 PUSH1 0x3 ADD SLOAD DUP4 LT ISZERO PUSH2 0x8BF JUMPI PUSH1 0x2 PUSH0 DUP3 DUP2 MSTORE PUSH1 0x20 ADD SWAP1 DUP2 MSTORE PUSH1 0x20 ADD PUSH0 KECCAK256 PUSH1 0x3 ADD SLOAD SWAP3 POP DUP1 SWAP2 POP JUMPDEST DUP1 DUP1 PUSH1 0x1 ADD SWAP2 POP POP PUSH2 0x87E JUMP JUMPDEST POP DUP1 DUP3 SWAP4 POP SWAP4 POP POP POP SWAP1 SWAP2 JUMP JUMPDEST PUSH1 0x1 SLOAD DUP2 JUMP JUMPDEST PUSH0 PUSH0 REVERT JUMPDEST PUSH0 PUSH0 REVERT JUMPDEST PUSH0 DUP2 SWAP1 POP SWAP2 SWAP1 POP JUMP JUMPDEST PUSH2 0x8F9 DUP2 PUSH2 0x8E7 JUMP JUMPDEST DUP2 EQ PUSH2 0x903 JUMPI PUSH0 PUSH0 REVERT JUMPDEST POP JUMP JUMPDEST PUSH0 DUP2 CALLDATALOAD SWAP1 POP PUSH2 0x914 DUP2 PUSH2 0x8F0 JUMP JUMPDEST SWAP3 SWAP2 POP POP JUMP JUMPDEST PUSH0 PUSH1 0x20 DUP3 DUP5 SUB SLT ISZERO PUSH2 0x92F JUMPI PUSH2 0x92E PUSH2 0x8DF JUMP JUMPDEST JUMPDEST PUSH0 PUSH2 0x93C DUP5 DUP3 DUP6 ADD PUSH2 0x906 JUMP JUMPDEST SWAP2 POP POP SWAP3 SWAP2 POP POP JUMP JUMPDEST PUSH0 DUP2 MLOAD SWAP1 POP SWAP2 SWAP1 POP JUMP JUMPDEST PUSH0 DUP3 DUP3 MSTORE PUSH1 0x20 DUP3 ADD SWAP1 POP SWAP3 SWAP2 POP POP JUMP JUMPDEST DUP3 DUP2 DUP4 MCOPY PUSH0 DUP4 DUP4 ADD MSTORE POP POP POP JUMP JUMPDEST PUSH0 PUSH1 0x1F NOT PUSH1 0x1F DUP4 ADD AND SWAP1 POP SWAP2 SWAP1 POP JUMP JUMPDEST PUSH0 PUSH2 0x987 DUP3 PUSH2 0x945 JUMP JUMPDEST PUSH2 0x991 DUP2 DUP6 PUSH2 0x94F JUMP JUMPDEST SWAP4 POP PUSH2 0x9A1 DUP2 DUP6 PUSH1 0x20 DUP7 ADD PUSH2 0x95F JUMP JUMPDEST PUSH2 0x9AA DUP2 PUSH2 0x96D JUMP JUMPDEST DUP5 ADD SWAP2 POP POP SWAP3 SWAP2 POP POP JUMP JUMPDEST PUSH2 0x9BE DUP2 PUSH2 0x8E7 JUMP JUMPDEST DUP3 MSTORE POP POP JUMP JUMPDEST PUSH0 DUP2 ISZERO ISZERO SWAP1 POP SWAP2 SWAP1 POP JUMP JUMPDEST PUSH2 0x9D8 DUP2 PUSH2 0x9C4 JUMP JUMPDEST DUP3 MSTORE POP POP JUMP JUMPDEST PUSH0 PUSH1 0x80 DUP3 ADD SWAP1 POP DUP2 DUP2 SUB PUSH0 DUP4 ADD MSTORE PUSH2 0x9F6 DUP2 DUP8 PUSH2 0x97D JUMP JUMPDEST SWAP1 POP PUSH2 0xA05 PUSH1 0x20 DUP4 ADD DUP7 PUSH2 0x9B5 JUMP JUMPDEST PUSH2 0xA12 PUSH1 0x40 DUP4 ADD DUP6 PUSH2 0x9CF JUMP JUMPDEST PUSH2 0xA1F PUSH1 0x60 DUP4 ADD DUP5 PUSH2 0x9B5 JUMP JUMPDEST SWAP6 SWAP5 POP POP POP POP POP JUMP JUMPDEST PUSH0 PUSH0 REVERT JUMPDEST PUSH0 PUSH0 REVERT JUMPDEST PUSH0 PUSH0 REVERT JUMPDEST PUSH0 PUSH0 DUP4 PUSH1 0x1F DUP5 ADD SLT PUSH2 0xA49 JUMPI PUSH2 0xA48 PUSH2 0xA28 JUMP JUMPDEST JUMPDEST DUP3 CALLDATALOAD SWAP1 POP PUSH8 0xFFFFFFFFFFFFFFFF DUP2 GT ISZERO PUSH2 0xA66 JUMPI PUSH2 0xA65 PUSH2 0xA2C JUMP JUMPDEST JUMPDEST PUSH1 0x20 DUP4 ADD SWAP2 POP DUP4 PUSH1 0x20 DUP3 MUL DUP4 ADD GT ISZERO PUSH2 0xA82 JUMPI PUSH2 0xA81 PUSH2 0xA30 JUMP JUMPDEST JUMPDEST SWAP3 POP SWAP3 SWAP1 POP JUMP JUMPDEST PUSH0 PUSH0 DUP4 PUSH1 0x1F DUP5 ADD SLT PUSH2 0xA9E JUMPI PUSH2 0xA9D PUSH2 0xA28 JUMP JUMPDEST JUMPDEST DUP3 CALLDATALOAD SWAP1 POP PUSH8 0xFFFFFFFFFFFFFFFF DUP2 GT ISZERO PUSH2 0xABB JUMPI PUSH2 0xABA PUSH2 0xA2C JUMP JUMPDEST JUMPDEST PUSH1 0x20 DUP4 ADD SWAP2 POP DUP4 PUSH1 0x20 DUP3 MUL DUP4 ADD GT ISZERO PUSH2 0xAD7 JUMPI PUSH2 0xAD6 PUSH2 0xA30 JUMP JUMPDEST JUMPDEST SWAP3 POP SWAP3 SWAP1 POP JUMP JUMPDEST PUSH0 PUSH0 PUSH0 PUSH0 PUSH1 0x40 DUP6 DUP8 SUB SLT ISZERO PUSH2 0xAF6 JUMPI PUSH2 0xAF5 PUSH2 0x8DF JUMP JUMPDEST JUMPDEST PUSH0 DUP6 ADD CALLDATALOAD PUSH8 0xFFFFFFFFFFFFFFFF DUP2 GT ISZERO PUSH2 0xB13 JUMPI PUSH2 0xB12 PUSH2 0x8E3 JUMP JUMPDEST JUMPDEST PUSH2 0xB1F DUP8 DUP3 DUP9 ADD PUSH2 0xA34 JUMP JUMPDEST SWAP5 POP SWAP5 POP POP PUSH1 0x20 DUP6 ADD CALLDATALOAD PUSH8 0xFFFFFFFFFFFFFFFF DUP2 GT ISZERO PUSH2 0xB42 JUMPI PUSH2 0xB41 PUSH2 0x8E3 JUMP JUMPDEST JUMPDEST PUSH2 0xB4E DUP8 DUP3 DUP9 ADD PUSH2 0xA89 JUMP JUMPDEST SWAP3 POP SWAP3 POP POP SWAP3 SWAP6 SWAP2 SWAP5 POP SWAP3 POP JUMP JUMPDEST PUSH0 DUP2 MLOAD SWAP1 POP SWAP2 SWAP1 POP JUMP JUMPDEST PUSH0 DUP3 DUP3 MSTORE PUSH1 0x20 DUP3 ADD SWAP1 POP SWAP3 SWAP2 POP POP JUMP JUMPDEST PUSH0 DUP2 SWAP1 POP PUSH1 0x20 DUP3 ADD SWAP1 POP SWAP2 SWAP1 POP JUMP JUMPDEST PUSH2 0xB8E DUP2 PUSH2 0x8E7 JUMP JUMPDEST DUP3 MSTORE POP POP JUMP JUMPDEST PUSH0 PUSH2 0xB9F DUP4 DUP4 PUSH2 0xB85 JUMP JUMPDEST PUSH1 0x20 DUP4 ADD SWAP1 POP SWAP3 SWAP2 POP POP JUMP JUMPDEST PUSH0 PUSH1 0x20 DUP3 ADD SWAP1 POP SWAP2 SWAP1 POP JUMP JUMPDEST PUSH0 PUSH2 0xBC1 DUP3 PUSH2 0xB5C JUMP JUMPDEST PUSH2 0xBCB DUP2 DUP6 PUSH2 0xB66 JUMP JUMPDEST SWAP4 POP PUSH2 0xBD6 DUP4 PUSH2 0xB76 JUMP JUMPDEST DUP1 PUSH0 JUMPDEST DUP4 DUP2 LT ISZERO PUSH2 0xC06 JUMPI DUP2 MLOAD PUSH2 0xBED DUP9 DUP3 PUSH2 0xB94 JUMP JUMPDEST SWAP8 POP PUSH2 0xBF8 DUP4 PUSH2 0xBAB JUMP JUMPDEST SWAP3 POP POP PUSH1 0x1 DUP2 ADD SWAP1 POP PUSH2 0xBD9 JUMP JUMPDEST POP DUP6 SWAP4 POP POP POP POP SWAP3 SWAP2 POP POP JUMP JUMPDEST PUSH0 PUSH1 0x20 DUP3 ADD SWAP1 POP DUP2 DUP2 SUB PUSH0 DUP4 ADD MSTORE PUSH2 0xC2B DUP2 DUP5 PUSH2 0xBB7 JUMP JUMPDEST SWAP1 POP SWAP3 SWAP2 POP POP JUMP JUMPDEST PUSH0 PUSH1 0x20 DUP3 ADD SWAP1 POP PUSH2 0xC46 PUSH0 DUP4 ADD DUP5 PUSH2 0x9B5 JUMP JUMPDEST SWAP3 SWAP2 POP POP JUMP JUMPDEST PUSH0 PUSH20 0xFFFFFFFFFFFFFFFFFFFFFFFFFFFFFFFFFFFFFFFF DUP3 AND SWAP1 POP SWAP2 SWAP1 POP JUMP JUMPDEST PUSH0 PUSH2 0xC75 DUP3 PUSH2 0xC4C JUMP JUMPDEST SWAP1 POP SWAP2 SWAP1 POP JUMP JUMPDEST PUSH2 0xC85 DUP2 PUSH2 0xC6B JUMP JUMPDEST DUP3 MSTORE POP POP JUMP JUMPDEST PUSH0 PUSH1 0x20 DUP3 ADD SWAP1 POP PUSH2 0xC9E PUSH0 DUP4 ADD DUP5 PUSH2 0xC7C JUMP JUMPDEST SWAP3 SWAP2 POP POP JUMP JUMPDEST PUSH0 PUSH1 0x40 DUP3 ADD SWAP1 POP PUSH2 0xCB7 PUSH0 DUP4 ADD DUP6 PUSH2 0x9B5 JUMP JUMPDEST PUSH2 0xCC4 PUSH1 0x20 DUP4 ADD DUP5 PUSH2 0x9B5 JUMP JUMPDEST SWAP4 SWAP3 POP POP POP JUMP JUMPDEST PUSH32 0x50726F706F73616C206E6F742065786973742100000000000000000000000000 PUSH0 DUP3 ADD MSTORE POP JUMP JUMPDEST PUSH0 PUSH2 0xCFF PUSH1 0x13 DUP4 PUSH2 0x94F JUMP JUMPDEST SWAP2 POP PUSH2 0xD0A DUP3 PUSH2 0xCCB JUMP JUMPDEST PUSH1 0x20 DUP3 ADD SWAP1 POP SWAP2 SWAP1 POP JUMP JUMPDEST PUSH0 PUSH1 0x20 DUP3 ADD SWAP1 POP DUP2 DUP2 SUB PUSH0 DUP4 ADD MSTORE PUSH2 0xD2C DUP2 PUSH2 0xCF3 JUMP JUMPDEST SWAP1 POP SWAP2 SWAP1 POP JUMP JUMPDEST PUSH32 0x50726F706F73616C206973204578706972656421000000000000000000000000 PUSH0 DUP3 ADD MSTORE POP JUMP JUMPDEST PUSH0 PUSH2 0xD67 PUSH1 0x14 DUP4 PUSH2 0x94F JUMP JUMPDEST SWAP2 POP PUSH2 0xD72 DUP3 PUSH2 0xD33 JUMP JUMPDEST PUSH1 0x20 DUP3 ADD SWAP1 POP SWAP2 SWAP1 POP JUMP JUMPDEST PUSH0 PUSH1 0x20 DUP3 ADD SWAP1 POP DUP2 DUP2 SUB PUSH0 DUP4 ADD MSTORE PUSH2 0xD94 DUP2 PUSH2 0xD5B JUMP JUMPDEST SWAP1 POP SWAP2 SWAP1 POP JUMP JUMPDEST PUSH32 0x416C726561647920766F74656421000000000000000000000000000000000000 PUSH0 DUP3 ADD MSTORE POP JUMP JUMPDEST PUSH0 PUSH2 0xDCF PUSH1 0xE DUP4 PUSH2 0x94F JUMP JUMPDEST SWAP2 POP PUSH2 0xDDA DUP3 PUSH2 0xD9B JUMP JUMPDEST PUSH1 0x20 DUP3 ADD SWAP1 POP SWAP2 SWAP1 POP JUMP JUMPDEST PUSH0 PUSH1 0x20 DUP3 ADD SWAP1 POP DUP2 DUP2 SUB PUSH0 DUP4 ADD MSTORE PUSH2 0xDFC DUP2 PUSH2 0xDC3 JUMP JUMPDEST SWAP1 POP SWAP2 SWAP1 POP JUMP JUMPDEST PUSH32 0x4E487B7100000000000000000000000000000000000000000000000000000000 PUSH0 MSTORE PUSH1 0x11 PUSH1 0x4 MSTORE PUSH1 0x24 PUSH0 REVERT JUMPDEST PUSH0 PUSH2 0xE3A DUP3 PUSH2 0x8E7 JUMP JUMPDEST SWAP2 POP PUSH32 0xFFFFFFFFFFFFFFFFFFFFFFFFFFFFFFFFFFFFFFFFFFFFFFFFFFFFFFFFFFFFFFFF DUP3 SUB PUSH2 0xE6C JUMPI PUSH2 0xE6B PUSH2 0xE03 JUMP JUMPDEST JUMPDEST PUSH1 0x1 DUP3 ADD SWAP1 POP SWAP2 SWAP1 POP JUMP JUMPDEST PUSH32 0x4E487B7100000000000000000000000000000000000000000000000000000000 PUSH0 MSTORE PUSH1 0x22 PUSH1 0x4 MSTORE PUSH1 0x24 PUSH0 REVERT JUMPDEST PUSH0 PUSH1 0x2 DUP3 DIV SWAP1 POP PUSH1 0x1 DUP3 AND DUP1 PUSH2 0xEBB JUMPI PUSH1 0x7F DUP3 AND SWAP2 POP JUMPDEST PUSH1 0x20 DUP3 LT DUP2 SUB PUSH2 0xECE JUMPI PUSH2 0xECD PUSH2 0xE77 JUMP JUMPDEST JUMPDEST POP SWAP2 SWAP1 POP JUMP JUMPDEST PUSH32 0x44657363726974696F6E7320616E6420646561646C696E6573206C656E677468 PUSH0 DUP3 ADD MSTORE PUSH32 0x206E6F74206D6174636821000000000000000000000000000000000000000000 PUSH1 0x20 DUP3 ADD MSTORE POP JUMP JUMPDEST PUSH0 PUSH2 0xF2E PUSH1 0x2B DUP4 PUSH2 0x94F JUMP JUMPDEST SWAP2 POP PUSH2 0xF39 DUP3 PUSH2 0xED4 JUMP JUMPDEST PUSH1 0x40 DUP3 ADD SWAP1 POP SWAP2 SWAP1 POP JUMP JUMPDEST PUSH0 PUSH1 0x20 DUP3 ADD SWAP1 POP DUP2 DUP2 SUB PUSH0 DUP4 ADD MSTORE PUSH2 0xF5B DUP2 PUSH2 0xF22 JUMP JUMPDEST SWAP1 POP SWAP2 SWAP1 POP JUMP JUMPDEST PUSH32 0x457863656564696E6720746865206D6178696D756D206C696D69742100000000 PUSH0 DUP3 ADD MSTORE POP JUMP JUMPDEST PUSH0 PUSH2 0xF96 PUSH1 0x1C DUP4 PUSH2 0x94F JUMP JUMPDEST SWAP2 POP PUSH2 0xFA1 DUP3 PUSH2 0xF62 JUMP JUMPDEST PUSH1 0x20 DUP3 ADD SWAP1 POP SWAP2 SWAP1 POP JUMP JUMPDEST PUSH0 PUSH1 0x20 DUP3 ADD SWAP1 POP DUP2 DUP2 SUB PUSH0 DUP4 ADD MSTORE PUSH2 0xFC3 DUP2 PUSH2 0xF8A JUMP JUMPDEST SWAP1 POP SWAP2 SWAP1 POP JUMP JUMPDEST PUSH32 0x4F6E6C79206F776E65722063616E206372656174652070726F706F73616C2100 PUSH0 DUP3 ADD MSTORE POP JUMP JUMPDEST PUSH0 PUSH2 0xFFE PUSH1 0x1F DUP4 PUSH2 0x94F JUMP JUMPDEST SWAP2 POP PUSH2 0x1009 DUP3 PUSH2 0xFCA JUMP JUMPDEST PUSH1 0x20 DUP3 ADD SWAP1 POP SWAP2 SWAP1 POP JUMP JUMPDEST PUSH0 PUSH1 0x20 DUP3 ADD SWAP1 POP DUP2 DUP2 SUB PUSH0 DUP4 ADD MSTORE PUSH2 0x102B DUP2 PUSH2 0xFF2 JUMP JUMPDEST SWAP1 POP SWAP2 SWAP1 POP JUMP JUMPDEST PUSH32 0x4E487B7100000000000000000000000000000000000000000000000000000000 PUSH0 MSTORE PUSH1 0x32 PUSH1 0x4 MSTORE PUSH1 0x24 PUSH0 REVERT JUMPDEST PUSH0 PUSH0 REVERT JUMPDEST PUSH0 PUSH0 REVERT JUMPDEST PUSH0 PUSH0 REVERT JUMPDEST PUSH0 PUSH0 DUP4 CALLDATALOAD PUSH1 0x1 PUSH1 0x20 SUB DUP5 CALLDATASIZE SUB SUB DUP2 SLT PUSH2 0x1087 JUMPI PUSH2 0x1086 PUSH2 0x105F JUMP JUMPDEST JUMPDEST DUP1 DUP5 ADD SWAP3 POP DUP3 CALLDATALOAD SWAP2 POP PUSH8 0xFFFFFFFFFFFFFFFF DUP3 GT ISZERO PUSH2 0x10A9 JUMPI PUSH2 0x10A8 PUSH2 0x1063 JUMP JUMPDEST JUMPDEST PUSH1 0x20 DUP4 ADD SWAP3 POP PUSH1 0x1 DUP3 MUL CALLDATASIZE SUB DUP4 SGT ISZERO PUSH2 0x10C5 JUMPI PUSH2 0x10C4 PUSH2 0x1067 JUMP JUMPDEST JUMPDEST POP SWAP3 POP SWAP3 SWAP1 POP JUMP JUMPDEST PUSH0 PUSH2 0x10D7 DUP3 PUSH2 0x8E7 JUMP JUMPDEST SWAP2 POP PUSH2 0x10E2 DUP4 PUSH2 0x8E7 JUMP JUMPDEST SWAP3 POP DUP3 DUP3 ADD SWAP1 POP DUP1 DUP3 GT ISZERO PUSH2 0x10FA JUMPI PUSH2 0x10F9 PUSH2 0xE03 JUMP JUMPDEST JUMPDEST SWAP3 SWAP2 POP POP JUMP JUMPDEST PUSH32 0x4E487B7100000000000000000000000000000000000000000000000000000000 PUSH0 MSTORE PUSH1 0x41 PUSH1 0x4 MSTORE PUSH1 0x24 PUSH0 REVERT JUMPDEST PUSH0 DUP2 SWAP1 POP DUP2 PUSH0 MSTORE PUSH1 0x20 PUSH0 KECCAK256 SWAP1 POP SWAP2 SWAP1 POP JUMP JUMPDEST PUSH0 PUSH1 0x20 PUSH1 0x1F DUP4 ADD DIV SWAP1 POP SWAP2 SWAP1 POP JUMP JUMPDEST PUSH0 DUP3 DUP3 SHL SWAP1 POP SWAP3 SWAP2 POP POP JUMP JUMPDEST PUSH0 PUSH1 0x8 DUP4 MUL PUSH2 0x1189 PUSH32 0xFFFFFFFFFFFFFFFFFFFFFFFFFFFFFFFFFFFFFFFFFFFFFFFFFFFFFFFFFFFFFFFF DUP3 PUSH2 0x114E JUMP JUMPDEST PUSH2 0x1193 DUP7 DUP4 PUSH2 0x114E JUMP JUMPDEST SWAP6 POP DUP1 NOT DUP5 AND SWAP4 POP DUP1 DUP7 AND DUP5 OR SWAP3 POP POP POP SWAP4 SWAP3 POP POP POP JUMP JUMPDEST PUSH0 DUP2 SWAP1 POP SWAP2 SWAP1 POP JUMP JUMPDEST PUSH0 PUSH2 0x11CE PUSH2 0x11C9 PUSH2 0x11C4 DUP5 PUSH2 0x8E7 JUMP JUMPDEST PUSH2 0x11AB JUMP JUMPDEST PUSH2 0x8E7 JUMP JUMPDEST SWAP1 POP SWAP2 SWAP1 POP JUMP JUMPDEST PUSH0 DUP2 SWAP1 POP SWAP2 SWAP1 POP JUMP JUMPDEST PUSH2 0x11E7 DUP4 PUSH2 0x11B4 JUMP JUMPDEST PUSH2 0x11FB PUSH2 0x11F3 DUP3 PUSH2 0x11D5 JUMP JUMPDEST DUP5 DUP5 SLOAD PUSH2 0x115A JUMP JUMPDEST DUP3 SSTORE POP POP POP POP JUMP JUMPDEST PUSH0 PUSH0 SWAP1 POP SWAP1 JUMP JUMPDEST PUSH2 0x1212 PUSH2 0x1203 JUMP JUMPDEST PUSH2 0x121D DUP2 DUP5 DUP5 PUSH2 0x11DE JUMP JUMPDEST POP POP POP JUMP JUMPDEST PUSH0 JUMPDEST DUP3 DUP2 LT ISZERO PUSH2 0x1243 JUMPI PUSH2 0x1238 PUSH0 DUP3 DUP5 ADD PUSH2 0x120A JUMP JUMPDEST PUSH1 0x1 DUP2 ADD SWAP1 POP PUSH2 0x1224 JUMP JUMPDEST POP POP POP JUMP JUMPDEST PUSH1 0x1F DUP3 GT ISZERO PUSH2 0x1296 JUMPI DUP3 DUP3 GT ISZERO PUSH2 0x1295 JUMPI PUSH2 0x1262 DUP2 PUSH2 0x112D JUMP JUMPDEST PUSH2 0x126B DUP4 PUSH2 0x113F JUMP JUMPDEST PUSH2 0x1274 DUP6 PUSH2 0x113F JUMP JUMPDEST PUSH1 0x20 DUP7 LT ISZERO PUSH2 0x1281 JUMPI PUSH0 SWAP1 POP JUMPDEST DUP1 DUP4 ADD PUSH2 0x1290 DUP3 DUP5 SUB DUP3 PUSH2 0x1222 JUMP JUMPDEST POP POP POP POP JUMPDEST JUMPDEST POP POP POP JUMP JUMPDEST PUSH0 DUP3 DUP3 SHR SWAP1 POP SWAP3 SWAP2 POP POP JUMP JUMPDEST PUSH0 PUSH2 0x12B6 PUSH0 NOT DUP5 PUSH1 0x8 MUL PUSH2 0x129B JUMP JUMPDEST NOT DUP1 DUP4 AND SWAP2 POP POP SWAP3 SWAP2 POP POP JUMP JUMPDEST PUSH0 PUSH2 0x12CE DUP4 DUP4 PUSH2 0x12A7 JUMP JUMPDEST SWAP2 POP DUP3 PUSH1 0x2 MUL DUP3 OR SWAP1 POP SWAP3 SWAP2 POP POP JUMP JUMPDEST PUSH2 0x12E7 DUP3 PUSH2 0x945 JUMP JUMPDEST PUSH8 0xFFFFFFFFFFFFFFFF DUP2 GT ISZERO PUSH2 0x1300 JUMPI PUSH2 0x12FF PUSH2 0x1100 JUMP JUMPDEST JUMPDEST PUSH2 0x130A DUP3 SLOAD PUSH2 0xEA4 JUMP JUMPDEST PUSH2 0x1315 DUP3 DUP3 DUP6 PUSH2 0x1248 JUMP JUMPDEST PUSH0 PUSH1 0x20 SWAP1 POP PUSH1 0x1F DUP4 GT PUSH1 0x1 DUP2 EQ PUSH2 0x1346 JUMPI PUSH0 DUP5 ISZERO PUSH2 0x1334 JUMPI DUP3 DUP8 ADD MLOAD SWAP1 POP JUMPDEST PUSH2 0x133E DUP6 DUP3 PUSH2 0x12C3 JUMP JUMPDEST DUP7 SSTORE POP PUSH2 0x13A5 JUMP JUMPDEST PUSH1 0x1F NOT DUP5 AND PUSH2 0x1354 DUP7 PUSH2 0x112D JUMP JUMPDEST PUSH0 JUMPDEST DUP3 DUP2 LT ISZERO PUSH2 0x137B JUMPI DUP5 DUP10 ADD MLOAD DUP3 SSTORE PUSH1 0x1 DUP3 ADD SWAP2 POP PUSH1 0x20 DUP6 ADD SWAP5 POP PUSH1 0x20 DUP2 ADD SWAP1 POP PUSH2 0x1356 JUMP JUMPDEST DUP7 DUP4 LT ISZERO PUSH2 0x1398 JUMPI DUP5 DUP10 ADD MLOAD PUSH2 0x1394 PUSH1 0x1F DUP10 AND DUP3 PUSH2 0x12A7 JUMP JUMPDEST DUP4 SSTORE POP JUMPDEST PUSH1 0x1 PUSH1 0x2 DUP9 MUL ADD DUP9 SSTORE POP POP POP JUMPDEST POP POP POP POP POP POP JUMP INVALID LOG2 PUSH5 0x6970667358 0x22 SLT KECCAK256 SIGNEXTEND DUP14 PUSH18 0xC99F43079A280B16EBC8AE067D13255EBE71 DUP12 EXTDELEGATECALL DUP16 0x29 PUSH0 0xB1 0x22 INVALID 0x29 MSTORE 0xC5 PUSH5 0x736F6C6343 STOP ADDMOD 0x22 STOP CALLER "
				},
				"gasEstimates": {
					"creation": {
						"codeDepositCost": "1018200",
						"executionCost": "30328",
						"totalCost": "1048528"
					},
					"external": {
						"MAX_COUNT()": "414",
						"createProposals(string[],uint256[])": "infinite",
						"getAll()": "infinite",
						"getVoteInformation(uint256)": "infinite",
						"getWin()": "infinite",
						"owner()": "2507",
						"pIds(uint256)": "infinite",
						"proposalCount()": "2513",
						"proposals(uint256)": "infinite",
						"vote(uint256)": "infinite"
					}
				},
				"methodIdentifiers": {
					"MAX_COUNT()": "77163c1d",
					"createProposals(string[],uint256[])": "1e3f6082",
					"getAll()": "53ed5143",
					"getVoteInformation(uint256)": "a95b62e3",
					"getWin()": "d6d36b92",
					"owner()": "8da5cb5b",
					"pIds(uint256)": "d39350ac",
					"proposalCount()": "da35c664",
					"proposals(uint256)": "013cf08b",
					"vote(uint256)": "0121b93f"
				}
			},
			"storageLayout": {
				"storage": [
					{
						"astId": 13,
						"contract": "lession4.1-Control/VotingSystem.sol:VotingSystem",
						"label": "owner",
						"offset": 0,
						"slot": "0",
						"type": "t_address"
					},
					{
						"astId": 16,
						"contract": "lession4.1-Control/VotingSystem.sol:VotingSystem",
						"label": "proposalCount",
						"offset": 0,
						"slot": "1",
						"type": "t_uint256"
					},
					{
						"astId": 21,
						"contract": "lession4.1-Control/VotingSystem.sol:VotingSystem",
						"label": "proposals",
						"offset": 0,
						"slot": "2",
						"type": "t_mapping(t_uint256,t_struct(Proposal)11_storage)"
					},
					{
						"astId": 24,
						"contract": "lession4.1-Control/VotingSystem.sol:VotingSystem",
						"label": "pIds",
						"offset": 0,
						"slot": "3",
						"type": "t_array(t_uint256)dyn_storage"
					},
					{
						"astId": 30,
						"contract": "lession4.1-Control/VotingSystem.sol:VotingSystem",
						"label": "proposalRes",
						"offset": 0,
						"slot": "4",
						"type": "t_mapping(t_uint256,t_mapping(t_address,t_bool))"
					}
				],
				"types": {
					"t_address": {
						"encoding": "inplace",
						"label": "address",
						"numberOfBytes": "20"
					},
					"t_array(t_uint256)dyn_storage": {
						"base": "t_uint256",
						"encoding": "dynamic_array",
						"label": "uint256[]",
						"numberOfBytes": "32"
					},
					"t_bool": {
						"encoding": "inplace",
						"label": "bool",
						"numberOfBytes": "1"
					},
					"t_mapping(t_address,t_bool)": {
						"encoding": "mapping",
						"key": "t_address",
						"label": "mapping(address => bool)",
						"numberOfBytes": "32",
						"value": "t_bool"
					},
					"t_mapping(t_uint256,t_mapping(t_address,t_bool))": {
						"encoding": "mapping",
						"key": "t_uint256",
						"label": "mapping(uint256 => mapping(address => bool))",
						"numberOfBytes": "32",
						"value": "t_mapping(t_address,t_bool)"
					},
					"t_mapping(t_uint256,t_struct(Proposal)11_storage)": {
						"encoding": "mapping",
						"key": "t_uint256",
						"label": "mapping(uint256 => struct VotingSystem.Proposal)",
						"numberOfBytes": "32",
						"value": "t_struct(Proposal)11_storage"
					},
					"t_string_storage": {
						"encoding": "bytes",
						"label": "string",
						"numberOfBytes": "32"
					},
					"t_struct(Proposal)11_storage": {
						"encoding": "inplace",
						"label": "struct VotingSystem.Proposal",
						"members": [
							{
								"astId": 4,
								"contract": "lession4.1-Control/VotingSystem.sol:VotingSystem",
								"label": "description",
								"offset": 0,
								"slot": "0",
								"type": "t_string_storage"
							},
							{
								"astId": 6,
								"contract": "lession4.1-Control/VotingSystem.sol:VotingSystem",
								"label": "deadline",
								"offset": 0,
								"slot": "1",
								"type": "t_uint256"
							},
							{
								"astId": 8,
								"contract": "lession4.1-Control/VotingSystem.sol:VotingSystem",
								"label": "exisit",
								"offset": 0,
								"slot": "2",
								"type": "t_bool"
							},
							{
								"astId": 10,
								"contract": "lession4.1-Control/VotingSystem.sol:VotingSystem",
								"label": "voteCount",
								"offset": 0,
								"slot": "3",
								"type": "t_uint256"
							}
						],
						"numberOfBytes": "128"
					},
					"t_uint256": {
						"encoding": "inplace",
						"label": "uint256",
						"numberOfBytes": "32"
					}
				}
			},
			"userdoc": {
				"kind": "user",
				"methods": {},
				"notice": "需求： 创建⼀个完整的投票系统： 1. ⽀持创建多个提案 2. 每个提案有截⽌时间 3. 只有owner可以创建提案 4. 每个地址只能投⼀次票 5. 可以查询投票结果 6. 可以获取获胜提案",
				"version": 1
			}
		}
	}
}