{
	"lession3.1/TodoList.sol": {
		"TodoList": {
			"abi": [
				{
					"anonymous": false,
					"inputs": [
						{
							"indexed": true,
							"internalType": "address",
							"name": "user",
							"type": "address"
						},
						{
							"indexed": false,
							"internalType": "uint256",
							"name": "index",
							"type": "uint256"
						},
						{
							"indexed": false,
							"internalType": "string",
							"name": "task",
							"type": "string"
						}
					],
					"name": "TodoAdded",
					"type": "event"
				},
				{
					"anonymous": false,
					"inputs": [
						{
							"indexed": true,
							"internalType": "address",
							"name": "user",
							"type": "address"
						},
						{
							"indexed": false,
							"internalType": "uint256",
							"name": "index",
							"type": "uint256"
						}
					],
					"name": "TodoCompleted",
					"type": "event"
				},
				{
					"anonymous": false,
					"inputs": [
						{
							"indexed": true,
							"internalType": "address",
							"name": "user",
							"type": "address"
						},
						{
							"indexed": false,
							"internalType": "uint256",
							"name": "index",
							"type": "uint256"
						}
					],
					"name": "TodoDeleted",
					"type": "event"
				},
				{
					"inputs": [],
					"name": "MAX_TODOLIST",
					"outputs": [
						{
							"internalType": "uint256",
							"name": "",
							"type": "uint256"
						}
					],
					"stateMutability": "view",
					"type": "function"
				},
				{
					"inputs": [
						{
							"internalType": "string",
							"name": "task",
							"type": "string"
						}
					],
					"name": "addTodo",
					"outputs": [],
					"stateMutability": "nonpayable",
					"type": "function"
				},
				{
					"inputs": [
						{
							"internalType": "uint256",
							"name": "index",
							"type": "uint256"
						}
					],
					"name": "completeTodo",
					"outputs": [],
					"stateMutability": "nonpayable",
					"type": "function"
				},
				{
					"inputs": [
						{
							"internalType": "uint256",
							"name": "index",
							"type": "uint256"
						}
					],
					"name": "deleteTodo",
					"outputs": [],
					"stateMutability": "nonpayable",
					"type": "function"
				},
				{
					"inputs": [],
					"name": "getAllTodos",
					"outputs": [
						{
							"components": [
								{
									"internalType": "string",
									"name": "task",
									"type": "string"
								},
								{
									"internalType": "bool",
									"name": "completed",
									"type": "bool"
								},
								{
									"internalType": "uint256",
									"name": "timestamp",
									"type": "uint256"
								}
							],
							"internalType": "struct TodoList.Todo[]",
							"name": "",
							"type": "tuple[]"
						}
					],
					"stateMutability": "view",
					"type": "function"
				},
				{
					"inputs": [],
					"name": "getCompletedTodos",
					"outputs": [
						{
							"components": [
								{
									"internalType": "string",
									"name": "task",
									"type": "string"
								},
								{
									"internalType": "bool",
									"name": "completed",
									"type": "bool"
								},
								{
									"internalType": "uint256",
									"name": "timestamp",
									"type": "uint256"
								}
							],
							"internalType": "struct TodoList.Todo[]",
							"name": "",
							"type": "tuple[]"
						}
					],
					"stateMutability": "view",
					"type": "function"
				},
				{
					"inputs": [],
					"name": "getPendingTodos",
					"outputs": [
						{
							"components": [
								{
									"internalType": "string",
									"name": "task",
									"type": "string"
								},
								{
									"internalType": "bool",
									"name": "completed",
									"type": "bool"
								},
								{
									"internalType": "uint256",
									"name": "timestamp",
									"type": "uint256"
								}
							],
							"internalType": "struct TodoList.Todo[]",
							"name": "",
							"type": "tuple[]"
						}
					],
					"stateMutability": "view",
					"type": "function"
				},
				{
					"inputs": [],
					"name": "getTodoCount",
					"outputs": [
						{
							"internalType": "uint256",
							"name": "",
							"type": "uint256"
						}
					],
					"stateMutability": "view",
					"type": "function"
				}
			],
			"devdoc": {
				"kind": "dev",
				"methods": {},
				"version": 1
			},
			"evm": {
				"assembly": "    /* \"lession3.1/TodoList.sol\":290:4067  contract TodoList {... */\n  mstore(0x40, 0x80)\n  callvalue\n  dup1\n  iszero\n  tag_1\n  jumpi\n  revert(0x00, 0x00)\ntag_1:\n  pop\n  dataSize(sub_0)\n  dup1\n  dataOffset(sub_0)\n  0x00\n  codecopy\n  0x00\n  return\nstop\n\nsub_0: assembly {\n        /* \"lession3.1/TodoList.sol\":290:4067  contract TodoList {... */\n      mstore(0x40, 0x80)\n      callvalue\n      dup1\n      iszero\n      tag_1\n      jumpi\n      revert(0x00, 0x00)\n    tag_1:\n      pop\n      jumpi(tag_2, lt(calldatasize, 0x04))\n      shr(0xe0, calldataload(0x00))\n      dup1\n      0x8ad7ab7a\n      gt\n      tag_11\n      jumpi\n      dup1\n      0x8ad7ab7a\n      eq\n      tag_7\n      jumpi\n      dup1\n      0x95ffebf5\n      eq\n      tag_8\n      jumpi\n      dup1\n      0xce2bd5d5\n      eq\n      tag_9\n      jumpi\n      dup1\n      0xd7ba3d0a\n      eq\n      tag_10\n      jumpi\n      jump(tag_2)\n    tag_11:\n      dup1\n      0x104a7cd8\n      eq\n      tag_3\n      jumpi\n      dup1\n      0x10d41e82\n      eq\n      tag_4\n      jumpi\n      dup1\n      0x20fe2144\n      eq\n      tag_5\n      jumpi\n      dup1\n      0x6e3c6738\n      eq\n      tag_6\n      jumpi\n    tag_2:\n      revert(0x00, 0x00)\n        /* \"lession3.1/TodoList.sol\":2380:2485  function getTodoCount() public view returns (uint) {... */\n    tag_3:\n      tag_12\n      tag_13\n      jump\t// in\n    tag_12:\n      mload(0x40)\n      tag_14\n      swap2\n      swap1\n      tag_15\n      jump\t// in\n    tag_14:\n      mload(0x40)\n      dup1\n      swap2\n      sub\n      swap1\n      return\n        /* \"lession3.1/TodoList.sol\":3318:4064  function getCompletedTodos() public view returns (Todo[] memory) {... */\n    tag_4:\n      tag_16\n      tag_17\n      jump\t// in\n    tag_16:\n      mload(0x40)\n      tag_18\n      swap2\n      swap1\n      tag_19\n      jump\t// in\n    tag_18:\n      mload(0x40)\n      dup1\n      swap2\n      sub\n      swap1\n      return\n        /* \"lession3.1/TodoList.sol\":1359:1689  function completeTodo(uint index) public  {... */\n    tag_5:\n      tag_20\n      0x04\n      dup1\n      calldatasize\n      sub\n      dup2\n      add\n      swap1\n      tag_21\n      swap2\n      swap1\n      tag_22\n      jump\t// in\n    tag_21:\n      tag_23\n      jump\t// in\n    tag_20:\n      stop\n        /* \"lession3.1/TodoList.sol\":1740:2206  function deleteTodo(uint index) public  {... */\n    tag_6:\n      tag_24\n      0x04\n      dup1\n      calldatasize\n      sub\n      dup2\n      add\n      swap1\n      tag_25\n      swap2\n      swap1\n      tag_22\n      jump\t// in\n    tag_25:\n      tag_26\n      jump\t// in\n    tag_24:\n      stop\n        /* \"lession3.1/TodoList.sol\":503:542  uint public constant MAX_TODOLIST = 100 */\n    tag_7:\n      tag_27\n      tag_28\n      jump\t// in\n    tag_27:\n      mload(0x40)\n      tag_29\n      swap2\n      swap1\n      tag_15\n      jump\t// in\n    tag_29:\n      mload(0x40)\n      dup1\n      swap2\n      sub\n      swap1\n      return\n        /* \"lession3.1/TodoList.sol\":757:1327  function addTodo(string memory task) public {... */\n    tag_8:\n      tag_30\n      0x04\n      dup1\n      calldatasize\n      sub\n      dup2\n      add\n      swap1\n      tag_31\n      swap2\n      swap1\n      tag_32\n      jump\t// in\n    tag_31:\n      tag_33\n      jump\t// in\n    tag_30:\n      stop\n        /* \"lession3.1/TodoList.sol\":2241:2345  function getAllTodos() public view returns(Todo[] memory){... */\n    tag_9:\n      tag_34\n      tag_35\n      jump\t// in\n    tag_34:\n      mload(0x40)\n      tag_36\n      swap2\n      swap1\n      tag_19\n      jump\t// in\n    tag_36:\n      mload(0x40)\n      dup1\n      swap2\n      sub\n      swap1\n      return\n        /* \"lession3.1/TodoList.sol\":2526:3277  function getPendingTodos() public view returns(Todo[] memory) {... */\n    tag_10:\n      tag_37\n      tag_38\n      jump\t// in\n    tag_37:\n      mload(0x40)\n      tag_39\n      swap2\n      swap1\n      tag_19\n      jump\t// in\n    tag_39:\n      mload(0x40)\n      dup1\n      swap2\n      sub\n      swap1\n      return\n        /* \"lession3.1/TodoList.sol\":2380:2485  function getTodoCount() public view returns (uint) {... */\n    tag_13:\n        /* \"lession3.1/TodoList.sol\":2425:2429  uint */\n      0x00\n        /* \"lession3.1/TodoList.sol\":2449:2458  userTodos */\n      0x00\n        /* \"lession3.1/TodoList.sol\":2449:2470  userTodos[msg.sender] */\n      0x00\n        /* \"lession3.1/TodoList.sol\":2459:2469  msg.sender */\n      caller\n        /* \"lession3.1/TodoList.sol\":2449:2470  userTodos[msg.sender] */\n      0xffffffffffffffffffffffffffffffffffffffff\n      and\n      0xffffffffffffffffffffffffffffffffffffffff\n      and\n      dup2\n      mstore\n      0x20\n      add\n      swap1\n      dup2\n      mstore\n      0x20\n      add\n      0x00\n      keccak256\n        /* \"lession3.1/TodoList.sol\":2449:2477  userTodos[msg.sender].length */\n      dup1\n      sload\n      swap1\n      pop\n        /* \"lession3.1/TodoList.sol\":2442:2477  return userTodos[msg.sender].length */\n      swap1\n      pop\n        /* \"lession3.1/TodoList.sol\":2380:2485  function getTodoCount() public view returns (uint) {... */\n      swap1\n      jump\t// out\n        /* \"lession3.1/TodoList.sol\":3318:4064  function getCompletedTodos() public view returns (Todo[] memory) {... */\n    tag_17:\n        /* \"lession3.1/TodoList.sol\":3368:3381  Todo[] memory */\n      0x60\n        /* \"lession3.1/TodoList.sol\":3461:3473  address user */\n      0x00\n        /* \"lession3.1/TodoList.sol\":3476:3486  msg.sender */\n      caller\n        /* \"lession3.1/TodoList.sol\":3461:3486  address user = msg.sender */\n      swap1\n      pop\n        /* \"lession3.1/TodoList.sol\":3497:3519  Todo[] memory allTodos */\n      0x00\n        /* \"lession3.1/TodoList.sol\":3522:3531  userTodos */\n      0x00\n        /* \"lession3.1/TodoList.sol\":3522:3537  userTodos[user] */\n      0x00\n        /* \"lession3.1/TodoList.sol\":3532:3536  user */\n      dup4\n        /* \"lession3.1/TodoList.sol\":3522:3537  userTodos[user] */\n      0xffffffffffffffffffffffffffffffffffffffff\n      and\n      0xffffffffffffffffffffffffffffffffffffffff\n      and\n      dup2\n      mstore\n      0x20\n      add\n      swap1\n      dup2\n      mstore\n      0x20\n      add\n      0x00\n      keccak256\n        /* \"lession3.1/TodoList.sol\":3497:3537  Todo[] memory allTodos = userTodos[user] */\n      dup1\n      sload\n      dup1\n      0x20\n      mul\n      0x20\n      add\n      mload(0x40)\n      swap1\n      dup2\n      add\n      0x40\n      mstore\n      dup1\n      swap3\n      swap2\n      swap1\n      dup2\n      dup2\n      mstore\n      0x20\n      add\n      0x00\n      swap1\n    tag_42:\n      dup3\n      dup3\n      lt\n      iszero\n      tag_43\n      jumpi\n      dup4\n      dup3\n      swap1\n      0x00\n      mstore\n      keccak256(0x00, 0x20)\n      swap1\n      0x03\n      mul\n      add\n      mload(0x40)\n      dup1\n      0x60\n      add\n      0x40\n      mstore\n      swap1\n      dup2\n      0x00\n      dup3\n      add\n      dup1\n      sload\n      tag_45\n      swap1\n      tag_46\n      jump\t// in\n    tag_45:\n      dup1\n      0x1f\n      add\n      0x20\n      dup1\n      swap2\n      div\n      mul\n      0x20\n      add\n      mload(0x40)\n      swap1\n      dup2\n      add\n      0x40\n      mstore\n      dup1\n      swap3\n      swap2\n      swap1\n      dup2\n      dup2\n      mstore\n      0x20\n      add\n      dup3\n      dup1\n      sload\n      tag_47\n      swap1\n      tag_46\n      jump\t// in\n    tag_47:\n      dup1\n      iszero\n      tag_48\n      jumpi\n      dup1\n      0x1f\n      lt\n      tag_49\n      jumpi\n      0x0100\n      dup1\n      dup4\n      sload\n      div\n      mul\n      dup4\n      mstore\n      swap2\n      0x20\n      add\n      swap2\n      jump(tag_48)\n    tag_49:\n      dup3\n      add\n      swap2\n      swap1\n      0x00\n      mstore\n      keccak256(0x00, 0x20)\n      swap1\n    tag_50:\n      dup2\n      sload\n      dup2\n      mstore\n      swap1\n      0x01\n      add\n      swap1\n      0x20\n      add\n      dup1\n      dup4\n      gt\n      tag_50\n      jumpi\n      dup3\n      swap1\n      sub\n      0x1f\n      and\n      dup3\n      add\n      swap2\n    tag_48:\n      pop\n      pop\n      pop\n      pop\n      pop\n      dup2\n      mstore\n      0x20\n      add\n      0x01\n      dup3\n      add\n      0x00\n      swap1\n      sload\n      swap1\n      0x0100\n      exp\n      swap1\n      div\n      0xff\n      and\n      iszero\n      iszero\n      iszero\n      iszero\n      dup2\n      mstore\n      0x20\n      add\n      0x02\n      dup3\n      add\n      sload\n      dup2\n      mstore\n      pop\n      pop\n      dup2\n      mstore\n      0x20\n      add\n      swap1\n      0x01\n      add\n      swap1\n      jump(tag_42)\n    tag_43:\n      pop\n      pop\n      pop\n      pop\n      swap1\n      pop\n        /* \"lession3.1/TodoList.sol\":3548:3556  uint len */\n      0x00\n        /* \"lession3.1/TodoList.sol\":3559:3567  allTodos */\n      dup2\n        /* \"lession3.1/TodoList.sol\":3559:3574  allTodos.length */\n      mload\n        /* \"lession3.1/TodoList.sol\":3548:3574  uint len = allTodos.length */\n      swap1\n      pop\n        /* \"lession3.1/TodoList.sol\":3587:3597  uint count */\n      0x00\n        /* \"lession3.1/TodoList.sol\":3600:3601  0 */\n      0x00\n        /* \"lession3.1/TodoList.sol\":3587:3601  uint count = 0 */\n      swap1\n      pop\n        /* \"lession3.1/TodoList.sol\":3627:3633  uint i */\n      0x00\n        /* \"lession3.1/TodoList.sol\":3636:3637  0 */\n      0x00\n        /* \"lession3.1/TodoList.sol\":3627:3637  uint i = 0 */\n      swap1\n      pop\n        /* \"lession3.1/TodoList.sol\":3622:3748  for (uint i = 0; i < len; i++) {... */\n    tag_51:\n        /* \"lession3.1/TodoList.sol\":3643:3646  len */\n      dup3\n        /* \"lession3.1/TodoList.sol\":3639:3640  i */\n      dup2\n        /* \"lession3.1/TodoList.sol\":3639:3646  i < len */\n      lt\n        /* \"lession3.1/TodoList.sol\":3622:3748  for (uint i = 0; i < len; i++) {... */\n      iszero\n      tag_52\n      jumpi\n        /* \"lession3.1/TodoList.sol\":3672:3680  allTodos */\n      dup4\n        /* \"lession3.1/TodoList.sol\":3681:3682  i */\n      dup2\n        /* \"lession3.1/TodoList.sol\":3672:3683  allTodos[i] */\n      dup2\n      mload\n      dup2\n      lt\n      tag_54\n      jumpi\n      tag_55\n      tag_56\n      jump\t// in\n    tag_55:\n    tag_54:\n      0x20\n      mul\n      0x20\n      add\n      add\n      mload\n        /* \"lession3.1/TodoList.sol\":3672:3693  allTodos[i].completed */\n      0x20\n      add\n      mload\n        /* \"lession3.1/TodoList.sol\":3668:3737  if (allTodos[i].completed) {... */\n      iszero\n      tag_57\n      jumpi\n        /* \"lession3.1/TodoList.sol\":3714:3721  count++ */\n      dup2\n      dup1\n      tag_58\n      swap1\n      tag_59\n      jump\t// in\n    tag_58:\n      swap3\n      pop\n      pop\n        /* \"lession3.1/TodoList.sol\":3668:3737  if (allTodos[i].completed) {... */\n    tag_57:\n        /* \"lession3.1/TodoList.sol\":3648:3651  i++ */\n      dup1\n      dup1\n      0x01\n      add\n      swap2\n      pop\n      pop\n        /* \"lession3.1/TodoList.sol\":3622:3748  for (uint i = 0; i < len; i++) {... */\n      jump(tag_51)\n    tag_52:\n      pop\n        /* \"lession3.1/TodoList.sol\":3760:3784  Todo[] memory completeds */\n      0x00\n        /* \"lession3.1/TodoList.sol\":3798:3803  count */\n      dup2\n        /* \"lession3.1/TodoList.sol\":3787:3804  new Todo[](count) */\n      0xffffffffffffffff\n      dup2\n      gt\n      iszero\n      tag_60\n      jumpi\n      tag_61\n      tag_62\n      jump\t// in\n    tag_61:\n    tag_60:\n      mload(0x40)\n      swap1\n      dup1\n      dup3\n      mstore\n      dup1\n      0x20\n      mul\n      0x20\n      add\n      dup3\n      add\n      0x40\n      mstore\n      dup1\n      iszero\n      tag_63\n      jumpi\n      dup2\n      0x20\n      add\n    tag_64:\n      tag_65\n      tag_66\n      jump\t// in\n    tag_65:\n      dup2\n      mstore\n      0x20\n      add\n      swap1\n      0x01\n      swap1\n      sub\n      swap1\n      dup2\n      tag_64\n      jumpi\n      swap1\n      pop\n    tag_63:\n      pop\n        /* \"lession3.1/TodoList.sol\":3760:3804  Todo[] memory completeds = new Todo[](count) */\n      swap1\n      pop\n        /* \"lession3.1/TodoList.sol\":3815:3825  uint index */\n      0x00\n        /* \"lession3.1/TodoList.sol\":3828:3829  0 */\n      0x00\n        /* \"lession3.1/TodoList.sol\":3815:3829  uint index = 0 */\n      swap1\n      pop\n        /* \"lession3.1/TodoList.sol\":3845:3851  uint i */\n      0x00\n        /* \"lession3.1/TodoList.sol\":3854:3855  0 */\n      0x00\n        /* \"lession3.1/TodoList.sol\":3845:3855  uint i = 0 */\n      swap1\n      pop\n        /* \"lession3.1/TodoList.sol\":3840:4029  for (uint i = 0; i < len; i++) ... */\n    tag_67:\n        /* \"lession3.1/TodoList.sol\":3861:3864  len */\n      dup5\n        /* \"lession3.1/TodoList.sol\":3857:3858  i */\n      dup2\n        /* \"lession3.1/TodoList.sol\":3857:3864  i < len */\n      lt\n        /* \"lession3.1/TodoList.sol\":3840:4029  for (uint i = 0; i < len; i++) ... */\n      iszero\n      tag_68\n      jumpi\n        /* \"lession3.1/TodoList.sol\":3900:3908  allTodos */\n      dup6\n        /* \"lession3.1/TodoList.sol\":3909:3910  i */\n      dup2\n        /* \"lession3.1/TodoList.sol\":3900:3911  allTodos[i] */\n      dup2\n      mload\n      dup2\n      lt\n      tag_70\n      jumpi\n      tag_71\n      tag_56\n      jump\t// in\n    tag_71:\n    tag_70:\n      0x20\n      mul\n      0x20\n      add\n      add\n      mload\n        /* \"lession3.1/TodoList.sol\":3900:3921  allTodos[i].completed */\n      0x20\n      add\n      mload\n        /* \"lession3.1/TodoList.sol\":3896:4015  if (allTodos[i].completed) {... */\n      iszero\n      tag_72\n      jumpi\n        /* \"lession3.1/TodoList.sol\":3962:3970  allTodos */\n      dup6\n        /* \"lession3.1/TodoList.sol\":3971:3972  i */\n      dup2\n        /* \"lession3.1/TodoList.sol\":3962:3973  allTodos[i] */\n      dup2\n      mload\n      dup2\n      lt\n      tag_73\n      jumpi\n      tag_74\n      tag_56\n      jump\t// in\n    tag_74:\n    tag_73:\n      0x20\n      mul\n      0x20\n      add\n      add\n      mload\n        /* \"lession3.1/TodoList.sol\":3942:3952  completeds */\n      dup4\n        /* \"lession3.1/TodoList.sol\":3953:3958  index */\n      dup4\n        /* \"lession3.1/TodoList.sol\":3942:3959  completeds[index] */\n      dup2\n      mload\n      dup2\n      lt\n      tag_75\n      jumpi\n      tag_76\n      tag_56\n      jump\t// in\n    tag_76:\n    tag_75:\n      0x20\n      mul\n      0x20\n      add\n      add\n        /* \"lession3.1/TodoList.sol\":3942:3973  completeds[index] = allTodos[i] */\n      dup2\n      swap1\n      mstore\n      pop\n        /* \"lession3.1/TodoList.sol\":3992:3999  index++ */\n      dup2\n      dup1\n      tag_77\n      swap1\n      tag_59\n      jump\t// in\n    tag_77:\n      swap3\n      pop\n      pop\n        /* \"lession3.1/TodoList.sol\":3896:4015  if (allTodos[i].completed) {... */\n    tag_72:\n        /* \"lession3.1/TodoList.sol\":3866:3869  i++ */\n      dup1\n      dup1\n      0x01\n      add\n      swap2\n      pop\n      pop\n        /* \"lession3.1/TodoList.sol\":3840:4029  for (uint i = 0; i < len; i++) ... */\n      jump(tag_67)\n    tag_68:\n      pop\n        /* \"lession3.1/TodoList.sol\":4046:4056  completeds */\n      dup2\n        /* \"lession3.1/TodoList.sol\":4039:4056  return completeds */\n      swap7\n      pop\n      pop\n      pop\n      pop\n      pop\n      pop\n      pop\n        /* \"lession3.1/TodoList.sol\":3318:4064  function getCompletedTodos() public view returns (Todo[] memory) {... */\n      swap1\n      jump\t// out\n        /* \"lession3.1/TodoList.sol\":1359:1689  function completeTodo(uint index) public  {... */\n    tag_23:\n        /* \"lession3.1/TodoList.sol\":1412:1424  address user */\n      0x00\n        /* \"lession3.1/TodoList.sol\":1427:1437  msg.sender */\n      caller\n        /* \"lession3.1/TodoList.sol\":1412:1437  address user = msg.sender */\n      swap1\n      pop\n        /* \"lession3.1/TodoList.sol\":1464:1473  userTodos */\n      0x00\n        /* \"lession3.1/TodoList.sol\":1464:1479  userTodos[user] */\n      0x00\n        /* \"lession3.1/TodoList.sol\":1474:1478  user */\n      dup3\n        /* \"lession3.1/TodoList.sol\":1464:1479  userTodos[user] */\n      0xffffffffffffffffffffffffffffffffffffffff\n      and\n      0xffffffffffffffffffffffffffffffffffffffff\n      and\n      dup2\n      mstore\n      0x20\n      add\n      swap1\n      dup2\n      mstore\n      0x20\n      add\n      0x00\n      keccak256\n        /* \"lession3.1/TodoList.sol\":1464:1486  userTodos[user].length */\n      dup1\n      sload\n      swap1\n      pop\n        /* \"lession3.1/TodoList.sol\":1456:1461  index */\n      dup3\n        /* \"lession3.1/TodoList.sol\":1456:1486  index < userTodos[user].length */\n      lt\n        /* \"lession3.1/TodoList.sol\":1448:1511  require(index < userTodos[user].length, \"Index out of bounds!\") */\n      tag_79\n      jumpi\n      mload(0x40)\n      0x08c379a000000000000000000000000000000000000000000000000000000000\n      dup2\n      mstore\n      0x04\n      add\n      tag_80\n      swap1\n      tag_81\n      jump\t// in\n    tag_80:\n      mload(0x40)\n      dup1\n      swap2\n      sub\n      swap1\n      revert\n    tag_79:\n        /* \"lession3.1/TodoList.sol\":1531:1540  userTodos */\n      0x00\n        /* \"lession3.1/TodoList.sol\":1531:1546  userTodos[user] */\n      0x00\n        /* \"lession3.1/TodoList.sol\":1541:1545  user */\n      dup3\n        /* \"lession3.1/TodoList.sol\":1531:1546  userTodos[user] */\n      0xffffffffffffffffffffffffffffffffffffffff\n      and\n      0xffffffffffffffffffffffffffffffffffffffff\n      and\n      dup2\n      mstore\n      0x20\n      add\n      swap1\n      dup2\n      mstore\n      0x20\n      add\n      0x00\n      keccak256\n        /* \"lession3.1/TodoList.sol\":1547:1552  index */\n      dup3\n        /* \"lession3.1/TodoList.sol\":1531:1553  userTodos[user][index] */\n      dup2\n      sload\n      dup2\n      lt\n      tag_82\n      jumpi\n      tag_83\n      tag_56\n      jump\t// in\n    tag_83:\n    tag_82:\n      swap1\n      0x00\n      mstore\n      keccak256(0x00, 0x20)\n      swap1\n      0x03\n      mul\n      add\n        /* \"lession3.1/TodoList.sol\":1531:1563  userTodos[user][index].completed */\n      0x01\n      add\n      0x00\n      swap1\n      sload\n      swap1\n      0x0100\n      exp\n      swap1\n      div\n      0xff\n      and\n        /* \"lession3.1/TodoList.sol\":1530:1563  !userTodos[user][index].completed */\n      iszero\n        /* \"lession3.1/TodoList.sol\":1522:1586  require(!userTodos[user][index].completed, \"Already completed!\") */\n      tag_85\n      jumpi\n      mload(0x40)\n      0x08c379a000000000000000000000000000000000000000000000000000000000\n      dup2\n      mstore\n      0x04\n      add\n      tag_86\n      swap1\n      tag_87\n      jump\t// in\n    tag_86:\n      mload(0x40)\n      dup1\n      swap2\n      sub\n      swap1\n      revert\n    tag_85:\n        /* \"lession3.1/TodoList.sol\":1634:1638  true */\n      0x01\n        /* \"lession3.1/TodoList.sol\":1599:1608  userTodos */\n      0x00\n        /* \"lession3.1/TodoList.sol\":1599:1614  userTodos[user] */\n      0x00\n        /* \"lession3.1/TodoList.sol\":1609:1613  user */\n      dup4\n        /* \"lession3.1/TodoList.sol\":1599:1614  userTodos[user] */\n      0xffffffffffffffffffffffffffffffffffffffff\n      and\n      0xffffffffffffffffffffffffffffffffffffffff\n      and\n      dup2\n      mstore\n      0x20\n      add\n      swap1\n      dup2\n      mstore\n      0x20\n      add\n      0x00\n      keccak256\n        /* \"lession3.1/TodoList.sol\":1615:1620  index */\n      dup4\n        /* \"lession3.1/TodoList.sol\":1599:1621  userTodos[user][index] */\n      dup2\n      sload\n      dup2\n      lt\n      tag_88\n      jumpi\n      tag_89\n      tag_56\n      jump\t// in\n    tag_89:\n    tag_88:\n      swap1\n      0x00\n      mstore\n      keccak256(0x00, 0x20)\n      swap1\n      0x03\n      mul\n      add\n        /* \"lession3.1/TodoList.sol\":1599:1631  userTodos[user][index].completed */\n      0x01\n      add\n      0x00\n        /* \"lession3.1/TodoList.sol\":1599:1638  userTodos[user][index].completed = true */\n      0x0100\n      exp\n      dup2\n      sload\n      dup2\n      0xff\n      mul\n      not\n      and\n      swap1\n      dup4\n      iszero\n      iszero\n      mul\n      or\n      swap1\n      sstore\n      pop\n        /* \"lession3.1/TodoList.sol\":1668:1672  user */\n      dup1\n        /* \"lession3.1/TodoList.sol\":1654:1680  TodoCompleted(user, index) */\n      0xffffffffffffffffffffffffffffffffffffffff\n      and\n      0x67ded622a190b565ce61203d9279a5c28931773c0919bf91ce964f6cd909e9b4\n        /* \"lession3.1/TodoList.sol\":1674:1679  index */\n      dup4\n        /* \"lession3.1/TodoList.sol\":1654:1680  TodoCompleted(user, index) */\n      mload(0x40)\n      tag_91\n      swap2\n      swap1\n      tag_15\n      jump\t// in\n    tag_91:\n      mload(0x40)\n      dup1\n      swap2\n      sub\n      swap1\n      log2\n        /* \"lession3.1/TodoList.sol\":1401:1689  {... */\n      pop\n        /* \"lession3.1/TodoList.sol\":1359:1689  function completeTodo(uint index) public  {... */\n      pop\n      jump\t// out\n        /* \"lession3.1/TodoList.sol\":1740:2206  function deleteTodo(uint index) public  {... */\n    tag_26:\n        /* \"lession3.1/TodoList.sol\":1791:1803  address user */\n      0x00\n        /* \"lession3.1/TodoList.sol\":1806:1816  msg.sender */\n      caller\n        /* \"lession3.1/TodoList.sol\":1791:1816  address user = msg.sender */\n      swap1\n      pop\n        /* \"lession3.1/TodoList.sol\":1827:1835  uint len */\n      0x00\n        /* \"lession3.1/TodoList.sol\":1838:1847  userTodos */\n      0x00\n        /* \"lession3.1/TodoList.sol\":1838:1853  userTodos[user] */\n      0x00\n        /* \"lession3.1/TodoList.sol\":1848:1852  user */\n      dup4\n        /* \"lession3.1/TodoList.sol\":1838:1853  userTodos[user] */\n      0xffffffffffffffffffffffffffffffffffffffff\n      and\n      0xffffffffffffffffffffffffffffffffffffffff\n      and\n      dup2\n      mstore\n      0x20\n      add\n      swap1\n      dup2\n      mstore\n      0x20\n      add\n      0x00\n      keccak256\n        /* \"lession3.1/TodoList.sol\":1838:1860  userTodos[user].length */\n      dup1\n      sload\n      swap1\n      pop\n        /* \"lession3.1/TodoList.sol\":1827:1860  uint len = userTodos[user].length */\n      swap1\n      pop\n        /* \"lession3.1/TodoList.sol\":1887:1890  len */\n      dup1\n        /* \"lession3.1/TodoList.sol\":1879:1884  index */\n      dup4\n        /* \"lession3.1/TodoList.sol\":1879:1890  index < len */\n      lt\n        /* \"lession3.1/TodoList.sol\":1871:1915  require(index < len, \"Index out of bounds!\") */\n      tag_93\n      jumpi\n      mload(0x40)\n      0x08c379a000000000000000000000000000000000000000000000000000000000\n      dup2\n      mstore\n      0x04\n      add\n      tag_94\n      swap1\n      tag_81\n      jump\t// in\n    tag_94:\n      mload(0x40)\n      dup1\n      swap2\n      sub\n      swap1\n      revert\n    tag_93:\n        /* \"lession3.1/TodoList.sol\":2046:2047  1 */\n      0x01\n        /* \"lession3.1/TodoList.sol\":2040:2043  len */\n      dup2\n        /* \"lession3.1/TodoList.sol\":2040:2047  len - 1 */\n      tag_95\n      swap2\n      swap1\n      tag_96\n      jump\t// in\n    tag_95:\n        /* \"lession3.1/TodoList.sol\":2031:2036  index */\n      dup4\n        /* \"lession3.1/TodoList.sol\":2031:2047  index != len - 1 */\n      eq\n        /* \"lession3.1/TodoList.sol\":2027:2125  if (index != len - 1) {... */\n      tag_97\n      jumpi\n        /* \"lession3.1/TodoList.sol\":2089:2098  userTodos */\n      0x00\n        /* \"lession3.1/TodoList.sol\":2089:2104  userTodos[user] */\n      0x00\n        /* \"lession3.1/TodoList.sol\":2099:2103  user */\n      dup4\n        /* \"lession3.1/TodoList.sol\":2089:2104  userTodos[user] */\n      0xffffffffffffffffffffffffffffffffffffffff\n      and\n      0xffffffffffffffffffffffffffffffffffffffff\n      and\n      dup2\n      mstore\n      0x20\n      add\n      swap1\n      dup2\n      mstore\n      0x20\n      add\n      0x00\n      keccak256\n        /* \"lession3.1/TodoList.sol\":2111:2112  1 */\n      0x01\n        /* \"lession3.1/TodoList.sol\":2105:2108  len */\n      dup3\n        /* \"lession3.1/TodoList.sol\":2105:2112  len - 1 */\n      tag_98\n      swap2\n      swap1\n      tag_96\n      jump\t// in\n    tag_98:\n        /* \"lession3.1/TodoList.sol\":2089:2113  userTodos[user][len - 1] */\n      dup2\n      sload\n      dup2\n      lt\n      tag_99\n      jumpi\n      tag_100\n      tag_56\n      jump\t// in\n    tag_100:\n    tag_99:\n      swap1\n      0x00\n      mstore\n      keccak256(0x00, 0x20)\n      swap1\n      0x03\n      mul\n      add\n        /* \"lession3.1/TodoList.sol\":2064:2073  userTodos */\n      0x00\n        /* \"lession3.1/TodoList.sol\":2064:2079  userTodos[user] */\n      0x00\n        /* \"lession3.1/TodoList.sol\":2074:2078  user */\n      dup5\n        /* \"lession3.1/TodoList.sol\":2064:2079  userTodos[user] */\n      0xffffffffffffffffffffffffffffffffffffffff\n      and\n      0xffffffffffffffffffffffffffffffffffffffff\n      and\n      dup2\n      mstore\n      0x20\n      add\n      swap1\n      dup2\n      mstore\n      0x20\n      add\n      0x00\n      keccak256\n        /* \"lession3.1/TodoList.sol\":2080:2085  index */\n      dup5\n        /* \"lession3.1/TodoList.sol\":2064:2086  userTodos[user][index] */\n      dup2\n      sload\n      dup2\n      lt\n      tag_102\n      jumpi\n      tag_103\n      tag_56\n      jump\t// in\n    tag_103:\n    tag_102:\n      swap1\n      0x00\n      mstore\n      keccak256(0x00, 0x20)\n      swap1\n      0x03\n      mul\n      add\n        /* \"lession3.1/TodoList.sol\":2064:2113  userTodos[user][index] = userTodos[user][len - 1] */\n      0x00\n      dup3\n      add\n      dup2\n      0x00\n      add\n      swap1\n      dup2\n      tag_105\n      swap2\n      swap1\n      tag_106\n      jump\t// in\n    tag_105:\n      pop\n      0x01\n      dup3\n      add\n      0x00\n      swap1\n      sload\n      swap1\n      0x0100\n      exp\n      swap1\n      div\n      0xff\n      and\n      dup2\n      0x01\n      add\n      exp(0x0100, 0x00)\n      dup2\n      sload\n      dup2\n      0xff\n      mul\n      not\n      and\n      swap1\n      dup4\n      iszero\n      iszero\n      mul\n      or\n      swap1\n      sstore\n      pop\n      0x02\n      dup3\n      add\n      sload\n      dup2\n      0x02\n      add\n      sstore\n      swap1\n      pop\n      pop\n        /* \"lession3.1/TodoList.sol\":2027:2125  if (index != len - 1) {... */\n    tag_97:\n        /* \"lession3.1/TodoList.sol\":2135:2144  userTodos */\n      0x00\n        /* \"lession3.1/TodoList.sol\":2135:2150  userTodos[user] */\n      0x00\n        /* \"lession3.1/TodoList.sol\":2145:2149  user */\n      dup4\n        /* \"lession3.1/TodoList.sol\":2135:2150  userTodos[user] */\n      0xffffffffffffffffffffffffffffffffffffffff\n      and\n      0xffffffffffffffffffffffffffffffffffffffff\n      and\n      dup2\n      mstore\n      0x20\n      add\n      swap1\n      dup2\n      mstore\n      0x20\n      add\n      0x00\n      keccak256\n        /* \"lession3.1/TodoList.sol\":2135:2156  userTodos[user].pop() */\n      dup1\n      sload\n      dup1\n      tag_107\n      jumpi\n      tag_108\n      tag_109\n      jump\t// in\n    tag_108:\n    tag_107:\n      0x01\n      swap1\n      sub\n      dup2\n      dup2\n      swap1\n      0x00\n      mstore\n      keccak256(0x00, 0x20)\n      swap1\n      0x03\n      mul\n      add\n      0x00\n      0x00\n      dup3\n      add\n      0x00\n      tag_111\n      swap2\n      swap1\n      tag_112\n      jump\t// in\n    tag_111:\n      0x01\n      dup3\n      add\n      exp(0x0100, 0x00)\n      dup2\n      sload\n      swap1\n      0xff\n      mul\n      not\n      and\n      swap1\n      sstore\n      0x02\n      dup3\n      add\n      0x00\n      swap1\n      sstore\n      pop\n      pop\n      swap1\n      sstore\n        /* \"lession3.1/TodoList.sol\":2186:2190  user */\n      dup2\n        /* \"lession3.1/TodoList.sol\":2174:2198  TodoDeleted(user, index) */\n      0xffffffffffffffffffffffffffffffffffffffff\n      and\n      0x24d84cd6bd5cc33dafa556a214e7d9e1b4fccca98b3e7d1413909e4710f02ff3\n        /* \"lession3.1/TodoList.sol\":2192:2197  index */\n      dup5\n        /* \"lession3.1/TodoList.sol\":2174:2198  TodoDeleted(user, index) */\n      mload(0x40)\n      tag_113\n      swap2\n      swap1\n      tag_15\n      jump\t// in\n    tag_113:\n      mload(0x40)\n      dup1\n      swap2\n      sub\n      swap1\n      log2\n        /* \"lession3.1/TodoList.sol\":1780:2206  {... */\n      pop\n      pop\n        /* \"lession3.1/TodoList.sol\":1740:2206  function deleteTodo(uint index) public  {... */\n      pop\n      jump\t// out\n        /* \"lession3.1/TodoList.sol\":503:542  uint public constant MAX_TODOLIST = 100 */\n    tag_28:\n        /* \"lession3.1/TodoList.sol\":539:542  100 */\n      0x64\n        /* \"lession3.1/TodoList.sol\":503:542  uint public constant MAX_TODOLIST = 100 */\n      dup2\n      jump\t// out\n        /* \"lession3.1/TodoList.sol\":757:1327  function addTodo(string memory task) public {... */\n    tag_33:\n        /* \"lession3.1/TodoList.sol\":872:873  0 */\n      0x00\n        /* \"lession3.1/TodoList.sol\":857:861  task */\n      dup2\n        /* \"lession3.1/TodoList.sol\":851:869  bytes(task).length */\n      mload\n        /* \"lession3.1/TodoList.sol\":851:873  bytes(task).length > 0 */\n      gt\n        /* \"lession3.1/TodoList.sol\":843:899  require(bytes(task).length > 0, \"Task cannot be empty!\") */\n      tag_115\n      jumpi\n      mload(0x40)\n      0x08c379a000000000000000000000000000000000000000000000000000000000\n      dup2\n      mstore\n      0x04\n      add\n      tag_116\n      swap1\n      tag_117\n      jump\t// in\n    tag_116:\n      mload(0x40)\n      dup1\n      swap2\n      sub\n      swap1\n      revert\n    tag_115:\n        /* \"lession3.1/TodoList.sol\":940:943  200 */\n      0xc8\n        /* \"lession3.1/TodoList.sol\":924:928  task */\n      dup2\n        /* \"lession3.1/TodoList.sol\":918:936  bytes(task).length */\n      mload\n        /* \"lession3.1/TodoList.sol\":918:943  bytes(task).length <= 200 */\n      gt\n      iszero\n        /* \"lession3.1/TodoList.sol\":910:961  require(bytes(task).length <= 200, \"Task too long\") */\n      tag_118\n      jumpi\n      mload(0x40)\n      0x08c379a000000000000000000000000000000000000000000000000000000000\n      dup2\n      mstore\n      0x04\n      add\n      tag_119\n      swap1\n      tag_120\n      jump\t// in\n    tag_119:\n      mload(0x40)\n      dup1\n      swap2\n      sub\n      swap1\n      revert\n    tag_118:\n        /* \"lession3.1/TodoList.sol\":972:984  address user */\n      0x00\n        /* \"lession3.1/TodoList.sol\":987:997  msg.sender */\n      caller\n        /* \"lession3.1/TodoList.sol\":972:997  address user = msg.sender */\n      swap1\n      pop\n        /* \"lession3.1/TodoList.sol\":539:542  100 */\n      0x64\n        /* \"lession3.1/TodoList.sol\":1016:1025  userTodos */\n      0x00\n        /* \"lession3.1/TodoList.sol\":1016:1031  userTodos[user] */\n      0x00\n        /* \"lession3.1/TodoList.sol\":1026:1030  user */\n      dup4\n        /* \"lession3.1/TodoList.sol\":1016:1031  userTodos[user] */\n      0xffffffffffffffffffffffffffffffffffffffff\n      and\n      0xffffffffffffffffffffffffffffffffffffffff\n      and\n      dup2\n      mstore\n      0x20\n      add\n      swap1\n      dup2\n      mstore\n      0x20\n      add\n      0x00\n      keccak256\n        /* \"lession3.1/TodoList.sol\":1016:1038  userTodos[user].length */\n      dup1\n      sload\n      swap1\n      pop\n        /* \"lession3.1/TodoList.sol\":1016:1054  userTodos[user].length <= MAX_TODOLIST */\n      gt\n      iszero\n        /* \"lession3.1/TodoList.sol\":1008:1078  require(userTodos[user].length <= MAX_TODOLIST, \"To do list is full!\") */\n      tag_121\n      jumpi\n      mload(0x40)\n      0x08c379a000000000000000000000000000000000000000000000000000000000\n      dup2\n      mstore\n      0x04\n      add\n      tag_122\n      swap1\n      tag_123\n      jump\t// in\n    tag_122:\n      mload(0x40)\n      dup1\n      swap2\n      sub\n      swap1\n      revert\n    tag_121:\n        /* \"lession3.1/TodoList.sol\":1116:1125  userTodos */\n      0x00\n        /* \"lession3.1/TodoList.sol\":1116:1131  userTodos[user] */\n      0x00\n        /* \"lession3.1/TodoList.sol\":1126:1130  user */\n      dup3\n        /* \"lession3.1/TodoList.sol\":1116:1131  userTodos[user] */\n      0xffffffffffffffffffffffffffffffffffffffff\n      and\n      0xffffffffffffffffffffffffffffffffffffffff\n      and\n      dup2\n      mstore\n      0x20\n      add\n      swap1\n      dup2\n      mstore\n      0x20\n      add\n      0x00\n      keccak256\n        /* \"lession3.1/TodoList.sol\":1137:1251  Todo({... */\n      mload(0x40)\n      dup1\n      0x60\n      add\n      0x40\n      mstore\n      dup1\n        /* \"lession3.1/TodoList.sol\":1163:1167  task */\n      dup5\n        /* \"lession3.1/TodoList.sol\":1137:1251  Todo({... */\n      dup2\n      mstore\n      0x20\n      add\n        /* \"lession3.1/TodoList.sol\":1193:1198  false */\n      0x00\n        /* \"lession3.1/TodoList.sol\":1137:1251  Todo({... */\n      iszero\n      iszero\n      dup2\n      mstore\n      0x20\n      add\n        /* \"lession3.1/TodoList.sol\":1224:1239  block.timestamp */\n      timestamp\n        /* \"lession3.1/TodoList.sol\":1137:1251  Todo({... */\n      dup2\n      mstore\n      pop\n        /* \"lession3.1/TodoList.sol\":1116:1252  userTodos[user].push(Todo({... */\n      swap1\n      dup1\n      0x01\n      dup2\n      sload\n      add\n      dup1\n      dup3\n      sstore\n      dup1\n      swap2\n      pop\n      pop\n      0x01\n      swap1\n      sub\n      swap1\n      0x00\n      mstore\n      keccak256(0x00, 0x20)\n      swap1\n      0x03\n      mul\n      add\n      0x00\n      swap1\n      swap2\n      swap1\n      swap2\n      swap1\n      swap2\n      pop\n      0x00\n      dup3\n      add\n      mload\n      dup2\n      0x00\n      add\n      swap1\n      dup2\n      tag_125\n      swap2\n      swap1\n      tag_126\n      jump\t// in\n    tag_125:\n      pop\n      0x20\n      dup3\n      add\n      mload\n      dup2\n      0x01\n      add\n      exp(0x0100, 0x00)\n      dup2\n      sload\n      dup2\n      0xff\n      mul\n      not\n      and\n      swap1\n      dup4\n      iszero\n      iszero\n      mul\n      or\n      swap1\n      sstore\n      pop\n      0x40\n      dup3\n      add\n      mload\n      dup2\n      0x02\n      add\n      sstore\n      pop\n      pop\n        /* \"lession3.1/TodoList.sol\":1280:1284  user */\n      dup1\n        /* \"lession3.1/TodoList.sol\":1270:1319  TodoAdded(user, userTodos[user].length - 1, task) */\n      0xffffffffffffffffffffffffffffffffffffffff\n      and\n      0x1d7303a9da3d6d58ee2b1b1a7d6676848e0b02914499b48678bb7dff079a0150\n        /* \"lession3.1/TodoList.sol\":1311:1312  1 */\n      0x01\n        /* \"lession3.1/TodoList.sol\":1286:1295  userTodos */\n      0x00\n        /* \"lession3.1/TodoList.sol\":1286:1301  userTodos[user] */\n      0x00\n        /* \"lession3.1/TodoList.sol\":1296:1300  user */\n      dup6\n        /* \"lession3.1/TodoList.sol\":1286:1301  userTodos[user] */\n      0xffffffffffffffffffffffffffffffffffffffff\n      and\n      0xffffffffffffffffffffffffffffffffffffffff\n      and\n      dup2\n      mstore\n      0x20\n      add\n      swap1\n      dup2\n      mstore\n      0x20\n      add\n      0x00\n      keccak256\n        /* \"lession3.1/TodoList.sol\":1286:1308  userTodos[user].length */\n      dup1\n      sload\n      swap1\n      pop\n        /* \"lession3.1/TodoList.sol\":1286:1312  userTodos[user].length - 1 */\n      tag_127\n      swap2\n      swap1\n      tag_96\n      jump\t// in\n    tag_127:\n        /* \"lession3.1/TodoList.sol\":1314:1318  task */\n      dup5\n        /* \"lession3.1/TodoList.sol\":1270:1319  TodoAdded(user, userTodos[user].length - 1, task) */\n      mload(0x40)\n      tag_128\n      swap3\n      swap2\n      swap1\n      tag_129\n      jump\t// in\n    tag_128:\n      mload(0x40)\n      dup1\n      swap2\n      sub\n      swap1\n      log2\n        /* \"lession3.1/TodoList.sol\":801:1327  {... */\n      pop\n        /* \"lession3.1/TodoList.sol\":757:1327  function addTodo(string memory task) public {... */\n      pop\n      jump\t// out\n        /* \"lession3.1/TodoList.sol\":2241:2345  function getAllTodos() public view returns(Todo[] memory){... */\n    tag_35:\n        /* \"lession3.1/TodoList.sol\":2284:2297  Todo[] memory */\n      0x60\n        /* \"lession3.1/TodoList.sol\":2316:2325  userTodos */\n      0x00\n        /* \"lession3.1/TodoList.sol\":2316:2337  userTodos[msg.sender] */\n      0x00\n        /* \"lession3.1/TodoList.sol\":2326:2336  msg.sender */\n      caller\n        /* \"lession3.1/TodoList.sol\":2316:2337  userTodos[msg.sender] */\n      0xffffffffffffffffffffffffffffffffffffffff\n      and\n      0xffffffffffffffffffffffffffffffffffffffff\n      and\n      dup2\n      mstore\n      0x20\n      add\n      swap1\n      dup2\n      mstore\n      0x20\n      add\n      0x00\n      keccak256\n        /* \"lession3.1/TodoList.sol\":2309:2337  return userTodos[msg.sender] */\n      dup1\n      sload\n      dup1\n      0x20\n      mul\n      0x20\n      add\n      mload(0x40)\n      swap1\n      dup2\n      add\n      0x40\n      mstore\n      dup1\n      swap3\n      swap2\n      swap1\n      dup2\n      dup2\n      mstore\n      0x20\n      add\n      0x00\n      swap1\n    tag_131:\n      dup3\n      dup3\n      lt\n      iszero\n      tag_132\n      jumpi\n      dup4\n      dup3\n      swap1\n      0x00\n      mstore\n      keccak256(0x00, 0x20)\n      swap1\n      0x03\n      mul\n      add\n      mload(0x40)\n      dup1\n      0x60\n      add\n      0x40\n      mstore\n      swap1\n      dup2\n      0x00\n      dup3\n      add\n      dup1\n      sload\n      tag_134\n      swap1\n      tag_46\n      jump\t// in\n    tag_134:\n      dup1\n      0x1f\n      add\n      0x20\n      dup1\n      swap2\n      div\n      mul\n      0x20\n      add\n      mload(0x40)\n      swap1\n      dup2\n      add\n      0x40\n      mstore\n      dup1\n      swap3\n      swap2\n      swap1\n      dup2\n      dup2\n      mstore\n      0x20\n      add\n      dup3\n      dup1\n      sload\n      tag_135\n      swap1\n      tag_46\n      jump\t// in\n    tag_135:\n      dup1\n      iszero\n      tag_136\n      jumpi\n      dup1\n      0x1f\n      lt\n      tag_137\n      jumpi\n      0x0100\n      dup1\n      dup4\n      sload\n      div\n      mul\n      dup4\n      mstore\n      swap2\n      0x20\n      add\n      swap2\n      jump(tag_136)\n    tag_137:\n      dup3\n      add\n      swap2\n      swap1\n      0x00\n      mstore\n      keccak256(0x00, 0x20)\n      swap1\n    tag_138:\n      dup2\n      sload\n      dup2\n      mstore\n      swap1\n      0x01\n      add\n      swap1\n      0x20\n      add\n      dup1\n      dup4\n      gt\n      tag_138\n      jumpi\n      dup3\n      swap1\n      sub\n      0x1f\n      and\n      dup3\n      add\n      swap2\n    tag_136:\n      pop\n      pop\n      pop\n      pop\n      pop\n      dup2\n      mstore\n      0x20\n      add\n      0x01\n      dup3\n      add\n      0x00\n      swap1\n      sload\n      swap1\n      0x0100\n      exp\n      swap1\n      div\n      0xff\n      and\n      iszero\n      iszero\n      iszero\n      iszero\n      dup2\n      mstore\n      0x20\n      add\n      0x02\n      dup3\n      add\n      sload\n      dup2\n      mstore\n      pop\n      pop\n      dup2\n      mstore\n      0x20\n      add\n      swap1\n      0x01\n      add\n      swap1\n      jump(tag_131)\n    tag_132:\n      pop\n      pop\n      pop\n      pop\n      swap1\n      pop\n        /* \"lession3.1/TodoList.sol\":2241:2345  function getAllTodos() public view returns(Todo[] memory){... */\n      swap1\n      jump\t// out\n        /* \"lession3.1/TodoList.sol\":2526:3277  function getPendingTodos() public view returns(Todo[] memory) {... */\n    tag_38:\n        /* \"lession3.1/TodoList.sol\":2573:2586  Todo[] memory */\n      0x60\n        /* \"lession3.1/TodoList.sol\":2666:2678  address user */\n      0x00\n        /* \"lession3.1/TodoList.sol\":2681:2691  msg.sender */\n      caller\n        /* \"lession3.1/TodoList.sol\":2666:2691  address user = msg.sender */\n      swap1\n      pop\n        /* \"lession3.1/TodoList.sol\":2702:2724  Todo[] memory allTodos */\n      0x00\n        /* \"lession3.1/TodoList.sol\":2727:2736  userTodos */\n      0x00\n        /* \"lession3.1/TodoList.sol\":2727:2742  userTodos[user] */\n      0x00\n        /* \"lession3.1/TodoList.sol\":2737:2741  user */\n      dup4\n        /* \"lession3.1/TodoList.sol\":2727:2742  userTodos[user] */\n      0xffffffffffffffffffffffffffffffffffffffff\n      and\n      0xffffffffffffffffffffffffffffffffffffffff\n      and\n      dup2\n      mstore\n      0x20\n      add\n      swap1\n      dup2\n      mstore\n      0x20\n      add\n      0x00\n      keccak256\n        /* \"lession3.1/TodoList.sol\":2702:2742  Todo[] memory allTodos = userTodos[user] */\n      dup1\n      sload\n      dup1\n      0x20\n      mul\n      0x20\n      add\n      mload(0x40)\n      swap1\n      dup2\n      add\n      0x40\n      mstore\n      dup1\n      swap3\n      swap2\n      swap1\n      dup2\n      dup2\n      mstore\n      0x20\n      add\n      0x00\n      swap1\n    tag_140:\n      dup3\n      dup3\n      lt\n      iszero\n      tag_141\n      jumpi\n      dup4\n      dup3\n      swap1\n      0x00\n      mstore\n      keccak256(0x00, 0x20)\n      swap1\n      0x03\n      mul\n      add\n      mload(0x40)\n      dup1\n      0x60\n      add\n      0x40\n      mstore\n      swap1\n      dup2\n      0x00\n      dup3\n      add\n      dup1\n      sload\n      tag_143\n      swap1\n      tag_46\n      jump\t// in\n    tag_143:\n      dup1\n      0x1f\n      add\n      0x20\n      dup1\n      swap2\n      div\n      mul\n      0x20\n      add\n      mload(0x40)\n      swap1\n      dup2\n      add\n      0x40\n      mstore\n      dup1\n      swap3\n      swap2\n      swap1\n      dup2\n      dup2\n      mstore\n      0x20\n      add\n      dup3\n      dup1\n      sload\n      tag_144\n      swap1\n      tag_46\n      jump\t// in\n    tag_144:\n      dup1\n      iszero\n      tag_145\n      jumpi\n      dup1\n      0x1f\n      lt\n      tag_146\n      jumpi\n      0x0100\n      dup1\n      dup4\n      sload\n      div\n      mul\n      dup4\n      mstore\n      swap2\n      0x20\n      add\n      swap2\n      jump(tag_145)\n    tag_146:\n      dup3\n      add\n      swap2\n      swap1\n      0x00\n      mstore\n      keccak256(0x00, 0x20)\n      swap1\n    tag_147:\n      dup2\n      sload\n      dup2\n      mstore\n      swap1\n      0x01\n      add\n      swap1\n      0x20\n      add\n      dup1\n      dup4\n      gt\n      tag_147\n      jumpi\n      dup3\n      swap1\n      sub\n      0x1f\n      and\n      dup3\n      add\n      swap2\n    tag_145:\n      pop\n      pop\n      pop\n      pop\n      pop\n      dup2\n      mstore\n      0x20\n      add\n      0x01\n      dup3\n      add\n      0x00\n      swap1\n      sload\n      swap1\n      0x0100\n      exp\n      swap1\n      div\n      0xff\n      and\n      iszero\n      iszero\n      iszero\n      iszero\n      dup2\n      mstore\n      0x20\n      add\n      0x02\n      dup3\n      add\n      sload\n      dup2\n      mstore\n      pop\n      pop\n      dup2\n      mstore\n      0x20\n      add\n      swap1\n      0x01\n      add\n      swap1\n      jump(tag_140)\n    tag_141:\n      pop\n      pop\n      pop\n      pop\n      swap1\n      pop\n        /* \"lession3.1/TodoList.sol\":2753:2761  uint len */\n      0x00\n        /* \"lession3.1/TodoList.sol\":2764:2772  allTodos */\n      dup2\n        /* \"lession3.1/TodoList.sol\":2764:2779  allTodos.length */\n      mload\n        /* \"lession3.1/TodoList.sol\":2753:2779  uint len = allTodos.length */\n      swap1\n      pop\n        /* \"lession3.1/TodoList.sol\":2792:2802  uint count */\n      0x00\n        /* \"lession3.1/TodoList.sol\":2805:2806  0 */\n      0x00\n        /* \"lession3.1/TodoList.sol\":2792:2806  uint count = 0 */\n      swap1\n      pop\n        /* \"lession3.1/TodoList.sol\":2832:2838  uint i */\n      0x00\n        /* \"lession3.1/TodoList.sol\":2841:2842  0 */\n      0x00\n        /* \"lession3.1/TodoList.sol\":2832:2842  uint i = 0 */\n      swap1\n      pop\n        /* \"lession3.1/TodoList.sol\":2827:2954  for (uint i = 0; i < len; i++) {... */\n    tag_148:\n        /* \"lession3.1/TodoList.sol\":2848:2851  len */\n      dup3\n        /* \"lession3.1/TodoList.sol\":2844:2845  i */\n      dup2\n        /* \"lession3.1/TodoList.sol\":2844:2851  i < len */\n      lt\n        /* \"lession3.1/TodoList.sol\":2827:2954  for (uint i = 0; i < len; i++) {... */\n      iszero\n      tag_149\n      jumpi\n        /* \"lession3.1/TodoList.sol\":2878:2886  allTodos */\n      dup4\n        /* \"lession3.1/TodoList.sol\":2887:2888  i */\n      dup2\n        /* \"lession3.1/TodoList.sol\":2878:2889  allTodos[i] */\n      dup2\n      mload\n      dup2\n      lt\n      tag_151\n      jumpi\n      tag_152\n      tag_56\n      jump\t// in\n    tag_152:\n    tag_151:\n      0x20\n      mul\n      0x20\n      add\n      add\n      mload\n        /* \"lession3.1/TodoList.sol\":2878:2899  allTodos[i].completed */\n      0x20\n      add\n      mload\n        /* \"lession3.1/TodoList.sol\":2873:2943  if (!allTodos[i].completed) {... */\n      tag_153\n      jumpi\n        /* \"lession3.1/TodoList.sol\":2920:2927  count++ */\n      dup2\n      dup1\n      tag_154\n      swap1\n      tag_59\n      jump\t// in\n    tag_154:\n      swap3\n      pop\n      pop\n        /* \"lession3.1/TodoList.sol\":2873:2943  if (!allTodos[i].completed) {... */\n    tag_153:\n        /* \"lession3.1/TodoList.sol\":2853:2856  i++ */\n      dup1\n      dup1\n      0x01\n      add\n      swap2\n      pop\n      pop\n        /* \"lession3.1/TodoList.sol\":2827:2954  for (uint i = 0; i < len; i++) {... */\n      jump(tag_148)\n    tag_149:\n      pop\n        /* \"lession3.1/TodoList.sol\":2966:2992  Todo[] memory unCompleteds */\n      0x00\n        /* \"lession3.1/TodoList.sol\":3006:3011  count */\n      dup2\n        /* \"lession3.1/TodoList.sol\":2995:3012  new Todo[](count) */\n      0xffffffffffffffff\n      dup2\n      gt\n      iszero\n      tag_155\n      jumpi\n      tag_156\n      tag_62\n      jump\t// in\n    tag_156:\n    tag_155:\n      mload(0x40)\n      swap1\n      dup1\n      dup3\n      mstore\n      dup1\n      0x20\n      mul\n      0x20\n      add\n      dup3\n      add\n      0x40\n      mstore\n      dup1\n      iszero\n      tag_157\n      jumpi\n      dup2\n      0x20\n      add\n    tag_158:\n      tag_159\n      tag_66\n      jump\t// in\n    tag_159:\n      dup2\n      mstore\n      0x20\n      add\n      swap1\n      0x01\n      swap1\n      sub\n      swap1\n      dup2\n      tag_158\n      jumpi\n      swap1\n      pop\n    tag_157:\n      pop\n        /* \"lession3.1/TodoList.sol\":2966:3012  Todo[] memory unCompleteds = new Todo[](count) */\n      swap1\n      pop\n        /* \"lession3.1/TodoList.sol\":3023:3033  uint index */\n      0x00\n        /* \"lession3.1/TodoList.sol\":3036:3037  0 */\n      0x00\n        /* \"lession3.1/TodoList.sol\":3023:3037  uint index = 0 */\n      swap1\n      pop\n        /* \"lession3.1/TodoList.sol\":3053:3059  uint i */\n      0x00\n        /* \"lession3.1/TodoList.sol\":3062:3063  0 */\n      0x00\n        /* \"lession3.1/TodoList.sol\":3053:3063  uint i = 0 */\n      swap1\n      pop\n        /* \"lession3.1/TodoList.sol\":3048:3240  for (uint i = 0; i < len; i++) ... */\n    tag_160:\n        /* \"lession3.1/TodoList.sol\":3069:3072  len */\n      dup5\n        /* \"lession3.1/TodoList.sol\":3065:3066  i */\n      dup2\n        /* \"lession3.1/TodoList.sol\":3065:3072  i < len */\n      lt\n        /* \"lession3.1/TodoList.sol\":3048:3240  for (uint i = 0; i < len; i++) ... */\n      iszero\n      tag_161\n      jumpi\n        /* \"lession3.1/TodoList.sol\":3109:3117  allTodos */\n      dup6\n        /* \"lession3.1/TodoList.sol\":3118:3119  i */\n      dup2\n        /* \"lession3.1/TodoList.sol\":3109:3120  allTodos[i] */\n      dup2\n      mload\n      dup2\n      lt\n      tag_163\n      jumpi\n      tag_164\n      tag_56\n      jump\t// in\n    tag_164:\n    tag_163:\n      0x20\n      mul\n      0x20\n      add\n      add\n      mload\n        /* \"lession3.1/TodoList.sol\":3109:3130  allTodos[i].completed */\n      0x20\n      add\n      mload\n        /* \"lession3.1/TodoList.sol\":3104:3226  if (!allTodos[i].completed) {... */\n      tag_165\n      jumpi\n        /* \"lession3.1/TodoList.sol\":3173:3181  allTodos */\n      dup6\n        /* \"lession3.1/TodoList.sol\":3182:3183  i */\n      dup2\n        /* \"lession3.1/TodoList.sol\":3173:3184  allTodos[i] */\n      dup2\n      mload\n      dup2\n      lt\n      tag_166\n      jumpi\n      tag_167\n      tag_56\n      jump\t// in\n    tag_167:\n    tag_166:\n      0x20\n      mul\n      0x20\n      add\n      add\n      mload\n        /* \"lession3.1/TodoList.sol\":3151:3163  unCompleteds */\n      dup4\n        /* \"lession3.1/TodoList.sol\":3164:3169  index */\n      dup4\n        /* \"lession3.1/TodoList.sol\":3151:3170  unCompleteds[index] */\n      dup2\n      mload\n      dup2\n      lt\n      tag_168\n      jumpi\n      tag_169\n      tag_56\n      jump\t// in\n    tag_169:\n    tag_168:\n      0x20\n      mul\n      0x20\n      add\n      add\n        /* \"lession3.1/TodoList.sol\":3151:3184  unCompleteds[index] = allTodos[i] */\n      dup2\n      swap1\n      mstore\n      pop\n        /* \"lession3.1/TodoList.sol\":3203:3210  index++ */\n      dup2\n      dup1\n      tag_170\n      swap1\n      tag_59\n      jump\t// in\n    tag_170:\n      swap3\n      pop\n      pop\n        /* \"lession3.1/TodoList.sol\":3104:3226  if (!allTodos[i].completed) {... */\n    tag_165:\n        /* \"lession3.1/TodoList.sol\":3074:3077  i++ */\n      dup1\n      dup1\n      0x01\n      add\n      swap2\n      pop\n      pop\n        /* \"lession3.1/TodoList.sol\":3048:3240  for (uint i = 0; i < len; i++) ... */\n      jump(tag_160)\n    tag_161:\n      pop\n        /* \"lession3.1/TodoList.sol\":3257:3269  unCompleteds */\n      dup2\n        /* \"lession3.1/TodoList.sol\":3250:3269  return unCompleteds */\n      swap7\n      pop\n      pop\n      pop\n      pop\n      pop\n      pop\n      pop\n        /* \"lession3.1/TodoList.sol\":2526:3277  function getPendingTodos() public view returns(Todo[] memory) {... */\n      swap1\n      jump\t// out\n    tag_66:\n      mload(0x40)\n      dup1\n      0x60\n      add\n      0x40\n      mstore\n      dup1\n      0x60\n      dup2\n      mstore\n      0x20\n      add\n      iszero(iszero(0x00))\n      dup2\n      mstore\n      0x20\n      add\n      0x00\n      dup2\n      mstore\n      pop\n      swap1\n      jump\t// out\n    tag_112:\n      pop\n      dup1\n      sload\n      tag_171\n      swap1\n      tag_46\n      jump\t// in\n    tag_171:\n      0x00\n      dup3\n      sstore\n      dup1\n      0x1f\n      lt\n      tag_173\n      jumpi\n      pop\n      pop\n      jump(tag_172)\n    tag_173:\n      0x1f\n      add\n      0x20\n      swap1\n      div\n      swap1\n      0x00\n      mstore\n      keccak256(0x00, 0x20)\n      swap1\n      tag_174\n      swap2\n      swap1\n      tag_175\n      jump\t// in\n    tag_174:\n    tag_172:\n      jump\t// out\n    tag_175:\n      0x00\n    tag_176:\n      dup1\n      dup3\n      gt\n      iszero\n      tag_177\n      jumpi\n      dup3\n      dup2\n      add\n      0x00\n      swap1\n      sstore\n      0x01\n      add\n      jump(tag_176)\n    tag_177:\n      pop\n      pop\n      pop\n      jump\t// out\n        /* \"#utility.yul\":7:84   */\n    tag_178:\n        /* \"#utility.yul\":44:51   */\n      0x00\n        /* \"#utility.yul\":73:78   */\n      dup2\n        /* \"#utility.yul\":62:78   */\n      swap1\n      pop\n        /* \"#utility.yul\":7:84   */\n      swap2\n      swap1\n      pop\n      jump\t// out\n        /* \"#utility.yul\":90:208   */\n    tag_179:\n        /* \"#utility.yul\":177:201   */\n      tag_241\n        /* \"#utility.yul\":195:200   */\n      dup2\n        /* \"#utility.yul\":177:201   */\n      tag_178\n      jump\t// in\n    tag_241:\n        /* \"#utility.yul\":172:175   */\n      dup3\n        /* \"#utility.yul\":165:202   */\n      mstore\n        /* \"#utility.yul\":90:208   */\n      pop\n      pop\n      jump\t// out\n        /* \"#utility.yul\":214:436   */\n    tag_15:\n        /* \"#utility.yul\":307:311   */\n      0x00\n        /* \"#utility.yul\":345:347   */\n      0x20\n        /* \"#utility.yul\":334:343   */\n      dup3\n        /* \"#utility.yul\":330:348   */\n      add\n        /* \"#utility.yul\":322:348   */\n      swap1\n      pop\n        /* \"#utility.yul\":358:429   */\n      tag_243\n        /* \"#utility.yul\":426:427   */\n      0x00\n        /* \"#utility.yul\":415:424   */\n      dup4\n        /* \"#utility.yul\":411:428   */\n      add\n        /* \"#utility.yul\":402:408   */\n      dup5\n        /* \"#utility.yul\":358:429   */\n      tag_179\n      jump\t// in\n    tag_243:\n        /* \"#utility.yul\":214:436   */\n      swap3\n      swap2\n      pop\n      pop\n      jump\t// out\n        /* \"#utility.yul\":442:575   */\n    tag_180:\n        /* \"#utility.yul\":528:534   */\n      0x00\n        /* \"#utility.yul\":562:567   */\n      dup2\n        /* \"#utility.yul\":556:568   */\n      mload\n        /* \"#utility.yul\":546:568   */\n      swap1\n      pop\n        /* \"#utility.yul\":442:575   */\n      swap2\n      swap1\n      pop\n      jump\t// out\n        /* \"#utility.yul\":581:784   */\n    tag_181:\n        /* \"#utility.yul\":699:710   */\n      0x00\n        /* \"#utility.yul\":733:739   */\n      dup3\n        /* \"#utility.yul\":728:731   */\n      dup3\n        /* \"#utility.yul\":721:740   */\n      mstore\n        /* \"#utility.yul\":773:777   */\n      0x20\n        /* \"#utility.yul\":768:771   */\n      dup3\n        /* \"#utility.yul\":764:778   */\n      add\n        /* \"#utility.yul\":749:778   */\n      swap1\n      pop\n        /* \"#utility.yul\":581:784   */\n      swap3\n      swap2\n      pop\n      pop\n      jump\t// out\n        /* \"#utility.yul\":790:941   */\n    tag_182:\n        /* \"#utility.yul\":876:880   */\n      0x00\n        /* \"#utility.yul\":899:902   */\n      dup2\n        /* \"#utility.yul\":891:902   */\n      swap1\n      pop\n        /* \"#utility.yul\":929:933   */\n      0x20\n        /* \"#utility.yul\":924:927   */\n      dup3\n        /* \"#utility.yul\":920:934   */\n      add\n        /* \"#utility.yul\":912:934   */\n      swap1\n      pop\n        /* \"#utility.yul\":790:941   */\n      swap2\n      swap1\n      pop\n      jump\t// out\n        /* \"#utility.yul\":947:1046   */\n    tag_183:\n        /* \"#utility.yul\":999:1005   */\n      0x00\n        /* \"#utility.yul\":1033:1038   */\n      dup2\n        /* \"#utility.yul\":1027:1039   */\n      mload\n        /* \"#utility.yul\":1017:1039   */\n      swap1\n      pop\n        /* \"#utility.yul\":947:1046   */\n      swap2\n      swap1\n      pop\n      jump\t// out\n        /* \"#utility.yul\":1052:1211   */\n    tag_184:\n        /* \"#utility.yul\":1126:1137   */\n      0x00\n        /* \"#utility.yul\":1160:1166   */\n      dup3\n        /* \"#utility.yul\":1155:1158   */\n      dup3\n        /* \"#utility.yul\":1148:1167   */\n      mstore\n        /* \"#utility.yul\":1200:1204   */\n      0x20\n        /* \"#utility.yul\":1195:1198   */\n      dup3\n        /* \"#utility.yul\":1191:1205   */\n      add\n        /* \"#utility.yul\":1176:1205   */\n      swap1\n      pop\n        /* \"#utility.yul\":1052:1211   */\n      swap3\n      swap2\n      pop\n      pop\n      jump\t// out\n        /* \"#utility.yul\":1217:1356   */\n    tag_185:\n        /* \"#utility.yul\":1306:1312   */\n      dup3\n        /* \"#utility.yul\":1301:1304   */\n      dup2\n        /* \"#utility.yul\":1296:1299   */\n      dup4\n        /* \"#utility.yul\":1290:1313   */\n      mcopy\n        /* \"#utility.yul\":1347:1348   */\n      0x00\n        /* \"#utility.yul\":1338:1344   */\n      dup4\n        /* \"#utility.yul\":1333:1336   */\n      dup4\n        /* \"#utility.yul\":1329:1345   */\n      add\n        /* \"#utility.yul\":1322:1349   */\n      mstore\n        /* \"#utility.yul\":1217:1356   */\n      pop\n      pop\n      pop\n      jump\t// out\n        /* \"#utility.yul\":1362:1464   */\n    tag_186:\n        /* \"#utility.yul\":1403:1409   */\n      0x00\n        /* \"#utility.yul\":1454:1456   */\n      0x1f\n        /* \"#utility.yul\":1450:1457   */\n      not\n        /* \"#utility.yul\":1445:1447   */\n      0x1f\n        /* \"#utility.yul\":1438:1443   */\n      dup4\n        /* \"#utility.yul\":1434:1448   */\n      add\n        /* \"#utility.yul\":1430:1458   */\n      and\n        /* \"#utility.yul\":1420:1458   */\n      swap1\n      pop\n        /* \"#utility.yul\":1362:1464   */\n      swap2\n      swap1\n      pop\n      jump\t// out\n        /* \"#utility.yul\":1470:1827   */\n    tag_187:\n        /* \"#utility.yul\":1548:1551   */\n      0x00\n        /* \"#utility.yul\":1576:1615   */\n      tag_252\n        /* \"#utility.yul\":1609:1614   */\n      dup3\n        /* \"#utility.yul\":1576:1615   */\n      tag_183\n      jump\t// in\n    tag_252:\n        /* \"#utility.yul\":1631:1692   */\n      tag_253\n        /* \"#utility.yul\":1685:1691   */\n      dup2\n        /* \"#utility.yul\":1680:1683   */\n      dup6\n        /* \"#utility.yul\":1631:1692   */\n      tag_184\n      jump\t// in\n    tag_253:\n        /* \"#utility.yul\":1624:1692   */\n      swap4\n      pop\n        /* \"#utility.yul\":1701:1766   */\n      tag_254\n        /* \"#utility.yul\":1759:1765   */\n      dup2\n        /* \"#utility.yul\":1754:1757   */\n      dup6\n        /* \"#utility.yul\":1747:1751   */\n      0x20\n        /* \"#utility.yul\":1740:1745   */\n      dup7\n        /* \"#utility.yul\":1736:1752   */\n      add\n        /* \"#utility.yul\":1701:1766   */\n      tag_185\n      jump\t// in\n    tag_254:\n        /* \"#utility.yul\":1791:1820   */\n      tag_255\n        /* \"#utility.yul\":1813:1819   */\n      dup2\n        /* \"#utility.yul\":1791:1820   */\n      tag_186\n      jump\t// in\n    tag_255:\n        /* \"#utility.yul\":1786:1789   */\n      dup5\n        /* \"#utility.yul\":1782:1821   */\n      add\n        /* \"#utility.yul\":1775:1821   */\n      swap2\n      pop\n        /* \"#utility.yul\":1552:1827   */\n      pop\n        /* \"#utility.yul\":1470:1827   */\n      swap3\n      swap2\n      pop\n      pop\n      jump\t// out\n        /* \"#utility.yul\":1833:1923   */\n    tag_188:\n        /* \"#utility.yul\":1867:1874   */\n      0x00\n        /* \"#utility.yul\":1910:1915   */\n      dup2\n        /* \"#utility.yul\":1903:1916   */\n      iszero\n        /* \"#utility.yul\":1896:1917   */\n      iszero\n        /* \"#utility.yul\":1885:1917   */\n      swap1\n      pop\n        /* \"#utility.yul\":1833:1923   */\n      swap2\n      swap1\n      pop\n      jump\t// out\n        /* \"#utility.yul\":1929:2028   */\n    tag_189:\n        /* \"#utility.yul\":2000:2021   */\n      tag_258\n        /* \"#utility.yul\":2015:2020   */\n      dup2\n        /* \"#utility.yul\":2000:2021   */\n      tag_188\n      jump\t// in\n    tag_258:\n        /* \"#utility.yul\":1995:1998   */\n      dup3\n        /* \"#utility.yul\":1988:2022   */\n      mstore\n        /* \"#utility.yul\":1929:2028   */\n      pop\n      pop\n      jump\t// out\n        /* \"#utility.yul\":2034:2142   */\n    tag_190:\n        /* \"#utility.yul\":2111:2135   */\n      tag_260\n        /* \"#utility.yul\":2129:2134   */\n      dup2\n        /* \"#utility.yul\":2111:2135   */\n      tag_178\n      jump\t// in\n    tag_260:\n        /* \"#utility.yul\":2106:2109   */\n      dup3\n        /* \"#utility.yul\":2099:2136   */\n      mstore\n        /* \"#utility.yul\":2034:2142   */\n      pop\n      pop\n      jump\t// out\n        /* \"#utility.yul\":2200:2962   */\n    tag_191:\n        /* \"#utility.yul\":2297:2300   */\n      0x00\n        /* \"#utility.yul\":2333:2337   */\n      0x60\n        /* \"#utility.yul\":2328:2331   */\n      dup4\n        /* \"#utility.yul\":2324:2338   */\n      add\n        /* \"#utility.yul\":2420:2424   */\n      0x00\n        /* \"#utility.yul\":2413:2418   */\n      dup4\n        /* \"#utility.yul\":2409:2425   */\n      add\n        /* \"#utility.yul\":2403:2426   */\n      mload\n        /* \"#utility.yul\":2473:2476   */\n      dup5\n        /* \"#utility.yul\":2467:2471   */\n      dup3\n        /* \"#utility.yul\":2463:2477   */\n      sub\n        /* \"#utility.yul\":2456:2460   */\n      0x00\n        /* \"#utility.yul\":2451:2454   */\n      dup7\n        /* \"#utility.yul\":2447:2461   */\n      add\n        /* \"#utility.yul\":2440:2478   */\n      mstore\n        /* \"#utility.yul\":2499:2572   */\n      tag_262\n        /* \"#utility.yul\":2567:2571   */\n      dup3\n        /* \"#utility.yul\":2553:2565   */\n      dup3\n        /* \"#utility.yul\":2499:2572   */\n      tag_187\n      jump\t// in\n    tag_262:\n        /* \"#utility.yul\":2491:2572   */\n      swap2\n      pop\n        /* \"#utility.yul\":2348:2583   */\n      pop\n        /* \"#utility.yul\":2670:2674   */\n      0x20\n        /* \"#utility.yul\":2663:2668   */\n      dup4\n        /* \"#utility.yul\":2659:2675   */\n      add\n        /* \"#utility.yul\":2653:2676   */\n      mload\n        /* \"#utility.yul\":2689:2746   */\n      tag_263\n        /* \"#utility.yul\":2740:2744   */\n      0x20\n        /* \"#utility.yul\":2735:2738   */\n      dup7\n        /* \"#utility.yul\":2731:2745   */\n      add\n        /* \"#utility.yul\":2717:2729   */\n      dup3\n        /* \"#utility.yul\":2689:2746   */\n      tag_189\n      jump\t// in\n    tag_263:\n        /* \"#utility.yul\":2593:2756   */\n      pop\n        /* \"#utility.yul\":2843:2847   */\n      0x40\n        /* \"#utility.yul\":2836:2841   */\n      dup4\n        /* \"#utility.yul\":2832:2848   */\n      add\n        /* \"#utility.yul\":2826:2849   */\n      mload\n        /* \"#utility.yul\":2862:2925   */\n      tag_264\n        /* \"#utility.yul\":2919:2923   */\n      0x40\n        /* \"#utility.yul\":2914:2917   */\n      dup7\n        /* \"#utility.yul\":2910:2924   */\n      add\n        /* \"#utility.yul\":2896:2908   */\n      dup3\n        /* \"#utility.yul\":2862:2925   */\n      tag_190\n      jump\t// in\n    tag_264:\n        /* \"#utility.yul\":2766:2935   */\n      pop\n        /* \"#utility.yul\":2952:2956   */\n      dup1\n        /* \"#utility.yul\":2945:2956   */\n      swap2\n      pop\n        /* \"#utility.yul\":2302:2962   */\n      pop\n        /* \"#utility.yul\":2200:2962   */\n      swap3\n      swap2\n      pop\n      pop\n      jump\t// out\n        /* \"#utility.yul\":2968:3200   */\n    tag_192:\n        /* \"#utility.yul\":3075:3085   */\n      0x00\n        /* \"#utility.yul\":3110:3194   */\n      tag_266\n        /* \"#utility.yul\":3190:3193   */\n      dup4\n        /* \"#utility.yul\":3182:3188   */\n      dup4\n        /* \"#utility.yul\":3110:3194   */\n      tag_191\n      jump\t// in\n    tag_266:\n        /* \"#utility.yul\":3096:3194   */\n      swap1\n      pop\n        /* \"#utility.yul\":2968:3200   */\n      swap3\n      swap2\n      pop\n      pop\n      jump\t// out\n        /* \"#utility.yul\":3206:3338   */\n    tag_193:\n        /* \"#utility.yul\":3295:3299   */\n      0x00\n        /* \"#utility.yul\":3327:3331   */\n      0x20\n        /* \"#utility.yul\":3322:3325   */\n      dup3\n        /* \"#utility.yul\":3318:3332   */\n      add\n        /* \"#utility.yul\":3310:3332   */\n      swap1\n      pop\n        /* \"#utility.yul\":3206:3338   */\n      swap2\n      swap1\n      pop\n      jump\t// out\n        /* \"#utility.yul\":3400:4463   */\n    tag_194:\n        /* \"#utility.yul\":3557:3560   */\n      0x00\n        /* \"#utility.yul\":3586:3659   */\n      tag_269\n        /* \"#utility.yul\":3653:3658   */\n      dup3\n        /* \"#utility.yul\":3586:3659   */\n      tag_180\n      jump\t// in\n    tag_269:\n        /* \"#utility.yul\":3675:3780   */\n      tag_270\n        /* \"#utility.yul\":3773:3779   */\n      dup2\n        /* \"#utility.yul\":3768:3771   */\n      dup6\n        /* \"#utility.yul\":3675:3780   */\n      tag_181\n      jump\t// in\n    tag_270:\n        /* \"#utility.yul\":3668:3780   */\n      swap4\n      pop\n        /* \"#utility.yul\":3806:3809   */\n      dup4\n        /* \"#utility.yul\":3851:3855   */\n      0x20\n        /* \"#utility.yul\":3843:3849   */\n      dup3\n        /* \"#utility.yul\":3839:3856   */\n      mul\n        /* \"#utility.yul\":3834:3837   */\n      dup6\n        /* \"#utility.yul\":3830:3857   */\n      add\n        /* \"#utility.yul\":3881:3956   */\n      tag_271\n        /* \"#utility.yul\":3950:3955   */\n      dup6\n        /* \"#utility.yul\":3881:3956   */\n      tag_182\n      jump\t// in\n    tag_271:\n        /* \"#utility.yul\":3979:3986   */\n      dup1\n        /* \"#utility.yul\":4010:4011   */\n      0x00\n        /* \"#utility.yul\":3995:4418   */\n    tag_272:\n        /* \"#utility.yul\":4020:4026   */\n      dup6\n        /* \"#utility.yul\":4017:4018   */\n      dup2\n        /* \"#utility.yul\":4014:4027   */\n      lt\n        /* \"#utility.yul\":3995:4418   */\n      iszero\n      tag_274\n      jumpi\n        /* \"#utility.yul\":4091:4100   */\n      dup5\n        /* \"#utility.yul\":4085:4089   */\n      dup5\n        /* \"#utility.yul\":4081:4101   */\n      sub\n        /* \"#utility.yul\":4076:4079   */\n      dup10\n        /* \"#utility.yul\":4069:4102   */\n      mstore\n        /* \"#utility.yul\":4142:4148   */\n      dup2\n        /* \"#utility.yul\":4136:4149   */\n      mload\n        /* \"#utility.yul\":4170:4272   */\n      tag_275\n        /* \"#utility.yul\":4267:4271   */\n      dup6\n        /* \"#utility.yul\":4252:4265   */\n      dup3\n        /* \"#utility.yul\":4170:4272   */\n      tag_192\n      jump\t// in\n    tag_275:\n        /* \"#utility.yul\":4162:4272   */\n      swap5\n      pop\n        /* \"#utility.yul\":4295:4374   */\n      tag_276\n        /* \"#utility.yul\":4367:4373   */\n      dup4\n        /* \"#utility.yul\":4295:4374   */\n      tag_193\n      jump\t// in\n    tag_276:\n        /* \"#utility.yul\":4285:4374   */\n      swap3\n      pop\n        /* \"#utility.yul\":4403:4407   */\n      0x20\n        /* \"#utility.yul\":4398:4401   */\n      dup11\n        /* \"#utility.yul\":4394:4408   */\n      add\n        /* \"#utility.yul\":4387:4408   */\n      swap10\n      pop\n        /* \"#utility.yul\":4055:4418   */\n      pop\n        /* \"#utility.yul\":4042:4043   */\n      0x01\n        /* \"#utility.yul\":4039:4040   */\n      dup2\n        /* \"#utility.yul\":4035:4044   */\n      add\n        /* \"#utility.yul\":4030:4044   */\n      swap1\n      pop\n        /* \"#utility.yul\":3995:4418   */\n      jump(tag_272)\n    tag_274:\n        /* \"#utility.yul\":3999:4013   */\n      pop\n        /* \"#utility.yul\":4434:4438   */\n      dup3\n        /* \"#utility.yul\":4427:4438   */\n      swap8\n      pop\n        /* \"#utility.yul\":4454:4457   */\n      dup8\n        /* \"#utility.yul\":4447:4457   */\n      swap6\n      pop\n        /* \"#utility.yul\":3562:4463   */\n      pop\n      pop\n      pop\n      pop\n      pop\n        /* \"#utility.yul\":3400:4463   */\n      swap3\n      swap2\n      pop\n      pop\n      jump\t// out\n        /* \"#utility.yul\":4469:4918   */\n    tag_19:\n        /* \"#utility.yul\":4650:4654   */\n      0x00\n        /* \"#utility.yul\":4688:4690   */\n      0x20\n        /* \"#utility.yul\":4677:4686   */\n      dup3\n        /* \"#utility.yul\":4673:4691   */\n      add\n        /* \"#utility.yul\":4665:4691   */\n      swap1\n      pop\n        /* \"#utility.yul\":4737:4746   */\n      dup2\n        /* \"#utility.yul\":4731:4735   */\n      dup2\n        /* \"#utility.yul\":4727:4747   */\n      sub\n        /* \"#utility.yul\":4723:4724   */\n      0x00\n        /* \"#utility.yul\":4712:4721   */\n      dup4\n        /* \"#utility.yul\":4708:4725   */\n      add\n        /* \"#utility.yul\":4701:4748   */\n      mstore\n        /* \"#utility.yul\":4765:4911   */\n      tag_278\n        /* \"#utility.yul\":4906:4910   */\n      dup2\n        /* \"#utility.yul\":4897:4903   */\n      dup5\n        /* \"#utility.yul\":4765:4911   */\n      tag_194\n      jump\t// in\n    tag_278:\n        /* \"#utility.yul\":4757:4911   */\n      swap1\n      pop\n        /* \"#utility.yul\":4469:4918   */\n      swap3\n      swap2\n      pop\n      pop\n      jump\t// out\n        /* \"#utility.yul\":4924:4999   */\n    tag_195:\n        /* \"#utility.yul\":4957:4963   */\n      0x00\n        /* \"#utility.yul\":4990:4992   */\n      0x40\n        /* \"#utility.yul\":4984:4993   */\n      mload\n        /* \"#utility.yul\":4974:4993   */\n      swap1\n      pop\n        /* \"#utility.yul\":4924:4999   */\n      swap1\n      jump\t// out\n        /* \"#utility.yul\":5005:5122   */\n    tag_196:\n        /* \"#utility.yul\":5114:5115   */\n      0x00\n        /* \"#utility.yul\":5111:5112   */\n      0x00\n        /* \"#utility.yul\":5104:5116   */\n      revert\n        /* \"#utility.yul\":5128:5245   */\n    tag_197:\n        /* \"#utility.yul\":5237:5238   */\n      0x00\n        /* \"#utility.yul\":5234:5235   */\n      0x00\n        /* \"#utility.yul\":5227:5239   */\n      revert\n        /* \"#utility.yul\":5251:5373   */\n    tag_198:\n        /* \"#utility.yul\":5324:5348   */\n      tag_283\n        /* \"#utility.yul\":5342:5347   */\n      dup2\n        /* \"#utility.yul\":5324:5348   */\n      tag_178\n      jump\t// in\n    tag_283:\n        /* \"#utility.yul\":5317:5322   */\n      dup2\n        /* \"#utility.yul\":5314:5349   */\n      eq\n        /* \"#utility.yul\":5304:5367   */\n      tag_284\n      jumpi\n        /* \"#utility.yul\":5363:5364   */\n      0x00\n        /* \"#utility.yul\":5360:5361   */\n      0x00\n        /* \"#utility.yul\":5353:5365   */\n      revert\n        /* \"#utility.yul\":5304:5367   */\n    tag_284:\n        /* \"#utility.yul\":5251:5373   */\n      pop\n      jump\t// out\n        /* \"#utility.yul\":5379:5518   */\n    tag_199:\n        /* \"#utility.yul\":5425:5430   */\n      0x00\n        /* \"#utility.yul\":5463:5469   */\n      dup2\n        /* \"#utility.yul\":5450:5470   */\n      calldataload\n        /* \"#utility.yul\":5441:5470   */\n      swap1\n      pop\n        /* \"#utility.yul\":5479:5512   */\n      tag_286\n        /* \"#utility.yul\":5506:5511   */\n      dup2\n        /* \"#utility.yul\":5479:5512   */\n      tag_198\n      jump\t// in\n    tag_286:\n        /* \"#utility.yul\":5379:5518   */\n      swap3\n      swap2\n      pop\n      pop\n      jump\t// out\n        /* \"#utility.yul\":5524:5853   */\n    tag_22:\n        /* \"#utility.yul\":5583:5589   */\n      0x00\n        /* \"#utility.yul\":5632:5634   */\n      0x20\n        /* \"#utility.yul\":5620:5629   */\n      dup3\n        /* \"#utility.yul\":5611:5618   */\n      dup5\n        /* \"#utility.yul\":5607:5630   */\n      sub\n        /* \"#utility.yul\":5603:5635   */\n      slt\n        /* \"#utility.yul\":5600:5719   */\n      iszero\n      tag_288\n      jumpi\n        /* \"#utility.yul\":5638:5717   */\n      tag_289\n      tag_196\n      jump\t// in\n    tag_289:\n        /* \"#utility.yul\":5600:5719   */\n    tag_288:\n        /* \"#utility.yul\":5758:5759   */\n      0x00\n        /* \"#utility.yul\":5783:5836   */\n      tag_290\n        /* \"#utility.yul\":5828:5835   */\n      dup5\n        /* \"#utility.yul\":5819:5825   */\n      dup3\n        /* \"#utility.yul\":5808:5817   */\n      dup6\n        /* \"#utility.yul\":5804:5826   */\n      add\n        /* \"#utility.yul\":5783:5836   */\n      tag_199\n      jump\t// in\n    tag_290:\n        /* \"#utility.yul\":5773:5836   */\n      swap2\n      pop\n        /* \"#utility.yul\":5729:5846   */\n      pop\n        /* \"#utility.yul\":5524:5853   */\n      swap3\n      swap2\n      pop\n      pop\n      jump\t// out\n        /* \"#utility.yul\":5859:5976   */\n    tag_200:\n        /* \"#utility.yul\":5968:5969   */\n      0x00\n        /* \"#utility.yul\":5965:5966   */\n      0x00\n        /* \"#utility.yul\":5958:5970   */\n      revert\n        /* \"#utility.yul\":5982:6099   */\n    tag_201:\n        /* \"#utility.yul\":6091:6092   */\n      0x00\n        /* \"#utility.yul\":6088:6089   */\n      0x00\n        /* \"#utility.yul\":6081:6093   */\n      revert\n        /* \"#utility.yul\":6105:6285   */\n    tag_62:\n        /* \"#utility.yul\":6153:6230   */\n      0x4e487b7100000000000000000000000000000000000000000000000000000000\n        /* \"#utility.yul\":6150:6151   */\n      0x00\n        /* \"#utility.yul\":6143:6231   */\n      mstore\n        /* \"#utility.yul\":6250:6254   */\n      0x41\n        /* \"#utility.yul\":6247:6248   */\n      0x04\n        /* \"#utility.yul\":6240:6255   */\n      mstore\n        /* \"#utility.yul\":6274:6278   */\n      0x24\n        /* \"#utility.yul\":6271:6272   */\n      0x00\n        /* \"#utility.yul\":6264:6279   */\n      revert\n        /* \"#utility.yul\":6291:6572   */\n    tag_202:\n        /* \"#utility.yul\":6374:6401   */\n      tag_295\n        /* \"#utility.yul\":6396:6400   */\n      dup3\n        /* \"#utility.yul\":6374:6401   */\n      tag_186\n      jump\t// in\n    tag_295:\n        /* \"#utility.yul\":6366:6372   */\n      dup2\n        /* \"#utility.yul\":6362:6402   */\n      add\n        /* \"#utility.yul\":6504:6510   */\n      dup2\n        /* \"#utility.yul\":6492:6502   */\n      dup2\n        /* \"#utility.yul\":6489:6511   */\n      lt\n        /* \"#utility.yul\":6468:6486   */\n      0xffffffffffffffff\n        /* \"#utility.yul\":6456:6466   */\n      dup3\n        /* \"#utility.yul\":6453:6487   */\n      gt\n        /* \"#utility.yul\":6450:6512   */\n      or\n        /* \"#utility.yul\":6447:6535   */\n      iszero\n      tag_296\n      jumpi\n        /* \"#utility.yul\":6515:6533   */\n      tag_297\n      tag_62\n      jump\t// in\n    tag_297:\n        /* \"#utility.yul\":6447:6535   */\n    tag_296:\n        /* \"#utility.yul\":6555:6565   */\n      dup1\n        /* \"#utility.yul\":6551:6553   */\n      0x40\n        /* \"#utility.yul\":6544:6566   */\n      mstore\n        /* \"#utility.yul\":6334:6572   */\n      pop\n        /* \"#utility.yul\":6291:6572   */\n      pop\n      pop\n      jump\t// out\n        /* \"#utility.yul\":6578:6707   */\n    tag_203:\n        /* \"#utility.yul\":6612:6618   */\n      0x00\n        /* \"#utility.yul\":6639:6659   */\n      tag_299\n      tag_195\n      jump\t// in\n    tag_299:\n        /* \"#utility.yul\":6629:6659   */\n      swap1\n      pop\n        /* \"#utility.yul\":6668:6701   */\n      tag_300\n        /* \"#utility.yul\":6696:6700   */\n      dup3\n        /* \"#utility.yul\":6688:6694   */\n      dup3\n        /* \"#utility.yul\":6668:6701   */\n      tag_202\n      jump\t// in\n    tag_300:\n        /* \"#utility.yul\":6578:6707   */\n      swap2\n      swap1\n      pop\n      jump\t// out\n        /* \"#utility.yul\":6713:7021   */\n    tag_204:\n        /* \"#utility.yul\":6775:6779   */\n      0x00\n        /* \"#utility.yul\":6865:6883   */\n      0xffffffffffffffff\n        /* \"#utility.yul\":6857:6863   */\n      dup3\n        /* \"#utility.yul\":6854:6884   */\n      gt\n        /* \"#utility.yul\":6851:6907   */\n      iszero\n      tag_302\n      jumpi\n        /* \"#utility.yul\":6887:6905   */\n      tag_303\n      tag_62\n      jump\t// in\n    tag_303:\n        /* \"#utility.yul\":6851:6907   */\n    tag_302:\n        /* \"#utility.yul\":6925:6954   */\n      tag_304\n        /* \"#utility.yul\":6947:6953   */\n      dup3\n        /* \"#utility.yul\":6925:6954   */\n      tag_186\n      jump\t// in\n    tag_304:\n        /* \"#utility.yul\":6917:6954   */\n      swap1\n      pop\n        /* \"#utility.yul\":7009:7013   */\n      0x20\n        /* \"#utility.yul\":7003:7007   */\n      dup2\n        /* \"#utility.yul\":6999:7014   */\n      add\n        /* \"#utility.yul\":6991:7014   */\n      swap1\n      pop\n        /* \"#utility.yul\":6713:7021   */\n      swap2\n      swap1\n      pop\n      jump\t// out\n        /* \"#utility.yul\":7027:7175   */\n    tag_205:\n        /* \"#utility.yul\":7125:7131   */\n      dup3\n        /* \"#utility.yul\":7120:7123   */\n      dup2\n        /* \"#utility.yul\":7115:7118   */\n      dup4\n        /* \"#utility.yul\":7102:7132   */\n      calldatacopy\n        /* \"#utility.yul\":7166:7167   */\n      0x00\n        /* \"#utility.yul\":7157:7163   */\n      dup4\n        /* \"#utility.yul\":7152:7155   */\n      dup4\n        /* \"#utility.yul\":7148:7164   */\n      add\n        /* \"#utility.yul\":7141:7168   */\n      mstore\n        /* \"#utility.yul\":7027:7175   */\n      pop\n      pop\n      pop\n      jump\t// out\n        /* \"#utility.yul\":7181:7606   */\n    tag_206:\n        /* \"#utility.yul\":7259:7264   */\n      0x00\n        /* \"#utility.yul\":7284:7350   */\n      tag_307\n        /* \"#utility.yul\":7300:7349   */\n      tag_308\n        /* \"#utility.yul\":7342:7348   */\n      dup5\n        /* \"#utility.yul\":7300:7349   */\n      tag_204\n      jump\t// in\n    tag_308:\n        /* \"#utility.yul\":7284:7350   */\n      tag_203\n      jump\t// in\n    tag_307:\n        /* \"#utility.yul\":7275:7350   */\n      swap1\n      pop\n        /* \"#utility.yul\":7373:7379   */\n      dup3\n        /* \"#utility.yul\":7366:7371   */\n      dup2\n        /* \"#utility.yul\":7359:7380   */\n      mstore\n        /* \"#utility.yul\":7411:7415   */\n      0x20\n        /* \"#utility.yul\":7404:7409   */\n      dup2\n        /* \"#utility.yul\":7400:7416   */\n      add\n        /* \"#utility.yul\":7449:7452   */\n      dup5\n        /* \"#utility.yul\":7440:7446   */\n      dup5\n        /* \"#utility.yul\":7435:7438   */\n      dup5\n        /* \"#utility.yul\":7431:7447   */\n      add\n        /* \"#utility.yul\":7428:7453   */\n      gt\n        /* \"#utility.yul\":7425:7537   */\n      iszero\n      tag_309\n      jumpi\n        /* \"#utility.yul\":7456:7535   */\n      tag_310\n      tag_201\n      jump\t// in\n    tag_310:\n        /* \"#utility.yul\":7425:7537   */\n    tag_309:\n        /* \"#utility.yul\":7546:7600   */\n      tag_311\n        /* \"#utility.yul\":7593:7599   */\n      dup5\n        /* \"#utility.yul\":7588:7591   */\n      dup3\n        /* \"#utility.yul\":7583:7586   */\n      dup6\n        /* \"#utility.yul\":7546:7600   */\n      tag_205\n      jump\t// in\n    tag_311:\n        /* \"#utility.yul\":7265:7606   */\n      pop\n        /* \"#utility.yul\":7181:7606   */\n      swap4\n      swap3\n      pop\n      pop\n      pop\n      jump\t// out\n        /* \"#utility.yul\":7626:7966   */\n    tag_207:\n        /* \"#utility.yul\":7682:7687   */\n      0x00\n        /* \"#utility.yul\":7731:7734   */\n      dup3\n        /* \"#utility.yul\":7724:7728   */\n      0x1f\n        /* \"#utility.yul\":7716:7722   */\n      dup4\n        /* \"#utility.yul\":7712:7729   */\n      add\n        /* \"#utility.yul\":7708:7735   */\n      slt\n        /* \"#utility.yul\":7698:7820   */\n      tag_313\n      jumpi\n        /* \"#utility.yul\":7739:7818   */\n      tag_314\n      tag_200\n      jump\t// in\n    tag_314:\n        /* \"#utility.yul\":7698:7820   */\n    tag_313:\n        /* \"#utility.yul\":7856:7862   */\n      dup2\n        /* \"#utility.yul\":7843:7863   */\n      calldataload\n        /* \"#utility.yul\":7881:7960   */\n      tag_315\n        /* \"#utility.yul\":7956:7959   */\n      dup5\n        /* \"#utility.yul\":7948:7954   */\n      dup3\n        /* \"#utility.yul\":7941:7945   */\n      0x20\n        /* \"#utility.yul\":7933:7939   */\n      dup7\n        /* \"#utility.yul\":7929:7946   */\n      add\n        /* \"#utility.yul\":7881:7960   */\n      tag_206\n      jump\t// in\n    tag_315:\n        /* \"#utility.yul\":7872:7960   */\n      swap2\n      pop\n        /* \"#utility.yul\":7688:7966   */\n      pop\n        /* \"#utility.yul\":7626:7966   */\n      swap3\n      swap2\n      pop\n      pop\n      jump\t// out\n        /* \"#utility.yul\":7972:8481   */\n    tag_32:\n        /* \"#utility.yul\":8041:8047   */\n      0x00\n        /* \"#utility.yul\":8090:8092   */\n      0x20\n        /* \"#utility.yul\":8078:8087   */\n      dup3\n        /* \"#utility.yul\":8069:8076   */\n      dup5\n        /* \"#utility.yul\":8065:8088   */\n      sub\n        /* \"#utility.yul\":8061:8093   */\n      slt\n        /* \"#utility.yul\":8058:8177   */\n      iszero\n      tag_317\n      jumpi\n        /* \"#utility.yul\":8096:8175   */\n      tag_318\n      tag_196\n      jump\t// in\n    tag_318:\n        /* \"#utility.yul\":8058:8177   */\n    tag_317:\n        /* \"#utility.yul\":8244:8245   */\n      0x00\n        /* \"#utility.yul\":8233:8242   */\n      dup3\n        /* \"#utility.yul\":8229:8246   */\n      add\n        /* \"#utility.yul\":8216:8247   */\n      calldataload\n        /* \"#utility.yul\":8274:8292   */\n      0xffffffffffffffff\n        /* \"#utility.yul\":8266:8272   */\n      dup2\n        /* \"#utility.yul\":8263:8293   */\n      gt\n        /* \"#utility.yul\":8260:8377   */\n      iszero\n      tag_319\n      jumpi\n        /* \"#utility.yul\":8296:8375   */\n      tag_320\n      tag_197\n      jump\t// in\n    tag_320:\n        /* \"#utility.yul\":8260:8377   */\n    tag_319:\n        /* \"#utility.yul\":8401:8464   */\n      tag_321\n        /* \"#utility.yul\":8456:8463   */\n      dup5\n        /* \"#utility.yul\":8447:8453   */\n      dup3\n        /* \"#utility.yul\":8436:8445   */\n      dup6\n        /* \"#utility.yul\":8432:8454   */\n      add\n        /* \"#utility.yul\":8401:8464   */\n      tag_207\n      jump\t// in\n    tag_321:\n        /* \"#utility.yul\":8391:8464   */\n      swap2\n      pop\n        /* \"#utility.yul\":8187:8474   */\n      pop\n        /* \"#utility.yul\":7972:8481   */\n      swap3\n      swap2\n      pop\n      pop\n      jump\t// out\n        /* \"#utility.yul\":8487:8667   */\n    tag_208:\n        /* \"#utility.yul\":8535:8612   */\n      0x4e487b7100000000000000000000000000000000000000000000000000000000\n        /* \"#utility.yul\":8532:8533   */\n      0x00\n        /* \"#utility.yul\":8525:8613   */\n      mstore\n        /* \"#utility.yul\":8632:8636   */\n      0x22\n        /* \"#utility.yul\":8629:8630   */\n      0x04\n        /* \"#utility.yul\":8622:8637   */\n      mstore\n        /* \"#utility.yul\":8656:8660   */\n      0x24\n        /* \"#utility.yul\":8653:8654   */\n      0x00\n        /* \"#utility.yul\":8646:8661   */\n      revert\n        /* \"#utility.yul\":8673:8993   */\n    tag_46:\n        /* \"#utility.yul\":8717:8723   */\n      0x00\n        /* \"#utility.yul\":8754:8755   */\n      0x02\n        /* \"#utility.yul\":8748:8752   */\n      dup3\n        /* \"#utility.yul\":8744:8756   */\n      div\n        /* \"#utility.yul\":8734:8756   */\n      swap1\n      pop\n        /* \"#utility.yul\":8801:8802   */\n      0x01\n        /* \"#utility.yul\":8795:8799   */\n      dup3\n        /* \"#utility.yul\":8791:8803   */\n      and\n        /* \"#utility.yul\":8822:8840   */\n      dup1\n        /* \"#utility.yul\":8812:8893   */\n      tag_324\n      jumpi\n        /* \"#utility.yul\":8878:8882   */\n      0x7f\n        /* \"#utility.yul\":8870:8876   */\n      dup3\n        /* \"#utility.yul\":8866:8883   */\n      and\n        /* \"#utility.yul\":8856:8883   */\n      swap2\n      pop\n        /* \"#utility.yul\":8812:8893   */\n    tag_324:\n        /* \"#utility.yul\":8940:8942   */\n      0x20\n        /* \"#utility.yul\":8932:8938   */\n      dup3\n        /* \"#utility.yul\":8929:8943   */\n      lt\n        /* \"#utility.yul\":8909:8927   */\n      dup2\n        /* \"#utility.yul\":8906:8944   */\n      sub\n        /* \"#utility.yul\":8903:8987   */\n      tag_325\n      jumpi\n        /* \"#utility.yul\":8959:8977   */\n      tag_326\n      tag_208\n      jump\t// in\n    tag_326:\n        /* \"#utility.yul\":8903:8987   */\n    tag_325:\n        /* \"#utility.yul\":8724:8993   */\n      pop\n        /* \"#utility.yul\":8673:8993   */\n      swap2\n      swap1\n      pop\n      jump\t// out\n        /* \"#utility.yul\":8999:9179   */\n    tag_56:\n        /* \"#utility.yul\":9047:9124   */\n      0x4e487b7100000000000000000000000000000000000000000000000000000000\n        /* \"#utility.yul\":9044:9045   */\n      0x00\n        /* \"#utility.yul\":9037:9125   */\n      mstore\n        /* \"#utility.yul\":9144:9148   */\n      0x32\n        /* \"#utility.yul\":9141:9142   */\n      0x04\n        /* \"#utility.yul\":9134:9149   */\n      mstore\n        /* \"#utility.yul\":9168:9172   */\n      0x24\n        /* \"#utility.yul\":9165:9166   */\n      0x00\n        /* \"#utility.yul\":9158:9173   */\n      revert\n        /* \"#utility.yul\":9185:9365   */\n    tag_209:\n        /* \"#utility.yul\":9233:9310   */\n      0x4e487b7100000000000000000000000000000000000000000000000000000000\n        /* \"#utility.yul\":9230:9231   */\n      0x00\n        /* \"#utility.yul\":9223:9311   */\n      mstore\n        /* \"#utility.yul\":9330:9334   */\n      0x11\n        /* \"#utility.yul\":9327:9328   */\n      0x04\n        /* \"#utility.yul\":9320:9335   */\n      mstore\n        /* \"#utility.yul\":9354:9358   */\n      0x24\n        /* \"#utility.yul\":9351:9352   */\n      0x00\n        /* \"#utility.yul\":9344:9359   */\n      revert\n        /* \"#utility.yul\":9371:9604   */\n    tag_59:\n        /* \"#utility.yul\":9410:9413   */\n      0x00\n        /* \"#utility.yul\":9433:9457   */\n      tag_330\n        /* \"#utility.yul\":9451:9456   */\n      dup3\n        /* \"#utility.yul\":9433:9457   */\n      tag_178\n      jump\t// in\n    tag_330:\n        /* \"#utility.yul\":9424:9457   */\n      swap2\n      pop\n        /* \"#utility.yul\":9479:9545   */\n      0xffffffffffffffffffffffffffffffffffffffffffffffffffffffffffffffff\n        /* \"#utility.yul\":9472:9477   */\n      dup3\n        /* \"#utility.yul\":9469:9546   */\n      sub\n        /* \"#utility.yul\":9466:9569   */\n      tag_331\n      jumpi\n        /* \"#utility.yul\":9549:9567   */\n      tag_332\n      tag_209\n      jump\t// in\n    tag_332:\n        /* \"#utility.yul\":9466:9569   */\n    tag_331:\n        /* \"#utility.yul\":9596:9597   */\n      0x01\n        /* \"#utility.yul\":9589:9594   */\n      dup3\n        /* \"#utility.yul\":9585:9598   */\n      add\n        /* \"#utility.yul\":9578:9598   */\n      swap1\n      pop\n        /* \"#utility.yul\":9371:9604   */\n      swap2\n      swap1\n      pop\n      jump\t// out\n        /* \"#utility.yul\":9610:9779   */\n    tag_210:\n        /* \"#utility.yul\":9694:9705   */\n      0x00\n        /* \"#utility.yul\":9728:9734   */\n      dup3\n        /* \"#utility.yul\":9723:9726   */\n      dup3\n        /* \"#utility.yul\":9716:9735   */\n      mstore\n        /* \"#utility.yul\":9768:9772   */\n      0x20\n        /* \"#utility.yul\":9763:9766   */\n      dup3\n        /* \"#utility.yul\":9759:9773   */\n      add\n        /* \"#utility.yul\":9744:9773   */\n      swap1\n      pop\n        /* \"#utility.yul\":9610:9779   */\n      swap3\n      swap2\n      pop\n      pop\n      jump\t// out\n        /* \"#utility.yul\":9785:9955   */\n    tag_211:\n        /* \"#utility.yul\":9925:9947   */\n      0x496e646578206f7574206f6620626f756e647321000000000000000000000000\n        /* \"#utility.yul\":9921:9922   */\n      0x00\n        /* \"#utility.yul\":9913:9919   */\n      dup3\n        /* \"#utility.yul\":9909:9923   */\n      add\n        /* \"#utility.yul\":9902:9948   */\n      mstore\n        /* \"#utility.yul\":9785:9955   */\n      pop\n      jump\t// out\n        /* \"#utility.yul\":9961:10327   */\n    tag_212:\n        /* \"#utility.yul\":10103:10106   */\n      0x00\n        /* \"#utility.yul\":10124:10191   */\n      tag_336\n        /* \"#utility.yul\":10188:10190   */\n      0x14\n        /* \"#utility.yul\":10183:10186   */\n      dup4\n        /* \"#utility.yul\":10124:10191   */\n      tag_210\n      jump\t// in\n    tag_336:\n        /* \"#utility.yul\":10117:10191   */\n      swap2\n      pop\n        /* \"#utility.yul\":10200:10293   */\n      tag_337\n        /* \"#utility.yul\":10289:10292   */\n      dup3\n        /* \"#utility.yul\":10200:10293   */\n      tag_211\n      jump\t// in\n    tag_337:\n        /* \"#utility.yul\":10318:10320   */\n      0x20\n        /* \"#utility.yul\":10313:10316   */\n      dup3\n        /* \"#utility.yul\":10309:10321   */\n      add\n        /* \"#utility.yul\":10302:10321   */\n      swap1\n      pop\n        /* \"#utility.yul\":9961:10327   */\n      swap2\n      swap1\n      pop\n      jump\t// out\n        /* \"#utility.yul\":10333:10752   */\n    tag_81:\n        /* \"#utility.yul\":10499:10503   */\n      0x00\n        /* \"#utility.yul\":10537:10539   */\n      0x20\n        /* \"#utility.yul\":10526:10535   */\n      dup3\n        /* \"#utility.yul\":10522:10540   */\n      add\n        /* \"#utility.yul\":10514:10540   */\n      swap1\n      pop\n        /* \"#utility.yul\":10586:10595   */\n      dup2\n        /* \"#utility.yul\":10580:10584   */\n      dup2\n        /* \"#utility.yul\":10576:10596   */\n      sub\n        /* \"#utility.yul\":10572:10573   */\n      0x00\n        /* \"#utility.yul\":10561:10570   */\n      dup4\n        /* \"#utility.yul\":10557:10574   */\n      add\n        /* \"#utility.yul\":10550:10597   */\n      mstore\n        /* \"#utility.yul\":10614:10745   */\n      tag_339\n        /* \"#utility.yul\":10740:10744   */\n      dup2\n        /* \"#utility.yul\":10614:10745   */\n      tag_212\n      jump\t// in\n    tag_339:\n        /* \"#utility.yul\":10606:10745   */\n      swap1\n      pop\n        /* \"#utility.yul\":10333:10752   */\n      swap2\n      swap1\n      pop\n      jump\t// out\n        /* \"#utility.yul\":10758:10926   */\n    tag_213:\n        /* \"#utility.yul\":10898:10918   */\n      0x416c726561647920636f6d706c65746564210000000000000000000000000000\n        /* \"#utility.yul\":10894:10895   */\n      0x00\n        /* \"#utility.yul\":10886:10892   */\n      dup3\n        /* \"#utility.yul\":10882:10896   */\n      add\n        /* \"#utility.yul\":10875:10919   */\n      mstore\n        /* \"#utility.yul\":10758:10926   */\n      pop\n      jump\t// out\n        /* \"#utility.yul\":10932:11298   */\n    tag_214:\n        /* \"#utility.yul\":11074:11077   */\n      0x00\n        /* \"#utility.yul\":11095:11162   */\n      tag_342\n        /* \"#utility.yul\":11159:11161   */\n      0x12\n        /* \"#utility.yul\":11154:11157   */\n      dup4\n        /* \"#utility.yul\":11095:11162   */\n      tag_210\n      jump\t// in\n    tag_342:\n        /* \"#utility.yul\":11088:11162   */\n      swap2\n      pop\n        /* \"#utility.yul\":11171:11264   */\n      tag_343\n        /* \"#utility.yul\":11260:11263   */\n      dup3\n        /* \"#utility.yul\":11171:11264   */\n      tag_213\n      jump\t// in\n    tag_343:\n        /* \"#utility.yul\":11289:11291   */\n      0x20\n        /* \"#utility.yul\":11284:11287   */\n      dup3\n        /* \"#utility.yul\":11280:11292   */\n      add\n        /* \"#utility.yul\":11273:11292   */\n      swap1\n      pop\n        /* \"#utility.yul\":10932:11298   */\n      swap2\n      swap1\n      pop\n      jump\t// out\n        /* \"#utility.yul\":11304:11723   */\n    tag_87:\n        /* \"#utility.yul\":11470:11474   */\n      0x00\n        /* \"#utility.yul\":11508:11510   */\n      0x20\n        /* \"#utility.yul\":11497:11506   */\n      dup3\n        /* \"#utility.yul\":11493:11511   */\n      add\n        /* \"#utility.yul\":11485:11511   */\n      swap1\n      pop\n        /* \"#utility.yul\":11557:11566   */\n      dup2\n        /* \"#utility.yul\":11551:11555   */\n      dup2\n        /* \"#utility.yul\":11547:11567   */\n      sub\n        /* \"#utility.yul\":11543:11544   */\n      0x00\n        /* \"#utility.yul\":11532:11541   */\n      dup4\n        /* \"#utility.yul\":11528:11545   */\n      add\n        /* \"#utility.yul\":11521:11568   */\n      mstore\n        /* \"#utility.yul\":11585:11716   */\n      tag_345\n        /* \"#utility.yul\":11711:11715   */\n      dup2\n        /* \"#utility.yul\":11585:11716   */\n      tag_214\n      jump\t// in\n    tag_345:\n        /* \"#utility.yul\":11577:11716   */\n      swap1\n      pop\n        /* \"#utility.yul\":11304:11723   */\n      swap2\n      swap1\n      pop\n      jump\t// out\n        /* \"#utility.yul\":11729:11923   */\n    tag_96:\n        /* \"#utility.yul\":11769:11773   */\n      0x00\n        /* \"#utility.yul\":11789:11809   */\n      tag_347\n        /* \"#utility.yul\":11807:11808   */\n      dup3\n        /* \"#utility.yul\":11789:11809   */\n      tag_178\n      jump\t// in\n    tag_347:\n        /* \"#utility.yul\":11784:11809   */\n      swap2\n      pop\n        /* \"#utility.yul\":11823:11843   */\n      tag_348\n        /* \"#utility.yul\":11841:11842   */\n      dup4\n        /* \"#utility.yul\":11823:11843   */\n      tag_178\n      jump\t// in\n    tag_348:\n        /* \"#utility.yul\":11818:11843   */\n      swap3\n      pop\n        /* \"#utility.yul\":11867:11868   */\n      dup3\n        /* \"#utility.yul\":11864:11865   */\n      dup3\n        /* \"#utility.yul\":11860:11869   */\n      sub\n        /* \"#utility.yul\":11852:11869   */\n      swap1\n      pop\n        /* \"#utility.yul\":11891:11892   */\n      dup2\n        /* \"#utility.yul\":11885:11889   */\n      dup2\n        /* \"#utility.yul\":11882:11893   */\n      gt\n        /* \"#utility.yul\":11879:11916   */\n      iszero\n      tag_349\n      jumpi\n        /* \"#utility.yul\":11896:11914   */\n      tag_350\n      tag_209\n      jump\t// in\n    tag_350:\n        /* \"#utility.yul\":11879:11916   */\n    tag_349:\n        /* \"#utility.yul\":11729:11923   */\n      swap3\n      swap2\n      pop\n      pop\n      jump\t// out\n        /* \"#utility.yul\":11929:12078   */\n    tag_215:\n        /* \"#utility.yul\":11978:11984   */\n      0x00\n        /* \"#utility.yul\":12012:12017   */\n      dup2\n        /* \"#utility.yul\":12006:12018   */\n      sload\n        /* \"#utility.yul\":11996:12018   */\n      swap1\n      pop\n        /* \"#utility.yul\":12038:12071   */\n      tag_352\n        /* \"#utility.yul\":12064:12070   */\n      dup2\n        /* \"#utility.yul\":12038:12071   */\n      tag_46\n      jump\t// in\n    tag_352:\n        /* \"#utility.yul\":12028:12071   */\n      swap1\n      pop\n        /* \"#utility.yul\":11929:12078   */\n      swap2\n      swap1\n      pop\n      jump\t// out\n        /* \"#utility.yul\":12084:12225   */\n    tag_216:\n        /* \"#utility.yul\":12133:12137   */\n      0x00\n        /* \"#utility.yul\":12156:12159   */\n      dup2\n        /* \"#utility.yul\":12148:12159   */\n      swap1\n      pop\n        /* \"#utility.yul\":12179:12182   */\n      dup2\n        /* \"#utility.yul\":12176:12177   */\n      0x00\n        /* \"#utility.yul\":12169:12183   */\n      mstore\n        /* \"#utility.yul\":12213:12217   */\n      0x20\n        /* \"#utility.yul\":12210:12211   */\n      0x00\n        /* \"#utility.yul\":12200:12218   */\n      keccak256\n        /* \"#utility.yul\":12192:12218   */\n      swap1\n      pop\n        /* \"#utility.yul\":12084:12225   */\n      swap2\n      swap1\n      pop\n      jump\t// out\n        /* \"#utility.yul\":12231:12324   */\n    tag_217:\n        /* \"#utility.yul\":12268:12274   */\n      0x00\n        /* \"#utility.yul\":12315:12317   */\n      0x20\n        /* \"#utility.yul\":12310:12312   */\n      0x1f\n        /* \"#utility.yul\":12303:12308   */\n      dup4\n        /* \"#utility.yul\":12299:12313   */\n      add\n        /* \"#utility.yul\":12295:12318   */\n      div\n        /* \"#utility.yul\":12285:12318   */\n      swap1\n      pop\n        /* \"#utility.yul\":12231:12324   */\n      swap2\n      swap1\n      pop\n      jump\t// out\n        /* \"#utility.yul\":12330:12437   */\n    tag_218:\n        /* \"#utility.yul\":12374:12382   */\n      0x00\n        /* \"#utility.yul\":12424:12429   */\n      dup3\n        /* \"#utility.yul\":12418:12422   */\n      dup3\n        /* \"#utility.yul\":12414:12430   */\n      shl\n        /* \"#utility.yul\":12393:12430   */\n      swap1\n      pop\n        /* \"#utility.yul\":12330:12437   */\n      swap3\n      swap2\n      pop\n      pop\n      jump\t// out\n        /* \"#utility.yul\":12443:12836   */\n    tag_219:\n        /* \"#utility.yul\":12512:12518   */\n      0x00\n        /* \"#utility.yul\":12562:12563   */\n      0x08\n        /* \"#utility.yul\":12550:12560   */\n      dup4\n        /* \"#utility.yul\":12546:12564   */\n      mul\n        /* \"#utility.yul\":12585:12682   */\n      tag_357\n        /* \"#utility.yul\":12615:12681   */\n      0xffffffffffffffffffffffffffffffffffffffffffffffffffffffffffffffff\n        /* \"#utility.yul\":12604:12613   */\n      dup3\n        /* \"#utility.yul\":12585:12682   */\n      tag_218\n      jump\t// in\n    tag_357:\n        /* \"#utility.yul\":12703:12742   */\n      tag_358\n        /* \"#utility.yul\":12733:12741   */\n      dup7\n        /* \"#utility.yul\":12722:12731   */\n      dup4\n        /* \"#utility.yul\":12703:12742   */\n      tag_218\n      jump\t// in\n    tag_358:\n        /* \"#utility.yul\":12691:12742   */\n      swap6\n      pop\n        /* \"#utility.yul\":12775:12779   */\n      dup1\n        /* \"#utility.yul\":12771:12780   */\n      not\n        /* \"#utility.yul\":12764:12769   */\n      dup5\n        /* \"#utility.yul\":12760:12781   */\n      and\n        /* \"#utility.yul\":12751:12781   */\n      swap4\n      pop\n        /* \"#utility.yul\":12824:12828   */\n      dup1\n        /* \"#utility.yul\":12814:12822   */\n      dup7\n        /* \"#utility.yul\":12810:12829   */\n      and\n        /* \"#utility.yul\":12803:12808   */\n      dup5\n        /* \"#utility.yul\":12800:12830   */\n      or\n        /* \"#utility.yul\":12790:12830   */\n      swap3\n      pop\n        /* \"#utility.yul\":12519:12836   */\n      pop\n      pop\n        /* \"#utility.yul\":12443:12836   */\n      swap4\n      swap3\n      pop\n      pop\n      pop\n      jump\t// out\n        /* \"#utility.yul\":12842:12902   */\n    tag_220:\n        /* \"#utility.yul\":12870:12873   */\n      0x00\n        /* \"#utility.yul\":12891:12896   */\n      dup2\n        /* \"#utility.yul\":12884:12896   */\n      swap1\n      pop\n        /* \"#utility.yul\":12842:12902   */\n      swap2\n      swap1\n      pop\n      jump\t// out\n        /* \"#utility.yul\":12908:13050   */\n    tag_221:\n        /* \"#utility.yul\":12958:12967   */\n      0x00\n        /* \"#utility.yul\":12991:13044   */\n      tag_361\n        /* \"#utility.yul\":13009:13043   */\n      tag_362\n        /* \"#utility.yul\":13018:13042   */\n      tag_363\n        /* \"#utility.yul\":13036:13041   */\n      dup5\n        /* \"#utility.yul\":13018:13042   */\n      tag_178\n      jump\t// in\n    tag_363:\n        /* \"#utility.yul\":13009:13043   */\n      tag_220\n      jump\t// in\n    tag_362:\n        /* \"#utility.yul\":12991:13044   */\n      tag_178\n      jump\t// in\n    tag_361:\n        /* \"#utility.yul\":12978:13044   */\n      swap1\n      pop\n        /* \"#utility.yul\":12908:13050   */\n      swap2\n      swap1\n      pop\n      jump\t// out\n        /* \"#utility.yul\":13056:13131   */\n    tag_222:\n        /* \"#utility.yul\":13099:13102   */\n      0x00\n        /* \"#utility.yul\":13120:13125   */\n      dup2\n        /* \"#utility.yul\":13113:13125   */\n      swap1\n      pop\n        /* \"#utility.yul\":13056:13131   */\n      swap2\n      swap1\n      pop\n      jump\t// out\n        /* \"#utility.yul\":13137:13406   */\n    tag_223:\n        /* \"#utility.yul\":13247:13286   */\n      tag_366\n        /* \"#utility.yul\":13278:13285   */\n      dup4\n        /* \"#utility.yul\":13247:13286   */\n      tag_221\n      jump\t// in\n    tag_366:\n        /* \"#utility.yul\":13308:13399   */\n      tag_367\n        /* \"#utility.yul\":13357:13398   */\n      tag_368\n        /* \"#utility.yul\":13381:13397   */\n      dup3\n        /* \"#utility.yul\":13357:13398   */\n      tag_222\n      jump\t// in\n    tag_368:\n        /* \"#utility.yul\":13349:13355   */\n      dup5\n        /* \"#utility.yul\":13342:13346   */\n      dup5\n        /* \"#utility.yul\":13336:13347   */\n      sload\n        /* \"#utility.yul\":13308:13399   */\n      tag_219\n      jump\t// in\n    tag_367:\n        /* \"#utility.yul\":13302:13306   */\n      dup3\n        /* \"#utility.yul\":13295:13400   */\n      sstore\n        /* \"#utility.yul\":13213:13406   */\n      pop\n        /* \"#utility.yul\":13137:13406   */\n      pop\n      pop\n      pop\n      jump\t// out\n        /* \"#utility.yul\":13412:13485   */\n    tag_224:\n        /* \"#utility.yul\":13457:13460   */\n      0x00\n        /* \"#utility.yul\":13478:13479   */\n      0x00\n        /* \"#utility.yul\":13471:13479   */\n      swap1\n      pop\n        /* \"#utility.yul\":13412:13485   */\n      swap1\n      jump\t// out\n        /* \"#utility.yul\":13491:13680   */\n    tag_225:\n        /* \"#utility.yul\":13568:13600   */\n      tag_371\n      tag_224\n      jump\t// in\n    tag_371:\n        /* \"#utility.yul\":13609:13674   */\n      tag_372\n        /* \"#utility.yul\":13667:13673   */\n      dup2\n        /* \"#utility.yul\":13659:13665   */\n      dup5\n        /* \"#utility.yul\":13653:13657   */\n      dup5\n        /* \"#utility.yul\":13609:13674   */\n      tag_223\n      jump\t// in\n    tag_372:\n        /* \"#utility.yul\":13544:13680   */\n      pop\n        /* \"#utility.yul\":13491:13680   */\n      pop\n      pop\n      jump\t// out\n        /* \"#utility.yul\":13686:13900   */\n    tag_226:\n        /* \"#utility.yul\":13771:13772   */\n      0x00\n        /* \"#utility.yul\":13756:13894   */\n    tag_374:\n        /* \"#utility.yul\":13781:13790   */\n      dup3\n        /* \"#utility.yul\":13778:13779   */\n      dup2\n        /* \"#utility.yul\":13775:13791   */\n      lt\n        /* \"#utility.yul\":13756:13894   */\n      iszero\n      tag_376\n      jumpi\n        /* \"#utility.yul\":13833:13884   */\n      tag_377\n        /* \"#utility.yul\":13882:13883   */\n      0x00\n        /* \"#utility.yul\":13878:13879   */\n      dup3\n        /* \"#utility.yul\":13867:13876   */\n      dup5\n        /* \"#utility.yul\":13863:13880   */\n      add\n        /* \"#utility.yul\":13833:13884   */\n      tag_225\n      jump\t// in\n    tag_377:\n        /* \"#utility.yul\":13806:13807   */\n      0x01\n        /* \"#utility.yul\":13803:13804   */\n      dup2\n        /* \"#utility.yul\":13799:13808   */\n      add\n        /* \"#utility.yul\":13794:13808   */\n      swap1\n      pop\n        /* \"#utility.yul\":13756:13894   */\n      jump(tag_374)\n    tag_376:\n        /* \"#utility.yul\":13760:13774   */\n      pop\n        /* \"#utility.yul\":13686:13900   */\n      pop\n      pop\n      jump\t// out\n        /* \"#utility.yul\":13906:14652   */\n    tag_227:\n        /* \"#utility.yul\":14007:14009   */\n      0x1f\n        /* \"#utility.yul\":14002:14005   */\n      dup3\n        /* \"#utility.yul\":13999:14010   */\n      gt\n        /* \"#utility.yul\":13996:14645   */\n      iszero\n      tag_379\n      jumpi\n        /* \"#utility.yul\":14036:14046   */\n      dup3\n        /* \"#utility.yul\":14031:14034   */\n      dup3\n        /* \"#utility.yul\":14028:14047   */\n      gt\n        /* \"#utility.yul\":14025:14635   */\n      iszero\n      tag_380\n      jumpi\n        /* \"#utility.yul\":14082:14120   */\n      tag_381\n        /* \"#utility.yul\":14114:14119   */\n      dup2\n        /* \"#utility.yul\":14082:14120   */\n      tag_216\n      jump\t// in\n    tag_381:\n        /* \"#utility.yul\":14157:14179   */\n      tag_382\n        /* \"#utility.yul\":14175:14178   */\n      dup4\n        /* \"#utility.yul\":14157:14179   */\n      tag_217\n      jump\t// in\n    tag_382:\n        /* \"#utility.yul\":14216:14245   */\n      tag_383\n        /* \"#utility.yul\":14234:14244   */\n      dup6\n        /* \"#utility.yul\":14216:14245   */\n      tag_217\n      jump\t// in\n    tag_383:\n        /* \"#utility.yul\":14406:14408   */\n      0x20\n        /* \"#utility.yul\":14394:14404   */\n      dup7\n        /* \"#utility.yul\":14391:14409   */\n      lt\n        /* \"#utility.yul\":14388:14467   */\n      iszero\n      tag_384\n      jumpi\n        /* \"#utility.yul\":14448:14449   */\n      0x00\n        /* \"#utility.yul\":14432:14449   */\n      swap1\n      pop\n        /* \"#utility.yul\":14388:14467   */\n    tag_384:\n        /* \"#utility.yul\":14517:14529   */\n      dup1\n        /* \"#utility.yul\":14507:14515   */\n      dup4\n        /* \"#utility.yul\":14503:14530   */\n      add\n        /* \"#utility.yul\":14547:14621   */\n      tag_385\n        /* \"#utility.yul\":14607:14619   */\n      dup3\n        /* \"#utility.yul\":14593:14605   */\n      dup5\n        /* \"#utility.yul\":14589:14620   */\n      sub\n        /* \"#utility.yul\":14576:14587   */\n      dup3\n        /* \"#utility.yul\":14547:14621   */\n      tag_226\n      jump\t// in\n    tag_385:\n        /* \"#utility.yul\":14048:14635   */\n      pop\n      pop\n      pop\n      pop\n        /* \"#utility.yul\":14025:14635   */\n    tag_380:\n        /* \"#utility.yul\":13996:14645   */\n    tag_379:\n        /* \"#utility.yul\":13906:14652   */\n      pop\n      pop\n      pop\n      jump\t// out\n        /* \"#utility.yul\":14658:14775   */\n    tag_228:\n        /* \"#utility.yul\":14712:14720   */\n      0x00\n        /* \"#utility.yul\":14762:14767   */\n      dup3\n        /* \"#utility.yul\":14756:14760   */\n      dup3\n        /* \"#utility.yul\":14752:14768   */\n      shr\n        /* \"#utility.yul\":14731:14768   */\n      swap1\n      pop\n        /* \"#utility.yul\":14658:14775   */\n      swap3\n      swap2\n      pop\n      pop\n      jump\t// out\n        /* \"#utility.yul\":14781:14950   */\n    tag_229:\n        /* \"#utility.yul\":14825:14831   */\n      0x00\n        /* \"#utility.yul\":14858:14909   */\n      tag_388\n        /* \"#utility.yul\":14906:14907   */\n      0x00\n        /* \"#utility.yul\":14902:14908   */\n      not\n        /* \"#utility.yul\":14894:14899   */\n      dup5\n        /* \"#utility.yul\":14891:14892   */\n      0x08\n        /* \"#utility.yul\":14887:14900   */\n      mul\n        /* \"#utility.yul\":14858:14909   */\n      tag_228\n      jump\t// in\n    tag_388:\n        /* \"#utility.yul\":14854:14910   */\n      not\n        /* \"#utility.yul\":14939:14943   */\n      dup1\n        /* \"#utility.yul\":14933:14937   */\n      dup4\n        /* \"#utility.yul\":14929:14944   */\n      and\n        /* \"#utility.yul\":14919:14944   */\n      swap2\n      pop\n        /* \"#utility.yul\":14832:14950   */\n      pop\n        /* \"#utility.yul\":14781:14950   */\n      swap3\n      swap2\n      pop\n      pop\n      jump\t// out\n        /* \"#utility.yul\":14955:15250   */\n    tag_230:\n        /* \"#utility.yul\":15031:15035   */\n      0x00\n        /* \"#utility.yul\":15177:15206   */\n      tag_390\n        /* \"#utility.yul\":15202:15205   */\n      dup4\n        /* \"#utility.yul\":15196:15200   */\n      dup4\n        /* \"#utility.yul\":15177:15206   */\n      tag_229\n      jump\t// in\n    tag_390:\n        /* \"#utility.yul\":15169:15206   */\n      swap2\n      pop\n        /* \"#utility.yul\":15239:15242   */\n      dup3\n        /* \"#utility.yul\":15236:15237   */\n      0x02\n        /* \"#utility.yul\":15232:15243   */\n      mul\n        /* \"#utility.yul\":15226:15230   */\n      dup3\n        /* \"#utility.yul\":15223:15244   */\n      or\n        /* \"#utility.yul\":15215:15244   */\n      swap1\n      pop\n        /* \"#utility.yul\":14955:15250   */\n      swap3\n      swap2\n      pop\n      pop\n      jump\t// out\n        /* \"#utility.yul\":15255:16706   */\n    tag_106:\n        /* \"#utility.yul\":15366:15369   */\n      dup2\n        /* \"#utility.yul\":15360:15364   */\n      dup2\n        /* \"#utility.yul\":15357:15370   */\n      sub\n        /* \"#utility.yul\":15354:15380   */\n      tag_392\n      jumpi\n        /* \"#utility.yul\":15373:15378   */\n      pop\n      pop\n      jump(tag_391)\n        /* \"#utility.yul\":15354:15380   */\n    tag_392:\n        /* \"#utility.yul\":15404:15438   */\n      tag_393\n        /* \"#utility.yul\":15434:15437   */\n      dup3\n        /* \"#utility.yul\":15404:15438   */\n      tag_215\n      jump\t// in\n    tag_393:\n        /* \"#utility.yul\":15503:15521   */\n      0xffffffffffffffff\n        /* \"#utility.yul\":15495:15501   */\n      dup2\n        /* \"#utility.yul\":15492:15522   */\n      gt\n        /* \"#utility.yul\":15489:15545   */\n      iszero\n      tag_394\n      jumpi\n        /* \"#utility.yul\":15525:15543   */\n      tag_395\n      tag_62\n      jump\t// in\n    tag_395:\n        /* \"#utility.yul\":15489:15545   */\n    tag_394:\n        /* \"#utility.yul\":15569:15607   */\n      tag_396\n        /* \"#utility.yul\":15601:15605   */\n      dup3\n        /* \"#utility.yul\":15595:15606   */\n      sload\n        /* \"#utility.yul\":15569:15607   */\n      tag_46\n      jump\t// in\n    tag_396:\n        /* \"#utility.yul\":15654:15721   */\n      tag_397\n        /* \"#utility.yul\":15714:15720   */\n      dup3\n        /* \"#utility.yul\":15706:15712   */\n      dup3\n        /* \"#utility.yul\":15700:15704   */\n      dup6\n        /* \"#utility.yul\":15654:15721   */\n      tag_227\n      jump\t// in\n    tag_397:\n        /* \"#utility.yul\":15748:15749   */\n      0x00\n        /* \"#utility.yul\":15777:15779   */\n      0x1f\n        /* \"#utility.yul\":15769:15775   */\n      dup4\n        /* \"#utility.yul\":15766:15780   */\n      gt\n        /* \"#utility.yul\":15794:15795   */\n      0x01\n        /* \"#utility.yul\":15789:16461   */\n      dup2\n      eq\n      tag_399\n      jumpi\n        /* \"#utility.yul\":16505:16506   */\n      0x00\n        /* \"#utility.yul\":16522:16528   */\n      dup5\n        /* \"#utility.yul\":16519:16596   */\n      iszero\n      tag_400\n      jumpi\n        /* \"#utility.yul\":16571:16580   */\n      dup3\n        /* \"#utility.yul\":16566:16569   */\n      dup8\n        /* \"#utility.yul\":16562:16581   */\n      add\n        /* \"#utility.yul\":16556:16582   */\n      sload\n        /* \"#utility.yul\":16547:16582   */\n      swap1\n      pop\n        /* \"#utility.yul\":16519:16596   */\n    tag_400:\n        /* \"#utility.yul\":16622:16689   */\n      tag_401\n        /* \"#utility.yul\":16682:16688   */\n      dup6\n        /* \"#utility.yul\":16675:16680   */\n      dup3\n        /* \"#utility.yul\":16622:16689   */\n      tag_230\n      jump\t// in\n    tag_401:\n        /* \"#utility.yul\":16616:16620   */\n      dup7\n        /* \"#utility.yul\":16609:16690   */\n      sstore\n        /* \"#utility.yul\":16478:16700   */\n      pop\n        /* \"#utility.yul\":15759:16700   */\n      jump(tag_398)\n        /* \"#utility.yul\":15789:16461   */\n    tag_399:\n        /* \"#utility.yul\":15841:15845   */\n      0x1f\n        /* \"#utility.yul\":15837:15846   */\n      not\n        /* \"#utility.yul\":15829:15835   */\n      dup5\n        /* \"#utility.yul\":15825:15847   */\n      and\n        /* \"#utility.yul\":15867:15903   */\n      tag_402\n        /* \"#utility.yul\":15899:15902   */\n      dup8\n        /* \"#utility.yul\":15867:15903   */\n      tag_216\n      jump\t// in\n    tag_402:\n        /* \"#utility.yul\":15860:15903   */\n      swap7\n      pop\n        /* \"#utility.yul\":15930:15967   */\n      tag_403\n        /* \"#utility.yul\":15962:15966   */\n      dup7\n        /* \"#utility.yul\":15930:15967   */\n      tag_216\n      jump\t// in\n    tag_403:\n        /* \"#utility.yul\":15989:15990   */\n      0x00\n        /* \"#utility.yul\":16003:16210   */\n    tag_404:\n        /* \"#utility.yul\":16017:16024   */\n      dup3\n        /* \"#utility.yul\":16014:16015   */\n      dup2\n        /* \"#utility.yul\":16011:16025   */\n      lt\n        /* \"#utility.yul\":16003:16210   */\n      iszero\n      tag_406\n      jumpi\n        /* \"#utility.yul\":16096:16105   */\n      dup5\n        /* \"#utility.yul\":16091:16094   */\n      dup10\n        /* \"#utility.yul\":16087:16106   */\n      add\n        /* \"#utility.yul\":16081:16107   */\n      sload\n        /* \"#utility.yul\":16073:16079   */\n      dup3\n        /* \"#utility.yul\":16066:16108   */\n      sstore\n        /* \"#utility.yul\":16147:16148   */\n      0x01\n        /* \"#utility.yul\":16139:16145   */\n      dup3\n        /* \"#utility.yul\":16135:16149   */\n      add\n        /* \"#utility.yul\":16125:16149   */\n      swap2\n      pop\n        /* \"#utility.yul\":16194:16195   */\n      0x01\n        /* \"#utility.yul\":16183:16192   */\n      dup6\n        /* \"#utility.yul\":16179:16196   */\n      add\n        /* \"#utility.yul\":16166:16196   */\n      swap5\n      pop\n        /* \"#utility.yul\":16040:16044   */\n      0x20\n        /* \"#utility.yul\":16037:16038   */\n      dup2\n        /* \"#utility.yul\":16033:16045   */\n      add\n        /* \"#utility.yul\":16028:16045   */\n      swap1\n      pop\n        /* \"#utility.yul\":16003:16210   */\n      jump(tag_404)\n    tag_406:\n        /* \"#utility.yul\":16238:16244   */\n      dup7\n        /* \"#utility.yul\":16229:16236   */\n      dup4\n        /* \"#utility.yul\":16226:16245   */\n      lt\n        /* \"#utility.yul\":16223:16402   */\n      iszero\n      tag_407\n      jumpi\n        /* \"#utility.yul\":16296:16305   */\n      dup5\n        /* \"#utility.yul\":16291:16294   */\n      dup10\n        /* \"#utility.yul\":16287:16306   */\n      add\n        /* \"#utility.yul\":16281:16307   */\n      sload\n        /* \"#utility.yul\":16339:16387   */\n      tag_408\n        /* \"#utility.yul\":16381:16385   */\n      0x1f\n        /* \"#utility.yul\":16373:16379   */\n      dup10\n        /* \"#utility.yul\":16369:16386   */\n      and\n        /* \"#utility.yul\":16358:16367   */\n      dup3\n        /* \"#utility.yul\":16339:16387   */\n      tag_229\n      jump\t// in\n    tag_408:\n        /* \"#utility.yul\":16331:16337   */\n      dup4\n        /* \"#utility.yul\":16324:16388   */\n      sstore\n        /* \"#utility.yul\":16246:16402   */\n      pop\n        /* \"#utility.yul\":16223:16402   */\n    tag_407:\n        /* \"#utility.yul\":16448:16449   */\n      0x01\n        /* \"#utility.yul\":16444:16445   */\n      0x02\n        /* \"#utility.yul\":16436:16442   */\n      dup9\n        /* \"#utility.yul\":16432:16446   */\n      mul\n        /* \"#utility.yul\":16428:16450   */\n      add\n        /* \"#utility.yul\":16422:16426   */\n      dup9\n        /* \"#utility.yul\":16415:16451   */\n      sstore\n        /* \"#utility.yul\":15796:16461   */\n      pop\n      pop\n      pop\n        /* \"#utility.yul\":15759:16700   */\n    tag_398:\n      pop\n        /* \"#utility.yul\":15344:16706   */\n      pop\n      pop\n      pop\n        /* \"#utility.yul\":15255:16706   */\n      pop\n      pop\n    tag_391:\n      jump\t// out\n        /* \"#utility.yul\":16712:16892   */\n    tag_109:\n        /* \"#utility.yul\":16760:16837   */\n      0x4e487b7100000000000000000000000000000000000000000000000000000000\n        /* \"#utility.yul\":16757:16758   */\n      0x00\n        /* \"#utility.yul\":16750:16838   */\n      mstore\n        /* \"#utility.yul\":16857:16861   */\n      0x31\n        /* \"#utility.yul\":16854:16855   */\n      0x04\n        /* \"#utility.yul\":16847:16862   */\n      mstore\n        /* \"#utility.yul\":16881:16885   */\n      0x24\n        /* \"#utility.yul\":16878:16879   */\n      0x00\n        /* \"#utility.yul\":16871:16886   */\n      revert\n        /* \"#utility.yul\":16898:17069   */\n    tag_231:\n        /* \"#utility.yul\":17038:17061   */\n      0x5461736b2063616e6e6f7420626520656d707479210000000000000000000000\n        /* \"#utility.yul\":17034:17035   */\n      0x00\n        /* \"#utility.yul\":17026:17032   */\n      dup3\n        /* \"#utility.yul\":17022:17036   */\n      add\n        /* \"#utility.yul\":17015:17062   */\n      mstore\n        /* \"#utility.yul\":16898:17069   */\n      pop\n      jump\t// out\n        /* \"#utility.yul\":17075:17441   */\n    tag_232:\n        /* \"#utility.yul\":17217:17220   */\n      0x00\n        /* \"#utility.yul\":17238:17305   */\n      tag_412\n        /* \"#utility.yul\":17302:17304   */\n      0x15\n        /* \"#utility.yul\":17297:17300   */\n      dup4\n        /* \"#utility.yul\":17238:17305   */\n      tag_210\n      jump\t// in\n    tag_412:\n        /* \"#utility.yul\":17231:17305   */\n      swap2\n      pop\n        /* \"#utility.yul\":17314:17407   */\n      tag_413\n        /* \"#utility.yul\":17403:17406   */\n      dup3\n        /* \"#utility.yul\":17314:17407   */\n      tag_231\n      jump\t// in\n    tag_413:\n        /* \"#utility.yul\":17432:17434   */\n      0x20\n        /* \"#utility.yul\":17427:17430   */\n      dup3\n        /* \"#utility.yul\":17423:17435   */\n      add\n        /* \"#utility.yul\":17416:17435   */\n      swap1\n      pop\n        /* \"#utility.yul\":17075:17441   */\n      swap2\n      swap1\n      pop\n      jump\t// out\n        /* \"#utility.yul\":17447:17866   */\n    tag_117:\n        /* \"#utility.yul\":17613:17617   */\n      0x00\n        /* \"#utility.yul\":17651:17653   */\n      0x20\n        /* \"#utility.yul\":17640:17649   */\n      dup3\n        /* \"#utility.yul\":17636:17654   */\n      add\n        /* \"#utility.yul\":17628:17654   */\n      swap1\n      pop\n        /* \"#utility.yul\":17700:17709   */\n      dup2\n        /* \"#utility.yul\":17694:17698   */\n      dup2\n        /* \"#utility.yul\":17690:17710   */\n      sub\n        /* \"#utility.yul\":17686:17687   */\n      0x00\n        /* \"#utility.yul\":17675:17684   */\n      dup4\n        /* \"#utility.yul\":17671:17688   */\n      add\n        /* \"#utility.yul\":17664:17711   */\n      mstore\n        /* \"#utility.yul\":17728:17859   */\n      tag_415\n        /* \"#utility.yul\":17854:17858   */\n      dup2\n        /* \"#utility.yul\":17728:17859   */\n      tag_232\n      jump\t// in\n    tag_415:\n        /* \"#utility.yul\":17720:17859   */\n      swap1\n      pop\n        /* \"#utility.yul\":17447:17866   */\n      swap2\n      swap1\n      pop\n      jump\t// out\n        /* \"#utility.yul\":17872:18035   */\n    tag_233:\n        /* \"#utility.yul\":18012:18027   */\n      0x5461736b20746f6f206c6f6e6700000000000000000000000000000000000000\n        /* \"#utility.yul\":18008:18009   */\n      0x00\n        /* \"#utility.yul\":18000:18006   */\n      dup3\n        /* \"#utility.yul\":17996:18010   */\n      add\n        /* \"#utility.yul\":17989:18028   */\n      mstore\n        /* \"#utility.yul\":17872:18035   */\n      pop\n      jump\t// out\n        /* \"#utility.yul\":18041:18407   */\n    tag_234:\n        /* \"#utility.yul\":18183:18186   */\n      0x00\n        /* \"#utility.yul\":18204:18271   */\n      tag_418\n        /* \"#utility.yul\":18268:18270   */\n      0x0d\n        /* \"#utility.yul\":18263:18266   */\n      dup4\n        /* \"#utility.yul\":18204:18271   */\n      tag_210\n      jump\t// in\n    tag_418:\n        /* \"#utility.yul\":18197:18271   */\n      swap2\n      pop\n        /* \"#utility.yul\":18280:18373   */\n      tag_419\n        /* \"#utility.yul\":18369:18372   */\n      dup3\n        /* \"#utility.yul\":18280:18373   */\n      tag_233\n      jump\t// in\n    tag_419:\n        /* \"#utility.yul\":18398:18400   */\n      0x20\n        /* \"#utility.yul\":18393:18396   */\n      dup3\n        /* \"#utility.yul\":18389:18401   */\n      add\n        /* \"#utility.yul\":18382:18401   */\n      swap1\n      pop\n        /* \"#utility.yul\":18041:18407   */\n      swap2\n      swap1\n      pop\n      jump\t// out\n        /* \"#utility.yul\":18413:18832   */\n    tag_120:\n        /* \"#utility.yul\":18579:18583   */\n      0x00\n        /* \"#utility.yul\":18617:18619   */\n      0x20\n        /* \"#utility.yul\":18606:18615   */\n      dup3\n        /* \"#utility.yul\":18602:18620   */\n      add\n        /* \"#utility.yul\":18594:18620   */\n      swap1\n      pop\n        /* \"#utility.yul\":18666:18675   */\n      dup2\n        /* \"#utility.yul\":18660:18664   */\n      dup2\n        /* \"#utility.yul\":18656:18676   */\n      sub\n        /* \"#utility.yul\":18652:18653   */\n      0x00\n        /* \"#utility.yul\":18641:18650   */\n      dup4\n        /* \"#utility.yul\":18637:18654   */\n      add\n        /* \"#utility.yul\":18630:18677   */\n      mstore\n        /* \"#utility.yul\":18694:18825   */\n      tag_421\n        /* \"#utility.yul\":18820:18824   */\n      dup2\n        /* \"#utility.yul\":18694:18825   */\n      tag_234\n      jump\t// in\n    tag_421:\n        /* \"#utility.yul\":18686:18825   */\n      swap1\n      pop\n        /* \"#utility.yul\":18413:18832   */\n      swap2\n      swap1\n      pop\n      jump\t// out\n        /* \"#utility.yul\":18838:19007   */\n    tag_235:\n        /* \"#utility.yul\":18978:18999   */\n      0x546f20646f206c6973742069732066756c6c2100000000000000000000000000\n        /* \"#utility.yul\":18974:18975   */\n      0x00\n        /* \"#utility.yul\":18966:18972   */\n      dup3\n        /* \"#utility.yul\":18962:18976   */\n      add\n        /* \"#utility.yul\":18955:19000   */\n      mstore\n        /* \"#utility.yul\":18838:19007   */\n      pop\n      jump\t// out\n        /* \"#utility.yul\":19013:19379   */\n    tag_236:\n        /* \"#utility.yul\":19155:19158   */\n      0x00\n        /* \"#utility.yul\":19176:19243   */\n      tag_424\n        /* \"#utility.yul\":19240:19242   */\n      0x13\n        /* \"#utility.yul\":19235:19238   */\n      dup4\n        /* \"#utility.yul\":19176:19243   */\n      tag_210\n      jump\t// in\n    tag_424:\n        /* \"#utility.yul\":19169:19243   */\n      swap2\n      pop\n        /* \"#utility.yul\":19252:19345   */\n      tag_425\n        /* \"#utility.yul\":19341:19344   */\n      dup3\n        /* \"#utility.yul\":19252:19345   */\n      tag_235\n      jump\t// in\n    tag_425:\n        /* \"#utility.yul\":19370:19372   */\n      0x20\n        /* \"#utility.yul\":19365:19368   */\n      dup3\n        /* \"#utility.yul\":19361:19373   */\n      add\n        /* \"#utility.yul\":19354:19373   */\n      swap1\n      pop\n        /* \"#utility.yul\":19013:19379   */\n      swap2\n      swap1\n      pop\n      jump\t// out\n        /* \"#utility.yul\":19385:19804   */\n    tag_123:\n        /* \"#utility.yul\":19551:19555   */\n      0x00\n        /* \"#utility.yul\":19589:19591   */\n      0x20\n        /* \"#utility.yul\":19578:19587   */\n      dup3\n        /* \"#utility.yul\":19574:19592   */\n      add\n        /* \"#utility.yul\":19566:19592   */\n      swap1\n      pop\n        /* \"#utility.yul\":19638:19647   */\n      dup2\n        /* \"#utility.yul\":19632:19636   */\n      dup2\n        /* \"#utility.yul\":19628:19648   */\n      sub\n        /* \"#utility.yul\":19624:19625   */\n      0x00\n        /* \"#utility.yul\":19613:19622   */\n      dup4\n        /* \"#utility.yul\":19609:19626   */\n      add\n        /* \"#utility.yul\":19602:19649   */\n      mstore\n        /* \"#utility.yul\":19666:19797   */\n      tag_427\n        /* \"#utility.yul\":19792:19796   */\n      dup2\n        /* \"#utility.yul\":19666:19797   */\n      tag_236\n      jump\t// in\n    tag_427:\n        /* \"#utility.yul\":19658:19797   */\n      swap1\n      pop\n        /* \"#utility.yul\":19385:19804   */\n      swap2\n      swap1\n      pop\n      jump\t// out\n        /* \"#utility.yul\":19810:21205   */\n    tag_126:\n        /* \"#utility.yul\":19927:19964   */\n      tag_429\n        /* \"#utility.yul\":19960:19963   */\n      dup3\n        /* \"#utility.yul\":19927:19964   */\n      tag_183\n      jump\t// in\n    tag_429:\n        /* \"#utility.yul\":20029:20047   */\n      0xffffffffffffffff\n        /* \"#utility.yul\":20021:20027   */\n      dup2\n        /* \"#utility.yul\":20018:20048   */\n      gt\n        /* \"#utility.yul\":20015:20071   */\n      iszero\n      tag_430\n      jumpi\n        /* \"#utility.yul\":20051:20069   */\n      tag_431\n      tag_62\n      jump\t// in\n    tag_431:\n        /* \"#utility.yul\":20015:20071   */\n    tag_430:\n        /* \"#utility.yul\":20095:20133   */\n      tag_432\n        /* \"#utility.yul\":20127:20131   */\n      dup3\n        /* \"#utility.yul\":20121:20132   */\n      sload\n        /* \"#utility.yul\":20095:20133   */\n      tag_46\n      jump\t// in\n    tag_432:\n        /* \"#utility.yul\":20180:20247   */\n      tag_433\n        /* \"#utility.yul\":20240:20246   */\n      dup3\n        /* \"#utility.yul\":20232:20238   */\n      dup3\n        /* \"#utility.yul\":20226:20230   */\n      dup6\n        /* \"#utility.yul\":20180:20247   */\n      tag_227\n      jump\t// in\n    tag_433:\n        /* \"#utility.yul\":20274:20275   */\n      0x00\n        /* \"#utility.yul\":20298:20302   */\n      0x20\n        /* \"#utility.yul\":20285:20302   */\n      swap1\n      pop\n        /* \"#utility.yul\":20330:20332   */\n      0x1f\n        /* \"#utility.yul\":20322:20328   */\n      dup4\n        /* \"#utility.yul\":20319:20333   */\n      gt\n        /* \"#utility.yul\":20347:20348   */\n      0x01\n        /* \"#utility.yul\":20342:20960   */\n      dup2\n      eq\n      tag_435\n      jumpi\n        /* \"#utility.yul\":21004:21005   */\n      0x00\n        /* \"#utility.yul\":21021:21027   */\n      dup5\n        /* \"#utility.yul\":21018:21095   */\n      iszero\n      tag_436\n      jumpi\n        /* \"#utility.yul\":21070:21079   */\n      dup3\n        /* \"#utility.yul\":21065:21068   */\n      dup8\n        /* \"#utility.yul\":21061:21080   */\n      add\n        /* \"#utility.yul\":21055:21081   */\n      mload\n        /* \"#utility.yul\":21046:21081   */\n      swap1\n      pop\n        /* \"#utility.yul\":21018:21095   */\n    tag_436:\n        /* \"#utility.yul\":21121:21188   */\n      tag_437\n        /* \"#utility.yul\":21181:21187   */\n      dup6\n        /* \"#utility.yul\":21174:21179   */\n      dup3\n        /* \"#utility.yul\":21121:21188   */\n      tag_230\n      jump\t// in\n    tag_437:\n        /* \"#utility.yul\":21115:21119   */\n      dup7\n        /* \"#utility.yul\":21108:21189   */\n      sstore\n        /* \"#utility.yul\":20977:21199   */\n      pop\n        /* \"#utility.yul\":20312:21199   */\n      jump(tag_434)\n        /* \"#utility.yul\":20342:20960   */\n    tag_435:\n        /* \"#utility.yul\":20394:20398   */\n      0x1f\n        /* \"#utility.yul\":20390:20399   */\n      not\n        /* \"#utility.yul\":20382:20388   */\n      dup5\n        /* \"#utility.yul\":20378:20400   */\n      and\n        /* \"#utility.yul\":20428:20465   */\n      tag_438\n        /* \"#utility.yul\":20460:20464   */\n      dup7\n        /* \"#utility.yul\":20428:20465   */\n      tag_216\n      jump\t// in\n    tag_438:\n        /* \"#utility.yul\":20487:20488   */\n      0x00\n        /* \"#utility.yul\":20501:20709   */\n    tag_439:\n        /* \"#utility.yul\":20515:20522   */\n      dup3\n        /* \"#utility.yul\":20512:20513   */\n      dup2\n        /* \"#utility.yul\":20509:20523   */\n      lt\n        /* \"#utility.yul\":20501:20709   */\n      iszero\n      tag_441\n      jumpi\n        /* \"#utility.yul\":20594:20603   */\n      dup5\n        /* \"#utility.yul\":20589:20592   */\n      dup10\n        /* \"#utility.yul\":20585:20604   */\n      add\n        /* \"#utility.yul\":20579:20605   */\n      mload\n        /* \"#utility.yul\":20571:20577   */\n      dup3\n        /* \"#utility.yul\":20564:20606   */\n      sstore\n        /* \"#utility.yul\":20645:20646   */\n      0x01\n        /* \"#utility.yul\":20637:20643   */\n      dup3\n        /* \"#utility.yul\":20633:20647   */\n      add\n        /* \"#utility.yul\":20623:20647   */\n      swap2\n      pop\n        /* \"#utility.yul\":20692:20694   */\n      0x20\n        /* \"#utility.yul\":20681:20690   */\n      dup6\n        /* \"#utility.yul\":20677:20695   */\n      add\n        /* \"#utility.yul\":20664:20695   */\n      swap5\n      pop\n        /* \"#utility.yul\":20538:20542   */\n      0x20\n        /* \"#utility.yul\":20535:20536   */\n      dup2\n        /* \"#utility.yul\":20531:20543   */\n      add\n        /* \"#utility.yul\":20526:20543   */\n      swap1\n      pop\n        /* \"#utility.yul\":20501:20709   */\n      jump(tag_439)\n    tag_441:\n        /* \"#utility.yul\":20737:20743   */\n      dup7\n        /* \"#utility.yul\":20728:20735   */\n      dup4\n        /* \"#utility.yul\":20725:20744   */\n      lt\n        /* \"#utility.yul\":20722:20901   */\n      iszero\n      tag_442\n      jumpi\n        /* \"#utility.yul\":20795:20804   */\n      dup5\n        /* \"#utility.yul\":20790:20793   */\n      dup10\n        /* \"#utility.yul\":20786:20805   */\n      add\n        /* \"#utility.yul\":20780:20806   */\n      mload\n        /* \"#utility.yul\":20838:20886   */\n      tag_443\n        /* \"#utility.yul\":20880:20884   */\n      0x1f\n        /* \"#utility.yul\":20872:20878   */\n      dup10\n        /* \"#utility.yul\":20868:20885   */\n      and\n        /* \"#utility.yul\":20857:20866   */\n      dup3\n        /* \"#utility.yul\":20838:20886   */\n      tag_229\n      jump\t// in\n    tag_443:\n        /* \"#utility.yul\":20830:20836   */\n      dup4\n        /* \"#utility.yul\":20823:20887   */\n      sstore\n        /* \"#utility.yul\":20745:20901   */\n      pop\n        /* \"#utility.yul\":20722:20901   */\n    tag_442:\n        /* \"#utility.yul\":20947:20948   */\n      0x01\n        /* \"#utility.yul\":20943:20944   */\n      0x02\n        /* \"#utility.yul\":20935:20941   */\n      dup9\n        /* \"#utility.yul\":20931:20945   */\n      mul\n        /* \"#utility.yul\":20927:20949   */\n      add\n        /* \"#utility.yul\":20921:20925   */\n      dup9\n        /* \"#utility.yul\":20914:20950   */\n      sstore\n        /* \"#utility.yul\":20349:20960   */\n      pop\n      pop\n      pop\n        /* \"#utility.yul\":20312:21199   */\n    tag_434:\n      pop\n        /* \"#utility.yul\":19902:21205   */\n      pop\n      pop\n      pop\n        /* \"#utility.yul\":19810:21205   */\n      pop\n      pop\n      jump\t// out\n        /* \"#utility.yul\":21211:21588   */\n    tag_237:\n        /* \"#utility.yul\":21299:21302   */\n      0x00\n        /* \"#utility.yul\":21327:21366   */\n      tag_445\n        /* \"#utility.yul\":21360:21365   */\n      dup3\n        /* \"#utility.yul\":21327:21366   */\n      tag_183\n      jump\t// in\n    tag_445:\n        /* \"#utility.yul\":21382:21453   */\n      tag_446\n        /* \"#utility.yul\":21446:21452   */\n      dup2\n        /* \"#utility.yul\":21441:21444   */\n      dup6\n        /* \"#utility.yul\":21382:21453   */\n      tag_210\n      jump\t// in\n    tag_446:\n        /* \"#utility.yul\":21375:21453   */\n      swap4\n      pop\n        /* \"#utility.yul\":21462:21527   */\n      tag_447\n        /* \"#utility.yul\":21520:21526   */\n      dup2\n        /* \"#utility.yul\":21515:21518   */\n      dup6\n        /* \"#utility.yul\":21508:21512   */\n      0x20\n        /* \"#utility.yul\":21501:21506   */\n      dup7\n        /* \"#utility.yul\":21497:21513   */\n      add\n        /* \"#utility.yul\":21462:21527   */\n      tag_185\n      jump\t// in\n    tag_447:\n        /* \"#utility.yul\":21552:21581   */\n      tag_448\n        /* \"#utility.yul\":21574:21580   */\n      dup2\n        /* \"#utility.yul\":21552:21581   */\n      tag_186\n      jump\t// in\n    tag_448:\n        /* \"#utility.yul\":21547:21550   */\n      dup5\n        /* \"#utility.yul\":21543:21582   */\n      add\n        /* \"#utility.yul\":21536:21582   */\n      swap2\n      pop\n        /* \"#utility.yul\":21303:21588   */\n      pop\n        /* \"#utility.yul\":21211:21588   */\n      swap3\n      swap2\n      pop\n      pop\n      jump\t// out\n        /* \"#utility.yul\":21594:22017   */\n    tag_129:\n        /* \"#utility.yul\":21735:21739   */\n      0x00\n        /* \"#utility.yul\":21773:21775   */\n      0x40\n        /* \"#utility.yul\":21762:21771   */\n      dup3\n        /* \"#utility.yul\":21758:21776   */\n      add\n        /* \"#utility.yul\":21750:21776   */\n      swap1\n      pop\n        /* \"#utility.yul\":21786:21857   */\n      tag_450\n        /* \"#utility.yul\":21854:21855   */\n      0x00\n        /* \"#utility.yul\":21843:21852   */\n      dup4\n        /* \"#utility.yul\":21839:21856   */\n      add\n        /* \"#utility.yul\":21830:21836   */\n      dup6\n        /* \"#utility.yul\":21786:21857   */\n      tag_179\n      jump\t// in\n    tag_450:\n        /* \"#utility.yul\":21904:21913   */\n      dup2\n        /* \"#utility.yul\":21898:21902   */\n      dup2\n        /* \"#utility.yul\":21894:21914   */\n      sub\n        /* \"#utility.yul\":21889:21891   */\n      0x20\n        /* \"#utility.yul\":21878:21887   */\n      dup4\n        /* \"#utility.yul\":21874:21892   */\n      add\n        /* \"#utility.yul\":21867:21915   */\n      mstore\n        /* \"#utility.yul\":21932:22010   */\n      tag_451\n        /* \"#utility.yul\":22005:22009   */\n      dup2\n        /* \"#utility.yul\":21996:22002   */\n      dup5\n        /* \"#utility.yul\":21932:22010   */\n      tag_237\n      jump\t// in\n    tag_451:\n        /* \"#utility.yul\":21924:22010   */\n      swap1\n      pop\n        /* \"#utility.yul\":21594:22017   */\n      swap4\n      swap3\n      pop\n      pop\n      pop\n      jump\t// out\n\n    auxdata: 0xa2646970667358221220b7b22c59b61bd369b10bd516c97218c084dfd7495ac1543b575d150b4b1feaab64736f6c63430008220033\n}\n",
				"bytecode": {
					"linkReferences": {},
					"object": "6080604052348015600e575f5ffd5b50611add8061001c5f395ff3fe608060405234801561000f575f5ffd5b5060043610610086575f3560e01c80638ad7ab7a116100595780638ad7ab7a146100fe57806395ffebf51461011c578063ce2bd5d514610138578063d7ba3d0a1461015657610086565b8063104a7cd81461008a57806310d41e82146100a857806320fe2144146100c65780636e3c6738146100e2575b5f5ffd5b610092610174565b60405161009f9190610f9e565b60405180910390f35b6100b06101ba565b6040516100bd9190611158565b60405180910390f35b6100e060048036038101906100db91906111b3565b61044a565b005b6100fc60048036038101906100f791906111b3565b610640565b005b6101066108c6565b6040516101139190610f9e565b60405180910390f35b6101366004803603810190610131919061130a565b6108cb565b005b610140610b37565b60405161014d9190611158565b60405180910390f35b61015e610c80565b60405161016b9190611158565b60405180910390f35b5f5f5f3373ffffffffffffffffffffffffffffffffffffffff1673ffffffffffffffffffffffffffffffffffffffff1681526020019081526020015f2080549050905090565b60605f3390505f5f5f8373ffffffffffffffffffffffffffffffffffffffff1673ffffffffffffffffffffffffffffffffffffffff1681526020019081526020015f20805480602002602001604051908101604052809291908181526020015f905b828210156102ff578382905f5260205f2090600302016040518060600160405290815f8201805461024c9061137e565b80601f01602080910402602001604051908101604052809291908181526020018280546102789061137e565b80156102c35780601f1061029a576101008083540402835291602001916102c3565b820191905f5260205f20905b8154815290600101906020018083116102a657829003601f168201915b50505050508152602001600182015f9054906101000a900460ff161515151581526020016002820154815250508152602001906001019061021c565b5050505090505f815190505f5f90505f5f90505b8281101561035b5783818151811061032e5761032d6113ae565b5b6020026020010151602001511561034e57818061034a90611408565b9250505b8080600101915050610313565b505f8167ffffffffffffffff811115610377576103766111e6565b5b6040519080825280602002602001820160405280156103b057816020015b61039d610f0e565b8152602001906001900390816103955790505b5090505f5f90505f5f90505b8481101561043d578581815181106103d7576103d66113ae565b5b60200260200101516020015115610430578581815181106103fb576103fa6113ae565b5b6020026020010151838381518110610416576104156113ae565b5b6020026020010181905250818061042c90611408565b9250505b80806001019150506103bc565b5081965050505050505090565b5f3390505f5f8273ffffffffffffffffffffffffffffffffffffffff1673ffffffffffffffffffffffffffffffffffffffff1681526020019081526020015f208054905082106104cf576040517f08c379a00000000000000000000000000000000000000000000000000000000081526004016104c6906114a9565b60405180910390fd5b5f5f8273ffffffffffffffffffffffffffffffffffffffff1673ffffffffffffffffffffffffffffffffffffffff1681526020019081526020015f20828154811061051d5761051c6113ae565b5b905f5260205f2090600302016001015f9054906101000a900460ff1615610579576040517f08c379a000000000000000000000000000000000000000000000000000000000815260040161057090611511565b60405180910390fd5b60015f5f8373ffffffffffffffffffffffffffffffffffffffff1673ffffffffffffffffffffffffffffffffffffffff1681526020019081526020015f2083815481106105c9576105c86113ae565b5b905f5260205f2090600302016001015f6101000a81548160ff0219169083151502179055508073ffffffffffffffffffffffffffffffffffffffff167f67ded622a190b565ce61203d9279a5c28931773c0919bf91ce964f6cd909e9b4836040516106349190610f9e565b60405180910390a25050565b5f3390505f5f5f8373ffffffffffffffffffffffffffffffffffffffff1673ffffffffffffffffffffffffffffffffffffffff1681526020019081526020015f208054905090508083106106c9576040517f08c379a00000000000000000000000000000000000000000000000000000000081526004016106c0906114a9565b60405180910390fd5b6001816106d6919061152f565b83146107e8575f5f8373ffffffffffffffffffffffffffffffffffffffff1673ffffffffffffffffffffffffffffffffffffffff1681526020019081526020015f20600182610725919061152f565b81548110610736576107356113ae565b5b905f5260205f2090600302015f5f8473ffffffffffffffffffffffffffffffffffffffff1673ffffffffffffffffffffffffffffffffffffffff1681526020019081526020015f2084815481106107905761078f6113ae565b5b905f5260205f2090600302015f8201815f0190816107ae9190611728565b50600182015f9054906101000a900460ff16816001015f6101000a81548160ff021916908315150217905550600282015481600201559050505b5f5f8373ffffffffffffffffffffffffffffffffffffffff1673ffffffffffffffffffffffffffffffffffffffff1681526020019081526020015f208054806108345761083361180d565b5b600190038181905f5260205f2090600302015f5f82015f6108559190610f2f565b600182015f6101000a81549060ff0219169055600282015f9055505090558173ffffffffffffffffffffffffffffffffffffffff167f24d84cd6bd5cc33dafa556a214e7d9e1b4fccca98b3e7d1413909e4710f02ff3846040516108b99190610f9e565b60405180910390a2505050565b606481565b5f81511161090e576040517f08c379a000000000000000000000000000000000000000000000000000000000815260040161090590611884565b60405180910390fd5b60c881511115610953576040517f08c379a000000000000000000000000000000000000000000000000000000000815260040161094a906118ec565b60405180910390fd5b5f33905060645f5f8373ffffffffffffffffffffffffffffffffffffffff1673ffffffffffffffffffffffffffffffffffffffff1681526020019081526020015f208054905011156109da576040517f08c379a00000000000000000000000000000000000000000000000000000000081526004016109d190611954565b60405180910390fd5b5f5f8273ffffffffffffffffffffffffffffffffffffffff1673ffffffffffffffffffffffffffffffffffffffff1681526020019081526020015f2060405180606001604052808481526020015f1515815260200142815250908060018154018082558091505060019003905f5260205f2090600302015f909190919091505f820151815f019081610a6c9190611972565b506020820151816001015f6101000a81548160ff0219169083151502179055506040820151816002015550508073ffffffffffffffffffffffffffffffffffffffff167f1d7303a9da3d6d58ee2b1b1a7d6676848e0b02914499b48678bb7dff079a015060015f5f8573ffffffffffffffffffffffffffffffffffffffff1673ffffffffffffffffffffffffffffffffffffffff1681526020019081526020015f2080549050610b1c919061152f565b84604051610b2b929190611a79565b60405180910390a25050565b60605f5f3373ffffffffffffffffffffffffffffffffffffffff1673ffffffffffffffffffffffffffffffffffffffff1681526020019081526020015f20805480602002602001604051908101604052809291908181526020015f905b82821015610c77578382905f5260205f2090600302016040518060600160405290815f82018054610bc49061137e565b80601f0160208091040260200160405190810160405280929190818152602001828054610bf09061137e565b8015610c3b5780601f10610c1257610100808354040283529160200191610c3b565b820191905f5260205f20905b815481529060010190602001808311610c1e57829003601f168201915b50505050508152602001600182015f9054906101000a900460ff1615151515815260200160028201548152505081526020019060010190610b94565b50505050905090565b60605f3390505f5f5f8373ffffffffffffffffffffffffffffffffffffffff1673ffffffffffffffffffffffffffffffffffffffff1681526020019081526020015f20805480602002602001604051908101604052809291908181526020015f905b82821015610dc5578382905f5260205f2090600302016040518060600160405290815f82018054610d129061137e565b80601f0160208091040260200160405190810160405280929190818152602001828054610d3e9061137e565b8015610d895780601f10610d6057610100808354040283529160200191610d89565b820191905f5260205f20905b815481529060010190602001808311610d6c57829003601f168201915b50505050508152602001600182015f9054906101000a900460ff1615151515815260200160028201548152505081526020019060010190610ce2565b5050505090505f815190505f5f90505f5f90505b82811015610e2057838181518110610df457610df36113ae565b5b602002602001015160200151610e13578180610e0f90611408565b9250505b8080600101915050610dd9565b505f8167ffffffffffffffff811115610e3c57610e3b6111e6565b5b604051908082528060200260200182016040528015610e7557816020015b610e62610f0e565b815260200190600190039081610e5a5790505b5090505f5f90505f5f90505b84811015610f0157858181518110610e9c57610e9b6113ae565b5b602002602001015160200151610ef457858181518110610ebf57610ebe6113ae565b5b6020026020010151838381518110610eda57610ed96113ae565b5b60200260200101819052508180610ef090611408565b9250505b8080600101915050610e81565b5081965050505050505090565b6040518060600160405280606081526020015f151581526020015f81525090565b508054610f3b9061137e565b5f825580601f10610f4d575050610f67565b601f0160209004905f5260205f2090610f669190610f69565b5b565b5f5b80821115610f81578281015f9055600101610f6b565b505050565b5f819050919050565b610f9881610f86565b82525050565b5f602082019050610fb15f830184610f8f565b92915050565b5f81519050919050565b5f82825260208201905092915050565b5f819050602082019050919050565b5f81519050919050565b5f82825260208201905092915050565b8281835e5f83830152505050565b5f601f19601f8301169050919050565b5f61102282610fe0565b61102c8185610fea565b935061103c818560208601610ffa565b61104581611008565b840191505092915050565b5f8115159050919050565b61106481611050565b82525050565b61107381610f86565b82525050565b5f606083015f8301518482035f8601526110938282611018565b91505060208301516110a8602086018261105b565b5060408301516110bb604086018261106a565b508091505092915050565b5f6110d18383611079565b905092915050565b5f602082019050919050565b5f6110ef82610fb7565b6110f98185610fc1565b93508360208202850161110b85610fd1565b805f5b85811015611146578484038952815161112785826110c6565b9450611132836110d9565b925060208a0199505060018101905061110e565b50829750879550505050505092915050565b5f6020820190508181035f83015261117081846110e5565b905092915050565b5f604051905090565b5f5ffd5b5f5ffd5b61119281610f86565b811461119c575f5ffd5b50565b5f813590506111ad81611189565b92915050565b5f602082840312156111c8576111c7611181565b5b5f6111d58482850161119f565b91505092915050565b5f5ffd5b5f5ffd5b7f4e487b71000000000000000000000000000000000000000000000000000000005f52604160045260245ffd5b61121c82611008565b810181811067ffffffffffffffff8211171561123b5761123a6111e6565b5b80604052505050565b5f61124d611178565b90506112598282611213565b919050565b5f67ffffffffffffffff821115611278576112776111e6565b5b61128182611008565b9050602081019050919050565b828183375f83830152505050565b5f6112ae6112a98461125e565b611244565b9050828152602081018484840111156112ca576112c96111e2565b5b6112d584828561128e565b509392505050565b5f82601f8301126112f1576112f06111de565b5b813561130184826020860161129c565b91505092915050565b5f6020828403121561131f5761131e611181565b5b5f82013567ffffffffffffffff81111561133c5761133b611185565b5b611348848285016112dd565b91505092915050565b7f4e487b71000000000000000000000000000000000000000000000000000000005f52602260045260245ffd5b5f600282049050600182168061139557607f821691505b6020821081036113a8576113a7611351565b5b50919050565b7f4e487b71000000000000000000000000000000000000000000000000000000005f52603260045260245ffd5b7f4e487b71000000000000000000000000000000000000000000000000000000005f52601160045260245ffd5b5f61141282610f86565b91507fffffffffffffffffffffffffffffffffffffffffffffffffffffffffffffffff8203611444576114436113db565b5b600182019050919050565b5f82825260208201905092915050565b7f496e646578206f7574206f6620626f756e6473210000000000000000000000005f82015250565b5f61149360148361144f565b915061149e8261145f565b602082019050919050565b5f6020820190508181035f8301526114c081611487565b9050919050565b7f416c726561647920636f6d706c657465642100000000000000000000000000005f82015250565b5f6114fb60128361144f565b9150611506826114c7565b602082019050919050565b5f6020820190508181035f830152611528816114ef565b9050919050565b5f61153982610f86565b915061154483610f86565b925082820390508181111561155c5761155b6113db565b5b92915050565b5f815490506115708161137e565b9050919050565b5f819050815f5260205f209050919050565b5f6020601f8301049050919050565b5f82821b905092915050565b5f600883026115d37fffffffffffffffffffffffffffffffffffffffffffffffffffffffffffffffff82611598565b6115dd8683611598565b95508019841693508086168417925050509392505050565b5f819050919050565b5f61161861161361160e84610f86565b6115f5565b610f86565b9050919050565b5f819050919050565b611631836115fe565b61164561163d8261161f565b8484546115a4565b825550505050565b5f5f905090565b61165c61164d565b611667818484611628565b505050565b5f5b8281101561168d576116825f828401611654565b60018101905061166e565b505050565b601f8211156116e057828211156116df576116ac81611577565b6116b583611589565b6116be85611589565b60208610156116cb575f90505b8083016116da8284038261166c565b505050505b5b505050565b5f82821c905092915050565b5f6117005f19846008026116e5565b1980831691505092915050565b5f61171883836116f1565b9150826002028217905092915050565b81810361173657505061180b565b61173f82611562565b67ffffffffffffffff811115611758576117576111e6565b5b611762825461137e565b61176d828285611692565b5f601f83116001811461179a575f8415611788578287015490505b611792858261170d565b865550611804565b601f1984166117a887611577565b96506117b386611577565b5f5b828110156117da578489015482556001820191506001850194506020810190506117b5565b868310156117f757848901546117f3601f8916826116f1565b8355505b6001600288020188555050505b5050505050505b565b7f4e487b71000000000000000000000000000000000000000000000000000000005f52603160045260245ffd5b7f5461736b2063616e6e6f7420626520656d7074792100000000000000000000005f82015250565b5f61186e60158361144f565b91506118798261183a565b602082019050919050565b5f6020820190508181035f83015261189b81611862565b9050919050565b7f5461736b20746f6f206c6f6e67000000000000000000000000000000000000005f82015250565b5f6118d6600d8361144f565b91506118e1826118a2565b602082019050919050565b5f6020820190508181035f830152611903816118ca565b9050919050565b7f546f20646f206c6973742069732066756c6c21000000000000000000000000005f82015250565b5f61193e60138361144f565b91506119498261190a565b602082019050919050565b5f6020820190508181035f83015261196b81611932565b9050919050565b61197b82610fe0565b67ffffffffffffffff811115611994576119936111e6565b5b61199e825461137e565b6119a9828285611692565b5f60209050601f8311600181146119da575f84156119c8578287015190505b6119d2858261170d565b865550611a39565b601f1984166119e886611577565b5f5b82811015611a0f578489015182556001820191506020850194506020810190506119ea565b86831015611a2c5784890151611a28601f8916826116f1565b8355505b6001600288020188555050505b505050505050565b5f611a4b82610fe0565b611a55818561144f565b9350611a65818560208601610ffa565b611a6e81611008565b840191505092915050565b5f604082019050611a8c5f830185610f8f565b8181036020830152611a9e8184611a41565b9050939250505056fea2646970667358221220b7b22c59b61bd369b10bd516c97218c084dfd7495ac1543b575d150b4b1feaab64736f6c63430008220033",
					"opcodes": "PUSH1 0x80 PUSH1 0x40 MSTORE CALLVALUE DUP1 ISZERO PUSH1 0xE JUMPI PUSH0 PUSH0 REVERT JUMPDEST POP PUSH2 0x1ADD DUP1 PUSH2 0x1C PUSH0 CODECOPY PUSH0 RETURN INVALID PUSH1 0x80 PUSH1 0x40 MSTORE CALLVALUE DUP1 ISZERO PUSH2 0xF JUMPI PUSH0 PUSH0 REVERT JUMPDEST POP PUSH1 0x4 CALLDATASIZE LT PUSH2 0x86 JUMPI PUSH0 CALLDATALOAD PUSH1 0xE0 SHR DUP1 PUSH4 0x8AD7AB7A GT PUSH2 0x59 JUMPI DUP1 PUSH4 0x8AD7AB7A EQ PUSH2 0xFE JUMPI DUP1 PUSH4 0x95FFEBF5 EQ PUSH2 0x11C JUMPI DUP1 PUSH4 0xCE2BD5D5 EQ PUSH2 0x138 JUMPI DUP1 PUSH4 0xD7BA3D0A EQ PUSH2 0x156 JUMPI PUSH2 0x86 JUMP JUMPDEST DUP1 PUSH4 0x104A7CD8 EQ PUSH2 0x8A JUMPI DUP1 PUSH4 0x10D41E82 EQ PUSH2 0xA8 JUMPI DUP1 PUSH4 0x20FE2144 EQ PUSH2 0xC6 JUMPI DUP1 PUSH4 0x6E3C6738 EQ PUSH2 0xE2 JUMPI JUMPDEST PUSH0 PUSH0 REVERT JUMPDEST PUSH2 0x92 PUSH2 0x174 JUMP JUMPDEST PUSH1 0x40 MLOAD PUSH2 0x9F SWAP2 SWAP1 PUSH2 0xF9E JUMP JUMPDEST PUSH1 0x40 MLOAD DUP1 SWAP2 SUB SWAP1 RETURN JUMPDEST PUSH2 0xB0 PUSH2 0x1BA JUMP JUMPDEST PUSH1 0x40 MLOAD PUSH2 0xBD SWAP2 SWAP1 PUSH2 0x1158 JUMP JUMPDEST PUSH1 0x40 MLOAD DUP1 SWAP2 SUB SWAP1 RETURN JUMPDEST PUSH2 0xE0 PUSH1 0x4 DUP1 CALLDATASIZE SUB DUP2 ADD SWAP1 PUSH2 0xDB SWAP2 SWAP1 PUSH2 0x11B3 JUMP JUMPDEST PUSH2 0x44A JUMP JUMPDEST STOP JUMPDEST PUSH2 0xFC PUSH1 0x4 DUP1 CALLDATASIZE SUB DUP2 ADD SWAP1 PUSH2 0xF7 SWAP2 SWAP1 PUSH2 0x11B3 JUMP JUMPDEST PUSH2 0x640 JUMP JUMPDEST STOP JUMPDEST PUSH2 0x106 PUSH2 0x8C6 JUMP JUMPDEST PUSH1 0x40 MLOAD PUSH2 0x113 SWAP2 SWAP1 PUSH2 0xF9E JUMP JUMPDEST PUSH1 0x40 MLOAD DUP1 SWAP2 SUB SWAP1 RETURN JUMPDEST PUSH2 0x136 PUSH1 0x4 DUP1 CALLDATASIZE SUB DUP2 ADD SWAP1 PUSH2 0x131 SWAP2 SWAP1 PUSH2 0x130A JUMP JUMPDEST PUSH2 0x8CB JUMP JUMPDEST STOP JUMPDEST PUSH2 0x140 PUSH2 0xB37 JUMP JUMPDEST PUSH1 0x40 MLOAD PUSH2 0x14D SWAP2 SWAP1 PUSH2 0x1158 JUMP JUMPDEST PUSH1 0x40 MLOAD DUP1 SWAP2 SUB SWAP1 RETURN JUMPDEST PUSH2 0x15E PUSH2 0xC80 JUMP JUMPDEST PUSH1 0x40 MLOAD PUSH2 0x16B SWAP2 SWAP1 PUSH2 0x1158 JUMP JUMPDEST PUSH1 0x40 MLOAD DUP1 SWAP2 SUB SWAP1 RETURN JUMPDEST PUSH0 PUSH0 PUSH0 CALLER PUSH20 0xFFFFFFFFFFFFFFFFFFFFFFFFFFFFFFFFFFFFFFFF AND PUSH20 0xFFFFFFFFFFFFFFFFFFFFFFFFFFFFFFFFFFFFFFFF AND DUP2 MSTORE PUSH1 0x20 ADD SWAP1 DUP2 MSTORE PUSH1 0x20 ADD PUSH0 KECCAK256 DUP1 SLOAD SWAP1 POP SWAP1 POP SWAP1 JUMP JUMPDEST PUSH1 0x60 PUSH0 CALLER SWAP1 POP PUSH0 PUSH0 PUSH0 DUP4 PUSH20 0xFFFFFFFFFFFFFFFFFFFFFFFFFFFFFFFFFFFFFFFF AND PUSH20 0xFFFFFFFFFFFFFFFFFFFFFFFFFFFFFFFFFFFFFFFF AND DUP2 MSTORE PUSH1 0x20 ADD SWAP1 DUP2 MSTORE PUSH1 0x20 ADD PUSH0 KECCAK256 DUP1 SLOAD DUP1 PUSH1 0x20 MUL PUSH1 0x20 ADD PUSH1 0x40 MLOAD SWAP1 DUP2 ADD PUSH1 0x40 MSTORE DUP1 SWAP3 SWAP2 SWAP1 DUP2 DUP2 MSTORE PUSH1 0x20 ADD PUSH0 SWAP1 JUMPDEST DUP3 DUP3 LT ISZERO PUSH2 0x2FF JUMPI DUP4 DUP3 SWAP1 PUSH0 MSTORE PUSH1 0x20 PUSH0 KECCAK256 SWAP1 PUSH1 0x3 MUL ADD PUSH1 0x40 MLOAD DUP1 PUSH1 0x60 ADD PUSH1 0x40 MSTORE SWAP1 DUP2 PUSH0 DUP3 ADD DUP1 SLOAD PUSH2 0x24C SWAP1 PUSH2 0x137E JUMP JUMPDEST DUP1 PUSH1 0x1F ADD PUSH1 0x20 DUP1 SWAP2 DIV MUL PUSH1 0x20 ADD PUSH1 0x40 MLOAD SWAP1 DUP2 ADD PUSH1 0x40 MSTORE DUP1 SWAP3 SWAP2 SWAP1 DUP2 DUP2 MSTORE PUSH1 0x20 ADD DUP3 DUP1 SLOAD PUSH2 0x278 SWAP1 PUSH2 0x137E JUMP JUMPDEST DUP1 ISZERO PUSH2 0x2C3 JUMPI DUP1 PUSH1 0x1F LT PUSH2 0x29A JUMPI PUSH2 0x100 DUP1 DUP4 SLOAD DIV MUL DUP4 MSTORE SWAP2 PUSH1 0x20 ADD SWAP2 PUSH2 0x2C3 JUMP JUMPDEST DUP3 ADD SWAP2 SWAP1 PUSH0 MSTORE PUSH1 0x20 PUSH0 KECCAK256 SWAP1 JUMPDEST DUP2 SLOAD DUP2 MSTORE SWAP1 PUSH1 0x1 ADD SWAP1 PUSH1 0x20 ADD DUP1 DUP4 GT PUSH2 0x2A6 JUMPI DUP3 SWAP1 SUB PUSH1 0x1F AND DUP3 ADD SWAP2 JUMPDEST POP POP POP POP POP DUP2 MSTORE PUSH1 0x20 ADD PUSH1 0x1 DUP3 ADD PUSH0 SWAP1 SLOAD SWAP1 PUSH2 0x100 EXP SWAP1 DIV PUSH1 0xFF AND ISZERO ISZERO ISZERO ISZERO DUP2 MSTORE PUSH1 0x20 ADD PUSH1 0x2 DUP3 ADD SLOAD DUP2 MSTORE POP POP DUP2 MSTORE PUSH1 0x20 ADD SWAP1 PUSH1 0x1 ADD SWAP1 PUSH2 0x21C JUMP JUMPDEST POP POP POP POP SWAP1 POP PUSH0 DUP2 MLOAD SWAP1 POP PUSH0 PUSH0 SWAP1 POP PUSH0 PUSH0 SWAP1 POP JUMPDEST DUP3 DUP2 LT ISZERO PUSH2 0x35B JUMPI DUP4 DUP2 DUP2 MLOAD DUP2 LT PUSH2 0x32E JUMPI PUSH2 0x32D PUSH2 0x13AE JUMP JUMPDEST JUMPDEST PUSH1 0x20 MUL PUSH1 0x20 ADD ADD MLOAD PUSH1 0x20 ADD MLOAD ISZERO PUSH2 0x34E JUMPI DUP2 DUP1 PUSH2 0x34A SWAP1 PUSH2 0x1408 JUMP JUMPDEST SWAP3 POP POP JUMPDEST DUP1 DUP1 PUSH1 0x1 ADD SWAP2 POP POP PUSH2 0x313 JUMP JUMPDEST POP PUSH0 DUP2 PUSH8 0xFFFFFFFFFFFFFFFF DUP2 GT ISZERO PUSH2 0x377 JUMPI PUSH2 0x376 PUSH2 0x11E6 JUMP JUMPDEST JUMPDEST PUSH1 0x40 MLOAD SWAP1 DUP1 DUP3 MSTORE DUP1 PUSH1 0x20 MUL PUSH1 0x20 ADD DUP3 ADD PUSH1 0x40 MSTORE DUP1 ISZERO PUSH2 0x3B0 JUMPI DUP2 PUSH1 0x20 ADD JUMPDEST PUSH2 0x39D PUSH2 0xF0E JUMP JUMPDEST DUP2 MSTORE PUSH1 0x20 ADD SWAP1 PUSH1 0x1 SWAP1 SUB SWAP1 DUP2 PUSH2 0x395 JUMPI SWAP1 POP JUMPDEST POP SWAP1 POP PUSH0 PUSH0 SWAP1 POP PUSH0 PUSH0 SWAP1 POP JUMPDEST DUP5 DUP2 LT ISZERO PUSH2 0x43D JUMPI DUP6 DUP2 DUP2 MLOAD DUP2 LT PUSH2 0x3D7 JUMPI PUSH2 0x3D6 PUSH2 0x13AE JUMP JUMPDEST JUMPDEST PUSH1 0x20 MUL PUSH1 0x20 ADD ADD MLOAD PUSH1 0x20 ADD MLOAD ISZERO PUSH2 0x430 JUMPI DUP6 DUP2 DUP2 MLOAD DUP2 LT PUSH2 0x3FB JUMPI PUSH2 0x3FA PUSH2 0x13AE JUMP JUMPDEST JUMPDEST PUSH1 0x20 MUL PUSH1 0x20 ADD ADD MLOAD DUP4 DUP4 DUP2 MLOAD DUP2 LT PUSH2 0x416 JUMPI PUSH2 0x415 PUSH2 0x13AE JUMP JUMPDEST JUMPDEST PUSH1 0x20 MUL PUSH1 0x20 ADD ADD DUP2 SWAP1 MSTORE POP DUP2 DUP1 PUSH2 0x42C SWAP1 PUSH2 0x1408 JUMP JUMPDEST SWAP3 POP POP JUMPDEST DUP1 DUP1 PUSH1 0x1 ADD SWAP2 POP POP PUSH2 0x3BC JUMP JUMPDEST POP DUP2 SWAP7 POP POP POP POP POP POP POP SWAP1 JUMP JUMPDEST PUSH0 CALLER SWAP1 POP PUSH0 PUSH0 DUP3 PUSH20 0xFFFFFFFFFFFFFFFFFFFFFFFFFFFFFFFFFFFFFFFF AND PUSH20 0xFFFFFFFFFFFFFFFFFFFFFFFFFFFFFFFFFFFFFFFF AND DUP2 MSTORE PUSH1 0x20 ADD SWAP1 DUP2 MSTORE PUSH1 0x20 ADD PUSH0 KECCAK256 DUP1 SLOAD SWAP1 POP DUP3 LT PUSH2 0x4CF JUMPI PUSH1 0x40 MLOAD PUSH32 0x8C379A000000000000000000000000000000000000000000000000000000000 DUP2 MSTORE PUSH1 0x4 ADD PUSH2 0x4C6 SWAP1 PUSH2 0x14A9 JUMP JUMPDEST PUSH1 0x40 MLOAD DUP1 SWAP2 SUB SWAP1 REVERT JUMPDEST PUSH0 PUSH0 DUP3 PUSH20 0xFFFFFFFFFFFFFFFFFFFFFFFFFFFFFFFFFFFFFFFF AND PUSH20 0xFFFFFFFFFFFFFFFFFFFFFFFFFFFFFFFFFFFFFFFF AND DUP2 MSTORE PUSH1 0x20 ADD SWAP1 DUP2 MSTORE PUSH1 0x20 ADD PUSH0 KECCAK256 DUP3 DUP2 SLOAD DUP2 LT PUSH2 0x51D JUMPI PUSH2 0x51C PUSH2 0x13AE JUMP JUMPDEST JUMPDEST SWAP1 PUSH0 MSTORE PUSH1 0x20 PUSH0 KECCAK256 SWAP1 PUSH1 0x3 MUL ADD PUSH1 0x1 ADD PUSH0 SWAP1 SLOAD SWAP1 PUSH2 0x100 EXP SWAP1 DIV PUSH1 0xFF AND ISZERO PUSH2 0x579 JUMPI PUSH1 0x40 MLOAD PUSH32 0x8C379A000000000000000000000000000000000000000000000000000000000 DUP2 MSTORE PUSH1 0x4 ADD PUSH2 0x570 SWAP1 PUSH2 0x1511 JUMP JUMPDEST PUSH1 0x40 MLOAD DUP1 SWAP2 SUB SWAP1 REVERT JUMPDEST PUSH1 0x1 PUSH0 PUSH0 DUP4 PUSH20 0xFFFFFFFFFFFFFFFFFFFFFFFFFFFFFFFFFFFFFFFF AND PUSH20 0xFFFFFFFFFFFFFFFFFFFFFFFFFFFFFFFFFFFFFFFF AND DUP2 MSTORE PUSH1 0x20 ADD SWAP1 DUP2 MSTORE PUSH1 0x20 ADD PUSH0 KECCAK256 DUP4 DUP2 SLOAD DUP2 LT PUSH2 0x5C9 JUMPI PUSH2 0x5C8 PUSH2 0x13AE JUMP JUMPDEST JUMPDEST SWAP1 PUSH0 MSTORE PUSH1 0x20 PUSH0 KECCAK256 SWAP1 PUSH1 0x3 MUL ADD PUSH1 0x1 ADD PUSH0 PUSH2 0x100 EXP DUP2 SLOAD DUP2 PUSH1 0xFF MUL NOT AND SWAP1 DUP4 ISZERO ISZERO MUL OR SWAP1 SSTORE POP DUP1 PUSH20 0xFFFFFFFFFFFFFFFFFFFFFFFFFFFFFFFFFFFFFFFF AND PUSH32 0x67DED622A190B565CE61203D9279A5C28931773C0919BF91CE964F6CD909E9B4 DUP4 PUSH1 0x40 MLOAD PUSH2 0x634 SWAP2 SWAP1 PUSH2 0xF9E JUMP JUMPDEST PUSH1 0x40 MLOAD DUP1 SWAP2 SUB SWAP1 LOG2 POP POP JUMP JUMPDEST PUSH0 CALLER SWAP1 POP PUSH0 PUSH0 PUSH0 DUP4 PUSH20 0xFFFFFFFFFFFFFFFFFFFFFFFFFFFFFFFFFFFFFFFF AND PUSH20 0xFFFFFFFFFFFFFFFFFFFFFFFFFFFFFFFFFFFFFFFF AND DUP2 MSTORE PUSH1 0x20 ADD SWAP1 DUP2 MSTORE PUSH1 0x20 ADD PUSH0 KECCAK256 DUP1 SLOAD SWAP1 POP SWAP1 POP DUP1 DUP4 LT PUSH2 0x6C9 JUMPI PUSH1 0x40 MLOAD PUSH32 0x8C379A000000000000000000000000000000000000000000000000000000000 DUP2 MSTORE PUSH1 0x4 ADD PUSH2 0x6C0 SWAP1 PUSH2 0x14A9 JUMP JUMPDEST PUSH1 0x40 MLOAD DUP1 SWAP2 SUB SWAP1 REVERT JUMPDEST PUSH1 0x1 DUP2 PUSH2 0x6D6 SWAP2 SWAP1 PUSH2 0x152F JUMP JUMPDEST DUP4 EQ PUSH2 0x7E8 JUMPI PUSH0 PUSH0 DUP4 PUSH20 0xFFFFFFFFFFFFFFFFFFFFFFFFFFFFFFFFFFFFFFFF AND PUSH20 0xFFFFFFFFFFFFFFFFFFFFFFFFFFFFFFFFFFFFFFFF AND DUP2 MSTORE PUSH1 0x20 ADD SWAP1 DUP2 MSTORE PUSH1 0x20 ADD PUSH0 KECCAK256 PUSH1 0x1 DUP3 PUSH2 0x725 SWAP2 SWAP1 PUSH2 0x152F JUMP JUMPDEST DUP2 SLOAD DUP2 LT PUSH2 0x736 JUMPI PUSH2 0x735 PUSH2 0x13AE JUMP JUMPDEST JUMPDEST SWAP1 PUSH0 MSTORE PUSH1 0x20 PUSH0 KECCAK256 SWAP1 PUSH1 0x3 MUL ADD PUSH0 PUSH0 DUP5 PUSH20 0xFFFFFFFFFFFFFFFFFFFFFFFFFFFFFFFFFFFFFFFF AND PUSH20 0xFFFFFFFFFFFFFFFFFFFFFFFFFFFFFFFFFFFFFFFF AND DUP2 MSTORE PUSH1 0x20 ADD SWAP1 DUP2 MSTORE PUSH1 0x20 ADD PUSH0 KECCAK256 DUP5 DUP2 SLOAD DUP2 LT PUSH2 0x790 JUMPI PUSH2 0x78F PUSH2 0x13AE JUMP JUMPDEST JUMPDEST SWAP1 PUSH0 MSTORE PUSH1 0x20 PUSH0 KECCAK256 SWAP1 PUSH1 0x3 MUL ADD PUSH0 DUP3 ADD DUP2 PUSH0 ADD SWAP1 DUP2 PUSH2 0x7AE SWAP2 SWAP1 PUSH2 0x1728 JUMP JUMPDEST POP PUSH1 0x1 DUP3 ADD PUSH0 SWAP1 SLOAD SWAP1 PUSH2 0x100 EXP SWAP1 DIV PUSH1 0xFF AND DUP2 PUSH1 0x1 ADD PUSH0 PUSH2 0x100 EXP DUP2 SLOAD DUP2 PUSH1 0xFF MUL NOT AND SWAP1 DUP4 ISZERO ISZERO MUL OR SWAP1 SSTORE POP PUSH1 0x2 DUP3 ADD SLOAD DUP2 PUSH1 0x2 ADD SSTORE SWAP1 POP POP JUMPDEST PUSH0 PUSH0 DUP4 PUSH20 0xFFFFFFFFFFFFFFFFFFFFFFFFFFFFFFFFFFFFFFFF AND PUSH20 0xFFFFFFFFFFFFFFFFFFFFFFFFFFFFFFFFFFFFFFFF AND DUP2 MSTORE PUSH1 0x20 ADD SWAP1 DUP2 MSTORE PUSH1 0x20 ADD PUSH0 KECCAK256 DUP1 SLOAD DUP1 PUSH2 0x834 JUMPI PUSH2 0x833 PUSH2 0x180D JUMP JUMPDEST JUMPDEST PUSH1 0x1 SWAP1 SUB DUP2 DUP2 SWAP1 PUSH0 MSTORE PUSH1 0x20 PUSH0 KECCAK256 SWAP1 PUSH1 0x3 MUL ADD PUSH0 PUSH0 DUP3 ADD PUSH0 PUSH2 0x855 SWAP2 SWAP1 PUSH2 0xF2F JUMP JUMPDEST PUSH1 0x1 DUP3 ADD PUSH0 PUSH2 0x100 EXP DUP2 SLOAD SWAP1 PUSH1 0xFF MUL NOT AND SWAP1 SSTORE PUSH1 0x2 DUP3 ADD PUSH0 SWAP1 SSTORE POP POP SWAP1 SSTORE DUP2 PUSH20 0xFFFFFFFFFFFFFFFFFFFFFFFFFFFFFFFFFFFFFFFF AND PUSH32 0x24D84CD6BD5CC33DAFA556A214E7D9E1B4FCCCA98B3E7D1413909E4710F02FF3 DUP5 PUSH1 0x40 MLOAD PUSH2 0x8B9 SWAP2 SWAP1 PUSH2 0xF9E JUMP JUMPDEST PUSH1 0x40 MLOAD DUP1 SWAP2 SUB SWAP1 LOG2 POP POP POP JUMP JUMPDEST PUSH1 0x64 DUP2 JUMP JUMPDEST PUSH0 DUP2 MLOAD GT PUSH2 0x90E JUMPI PUSH1 0x40 MLOAD PUSH32 0x8C379A000000000000000000000000000000000000000000000000000000000 DUP2 MSTORE PUSH1 0x4 ADD PUSH2 0x905 SWAP1 PUSH2 0x1884 JUMP JUMPDEST PUSH1 0x40 MLOAD DUP1 SWAP2 SUB SWAP1 REVERT JUMPDEST PUSH1 0xC8 DUP2 MLOAD GT ISZERO PUSH2 0x953 JUMPI PUSH1 0x40 MLOAD PUSH32 0x8C379A000000000000000000000000000000000000000000000000000000000 DUP2 MSTORE PUSH1 0x4 ADD PUSH2 0x94A SWAP1 PUSH2 0x18EC JUMP JUMPDEST PUSH1 0x40 MLOAD DUP1 SWAP2 SUB SWAP1 REVERT JUMPDEST PUSH0 CALLER SWAP1 POP PUSH1 0x64 PUSH0 PUSH0 DUP4 PUSH20 0xFFFFFFFFFFFFFFFFFFFFFFFFFFFFFFFFFFFFFFFF AND PUSH20 0xFFFFFFFFFFFFFFFFFFFFFFFFFFFFFFFFFFFFFFFF AND DUP2 MSTORE PUSH1 0x20 ADD SWAP1 DUP2 MSTORE PUSH1 0x20 ADD PUSH0 KECCAK256 DUP1 SLOAD SWAP1 POP GT ISZERO PUSH2 0x9DA JUMPI PUSH1 0x40 MLOAD PUSH32 0x8C379A000000000000000000000000000000000000000000000000000000000 DUP2 MSTORE PUSH1 0x4 ADD PUSH2 0x9D1 SWAP1 PUSH2 0x1954 JUMP JUMPDEST PUSH1 0x40 MLOAD DUP1 SWAP2 SUB SWAP1 REVERT JUMPDEST PUSH0 PUSH0 DUP3 PUSH20 0xFFFFFFFFFFFFFFFFFFFFFFFFFFFFFFFFFFFFFFFF AND PUSH20 0xFFFFFFFFFFFFFFFFFFFFFFFFFFFFFFFFFFFFFFFF AND DUP2 MSTORE PUSH1 0x20 ADD SWAP1 DUP2 MSTORE PUSH1 0x20 ADD PUSH0 KECCAK256 PUSH1 0x40 MLOAD DUP1 PUSH1 0x60 ADD PUSH1 0x40 MSTORE DUP1 DUP5 DUP2 MSTORE PUSH1 0x20 ADD PUSH0 ISZERO ISZERO DUP2 MSTORE PUSH1 0x20 ADD TIMESTAMP DUP2 MSTORE POP SWAP1 DUP1 PUSH1 0x1 DUP2 SLOAD ADD DUP1 DUP3 SSTORE DUP1 SWAP2 POP POP PUSH1 0x1 SWAP1 SUB SWAP1 PUSH0 MSTORE PUSH1 0x20 PUSH0 KECCAK256 SWAP1 PUSH1 0x3 MUL ADD PUSH0 SWAP1 SWAP2 SWAP1 SWAP2 SWAP1 SWAP2 POP PUSH0 DUP3 ADD MLOAD DUP2 PUSH0 ADD SWAP1 DUP2 PUSH2 0xA6C SWAP2 SWAP1 PUSH2 0x1972 JUMP JUMPDEST POP PUSH1 0x20 DUP3 ADD MLOAD DUP2 PUSH1 0x1 ADD PUSH0 PUSH2 0x100 EXP DUP2 SLOAD DUP2 PUSH1 0xFF MUL NOT AND SWAP1 DUP4 ISZERO ISZERO MUL OR SWAP1 SSTORE POP PUSH1 0x40 DUP3 ADD MLOAD DUP2 PUSH1 0x2 ADD SSTORE POP POP DUP1 PUSH20 0xFFFFFFFFFFFFFFFFFFFFFFFFFFFFFFFFFFFFFFFF AND PUSH32 0x1D7303A9DA3D6D58EE2B1B1A7D6676848E0B02914499B48678BB7DFF079A0150 PUSH1 0x1 PUSH0 PUSH0 DUP6 PUSH20 0xFFFFFFFFFFFFFFFFFFFFFFFFFFFFFFFFFFFFFFFF AND PUSH20 0xFFFFFFFFFFFFFFFFFFFFFFFFFFFFFFFFFFFFFFFF AND DUP2 MSTORE PUSH1 0x20 ADD SWAP1 DUP2 MSTORE PUSH1 0x20 ADD PUSH0 KECCAK256 DUP1 SLOAD SWAP1 POP PUSH2 0xB1C SWAP2 SWAP1 PUSH2 0x152F JUMP JUMPDEST DUP5 PUSH1 0x40 MLOAD PUSH2 0xB2B SWAP3 SWAP2 SWAP1 PUSH2 0x1A79 JUMP JUMPDEST PUSH1 0x40 MLOAD DUP1 SWAP2 SUB SWAP1 LOG2 POP POP JUMP JUMPDEST PUSH1 0x60 PUSH0 PUSH0 CALLER PUSH20 0xFFFFFFFFFFFFFFFFFFFFFFFFFFFFFFFFFFFFFFFF AND PUSH20 0xFFFFFFFFFFFFFFFFFFFFFFFFFFFFFFFFFFFFFFFF AND DUP2 MSTORE PUSH1 0x20 ADD SWAP1 DUP2 MSTORE PUSH1 0x20 ADD PUSH0 KECCAK256 DUP1 SLOAD DUP1 PUSH1 0x20 MUL PUSH1 0x20 ADD PUSH1 0x40 MLOAD SWAP1 DUP2 ADD PUSH1 0x40 MSTORE DUP1 SWAP3 SWAP2 SWAP1 DUP2 DUP2 MSTORE PUSH1 0x20 ADD PUSH0 SWAP1 JUMPDEST DUP3 DUP3 LT ISZERO PUSH2 0xC77 JUMPI DUP4 DUP3 SWAP1 PUSH0 MSTORE PUSH1 0x20 PUSH0 KECCAK256 SWAP1 PUSH1 0x3 MUL ADD PUSH1 0x40 MLOAD DUP1 PUSH1 0x60 ADD PUSH1 0x40 MSTORE SWAP1 DUP2 PUSH0 DUP3 ADD DUP1 SLOAD PUSH2 0xBC4 SWAP1 PUSH2 0x137E JUMP JUMPDEST DUP1 PUSH1 0x1F ADD PUSH1 0x20 DUP1 SWAP2 DIV MUL PUSH1 0x20 ADD PUSH1 0x40 MLOAD SWAP1 DUP2 ADD PUSH1 0x40 MSTORE DUP1 SWAP3 SWAP2 SWAP1 DUP2 DUP2 MSTORE PUSH1 0x20 ADD DUP3 DUP1 SLOAD PUSH2 0xBF0 SWAP1 PUSH2 0x137E JUMP JUMPDEST DUP1 ISZERO PUSH2 0xC3B JUMPI DUP1 PUSH1 0x1F LT PUSH2 0xC12 JUMPI PUSH2 0x100 DUP1 DUP4 SLOAD DIV MUL DUP4 MSTORE SWAP2 PUSH1 0x20 ADD SWAP2 PUSH2 0xC3B JUMP JUMPDEST DUP3 ADD SWAP2 SWAP1 PUSH0 MSTORE PUSH1 0x20 PUSH0 KECCAK256 SWAP1 JUMPDEST DUP2 SLOAD DUP2 MSTORE SWAP1 PUSH1 0x1 ADD SWAP1 PUSH1 0x20 ADD DUP1 DUP4 GT PUSH2 0xC1E JUMPI DUP3 SWAP1 SUB PUSH1 0x1F AND DUP3 ADD SWAP2 JUMPDEST POP POP POP POP POP DUP2 MSTORE PUSH1 0x20 ADD PUSH1 0x1 DUP3 ADD PUSH0 SWAP1 SLOAD SWAP1 PUSH2 0x100 EXP SWAP1 DIV PUSH1 0xFF AND ISZERO ISZERO ISZERO ISZERO DUP2 MSTORE PUSH1 0x20 ADD PUSH1 0x2 DUP3 ADD SLOAD DUP2 MSTORE POP POP DUP2 MSTORE PUSH1 0x20 ADD SWAP1 PUSH1 0x1 ADD SWAP1 PUSH2 0xB94 JUMP JUMPDEST POP POP POP POP SWAP1 POP SWAP1 JUMP JUMPDEST PUSH1 0x60 PUSH0 CALLER SWAP1 POP PUSH0 PUSH0 PUSH0 DUP4 PUSH20 0xFFFFFFFFFFFFFFFFFFFFFFFFFFFFFFFFFFFFFFFF AND PUSH20 0xFFFFFFFFFFFFFFFFFFFFFFFFFFFFFFFFFFFFFFFF AND DUP2 MSTORE PUSH1 0x20 ADD SWAP1 DUP2 MSTORE PUSH1 0x20 ADD PUSH0 KECCAK256 DUP1 SLOAD DUP1 PUSH1 0x20 MUL PUSH1 0x20 ADD PUSH1 0x40 MLOAD SWAP1 DUP2 ADD PUSH1 0x40 MSTORE DUP1 SWAP3 SWAP2 SWAP1 DUP2 DUP2 MSTORE PUSH1 0x20 ADD PUSH0 SWAP1 JUMPDEST DUP3 DUP3 LT ISZERO PUSH2 0xDC5 JUMPI DUP4 DUP3 SWAP1 PUSH0 MSTORE PUSH1 0x20 PUSH0 KECCAK256 SWAP1 PUSH1 0x3 MUL ADD PUSH1 0x40 MLOAD DUP1 PUSH1 0x60 ADD PUSH1 0x40 MSTORE SWAP1 DUP2 PUSH0 DUP3 ADD DUP1 SLOAD PUSH2 0xD12 SWAP1 PUSH2 0x137E JUMP JUMPDEST DUP1 PUSH1 0x1F ADD PUSH1 0x20 DUP1 SWAP2 DIV MUL PUSH1 0x20 ADD PUSH1 0x40 MLOAD SWAP1 DUP2 ADD PUSH1 0x40 MSTORE DUP1 SWAP3 SWAP2 SWAP1 DUP2 DUP2 MSTORE PUSH1 0x20 ADD DUP3 DUP1 SLOAD PUSH2 0xD3E SWAP1 PUSH2 0x137E JUMP JUMPDEST DUP1 ISZERO PUSH2 0xD89 JUMPI DUP1 PUSH1 0x1F LT PUSH2 0xD60 JUMPI PUSH2 0x100 DUP1 DUP4 SLOAD DIV MUL DUP4 MSTORE SWAP2 PUSH1 0x20 ADD SWAP2 PUSH2 0xD89 JUMP JUMPDEST DUP3 ADD SWAP2 SWAP1 PUSH0 MSTORE PUSH1 0x20 PUSH0 KECCAK256 SWAP1 JUMPDEST DUP2 SLOAD DUP2 MSTORE SWAP1 PUSH1 0x1 ADD SWAP1 PUSH1 0x20 ADD DUP1 DUP4 GT PUSH2 0xD6C JUMPI DUP3 SWAP1 SUB PUSH1 0x1F AND DUP3 ADD SWAP2 JUMPDEST POP POP POP POP POP DUP2 MSTORE PUSH1 0x20 ADD PUSH1 0x1 DUP3 ADD PUSH0 SWAP1 SLOAD SWAP1 PUSH2 0x100 EXP SWAP1 DIV PUSH1 0xFF AND ISZERO ISZERO ISZERO ISZERO DUP2 MSTORE PUSH1 0x20 ADD PUSH1 0x2 DUP3 ADD SLOAD DUP2 MSTORE POP POP DUP2 MSTORE PUSH1 0x20 ADD SWAP1 PUSH1 0x1 ADD SWAP1 PUSH2 0xCE2 JUMP JUMPDEST POP POP POP POP SWAP1 POP PUSH0 DUP2 MLOAD SWAP1 POP PUSH0 PUSH0 SWAP1 POP PUSH0 PUSH0 SWAP1 POP JUMPDEST DUP3 DUP2 LT ISZERO PUSH2 0xE20 JUMPI DUP4 DUP2 DUP2 MLOAD DUP2 LT PUSH2 0xDF4 JUMPI PUSH2 0xDF3 PUSH2 0x13AE JUMP JUMPDEST JUMPDEST PUSH1 0x20 MUL PUSH1 0x20 ADD ADD MLOAD PUSH1 0x20 ADD MLOAD PUSH2 0xE13 JUMPI DUP2 DUP1 PUSH2 0xE0F SWAP1 PUSH2 0x1408 JUMP JUMPDEST SWAP3 POP POP JUMPDEST DUP1 DUP1 PUSH1 0x1 ADD SWAP2 POP POP PUSH2 0xDD9 JUMP JUMPDEST POP PUSH0 DUP2 PUSH8 0xFFFFFFFFFFFFFFFF DUP2 GT ISZERO PUSH2 0xE3C JUMPI PUSH2 0xE3B PUSH2 0x11E6 JUMP JUMPDEST JUMPDEST PUSH1 0x40 MLOAD SWAP1 DUP1 DUP3 MSTORE DUP1 PUSH1 0x20 MUL PUSH1 0x20 ADD DUP3 ADD PUSH1 0x40 MSTORE DUP1 ISZERO PUSH2 0xE75 JUMPI DUP2 PUSH1 0x20 ADD JUMPDEST PUSH2 0xE62 PUSH2 0xF0E JUMP JUMPDEST DUP2 MSTORE PUSH1 0x20 ADD SWAP1 PUSH1 0x1 SWAP1 SUB SWAP1 DUP2 PUSH2 0xE5A JUMPI SWAP1 POP JUMPDEST POP SWAP1 POP PUSH0 PUSH0 SWAP1 POP PUSH0 PUSH0 SWAP1 POP JUMPDEST DUP5 DUP2 LT ISZERO PUSH2 0xF01 JUMPI DUP6 DUP2 DUP2 MLOAD DUP2 LT PUSH2 0xE9C JUMPI PUSH2 0xE9B PUSH2 0x13AE JUMP JUMPDEST JUMPDEST PUSH1 0x20 MUL PUSH1 0x20 ADD ADD MLOAD PUSH1 0x20 ADD MLOAD PUSH2 0xEF4 JUMPI DUP6 DUP2 DUP2 MLOAD DUP2 LT PUSH2 0xEBF JUMPI PUSH2 0xEBE PUSH2 0x13AE JUMP JUMPDEST JUMPDEST PUSH1 0x20 MUL PUSH1 0x20 ADD ADD MLOAD DUP4 DUP4 DUP2 MLOAD DUP2 LT PUSH2 0xEDA JUMPI PUSH2 0xED9 PUSH2 0x13AE JUMP JUMPDEST JUMPDEST PUSH1 0x20 MUL PUSH1 0x20 ADD ADD DUP2 SWAP1 MSTORE POP DUP2 DUP1 PUSH2 0xEF0 SWAP1 PUSH2 0x1408 JUMP JUMPDEST SWAP3 POP POP JUMPDEST DUP1 DUP1 PUSH1 0x1 ADD SWAP2 POP POP PUSH2 0xE81 JUMP JUMPDEST POP DUP2 SWAP7 POP POP POP POP POP POP POP SWAP1 JUMP JUMPDEST PUSH1 0x40 MLOAD DUP1 PUSH1 0x60 ADD PUSH1 0x40 MSTORE DUP1 PUSH1 0x60 DUP2 MSTORE PUSH1 0x20 ADD PUSH0 ISZERO ISZERO DUP2 MSTORE PUSH1 0x20 ADD PUSH0 DUP2 MSTORE POP SWAP1 JUMP JUMPDEST POP DUP1 SLOAD PUSH2 0xF3B SWAP1 PUSH2 0x137E JUMP JUMPDEST PUSH0 DUP3 SSTORE DUP1 PUSH1 0x1F LT PUSH2 0xF4D JUMPI POP POP PUSH2 0xF67 JUMP JUMPDEST PUSH1 0x1F ADD PUSH1 0x20 SWAP1 DIV SWAP1 PUSH0 MSTORE PUSH1 0x20 PUSH0 KECCAK256 SWAP1 PUSH2 0xF66 SWAP2 SWAP1 PUSH2 0xF69 JUMP JUMPDEST JUMPDEST JUMP JUMPDEST PUSH0 JUMPDEST DUP1 DUP3 GT ISZERO PUSH2 0xF81 JUMPI DUP3 DUP2 ADD PUSH0 SWAP1 SSTORE PUSH1 0x1 ADD PUSH2 0xF6B JUMP JUMPDEST POP POP POP JUMP JUMPDEST PUSH0 DUP2 SWAP1 POP SWAP2 SWAP1 POP JUMP JUMPDEST PUSH2 0xF98 DUP2 PUSH2 0xF86 JUMP JUMPDEST DUP3 MSTORE POP POP JUMP JUMPDEST PUSH0 PUSH1 0x20 DUP3 ADD SWAP1 POP PUSH2 0xFB1 PUSH0 DUP4 ADD DUP5 PUSH2 0xF8F JUMP JUMPDEST SWAP3 SWAP2 POP POP JUMP JUMPDEST PUSH0 DUP2 MLOAD SWAP1 POP SWAP2 SWAP1 POP JUMP JUMPDEST PUSH0 DUP3 DUP3 MSTORE PUSH1 0x20 DUP3 ADD SWAP1 POP SWAP3 SWAP2 POP POP JUMP JUMPDEST PUSH0 DUP2 SWAP1 POP PUSH1 0x20 DUP3 ADD SWAP1 POP SWAP2 SWAP1 POP JUMP JUMPDEST PUSH0 DUP2 MLOAD SWAP1 POP SWAP2 SWAP1 POP JUMP JUMPDEST PUSH0 DUP3 DUP3 MSTORE PUSH1 0x20 DUP3 ADD SWAP1 POP SWAP3 SWAP2 POP POP JUMP JUMPDEST DUP3 DUP2 DUP4 MCOPY PUSH0 DUP4 DUP4 ADD MSTORE POP POP POP JUMP JUMPDEST PUSH0 PUSH1 0x1F NOT PUSH1 0x1F DUP4 ADD AND SWAP1 POP SWAP2 SWAP1 POP JUMP JUMPDEST PUSH0 PUSH2 0x1022 DUP3 PUSH2 0xFE0 JUMP JUMPDEST PUSH2 0x102C DUP2 DUP6 PUSH2 0xFEA JUMP JUMPDEST SWAP4 POP PUSH2 0x103C DUP2 DUP6 PUSH1 0x20 DUP7 ADD PUSH2 0xFFA JUMP JUMPDEST PUSH2 0x1045 DUP2 PUSH2 0x1008 JUMP JUMPDEST DUP5 ADD SWAP2 POP POP SWAP3 SWAP2 POP POP JUMP JUMPDEST PUSH0 DUP2 ISZERO ISZERO SWAP1 POP SWAP2 SWAP1 POP JUMP JUMPDEST PUSH2 0x1064 DUP2 PUSH2 0x1050 JUMP JUMPDEST DUP3 MSTORE POP POP JUMP JUMPDEST PUSH2 0x1073 DUP2 PUSH2 0xF86 JUMP JUMPDEST DUP3 MSTORE POP POP JUMP JUMPDEST PUSH0 PUSH1 0x60 DUP4 ADD PUSH0 DUP4 ADD MLOAD DUP5 DUP3 SUB PUSH0 DUP7 ADD MSTORE PUSH2 0x1093 DUP3 DUP3 PUSH2 0x1018 JUMP JUMPDEST SWAP2 POP POP PUSH1 0x20 DUP4 ADD MLOAD PUSH2 0x10A8 PUSH1 0x20 DUP7 ADD DUP3 PUSH2 0x105B JUMP JUMPDEST POP PUSH1 0x40 DUP4 ADD MLOAD PUSH2 0x10BB PUSH1 0x40 DUP7 ADD DUP3 PUSH2 0x106A JUMP JUMPDEST POP DUP1 SWAP2 POP POP SWAP3 SWAP2 POP POP JUMP JUMPDEST PUSH0 PUSH2 0x10D1 DUP4 DUP4 PUSH2 0x1079 JUMP JUMPDEST SWAP1 POP SWAP3 SWAP2 POP POP JUMP JUMPDEST PUSH0 PUSH1 0x20 DUP3 ADD SWAP1 POP SWAP2 SWAP1 POP JUMP JUMPDEST PUSH0 PUSH2 0x10EF DUP3 PUSH2 0xFB7 JUMP JUMPDEST PUSH2 0x10F9 DUP2 DUP6 PUSH2 0xFC1 JUMP JUMPDEST SWAP4 POP DUP4 PUSH1 0x20 DUP3 MUL DUP6 ADD PUSH2 0x110B DUP6 PUSH2 0xFD1 JUMP JUMPDEST DUP1 PUSH0 JUMPDEST DUP6 DUP2 LT ISZERO PUSH2 0x1146 JUMPI DUP5 DUP5 SUB DUP10 MSTORE DUP2 MLOAD PUSH2 0x1127 DUP6 DUP3 PUSH2 0x10C6 JUMP JUMPDEST SWAP5 POP PUSH2 0x1132 DUP4 PUSH2 0x10D9 JUMP JUMPDEST SWAP3 POP PUSH1 0x20 DUP11 ADD SWAP10 POP POP PUSH1 0x1 DUP2 ADD SWAP1 POP PUSH2 0x110E JUMP JUMPDEST POP DUP3 SWAP8 POP DUP8 SWAP6 POP POP POP POP POP POP SWAP3 SWAP2 POP POP JUMP JUMPDEST PUSH0 PUSH1 0x20 DUP3 ADD SWAP1 POP DUP2 DUP2 SUB PUSH0 DUP4 ADD MSTORE PUSH2 0x1170 DUP2 DUP5 PUSH2 0x10E5 JUMP JUMPDEST SWAP1 POP SWAP3 SWAP2 POP POP JUMP JUMPDEST PUSH0 PUSH1 0x40 MLOAD SWAP1 POP SWAP1 JUMP JUMPDEST PUSH0 PUSH0 REVERT JUMPDEST PUSH0 PUSH0 REVERT JUMPDEST PUSH2 0x1192 DUP2 PUSH2 0xF86 JUMP JUMPDEST DUP2 EQ PUSH2 0x119C JUMPI PUSH0 PUSH0 REVERT JUMPDEST POP JUMP JUMPDEST PUSH0 DUP2 CALLDATALOAD SWAP1 POP PUSH2 0x11AD DUP2 PUSH2 0x1189 JUMP JUMPDEST SWAP3 SWAP2 POP POP JUMP JUMPDEST PUSH0 PUSH1 0x20 DUP3 DUP5 SUB SLT ISZERO PUSH2 0x11C8 JUMPI PUSH2 0x11C7 PUSH2 0x1181 JUMP JUMPDEST JUMPDEST PUSH0 PUSH2 0x11D5 DUP5 DUP3 DUP6 ADD PUSH2 0x119F JUMP JUMPDEST SWAP2 POP POP SWAP3 SWAP2 POP POP JUMP JUMPDEST PUSH0 PUSH0 REVERT JUMPDEST PUSH0 PUSH0 REVERT JUMPDEST PUSH32 0x4E487B7100000000000000000000000000000000000000000000000000000000 PUSH0 MSTORE PUSH1 0x41 PUSH1 0x4 MSTORE PUSH1 0x24 PUSH0 REVERT JUMPDEST PUSH2 0x121C DUP3 PUSH2 0x1008 JUMP JUMPDEST DUP2 ADD DUP2 DUP2 LT PUSH8 0xFFFFFFFFFFFFFFFF DUP3 GT OR ISZERO PUSH2 0x123B JUMPI PUSH2 0x123A PUSH2 0x11E6 JUMP JUMPDEST JUMPDEST DUP1 PUSH1 0x40 MSTORE POP POP POP JUMP JUMPDEST PUSH0 PUSH2 0x124D PUSH2 0x1178 JUMP JUMPDEST SWAP1 POP PUSH2 0x1259 DUP3 DUP3 PUSH2 0x1213 JUMP JUMPDEST SWAP2 SWAP1 POP JUMP JUMPDEST PUSH0 PUSH8 0xFFFFFFFFFFFFFFFF DUP3 GT ISZERO PUSH2 0x1278 JUMPI PUSH2 0x1277 PUSH2 0x11E6 JUMP JUMPDEST JUMPDEST PUSH2 0x1281 DUP3 PUSH2 0x1008 JUMP JUMPDEST SWAP1 POP PUSH1 0x20 DUP2 ADD SWAP1 POP SWAP2 SWAP1 POP JUMP JUMPDEST DUP3 DUP2 DUP4 CALLDATACOPY PUSH0 DUP4 DUP4 ADD MSTORE POP POP POP JUMP JUMPDEST PUSH0 PUSH2 0x12AE PUSH2 0x12A9 DUP5 PUSH2 0x125E JUMP JUMPDEST PUSH2 0x1244 JUMP JUMPDEST SWAP1 POP DUP3 DUP2 MSTORE PUSH1 0x20 DUP2 ADD DUP5 DUP5 DUP5 ADD GT ISZERO PUSH2 0x12CA JUMPI PUSH2 0x12C9 PUSH2 0x11E2 JUMP JUMPDEST JUMPDEST PUSH2 0x12D5 DUP5 DUP3 DUP6 PUSH2 0x128E JUMP JUMPDEST POP SWAP4 SWAP3 POP POP POP JUMP JUMPDEST PUSH0 DUP3 PUSH1 0x1F DUP4 ADD SLT PUSH2 0x12F1 JUMPI PUSH2 0x12F0 PUSH2 0x11DE JUMP JUMPDEST JUMPDEST DUP2 CALLDATALOAD PUSH2 0x1301 DUP5 DUP3 PUSH1 0x20 DUP7 ADD PUSH2 0x129C JUMP JUMPDEST SWAP2 POP POP SWAP3 SWAP2 POP POP JUMP JUMPDEST PUSH0 PUSH1 0x20 DUP3 DUP5 SUB SLT ISZERO PUSH2 0x131F JUMPI PUSH2 0x131E PUSH2 0x1181 JUMP JUMPDEST JUMPDEST PUSH0 DUP3 ADD CALLDATALOAD PUSH8 0xFFFFFFFFFFFFFFFF DUP2 GT ISZERO PUSH2 0x133C JUMPI PUSH2 0x133B PUSH2 0x1185 JUMP JUMPDEST JUMPDEST PUSH2 0x1348 DUP5 DUP3 DUP6 ADD PUSH2 0x12DD JUMP JUMPDEST SWAP2 POP POP SWAP3 SWAP2 POP POP JUMP JUMPDEST PUSH32 0x4E487B7100000000000000000000000000000000000000000000000000000000 PUSH0 MSTORE PUSH1 0x22 PUSH1 0x4 MSTORE PUSH1 0x24 PUSH0 REVERT JUMPDEST PUSH0 PUSH1 0x2 DUP3 DIV SWAP1 POP PUSH1 0x1 DUP3 AND DUP1 PUSH2 0x1395 JUMPI PUSH1 0x7F DUP3 AND SWAP2 POP JUMPDEST PUSH1 0x20 DUP3 LT DUP2 SUB PUSH2 0x13A8 JUMPI PUSH2 0x13A7 PUSH2 0x1351 JUMP JUMPDEST JUMPDEST POP SWAP2 SWAP1 POP JUMP JUMPDEST PUSH32 0x4E487B7100000000000000000000000000000000000000000000000000000000 PUSH0 MSTORE PUSH1 0x32 PUSH1 0x4 MSTORE PUSH1 0x24 PUSH0 REVERT JUMPDEST PUSH32 0x4E487B7100000000000000000000000000000000000000000000000000000000 PUSH0 MSTORE PUSH1 0x11 PUSH1 0x4 MSTORE PUSH1 0x24 PUSH0 REVERT JUMPDEST PUSH0 PUSH2 0x1412 DUP3 PUSH2 0xF86 JUMP JUMPDEST SWAP2 POP PUSH32 0xFFFFFFFFFFFFFFFFFFFFFFFFFFFFFFFFFFFFFFFFFFFFFFFFFFFFFFFFFFFFFFFF DUP3 SUB PUSH2 0x1444 JUMPI PUSH2 0x1443 PUSH2 0x13DB JUMP JUMPDEST JUMPDEST PUSH1 0x1 DUP3 ADD SWAP1 POP SWAP2 SWAP1 POP JUMP JUMPDEST PUSH0 DUP3 DUP3 MSTORE PUSH1 0x20 DUP3 ADD SWAP1 POP SWAP3 SWAP2 POP POP JUMP JUMPDEST PUSH32 0x496E646578206F7574206F6620626F756E647321000000000000000000000000 PUSH0 DUP3 ADD MSTORE POP JUMP JUMPDEST PUSH0 PUSH2 0x1493 PUSH1 0x14 DUP4 PUSH2 0x144F JUMP JUMPDEST SWAP2 POP PUSH2 0x149E DUP3 PUSH2 0x145F JUMP JUMPDEST PUSH1 0x20 DUP3 ADD SWAP1 POP SWAP2 SWAP1 POP JUMP JUMPDEST PUSH0 PUSH1 0x20 DUP3 ADD SWAP1 POP DUP2 DUP2 SUB PUSH0 DUP4 ADD MSTORE PUSH2 0x14C0 DUP2 PUSH2 0x1487 JUMP JUMPDEST SWAP1 POP SWAP2 SWAP1 POP JUMP JUMPDEST PUSH32 0x416C726561647920636F6D706C65746564210000000000000000000000000000 PUSH0 DUP3 ADD MSTORE POP JUMP JUMPDEST PUSH0 PUSH2 0x14FB PUSH1 0x12 DUP4 PUSH2 0x144F JUMP JUMPDEST SWAP2 POP PUSH2 0x1506 DUP3 PUSH2 0x14C7 JUMP JUMPDEST PUSH1 0x20 DUP3 ADD SWAP1 POP SWAP2 SWAP1 POP JUMP JUMPDEST PUSH0 PUSH1 0x20 DUP3 ADD SWAP1 POP DUP2 DUP2 SUB PUSH0 DUP4 ADD MSTORE PUSH2 0x1528 DUP2 PUSH2 0x14EF JUMP JUMPDEST SWAP1 POP SWAP2 SWAP1 POP JUMP JUMPDEST PUSH0 PUSH2 0x1539 DUP3 PUSH2 0xF86 JUMP JUMPDEST SWAP2 POP PUSH2 0x1544 DUP4 PUSH2 0xF86 JUMP JUMPDEST SWAP3 POP DUP3 DUP3 SUB SWAP1 POP DUP2 DUP2 GT ISZERO PUSH2 0x155C JUMPI PUSH2 0x155B PUSH2 0x13DB JUMP JUMPDEST JUMPDEST SWAP3 SWAP2 POP POP JUMP JUMPDEST PUSH0 DUP2 SLOAD SWAP1 POP PUSH2 0x1570 DUP2 PUSH2 0x137E JUMP JUMPDEST SWAP1 POP SWAP2 SWAP1 POP JUMP JUMPDEST PUSH0 DUP2 SWAP1 POP DUP2 PUSH0 MSTORE PUSH1 0x20 PUSH0 KECCAK256 SWAP1 POP SWAP2 SWAP1 POP JUMP JUMPDEST PUSH0 PUSH1 0x20 PUSH1 0x1F DUP4 ADD DIV SWAP1 POP SWAP2 SWAP1 POP JUMP JUMPDEST PUSH0 DUP3 DUP3 SHL SWAP1 POP SWAP3 SWAP2 POP POP JUMP JUMPDEST PUSH0 PUSH1 0x8 DUP4 MUL PUSH2 0x15D3 PUSH32 0xFFFFFFFFFFFFFFFFFFFFFFFFFFFFFFFFFFFFFFFFFFFFFFFFFFFFFFFFFFFFFFFF DUP3 PUSH2 0x1598 JUMP JUMPDEST PUSH2 0x15DD DUP7 DUP4 PUSH2 0x1598 JUMP JUMPDEST SWAP6 POP DUP1 NOT DUP5 AND SWAP4 POP DUP1 DUP7 AND DUP5 OR SWAP3 POP POP POP SWAP4 SWAP3 POP POP POP JUMP JUMPDEST PUSH0 DUP2 SWAP1 POP SWAP2 SWAP1 POP JUMP JUMPDEST PUSH0 PUSH2 0x1618 PUSH2 0x1613 PUSH2 0x160E DUP5 PUSH2 0xF86 JUMP JUMPDEST PUSH2 0x15F5 JUMP JUMPDEST PUSH2 0xF86 JUMP JUMPDEST SWAP1 POP SWAP2 SWAP1 POP JUMP JUMPDEST PUSH0 DUP2 SWAP1 POP SWAP2 SWAP1 POP JUMP JUMPDEST PUSH2 0x1631 DUP4 PUSH2 0x15FE JUMP JUMPDEST PUSH2 0x1645 PUSH2 0x163D DUP3 PUSH2 0x161F JUMP JUMPDEST DUP5 DUP5 SLOAD PUSH2 0x15A4 JUMP JUMPDEST DUP3 SSTORE POP POP POP POP JUMP JUMPDEST PUSH0 PUSH0 SWAP1 POP SWAP1 JUMP JUMPDEST PUSH2 0x165C PUSH2 0x164D JUMP JUMPDEST PUSH2 0x1667 DUP2 DUP5 DUP5 PUSH2 0x1628 JUMP JUMPDEST POP POP POP JUMP JUMPDEST PUSH0 JUMPDEST DUP3 DUP2 LT ISZERO PUSH2 0x168D JUMPI PUSH2 0x1682 PUSH0 DUP3 DUP5 ADD PUSH2 0x1654 JUMP JUMPDEST PUSH1 0x1 DUP2 ADD SWAP1 POP PUSH2 0x166E JUMP JUMPDEST POP POP POP JUMP JUMPDEST PUSH1 0x1F DUP3 GT ISZERO PUSH2 0x16E0 JUMPI DUP3 DUP3 GT ISZERO PUSH2 0x16DF JUMPI PUSH2 0x16AC DUP2 PUSH2 0x1577 JUMP JUMPDEST PUSH2 0x16B5 DUP4 PUSH2 0x1589 JUMP JUMPDEST PUSH2 0x16BE DUP6 PUSH2 0x1589 JUMP JUMPDEST PUSH1 0x20 DUP7 LT ISZERO PUSH2 0x16CB JUMPI PUSH0 SWAP1 POP JUMPDEST DUP1 DUP4 ADD PUSH2 0x16DA DUP3 DUP5 SUB DUP3 PUSH2 0x166C JUMP JUMPDEST POP POP POP POP JUMPDEST JUMPDEST POP POP POP JUMP JUMPDEST PUSH0 DUP3 DUP3 SHR SWAP1 POP SWAP3 SWAP2 POP POP JUMP JUMPDEST PUSH0 PUSH2 0x1700 PUSH0 NOT DUP5 PUSH1 0x8 MUL PUSH2 0x16E5 JUMP JUMPDEST NOT DUP1 DUP4 AND SWAP2 POP POP SWAP3 SWAP2 POP POP JUMP JUMPDEST PUSH0 PUSH2 0x1718 DUP4 DUP4 PUSH2 0x16F1 JUMP JUMPDEST SWAP2 POP DUP3 PUSH1 0x2 MUL DUP3 OR SWAP1 POP SWAP3 SWAP2 POP POP JUMP JUMPDEST DUP2 DUP2 SUB PUSH2 0x1736 JUMPI POP POP PUSH2 0x180B JUMP JUMPDEST PUSH2 0x173F DUP3 PUSH2 0x1562 JUMP JUMPDEST PUSH8 0xFFFFFFFFFFFFFFFF DUP2 GT ISZERO PUSH2 0x1758 JUMPI PUSH2 0x1757 PUSH2 0x11E6 JUMP JUMPDEST JUMPDEST PUSH2 0x1762 DUP3 SLOAD PUSH2 0x137E JUMP JUMPDEST PUSH2 0x176D DUP3 DUP3 DUP6 PUSH2 0x1692 JUMP JUMPDEST PUSH0 PUSH1 0x1F DUP4 GT PUSH1 0x1 DUP2 EQ PUSH2 0x179A JUMPI PUSH0 DUP5 ISZERO PUSH2 0x1788 JUMPI DUP3 DUP8 ADD SLOAD SWAP1 POP JUMPDEST PUSH2 0x1792 DUP6 DUP3 PUSH2 0x170D JUMP JUMPDEST DUP7 SSTORE POP PUSH2 0x1804 JUMP JUMPDEST PUSH1 0x1F NOT DUP5 AND PUSH2 0x17A8 DUP8 PUSH2 0x1577 JUMP JUMPDEST SWAP7 POP PUSH2 0x17B3 DUP7 PUSH2 0x1577 JUMP JUMPDEST PUSH0 JUMPDEST DUP3 DUP2 LT ISZERO PUSH2 0x17DA JUMPI DUP5 DUP10 ADD SLOAD DUP3 SSTORE PUSH1 0x1 DUP3 ADD SWAP2 POP PUSH1 0x1 DUP6 ADD SWAP5 POP PUSH1 0x20 DUP2 ADD SWAP1 POP PUSH2 0x17B5 JUMP JUMPDEST DUP7 DUP4 LT ISZERO PUSH2 0x17F7 JUMPI DUP5 DUP10 ADD SLOAD PUSH2 0x17F3 PUSH1 0x1F DUP10 AND DUP3 PUSH2 0x16F1 JUMP JUMPDEST DUP4 SSTORE POP JUMPDEST PUSH1 0x1 PUSH1 0x2 DUP9 MUL ADD DUP9 SSTORE POP POP POP JUMPDEST POP POP POP POP POP POP JUMPDEST JUMP JUMPDEST PUSH32 0x4E487B7100000000000000000000000000000000000000000000000000000000 PUSH0 MSTORE PUSH1 0x31 PUSH1 0x4 MSTORE PUSH1 0x24 PUSH0 REVERT JUMPDEST PUSH32 0x5461736B2063616E6E6F7420626520656D707479210000000000000000000000 PUSH0 DUP3 ADD MSTORE POP JUMP JUMPDEST PUSH0 PUSH2 0x186E PUSH1 0x15 DUP4 PUSH2 0x144F JUMP JUMPDEST SWAP2 POP PUSH2 0x1879 DUP3 PUSH2 0x183A JUMP JUMPDEST PUSH1 0x20 DUP3 ADD SWAP1 POP SWAP2 SWAP1 POP JUMP JUMPDEST PUSH0 PUSH1 0x20 DUP3 ADD SWAP1 POP DUP2 DUP2 SUB PUSH0 DUP4 ADD MSTORE PUSH2 0x189B DUP2 PUSH2 0x1862 JUMP JUMPDEST SWAP1 POP SWAP2 SWAP1 POP JUMP JUMPDEST PUSH32 0x5461736B20746F6F206C6F6E6700000000000000000000000000000000000000 PUSH0 DUP3 ADD MSTORE POP JUMP JUMPDEST PUSH0 PUSH2 0x18D6 PUSH1 0xD DUP4 PUSH2 0x144F JUMP JUMPDEST SWAP2 POP PUSH2 0x18E1 DUP3 PUSH2 0x18A2 JUMP JUMPDEST PUSH1 0x20 DUP3 ADD SWAP1 POP SWAP2 SWAP1 POP JUMP JUMPDEST PUSH0 PUSH1 0x20 DUP3 ADD SWAP1 POP DUP2 DUP2 SUB PUSH0 DUP4 ADD MSTORE PUSH2 0x1903 DUP2 PUSH2 0x18CA JUMP JUMPDEST SWAP1 POP SWAP2 SWAP1 POP JUMP JUMPDEST PUSH32 0x546F20646F206C6973742069732066756C6C2100000000000000000000000000 PUSH0 DUP3 ADD MSTORE POP JUMP JUMPDEST PUSH0 PUSH2 0x193E PUSH1 0x13 DUP4 PUSH2 0x144F JUMP JUMPDEST SWAP2 POP PUSH2 0x1949 DUP3 PUSH2 0x190A JUMP JUMPDEST PUSH1 0x20 DUP3 ADD SWAP1 POP SWAP2 SWAP1 POP JUMP JUMPDEST PUSH0 PUSH1 0x20 DUP3 ADD SWAP1 POP DUP2 DUP2 SUB PUSH0 DUP4 ADD MSTORE PUSH2 0x196B DUP2 PUSH2 0x1932 JUMP JUMPDEST SWAP1 POP SWAP2 SWAP1 POP JUMP JUMPDEST PUSH2 0x197B DUP3 PUSH2 0xFE0 JUMP JUMPDEST PUSH8 0xFFFFFFFFFFFFFFFF DUP2 GT ISZERO PUSH2 0x1994 JUMPI PUSH2 0x1993 PUSH2 0x11E6 JUMP JUMPDEST JUMPDEST PUSH2 0x199E DUP3 SLOAD PUSH2 0x137E JUMP JUMPDEST PUSH2 0x19A9 DUP3 DUP3 DUP6 PUSH2 0x1692 JUMP JUMPDEST PUSH0 PUSH1 0x20 SWAP1 POP PUSH1 0x1F DUP4 GT PUSH1 0x1 DUP2 EQ PUSH2 0x19DA JUMPI PUSH0 DUP5 ISZERO PUSH2 0x19C8 JUMPI DUP3 DUP8 ADD MLOAD SWAP1 POP JUMPDEST PUSH2 0x19D2 DUP6 DUP3 PUSH2 0x170D JUMP JUMPDEST DUP7 SSTORE POP PUSH2 0x1A39 JUMP JUMPDEST PUSH1 0x1F NOT DUP5 AND PUSH2 0x19E8 DUP7 PUSH2 0x1577 JUMP JUMPDEST PUSH0 JUMPDEST DUP3 DUP2 LT ISZERO PUSH2 0x1A0F JUMPI DUP5 DUP10 ADD MLOAD DUP3 SSTORE PUSH1 0x1 DUP3 ADD SWAP2 POP PUSH1 0x20 DUP6 ADD SWAP5 POP PUSH1 0x20 DUP2 ADD SWAP1 POP PUSH2 0x19EA JUMP JUMPDEST DUP7 DUP4 LT ISZERO PUSH2 0x1A2C JUMPI DUP5 DUP10 ADD MLOAD PUSH2 0x1A28 PUSH1 0x1F DUP10 AND DUP3 PUSH2 0x16F1 JUMP JUMPDEST DUP4 SSTORE POP JUMPDEST PUSH1 0x1 PUSH1 0x2 DUP9 MUL ADD DUP9 SSTORE POP POP POP JUMPDEST POP POP POP POP POP POP JUMP JUMPDEST PUSH0 PUSH2 0x1A4B DUP3 PUSH2 0xFE0 JUMP JUMPDEST PUSH2 0x1A55 DUP2 DUP6 PUSH2 0x144F JUMP JUMPDEST SWAP4 POP PUSH2 0x1A65 DUP2 DUP6 PUSH1 0x20 DUP7 ADD PUSH2 0xFFA JUMP JUMPDEST PUSH2 0x1A6E DUP2 PUSH2 0x1008 JUMP JUMPDEST DUP5 ADD SWAP2 POP POP SWAP3 SWAP2 POP POP JUMP JUMPDEST PUSH0 PUSH1 0x40 DUP3 ADD SWAP1 POP PUSH2 0x1A8C PUSH0 DUP4 ADD DUP6 PUSH2 0xF8F JUMP JUMPDEST DUP2 DUP2 SUB PUSH1 0x20 DUP4 ADD MSTORE PUSH2 0x1A9E DUP2 DUP5 PUSH2 0x1A41 JUMP JUMPDEST SWAP1 POP SWAP4 SWAP3 POP POP POP JUMP INVALID LOG2 PUSH5 0x6970667358 0x22 SLT KECCAK256 0xB7 0xB2 0x2C MSIZE 0xB6 SHL 0xD3 PUSH10 0xB10BD516C97218C084DF 0xD7 BLOBHASH GAS 0xC1 SLOAD EXTCODESIZE JUMPI TSTORE ISZERO SIGNEXTEND 0x4B 0x1F 0xEA 0xAB PUSH5 0x736F6C6343 STOP ADDMOD 0x22 STOP CALLER "
				},
				"gasEstimates": {
					"creation": {
						"codeDepositCost": "1375400",
						"executionCost": "1429",
						"totalCost": "1376829"
					},
					"external": {
						"MAX_TODOLIST()": "325",
						"addTodo(string)": "infinite",
						"completeTodo(uint256)": "infinite",
						"deleteTodo(uint256)": "infinite",
						"getAllTodos()": "infinite",
						"getCompletedTodos()": "infinite",
						"getPendingTodos()": "infinite",
						"getTodoCount()": "2527"
					}
				},
				"methodIdentifiers": {
					"MAX_TODOLIST()": "8ad7ab7a",
					"addTodo(string)": "95ffebf5",
					"completeTodo(uint256)": "20fe2144",
					"deleteTodo(uint256)": "6e3c6738",
					"getAllTodos()": "ce2bd5d5",
					"getCompletedTodos()": "10d41e82",
					"getPendingTodos()": "d7ba3d0a",
					"getTodoCount()": "104a7cd8"
				}
			},
			"storageLayout": {
				"storage": [
					{
						"astId": 15,
						"contract": "lession3.1/TodoList.sol:TodoList",
						"label": "userTodos",
						"offset": 0,
						"slot": "0",
						"type": "t_mapping(t_address,t_array(t_struct(Todo)9_storage)dyn_storage)"
					}
				],
				"types": {
					"t_address": {
						"encoding": "inplace",
						"label": "address",
						"numberOfBytes": "20"
					},
					"t_array(t_struct(Todo)9_storage)dyn_storage": {
						"base": "t_struct(Todo)9_storage",
						"encoding": "dynamic_array",
						"label": "struct TodoList.Todo[]",
						"numberOfBytes": "32"
					},
					"t_bool": {
						"encoding": "inplace",
						"label": "bool",
						"numberOfBytes": "1"
					},
					"t_mapping(t_address,t_array(t_struct(Todo)9_storage)dyn_storage)": {
						"encoding": "mapping",
						"key": "t_address",
						"label": "mapping(address => struct TodoList.Todo[])",
						"numberOfBytes": "32",
						"value": "t_array(t_struct(Todo)9_storage)dyn_storage"
					},
					"t_string_storage": {
						"encoding": "bytes",
						"label": "string",
						"numberOfBytes": "32"
					},
					"t_struct(Todo)9_storage": {
						"encoding": "inplace",
						"label": "struct TodoList.Todo",
						"members": [
							{
								"astId": 4,
								"contract": "lession3.1/TodoList.sol:TodoList",
								"label": "task",
								"offset": 0,
								"slot": "0",
								"type": "t_string_storage"
							},
							{
								"astId": 6,
								"contract": "lession3.1/TodoList.sol:TodoList",
								"label": "completed",
								"offset": 0,
								"slot": "1",
								"type": "t_bool"
							},
							{
								"astId": 8,
								"contract": "lession3.1/TodoList.sol:TodoList",
								"label": "timestamp",
								"offset": 0,
								"slot": "2",
								"type": "t_uint256"
							}
						],
						"numberOfBytes": "96"
					},
					"t_uint256": {
						"encoding": "inplace",
						"label": "uint256",
						"numberOfBytes": "32"
					}
				}
			},
			"userdoc": {
				"kind": "user",
				"methods": {},
				"notice": "创建⼀个去中⼼化的待办事项管理合约： 每个⽤户有⾃⼰的待办列表 可以添加、完成、删除待办 可以查看所有待办和已完成的待办 限制每个⽤户最多100个待办事项",
				"version": 1
			}
		}
	}
}