{
	"lession7.2-Error/TokenContract.sol": {
		"TokenContract": {
			"abi": [
				{
					"inputs": [
						{
							"internalType": "string",
							"name": "_name",
							"type": "string"
						},
						{
							"internalType": "string",
							"name": "_symbol",
							"type": "string"
						},
						{
							"internalType": "uint8",
							"name": "_decimals",
							"type": "uint8"
						},
						{
							"internalType": "uint256",
							"name": "_totalSupply",
							"type": "uint256"
						}
					],
					"stateMutability": "nonpayable",
					"type": "constructor"
				},
				{
					"inputs": [
						{
							"internalType": "address",
							"name": "owner",
							"type": "address"
						},
						{
							"internalType": "address",
							"name": "spender",
							"type": "address"
						},
						{
							"internalType": "uint256",
							"name": "available",
							"type": "uint256"
						},
						{
							"internalType": "uint256",
							"name": "required",
							"type": "uint256"
						}
					],
					"name": "InsufficientAllowance",
					"type": "error"
				},
				{
					"inputs": [
						{
							"internalType": "address",
							"name": "account",
							"type": "address"
						},
						{
							"internalType": "uint256",
							"name": "available",
							"type": "uint256"
						},
						{
							"internalType": "uint256",
							"name": "required",
							"type": "uint256"
						}
					],
					"name": "InsufficientBalance",
					"type": "error"
				},
				{
					"inputs": [
						{
							"internalType": "uint256",
							"name": "amount",
							"type": "uint256"
						}
					],
					"name": "InvalidAmount",
					"type": "error"
				},
				{
					"inputs": [
						{
							"internalType": "address",
							"name": "recipient",
							"type": "address"
						}
					],
					"name": "InvalidRecipient",
					"type": "error"
				},
				{
					"anonymous": false,
					"inputs": [
						{
							"indexed": true,
							"internalType": "address",
							"name": "owner",
							"type": "address"
						},
						{
							"indexed": true,
							"internalType": "address",
							"name": "spender",
							"type": "address"
						},
						{
							"indexed": false,
							"internalType": "uint256",
							"name": "amount",
							"type": "uint256"
						}
					],
					"name": "Approval",
					"type": "event"
				},
				{
					"anonymous": false,
					"inputs": [
						{
							"indexed": true,
							"internalType": "address",
							"name": "from",
							"type": "address"
						},
						{
							"indexed": true,
							"internalType": "address",
							"name": "to",
							"type": "address"
						},
						{
							"indexed": false,
							"internalType": "uint256",
							"name": "amount",
							"type": "uint256"
						}
					],
					"name": "Transfer",
					"type": "event"
				},
				{
					"inputs": [],
					"name": "MAX_COUNT",
					"outputs": [
						{
							"internalType": "uint256",
							"name": "",
							"type": "uint256"
						}
					],
					"stateMutability": "view",
					"type": "function"
				},
				{
					"inputs": [
						{
							"internalType": "address",
							"name": "",
							"type": "address"
						},
						{
							"internalType": "address",
							"name": "",
							"type": "address"
						}
					],
					"name": "allowance",
					"outputs": [
						{
							"internalType": "uint256",
							"name": "",
							"type": "uint256"
						}
					],
					"stateMutability": "view",
					"type": "function"
				},
				{
					"inputs": [
						{
							"internalType": "address",
							"name": "spender",
							"type": "address"
						},
						{
							"internalType": "uint256",
							"name": "amount",
							"type": "uint256"
						}
					],
					"name": "approve",
					"outputs": [
						{
							"internalType": "bool",
							"name": "",
							"type": "bool"
						}
					],
					"stateMutability": "nonpayable",
					"type": "function"
				},
				{
					"inputs": [
						{
							"internalType": "address",
							"name": "",
							"type": "address"
						}
					],
					"name": "balanceOf",
					"outputs": [
						{
							"internalType": "uint256",
							"name": "",
							"type": "uint256"
						}
					],
					"stateMutability": "view",
					"type": "function"
				},
				{
					"inputs": [
						{
							"internalType": "uint256",
							"name": "amount",
							"type": "uint256"
						}
					],
					"name": "burn",
					"outputs": [],
					"stateMutability": "nonpayable",
					"type": "function"
				},
				{
					"inputs": [],
					"name": "decimals",
					"outputs": [
						{
							"internalType": "uint8",
							"name": "",
							"type": "uint8"
						}
					],
					"stateMutability": "view",
					"type": "function"
				},
				{
					"inputs": [
						{
							"internalType": "address",
							"name": "to",
							"type": "address"
						},
						{
							"internalType": "uint256",
							"name": "amount",
							"type": "uint256"
						}
					],
					"name": "mint",
					"outputs": [],
					"stateMutability": "nonpayable",
					"type": "function"
				},
				{
					"inputs": [],
					"name": "name",
					"outputs": [
						{
							"internalType": "string",
							"name": "",
							"type": "string"
						}
					],
					"stateMutability": "view",
					"type": "function"
				},
				{
					"inputs": [],
					"name": "owner",
					"outputs": [
						{
							"internalType": "address",
							"name": "",
							"type": "address"
						}
					],
					"stateMutability": "view",
					"type": "function"
				},
				{
					"inputs": [],
					"name": "pause",
					"outputs": [],
					"stateMutability": "nonpayable",
					"type": "function"
				},
				{
					"inputs": [],
					"name": "resume",
					"outputs": [],
					"stateMutability": "nonpayable",
					"type": "function"
				},
				{
					"inputs": [],
					"name": "symbol",
					"outputs": [
						{
							"internalType": "string",
							"name": "",
							"type": "string"
						}
					],
					"stateMutability": "view",
					"type": "function"
				},
				{
					"inputs": [],
					"name": "totalSupply",
					"outputs": [
						{
							"internalType": "uint256",
							"name": "",
							"type": "uint256"
						}
					],
					"stateMutability": "view",
					"type": "function"
				},
				{
					"inputs": [
						{
							"internalType": "address",
							"name": "to",
							"type": "address"
						},
						{
							"internalType": "uint256",
							"name": "amount",
							"type": "uint256"
						}
					],
					"name": "transfer",
					"outputs": [
						{
							"internalType": "bool",
							"name": "",
							"type": "bool"
						}
					],
					"stateMutability": "nonpayable",
					"type": "function"
				},
				{
					"inputs": [
						{
							"internalType": "address",
							"name": "from",
							"type": "address"
						},
						{
							"internalType": "address",
							"name": "to",
							"type": "address"
						},
						{
							"internalType": "uint256",
							"name": "amount",
							"type": "uint256"
						}
					],
					"name": "transferFrom",
					"outputs": [
						{
							"internalType": "bool",
							"name": "",
							"type": "bool"
						}
					],
					"stateMutability": "nonpayable",
					"type": "function"
				}
			],
			"devdoc": {
				"kind": "dev",
				"methods": {},
				"version": 1
			},
			"evm": {
				"assembly": "    /* \"lession7.2-Error/TokenContract.sol\":76:3974  contract TokenContract {... */\n  mstore(0x40, 0x80)\n    /* \"lession7.2-Error/TokenContract.sol\":426:431  false */\n  0x00\n    /* \"lession7.2-Error/TokenContract.sol\":412:431  bool paused = false */\n  0x06\n  exp(0x0100, 0x14)\n  dup2\n  sload\n  dup2\n  0xff\n  mul\n  not\n  and\n  swap1\n  dup4\n  iszero\n  iszero\n  mul\n  or\n  swap1\n  sstore\n  pop\n    /* \"lession7.2-Error/TokenContract.sol\":1198:1607  constructor(... */\n  callvalue\n  dup1\n  iszero\n  tag_1\n  jumpi\n  revert(0x00, 0x00)\ntag_1:\n  pop\n  mload(0x40)\n  sub(codesize, bytecodeSize)\n  dup1\n  bytecodeSize\n  dup4\n  codecopy\n  dup2\n  dup2\n  add\n  0x40\n  mstore\n  dup2\n  add\n  swap1\n  tag_2\n  swap2\n  swap1\n  tag_3\n  jump\t// in\ntag_2:\n    /* \"lession7.2-Error/TokenContract.sol\":1346:1356  msg.sender */\n  caller\n    /* \"lession7.2-Error/TokenContract.sol\":1338:1343  owner */\n  0x06\n  0x00\n    /* \"lession7.2-Error/TokenContract.sol\":1338:1356  owner = msg.sender */\n  0x0100\n  exp\n  dup2\n  sload\n  dup2\n  0xffffffffffffffffffffffffffffffffffffffff\n  mul\n  not\n  and\n  swap1\n  dup4\n  0xffffffffffffffffffffffffffffffffffffffff\n  and\n  mul\n  or\n  swap1\n  sstore\n  pop\n    /* \"lession7.2-Error/TokenContract.sol\":1374:1379  _name */\n  dup4\n    /* \"lession7.2-Error/TokenContract.sol\":1367:1371  name */\n  0x00\n    /* \"lession7.2-Error/TokenContract.sol\":1367:1379  name = _name */\n  swap1\n  dup2\n  tag_6\n  swap2\n  swap1\n  tag_7\n  jump\t// in\ntag_6:\n  pop\n    /* \"lession7.2-Error/TokenContract.sol\":1399:1406  _symbol */\n  dup3\n    /* \"lession7.2-Error/TokenContract.sol\":1390:1396  symbol */\n  0x01\n    /* \"lession7.2-Error/TokenContract.sol\":1390:1406  symbol = _symbol */\n  swap1\n  dup2\n  tag_8\n  swap2\n  swap1\n  tag_7\n  jump\t// in\ntag_8:\n  pop\n    /* \"lession7.2-Error/TokenContract.sol\":1428:1437  _decimals */\n  dup2\n    /* \"lession7.2-Error/TokenContract.sol\":1417:1425  decimals */\n  0x02\n  0x00\n    /* \"lession7.2-Error/TokenContract.sol\":1417:1437  decimals = _decimals */\n  0x0100\n  exp\n  dup2\n  sload\n  dup2\n  0xff\n  mul\n  not\n  and\n  swap1\n  dup4\n  0xff\n  and\n  mul\n  or\n  swap1\n  sstore\n  pop\n    /* \"lession7.2-Error/TokenContract.sol\":1481:1490  _decimals */\n  dup2\n    /* \"lession7.2-Error/TokenContract.sol\":1477:1479  10 */\n  0x0a\n    /* \"lession7.2-Error/TokenContract.sol\":1477:1490  10**_decimals */\n  tag_9\n  swap2\n  swap1\n  tag_10\n  jump\t// in\ntag_9:\n    /* \"lession7.2-Error/TokenContract.sol\":1462:1474  _totalSupply */\n  dup2\n    /* \"lession7.2-Error/TokenContract.sol\":1462:1490  _totalSupply * 10**_decimals */\n  tag_11\n  swap2\n  swap1\n  tag_12\n  jump\t// in\ntag_11:\n    /* \"lession7.2-Error/TokenContract.sol\":1448:1459  totalSupply */\n  0x03\n    /* \"lession7.2-Error/TokenContract.sol\":1448:1490  totalSupply = _totalSupply * 10**_decimals */\n  dup2\n  swap1\n  sstore\n  pop\n    /* \"lession7.2-Error/TokenContract.sol\":1527:1538  totalSupply */\n  sload(0x03)\n    /* \"lession7.2-Error/TokenContract.sol\":1503:1512  balanceOf */\n  0x04\n    /* \"lession7.2-Error/TokenContract.sol\":1503:1524  balanceOf[msg.sender] */\n  0x00\n    /* \"lession7.2-Error/TokenContract.sol\":1513:1523  msg.sender */\n  caller\n    /* \"lession7.2-Error/TokenContract.sol\":1503:1524  balanceOf[msg.sender] */\n  0xffffffffffffffffffffffffffffffffffffffff\n  and\n  0xffffffffffffffffffffffffffffffffffffffff\n  and\n  dup2\n  mstore\n  0x20\n  add\n  swap1\n  dup2\n  mstore\n  0x20\n  add\n  0x00\n  keccak256\n    /* \"lession7.2-Error/TokenContract.sol\":1503:1538  balanceOf[msg.sender] = totalSupply */\n  dup2\n  swap1\n  sstore\n  pop\n    /* \"lession7.2-Error/TokenContract.sol\":1575:1585  msg.sender */\n  caller\n    /* \"lession7.2-Error/TokenContract.sol\":1554:1599  Transfer(address(0), msg.sender, totalSupply) */\n  0xffffffffffffffffffffffffffffffffffffffff\n  and\n    /* \"lession7.2-Error/TokenContract.sol\":1571:1572  0 */\n  0x00\n    /* \"lession7.2-Error/TokenContract.sol\":1554:1599  Transfer(address(0), msg.sender, totalSupply) */\n  0xffffffffffffffffffffffffffffffffffffffff\n  and\n  0xddf252ad1be2c89b69c2b068fc378daa952ba7f163c4a11628f55a4df523b3ef\n    /* \"lession7.2-Error/TokenContract.sol\":1587:1598  totalSupply */\n  sload(0x03)\n    /* \"lession7.2-Error/TokenContract.sol\":1554:1599  Transfer(address(0), msg.sender, totalSupply) */\n  mload(0x40)\n  tag_13\n  swap2\n  swap1\n  tag_14\n  jump\t// in\ntag_13:\n  mload(0x40)\n  dup1\n  swap2\n  sub\n  swap1\n  log3\n    /* \"lession7.2-Error/TokenContract.sol\":1198:1607  constructor(... */\n  pop\n  pop\n  pop\n  pop\n    /* \"lession7.2-Error/TokenContract.sol\":76:3974  contract TokenContract {... */\n  jump(tag_15)\n    /* \"#utility.yul\":7:82   */\ntag_16:\n    /* \"#utility.yul\":40:46   */\n  0x00\n    /* \"#utility.yul\":73:75   */\n  0x40\n    /* \"#utility.yul\":67:76   */\n  mload\n    /* \"#utility.yul\":57:76   */\n  swap1\n  pop\n    /* \"#utility.yul\":7:82   */\n  swap1\n  jump\t// out\n    /* \"#utility.yul\":88:205   */\ntag_17:\n    /* \"#utility.yul\":197:198   */\n  0x00\n    /* \"#utility.yul\":194:195   */\n  0x00\n    /* \"#utility.yul\":187:199   */\n  revert\n    /* \"#utility.yul\":211:328   */\ntag_18:\n    /* \"#utility.yul\":320:321   */\n  0x00\n    /* \"#utility.yul\":317:318   */\n  0x00\n    /* \"#utility.yul\":310:322   */\n  revert\n    /* \"#utility.yul\":334:451   */\ntag_19:\n    /* \"#utility.yul\":443:444   */\n  0x00\n    /* \"#utility.yul\":440:441   */\n  0x00\n    /* \"#utility.yul\":433:445   */\n  revert\n    /* \"#utility.yul\":457:574   */\ntag_20:\n    /* \"#utility.yul\":566:567   */\n  0x00\n    /* \"#utility.yul\":563:564   */\n  0x00\n    /* \"#utility.yul\":556:568   */\n  revert\n    /* \"#utility.yul\":580:682   */\ntag_21:\n    /* \"#utility.yul\":621:627   */\n  0x00\n    /* \"#utility.yul\":672:674   */\n  0x1f\n    /* \"#utility.yul\":668:675   */\n  not\n    /* \"#utility.yul\":663:665   */\n  0x1f\n    /* \"#utility.yul\":656:661   */\n  dup4\n    /* \"#utility.yul\":652:666   */\n  add\n    /* \"#utility.yul\":648:676   */\n  and\n    /* \"#utility.yul\":638:676   */\n  swap1\n  pop\n    /* \"#utility.yul\":580:682   */\n  swap2\n  swap1\n  pop\n  jump\t// out\n    /* \"#utility.yul\":688:868   */\ntag_22:\n    /* \"#utility.yul\":736:813   */\n  0x4e487b7100000000000000000000000000000000000000000000000000000000\n    /* \"#utility.yul\":733:734   */\n  0x00\n    /* \"#utility.yul\":726:814   */\n  mstore\n    /* \"#utility.yul\":833:837   */\n  0x41\n    /* \"#utility.yul\":830:831   */\n  0x04\n    /* \"#utility.yul\":823:838   */\n  mstore\n    /* \"#utility.yul\":857:861   */\n  0x24\n    /* \"#utility.yul\":854:855   */\n  0x00\n    /* \"#utility.yul\":847:862   */\n  revert\n    /* \"#utility.yul\":874:1155   */\ntag_23:\n    /* \"#utility.yul\":957:984   */\n  tag_67\n    /* \"#utility.yul\":979:983   */\n  dup3\n    /* \"#utility.yul\":957:984   */\n  tag_21\n  jump\t// in\ntag_67:\n    /* \"#utility.yul\":949:955   */\n  dup2\n    /* \"#utility.yul\":945:985   */\n  add\n    /* \"#utility.yul\":1087:1093   */\n  dup2\n    /* \"#utility.yul\":1075:1085   */\n  dup2\n    /* \"#utility.yul\":1072:1094   */\n  lt\n    /* \"#utility.yul\":1051:1069   */\n  0xffffffffffffffff\n    /* \"#utility.yul\":1039:1049   */\n  dup3\n    /* \"#utility.yul\":1036:1070   */\n  gt\n    /* \"#utility.yul\":1033:1095   */\n  or\n    /* \"#utility.yul\":1030:1118   */\n  iszero\n  tag_68\n  jumpi\n    /* \"#utility.yul\":1098:1116   */\n  tag_69\n  tag_22\n  jump\t// in\ntag_69:\n    /* \"#utility.yul\":1030:1118   */\ntag_68:\n    /* \"#utility.yul\":1138:1148   */\n  dup1\n    /* \"#utility.yul\":1134:1136   */\n  0x40\n    /* \"#utility.yul\":1127:1149   */\n  mstore\n    /* \"#utility.yul\":917:1155   */\n  pop\n    /* \"#utility.yul\":874:1155   */\n  pop\n  pop\n  jump\t// out\n    /* \"#utility.yul\":1161:1290   */\ntag_24:\n    /* \"#utility.yul\":1195:1201   */\n  0x00\n    /* \"#utility.yul\":1222:1242   */\n  tag_71\n  tag_16\n  jump\t// in\ntag_71:\n    /* \"#utility.yul\":1212:1242   */\n  swap1\n  pop\n    /* \"#utility.yul\":1251:1284   */\n  tag_72\n    /* \"#utility.yul\":1279:1283   */\n  dup3\n    /* \"#utility.yul\":1271:1277   */\n  dup3\n    /* \"#utility.yul\":1251:1284   */\n  tag_23\n  jump\t// in\ntag_72:\n    /* \"#utility.yul\":1161:1290   */\n  swap2\n  swap1\n  pop\n  jump\t// out\n    /* \"#utility.yul\":1296:1604   */\ntag_25:\n    /* \"#utility.yul\":1358:1362   */\n  0x00\n    /* \"#utility.yul\":1448:1466   */\n  0xffffffffffffffff\n    /* \"#utility.yul\":1440:1446   */\n  dup3\n    /* \"#utility.yul\":1437:1467   */\n  gt\n    /* \"#utility.yul\":1434:1490   */\n  iszero\n  tag_74\n  jumpi\n    /* \"#utility.yul\":1470:1488   */\n  tag_75\n  tag_22\n  jump\t// in\ntag_75:\n    /* \"#utility.yul\":1434:1490   */\ntag_74:\n    /* \"#utility.yul\":1508:1537   */\n  tag_76\n    /* \"#utility.yul\":1530:1536   */\n  dup3\n    /* \"#utility.yul\":1508:1537   */\n  tag_21\n  jump\t// in\ntag_76:\n    /* \"#utility.yul\":1500:1537   */\n  swap1\n  pop\n    /* \"#utility.yul\":1592:1596   */\n  0x20\n    /* \"#utility.yul\":1586:1590   */\n  dup2\n    /* \"#utility.yul\":1582:1597   */\n  add\n    /* \"#utility.yul\":1574:1597   */\n  swap1\n  pop\n    /* \"#utility.yul\":1296:1604   */\n  swap2\n  swap1\n  pop\n  jump\t// out\n    /* \"#utility.yul\":1610:1749   */\ntag_26:\n    /* \"#utility.yul\":1699:1705   */\n  dup3\n    /* \"#utility.yul\":1694:1697   */\n  dup2\n    /* \"#utility.yul\":1689:1692   */\n  dup4\n    /* \"#utility.yul\":1683:1706   */\n  mcopy\n    /* \"#utility.yul\":1740:1741   */\n  0x00\n    /* \"#utility.yul\":1731:1737   */\n  dup4\n    /* \"#utility.yul\":1726:1729   */\n  dup4\n    /* \"#utility.yul\":1722:1738   */\n  add\n    /* \"#utility.yul\":1715:1742   */\n  mstore\n    /* \"#utility.yul\":1610:1749   */\n  pop\n  pop\n  pop\n  jump\t// out\n    /* \"#utility.yul\":1755:2189   */\ntag_27:\n    /* \"#utility.yul\":1844:1849   */\n  0x00\n    /* \"#utility.yul\":1869:1935   */\n  tag_79\n    /* \"#utility.yul\":1885:1934   */\n  tag_80\n    /* \"#utility.yul\":1927:1933   */\n  dup5\n    /* \"#utility.yul\":1885:1934   */\n  tag_25\n  jump\t// in\ntag_80:\n    /* \"#utility.yul\":1869:1935   */\n  tag_24\n  jump\t// in\ntag_79:\n    /* \"#utility.yul\":1860:1935   */\n  swap1\n  pop\n    /* \"#utility.yul\":1958:1964   */\n  dup3\n    /* \"#utility.yul\":1951:1956   */\n  dup2\n    /* \"#utility.yul\":1944:1965   */\n  mstore\n    /* \"#utility.yul\":1996:2000   */\n  0x20\n    /* \"#utility.yul\":1989:1994   */\n  dup2\n    /* \"#utility.yul\":1985:2001   */\n  add\n    /* \"#utility.yul\":2034:2037   */\n  dup5\n    /* \"#utility.yul\":2025:2031   */\n  dup5\n    /* \"#utility.yul\":2020:2023   */\n  dup5\n    /* \"#utility.yul\":2016:2032   */\n  add\n    /* \"#utility.yul\":2013:2038   */\n  gt\n    /* \"#utility.yul\":2010:2122   */\n  iszero\n  tag_81\n  jumpi\n    /* \"#utility.yul\":2041:2120   */\n  tag_82\n  tag_20\n  jump\t// in\ntag_82:\n    /* \"#utility.yul\":2010:2122   */\ntag_81:\n    /* \"#utility.yul\":2131:2183   */\n  tag_83\n    /* \"#utility.yul\":2176:2182   */\n  dup5\n    /* \"#utility.yul\":2171:2174   */\n  dup3\n    /* \"#utility.yul\":2166:2169   */\n  dup6\n    /* \"#utility.yul\":2131:2183   */\n  tag_26\n  jump\t// in\ntag_83:\n    /* \"#utility.yul\":1850:2189   */\n  pop\n    /* \"#utility.yul\":1755:2189   */\n  swap4\n  swap3\n  pop\n  pop\n  pop\n  jump\t// out\n    /* \"#utility.yul\":2209:2564   */\ntag_28:\n    /* \"#utility.yul\":2276:2281   */\n  0x00\n    /* \"#utility.yul\":2325:2328   */\n  dup3\n    /* \"#utility.yul\":2318:2322   */\n  0x1f\n    /* \"#utility.yul\":2310:2316   */\n  dup4\n    /* \"#utility.yul\":2306:2323   */\n  add\n    /* \"#utility.yul\":2302:2329   */\n  slt\n    /* \"#utility.yul\":2292:2414   */\n  tag_85\n  jumpi\n    /* \"#utility.yul\":2333:2412   */\n  tag_86\n  tag_19\n  jump\t// in\ntag_86:\n    /* \"#utility.yul\":2292:2414   */\ntag_85:\n    /* \"#utility.yul\":2443:2449   */\n  dup2\n    /* \"#utility.yul\":2437:2450   */\n  mload\n    /* \"#utility.yul\":2468:2558   */\n  tag_87\n    /* \"#utility.yul\":2554:2557   */\n  dup5\n    /* \"#utility.yul\":2546:2552   */\n  dup3\n    /* \"#utility.yul\":2539:2543   */\n  0x20\n    /* \"#utility.yul\":2531:2537   */\n  dup7\n    /* \"#utility.yul\":2527:2544   */\n  add\n    /* \"#utility.yul\":2468:2558   */\n  tag_27\n  jump\t// in\ntag_87:\n    /* \"#utility.yul\":2459:2558   */\n  swap2\n  pop\n    /* \"#utility.yul\":2282:2564   */\n  pop\n    /* \"#utility.yul\":2209:2564   */\n  swap3\n  swap2\n  pop\n  pop\n  jump\t// out\n    /* \"#utility.yul\":2570:2656   */\ntag_29:\n    /* \"#utility.yul\":2605:2612   */\n  0x00\n    /* \"#utility.yul\":2645:2649   */\n  0xff\n    /* \"#utility.yul\":2638:2643   */\n  dup3\n    /* \"#utility.yul\":2634:2650   */\n  and\n    /* \"#utility.yul\":2623:2650   */\n  swap1\n  pop\n    /* \"#utility.yul\":2570:2656   */\n  swap2\n  swap1\n  pop\n  jump\t// out\n    /* \"#utility.yul\":2662:2780   */\ntag_30:\n    /* \"#utility.yul\":2733:2755   */\n  tag_90\n    /* \"#utility.yul\":2749:2754   */\n  dup2\n    /* \"#utility.yul\":2733:2755   */\n  tag_29\n  jump\t// in\ntag_90:\n    /* \"#utility.yul\":2726:2731   */\n  dup2\n    /* \"#utility.yul\":2723:2756   */\n  eq\n    /* \"#utility.yul\":2713:2774   */\n  tag_91\n  jumpi\n    /* \"#utility.yul\":2770:2771   */\n  0x00\n    /* \"#utility.yul\":2767:2768   */\n  0x00\n    /* \"#utility.yul\":2760:2772   */\n  revert\n    /* \"#utility.yul\":2713:2774   */\ntag_91:\n    /* \"#utility.yul\":2662:2780   */\n  pop\n  jump\t// out\n    /* \"#utility.yul\":2786:2925   */\ntag_31:\n    /* \"#utility.yul\":2841:2846   */\n  0x00\n    /* \"#utility.yul\":2872:2878   */\n  dup2\n    /* \"#utility.yul\":2866:2879   */\n  mload\n    /* \"#utility.yul\":2857:2879   */\n  swap1\n  pop\n    /* \"#utility.yul\":2888:2919   */\n  tag_93\n    /* \"#utility.yul\":2913:2918   */\n  dup2\n    /* \"#utility.yul\":2888:2919   */\n  tag_30\n  jump\t// in\ntag_93:\n    /* \"#utility.yul\":2786:2925   */\n  swap3\n  swap2\n  pop\n  pop\n  jump\t// out\n    /* \"#utility.yul\":2931:3008   */\ntag_32:\n    /* \"#utility.yul\":2968:2975   */\n  0x00\n    /* \"#utility.yul\":2997:3002   */\n  dup2\n    /* \"#utility.yul\":2986:3002   */\n  swap1\n  pop\n    /* \"#utility.yul\":2931:3008   */\n  swap2\n  swap1\n  pop\n  jump\t// out\n    /* \"#utility.yul\":3014:3136   */\ntag_33:\n    /* \"#utility.yul\":3087:3111   */\n  tag_96\n    /* \"#utility.yul\":3105:3110   */\n  dup2\n    /* \"#utility.yul\":3087:3111   */\n  tag_32\n  jump\t// in\ntag_96:\n    /* \"#utility.yul\":3080:3085   */\n  dup2\n    /* \"#utility.yul\":3077:3112   */\n  eq\n    /* \"#utility.yul\":3067:3130   */\n  tag_97\n  jumpi\n    /* \"#utility.yul\":3126:3127   */\n  0x00\n    /* \"#utility.yul\":3123:3124   */\n  0x00\n    /* \"#utility.yul\":3116:3128   */\n  revert\n    /* \"#utility.yul\":3067:3130   */\ntag_97:\n    /* \"#utility.yul\":3014:3136   */\n  pop\n  jump\t// out\n    /* \"#utility.yul\":3142:3285   */\ntag_34:\n    /* \"#utility.yul\":3199:3204   */\n  0x00\n    /* \"#utility.yul\":3230:3236   */\n  dup2\n    /* \"#utility.yul\":3224:3237   */\n  mload\n    /* \"#utility.yul\":3215:3237   */\n  swap1\n  pop\n    /* \"#utility.yul\":3246:3279   */\n  tag_99\n    /* \"#utility.yul\":3273:3278   */\n  dup2\n    /* \"#utility.yul\":3246:3279   */\n  tag_33\n  jump\t// in\ntag_99:\n    /* \"#utility.yul\":3142:3285   */\n  swap3\n  swap2\n  pop\n  pop\n  jump\t// out\n    /* \"#utility.yul\":3291:4453   */\ntag_3:\n    /* \"#utility.yul\":3406:3412   */\n  0x00\n    /* \"#utility.yul\":3414:3420   */\n  0x00\n    /* \"#utility.yul\":3422:3428   */\n  0x00\n    /* \"#utility.yul\":3430:3436   */\n  0x00\n    /* \"#utility.yul\":3479:3482   */\n  0x80\n    /* \"#utility.yul\":3467:3476   */\n  dup6\n    /* \"#utility.yul\":3458:3465   */\n  dup8\n    /* \"#utility.yul\":3454:3477   */\n  sub\n    /* \"#utility.yul\":3450:3483   */\n  slt\n    /* \"#utility.yul\":3447:3567   */\n  iszero\n  tag_101\n  jumpi\n    /* \"#utility.yul\":3486:3565   */\n  tag_102\n  tag_17\n  jump\t// in\ntag_102:\n    /* \"#utility.yul\":3447:3567   */\ntag_101:\n    /* \"#utility.yul\":3627:3628   */\n  0x00\n    /* \"#utility.yul\":3616:3625   */\n  dup6\n    /* \"#utility.yul\":3612:3629   */\n  add\n    /* \"#utility.yul\":3606:3630   */\n  mload\n    /* \"#utility.yul\":3657:3675   */\n  0xffffffffffffffff\n    /* \"#utility.yul\":3649:3655   */\n  dup2\n    /* \"#utility.yul\":3646:3676   */\n  gt\n    /* \"#utility.yul\":3643:3760   */\n  iszero\n  tag_103\n  jumpi\n    /* \"#utility.yul\":3679:3758   */\n  tag_104\n  tag_18\n  jump\t// in\ntag_104:\n    /* \"#utility.yul\":3643:3760   */\ntag_103:\n    /* \"#utility.yul\":3784:3858   */\n  tag_105\n    /* \"#utility.yul\":3850:3857   */\n  dup8\n    /* \"#utility.yul\":3841:3847   */\n  dup3\n    /* \"#utility.yul\":3830:3839   */\n  dup9\n    /* \"#utility.yul\":3826:3848   */\n  add\n    /* \"#utility.yul\":3784:3858   */\n  tag_28\n  jump\t// in\ntag_105:\n    /* \"#utility.yul\":3774:3858   */\n  swap5\n  pop\n    /* \"#utility.yul\":3577:3868   */\n  pop\n    /* \"#utility.yul\":3928:3930   */\n  0x20\n    /* \"#utility.yul\":3917:3926   */\n  dup6\n    /* \"#utility.yul\":3913:3931   */\n  add\n    /* \"#utility.yul\":3907:3932   */\n  mload\n    /* \"#utility.yul\":3959:3977   */\n  0xffffffffffffffff\n    /* \"#utility.yul\":3951:3957   */\n  dup2\n    /* \"#utility.yul\":3948:3978   */\n  gt\n    /* \"#utility.yul\":3945:4062   */\n  iszero\n  tag_106\n  jumpi\n    /* \"#utility.yul\":3981:4060   */\n  tag_107\n  tag_18\n  jump\t// in\ntag_107:\n    /* \"#utility.yul\":3945:4062   */\ntag_106:\n    /* \"#utility.yul\":4086:4160   */\n  tag_108\n    /* \"#utility.yul\":4152:4159   */\n  dup8\n    /* \"#utility.yul\":4143:4149   */\n  dup3\n    /* \"#utility.yul\":4132:4141   */\n  dup9\n    /* \"#utility.yul\":4128:4150   */\n  add\n    /* \"#utility.yul\":4086:4160   */\n  tag_28\n  jump\t// in\ntag_108:\n    /* \"#utility.yul\":4076:4160   */\n  swap4\n  pop\n    /* \"#utility.yul\":3878:4170   */\n  pop\n    /* \"#utility.yul\":4209:4211   */\n  0x40\n    /* \"#utility.yul\":4235:4297   */\n  tag_109\n    /* \"#utility.yul\":4289:4296   */\n  dup8\n    /* \"#utility.yul\":4280:4286   */\n  dup3\n    /* \"#utility.yul\":4269:4278   */\n  dup9\n    /* \"#utility.yul\":4265:4287   */\n  add\n    /* \"#utility.yul\":4235:4297   */\n  tag_31\n  jump\t// in\ntag_109:\n    /* \"#utility.yul\":4225:4297   */\n  swap3\n  pop\n    /* \"#utility.yul\":4180:4307   */\n  pop\n    /* \"#utility.yul\":4346:4348   */\n  0x60\n    /* \"#utility.yul\":4372:4436   */\n  tag_110\n    /* \"#utility.yul\":4428:4435   */\n  dup8\n    /* \"#utility.yul\":4419:4425   */\n  dup3\n    /* \"#utility.yul\":4408:4417   */\n  dup9\n    /* \"#utility.yul\":4404:4426   */\n  add\n    /* \"#utility.yul\":4372:4436   */\n  tag_34\n  jump\t// in\ntag_110:\n    /* \"#utility.yul\":4362:4436   */\n  swap2\n  pop\n    /* \"#utility.yul\":4317:4446   */\n  pop\n    /* \"#utility.yul\":3291:4453   */\n  swap3\n  swap6\n  swap2\n  swap5\n  pop\n  swap3\n  pop\n  jump\t// out\n    /* \"#utility.yul\":4459:4558   */\ntag_35:\n    /* \"#utility.yul\":4511:4517   */\n  0x00\n    /* \"#utility.yul\":4545:4550   */\n  dup2\n    /* \"#utility.yul\":4539:4551   */\n  mload\n    /* \"#utility.yul\":4529:4551   */\n  swap1\n  pop\n    /* \"#utility.yul\":4459:4558   */\n  swap2\n  swap1\n  pop\n  jump\t// out\n    /* \"#utility.yul\":4564:4744   */\ntag_36:\n    /* \"#utility.yul\":4612:4689   */\n  0x4e487b7100000000000000000000000000000000000000000000000000000000\n    /* \"#utility.yul\":4609:4610   */\n  0x00\n    /* \"#utility.yul\":4602:4690   */\n  mstore\n    /* \"#utility.yul\":4709:4713   */\n  0x22\n    /* \"#utility.yul\":4706:4707   */\n  0x04\n    /* \"#utility.yul\":4699:4714   */\n  mstore\n    /* \"#utility.yul\":4733:4737   */\n  0x24\n    /* \"#utility.yul\":4730:4731   */\n  0x00\n    /* \"#utility.yul\":4723:4738   */\n  revert\n    /* \"#utility.yul\":4750:5070   */\ntag_37:\n    /* \"#utility.yul\":4794:4800   */\n  0x00\n    /* \"#utility.yul\":4831:4832   */\n  0x02\n    /* \"#utility.yul\":4825:4829   */\n  dup3\n    /* \"#utility.yul\":4821:4833   */\n  div\n    /* \"#utility.yul\":4811:4833   */\n  swap1\n  pop\n    /* \"#utility.yul\":4878:4879   */\n  0x01\n    /* \"#utility.yul\":4872:4876   */\n  dup3\n    /* \"#utility.yul\":4868:4880   */\n  and\n    /* \"#utility.yul\":4899:4917   */\n  dup1\n    /* \"#utility.yul\":4889:4970   */\n  tag_114\n  jumpi\n    /* \"#utility.yul\":4955:4959   */\n  0x7f\n    /* \"#utility.yul\":4947:4953   */\n  dup3\n    /* \"#utility.yul\":4943:4960   */\n  and\n    /* \"#utility.yul\":4933:4960   */\n  swap2\n  pop\n    /* \"#utility.yul\":4889:4970   */\ntag_114:\n    /* \"#utility.yul\":5017:5019   */\n  0x20\n    /* \"#utility.yul\":5009:5015   */\n  dup3\n    /* \"#utility.yul\":5006:5020   */\n  lt\n    /* \"#utility.yul\":4986:5004   */\n  dup2\n    /* \"#utility.yul\":4983:5021   */\n  sub\n    /* \"#utility.yul\":4980:5064   */\n  tag_115\n  jumpi\n    /* \"#utility.yul\":5036:5054   */\n  tag_116\n  tag_36\n  jump\t// in\ntag_116:\n    /* \"#utility.yul\":4980:5064   */\ntag_115:\n    /* \"#utility.yul\":4801:5070   */\n  pop\n    /* \"#utility.yul\":4750:5070   */\n  swap2\n  swap1\n  pop\n  jump\t// out\n    /* \"#utility.yul\":5076:5217   */\ntag_38:\n    /* \"#utility.yul\":5125:5129   */\n  0x00\n    /* \"#utility.yul\":5148:5151   */\n  dup2\n    /* \"#utility.yul\":5140:5151   */\n  swap1\n  pop\n    /* \"#utility.yul\":5171:5174   */\n  dup2\n    /* \"#utility.yul\":5168:5169   */\n  0x00\n    /* \"#utility.yul\":5161:5175   */\n  mstore\n    /* \"#utility.yul\":5205:5209   */\n  0x20\n    /* \"#utility.yul\":5202:5203   */\n  0x00\n    /* \"#utility.yul\":5192:5210   */\n  keccak256\n    /* \"#utility.yul\":5184:5210   */\n  swap1\n  pop\n    /* \"#utility.yul\":5076:5217   */\n  swap2\n  swap1\n  pop\n  jump\t// out\n    /* \"#utility.yul\":5223:5316   */\ntag_39:\n    /* \"#utility.yul\":5260:5266   */\n  0x00\n    /* \"#utility.yul\":5307:5309   */\n  0x20\n    /* \"#utility.yul\":5302:5304   */\n  0x1f\n    /* \"#utility.yul\":5295:5300   */\n  dup4\n    /* \"#utility.yul\":5291:5305   */\n  add\n    /* \"#utility.yul\":5287:5310   */\n  div\n    /* \"#utility.yul\":5277:5310   */\n  swap1\n  pop\n    /* \"#utility.yul\":5223:5316   */\n  swap2\n  swap1\n  pop\n  jump\t// out\n    /* \"#utility.yul\":5322:5429   */\ntag_40:\n    /* \"#utility.yul\":5366:5374   */\n  0x00\n    /* \"#utility.yul\":5416:5421   */\n  dup3\n    /* \"#utility.yul\":5410:5414   */\n  dup3\n    /* \"#utility.yul\":5406:5422   */\n  shl\n    /* \"#utility.yul\":5385:5422   */\n  swap1\n  pop\n    /* \"#utility.yul\":5322:5429   */\n  swap3\n  swap2\n  pop\n  pop\n  jump\t// out\n    /* \"#utility.yul\":5435:5828   */\ntag_41:\n    /* \"#utility.yul\":5504:5510   */\n  0x00\n    /* \"#utility.yul\":5554:5555   */\n  0x08\n    /* \"#utility.yul\":5542:5552   */\n  dup4\n    /* \"#utility.yul\":5538:5556   */\n  mul\n    /* \"#utility.yul\":5577:5674   */\n  tag_121\n    /* \"#utility.yul\":5607:5673   */\n  0xffffffffffffffffffffffffffffffffffffffffffffffffffffffffffffffff\n    /* \"#utility.yul\":5596:5605   */\n  dup3\n    /* \"#utility.yul\":5577:5674   */\n  tag_40\n  jump\t// in\ntag_121:\n    /* \"#utility.yul\":5695:5734   */\n  tag_122\n    /* \"#utility.yul\":5725:5733   */\n  dup7\n    /* \"#utility.yul\":5714:5723   */\n  dup4\n    /* \"#utility.yul\":5695:5734   */\n  tag_40\n  jump\t// in\ntag_122:\n    /* \"#utility.yul\":5683:5734   */\n  swap6\n  pop\n    /* \"#utility.yul\":5767:5771   */\n  dup1\n    /* \"#utility.yul\":5763:5772   */\n  not\n    /* \"#utility.yul\":5756:5761   */\n  dup5\n    /* \"#utility.yul\":5752:5773   */\n  and\n    /* \"#utility.yul\":5743:5773   */\n  swap4\n  pop\n    /* \"#utility.yul\":5816:5820   */\n  dup1\n    /* \"#utility.yul\":5806:5814   */\n  dup7\n    /* \"#utility.yul\":5802:5821   */\n  and\n    /* \"#utility.yul\":5795:5800   */\n  dup5\n    /* \"#utility.yul\":5792:5822   */\n  or\n    /* \"#utility.yul\":5782:5822   */\n  swap3\n  pop\n    /* \"#utility.yul\":5511:5828   */\n  pop\n  pop\n    /* \"#utility.yul\":5435:5828   */\n  swap4\n  swap3\n  pop\n  pop\n  pop\n  jump\t// out\n    /* \"#utility.yul\":5834:5894   */\ntag_42:\n    /* \"#utility.yul\":5862:5865   */\n  0x00\n    /* \"#utility.yul\":5883:5888   */\n  dup2\n    /* \"#utility.yul\":5876:5888   */\n  swap1\n  pop\n    /* \"#utility.yul\":5834:5894   */\n  swap2\n  swap1\n  pop\n  jump\t// out\n    /* \"#utility.yul\":5900:6042   */\ntag_43:\n    /* \"#utility.yul\":5950:5959   */\n  0x00\n    /* \"#utility.yul\":5983:6036   */\n  tag_125\n    /* \"#utility.yul\":6001:6035   */\n  tag_126\n    /* \"#utility.yul\":6010:6034   */\n  tag_127\n    /* \"#utility.yul\":6028:6033   */\n  dup5\n    /* \"#utility.yul\":6010:6034   */\n  tag_32\n  jump\t// in\ntag_127:\n    /* \"#utility.yul\":6001:6035   */\n  tag_42\n  jump\t// in\ntag_126:\n    /* \"#utility.yul\":5983:6036   */\n  tag_32\n  jump\t// in\ntag_125:\n    /* \"#utility.yul\":5970:6036   */\n  swap1\n  pop\n    /* \"#utility.yul\":5900:6042   */\n  swap2\n  swap1\n  pop\n  jump\t// out\n    /* \"#utility.yul\":6048:6123   */\ntag_44:\n    /* \"#utility.yul\":6091:6094   */\n  0x00\n    /* \"#utility.yul\":6112:6117   */\n  dup2\n    /* \"#utility.yul\":6105:6117   */\n  swap1\n  pop\n    /* \"#utility.yul\":6048:6123   */\n  swap2\n  swap1\n  pop\n  jump\t// out\n    /* \"#utility.yul\":6129:6398   */\ntag_45:\n    /* \"#utility.yul\":6239:6278   */\n  tag_130\n    /* \"#utility.yul\":6270:6277   */\n  dup4\n    /* \"#utility.yul\":6239:6278   */\n  tag_43\n  jump\t// in\ntag_130:\n    /* \"#utility.yul\":6300:6391   */\n  tag_131\n    /* \"#utility.yul\":6349:6390   */\n  tag_132\n    /* \"#utility.yul\":6373:6389   */\n  dup3\n    /* \"#utility.yul\":6349:6390   */\n  tag_44\n  jump\t// in\ntag_132:\n    /* \"#utility.yul\":6341:6347   */\n  dup5\n    /* \"#utility.yul\":6334:6338   */\n  dup5\n    /* \"#utility.yul\":6328:6339   */\n  sload\n    /* \"#utility.yul\":6300:6391   */\n  tag_41\n  jump\t// in\ntag_131:\n    /* \"#utility.yul\":6294:6298   */\n  dup3\n    /* \"#utility.yul\":6287:6392   */\n  sstore\n    /* \"#utility.yul\":6205:6398   */\n  pop\n    /* \"#utility.yul\":6129:6398   */\n  pop\n  pop\n  pop\n  jump\t// out\n    /* \"#utility.yul\":6404:6477   */\ntag_46:\n    /* \"#utility.yul\":6449:6452   */\n  0x00\n    /* \"#utility.yul\":6470:6471   */\n  0x00\n    /* \"#utility.yul\":6463:6471   */\n  swap1\n  pop\n    /* \"#utility.yul\":6404:6477   */\n  swap1\n  jump\t// out\n    /* \"#utility.yul\":6483:6672   */\ntag_47:\n    /* \"#utility.yul\":6560:6592   */\n  tag_135\n  tag_46\n  jump\t// in\ntag_135:\n    /* \"#utility.yul\":6601:6666   */\n  tag_136\n    /* \"#utility.yul\":6659:6665   */\n  dup2\n    /* \"#utility.yul\":6651:6657   */\n  dup5\n    /* \"#utility.yul\":6645:6649   */\n  dup5\n    /* \"#utility.yul\":6601:6666   */\n  tag_45\n  jump\t// in\ntag_136:\n    /* \"#utility.yul\":6536:6672   */\n  pop\n    /* \"#utility.yul\":6483:6672   */\n  pop\n  pop\n  jump\t// out\n    /* \"#utility.yul\":6678:6892   */\ntag_48:\n    /* \"#utility.yul\":6763:6764   */\n  0x00\n    /* \"#utility.yul\":6748:6886   */\ntag_138:\n    /* \"#utility.yul\":6773:6782   */\n  dup3\n    /* \"#utility.yul\":6770:6771   */\n  dup2\n    /* \"#utility.yul\":6767:6783   */\n  lt\n    /* \"#utility.yul\":6748:6886   */\n  iszero\n  tag_140\n  jumpi\n    /* \"#utility.yul\":6825:6876   */\n  tag_141\n    /* \"#utility.yul\":6874:6875   */\n  0x00\n    /* \"#utility.yul\":6870:6871   */\n  dup3\n    /* \"#utility.yul\":6859:6868   */\n  dup5\n    /* \"#utility.yul\":6855:6872   */\n  add\n    /* \"#utility.yul\":6825:6876   */\n  tag_47\n  jump\t// in\ntag_141:\n    /* \"#utility.yul\":6798:6799   */\n  0x01\n    /* \"#utility.yul\":6795:6796   */\n  dup2\n    /* \"#utility.yul\":6791:6800   */\n  add\n    /* \"#utility.yul\":6786:6800   */\n  swap1\n  pop\n    /* \"#utility.yul\":6748:6886   */\n  jump(tag_138)\ntag_140:\n    /* \"#utility.yul\":6752:6766   */\n  pop\n    /* \"#utility.yul\":6678:6892   */\n  pop\n  pop\n  jump\t// out\n    /* \"#utility.yul\":6898:7644   */\ntag_49:\n    /* \"#utility.yul\":6999:7001   */\n  0x1f\n    /* \"#utility.yul\":6994:6997   */\n  dup3\n    /* \"#utility.yul\":6991:7002   */\n  gt\n    /* \"#utility.yul\":6988:7637   */\n  iszero\n  tag_143\n  jumpi\n    /* \"#utility.yul\":7028:7038   */\n  dup3\n    /* \"#utility.yul\":7023:7026   */\n  dup3\n    /* \"#utility.yul\":7020:7039   */\n  gt\n    /* \"#utility.yul\":7017:7627   */\n  iszero\n  tag_144\n  jumpi\n    /* \"#utility.yul\":7074:7112   */\n  tag_145\n    /* \"#utility.yul\":7106:7111   */\n  dup2\n    /* \"#utility.yul\":7074:7112   */\n  tag_38\n  jump\t// in\ntag_145:\n    /* \"#utility.yul\":7149:7171   */\n  tag_146\n    /* \"#utility.yul\":7167:7170   */\n  dup4\n    /* \"#utility.yul\":7149:7171   */\n  tag_39\n  jump\t// in\ntag_146:\n    /* \"#utility.yul\":7208:7237   */\n  tag_147\n    /* \"#utility.yul\":7226:7236   */\n  dup6\n    /* \"#utility.yul\":7208:7237   */\n  tag_39\n  jump\t// in\ntag_147:\n    /* \"#utility.yul\":7398:7400   */\n  0x20\n    /* \"#utility.yul\":7386:7396   */\n  dup7\n    /* \"#utility.yul\":7383:7401   */\n  lt\n    /* \"#utility.yul\":7380:7459   */\n  iszero\n  tag_148\n  jumpi\n    /* \"#utility.yul\":7440:7441   */\n  0x00\n    /* \"#utility.yul\":7424:7441   */\n  swap1\n  pop\n    /* \"#utility.yul\":7380:7459   */\ntag_148:\n    /* \"#utility.yul\":7509:7521   */\n  dup1\n    /* \"#utility.yul\":7499:7507   */\n  dup4\n    /* \"#utility.yul\":7495:7522   */\n  add\n    /* \"#utility.yul\":7539:7613   */\n  tag_149\n    /* \"#utility.yul\":7599:7611   */\n  dup3\n    /* \"#utility.yul\":7585:7597   */\n  dup5\n    /* \"#utility.yul\":7581:7612   */\n  sub\n    /* \"#utility.yul\":7568:7579   */\n  dup3\n    /* \"#utility.yul\":7539:7613   */\n  tag_48\n  jump\t// in\ntag_149:\n    /* \"#utility.yul\":7040:7627   */\n  pop\n  pop\n  pop\n  pop\n    /* \"#utility.yul\":7017:7627   */\ntag_144:\n    /* \"#utility.yul\":6988:7637   */\ntag_143:\n    /* \"#utility.yul\":6898:7644   */\n  pop\n  pop\n  pop\n  jump\t// out\n    /* \"#utility.yul\":7650:7767   */\ntag_50:\n    /* \"#utility.yul\":7704:7712   */\n  0x00\n    /* \"#utility.yul\":7754:7759   */\n  dup3\n    /* \"#utility.yul\":7748:7752   */\n  dup3\n    /* \"#utility.yul\":7744:7760   */\n  shr\n    /* \"#utility.yul\":7723:7760   */\n  swap1\n  pop\n    /* \"#utility.yul\":7650:7767   */\n  swap3\n  swap2\n  pop\n  pop\n  jump\t// out\n    /* \"#utility.yul\":7773:7942   */\ntag_51:\n    /* \"#utility.yul\":7817:7823   */\n  0x00\n    /* \"#utility.yul\":7850:7901   */\n  tag_152\n    /* \"#utility.yul\":7898:7899   */\n  0x00\n    /* \"#utility.yul\":7894:7900   */\n  not\n    /* \"#utility.yul\":7886:7891   */\n  dup5\n    /* \"#utility.yul\":7883:7884   */\n  0x08\n    /* \"#utility.yul\":7879:7892   */\n  mul\n    /* \"#utility.yul\":7850:7901   */\n  tag_50\n  jump\t// in\ntag_152:\n    /* \"#utility.yul\":7846:7902   */\n  not\n    /* \"#utility.yul\":7931:7935   */\n  dup1\n    /* \"#utility.yul\":7925:7929   */\n  dup4\n    /* \"#utility.yul\":7921:7936   */\n  and\n    /* \"#utility.yul\":7911:7936   */\n  swap2\n  pop\n    /* \"#utility.yul\":7824:7942   */\n  pop\n    /* \"#utility.yul\":7773:7942   */\n  swap3\n  swap2\n  pop\n  pop\n  jump\t// out\n    /* \"#utility.yul\":7947:8242   */\ntag_52:\n    /* \"#utility.yul\":8023:8027   */\n  0x00\n    /* \"#utility.yul\":8169:8198   */\n  tag_154\n    /* \"#utility.yul\":8194:8197   */\n  dup4\n    /* \"#utility.yul\":8188:8192   */\n  dup4\n    /* \"#utility.yul\":8169:8198   */\n  tag_51\n  jump\t// in\ntag_154:\n    /* \"#utility.yul\":8161:8198   */\n  swap2\n  pop\n    /* \"#utility.yul\":8231:8234   */\n  dup3\n    /* \"#utility.yul\":8228:8229   */\n  0x02\n    /* \"#utility.yul\":8224:8235   */\n  mul\n    /* \"#utility.yul\":8218:8222   */\n  dup3\n    /* \"#utility.yul\":8215:8236   */\n  or\n    /* \"#utility.yul\":8207:8236   */\n  swap1\n  pop\n    /* \"#utility.yul\":7947:8242   */\n  swap3\n  swap2\n  pop\n  pop\n  jump\t// out\n    /* \"#utility.yul\":8247:9642   */\ntag_7:\n    /* \"#utility.yul\":8364:8401   */\n  tag_156\n    /* \"#utility.yul\":8397:8400   */\n  dup3\n    /* \"#utility.yul\":8364:8401   */\n  tag_35\n  jump\t// in\ntag_156:\n    /* \"#utility.yul\":8466:8484   */\n  0xffffffffffffffff\n    /* \"#utility.yul\":8458:8464   */\n  dup2\n    /* \"#utility.yul\":8455:8485   */\n  gt\n    /* \"#utility.yul\":8452:8508   */\n  iszero\n  tag_157\n  jumpi\n    /* \"#utility.yul\":8488:8506   */\n  tag_158\n  tag_22\n  jump\t// in\ntag_158:\n    /* \"#utility.yul\":8452:8508   */\ntag_157:\n    /* \"#utility.yul\":8532:8570   */\n  tag_159\n    /* \"#utility.yul\":8564:8568   */\n  dup3\n    /* \"#utility.yul\":8558:8569   */\n  sload\n    /* \"#utility.yul\":8532:8570   */\n  tag_37\n  jump\t// in\ntag_159:\n    /* \"#utility.yul\":8617:8684   */\n  tag_160\n    /* \"#utility.yul\":8677:8683   */\n  dup3\n    /* \"#utility.yul\":8669:8675   */\n  dup3\n    /* \"#utility.yul\":8663:8667   */\n  dup6\n    /* \"#utility.yul\":8617:8684   */\n  tag_49\n  jump\t// in\ntag_160:\n    /* \"#utility.yul\":8711:8712   */\n  0x00\n    /* \"#utility.yul\":8735:8739   */\n  0x20\n    /* \"#utility.yul\":8722:8739   */\n  swap1\n  pop\n    /* \"#utility.yul\":8767:8769   */\n  0x1f\n    /* \"#utility.yul\":8759:8765   */\n  dup4\n    /* \"#utility.yul\":8756:8770   */\n  gt\n    /* \"#utility.yul\":8784:8785   */\n  0x01\n    /* \"#utility.yul\":8779:9397   */\n  dup2\n  eq\n  tag_162\n  jumpi\n    /* \"#utility.yul\":9441:9442   */\n  0x00\n    /* \"#utility.yul\":9458:9464   */\n  dup5\n    /* \"#utility.yul\":9455:9532   */\n  iszero\n  tag_163\n  jumpi\n    /* \"#utility.yul\":9507:9516   */\n  dup3\n    /* \"#utility.yul\":9502:9505   */\n  dup8\n    /* \"#utility.yul\":9498:9517   */\n  add\n    /* \"#utility.yul\":9492:9518   */\n  mload\n    /* \"#utility.yul\":9483:9518   */\n  swap1\n  pop\n    /* \"#utility.yul\":9455:9532   */\ntag_163:\n    /* \"#utility.yul\":9558:9625   */\n  tag_164\n    /* \"#utility.yul\":9618:9624   */\n  dup6\n    /* \"#utility.yul\":9611:9616   */\n  dup3\n    /* \"#utility.yul\":9558:9625   */\n  tag_52\n  jump\t// in\ntag_164:\n    /* \"#utility.yul\":9552:9556   */\n  dup7\n    /* \"#utility.yul\":9545:9626   */\n  sstore\n    /* \"#utility.yul\":9414:9636   */\n  pop\n    /* \"#utility.yul\":8749:9636   */\n  jump(tag_161)\n    /* \"#utility.yul\":8779:9397   */\ntag_162:\n    /* \"#utility.yul\":8831:8835   */\n  0x1f\n    /* \"#utility.yul\":8827:8836   */\n  not\n    /* \"#utility.yul\":8819:8825   */\n  dup5\n    /* \"#utility.yul\":8815:8837   */\n  and\n    /* \"#utility.yul\":8865:8902   */\n  tag_165\n    /* \"#utility.yul\":8897:8901   */\n  dup7\n    /* \"#utility.yul\":8865:8902   */\n  tag_38\n  jump\t// in\ntag_165:\n    /* \"#utility.yul\":8924:8925   */\n  0x00\n    /* \"#utility.yul\":8938:9146   */\ntag_166:\n    /* \"#utility.yul\":8952:8959   */\n  dup3\n    /* \"#utility.yul\":8949:8950   */\n  dup2\n    /* \"#utility.yul\":8946:8960   */\n  lt\n    /* \"#utility.yul\":8938:9146   */\n  iszero\n  tag_168\n  jumpi\n    /* \"#utility.yul\":9031:9040   */\n  dup5\n    /* \"#utility.yul\":9026:9029   */\n  dup10\n    /* \"#utility.yul\":9022:9041   */\n  add\n    /* \"#utility.yul\":9016:9042   */\n  mload\n    /* \"#utility.yul\":9008:9014   */\n  dup3\n    /* \"#utility.yul\":9001:9043   */\n  sstore\n    /* \"#utility.yul\":9082:9083   */\n  0x01\n    /* \"#utility.yul\":9074:9080   */\n  dup3\n    /* \"#utility.yul\":9070:9084   */\n  add\n    /* \"#utility.yul\":9060:9084   */\n  swap2\n  pop\n    /* \"#utility.yul\":9129:9131   */\n  0x20\n    /* \"#utility.yul\":9118:9127   */\n  dup6\n    /* \"#utility.yul\":9114:9132   */\n  add\n    /* \"#utility.yul\":9101:9132   */\n  swap5\n  pop\n    /* \"#utility.yul\":8975:8979   */\n  0x20\n    /* \"#utility.yul\":8972:8973   */\n  dup2\n    /* \"#utility.yul\":8968:8980   */\n  add\n    /* \"#utility.yul\":8963:8980   */\n  swap1\n  pop\n    /* \"#utility.yul\":8938:9146   */\n  jump(tag_166)\ntag_168:\n    /* \"#utility.yul\":9174:9180   */\n  dup7\n    /* \"#utility.yul\":9165:9172   */\n  dup4\n    /* \"#utility.yul\":9162:9181   */\n  lt\n    /* \"#utility.yul\":9159:9338   */\n  iszero\n  tag_169\n  jumpi\n    /* \"#utility.yul\":9232:9241   */\n  dup5\n    /* \"#utility.yul\":9227:9230   */\n  dup10\n    /* \"#utility.yul\":9223:9242   */\n  add\n    /* \"#utility.yul\":9217:9243   */\n  mload\n    /* \"#utility.yul\":9275:9323   */\n  tag_170\n    /* \"#utility.yul\":9317:9321   */\n  0x1f\n    /* \"#utility.yul\":9309:9315   */\n  dup10\n    /* \"#utility.yul\":9305:9322   */\n  and\n    /* \"#utility.yul\":9294:9303   */\n  dup3\n    /* \"#utility.yul\":9275:9323   */\n  tag_51\n  jump\t// in\ntag_170:\n    /* \"#utility.yul\":9267:9273   */\n  dup4\n    /* \"#utility.yul\":9260:9324   */\n  sstore\n    /* \"#utility.yul\":9182:9338   */\n  pop\n    /* \"#utility.yul\":9159:9338   */\ntag_169:\n    /* \"#utility.yul\":9384:9385   */\n  0x01\n    /* \"#utility.yul\":9380:9381   */\n  0x02\n    /* \"#utility.yul\":9372:9378   */\n  dup9\n    /* \"#utility.yul\":9368:9382   */\n  mul\n    /* \"#utility.yul\":9364:9386   */\n  add\n    /* \"#utility.yul\":9358:9362   */\n  dup9\n    /* \"#utility.yul\":9351:9387   */\n  sstore\n    /* \"#utility.yul\":8786:9397   */\n  pop\n  pop\n  pop\n    /* \"#utility.yul\":8749:9636   */\ntag_161:\n  pop\n    /* \"#utility.yul\":8339:9642   */\n  pop\n  pop\n  pop\n    /* \"#utility.yul\":8247:9642   */\n  pop\n  pop\n  jump\t// out\n    /* \"#utility.yul\":9648:9828   */\ntag_53:\n    /* \"#utility.yul\":9696:9773   */\n  0x4e487b7100000000000000000000000000000000000000000000000000000000\n    /* \"#utility.yul\":9693:9694   */\n  0x00\n    /* \"#utility.yul\":9686:9774   */\n  mstore\n    /* \"#utility.yul\":9793:9797   */\n  0x11\n    /* \"#utility.yul\":9790:9791   */\n  0x04\n    /* \"#utility.yul\":9783:9798   */\n  mstore\n    /* \"#utility.yul\":9817:9821   */\n  0x24\n    /* \"#utility.yul\":9814:9815   */\n  0x00\n    /* \"#utility.yul\":9807:9822   */\n  revert\n    /* \"#utility.yul\":9834:9936   */\ntag_54:\n    /* \"#utility.yul\":9876:9884   */\n  0x00\n    /* \"#utility.yul\":9923:9928   */\n  dup2\n    /* \"#utility.yul\":9920:9921   */\n  0x01\n    /* \"#utility.yul\":9916:9929   */\n  shr\n    /* \"#utility.yul\":9895:9929   */\n  swap1\n  pop\n    /* \"#utility.yul\":9834:9936   */\n  swap2\n  swap1\n  pop\n  jump\t// out\n    /* \"#utility.yul\":9942:10790   */\ntag_55:\n    /* \"#utility.yul\":10003:10008   */\n  0x00\n    /* \"#utility.yul\":10010:10014   */\n  0x00\n    /* \"#utility.yul\":10034:10040   */\n  dup3\n    /* \"#utility.yul\":10025:10040   */\n  swap2\n  pop\n    /* \"#utility.yul\":10058:10063   */\n  dup4\n    /* \"#utility.yul\":10049:10063   */\n  swap1\n  pop\n    /* \"#utility.yul\":10072:10784   */\ntag_174:\n    /* \"#utility.yul\":10093:10094   */\n  0x01\n    /* \"#utility.yul\":10083:10091   */\n  dup6\n    /* \"#utility.yul\":10080:10095   */\n  gt\n    /* \"#utility.yul\":10072:10784   */\n  iszero\n  tag_176\n  jumpi\n    /* \"#utility.yul\":10188:10192   */\n  dup1\n    /* \"#utility.yul\":10183:10186   */\n  dup7\n    /* \"#utility.yul\":10179:10193   */\n  div\n    /* \"#utility.yul\":10173:10177   */\n  dup2\n    /* \"#utility.yul\":10170:10194   */\n  gt\n    /* \"#utility.yul\":10167:10217   */\n  iszero\n  tag_177\n  jumpi\n    /* \"#utility.yul\":10197:10215   */\n  tag_178\n  tag_53\n  jump\t// in\ntag_178:\n    /* \"#utility.yul\":10167:10217   */\ntag_177:\n    /* \"#utility.yul\":10247:10248   */\n  0x01\n    /* \"#utility.yul\":10237:10245   */\n  dup6\n    /* \"#utility.yul\":10233:10249   */\n  and\n    /* \"#utility.yul\":10230:10681   */\n  iszero\n  tag_179\n  jumpi\n    /* \"#utility.yul\":10662:10666   */\n  dup1\n    /* \"#utility.yul\":10655:10660   */\n  dup3\n    /* \"#utility.yul\":10651:10667   */\n  mul\n    /* \"#utility.yul\":10642:10667   */\n  swap2\n  pop\n    /* \"#utility.yul\":10230:10681   */\ntag_179:\n    /* \"#utility.yul\":10712:10716   */\n  dup1\n    /* \"#utility.yul\":10706:10710   */\n  dup2\n    /* \"#utility.yul\":10702:10717   */\n  mul\n    /* \"#utility.yul\":10694:10717   */\n  swap1\n  pop\n    /* \"#utility.yul\":10742:10774   */\n  tag_180\n    /* \"#utility.yul\":10765:10773   */\n  dup6\n    /* \"#utility.yul\":10742:10774   */\n  tag_54\n  jump\t// in\ntag_180:\n    /* \"#utility.yul\":10730:10774   */\n  swap5\n  pop\n    /* \"#utility.yul\":10072:10784   */\n  jump(tag_174)\ntag_176:\n    /* \"#utility.yul\":9942:10790   */\n  swap5\n  pop\n  swap5\n  swap3\n  pop\n  pop\n  pop\n  jump\t// out\n    /* \"#utility.yul\":10796:11869   */\ntag_56:\n    /* \"#utility.yul\":10850:10855   */\n  0x00\n    /* \"#utility.yul\":11041:11049   */\n  dup3\n    /* \"#utility.yul\":11031:11071   */\n  tag_182\n  jumpi\n    /* \"#utility.yul\":11062:11063   */\n  0x01\n    /* \"#utility.yul\":11053:11063   */\n  swap1\n  pop\n    /* \"#utility.yul\":11064:11069   */\n  jump(tag_181)\n    /* \"#utility.yul\":11031:11071   */\ntag_182:\n    /* \"#utility.yul\":11090:11094   */\n  dup2\n    /* \"#utility.yul\":11080:11116   */\n  tag_183\n  jumpi\n    /* \"#utility.yul\":11107:11108   */\n  0x00\n    /* \"#utility.yul\":11098:11108   */\n  swap1\n  pop\n    /* \"#utility.yul\":11109:11114   */\n  jump(tag_181)\n    /* \"#utility.yul\":11080:11116   */\ntag_183:\n    /* \"#utility.yul\":11176:11180   */\n  dup2\n    /* \"#utility.yul\":11224:11225   */\n  0x01\n    /* \"#utility.yul\":11219:11246   */\n  dup2\n  eq\n  tag_185\n  jumpi\n    /* \"#utility.yul\":11260:11261   */\n  0x02\n    /* \"#utility.yul\":11255:11446   */\n  dup2\n  eq\n  tag_186\n  jumpi\n    /* \"#utility.yul\":11169:11446   */\n  jump(tag_184)\n    /* \"#utility.yul\":11219:11246   */\ntag_185:\n    /* \"#utility.yul\":11237:11238   */\n  0x01\n    /* \"#utility.yul\":11228:11238   */\n  swap2\n  pop\n    /* \"#utility.yul\":11239:11244   */\n  pop\n  jump(tag_181)\n    /* \"#utility.yul\":11255:11446   */\ntag_186:\n    /* \"#utility.yul\":11300:11303   */\n  0xff\n    /* \"#utility.yul\":11290:11298   */\n  dup5\n    /* \"#utility.yul\":11287:11304   */\n  gt\n    /* \"#utility.yul\":11284:11327   */\n  iszero\n  tag_187\n  jumpi\n    /* \"#utility.yul\":11307:11325   */\n  tag_188\n  tag_53\n  jump\t// in\ntag_188:\n    /* \"#utility.yul\":11284:11327   */\ntag_187:\n    /* \"#utility.yul\":11356:11364   */\n  dup4\n    /* \"#utility.yul\":11353:11354   */\n  0x02\n    /* \"#utility.yul\":11349:11365   */\n  exp\n    /* \"#utility.yul\":11340:11365   */\n  swap2\n  pop\n    /* \"#utility.yul\":11391:11394   */\n  dup5\n    /* \"#utility.yul\":11384:11389   */\n  dup3\n    /* \"#utility.yul\":11381:11395   */\n  gt\n    /* \"#utility.yul\":11378:11418   */\n  iszero\n  tag_189\n  jumpi\n    /* \"#utility.yul\":11398:11416   */\n  tag_190\n  tag_53\n  jump\t// in\ntag_190:\n    /* \"#utility.yul\":11378:11418   */\ntag_189:\n    /* \"#utility.yul\":11431:11436   */\n  pop\n  jump(tag_181)\n    /* \"#utility.yul\":11169:11446   */\ntag_184:\n  pop\n    /* \"#utility.yul\":11555:11557   */\n  0x20\n    /* \"#utility.yul\":11545:11553   */\n  dup4\n    /* \"#utility.yul\":11542:11558   */\n  lt\n    /* \"#utility.yul\":11536:11539   */\n  0x0133\n    /* \"#utility.yul\":11530:11534   */\n  dup4\n    /* \"#utility.yul\":11527:11540   */\n  lt\n    /* \"#utility.yul\":11523:11559   */\n  and\n    /* \"#utility.yul\":11505:11507   */\n  0x4e\n    /* \"#utility.yul\":11495:11503   */\n  dup5\n    /* \"#utility.yul\":11492:11508   */\n  lt\n    /* \"#utility.yul\":11487:11489   */\n  0x0b\n    /* \"#utility.yul\":11481:11485   */\n  dup5\n    /* \"#utility.yul\":11478:11490   */\n  lt\n    /* \"#utility.yul\":11474:11509   */\n  and\n    /* \"#utility.yul\":11458:11569   */\n  or\n    /* \"#utility.yul\":11455:11701   */\n  iszero\n  tag_191\n  jumpi\n    /* \"#utility.yul\":11611:11619   */\n  dup3\n    /* \"#utility.yul\":11605:11609   */\n  dup3\n    /* \"#utility.yul\":11601:11620   */\n  exp\n    /* \"#utility.yul\":11592:11620   */\n  swap1\n  pop\n    /* \"#utility.yul\":11646:11649   */\n  dup4\n    /* \"#utility.yul\":11639:11644   */\n  dup2\n    /* \"#utility.yul\":11636:11650   */\n  gt\n    /* \"#utility.yul\":11633:11673   */\n  iszero\n  tag_192\n  jumpi\n    /* \"#utility.yul\":11653:11671   */\n  tag_193\n  tag_53\n  jump\t// in\ntag_193:\n    /* \"#utility.yul\":11633:11673   */\ntag_192:\n    /* \"#utility.yul\":11686:11691   */\n  jump(tag_181)\n    /* \"#utility.yul\":11455:11701   */\ntag_191:\n    /* \"#utility.yul\":11726:11768   */\n  tag_194\n    /* \"#utility.yul\":11764:11767   */\n  dup5\n    /* \"#utility.yul\":11754:11762   */\n  dup5\n    /* \"#utility.yul\":11748:11752   */\n  dup5\n    /* \"#utility.yul\":11745:11746   */\n  0x01\n    /* \"#utility.yul\":11726:11768   */\n  tag_55\n  jump\t// in\ntag_194:\n    /* \"#utility.yul\":11711:11768   */\n  swap3\n  pop\n  swap1\n  pop\n    /* \"#utility.yul\":11800:11804   */\n  dup2\n    /* \"#utility.yul\":11795:11798   */\n  dup5\n    /* \"#utility.yul\":11791:11805   */\n  div\n    /* \"#utility.yul\":11784:11789   */\n  dup2\n    /* \"#utility.yul\":11781:11806   */\n  gt\n    /* \"#utility.yul\":11778:11829   */\n  iszero\n  tag_195\n  jumpi\n    /* \"#utility.yul\":11809:11827   */\n  tag_196\n  tag_53\n  jump\t// in\ntag_196:\n    /* \"#utility.yul\":11778:11829   */\ntag_195:\n    /* \"#utility.yul\":11858:11862   */\n  dup2\n    /* \"#utility.yul\":11851:11856   */\n  dup2\n    /* \"#utility.yul\":11847:11863   */\n  mul\n    /* \"#utility.yul\":11838:11863   */\n  swap1\n  pop\n    /* \"#utility.yul\":10796:11869   */\ntag_181:\n  swap4\n  swap3\n  pop\n  pop\n  pop\n  jump\t// out\n    /* \"#utility.yul\":11875:12156   */\ntag_10:\n    /* \"#utility.yul\":11933:11938   */\n  0x00\n    /* \"#utility.yul\":11957:11980   */\n  tag_198\n    /* \"#utility.yul\":11975:11979   */\n  dup3\n    /* \"#utility.yul\":11957:11980   */\n  tag_32\n  jump\t// in\ntag_198:\n    /* \"#utility.yul\":11949:11980   */\n  swap2\n  pop\n    /* \"#utility.yul\":12001:12026   */\n  tag_199\n    /* \"#utility.yul\":12017:12025   */\n  dup4\n    /* \"#utility.yul\":12001:12026   */\n  tag_29\n  jump\t// in\ntag_199:\n    /* \"#utility.yul\":11989:12026   */\n  swap3\n  pop\n    /* \"#utility.yul\":12045:12149   */\n  tag_200\n    /* \"#utility.yul\":12082:12148   */\n  0xffffffffffffffffffffffffffffffffffffffffffffffffffffffffffffffff\n    /* \"#utility.yul\":12072:12080   */\n  dup5\n    /* \"#utility.yul\":12066:12070   */\n  dup5\n    /* \"#utility.yul\":12045:12149   */\n  tag_56\n  jump\t// in\ntag_200:\n    /* \"#utility.yul\":12036:12149   */\n  swap1\n  pop\n    /* \"#utility.yul\":11875:12156   */\n  swap3\n  swap2\n  pop\n  pop\n  jump\t// out\n    /* \"#utility.yul\":12162:12572   */\ntag_12:\n    /* \"#utility.yul\":12202:12209   */\n  0x00\n    /* \"#utility.yul\":12225:12245   */\n  tag_202\n    /* \"#utility.yul\":12243:12244   */\n  dup3\n    /* \"#utility.yul\":12225:12245   */\n  tag_32\n  jump\t// in\ntag_202:\n    /* \"#utility.yul\":12220:12245   */\n  swap2\n  pop\n    /* \"#utility.yul\":12259:12279   */\n  tag_203\n    /* \"#utility.yul\":12277:12278   */\n  dup4\n    /* \"#utility.yul\":12259:12279   */\n  tag_32\n  jump\t// in\ntag_203:\n    /* \"#utility.yul\":12254:12279   */\n  swap3\n  pop\n    /* \"#utility.yul\":12314:12315   */\n  dup3\n    /* \"#utility.yul\":12311:12312   */\n  dup3\n    /* \"#utility.yul\":12307:12316   */\n  mul\n    /* \"#utility.yul\":12336:12366   */\n  tag_204\n    /* \"#utility.yul\":12354:12365   */\n  dup2\n    /* \"#utility.yul\":12336:12366   */\n  tag_32\n  jump\t// in\ntag_204:\n    /* \"#utility.yul\":12325:12366   */\n  swap2\n  pop\n    /* \"#utility.yul\":12515:12516   */\n  dup3\n    /* \"#utility.yul\":12506:12513   */\n  dup3\n    /* \"#utility.yul\":12502:12517   */\n  div\n    /* \"#utility.yul\":12499:12500   */\n  dup5\n    /* \"#utility.yul\":12496:12518   */\n  eq\n    /* \"#utility.yul\":12476:12477   */\n  dup4\n    /* \"#utility.yul\":12469:12478   */\n  iszero\n    /* \"#utility.yul\":12449:12532   */\n  or\n    /* \"#utility.yul\":12426:12565   */\n  tag_205\n  jumpi\n    /* \"#utility.yul\":12545:12563   */\n  tag_206\n  tag_53\n  jump\t// in\ntag_206:\n    /* \"#utility.yul\":12426:12565   */\ntag_205:\n    /* \"#utility.yul\":12210:12572   */\n  pop\n    /* \"#utility.yul\":12162:12572   */\n  swap3\n  swap2\n  pop\n  pop\n  jump\t// out\n    /* \"#utility.yul\":12578:12696   */\ntag_57:\n    /* \"#utility.yul\":12665:12689   */\n  tag_208\n    /* \"#utility.yul\":12683:12688   */\n  dup2\n    /* \"#utility.yul\":12665:12689   */\n  tag_32\n  jump\t// in\ntag_208:\n    /* \"#utility.yul\":12660:12663   */\n  dup3\n    /* \"#utility.yul\":12653:12690   */\n  mstore\n    /* \"#utility.yul\":12578:12696   */\n  pop\n  pop\n  jump\t// out\n    /* \"#utility.yul\":12702:12924   */\ntag_14:\n    /* \"#utility.yul\":12795:12799   */\n  0x00\n    /* \"#utility.yul\":12833:12835   */\n  0x20\n    /* \"#utility.yul\":12822:12831   */\n  dup3\n    /* \"#utility.yul\":12818:12836   */\n  add\n    /* \"#utility.yul\":12810:12836   */\n  swap1\n  pop\n    /* \"#utility.yul\":12846:12917   */\n  tag_210\n    /* \"#utility.yul\":12914:12915   */\n  0x00\n    /* \"#utility.yul\":12903:12912   */\n  dup4\n    /* \"#utility.yul\":12899:12916   */\n  add\n    /* \"#utility.yul\":12890:12896   */\n  dup5\n    /* \"#utility.yul\":12846:12917   */\n  tag_57\n  jump\t// in\ntag_210:\n    /* \"#utility.yul\":12702:12924   */\n  swap3\n  swap2\n  pop\n  pop\n  jump\t// out\n    /* \"lession7.2-Error/TokenContract.sol\":76:3974  contract TokenContract {... */\ntag_15:\n  dataSize(sub_0)\n  dup1\n  dataOffset(sub_0)\n  0x00\n  codecopy\n  0x00\n  return\nstop\n\nsub_0: assembly {\n        /* \"lession7.2-Error/TokenContract.sol\":76:3974  contract TokenContract {... */\n      mstore(0x40, 0x80)\n      callvalue\n      dup1\n      iszero\n      tag_1\n      jumpi\n      revert(0x00, 0x00)\n    tag_1:\n      pop\n      jumpi(tag_2, lt(calldatasize, 0x04))\n      shr(0xe0, calldataload(0x00))\n      dup1\n      0x42966c68\n      gt\n      tag_18\n      jumpi\n      dup1\n      0x8da5cb5b\n      gt\n      tag_19\n      jumpi\n      dup1\n      0x8da5cb5b\n      eq\n      tag_14\n      jumpi\n      dup1\n      0x95d89b41\n      eq\n      tag_15\n      jumpi\n      dup1\n      0xa9059cbb\n      eq\n      tag_16\n      jumpi\n      dup1\n      0xdd62ed3e\n      eq\n      tag_17\n      jumpi\n      jump(tag_2)\n    tag_19:\n      dup1\n      0x42966c68\n      eq\n      tag_10\n      jumpi\n      dup1\n      0x70a08231\n      eq\n      tag_11\n      jumpi\n      dup1\n      0x77163c1d\n      eq\n      tag_12\n      jumpi\n      dup1\n      0x8456cb59\n      eq\n      tag_13\n      jumpi\n      jump(tag_2)\n    tag_18:\n      dup1\n      0x18160ddd\n      gt\n      tag_20\n      jumpi\n      dup1\n      0x18160ddd\n      eq\n      tag_6\n      jumpi\n      dup1\n      0x23b872dd\n      eq\n      tag_7\n      jumpi\n      dup1\n      0x313ce567\n      eq\n      tag_8\n      jumpi\n      dup1\n      0x40c10f19\n      eq\n      tag_9\n      jumpi\n      jump(tag_2)\n    tag_20:\n      dup1\n      0x046f7da2\n      eq\n      tag_3\n      jumpi\n      dup1\n      0x06fdde03\n      eq\n      tag_4\n      jumpi\n      dup1\n      0x095ea7b3\n      eq\n      tag_5\n      jumpi\n    tag_2:\n      revert(0x00, 0x00)\n        /* \"lession7.2-Error/TokenContract.sol\":3892:3971  function resume() public onlyOwner whenPaused {... */\n    tag_3:\n      tag_21\n      tag_22\n      jump\t// in\n    tag_21:\n      stop\n        /* \"lession7.2-Error/TokenContract.sol\":106:124  string public name */\n    tag_4:\n      tag_23\n      tag_24\n      jump\t// in\n    tag_23:\n      mload(0x40)\n      tag_25\n      swap2\n      swap1\n      tag_26\n      jump\t// in\n    tag_25:\n      mload(0x40)\n      dup1\n      swap2\n      sub\n      swap1\n      return\n        /* \"lession7.2-Error/TokenContract.sol\":2115:2462  function approve(address spender,uint amount) public whenNotPaused returns (bool) {... */\n    tag_5:\n      tag_27\n      0x04\n      dup1\n      calldatasize\n      sub\n      dup2\n      add\n      swap1\n      tag_28\n      swap2\n      swap1\n      tag_29\n      jump\t// in\n    tag_28:\n      tag_30\n      jump\t// in\n    tag_27:\n      mload(0x40)\n      tag_31\n      swap2\n      swap1\n      tag_32\n      jump\t// in\n    tag_31:\n      mload(0x40)\n      dup1\n      swap2\n      sub\n      swap1\n      return\n        /* \"lession7.2-Error/TokenContract.sol\":186:209  uint public totalSupply */\n    tag_6:\n      tag_33\n      tag_34\n      jump\t// in\n    tag_33:\n      mload(0x40)\n      tag_35\n      swap2\n      swap1\n      tag_36\n      jump\t// in\n    tag_35:\n      mload(0x40)\n      dup1\n      swap2\n      sub\n      swap1\n      return\n        /* \"lession7.2-Error/TokenContract.sol\":2470:3193  function transferFrom(address from,address to,uint amount) public whenNotPaused returns (bool) {... */\n    tag_7:\n      tag_37\n      0x04\n      dup1\n      calldatasize\n      sub\n      dup2\n      add\n      swap1\n      tag_38\n      swap2\n      swap1\n      tag_39\n      jump\t// in\n    tag_38:\n      tag_40\n      jump\t// in\n    tag_37:\n      mload(0x40)\n      tag_41\n      swap2\n      swap1\n      tag_32\n      jump\t// in\n    tag_41:\n      mload(0x40)\n      dup1\n      swap2\n      sub\n      swap1\n      return\n        /* \"lession7.2-Error/TokenContract.sol\":158:179  uint8 public decimals */\n    tag_8:\n      tag_42\n      tag_43\n      jump\t// in\n    tag_42:\n      mload(0x40)\n      tag_44\n      swap2\n      swap1\n      tag_45\n      jump\t// in\n    tag_44:\n      mload(0x40)\n      dup1\n      swap2\n      sub\n      swap1\n      return\n        /* \"lession7.2-Error/TokenContract.sol\":3201:3512  function mint(address to,uint amount) public onlyOwner whenNotPaused {... */\n    tag_9:\n      tag_46\n      0x04\n      dup1\n      calldatasize\n      sub\n      dup2\n      add\n      swap1\n      tag_47\n      swap2\n      swap1\n      tag_29\n      jump\t// in\n    tag_47:\n      tag_48\n      jump\t// in\n    tag_46:\n      stop\n        /* \"lession7.2-Error/TokenContract.sol\":3520:3766  function burn(uint amount) public whenNotPaused {... */\n    tag_10:\n      tag_49\n      0x04\n      dup1\n      calldatasize\n      sub\n      dup2\n      add\n      swap1\n      tag_50\n      swap2\n      swap1\n      tag_51\n      jump\t// in\n    tag_50:\n      tag_52\n      jump\t// in\n    tag_49:\n      stop\n        /* \"lession7.2-Error/TokenContract.sol\":218:260  mapping (address => uint) public balanceOf */\n    tag_11:\n      tag_53\n      0x04\n      dup1\n      calldatasize\n      sub\n      dup2\n      add\n      swap1\n      tag_54\n      swap2\n      swap1\n      tag_55\n      jump\t// in\n    tag_54:\n      tag_56\n      jump\t// in\n    tag_53:\n      mload(0x40)\n      tag_57\n      swap2\n      swap1\n      tag_36\n      jump\t// in\n    tag_57:\n      mload(0x40)\n      dup1\n      swap2\n      sub\n      swap1\n      return\n        /* \"lession7.2-Error/TokenContract.sol\":368:403  uint public constant MAX_COUNT = 50 */\n    tag_12:\n      tag_58\n      tag_59\n      jump\t// in\n    tag_58:\n      mload(0x40)\n      tag_60\n      swap2\n      swap1\n      tag_36\n      jump\t// in\n    tag_60:\n      mload(0x40)\n      dup1\n      swap2\n      sub\n      swap1\n      return\n        /* \"lession7.2-Error/TokenContract.sol\":3789:3869  function pause() public  onlyOwner whenNotPaused{... */\n    tag_13:\n      tag_61\n      tag_62\n      jump\t// in\n    tag_61:\n      stop\n        /* \"lession7.2-Error/TokenContract.sol\":339:359  address public owner */\n    tag_14:\n      tag_63\n      tag_64\n      jump\t// in\n    tag_63:\n      mload(0x40)\n      tag_65\n      swap2\n      swap1\n      tag_66\n      jump\t// in\n    tag_65:\n      mload(0x40)\n      dup1\n      swap2\n      sub\n      swap1\n      return\n        /* \"lession7.2-Error/TokenContract.sol\":131:151  string public symbol */\n    tag_15:\n      tag_67\n      tag_68\n      jump\t// in\n    tag_67:\n      mload(0x40)\n      tag_69\n      swap2\n      swap1\n      tag_26\n      jump\t// in\n    tag_69:\n      mload(0x40)\n      dup1\n      swap2\n      sub\n      swap1\n      return\n        /* \"lession7.2-Error/TokenContract.sol\":1615:2107  function transfer(address to,uint amount) public whenNotPaused returns (bool) {... */\n    tag_16:\n      tag_70\n      0x04\n      dup1\n      calldatasize\n      sub\n      dup2\n      add\n      swap1\n      tag_71\n      swap2\n      swap1\n      tag_29\n      jump\t// in\n    tag_71:\n      tag_72\n      jump\t// in\n    tag_70:\n      mload(0x40)\n      tag_73\n      swap2\n      swap1\n      tag_32\n      jump\t// in\n    tag_73:\n      mload(0x40)\n      dup1\n      swap2\n      sub\n      swap1\n      return\n        /* \"lession7.2-Error/TokenContract.sol\":267:330  mapping (address => mapping (address => uint)) public allowance */\n    tag_17:\n      tag_74\n      0x04\n      dup1\n      calldatasize\n      sub\n      dup2\n      add\n      swap1\n      tag_75\n      swap2\n      swap1\n      tag_76\n      jump\t// in\n    tag_75:\n      tag_77\n      jump\t// in\n    tag_74:\n      mload(0x40)\n      tag_78\n      swap2\n      swap1\n      tag_36\n      jump\t// in\n    tag_78:\n      mload(0x40)\n      dup1\n      swap2\n      sub\n      swap1\n      return\n        /* \"lession7.2-Error/TokenContract.sol\":3892:3971  function resume() public onlyOwner whenPaused {... */\n    tag_22:\n        /* \"lession7.2-Error/TokenContract.sol\":942:952  msg.sender */\n      caller\n        /* \"lession7.2-Error/TokenContract.sol\":933:952  owner == msg.sender */\n      0xffffffffffffffffffffffffffffffffffffffff\n      and\n        /* \"lession7.2-Error/TokenContract.sol\":933:938  owner */\n      0x06\n      0x00\n      swap1\n      sload\n      swap1\n      0x0100\n      exp\n      swap1\n      div\n      0xffffffffffffffffffffffffffffffffffffffff\n      and\n        /* \"lession7.2-Error/TokenContract.sol\":933:952  owner == msg.sender */\n      0xffffffffffffffffffffffffffffffffffffffff\n      and\n      eq\n        /* \"lession7.2-Error/TokenContract.sol\":925:966  require(owner == msg.sender,\"Not Onwer!\") */\n      tag_80\n      jumpi\n      mload(0x40)\n      0x08c379a000000000000000000000000000000000000000000000000000000000\n      dup2\n      mstore\n      0x04\n      add\n      tag_81\n      swap1\n      tag_82\n      jump\t// in\n    tag_81:\n      mload(0x40)\n      dup1\n      swap2\n      sub\n      swap1\n      revert\n    tag_80:\n        /* \"lession7.2-Error/TokenContract.sol\":1137:1143  paused */\n      0x06\n      0x14\n      swap1\n      sload\n      swap1\n      0x0100\n      exp\n      swap1\n      div\n      0xff\n      and\n        /* \"lession7.2-Error/TokenContract.sol\":1129:1170  require(paused, \"Current is not paused!\") */\n      tag_84\n      jumpi\n      mload(0x40)\n      0x08c379a000000000000000000000000000000000000000000000000000000000\n      dup2\n      mstore\n      0x04\n      add\n      tag_85\n      swap1\n      tag_86\n      jump\t// in\n    tag_85:\n      mload(0x40)\n      dup1\n      swap2\n      sub\n      swap1\n      revert\n    tag_84:\n        /* \"lession7.2-Error/TokenContract.sol\":3958:3963  false */\n      0x00\n        /* \"lession7.2-Error/TokenContract.sol\":3949:3955  paused */\n      0x06\n      0x14\n        /* \"lession7.2-Error/TokenContract.sol\":3949:3963  paused = false */\n      0x0100\n      exp\n      dup2\n      sload\n      dup2\n      0xff\n      mul\n      not\n      and\n      swap1\n      dup4\n      iszero\n      iszero\n      mul\n      or\n      swap1\n      sstore\n      pop\n        /* \"lession7.2-Error/TokenContract.sol\":3892:3971  function resume() public onlyOwner whenPaused {... */\n      jump\t// out\n        /* \"lession7.2-Error/TokenContract.sol\":106:124  string public name */\n    tag_24:\n      0x00\n      dup1\n      sload\n      tag_88\n      swap1\n      tag_89\n      jump\t// in\n    tag_88:\n      dup1\n      0x1f\n      add\n      0x20\n      dup1\n      swap2\n      div\n      mul\n      0x20\n      add\n      mload(0x40)\n      swap1\n      dup2\n      add\n      0x40\n      mstore\n      dup1\n      swap3\n      swap2\n      swap1\n      dup2\n      dup2\n      mstore\n      0x20\n      add\n      dup3\n      dup1\n      sload\n      tag_90\n      swap1\n      tag_89\n      jump\t// in\n    tag_90:\n      dup1\n      iszero\n      tag_91\n      jumpi\n      dup1\n      0x1f\n      lt\n      tag_92\n      jumpi\n      0x0100\n      dup1\n      dup4\n      sload\n      div\n      mul\n      dup4\n      mstore\n      swap2\n      0x20\n      add\n      swap2\n      jump(tag_91)\n    tag_92:\n      dup3\n      add\n      swap2\n      swap1\n      0x00\n      mstore\n      keccak256(0x00, 0x20)\n      swap1\n    tag_93:\n      dup2\n      sload\n      dup2\n      mstore\n      swap1\n      0x01\n      add\n      swap1\n      0x20\n      add\n      dup1\n      dup4\n      gt\n      tag_93\n      jumpi\n      dup3\n      swap1\n      sub\n      0x1f\n      and\n      dup3\n      add\n      swap2\n    tag_91:\n      pop\n      pop\n      pop\n      pop\n      pop\n      dup2\n      jump\t// out\n        /* \"lession7.2-Error/TokenContract.sol\":2115:2462  function approve(address spender,uint amount) public whenNotPaused returns (bool) {... */\n    tag_30:\n        /* \"lession7.2-Error/TokenContract.sol\":2191:2195  bool */\n      0x00\n        /* \"lession7.2-Error/TokenContract.sol\":1039:1045  paused */\n      0x06\n      0x14\n      swap1\n      sload\n      swap1\n      0x0100\n      exp\n      swap1\n      div\n      0xff\n      and\n        /* \"lession7.2-Error/TokenContract.sol\":1038:1045  !paused */\n      iszero\n        /* \"lession7.2-Error/TokenContract.sol\":1030:1068  require(!paused, \"Current is paused!\") */\n      tag_95\n      jumpi\n      mload(0x40)\n      0x08c379a000000000000000000000000000000000000000000000000000000000\n      dup2\n      mstore\n      0x04\n      add\n      tag_96\n      swap1\n      tag_97\n      jump\t// in\n    tag_96:\n      mload(0x40)\n      dup1\n      swap2\n      sub\n      swap1\n      revert\n    tag_95:\n        /* \"lession7.2-Error/TokenContract.sol\":2231:2232  0 */\n      0x00\n        /* \"lession7.2-Error/TokenContract.sol\":2212:2233  spender == address(0) */\n      0xffffffffffffffffffffffffffffffffffffffff\n      and\n        /* \"lession7.2-Error/TokenContract.sol\":2212:2219  spender */\n      dup4\n        /* \"lession7.2-Error/TokenContract.sol\":2212:2233  spender == address(0) */\n      0xffffffffffffffffffffffffffffffffffffffff\n      and\n      sub\n        /* \"lession7.2-Error/TokenContract.sol\":2208:2267  if (spender == address(0)) revert InvalidRecipient(spender) */\n      tag_99\n      jumpi\n        /* \"lession7.2-Error/TokenContract.sol\":2259:2266  spender */\n      dup3\n        /* \"lession7.2-Error/TokenContract.sol\":2242:2267  InvalidRecipient(spender) */\n      mload(0x40)\n      0x17858bbe00000000000000000000000000000000000000000000000000000000\n      dup2\n      mstore\n      0x04\n      add\n      tag_100\n      swap2\n      swap1\n      tag_66\n      jump\t// in\n    tag_100:\n      mload(0x40)\n      dup1\n      swap2\n      sub\n      swap1\n      revert\n        /* \"lession7.2-Error/TokenContract.sol\":2208:2267  if (spender == address(0)) revert InvalidRecipient(spender) */\n    tag_99:\n        /* \"lession7.2-Error/TokenContract.sol\":2292:2293  0 */\n      0x00\n        /* \"lession7.2-Error/TokenContract.sol\":2282:2288  amount */\n      dup3\n        /* \"lession7.2-Error/TokenContract.sol\":2282:2293  amount == 0 */\n      sub\n        /* \"lession7.2-Error/TokenContract.sol\":2278:2323  if (amount == 0) revert InvalidAmount(amount) */\n      tag_101\n      jumpi\n        /* \"lession7.2-Error/TokenContract.sol\":2316:2322  amount */\n      dup2\n        /* \"lession7.2-Error/TokenContract.sol\":2302:2323  InvalidAmount(amount) */\n      mload(0x40)\n      0x3728b83d00000000000000000000000000000000000000000000000000000000\n      dup2\n      mstore\n      0x04\n      add\n      tag_102\n      swap2\n      swap1\n      tag_36\n      jump\t// in\n    tag_102:\n      mload(0x40)\n      dup1\n      swap2\n      sub\n      swap1\n      revert\n        /* \"lession7.2-Error/TokenContract.sol\":2278:2323  if (amount == 0) revert InvalidAmount(amount) */\n    tag_101:\n        /* \"lession7.2-Error/TokenContract.sol\":2369:2375  amount */\n      dup2\n        /* \"lession7.2-Error/TokenContract.sol\":2336:2345  allowance */\n      0x05\n        /* \"lession7.2-Error/TokenContract.sol\":2336:2357  allowance[msg.sender] */\n      0x00\n        /* \"lession7.2-Error/TokenContract.sol\":2346:2356  msg.sender */\n      caller\n        /* \"lession7.2-Error/TokenContract.sol\":2336:2357  allowance[msg.sender] */\n      0xffffffffffffffffffffffffffffffffffffffff\n      and\n      0xffffffffffffffffffffffffffffffffffffffff\n      and\n      dup2\n      mstore\n      0x20\n      add\n      swap1\n      dup2\n      mstore\n      0x20\n      add\n      0x00\n      keccak256\n        /* \"lession7.2-Error/TokenContract.sol\":2336:2366  allowance[msg.sender][spender] */\n      0x00\n        /* \"lession7.2-Error/TokenContract.sol\":2358:2365  spender */\n      dup6\n        /* \"lession7.2-Error/TokenContract.sol\":2336:2366  allowance[msg.sender][spender] */\n      0xffffffffffffffffffffffffffffffffffffffff\n      and\n      0xffffffffffffffffffffffffffffffffffffffff\n      and\n      dup2\n      mstore\n      0x20\n      add\n      swap1\n      dup2\n      mstore\n      0x20\n      add\n      0x00\n      keccak256\n        /* \"lession7.2-Error/TokenContract.sol\":2336:2375  allowance[msg.sender][spender] = amount */\n      dup2\n      swap1\n      sstore\n      pop\n        /* \"lession7.2-Error/TokenContract.sol\":2414:2421  spender */\n      dup3\n        /* \"lession7.2-Error/TokenContract.sol\":2393:2430  Approval(msg.sender, spender, amount) */\n      0xffffffffffffffffffffffffffffffffffffffff\n      and\n        /* \"lession7.2-Error/TokenContract.sol\":2402:2412  msg.sender */\n      caller\n        /* \"lession7.2-Error/TokenContract.sol\":2393:2430  Approval(msg.sender, spender, amount) */\n      0xffffffffffffffffffffffffffffffffffffffff\n      and\n      0x8c5be1e5ebec7d5bd14f71427d1e84f3dd0314c0f7b2291e5b200ac8c7c3b925\n        /* \"lession7.2-Error/TokenContract.sol\":2423:2429  amount */\n      dup5\n        /* \"lession7.2-Error/TokenContract.sol\":2393:2430  Approval(msg.sender, spender, amount) */\n      mload(0x40)\n      tag_103\n      swap2\n      swap1\n      tag_36\n      jump\t// in\n    tag_103:\n      mload(0x40)\n      dup1\n      swap2\n      sub\n      swap1\n      log3\n        /* \"lession7.2-Error/TokenContract.sol\":2450:2454  true */\n      0x01\n        /* \"lession7.2-Error/TokenContract.sol\":2443:2454  return true */\n      swap1\n      pop\n        /* \"lession7.2-Error/TokenContract.sol\":2115:2462  function approve(address spender,uint amount) public whenNotPaused returns (bool) {... */\n      swap3\n      swap2\n      pop\n      pop\n      jump\t// out\n        /* \"lession7.2-Error/TokenContract.sol\":186:209  uint public totalSupply */\n    tag_34:\n      sload(0x03)\n      dup2\n      jump\t// out\n        /* \"lession7.2-Error/TokenContract.sol\":2470:3193  function transferFrom(address from,address to,uint amount) public whenNotPaused returns (bool) {... */\n    tag_40:\n        /* \"lession7.2-Error/TokenContract.sol\":2559:2563  bool */\n      0x00\n        /* \"lession7.2-Error/TokenContract.sol\":1039:1045  paused */\n      0x06\n      0x14\n      swap1\n      sload\n      swap1\n      0x0100\n      exp\n      swap1\n      div\n      0xff\n      and\n        /* \"lession7.2-Error/TokenContract.sol\":1038:1045  !paused */\n      iszero\n        /* \"lession7.2-Error/TokenContract.sol\":1030:1068  require(!paused, \"Current is paused!\") */\n      tag_105\n      jumpi\n      mload(0x40)\n      0x08c379a000000000000000000000000000000000000000000000000000000000\n      dup2\n      mstore\n      0x04\n      add\n      tag_106\n      swap1\n      tag_97\n      jump\t// in\n    tag_106:\n      mload(0x40)\n      dup1\n      swap2\n      sub\n      swap1\n      revert\n    tag_105:\n        /* \"lession7.2-Error/TokenContract.sol\":2596:2597  0 */\n      0x00\n        /* \"lession7.2-Error/TokenContract.sol\":2580:2598  from == address(0) */\n      0xffffffffffffffffffffffffffffffffffffffff\n      and\n        /* \"lession7.2-Error/TokenContract.sol\":2580:2584  from */\n      dup5\n        /* \"lession7.2-Error/TokenContract.sol\":2580:2598  from == address(0) */\n      0xffffffffffffffffffffffffffffffffffffffff\n      and\n      sub\n        /* \"lession7.2-Error/TokenContract.sol\":2576:2629  if (from == address(0)) revert InvalidRecipient(from) */\n      tag_108\n      jumpi\n        /* \"lession7.2-Error/TokenContract.sol\":2624:2628  from */\n      dup4\n        /* \"lession7.2-Error/TokenContract.sol\":2607:2629  InvalidRecipient(from) */\n      mload(0x40)\n      0x17858bbe00000000000000000000000000000000000000000000000000000000\n      dup2\n      mstore\n      0x04\n      add\n      tag_109\n      swap2\n      swap1\n      tag_66\n      jump\t// in\n    tag_109:\n      mload(0x40)\n      dup1\n      swap2\n      sub\n      swap1\n      revert\n        /* \"lession7.2-Error/TokenContract.sol\":2576:2629  if (from == address(0)) revert InvalidRecipient(from) */\n    tag_108:\n        /* \"lession7.2-Error/TokenContract.sol\":2658:2659  0 */\n      0x00\n        /* \"lession7.2-Error/TokenContract.sol\":2644:2660  to == address(0) */\n      0xffffffffffffffffffffffffffffffffffffffff\n      and\n        /* \"lession7.2-Error/TokenContract.sol\":2644:2646  to */\n      dup4\n        /* \"lession7.2-Error/TokenContract.sol\":2644:2660  to == address(0) */\n      0xffffffffffffffffffffffffffffffffffffffff\n      and\n      sub\n        /* \"lession7.2-Error/TokenContract.sol\":2640:2689  if (to == address(0)) revert InvalidRecipient(to) */\n      tag_110\n      jumpi\n        /* \"lession7.2-Error/TokenContract.sol\":2686:2688  to */\n      dup3\n        /* \"lession7.2-Error/TokenContract.sol\":2669:2689  InvalidRecipient(to) */\n      mload(0x40)\n      0x17858bbe00000000000000000000000000000000000000000000000000000000\n      dup2\n      mstore\n      0x04\n      add\n      tag_111\n      swap2\n      swap1\n      tag_66\n      jump\t// in\n    tag_111:\n      mload(0x40)\n      dup1\n      swap2\n      sub\n      swap1\n      revert\n        /* \"lession7.2-Error/TokenContract.sol\":2640:2689  if (to == address(0)) revert InvalidRecipient(to) */\n    tag_110:\n        /* \"lession7.2-Error/TokenContract.sol\":2714:2715  0 */\n      0x00\n        /* \"lession7.2-Error/TokenContract.sol\":2704:2710  amount */\n      dup3\n        /* \"lession7.2-Error/TokenContract.sol\":2704:2715  amount == 0 */\n      sub\n        /* \"lession7.2-Error/TokenContract.sol\":2700:2745  if (amount == 0) revert InvalidAmount(amount) */\n      tag_112\n      jumpi\n        /* \"lession7.2-Error/TokenContract.sol\":2738:2744  amount */\n      dup2\n        /* \"lession7.2-Error/TokenContract.sol\":2724:2745  InvalidAmount(amount) */\n      mload(0x40)\n      0x3728b83d00000000000000000000000000000000000000000000000000000000\n      dup2\n      mstore\n      0x04\n      add\n      tag_113\n      swap2\n      swap1\n      tag_36\n      jump\t// in\n    tag_113:\n      mload(0x40)\n      dup1\n      swap2\n      sub\n      swap1\n      revert\n        /* \"lession7.2-Error/TokenContract.sol\":2700:2745  if (amount == 0) revert InvalidAmount(amount) */\n    tag_112:\n        /* \"lession7.2-Error/TokenContract.sol\":2778:2784  amount */\n      dup2\n        /* \"lession7.2-Error/TokenContract.sol\":2760:2769  balanceOf */\n      0x04\n        /* \"lession7.2-Error/TokenContract.sol\":2760:2775  balanceOf[from] */\n      0x00\n        /* \"lession7.2-Error/TokenContract.sol\":2770:2774  from */\n      dup7\n        /* \"lession7.2-Error/TokenContract.sol\":2760:2775  balanceOf[from] */\n      0xffffffffffffffffffffffffffffffffffffffff\n      and\n      0xffffffffffffffffffffffffffffffffffffffff\n      and\n      dup2\n      mstore\n      0x20\n      add\n      swap1\n      dup2\n      mstore\n      0x20\n      add\n      0x00\n      keccak256\n      sload\n        /* \"lession7.2-Error/TokenContract.sol\":2760:2784  balanceOf[from] < amount */\n      lt\n        /* \"lession7.2-Error/TokenContract.sol\":2756:2841  if (balanceOf[from] < amount) revert InsufficientBalance(from,balanceOf[from],amount) */\n      iszero\n      tag_114\n      jumpi\n        /* \"lession7.2-Error/TokenContract.sol\":2813:2817  from */\n      dup4\n        /* \"lession7.2-Error/TokenContract.sol\":2818:2827  balanceOf */\n      0x04\n        /* \"lession7.2-Error/TokenContract.sol\":2818:2833  balanceOf[from] */\n      0x00\n        /* \"lession7.2-Error/TokenContract.sol\":2828:2832  from */\n      dup7\n        /* \"lession7.2-Error/TokenContract.sol\":2818:2833  balanceOf[from] */\n      0xffffffffffffffffffffffffffffffffffffffff\n      and\n      0xffffffffffffffffffffffffffffffffffffffff\n      and\n      dup2\n      mstore\n      0x20\n      add\n      swap1\n      dup2\n      mstore\n      0x20\n      add\n      0x00\n      keccak256\n      sload\n        /* \"lession7.2-Error/TokenContract.sol\":2834:2840  amount */\n      dup4\n        /* \"lession7.2-Error/TokenContract.sol\":2793:2841  InsufficientBalance(from,balanceOf[from],amount) */\n      mload(0x40)\n      0xdb42144d00000000000000000000000000000000000000000000000000000000\n      dup2\n      mstore\n      0x04\n      add\n      tag_115\n      swap4\n      swap3\n      swap2\n      swap1\n      tag_116\n      jump\t// in\n    tag_115:\n      mload(0x40)\n      dup1\n      swap2\n      sub\n      swap1\n      revert\n        /* \"lession7.2-Error/TokenContract.sol\":2756:2841  if (balanceOf[from] < amount) revert InsufficientBalance(from,balanceOf[from],amount) */\n    tag_114:\n        /* \"lession7.2-Error/TokenContract.sol\":2888:2894  amount */\n      dup2\n        /* \"lession7.2-Error/TokenContract.sol\":2858:2867  allowance */\n      0x05\n        /* \"lession7.2-Error/TokenContract.sol\":2858:2873  allowance[from] */\n      0x00\n        /* \"lession7.2-Error/TokenContract.sol\":2868:2872  from */\n      dup7\n        /* \"lession7.2-Error/TokenContract.sol\":2858:2873  allowance[from] */\n      0xffffffffffffffffffffffffffffffffffffffff\n      and\n      0xffffffffffffffffffffffffffffffffffffffff\n      and\n      dup2\n      mstore\n      0x20\n      add\n      swap1\n      dup2\n      mstore\n      0x20\n      add\n      0x00\n      keccak256\n        /* \"lession7.2-Error/TokenContract.sol\":2858:2885  allowance[from][msg.sender] */\n      0x00\n        /* \"lession7.2-Error/TokenContract.sol\":2874:2884  msg.sender */\n      caller\n        /* \"lession7.2-Error/TokenContract.sol\":2858:2885  allowance[from][msg.sender] */\n      0xffffffffffffffffffffffffffffffffffffffff\n      and\n      0xffffffffffffffffffffffffffffffffffffffff\n      and\n      dup2\n      mstore\n      0x20\n      add\n      swap1\n      dup2\n      mstore\n      0x20\n      add\n      0x00\n      keccak256\n      sload\n        /* \"lession7.2-Error/TokenContract.sol\":2858:2894  allowance[from][msg.sender] < amount */\n      lt\n        /* \"lession7.2-Error/TokenContract.sol\":2854:2995  if (allowance[from][msg.sender] < amount) {... */\n      iszero\n      tag_117\n      jumpi\n        /* \"lession7.2-Error/TokenContract.sol\":2940:2944  from */\n      dup4\n        /* \"lession7.2-Error/TokenContract.sol\":2945:2947  to */\n      dup4\n        /* \"lession7.2-Error/TokenContract.sol\":2948:2957  allowance */\n      0x05\n        /* \"lession7.2-Error/TokenContract.sol\":2948:2963  allowance[from] */\n      0x00\n        /* \"lession7.2-Error/TokenContract.sol\":2958:2962  from */\n      dup8\n        /* \"lession7.2-Error/TokenContract.sol\":2948:2963  allowance[from] */\n      0xffffffffffffffffffffffffffffffffffffffff\n      and\n      0xffffffffffffffffffffffffffffffffffffffff\n      and\n      dup2\n      mstore\n      0x20\n      add\n      swap1\n      dup2\n      mstore\n      0x20\n      add\n      0x00\n      keccak256\n        /* \"lession7.2-Error/TokenContract.sol\":2948:2975  allowance[from][msg.sender] */\n      0x00\n        /* \"lession7.2-Error/TokenContract.sol\":2964:2974  msg.sender */\n      caller\n        /* \"lession7.2-Error/TokenContract.sol\":2948:2975  allowance[from][msg.sender] */\n      0xffffffffffffffffffffffffffffffffffffffff\n      and\n      0xffffffffffffffffffffffffffffffffffffffff\n      and\n      dup2\n      mstore\n      0x20\n      add\n      swap1\n      dup2\n      mstore\n      0x20\n      add\n      0x00\n      keccak256\n      sload\n        /* \"lession7.2-Error/TokenContract.sol\":2976:2982  amount */\n      dup5\n        /* \"lession7.2-Error/TokenContract.sol\":2918:2983  InsufficientAllowance(from,to,allowance[from][msg.sender],amount) */\n      mload(0x40)\n      0x91beda2400000000000000000000000000000000000000000000000000000000\n      dup2\n      mstore\n      0x04\n      add\n      tag_118\n      swap5\n      swap4\n      swap3\n      swap2\n      swap1\n      tag_119\n      jump\t// in\n    tag_118:\n      mload(0x40)\n      dup1\n      swap2\n      sub\n      swap1\n      revert\n        /* \"lession7.2-Error/TokenContract.sol\":2854:2995  if (allowance[from][msg.sender] < amount) {... */\n    tag_117:\n        /* \"lession7.2-Error/TokenContract.sol\":3026:3032  amount */\n      dup2\n        /* \"lession7.2-Error/TokenContract.sol\":3007:3016  balanceOf */\n      0x04\n        /* \"lession7.2-Error/TokenContract.sol\":3007:3022  balanceOf[from] */\n      0x00\n        /* \"lession7.2-Error/TokenContract.sol\":3017:3021  from */\n      dup7\n        /* \"lession7.2-Error/TokenContract.sol\":3007:3022  balanceOf[from] */\n      0xffffffffffffffffffffffffffffffffffffffff\n      and\n      0xffffffffffffffffffffffffffffffffffffffff\n      and\n      dup2\n      mstore\n      0x20\n      add\n      swap1\n      dup2\n      mstore\n      0x20\n      add\n      0x00\n      keccak256\n      0x00\n        /* \"lession7.2-Error/TokenContract.sol\":3007:3032  balanceOf[from] -= amount */\n      dup3\n      dup3\n      sload\n      tag_120\n      swap2\n      swap1\n      tag_121\n      jump\t// in\n    tag_120:\n      swap3\n      pop\n      pop\n      dup2\n      swap1\n      sstore\n      pop\n        /* \"lession7.2-Error/TokenContract.sol\":3060:3066  amount */\n      dup2\n        /* \"lession7.2-Error/TokenContract.sol\":3043:3052  balanceOf */\n      0x04\n        /* \"lession7.2-Error/TokenContract.sol\":3043:3056  balanceOf[to] */\n      0x00\n        /* \"lession7.2-Error/TokenContract.sol\":3053:3055  to */\n      dup6\n        /* \"lession7.2-Error/TokenContract.sol\":3043:3056  balanceOf[to] */\n      0xffffffffffffffffffffffffffffffffffffffff\n      and\n      0xffffffffffffffffffffffffffffffffffffffff\n      and\n      dup2\n      mstore\n      0x20\n      add\n      swap1\n      dup2\n      mstore\n      0x20\n      add\n      0x00\n      keccak256\n      0x00\n        /* \"lession7.2-Error/TokenContract.sol\":3043:3066  balanceOf[to] += amount */\n      dup3\n      dup3\n      sload\n      tag_122\n      swap2\n      swap1\n      tag_123\n      jump\t// in\n    tag_122:\n      swap3\n      pop\n      pop\n      dup2\n      swap1\n      sstore\n      pop\n        /* \"lession7.2-Error/TokenContract.sol\":3110:3116  amount */\n      dup2\n        /* \"lession7.2-Error/TokenContract.sol\":3079:3088  allowance */\n      0x05\n        /* \"lession7.2-Error/TokenContract.sol\":3079:3094  allowance[from] */\n      0x00\n        /* \"lession7.2-Error/TokenContract.sol\":3089:3093  from */\n      dup7\n        /* \"lession7.2-Error/TokenContract.sol\":3079:3094  allowance[from] */\n      0xffffffffffffffffffffffffffffffffffffffff\n      and\n      0xffffffffffffffffffffffffffffffffffffffff\n      and\n      dup2\n      mstore\n      0x20\n      add\n      swap1\n      dup2\n      mstore\n      0x20\n      add\n      0x00\n      keccak256\n        /* \"lession7.2-Error/TokenContract.sol\":3079:3106  allowance[from][msg.sender] */\n      0x00\n        /* \"lession7.2-Error/TokenContract.sol\":3095:3105  msg.sender */\n      caller\n        /* \"lession7.2-Error/TokenContract.sol\":3079:3106  allowance[from][msg.sender] */\n      0xffffffffffffffffffffffffffffffffffffffff\n      and\n      0xffffffffffffffffffffffffffffffffffffffff\n      and\n      dup2\n      mstore\n      0x20\n      add\n      swap1\n      dup2\n      mstore\n      0x20\n      add\n      0x00\n      keccak256\n      0x00\n        /* \"lession7.2-Error/TokenContract.sol\":3079:3116  allowance[from][msg.sender] -= amount */\n      dup3\n      dup3\n      sload\n      tag_124\n      swap2\n      swap1\n      tag_121\n      jump\t// in\n    tag_124:\n      swap3\n      pop\n      pop\n      dup2\n      swap1\n      sstore\n      pop\n        /* \"lession7.2-Error/TokenContract.sol\":3150:3152  to */\n      dup3\n        /* \"lession7.2-Error/TokenContract.sol\":3135:3161  Transfer(from, to, amount) */\n      0xffffffffffffffffffffffffffffffffffffffff\n      and\n        /* \"lession7.2-Error/TokenContract.sol\":3144:3148  from */\n      dup5\n        /* \"lession7.2-Error/TokenContract.sol\":3135:3161  Transfer(from, to, amount) */\n      0xffffffffffffffffffffffffffffffffffffffff\n      and\n      0xddf252ad1be2c89b69c2b068fc378daa952ba7f163c4a11628f55a4df523b3ef\n        /* \"lession7.2-Error/TokenContract.sol\":3154:3160  amount */\n      dup5\n        /* \"lession7.2-Error/TokenContract.sol\":3135:3161  Transfer(from, to, amount) */\n      mload(0x40)\n      tag_125\n      swap2\n      swap1\n      tag_36\n      jump\t// in\n    tag_125:\n      mload(0x40)\n      dup1\n      swap2\n      sub\n      swap1\n      log3\n        /* \"lession7.2-Error/TokenContract.sol\":3181:3185  true */\n      0x01\n        /* \"lession7.2-Error/TokenContract.sol\":3174:3185  return true */\n      swap1\n      pop\n        /* \"lession7.2-Error/TokenContract.sol\":2470:3193  function transferFrom(address from,address to,uint amount) public whenNotPaused returns (bool) {... */\n      swap4\n      swap3\n      pop\n      pop\n      pop\n      jump\t// out\n        /* \"lession7.2-Error/TokenContract.sol\":158:179  uint8 public decimals */\n    tag_43:\n      0x02\n      0x00\n      swap1\n      sload\n      swap1\n      0x0100\n      exp\n      swap1\n      div\n      0xff\n      and\n      dup2\n      jump\t// out\n        /* \"lession7.2-Error/TokenContract.sol\":3201:3512  function mint(address to,uint amount) public onlyOwner whenNotPaused {... */\n    tag_48:\n        /* \"lession7.2-Error/TokenContract.sol\":942:952  msg.sender */\n      caller\n        /* \"lession7.2-Error/TokenContract.sol\":933:952  owner == msg.sender */\n      0xffffffffffffffffffffffffffffffffffffffff\n      and\n        /* \"lession7.2-Error/TokenContract.sol\":933:938  owner */\n      0x06\n      0x00\n      swap1\n      sload\n      swap1\n      0x0100\n      exp\n      swap1\n      div\n      0xffffffffffffffffffffffffffffffffffffffff\n      and\n        /* \"lession7.2-Error/TokenContract.sol\":933:952  owner == msg.sender */\n      0xffffffffffffffffffffffffffffffffffffffff\n      and\n      eq\n        /* \"lession7.2-Error/TokenContract.sol\":925:966  require(owner == msg.sender,\"Not Onwer!\") */\n      tag_127\n      jumpi\n      mload(0x40)\n      0x08c379a000000000000000000000000000000000000000000000000000000000\n      dup2\n      mstore\n      0x04\n      add\n      tag_128\n      swap1\n      tag_82\n      jump\t// in\n    tag_128:\n      mload(0x40)\n      dup1\n      swap2\n      sub\n      swap1\n      revert\n    tag_127:\n        /* \"lession7.2-Error/TokenContract.sol\":1039:1045  paused */\n      0x06\n      0x14\n      swap1\n      sload\n      swap1\n      0x0100\n      exp\n      swap1\n      div\n      0xff\n      and\n        /* \"lession7.2-Error/TokenContract.sol\":1038:1045  !paused */\n      iszero\n        /* \"lession7.2-Error/TokenContract.sol\":1030:1068  require(!paused, \"Current is paused!\") */\n      tag_130\n      jumpi\n      mload(0x40)\n      0x08c379a000000000000000000000000000000000000000000000000000000000\n      dup2\n      mstore\n      0x04\n      add\n      tag_131\n      swap1\n      tag_97\n      jump\t// in\n    tag_131:\n      mload(0x40)\n      dup1\n      swap2\n      sub\n      swap1\n      revert\n    tag_130:\n        /* \"lession7.2-Error/TokenContract.sol\":3299:3300  0 */\n      0x00\n        /* \"lession7.2-Error/TokenContract.sol\":3285:3301  to == address(0) */\n      0xffffffffffffffffffffffffffffffffffffffff\n      and\n        /* \"lession7.2-Error/TokenContract.sol\":3285:3287  to */\n      dup3\n        /* \"lession7.2-Error/TokenContract.sol\":3285:3301  to == address(0) */\n      0xffffffffffffffffffffffffffffffffffffffff\n      and\n      sub\n        /* \"lession7.2-Error/TokenContract.sol\":3281:3330  if (to == address(0)) revert InvalidRecipient(to) */\n      tag_133\n      jumpi\n        /* \"lession7.2-Error/TokenContract.sol\":3327:3329  to */\n      dup2\n        /* \"lession7.2-Error/TokenContract.sol\":3310:3330  InvalidRecipient(to) */\n      mload(0x40)\n      0x17858bbe00000000000000000000000000000000000000000000000000000000\n      dup2\n      mstore\n      0x04\n      add\n      tag_134\n      swap2\n      swap1\n      tag_66\n      jump\t// in\n    tag_134:\n      mload(0x40)\n      dup1\n      swap2\n      sub\n      swap1\n      revert\n        /* \"lession7.2-Error/TokenContract.sol\":3281:3330  if (to == address(0)) revert InvalidRecipient(to) */\n    tag_133:\n        /* \"lession7.2-Error/TokenContract.sol\":3355:3356  0 */\n      0x00\n        /* \"lession7.2-Error/TokenContract.sol\":3345:3351  amount */\n      dup2\n        /* \"lession7.2-Error/TokenContract.sol\":3345:3356  amount == 0 */\n      sub\n        /* \"lession7.2-Error/TokenContract.sol\":3341:3386  if (amount == 0) revert InvalidAmount(amount) */\n      tag_135\n      jumpi\n        /* \"lession7.2-Error/TokenContract.sol\":3379:3385  amount */\n      dup1\n        /* \"lession7.2-Error/TokenContract.sol\":3365:3386  InvalidAmount(amount) */\n      mload(0x40)\n      0x3728b83d00000000000000000000000000000000000000000000000000000000\n      dup2\n      mstore\n      0x04\n      add\n      tag_136\n      swap2\n      swap1\n      tag_36\n      jump\t// in\n    tag_136:\n      mload(0x40)\n      dup1\n      swap2\n      sub\n      swap1\n      revert\n        /* \"lession7.2-Error/TokenContract.sol\":3341:3386  if (amount == 0) revert InvalidAmount(amount) */\n    tag_135:\n        /* \"lession7.2-Error/TokenContract.sol\":3414:3420  amount */\n      dup1\n        /* \"lession7.2-Error/TokenContract.sol\":3399:3410  totalSupply */\n      0x03\n      0x00\n        /* \"lession7.2-Error/TokenContract.sol\":3399:3420  totalSupply += amount */\n      dup3\n      dup3\n      sload\n      tag_137\n      swap2\n      swap1\n      tag_123\n      jump\t// in\n    tag_137:\n      swap3\n      pop\n      pop\n      dup2\n      swap1\n      sstore\n      pop\n        /* \"lession7.2-Error/TokenContract.sol\":3448:3454  amount */\n      dup1\n        /* \"lession7.2-Error/TokenContract.sol\":3431:3440  balanceOf */\n      0x04\n        /* \"lession7.2-Error/TokenContract.sol\":3431:3444  balanceOf[to] */\n      0x00\n        /* \"lession7.2-Error/TokenContract.sol\":3441:3443  to */\n      dup5\n        /* \"lession7.2-Error/TokenContract.sol\":3431:3444  balanceOf[to] */\n      0xffffffffffffffffffffffffffffffffffffffff\n      and\n      0xffffffffffffffffffffffffffffffffffffffff\n      and\n      dup2\n      mstore\n      0x20\n      add\n      swap1\n      dup2\n      mstore\n      0x20\n      add\n      0x00\n      keccak256\n      0x00\n        /* \"lession7.2-Error/TokenContract.sol\":3431:3454  balanceOf[to] += amount */\n      dup3\n      dup3\n      sload\n      tag_138\n      swap2\n      swap1\n      tag_123\n      jump\t// in\n    tag_138:\n      swap3\n      pop\n      pop\n      dup2\n      swap1\n      sstore\n      pop\n        /* \"lession7.2-Error/TokenContract.sol\":3493:3495  to */\n      dup2\n        /* \"lession7.2-Error/TokenContract.sol\":3472:3504  Transfer(address(0), to, amount) */\n      0xffffffffffffffffffffffffffffffffffffffff\n      and\n        /* \"lession7.2-Error/TokenContract.sol\":3489:3490  0 */\n      0x00\n        /* \"lession7.2-Error/TokenContract.sol\":3472:3504  Transfer(address(0), to, amount) */\n      0xffffffffffffffffffffffffffffffffffffffff\n      and\n      0xddf252ad1be2c89b69c2b068fc378daa952ba7f163c4a11628f55a4df523b3ef\n        /* \"lession7.2-Error/TokenContract.sol\":3497:3503  amount */\n      dup4\n        /* \"lession7.2-Error/TokenContract.sol\":3472:3504  Transfer(address(0), to, amount) */\n      mload(0x40)\n      tag_139\n      swap2\n      swap1\n      tag_36\n      jump\t// in\n    tag_139:\n      mload(0x40)\n      dup1\n      swap2\n      sub\n      swap1\n      log3\n        /* \"lession7.2-Error/TokenContract.sol\":3201:3512  function mint(address to,uint amount) public onlyOwner whenNotPaused {... */\n      pop\n      pop\n      jump\t// out\n        /* \"lession7.2-Error/TokenContract.sol\":3520:3766  function burn(uint amount) public whenNotPaused {... */\n    tag_52:\n        /* \"lession7.2-Error/TokenContract.sol\":1039:1045  paused */\n      0x06\n      0x14\n      swap1\n      sload\n      swap1\n      0x0100\n      exp\n      swap1\n      div\n      0xff\n      and\n        /* \"lession7.2-Error/TokenContract.sol\":1038:1045  !paused */\n      iszero\n        /* \"lession7.2-Error/TokenContract.sol\":1030:1068  require(!paused, \"Current is paused!\") */\n      tag_141\n      jumpi\n      mload(0x40)\n      0x08c379a000000000000000000000000000000000000000000000000000000000\n      dup2\n      mstore\n      0x04\n      add\n      tag_142\n      swap1\n      tag_97\n      jump\t// in\n    tag_142:\n      mload(0x40)\n      dup1\n      swap2\n      sub\n      swap1\n      revert\n    tag_141:\n        /* \"lession7.2-Error/TokenContract.sol\":3593:3594  0 */\n      0x00\n        /* \"lession7.2-Error/TokenContract.sol\":3583:3589  amount */\n      dup2\n        /* \"lession7.2-Error/TokenContract.sol\":3583:3594  amount == 0 */\n      sub\n        /* \"lession7.2-Error/TokenContract.sol\":3579:3624  if (amount == 0) revert InvalidAmount(amount) */\n      tag_144\n      jumpi\n        /* \"lession7.2-Error/TokenContract.sol\":3617:3623  amount */\n      dup1\n        /* \"lession7.2-Error/TokenContract.sol\":3603:3624  InvalidAmount(amount) */\n      mload(0x40)\n      0x3728b83d00000000000000000000000000000000000000000000000000000000\n      dup2\n      mstore\n      0x04\n      add\n      tag_145\n      swap2\n      swap1\n      tag_36\n      jump\t// in\n    tag_145:\n      mload(0x40)\n      dup1\n      swap2\n      sub\n      swap1\n      revert\n        /* \"lession7.2-Error/TokenContract.sol\":3579:3624  if (amount == 0) revert InvalidAmount(amount) */\n    tag_144:\n        /* \"lession7.2-Error/TokenContract.sol\":3652:3658  amount */\n      dup1\n        /* \"lession7.2-Error/TokenContract.sol\":3637:3648  totalSupply */\n      0x03\n      0x00\n        /* \"lession7.2-Error/TokenContract.sol\":3637:3658  totalSupply -= amount */\n      dup3\n      dup3\n      sload\n      tag_146\n      swap2\n      swap1\n      tag_121\n      jump\t// in\n    tag_146:\n      swap3\n      pop\n      pop\n      dup2\n      swap1\n      sstore\n      pop\n        /* \"lession7.2-Error/TokenContract.sol\":3694:3700  amount */\n      dup1\n        /* \"lession7.2-Error/TokenContract.sol\":3669:3678  balanceOf */\n      0x04\n        /* \"lession7.2-Error/TokenContract.sol\":3669:3690  balanceOf[msg.sender] */\n      0x00\n        /* \"lession7.2-Error/TokenContract.sol\":3679:3689  msg.sender */\n      caller\n        /* \"lession7.2-Error/TokenContract.sol\":3669:3690  balanceOf[msg.sender] */\n      0xffffffffffffffffffffffffffffffffffffffff\n      and\n      0xffffffffffffffffffffffffffffffffffffffff\n      and\n      dup2\n      mstore\n      0x20\n      add\n      swap1\n      dup2\n      mstore\n      0x20\n      add\n      0x00\n      keccak256\n      0x00\n        /* \"lession7.2-Error/TokenContract.sol\":3669:3700  balanceOf[msg.sender] -= amount */\n      dup3\n      dup3\n      sload\n      tag_147\n      swap2\n      swap1\n      tag_121\n      jump\t// in\n    tag_147:\n      swap3\n      pop\n      pop\n      dup2\n      swap1\n      sstore\n      pop\n        /* \"lession7.2-Error/TokenContract.sol\":3739:3749  msg.sender */\n      caller\n        /* \"lession7.2-Error/TokenContract.sol\":3718:3758  Transfer(msg.sender, msg.sender, amount) */\n      0xffffffffffffffffffffffffffffffffffffffff\n      and\n        /* \"lession7.2-Error/TokenContract.sol\":3727:3737  msg.sender */\n      caller\n        /* \"lession7.2-Error/TokenContract.sol\":3718:3758  Transfer(msg.sender, msg.sender, amount) */\n      0xffffffffffffffffffffffffffffffffffffffff\n      and\n      0xddf252ad1be2c89b69c2b068fc378daa952ba7f163c4a11628f55a4df523b3ef\n        /* \"lession7.2-Error/TokenContract.sol\":3751:3757  amount */\n      dup4\n        /* \"lession7.2-Error/TokenContract.sol\":3718:3758  Transfer(msg.sender, msg.sender, amount) */\n      mload(0x40)\n      tag_148\n      swap2\n      swap1\n      tag_36\n      jump\t// in\n    tag_148:\n      mload(0x40)\n      dup1\n      swap2\n      sub\n      swap1\n      log3\n        /* \"lession7.2-Error/TokenContract.sol\":3520:3766  function burn(uint amount) public whenNotPaused {... */\n      pop\n      jump\t// out\n        /* \"lession7.2-Error/TokenContract.sol\":218:260  mapping (address => uint) public balanceOf */\n    tag_56:\n      mstore(0x20, 0x04)\n      dup1\n      0x00\n      mstore\n      keccak256(0x00, 0x40)\n      0x00\n      swap2\n      pop\n      swap1\n      pop\n      sload\n      dup2\n      jump\t// out\n        /* \"lession7.2-Error/TokenContract.sol\":368:403  uint public constant MAX_COUNT = 50 */\n    tag_59:\n        /* \"lession7.2-Error/TokenContract.sol\":401:403  50 */\n      0x32\n        /* \"lession7.2-Error/TokenContract.sol\":368:403  uint public constant MAX_COUNT = 50 */\n      dup2\n      jump\t// out\n        /* \"lession7.2-Error/TokenContract.sol\":3789:3869  function pause() public  onlyOwner whenNotPaused{... */\n    tag_62:\n        /* \"lession7.2-Error/TokenContract.sol\":942:952  msg.sender */\n      caller\n        /* \"lession7.2-Error/TokenContract.sol\":933:952  owner == msg.sender */\n      0xffffffffffffffffffffffffffffffffffffffff\n      and\n        /* \"lession7.2-Error/TokenContract.sol\":933:938  owner */\n      0x06\n      0x00\n      swap1\n      sload\n      swap1\n      0x0100\n      exp\n      swap1\n      div\n      0xffffffffffffffffffffffffffffffffffffffff\n      and\n        /* \"lession7.2-Error/TokenContract.sol\":933:952  owner == msg.sender */\n      0xffffffffffffffffffffffffffffffffffffffff\n      and\n      eq\n        /* \"lession7.2-Error/TokenContract.sol\":925:966  require(owner == msg.sender,\"Not Onwer!\") */\n      tag_150\n      jumpi\n      mload(0x40)\n      0x08c379a000000000000000000000000000000000000000000000000000000000\n      dup2\n      mstore\n      0x04\n      add\n      tag_151\n      swap1\n      tag_82\n      jump\t// in\n    tag_151:\n      mload(0x40)\n      dup1\n      swap2\n      sub\n      swap1\n      revert\n    tag_150:\n        /* \"lession7.2-Error/TokenContract.sol\":1039:1045  paused */\n      0x06\n      0x14\n      swap1\n      sload\n      swap1\n      0x0100\n      exp\n      swap1\n      div\n      0xff\n      and\n        /* \"lession7.2-Error/TokenContract.sol\":1038:1045  !paused */\n      iszero\n        /* \"lession7.2-Error/TokenContract.sol\":1030:1068  require(!paused, \"Current is paused!\") */\n      tag_153\n      jumpi\n      mload(0x40)\n      0x08c379a000000000000000000000000000000000000000000000000000000000\n      dup2\n      mstore\n      0x04\n      add\n      tag_154\n      swap1\n      tag_97\n      jump\t// in\n    tag_154:\n      mload(0x40)\n      dup1\n      swap2\n      sub\n      swap1\n      revert\n    tag_153:\n        /* \"lession7.2-Error/TokenContract.sol\":3857:3861  true */\n      0x01\n        /* \"lession7.2-Error/TokenContract.sol\":3848:3854  paused */\n      0x06\n      0x14\n        /* \"lession7.2-Error/TokenContract.sol\":3848:3861  paused = true */\n      0x0100\n      exp\n      dup2\n      sload\n      dup2\n      0xff\n      mul\n      not\n      and\n      swap1\n      dup4\n      iszero\n      iszero\n      mul\n      or\n      swap1\n      sstore\n      pop\n        /* \"lession7.2-Error/TokenContract.sol\":3789:3869  function pause() public  onlyOwner whenNotPaused{... */\n      jump\t// out\n        /* \"lession7.2-Error/TokenContract.sol\":339:359  address public owner */\n    tag_64:\n      0x06\n      0x00\n      swap1\n      sload\n      swap1\n      0x0100\n      exp\n      swap1\n      div\n      0xffffffffffffffffffffffffffffffffffffffff\n      and\n      dup2\n      jump\t// out\n        /* \"lession7.2-Error/TokenContract.sol\":131:151  string public symbol */\n    tag_68:\n      0x01\n      dup1\n      sload\n      tag_156\n      swap1\n      tag_89\n      jump\t// in\n    tag_156:\n      dup1\n      0x1f\n      add\n      0x20\n      dup1\n      swap2\n      div\n      mul\n      0x20\n      add\n      mload(0x40)\n      swap1\n      dup2\n      add\n      0x40\n      mstore\n      dup1\n      swap3\n      swap2\n      swap1\n      dup2\n      dup2\n      mstore\n      0x20\n      add\n      dup3\n      dup1\n      sload\n      tag_157\n      swap1\n      tag_89\n      jump\t// in\n    tag_157:\n      dup1\n      iszero\n      tag_158\n      jumpi\n      dup1\n      0x1f\n      lt\n      tag_159\n      jumpi\n      0x0100\n      dup1\n      dup4\n      sload\n      div\n      mul\n      dup4\n      mstore\n      swap2\n      0x20\n      add\n      swap2\n      jump(tag_158)\n    tag_159:\n      dup3\n      add\n      swap2\n      swap1\n      0x00\n      mstore\n      keccak256(0x00, 0x20)\n      swap1\n    tag_160:\n      dup2\n      sload\n      dup2\n      mstore\n      swap1\n      0x01\n      add\n      swap1\n      0x20\n      add\n      dup1\n      dup4\n      gt\n      tag_160\n      jumpi\n      dup3\n      swap1\n      sub\n      0x1f\n      and\n      dup3\n      add\n      swap2\n    tag_158:\n      pop\n      pop\n      pop\n      pop\n      pop\n      dup2\n      jump\t// out\n        /* \"lession7.2-Error/TokenContract.sol\":1615:2107  function transfer(address to,uint amount) public whenNotPaused returns (bool) {... */\n    tag_72:\n        /* \"lession7.2-Error/TokenContract.sol\":1687:1691  bool */\n      0x00\n        /* \"lession7.2-Error/TokenContract.sol\":1039:1045  paused */\n      0x06\n      0x14\n      swap1\n      sload\n      swap1\n      0x0100\n      exp\n      swap1\n      div\n      0xff\n      and\n        /* \"lession7.2-Error/TokenContract.sol\":1038:1045  !paused */\n      iszero\n        /* \"lession7.2-Error/TokenContract.sol\":1030:1068  require(!paused, \"Current is paused!\") */\n      tag_162\n      jumpi\n      mload(0x40)\n      0x08c379a000000000000000000000000000000000000000000000000000000000\n      dup2\n      mstore\n      0x04\n      add\n      tag_163\n      swap1\n      tag_97\n      jump\t// in\n    tag_163:\n      mload(0x40)\n      dup1\n      swap2\n      sub\n      swap1\n      revert\n    tag_162:\n        /* \"lession7.2-Error/TokenContract.sol\":1722:1723  0 */\n      0x00\n        /* \"lession7.2-Error/TokenContract.sol\":1708:1724  to == address(0) */\n      0xffffffffffffffffffffffffffffffffffffffff\n      and\n        /* \"lession7.2-Error/TokenContract.sol\":1708:1710  to */\n      dup4\n        /* \"lession7.2-Error/TokenContract.sol\":1708:1724  to == address(0) */\n      0xffffffffffffffffffffffffffffffffffffffff\n      and\n      sub\n        /* \"lession7.2-Error/TokenContract.sol\":1704:1753  if (to == address(0)) revert InvalidRecipient(to) */\n      tag_165\n      jumpi\n        /* \"lession7.2-Error/TokenContract.sol\":1750:1752  to */\n      dup3\n        /* \"lession7.2-Error/TokenContract.sol\":1733:1753  InvalidRecipient(to) */\n      mload(0x40)\n      0x17858bbe00000000000000000000000000000000000000000000000000000000\n      dup2\n      mstore\n      0x04\n      add\n      tag_166\n      swap2\n      swap1\n      tag_66\n      jump\t// in\n    tag_166:\n      mload(0x40)\n      dup1\n      swap2\n      sub\n      swap1\n      revert\n        /* \"lession7.2-Error/TokenContract.sol\":1704:1753  if (to == address(0)) revert InvalidRecipient(to) */\n    tag_165:\n        /* \"lession7.2-Error/TokenContract.sol\":1778:1779  0 */\n      0x00\n        /* \"lession7.2-Error/TokenContract.sol\":1768:1774  amount */\n      dup3\n        /* \"lession7.2-Error/TokenContract.sol\":1768:1779  amount == 0 */\n      sub\n        /* \"lession7.2-Error/TokenContract.sol\":1764:1809  if (amount == 0) revert InvalidAmount(amount) */\n      tag_167\n      jumpi\n        /* \"lession7.2-Error/TokenContract.sol\":1802:1808  amount */\n      dup2\n        /* \"lession7.2-Error/TokenContract.sol\":1788:1809  InvalidAmount(amount) */\n      mload(0x40)\n      0x3728b83d00000000000000000000000000000000000000000000000000000000\n      dup2\n      mstore\n      0x04\n      add\n      tag_168\n      swap2\n      swap1\n      tag_36\n      jump\t// in\n    tag_168:\n      mload(0x40)\n      dup1\n      swap2\n      sub\n      swap1\n      revert\n        /* \"lession7.2-Error/TokenContract.sol\":1764:1809  if (amount == 0) revert InvalidAmount(amount) */\n    tag_167:\n        /* \"lession7.2-Error/TokenContract.sol\":1820:1835  address account */\n      0x00\n        /* \"lession7.2-Error/TokenContract.sol\":1838:1848  msg.sender */\n      caller\n        /* \"lession7.2-Error/TokenContract.sol\":1820:1848  address account = msg.sender */\n      swap1\n      pop\n        /* \"lession7.2-Error/TokenContract.sol\":1884:1890  amount */\n      dup3\n        /* \"lession7.2-Error/TokenContract.sol\":1863:1872  balanceOf */\n      0x04\n        /* \"lession7.2-Error/TokenContract.sol\":1863:1881  balanceOf[account] */\n      0x00\n        /* \"lession7.2-Error/TokenContract.sol\":1873:1880  account */\n      dup4\n        /* \"lession7.2-Error/TokenContract.sol\":1863:1881  balanceOf[account] */\n      0xffffffffffffffffffffffffffffffffffffffff\n      and\n      0xffffffffffffffffffffffffffffffffffffffff\n      and\n      dup2\n      mstore\n      0x20\n      add\n      swap1\n      dup2\n      mstore\n      0x20\n      add\n      0x00\n      keccak256\n      sload\n        /* \"lession7.2-Error/TokenContract.sol\":1863:1890  balanceOf[account] < amount */\n      lt\n        /* \"lession7.2-Error/TokenContract.sol\":1859:1953  if (balanceOf[account] < amount) revert InsufficientBalance(account,balanceOf[account],amount) */\n      iszero\n      tag_169\n      jumpi\n        /* \"lession7.2-Error/TokenContract.sol\":1919:1926  account */\n      dup1\n        /* \"lession7.2-Error/TokenContract.sol\":1927:1936  balanceOf */\n      0x04\n        /* \"lession7.2-Error/TokenContract.sol\":1927:1945  balanceOf[account] */\n      0x00\n        /* \"lession7.2-Error/TokenContract.sol\":1937:1944  account */\n      dup4\n        /* \"lession7.2-Error/TokenContract.sol\":1927:1945  balanceOf[account] */\n      0xffffffffffffffffffffffffffffffffffffffff\n      and\n      0xffffffffffffffffffffffffffffffffffffffff\n      and\n      dup2\n      mstore\n      0x20\n      add\n      swap1\n      dup2\n      mstore\n      0x20\n      add\n      0x00\n      keccak256\n      sload\n        /* \"lession7.2-Error/TokenContract.sol\":1946:1952  amount */\n      dup5\n        /* \"lession7.2-Error/TokenContract.sol\":1899:1953  InsufficientBalance(account,balanceOf[account],amount) */\n      mload(0x40)\n      0xdb42144d00000000000000000000000000000000000000000000000000000000\n      dup2\n      mstore\n      0x04\n      add\n      tag_170\n      swap4\n      swap3\n      swap2\n      swap1\n      tag_116\n      jump\t// in\n    tag_170:\n      mload(0x40)\n      dup1\n      swap2\n      sub\n      swap1\n      revert\n        /* \"lession7.2-Error/TokenContract.sol\":1859:1953  if (balanceOf[account] < amount) revert InsufficientBalance(account,balanceOf[account],amount) */\n    tag_169:\n        /* \"lession7.2-Error/TokenContract.sol\":1988:1994  amount */\n      dup3\n        /* \"lession7.2-Error/TokenContract.sol\":1966:1975  balanceOf */\n      0x04\n        /* \"lession7.2-Error/TokenContract.sol\":1966:1984  balanceOf[account] */\n      0x00\n        /* \"lession7.2-Error/TokenContract.sol\":1976:1983  account */\n      dup4\n        /* \"lession7.2-Error/TokenContract.sol\":1966:1984  balanceOf[account] */\n      0xffffffffffffffffffffffffffffffffffffffff\n      and\n      0xffffffffffffffffffffffffffffffffffffffff\n      and\n      dup2\n      mstore\n      0x20\n      add\n      swap1\n      dup2\n      mstore\n      0x20\n      add\n      0x00\n      keccak256\n      0x00\n        /* \"lession7.2-Error/TokenContract.sol\":1966:1994  balanceOf[account] -= amount */\n      dup3\n      dup3\n      sload\n      tag_171\n      swap2\n      swap1\n      tag_121\n      jump\t// in\n    tag_171:\n      swap3\n      pop\n      pop\n      dup2\n      swap1\n      sstore\n      pop\n        /* \"lession7.2-Error/TokenContract.sol\":2022:2028  amount */\n      dup3\n        /* \"lession7.2-Error/TokenContract.sol\":2005:2014  balanceOf */\n      0x04\n        /* \"lession7.2-Error/TokenContract.sol\":2005:2018  balanceOf[to] */\n      0x00\n        /* \"lession7.2-Error/TokenContract.sol\":2015:2017  to */\n      dup7\n        /* \"lession7.2-Error/TokenContract.sol\":2005:2018  balanceOf[to] */\n      0xffffffffffffffffffffffffffffffffffffffff\n      and\n      0xffffffffffffffffffffffffffffffffffffffff\n      and\n      dup2\n      mstore\n      0x20\n      add\n      swap1\n      dup2\n      mstore\n      0x20\n      add\n      0x00\n      keccak256\n      0x00\n        /* \"lession7.2-Error/TokenContract.sol\":2005:2028  balanceOf[to] += amount */\n      dup3\n      dup3\n      sload\n      tag_172\n      swap2\n      swap1\n      tag_123\n      jump\t// in\n    tag_172:\n      swap3\n      pop\n      pop\n      dup2\n      swap1\n      sstore\n      pop\n        /* \"lession7.2-Error/TokenContract.sol\":2064:2066  to */\n      dup4\n        /* \"lession7.2-Error/TokenContract.sol\":2046:2075  Transfer(account, to, amount) */\n      0xffffffffffffffffffffffffffffffffffffffff\n      and\n        /* \"lession7.2-Error/TokenContract.sol\":2055:2062  account */\n      dup2\n        /* \"lession7.2-Error/TokenContract.sol\":2046:2075  Transfer(account, to, amount) */\n      0xffffffffffffffffffffffffffffffffffffffff\n      and\n      0xddf252ad1be2c89b69c2b068fc378daa952ba7f163c4a11628f55a4df523b3ef\n        /* \"lession7.2-Error/TokenContract.sol\":2068:2074  amount */\n      dup6\n        /* \"lession7.2-Error/TokenContract.sol\":2046:2075  Transfer(account, to, amount) */\n      mload(0x40)\n      tag_173\n      swap2\n      swap1\n      tag_36\n      jump\t// in\n    tag_173:\n      mload(0x40)\n      dup1\n      swap2\n      sub\n      swap1\n      log3\n        /* \"lession7.2-Error/TokenContract.sol\":2095:2099  true */\n      0x01\n        /* \"lession7.2-Error/TokenContract.sol\":2088:2099  return true */\n      swap2\n      pop\n      pop\n        /* \"lession7.2-Error/TokenContract.sol\":1615:2107  function transfer(address to,uint amount) public whenNotPaused returns (bool) {... */\n      swap3\n      swap2\n      pop\n      pop\n      jump\t// out\n        /* \"lession7.2-Error/TokenContract.sol\":267:330  mapping (address => mapping (address => uint)) public allowance */\n    tag_77:\n      mstore(0x20, 0x05)\n      dup2\n      0x00\n      mstore\n      mstore(0x20, keccak256(0x00, 0x40))\n      dup1\n      0x00\n      mstore\n      keccak256(0x00, 0x40)\n      0x00\n      swap2\n      pop\n      swap2\n      pop\n      pop\n      sload\n      dup2\n      jump\t// out\n        /* \"#utility.yul\":7:106   */\n    tag_174:\n        /* \"#utility.yul\":59:65   */\n      0x00\n        /* \"#utility.yul\":93:98   */\n      dup2\n        /* \"#utility.yul\":87:99   */\n      mload\n        /* \"#utility.yul\":77:99   */\n      swap1\n      pop\n        /* \"#utility.yul\":7:106   */\n      swap2\n      swap1\n      pop\n      jump\t// out\n        /* \"#utility.yul\":112:281   */\n    tag_175:\n        /* \"#utility.yul\":196:207   */\n      0x00\n        /* \"#utility.yul\":230:236   */\n      dup3\n        /* \"#utility.yul\":225:228   */\n      dup3\n        /* \"#utility.yul\":218:237   */\n      mstore\n        /* \"#utility.yul\":270:274   */\n      0x20\n        /* \"#utility.yul\":265:268   */\n      dup3\n        /* \"#utility.yul\":261:275   */\n      add\n        /* \"#utility.yul\":246:275   */\n      swap1\n      pop\n        /* \"#utility.yul\":112:281   */\n      swap3\n      swap2\n      pop\n      pop\n      jump\t// out\n        /* \"#utility.yul\":287:426   */\n    tag_176:\n        /* \"#utility.yul\":376:382   */\n      dup3\n        /* \"#utility.yul\":371:374   */\n      dup2\n        /* \"#utility.yul\":366:369   */\n      dup4\n        /* \"#utility.yul\":360:383   */\n      mcopy\n        /* \"#utility.yul\":417:418   */\n      0x00\n        /* \"#utility.yul\":408:414   */\n      dup4\n        /* \"#utility.yul\":403:406   */\n      dup4\n        /* \"#utility.yul\":399:415   */\n      add\n        /* \"#utility.yul\":392:419   */\n      mstore\n        /* \"#utility.yul\":287:426   */\n      pop\n      pop\n      pop\n      jump\t// out\n        /* \"#utility.yul\":432:534   */\n    tag_177:\n        /* \"#utility.yul\":473:479   */\n      0x00\n        /* \"#utility.yul\":524:526   */\n      0x1f\n        /* \"#utility.yul\":520:527   */\n      not\n        /* \"#utility.yul\":515:517   */\n      0x1f\n        /* \"#utility.yul\":508:513   */\n      dup4\n        /* \"#utility.yul\":504:518   */\n      add\n        /* \"#utility.yul\":500:528   */\n      and\n        /* \"#utility.yul\":490:528   */\n      swap1\n      pop\n        /* \"#utility.yul\":432:534   */\n      swap2\n      swap1\n      pop\n      jump\t// out\n        /* \"#utility.yul\":540:917   */\n    tag_178:\n        /* \"#utility.yul\":628:631   */\n      0x00\n        /* \"#utility.yul\":656:695   */\n      tag_209\n        /* \"#utility.yul\":689:694   */\n      dup3\n        /* \"#utility.yul\":656:695   */\n      tag_174\n      jump\t// in\n    tag_209:\n        /* \"#utility.yul\":711:782   */\n      tag_210\n        /* \"#utility.yul\":775:781   */\n      dup2\n        /* \"#utility.yul\":770:773   */\n      dup6\n        /* \"#utility.yul\":711:782   */\n      tag_175\n      jump\t// in\n    tag_210:\n        /* \"#utility.yul\":704:782   */\n      swap4\n      pop\n        /* \"#utility.yul\":791:856   */\n      tag_211\n        /* \"#utility.yul\":849:855   */\n      dup2\n        /* \"#utility.yul\":844:847   */\n      dup6\n        /* \"#utility.yul\":837:841   */\n      0x20\n        /* \"#utility.yul\":830:835   */\n      dup7\n        /* \"#utility.yul\":826:842   */\n      add\n        /* \"#utility.yul\":791:856   */\n      tag_176\n      jump\t// in\n    tag_211:\n        /* \"#utility.yul\":881:910   */\n      tag_212\n        /* \"#utility.yul\":903:909   */\n      dup2\n        /* \"#utility.yul\":881:910   */\n      tag_177\n      jump\t// in\n    tag_212:\n        /* \"#utility.yul\":876:879   */\n      dup5\n        /* \"#utility.yul\":872:911   */\n      add\n        /* \"#utility.yul\":865:911   */\n      swap2\n      pop\n        /* \"#utility.yul\":632:917   */\n      pop\n        /* \"#utility.yul\":540:917   */\n      swap3\n      swap2\n      pop\n      pop\n      jump\t// out\n        /* \"#utility.yul\":923:1236   */\n    tag_26:\n        /* \"#utility.yul\":1036:1040   */\n      0x00\n        /* \"#utility.yul\":1074:1076   */\n      0x20\n        /* \"#utility.yul\":1063:1072   */\n      dup3\n        /* \"#utility.yul\":1059:1077   */\n      add\n        /* \"#utility.yul\":1051:1077   */\n      swap1\n      pop\n        /* \"#utility.yul\":1123:1132   */\n      dup2\n        /* \"#utility.yul\":1117:1121   */\n      dup2\n        /* \"#utility.yul\":1113:1133   */\n      sub\n        /* \"#utility.yul\":1109:1110   */\n      0x00\n        /* \"#utility.yul\":1098:1107   */\n      dup4\n        /* \"#utility.yul\":1094:1111   */\n      add\n        /* \"#utility.yul\":1087:1134   */\n      mstore\n        /* \"#utility.yul\":1151:1229   */\n      tag_214\n        /* \"#utility.yul\":1224:1228   */\n      dup2\n        /* \"#utility.yul\":1215:1221   */\n      dup5\n        /* \"#utility.yul\":1151:1229   */\n      tag_178\n      jump\t// in\n    tag_214:\n        /* \"#utility.yul\":1143:1229   */\n      swap1\n      pop\n        /* \"#utility.yul\":923:1236   */\n      swap3\n      swap2\n      pop\n      pop\n      jump\t// out\n        /* \"#utility.yul\":1323:1440   */\n    tag_180:\n        /* \"#utility.yul\":1432:1433   */\n      0x00\n        /* \"#utility.yul\":1429:1430   */\n      0x00\n        /* \"#utility.yul\":1422:1434   */\n      revert\n        /* \"#utility.yul\":1569:1695   */\n    tag_182:\n        /* \"#utility.yul\":1606:1613   */\n      0x00\n        /* \"#utility.yul\":1646:1688   */\n      0xffffffffffffffffffffffffffffffffffffffff\n        /* \"#utility.yul\":1639:1644   */\n      dup3\n        /* \"#utility.yul\":1635:1689   */\n      and\n        /* \"#utility.yul\":1624:1689   */\n      swap1\n      pop\n        /* \"#utility.yul\":1569:1695   */\n      swap2\n      swap1\n      pop\n      jump\t// out\n        /* \"#utility.yul\":1701:1797   */\n    tag_183:\n        /* \"#utility.yul\":1738:1745   */\n      0x00\n        /* \"#utility.yul\":1767:1791   */\n      tag_220\n        /* \"#utility.yul\":1785:1790   */\n      dup3\n        /* \"#utility.yul\":1767:1791   */\n      tag_182\n      jump\t// in\n    tag_220:\n        /* \"#utility.yul\":1756:1791   */\n      swap1\n      pop\n        /* \"#utility.yul\":1701:1797   */\n      swap2\n      swap1\n      pop\n      jump\t// out\n        /* \"#utility.yul\":1803:1925   */\n    tag_184:\n        /* \"#utility.yul\":1876:1900   */\n      tag_222\n        /* \"#utility.yul\":1894:1899   */\n      dup2\n        /* \"#utility.yul\":1876:1900   */\n      tag_183\n      jump\t// in\n    tag_222:\n        /* \"#utility.yul\":1869:1874   */\n      dup2\n        /* \"#utility.yul\":1866:1901   */\n      eq\n        /* \"#utility.yul\":1856:1919   */\n      tag_223\n      jumpi\n        /* \"#utility.yul\":1915:1916   */\n      0x00\n        /* \"#utility.yul\":1912:1913   */\n      0x00\n        /* \"#utility.yul\":1905:1917   */\n      revert\n        /* \"#utility.yul\":1856:1919   */\n    tag_223:\n        /* \"#utility.yul\":1803:1925   */\n      pop\n      jump\t// out\n        /* \"#utility.yul\":1931:2070   */\n    tag_185:\n        /* \"#utility.yul\":1977:1982   */\n      0x00\n        /* \"#utility.yul\":2015:2021   */\n      dup2\n        /* \"#utility.yul\":2002:2022   */\n      calldataload\n        /* \"#utility.yul\":1993:2022   */\n      swap1\n      pop\n        /* \"#utility.yul\":2031:2064   */\n      tag_225\n        /* \"#utility.yul\":2058:2063   */\n      dup2\n        /* \"#utility.yul\":2031:2064   */\n      tag_184\n      jump\t// in\n    tag_225:\n        /* \"#utility.yul\":1931:2070   */\n      swap3\n      swap2\n      pop\n      pop\n      jump\t// out\n        /* \"#utility.yul\":2076:2153   */\n    tag_186:\n        /* \"#utility.yul\":2113:2120   */\n      0x00\n        /* \"#utility.yul\":2142:2147   */\n      dup2\n        /* \"#utility.yul\":2131:2147   */\n      swap1\n      pop\n        /* \"#utility.yul\":2076:2153   */\n      swap2\n      swap1\n      pop\n      jump\t// out\n        /* \"#utility.yul\":2159:2281   */\n    tag_187:\n        /* \"#utility.yul\":2232:2256   */\n      tag_228\n        /* \"#utility.yul\":2250:2255   */\n      dup2\n        /* \"#utility.yul\":2232:2256   */\n      tag_186\n      jump\t// in\n    tag_228:\n        /* \"#utility.yul\":2225:2230   */\n      dup2\n        /* \"#utility.yul\":2222:2257   */\n      eq\n        /* \"#utility.yul\":2212:2275   */\n      tag_229\n      jumpi\n        /* \"#utility.yul\":2271:2272   */\n      0x00\n        /* \"#utility.yul\":2268:2269   */\n      0x00\n        /* \"#utility.yul\":2261:2273   */\n      revert\n        /* \"#utility.yul\":2212:2275   */\n    tag_229:\n        /* \"#utility.yul\":2159:2281   */\n      pop\n      jump\t// out\n        /* \"#utility.yul\":2287:2426   */\n    tag_188:\n        /* \"#utility.yul\":2333:2338   */\n      0x00\n        /* \"#utility.yul\":2371:2377   */\n      dup2\n        /* \"#utility.yul\":2358:2378   */\n      calldataload\n        /* \"#utility.yul\":2349:2378   */\n      swap1\n      pop\n        /* \"#utility.yul\":2387:2420   */\n      tag_231\n        /* \"#utility.yul\":2414:2419   */\n      dup2\n        /* \"#utility.yul\":2387:2420   */\n      tag_187\n      jump\t// in\n    tag_231:\n        /* \"#utility.yul\":2287:2426   */\n      swap3\n      swap2\n      pop\n      pop\n      jump\t// out\n        /* \"#utility.yul\":2432:2906   */\n    tag_29:\n        /* \"#utility.yul\":2500:2506   */\n      0x00\n        /* \"#utility.yul\":2508:2514   */\n      0x00\n        /* \"#utility.yul\":2557:2559   */\n      0x40\n        /* \"#utility.yul\":2545:2554   */\n      dup4\n        /* \"#utility.yul\":2536:2543   */\n      dup6\n        /* \"#utility.yul\":2532:2555   */\n      sub\n        /* \"#utility.yul\":2528:2560   */\n      slt\n        /* \"#utility.yul\":2525:2644   */\n      iszero\n      tag_233\n      jumpi\n        /* \"#utility.yul\":2563:2642   */\n      tag_234\n      tag_180\n      jump\t// in\n    tag_234:\n        /* \"#utility.yul\":2525:2644   */\n    tag_233:\n        /* \"#utility.yul\":2683:2684   */\n      0x00\n        /* \"#utility.yul\":2708:2761   */\n      tag_235\n        /* \"#utility.yul\":2753:2760   */\n      dup6\n        /* \"#utility.yul\":2744:2750   */\n      dup3\n        /* \"#utility.yul\":2733:2742   */\n      dup7\n        /* \"#utility.yul\":2729:2751   */\n      add\n        /* \"#utility.yul\":2708:2761   */\n      tag_185\n      jump\t// in\n    tag_235:\n        /* \"#utility.yul\":2698:2761   */\n      swap3\n      pop\n        /* \"#utility.yul\":2654:2771   */\n      pop\n        /* \"#utility.yul\":2810:2812   */\n      0x20\n        /* \"#utility.yul\":2836:2889   */\n      tag_236\n        /* \"#utility.yul\":2881:2888   */\n      dup6\n        /* \"#utility.yul\":2872:2878   */\n      dup3\n        /* \"#utility.yul\":2861:2870   */\n      dup7\n        /* \"#utility.yul\":2857:2879   */\n      add\n        /* \"#utility.yul\":2836:2889   */\n      tag_188\n      jump\t// in\n    tag_236:\n        /* \"#utility.yul\":2826:2889   */\n      swap2\n      pop\n        /* \"#utility.yul\":2781:2899   */\n      pop\n        /* \"#utility.yul\":2432:2906   */\n      swap3\n      pop\n      swap3\n      swap1\n      pop\n      jump\t// out\n        /* \"#utility.yul\":2912:3002   */\n    tag_189:\n        /* \"#utility.yul\":2946:2953   */\n      0x00\n        /* \"#utility.yul\":2989:2994   */\n      dup2\n        /* \"#utility.yul\":2982:2995   */\n      iszero\n        /* \"#utility.yul\":2975:2996   */\n      iszero\n        /* \"#utility.yul\":2964:2996   */\n      swap1\n      pop\n        /* \"#utility.yul\":2912:3002   */\n      swap2\n      swap1\n      pop\n      jump\t// out\n        /* \"#utility.yul\":3008:3117   */\n    tag_190:\n        /* \"#utility.yul\":3089:3110   */\n      tag_239\n        /* \"#utility.yul\":3104:3109   */\n      dup2\n        /* \"#utility.yul\":3089:3110   */\n      tag_189\n      jump\t// in\n    tag_239:\n        /* \"#utility.yul\":3084:3087   */\n      dup3\n        /* \"#utility.yul\":3077:3111   */\n      mstore\n        /* \"#utility.yul\":3008:3117   */\n      pop\n      pop\n      jump\t// out\n        /* \"#utility.yul\":3123:3333   */\n    tag_32:\n        /* \"#utility.yul\":3210:3214   */\n      0x00\n        /* \"#utility.yul\":3248:3250   */\n      0x20\n        /* \"#utility.yul\":3237:3246   */\n      dup3\n        /* \"#utility.yul\":3233:3251   */\n      add\n        /* \"#utility.yul\":3225:3251   */\n      swap1\n      pop\n        /* \"#utility.yul\":3261:3326   */\n      tag_241\n        /* \"#utility.yul\":3323:3324   */\n      0x00\n        /* \"#utility.yul\":3312:3321   */\n      dup4\n        /* \"#utility.yul\":3308:3325   */\n      add\n        /* \"#utility.yul\":3299:3305   */\n      dup5\n        /* \"#utility.yul\":3261:3326   */\n      tag_190\n      jump\t// in\n    tag_241:\n        /* \"#utility.yul\":3123:3333   */\n      swap3\n      swap2\n      pop\n      pop\n      jump\t// out\n        /* \"#utility.yul\":3339:3457   */\n    tag_191:\n        /* \"#utility.yul\":3426:3450   */\n      tag_243\n        /* \"#utility.yul\":3444:3449   */\n      dup2\n        /* \"#utility.yul\":3426:3450   */\n      tag_186\n      jump\t// in\n    tag_243:\n        /* \"#utility.yul\":3421:3424   */\n      dup3\n        /* \"#utility.yul\":3414:3451   */\n      mstore\n        /* \"#utility.yul\":3339:3457   */\n      pop\n      pop\n      jump\t// out\n        /* \"#utility.yul\":3463:3685   */\n    tag_36:\n        /* \"#utility.yul\":3556:3560   */\n      0x00\n        /* \"#utility.yul\":3594:3596   */\n      0x20\n        /* \"#utility.yul\":3583:3592   */\n      dup3\n        /* \"#utility.yul\":3579:3597   */\n      add\n        /* \"#utility.yul\":3571:3597   */\n      swap1\n      pop\n        /* \"#utility.yul\":3607:3678   */\n      tag_245\n        /* \"#utility.yul\":3675:3676   */\n      0x00\n        /* \"#utility.yul\":3664:3673   */\n      dup4\n        /* \"#utility.yul\":3660:3677   */\n      add\n        /* \"#utility.yul\":3651:3657   */\n      dup5\n        /* \"#utility.yul\":3607:3678   */\n      tag_191\n      jump\t// in\n    tag_245:\n        /* \"#utility.yul\":3463:3685   */\n      swap3\n      swap2\n      pop\n      pop\n      jump\t// out\n        /* \"#utility.yul\":3691:4310   */\n    tag_39:\n        /* \"#utility.yul\":3768:3774   */\n      0x00\n        /* \"#utility.yul\":3776:3782   */\n      0x00\n        /* \"#utility.yul\":3784:3790   */\n      0x00\n        /* \"#utility.yul\":3833:3835   */\n      0x60\n        /* \"#utility.yul\":3821:3830   */\n      dup5\n        /* \"#utility.yul\":3812:3819   */\n      dup7\n        /* \"#utility.yul\":3808:3831   */\n      sub\n        /* \"#utility.yul\":3804:3836   */\n      slt\n        /* \"#utility.yul\":3801:3920   */\n      iszero\n      tag_247\n      jumpi\n        /* \"#utility.yul\":3839:3918   */\n      tag_248\n      tag_180\n      jump\t// in\n    tag_248:\n        /* \"#utility.yul\":3801:3920   */\n    tag_247:\n        /* \"#utility.yul\":3959:3960   */\n      0x00\n        /* \"#utility.yul\":3984:4037   */\n      tag_249\n        /* \"#utility.yul\":4029:4036   */\n      dup7\n        /* \"#utility.yul\":4020:4026   */\n      dup3\n        /* \"#utility.yul\":4009:4018   */\n      dup8\n        /* \"#utility.yul\":4005:4027   */\n      add\n        /* \"#utility.yul\":3984:4037   */\n      tag_185\n      jump\t// in\n    tag_249:\n        /* \"#utility.yul\":3974:4037   */\n      swap4\n      pop\n        /* \"#utility.yul\":3930:4047   */\n      pop\n        /* \"#utility.yul\":4086:4088   */\n      0x20\n        /* \"#utility.yul\":4112:4165   */\n      tag_250\n        /* \"#utility.yul\":4157:4164   */\n      dup7\n        /* \"#utility.yul\":4148:4154   */\n      dup3\n        /* \"#utility.yul\":4137:4146   */\n      dup8\n        /* \"#utility.yul\":4133:4155   */\n      add\n        /* \"#utility.yul\":4112:4165   */\n      tag_185\n      jump\t// in\n    tag_250:\n        /* \"#utility.yul\":4102:4165   */\n      swap3\n      pop\n        /* \"#utility.yul\":4057:4175   */\n      pop\n        /* \"#utility.yul\":4214:4216   */\n      0x40\n        /* \"#utility.yul\":4240:4293   */\n      tag_251\n        /* \"#utility.yul\":4285:4292   */\n      dup7\n        /* \"#utility.yul\":4276:4282   */\n      dup3\n        /* \"#utility.yul\":4265:4274   */\n      dup8\n        /* \"#utility.yul\":4261:4283   */\n      add\n        /* \"#utility.yul\":4240:4293   */\n      tag_188\n      jump\t// in\n    tag_251:\n        /* \"#utility.yul\":4230:4293   */\n      swap2\n      pop\n        /* \"#utility.yul\":4185:4303   */\n      pop\n        /* \"#utility.yul\":3691:4310   */\n      swap3\n      pop\n      swap3\n      pop\n      swap3\n      jump\t// out\n        /* \"#utility.yul\":4316:4402   */\n    tag_192:\n        /* \"#utility.yul\":4351:4358   */\n      0x00\n        /* \"#utility.yul\":4391:4395   */\n      0xff\n        /* \"#utility.yul\":4384:4389   */\n      dup3\n        /* \"#utility.yul\":4380:4396   */\n      and\n        /* \"#utility.yul\":4369:4396   */\n      swap1\n      pop\n        /* \"#utility.yul\":4316:4402   */\n      swap2\n      swap1\n      pop\n      jump\t// out\n        /* \"#utility.yul\":4408:4520   */\n    tag_193:\n        /* \"#utility.yul\":4491:4513   */\n      tag_254\n        /* \"#utility.yul\":4507:4512   */\n      dup2\n        /* \"#utility.yul\":4491:4513   */\n      tag_192\n      jump\t// in\n    tag_254:\n        /* \"#utility.yul\":4486:4489   */\n      dup3\n        /* \"#utility.yul\":4479:4514   */\n      mstore\n        /* \"#utility.yul\":4408:4520   */\n      pop\n      pop\n      jump\t// out\n        /* \"#utility.yul\":4526:4740   */\n    tag_45:\n        /* \"#utility.yul\":4615:4619   */\n      0x00\n        /* \"#utility.yul\":4653:4655   */\n      0x20\n        /* \"#utility.yul\":4642:4651   */\n      dup3\n        /* \"#utility.yul\":4638:4656   */\n      add\n        /* \"#utility.yul\":4630:4656   */\n      swap1\n      pop\n        /* \"#utility.yul\":4666:4733   */\n      tag_256\n        /* \"#utility.yul\":4730:4731   */\n      0x00\n        /* \"#utility.yul\":4719:4728   */\n      dup4\n        /* \"#utility.yul\":4715:4732   */\n      add\n        /* \"#utility.yul\":4706:4712   */\n      dup5\n        /* \"#utility.yul\":4666:4733   */\n      tag_193\n      jump\t// in\n    tag_256:\n        /* \"#utility.yul\":4526:4740   */\n      swap3\n      swap2\n      pop\n      pop\n      jump\t// out\n        /* \"#utility.yul\":4746:5075   */\n    tag_51:\n        /* \"#utility.yul\":4805:4811   */\n      0x00\n        /* \"#utility.yul\":4854:4856   */\n      0x20\n        /* \"#utility.yul\":4842:4851   */\n      dup3\n        /* \"#utility.yul\":4833:4840   */\n      dup5\n        /* \"#utility.yul\":4829:4852   */\n      sub\n        /* \"#utility.yul\":4825:4857   */\n      slt\n        /* \"#utility.yul\":4822:4941   */\n      iszero\n      tag_258\n      jumpi\n        /* \"#utility.yul\":4860:4939   */\n      tag_259\n      tag_180\n      jump\t// in\n    tag_259:\n        /* \"#utility.yul\":4822:4941   */\n    tag_258:\n        /* \"#utility.yul\":4980:4981   */\n      0x00\n        /* \"#utility.yul\":5005:5058   */\n      tag_260\n        /* \"#utility.yul\":5050:5057   */\n      dup5\n        /* \"#utility.yul\":5041:5047   */\n      dup3\n        /* \"#utility.yul\":5030:5039   */\n      dup6\n        /* \"#utility.yul\":5026:5048   */\n      add\n        /* \"#utility.yul\":5005:5058   */\n      tag_188\n      jump\t// in\n    tag_260:\n        /* \"#utility.yul\":4995:5058   */\n      swap2\n      pop\n        /* \"#utility.yul\":4951:5068   */\n      pop\n        /* \"#utility.yul\":4746:5075   */\n      swap3\n      swap2\n      pop\n      pop\n      jump\t// out\n        /* \"#utility.yul\":5081:5410   */\n    tag_55:\n        /* \"#utility.yul\":5140:5146   */\n      0x00\n        /* \"#utility.yul\":5189:5191   */\n      0x20\n        /* \"#utility.yul\":5177:5186   */\n      dup3\n        /* \"#utility.yul\":5168:5175   */\n      dup5\n        /* \"#utility.yul\":5164:5187   */\n      sub\n        /* \"#utility.yul\":5160:5192   */\n      slt\n        /* \"#utility.yul\":5157:5276   */\n      iszero\n      tag_262\n      jumpi\n        /* \"#utility.yul\":5195:5274   */\n      tag_263\n      tag_180\n      jump\t// in\n    tag_263:\n        /* \"#utility.yul\":5157:5276   */\n    tag_262:\n        /* \"#utility.yul\":5315:5316   */\n      0x00\n        /* \"#utility.yul\":5340:5393   */\n      tag_264\n        /* \"#utility.yul\":5385:5392   */\n      dup5\n        /* \"#utility.yul\":5376:5382   */\n      dup3\n        /* \"#utility.yul\":5365:5374   */\n      dup6\n        /* \"#utility.yul\":5361:5383   */\n      add\n        /* \"#utility.yul\":5340:5393   */\n      tag_185\n      jump\t// in\n    tag_264:\n        /* \"#utility.yul\":5330:5393   */\n      swap2\n      pop\n        /* \"#utility.yul\":5286:5403   */\n      pop\n        /* \"#utility.yul\":5081:5410   */\n      swap3\n      swap2\n      pop\n      pop\n      jump\t// out\n        /* \"#utility.yul\":5416:5534   */\n    tag_194:\n        /* \"#utility.yul\":5503:5527   */\n      tag_266\n        /* \"#utility.yul\":5521:5526   */\n      dup2\n        /* \"#utility.yul\":5503:5527   */\n      tag_183\n      jump\t// in\n    tag_266:\n        /* \"#utility.yul\":5498:5501   */\n      dup3\n        /* \"#utility.yul\":5491:5528   */\n      mstore\n        /* \"#utility.yul\":5416:5534   */\n      pop\n      pop\n      jump\t// out\n        /* \"#utility.yul\":5540:5762   */\n    tag_66:\n        /* \"#utility.yul\":5633:5637   */\n      0x00\n        /* \"#utility.yul\":5671:5673   */\n      0x20\n        /* \"#utility.yul\":5660:5669   */\n      dup3\n        /* \"#utility.yul\":5656:5674   */\n      add\n        /* \"#utility.yul\":5648:5674   */\n      swap1\n      pop\n        /* \"#utility.yul\":5684:5755   */\n      tag_268\n        /* \"#utility.yul\":5752:5753   */\n      0x00\n        /* \"#utility.yul\":5741:5750   */\n      dup4\n        /* \"#utility.yul\":5737:5754   */\n      add\n        /* \"#utility.yul\":5728:5734   */\n      dup5\n        /* \"#utility.yul\":5684:5755   */\n      tag_194\n      jump\t// in\n    tag_268:\n        /* \"#utility.yul\":5540:5762   */\n      swap3\n      swap2\n      pop\n      pop\n      jump\t// out\n        /* \"#utility.yul\":5768:6242   */\n    tag_76:\n        /* \"#utility.yul\":5836:5842   */\n      0x00\n        /* \"#utility.yul\":5844:5850   */\n      0x00\n        /* \"#utility.yul\":5893:5895   */\n      0x40\n        /* \"#utility.yul\":5881:5890   */\n      dup4\n        /* \"#utility.yul\":5872:5879   */\n      dup6\n        /* \"#utility.yul\":5868:5891   */\n      sub\n        /* \"#utility.yul\":5864:5896   */\n      slt\n        /* \"#utility.yul\":5861:5980   */\n      iszero\n      tag_270\n      jumpi\n        /* \"#utility.yul\":5899:5978   */\n      tag_271\n      tag_180\n      jump\t// in\n    tag_271:\n        /* \"#utility.yul\":5861:5980   */\n    tag_270:\n        /* \"#utility.yul\":6019:6020   */\n      0x00\n        /* \"#utility.yul\":6044:6097   */\n      tag_272\n        /* \"#utility.yul\":6089:6096   */\n      dup6\n        /* \"#utility.yul\":6080:6086   */\n      dup3\n        /* \"#utility.yul\":6069:6078   */\n      dup7\n        /* \"#utility.yul\":6065:6087   */\n      add\n        /* \"#utility.yul\":6044:6097   */\n      tag_185\n      jump\t// in\n    tag_272:\n        /* \"#utility.yul\":6034:6097   */\n      swap3\n      pop\n        /* \"#utility.yul\":5990:6107   */\n      pop\n        /* \"#utility.yul\":6146:6148   */\n      0x20\n        /* \"#utility.yul\":6172:6225   */\n      tag_273\n        /* \"#utility.yul\":6217:6224   */\n      dup6\n        /* \"#utility.yul\":6208:6214   */\n      dup3\n        /* \"#utility.yul\":6197:6206   */\n      dup7\n        /* \"#utility.yul\":6193:6215   */\n      add\n        /* \"#utility.yul\":6172:6225   */\n      tag_185\n      jump\t// in\n    tag_273:\n        /* \"#utility.yul\":6162:6225   */\n      swap2\n      pop\n        /* \"#utility.yul\":6117:6235   */\n      pop\n        /* \"#utility.yul\":5768:6242   */\n      swap3\n      pop\n      swap3\n      swap1\n      pop\n      jump\t// out\n        /* \"#utility.yul\":6248:6408   */\n    tag_195:\n        /* \"#utility.yul\":6388:6400   */\n      0x4e6f74204f6e7765722100000000000000000000000000000000000000000000\n        /* \"#utility.yul\":6384:6385   */\n      0x00\n        /* \"#utility.yul\":6376:6382   */\n      dup3\n        /* \"#utility.yul\":6372:6386   */\n      add\n        /* \"#utility.yul\":6365:6401   */\n      mstore\n        /* \"#utility.yul\":6248:6408   */\n      pop\n      jump\t// out\n        /* \"#utility.yul\":6414:6780   */\n    tag_196:\n        /* \"#utility.yul\":6556:6559   */\n      0x00\n        /* \"#utility.yul\":6577:6644   */\n      tag_276\n        /* \"#utility.yul\":6641:6643   */\n      0x0a\n        /* \"#utility.yul\":6636:6639   */\n      dup4\n        /* \"#utility.yul\":6577:6644   */\n      tag_175\n      jump\t// in\n    tag_276:\n        /* \"#utility.yul\":6570:6644   */\n      swap2\n      pop\n        /* \"#utility.yul\":6653:6746   */\n      tag_277\n        /* \"#utility.yul\":6742:6745   */\n      dup3\n        /* \"#utility.yul\":6653:6746   */\n      tag_195\n      jump\t// in\n    tag_277:\n        /* \"#utility.yul\":6771:6773   */\n      0x20\n        /* \"#utility.yul\":6766:6769   */\n      dup3\n        /* \"#utility.yul\":6762:6774   */\n      add\n        /* \"#utility.yul\":6755:6774   */\n      swap1\n      pop\n        /* \"#utility.yul\":6414:6780   */\n      swap2\n      swap1\n      pop\n      jump\t// out\n        /* \"#utility.yul\":6786:7205   */\n    tag_82:\n        /* \"#utility.yul\":6952:6956   */\n      0x00\n        /* \"#utility.yul\":6990:6992   */\n      0x20\n        /* \"#utility.yul\":6979:6988   */\n      dup3\n        /* \"#utility.yul\":6975:6993   */\n      add\n        /* \"#utility.yul\":6967:6993   */\n      swap1\n      pop\n        /* \"#utility.yul\":7039:7048   */\n      dup2\n        /* \"#utility.yul\":7033:7037   */\n      dup2\n        /* \"#utility.yul\":7029:7049   */\n      sub\n        /* \"#utility.yul\":7025:7026   */\n      0x00\n        /* \"#utility.yul\":7014:7023   */\n      dup4\n        /* \"#utility.yul\":7010:7027   */\n      add\n        /* \"#utility.yul\":7003:7050   */\n      mstore\n        /* \"#utility.yul\":7067:7198   */\n      tag_279\n        /* \"#utility.yul\":7193:7197   */\n      dup2\n        /* \"#utility.yul\":7067:7198   */\n      tag_196\n      jump\t// in\n    tag_279:\n        /* \"#utility.yul\":7059:7198   */\n      swap1\n      pop\n        /* \"#utility.yul\":6786:7205   */\n      swap2\n      swap1\n      pop\n      jump\t// out\n        /* \"#utility.yul\":7211:7383   */\n    tag_197:\n        /* \"#utility.yul\":7351:7375   */\n      0x43757272656e74206973206e6f74207061757365642100000000000000000000\n        /* \"#utility.yul\":7347:7348   */\n      0x00\n        /* \"#utility.yul\":7339:7345   */\n      dup3\n        /* \"#utility.yul\":7335:7349   */\n      add\n        /* \"#utility.yul\":7328:7376   */\n      mstore\n        /* \"#utility.yul\":7211:7383   */\n      pop\n      jump\t// out\n        /* \"#utility.yul\":7389:7755   */\n    tag_198:\n        /* \"#utility.yul\":7531:7534   */\n      0x00\n        /* \"#utility.yul\":7552:7619   */\n      tag_282\n        /* \"#utility.yul\":7616:7618   */\n      0x16\n        /* \"#utility.yul\":7611:7614   */\n      dup4\n        /* \"#utility.yul\":7552:7619   */\n      tag_175\n      jump\t// in\n    tag_282:\n        /* \"#utility.yul\":7545:7619   */\n      swap2\n      pop\n        /* \"#utility.yul\":7628:7721   */\n      tag_283\n        /* \"#utility.yul\":7717:7720   */\n      dup3\n        /* \"#utility.yul\":7628:7721   */\n      tag_197\n      jump\t// in\n    tag_283:\n        /* \"#utility.yul\":7746:7748   */\n      0x20\n        /* \"#utility.yul\":7741:7744   */\n      dup3\n        /* \"#utility.yul\":7737:7749   */\n      add\n        /* \"#utility.yul\":7730:7749   */\n      swap1\n      pop\n        /* \"#utility.yul\":7389:7755   */\n      swap2\n      swap1\n      pop\n      jump\t// out\n        /* \"#utility.yul\":7761:8180   */\n    tag_86:\n        /* \"#utility.yul\":7927:7931   */\n      0x00\n        /* \"#utility.yul\":7965:7967   */\n      0x20\n        /* \"#utility.yul\":7954:7963   */\n      dup3\n        /* \"#utility.yul\":7950:7968   */\n      add\n        /* \"#utility.yul\":7942:7968   */\n      swap1\n      pop\n        /* \"#utility.yul\":8014:8023   */\n      dup2\n        /* \"#utility.yul\":8008:8012   */\n      dup2\n        /* \"#utility.yul\":8004:8024   */\n      sub\n        /* \"#utility.yul\":8000:8001   */\n      0x00\n        /* \"#utility.yul\":7989:7998   */\n      dup4\n        /* \"#utility.yul\":7985:8002   */\n      add\n        /* \"#utility.yul\":7978:8025   */\n      mstore\n        /* \"#utility.yul\":8042:8173   */\n      tag_285\n        /* \"#utility.yul\":8168:8172   */\n      dup2\n        /* \"#utility.yul\":8042:8173   */\n      tag_198\n      jump\t// in\n    tag_285:\n        /* \"#utility.yul\":8034:8173   */\n      swap1\n      pop\n        /* \"#utility.yul\":7761:8180   */\n      swap2\n      swap1\n      pop\n      jump\t// out\n        /* \"#utility.yul\":8186:8366   */\n    tag_199:\n        /* \"#utility.yul\":8234:8311   */\n      0x4e487b7100000000000000000000000000000000000000000000000000000000\n        /* \"#utility.yul\":8231:8232   */\n      0x00\n        /* \"#utility.yul\":8224:8312   */\n      mstore\n        /* \"#utility.yul\":8331:8335   */\n      0x22\n        /* \"#utility.yul\":8328:8329   */\n      0x04\n        /* \"#utility.yul\":8321:8336   */\n      mstore\n        /* \"#utility.yul\":8355:8359   */\n      0x24\n        /* \"#utility.yul\":8352:8353   */\n      0x00\n        /* \"#utility.yul\":8345:8360   */\n      revert\n        /* \"#utility.yul\":8372:8692   */\n    tag_89:\n        /* \"#utility.yul\":8416:8422   */\n      0x00\n        /* \"#utility.yul\":8453:8454   */\n      0x02\n        /* \"#utility.yul\":8447:8451   */\n      dup3\n        /* \"#utility.yul\":8443:8455   */\n      div\n        /* \"#utility.yul\":8433:8455   */\n      swap1\n      pop\n        /* \"#utility.yul\":8500:8501   */\n      0x01\n        /* \"#utility.yul\":8494:8498   */\n      dup3\n        /* \"#utility.yul\":8490:8502   */\n      and\n        /* \"#utility.yul\":8521:8539   */\n      dup1\n        /* \"#utility.yul\":8511:8592   */\n      tag_288\n      jumpi\n        /* \"#utility.yul\":8577:8581   */\n      0x7f\n        /* \"#utility.yul\":8569:8575   */\n      dup3\n        /* \"#utility.yul\":8565:8582   */\n      and\n        /* \"#utility.yul\":8555:8582   */\n      swap2\n      pop\n        /* \"#utility.yul\":8511:8592   */\n    tag_288:\n        /* \"#utility.yul\":8639:8641   */\n      0x20\n        /* \"#utility.yul\":8631:8637   */\n      dup3\n        /* \"#utility.yul\":8628:8642   */\n      lt\n        /* \"#utility.yul\":8608:8626   */\n      dup2\n        /* \"#utility.yul\":8605:8643   */\n      sub\n        /* \"#utility.yul\":8602:8686   */\n      tag_289\n      jumpi\n        /* \"#utility.yul\":8658:8676   */\n      tag_290\n      tag_199\n      jump\t// in\n    tag_290:\n        /* \"#utility.yul\":8602:8686   */\n    tag_289:\n        /* \"#utility.yul\":8423:8692   */\n      pop\n        /* \"#utility.yul\":8372:8692   */\n      swap2\n      swap1\n      pop\n      jump\t// out\n        /* \"#utility.yul\":8698:8866   */\n    tag_200:\n        /* \"#utility.yul\":8838:8858   */\n      0x43757272656e7420697320706175736564210000000000000000000000000000\n        /* \"#utility.yul\":8834:8835   */\n      0x00\n        /* \"#utility.yul\":8826:8832   */\n      dup3\n        /* \"#utility.yul\":8822:8836   */\n      add\n        /* \"#utility.yul\":8815:8859   */\n      mstore\n        /* \"#utility.yul\":8698:8866   */\n      pop\n      jump\t// out\n        /* \"#utility.yul\":8872:9238   */\n    tag_201:\n        /* \"#utility.yul\":9014:9017   */\n      0x00\n        /* \"#utility.yul\":9035:9102   */\n      tag_293\n        /* \"#utility.yul\":9099:9101   */\n      0x12\n        /* \"#utility.yul\":9094:9097   */\n      dup4\n        /* \"#utility.yul\":9035:9102   */\n      tag_175\n      jump\t// in\n    tag_293:\n        /* \"#utility.yul\":9028:9102   */\n      swap2\n      pop\n        /* \"#utility.yul\":9111:9204   */\n      tag_294\n        /* \"#utility.yul\":9200:9203   */\n      dup3\n        /* \"#utility.yul\":9111:9204   */\n      tag_200\n      jump\t// in\n    tag_294:\n        /* \"#utility.yul\":9229:9231   */\n      0x20\n        /* \"#utility.yul\":9224:9227   */\n      dup3\n        /* \"#utility.yul\":9220:9232   */\n      add\n        /* \"#utility.yul\":9213:9232   */\n      swap1\n      pop\n        /* \"#utility.yul\":8872:9238   */\n      swap2\n      swap1\n      pop\n      jump\t// out\n        /* \"#utility.yul\":9244:9663   */\n    tag_97:\n        /* \"#utility.yul\":9410:9414   */\n      0x00\n        /* \"#utility.yul\":9448:9450   */\n      0x20\n        /* \"#utility.yul\":9437:9446   */\n      dup3\n        /* \"#utility.yul\":9433:9451   */\n      add\n        /* \"#utility.yul\":9425:9451   */\n      swap1\n      pop\n        /* \"#utility.yul\":9497:9506   */\n      dup2\n        /* \"#utility.yul\":9491:9495   */\n      dup2\n        /* \"#utility.yul\":9487:9507   */\n      sub\n        /* \"#utility.yul\":9483:9484   */\n      0x00\n        /* \"#utility.yul\":9472:9481   */\n      dup4\n        /* \"#utility.yul\":9468:9485   */\n      add\n        /* \"#utility.yul\":9461:9508   */\n      mstore\n        /* \"#utility.yul\":9525:9656   */\n      tag_296\n        /* \"#utility.yul\":9651:9655   */\n      dup2\n        /* \"#utility.yul\":9525:9656   */\n      tag_201\n      jump\t// in\n    tag_296:\n        /* \"#utility.yul\":9517:9656   */\n      swap1\n      pop\n        /* \"#utility.yul\":9244:9663   */\n      swap2\n      swap1\n      pop\n      jump\t// out\n        /* \"#utility.yul\":9669:10111   */\n    tag_116:\n        /* \"#utility.yul\":9818:9822   */\n      0x00\n        /* \"#utility.yul\":9856:9858   */\n      0x60\n        /* \"#utility.yul\":9845:9854   */\n      dup3\n        /* \"#utility.yul\":9841:9859   */\n      add\n        /* \"#utility.yul\":9833:9859   */\n      swap1\n      pop\n        /* \"#utility.yul\":9869:9940   */\n      tag_298\n        /* \"#utility.yul\":9937:9938   */\n      0x00\n        /* \"#utility.yul\":9926:9935   */\n      dup4\n        /* \"#utility.yul\":9922:9939   */\n      add\n        /* \"#utility.yul\":9913:9919   */\n      dup7\n        /* \"#utility.yul\":9869:9940   */\n      tag_194\n      jump\t// in\n    tag_298:\n        /* \"#utility.yul\":9950:10022   */\n      tag_299\n        /* \"#utility.yul\":10018:10020   */\n      0x20\n        /* \"#utility.yul\":10007:10016   */\n      dup4\n        /* \"#utility.yul\":10003:10021   */\n      add\n        /* \"#utility.yul\":9994:10000   */\n      dup6\n        /* \"#utility.yul\":9950:10022   */\n      tag_191\n      jump\t// in\n    tag_299:\n        /* \"#utility.yul\":10032:10104   */\n      tag_300\n        /* \"#utility.yul\":10100:10102   */\n      0x40\n        /* \"#utility.yul\":10089:10098   */\n      dup4\n        /* \"#utility.yul\":10085:10103   */\n      add\n        /* \"#utility.yul\":10076:10082   */\n      dup5\n        /* \"#utility.yul\":10032:10104   */\n      tag_191\n      jump\t// in\n    tag_300:\n        /* \"#utility.yul\":9669:10111   */\n      swap5\n      swap4\n      pop\n      pop\n      pop\n      pop\n      jump\t// out\n        /* \"#utility.yul\":10117:10670   */\n    tag_119:\n        /* \"#utility.yul\":10294:10298   */\n      0x00\n        /* \"#utility.yul\":10332:10335   */\n      0x80\n        /* \"#utility.yul\":10321:10330   */\n      dup3\n        /* \"#utility.yul\":10317:10336   */\n      add\n        /* \"#utility.yul\":10309:10336   */\n      swap1\n      pop\n        /* \"#utility.yul\":10346:10417   */\n      tag_302\n        /* \"#utility.yul\":10414:10415   */\n      0x00\n        /* \"#utility.yul\":10403:10412   */\n      dup4\n        /* \"#utility.yul\":10399:10416   */\n      add\n        /* \"#utility.yul\":10390:10396   */\n      dup8\n        /* \"#utility.yul\":10346:10417   */\n      tag_194\n      jump\t// in\n    tag_302:\n        /* \"#utility.yul\":10427:10499   */\n      tag_303\n        /* \"#utility.yul\":10495:10497   */\n      0x20\n        /* \"#utility.yul\":10484:10493   */\n      dup4\n        /* \"#utility.yul\":10480:10498   */\n      add\n        /* \"#utility.yul\":10471:10477   */\n      dup7\n        /* \"#utility.yul\":10427:10499   */\n      tag_194\n      jump\t// in\n    tag_303:\n        /* \"#utility.yul\":10509:10581   */\n      tag_304\n        /* \"#utility.yul\":10577:10579   */\n      0x40\n        /* \"#utility.yul\":10566:10575   */\n      dup4\n        /* \"#utility.yul\":10562:10580   */\n      add\n        /* \"#utility.yul\":10553:10559   */\n      dup6\n        /* \"#utility.yul\":10509:10581   */\n      tag_191\n      jump\t// in\n    tag_304:\n        /* \"#utility.yul\":10591:10663   */\n      tag_305\n        /* \"#utility.yul\":10659:10661   */\n      0x60\n        /* \"#utility.yul\":10648:10657   */\n      dup4\n        /* \"#utility.yul\":10644:10662   */\n      add\n        /* \"#utility.yul\":10635:10641   */\n      dup5\n        /* \"#utility.yul\":10591:10663   */\n      tag_191\n      jump\t// in\n    tag_305:\n        /* \"#utility.yul\":10117:10670   */\n      swap6\n      swap5\n      pop\n      pop\n      pop\n      pop\n      pop\n      jump\t// out\n        /* \"#utility.yul\":10676:10856   */\n    tag_202:\n        /* \"#utility.yul\":10724:10801   */\n      0x4e487b7100000000000000000000000000000000000000000000000000000000\n        /* \"#utility.yul\":10721:10722   */\n      0x00\n        /* \"#utility.yul\":10714:10802   */\n      mstore\n        /* \"#utility.yul\":10821:10825   */\n      0x11\n        /* \"#utility.yul\":10818:10819   */\n      0x04\n        /* \"#utility.yul\":10811:10826   */\n      mstore\n        /* \"#utility.yul\":10845:10849   */\n      0x24\n        /* \"#utility.yul\":10842:10843   */\n      0x00\n        /* \"#utility.yul\":10835:10850   */\n      revert\n        /* \"#utility.yul\":10862:11056   */\n    tag_121:\n        /* \"#utility.yul\":10902:10906   */\n      0x00\n        /* \"#utility.yul\":10922:10942   */\n      tag_308\n        /* \"#utility.yul\":10940:10941   */\n      dup3\n        /* \"#utility.yul\":10922:10942   */\n      tag_186\n      jump\t// in\n    tag_308:\n        /* \"#utility.yul\":10917:10942   */\n      swap2\n      pop\n        /* \"#utility.yul\":10956:10976   */\n      tag_309\n        /* \"#utility.yul\":10974:10975   */\n      dup4\n        /* \"#utility.yul\":10956:10976   */\n      tag_186\n      jump\t// in\n    tag_309:\n        /* \"#utility.yul\":10951:10976   */\n      swap3\n      pop\n        /* \"#utility.yul\":11000:11001   */\n      dup3\n        /* \"#utility.yul\":10997:10998   */\n      dup3\n        /* \"#utility.yul\":10993:11002   */\n      sub\n        /* \"#utility.yul\":10985:11002   */\n      swap1\n      pop\n        /* \"#utility.yul\":11024:11025   */\n      dup2\n        /* \"#utility.yul\":11018:11022   */\n      dup2\n        /* \"#utility.yul\":11015:11026   */\n      gt\n        /* \"#utility.yul\":11012:11049   */\n      iszero\n      tag_310\n      jumpi\n        /* \"#utility.yul\":11029:11047   */\n      tag_311\n      tag_202\n      jump\t// in\n    tag_311:\n        /* \"#utility.yul\":11012:11049   */\n    tag_310:\n        /* \"#utility.yul\":10862:11056   */\n      swap3\n      swap2\n      pop\n      pop\n      jump\t// out\n        /* \"#utility.yul\":11062:11253   */\n    tag_123:\n        /* \"#utility.yul\":11102:11105   */\n      0x00\n        /* \"#utility.yul\":11121:11141   */\n      tag_313\n        /* \"#utility.yul\":11139:11140   */\n      dup3\n        /* \"#utility.yul\":11121:11141   */\n      tag_186\n      jump\t// in\n    tag_313:\n        /* \"#utility.yul\":11116:11141   */\n      swap2\n      pop\n        /* \"#utility.yul\":11155:11175   */\n      tag_314\n        /* \"#utility.yul\":11173:11174   */\n      dup4\n        /* \"#utility.yul\":11155:11175   */\n      tag_186\n      jump\t// in\n    tag_314:\n        /* \"#utility.yul\":11150:11175   */\n      swap3\n      pop\n        /* \"#utility.yul\":11198:11199   */\n      dup3\n        /* \"#utility.yul\":11195:11196   */\n      dup3\n        /* \"#utility.yul\":11191:11200   */\n      add\n        /* \"#utility.yul\":11184:11200   */\n      swap1\n      pop\n        /* \"#utility.yul\":11219:11222   */\n      dup1\n        /* \"#utility.yul\":11216:11217   */\n      dup3\n        /* \"#utility.yul\":11213:11223   */\n      gt\n        /* \"#utility.yul\":11210:11246   */\n      iszero\n      tag_315\n      jumpi\n        /* \"#utility.yul\":11226:11244   */\n      tag_316\n      tag_202\n      jump\t// in\n    tag_316:\n        /* \"#utility.yul\":11210:11246   */\n    tag_315:\n        /* \"#utility.yul\":11062:11253   */\n      swap3\n      swap2\n      pop\n      pop\n      jump\t// out\n\n    auxdata: 0xa26469706673582212202ebd49491dc5280cbd9c45813104e2e4744606d4c726422d99427eae4332a28d64736f6c63430008220033\n}\n",
				"bytecode": {
					"linkReferences": {},
					"object": "60806040525f600660146101000a81548160ff021916908315150217905550348015610029575f5ffd5b506040516122de3803806122de833981810160405281019061004b919061034c565b3360065f6101000a81548173ffffffffffffffffffffffffffffffffffffffff021916908373ffffffffffffffffffffffffffffffffffffffff160217905550835f90816100999190610600565b5082600190816100a99190610600565b508160025f6101000a81548160ff021916908360ff16021790555081600a6100d1919061082b565b816100dc9190610875565b60038190555060035460045f3373ffffffffffffffffffffffffffffffffffffffff1673ffffffffffffffffffffffffffffffffffffffff1681526020019081526020015f20819055503373ffffffffffffffffffffffffffffffffffffffff165f73ffffffffffffffffffffffffffffffffffffffff167fddf252ad1be2c89b69c2b068fc378daa952ba7f163c4a11628f55a4df523b3ef60035460405161018591906108c5565b60405180910390a3505050506108de565b5f604051905090565b5f5ffd5b5f5ffd5b5f5ffd5b5f5ffd5b5f601f19601f8301169050919050565b7f4e487b71000000000000000000000000000000000000000000000000000000005f52604160045260245ffd5b6101f5826101af565b810181811067ffffffffffffffff82111715610214576102136101bf565b5b80604052505050565b5f610226610196565b905061023282826101ec565b919050565b5f67ffffffffffffffff821115610251576102506101bf565b5b61025a826101af565b9050602081019050919050565b8281835e5f83830152505050565b5f61028761028284610237565b61021d565b9050828152602081018484840111156102a3576102a26101ab565b5b6102ae848285610267565b509392505050565b5f82601f8301126102ca576102c96101a7565b5b81516102da848260208601610275565b91505092915050565b5f60ff82169050919050565b6102f8816102e3565b8114610302575f5ffd5b50565b5f81519050610313816102ef565b92915050565b5f819050919050565b61032b81610319565b8114610335575f5ffd5b50565b5f8151905061034681610322565b92915050565b5f5f5f5f608085870312156103645761036361019f565b5b5f85015167ffffffffffffffff811115610381576103806101a3565b5b61038d878288016102b6565b945050602085015167ffffffffffffffff8111156103ae576103ad6101a3565b5b6103ba878288016102b6565b93505060406103cb87828801610305565b92505060606103dc87828801610338565b91505092959194509250565b5f81519050919050565b7f4e487b71000000000000000000000000000000000000000000000000000000005f52602260045260245ffd5b5f600282049050600182168061043657607f821691505b602082108103610449576104486103f2565b5b50919050565b5f819050815f5260205f209050919050565b5f6020601f8301049050919050565b5f82821b905092915050565b5f600883026104ab7fffffffffffffffffffffffffffffffffffffffffffffffffffffffffffffffff82610470565b6104b58683610470565b95508019841693508086168417925050509392505050565b5f819050919050565b5f6104f06104eb6104e684610319565b6104cd565b610319565b9050919050565b5f819050919050565b610509836104d6565b61051d610515826104f7565b84845461047c565b825550505050565b5f5f905090565b610534610525565b61053f818484610500565b505050565b5f5b828110156105655761055a5f82840161052c565b600181019050610546565b505050565b601f8211156105b857828211156105b7576105848161044f565b61058d83610461565b61059685610461565b60208610156105a3575f90505b8083016105b282840382610544565b505050505b5b505050565b5f82821c905092915050565b5f6105d85f19846008026105bd565b1980831691505092915050565b5f6105f083836105c9565b9150826002028217905092915050565b610609826103e8565b67ffffffffffffffff811115610622576106216101bf565b5b61062c825461041f565b61063782828561056a565b5f60209050601f831160018114610668575f8415610656578287015190505b61066085826105e5565b8655506106c7565b601f1984166106768661044f565b5f5b8281101561069d57848901518255600182019150602085019450602081019050610678565b868310156106ba57848901516106b6601f8916826105c9565b8355505b6001600288020188555050505b505050505050565b7f4e487b71000000000000000000000000000000000000000000000000000000005f52601160045260245ffd5b5f8160011c9050919050565b5f5f8291508390505b60018511156107515780860481111561072d5761072c6106cf565b5b600185161561073c5780820291505b808102905061074a856106fc565b9450610711565b94509492505050565b5f826107695760019050610824565b81610776575f9050610824565b816001811461078c5760028114610796576107c5565b6001915050610824565b60ff8411156107a8576107a76106cf565b5b8360020a9150848211156107bf576107be6106cf565b5b50610824565b5060208310610133831016604e8410600b84101617156107fa5782820a9050838111156107f5576107f46106cf565b5b610824565b6108078484846001610708565b9250905081840481111561081e5761081d6106cf565b5b81810290505b9392505050565b5f61083582610319565b9150610840836102e3565b925061086d7fffffffffffffffffffffffffffffffffffffffffffffffffffffffffffffffff848461075a565b905092915050565b5f61087f82610319565b915061088a83610319565b925082820261089881610319565b915082820484148315176108af576108ae6106cf565b5b5092915050565b6108bf81610319565b82525050565b5f6020820190506108d85f8301846108b6565b92915050565b6119f3806108eb5f395ff3fe608060405234801561000f575f5ffd5b50600436106100f3575f3560e01c806342966c68116100955780638da5cb5b116100645780638da5cb5b1461024b57806395d89b4114610269578063a9059cbb14610287578063dd62ed3e146102b7576100f3565b806342966c68146101d757806370a08231146101f357806377163c1d146102235780638456cb5914610241576100f3565b806318160ddd116100d157806318160ddd1461014f57806323b872dd1461016d578063313ce5671461019d57806340c10f19146101bb576100f3565b8063046f7da2146100f757806306fdde0314610101578063095ea7b31461011f575b5f5ffd5b6100ff6102e7565b005b6101096103e1565b6040516101169190611493565b60405180910390f35b61013960048036038101906101349190611544565b61046c565b604051610146919061159c565b60405180910390f35b61015761065d565b60405161016491906115c4565b60405180910390f35b610187600480360381019061018291906115dd565b610663565b604051610194919061159c565b60405180910390f35b6101a5610b7a565b6040516101b29190611648565b60405180910390f35b6101d560048036038101906101d09190611544565b610b8c565b005b6101f160048036038101906101ec9190611661565b610df3565b005b61020d6004803603810190610208919061168c565b610f5a565b60405161021a91906115c4565b60405180910390f35b61022b610f6f565b60405161023891906115c4565b60405180910390f35b610249610f74565b005b610253611070565b60405161026091906116c6565b60405180910390f35b610271611095565b60405161027e9190611493565b60405180910390f35b6102a1600480360381019061029c9190611544565b611121565b6040516102ae919061159c565b60405180910390f35b6102d160048036038101906102cc91906116df565b611403565b6040516102de91906115c4565b60405180910390f35b3373ffffffffffffffffffffffffffffffffffffffff1660065f9054906101000a900473ffffffffffffffffffffffffffffffffffffffff1673ffffffffffffffffffffffffffffffffffffffff1614610376576040517f08c379a000000000000000000000000000000000000000000000000000000000815260040161036d90611767565b60405180910390fd5b600660149054906101000a900460ff166103c5576040517f08c379a00000000000000000000000000000000000000000000000000000000081526004016103bc906117cf565b60405180910390fd5b5f600660146101000a81548160ff021916908315150217905550565b5f80546103ed9061181a565b80601f01602080910402602001604051908101604052809291908181526020018280546104199061181a565b80156104645780601f1061043b57610100808354040283529160200191610464565b820191905f5260205f20905b81548152906001019060200180831161044757829003601f168201915b505050505081565b5f600660149054906101000a900460ff16156104bd576040517f08c379a00000000000000000000000000000000000000000000000000000000081526004016104b490611894565b60405180910390fd5b5f73ffffffffffffffffffffffffffffffffffffffff168373ffffffffffffffffffffffffffffffffffffffff160361052d57826040517f17858bbe00000000000000000000000000000000000000000000000000000000815260040161052491906116c6565b60405180910390fd5b5f820361057157816040517f3728b83d00000000000000000000000000000000000000000000000000000000815260040161056891906115c4565b60405180910390fd5b8160055f3373ffffffffffffffffffffffffffffffffffffffff1673ffffffffffffffffffffffffffffffffffffffff1681526020019081526020015f205f8573ffffffffffffffffffffffffffffffffffffffff1673ffffffffffffffffffffffffffffffffffffffff1681526020019081526020015f20819055508273ffffffffffffffffffffffffffffffffffffffff163373ffffffffffffffffffffffffffffffffffffffff167f8c5be1e5ebec7d5bd14f71427d1e84f3dd0314c0f7b2291e5b200ac8c7c3b9258460405161064b91906115c4565b60405180910390a36001905092915050565b60035481565b5f600660149054906101000a900460ff16156106b4576040517f08c379a00000000000000000000000000000000000000000000000000000000081526004016106ab90611894565b60405180910390fd5b5f73ffffffffffffffffffffffffffffffffffffffff168473ffffffffffffffffffffffffffffffffffffffff160361072457836040517f17858bbe00000000000000000000000000000000000000000000000000000000815260040161071b91906116c6565b60405180910390fd5b5f73ffffffffffffffffffffffffffffffffffffffff168373ffffffffffffffffffffffffffffffffffffffff160361079457826040517f17858bbe00000000000000000000000000000000000000000000000000000000815260040161078b91906116c6565b60405180910390fd5b5f82036107d857816040517f3728b83d0000000000000000000000000000000000000000000000000000000081526004016107cf91906115c4565b60405180910390fd5b8160045f8673ffffffffffffffffffffffffffffffffffffffff1673ffffffffffffffffffffffffffffffffffffffff1681526020019081526020015f2054101561089b578360045f8673ffffffffffffffffffffffffffffffffffffffff1673ffffffffffffffffffffffffffffffffffffffff1681526020019081526020015f2054836040517fdb42144d000000000000000000000000000000000000000000000000000000008152600401610892939291906118b2565b60405180910390fd5b8160055f8673ffffffffffffffffffffffffffffffffffffffff1673ffffffffffffffffffffffffffffffffffffffff1681526020019081526020015f205f3373ffffffffffffffffffffffffffffffffffffffff1673ffffffffffffffffffffffffffffffffffffffff1681526020019081526020015f205410156109d657838360055f8773ffffffffffffffffffffffffffffffffffffffff1673ffffffffffffffffffffffffffffffffffffffff1681526020019081526020015f205f3373ffffffffffffffffffffffffffffffffffffffff1673ffffffffffffffffffffffffffffffffffffffff1681526020019081526020015f2054846040517f91beda240000000000000000000000000000000000000000000000000000000081526004016109cd94939291906118e7565b60405180910390fd5b8160045f8673ffffffffffffffffffffffffffffffffffffffff1673ffffffffffffffffffffffffffffffffffffffff1681526020019081526020015f205f828254610a229190611957565b925050819055508160045f8573ffffffffffffffffffffffffffffffffffffffff1673ffffffffffffffffffffffffffffffffffffffff1681526020019081526020015f205f828254610a75919061198a565b925050819055508160055f8673ffffffffffffffffffffffffffffffffffffffff1673ffffffffffffffffffffffffffffffffffffffff1681526020019081526020015f205f3373ffffffffffffffffffffffffffffffffffffffff1673ffffffffffffffffffffffffffffffffffffffff1681526020019081526020015f205f828254610b039190611957565b925050819055508273ffffffffffffffffffffffffffffffffffffffff168473ffffffffffffffffffffffffffffffffffffffff167fddf252ad1be2c89b69c2b068fc378daa952ba7f163c4a11628f55a4df523b3ef84604051610b6791906115c4565b60405180910390a3600190509392505050565b60025f9054906101000a900460ff1681565b3373ffffffffffffffffffffffffffffffffffffffff1660065f9054906101000a900473ffffffffffffffffffffffffffffffffffffffff1673ffffffffffffffffffffffffffffffffffffffff1614610c1b576040517f08c379a0000000000000000000000000000000000000000000000000000000008152600401610c1290611767565b60405180910390fd5b600660149054906101000a900460ff1615610c6b576040517f08c379a0000000000000000000000000000000000000000000000000000000008152600401610c6290611894565b60405180910390fd5b5f73ffffffffffffffffffffffffffffffffffffffff168273ffffffffffffffffffffffffffffffffffffffff1603610cdb57816040517f17858bbe000000000000000000000000000000000000000000000000000000008152600401610cd291906116c6565b60405180910390fd5b5f8103610d1f57806040517f3728b83d000000000000000000000000000000000000000000000000000000008152600401610d1691906115c4565b60405180910390fd5b8060035f828254610d30919061198a565b925050819055508060045f8473ffffffffffffffffffffffffffffffffffffffff1673ffffffffffffffffffffffffffffffffffffffff1681526020019081526020015f205f828254610d83919061198a565b925050819055508173ffffffffffffffffffffffffffffffffffffffff165f73ffffffffffffffffffffffffffffffffffffffff167fddf252ad1be2c89b69c2b068fc378daa952ba7f163c4a11628f55a4df523b3ef83604051610de791906115c4565b60405180910390a35050565b600660149054906101000a900460ff1615610e43576040517f08c379a0000000000000000000000000000000000000000000000000000000008152600401610e3a90611894565b60405180910390fd5b5f8103610e8757806040517f3728b83d000000000000000000000000000000000000000000000000000000008152600401610e7e91906115c4565b60405180910390fd5b8060035f828254610e989190611957565b925050819055508060045f3373ffffffffffffffffffffffffffffffffffffffff1673ffffffffffffffffffffffffffffffffffffffff1681526020019081526020015f205f828254610eeb9190611957565b925050819055503373ffffffffffffffffffffffffffffffffffffffff163373ffffffffffffffffffffffffffffffffffffffff167fddf252ad1be2c89b69c2b068fc378daa952ba7f163c4a11628f55a4df523b3ef83604051610f4f91906115c4565b60405180910390a350565b6004602052805f5260405f205f915090505481565b603281565b3373ffffffffffffffffffffffffffffffffffffffff1660065f9054906101000a900473ffffffffffffffffffffffffffffffffffffffff1673ffffffffffffffffffffffffffffffffffffffff1614611003576040517f08c379a0000000000000000000000000000000000000000000000000000000008152600401610ffa90611767565b60405180910390fd5b600660149054906101000a900460ff1615611053576040517f08c379a000000000000000000000000000000000000000000000000000000000815260040161104a90611894565b60405180910390fd5b6001600660146101000a81548160ff021916908315150217905550565b60065f9054906101000a900473ffffffffffffffffffffffffffffffffffffffff1681565b600180546110a29061181a565b80601f01602080910402602001604051908101604052809291908181526020018280546110ce9061181a565b80156111195780601f106110f057610100808354040283529160200191611119565b820191905f5260205f20905b8154815290600101906020018083116110fc57829003601f168201915b505050505081565b5f600660149054906101000a900460ff1615611172576040517f08c379a000000000000000000000000000000000000000000000000000000000815260040161116990611894565b60405180910390fd5b5f73ffffffffffffffffffffffffffffffffffffffff168373ffffffffffffffffffffffffffffffffffffffff16036111e257826040517f17858bbe0000000000000000000000000000000000000000000000000000000081526004016111d991906116c6565b60405180910390fd5b5f820361122657816040517f3728b83d00000000000000000000000000000000000000000000000000000000815260040161121d91906115c4565b60405180910390fd5b5f3390508260045f8373ffffffffffffffffffffffffffffffffffffffff1673ffffffffffffffffffffffffffffffffffffffff1681526020019081526020015f205410156112ed578060045f8373ffffffffffffffffffffffffffffffffffffffff1673ffffffffffffffffffffffffffffffffffffffff1681526020019081526020015f2054846040517fdb42144d0000000000000000000000000000000000000000000000000000000081526004016112e4939291906118b2565b60405180910390fd5b8260045f8373ffffffffffffffffffffffffffffffffffffffff1673ffffffffffffffffffffffffffffffffffffffff1681526020019081526020015f205f8282546113399190611957565b925050819055508260045f8673ffffffffffffffffffffffffffffffffffffffff1673ffffffffffffffffffffffffffffffffffffffff1681526020019081526020015f205f82825461138c919061198a565b925050819055508373ffffffffffffffffffffffffffffffffffffffff168173ffffffffffffffffffffffffffffffffffffffff167fddf252ad1be2c89b69c2b068fc378daa952ba7f163c4a11628f55a4df523b3ef856040516113f091906115c4565b60405180910390a3600191505092915050565b6005602052815f5260405f20602052805f5260405f205f91509150505481565b5f81519050919050565b5f82825260208201905092915050565b8281835e5f83830152505050565b5f601f19601f8301169050919050565b5f61146582611423565b61146f818561142d565b935061147f81856020860161143d565b6114888161144b565b840191505092915050565b5f6020820190508181035f8301526114ab818461145b565b905092915050565b5f5ffd5b5f73ffffffffffffffffffffffffffffffffffffffff82169050919050565b5f6114e0826114b7565b9050919050565b6114f0816114d6565b81146114fa575f5ffd5b50565b5f8135905061150b816114e7565b92915050565b5f819050919050565b61152381611511565b811461152d575f5ffd5b50565b5f8135905061153e8161151a565b92915050565b5f5f6040838503121561155a576115596114b3565b5b5f611567858286016114fd565b925050602061157885828601611530565b9150509250929050565b5f8115159050919050565b61159681611582565b82525050565b5f6020820190506115af5f83018461158d565b92915050565b6115be81611511565b82525050565b5f6020820190506115d75f8301846115b5565b92915050565b5f5f5f606084860312156115f4576115f36114b3565b5b5f611601868287016114fd565b9350506020611612868287016114fd565b925050604061162386828701611530565b9150509250925092565b5f60ff82169050919050565b6116428161162d565b82525050565b5f60208201905061165b5f830184611639565b92915050565b5f60208284031215611676576116756114b3565b5b5f61168384828501611530565b91505092915050565b5f602082840312156116a1576116a06114b3565b5b5f6116ae848285016114fd565b91505092915050565b6116c0816114d6565b82525050565b5f6020820190506116d95f8301846116b7565b92915050565b5f5f604083850312156116f5576116f46114b3565b5b5f611702858286016114fd565b9250506020611713858286016114fd565b9150509250929050565b7f4e6f74204f6e77657221000000000000000000000000000000000000000000005f82015250565b5f611751600a8361142d565b915061175c8261171d565b602082019050919050565b5f6020820190508181035f83015261177e81611745565b9050919050565b7f43757272656e74206973206e6f742070617573656421000000000000000000005f82015250565b5f6117b960168361142d565b91506117c482611785565b602082019050919050565b5f6020820190508181035f8301526117e6816117ad565b9050919050565b7f4e487b71000000000000000000000000000000000000000000000000000000005f52602260045260245ffd5b5f600282049050600182168061183157607f821691505b602082108103611844576118436117ed565b5b50919050565b7f43757272656e74206973207061757365642100000000000000000000000000005f82015250565b5f61187e60128361142d565b91506118898261184a565b602082019050919050565b5f6020820190508181035f8301526118ab81611872565b9050919050565b5f6060820190506118c55f8301866116b7565b6118d260208301856115b5565b6118df60408301846115b5565b949350505050565b5f6080820190506118fa5f8301876116b7565b61190760208301866116b7565b61191460408301856115b5565b61192160608301846115b5565b95945050505050565b7f4e487b71000000000000000000000000000000000000000000000000000000005f52601160045260245ffd5b5f61196182611511565b915061196c83611511565b92508282039050818111156119845761198361192a565b5b92915050565b5f61199482611511565b915061199f83611511565b92508282019050808211156119b7576119b661192a565b5b9291505056fea26469706673582212202ebd49491dc5280cbd9c45813104e2e4744606d4c726422d99427eae4332a28d64736f6c63430008220033",
					"opcodes": "PUSH1 0x80 PUSH1 0x40 MSTORE PUSH0 PUSH1 0x6 PUSH1 0x14 PUSH2 0x100 EXP DUP2 SLOAD DUP2 PUSH1 0xFF MUL NOT AND SWAP1 DUP4 ISZERO ISZERO MUL OR SWAP1 SSTORE POP CALLVALUE DUP1 ISZERO PUSH2 0x29 JUMPI PUSH0 PUSH0 REVERT JUMPDEST POP PUSH1 0x40 MLOAD PUSH2 0x22DE CODESIZE SUB DUP1 PUSH2 0x22DE DUP4 CODECOPY DUP2 DUP2 ADD PUSH1 0x40 MSTORE DUP2 ADD SWAP1 PUSH2 0x4B SWAP2 SWAP1 PUSH2 0x34C JUMP JUMPDEST CALLER PUSH1 0x6 PUSH0 PUSH2 0x100 EXP DUP2 SLOAD DUP2 PUSH20 0xFFFFFFFFFFFFFFFFFFFFFFFFFFFFFFFFFFFFFFFF MUL NOT AND SWAP1 DUP4 PUSH20 0xFFFFFFFFFFFFFFFFFFFFFFFFFFFFFFFFFFFFFFFF AND MUL OR SWAP1 SSTORE POP DUP4 PUSH0 SWAP1 DUP2 PUSH2 0x99 SWAP2 SWAP1 PUSH2 0x600 JUMP JUMPDEST POP DUP3 PUSH1 0x1 SWAP1 DUP2 PUSH2 0xA9 SWAP2 SWAP1 PUSH2 0x600 JUMP JUMPDEST POP DUP2 PUSH1 0x2 PUSH0 PUSH2 0x100 EXP DUP2 SLOAD DUP2 PUSH1 0xFF MUL NOT AND SWAP1 DUP4 PUSH1 0xFF AND MUL OR SWAP1 SSTORE POP DUP2 PUSH1 0xA PUSH2 0xD1 SWAP2 SWAP1 PUSH2 0x82B JUMP JUMPDEST DUP2 PUSH2 0xDC SWAP2 SWAP1 PUSH2 0x875 JUMP JUMPDEST PUSH1 0x3 DUP2 SWAP1 SSTORE POP PUSH1 0x3 SLOAD PUSH1 0x4 PUSH0 CALLER PUSH20 0xFFFFFFFFFFFFFFFFFFFFFFFFFFFFFFFFFFFFFFFF AND PUSH20 0xFFFFFFFFFFFFFFFFFFFFFFFFFFFFFFFFFFFFFFFF AND DUP2 MSTORE PUSH1 0x20 ADD SWAP1 DUP2 MSTORE PUSH1 0x20 ADD PUSH0 KECCAK256 DUP2 SWAP1 SSTORE POP CALLER PUSH20 0xFFFFFFFFFFFFFFFFFFFFFFFFFFFFFFFFFFFFFFFF AND PUSH0 PUSH20 0xFFFFFFFFFFFFFFFFFFFFFFFFFFFFFFFFFFFFFFFF AND PUSH32 0xDDF252AD1BE2C89B69C2B068FC378DAA952BA7F163C4A11628F55A4DF523B3EF PUSH1 0x3 SLOAD PUSH1 0x40 MLOAD PUSH2 0x185 SWAP2 SWAP1 PUSH2 0x8C5 JUMP JUMPDEST PUSH1 0x40 MLOAD DUP1 SWAP2 SUB SWAP1 LOG3 POP POP POP POP PUSH2 0x8DE JUMP JUMPDEST PUSH0 PUSH1 0x40 MLOAD SWAP1 POP SWAP1 JUMP JUMPDEST PUSH0 PUSH0 REVERT JUMPDEST PUSH0 PUSH0 REVERT JUMPDEST PUSH0 PUSH0 REVERT JUMPDEST PUSH0 PUSH0 REVERT JUMPDEST PUSH0 PUSH1 0x1F NOT PUSH1 0x1F DUP4 ADD AND SWAP1 POP SWAP2 SWAP1 POP JUMP JUMPDEST PUSH32 0x4E487B7100000000000000000000000000000000000000000000000000000000 PUSH0 MSTORE PUSH1 0x41 PUSH1 0x4 MSTORE PUSH1 0x24 PUSH0 REVERT JUMPDEST PUSH2 0x1F5 DUP3 PUSH2 0x1AF JUMP JUMPDEST DUP2 ADD DUP2 DUP2 LT PUSH8 0xFFFFFFFFFFFFFFFF DUP3 GT OR ISZERO PUSH2 0x214 JUMPI PUSH2 0x213 PUSH2 0x1BF JUMP JUMPDEST JUMPDEST DUP1 PUSH1 0x40 MSTORE POP POP POP JUMP JUMPDEST PUSH0 PUSH2 0x226 PUSH2 0x196 JUMP JUMPDEST SWAP1 POP PUSH2 0x232 DUP3 DUP3 PUSH2 0x1EC JUMP JUMPDEST SWAP2 SWAP1 POP JUMP JUMPDEST PUSH0 PUSH8 0xFFFFFFFFFFFFFFFF DUP3 GT ISZERO PUSH2 0x251 JUMPI PUSH2 0x250 PUSH2 0x1BF JUMP JUMPDEST JUMPDEST PUSH2 0x25A DUP3 PUSH2 0x1AF JUMP JUMPDEST SWAP1 POP PUSH1 0x20 DUP2 ADD SWAP1 POP SWAP2 SWAP1 POP JUMP JUMPDEST DUP3 DUP2 DUP4 MCOPY PUSH0 DUP4 DUP4 ADD MSTORE POP POP POP JUMP JUMPDEST PUSH0 PUSH2 0x287 PUSH2 0x282 DUP5 PUSH2 0x237 JUMP JUMPDEST PUSH2 0x21D JUMP JUMPDEST SWAP1 POP DUP3 DUP2 MSTORE PUSH1 0x20 DUP2 ADD DUP5 DUP5 DUP5 ADD GT ISZERO PUSH2 0x2A3 JUMPI PUSH2 0x2A2 PUSH2 0x1AB JUMP JUMPDEST JUMPDEST PUSH2 0x2AE DUP5 DUP3 DUP6 PUSH2 0x267 JUMP JUMPDEST POP SWAP4 SWAP3 POP POP POP JUMP JUMPDEST PUSH0 DUP3 PUSH1 0x1F DUP4 ADD SLT PUSH2 0x2CA JUMPI PUSH2 0x2C9 PUSH2 0x1A7 JUMP JUMPDEST JUMPDEST DUP2 MLOAD PUSH2 0x2DA DUP5 DUP3 PUSH1 0x20 DUP7 ADD PUSH2 0x275 JUMP JUMPDEST SWAP2 POP POP SWAP3 SWAP2 POP POP JUMP JUMPDEST PUSH0 PUSH1 0xFF DUP3 AND SWAP1 POP SWAP2 SWAP1 POP JUMP JUMPDEST PUSH2 0x2F8 DUP2 PUSH2 0x2E3 JUMP JUMPDEST DUP2 EQ PUSH2 0x302 JUMPI PUSH0 PUSH0 REVERT JUMPDEST POP JUMP JUMPDEST PUSH0 DUP2 MLOAD SWAP1 POP PUSH2 0x313 DUP2 PUSH2 0x2EF JUMP JUMPDEST SWAP3 SWAP2 POP POP JUMP JUMPDEST PUSH0 DUP2 SWAP1 POP SWAP2 SWAP1 POP JUMP JUMPDEST PUSH2 0x32B DUP2 PUSH2 0x319 JUMP JUMPDEST DUP2 EQ PUSH2 0x335 JUMPI PUSH0 PUSH0 REVERT JUMPDEST POP JUMP JUMPDEST PUSH0 DUP2 MLOAD SWAP1 POP PUSH2 0x346 DUP2 PUSH2 0x322 JUMP JUMPDEST SWAP3 SWAP2 POP POP JUMP JUMPDEST PUSH0 PUSH0 PUSH0 PUSH0 PUSH1 0x80 DUP6 DUP8 SUB SLT ISZERO PUSH2 0x364 JUMPI PUSH2 0x363 PUSH2 0x19F JUMP JUMPDEST JUMPDEST PUSH0 DUP6 ADD MLOAD PUSH8 0xFFFFFFFFFFFFFFFF DUP2 GT ISZERO PUSH2 0x381 JUMPI PUSH2 0x380 PUSH2 0x1A3 JUMP JUMPDEST JUMPDEST PUSH2 0x38D DUP8 DUP3 DUP9 ADD PUSH2 0x2B6 JUMP JUMPDEST SWAP5 POP POP PUSH1 0x20 DUP6 ADD MLOAD PUSH8 0xFFFFFFFFFFFFFFFF DUP2 GT ISZERO PUSH2 0x3AE JUMPI PUSH2 0x3AD PUSH2 0x1A3 JUMP JUMPDEST JUMPDEST PUSH2 0x3BA DUP8 DUP3 DUP9 ADD PUSH2 0x2B6 JUMP JUMPDEST SWAP4 POP POP PUSH1 0x40 PUSH2 0x3CB DUP8 DUP3 DUP9 ADD PUSH2 0x305 JUMP JUMPDEST SWAP3 POP POP PUSH1 0x60 PUSH2 0x3DC DUP8 DUP3 DUP9 ADD PUSH2 0x338 JUMP JUMPDEST SWAP2 POP POP SWAP3 SWAP6 SWAP2 SWAP5 POP SWAP3 POP JUMP JUMPDEST PUSH0 DUP2 MLOAD SWAP1 POP SWAP2 SWAP1 POP JUMP JUMPDEST PUSH32 0x4E487B7100000000000000000000000000000000000000000000000000000000 PUSH0 MSTORE PUSH1 0x22 PUSH1 0x4 MSTORE PUSH1 0x24 PUSH0 REVERT JUMPDEST PUSH0 PUSH1 0x2 DUP3 DIV SWAP1 POP PUSH1 0x1 DUP3 AND DUP1 PUSH2 0x436 JUMPI PUSH1 0x7F DUP3 AND SWAP2 POP JUMPDEST PUSH1 0x20 DUP3 LT DUP2 SUB PUSH2 0x449 JUMPI PUSH2 0x448 PUSH2 0x3F2 JUMP JUMPDEST JUMPDEST POP SWAP2 SWAP1 POP JUMP JUMPDEST PUSH0 DUP2 SWAP1 POP DUP2 PUSH0 MSTORE PUSH1 0x20 PUSH0 KECCAK256 SWAP1 POP SWAP2 SWAP1 POP JUMP JUMPDEST PUSH0 PUSH1 0x20 PUSH1 0x1F DUP4 ADD DIV SWAP1 POP SWAP2 SWAP1 POP JUMP JUMPDEST PUSH0 DUP3 DUP3 SHL SWAP1 POP SWAP3 SWAP2 POP POP JUMP JUMPDEST PUSH0 PUSH1 0x8 DUP4 MUL PUSH2 0x4AB PUSH32 0xFFFFFFFFFFFFFFFFFFFFFFFFFFFFFFFFFFFFFFFFFFFFFFFFFFFFFFFFFFFFFFFF DUP3 PUSH2 0x470 JUMP JUMPDEST PUSH2 0x4B5 DUP7 DUP4 PUSH2 0x470 JUMP JUMPDEST SWAP6 POP DUP1 NOT DUP5 AND SWAP4 POP DUP1 DUP7 AND DUP5 OR SWAP3 POP POP POP SWAP4 SWAP3 POP POP POP JUMP JUMPDEST PUSH0 DUP2 SWAP1 POP SWAP2 SWAP1 POP JUMP JUMPDEST PUSH0 PUSH2 0x4F0 PUSH2 0x4EB PUSH2 0x4E6 DUP5 PUSH2 0x319 JUMP JUMPDEST PUSH2 0x4CD JUMP JUMPDEST PUSH2 0x319 JUMP JUMPDEST SWAP1 POP SWAP2 SWAP1 POP JUMP JUMPDEST PUSH0 DUP2 SWAP1 POP SWAP2 SWAP1 POP JUMP JUMPDEST PUSH2 0x509 DUP4 PUSH2 0x4D6 JUMP JUMPDEST PUSH2 0x51D PUSH2 0x515 DUP3 PUSH2 0x4F7 JUMP JUMPDEST DUP5 DUP5 SLOAD PUSH2 0x47C JUMP JUMPDEST DUP3 SSTORE POP POP POP POP JUMP JUMPDEST PUSH0 PUSH0 SWAP1 POP SWAP1 JUMP JUMPDEST PUSH2 0x534 PUSH2 0x525 JUMP JUMPDEST PUSH2 0x53F DUP2 DUP5 DUP5 PUSH2 0x500 JUMP JUMPDEST POP POP POP JUMP JUMPDEST PUSH0 JUMPDEST DUP3 DUP2 LT ISZERO PUSH2 0x565 JUMPI PUSH2 0x55A PUSH0 DUP3 DUP5 ADD PUSH2 0x52C JUMP JUMPDEST PUSH1 0x1 DUP2 ADD SWAP1 POP PUSH2 0x546 JUMP JUMPDEST POP POP POP JUMP JUMPDEST PUSH1 0x1F DUP3 GT ISZERO PUSH2 0x5B8 JUMPI DUP3 DUP3 GT ISZERO PUSH2 0x5B7 JUMPI PUSH2 0x584 DUP2 PUSH2 0x44F JUMP JUMPDEST PUSH2 0x58D DUP4 PUSH2 0x461 JUMP JUMPDEST PUSH2 0x596 DUP6 PUSH2 0x461 JUMP JUMPDEST PUSH1 0x20 DUP7 LT ISZERO PUSH2 0x5A3 JUMPI PUSH0 SWAP1 POP JUMPDEST DUP1 DUP4 ADD PUSH2 0x5B2 DUP3 DUP5 SUB DUP3 PUSH2 0x544 JUMP JUMPDEST POP POP POP POP JUMPDEST JUMPDEST POP POP POP JUMP JUMPDEST PUSH0 DUP3 DUP3 SHR SWAP1 POP SWAP3 SWAP2 POP POP JUMP JUMPDEST PUSH0 PUSH2 0x5D8 PUSH0 NOT DUP5 PUSH1 0x8 MUL PUSH2 0x5BD JUMP JUMPDEST NOT DUP1 DUP4 AND SWAP2 POP POP SWAP3 SWAP2 POP POP JUMP JUMPDEST PUSH0 PUSH2 0x5F0 DUP4 DUP4 PUSH2 0x5C9 JUMP JUMPDEST SWAP2 POP DUP3 PUSH1 0x2 MUL DUP3 OR SWAP1 POP SWAP3 SWAP2 POP POP JUMP JUMPDEST PUSH2 0x609 DUP3 PUSH2 0x3E8 JUMP JUMPDEST PUSH8 0xFFFFFFFFFFFFFFFF DUP2 GT ISZERO PUSH2 0x622 JUMPI PUSH2 0x621 PUSH2 0x1BF JUMP JUMPDEST JUMPDEST PUSH2 0x62C DUP3 SLOAD PUSH2 0x41F JUMP JUMPDEST PUSH2 0x637 DUP3 DUP3 DUP6 PUSH2 0x56A JUMP JUMPDEST PUSH0 PUSH1 0x20 SWAP1 POP PUSH1 0x1F DUP4 GT PUSH1 0x1 DUP2 EQ PUSH2 0x668 JUMPI PUSH0 DUP5 ISZERO PUSH2 0x656 JUMPI DUP3 DUP8 ADD MLOAD SWAP1 POP JUMPDEST PUSH2 0x660 DUP6 DUP3 PUSH2 0x5E5 JUMP JUMPDEST DUP7 SSTORE POP PUSH2 0x6C7 JUMP JUMPDEST PUSH1 0x1F NOT DUP5 AND PUSH2 0x676 DUP7 PUSH2 0x44F JUMP JUMPDEST PUSH0 JUMPDEST DUP3 DUP2 LT ISZERO PUSH2 0x69D JUMPI DUP5 DUP10 ADD MLOAD DUP3 SSTORE PUSH1 0x1 DUP3 ADD SWAP2 POP PUSH1 0x20 DUP6 ADD SWAP5 POP PUSH1 0x20 DUP2 ADD SWAP1 POP PUSH2 0x678 JUMP JUMPDEST DUP7 DUP4 LT ISZERO PUSH2 0x6BA JUMPI DUP5 DUP10 ADD MLOAD PUSH2 0x6B6 PUSH1 0x1F DUP10 AND DUP3 PUSH2 0x5C9 JUMP JUMPDEST DUP4 SSTORE POP JUMPDEST PUSH1 0x1 PUSH1 0x2 DUP9 MUL ADD DUP9 SSTORE POP POP POP JUMPDEST POP POP POP POP POP POP JUMP JUMPDEST PUSH32 0x4E487B7100000000000000000000000000000000000000000000000000000000 PUSH0 MSTORE PUSH1 0x11 PUSH1 0x4 MSTORE PUSH1 0x24 PUSH0 REVERT JUMPDEST PUSH0 DUP2 PUSH1 0x1 SHR SWAP1 POP SWAP2 SWAP1 POP JUMP JUMPDEST PUSH0 PUSH0 DUP3 SWAP2 POP DUP4 SWAP1 POP JUMPDEST PUSH1 0x1 DUP6 GT ISZERO PUSH2 0x751 JUMPI DUP1 DUP7 DIV DUP2 GT ISZERO PUSH2 0x72D JUMPI PUSH2 0x72C PUSH2 0x6CF JUMP JUMPDEST JUMPDEST PUSH1 0x1 DUP6 AND ISZERO PUSH2 0x73C JUMPI DUP1 DUP3 MUL SWAP2 POP JUMPDEST DUP1 DUP2 MUL SWAP1 POP PUSH2 0x74A DUP6 PUSH2 0x6FC JUMP JUMPDEST SWAP5 POP PUSH2 0x711 JUMP JUMPDEST SWAP5 POP SWAP5 SWAP3 POP POP POP JUMP JUMPDEST PUSH0 DUP3 PUSH2 0x769 JUMPI PUSH1 0x1 SWAP1 POP PUSH2 0x824 JUMP JUMPDEST DUP2 PUSH2 0x776 JUMPI PUSH0 SWAP1 POP PUSH2 0x824 JUMP JUMPDEST DUP2 PUSH1 0x1 DUP2 EQ PUSH2 0x78C JUMPI PUSH1 0x2 DUP2 EQ PUSH2 0x796 JUMPI PUSH2 0x7C5 JUMP JUMPDEST PUSH1 0x1 SWAP2 POP POP PUSH2 0x824 JUMP JUMPDEST PUSH1 0xFF DUP5 GT ISZERO PUSH2 0x7A8 JUMPI PUSH2 0x7A7 PUSH2 0x6CF JUMP JUMPDEST JUMPDEST DUP4 PUSH1 0x2 EXP SWAP2 POP DUP5 DUP3 GT ISZERO PUSH2 0x7BF JUMPI PUSH2 0x7BE PUSH2 0x6CF JUMP JUMPDEST JUMPDEST POP PUSH2 0x824 JUMP JUMPDEST POP PUSH1 0x20 DUP4 LT PUSH2 0x133 DUP4 LT AND PUSH1 0x4E DUP5 LT PUSH1 0xB DUP5 LT AND OR ISZERO PUSH2 0x7FA JUMPI DUP3 DUP3 EXP SWAP1 POP DUP4 DUP2 GT ISZERO PUSH2 0x7F5 JUMPI PUSH2 0x7F4 PUSH2 0x6CF JUMP JUMPDEST JUMPDEST PUSH2 0x824 JUMP JUMPDEST PUSH2 0x807 DUP5 DUP5 DUP5 PUSH1 0x1 PUSH2 0x708 JUMP JUMPDEST SWAP3 POP SWAP1 POP DUP2 DUP5 DIV DUP2 GT ISZERO PUSH2 0x81E JUMPI PUSH2 0x81D PUSH2 0x6CF JUMP JUMPDEST JUMPDEST DUP2 DUP2 MUL SWAP1 POP JUMPDEST SWAP4 SWAP3 POP POP POP JUMP JUMPDEST PUSH0 PUSH2 0x835 DUP3 PUSH2 0x319 JUMP JUMPDEST SWAP2 POP PUSH2 0x840 DUP4 PUSH2 0x2E3 JUMP JUMPDEST SWAP3 POP PUSH2 0x86D PUSH32 0xFFFFFFFFFFFFFFFFFFFFFFFFFFFFFFFFFFFFFFFFFFFFFFFFFFFFFFFFFFFFFFFF DUP5 DUP5 PUSH2 0x75A JUMP JUMPDEST SWAP1 POP SWAP3 SWAP2 POP POP JUMP JUMPDEST PUSH0 PUSH2 0x87F DUP3 PUSH2 0x319 JUMP JUMPDEST SWAP2 POP PUSH2 0x88A DUP4 PUSH2 0x319 JUMP JUMPDEST SWAP3 POP DUP3 DUP3 MUL PUSH2 0x898 DUP2 PUSH2 0x319 JUMP JUMPDEST SWAP2 POP DUP3 DUP3 DIV DUP5 EQ DUP4 ISZERO OR PUSH2 0x8AF JUMPI PUSH2 0x8AE PUSH2 0x6CF JUMP JUMPDEST JUMPDEST POP SWAP3 SWAP2 POP POP JUMP JUMPDEST PUSH2 0x8BF DUP2 PUSH2 0x319 JUMP JUMPDEST DUP3 MSTORE POP POP JUMP JUMPDEST PUSH0 PUSH1 0x20 DUP3 ADD SWAP1 POP PUSH2 0x8D8 PUSH0 DUP4 ADD DUP5 PUSH2 0x8B6 JUMP JUMPDEST SWAP3 SWAP2 POP POP JUMP JUMPDEST PUSH2 0x19F3 DUP1 PUSH2 0x8EB PUSH0 CODECOPY PUSH0 RETURN INVALID PUSH1 0x80 PUSH1 0x40 MSTORE CALLVALUE DUP1 ISZERO PUSH2 0xF JUMPI PUSH0 PUSH0 REVERT JUMPDEST POP PUSH1 0x4 CALLDATASIZE LT PUSH2 0xF3 JUMPI PUSH0 CALLDATALOAD PUSH1 0xE0 SHR DUP1 PUSH4 0x42966C68 GT PUSH2 0x95 JUMPI DUP1 PUSH4 0x8DA5CB5B GT PUSH2 0x64 JUMPI DUP1 PUSH4 0x8DA5CB5B EQ PUSH2 0x24B JUMPI DUP1 PUSH4 0x95D89B41 EQ PUSH2 0x269 JUMPI DUP1 PUSH4 0xA9059CBB EQ PUSH2 0x287 JUMPI DUP1 PUSH4 0xDD62ED3E EQ PUSH2 0x2B7 JUMPI PUSH2 0xF3 JUMP JUMPDEST DUP1 PUSH4 0x42966C68 EQ PUSH2 0x1D7 JUMPI DUP1 PUSH4 0x70A08231 EQ PUSH2 0x1F3 JUMPI DUP1 PUSH4 0x77163C1D EQ PUSH2 0x223 JUMPI DUP1 PUSH4 0x8456CB59 EQ PUSH2 0x241 JUMPI PUSH2 0xF3 JUMP JUMPDEST DUP1 PUSH4 0x18160DDD GT PUSH2 0xD1 JUMPI DUP1 PUSH4 0x18160DDD EQ PUSH2 0x14F JUMPI DUP1 PUSH4 0x23B872DD EQ PUSH2 0x16D JUMPI DUP1 PUSH4 0x313CE567 EQ PUSH2 0x19D JUMPI DUP1 PUSH4 0x40C10F19 EQ PUSH2 0x1BB JUMPI PUSH2 0xF3 JUMP JUMPDEST DUP1 PUSH4 0x46F7DA2 EQ PUSH2 0xF7 JUMPI DUP1 PUSH4 0x6FDDE03 EQ PUSH2 0x101 JUMPI DUP1 PUSH4 0x95EA7B3 EQ PUSH2 0x11F JUMPI JUMPDEST PUSH0 PUSH0 REVERT JUMPDEST PUSH2 0xFF PUSH2 0x2E7 JUMP JUMPDEST STOP JUMPDEST PUSH2 0x109 PUSH2 0x3E1 JUMP JUMPDEST PUSH1 0x40 MLOAD PUSH2 0x116 SWAP2 SWAP1 PUSH2 0x1493 JUMP JUMPDEST PUSH1 0x40 MLOAD DUP1 SWAP2 SUB SWAP1 RETURN JUMPDEST PUSH2 0x139 PUSH1 0x4 DUP1 CALLDATASIZE SUB DUP2 ADD SWAP1 PUSH2 0x134 SWAP2 SWAP1 PUSH2 0x1544 JUMP JUMPDEST PUSH2 0x46C JUMP JUMPDEST PUSH1 0x40 MLOAD PUSH2 0x146 SWAP2 SWAP1 PUSH2 0x159C JUMP JUMPDEST PUSH1 0x40 MLOAD DUP1 SWAP2 SUB SWAP1 RETURN JUMPDEST PUSH2 0x157 PUSH2 0x65D JUMP JUMPDEST PUSH1 0x40 MLOAD PUSH2 0x164 SWAP2 SWAP1 PUSH2 0x15C4 JUMP JUMPDEST PUSH1 0x40 MLOAD DUP1 SWAP2 SUB SWAP1 RETURN JUMPDEST PUSH2 0x187 PUSH1 0x4 DUP1 CALLDATASIZE SUB DUP2 ADD SWAP1 PUSH2 0x182 SWAP2 SWAP1 PUSH2 0x15DD JUMP JUMPDEST PUSH2 0x663 JUMP JUMPDEST PUSH1 0x40 MLOAD PUSH2 0x194 SWAP2 SWAP1 PUSH2 0x159C JUMP JUMPDEST PUSH1 0x40 MLOAD DUP1 SWAP2 SUB SWAP1 RETURN JUMPDEST PUSH2 0x1A5 PUSH2 0xB7A JUMP JUMPDEST PUSH1 0x40 MLOAD PUSH2 0x1B2 SWAP2 SWAP1 PUSH2 0x1648 JUMP JUMPDEST PUSH1 0x40 MLOAD DUP1 SWAP2 SUB SWAP1 RETURN JUMPDEST PUSH2 0x1D5 PUSH1 0x4 DUP1 CALLDATASIZE SUB DUP2 ADD SWAP1 PUSH2 0x1D0 SWAP2 SWAP1 PUSH2 0x1544 JUMP JUMPDEST PUSH2 0xB8C JUMP JUMPDEST STOP JUMPDEST PUSH2 0x1F1 PUSH1 0x4 DUP1 CALLDATASIZE SUB DUP2 ADD SWAP1 PUSH2 0x1EC SWAP2 SWAP1 PUSH2 0x1661 JUMP JUMPDEST PUSH2 0xDF3 JUMP JUMPDEST STOP JUMPDEST PUSH2 0x20D PUSH1 0x4 DUP1 CALLDATASIZE SUB DUP2 ADD SWAP1 PUSH2 0x208 SWAP2 SWAP1 PUSH2 0x168C JUMP JUMPDEST PUSH2 0xF5A JUMP JUMPDEST PUSH1 0x40 MLOAD PUSH2 0x21A SWAP2 SWAP1 PUSH2 0x15C4 JUMP JUMPDEST PUSH1 0x40 MLOAD DUP1 SWAP2 SUB SWAP1 RETURN JUMPDEST PUSH2 0x22B PUSH2 0xF6F JUMP JUMPDEST PUSH1 0x40 MLOAD PUSH2 0x238 SWAP2 SWAP1 PUSH2 0x15C4 JUMP JUMPDEST PUSH1 0x40 MLOAD DUP1 SWAP2 SUB SWAP1 RETURN JUMPDEST PUSH2 0x249 PUSH2 0xF74 JUMP JUMPDEST STOP JUMPDEST PUSH2 0x253 PUSH2 0x1070 JUMP JUMPDEST PUSH1 0x40 MLOAD PUSH2 0x260 SWAP2 SWAP1 PUSH2 0x16C6 JUMP JUMPDEST PUSH1 0x40 MLOAD DUP1 SWAP2 SUB SWAP1 RETURN JUMPDEST PUSH2 0x271 PUSH2 0x1095 JUMP JUMPDEST PUSH1 0x40 MLOAD PUSH2 0x27E SWAP2 SWAP1 PUSH2 0x1493 JUMP JUMPDEST PUSH1 0x40 MLOAD DUP1 SWAP2 SUB SWAP1 RETURN JUMPDEST PUSH2 0x2A1 PUSH1 0x4 DUP1 CALLDATASIZE SUB DUP2 ADD SWAP1 PUSH2 0x29C SWAP2 SWAP1 PUSH2 0x1544 JUMP JUMPDEST PUSH2 0x1121 JUMP JUMPDEST PUSH1 0x40 MLOAD PUSH2 0x2AE SWAP2 SWAP1 PUSH2 0x159C JUMP JUMPDEST PUSH1 0x40 MLOAD DUP1 SWAP2 SUB SWAP1 RETURN JUMPDEST PUSH2 0x2D1 PUSH1 0x4 DUP1 CALLDATASIZE SUB DUP2 ADD SWAP1 PUSH2 0x2CC SWAP2 SWAP1 PUSH2 0x16DF JUMP JUMPDEST PUSH2 0x1403 JUMP JUMPDEST PUSH1 0x40 MLOAD PUSH2 0x2DE SWAP2 SWAP1 PUSH2 0x15C4 JUMP JUMPDEST PUSH1 0x40 MLOAD DUP1 SWAP2 SUB SWAP1 RETURN JUMPDEST CALLER PUSH20 0xFFFFFFFFFFFFFFFFFFFFFFFFFFFFFFFFFFFFFFFF AND PUSH1 0x6 PUSH0 SWAP1 SLOAD SWAP1 PUSH2 0x100 EXP SWAP1 DIV PUSH20 0xFFFFFFFFFFFFFFFFFFFFFFFFFFFFFFFFFFFFFFFF AND PUSH20 0xFFFFFFFFFFFFFFFFFFFFFFFFFFFFFFFFFFFFFFFF AND EQ PUSH2 0x376 JUMPI PUSH1 0x40 MLOAD PUSH32 0x8C379A000000000000000000000000000000000000000000000000000000000 DUP2 MSTORE PUSH1 0x4 ADD PUSH2 0x36D SWAP1 PUSH2 0x1767 JUMP JUMPDEST PUSH1 0x40 MLOAD DUP1 SWAP2 SUB SWAP1 REVERT JUMPDEST PUSH1 0x6 PUSH1 0x14 SWAP1 SLOAD SWAP1 PUSH2 0x100 EXP SWAP1 DIV PUSH1 0xFF AND PUSH2 0x3C5 JUMPI PUSH1 0x40 MLOAD PUSH32 0x8C379A000000000000000000000000000000000000000000000000000000000 DUP2 MSTORE PUSH1 0x4 ADD PUSH2 0x3BC SWAP1 PUSH2 0x17CF JUMP JUMPDEST PUSH1 0x40 MLOAD DUP1 SWAP2 SUB SWAP1 REVERT JUMPDEST PUSH0 PUSH1 0x6 PUSH1 0x14 PUSH2 0x100 EXP DUP2 SLOAD DUP2 PUSH1 0xFF MUL NOT AND SWAP1 DUP4 ISZERO ISZERO MUL OR SWAP1 SSTORE POP JUMP JUMPDEST PUSH0 DUP1 SLOAD PUSH2 0x3ED SWAP1 PUSH2 0x181A JUMP JUMPDEST DUP1 PUSH1 0x1F ADD PUSH1 0x20 DUP1 SWAP2 DIV MUL PUSH1 0x20 ADD PUSH1 0x40 MLOAD SWAP1 DUP2 ADD PUSH1 0x40 MSTORE DUP1 SWAP3 SWAP2 SWAP1 DUP2 DUP2 MSTORE PUSH1 0x20 ADD DUP3 DUP1 SLOAD PUSH2 0x419 SWAP1 PUSH2 0x181A JUMP JUMPDEST DUP1 ISZERO PUSH2 0x464 JUMPI DUP1 PUSH1 0x1F LT PUSH2 0x43B JUMPI PUSH2 0x100 DUP1 DUP4 SLOAD DIV MUL DUP4 MSTORE SWAP2 PUSH1 0x20 ADD SWAP2 PUSH2 0x464 JUMP JUMPDEST DUP3 ADD SWAP2 SWAP1 PUSH0 MSTORE PUSH1 0x20 PUSH0 KECCAK256 SWAP1 JUMPDEST DUP2 SLOAD DUP2 MSTORE SWAP1 PUSH1 0x1 ADD SWAP1 PUSH1 0x20 ADD DUP1 DUP4 GT PUSH2 0x447 JUMPI DUP3 SWAP1 SUB PUSH1 0x1F AND DUP3 ADD SWAP2 JUMPDEST POP POP POP POP POP DUP2 JUMP JUMPDEST PUSH0 PUSH1 0x6 PUSH1 0x14 SWAP1 SLOAD SWAP1 PUSH2 0x100 EXP SWAP1 DIV PUSH1 0xFF AND ISZERO PUSH2 0x4BD JUMPI PUSH1 0x40 MLOAD PUSH32 0x8C379A000000000000000000000000000000000000000000000000000000000 DUP2 MSTORE PUSH1 0x4 ADD PUSH2 0x4B4 SWAP1 PUSH2 0x1894 JUMP JUMPDEST PUSH1 0x40 MLOAD DUP1 SWAP2 SUB SWAP1 REVERT JUMPDEST PUSH0 PUSH20 0xFFFFFFFFFFFFFFFFFFFFFFFFFFFFFFFFFFFFFFFF AND DUP4 PUSH20 0xFFFFFFFFFFFFFFFFFFFFFFFFFFFFFFFFFFFFFFFF AND SUB PUSH2 0x52D JUMPI DUP3 PUSH1 0x40 MLOAD PUSH32 0x17858BBE00000000000000000000000000000000000000000000000000000000 DUP2 MSTORE PUSH1 0x4 ADD PUSH2 0x524 SWAP2 SWAP1 PUSH2 0x16C6 JUMP JUMPDEST PUSH1 0x40 MLOAD DUP1 SWAP2 SUB SWAP1 REVERT JUMPDEST PUSH0 DUP3 SUB PUSH2 0x571 JUMPI DUP2 PUSH1 0x40 MLOAD PUSH32 0x3728B83D00000000000000000000000000000000000000000000000000000000 DUP2 MSTORE PUSH1 0x4 ADD PUSH2 0x568 SWAP2 SWAP1 PUSH2 0x15C4 JUMP JUMPDEST PUSH1 0x40 MLOAD DUP1 SWAP2 SUB SWAP1 REVERT JUMPDEST DUP2 PUSH1 0x5 PUSH0 CALLER PUSH20 0xFFFFFFFFFFFFFFFFFFFFFFFFFFFFFFFFFFFFFFFF AND PUSH20 0xFFFFFFFFFFFFFFFFFFFFFFFFFFFFFFFFFFFFFFFF AND DUP2 MSTORE PUSH1 0x20 ADD SWAP1 DUP2 MSTORE PUSH1 0x20 ADD PUSH0 KECCAK256 PUSH0 DUP6 PUSH20 0xFFFFFFFFFFFFFFFFFFFFFFFFFFFFFFFFFFFFFFFF AND PUSH20 0xFFFFFFFFFFFFFFFFFFFFFFFFFFFFFFFFFFFFFFFF AND DUP2 MSTORE PUSH1 0x20 ADD SWAP1 DUP2 MSTORE PUSH1 0x20 ADD PUSH0 KECCAK256 DUP2 SWAP1 SSTORE POP DUP3 PUSH20 0xFFFFFFFFFFFFFFFFFFFFFFFFFFFFFFFFFFFFFFFF AND CALLER PUSH20 0xFFFFFFFFFFFFFFFFFFFFFFFFFFFFFFFFFFFFFFFF AND PUSH32 0x8C5BE1E5EBEC7D5BD14F71427D1E84F3DD0314C0F7B2291E5B200AC8C7C3B925 DUP5 PUSH1 0x40 MLOAD PUSH2 0x64B SWAP2 SWAP1 PUSH2 0x15C4 JUMP JUMPDEST PUSH1 0x40 MLOAD DUP1 SWAP2 SUB SWAP1 LOG3 PUSH1 0x1 SWAP1 POP SWAP3 SWAP2 POP POP JUMP JUMPDEST PUSH1 0x3 SLOAD DUP2 JUMP JUMPDEST PUSH0 PUSH1 0x6 PUSH1 0x14 SWAP1 SLOAD SWAP1 PUSH2 0x100 EXP SWAP1 DIV PUSH1 0xFF AND ISZERO PUSH2 0x6B4 JUMPI PUSH1 0x40 MLOAD PUSH32 0x8C379A000000000000000000000000000000000000000000000000000000000 DUP2 MSTORE PUSH1 0x4 ADD PUSH2 0x6AB SWAP1 PUSH2 0x1894 JUMP JUMPDEST PUSH1 0x40 MLOAD DUP1 SWAP2 SUB SWAP1 REVERT JUMPDEST PUSH0 PUSH20 0xFFFFFFFFFFFFFFFFFFFFFFFFFFFFFFFFFFFFFFFF AND DUP5 PUSH20 0xFFFFFFFFFFFFFFFFFFFFFFFFFFFFFFFFFFFFFFFF AND SUB PUSH2 0x724 JUMPI DUP4 PUSH1 0x40 MLOAD PUSH32 0x17858BBE00000000000000000000000000000000000000000000000000000000 DUP2 MSTORE PUSH1 0x4 ADD PUSH2 0x71B SWAP2 SWAP1 PUSH2 0x16C6 JUMP JUMPDEST PUSH1 0x40 MLOAD DUP1 SWAP2 SUB SWAP1 REVERT JUMPDEST PUSH0 PUSH20 0xFFFFFFFFFFFFFFFFFFFFFFFFFFFFFFFFFFFFFFFF AND DUP4 PUSH20 0xFFFFFFFFFFFFFFFFFFFFFFFFFFFFFFFFFFFFFFFF AND SUB PUSH2 0x794 JUMPI DUP3 PUSH1 0x40 MLOAD PUSH32 0x17858BBE00000000000000000000000000000000000000000000000000000000 DUP2 MSTORE PUSH1 0x4 ADD PUSH2 0x78B SWAP2 SWAP1 PUSH2 0x16C6 JUMP JUMPDEST PUSH1 0x40 MLOAD DUP1 SWAP2 SUB SWAP1 REVERT JUMPDEST PUSH0 DUP3 SUB PUSH2 0x7D8 JUMPI DUP2 PUSH1 0x40 MLOAD PUSH32 0x3728B83D00000000000000000000000000000000000000000000000000000000 DUP2 MSTORE PUSH1 0x4 ADD PUSH2 0x7CF SWAP2 SWAP1 PUSH2 0x15C4 JUMP JUMPDEST PUSH1 0x40 MLOAD DUP1 SWAP2 SUB SWAP1 REVERT JUMPDEST DUP2 PUSH1 0x4 PUSH0 DUP7 PUSH20 0xFFFFFFFFFFFFFFFFFFFFFFFFFFFFFFFFFFFFFFFF AND PUSH20 0xFFFFFFFFFFFFFFFFFFFFFFFFFFFFFFFFFFFFFFFF AND DUP2 MSTORE PUSH1 0x20 ADD SWAP1 DUP2 MSTORE PUSH1 0x20 ADD PUSH0 KECCAK256 SLOAD LT ISZERO PUSH2 0x89B JUMPI DUP4 PUSH1 0x4 PUSH0 DUP7 PUSH20 0xFFFFFFFFFFFFFFFFFFFFFFFFFFFFFFFFFFFFFFFF AND PUSH20 0xFFFFFFFFFFFFFFFFFFFFFFFFFFFFFFFFFFFFFFFF AND DUP2 MSTORE PUSH1 0x20 ADD SWAP1 DUP2 MSTORE PUSH1 0x20 ADD PUSH0 KECCAK256 SLOAD DUP4 PUSH1 0x40 MLOAD PUSH32 0xDB42144D00000000000000000000000000000000000000000000000000000000 DUP2 MSTORE PUSH1 0x4 ADD PUSH2 0x892 SWAP4 SWAP3 SWAP2 SWAP1 PUSH2 0x18B2 JUMP JUMPDEST PUSH1 0x40 MLOAD DUP1 SWAP2 SUB SWAP1 REVERT JUMPDEST DUP2 PUSH1 0x5 PUSH0 DUP7 PUSH20 0xFFFFFFFFFFFFFFFFFFFFFFFFFFFFFFFFFFFFFFFF AND PUSH20 0xFFFFFFFFFFFFFFFFFFFFFFFFFFFFFFFFFFFFFFFF AND DUP2 MSTORE PUSH1 0x20 ADD SWAP1 DUP2 MSTORE PUSH1 0x20 ADD PUSH0 KECCAK256 PUSH0 CALLER PUSH20 0xFFFFFFFFFFFFFFFFFFFFFFFFFFFFFFFFFFFFFFFF AND PUSH20 0xFFFFFFFFFFFFFFFFFFFFFFFFFFFFFFFFFFFFFFFF AND DUP2 MSTORE PUSH1 0x20 ADD SWAP1 DUP2 MSTORE PUSH1 0x20 ADD PUSH0 KECCAK256 SLOAD LT ISZERO PUSH2 0x9D6 JUMPI DUP4 DUP4 PUSH1 0x5 PUSH0 DUP8 PUSH20 0xFFFFFFFFFFFFFFFFFFFFFFFFFFFFFFFFFFFFFFFF AND PUSH20 0xFFFFFFFFFFFFFFFFFFFFFFFFFFFFFFFFFFFFFFFF AND DUP2 MSTORE PUSH1 0x20 ADD SWAP1 DUP2 MSTORE PUSH1 0x20 ADD PUSH0 KECCAK256 PUSH0 CALLER PUSH20 0xFFFFFFFFFFFFFFFFFFFFFFFFFFFFFFFFFFFFFFFF AND PUSH20 0xFFFFFFFFFFFFFFFFFFFFFFFFFFFFFFFFFFFFFFFF AND DUP2 MSTORE PUSH1 0x20 ADD SWAP1 DUP2 MSTORE PUSH1 0x20 ADD PUSH0 KECCAK256 SLOAD DUP5 PUSH1 0x40 MLOAD PUSH32 0x91BEDA2400000000000000000000000000000000000000000000000000000000 DUP2 MSTORE PUSH1 0x4 ADD PUSH2 0x9CD SWAP5 SWAP4 SWAP3 SWAP2 SWAP1 PUSH2 0x18E7 JUMP JUMPDEST PUSH1 0x40 MLOAD DUP1 SWAP2 SUB SWAP1 REVERT JUMPDEST DUP2 PUSH1 0x4 PUSH0 DUP7 PUSH20 0xFFFFFFFFFFFFFFFFFFFFFFFFFFFFFFFFFFFFFFFF AND PUSH20 0xFFFFFFFFFFFFFFFFFFFFFFFFFFFFFFFFFFFFFFFF AND DUP2 MSTORE PUSH1 0x20 ADD SWAP1 DUP2 MSTORE PUSH1 0x20 ADD PUSH0 KECCAK256 PUSH0 DUP3 DUP3 SLOAD PUSH2 0xA22 SWAP2 SWAP1 PUSH2 0x1957 JUMP JUMPDEST SWAP3 POP POP DUP2 SWAP1 SSTORE POP DUP2 PUSH1 0x4 PUSH0 DUP6 PUSH20 0xFFFFFFFFFFFFFFFFFFFFFFFFFFFFFFFFFFFFFFFF AND PUSH20 0xFFFFFFFFFFFFFFFFFFFFFFFFFFFFFFFFFFFFFFFF AND DUP2 MSTORE PUSH1 0x20 ADD SWAP1 DUP2 MSTORE PUSH1 0x20 ADD PUSH0 KECCAK256 PUSH0 DUP3 DUP3 SLOAD PUSH2 0xA75 SWAP2 SWAP1 PUSH2 0x198A JUMP JUMPDEST SWAP3 POP POP DUP2 SWAP1 SSTORE POP DUP2 PUSH1 0x5 PUSH0 DUP7 PUSH20 0xFFFFFFFFFFFFFFFFFFFFFFFFFFFFFFFFFFFFFFFF AND PUSH20 0xFFFFFFFFFFFFFFFFFFFFFFFFFFFFFFFFFFFFFFFF AND DUP2 MSTORE PUSH1 0x20 ADD SWAP1 DUP2 MSTORE PUSH1 0x20 ADD PUSH0 KECCAK256 PUSH0 CALLER PUSH20 0xFFFFFFFFFFFFFFFFFFFFFFFFFFFFFFFFFFFFFFFF AND PUSH20 0xFFFFFFFFFFFFFFFFFFFFFFFFFFFFFFFFFFFFFFFF AND DUP2 MSTORE PUSH1 0x20 ADD SWAP1 DUP2 MSTORE PUSH1 0x20 ADD PUSH0 KECCAK256 PUSH0 DUP3 DUP3 SLOAD PUSH2 0xB03 SWAP2 SWAP1 PUSH2 0x1957 JUMP JUMPDEST SWAP3 POP POP DUP2 SWAP1 SSTORE POP DUP3 PUSH20 0xFFFFFFFFFFFFFFFFFFFFFFFFFFFFFFFFFFFFFFFF AND DUP5 PUSH20 0xFFFFFFFFFFFFFFFFFFFFFFFFFFFFFFFFFFFFFFFF AND PUSH32 0xDDF252AD1BE2C89B69C2B068FC378DAA952BA7F163C4A11628F55A4DF523B3EF DUP5 PUSH1 0x40 MLOAD PUSH2 0xB67 SWAP2 SWAP1 PUSH2 0x15C4 JUMP JUMPDEST PUSH1 0x40 MLOAD DUP1 SWAP2 SUB SWAP1 LOG3 PUSH1 0x1 SWAP1 POP SWAP4 SWAP3 POP POP POP JUMP JUMPDEST PUSH1 0x2 PUSH0 SWAP1 SLOAD SWAP1 PUSH2 0x100 EXP SWAP1 DIV PUSH1 0xFF AND DUP2 JUMP JUMPDEST CALLER PUSH20 0xFFFFFFFFFFFFFFFFFFFFFFFFFFFFFFFFFFFFFFFF AND PUSH1 0x6 PUSH0 SWAP1 SLOAD SWAP1 PUSH2 0x100 EXP SWAP1 DIV PUSH20 0xFFFFFFFFFFFFFFFFFFFFFFFFFFFFFFFFFFFFFFFF AND PUSH20 0xFFFFFFFFFFFFFFFFFFFFFFFFFFFFFFFFFFFFFFFF AND EQ PUSH2 0xC1B JUMPI PUSH1 0x40 MLOAD PUSH32 0x8C379A000000000000000000000000000000000000000000000000000000000 DUP2 MSTORE PUSH1 0x4 ADD PUSH2 0xC12 SWAP1 PUSH2 0x1767 JUMP JUMPDEST PUSH1 0x40 MLOAD DUP1 SWAP2 SUB SWAP1 REVERT JUMPDEST PUSH1 0x6 PUSH1 0x14 SWAP1 SLOAD SWAP1 PUSH2 0x100 EXP SWAP1 DIV PUSH1 0xFF AND ISZERO PUSH2 0xC6B JUMPI PUSH1 0x40 MLOAD PUSH32 0x8C379A000000000000000000000000000000000000000000000000000000000 DUP2 MSTORE PUSH1 0x4 ADD PUSH2 0xC62 SWAP1 PUSH2 0x1894 JUMP JUMPDEST PUSH1 0x40 MLOAD DUP1 SWAP2 SUB SWAP1 REVERT JUMPDEST PUSH0 PUSH20 0xFFFFFFFFFFFFFFFFFFFFFFFFFFFFFFFFFFFFFFFF AND DUP3 PUSH20 0xFFFFFFFFFFFFFFFFFFFFFFFFFFFFFFFFFFFFFFFF AND SUB PUSH2 0xCDB JUMPI DUP2 PUSH1 0x40 MLOAD PUSH32 0x17858BBE00000000000000000000000000000000000000000000000000000000 DUP2 MSTORE PUSH1 0x4 ADD PUSH2 0xCD2 SWAP2 SWAP1 PUSH2 0x16C6 JUMP JUMPDEST PUSH1 0x40 MLOAD DUP1 SWAP2 SUB SWAP1 REVERT JUMPDEST PUSH0 DUP2 SUB PUSH2 0xD1F JUMPI DUP1 PUSH1 0x40 MLOAD PUSH32 0x3728B83D00000000000000000000000000000000000000000000000000000000 DUP2 MSTORE PUSH1 0x4 ADD PUSH2 0xD16 SWAP2 SWAP1 PUSH2 0x15C4 JUMP JUMPDEST PUSH1 0x40 MLOAD DUP1 SWAP2 SUB SWAP1 REVERT JUMPDEST DUP1 PUSH1 0x3 PUSH0 DUP3 DUP3 SLOAD PUSH2 0xD30 SWAP2 SWAP1 PUSH2 0x198A JUMP JUMPDEST SWAP3 POP POP DUP2 SWAP1 SSTORE POP DUP1 PUSH1 0x4 PUSH0 DUP5 PUSH20 0xFFFFFFFFFFFFFFFFFFFFFFFFFFFFFFFFFFFFFFFF AND PUSH20 0xFFFFFFFFFFFFFFFFFFFFFFFFFFFFFFFFFFFFFFFF AND DUP2 MSTORE PUSH1 0x20 ADD SWAP1 DUP2 MSTORE PUSH1 0x20 ADD PUSH0 KECCAK256 PUSH0 DUP3 DUP3 SLOAD PUSH2 0xD83 SWAP2 SWAP1 PUSH2 0x198A JUMP JUMPDEST SWAP3 POP POP DUP2 SWAP1 SSTORE POP DUP2 PUSH20 0xFFFFFFFFFFFFFFFFFFFFFFFFFFFFFFFFFFFFFFFF AND PUSH0 PUSH20 0xFFFFFFFFFFFFFFFFFFFFFFFFFFFFFFFFFFFFFFFF AND PUSH32 0xDDF252AD1BE2C89B69C2B068FC378DAA952BA7F163C4A11628F55A4DF523B3EF DUP4 PUSH1 0x40 MLOAD PUSH2 0xDE7 SWAP2 SWAP1 PUSH2 0x15C4 JUMP JUMPDEST PUSH1 0x40 MLOAD DUP1 SWAP2 SUB SWAP1 LOG3 POP POP JUMP JUMPDEST PUSH1 0x6 PUSH1 0x14 SWAP1 SLOAD SWAP1 PUSH2 0x100 EXP SWAP1 DIV PUSH1 0xFF AND ISZERO PUSH2 0xE43 JUMPI PUSH1 0x40 MLOAD PUSH32 0x8C379A000000000000000000000000000000000000000000000000000000000 DUP2 MSTORE PUSH1 0x4 ADD PUSH2 0xE3A SWAP1 PUSH2 0x1894 JUMP JUMPDEST PUSH1 0x40 MLOAD DUP1 SWAP2 SUB SWAP1 REVERT JUMPDEST PUSH0 DUP2 SUB PUSH2 0xE87 JUMPI DUP1 PUSH1 0x40 MLOAD PUSH32 0x3728B83D00000000000000000000000000000000000000000000000000000000 DUP2 MSTORE PUSH1 0x4 ADD PUSH2 0xE7E SWAP2 SWAP1 PUSH2 0x15C4 JUMP JUMPDEST PUSH1 0x40 MLOAD DUP1 SWAP2 SUB SWAP1 REVERT JUMPDEST DUP1 PUSH1 0x3 PUSH0 DUP3 DUP3 SLOAD PUSH2 0xE98 SWAP2 SWAP1 PUSH2 0x1957 JUMP JUMPDEST SWAP3 POP POP DUP2 SWAP1 SSTORE POP DUP1 PUSH1 0x4 PUSH0 CALLER PUSH20 0xFFFFFFFFFFFFFFFFFFFFFFFFFFFFFFFFFFFFFFFF AND PUSH20 0xFFFFFFFFFFFFFFFFFFFFFFFFFFFFFFFFFFFFFFFF AND DUP2 MSTORE PUSH1 0x20 ADD SWAP1 DUP2 MSTORE PUSH1 0x20 ADD PUSH0 KECCAK256 PUSH0 DUP3 DUP3 SLOAD PUSH2 0xEEB SWAP2 SWAP1 PUSH2 0x1957 JUMP JUMPDEST SWAP3 POP POP DUP2 SWAP1 SSTORE POP CALLER PUSH20 0xFFFFFFFFFFFFFFFFFFFFFFFFFFFFFFFFFFFFFFFF AND CALLER PUSH20 0xFFFFFFFFFFFFFFFFFFFFFFFFFFFFFFFFFFFFFFFF AND PUSH32 0xDDF252AD1BE2C89B69C2B068FC378DAA952BA7F163C4A11628F55A4DF523B3EF DUP4 PUSH1 0x40 MLOAD PUSH2 0xF4F SWAP2 SWAP1 PUSH2 0x15C4 JUMP JUMPDEST PUSH1 0x40 MLOAD DUP1 SWAP2 SUB SWAP1 LOG3 POP JUMP JUMPDEST PUSH1 0x4 PUSH1 0x20 MSTORE DUP1 PUSH0 MSTORE PUSH1 0x40 PUSH0 KECCAK256 PUSH0 SWAP2 POP SWAP1 POP SLOAD DUP2 JUMP JUMPDEST PUSH1 0x32 DUP2 JUMP JUMPDEST CALLER PUSH20 0xFFFFFFFFFFFFFFFFFFFFFFFFFFFFFFFFFFFFFFFF AND PUSH1 0x6 PUSH0 SWAP1 SLOAD SWAP1 PUSH2 0x100 EXP SWAP1 DIV PUSH20 0xFFFFFFFFFFFFFFFFFFFFFFFFFFFFFFFFFFFFFFFF AND PUSH20 0xFFFFFFFFFFFFFFFFFFFFFFFFFFFFFFFFFFFFFFFF AND EQ PUSH2 0x1003 JUMPI PUSH1 0x40 MLOAD PUSH32 0x8C379A000000000000000000000000000000000000000000000000000000000 DUP2 MSTORE PUSH1 0x4 ADD PUSH2 0xFFA SWAP1 PUSH2 0x1767 JUMP JUMPDEST PUSH1 0x40 MLOAD DUP1 SWAP2 SUB SWAP1 REVERT JUMPDEST PUSH1 0x6 PUSH1 0x14 SWAP1 SLOAD SWAP1 PUSH2 0x100 EXP SWAP1 DIV PUSH1 0xFF AND ISZERO PUSH2 0x1053 JUMPI PUSH1 0x40 MLOAD PUSH32 0x8C379A000000000000000000000000000000000000000000000000000000000 DUP2 MSTORE PUSH1 0x4 ADD PUSH2 0x104A SWAP1 PUSH2 0x1894 JUMP JUMPDEST PUSH1 0x40 MLOAD DUP1 SWAP2 SUB SWAP1 REVERT JUMPDEST PUSH1 0x1 PUSH1 0x6 PUSH1 0x14 PUSH2 0x100 EXP DUP2 SLOAD DUP2 PUSH1 0xFF MUL NOT AND SWAP1 DUP4 ISZERO ISZERO MUL OR SWAP1 SSTORE POP JUMP JUMPDEST PUSH1 0x6 PUSH0 SWAP1 SLOAD SWAP1 PUSH2 0x100 EXP SWAP1 DIV PUSH20 0xFFFFFFFFFFFFFFFFFFFFFFFFFFFFFFFFFFFFFFFF AND DUP2 JUMP JUMPDEST PUSH1 0x1 DUP1 SLOAD PUSH2 0x10A2 SWAP1 PUSH2 0x181A JUMP JUMPDEST DUP1 PUSH1 0x1F ADD PUSH1 0x20 DUP1 SWAP2 DIV MUL PUSH1 0x20 ADD PUSH1 0x40 MLOAD SWAP1 DUP2 ADD PUSH1 0x40 MSTORE DUP1 SWAP3 SWAP2 SWAP1 DUP2 DUP2 MSTORE PUSH1 0x20 ADD DUP3 DUP1 SLOAD PUSH2 0x10CE SWAP1 PUSH2 0x181A JUMP JUMPDEST DUP1 ISZERO PUSH2 0x1119 JUMPI DUP1 PUSH1 0x1F LT PUSH2 0x10F0 JUMPI PUSH2 0x100 DUP1 DUP4 SLOAD DIV MUL DUP4 MSTORE SWAP2 PUSH1 0x20 ADD SWAP2 PUSH2 0x1119 JUMP JUMPDEST DUP3 ADD SWAP2 SWAP1 PUSH0 MSTORE PUSH1 0x20 PUSH0 KECCAK256 SWAP1 JUMPDEST DUP2 SLOAD DUP2 MSTORE SWAP1 PUSH1 0x1 ADD SWAP1 PUSH1 0x20 ADD DUP1 DUP4 GT PUSH2 0x10FC JUMPI DUP3 SWAP1 SUB PUSH1 0x1F AND DUP3 ADD SWAP2 JUMPDEST POP POP POP POP POP DUP2 JUMP JUMPDEST PUSH0 PUSH1 0x6 PUSH1 0x14 SWAP1 SLOAD SWAP1 PUSH2 0x100 EXP SWAP1 DIV PUSH1 0xFF AND ISZERO PUSH2 0x1172 JUMPI PUSH1 0x40 MLOAD PUSH32 0x8C379A000000000000000000000000000000000000000000000000000000000 DUP2 MSTORE PUSH1 0x4 ADD PUSH2 0x1169 SWAP1 PUSH2 0x1894 JUMP JUMPDEST PUSH1 0x40 MLOAD DUP1 SWAP2 SUB SWAP1 REVERT JUMPDEST PUSH0 PUSH20 0xFFFFFFFFFFFFFFFFFFFFFFFFFFFFFFFFFFFFFFFF AND DUP4 PUSH20 0xFFFFFFFFFFFFFFFFFFFFFFFFFFFFFFFFFFFFFFFF AND SUB PUSH2 0x11E2 JUMPI DUP3 PUSH1 0x40 MLOAD PUSH32 0x17858BBE00000000000000000000000000000000000000000000000000000000 DUP2 MSTORE PUSH1 0x4 ADD PUSH2 0x11D9 SWAP2 SWAP1 PUSH2 0x16C6 JUMP JUMPDEST PUSH1 0x40 MLOAD DUP1 SWAP2 SUB SWAP1 REVERT JUMPDEST PUSH0 DUP3 SUB PUSH2 0x1226 JUMPI DUP2 PUSH1 0x40 MLOAD PUSH32 0x3728B83D00000000000000000000000000000000000000000000000000000000 DUP2 MSTORE PUSH1 0x4 ADD PUSH2 0x121D SWAP2 SWAP1 PUSH2 0x15C4 JUMP JUMPDEST PUSH1 0x40 MLOAD DUP1 SWAP2 SUB SWAP1 REVERT JUMPDEST PUSH0 CALLER SWAP1 POP DUP3 PUSH1 0x4 PUSH0 DUP4 PUSH20 0xFFFFFFFFFFFFFFFFFFFFFFFFFFFFFFFFFFFFFFFF AND PUSH20 0xFFFFFFFFFFFFFFFFFFFFFFFFFFFFFFFFFFFFFFFF AND DUP2 MSTORE PUSH1 0x20 ADD SWAP1 DUP2 MSTORE PUSH1 0x20 ADD PUSH0 KECCAK256 SLOAD LT ISZERO PUSH2 0x12ED JUMPI DUP1 PUSH1 0x4 PUSH0 DUP4 PUSH20 0xFFFFFFFFFFFFFFFFFFFFFFFFFFFFFFFFFFFFFFFF AND PUSH20 0xFFFFFFFFFFFFFFFFFFFFFFFFFFFFFFFFFFFFFFFF AND DUP2 MSTORE PUSH1 0x20 ADD SWAP1 DUP2 MSTORE PUSH1 0x20 ADD PUSH0 KECCAK256 SLOAD DUP5 PUSH1 0x40 MLOAD PUSH32 0xDB42144D00000000000000000000000000000000000000000000000000000000 DUP2 MSTORE PUSH1 0x4 ADD PUSH2 0x12E4 SWAP4 SWAP3 SWAP2 SWAP1 PUSH2 0x18B2 JUMP JUMPDEST PUSH1 0x40 MLOAD DUP1 SWAP2 SUB SWAP1 REVERT JUMPDEST DUP3 PUSH1 0x4 PUSH0 DUP4 PUSH20 0xFFFFFFFFFFFFFFFFFFFFFFFFFFFFFFFFFFFFFFFF AND PUSH20 0xFFFFFFFFFFFFFFFFFFFFFFFFFFFFFFFFFFFFFFFF AND DUP2 MSTORE PUSH1 0x20 ADD SWAP1 DUP2 MSTORE PUSH1 0x20 ADD PUSH0 KECCAK256 PUSH0 DUP3 DUP3 SLOAD PUSH2 0x1339 SWAP2 SWAP1 PUSH2 0x1957 JUMP JUMPDEST SWAP3 POP POP DUP2 SWAP1 SSTORE POP DUP3 PUSH1 0x4 PUSH0 DUP7 PUSH20 0xFFFFFFFFFFFFFFFFFFFFFFFFFFFFFFFFFFFFFFFF AND PUSH20 0xFFFFFFFFFFFFFFFFFFFFFFFFFFFFFFFFFFFFFFFF AND DUP2 MSTORE PUSH1 0x20 ADD SWAP1 DUP2 MSTORE PUSH1 0x20 ADD PUSH0 KECCAK256 PUSH0 DUP3 DUP3 SLOAD PUSH2 0x138C SWAP2 SWAP1 PUSH2 0x198A JUMP JUMPDEST SWAP3 POP POP DUP2 SWAP1 SSTORE POP DUP4 PUSH20 0xFFFFFFFFFFFFFFFFFFFFFFFFFFFFFFFFFFFFFFFF AND DUP2 PUSH20 0xFFFFFFFFFFFFFFFFFFFFFFFFFFFFFFFFFFFFFFFF AND PUSH32 0xDDF252AD1BE2C89B69C2B068FC378DAA952BA7F163C4A11628F55A4DF523B3EF DUP6 PUSH1 0x40 MLOAD PUSH2 0x13F0 SWAP2 SWAP1 PUSH2 0x15C4 JUMP JUMPDEST PUSH1 0x40 MLOAD DUP1 SWAP2 SUB SWAP1 LOG3 PUSH1 0x1 SWAP2 POP POP SWAP3 SWAP2 POP POP JUMP JUMPDEST PUSH1 0x5 PUSH1 0x20 MSTORE DUP2 PUSH0 MSTORE PUSH1 0x40 PUSH0 KECCAK256 PUSH1 0x20 MSTORE DUP1 PUSH0 MSTORE PUSH1 0x40 PUSH0 KECCAK256 PUSH0 SWAP2 POP SWAP2 POP POP SLOAD DUP2 JUMP JUMPDEST PUSH0 DUP2 MLOAD SWAP1 POP SWAP2 SWAP1 POP JUMP JUMPDEST PUSH0 DUP3 DUP3 MSTORE PUSH1 0x20 DUP3 ADD SWAP1 POP SWAP3 SWAP2 POP POP JUMP JUMPDEST DUP3 DUP2 DUP4 MCOPY PUSH0 DUP4 DUP4 ADD MSTORE POP POP POP JUMP JUMPDEST PUSH0 PUSH1 0x1F NOT PUSH1 0x1F DUP4 ADD AND SWAP1 POP SWAP2 SWAP1 POP JUMP JUMPDEST PUSH0 PUSH2 0x1465 DUP3 PUSH2 0x1423 JUMP JUMPDEST PUSH2 0x146F DUP2 DUP6 PUSH2 0x142D JUMP JUMPDEST SWAP4 POP PUSH2 0x147F DUP2 DUP6 PUSH1 0x20 DUP7 ADD PUSH2 0x143D JUMP JUMPDEST PUSH2 0x1488 DUP2 PUSH2 0x144B JUMP JUMPDEST DUP5 ADD SWAP2 POP POP SWAP3 SWAP2 POP POP JUMP JUMPDEST PUSH0 PUSH1 0x20 DUP3 ADD SWAP1 POP DUP2 DUP2 SUB PUSH0 DUP4 ADD MSTORE PUSH2 0x14AB DUP2 DUP5 PUSH2 0x145B JUMP JUMPDEST SWAP1 POP SWAP3 SWAP2 POP POP JUMP JUMPDEST PUSH0 PUSH0 REVERT JUMPDEST PUSH0 PUSH20 0xFFFFFFFFFFFFFFFFFFFFFFFFFFFFFFFFFFFFFFFF DUP3 AND SWAP1 POP SWAP2 SWAP1 POP JUMP JUMPDEST PUSH0 PUSH2 0x14E0 DUP3 PUSH2 0x14B7 JUMP JUMPDEST SWAP1 POP SWAP2 SWAP1 POP JUMP JUMPDEST PUSH2 0x14F0 DUP2 PUSH2 0x14D6 JUMP JUMPDEST DUP2 EQ PUSH2 0x14FA JUMPI PUSH0 PUSH0 REVERT JUMPDEST POP JUMP JUMPDEST PUSH0 DUP2 CALLDATALOAD SWAP1 POP PUSH2 0x150B DUP2 PUSH2 0x14E7 JUMP JUMPDEST SWAP3 SWAP2 POP POP JUMP JUMPDEST PUSH0 DUP2 SWAP1 POP SWAP2 SWAP1 POP JUMP JUMPDEST PUSH2 0x1523 DUP2 PUSH2 0x1511 JUMP JUMPDEST DUP2 EQ PUSH2 0x152D JUMPI PUSH0 PUSH0 REVERT JUMPDEST POP JUMP JUMPDEST PUSH0 DUP2 CALLDATALOAD SWAP1 POP PUSH2 0x153E DUP2 PUSH2 0x151A JUMP JUMPDEST SWAP3 SWAP2 POP POP JUMP JUMPDEST PUSH0 PUSH0 PUSH1 0x40 DUP4 DUP6 SUB SLT ISZERO PUSH2 0x155A JUMPI PUSH2 0x1559 PUSH2 0x14B3 JUMP JUMPDEST JUMPDEST PUSH0 PUSH2 0x1567 DUP6 DUP3 DUP7 ADD PUSH2 0x14FD JUMP JUMPDEST SWAP3 POP POP PUSH1 0x20 PUSH2 0x1578 DUP6 DUP3 DUP7 ADD PUSH2 0x1530 JUMP JUMPDEST SWAP2 POP POP SWAP3 POP SWAP3 SWAP1 POP JUMP JUMPDEST PUSH0 DUP2 ISZERO ISZERO SWAP1 POP SWAP2 SWAP1 POP JUMP JUMPDEST PUSH2 0x1596 DUP2 PUSH2 0x1582 JUMP JUMPDEST DUP3 MSTORE POP POP JUMP JUMPDEST PUSH0 PUSH1 0x20 DUP3 ADD SWAP1 POP PUSH2 0x15AF PUSH0 DUP4 ADD DUP5 PUSH2 0x158D JUMP JUMPDEST SWAP3 SWAP2 POP POP JUMP JUMPDEST PUSH2 0x15BE DUP2 PUSH2 0x1511 JUMP JUMPDEST DUP3 MSTORE POP POP JUMP JUMPDEST PUSH0 PUSH1 0x20 DUP3 ADD SWAP1 POP PUSH2 0x15D7 PUSH0 DUP4 ADD DUP5 PUSH2 0x15B5 JUMP JUMPDEST SWAP3 SWAP2 POP POP JUMP JUMPDEST PUSH0 PUSH0 PUSH0 PUSH1 0x60 DUP5 DUP7 SUB SLT ISZERO PUSH2 0x15F4 JUMPI PUSH2 0x15F3 PUSH2 0x14B3 JUMP JUMPDEST JUMPDEST PUSH0 PUSH2 0x1601 DUP7 DUP3 DUP8 ADD PUSH2 0x14FD JUMP JUMPDEST SWAP4 POP POP PUSH1 0x20 PUSH2 0x1612 DUP7 DUP3 DUP8 ADD PUSH2 0x14FD JUMP JUMPDEST SWAP3 POP POP PUSH1 0x40 PUSH2 0x1623 DUP7 DUP3 DUP8 ADD PUSH2 0x1530 JUMP JUMPDEST SWAP2 POP POP SWAP3 POP SWAP3 POP SWAP3 JUMP JUMPDEST PUSH0 PUSH1 0xFF DUP3 AND SWAP1 POP SWAP2 SWAP1 POP JUMP JUMPDEST PUSH2 0x1642 DUP2 PUSH2 0x162D JUMP JUMPDEST DUP3 MSTORE POP POP JUMP JUMPDEST PUSH0 PUSH1 0x20 DUP3 ADD SWAP1 POP PUSH2 0x165B PUSH0 DUP4 ADD DUP5 PUSH2 0x1639 JUMP JUMPDEST SWAP3 SWAP2 POP POP JUMP JUMPDEST PUSH0 PUSH1 0x20 DUP3 DUP5 SUB SLT ISZERO PUSH2 0x1676 JUMPI PUSH2 0x1675 PUSH2 0x14B3 JUMP JUMPDEST JUMPDEST PUSH0 PUSH2 0x1683 DUP5 DUP3 DUP6 ADD PUSH2 0x1530 JUMP JUMPDEST SWAP2 POP POP SWAP3 SWAP2 POP POP JUMP JUMPDEST PUSH0 PUSH1 0x20 DUP3 DUP5 SUB SLT ISZERO PUSH2 0x16A1 JUMPI PUSH2 0x16A0 PUSH2 0x14B3 JUMP JUMPDEST JUMPDEST PUSH0 PUSH2 0x16AE DUP5 DUP3 DUP6 ADD PUSH2 0x14FD JUMP JUMPDEST SWAP2 POP POP SWAP3 SWAP2 POP POP JUMP JUMPDEST PUSH2 0x16C0 DUP2 PUSH2 0x14D6 JUMP JUMPDEST DUP3 MSTORE POP POP JUMP JUMPDEST PUSH0 PUSH1 0x20 DUP3 ADD SWAP1 POP PUSH2 0x16D9 PUSH0 DUP4 ADD DUP5 PUSH2 0x16B7 JUMP JUMPDEST SWAP3 SWAP2 POP POP JUMP JUMPDEST PUSH0 PUSH0 PUSH1 0x40 DUP4 DUP6 SUB SLT ISZERO PUSH2 0x16F5 JUMPI PUSH2 0x16F4 PUSH2 0x14B3 JUMP JUMPDEST JUMPDEST PUSH0 PUSH2 0x1702 DUP6 DUP3 DUP7 ADD PUSH2 0x14FD JUMP JUMPDEST SWAP3 POP POP PUSH1 0x20 PUSH2 0x1713 DUP6 DUP3 DUP7 ADD PUSH2 0x14FD JUMP JUMPDEST SWAP2 POP POP SWAP3 POP SWAP3 SWAP1 POP JUMP JUMPDEST PUSH32 0x4E6F74204F6E7765722100000000000000000000000000000000000000000000 PUSH0 DUP3 ADD MSTORE POP JUMP JUMPDEST PUSH0 PUSH2 0x1751 PUSH1 0xA DUP4 PUSH2 0x142D JUMP JUMPDEST SWAP2 POP PUSH2 0x175C DUP3 PUSH2 0x171D JUMP JUMPDEST PUSH1 0x20 DUP3 ADD SWAP1 POP SWAP2 SWAP1 POP JUMP JUMPDEST PUSH0 PUSH1 0x20 DUP3 ADD SWAP1 POP DUP2 DUP2 SUB PUSH0 DUP4 ADD MSTORE PUSH2 0x177E DUP2 PUSH2 0x1745 JUMP JUMPDEST SWAP1 POP SWAP2 SWAP1 POP JUMP JUMPDEST PUSH32 0x43757272656E74206973206E6F74207061757365642100000000000000000000 PUSH0 DUP3 ADD MSTORE POP JUMP JUMPDEST PUSH0 PUSH2 0x17B9 PUSH1 0x16 DUP4 PUSH2 0x142D JUMP JUMPDEST SWAP2 POP PUSH2 0x17C4 DUP3 PUSH2 0x1785 JUMP JUMPDEST PUSH1 0x20 DUP3 ADD SWAP1 POP SWAP2 SWAP1 POP JUMP JUMPDEST PUSH0 PUSH1 0x20 DUP3 ADD SWAP1 POP DUP2 DUP2 SUB PUSH0 DUP4 ADD MSTORE PUSH2 0x17E6 DUP2 PUSH2 0x17AD JUMP JUMPDEST SWAP1 POP SWAP2 SWAP1 POP JUMP JUMPDEST PUSH32 0x4E487B7100000000000000000000000000000000000000000000000000000000 PUSH0 MSTORE PUSH1 0x22 PUSH1 0x4 MSTORE PUSH1 0x24 PUSH0 REVERT JUMPDEST PUSH0 PUSH1 0x2 DUP3 DIV SWAP1 POP PUSH1 0x1 DUP3 AND DUP1 PUSH2 0x1831 JUMPI PUSH1 0x7F DUP3 AND SWAP2 POP JUMPDEST PUSH1 0x20 DUP3 LT DUP2 SUB PUSH2 0x1844 JUMPI PUSH2 0x1843 PUSH2 0x17ED JUMP JUMPDEST JUMPDEST POP SWAP2 SWAP1 POP JUMP JUMPDEST PUSH32 0x43757272656E7420697320706175736564210000000000000000000000000000 PUSH0 DUP3 ADD MSTORE POP JUMP JUMPDEST PUSH0 PUSH2 0x187E PUSH1 0x12 DUP4 PUSH2 0x142D JUMP JUMPDEST SWAP2 POP PUSH2 0x1889 DUP3 PUSH2 0x184A JUMP JUMPDEST PUSH1 0x20 DUP3 ADD SWAP1 POP SWAP2 SWAP1 POP JUMP JUMPDEST PUSH0 PUSH1 0x20 DUP3 ADD SWAP1 POP DUP2 DUP2 SUB PUSH0 DUP4 ADD MSTORE PUSH2 0x18AB DUP2 PUSH2 0x1872 JUMP JUMPDEST SWAP1 POP SWAP2 SWAP1 POP JUMP JUMPDEST PUSH0 PUSH1 0x60 DUP3 ADD SWAP1 POP PUSH2 0x18C5 PUSH0 DUP4 ADD DUP7 PUSH2 0x16B7 JUMP JUMPDEST PUSH2 0x18D2 PUSH1 0x20 DUP4 ADD DUP6 PUSH2 0x15B5 JUMP JUMPDEST PUSH2 0x18DF PUSH1 0x40 DUP4 ADD DUP5 PUSH2 0x15B5 JUMP JUMPDEST SWAP5 SWAP4 POP POP POP POP JUMP JUMPDEST PUSH0 PUSH1 0x80 DUP3 ADD SWAP1 POP PUSH2 0x18FA PUSH0 DUP4 ADD DUP8 PUSH2 0x16B7 JUMP JUMPDEST PUSH2 0x1907 PUSH1 0x20 DUP4 ADD DUP7 PUSH2 0x16B7 JUMP JUMPDEST PUSH2 0x1914 PUSH1 0x40 DUP4 ADD DUP6 PUSH2 0x15B5 JUMP JUMPDEST PUSH2 0x1921 PUSH1 0x60 DUP4 ADD DUP5 PUSH2 0x15B5 JUMP JUMPDEST SWAP6 SWAP5 POP POP POP POP POP JUMP JUMPDEST PUSH32 0x4E487B7100000000000000000000000000000000000000000000000000000000 PUSH0 MSTORE PUSH1 0x11 PUSH1 0x4 MSTORE PUSH1 0x24 PUSH0 REVERT JUMPDEST PUSH0 PUSH2 0x1961 DUP3 PUSH2 0x1511 JUMP JUMPDEST SWAP2 POP PUSH2 0x196C DUP4 PUSH2 0x1511 JUMP JUMPDEST SWAP3 POP DUP3 DUP3 SUB SWAP1 POP DUP2 DUP2 GT ISZERO PUSH2 0x1984 JUMPI PUSH2 0x1983 PUSH2 0x192A JUMP JUMPDEST JUMPDEST SWAP3 SWAP2 POP POP JUMP JUMPDEST PUSH0 PUSH2 0x1994 DUP3 PUSH2 0x1511 JUMP JUMPDEST SWAP2 POP PUSH2 0x199F DUP4 PUSH2 0x1511 JUMP JUMPDEST SWAP3 POP DUP3 DUP3 ADD SWAP1 POP DUP1 DUP3 GT ISZERO PUSH2 0x19B7 JUMPI PUSH2 0x19B6 PUSH2 0x192A JUMP JUMPDEST JUMPDEST SWAP3 SWAP2 POP POP JUMP INVALID LOG2 PUSH5 0x6970667358 0x22 SLT KECCAK256 0x2E 0xBD BLOBHASH BLOBHASH SAR 0xC5 0x28 0xC 0xBD SWAP13 GASLIMIT DUP2 BALANCE DIV 0xE2 RETF PUSH21 0x4606D4C726422D99427EAE4332A28D64736F6C6343 STOP ADDMOD 0x22 STOP CALLER "
				},
				"gasEstimates": {
					"creation": {
						"codeDepositCost": "1328600",
						"executionCost": "infinite",
						"totalCost": "infinite"
					},
					"external": {
						"MAX_COUNT()": "392",
						"allowance(address,address)": "infinite",
						"approve(address,uint256)": "infinite",
						"balanceOf(address)": "2847",
						"burn(uint256)": "infinite",
						"decimals()": "2533",
						"mint(address,uint256)": "infinite",
						"name()": "infinite",
						"owner()": "2530",
						"pause()": "28924",
						"resume()": "28855",
						"symbol()": "infinite",
						"totalSupply()": "2448",
						"transfer(address,uint256)": "infinite",
						"transferFrom(address,address,uint256)": "infinite"
					}
				},
				"methodIdentifiers": {
					"MAX_COUNT()": "77163c1d",
					"allowance(address,address)": "dd62ed3e",
					"approve(address,uint256)": "095ea7b3",
					"balanceOf(address)": "70a08231",
					"burn(uint256)": "42966c68",
					"decimals()": "313ce567",
					"mint(address,uint256)": "40c10f19",
					"name()": "06fdde03",
					"owner()": "8da5cb5b",
					"pause()": "8456cb59",
					"resume()": "046f7da2",
					"symbol()": "95d89b41",
					"totalSupply()": "18160ddd",
					"transfer(address,uint256)": "a9059cbb",
					"transferFrom(address,address,uint256)": "23b872dd"
				}
			},
			"storageLayout": {
				"storage": [
					{
						"astId": 3,
						"contract": "lession7.2-Error/TokenContract.sol:TokenContract",
						"label": "name",
						"offset": 0,
						"slot": "0",
						"type": "t_string_storage"
					},
					{
						"astId": 5,
						"contract": "lession7.2-Error/TokenContract.sol:TokenContract",
						"label": "symbol",
						"offset": 0,
						"slot": "1",
						"type": "t_string_storage"
					},
					{
						"astId": 7,
						"contract": "lession7.2-Error/TokenContract.sol:TokenContract",
						"label": "decimals",
						"offset": 0,
						"slot": "2",
						"type": "t_uint8"
					},
					{
						"astId": 9,
						"contract": "lession7.2-Error/TokenContract.sol:TokenContract",
						"label": "totalSupply",
						"offset": 0,
						"slot": "3",
						"type": "t_uint256"
					},
					{
						"astId": 13,
						"contract": "lession7.2-Error/TokenContract.sol:TokenContract",
						"label": "balanceOf",
						"offset": 0,
						"slot": "4",
						"type": "t_mapping(t_address,t_uint256)"
					},
					{
						"astId": 19,
						"contract": "lession7.2-Error/TokenContract.sol:TokenContract",
						"label": "allowance",
						"offset": 0,
						"slot": "5",
						"type": "t_mapping(t_address,t_mapping(t_address,t_uint256))"
					},
					{
						"astId": 21,
						"contract": "lession7.2-Error/TokenContract.sol:TokenContract",
						"label": "owner",
						"offset": 0,
						"slot": "6",
						"type": "t_address"
					},
					{
						"astId": 27,
						"contract": "lession7.2-Error/TokenContract.sol:TokenContract",
						"label": "paused",
						"offset": 20,
						"slot": "6",
						"type": "t_bool"
					}
				],
				"types": {
					"t_address": {
						"encoding": "inplace",
						"label": "address",
						"numberOfBytes": "20"
					},
					"t_bool": {
						"encoding": "inplace",
						"label": "bool",
						"numberOfBytes": "1"
					},
					"t_mapping(t_address,t_mapping(t_address,t_uint256))": {
						"encoding": "mapping",
						"key": "t_address",
						"label": "mapping(address => mapping(address => uint256))",
						"numberOfBytes": "32",
						"value": "t_mapping(t_address,t_uint256)"
					},
					"t_mapping(t_address,t_uint256)": {
						"encoding": "mapping",
						"key": "t_address",
						"label": "mapping(address => uint256)",
						"numberOfBytes": "32",
						"value": "t_uint256"
					},
					"t_string_storage": {
						"encoding": "bytes",
						"label": "string",
						"numberOfBytes": "32"
					},
					"t_uint256": {
						"encoding": "inplace",
						"label": "uint256",
						"numberOfBytes": "32"
					},
					"t_uint8": {
						"encoding": "inplace",
						"label": "uint8",
						"numberOfBytes": "1"
					}
				}
			},
			"userdoc": {
				"kind": "user",
				"methods": {},
				"version": 1
			}
		}
	}
}