{
	"lession8.2-Security/SecureVaulLocl.sol": {
		"SecureVaulLock": {
			"abi": [
				{
					"inputs": [
						{
							"internalType": "address",
							"name": "",
							"type": "address"
						}
					],
					"name": "balances",
					"outputs": [
						{
							"internalType": "uint256",
							"name": "",
							"type": "uint256"
						}
					],
					"stateMutability": "view",
					"type": "function"
				},
				{
					"inputs": [],
					"name": "deposit",
					"outputs": [],
					"stateMutability": "payable",
					"type": "function"
				},
				{
					"inputs": [],
					"name": "withDraw",
					"outputs": [],
					"stateMutability": "nonpayable",
					"type": "function"
				}
			],
			"devdoc": {
				"kind": "dev",
				"methods": {},
				"version": 1
			},
			"evm": {
				"assembly": "    /* \"lession8.2-Security/SecureVaulLocl.sol\":82:745  contract SecureVaulLock {... */\n  mstore(0x40, 0x80)\n  callvalue\n  dup1\n  iszero\n  tag_1\n  jumpi\n  revert(0x00, 0x00)\ntag_1:\n  pop\n  dataSize(sub_0)\n  dup1\n  dataOffset(sub_0)\n  0x00\n  codecopy\n  0x00\n  return\nstop\n\nsub_0: assembly {\n        /* \"lession8.2-Security/SecureVaulLocl.sol\":82:745  contract SecureVaulLock {... */\n      mstore(0x40, 0x80)\n      jumpi(tag_1, lt(calldatasize, 0x04))\n      shr(0xe0, calldataload(0x00))\n      dup1\n      0x0fdb1c10\n      eq\n      tag_2\n      jumpi\n      dup1\n      0x27e235e3\n      eq\n      tag_3\n      jumpi\n      dup1\n      0xd0e30db0\n      eq\n      tag_4\n      jumpi\n    tag_1:\n      revert(0x00, 0x00)\n        /* \"lession8.2-Security/SecureVaulLocl.sol\":461:743  function withDraw() external noReentrant {... */\n    tag_2:\n      callvalue\n      dup1\n      iszero\n      tag_5\n      jumpi\n      revert(0x00, 0x00)\n    tag_5:\n      pop\n      tag_6\n      tag_7\n      jump\t// in\n    tag_6:\n      stop\n        /* \"lession8.2-Security/SecureVaulLocl.sol\":112:153  mapping (address => uint) public balances */\n    tag_3:\n      callvalue\n      dup1\n      iszero\n      tag_8\n      jumpi\n      revert(0x00, 0x00)\n    tag_8:\n      pop\n      tag_9\n      0x04\n      dup1\n      calldatasize\n      sub\n      dup2\n      add\n      swap1\n      tag_10\n      swap2\n      swap1\n      tag_11\n      jump\t// in\n    tag_10:\n      tag_12\n      jump\t// in\n    tag_9:\n      mload(0x40)\n      tag_13\n      swap2\n      swap1\n      tag_14\n      jump\t// in\n    tag_13:\n      mload(0x40)\n      dup1\n      swap2\n      sub\n      swap1\n      return\n        /* \"lession8.2-Security/SecureVaulLocl.sol\":323:455  function deposit() external payable  {... */\n    tag_4:\n      tag_15\n      tag_16\n      jump\t// in\n    tag_15:\n      stop\n        /* \"lession8.2-Security/SecureVaulLocl.sol\":461:743  function withDraw() external noReentrant {... */\n    tag_7:\n        /* \"lession8.2-Security/SecureVaulLocl.sol\":227:233  locked */\n      0x01\n      0x00\n      swap1\n      sload\n      swap1\n      0x0100\n      exp\n      swap1\n      div\n      0xff\n      and\n        /* \"lession8.2-Security/SecureVaulLocl.sol\":226:233  !locked */\n      iszero\n        /* \"lession8.2-Security/SecureVaulLocl.sol\":218:252  require(!locked, \"No reentrancy!\") */\n      tag_18\n      jumpi\n      mload(0x40)\n      0x08c379a000000000000000000000000000000000000000000000000000000000\n      dup2\n      mstore\n      0x04\n      add\n      tag_19\n      swap1\n      tag_20\n      jump\t// in\n    tag_19:\n      mload(0x40)\n      dup1\n      swap2\n      sub\n      swap1\n      revert\n    tag_18:\n        /* \"lession8.2-Security/SecureVaulLocl.sol\":271:275  true */\n      0x01\n        /* \"lession8.2-Security/SecureVaulLocl.sol\":262:268  locked */\n      dup1\n      0x00\n        /* \"lession8.2-Security/SecureVaulLocl.sol\":262:275  locked = true */\n      0x0100\n      exp\n      dup2\n      sload\n      dup2\n      0xff\n      mul\n      not\n      and\n      swap1\n      dup4\n      iszero\n      iszero\n      mul\n      or\n      swap1\n      sstore\n      pop\n        /* \"lession8.2-Security/SecureVaulLocl.sol\":512:523  uint amount */\n      0x00\n        /* \"lession8.2-Security/SecureVaulLocl.sol\":526:534  balances */\n      0x00\n        /* \"lession8.2-Security/SecureVaulLocl.sol\":526:546  balances[msg.sender] */\n      0x00\n        /* \"lession8.2-Security/SecureVaulLocl.sol\":535:545  msg.sender */\n      caller\n        /* \"lession8.2-Security/SecureVaulLocl.sol\":526:546  balances[msg.sender] */\n      0xffffffffffffffffffffffffffffffffffffffff\n      and\n      0xffffffffffffffffffffffffffffffffffffffff\n      and\n      dup2\n      mstore\n      0x20\n      add\n      swap1\n      dup2\n      mstore\n      0x20\n      add\n      0x00\n      keccak256\n      sload\n        /* \"lession8.2-Security/SecureVaulLocl.sol\":512:546  uint amount = balances[msg.sender] */\n      swap1\n      pop\n        /* \"lession8.2-Security/SecureVaulLocl.sol\":573:574  0 */\n      0x00\n        /* \"lession8.2-Security/SecureVaulLocl.sol\":564:570  amount */\n      dup2\n        /* \"lession8.2-Security/SecureVaulLocl.sol\":564:574  amount > 0 */\n      gt\n        /* \"lession8.2-Security/SecureVaulLocl.sol\":556:590  require(amount > 0, \"No balance!\") */\n      tag_22\n      jumpi\n      mload(0x40)\n      0x08c379a000000000000000000000000000000000000000000000000000000000\n      dup2\n      mstore\n      0x04\n      add\n      tag_23\n      swap1\n      tag_24\n      jump\t// in\n    tag_23:\n      mload(0x40)\n      dup1\n      swap2\n      sub\n      swap1\n      revert\n    tag_22:\n        /* \"lession8.2-Security/SecureVaulLocl.sol\":624:625  0 */\n      0x00\n        /* \"lession8.2-Security/SecureVaulLocl.sol\":601:609  balances */\n      0x00\n        /* \"lession8.2-Security/SecureVaulLocl.sol\":601:621  balances[msg.sender] */\n      0x00\n        /* \"lession8.2-Security/SecureVaulLocl.sol\":610:620  msg.sender */\n      caller\n        /* \"lession8.2-Security/SecureVaulLocl.sol\":601:621  balances[msg.sender] */\n      0xffffffffffffffffffffffffffffffffffffffff\n      and\n      0xffffffffffffffffffffffffffffffffffffffff\n      and\n      dup2\n      mstore\n      0x20\n      add\n      swap1\n      dup2\n      mstore\n      0x20\n      add\n      0x00\n      keccak256\n        /* \"lession8.2-Security/SecureVaulLocl.sol\":601:625  balances[msg.sender] = 0 */\n      dup2\n      swap1\n      sstore\n      pop\n        /* \"lession8.2-Security/SecureVaulLocl.sol\":636:648  bool success */\n      0x00\n        /* \"lession8.2-Security/SecureVaulLocl.sol\":653:663  msg.sender */\n      caller\n        /* \"lession8.2-Security/SecureVaulLocl.sol\":653:668  msg.sender.call */\n      0xffffffffffffffffffffffffffffffffffffffff\n      and\n        /* \"lession8.2-Security/SecureVaulLocl.sol\":675:681  amount */\n      dup3\n        /* \"lession8.2-Security/SecureVaulLocl.sol\":653:686  msg.sender.call{value:amount}(\"\") */\n      mload(0x40)\n      tag_25\n      swap1\n      tag_26\n      jump\t// in\n    tag_25:\n      0x00\n      mload(0x40)\n      dup1\n      dup4\n      sub\n      dup2\n      dup6\n      dup8\n      gas\n      call\n      swap3\n      pop\n      pop\n      pop\n      returndatasize\n      dup1\n      0x00\n      dup2\n      eq\n      tag_29\n      jumpi\n      mload(0x40)\n      swap2\n      pop\n      and(add(returndatasize, 0x3f), not(0x1f))\n      dup3\n      add\n      0x40\n      mstore\n      returndatasize\n      dup3\n      mstore\n      returndatasize\n      0x00\n      0x20\n      dup5\n      add\n      returndatacopy\n      jump(tag_28)\n    tag_29:\n      0x60\n      swap2\n      pop\n    tag_28:\n      pop\n        /* \"lession8.2-Security/SecureVaulLocl.sol\":635:686  (bool success,) = msg.sender.call{value:amount}(\"\") */\n      pop\n      swap1\n      pop\n        /* \"lession8.2-Security/SecureVaulLocl.sol\":704:711  success */\n      dup1\n        /* \"lession8.2-Security/SecureVaulLocl.sol\":696:736  require(success, \"Transiaction failed!\") */\n      tag_30\n      jumpi\n      mload(0x40)\n      0x08c379a000000000000000000000000000000000000000000000000000000000\n      dup2\n      mstore\n      0x04\n      add\n      tag_31\n      swap1\n      tag_32\n      jump\t// in\n    tag_31:\n      mload(0x40)\n      dup1\n      swap2\n      sub\n      swap1\n      revert\n    tag_30:\n        /* \"lession8.2-Security/SecureVaulLocl.sol\":502:743  {... */\n      pop\n      pop\n        /* \"lession8.2-Security/SecureVaulLocl.sol\":305:310  false */\n      0x00\n        /* \"lession8.2-Security/SecureVaulLocl.sol\":296:302  locked */\n      0x01\n      0x00\n        /* \"lession8.2-Security/SecureVaulLocl.sol\":296:310  locked = false */\n      0x0100\n      exp\n      dup2\n      sload\n      dup2\n      0xff\n      mul\n      not\n      and\n      swap1\n      dup4\n      iszero\n      iszero\n      mul\n      or\n      swap1\n      sstore\n      pop\n        /* \"lession8.2-Security/SecureVaulLocl.sol\":461:743  function withDraw() external noReentrant {... */\n      jump\t// out\n        /* \"lession8.2-Security/SecureVaulLocl.sol\":112:153  mapping (address => uint) public balances */\n    tag_12:\n      mstore(0x20, 0x00)\n      dup1\n      0x00\n      mstore\n      keccak256(0x00, 0x40)\n      0x00\n      swap2\n      pop\n      swap1\n      pop\n      sload\n      dup2\n      jump\t// out\n        /* \"lession8.2-Security/SecureVaulLocl.sol\":323:455  function deposit() external payable  {... */\n    tag_16:\n        /* \"lession8.2-Security/SecureVaulLocl.sol\":390:391  0 */\n      0x00\n        /* \"lession8.2-Security/SecureVaulLocl.sol\":378:387  msg.value */\n      callvalue\n        /* \"lession8.2-Security/SecureVaulLocl.sol\":378:391  msg.value > 0 */\n      gt\n        /* \"lession8.2-Security/SecureVaulLocl.sol\":370:405  require(msg.value > 0,\"No amount!\") */\n      tag_34\n      jumpi\n      mload(0x40)\n      0x08c379a000000000000000000000000000000000000000000000000000000000\n      dup2\n      mstore\n      0x04\n      add\n      tag_35\n      swap1\n      tag_36\n      jump\t// in\n    tag_35:\n      mload(0x40)\n      dup1\n      swap2\n      sub\n      swap1\n      revert\n    tag_34:\n        /* \"lession8.2-Security/SecureVaulLocl.sol\":439:448  msg.value */\n      callvalue\n        /* \"lession8.2-Security/SecureVaulLocl.sol\":415:423  balances */\n      0x00\n        /* \"lession8.2-Security/SecureVaulLocl.sol\":415:435  balances[msg.sender] */\n      0x00\n        /* \"lession8.2-Security/SecureVaulLocl.sol\":424:434  msg.sender */\n      caller\n        /* \"lession8.2-Security/SecureVaulLocl.sol\":415:435  balances[msg.sender] */\n      0xffffffffffffffffffffffffffffffffffffffff\n      and\n      0xffffffffffffffffffffffffffffffffffffffff\n      and\n      dup2\n      mstore\n      0x20\n      add\n      swap1\n      dup2\n      mstore\n      0x20\n      add\n      0x00\n      keccak256\n      0x00\n        /* \"lession8.2-Security/SecureVaulLocl.sol\":415:448  balances[msg.sender] += msg.value */\n      dup3\n      dup3\n      sload\n      tag_37\n      swap2\n      swap1\n      tag_38\n      jump\t// in\n    tag_37:\n      swap3\n      pop\n      pop\n      dup2\n      swap1\n      sstore\n      pop\n        /* \"lession8.2-Security/SecureVaulLocl.sol\":323:455  function deposit() external payable  {... */\n      jump\t// out\n        /* \"#utility.yul\":88:205   */\n    tag_40:\n        /* \"#utility.yul\":197:198   */\n      0x00\n        /* \"#utility.yul\":194:195   */\n      0x00\n        /* \"#utility.yul\":187:199   */\n      revert\n        /* \"#utility.yul\":334:460   */\n    tag_42:\n        /* \"#utility.yul\":371:378   */\n      0x00\n        /* \"#utility.yul\":411:453   */\n      0xffffffffffffffffffffffffffffffffffffffff\n        /* \"#utility.yul\":404:409   */\n      dup3\n        /* \"#utility.yul\":400:454   */\n      and\n        /* \"#utility.yul\":389:454   */\n      swap1\n      pop\n        /* \"#utility.yul\":334:460   */\n      swap2\n      swap1\n      pop\n      jump\t// out\n        /* \"#utility.yul\":466:562   */\n    tag_43:\n        /* \"#utility.yul\":503:510   */\n      0x00\n        /* \"#utility.yul\":532:556   */\n      tag_67\n        /* \"#utility.yul\":550:555   */\n      dup3\n        /* \"#utility.yul\":532:556   */\n      tag_42\n      jump\t// in\n    tag_67:\n        /* \"#utility.yul\":521:556   */\n      swap1\n      pop\n        /* \"#utility.yul\":466:562   */\n      swap2\n      swap1\n      pop\n      jump\t// out\n        /* \"#utility.yul\":568:690   */\n    tag_44:\n        /* \"#utility.yul\":641:665   */\n      tag_69\n        /* \"#utility.yul\":659:664   */\n      dup2\n        /* \"#utility.yul\":641:665   */\n      tag_43\n      jump\t// in\n    tag_69:\n        /* \"#utility.yul\":634:639   */\n      dup2\n        /* \"#utility.yul\":631:666   */\n      eq\n        /* \"#utility.yul\":621:684   */\n      tag_70\n      jumpi\n        /* \"#utility.yul\":680:681   */\n      0x00\n        /* \"#utility.yul\":677:678   */\n      0x00\n        /* \"#utility.yul\":670:682   */\n      revert\n        /* \"#utility.yul\":621:684   */\n    tag_70:\n        /* \"#utility.yul\":568:690   */\n      pop\n      jump\t// out\n        /* \"#utility.yul\":696:835   */\n    tag_45:\n        /* \"#utility.yul\":742:747   */\n      0x00\n        /* \"#utility.yul\":780:786   */\n      dup2\n        /* \"#utility.yul\":767:787   */\n      calldataload\n        /* \"#utility.yul\":758:787   */\n      swap1\n      pop\n        /* \"#utility.yul\":796:829   */\n      tag_72\n        /* \"#utility.yul\":823:828   */\n      dup2\n        /* \"#utility.yul\":796:829   */\n      tag_44\n      jump\t// in\n    tag_72:\n        /* \"#utility.yul\":696:835   */\n      swap3\n      swap2\n      pop\n      pop\n      jump\t// out\n        /* \"#utility.yul\":841:1170   */\n    tag_11:\n        /* \"#utility.yul\":900:906   */\n      0x00\n        /* \"#utility.yul\":949:951   */\n      0x20\n        /* \"#utility.yul\":937:946   */\n      dup3\n        /* \"#utility.yul\":928:935   */\n      dup5\n        /* \"#utility.yul\":924:947   */\n      sub\n        /* \"#utility.yul\":920:952   */\n      slt\n        /* \"#utility.yul\":917:1036   */\n      iszero\n      tag_74\n      jumpi\n        /* \"#utility.yul\":955:1034   */\n      tag_75\n      tag_40\n      jump\t// in\n    tag_75:\n        /* \"#utility.yul\":917:1036   */\n    tag_74:\n        /* \"#utility.yul\":1075:1076   */\n      0x00\n        /* \"#utility.yul\":1100:1153   */\n      tag_76\n        /* \"#utility.yul\":1145:1152   */\n      dup5\n        /* \"#utility.yul\":1136:1142   */\n      dup3\n        /* \"#utility.yul\":1125:1134   */\n      dup6\n        /* \"#utility.yul\":1121:1143   */\n      add\n        /* \"#utility.yul\":1100:1153   */\n      tag_45\n      jump\t// in\n    tag_76:\n        /* \"#utility.yul\":1090:1153   */\n      swap2\n      pop\n        /* \"#utility.yul\":1046:1163   */\n      pop\n        /* \"#utility.yul\":841:1170   */\n      swap3\n      swap2\n      pop\n      pop\n      jump\t// out\n        /* \"#utility.yul\":1176:1253   */\n    tag_46:\n        /* \"#utility.yul\":1213:1220   */\n      0x00\n        /* \"#utility.yul\":1242:1247   */\n      dup2\n        /* \"#utility.yul\":1231:1247   */\n      swap1\n      pop\n        /* \"#utility.yul\":1176:1253   */\n      swap2\n      swap1\n      pop\n      jump\t// out\n        /* \"#utility.yul\":1259:1377   */\n    tag_47:\n        /* \"#utility.yul\":1346:1370   */\n      tag_79\n        /* \"#utility.yul\":1364:1369   */\n      dup2\n        /* \"#utility.yul\":1346:1370   */\n      tag_46\n      jump\t// in\n    tag_79:\n        /* \"#utility.yul\":1341:1344   */\n      dup3\n        /* \"#utility.yul\":1334:1371   */\n      mstore\n        /* \"#utility.yul\":1259:1377   */\n      pop\n      pop\n      jump\t// out\n        /* \"#utility.yul\":1383:1605   */\n    tag_14:\n        /* \"#utility.yul\":1476:1480   */\n      0x00\n        /* \"#utility.yul\":1514:1516   */\n      0x20\n        /* \"#utility.yul\":1503:1512   */\n      dup3\n        /* \"#utility.yul\":1499:1517   */\n      add\n        /* \"#utility.yul\":1491:1517   */\n      swap1\n      pop\n        /* \"#utility.yul\":1527:1598   */\n      tag_81\n        /* \"#utility.yul\":1595:1596   */\n      0x00\n        /* \"#utility.yul\":1584:1593   */\n      dup4\n        /* \"#utility.yul\":1580:1597   */\n      add\n        /* \"#utility.yul\":1571:1577   */\n      dup5\n        /* \"#utility.yul\":1527:1598   */\n      tag_47\n      jump\t// in\n    tag_81:\n        /* \"#utility.yul\":1383:1605   */\n      swap3\n      swap2\n      pop\n      pop\n      jump\t// out\n        /* \"#utility.yul\":1611:1780   */\n    tag_48:\n        /* \"#utility.yul\":1695:1706   */\n      0x00\n        /* \"#utility.yul\":1729:1735   */\n      dup3\n        /* \"#utility.yul\":1724:1727   */\n      dup3\n        /* \"#utility.yul\":1717:1736   */\n      mstore\n        /* \"#utility.yul\":1769:1773   */\n      0x20\n        /* \"#utility.yul\":1764:1767   */\n      dup3\n        /* \"#utility.yul\":1760:1774   */\n      add\n        /* \"#utility.yul\":1745:1774   */\n      swap1\n      pop\n        /* \"#utility.yul\":1611:1780   */\n      swap3\n      swap2\n      pop\n      pop\n      jump\t// out\n        /* \"#utility.yul\":1786:1950   */\n    tag_49:\n        /* \"#utility.yul\":1926:1942   */\n      0x4e6f207265656e7472616e637921000000000000000000000000000000000000\n        /* \"#utility.yul\":1922:1923   */\n      0x00\n        /* \"#utility.yul\":1914:1920   */\n      dup3\n        /* \"#utility.yul\":1910:1924   */\n      add\n        /* \"#utility.yul\":1903:1943   */\n      mstore\n        /* \"#utility.yul\":1786:1950   */\n      pop\n      jump\t// out\n        /* \"#utility.yul\":1956:2322   */\n    tag_50:\n        /* \"#utility.yul\":2098:2101   */\n      0x00\n        /* \"#utility.yul\":2119:2186   */\n      tag_85\n        /* \"#utility.yul\":2183:2185   */\n      0x0e\n        /* \"#utility.yul\":2178:2181   */\n      dup4\n        /* \"#utility.yul\":2119:2186   */\n      tag_48\n      jump\t// in\n    tag_85:\n        /* \"#utility.yul\":2112:2186   */\n      swap2\n      pop\n        /* \"#utility.yul\":2195:2288   */\n      tag_86\n        /* \"#utility.yul\":2284:2287   */\n      dup3\n        /* \"#utility.yul\":2195:2288   */\n      tag_49\n      jump\t// in\n    tag_86:\n        /* \"#utility.yul\":2313:2315   */\n      0x20\n        /* \"#utility.yul\":2308:2311   */\n      dup3\n        /* \"#utility.yul\":2304:2316   */\n      add\n        /* \"#utility.yul\":2297:2316   */\n      swap1\n      pop\n        /* \"#utility.yul\":1956:2322   */\n      swap2\n      swap1\n      pop\n      jump\t// out\n        /* \"#utility.yul\":2328:2747   */\n    tag_20:\n        /* \"#utility.yul\":2494:2498   */\n      0x00\n        /* \"#utility.yul\":2532:2534   */\n      0x20\n        /* \"#utility.yul\":2521:2530   */\n      dup3\n        /* \"#utility.yul\":2517:2535   */\n      add\n        /* \"#utility.yul\":2509:2535   */\n      swap1\n      pop\n        /* \"#utility.yul\":2581:2590   */\n      dup2\n        /* \"#utility.yul\":2575:2579   */\n      dup2\n        /* \"#utility.yul\":2571:2591   */\n      sub\n        /* \"#utility.yul\":2567:2568   */\n      0x00\n        /* \"#utility.yul\":2556:2565   */\n      dup4\n        /* \"#utility.yul\":2552:2569   */\n      add\n        /* \"#utility.yul\":2545:2592   */\n      mstore\n        /* \"#utility.yul\":2609:2740   */\n      tag_88\n        /* \"#utility.yul\":2735:2739   */\n      dup2\n        /* \"#utility.yul\":2609:2740   */\n      tag_50\n      jump\t// in\n    tag_88:\n        /* \"#utility.yul\":2601:2740   */\n      swap1\n      pop\n        /* \"#utility.yul\":2328:2747   */\n      swap2\n      swap1\n      pop\n      jump\t// out\n        /* \"#utility.yul\":2753:2914   */\n    tag_51:\n        /* \"#utility.yul\":2893:2906   */\n      0x4e6f2062616c616e636521000000000000000000000000000000000000000000\n        /* \"#utility.yul\":2889:2890   */\n      0x00\n        /* \"#utility.yul\":2881:2887   */\n      dup3\n        /* \"#utility.yul\":2877:2891   */\n      add\n        /* \"#utility.yul\":2870:2907   */\n      mstore\n        /* \"#utility.yul\":2753:2914   */\n      pop\n      jump\t// out\n        /* \"#utility.yul\":2920:3286   */\n    tag_52:\n        /* \"#utility.yul\":3062:3065   */\n      0x00\n        /* \"#utility.yul\":3083:3150   */\n      tag_91\n        /* \"#utility.yul\":3147:3149   */\n      0x0b\n        /* \"#utility.yul\":3142:3145   */\n      dup4\n        /* \"#utility.yul\":3083:3150   */\n      tag_48\n      jump\t// in\n    tag_91:\n        /* \"#utility.yul\":3076:3150   */\n      swap2\n      pop\n        /* \"#utility.yul\":3159:3252   */\n      tag_92\n        /* \"#utility.yul\":3248:3251   */\n      dup3\n        /* \"#utility.yul\":3159:3252   */\n      tag_51\n      jump\t// in\n    tag_92:\n        /* \"#utility.yul\":3277:3279   */\n      0x20\n        /* \"#utility.yul\":3272:3275   */\n      dup3\n        /* \"#utility.yul\":3268:3280   */\n      add\n        /* \"#utility.yul\":3261:3280   */\n      swap1\n      pop\n        /* \"#utility.yul\":2920:3286   */\n      swap2\n      swap1\n      pop\n      jump\t// out\n        /* \"#utility.yul\":3292:3711   */\n    tag_24:\n        /* \"#utility.yul\":3458:3462   */\n      0x00\n        /* \"#utility.yul\":3496:3498   */\n      0x20\n        /* \"#utility.yul\":3485:3494   */\n      dup3\n        /* \"#utility.yul\":3481:3499   */\n      add\n        /* \"#utility.yul\":3473:3499   */\n      swap1\n      pop\n        /* \"#utility.yul\":3545:3554   */\n      dup2\n        /* \"#utility.yul\":3539:3543   */\n      dup2\n        /* \"#utility.yul\":3535:3555   */\n      sub\n        /* \"#utility.yul\":3531:3532   */\n      0x00\n        /* \"#utility.yul\":3520:3529   */\n      dup4\n        /* \"#utility.yul\":3516:3533   */\n      add\n        /* \"#utility.yul\":3509:3556   */\n      mstore\n        /* \"#utility.yul\":3573:3704   */\n      tag_94\n        /* \"#utility.yul\":3699:3703   */\n      dup2\n        /* \"#utility.yul\":3573:3704   */\n      tag_52\n      jump\t// in\n    tag_94:\n        /* \"#utility.yul\":3565:3704   */\n      swap1\n      pop\n        /* \"#utility.yul\":3292:3711   */\n      swap2\n      swap1\n      pop\n      jump\t// out\n        /* \"#utility.yul\":3717:3864   */\n    tag_53:\n        /* \"#utility.yul\":3818:3829   */\n      0x00\n        /* \"#utility.yul\":3855:3858   */\n      dup2\n        /* \"#utility.yul\":3840:3858   */\n      swap1\n      pop\n        /* \"#utility.yul\":3717:3864   */\n      swap3\n      swap2\n      pop\n      pop\n      jump\t// out\n        /* \"#utility.yul\":3870:3984   */\n    tag_54:\n      pop\n      jump\t// out\n        /* \"#utility.yul\":3990:4388   */\n    tag_55:\n        /* \"#utility.yul\":4149:4152   */\n      0x00\n        /* \"#utility.yul\":4170:4253   */\n      tag_98\n        /* \"#utility.yul\":4251:4252   */\n      0x00\n        /* \"#utility.yul\":4246:4249   */\n      dup4\n        /* \"#utility.yul\":4170:4253   */\n      tag_53\n      jump\t// in\n    tag_98:\n        /* \"#utility.yul\":4163:4253   */\n      swap2\n      pop\n        /* \"#utility.yul\":4262:4355   */\n      tag_99\n        /* \"#utility.yul\":4351:4354   */\n      dup3\n        /* \"#utility.yul\":4262:4355   */\n      tag_54\n      jump\t// in\n    tag_99:\n        /* \"#utility.yul\":4380:4381   */\n      0x00\n        /* \"#utility.yul\":4375:4378   */\n      dup3\n        /* \"#utility.yul\":4371:4382   */\n      add\n        /* \"#utility.yul\":4364:4382   */\n      swap1\n      pop\n        /* \"#utility.yul\":3990:4388   */\n      swap2\n      swap1\n      pop\n      jump\t// out\n        /* \"#utility.yul\":4394:4773   */\n    tag_26:\n        /* \"#utility.yul\":4578:4581   */\n      0x00\n        /* \"#utility.yul\":4600:4747   */\n      tag_101\n        /* \"#utility.yul\":4743:4746   */\n      dup3\n        /* \"#utility.yul\":4600:4747   */\n      tag_55\n      jump\t// in\n    tag_101:\n        /* \"#utility.yul\":4593:4747   */\n      swap2\n      pop\n        /* \"#utility.yul\":4764:4767   */\n      dup2\n        /* \"#utility.yul\":4757:4767   */\n      swap1\n      pop\n        /* \"#utility.yul\":4394:4773   */\n      swap2\n      swap1\n      pop\n      jump\t// out\n        /* \"#utility.yul\":4779:4949   */\n    tag_56:\n        /* \"#utility.yul\":4919:4941   */\n      0x5472616e7369616374696f6e206661696c656421000000000000000000000000\n        /* \"#utility.yul\":4915:4916   */\n      0x00\n        /* \"#utility.yul\":4907:4913   */\n      dup3\n        /* \"#utility.yul\":4903:4917   */\n      add\n        /* \"#utility.yul\":4896:4942   */\n      mstore\n        /* \"#utility.yul\":4779:4949   */\n      pop\n      jump\t// out\n        /* \"#utility.yul\":4955:5321   */\n    tag_57:\n        /* \"#utility.yul\":5097:5100   */\n      0x00\n        /* \"#utility.yul\":5118:5185   */\n      tag_104\n        /* \"#utility.yul\":5182:5184   */\n      0x14\n        /* \"#utility.yul\":5177:5180   */\n      dup4\n        /* \"#utility.yul\":5118:5185   */\n      tag_48\n      jump\t// in\n    tag_104:\n        /* \"#utility.yul\":5111:5185   */\n      swap2\n      pop\n        /* \"#utility.yul\":5194:5287   */\n      tag_105\n        /* \"#utility.yul\":5283:5286   */\n      dup3\n        /* \"#utility.yul\":5194:5287   */\n      tag_56\n      jump\t// in\n    tag_105:\n        /* \"#utility.yul\":5312:5314   */\n      0x20\n        /* \"#utility.yul\":5307:5310   */\n      dup3\n        /* \"#utility.yul\":5303:5315   */\n      add\n        /* \"#utility.yul\":5296:5315   */\n      swap1\n      pop\n        /* \"#utility.yul\":4955:5321   */\n      swap2\n      swap1\n      pop\n      jump\t// out\n        /* \"#utility.yul\":5327:5746   */\n    tag_32:\n        /* \"#utility.yul\":5493:5497   */\n      0x00\n        /* \"#utility.yul\":5531:5533   */\n      0x20\n        /* \"#utility.yul\":5520:5529   */\n      dup3\n        /* \"#utility.yul\":5516:5534   */\n      add\n        /* \"#utility.yul\":5508:5534   */\n      swap1\n      pop\n        /* \"#utility.yul\":5580:5589   */\n      dup2\n        /* \"#utility.yul\":5574:5578   */\n      dup2\n        /* \"#utility.yul\":5570:5590   */\n      sub\n        /* \"#utility.yul\":5566:5567   */\n      0x00\n        /* \"#utility.yul\":5555:5564   */\n      dup4\n        /* \"#utility.yul\":5551:5568   */\n      add\n        /* \"#utility.yul\":5544:5591   */\n      mstore\n        /* \"#utility.yul\":5608:5739   */\n      tag_107\n        /* \"#utility.yul\":5734:5738   */\n      dup2\n        /* \"#utility.yul\":5608:5739   */\n      tag_57\n      jump\t// in\n    tag_107:\n        /* \"#utility.yul\":5600:5739   */\n      swap1\n      pop\n        /* \"#utility.yul\":5327:5746   */\n      swap2\n      swap1\n      pop\n      jump\t// out\n        /* \"#utility.yul\":5752:5912   */\n    tag_58:\n        /* \"#utility.yul\":5892:5904   */\n      0x4e6f20616d6f756e742100000000000000000000000000000000000000000000\n        /* \"#utility.yul\":5888:5889   */\n      0x00\n        /* \"#utility.yul\":5880:5886   */\n      dup3\n        /* \"#utility.yul\":5876:5890   */\n      add\n        /* \"#utility.yul\":5869:5905   */\n      mstore\n        /* \"#utility.yul\":5752:5912   */\n      pop\n      jump\t// out\n        /* \"#utility.yul\":5918:6284   */\n    tag_59:\n        /* \"#utility.yul\":6060:6063   */\n      0x00\n        /* \"#utility.yul\":6081:6148   */\n      tag_110\n        /* \"#utility.yul\":6145:6147   */\n      0x0a\n        /* \"#utility.yul\":6140:6143   */\n      dup4\n        /* \"#utility.yul\":6081:6148   */\n      tag_48\n      jump\t// in\n    tag_110:\n        /* \"#utility.yul\":6074:6148   */\n      swap2\n      pop\n        /* \"#utility.yul\":6157:6250   */\n      tag_111\n        /* \"#utility.yul\":6246:6249   */\n      dup3\n        /* \"#utility.yul\":6157:6250   */\n      tag_58\n      jump\t// in\n    tag_111:\n        /* \"#utility.yul\":6275:6277   */\n      0x20\n        /* \"#utility.yul\":6270:6273   */\n      dup3\n        /* \"#utility.yul\":6266:6278   */\n      add\n        /* \"#utility.yul\":6259:6278   */\n      swap1\n      pop\n        /* \"#utility.yul\":5918:6284   */\n      swap2\n      swap1\n      pop\n      jump\t// out\n        /* \"#utility.yul\":6290:6709   */\n    tag_36:\n        /* \"#utility.yul\":6456:6460   */\n      0x00\n        /* \"#utility.yul\":6494:6496   */\n      0x20\n        /* \"#utility.yul\":6483:6492   */\n      dup3\n        /* \"#utility.yul\":6479:6497   */\n      add\n        /* \"#utility.yul\":6471:6497   */\n      swap1\n      pop\n        /* \"#utility.yul\":6543:6552   */\n      dup2\n        /* \"#utility.yul\":6537:6541   */\n      dup2\n        /* \"#utility.yul\":6533:6553   */\n      sub\n        /* \"#utility.yul\":6529:6530   */\n      0x00\n        /* \"#utility.yul\":6518:6527   */\n      dup4\n        /* \"#utility.yul\":6514:6531   */\n      add\n        /* \"#utility.yul\":6507:6554   */\n      mstore\n        /* \"#utility.yul\":6571:6702   */\n      tag_113\n        /* \"#utility.yul\":6697:6701   */\n      dup2\n        /* \"#utility.yul\":6571:6702   */\n      tag_59\n      jump\t// in\n    tag_113:\n        /* \"#utility.yul\":6563:6702   */\n      swap1\n      pop\n        /* \"#utility.yul\":6290:6709   */\n      swap2\n      swap1\n      pop\n      jump\t// out\n        /* \"#utility.yul\":6715:6895   */\n    tag_60:\n        /* \"#utility.yul\":6763:6840   */\n      0x4e487b7100000000000000000000000000000000000000000000000000000000\n        /* \"#utility.yul\":6760:6761   */\n      0x00\n        /* \"#utility.yul\":6753:6841   */\n      mstore\n        /* \"#utility.yul\":6860:6864   */\n      0x11\n        /* \"#utility.yul\":6857:6858   */\n      0x04\n        /* \"#utility.yul\":6850:6865   */\n      mstore\n        /* \"#utility.yul\":6884:6888   */\n      0x24\n        /* \"#utility.yul\":6881:6882   */\n      0x00\n        /* \"#utility.yul\":6874:6889   */\n      revert\n        /* \"#utility.yul\":6901:7092   */\n    tag_38:\n        /* \"#utility.yul\":6941:6944   */\n      0x00\n        /* \"#utility.yul\":6960:6980   */\n      tag_116\n        /* \"#utility.yul\":6978:6979   */\n      dup3\n        /* \"#utility.yul\":6960:6980   */\n      tag_46\n      jump\t// in\n    tag_116:\n        /* \"#utility.yul\":6955:6980   */\n      swap2\n      pop\n        /* \"#utility.yul\":6994:7014   */\n      tag_117\n        /* \"#utility.yul\":7012:7013   */\n      dup4\n        /* \"#utility.yul\":6994:7014   */\n      tag_46\n      jump\t// in\n    tag_117:\n        /* \"#utility.yul\":6989:7014   */\n      swap3\n      pop\n        /* \"#utility.yul\":7037:7038   */\n      dup3\n        /* \"#utility.yul\":7034:7035   */\n      dup3\n        /* \"#utility.yul\":7030:7039   */\n      add\n        /* \"#utility.yul\":7023:7039   */\n      swap1\n      pop\n        /* \"#utility.yul\":7058:7061   */\n      dup1\n        /* \"#utility.yul\":7055:7056   */\n      dup3\n        /* \"#utility.yul\":7052:7062   */\n      gt\n        /* \"#utility.yul\":7049:7085   */\n      iszero\n      tag_118\n      jumpi\n        /* \"#utility.yul\":7065:7083   */\n      tag_119\n      tag_60\n      jump\t// in\n    tag_119:\n        /* \"#utility.yul\":7049:7085   */\n    tag_118:\n        /* \"#utility.yul\":6901:7092   */\n      swap3\n      swap2\n      pop\n      pop\n      jump\t// out\n\n    auxdata: 0xa2646970667358221220496cf47b5d400716ccf7de40f81afde607506b8437d3d95dc68ac6b30e62edcd64736f6c63430008220033\n}\n",
				"bytecode": {
					"linkReferences": {},
					"object": "6080604052348015600e575f5ffd5b5061066e8061001c5f395ff3fe608060405260043610610033575f3560e01c80630fdb1c101461003757806327e235e31461004d578063d0e30db014610089575b5f5ffd5b348015610042575f5ffd5b5061004b610093565b005b348015610058575f5ffd5b50610073600480360381019061006e919061038b565b610283565b60405161008091906103ce565b60405180910390f35b610091610297565b005b60015f9054906101000a900460ff16156100e2576040517f08c379a00000000000000000000000000000000000000000000000000000000081526004016100d990610441565b60405180910390fd5b6001805f6101000a81548160ff0219169083151502179055505f5f5f3373ffffffffffffffffffffffffffffffffffffffff1673ffffffffffffffffffffffffffffffffffffffff1681526020019081526020015f205490505f811161017d576040517f08c379a0000000000000000000000000000000000000000000000000000000008152600401610174906104a9565b60405180910390fd5b5f5f5f3373ffffffffffffffffffffffffffffffffffffffff1673ffffffffffffffffffffffffffffffffffffffff1681526020019081526020015f20819055505f3373ffffffffffffffffffffffffffffffffffffffff16826040516101e3906104f4565b5f6040518083038185875af1925050503d805f811461021d576040519150601f19603f3d011682016040523d82523d5f602084013e610222565b606091505b5050905080610266576040517f08c379a000000000000000000000000000000000000000000000000000000000815260040161025d90610552565b60405180910390fd5b50505f60015f6101000a81548160ff021916908315150217905550565b5f602052805f5260405f205f915090505481565b5f34116102d9576040517f08c379a00000000000000000000000000000000000000000000000000000000081526004016102d0906105ba565b60405180910390fd5b345f5f3373ffffffffffffffffffffffffffffffffffffffff1673ffffffffffffffffffffffffffffffffffffffff1681526020019081526020015f205f8282546103249190610605565b92505081905550565b5f5ffd5b5f73ffffffffffffffffffffffffffffffffffffffff82169050919050565b5f61035a82610331565b9050919050565b61036a81610350565b8114610374575f5ffd5b50565b5f8135905061038581610361565b92915050565b5f602082840312156103a05761039f61032d565b5b5f6103ad84828501610377565b91505092915050565b5f819050919050565b6103c8816103b6565b82525050565b5f6020820190506103e15f8301846103bf565b92915050565b5f82825260208201905092915050565b7f4e6f207265656e7472616e6379210000000000000000000000000000000000005f82015250565b5f61042b600e836103e7565b9150610436826103f7565b602082019050919050565b5f6020820190508181035f8301526104588161041f565b9050919050565b7f4e6f2062616c616e6365210000000000000000000000000000000000000000005f82015250565b5f610493600b836103e7565b915061049e8261045f565b602082019050919050565b5f6020820190508181035f8301526104c081610487565b9050919050565b5f81905092915050565b50565b5f6104df5f836104c7565b91506104ea826104d1565b5f82019050919050565b5f6104fe826104d4565b9150819050919050565b7f5472616e7369616374696f6e206661696c6564210000000000000000000000005f82015250565b5f61053c6014836103e7565b915061054782610508565b602082019050919050565b5f6020820190508181035f83015261056981610530565b9050919050565b7f4e6f20616d6f756e7421000000000000000000000000000000000000000000005f82015250565b5f6105a4600a836103e7565b91506105af82610570565b602082019050919050565b5f6020820190508181035f8301526105d181610598565b9050919050565b7f4e487b71000000000000000000000000000000000000000000000000000000005f52601160045260245ffd5b5f61060f826103b6565b915061061a836103b6565b9250828201905080821115610632576106316105d8565b5b9291505056fea2646970667358221220496cf47b5d400716ccf7de40f81afde607506b8437d3d95dc68ac6b30e62edcd64736f6c63430008220033",
					"opcodes": "PUSH1 0x80 PUSH1 0x40 MSTORE CALLVALUE DUP1 ISZERO PUSH1 0xE JUMPI PUSH0 PUSH0 REVERT JUMPDEST POP PUSH2 0x66E DUP1 PUSH2 0x1C PUSH0 CODECOPY PUSH0 RETURN INVALID PUSH1 0x80 PUSH1 0x40 MSTORE PUSH1 0x4 CALLDATASIZE LT PUSH2 0x33 JUMPI PUSH0 CALLDATALOAD PUSH1 0xE0 SHR DUP1 PUSH4 0xFDB1C10 EQ PUSH2 0x37 JUMPI DUP1 PUSH4 0x27E235E3 EQ PUSH2 0x4D JUMPI DUP1 PUSH4 0xD0E30DB0 EQ PUSH2 0x89 JUMPI JUMPDEST PUSH0 PUSH0 REVERT JUMPDEST CALLVALUE DUP1 ISZERO PUSH2 0x42 JUMPI PUSH0 PUSH0 REVERT JUMPDEST POP PUSH2 0x4B PUSH2 0x93 JUMP JUMPDEST STOP JUMPDEST CALLVALUE DUP1 ISZERO PUSH2 0x58 JUMPI PUSH0 PUSH0 REVERT JUMPDEST POP PUSH2 0x73 PUSH1 0x4 DUP1 CALLDATASIZE SUB DUP2 ADD SWAP1 PUSH2 0x6E SWAP2 SWAP1 PUSH2 0x38B JUMP JUMPDEST PUSH2 0x283 JUMP JUMPDEST PUSH1 0x40 MLOAD PUSH2 0x80 SWAP2 SWAP1 PUSH2 0x3CE JUMP JUMPDEST PUSH1 0x40 MLOAD DUP1 SWAP2 SUB SWAP1 RETURN JUMPDEST PUSH2 0x91 PUSH2 0x297 JUMP JUMPDEST STOP JUMPDEST PUSH1 0x1 PUSH0 SWAP1 SLOAD SWAP1 PUSH2 0x100 EXP SWAP1 DIV PUSH1 0xFF AND ISZERO PUSH2 0xE2 JUMPI PUSH1 0x40 MLOAD PUSH32 0x8C379A000000000000000000000000000000000000000000000000000000000 DUP2 MSTORE PUSH1 0x4 ADD PUSH2 0xD9 SWAP1 PUSH2 0x441 JUMP JUMPDEST PUSH1 0x40 MLOAD DUP1 SWAP2 SUB SWAP1 REVERT JUMPDEST PUSH1 0x1 DUP1 PUSH0 PUSH2 0x100 EXP DUP2 SLOAD DUP2 PUSH1 0xFF MUL NOT AND SWAP1 DUP4 ISZERO ISZERO MUL OR SWAP1 SSTORE POP PUSH0 PUSH0 PUSH0 CALLER PUSH20 0xFFFFFFFFFFFFFFFFFFFFFFFFFFFFFFFFFFFFFFFF AND PUSH20 0xFFFFFFFFFFFFFFFFFFFFFFFFFFFFFFFFFFFFFFFF AND DUP2 MSTORE PUSH1 0x20 ADD SWAP1 DUP2 MSTORE PUSH1 0x20 ADD PUSH0 KECCAK256 SLOAD SWAP1 POP PUSH0 DUP2 GT PUSH2 0x17D JUMPI PUSH1 0x40 MLOAD PUSH32 0x8C379A000000000000000000000000000000000000000000000000000000000 DUP2 MSTORE PUSH1 0x4 ADD PUSH2 0x174 SWAP1 PUSH2 0x4A9 JUMP JUMPDEST PUSH1 0x40 MLOAD DUP1 SWAP2 SUB SWAP1 REVERT JUMPDEST PUSH0 PUSH0 PUSH0 CALLER PUSH20 0xFFFFFFFFFFFFFFFFFFFFFFFFFFFFFFFFFFFFFFFF AND PUSH20 0xFFFFFFFFFFFFFFFFFFFFFFFFFFFFFFFFFFFFFFFF AND DUP2 MSTORE PUSH1 0x20 ADD SWAP1 DUP2 MSTORE PUSH1 0x20 ADD PUSH0 KECCAK256 DUP2 SWAP1 SSTORE POP PUSH0 CALLER PUSH20 0xFFFFFFFFFFFFFFFFFFFFFFFFFFFFFFFFFFFFFFFF AND DUP3 PUSH1 0x40 MLOAD PUSH2 0x1E3 SWAP1 PUSH2 0x4F4 JUMP JUMPDEST PUSH0 PUSH1 0x40 MLOAD DUP1 DUP4 SUB DUP2 DUP6 DUP8 GAS CALL SWAP3 POP POP POP RETURNDATASIZE DUP1 PUSH0 DUP2 EQ PUSH2 0x21D JUMPI PUSH1 0x40 MLOAD SWAP2 POP PUSH1 0x1F NOT PUSH1 0x3F RETURNDATASIZE ADD AND DUP3 ADD PUSH1 0x40 MSTORE RETURNDATASIZE DUP3 MSTORE RETURNDATASIZE PUSH0 PUSH1 0x20 DUP5 ADD RETURNDATACOPY PUSH2 0x222 JUMP JUMPDEST PUSH1 0x60 SWAP2 POP JUMPDEST POP POP SWAP1 POP DUP1 PUSH2 0x266 JUMPI PUSH1 0x40 MLOAD PUSH32 0x8C379A000000000000000000000000000000000000000000000000000000000 DUP2 MSTORE PUSH1 0x4 ADD PUSH2 0x25D SWAP1 PUSH2 0x552 JUMP JUMPDEST PUSH1 0x40 MLOAD DUP1 SWAP2 SUB SWAP1 REVERT JUMPDEST POP POP PUSH0 PUSH1 0x1 PUSH0 PUSH2 0x100 EXP DUP2 SLOAD DUP2 PUSH1 0xFF MUL NOT AND SWAP1 DUP4 ISZERO ISZERO MUL OR SWAP1 SSTORE POP JUMP JUMPDEST PUSH0 PUSH1 0x20 MSTORE DUP1 PUSH0 MSTORE PUSH1 0x40 PUSH0 KECCAK256 PUSH0 SWAP2 POP SWAP1 POP SLOAD DUP2 JUMP JUMPDEST PUSH0 CALLVALUE GT PUSH2 0x2D9 JUMPI PUSH1 0x40 MLOAD PUSH32 0x8C379A000000000000000000000000000000000000000000000000000000000 DUP2 MSTORE PUSH1 0x4 ADD PUSH2 0x2D0 SWAP1 PUSH2 0x5BA JUMP JUMPDEST PUSH1 0x40 MLOAD DUP1 SWAP2 SUB SWAP1 REVERT JUMPDEST CALLVALUE PUSH0 PUSH0 CALLER PUSH20 0xFFFFFFFFFFFFFFFFFFFFFFFFFFFFFFFFFFFFFFFF AND PUSH20 0xFFFFFFFFFFFFFFFFFFFFFFFFFFFFFFFFFFFFFFFF AND DUP2 MSTORE PUSH1 0x20 ADD SWAP1 DUP2 MSTORE PUSH1 0x20 ADD PUSH0 KECCAK256 PUSH0 DUP3 DUP3 SLOAD PUSH2 0x324 SWAP2 SWAP1 PUSH2 0x605 JUMP JUMPDEST SWAP3 POP POP DUP2 SWAP1 SSTORE POP JUMP JUMPDEST PUSH0 PUSH0 REVERT JUMPDEST PUSH0 PUSH20 0xFFFFFFFFFFFFFFFFFFFFFFFFFFFFFFFFFFFFFFFF DUP3 AND SWAP1 POP SWAP2 SWAP1 POP JUMP JUMPDEST PUSH0 PUSH2 0x35A DUP3 PUSH2 0x331 JUMP JUMPDEST SWAP1 POP SWAP2 SWAP1 POP JUMP JUMPDEST PUSH2 0x36A DUP2 PUSH2 0x350 JUMP JUMPDEST DUP2 EQ PUSH2 0x374 JUMPI PUSH0 PUSH0 REVERT JUMPDEST POP JUMP JUMPDEST PUSH0 DUP2 CALLDATALOAD SWAP1 POP PUSH2 0x385 DUP2 PUSH2 0x361 JUMP JUMPDEST SWAP3 SWAP2 POP POP JUMP JUMPDEST PUSH0 PUSH1 0x20 DUP3 DUP5 SUB SLT ISZERO PUSH2 0x3A0 JUMPI PUSH2 0x39F PUSH2 0x32D JUMP JUMPDEST JUMPDEST PUSH0 PUSH2 0x3AD DUP5 DUP3 DUP6 ADD PUSH2 0x377 JUMP JUMPDEST SWAP2 POP POP SWAP3 SWAP2 POP POP JUMP JUMPDEST PUSH0 DUP2 SWAP1 POP SWAP2 SWAP1 POP JUMP JUMPDEST PUSH2 0x3C8 DUP2 PUSH2 0x3B6 JUMP JUMPDEST DUP3 MSTORE POP POP JUMP JUMPDEST PUSH0 PUSH1 0x20 DUP3 ADD SWAP1 POP PUSH2 0x3E1 PUSH0 DUP4 ADD DUP5 PUSH2 0x3BF JUMP JUMPDEST SWAP3 SWAP2 POP POP JUMP JUMPDEST PUSH0 DUP3 DUP3 MSTORE PUSH1 0x20 DUP3 ADD SWAP1 POP SWAP3 SWAP2 POP POP JUMP JUMPDEST PUSH32 0x4E6F207265656E7472616E637921000000000000000000000000000000000000 PUSH0 DUP3 ADD MSTORE POP JUMP JUMPDEST PUSH0 PUSH2 0x42B PUSH1 0xE DUP4 PUSH2 0x3E7 JUMP JUMPDEST SWAP2 POP PUSH2 0x436 DUP3 PUSH2 0x3F7 JUMP JUMPDEST PUSH1 0x20 DUP3 ADD SWAP1 POP SWAP2 SWAP1 POP JUMP JUMPDEST PUSH0 PUSH1 0x20 DUP3 ADD SWAP1 POP DUP2 DUP2 SUB PUSH0 DUP4 ADD MSTORE PUSH2 0x458 DUP2 PUSH2 0x41F JUMP JUMPDEST SWAP1 POP SWAP2 SWAP1 POP JUMP JUMPDEST PUSH32 0x4E6F2062616C616E636521000000000000000000000000000000000000000000 PUSH0 DUP3 ADD MSTORE POP JUMP JUMPDEST PUSH0 PUSH2 0x493 PUSH1 0xB DUP4 PUSH2 0x3E7 JUMP JUMPDEST SWAP2 POP PUSH2 0x49E DUP3 PUSH2 0x45F JUMP JUMPDEST PUSH1 0x20 DUP3 ADD SWAP1 POP SWAP2 SWAP1 POP JUMP JUMPDEST PUSH0 PUSH1 0x20 DUP3 ADD SWAP1 POP DUP2 DUP2 SUB PUSH0 DUP4 ADD MSTORE PUSH2 0x4C0 DUP2 PUSH2 0x487 JUMP JUMPDEST SWAP1 POP SWAP2 SWAP1 POP JUMP JUMPDEST PUSH0 DUP2 SWAP1 POP SWAP3 SWAP2 POP POP JUMP JUMPDEST POP JUMP JUMPDEST PUSH0 PUSH2 0x4DF PUSH0 DUP4 PUSH2 0x4C7 JUMP JUMPDEST SWAP2 POP PUSH2 0x4EA DUP3 PUSH2 0x4D1 JUMP JUMPDEST PUSH0 DUP3 ADD SWAP1 POP SWAP2 SWAP1 POP JUMP JUMPDEST PUSH0 PUSH2 0x4FE DUP3 PUSH2 0x4D4 JUMP JUMPDEST SWAP2 POP DUP2 SWAP1 POP SWAP2 SWAP1 POP JUMP JUMPDEST PUSH32 0x5472616E7369616374696F6E206661696C656421000000000000000000000000 PUSH0 DUP3 ADD MSTORE POP JUMP JUMPDEST PUSH0 PUSH2 0x53C PUSH1 0x14 DUP4 PUSH2 0x3E7 JUMP JUMPDEST SWAP2 POP PUSH2 0x547 DUP3 PUSH2 0x508 JUMP JUMPDEST PUSH1 0x20 DUP3 ADD SWAP1 POP SWAP2 SWAP1 POP JUMP JUMPDEST PUSH0 PUSH1 0x20 DUP3 ADD SWAP1 POP DUP2 DUP2 SUB PUSH0 DUP4 ADD MSTORE PUSH2 0x569 DUP2 PUSH2 0x530 JUMP JUMPDEST SWAP1 POP SWAP2 SWAP1 POP JUMP JUMPDEST PUSH32 0x4E6F20616D6F756E742100000000000000000000000000000000000000000000 PUSH0 DUP3 ADD MSTORE POP JUMP JUMPDEST PUSH0 PUSH2 0x5A4 PUSH1 0xA DUP4 PUSH2 0x3E7 JUMP JUMPDEST SWAP2 POP PUSH2 0x5AF DUP3 PUSH2 0x570 JUMP JUMPDEST PUSH1 0x20 DUP3 ADD SWAP1 POP SWAP2 SWAP1 POP JUMP JUMPDEST PUSH0 PUSH1 0x20 DUP3 ADD SWAP1 POP DUP2 DUP2 SUB PUSH0 DUP4 ADD MSTORE PUSH2 0x5D1 DUP2 PUSH2 0x598 JUMP JUMPDEST SWAP1 POP SWAP2 SWAP1 POP JUMP JUMPDEST PUSH32 0x4E487B7100000000000000000000000000000000000000000000000000000000 PUSH0 MSTORE PUSH1 0x11 PUSH1 0x4 MSTORE PUSH1 0x24 PUSH0 REVERT JUMPDEST PUSH0 PUSH2 0x60F DUP3 PUSH2 0x3B6 JUMP JUMPDEST SWAP2 POP PUSH2 0x61A DUP4 PUSH2 0x3B6 JUMP JUMPDEST SWAP3 POP DUP3 DUP3 ADD SWAP1 POP DUP1 DUP3 GT ISZERO PUSH2 0x632 JUMPI PUSH2 0x631 PUSH2 0x5D8 JUMP JUMPDEST JUMPDEST SWAP3 SWAP2 POP POP JUMP INVALID LOG2 PUSH5 0x6970667358 0x22 SLT KECCAK256 BLOBHASH PUSH13 0xF47B5D400716CCF7DE40F81AFD DUPN 0x7 POP PUSH12 0x8437D3D95DC68AC6B30E62ED 0xCD PUSH5 0x736F6C6343 STOP ADDMOD 0x22 STOP CALLER "
				},
				"gasEstimates": {
					"creation": {
						"codeDepositCost": "329200",
						"executionCost": "366",
						"totalCost": "329566"
					},
					"external": {
						"balances(address)": "2801",
						"deposit()": "infinite",
						"withDraw()": "infinite"
					}
				},
				"methodIdentifiers": {
					"balances(address)": "27e235e3",
					"deposit()": "d0e30db0",
					"withDraw()": "0fdb1c10"
				}
			},
			"storageLayout": {
				"storage": [
					{
						"astId": 5,
						"contract": "lession8.2-Security/SecureVaulLocl.sol:SecureVaulLock",
						"label": "balances",
						"offset": 0,
						"slot": "0",
						"type": "t_mapping(t_address,t_uint256)"
					},
					{
						"astId": 7,
						"contract": "lession8.2-Security/SecureVaulLocl.sol:SecureVaulLock",
						"label": "locked",
						"offset": 0,
						"slot": "1",
						"type": "t_bool"
					}
				],
				"types": {
					"t_address": {
						"encoding": "inplace",
						"label": "address",
						"numberOfBytes": "20"
					},
					"t_bool": {
						"encoding": "inplace",
						"label": "bool",
						"numberOfBytes": "1"
					},
					"t_mapping(t_address,t_uint256)": {
						"encoding": "mapping",
						"key": "t_address",
						"label": "mapping(address => uint256)",
						"numberOfBytes": "32",
						"value": "t_uint256"
					},
					"t_uint256": {
						"encoding": "inplace",
						"label": "uint256",
						"numberOfBytes": "32"
					}
				}
			},
			"userdoc": {
				"kind": "user",
				"methods": {},
				"version": 1
			}
		}
	}
}