{
	"lession3.2-Mapping&Struct/UserManagementSystem.sol": {
		"UserManagementSystem": {
			"abi": [
				{
					"anonymous": false,
					"inputs": [
						{
							"indexed": true,
							"internalType": "address",
							"name": "user",
							"type": "address"
						},
						{
							"indexed": false,
							"internalType": "uint256",
							"name": "amount",
							"type": "uint256"
						}
					],
					"name": "Deposit",
					"type": "event"
				},
				{
					"anonymous": false,
					"inputs": [
						{
							"indexed": true,
							"internalType": "address",
							"name": "user",
							"type": "address"
						},
						{
							"indexed": false,
							"internalType": "string",
							"name": "name",
							"type": "string"
						}
					],
					"name": "UserRegistered",
					"type": "event"
				},
				{
					"anonymous": false,
					"inputs": [
						{
							"indexed": true,
							"internalType": "address",
							"name": "user",
							"type": "address"
						},
						{
							"indexed": false,
							"internalType": "string",
							"name": "name",
							"type": "string"
						}
					],
					"name": "UserUpdated",
					"type": "event"
				},
				{
					"inputs": [],
					"name": "MAX_USERS",
					"outputs": [
						{
							"internalType": "uint256",
							"name": "",
							"type": "uint256"
						}
					],
					"stateMutability": "view",
					"type": "function"
				},
				{
					"inputs": [],
					"name": "despot",
					"outputs": [],
					"stateMutability": "payable",
					"type": "function"
				},
				{
					"inputs": [],
					"name": "getAllUsers",
					"outputs": [
						{
							"internalType": "address[]",
							"name": "",
							"type": "address[]"
						}
					],
					"stateMutability": "view",
					"type": "function"
				},
				{
					"inputs": [
						{
							"internalType": "address",
							"name": "user",
							"type": "address"
						}
					],
					"name": "getUserInfo",
					"outputs": [
						{
							"components": [
								{
									"internalType": "string",
									"name": "name",
									"type": "string"
								},
								{
									"internalType": "string",
									"name": "email",
									"type": "string"
								},
								{
									"internalType": "uint256",
									"name": "balance",
									"type": "uint256"
								},
								{
									"internalType": "uint256",
									"name": "registeredAt",
									"type": "uint256"
								},
								{
									"internalType": "bool",
									"name": "exists",
									"type": "bool"
								}
							],
							"internalType": "struct UserManagementSystem.User",
							"name": "",
							"type": "tuple"
						}
					],
					"stateMutability": "view",
					"type": "function"
				},
				{
					"inputs": [
						{
							"internalType": "address[]",
							"name": "addresses",
							"type": "address[]"
						}
					],
					"name": "getUserInfoBatch",
					"outputs": [
						{
							"components": [
								{
									"internalType": "string",
									"name": "name",
									"type": "string"
								},
								{
									"internalType": "string",
									"name": "email",
									"type": "string"
								},
								{
									"internalType": "uint256",
									"name": "balance",
									"type": "uint256"
								},
								{
									"internalType": "uint256",
									"name": "registeredAt",
									"type": "uint256"
								},
								{
									"internalType": "bool",
									"name": "exists",
									"type": "bool"
								}
							],
							"internalType": "struct UserManagementSystem.User[]",
							"name": "",
							"type": "tuple[]"
						}
					],
					"stateMutability": "view",
					"type": "function"
				},
				{
					"inputs": [
						{
							"internalType": "uint256",
							"name": "start",
							"type": "uint256"
						},
						{
							"internalType": "uint256",
							"name": "end",
							"type": "uint256"
						}
					],
					"name": "getUsersByRange",
					"outputs": [
						{
							"internalType": "address[]",
							"name": "",
							"type": "address[]"
						}
					],
					"stateMutability": "view",
					"type": "function"
				},
				{
					"inputs": [
						{
							"internalType": "address",
							"name": "user",
							"type": "address"
						}
					],
					"name": "isRegistered",
					"outputs": [
						{
							"internalType": "bool",
							"name": "",
							"type": "bool"
						}
					],
					"stateMutability": "view",
					"type": "function"
				},
				{
					"inputs": [
						{
							"internalType": "string",
							"name": "name",
							"type": "string"
						},
						{
							"internalType": "string",
							"name": "email",
							"type": "string"
						}
					],
					"name": "register",
					"outputs": [],
					"stateMutability": "nonpayable",
					"type": "function"
				},
				{
					"inputs": [
						{
							"internalType": "string",
							"name": "name",
							"type": "string"
						},
						{
							"internalType": "string",
							"name": "email",
							"type": "string"
						}
					],
					"name": "updateProfile",
					"outputs": [],
					"stateMutability": "nonpayable",
					"type": "function"
				},
				{
					"inputs": [
						{
							"internalType": "uint256",
							"name": "",
							"type": "uint256"
						}
					],
					"name": "userAddresses",
					"outputs": [
						{
							"internalType": "address",
							"name": "",
							"type": "address"
						}
					],
					"stateMutability": "view",
					"type": "function"
				},
				{
					"inputs": [],
					"name": "userCount",
					"outputs": [
						{
							"internalType": "uint256",
							"name": "",
							"type": "uint256"
						}
					],
					"stateMutability": "view",
					"type": "function"
				},
				{
					"inputs": [
						{
							"internalType": "address",
							"name": "",
							"type": "address"
						}
					],
					"name": "users",
					"outputs": [
						{
							"internalType": "string",
							"name": "name",
							"type": "string"
						},
						{
							"internalType": "string",
							"name": "email",
							"type": "string"
						},
						{
							"internalType": "uint256",
							"name": "balance",
							"type": "uint256"
						},
						{
							"internalType": "uint256",
							"name": "registeredAt",
							"type": "uint256"
						},
						{
							"internalType": "bool",
							"name": "exists",
							"type": "bool"
						}
					],
					"stateMutability": "view",
					"type": "function"
				}
			],
			"devdoc": {
				"kind": "dev",
				"methods": {},
				"version": 1
			},
			"evm": {
				"assembly": "    /* \"lession3.2-Mapping&Struct/UserManagementSystem.sol\":320:3968  contract UserManagementSystem {... */\n  mstore(0x40, 0x80)\n  callvalue\n  dup1\n  iszero\n  tag_1\n  jumpi\n  revert(0x00, 0x00)\ntag_1:\n  pop\n  dataSize(sub_0)\n  dup1\n  dataOffset(sub_0)\n  0x00\n  codecopy\n  0x00\n  return\nstop\n\nsub_0: assembly {\n        /* \"lession3.2-Mapping&Struct/UserManagementSystem.sol\":320:3968  contract UserManagementSystem {... */\n      mstore(0x40, 0x80)\n      jumpi(tag_1, lt(calldatasize, 0x04))\n      shr(0xe0, calldataload(0x00))\n      dup1\n      0xc3c5a547\n      gt\n      tag_14\n      jumpi\n      dup1\n      0xc3c5a547\n      eq\n      tag_8\n      jumpi\n      dup1\n      0xc9d3cc6a\n      eq\n      tag_9\n      jumpi\n      dup1\n      0xe2842d79\n      eq\n      tag_10\n      jumpi\n      dup1\n      0xed5cd0e7\n      eq\n      tag_11\n      jumpi\n      dup1\n      0xf814c7db\n      eq\n      tag_12\n      jumpi\n      dup1\n      0xfa6ac131\n      eq\n      tag_13\n      jumpi\n      jump(tag_1)\n    tag_14:\n      dup1\n      0x06752aff\n      eq\n      tag_2\n      jumpi\n      dup1\n      0x07973ccf\n      eq\n      tag_3\n      jumpi\n      dup1\n      0x3ffbd47f\n      eq\n      tag_4\n      jumpi\n      dup1\n      0x502c9bd5\n      eq\n      tag_5\n      jumpi\n      dup1\n      0x6386c1c7\n      eq\n      tag_6\n      jumpi\n      dup1\n      0xa87430ba\n      eq\n      tag_7\n      jumpi\n    tag_1:\n      revert(0x00, 0x00)\n        /* \"lession3.2-Mapping&Struct/UserManagementSystem.sol\":3612:3966  function getUserInfoBatch(address[] memory addresses) public view returns(User[] memory) {... */\n    tag_2:\n      callvalue\n      dup1\n      iszero\n      tag_15\n      jumpi\n      revert(0x00, 0x00)\n    tag_15:\n      pop\n      tag_16\n      0x04\n      dup1\n      calldatasize\n      sub\n      dup2\n      add\n      swap1\n      tag_17\n      swap2\n      swap1\n      tag_18\n      jump\t// in\n    tag_17:\n      tag_19\n      jump\t// in\n    tag_16:\n      mload(0x40)\n      tag_20\n      swap2\n      swap1\n      tag_21\n      jump\t// in\n    tag_20:\n      mload(0x40)\n      dup1\n      swap2\n      sub\n      swap1\n      return\n        /* \"lession3.2-Mapping&Struct/UserManagementSystem.sol\":738:759  uint public userCount */\n    tag_3:\n      callvalue\n      dup1\n      iszero\n      tag_22\n      jumpi\n      revert(0x00, 0x00)\n    tag_22:\n      pop\n      tag_23\n      tag_24\n      jump\t// in\n    tag_23:\n      mload(0x40)\n      tag_25\n      swap2\n      swap1\n      tag_26\n      jump\t// in\n    tag_25:\n      mload(0x40)\n      dup1\n      swap2\n      sub\n      swap1\n      return\n        /* \"lession3.2-Mapping&Struct/UserManagementSystem.sol\":1040:1857  function register(string memory name,string memory email) public {... */\n    tag_4:\n      callvalue\n      dup1\n      iszero\n      tag_27\n      jumpi\n      revert(0x00, 0x00)\n    tag_27:\n      pop\n      tag_28\n      0x04\n      dup1\n      calldatasize\n      sub\n      dup2\n      add\n      swap1\n      tag_29\n      swap2\n      swap1\n      tag_30\n      jump\t// in\n    tag_29:\n      tag_31\n      jump\t// in\n    tag_28:\n      stop\n        /* \"lession3.2-Mapping&Struct/UserManagementSystem.sol\":679:709  address[] public userAddresses */\n    tag_5:\n      callvalue\n      dup1\n      iszero\n      tag_32\n      jumpi\n      revert(0x00, 0x00)\n    tag_32:\n      pop\n      tag_33\n      0x04\n      dup1\n      calldatasize\n      sub\n      dup2\n      add\n      swap1\n      tag_34\n      swap2\n      swap1\n      tag_35\n      jump\t// in\n    tag_34:\n      tag_36\n      jump\t// in\n    tag_33:\n      mload(0x40)\n      tag_37\n      swap2\n      swap1\n      tag_38\n      jump\t// in\n    tag_37:\n      mload(0x40)\n      dup1\n      swap2\n      sub\n      swap1\n      return\n        /* \"lession3.2-Mapping&Struct/UserManagementSystem.sol\":2517:2713  function getUserInfo(address user) public view returns(User memory) {... */\n    tag_6:\n      callvalue\n      dup1\n      iszero\n      tag_39\n      jumpi\n      revert(0x00, 0x00)\n    tag_39:\n      pop\n      tag_40\n      0x04\n      dup1\n      calldatasize\n      sub\n      dup2\n      add\n      swap1\n      tag_41\n      swap2\n      swap1\n      tag_42\n      jump\t// in\n    tag_41:\n      tag_43\n      jump\t// in\n    tag_40:\n      mload(0x40)\n      tag_44\n      swap2\n      swap1\n      tag_45\n      jump\t// in\n    tag_44:\n      mload(0x40)\n      dup1\n      swap2\n      sub\n      swap1\n      return\n        /* \"lession3.2-Mapping&Struct/UserManagementSystem.sol\":594:632  mapping (address => User) public users */\n    tag_7:\n      callvalue\n      dup1\n      iszero\n      tag_46\n      jumpi\n      revert(0x00, 0x00)\n    tag_46:\n      pop\n      tag_47\n      0x04\n      dup1\n      calldatasize\n      sub\n      dup2\n      add\n      swap1\n      tag_48\n      swap2\n      swap1\n      tag_42\n      jump\t// in\n    tag_48:\n      tag_49\n      jump\t// in\n    tag_47:\n      mload(0x40)\n      tag_50\n      swap6\n      swap5\n      swap4\n      swap3\n      swap2\n      swap1\n      tag_51\n      jump\t// in\n    tag_50:\n      mload(0x40)\n      dup1\n      swap2\n      sub\n      swap1\n      return\n        /* \"lession3.2-Mapping&Struct/UserManagementSystem.sol\":2751:2948  function isRegistered(address user) public view returns(bool) {... */\n    tag_8:\n      callvalue\n      dup1\n      iszero\n      tag_52\n      jumpi\n      revert(0x00, 0x00)\n    tag_52:\n      pop\n      tag_53\n      0x04\n      dup1\n      calldatasize\n      sub\n      dup2\n      add\n      swap1\n      tag_54\n      swap2\n      swap1\n      tag_42\n      jump\t// in\n    tag_54:\n      tag_55\n      jump\t// in\n    tag_53:\n      mload(0x40)\n      tag_56\n      swap2\n      swap1\n      tag_57\n      jump\t// in\n    tag_56:\n      mload(0x40)\n      dup1\n      swap2\n      sub\n      swap1\n      return\n        /* \"lession3.2-Mapping&Struct/UserManagementSystem.sol\":1889:2211  function updateProfile(string memory name,string memory email) public {... */\n    tag_9:\n      callvalue\n      dup1\n      iszero\n      tag_58\n      jumpi\n      revert(0x00, 0x00)\n    tag_58:\n      pop\n      tag_59\n      0x04\n      dup1\n      calldatasize\n      sub\n      dup2\n      add\n      swap1\n      tag_60\n      swap2\n      swap1\n      tag_30\n      jump\t// in\n    tag_60:\n      tag_61\n      jump\t// in\n    tag_59:\n      stop\n        /* \"lession3.2-Mapping&Struct/UserManagementSystem.sol\":2986:3084  function getAllUsers() public view returns(address[] memory) {... */\n    tag_10:\n      callvalue\n      dup1\n      iszero\n      tag_62\n      jumpi\n      revert(0x00, 0x00)\n    tag_62:\n      pop\n      tag_63\n      tag_64\n      jump\t// in\n    tag_63:\n      mload(0x40)\n      tag_65\n      swap2\n      swap1\n      tag_66\n      jump\t// in\n    tag_65:\n      mload(0x40)\n      dup1\n      swap2\n      sub\n      swap1\n      return\n        /* \"lession3.2-Mapping&Struct/UserManagementSystem.sol\":3116:3574  function getUsersByRange(uint start,uint end) public view returns(address[] memory) {... */\n    tag_11:\n      callvalue\n      dup1\n      iszero\n      tag_67\n      jumpi\n      revert(0x00, 0x00)\n    tag_67:\n      pop\n      tag_68\n      0x04\n      dup1\n      calldatasize\n      sub\n      dup2\n      add\n      swap1\n      tag_69\n      swap2\n      swap1\n      tag_70\n      jump\t// in\n    tag_69:\n      tag_71\n      jump\t// in\n    tag_68:\n      mload(0x40)\n      tag_72\n      swap2\n      swap1\n      tag_66\n      jump\t// in\n    tag_72:\n      mload(0x40)\n      dup1\n      swap2\n      sub\n      swap1\n      return\n        /* \"lession3.2-Mapping&Struct/UserManagementSystem.sol\":2231:2485  function despot() public payable {... */\n    tag_12:\n      tag_73\n      tag_74\n      jump\t// in\n    tag_73:\n      stop\n        /* \"lession3.2-Mapping&Struct/UserManagementSystem.sol\":791:828  uint public constant MAX_USERS = 1000 */\n    tag_13:\n      callvalue\n      dup1\n      iszero\n      tag_75\n      jumpi\n      revert(0x00, 0x00)\n    tag_75:\n      pop\n      tag_76\n      tag_77\n      jump\t// in\n    tag_76:\n      mload(0x40)\n      tag_78\n      swap2\n      swap1\n      tag_26\n      jump\t// in\n    tag_78:\n      mload(0x40)\n      dup1\n      swap2\n      sub\n      swap1\n      return\n        /* \"lession3.2-Mapping&Struct/UserManagementSystem.sol\":3612:3966  function getUserInfoBatch(address[] memory addresses) public view returns(User[] memory) {... */\n    tag_19:\n        /* \"lession3.2-Mapping&Struct/UserManagementSystem.sol\":3686:3699  User[] memory */\n      0x60\n        /* \"lession3.2-Mapping&Struct/UserManagementSystem.sol\":3711:3719  uint len */\n      0x00\n        /* \"lession3.2-Mapping&Struct/UserManagementSystem.sol\":3722:3731  addresses */\n      dup3\n        /* \"lession3.2-Mapping&Struct/UserManagementSystem.sol\":3722:3738  addresses.length */\n      mload\n        /* \"lession3.2-Mapping&Struct/UserManagementSystem.sol\":3711:3738  uint len = addresses.length */\n      swap1\n      pop\n        /* \"lession3.2-Mapping&Struct/UserManagementSystem.sol\":3748:3770  User[] memory userList */\n      0x00\n        /* \"lession3.2-Mapping&Struct/UserManagementSystem.sol\":3784:3787  len */\n      dup2\n        /* \"lession3.2-Mapping&Struct/UserManagementSystem.sol\":3773:3788  new User[](len) */\n      0xffffffffffffffff\n      dup2\n      gt\n      iszero\n      tag_80\n      jumpi\n      tag_81\n      tag_82\n      jump\t// in\n    tag_81:\n    tag_80:\n      mload(0x40)\n      swap1\n      dup1\n      dup3\n      mstore\n      dup1\n      0x20\n      mul\n      0x20\n      add\n      dup3\n      add\n      0x40\n      mstore\n      dup1\n      iszero\n      tag_83\n      jumpi\n      dup2\n      0x20\n      add\n    tag_84:\n      tag_85\n      tag_86\n      jump\t// in\n    tag_85:\n      dup2\n      mstore\n      0x20\n      add\n      swap1\n      0x01\n      swap1\n      sub\n      swap1\n      dup2\n      tag_84\n      jumpi\n      swap1\n      pop\n    tag_83:\n      pop\n        /* \"lession3.2-Mapping&Struct/UserManagementSystem.sol\":3748:3788  User[] memory userList = new User[](len) */\n      swap1\n      pop\n        /* \"lession3.2-Mapping&Struct/UserManagementSystem.sol\":3798:3808  uint index */\n      0x00\n        /* \"lession3.2-Mapping&Struct/UserManagementSystem.sol\":3811:3812  0 */\n      0x00\n        /* \"lession3.2-Mapping&Struct/UserManagementSystem.sol\":3798:3812  uint index = 0 */\n      swap1\n      pop\n        /* \"lession3.2-Mapping&Struct/UserManagementSystem.sol\":3826:3832  uint i */\n      0x00\n        /* \"lession3.2-Mapping&Struct/UserManagementSystem.sol\":3835:3836  0 */\n      0x00\n        /* \"lession3.2-Mapping&Struct/UserManagementSystem.sol\":3826:3836  uint i = 0 */\n      swap1\n      pop\n        /* \"lession3.2-Mapping&Struct/UserManagementSystem.sol\":3822:3935  for(uint i = 0; i < len; i++) {... */\n    tag_87:\n        /* \"lession3.2-Mapping&Struct/UserManagementSystem.sol\":3842:3845  len */\n      dup4\n        /* \"lession3.2-Mapping&Struct/UserManagementSystem.sol\":3838:3839  i */\n      dup2\n        /* \"lession3.2-Mapping&Struct/UserManagementSystem.sol\":3838:3845  i < len */\n      lt\n        /* \"lession3.2-Mapping&Struct/UserManagementSystem.sol\":3822:3935  for(uint i = 0; i < len; i++) {... */\n      iszero\n      tag_88\n      jumpi\n        /* \"lession3.2-Mapping&Struct/UserManagementSystem.sol\":3884:3889  users */\n      0x00\n        /* \"lession3.2-Mapping&Struct/UserManagementSystem.sol\":3884:3903  users[addresses[i]] */\n      0x00\n        /* \"lession3.2-Mapping&Struct/UserManagementSystem.sol\":3890:3899  addresses */\n      dup8\n        /* \"lession3.2-Mapping&Struct/UserManagementSystem.sol\":3900:3901  i */\n      dup4\n        /* \"lession3.2-Mapping&Struct/UserManagementSystem.sol\":3890:3902  addresses[i] */\n      dup2\n      mload\n      dup2\n      lt\n      tag_90\n      jumpi\n      tag_91\n      tag_92\n      jump\t// in\n    tag_91:\n    tag_90:\n      0x20\n      mul\n      0x20\n      add\n      add\n      mload\n        /* \"lession3.2-Mapping&Struct/UserManagementSystem.sol\":3884:3903  users[addresses[i]] */\n      0xffffffffffffffffffffffffffffffffffffffff\n      and\n      0xffffffffffffffffffffffffffffffffffffffff\n      and\n      dup2\n      mstore\n      0x20\n      add\n      swap1\n      dup2\n      mstore\n      0x20\n      add\n      0x00\n      keccak256\n        /* \"lession3.2-Mapping&Struct/UserManagementSystem.sol\":3866:3903  userList[index] = users[addresses[i]] */\n      mload(0x40)\n      dup1\n      0xa0\n      add\n      0x40\n      mstore\n      swap1\n      dup2\n      0x00\n      dup3\n      add\n      dup1\n      sload\n      tag_93\n      swap1\n      tag_94\n      jump\t// in\n    tag_93:\n      dup1\n      0x1f\n      add\n      0x20\n      dup1\n      swap2\n      div\n      mul\n      0x20\n      add\n      mload(0x40)\n      swap1\n      dup2\n      add\n      0x40\n      mstore\n      dup1\n      swap3\n      swap2\n      swap1\n      dup2\n      dup2\n      mstore\n      0x20\n      add\n      dup3\n      dup1\n      sload\n      tag_95\n      swap1\n      tag_94\n      jump\t// in\n    tag_95:\n      dup1\n      iszero\n      tag_96\n      jumpi\n      dup1\n      0x1f\n      lt\n      tag_97\n      jumpi\n      0x0100\n      dup1\n      dup4\n      sload\n      div\n      mul\n      dup4\n      mstore\n      swap2\n      0x20\n      add\n      swap2\n      jump(tag_96)\n    tag_97:\n      dup3\n      add\n      swap2\n      swap1\n      0x00\n      mstore\n      keccak256(0x00, 0x20)\n      swap1\n    tag_98:\n      dup2\n      sload\n      dup2\n      mstore\n      swap1\n      0x01\n      add\n      swap1\n      0x20\n      add\n      dup1\n      dup4\n      gt\n      tag_98\n      jumpi\n      dup3\n      swap1\n      sub\n      0x1f\n      and\n      dup3\n      add\n      swap2\n    tag_96:\n      pop\n      pop\n      pop\n      pop\n      pop\n      dup2\n      mstore\n      0x20\n      add\n      0x01\n      dup3\n      add\n      dup1\n      sload\n      tag_99\n      swap1\n      tag_94\n      jump\t// in\n    tag_99:\n      dup1\n      0x1f\n      add\n      0x20\n      dup1\n      swap2\n      div\n      mul\n      0x20\n      add\n      mload(0x40)\n      swap1\n      dup2\n      add\n      0x40\n      mstore\n      dup1\n      swap3\n      swap2\n      swap1\n      dup2\n      dup2\n      mstore\n      0x20\n      add\n      dup3\n      dup1\n      sload\n      tag_100\n      swap1\n      tag_94\n      jump\t// in\n    tag_100:\n      dup1\n      iszero\n      tag_101\n      jumpi\n      dup1\n      0x1f\n      lt\n      tag_102\n      jumpi\n      0x0100\n      dup1\n      dup4\n      sload\n      div\n      mul\n      dup4\n      mstore\n      swap2\n      0x20\n      add\n      swap2\n      jump(tag_101)\n    tag_102:\n      dup3\n      add\n      swap2\n      swap1\n      0x00\n      mstore\n      keccak256(0x00, 0x20)\n      swap1\n    tag_103:\n      dup2\n      sload\n      dup2\n      mstore\n      swap1\n      0x01\n      add\n      swap1\n      0x20\n      add\n      dup1\n      dup4\n      gt\n      tag_103\n      jumpi\n      dup3\n      swap1\n      sub\n      0x1f\n      and\n      dup3\n      add\n      swap2\n    tag_101:\n      pop\n      pop\n      pop\n      pop\n      pop\n      dup2\n      mstore\n      0x20\n      add\n      0x02\n      dup3\n      add\n      sload\n      dup2\n      mstore\n      0x20\n      add\n      0x03\n      dup3\n      add\n      sload\n      dup2\n      mstore\n      0x20\n      add\n      0x04\n      dup3\n      add\n      0x00\n      swap1\n      sload\n      swap1\n      0x0100\n      exp\n      swap1\n      div\n      0xff\n      and\n      iszero\n      iszero\n      iszero\n      iszero\n      dup2\n      mstore\n      pop\n      pop\n        /* \"lession3.2-Mapping&Struct/UserManagementSystem.sol\":3866:3874  userList */\n      dup4\n        /* \"lession3.2-Mapping&Struct/UserManagementSystem.sol\":3875:3880  index */\n      dup4\n        /* \"lession3.2-Mapping&Struct/UserManagementSystem.sol\":3866:3881  userList[index] */\n      dup2\n      mload\n      dup2\n      lt\n      tag_104\n      jumpi\n      tag_105\n      tag_92\n      jump\t// in\n    tag_105:\n    tag_104:\n      0x20\n      mul\n      0x20\n      add\n      add\n        /* \"lession3.2-Mapping&Struct/UserManagementSystem.sol\":3866:3903  userList[index] = users[addresses[i]] */\n      dup2\n      swap1\n      mstore\n      pop\n        /* \"lession3.2-Mapping&Struct/UserManagementSystem.sol\":3917:3924  index++ */\n      dup2\n      dup1\n      tag_106\n      swap1\n      tag_107\n      jump\t// in\n    tag_106:\n      swap3\n      pop\n      pop\n        /* \"lession3.2-Mapping&Struct/UserManagementSystem.sol\":3847:3850  i++ */\n      dup1\n      dup1\n      0x01\n      add\n      swap2\n      pop\n      pop\n        /* \"lession3.2-Mapping&Struct/UserManagementSystem.sol\":3822:3935  for(uint i = 0; i < len; i++) {... */\n      jump(tag_87)\n    tag_88:\n      pop\n        /* \"lession3.2-Mapping&Struct/UserManagementSystem.sol\":3951:3959  userList */\n      dup2\n        /* \"lession3.2-Mapping&Struct/UserManagementSystem.sol\":3944:3959  return userList */\n      swap4\n      pop\n      pop\n      pop\n      pop\n        /* \"lession3.2-Mapping&Struct/UserManagementSystem.sol\":3612:3966  function getUserInfoBatch(address[] memory addresses) public view returns(User[] memory) {... */\n      swap2\n      swap1\n      pop\n      jump\t// out\n        /* \"lession3.2-Mapping&Struct/UserManagementSystem.sol\":738:759  uint public userCount */\n    tag_24:\n      sload(0x02)\n      dup2\n      jump\t// out\n        /* \"lession3.2-Mapping&Struct/UserManagementSystem.sol\":1040:1857  function register(string memory name,string memory email) public {... */\n    tag_31:\n        /* \"lession3.2-Mapping&Struct/UserManagementSystem.sol\":1115:1127  address user */\n      0x00\n        /* \"lession3.2-Mapping&Struct/UserManagementSystem.sol\":1130:1140  msg.sender */\n      caller\n        /* \"lession3.2-Mapping&Struct/UserManagementSystem.sol\":1115:1140  address user = msg.sender */\n      swap1\n      pop\n        /* \"lession3.2-Mapping&Struct/UserManagementSystem.sol\":1195:1200  users */\n      0x00\n        /* \"lession3.2-Mapping&Struct/UserManagementSystem.sol\":1195:1206  users[user] */\n      0x00\n        /* \"lession3.2-Mapping&Struct/UserManagementSystem.sol\":1201:1205  user */\n      dup3\n        /* \"lession3.2-Mapping&Struct/UserManagementSystem.sol\":1195:1206  users[user] */\n      0xffffffffffffffffffffffffffffffffffffffff\n      and\n      0xffffffffffffffffffffffffffffffffffffffff\n      and\n      dup2\n      mstore\n      0x20\n      add\n      swap1\n      dup2\n      mstore\n      0x20\n      add\n      0x00\n      keccak256\n        /* \"lession3.2-Mapping&Struct/UserManagementSystem.sol\":1195:1213  users[user].exists */\n      0x04\n      add\n      0x00\n      swap1\n      sload\n      swap1\n      0x0100\n      exp\n      swap1\n      div\n      0xff\n      and\n        /* \"lession3.2-Mapping&Struct/UserManagementSystem.sol\":1194:1213  !users[user].exists */\n      iszero\n        /* \"lession3.2-Mapping&Struct/UserManagementSystem.sol\":1186:1242  require(!users[user].exists, \"User already registered!\") */\n      tag_109\n      jumpi\n      mload(0x40)\n      0x08c379a000000000000000000000000000000000000000000000000000000000\n      dup2\n      mstore\n      0x04\n      add\n      tag_110\n      swap1\n      tag_111\n      jump\t// in\n    tag_110:\n      mload(0x40)\n      dup1\n      swap2\n      sub\n      swap1\n      revert\n    tag_109:\n        /* \"lession3.2-Mapping&Struct/UserManagementSystem.sol\":824:828  1000 */\n      0x03e8\n        /* \"lession3.2-Mapping&Struct/UserManagementSystem.sol\":1296:1305  userCount */\n      sload(0x02)\n        /* \"lession3.2-Mapping&Struct/UserManagementSystem.sol\":1296:1317  userCount < MAX_USERS */\n      lt\n        /* \"lession3.2-Mapping&Struct/UserManagementSystem.sol\":1288:1340  require(userCount < MAX_USERS, \"Max Users reached!\") */\n      tag_112\n      jumpi\n      mload(0x40)\n      0x08c379a000000000000000000000000000000000000000000000000000000000\n      dup2\n      mstore\n      0x04\n      add\n      tag_113\n      swap1\n      tag_114\n      jump\t// in\n    tag_113:\n      mload(0x40)\n      dup1\n      swap2\n      sub\n      swap1\n      revert\n    tag_112:\n        /* \"lession3.2-Mapping&Struct/UserManagementSystem.sol\":1379:1380  0 */\n      0x00\n        /* \"lession3.2-Mapping&Struct/UserManagementSystem.sol\":1364:1368  name */\n      dup4\n        /* \"lession3.2-Mapping&Struct/UserManagementSystem.sol\":1358:1376  bytes(name).length */\n      mload\n        /* \"lession3.2-Mapping&Struct/UserManagementSystem.sol\":1358:1380  bytes(name).length > 0 */\n      gt\n        /* \"lession3.2-Mapping&Struct/UserManagementSystem.sol\":1350:1399  require(bytes(name).length > 0, \"Name required!\") */\n      tag_115\n      jumpi\n      mload(0x40)\n      0x08c379a000000000000000000000000000000000000000000000000000000000\n      dup2\n      mstore\n      0x04\n      add\n      tag_116\n      swap1\n      tag_117\n      jump\t// in\n    tag_116:\n      mload(0x40)\n      dup1\n      swap2\n      sub\n      swap1\n      revert\n    tag_115:\n        /* \"lession3.2-Mapping&Struct/UserManagementSystem.sol\":1439:1440  0 */\n      0x00\n        /* \"lession3.2-Mapping&Struct/UserManagementSystem.sol\":1423:1428  email */\n      dup3\n        /* \"lession3.2-Mapping&Struct/UserManagementSystem.sol\":1417:1436  bytes(email).length */\n      mload\n        /* \"lession3.2-Mapping&Struct/UserManagementSystem.sol\":1417:1440  bytes(email).length > 0 */\n      gt\n        /* \"lession3.2-Mapping&Struct/UserManagementSystem.sol\":1409:1460  require(bytes(email).length > 0, \"Email required!\") */\n      tag_118\n      jumpi\n      mload(0x40)\n      0x08c379a000000000000000000000000000000000000000000000000000000000\n      dup2\n      mstore\n      0x04\n      add\n      tag_119\n      swap1\n      tag_120\n      jump\t// in\n    tag_119:\n      mload(0x40)\n      dup1\n      swap2\n      sub\n      swap1\n      revert\n    tag_118:\n        /* \"lession3.2-Mapping&Struct/UserManagementSystem.sol\":1494:1513  User memory newUser */\n      0x00\n        /* \"lession3.2-Mapping&Struct/UserManagementSystem.sol\":1516:1674  User({... */\n      mload(0x40)\n      dup1\n      0xa0\n      add\n      0x40\n      mstore\n      dup1\n        /* \"lession3.2-Mapping&Struct/UserManagementSystem.sol\":1541:1545  name */\n      dup6\n        /* \"lession3.2-Mapping&Struct/UserManagementSystem.sol\":1516:1674  User({... */\n      dup2\n      mstore\n      0x20\n      add\n        /* \"lession3.2-Mapping&Struct/UserManagementSystem.sol\":1566:1571  email */\n      dup5\n        /* \"lession3.2-Mapping&Struct/UserManagementSystem.sol\":1516:1674  User({... */\n      dup2\n      mstore\n      0x20\n      add\n        /* \"lession3.2-Mapping&Struct/UserManagementSystem.sol\":1594:1595  0 */\n      0x00\n        /* \"lession3.2-Mapping&Struct/UserManagementSystem.sol\":1516:1674  User({... */\n      dup2\n      mstore\n      0x20\n      add\n        /* \"lession3.2-Mapping&Struct/UserManagementSystem.sol\":1648:1663  block.timestamp */\n      timestamp\n        /* \"lession3.2-Mapping&Struct/UserManagementSystem.sol\":1516:1674  User({... */\n      dup2\n      mstore\n      0x20\n      add\n        /* \"lession3.2-Mapping&Struct/UserManagementSystem.sol\":1617:1621  true */\n      0x01\n        /* \"lession3.2-Mapping&Struct/UserManagementSystem.sol\":1516:1674  User({... */\n      iszero\n      iszero\n      dup2\n      mstore\n      pop\n        /* \"lession3.2-Mapping&Struct/UserManagementSystem.sol\":1494:1674  User memory newUser = User({... */\n      swap1\n      pop\n        /* \"lession3.2-Mapping&Struct/UserManagementSystem.sol\":1722:1729  newUser */\n      dup1\n        /* \"lession3.2-Mapping&Struct/UserManagementSystem.sol\":1708:1713  users */\n      0x00\n        /* \"lession3.2-Mapping&Struct/UserManagementSystem.sol\":1708:1719  users[user] */\n      0x00\n        /* \"lession3.2-Mapping&Struct/UserManagementSystem.sol\":1714:1718  user */\n      dup5\n        /* \"lession3.2-Mapping&Struct/UserManagementSystem.sol\":1708:1719  users[user] */\n      0xffffffffffffffffffffffffffffffffffffffff\n      and\n      0xffffffffffffffffffffffffffffffffffffffff\n      and\n      dup2\n      mstore\n      0x20\n      add\n      swap1\n      dup2\n      mstore\n      0x20\n      add\n      0x00\n      keccak256\n        /* \"lession3.2-Mapping&Struct/UserManagementSystem.sol\":1708:1729  users[user] = newUser */\n      0x00\n      dup3\n      add\n      mload\n      dup2\n      0x00\n      add\n      swap1\n      dup2\n      tag_121\n      swap2\n      swap1\n      tag_122\n      jump\t// in\n    tag_121:\n      pop\n      0x20\n      dup3\n      add\n      mload\n      dup2\n      0x01\n      add\n      swap1\n      dup2\n      tag_123\n      swap2\n      swap1\n      tag_122\n      jump\t// in\n    tag_123:\n      pop\n      0x40\n      dup3\n      add\n      mload\n      dup2\n      0x02\n      add\n      sstore\n      0x60\n      dup3\n      add\n      mload\n      dup2\n      0x03\n      add\n      sstore\n      0x80\n      dup3\n      add\n      mload\n      dup2\n      0x04\n      add\n      exp(0x0100, 0x00)\n      dup2\n      sload\n      dup2\n      0xff\n      mul\n      not\n      and\n      swap1\n      dup4\n      iszero\n      iszero\n      mul\n      or\n      swap1\n      sstore\n      pop\n      swap1\n      pop\n      pop\n        /* \"lession3.2-Mapping&Struct/UserManagementSystem.sol\":1739:1752  userAddresses */\n      0x01\n        /* \"lession3.2-Mapping&Struct/UserManagementSystem.sol\":1758:1762  user */\n      dup3\n        /* \"lession3.2-Mapping&Struct/UserManagementSystem.sol\":1739:1763  userAddresses.push(user) */\n      swap1\n      dup1\n      0x01\n      dup2\n      sload\n      add\n      dup1\n      dup3\n      sstore\n      dup1\n      swap2\n      pop\n      pop\n      0x01\n      swap1\n      sub\n      swap1\n      0x00\n      mstore\n      keccak256(0x00, 0x20)\n      add\n      0x00\n      swap1\n      swap2\n      swap1\n      swap2\n      swap1\n      swap2\n      0x0100\n      exp\n      dup2\n      sload\n      dup2\n      0xffffffffffffffffffffffffffffffffffffffff\n      mul\n      not\n      and\n      swap1\n      dup4\n      0xffffffffffffffffffffffffffffffffffffffff\n      and\n      mul\n      or\n      swap1\n      sstore\n      pop\n        /* \"lession3.2-Mapping&Struct/UserManagementSystem.sol\":1797:1806  userCount */\n      0x02\n      0x00\n        /* \"lession3.2-Mapping&Struct/UserManagementSystem.sol\":1797:1808  userCount++ */\n      dup2\n      sload\n      dup1\n      swap3\n      swap2\n      swap1\n      tag_125\n      swap1\n      tag_107\n      jump\t// in\n    tag_125:\n      swap2\n      swap1\n      pop\n      sstore\n      pop\n        /* \"lession3.2-Mapping&Struct/UserManagementSystem.sol\":1838:1842  user */\n      dup2\n        /* \"lession3.2-Mapping&Struct/UserManagementSystem.sol\":1823:1849  UserRegistered(user, name) */\n      0xffffffffffffffffffffffffffffffffffffffff\n      and\n      0x48cac28ad4dc618e15f4c2dd5e97751182f166de97b25618318b2112aa951a2f\n        /* \"lession3.2-Mapping&Struct/UserManagementSystem.sol\":1844:1848  name */\n      dup6\n        /* \"lession3.2-Mapping&Struct/UserManagementSystem.sol\":1823:1849  UserRegistered(user, name) */\n      mload(0x40)\n      tag_126\n      swap2\n      swap1\n      tag_127\n      jump\t// in\n    tag_126:\n      mload(0x40)\n      dup1\n      swap2\n      sub\n      swap1\n      log2\n        /* \"lession3.2-Mapping&Struct/UserManagementSystem.sol\":1105:1857  {... */\n      pop\n      pop\n        /* \"lession3.2-Mapping&Struct/UserManagementSystem.sol\":1040:1857  function register(string memory name,string memory email) public {... */\n      pop\n      pop\n      jump\t// out\n        /* \"lession3.2-Mapping&Struct/UserManagementSystem.sol\":679:709  address[] public userAddresses */\n    tag_36:\n      0x01\n      dup2\n      dup2\n      sload\n      dup2\n      lt\n      tag_128\n      jumpi\n      0x00\n      dup1\n      revert\n    tag_128:\n      swap1\n      0x00\n      mstore\n      keccak256(0x00, 0x20)\n      add\n      0x00\n      swap2\n      pop\n      sload\n      swap1\n      0x0100\n      exp\n      swap1\n      div\n      0xffffffffffffffffffffffffffffffffffffffff\n      and\n      dup2\n      jump\t// out\n        /* \"lession3.2-Mapping&Struct/UserManagementSystem.sol\":2517:2713  function getUserInfo(address user) public view returns(User memory) {... */\n    tag_43:\n        /* \"lession3.2-Mapping&Struct/UserManagementSystem.sol\":2572:2583  User memory */\n      tag_130\n      tag_86\n      jump\t// in\n    tag_130:\n        /* \"lession3.2-Mapping&Struct/UserManagementSystem.sol\":2639:2644  users */\n      0x00\n        /* \"lession3.2-Mapping&Struct/UserManagementSystem.sol\":2639:2650  users[user] */\n      0x00\n        /* \"lession3.2-Mapping&Struct/UserManagementSystem.sol\":2645:2649  user */\n      dup4\n        /* \"lession3.2-Mapping&Struct/UserManagementSystem.sol\":2639:2650  users[user] */\n      0xffffffffffffffffffffffffffffffffffffffff\n      and\n      0xffffffffffffffffffffffffffffffffffffffff\n      and\n      dup2\n      mstore\n      0x20\n      add\n      swap1\n      dup2\n      mstore\n      0x20\n      add\n      0x00\n      keccak256\n        /* \"lession3.2-Mapping&Struct/UserManagementSystem.sol\":2639:2657  users[user].exists */\n      0x04\n      add\n      0x00\n      swap1\n      sload\n      swap1\n      0x0100\n      exp\n      swap1\n      div\n      0xff\n      and\n        /* \"lession3.2-Mapping&Struct/UserManagementSystem.sol\":2631:2678  require(users[user].exists, \"User not exists!\") */\n      tag_132\n      jumpi\n      mload(0x40)\n      0x08c379a000000000000000000000000000000000000000000000000000000000\n      dup2\n      mstore\n      0x04\n      add\n      tag_133\n      swap1\n      tag_134\n      jump\t// in\n    tag_133:\n      mload(0x40)\n      dup1\n      swap2\n      sub\n      swap1\n      revert\n    tag_132:\n        /* \"lession3.2-Mapping&Struct/UserManagementSystem.sol\":2695:2700  users */\n      0x00\n        /* \"lession3.2-Mapping&Struct/UserManagementSystem.sol\":2695:2706  users[user] */\n      0x00\n        /* \"lession3.2-Mapping&Struct/UserManagementSystem.sol\":2701:2705  user */\n      dup4\n        /* \"lession3.2-Mapping&Struct/UserManagementSystem.sol\":2695:2706  users[user] */\n      0xffffffffffffffffffffffffffffffffffffffff\n      and\n      0xffffffffffffffffffffffffffffffffffffffff\n      and\n      dup2\n      mstore\n      0x20\n      add\n      swap1\n      dup2\n      mstore\n      0x20\n      add\n      0x00\n      keccak256\n        /* \"lession3.2-Mapping&Struct/UserManagementSystem.sol\":2688:2706  return users[user] */\n      mload(0x40)\n      dup1\n      0xa0\n      add\n      0x40\n      mstore\n      swap1\n      dup2\n      0x00\n      dup3\n      add\n      dup1\n      sload\n      tag_135\n      swap1\n      tag_94\n      jump\t// in\n    tag_135:\n      dup1\n      0x1f\n      add\n      0x20\n      dup1\n      swap2\n      div\n      mul\n      0x20\n      add\n      mload(0x40)\n      swap1\n      dup2\n      add\n      0x40\n      mstore\n      dup1\n      swap3\n      swap2\n      swap1\n      dup2\n      dup2\n      mstore\n      0x20\n      add\n      dup3\n      dup1\n      sload\n      tag_136\n      swap1\n      tag_94\n      jump\t// in\n    tag_136:\n      dup1\n      iszero\n      tag_137\n      jumpi\n      dup1\n      0x1f\n      lt\n      tag_138\n      jumpi\n      0x0100\n      dup1\n      dup4\n      sload\n      div\n      mul\n      dup4\n      mstore\n      swap2\n      0x20\n      add\n      swap2\n      jump(tag_137)\n    tag_138:\n      dup3\n      add\n      swap2\n      swap1\n      0x00\n      mstore\n      keccak256(0x00, 0x20)\n      swap1\n    tag_139:\n      dup2\n      sload\n      dup2\n      mstore\n      swap1\n      0x01\n      add\n      swap1\n      0x20\n      add\n      dup1\n      dup4\n      gt\n      tag_139\n      jumpi\n      dup3\n      swap1\n      sub\n      0x1f\n      and\n      dup3\n      add\n      swap2\n    tag_137:\n      pop\n      pop\n      pop\n      pop\n      pop\n      dup2\n      mstore\n      0x20\n      add\n      0x01\n      dup3\n      add\n      dup1\n      sload\n      tag_140\n      swap1\n      tag_94\n      jump\t// in\n    tag_140:\n      dup1\n      0x1f\n      add\n      0x20\n      dup1\n      swap2\n      div\n      mul\n      0x20\n      add\n      mload(0x40)\n      swap1\n      dup2\n      add\n      0x40\n      mstore\n      dup1\n      swap3\n      swap2\n      swap1\n      dup2\n      dup2\n      mstore\n      0x20\n      add\n      dup3\n      dup1\n      sload\n      tag_141\n      swap1\n      tag_94\n      jump\t// in\n    tag_141:\n      dup1\n      iszero\n      tag_142\n      jumpi\n      dup1\n      0x1f\n      lt\n      tag_143\n      jumpi\n      0x0100\n      dup1\n      dup4\n      sload\n      div\n      mul\n      dup4\n      mstore\n      swap2\n      0x20\n      add\n      swap2\n      jump(tag_142)\n    tag_143:\n      dup3\n      add\n      swap2\n      swap1\n      0x00\n      mstore\n      keccak256(0x00, 0x20)\n      swap1\n    tag_144:\n      dup2\n      sload\n      dup2\n      mstore\n      swap1\n      0x01\n      add\n      swap1\n      0x20\n      add\n      dup1\n      dup4\n      gt\n      tag_144\n      jumpi\n      dup3\n      swap1\n      sub\n      0x1f\n      and\n      dup3\n      add\n      swap2\n    tag_142:\n      pop\n      pop\n      pop\n      pop\n      pop\n      dup2\n      mstore\n      0x20\n      add\n      0x02\n      dup3\n      add\n      sload\n      dup2\n      mstore\n      0x20\n      add\n      0x03\n      dup3\n      add\n      sload\n      dup2\n      mstore\n      0x20\n      add\n      0x04\n      dup3\n      add\n      0x00\n      swap1\n      sload\n      swap1\n      0x0100\n      exp\n      swap1\n      div\n      0xff\n      and\n      iszero\n      iszero\n      iszero\n      iszero\n      dup2\n      mstore\n      pop\n      pop\n      swap1\n      pop\n        /* \"lession3.2-Mapping&Struct/UserManagementSystem.sol\":2517:2713  function getUserInfo(address user) public view returns(User memory) {... */\n      swap2\n      swap1\n      pop\n      jump\t// out\n        /* \"lession3.2-Mapping&Struct/UserManagementSystem.sol\":594:632  mapping (address => User) public users */\n    tag_49:\n      mstore(0x20, 0x00)\n      dup1\n      0x00\n      mstore\n      keccak256(0x00, 0x40)\n      0x00\n      swap2\n      pop\n      swap1\n      pop\n      dup1\n      0x00\n      add\n      dup1\n      sload\n      tag_145\n      swap1\n      tag_94\n      jump\t// in\n    tag_145:\n      dup1\n      0x1f\n      add\n      0x20\n      dup1\n      swap2\n      div\n      mul\n      0x20\n      add\n      mload(0x40)\n      swap1\n      dup2\n      add\n      0x40\n      mstore\n      dup1\n      swap3\n      swap2\n      swap1\n      dup2\n      dup2\n      mstore\n      0x20\n      add\n      dup3\n      dup1\n      sload\n      tag_146\n      swap1\n      tag_94\n      jump\t// in\n    tag_146:\n      dup1\n      iszero\n      tag_147\n      jumpi\n      dup1\n      0x1f\n      lt\n      tag_148\n      jumpi\n      0x0100\n      dup1\n      dup4\n      sload\n      div\n      mul\n      dup4\n      mstore\n      swap2\n      0x20\n      add\n      swap2\n      jump(tag_147)\n    tag_148:\n      dup3\n      add\n      swap2\n      swap1\n      0x00\n      mstore\n      keccak256(0x00, 0x20)\n      swap1\n    tag_149:\n      dup2\n      sload\n      dup2\n      mstore\n      swap1\n      0x01\n      add\n      swap1\n      0x20\n      add\n      dup1\n      dup4\n      gt\n      tag_149\n      jumpi\n      dup3\n      swap1\n      sub\n      0x1f\n      and\n      dup3\n      add\n      swap2\n    tag_147:\n      pop\n      pop\n      pop\n      pop\n      pop\n      swap1\n      dup1\n      0x01\n      add\n      dup1\n      sload\n      tag_150\n      swap1\n      tag_94\n      jump\t// in\n    tag_150:\n      dup1\n      0x1f\n      add\n      0x20\n      dup1\n      swap2\n      div\n      mul\n      0x20\n      add\n      mload(0x40)\n      swap1\n      dup2\n      add\n      0x40\n      mstore\n      dup1\n      swap3\n      swap2\n      swap1\n      dup2\n      dup2\n      mstore\n      0x20\n      add\n      dup3\n      dup1\n      sload\n      tag_151\n      swap1\n      tag_94\n      jump\t// in\n    tag_151:\n      dup1\n      iszero\n      tag_152\n      jumpi\n      dup1\n      0x1f\n      lt\n      tag_153\n      jumpi\n      0x0100\n      dup1\n      dup4\n      sload\n      div\n      mul\n      dup4\n      mstore\n      swap2\n      0x20\n      add\n      swap2\n      jump(tag_152)\n    tag_153:\n      dup3\n      add\n      swap2\n      swap1\n      0x00\n      mstore\n      keccak256(0x00, 0x20)\n      swap1\n    tag_154:\n      dup2\n      sload\n      dup2\n      mstore\n      swap1\n      0x01\n      add\n      swap1\n      0x20\n      add\n      dup1\n      dup4\n      gt\n      tag_154\n      jumpi\n      dup3\n      swap1\n      sub\n      0x1f\n      and\n      dup3\n      add\n      swap2\n    tag_152:\n      pop\n      pop\n      pop\n      pop\n      pop\n      swap1\n      dup1\n      0x02\n      add\n      sload\n      swap1\n      dup1\n      0x03\n      add\n      sload\n      swap1\n      dup1\n      0x04\n      add\n      0x00\n      swap1\n      sload\n      swap1\n      0x0100\n      exp\n      swap1\n      div\n      0xff\n      and\n      swap1\n      pop\n      dup6\n      jump\t// out\n        /* \"lession3.2-Mapping&Struct/UserManagementSystem.sol\":2751:2948  function isRegistered(address user) public view returns(bool) {... */\n    tag_55:\n        /* \"lession3.2-Mapping&Struct/UserManagementSystem.sol\":2807:2811  bool */\n      0x00\n        /* \"lession3.2-Mapping&Struct/UserManagementSystem.sol\":2867:2872  users */\n      0x00\n        /* \"lession3.2-Mapping&Struct/UserManagementSystem.sol\":2867:2878  users[user] */\n      0x00\n        /* \"lession3.2-Mapping&Struct/UserManagementSystem.sol\":2873:2877  user */\n      dup4\n        /* \"lession3.2-Mapping&Struct/UserManagementSystem.sol\":2867:2878  users[user] */\n      0xffffffffffffffffffffffffffffffffffffffff\n      and\n      0xffffffffffffffffffffffffffffffffffffffff\n      and\n      dup2\n      mstore\n      0x20\n      add\n      swap1\n      dup2\n      mstore\n      0x20\n      add\n      0x00\n      keccak256\n        /* \"lession3.2-Mapping&Struct/UserManagementSystem.sol\":2867:2885  users[user].exists */\n      0x04\n      add\n      0x00\n      swap1\n      sload\n      swap1\n      0x0100\n      exp\n      swap1\n      div\n      0xff\n      and\n        /* \"lession3.2-Mapping&Struct/UserManagementSystem.sol\":2859:2906  require(users[user].exists, \"User not exists!\") */\n      tag_156\n      jumpi\n      mload(0x40)\n      0x08c379a000000000000000000000000000000000000000000000000000000000\n      dup2\n      mstore\n      0x04\n      add\n      tag_157\n      swap1\n      tag_134\n      jump\t// in\n    tag_157:\n      mload(0x40)\n      dup1\n      swap2\n      sub\n      swap1\n      revert\n    tag_156:\n        /* \"lession3.2-Mapping&Struct/UserManagementSystem.sol\":2923:2928  users */\n      0x00\n        /* \"lession3.2-Mapping&Struct/UserManagementSystem.sol\":2923:2934  users[user] */\n      0x00\n        /* \"lession3.2-Mapping&Struct/UserManagementSystem.sol\":2929:2933  user */\n      dup4\n        /* \"lession3.2-Mapping&Struct/UserManagementSystem.sol\":2923:2934  users[user] */\n      0xffffffffffffffffffffffffffffffffffffffff\n      and\n      0xffffffffffffffffffffffffffffffffffffffff\n      and\n      dup2\n      mstore\n      0x20\n      add\n      swap1\n      dup2\n      mstore\n      0x20\n      add\n      0x00\n      keccak256\n        /* \"lession3.2-Mapping&Struct/UserManagementSystem.sol\":2923:2941  users[user].exists */\n      0x04\n      add\n      0x00\n      swap1\n      sload\n      swap1\n      0x0100\n      exp\n      swap1\n      div\n      0xff\n      and\n        /* \"lession3.2-Mapping&Struct/UserManagementSystem.sol\":2916:2941  return users[user].exists */\n      swap1\n      pop\n        /* \"lession3.2-Mapping&Struct/UserManagementSystem.sol\":2751:2948  function isRegistered(address user) public view returns(bool) {... */\n      swap2\n      swap1\n      pop\n      jump\t// out\n        /* \"lession3.2-Mapping&Struct/UserManagementSystem.sol\":1889:2211  function updateProfile(string memory name,string memory email) public {... */\n    tag_61:\n        /* \"lession3.2-Mapping&Struct/UserManagementSystem.sol\":2005:2017  address user */\n      0x00\n        /* \"lession3.2-Mapping&Struct/UserManagementSystem.sol\":2020:2030  msg.sender */\n      caller\n        /* \"lession3.2-Mapping&Struct/UserManagementSystem.sol\":2005:2030  address user = msg.sender */\n      swap1\n      pop\n        /* \"lession3.2-Mapping&Struct/UserManagementSystem.sol\":2048:2053  users */\n      0x00\n        /* \"lession3.2-Mapping&Struct/UserManagementSystem.sol\":2048:2059  users[user] */\n      0x00\n        /* \"lession3.2-Mapping&Struct/UserManagementSystem.sol\":2054:2058  user */\n      dup3\n        /* \"lession3.2-Mapping&Struct/UserManagementSystem.sol\":2048:2059  users[user] */\n      0xffffffffffffffffffffffffffffffffffffffff\n      and\n      0xffffffffffffffffffffffffffffffffffffffff\n      and\n      dup2\n      mstore\n      0x20\n      add\n      swap1\n      dup2\n      mstore\n      0x20\n      add\n      0x00\n      keccak256\n        /* \"lession3.2-Mapping&Struct/UserManagementSystem.sol\":2048:2066  users[user].exists */\n      0x04\n      add\n      0x00\n      swap1\n      sload\n      swap1\n      0x0100\n      exp\n      swap1\n      div\n      0xff\n      and\n        /* \"lession3.2-Mapping&Struct/UserManagementSystem.sol\":2040:2087  require(users[user].exists, \"User not exists!\") */\n      tag_159\n      jumpi\n      mload(0x40)\n      0x08c379a000000000000000000000000000000000000000000000000000000000\n      dup2\n      mstore\n      0x04\n      add\n      tag_160\n      swap1\n      tag_134\n      jump\t// in\n    tag_160:\n      mload(0x40)\n      dup1\n      swap2\n      sub\n      swap1\n      revert\n    tag_159:\n        /* \"lession3.2-Mapping&Struct/UserManagementSystem.sol\":2125:2129  name */\n      dup3\n        /* \"lession3.2-Mapping&Struct/UserManagementSystem.sol\":2106:2111  users */\n      0x00\n        /* \"lession3.2-Mapping&Struct/UserManagementSystem.sol\":2106:2117  users[user] */\n      0x00\n        /* \"lession3.2-Mapping&Struct/UserManagementSystem.sol\":2112:2116  user */\n      dup4\n        /* \"lession3.2-Mapping&Struct/UserManagementSystem.sol\":2106:2117  users[user] */\n      0xffffffffffffffffffffffffffffffffffffffff\n      and\n      0xffffffffffffffffffffffffffffffffffffffff\n      and\n      dup2\n      mstore\n      0x20\n      add\n      swap1\n      dup2\n      mstore\n      0x20\n      add\n      0x00\n      keccak256\n        /* \"lession3.2-Mapping&Struct/UserManagementSystem.sol\":2106:2122  users[user].name */\n      0x00\n      add\n        /* \"lession3.2-Mapping&Struct/UserManagementSystem.sol\":2106:2129  users[user].name = name */\n      swap1\n      dup2\n      tag_161\n      swap2\n      swap1\n      tag_122\n      jump\t// in\n    tag_161:\n      pop\n        /* \"lession3.2-Mapping&Struct/UserManagementSystem.sol\":2159:2164  email */\n      dup2\n        /* \"lession3.2-Mapping&Struct/UserManagementSystem.sol\":2139:2144  users */\n      0x00\n        /* \"lession3.2-Mapping&Struct/UserManagementSystem.sol\":2139:2150  users[user] */\n      0x00\n        /* \"lession3.2-Mapping&Struct/UserManagementSystem.sol\":2145:2149  user */\n      dup4\n        /* \"lession3.2-Mapping&Struct/UserManagementSystem.sol\":2139:2150  users[user] */\n      0xffffffffffffffffffffffffffffffffffffffff\n      and\n      0xffffffffffffffffffffffffffffffffffffffff\n      and\n      dup2\n      mstore\n      0x20\n      add\n      swap1\n      dup2\n      mstore\n      0x20\n      add\n      0x00\n      keccak256\n        /* \"lession3.2-Mapping&Struct/UserManagementSystem.sol\":2139:2156  users[user].email */\n      0x01\n      add\n        /* \"lession3.2-Mapping&Struct/UserManagementSystem.sol\":2139:2164  users[user].email = email */\n      swap1\n      dup2\n      tag_162\n      swap2\n      swap1\n      tag_122\n      jump\t// in\n    tag_162:\n      pop\n        /* \"lession3.2-Mapping&Struct/UserManagementSystem.sol\":2192:2196  user */\n      dup1\n        /* \"lession3.2-Mapping&Struct/UserManagementSystem.sol\":2180:2203  UserUpdated(user, name) */\n      0xffffffffffffffffffffffffffffffffffffffff\n      and\n      0xd6136f3cad7c60bfc24bbf1548f39f766ca8bce104bf9adde3deb6237dec51df\n        /* \"lession3.2-Mapping&Struct/UserManagementSystem.sol\":2198:2202  name */\n      dup5\n        /* \"lession3.2-Mapping&Struct/UserManagementSystem.sol\":2180:2203  UserUpdated(user, name) */\n      mload(0x40)\n      tag_163\n      swap2\n      swap1\n      tag_127\n      jump\t// in\n    tag_163:\n      mload(0x40)\n      dup1\n      swap2\n      sub\n      swap1\n      log2\n        /* \"lession3.2-Mapping&Struct/UserManagementSystem.sol\":1959:2211  {... */\n      pop\n        /* \"lession3.2-Mapping&Struct/UserManagementSystem.sol\":1889:2211  function updateProfile(string memory name,string memory email) public {... */\n      pop\n      pop\n      jump\t// out\n        /* \"lession3.2-Mapping&Struct/UserManagementSystem.sol\":2986:3084  function getAllUsers() public view returns(address[] memory) {... */\n    tag_64:\n        /* \"lession3.2-Mapping&Struct/UserManagementSystem.sol\":3029:3045  address[] memory */\n      0x60\n        /* \"lession3.2-Mapping&Struct/UserManagementSystem.sol\":3064:3077  userAddresses */\n      0x01\n        /* \"lession3.2-Mapping&Struct/UserManagementSystem.sol\":3057:3077  return userAddresses */\n      dup1\n      sload\n      dup1\n      0x20\n      mul\n      0x20\n      add\n      mload(0x40)\n      swap1\n      dup2\n      add\n      0x40\n      mstore\n      dup1\n      swap3\n      swap2\n      swap1\n      dup2\n      dup2\n      mstore\n      0x20\n      add\n      dup3\n      dup1\n      sload\n      dup1\n      iszero\n      tag_165\n      jumpi\n      0x20\n      mul\n      dup3\n      add\n      swap2\n      swap1\n      0x00\n      mstore\n      keccak256(0x00, 0x20)\n      swap1\n    tag_166:\n      dup2\n      0x00\n      swap1\n      sload\n      swap1\n      0x0100\n      exp\n      swap1\n      div\n      0xffffffffffffffffffffffffffffffffffffffff\n      and\n      0xffffffffffffffffffffffffffffffffffffffff\n      and\n      dup2\n      mstore\n      0x20\n      add\n      swap1\n      0x01\n      add\n      swap1\n      dup1\n      dup4\n      gt\n      tag_166\n      jumpi\n    tag_165:\n      pop\n      pop\n      pop\n      pop\n      pop\n      swap1\n      pop\n        /* \"lession3.2-Mapping&Struct/UserManagementSystem.sol\":2986:3084  function getAllUsers() public view returns(address[] memory) {... */\n      swap1\n      jump\t// out\n        /* \"lession3.2-Mapping&Struct/UserManagementSystem.sol\":3116:3574  function getUsersByRange(uint start,uint end) public view returns(address[] memory) {... */\n    tag_71:\n        /* \"lession3.2-Mapping&Struct/UserManagementSystem.sol\":3182:3198  address[] memory */\n      0x60\n        /* \"lession3.2-Mapping&Struct/UserManagementSystem.sol\":3227:3230  end */\n      dup2\n        /* \"lession3.2-Mapping&Struct/UserManagementSystem.sol\":3218:3223  start */\n      dup4\n        /* \"lession3.2-Mapping&Struct/UserManagementSystem.sol\":3218:3230  start <= end */\n      gt\n      iszero\n        /* \"lession3.2-Mapping&Struct/UserManagementSystem.sol\":3210:3249  require(start <= end, \"Invalid range!\") */\n      tag_168\n      jumpi\n      mload(0x40)\n      0x08c379a000000000000000000000000000000000000000000000000000000000\n      dup2\n      mstore\n      0x04\n      add\n      tag_169\n      swap1\n      tag_170\n      jump\t// in\n    tag_169:\n      mload(0x40)\n      dup1\n      swap2\n      sub\n      swap1\n      revert\n    tag_168:\n        /* \"lession3.2-Mapping&Struct/UserManagementSystem.sol\":3274:3283  userCount */\n      sload(0x02)\n        /* \"lession3.2-Mapping&Struct/UserManagementSystem.sol\":3267:3270  end */\n      dup3\n        /* \"lession3.2-Mapping&Struct/UserManagementSystem.sol\":3267:3283  end <= userCount */\n      gt\n      iszero\n        /* \"lession3.2-Mapping&Struct/UserManagementSystem.sol\":3259:3308  require(end <= userCount, \"Index out of bounds!\") */\n      tag_171\n      jumpi\n      mload(0x40)\n      0x08c379a000000000000000000000000000000000000000000000000000000000\n      dup2\n      mstore\n      0x04\n      add\n      tag_172\n      swap1\n      tag_173\n      jump\t// in\n    tag_172:\n      mload(0x40)\n      dup1\n      swap2\n      sub\n      swap1\n      revert\n    tag_171:\n        /* \"lession3.2-Mapping&Struct/UserManagementSystem.sol\":3319:3344  address[] memory userList */\n      0x00\n        /* \"lession3.2-Mapping&Struct/UserManagementSystem.sol\":3367:3372  start */\n      dup4\n        /* \"lession3.2-Mapping&Struct/UserManagementSystem.sol\":3361:3364  end */\n      dup4\n        /* \"lession3.2-Mapping&Struct/UserManagementSystem.sol\":3361:3372  end - start */\n      tag_174\n      swap2\n      swap1\n      tag_175\n      jump\t// in\n    tag_174:\n        /* \"lession3.2-Mapping&Struct/UserManagementSystem.sol\":3347:3373  new address[](end - start) */\n      0xffffffffffffffff\n      dup2\n      gt\n      iszero\n      tag_176\n      jumpi\n      tag_177\n      tag_82\n      jump\t// in\n    tag_177:\n    tag_176:\n      mload(0x40)\n      swap1\n      dup1\n      dup3\n      mstore\n      dup1\n      0x20\n      mul\n      0x20\n      add\n      dup3\n      add\n      0x40\n      mstore\n      dup1\n      iszero\n      tag_178\n      jumpi\n      dup2\n      0x20\n      add\n      0x20\n      dup3\n      mul\n      dup1\n      calldatasize\n      dup4\n      calldatacopy\n      dup1\n      dup3\n      add\n      swap2\n      pop\n      pop\n      swap1\n      pop\n    tag_178:\n      pop\n        /* \"lession3.2-Mapping&Struct/UserManagementSystem.sol\":3319:3373  address[] memory userList = new address[](end - start) */\n      swap1\n      pop\n        /* \"lession3.2-Mapping&Struct/UserManagementSystem.sol\":3383:3393  uint index */\n      0x00\n        /* \"lession3.2-Mapping&Struct/UserManagementSystem.sol\":3396:3397  0 */\n      0x00\n        /* \"lession3.2-Mapping&Struct/UserManagementSystem.sol\":3383:3397  uint index = 0 */\n      swap1\n      pop\n        /* \"lession3.2-Mapping&Struct/UserManagementSystem.sol\":3412:3418  uint i */\n      0x00\n        /* \"lession3.2-Mapping&Struct/UserManagementSystem.sol\":3421:3426  start */\n      dup6\n        /* \"lession3.2-Mapping&Struct/UserManagementSystem.sol\":3412:3426  uint i = start */\n      swap1\n      pop\n        /* \"lession3.2-Mapping&Struct/UserManagementSystem.sol\":3407:3534  for (uint i = start; i < end; i++) ... */\n    tag_179:\n        /* \"lession3.2-Mapping&Struct/UserManagementSystem.sol\":3432:3435  end */\n      dup5\n        /* \"lession3.2-Mapping&Struct/UserManagementSystem.sol\":3428:3429  i */\n      dup2\n        /* \"lession3.2-Mapping&Struct/UserManagementSystem.sol\":3428:3435  i < end */\n      lt\n        /* \"lession3.2-Mapping&Struct/UserManagementSystem.sol\":3407:3534  for (uint i = start; i < end; i++) ... */\n      iszero\n      tag_180\n      jumpi\n        /* \"lession3.2-Mapping&Struct/UserManagementSystem.sol\":3483:3496  userAddresses */\n      0x01\n        /* \"lession3.2-Mapping&Struct/UserManagementSystem.sol\":3497:3498  i */\n      dup2\n        /* \"lession3.2-Mapping&Struct/UserManagementSystem.sol\":3483:3499  userAddresses[i] */\n      dup2\n      sload\n      dup2\n      lt\n      tag_182\n      jumpi\n      tag_183\n      tag_92\n      jump\t// in\n    tag_183:\n    tag_182:\n      swap1\n      0x00\n      mstore\n      keccak256(0x00, 0x20)\n      add\n      0x00\n      swap1\n      sload\n      swap1\n      0x0100\n      exp\n      swap1\n      div\n      0xffffffffffffffffffffffffffffffffffffffff\n      and\n        /* \"lession3.2-Mapping&Struct/UserManagementSystem.sol\":3465:3473  userList */\n      dup4\n        /* \"lession3.2-Mapping&Struct/UserManagementSystem.sol\":3474:3479  index */\n      dup4\n        /* \"lession3.2-Mapping&Struct/UserManagementSystem.sol\":3465:3480  userList[index] */\n      dup2\n      mload\n      dup2\n      lt\n      tag_185\n      jumpi\n      tag_186\n      tag_92\n      jump\t// in\n    tag_186:\n    tag_185:\n      0x20\n      mul\n      0x20\n      add\n      add\n        /* \"lession3.2-Mapping&Struct/UserManagementSystem.sol\":3465:3499  userList[index] = userAddresses[i] */\n      swap1\n      0xffffffffffffffffffffffffffffffffffffffff\n      and\n      swap1\n      dup2\n      0xffffffffffffffffffffffffffffffffffffffff\n      and\n      dup2\n      mstore\n      pop\n      pop\n        /* \"lession3.2-Mapping&Struct/UserManagementSystem.sol\":3513:3520  index++ */\n      dup2\n      dup1\n      tag_187\n      swap1\n      tag_107\n      jump\t// in\n    tag_187:\n      swap3\n      pop\n      pop\n        /* \"lession3.2-Mapping&Struct/UserManagementSystem.sol\":3437:3440  i++ */\n      dup1\n      dup1\n      0x01\n      add\n      swap2\n      pop\n      pop\n        /* \"lession3.2-Mapping&Struct/UserManagementSystem.sol\":3407:3534  for (uint i = start; i < end; i++) ... */\n      jump(tag_179)\n    tag_180:\n      pop\n        /* \"lession3.2-Mapping&Struct/UserManagementSystem.sol\":3559:3567  userList */\n      dup2\n        /* \"lession3.2-Mapping&Struct/UserManagementSystem.sol\":3552:3567  return userList */\n      swap3\n      pop\n      pop\n      pop\n        /* \"lession3.2-Mapping&Struct/UserManagementSystem.sol\":3116:3574  function getUsersByRange(uint start,uint end) public view returns(address[] memory) {... */\n      swap3\n      swap2\n      pop\n      pop\n      jump\t// out\n        /* \"lession3.2-Mapping&Struct/UserManagementSystem.sol\":2231:2485  function despot() public payable {... */\n    tag_74:\n        /* \"lession3.2-Mapping&Struct/UserManagementSystem.sol\":2282:2287  users */\n      0x00\n        /* \"lession3.2-Mapping&Struct/UserManagementSystem.sol\":2282:2299  users[msg.sender] */\n      0x00\n        /* \"lession3.2-Mapping&Struct/UserManagementSystem.sol\":2288:2298  msg.sender */\n      caller\n        /* \"lession3.2-Mapping&Struct/UserManagementSystem.sol\":2282:2299  users[msg.sender] */\n      0xffffffffffffffffffffffffffffffffffffffff\n      and\n      0xffffffffffffffffffffffffffffffffffffffff\n      and\n      dup2\n      mstore\n      0x20\n      add\n      swap1\n      dup2\n      mstore\n      0x20\n      add\n      0x00\n      keccak256\n        /* \"lession3.2-Mapping&Struct/UserManagementSystem.sol\":2282:2306  users[msg.sender].exists */\n      0x04\n      add\n      0x00\n      swap1\n      sload\n      swap1\n      0x0100\n      exp\n      swap1\n      div\n      0xff\n      and\n        /* \"lession3.2-Mapping&Struct/UserManagementSystem.sol\":2274:2326  require(users[msg.sender].exists,\"User not exists!\") */\n      tag_189\n      jumpi\n      mload(0x40)\n      0x08c379a000000000000000000000000000000000000000000000000000000000\n      dup2\n      mstore\n      0x04\n      add\n      tag_190\n      swap1\n      tag_134\n      jump\t// in\n    tag_190:\n      mload(0x40)\n      dup1\n      swap2\n      sub\n      swap1\n      revert\n    tag_189:\n        /* \"lession3.2-Mapping&Struct/UserManagementSystem.sol\":2356:2357  0 */\n      0x00\n        /* \"lession3.2-Mapping&Struct/UserManagementSystem.sol\":2344:2353  msg.value */\n      callvalue\n        /* \"lession3.2-Mapping&Struct/UserManagementSystem.sol\":2344:2357  msg.value > 0 */\n      gt\n        /* \"lession3.2-Mapping&Struct/UserManagementSystem.sol\":2336:2376  require(msg.value > 0, \"Must send ETH!\") */\n      tag_191\n      jumpi\n      mload(0x40)\n      0x08c379a000000000000000000000000000000000000000000000000000000000\n      dup2\n      mstore\n      0x04\n      add\n      tag_192\n      swap1\n      tag_193\n      jump\t// in\n    tag_192:\n      mload(0x40)\n      dup1\n      swap2\n      sub\n      swap1\n      revert\n    tag_191:\n        /* \"lession3.2-Mapping&Struct/UserManagementSystem.sol\":2415:2424  msg.value */\n      callvalue\n        /* \"lession3.2-Mapping&Struct/UserManagementSystem.sol\":2386:2391  users */\n      0x00\n        /* \"lession3.2-Mapping&Struct/UserManagementSystem.sol\":2386:2403  users[msg.sender] */\n      0x00\n        /* \"lession3.2-Mapping&Struct/UserManagementSystem.sol\":2392:2402  msg.sender */\n      caller\n        /* \"lession3.2-Mapping&Struct/UserManagementSystem.sol\":2386:2403  users[msg.sender] */\n      0xffffffffffffffffffffffffffffffffffffffff\n      and\n      0xffffffffffffffffffffffffffffffffffffffff\n      and\n      dup2\n      mstore\n      0x20\n      add\n      swap1\n      dup2\n      mstore\n      0x20\n      add\n      0x00\n      keccak256\n        /* \"lession3.2-Mapping&Struct/UserManagementSystem.sol\":2386:2411  users[msg.sender].balance */\n      0x02\n      add\n      0x00\n        /* \"lession3.2-Mapping&Struct/UserManagementSystem.sol\":2386:2424  users[msg.sender].balance += msg.value */\n      dup3\n      dup3\n      sload\n      tag_194\n      swap2\n      swap1\n      tag_195\n      jump\t// in\n    tag_194:\n      swap3\n      pop\n      pop\n      dup2\n      swap1\n      sstore\n      pop\n        /* \"lession3.2-Mapping&Struct/UserManagementSystem.sol\":2456:2466  msg.sender */\n      caller\n        /* \"lession3.2-Mapping&Struct/UserManagementSystem.sol\":2448:2478  Deposit(msg.sender, msg.value) */\n      0xffffffffffffffffffffffffffffffffffffffff\n      and\n      0xe1fffcc4923d04b559f4d29a8bfc6cda04eb5b0d3c460751c2402c5c5cc9109c\n        /* \"lession3.2-Mapping&Struct/UserManagementSystem.sol\":2468:2477  msg.value */\n      callvalue\n        /* \"lession3.2-Mapping&Struct/UserManagementSystem.sol\":2448:2478  Deposit(msg.sender, msg.value) */\n      mload(0x40)\n      tag_196\n      swap2\n      swap1\n      tag_26\n      jump\t// in\n    tag_196:\n      mload(0x40)\n      dup1\n      swap2\n      sub\n      swap1\n      log2\n        /* \"lession3.2-Mapping&Struct/UserManagementSystem.sol\":2231:2485  function despot() public payable {... */\n      jump\t// out\n        /* \"lession3.2-Mapping&Struct/UserManagementSystem.sol\":791:828  uint public constant MAX_USERS = 1000 */\n    tag_77:\n        /* \"lession3.2-Mapping&Struct/UserManagementSystem.sol\":824:828  1000 */\n      0x03e8\n        /* \"lession3.2-Mapping&Struct/UserManagementSystem.sol\":791:828  uint public constant MAX_USERS = 1000 */\n      dup2\n      jump\t// out\n    tag_86:\n      mload(0x40)\n      dup1\n      0xa0\n      add\n      0x40\n      mstore\n      dup1\n      0x60\n      dup2\n      mstore\n      0x20\n      add\n      0x60\n      dup2\n      mstore\n      0x20\n      add\n      0x00\n      dup2\n      mstore\n      0x20\n      add\n      0x00\n      dup2\n      mstore\n      0x20\n      add\n      iszero(iszero(0x00))\n      dup2\n      mstore\n      pop\n      swap1\n      jump\t// out\n        /* \"#utility.yul\":7:82   */\n    tag_197:\n        /* \"#utility.yul\":40:46   */\n      0x00\n        /* \"#utility.yul\":73:75   */\n      0x40\n        /* \"#utility.yul\":67:76   */\n      mload\n        /* \"#utility.yul\":57:76   */\n      swap1\n      pop\n        /* \"#utility.yul\":7:82   */\n      swap1\n      jump\t// out\n        /* \"#utility.yul\":88:205   */\n    tag_198:\n        /* \"#utility.yul\":197:198   */\n      0x00\n        /* \"#utility.yul\":194:195   */\n      0x00\n        /* \"#utility.yul\":187:199   */\n      revert\n        /* \"#utility.yul\":211:328   */\n    tag_199:\n        /* \"#utility.yul\":320:321   */\n      0x00\n        /* \"#utility.yul\":317:318   */\n      0x00\n        /* \"#utility.yul\":310:322   */\n      revert\n        /* \"#utility.yul\":334:451   */\n    tag_200:\n        /* \"#utility.yul\":443:444   */\n      0x00\n        /* \"#utility.yul\":440:441   */\n      0x00\n        /* \"#utility.yul\":433:445   */\n      revert\n        /* \"#utility.yul\":457:559   */\n    tag_201:\n        /* \"#utility.yul\":498:504   */\n      0x00\n        /* \"#utility.yul\":549:551   */\n      0x1f\n        /* \"#utility.yul\":545:552   */\n      not\n        /* \"#utility.yul\":540:542   */\n      0x1f\n        /* \"#utility.yul\":533:538   */\n      dup4\n        /* \"#utility.yul\":529:543   */\n      add\n        /* \"#utility.yul\":525:553   */\n      and\n        /* \"#utility.yul\":515:553   */\n      swap1\n      pop\n        /* \"#utility.yul\":457:559   */\n      swap2\n      swap1\n      pop\n      jump\t// out\n        /* \"#utility.yul\":565:745   */\n    tag_82:\n        /* \"#utility.yul\":613:690   */\n      0x4e487b7100000000000000000000000000000000000000000000000000000000\n        /* \"#utility.yul\":610:611   */\n      0x00\n        /* \"#utility.yul\":603:691   */\n      mstore\n        /* \"#utility.yul\":710:714   */\n      0x41\n        /* \"#utility.yul\":707:708   */\n      0x04\n        /* \"#utility.yul\":700:715   */\n      mstore\n        /* \"#utility.yul\":734:738   */\n      0x24\n        /* \"#utility.yul\":731:732   */\n      0x00\n        /* \"#utility.yul\":724:739   */\n      revert\n        /* \"#utility.yul\":751:1032   */\n    tag_202:\n        /* \"#utility.yul\":834:861   */\n      tag_288\n        /* \"#utility.yul\":856:860   */\n      dup3\n        /* \"#utility.yul\":834:861   */\n      tag_201\n      jump\t// in\n    tag_288:\n        /* \"#utility.yul\":826:832   */\n      dup2\n        /* \"#utility.yul\":822:862   */\n      add\n        /* \"#utility.yul\":964:970   */\n      dup2\n        /* \"#utility.yul\":952:962   */\n      dup2\n        /* \"#utility.yul\":949:971   */\n      lt\n        /* \"#utility.yul\":928:946   */\n      0xffffffffffffffff\n        /* \"#utility.yul\":916:926   */\n      dup3\n        /* \"#utility.yul\":913:947   */\n      gt\n        /* \"#utility.yul\":910:972   */\n      or\n        /* \"#utility.yul\":907:995   */\n      iszero\n      tag_289\n      jumpi\n        /* \"#utility.yul\":975:993   */\n      tag_290\n      tag_82\n      jump\t// in\n    tag_290:\n        /* \"#utility.yul\":907:995   */\n    tag_289:\n        /* \"#utility.yul\":1015:1025   */\n      dup1\n        /* \"#utility.yul\":1011:1013   */\n      0x40\n        /* \"#utility.yul\":1004:1026   */\n      mstore\n        /* \"#utility.yul\":794:1032   */\n      pop\n        /* \"#utility.yul\":751:1032   */\n      pop\n      pop\n      jump\t// out\n        /* \"#utility.yul\":1038:1167   */\n    tag_203:\n        /* \"#utility.yul\":1072:1078   */\n      0x00\n        /* \"#utility.yul\":1099:1119   */\n      tag_292\n      tag_197\n      jump\t// in\n    tag_292:\n        /* \"#utility.yul\":1089:1119   */\n      swap1\n      pop\n        /* \"#utility.yul\":1128:1161   */\n      tag_293\n        /* \"#utility.yul\":1156:1160   */\n      dup3\n        /* \"#utility.yul\":1148:1154   */\n      dup3\n        /* \"#utility.yul\":1128:1161   */\n      tag_202\n      jump\t// in\n    tag_293:\n        /* \"#utility.yul\":1038:1167   */\n      swap2\n      swap1\n      pop\n      jump\t// out\n        /* \"#utility.yul\":1173:1484   */\n    tag_204:\n        /* \"#utility.yul\":1250:1254   */\n      0x00\n        /* \"#utility.yul\":1340:1358   */\n      0xffffffffffffffff\n        /* \"#utility.yul\":1332:1338   */\n      dup3\n        /* \"#utility.yul\":1329:1359   */\n      gt\n        /* \"#utility.yul\":1326:1382   */\n      iszero\n      tag_295\n      jumpi\n        /* \"#utility.yul\":1362:1380   */\n      tag_296\n      tag_82\n      jump\t// in\n    tag_296:\n        /* \"#utility.yul\":1326:1382   */\n    tag_295:\n        /* \"#utility.yul\":1412:1416   */\n      0x20\n        /* \"#utility.yul\":1404:1410   */\n      dup3\n        /* \"#utility.yul\":1400:1417   */\n      mul\n        /* \"#utility.yul\":1392:1417   */\n      swap1\n      pop\n        /* \"#utility.yul\":1472:1476   */\n      0x20\n        /* \"#utility.yul\":1466:1470   */\n      dup2\n        /* \"#utility.yul\":1462:1477   */\n      add\n        /* \"#utility.yul\":1454:1477   */\n      swap1\n      pop\n        /* \"#utility.yul\":1173:1484   */\n      swap2\n      swap1\n      pop\n      jump\t// out\n        /* \"#utility.yul\":1490:1607   */\n    tag_205:\n        /* \"#utility.yul\":1599:1600   */\n      0x00\n        /* \"#utility.yul\":1596:1597   */\n      0x00\n        /* \"#utility.yul\":1589:1601   */\n      revert\n        /* \"#utility.yul\":1613:1739   */\n    tag_206:\n        /* \"#utility.yul\":1650:1657   */\n      0x00\n        /* \"#utility.yul\":1690:1732   */\n      0xffffffffffffffffffffffffffffffffffffffff\n        /* \"#utility.yul\":1683:1688   */\n      dup3\n        /* \"#utility.yul\":1679:1733   */\n      and\n        /* \"#utility.yul\":1668:1733   */\n      swap1\n      pop\n        /* \"#utility.yul\":1613:1739   */\n      swap2\n      swap1\n      pop\n      jump\t// out\n        /* \"#utility.yul\":1745:1841   */\n    tag_207:\n        /* \"#utility.yul\":1782:1789   */\n      0x00\n        /* \"#utility.yul\":1811:1835   */\n      tag_300\n        /* \"#utility.yul\":1829:1834   */\n      dup3\n        /* \"#utility.yul\":1811:1835   */\n      tag_206\n      jump\t// in\n    tag_300:\n        /* \"#utility.yul\":1800:1835   */\n      swap1\n      pop\n        /* \"#utility.yul\":1745:1841   */\n      swap2\n      swap1\n      pop\n      jump\t// out\n        /* \"#utility.yul\":1847:1969   */\n    tag_208:\n        /* \"#utility.yul\":1920:1944   */\n      tag_302\n        /* \"#utility.yul\":1938:1943   */\n      dup2\n        /* \"#utility.yul\":1920:1944   */\n      tag_207\n      jump\t// in\n    tag_302:\n        /* \"#utility.yul\":1913:1918   */\n      dup2\n        /* \"#utility.yul\":1910:1945   */\n      eq\n        /* \"#utility.yul\":1900:1963   */\n      tag_303\n      jumpi\n        /* \"#utility.yul\":1959:1960   */\n      0x00\n        /* \"#utility.yul\":1956:1957   */\n      0x00\n        /* \"#utility.yul\":1949:1961   */\n      revert\n        /* \"#utility.yul\":1900:1963   */\n    tag_303:\n        /* \"#utility.yul\":1847:1969   */\n      pop\n      jump\t// out\n        /* \"#utility.yul\":1975:2114   */\n    tag_209:\n        /* \"#utility.yul\":2021:2026   */\n      0x00\n        /* \"#utility.yul\":2059:2065   */\n      dup2\n        /* \"#utility.yul\":2046:2066   */\n      calldataload\n        /* \"#utility.yul\":2037:2066   */\n      swap1\n      pop\n        /* \"#utility.yul\":2075:2108   */\n      tag_305\n        /* \"#utility.yul\":2102:2107   */\n      dup2\n        /* \"#utility.yul\":2075:2108   */\n      tag_208\n      jump\t// in\n    tag_305:\n        /* \"#utility.yul\":1975:2114   */\n      swap3\n      swap2\n      pop\n      pop\n      jump\t// out\n        /* \"#utility.yul\":2137:2847   */\n    tag_210:\n        /* \"#utility.yul\":2233:2238   */\n      0x00\n        /* \"#utility.yul\":2258:2339   */\n      tag_307\n        /* \"#utility.yul\":2274:2338   */\n      tag_308\n        /* \"#utility.yul\":2331:2337   */\n      dup5\n        /* \"#utility.yul\":2274:2338   */\n      tag_204\n      jump\t// in\n    tag_308:\n        /* \"#utility.yul\":2258:2339   */\n      tag_203\n      jump\t// in\n    tag_307:\n        /* \"#utility.yul\":2249:2339   */\n      swap1\n      pop\n        /* \"#utility.yul\":2359:2364   */\n      dup1\n        /* \"#utility.yul\":2388:2394   */\n      dup4\n        /* \"#utility.yul\":2381:2386   */\n      dup3\n        /* \"#utility.yul\":2374:2395   */\n      mstore\n        /* \"#utility.yul\":2422:2426   */\n      0x20\n        /* \"#utility.yul\":2415:2420   */\n      dup3\n        /* \"#utility.yul\":2411:2427   */\n      add\n        /* \"#utility.yul\":2404:2427   */\n      swap1\n      pop\n        /* \"#utility.yul\":2475:2479   */\n      0x20\n        /* \"#utility.yul\":2467:2473   */\n      dup5\n        /* \"#utility.yul\":2463:2480   */\n      mul\n        /* \"#utility.yul\":2455:2461   */\n      dup4\n        /* \"#utility.yul\":2451:2481   */\n      add\n        /* \"#utility.yul\":2504:2507   */\n      dup6\n        /* \"#utility.yul\":2496:2502   */\n      dup2\n        /* \"#utility.yul\":2493:2508   */\n      gt\n        /* \"#utility.yul\":2490:2612   */\n      iszero\n      tag_309\n      jumpi\n        /* \"#utility.yul\":2523:2602   */\n      tag_310\n      tag_205\n      jump\t// in\n    tag_310:\n        /* \"#utility.yul\":2490:2612   */\n    tag_309:\n        /* \"#utility.yul\":2638:2644   */\n      dup4\n        /* \"#utility.yul\":2621:2841   */\n    tag_311:\n        /* \"#utility.yul\":2655:2661   */\n      dup2\n        /* \"#utility.yul\":2650:2653   */\n      dup2\n        /* \"#utility.yul\":2647:2662   */\n      lt\n        /* \"#utility.yul\":2621:2841   */\n      iszero\n      tag_313\n      jumpi\n        /* \"#utility.yul\":2730:2733   */\n      dup1\n        /* \"#utility.yul\":2759:2796   */\n      tag_314\n        /* \"#utility.yul\":2792:2795   */\n      dup9\n        /* \"#utility.yul\":2780:2790   */\n      dup3\n        /* \"#utility.yul\":2759:2796   */\n      tag_209\n      jump\t// in\n    tag_314:\n        /* \"#utility.yul\":2754:2757   */\n      dup5\n        /* \"#utility.yul\":2747:2797   */\n      mstore\n        /* \"#utility.yul\":2826:2830   */\n      0x20\n        /* \"#utility.yul\":2821:2824   */\n      dup5\n        /* \"#utility.yul\":2817:2831   */\n      add\n        /* \"#utility.yul\":2810:2831   */\n      swap4\n      pop\n        /* \"#utility.yul\":2697:2841   */\n      pop\n        /* \"#utility.yul\":2681:2685   */\n      0x20\n        /* \"#utility.yul\":2676:2679   */\n      dup2\n        /* \"#utility.yul\":2672:2686   */\n      add\n        /* \"#utility.yul\":2665:2686   */\n      swap1\n      pop\n        /* \"#utility.yul\":2621:2841   */\n      jump(tag_311)\n    tag_313:\n        /* \"#utility.yul\":2625:2646   */\n      pop\n        /* \"#utility.yul\":2239:2847   */\n      pop\n      pop\n        /* \"#utility.yul\":2137:2847   */\n      swap4\n      swap3\n      pop\n      pop\n      pop\n      jump\t// out\n        /* \"#utility.yul\":2870:3240   */\n    tag_211:\n        /* \"#utility.yul\":2941:2946   */\n      0x00\n        /* \"#utility.yul\":2990:2993   */\n      dup3\n        /* \"#utility.yul\":2983:2987   */\n      0x1f\n        /* \"#utility.yul\":2975:2981   */\n      dup4\n        /* \"#utility.yul\":2971:2988   */\n      add\n        /* \"#utility.yul\":2967:2994   */\n      slt\n        /* \"#utility.yul\":2957:3079   */\n      tag_316\n      jumpi\n        /* \"#utility.yul\":2998:3077   */\n      tag_317\n      tag_200\n      jump\t// in\n    tag_317:\n        /* \"#utility.yul\":2957:3079   */\n    tag_316:\n        /* \"#utility.yul\":3115:3121   */\n      dup2\n        /* \"#utility.yul\":3102:3122   */\n      calldataload\n        /* \"#utility.yul\":3140:3234   */\n      tag_318\n        /* \"#utility.yul\":3230:3233   */\n      dup5\n        /* \"#utility.yul\":3222:3228   */\n      dup3\n        /* \"#utility.yul\":3215:3219   */\n      0x20\n        /* \"#utility.yul\":3207:3213   */\n      dup7\n        /* \"#utility.yul\":3203:3220   */\n      add\n        /* \"#utility.yul\":3140:3234   */\n      tag_210\n      jump\t// in\n    tag_318:\n        /* \"#utility.yul\":3131:3234   */\n      swap2\n      pop\n        /* \"#utility.yul\":2947:3240   */\n      pop\n        /* \"#utility.yul\":2870:3240   */\n      swap3\n      swap2\n      pop\n      pop\n      jump\t// out\n        /* \"#utility.yul\":3246:3785   */\n    tag_18:\n        /* \"#utility.yul\":3330:3336   */\n      0x00\n        /* \"#utility.yul\":3379:3381   */\n      0x20\n        /* \"#utility.yul\":3367:3376   */\n      dup3\n        /* \"#utility.yul\":3358:3365   */\n      dup5\n        /* \"#utility.yul\":3354:3377   */\n      sub\n        /* \"#utility.yul\":3350:3382   */\n      slt\n        /* \"#utility.yul\":3347:3466   */\n      iszero\n      tag_320\n      jumpi\n        /* \"#utility.yul\":3385:3464   */\n      tag_321\n      tag_198\n      jump\t// in\n    tag_321:\n        /* \"#utility.yul\":3347:3466   */\n    tag_320:\n        /* \"#utility.yul\":3533:3534   */\n      0x00\n        /* \"#utility.yul\":3522:3531   */\n      dup3\n        /* \"#utility.yul\":3518:3535   */\n      add\n        /* \"#utility.yul\":3505:3536   */\n      calldataload\n        /* \"#utility.yul\":3563:3581   */\n      0xffffffffffffffff\n        /* \"#utility.yul\":3555:3561   */\n      dup2\n        /* \"#utility.yul\":3552:3582   */\n      gt\n        /* \"#utility.yul\":3549:3666   */\n      iszero\n      tag_322\n      jumpi\n        /* \"#utility.yul\":3585:3664   */\n      tag_323\n      tag_199\n      jump\t// in\n    tag_323:\n        /* \"#utility.yul\":3549:3666   */\n    tag_322:\n        /* \"#utility.yul\":3690:3768   */\n      tag_324\n        /* \"#utility.yul\":3760:3767   */\n      dup5\n        /* \"#utility.yul\":3751:3757   */\n      dup3\n        /* \"#utility.yul\":3740:3749   */\n      dup6\n        /* \"#utility.yul\":3736:3758   */\n      add\n        /* \"#utility.yul\":3690:3768   */\n      tag_211\n      jump\t// in\n    tag_324:\n        /* \"#utility.yul\":3680:3768   */\n      swap2\n      pop\n        /* \"#utility.yul\":3476:3778   */\n      pop\n        /* \"#utility.yul\":3246:3785   */\n      swap3\n      swap2\n      pop\n      pop\n      jump\t// out\n        /* \"#utility.yul\":3791:3925   */\n    tag_212:\n        /* \"#utility.yul\":3878:3884   */\n      0x00\n        /* \"#utility.yul\":3912:3917   */\n      dup2\n        /* \"#utility.yul\":3906:3918   */\n      mload\n        /* \"#utility.yul\":3896:3918   */\n      swap1\n      pop\n        /* \"#utility.yul\":3791:3925   */\n      swap2\n      swap1\n      pop\n      jump\t// out\n        /* \"#utility.yul\":3931:4135   */\n    tag_213:\n        /* \"#utility.yul\":4050:4061   */\n      0x00\n        /* \"#utility.yul\":4084:4090   */\n      dup3\n        /* \"#utility.yul\":4079:4082   */\n      dup3\n        /* \"#utility.yul\":4072:4091   */\n      mstore\n        /* \"#utility.yul\":4124:4128   */\n      0x20\n        /* \"#utility.yul\":4119:4122   */\n      dup3\n        /* \"#utility.yul\":4115:4129   */\n      add\n        /* \"#utility.yul\":4100:4129   */\n      swap1\n      pop\n        /* \"#utility.yul\":3931:4135   */\n      swap3\n      swap2\n      pop\n      pop\n      jump\t// out\n        /* \"#utility.yul\":4141:4293   */\n    tag_214:\n        /* \"#utility.yul\":4228:4232   */\n      0x00\n        /* \"#utility.yul\":4251:4254   */\n      dup2\n        /* \"#utility.yul\":4243:4254   */\n      swap1\n      pop\n        /* \"#utility.yul\":4281:4285   */\n      0x20\n        /* \"#utility.yul\":4276:4279   */\n      dup3\n        /* \"#utility.yul\":4272:4286   */\n      add\n        /* \"#utility.yul\":4264:4286   */\n      swap1\n      pop\n        /* \"#utility.yul\":4141:4293   */\n      swap2\n      swap1\n      pop\n      jump\t// out\n        /* \"#utility.yul\":4299:4398   */\n    tag_215:\n        /* \"#utility.yul\":4351:4357   */\n      0x00\n        /* \"#utility.yul\":4385:4390   */\n      dup2\n        /* \"#utility.yul\":4379:4391   */\n      mload\n        /* \"#utility.yul\":4369:4391   */\n      swap1\n      pop\n        /* \"#utility.yul\":4299:4398   */\n      swap2\n      swap1\n      pop\n      jump\t// out\n        /* \"#utility.yul\":4404:4563   */\n    tag_216:\n        /* \"#utility.yul\":4478:4489   */\n      0x00\n        /* \"#utility.yul\":4512:4518   */\n      dup3\n        /* \"#utility.yul\":4507:4510   */\n      dup3\n        /* \"#utility.yul\":4500:4519   */\n      mstore\n        /* \"#utility.yul\":4552:4556   */\n      0x20\n        /* \"#utility.yul\":4547:4550   */\n      dup3\n        /* \"#utility.yul\":4543:4557   */\n      add\n        /* \"#utility.yul\":4528:4557   */\n      swap1\n      pop\n        /* \"#utility.yul\":4404:4563   */\n      swap3\n      swap2\n      pop\n      pop\n      jump\t// out\n        /* \"#utility.yul\":4569:4708   */\n    tag_217:\n        /* \"#utility.yul\":4658:4664   */\n      dup3\n        /* \"#utility.yul\":4653:4656   */\n      dup2\n        /* \"#utility.yul\":4648:4651   */\n      dup4\n        /* \"#utility.yul\":4642:4665   */\n      mcopy\n        /* \"#utility.yul\":4699:4700   */\n      0x00\n        /* \"#utility.yul\":4690:4696   */\n      dup4\n        /* \"#utility.yul\":4685:4688   */\n      dup4\n        /* \"#utility.yul\":4681:4697   */\n      add\n        /* \"#utility.yul\":4674:4701   */\n      mstore\n        /* \"#utility.yul\":4569:4708   */\n      pop\n      pop\n      pop\n      jump\t// out\n        /* \"#utility.yul\":4714:5071   */\n    tag_218:\n        /* \"#utility.yul\":4792:4795   */\n      0x00\n        /* \"#utility.yul\":4820:4859   */\n      tag_332\n        /* \"#utility.yul\":4853:4858   */\n      dup3\n        /* \"#utility.yul\":4820:4859   */\n      tag_215\n      jump\t// in\n    tag_332:\n        /* \"#utility.yul\":4875:4936   */\n      tag_333\n        /* \"#utility.yul\":4929:4935   */\n      dup2\n        /* \"#utility.yul\":4924:4927   */\n      dup6\n        /* \"#utility.yul\":4875:4936   */\n      tag_216\n      jump\t// in\n    tag_333:\n        /* \"#utility.yul\":4868:4936   */\n      swap4\n      pop\n        /* \"#utility.yul\":4945:5010   */\n      tag_334\n        /* \"#utility.yul\":5003:5009   */\n      dup2\n        /* \"#utility.yul\":4998:5001   */\n      dup6\n        /* \"#utility.yul\":4991:4995   */\n      0x20\n        /* \"#utility.yul\":4984:4989   */\n      dup7\n        /* \"#utility.yul\":4980:4996   */\n      add\n        /* \"#utility.yul\":4945:5010   */\n      tag_217\n      jump\t// in\n    tag_334:\n        /* \"#utility.yul\":5035:5064   */\n      tag_335\n        /* \"#utility.yul\":5057:5063   */\n      dup2\n        /* \"#utility.yul\":5035:5064   */\n      tag_201\n      jump\t// in\n    tag_335:\n        /* \"#utility.yul\":5030:5033   */\n      dup5\n        /* \"#utility.yul\":5026:5065   */\n      add\n        /* \"#utility.yul\":5019:5065   */\n      swap2\n      pop\n        /* \"#utility.yul\":4796:5071   */\n      pop\n        /* \"#utility.yul\":4714:5071   */\n      swap3\n      swap2\n      pop\n      pop\n      jump\t// out\n        /* \"#utility.yul\":5077:5154   */\n    tag_219:\n        /* \"#utility.yul\":5114:5121   */\n      0x00\n        /* \"#utility.yul\":5143:5148   */\n      dup2\n        /* \"#utility.yul\":5132:5148   */\n      swap1\n      pop\n        /* \"#utility.yul\":5077:5154   */\n      swap2\n      swap1\n      pop\n      jump\t// out\n        /* \"#utility.yul\":5160:5268   */\n    tag_220:\n        /* \"#utility.yul\":5237:5261   */\n      tag_338\n        /* \"#utility.yul\":5255:5260   */\n      dup2\n        /* \"#utility.yul\":5237:5261   */\n      tag_219\n      jump\t// in\n    tag_338:\n        /* \"#utility.yul\":5232:5235   */\n      dup3\n        /* \"#utility.yul\":5225:5262   */\n      mstore\n        /* \"#utility.yul\":5160:5268   */\n      pop\n      pop\n      jump\t// out\n        /* \"#utility.yul\":5274:5364   */\n    tag_221:\n        /* \"#utility.yul\":5308:5315   */\n      0x00\n        /* \"#utility.yul\":5351:5356   */\n      dup2\n        /* \"#utility.yul\":5344:5357   */\n      iszero\n        /* \"#utility.yul\":5337:5358   */\n      iszero\n        /* \"#utility.yul\":5326:5358   */\n      swap1\n      pop\n        /* \"#utility.yul\":5274:5364   */\n      swap2\n      swap1\n      pop\n      jump\t// out\n        /* \"#utility.yul\":5370:5469   */\n    tag_222:\n        /* \"#utility.yul\":5441:5462   */\n      tag_341\n        /* \"#utility.yul\":5456:5461   */\n      dup2\n        /* \"#utility.yul\":5441:5462   */\n      tag_221\n      jump\t// in\n    tag_341:\n        /* \"#utility.yul\":5436:5439   */\n      dup3\n        /* \"#utility.yul\":5429:5463   */\n      mstore\n        /* \"#utility.yul\":5370:5469   */\n      pop\n      pop\n      jump\t// out\n        /* \"#utility.yul\":5551:6738   */\n    tag_223:\n        /* \"#utility.yul\":5650:5653   */\n      0x00\n        /* \"#utility.yul\":5686:5690   */\n      0xa0\n        /* \"#utility.yul\":5681:5684   */\n      dup4\n        /* \"#utility.yul\":5677:5691   */\n      add\n        /* \"#utility.yul\":5773:5777   */\n      0x00\n        /* \"#utility.yul\":5766:5771   */\n      dup4\n        /* \"#utility.yul\":5762:5778   */\n      add\n        /* \"#utility.yul\":5756:5779   */\n      mload\n        /* \"#utility.yul\":5826:5829   */\n      dup5\n        /* \"#utility.yul\":5820:5824   */\n      dup3\n        /* \"#utility.yul\":5816:5830   */\n      sub\n        /* \"#utility.yul\":5809:5813   */\n      0x00\n        /* \"#utility.yul\":5804:5807   */\n      dup7\n        /* \"#utility.yul\":5800:5814   */\n      add\n        /* \"#utility.yul\":5793:5831   */\n      mstore\n        /* \"#utility.yul\":5852:5925   */\n      tag_343\n        /* \"#utility.yul\":5920:5924   */\n      dup3\n        /* \"#utility.yul\":5906:5918   */\n      dup3\n        /* \"#utility.yul\":5852:5925   */\n      tag_218\n      jump\t// in\n    tag_343:\n        /* \"#utility.yul\":5844:5925   */\n      swap2\n      pop\n        /* \"#utility.yul\":5701:5936   */\n      pop\n        /* \"#utility.yul\":6019:6023   */\n      0x20\n        /* \"#utility.yul\":6012:6017   */\n      dup4\n        /* \"#utility.yul\":6008:6024   */\n      add\n        /* \"#utility.yul\":6002:6025   */\n      mload\n        /* \"#utility.yul\":6072:6075   */\n      dup5\n        /* \"#utility.yul\":6066:6070   */\n      dup3\n        /* \"#utility.yul\":6062:6076   */\n      sub\n        /* \"#utility.yul\":6055:6059   */\n      0x20\n        /* \"#utility.yul\":6050:6053   */\n      dup7\n        /* \"#utility.yul\":6046:6060   */\n      add\n        /* \"#utility.yul\":6039:6077   */\n      mstore\n        /* \"#utility.yul\":6098:6171   */\n      tag_344\n        /* \"#utility.yul\":6166:6170   */\n      dup3\n        /* \"#utility.yul\":6152:6164   */\n      dup3\n        /* \"#utility.yul\":6098:6171   */\n      tag_218\n      jump\t// in\n    tag_344:\n        /* \"#utility.yul\":6090:6171   */\n      swap2\n      pop\n        /* \"#utility.yul\":5946:6182   */\n      pop\n        /* \"#utility.yul\":6267:6271   */\n      0x40\n        /* \"#utility.yul\":6260:6265   */\n      dup4\n        /* \"#utility.yul\":6256:6272   */\n      add\n        /* \"#utility.yul\":6250:6273   */\n      mload\n        /* \"#utility.yul\":6286:6349   */\n      tag_345\n        /* \"#utility.yul\":6343:6347   */\n      0x40\n        /* \"#utility.yul\":6338:6341   */\n      dup7\n        /* \"#utility.yul\":6334:6348   */\n      add\n        /* \"#utility.yul\":6320:6332   */\n      dup3\n        /* \"#utility.yul\":6286:6349   */\n      tag_220\n      jump\t// in\n    tag_345:\n        /* \"#utility.yul\":6192:6359   */\n      pop\n        /* \"#utility.yul\":6449:6453   */\n      0x60\n        /* \"#utility.yul\":6442:6447   */\n      dup4\n        /* \"#utility.yul\":6438:6454   */\n      add\n        /* \"#utility.yul\":6432:6455   */\n      mload\n        /* \"#utility.yul\":6468:6531   */\n      tag_346\n        /* \"#utility.yul\":6525:6529   */\n      0x60\n        /* \"#utility.yul\":6520:6523   */\n      dup7\n        /* \"#utility.yul\":6516:6530   */\n      add\n        /* \"#utility.yul\":6502:6514   */\n      dup3\n        /* \"#utility.yul\":6468:6531   */\n      tag_220\n      jump\t// in\n    tag_346:\n        /* \"#utility.yul\":6369:6541   */\n      pop\n        /* \"#utility.yul\":6625:6629   */\n      0x80\n        /* \"#utility.yul\":6618:6623   */\n      dup4\n        /* \"#utility.yul\":6614:6630   */\n      add\n        /* \"#utility.yul\":6608:6631   */\n      mload\n        /* \"#utility.yul\":6644:6701   */\n      tag_347\n        /* \"#utility.yul\":6695:6699   */\n      0x80\n        /* \"#utility.yul\":6690:6693   */\n      dup7\n        /* \"#utility.yul\":6686:6700   */\n      add\n        /* \"#utility.yul\":6672:6684   */\n      dup3\n        /* \"#utility.yul\":6644:6701   */\n      tag_222\n      jump\t// in\n    tag_347:\n        /* \"#utility.yul\":6551:6711   */\n      pop\n        /* \"#utility.yul\":6728:6732   */\n      dup1\n        /* \"#utility.yul\":6721:6732   */\n      swap2\n      pop\n        /* \"#utility.yul\":5655:6738   */\n      pop\n        /* \"#utility.yul\":5551:6738   */\n      swap3\n      swap2\n      pop\n      pop\n      jump\t// out\n        /* \"#utility.yul\":6744:6980   */\n    tag_224:\n        /* \"#utility.yul\":6853:6863   */\n      0x00\n        /* \"#utility.yul\":6888:6974   */\n      tag_349\n        /* \"#utility.yul\":6970:6973   */\n      dup4\n        /* \"#utility.yul\":6962:6968   */\n      dup4\n        /* \"#utility.yul\":6888:6974   */\n      tag_223\n      jump\t// in\n    tag_349:\n        /* \"#utility.yul\":6874:6974   */\n      swap1\n      pop\n        /* \"#utility.yul\":6744:6980   */\n      swap3\n      swap2\n      pop\n      pop\n      jump\t// out\n        /* \"#utility.yul\":6986:7119   */\n    tag_225:\n        /* \"#utility.yul\":7076:7080   */\n      0x00\n        /* \"#utility.yul\":7108:7112   */\n      0x20\n        /* \"#utility.yul\":7103:7106   */\n      dup3\n        /* \"#utility.yul\":7099:7113   */\n      add\n        /* \"#utility.yul\":7091:7113   */\n      swap1\n      pop\n        /* \"#utility.yul\":6986:7119   */\n      swap2\n      swap1\n      pop\n      jump\t// out\n        /* \"#utility.yul\":7205:8276   */\n    tag_226:\n        /* \"#utility.yul\":7364:7367   */\n      0x00\n        /* \"#utility.yul\":7393:7467   */\n      tag_352\n        /* \"#utility.yul\":7461:7466   */\n      dup3\n        /* \"#utility.yul\":7393:7467   */\n      tag_212\n      jump\t// in\n    tag_352:\n        /* \"#utility.yul\":7483:7589   */\n      tag_353\n        /* \"#utility.yul\":7582:7588   */\n      dup2\n        /* \"#utility.yul\":7577:7580   */\n      dup6\n        /* \"#utility.yul\":7483:7589   */\n      tag_213\n      jump\t// in\n    tag_353:\n        /* \"#utility.yul\":7476:7589   */\n      swap4\n      pop\n        /* \"#utility.yul\":7615:7618   */\n      dup4\n        /* \"#utility.yul\":7660:7664   */\n      0x20\n        /* \"#utility.yul\":7652:7658   */\n      dup3\n        /* \"#utility.yul\":7648:7665   */\n      mul\n        /* \"#utility.yul\":7643:7646   */\n      dup6\n        /* \"#utility.yul\":7639:7666   */\n      add\n        /* \"#utility.yul\":7690:7766   */\n      tag_354\n        /* \"#utility.yul\":7760:7765   */\n      dup6\n        /* \"#utility.yul\":7690:7766   */\n      tag_214\n      jump\t// in\n    tag_354:\n        /* \"#utility.yul\":7789:7796   */\n      dup1\n        /* \"#utility.yul\":7820:7821   */\n      0x00\n        /* \"#utility.yul\":7805:8231   */\n    tag_355:\n        /* \"#utility.yul\":7830:7836   */\n      dup6\n        /* \"#utility.yul\":7827:7828   */\n      dup2\n        /* \"#utility.yul\":7824:7837   */\n      lt\n        /* \"#utility.yul\":7805:8231   */\n      iszero\n      tag_357\n      jumpi\n        /* \"#utility.yul\":7901:7910   */\n      dup5\n        /* \"#utility.yul\":7895:7899   */\n      dup5\n        /* \"#utility.yul\":7891:7911   */\n      sub\n        /* \"#utility.yul\":7886:7889   */\n      dup10\n        /* \"#utility.yul\":7879:7912   */\n      mstore\n        /* \"#utility.yul\":7952:7958   */\n      dup2\n        /* \"#utility.yul\":7946:7959   */\n      mload\n        /* \"#utility.yul\":7980:8084   */\n      tag_358\n        /* \"#utility.yul\":8079:8083   */\n      dup6\n        /* \"#utility.yul\":8064:8077   */\n      dup3\n        /* \"#utility.yul\":7980:8084   */\n      tag_224\n      jump\t// in\n    tag_358:\n        /* \"#utility.yul\":7972:8084   */\n      swap5\n      pop\n        /* \"#utility.yul\":8107:8187   */\n      tag_359\n        /* \"#utility.yul\":8180:8186   */\n      dup4\n        /* \"#utility.yul\":8107:8187   */\n      tag_225\n      jump\t// in\n    tag_359:\n        /* \"#utility.yul\":8097:8187   */\n      swap3\n      pop\n        /* \"#utility.yul\":8216:8220   */\n      0x20\n        /* \"#utility.yul\":8211:8214   */\n      dup11\n        /* \"#utility.yul\":8207:8221   */\n      add\n        /* \"#utility.yul\":8200:8221   */\n      swap10\n      pop\n        /* \"#utility.yul\":7865:8231   */\n      pop\n        /* \"#utility.yul\":7852:7853   */\n      0x01\n        /* \"#utility.yul\":7849:7850   */\n      dup2\n        /* \"#utility.yul\":7845:7854   */\n      add\n        /* \"#utility.yul\":7840:7854   */\n      swap1\n      pop\n        /* \"#utility.yul\":7805:8231   */\n      jump(tag_355)\n    tag_357:\n        /* \"#utility.yul\":7809:7823   */\n      pop\n        /* \"#utility.yul\":8247:8251   */\n      dup3\n        /* \"#utility.yul\":8240:8251   */\n      swap8\n      pop\n        /* \"#utility.yul\":8267:8270   */\n      dup8\n        /* \"#utility.yul\":8260:8270   */\n      swap6\n      pop\n        /* \"#utility.yul\":7369:8276   */\n      pop\n      pop\n      pop\n      pop\n      pop\n        /* \"#utility.yul\":7205:8276   */\n      swap3\n      swap2\n      pop\n      pop\n      jump\t// out\n        /* \"#utility.yul\":8282:8735   */\n    tag_21:\n        /* \"#utility.yul\":8465:8469   */\n      0x00\n        /* \"#utility.yul\":8503:8505   */\n      0x20\n        /* \"#utility.yul\":8492:8501   */\n      dup3\n        /* \"#utility.yul\":8488:8506   */\n      add\n        /* \"#utility.yul\":8480:8506   */\n      swap1\n      pop\n        /* \"#utility.yul\":8552:8561   */\n      dup2\n        /* \"#utility.yul\":8546:8550   */\n      dup2\n        /* \"#utility.yul\":8542:8562   */\n      sub\n        /* \"#utility.yul\":8538:8539   */\n      0x00\n        /* \"#utility.yul\":8527:8536   */\n      dup4\n        /* \"#utility.yul\":8523:8540   */\n      add\n        /* \"#utility.yul\":8516:8563   */\n      mstore\n        /* \"#utility.yul\":8580:8728   */\n      tag_361\n        /* \"#utility.yul\":8723:8727   */\n      dup2\n        /* \"#utility.yul\":8714:8720   */\n      dup5\n        /* \"#utility.yul\":8580:8728   */\n      tag_226\n      jump\t// in\n    tag_361:\n        /* \"#utility.yul\":8572:8728   */\n      swap1\n      pop\n        /* \"#utility.yul\":8282:8735   */\n      swap3\n      swap2\n      pop\n      pop\n      jump\t// out\n        /* \"#utility.yul\":8741:8859   */\n    tag_227:\n        /* \"#utility.yul\":8828:8852   */\n      tag_363\n        /* \"#utility.yul\":8846:8851   */\n      dup2\n        /* \"#utility.yul\":8828:8852   */\n      tag_219\n      jump\t// in\n    tag_363:\n        /* \"#utility.yul\":8823:8826   */\n      dup3\n        /* \"#utility.yul\":8816:8853   */\n      mstore\n        /* \"#utility.yul\":8741:8859   */\n      pop\n      pop\n      jump\t// out\n        /* \"#utility.yul\":8865:9087   */\n    tag_26:\n        /* \"#utility.yul\":8958:8962   */\n      0x00\n        /* \"#utility.yul\":8996:8998   */\n      0x20\n        /* \"#utility.yul\":8985:8994   */\n      dup3\n        /* \"#utility.yul\":8981:8999   */\n      add\n        /* \"#utility.yul\":8973:8999   */\n      swap1\n      pop\n        /* \"#utility.yul\":9009:9080   */\n      tag_365\n        /* \"#utility.yul\":9077:9078   */\n      0x00\n        /* \"#utility.yul\":9066:9075   */\n      dup4\n        /* \"#utility.yul\":9062:9079   */\n      add\n        /* \"#utility.yul\":9053:9059   */\n      dup5\n        /* \"#utility.yul\":9009:9080   */\n      tag_227\n      jump\t// in\n    tag_365:\n        /* \"#utility.yul\":8865:9087   */\n      swap3\n      swap2\n      pop\n      pop\n      jump\t// out\n        /* \"#utility.yul\":9093:9210   */\n    tag_228:\n        /* \"#utility.yul\":9202:9203   */\n      0x00\n        /* \"#utility.yul\":9199:9200   */\n      0x00\n        /* \"#utility.yul\":9192:9204   */\n      revert\n        /* \"#utility.yul\":9216:9524   */\n    tag_229:\n        /* \"#utility.yul\":9278:9282   */\n      0x00\n        /* \"#utility.yul\":9368:9386   */\n      0xffffffffffffffff\n        /* \"#utility.yul\":9360:9366   */\n      dup3\n        /* \"#utility.yul\":9357:9387   */\n      gt\n        /* \"#utility.yul\":9354:9410   */\n      iszero\n      tag_368\n      jumpi\n        /* \"#utility.yul\":9390:9408   */\n      tag_369\n      tag_82\n      jump\t// in\n    tag_369:\n        /* \"#utility.yul\":9354:9410   */\n    tag_368:\n        /* \"#utility.yul\":9428:9457   */\n      tag_370\n        /* \"#utility.yul\":9450:9456   */\n      dup3\n        /* \"#utility.yul\":9428:9457   */\n      tag_201\n      jump\t// in\n    tag_370:\n        /* \"#utility.yul\":9420:9457   */\n      swap1\n      pop\n        /* \"#utility.yul\":9512:9516   */\n      0x20\n        /* \"#utility.yul\":9506:9510   */\n      dup2\n        /* \"#utility.yul\":9502:9517   */\n      add\n        /* \"#utility.yul\":9494:9517   */\n      swap1\n      pop\n        /* \"#utility.yul\":9216:9524   */\n      swap2\n      swap1\n      pop\n      jump\t// out\n        /* \"#utility.yul\":9530:9678   */\n    tag_230:\n        /* \"#utility.yul\":9628:9634   */\n      dup3\n        /* \"#utility.yul\":9623:9626   */\n      dup2\n        /* \"#utility.yul\":9618:9621   */\n      dup4\n        /* \"#utility.yul\":9605:9635   */\n      calldatacopy\n        /* \"#utility.yul\":9669:9670   */\n      0x00\n        /* \"#utility.yul\":9660:9666   */\n      dup4\n        /* \"#utility.yul\":9655:9658   */\n      dup4\n        /* \"#utility.yul\":9651:9667   */\n      add\n        /* \"#utility.yul\":9644:9671   */\n      mstore\n        /* \"#utility.yul\":9530:9678   */\n      pop\n      pop\n      pop\n      jump\t// out\n        /* \"#utility.yul\":9684:10109   */\n    tag_231:\n        /* \"#utility.yul\":9762:9767   */\n      0x00\n        /* \"#utility.yul\":9787:9853   */\n      tag_373\n        /* \"#utility.yul\":9803:9852   */\n      tag_374\n        /* \"#utility.yul\":9845:9851   */\n      dup5\n        /* \"#utility.yul\":9803:9852   */\n      tag_229\n      jump\t// in\n    tag_374:\n        /* \"#utility.yul\":9787:9853   */\n      tag_203\n      jump\t// in\n    tag_373:\n        /* \"#utility.yul\":9778:9853   */\n      swap1\n      pop\n        /* \"#utility.yul\":9876:9882   */\n      dup3\n        /* \"#utility.yul\":9869:9874   */\n      dup2\n        /* \"#utility.yul\":9862:9883   */\n      mstore\n        /* \"#utility.yul\":9914:9918   */\n      0x20\n        /* \"#utility.yul\":9907:9912   */\n      dup2\n        /* \"#utility.yul\":9903:9919   */\n      add\n        /* \"#utility.yul\":9952:9955   */\n      dup5\n        /* \"#utility.yul\":9943:9949   */\n      dup5\n        /* \"#utility.yul\":9938:9941   */\n      dup5\n        /* \"#utility.yul\":9934:9950   */\n      add\n        /* \"#utility.yul\":9931:9956   */\n      gt\n        /* \"#utility.yul\":9928:10040   */\n      iszero\n      tag_375\n      jumpi\n        /* \"#utility.yul\":9959:10038   */\n      tag_376\n      tag_228\n      jump\t// in\n    tag_376:\n        /* \"#utility.yul\":9928:10040   */\n    tag_375:\n        /* \"#utility.yul\":10049:10103   */\n      tag_377\n        /* \"#utility.yul\":10096:10102   */\n      dup5\n        /* \"#utility.yul\":10091:10094   */\n      dup3\n        /* \"#utility.yul\":10086:10089   */\n      dup6\n        /* \"#utility.yul\":10049:10103   */\n      tag_230\n      jump\t// in\n    tag_377:\n        /* \"#utility.yul\":9768:10109   */\n      pop\n        /* \"#utility.yul\":9684:10109   */\n      swap4\n      swap3\n      pop\n      pop\n      pop\n      jump\t// out\n        /* \"#utility.yul\":10129:10469   */\n    tag_232:\n        /* \"#utility.yul\":10185:10190   */\n      0x00\n        /* \"#utility.yul\":10234:10237   */\n      dup3\n        /* \"#utility.yul\":10227:10231   */\n      0x1f\n        /* \"#utility.yul\":10219:10225   */\n      dup4\n        /* \"#utility.yul\":10215:10232   */\n      add\n        /* \"#utility.yul\":10211:10238   */\n      slt\n        /* \"#utility.yul\":10201:10323   */\n      tag_379\n      jumpi\n        /* \"#utility.yul\":10242:10321   */\n      tag_380\n      tag_200\n      jump\t// in\n    tag_380:\n        /* \"#utility.yul\":10201:10323   */\n    tag_379:\n        /* \"#utility.yul\":10359:10365   */\n      dup2\n        /* \"#utility.yul\":10346:10366   */\n      calldataload\n        /* \"#utility.yul\":10384:10463   */\n      tag_381\n        /* \"#utility.yul\":10459:10462   */\n      dup5\n        /* \"#utility.yul\":10451:10457   */\n      dup3\n        /* \"#utility.yul\":10444:10448   */\n      0x20\n        /* \"#utility.yul\":10436:10442   */\n      dup7\n        /* \"#utility.yul\":10432:10449   */\n      add\n        /* \"#utility.yul\":10384:10463   */\n      tag_231\n      jump\t// in\n    tag_381:\n        /* \"#utility.yul\":10375:10463   */\n      swap2\n      pop\n        /* \"#utility.yul\":10191:10469   */\n      pop\n        /* \"#utility.yul\":10129:10469   */\n      swap3\n      swap2\n      pop\n      pop\n      jump\t// out\n        /* \"#utility.yul\":10475:11309   */\n    tag_30:\n        /* \"#utility.yul\":10563:10569   */\n      0x00\n        /* \"#utility.yul\":10571:10577   */\n      0x00\n        /* \"#utility.yul\":10620:10622   */\n      0x40\n        /* \"#utility.yul\":10608:10617   */\n      dup4\n        /* \"#utility.yul\":10599:10606   */\n      dup6\n        /* \"#utility.yul\":10595:10618   */\n      sub\n        /* \"#utility.yul\":10591:10623   */\n      slt\n        /* \"#utility.yul\":10588:10707   */\n      iszero\n      tag_383\n      jumpi\n        /* \"#utility.yul\":10626:10705   */\n      tag_384\n      tag_198\n      jump\t// in\n    tag_384:\n        /* \"#utility.yul\":10588:10707   */\n    tag_383:\n        /* \"#utility.yul\":10774:10775   */\n      0x00\n        /* \"#utility.yul\":10763:10772   */\n      dup4\n        /* \"#utility.yul\":10759:10776   */\n      add\n        /* \"#utility.yul\":10746:10777   */\n      calldataload\n        /* \"#utility.yul\":10804:10822   */\n      0xffffffffffffffff\n        /* \"#utility.yul\":10796:10802   */\n      dup2\n        /* \"#utility.yul\":10793:10823   */\n      gt\n        /* \"#utility.yul\":10790:10907   */\n      iszero\n      tag_385\n      jumpi\n        /* \"#utility.yul\":10826:10905   */\n      tag_386\n      tag_199\n      jump\t// in\n    tag_386:\n        /* \"#utility.yul\":10790:10907   */\n    tag_385:\n        /* \"#utility.yul\":10931:10994   */\n      tag_387\n        /* \"#utility.yul\":10986:10993   */\n      dup6\n        /* \"#utility.yul\":10977:10983   */\n      dup3\n        /* \"#utility.yul\":10966:10975   */\n      dup7\n        /* \"#utility.yul\":10962:10984   */\n      add\n        /* \"#utility.yul\":10931:10994   */\n      tag_232\n      jump\t// in\n    tag_387:\n        /* \"#utility.yul\":10921:10994   */\n      swap3\n      pop\n        /* \"#utility.yul\":10717:11004   */\n      pop\n        /* \"#utility.yul\":11071:11073   */\n      0x20\n        /* \"#utility.yul\":11060:11069   */\n      dup4\n        /* \"#utility.yul\":11056:11074   */\n      add\n        /* \"#utility.yul\":11043:11075   */\n      calldataload\n        /* \"#utility.yul\":11102:11120   */\n      0xffffffffffffffff\n        /* \"#utility.yul\":11094:11100   */\n      dup2\n        /* \"#utility.yul\":11091:11121   */\n      gt\n        /* \"#utility.yul\":11088:11205   */\n      iszero\n      tag_388\n      jumpi\n        /* \"#utility.yul\":11124:11203   */\n      tag_389\n      tag_199\n      jump\t// in\n    tag_389:\n        /* \"#utility.yul\":11088:11205   */\n    tag_388:\n        /* \"#utility.yul\":11229:11292   */\n      tag_390\n        /* \"#utility.yul\":11284:11291   */\n      dup6\n        /* \"#utility.yul\":11275:11281   */\n      dup3\n        /* \"#utility.yul\":11264:11273   */\n      dup7\n        /* \"#utility.yul\":11260:11282   */\n      add\n        /* \"#utility.yul\":11229:11292   */\n      tag_232\n      jump\t// in\n    tag_390:\n        /* \"#utility.yul\":11219:11292   */\n      swap2\n      pop\n        /* \"#utility.yul\":11014:11302   */\n      pop\n        /* \"#utility.yul\":10475:11309   */\n      swap3\n      pop\n      swap3\n      swap1\n      pop\n      jump\t// out\n        /* \"#utility.yul\":11315:11437   */\n    tag_233:\n        /* \"#utility.yul\":11388:11412   */\n      tag_392\n        /* \"#utility.yul\":11406:11411   */\n      dup2\n        /* \"#utility.yul\":11388:11412   */\n      tag_219\n      jump\t// in\n    tag_392:\n        /* \"#utility.yul\":11381:11386   */\n      dup2\n        /* \"#utility.yul\":11378:11413   */\n      eq\n        /* \"#utility.yul\":11368:11431   */\n      tag_393\n      jumpi\n        /* \"#utility.yul\":11427:11428   */\n      0x00\n        /* \"#utility.yul\":11424:11425   */\n      0x00\n        /* \"#utility.yul\":11417:11429   */\n      revert\n        /* \"#utility.yul\":11368:11431   */\n    tag_393:\n        /* \"#utility.yul\":11315:11437   */\n      pop\n      jump\t// out\n        /* \"#utility.yul\":11443:11582   */\n    tag_234:\n        /* \"#utility.yul\":11489:11494   */\n      0x00\n        /* \"#utility.yul\":11527:11533   */\n      dup2\n        /* \"#utility.yul\":11514:11534   */\n      calldataload\n        /* \"#utility.yul\":11505:11534   */\n      swap1\n      pop\n        /* \"#utility.yul\":11543:11576   */\n      tag_395\n        /* \"#utility.yul\":11570:11575   */\n      dup2\n        /* \"#utility.yul\":11543:11576   */\n      tag_233\n      jump\t// in\n    tag_395:\n        /* \"#utility.yul\":11443:11582   */\n      swap3\n      swap2\n      pop\n      pop\n      jump\t// out\n        /* \"#utility.yul\":11588:11917   */\n    tag_35:\n        /* \"#utility.yul\":11647:11653   */\n      0x00\n        /* \"#utility.yul\":11696:11698   */\n      0x20\n        /* \"#utility.yul\":11684:11693   */\n      dup3\n        /* \"#utility.yul\":11675:11682   */\n      dup5\n        /* \"#utility.yul\":11671:11694   */\n      sub\n        /* \"#utility.yul\":11667:11699   */\n      slt\n        /* \"#utility.yul\":11664:11783   */\n      iszero\n      tag_397\n      jumpi\n        /* \"#utility.yul\":11702:11781   */\n      tag_398\n      tag_198\n      jump\t// in\n    tag_398:\n        /* \"#utility.yul\":11664:11783   */\n    tag_397:\n        /* \"#utility.yul\":11822:11823   */\n      0x00\n        /* \"#utility.yul\":11847:11900   */\n      tag_399\n        /* \"#utility.yul\":11892:11899   */\n      dup5\n        /* \"#utility.yul\":11883:11889   */\n      dup3\n        /* \"#utility.yul\":11872:11881   */\n      dup6\n        /* \"#utility.yul\":11868:11890   */\n      add\n        /* \"#utility.yul\":11847:11900   */\n      tag_234\n      jump\t// in\n    tag_399:\n        /* \"#utility.yul\":11837:11900   */\n      swap2\n      pop\n        /* \"#utility.yul\":11793:11910   */\n      pop\n        /* \"#utility.yul\":11588:11917   */\n      swap3\n      swap2\n      pop\n      pop\n      jump\t// out\n        /* \"#utility.yul\":11923:12041   */\n    tag_235:\n        /* \"#utility.yul\":12010:12034   */\n      tag_401\n        /* \"#utility.yul\":12028:12033   */\n      dup2\n        /* \"#utility.yul\":12010:12034   */\n      tag_207\n      jump\t// in\n    tag_401:\n        /* \"#utility.yul\":12005:12008   */\n      dup3\n        /* \"#utility.yul\":11998:12035   */\n      mstore\n        /* \"#utility.yul\":11923:12041   */\n      pop\n      pop\n      jump\t// out\n        /* \"#utility.yul\":12047:12269   */\n    tag_38:\n        /* \"#utility.yul\":12140:12144   */\n      0x00\n        /* \"#utility.yul\":12178:12180   */\n      0x20\n        /* \"#utility.yul\":12167:12176   */\n      dup3\n        /* \"#utility.yul\":12163:12181   */\n      add\n        /* \"#utility.yul\":12155:12181   */\n      swap1\n      pop\n        /* \"#utility.yul\":12191:12262   */\n      tag_403\n        /* \"#utility.yul\":12259:12260   */\n      0x00\n        /* \"#utility.yul\":12248:12257   */\n      dup4\n        /* \"#utility.yul\":12244:12261   */\n      add\n        /* \"#utility.yul\":12235:12241   */\n      dup5\n        /* \"#utility.yul\":12191:12262   */\n      tag_235\n      jump\t// in\n    tag_403:\n        /* \"#utility.yul\":12047:12269   */\n      swap3\n      swap2\n      pop\n      pop\n      jump\t// out\n        /* \"#utility.yul\":12275:12604   */\n    tag_42:\n        /* \"#utility.yul\":12334:12340   */\n      0x00\n        /* \"#utility.yul\":12383:12385   */\n      0x20\n        /* \"#utility.yul\":12371:12380   */\n      dup3\n        /* \"#utility.yul\":12362:12369   */\n      dup5\n        /* \"#utility.yul\":12358:12381   */\n      sub\n        /* \"#utility.yul\":12354:12386   */\n      slt\n        /* \"#utility.yul\":12351:12470   */\n      iszero\n      tag_405\n      jumpi\n        /* \"#utility.yul\":12389:12468   */\n      tag_406\n      tag_198\n      jump\t// in\n    tag_406:\n        /* \"#utility.yul\":12351:12470   */\n    tag_405:\n        /* \"#utility.yul\":12509:12510   */\n      0x00\n        /* \"#utility.yul\":12534:12587   */\n      tag_407\n        /* \"#utility.yul\":12579:12586   */\n      dup5\n        /* \"#utility.yul\":12570:12576   */\n      dup3\n        /* \"#utility.yul\":12559:12568   */\n      dup6\n        /* \"#utility.yul\":12555:12577   */\n      add\n        /* \"#utility.yul\":12534:12587   */\n      tag_209\n      jump\t// in\n    tag_407:\n        /* \"#utility.yul\":12524:12587   */\n      swap2\n      pop\n        /* \"#utility.yul\":12480:12597   */\n      pop\n        /* \"#utility.yul\":12275:12604   */\n      swap3\n      swap2\n      pop\n      pop\n      jump\t// out\n        /* \"#utility.yul\":12686:13883   */\n    tag_236:\n        /* \"#utility.yul\":12795:12798   */\n      0x00\n        /* \"#utility.yul\":12831:12835   */\n      0xa0\n        /* \"#utility.yul\":12826:12829   */\n      dup4\n        /* \"#utility.yul\":12822:12836   */\n      add\n        /* \"#utility.yul\":12918:12922   */\n      0x00\n        /* \"#utility.yul\":12911:12916   */\n      dup4\n        /* \"#utility.yul\":12907:12923   */\n      add\n        /* \"#utility.yul\":12901:12924   */\n      mload\n        /* \"#utility.yul\":12971:12974   */\n      dup5\n        /* \"#utility.yul\":12965:12969   */\n      dup3\n        /* \"#utility.yul\":12961:12975   */\n      sub\n        /* \"#utility.yul\":12954:12958   */\n      0x00\n        /* \"#utility.yul\":12949:12952   */\n      dup7\n        /* \"#utility.yul\":12945:12959   */\n      add\n        /* \"#utility.yul\":12938:12976   */\n      mstore\n        /* \"#utility.yul\":12997:13070   */\n      tag_409\n        /* \"#utility.yul\":13065:13069   */\n      dup3\n        /* \"#utility.yul\":13051:13063   */\n      dup3\n        /* \"#utility.yul\":12997:13070   */\n      tag_218\n      jump\t// in\n    tag_409:\n        /* \"#utility.yul\":12989:13070   */\n      swap2\n      pop\n        /* \"#utility.yul\":12846:13081   */\n      pop\n        /* \"#utility.yul\":13164:13168   */\n      0x20\n        /* \"#utility.yul\":13157:13162   */\n      dup4\n        /* \"#utility.yul\":13153:13169   */\n      add\n        /* \"#utility.yul\":13147:13170   */\n      mload\n        /* \"#utility.yul\":13217:13220   */\n      dup5\n        /* \"#utility.yul\":13211:13215   */\n      dup3\n        /* \"#utility.yul\":13207:13221   */\n      sub\n        /* \"#utility.yul\":13200:13204   */\n      0x20\n        /* \"#utility.yul\":13195:13198   */\n      dup7\n        /* \"#utility.yul\":13191:13205   */\n      add\n        /* \"#utility.yul\":13184:13222   */\n      mstore\n        /* \"#utility.yul\":13243:13316   */\n      tag_410\n        /* \"#utility.yul\":13311:13315   */\n      dup3\n        /* \"#utility.yul\":13297:13309   */\n      dup3\n        /* \"#utility.yul\":13243:13316   */\n      tag_218\n      jump\t// in\n    tag_410:\n        /* \"#utility.yul\":13235:13316   */\n      swap2\n      pop\n        /* \"#utility.yul\":13091:13327   */\n      pop\n        /* \"#utility.yul\":13412:13416   */\n      0x40\n        /* \"#utility.yul\":13405:13410   */\n      dup4\n        /* \"#utility.yul\":13401:13417   */\n      add\n        /* \"#utility.yul\":13395:13418   */\n      mload\n        /* \"#utility.yul\":13431:13494   */\n      tag_411\n        /* \"#utility.yul\":13488:13492   */\n      0x40\n        /* \"#utility.yul\":13483:13486   */\n      dup7\n        /* \"#utility.yul\":13479:13493   */\n      add\n        /* \"#utility.yul\":13465:13477   */\n      dup3\n        /* \"#utility.yul\":13431:13494   */\n      tag_220\n      jump\t// in\n    tag_411:\n        /* \"#utility.yul\":13337:13504   */\n      pop\n        /* \"#utility.yul\":13594:13598   */\n      0x60\n        /* \"#utility.yul\":13587:13592   */\n      dup4\n        /* \"#utility.yul\":13583:13599   */\n      add\n        /* \"#utility.yul\":13577:13600   */\n      mload\n        /* \"#utility.yul\":13613:13676   */\n      tag_412\n        /* \"#utility.yul\":13670:13674   */\n      0x60\n        /* \"#utility.yul\":13665:13668   */\n      dup7\n        /* \"#utility.yul\":13661:13675   */\n      add\n        /* \"#utility.yul\":13647:13659   */\n      dup3\n        /* \"#utility.yul\":13613:13676   */\n      tag_220\n      jump\t// in\n    tag_412:\n        /* \"#utility.yul\":13514:13686   */\n      pop\n        /* \"#utility.yul\":13770:13774   */\n      0x80\n        /* \"#utility.yul\":13763:13768   */\n      dup4\n        /* \"#utility.yul\":13759:13775   */\n      add\n        /* \"#utility.yul\":13753:13776   */\n      mload\n        /* \"#utility.yul\":13789:13846   */\n      tag_413\n        /* \"#utility.yul\":13840:13844   */\n      0x80\n        /* \"#utility.yul\":13835:13838   */\n      dup7\n        /* \"#utility.yul\":13831:13845   */\n      add\n        /* \"#utility.yul\":13817:13829   */\n      dup3\n        /* \"#utility.yul\":13789:13846   */\n      tag_222\n      jump\t// in\n    tag_413:\n        /* \"#utility.yul\":13696:13856   */\n      pop\n        /* \"#utility.yul\":13873:13877   */\n      dup1\n        /* \"#utility.yul\":13866:13877   */\n      swap2\n      pop\n        /* \"#utility.yul\":12800:13883   */\n      pop\n        /* \"#utility.yul\":12686:13883   */\n      swap3\n      swap2\n      pop\n      pop\n      jump\t// out\n        /* \"#utility.yul\":13889:14242   */\n    tag_45:\n        /* \"#utility.yul\":14022:14026   */\n      0x00\n        /* \"#utility.yul\":14060:14062   */\n      0x20\n        /* \"#utility.yul\":14049:14058   */\n      dup3\n        /* \"#utility.yul\":14045:14063   */\n      add\n        /* \"#utility.yul\":14037:14063   */\n      swap1\n      pop\n        /* \"#utility.yul\":14109:14118   */\n      dup2\n        /* \"#utility.yul\":14103:14107   */\n      dup2\n        /* \"#utility.yul\":14099:14119   */\n      sub\n        /* \"#utility.yul\":14095:14096   */\n      0x00\n        /* \"#utility.yul\":14084:14093   */\n      dup4\n        /* \"#utility.yul\":14080:14097   */\n      add\n        /* \"#utility.yul\":14073:14120   */\n      mstore\n        /* \"#utility.yul\":14137:14235   */\n      tag_415\n        /* \"#utility.yul\":14230:14234   */\n      dup2\n        /* \"#utility.yul\":14221:14227   */\n      dup5\n        /* \"#utility.yul\":14137:14235   */\n      tag_236\n      jump\t// in\n    tag_415:\n        /* \"#utility.yul\":14129:14235   */\n      swap1\n      pop\n        /* \"#utility.yul\":13889:14242   */\n      swap3\n      swap2\n      pop\n      pop\n      jump\t// out\n        /* \"#utility.yul\":14248:14417   */\n    tag_237:\n        /* \"#utility.yul\":14332:14343   */\n      0x00\n        /* \"#utility.yul\":14366:14372   */\n      dup3\n        /* \"#utility.yul\":14361:14364   */\n      dup3\n        /* \"#utility.yul\":14354:14373   */\n      mstore\n        /* \"#utility.yul\":14406:14410   */\n      0x20\n        /* \"#utility.yul\":14401:14404   */\n      dup3\n        /* \"#utility.yul\":14397:14411   */\n      add\n        /* \"#utility.yul\":14382:14411   */\n      swap1\n      pop\n        /* \"#utility.yul\":14248:14417   */\n      swap3\n      swap2\n      pop\n      pop\n      jump\t// out\n        /* \"#utility.yul\":14423:14800   */\n    tag_238:\n        /* \"#utility.yul\":14511:14514   */\n      0x00\n        /* \"#utility.yul\":14539:14578   */\n      tag_418\n        /* \"#utility.yul\":14572:14577   */\n      dup3\n        /* \"#utility.yul\":14539:14578   */\n      tag_215\n      jump\t// in\n    tag_418:\n        /* \"#utility.yul\":14594:14665   */\n      tag_419\n        /* \"#utility.yul\":14658:14664   */\n      dup2\n        /* \"#utility.yul\":14653:14656   */\n      dup6\n        /* \"#utility.yul\":14594:14665   */\n      tag_237\n      jump\t// in\n    tag_419:\n        /* \"#utility.yul\":14587:14665   */\n      swap4\n      pop\n        /* \"#utility.yul\":14674:14739   */\n      tag_420\n        /* \"#utility.yul\":14732:14738   */\n      dup2\n        /* \"#utility.yul\":14727:14730   */\n      dup6\n        /* \"#utility.yul\":14720:14724   */\n      0x20\n        /* \"#utility.yul\":14713:14718   */\n      dup7\n        /* \"#utility.yul\":14709:14725   */\n      add\n        /* \"#utility.yul\":14674:14739   */\n      tag_217\n      jump\t// in\n    tag_420:\n        /* \"#utility.yul\":14764:14793   */\n      tag_421\n        /* \"#utility.yul\":14786:14792   */\n      dup2\n        /* \"#utility.yul\":14764:14793   */\n      tag_201\n      jump\t// in\n    tag_421:\n        /* \"#utility.yul\":14759:14762   */\n      dup5\n        /* \"#utility.yul\":14755:14794   */\n      add\n        /* \"#utility.yul\":14748:14794   */\n      swap2\n      pop\n        /* \"#utility.yul\":14515:14800   */\n      pop\n        /* \"#utility.yul\":14423:14800   */\n      swap3\n      swap2\n      pop\n      pop\n      jump\t// out\n        /* \"#utility.yul\":14806:14915   */\n    tag_239:\n        /* \"#utility.yul\":14887:14908   */\n      tag_423\n        /* \"#utility.yul\":14902:14907   */\n      dup2\n        /* \"#utility.yul\":14887:14908   */\n      tag_221\n      jump\t// in\n    tag_423:\n        /* \"#utility.yul\":14882:14885   */\n      dup3\n        /* \"#utility.yul\":14875:14909   */\n      mstore\n        /* \"#utility.yul\":14806:14915   */\n      pop\n      pop\n      jump\t// out\n        /* \"#utility.yul\":14921:15755   */\n    tag_51:\n        /* \"#utility.yul\":15160:15164   */\n      0x00\n        /* \"#utility.yul\":15198:15201   */\n      0xa0\n        /* \"#utility.yul\":15187:15196   */\n      dup3\n        /* \"#utility.yul\":15183:15202   */\n      add\n        /* \"#utility.yul\":15175:15202   */\n      swap1\n      pop\n        /* \"#utility.yul\":15248:15257   */\n      dup2\n        /* \"#utility.yul\":15242:15246   */\n      dup2\n        /* \"#utility.yul\":15238:15258   */\n      sub\n        /* \"#utility.yul\":15234:15235   */\n      0x00\n        /* \"#utility.yul\":15223:15232   */\n      dup4\n        /* \"#utility.yul\":15219:15236   */\n      add\n        /* \"#utility.yul\":15212:15259   */\n      mstore\n        /* \"#utility.yul\":15276:15354   */\n      tag_425\n        /* \"#utility.yul\":15349:15353   */\n      dup2\n        /* \"#utility.yul\":15340:15346   */\n      dup9\n        /* \"#utility.yul\":15276:15354   */\n      tag_238\n      jump\t// in\n    tag_425:\n        /* \"#utility.yul\":15268:15354   */\n      swap1\n      pop\n        /* \"#utility.yul\":15401:15410   */\n      dup2\n        /* \"#utility.yul\":15395:15399   */\n      dup2\n        /* \"#utility.yul\":15391:15411   */\n      sub\n        /* \"#utility.yul\":15386:15388   */\n      0x20\n        /* \"#utility.yul\":15375:15384   */\n      dup4\n        /* \"#utility.yul\":15371:15389   */\n      add\n        /* \"#utility.yul\":15364:15412   */\n      mstore\n        /* \"#utility.yul\":15429:15507   */\n      tag_426\n        /* \"#utility.yul\":15502:15506   */\n      dup2\n        /* \"#utility.yul\":15493:15499   */\n      dup8\n        /* \"#utility.yul\":15429:15507   */\n      tag_238\n      jump\t// in\n    tag_426:\n        /* \"#utility.yul\":15421:15507   */\n      swap1\n      pop\n        /* \"#utility.yul\":15517:15589   */\n      tag_427\n        /* \"#utility.yul\":15585:15587   */\n      0x40\n        /* \"#utility.yul\":15574:15583   */\n      dup4\n        /* \"#utility.yul\":15570:15588   */\n      add\n        /* \"#utility.yul\":15561:15567   */\n      dup7\n        /* \"#utility.yul\":15517:15589   */\n      tag_227\n      jump\t// in\n    tag_427:\n        /* \"#utility.yul\":15599:15671   */\n      tag_428\n        /* \"#utility.yul\":15667:15669   */\n      0x60\n        /* \"#utility.yul\":15656:15665   */\n      dup4\n        /* \"#utility.yul\":15652:15670   */\n      add\n        /* \"#utility.yul\":15643:15649   */\n      dup6\n        /* \"#utility.yul\":15599:15671   */\n      tag_227\n      jump\t// in\n    tag_428:\n        /* \"#utility.yul\":15681:15748   */\n      tag_429\n        /* \"#utility.yul\":15743:15746   */\n      0x80\n        /* \"#utility.yul\":15732:15741   */\n      dup4\n        /* \"#utility.yul\":15728:15747   */\n      add\n        /* \"#utility.yul\":15719:15725   */\n      dup5\n        /* \"#utility.yul\":15681:15748   */\n      tag_239\n      jump\t// in\n    tag_429:\n        /* \"#utility.yul\":14921:15755   */\n      swap7\n      swap6\n      pop\n      pop\n      pop\n      pop\n      pop\n      pop\n      jump\t// out\n        /* \"#utility.yul\":15761:15971   */\n    tag_57:\n        /* \"#utility.yul\":15848:15852   */\n      0x00\n        /* \"#utility.yul\":15886:15888   */\n      0x20\n        /* \"#utility.yul\":15875:15884   */\n      dup3\n        /* \"#utility.yul\":15871:15889   */\n      add\n        /* \"#utility.yul\":15863:15889   */\n      swap1\n      pop\n        /* \"#utility.yul\":15899:15964   */\n      tag_431\n        /* \"#utility.yul\":15961:15962   */\n      0x00\n        /* \"#utility.yul\":15950:15959   */\n      dup4\n        /* \"#utility.yul\":15946:15963   */\n      add\n        /* \"#utility.yul\":15937:15943   */\n      dup5\n        /* \"#utility.yul\":15899:15964   */\n      tag_239\n      jump\t// in\n    tag_431:\n        /* \"#utility.yul\":15761:15971   */\n      swap3\n      swap2\n      pop\n      pop\n      jump\t// out\n        /* \"#utility.yul\":15977:16091   */\n    tag_240:\n        /* \"#utility.yul\":16044:16050   */\n      0x00\n        /* \"#utility.yul\":16078:16083   */\n      dup2\n        /* \"#utility.yul\":16072:16084   */\n      mload\n        /* \"#utility.yul\":16062:16084   */\n      swap1\n      pop\n        /* \"#utility.yul\":15977:16091   */\n      swap2\n      swap1\n      pop\n      jump\t// out\n        /* \"#utility.yul\":16097:16281   */\n    tag_241:\n        /* \"#utility.yul\":16196:16207   */\n      0x00\n        /* \"#utility.yul\":16230:16236   */\n      dup3\n        /* \"#utility.yul\":16225:16228   */\n      dup3\n        /* \"#utility.yul\":16218:16237   */\n      mstore\n        /* \"#utility.yul\":16270:16274   */\n      0x20\n        /* \"#utility.yul\":16265:16268   */\n      dup3\n        /* \"#utility.yul\":16261:16275   */\n      add\n        /* \"#utility.yul\":16246:16275   */\n      swap1\n      pop\n        /* \"#utility.yul\":16097:16281   */\n      swap3\n      swap2\n      pop\n      pop\n      jump\t// out\n        /* \"#utility.yul\":16287:16419   */\n    tag_242:\n        /* \"#utility.yul\":16354:16358   */\n      0x00\n        /* \"#utility.yul\":16377:16380   */\n      dup2\n        /* \"#utility.yul\":16369:16380   */\n      swap1\n      pop\n        /* \"#utility.yul\":16407:16411   */\n      0x20\n        /* \"#utility.yul\":16402:16405   */\n      dup3\n        /* \"#utility.yul\":16398:16412   */\n      add\n        /* \"#utility.yul\":16390:16412   */\n      swap1\n      pop\n        /* \"#utility.yul\":16287:16419   */\n      swap2\n      swap1\n      pop\n      jump\t// out\n        /* \"#utility.yul\":16425:16533   */\n    tag_243:\n        /* \"#utility.yul\":16502:16526   */\n      tag_436\n        /* \"#utility.yul\":16520:16525   */\n      dup2\n        /* \"#utility.yul\":16502:16526   */\n      tag_207\n      jump\t// in\n    tag_436:\n        /* \"#utility.yul\":16497:16500   */\n      dup3\n        /* \"#utility.yul\":16490:16527   */\n      mstore\n        /* \"#utility.yul\":16425:16533   */\n      pop\n      pop\n      jump\t// out\n        /* \"#utility.yul\":16539:16718   */\n    tag_244:\n        /* \"#utility.yul\":16608:16618   */\n      0x00\n        /* \"#utility.yul\":16629:16675   */\n      tag_438\n        /* \"#utility.yul\":16671:16674   */\n      dup4\n        /* \"#utility.yul\":16663:16669   */\n      dup4\n        /* \"#utility.yul\":16629:16675   */\n      tag_243\n      jump\t// in\n    tag_438:\n        /* \"#utility.yul\":16707:16711   */\n      0x20\n        /* \"#utility.yul\":16702:16705   */\n      dup4\n        /* \"#utility.yul\":16698:16712   */\n      add\n        /* \"#utility.yul\":16684:16712   */\n      swap1\n      pop\n        /* \"#utility.yul\":16539:16718   */\n      swap3\n      swap2\n      pop\n      pop\n      jump\t// out\n        /* \"#utility.yul\":16724:16837   */\n    tag_245:\n        /* \"#utility.yul\":16794:16798   */\n      0x00\n        /* \"#utility.yul\":16826:16830   */\n      0x20\n        /* \"#utility.yul\":16821:16824   */\n      dup3\n        /* \"#utility.yul\":16817:16831   */\n      add\n        /* \"#utility.yul\":16809:16831   */\n      swap1\n      pop\n        /* \"#utility.yul\":16724:16837   */\n      swap2\n      swap1\n      pop\n      jump\t// out\n        /* \"#utility.yul\":16873:17605   */\n    tag_246:\n        /* \"#utility.yul\":16992:16995   */\n      0x00\n        /* \"#utility.yul\":17021:17075   */\n      tag_441\n        /* \"#utility.yul\":17069:17074   */\n      dup3\n        /* \"#utility.yul\":17021:17075   */\n      tag_240\n      jump\t// in\n    tag_441:\n        /* \"#utility.yul\":17091:17177   */\n      tag_442\n        /* \"#utility.yul\":17170:17176   */\n      dup2\n        /* \"#utility.yul\":17165:17168   */\n      dup6\n        /* \"#utility.yul\":17091:17177   */\n      tag_241\n      jump\t// in\n    tag_442:\n        /* \"#utility.yul\":17084:17177   */\n      swap4\n      pop\n        /* \"#utility.yul\":17201:17257   */\n      tag_443\n        /* \"#utility.yul\":17251:17256   */\n      dup4\n        /* \"#utility.yul\":17201:17257   */\n      tag_242\n      jump\t// in\n    tag_443:\n        /* \"#utility.yul\":17280:17287   */\n      dup1\n        /* \"#utility.yul\":17311:17312   */\n      0x00\n        /* \"#utility.yul\":17296:17580   */\n    tag_444:\n        /* \"#utility.yul\":17321:17327   */\n      dup4\n        /* \"#utility.yul\":17318:17319   */\n      dup2\n        /* \"#utility.yul\":17315:17328   */\n      lt\n        /* \"#utility.yul\":17296:17580   */\n      iszero\n      tag_446\n      jumpi\n        /* \"#utility.yul\":17397:17403   */\n      dup2\n        /* \"#utility.yul\":17391:17404   */\n      mload\n        /* \"#utility.yul\":17424:17487   */\n      tag_447\n        /* \"#utility.yul\":17483:17486   */\n      dup9\n        /* \"#utility.yul\":17468:17481   */\n      dup3\n        /* \"#utility.yul\":17424:17487   */\n      tag_244\n      jump\t// in\n    tag_447:\n        /* \"#utility.yul\":17417:17487   */\n      swap8\n      pop\n        /* \"#utility.yul\":17510:17570   */\n      tag_448\n        /* \"#utility.yul\":17563:17569   */\n      dup4\n        /* \"#utility.yul\":17510:17570   */\n      tag_245\n      jump\t// in\n    tag_448:\n        /* \"#utility.yul\":17500:17570   */\n      swap3\n      pop\n        /* \"#utility.yul\":17356:17580   */\n      pop\n        /* \"#utility.yul\":17343:17344   */\n      0x01\n        /* \"#utility.yul\":17340:17341   */\n      dup2\n        /* \"#utility.yul\":17336:17345   */\n      add\n        /* \"#utility.yul\":17331:17345   */\n      swap1\n      pop\n        /* \"#utility.yul\":17296:17580   */\n      jump(tag_444)\n    tag_446:\n        /* \"#utility.yul\":17300:17314   */\n      pop\n        /* \"#utility.yul\":17596:17599   */\n      dup6\n        /* \"#utility.yul\":17589:17599   */\n      swap4\n      pop\n        /* \"#utility.yul\":16997:17605   */\n      pop\n      pop\n      pop\n        /* \"#utility.yul\":16873:17605   */\n      swap3\n      swap2\n      pop\n      pop\n      jump\t// out\n        /* \"#utility.yul\":17611:17984   */\n    tag_66:\n        /* \"#utility.yul\":17754:17758   */\n      0x00\n        /* \"#utility.yul\":17792:17794   */\n      0x20\n        /* \"#utility.yul\":17781:17790   */\n      dup3\n        /* \"#utility.yul\":17777:17795   */\n      add\n        /* \"#utility.yul\":17769:17795   */\n      swap1\n      pop\n        /* \"#utility.yul\":17841:17850   */\n      dup2\n        /* \"#utility.yul\":17835:17839   */\n      dup2\n        /* \"#utility.yul\":17831:17851   */\n      sub\n        /* \"#utility.yul\":17827:17828   */\n      0x00\n        /* \"#utility.yul\":17816:17825   */\n      dup4\n        /* \"#utility.yul\":17812:17829   */\n      add\n        /* \"#utility.yul\":17805:17852   */\n      mstore\n        /* \"#utility.yul\":17869:17977   */\n      tag_450\n        /* \"#utility.yul\":17972:17976   */\n      dup2\n        /* \"#utility.yul\":17963:17969   */\n      dup5\n        /* \"#utility.yul\":17869:17977   */\n      tag_246\n      jump\t// in\n    tag_450:\n        /* \"#utility.yul\":17861:17977   */\n      swap1\n      pop\n        /* \"#utility.yul\":17611:17984   */\n      swap3\n      swap2\n      pop\n      pop\n      jump\t// out\n        /* \"#utility.yul\":17990:18464   */\n    tag_70:\n        /* \"#utility.yul\":18058:18064   */\n      0x00\n        /* \"#utility.yul\":18066:18072   */\n      0x00\n        /* \"#utility.yul\":18115:18117   */\n      0x40\n        /* \"#utility.yul\":18103:18112   */\n      dup4\n        /* \"#utility.yul\":18094:18101   */\n      dup6\n        /* \"#utility.yul\":18090:18113   */\n      sub\n        /* \"#utility.yul\":18086:18118   */\n      slt\n        /* \"#utility.yul\":18083:18202   */\n      iszero\n      tag_452\n      jumpi\n        /* \"#utility.yul\":18121:18200   */\n      tag_453\n      tag_198\n      jump\t// in\n    tag_453:\n        /* \"#utility.yul\":18083:18202   */\n    tag_452:\n        /* \"#utility.yul\":18241:18242   */\n      0x00\n        /* \"#utility.yul\":18266:18319   */\n      tag_454\n        /* \"#utility.yul\":18311:18318   */\n      dup6\n        /* \"#utility.yul\":18302:18308   */\n      dup3\n        /* \"#utility.yul\":18291:18300   */\n      dup7\n        /* \"#utility.yul\":18287:18309   */\n      add\n        /* \"#utility.yul\":18266:18319   */\n      tag_234\n      jump\t// in\n    tag_454:\n        /* \"#utility.yul\":18256:18319   */\n      swap3\n      pop\n        /* \"#utility.yul\":18212:18329   */\n      pop\n        /* \"#utility.yul\":18368:18370   */\n      0x20\n        /* \"#utility.yul\":18394:18447   */\n      tag_455\n        /* \"#utility.yul\":18439:18446   */\n      dup6\n        /* \"#utility.yul\":18430:18436   */\n      dup3\n        /* \"#utility.yul\":18419:18428   */\n      dup7\n        /* \"#utility.yul\":18415:18437   */\n      add\n        /* \"#utility.yul\":18394:18447   */\n      tag_234\n      jump\t// in\n    tag_455:\n        /* \"#utility.yul\":18384:18447   */\n      swap2\n      pop\n        /* \"#utility.yul\":18339:18457   */\n      pop\n        /* \"#utility.yul\":17990:18464   */\n      swap3\n      pop\n      swap3\n      swap1\n      pop\n      jump\t// out\n        /* \"#utility.yul\":18470:18650   */\n    tag_92:\n        /* \"#utility.yul\":18518:18595   */\n      0x4e487b7100000000000000000000000000000000000000000000000000000000\n        /* \"#utility.yul\":18515:18516   */\n      0x00\n        /* \"#utility.yul\":18508:18596   */\n      mstore\n        /* \"#utility.yul\":18615:18619   */\n      0x32\n        /* \"#utility.yul\":18612:18613   */\n      0x04\n        /* \"#utility.yul\":18605:18620   */\n      mstore\n        /* \"#utility.yul\":18639:18643   */\n      0x24\n        /* \"#utility.yul\":18636:18637   */\n      0x00\n        /* \"#utility.yul\":18629:18644   */\n      revert\n        /* \"#utility.yul\":18656:18836   */\n    tag_247:\n        /* \"#utility.yul\":18704:18781   */\n      0x4e487b7100000000000000000000000000000000000000000000000000000000\n        /* \"#utility.yul\":18701:18702   */\n      0x00\n        /* \"#utility.yul\":18694:18782   */\n      mstore\n        /* \"#utility.yul\":18801:18805   */\n      0x22\n        /* \"#utility.yul\":18798:18799   */\n      0x04\n        /* \"#utility.yul\":18791:18806   */\n      mstore\n        /* \"#utility.yul\":18825:18829   */\n      0x24\n        /* \"#utility.yul\":18822:18823   */\n      0x00\n        /* \"#utility.yul\":18815:18830   */\n      revert\n        /* \"#utility.yul\":18842:19162   */\n    tag_94:\n        /* \"#utility.yul\":18886:18892   */\n      0x00\n        /* \"#utility.yul\":18923:18924   */\n      0x02\n        /* \"#utility.yul\":18917:18921   */\n      dup3\n        /* \"#utility.yul\":18913:18925   */\n      div\n        /* \"#utility.yul\":18903:18925   */\n      swap1\n      pop\n        /* \"#utility.yul\":18970:18971   */\n      0x01\n        /* \"#utility.yul\":18964:18968   */\n      dup3\n        /* \"#utility.yul\":18960:18972   */\n      and\n        /* \"#utility.yul\":18991:19009   */\n      dup1\n        /* \"#utility.yul\":18981:19062   */\n      tag_459\n      jumpi\n        /* \"#utility.yul\":19047:19051   */\n      0x7f\n        /* \"#utility.yul\":19039:19045   */\n      dup3\n        /* \"#utility.yul\":19035:19052   */\n      and\n        /* \"#utility.yul\":19025:19052   */\n      swap2\n      pop\n        /* \"#utility.yul\":18981:19062   */\n    tag_459:\n        /* \"#utility.yul\":19109:19111   */\n      0x20\n        /* \"#utility.yul\":19101:19107   */\n      dup3\n        /* \"#utility.yul\":19098:19112   */\n      lt\n        /* \"#utility.yul\":19078:19096   */\n      dup2\n        /* \"#utility.yul\":19075:19113   */\n      sub\n        /* \"#utility.yul\":19072:19156   */\n      tag_460\n      jumpi\n        /* \"#utility.yul\":19128:19146   */\n      tag_461\n      tag_247\n      jump\t// in\n    tag_461:\n        /* \"#utility.yul\":19072:19156   */\n    tag_460:\n        /* \"#utility.yul\":18893:19162   */\n      pop\n        /* \"#utility.yul\":18842:19162   */\n      swap2\n      swap1\n      pop\n      jump\t// out\n        /* \"#utility.yul\":19168:19348   */\n    tag_248:\n        /* \"#utility.yul\":19216:19293   */\n      0x4e487b7100000000000000000000000000000000000000000000000000000000\n        /* \"#utility.yul\":19213:19214   */\n      0x00\n        /* \"#utility.yul\":19206:19294   */\n      mstore\n        /* \"#utility.yul\":19313:19317   */\n      0x11\n        /* \"#utility.yul\":19310:19311   */\n      0x04\n        /* \"#utility.yul\":19303:19318   */\n      mstore\n        /* \"#utility.yul\":19337:19341   */\n      0x24\n        /* \"#utility.yul\":19334:19335   */\n      0x00\n        /* \"#utility.yul\":19327:19342   */\n      revert\n        /* \"#utility.yul\":19354:19587   */\n    tag_107:\n        /* \"#utility.yul\":19393:19396   */\n      0x00\n        /* \"#utility.yul\":19416:19440   */\n      tag_464\n        /* \"#utility.yul\":19434:19439   */\n      dup3\n        /* \"#utility.yul\":19416:19440   */\n      tag_219\n      jump\t// in\n    tag_464:\n        /* \"#utility.yul\":19407:19440   */\n      swap2\n      pop\n        /* \"#utility.yul\":19462:19528   */\n      0xffffffffffffffffffffffffffffffffffffffffffffffffffffffffffffffff\n        /* \"#utility.yul\":19455:19460   */\n      dup3\n        /* \"#utility.yul\":19452:19529   */\n      sub\n        /* \"#utility.yul\":19449:19552   */\n      tag_465\n      jumpi\n        /* \"#utility.yul\":19532:19550   */\n      tag_466\n      tag_248\n      jump\t// in\n    tag_466:\n        /* \"#utility.yul\":19449:19552   */\n    tag_465:\n        /* \"#utility.yul\":19579:19580   */\n      0x01\n        /* \"#utility.yul\":19572:19577   */\n      dup3\n        /* \"#utility.yul\":19568:19581   */\n      add\n        /* \"#utility.yul\":19561:19581   */\n      swap1\n      pop\n        /* \"#utility.yul\":19354:19587   */\n      swap2\n      swap1\n      pop\n      jump\t// out\n        /* \"#utility.yul\":19593:19767   */\n    tag_249:\n        /* \"#utility.yul\":19733:19759   */\n      0x5573657220616c72656164792072656769737465726564210000000000000000\n        /* \"#utility.yul\":19729:19730   */\n      0x00\n        /* \"#utility.yul\":19721:19727   */\n      dup3\n        /* \"#utility.yul\":19717:19731   */\n      add\n        /* \"#utility.yul\":19710:19760   */\n      mstore\n        /* \"#utility.yul\":19593:19767   */\n      pop\n      jump\t// out\n        /* \"#utility.yul\":19773:20139   */\n    tag_250:\n        /* \"#utility.yul\":19915:19918   */\n      0x00\n        /* \"#utility.yul\":19936:20003   */\n      tag_469\n        /* \"#utility.yul\":20000:20002   */\n      0x18\n        /* \"#utility.yul\":19995:19998   */\n      dup4\n        /* \"#utility.yul\":19936:20003   */\n      tag_237\n      jump\t// in\n    tag_469:\n        /* \"#utility.yul\":19929:20003   */\n      swap2\n      pop\n        /* \"#utility.yul\":20012:20105   */\n      tag_470\n        /* \"#utility.yul\":20101:20104   */\n      dup3\n        /* \"#utility.yul\":20012:20105   */\n      tag_249\n      jump\t// in\n    tag_470:\n        /* \"#utility.yul\":20130:20132   */\n      0x20\n        /* \"#utility.yul\":20125:20128   */\n      dup3\n        /* \"#utility.yul\":20121:20133   */\n      add\n        /* \"#utility.yul\":20114:20133   */\n      swap1\n      pop\n        /* \"#utility.yul\":19773:20139   */\n      swap2\n      swap1\n      pop\n      jump\t// out\n        /* \"#utility.yul\":20145:20564   */\n    tag_111:\n        /* \"#utility.yul\":20311:20315   */\n      0x00\n        /* \"#utility.yul\":20349:20351   */\n      0x20\n        /* \"#utility.yul\":20338:20347   */\n      dup3\n        /* \"#utility.yul\":20334:20352   */\n      add\n        /* \"#utility.yul\":20326:20352   */\n      swap1\n      pop\n        /* \"#utility.yul\":20398:20407   */\n      dup2\n        /* \"#utility.yul\":20392:20396   */\n      dup2\n        /* \"#utility.yul\":20388:20408   */\n      sub\n        /* \"#utility.yul\":20384:20385   */\n      0x00\n        /* \"#utility.yul\":20373:20382   */\n      dup4\n        /* \"#utility.yul\":20369:20386   */\n      add\n        /* \"#utility.yul\":20362:20409   */\n      mstore\n        /* \"#utility.yul\":20426:20557   */\n      tag_472\n        /* \"#utility.yul\":20552:20556   */\n      dup2\n        /* \"#utility.yul\":20426:20557   */\n      tag_250\n      jump\t// in\n    tag_472:\n        /* \"#utility.yul\":20418:20557   */\n      swap1\n      pop\n        /* \"#utility.yul\":20145:20564   */\n      swap2\n      swap1\n      pop\n      jump\t// out\n        /* \"#utility.yul\":20570:20738   */\n    tag_251:\n        /* \"#utility.yul\":20710:20730   */\n      0x4d61782055736572732072656163686564210000000000000000000000000000\n        /* \"#utility.yul\":20706:20707   */\n      0x00\n        /* \"#utility.yul\":20698:20704   */\n      dup3\n        /* \"#utility.yul\":20694:20708   */\n      add\n        /* \"#utility.yul\":20687:20731   */\n      mstore\n        /* \"#utility.yul\":20570:20738   */\n      pop\n      jump\t// out\n        /* \"#utility.yul\":20744:21110   */\n    tag_252:\n        /* \"#utility.yul\":20886:20889   */\n      0x00\n        /* \"#utility.yul\":20907:20974   */\n      tag_475\n        /* \"#utility.yul\":20971:20973   */\n      0x12\n        /* \"#utility.yul\":20966:20969   */\n      dup4\n        /* \"#utility.yul\":20907:20974   */\n      tag_237\n      jump\t// in\n    tag_475:\n        /* \"#utility.yul\":20900:20974   */\n      swap2\n      pop\n        /* \"#utility.yul\":20983:21076   */\n      tag_476\n        /* \"#utility.yul\":21072:21075   */\n      dup3\n        /* \"#utility.yul\":20983:21076   */\n      tag_251\n      jump\t// in\n    tag_476:\n        /* \"#utility.yul\":21101:21103   */\n      0x20\n        /* \"#utility.yul\":21096:21099   */\n      dup3\n        /* \"#utility.yul\":21092:21104   */\n      add\n        /* \"#utility.yul\":21085:21104   */\n      swap1\n      pop\n        /* \"#utility.yul\":20744:21110   */\n      swap2\n      swap1\n      pop\n      jump\t// out\n        /* \"#utility.yul\":21116:21535   */\n    tag_114:\n        /* \"#utility.yul\":21282:21286   */\n      0x00\n        /* \"#utility.yul\":21320:21322   */\n      0x20\n        /* \"#utility.yul\":21309:21318   */\n      dup3\n        /* \"#utility.yul\":21305:21323   */\n      add\n        /* \"#utility.yul\":21297:21323   */\n      swap1\n      pop\n        /* \"#utility.yul\":21369:21378   */\n      dup2\n        /* \"#utility.yul\":21363:21367   */\n      dup2\n        /* \"#utility.yul\":21359:21379   */\n      sub\n        /* \"#utility.yul\":21355:21356   */\n      0x00\n        /* \"#utility.yul\":21344:21353   */\n      dup4\n        /* \"#utility.yul\":21340:21357   */\n      add\n        /* \"#utility.yul\":21333:21380   */\n      mstore\n        /* \"#utility.yul\":21397:21528   */\n      tag_478\n        /* \"#utility.yul\":21523:21527   */\n      dup2\n        /* \"#utility.yul\":21397:21528   */\n      tag_252\n      jump\t// in\n    tag_478:\n        /* \"#utility.yul\":21389:21528   */\n      swap1\n      pop\n        /* \"#utility.yul\":21116:21535   */\n      swap2\n      swap1\n      pop\n      jump\t// out\n        /* \"#utility.yul\":21541:21705   */\n    tag_253:\n        /* \"#utility.yul\":21681:21697   */\n      0x4e616d6520726571756972656421000000000000000000000000000000000000\n        /* \"#utility.yul\":21677:21678   */\n      0x00\n        /* \"#utility.yul\":21669:21675   */\n      dup3\n        /* \"#utility.yul\":21665:21679   */\n      add\n        /* \"#utility.yul\":21658:21698   */\n      mstore\n        /* \"#utility.yul\":21541:21705   */\n      pop\n      jump\t// out\n        /* \"#utility.yul\":21711:22077   */\n    tag_254:\n        /* \"#utility.yul\":21853:21856   */\n      0x00\n        /* \"#utility.yul\":21874:21941   */\n      tag_481\n        /* \"#utility.yul\":21938:21940   */\n      0x0e\n        /* \"#utility.yul\":21933:21936   */\n      dup4\n        /* \"#utility.yul\":21874:21941   */\n      tag_237\n      jump\t// in\n    tag_481:\n        /* \"#utility.yul\":21867:21941   */\n      swap2\n      pop\n        /* \"#utility.yul\":21950:22043   */\n      tag_482\n        /* \"#utility.yul\":22039:22042   */\n      dup3\n        /* \"#utility.yul\":21950:22043   */\n      tag_253\n      jump\t// in\n    tag_482:\n        /* \"#utility.yul\":22068:22070   */\n      0x20\n        /* \"#utility.yul\":22063:22066   */\n      dup3\n        /* \"#utility.yul\":22059:22071   */\n      add\n        /* \"#utility.yul\":22052:22071   */\n      swap1\n      pop\n        /* \"#utility.yul\":21711:22077   */\n      swap2\n      swap1\n      pop\n      jump\t// out\n        /* \"#utility.yul\":22083:22502   */\n    tag_117:\n        /* \"#utility.yul\":22249:22253   */\n      0x00\n        /* \"#utility.yul\":22287:22289   */\n      0x20\n        /* \"#utility.yul\":22276:22285   */\n      dup3\n        /* \"#utility.yul\":22272:22290   */\n      add\n        /* \"#utility.yul\":22264:22290   */\n      swap1\n      pop\n        /* \"#utility.yul\":22336:22345   */\n      dup2\n        /* \"#utility.yul\":22330:22334   */\n      dup2\n        /* \"#utility.yul\":22326:22346   */\n      sub\n        /* \"#utility.yul\":22322:22323   */\n      0x00\n        /* \"#utility.yul\":22311:22320   */\n      dup4\n        /* \"#utility.yul\":22307:22324   */\n      add\n        /* \"#utility.yul\":22300:22347   */\n      mstore\n        /* \"#utility.yul\":22364:22495   */\n      tag_484\n        /* \"#utility.yul\":22490:22494   */\n      dup2\n        /* \"#utility.yul\":22364:22495   */\n      tag_254\n      jump\t// in\n    tag_484:\n        /* \"#utility.yul\":22356:22495   */\n      swap1\n      pop\n        /* \"#utility.yul\":22083:22502   */\n      swap2\n      swap1\n      pop\n      jump\t// out\n        /* \"#utility.yul\":22508:22673   */\n    tag_255:\n        /* \"#utility.yul\":22648:22665   */\n      0x456d61696c207265717569726564210000000000000000000000000000000000\n        /* \"#utility.yul\":22644:22645   */\n      0x00\n        /* \"#utility.yul\":22636:22642   */\n      dup3\n        /* \"#utility.yul\":22632:22646   */\n      add\n        /* \"#utility.yul\":22625:22666   */\n      mstore\n        /* \"#utility.yul\":22508:22673   */\n      pop\n      jump\t// out\n        /* \"#utility.yul\":22679:23045   */\n    tag_256:\n        /* \"#utility.yul\":22821:22824   */\n      0x00\n        /* \"#utility.yul\":22842:22909   */\n      tag_487\n        /* \"#utility.yul\":22906:22908   */\n      0x0f\n        /* \"#utility.yul\":22901:22904   */\n      dup4\n        /* \"#utility.yul\":22842:22909   */\n      tag_237\n      jump\t// in\n    tag_487:\n        /* \"#utility.yul\":22835:22909   */\n      swap2\n      pop\n        /* \"#utility.yul\":22918:23011   */\n      tag_488\n        /* \"#utility.yul\":23007:23010   */\n      dup3\n        /* \"#utility.yul\":22918:23011   */\n      tag_255\n      jump\t// in\n    tag_488:\n        /* \"#utility.yul\":23036:23038   */\n      0x20\n        /* \"#utility.yul\":23031:23034   */\n      dup3\n        /* \"#utility.yul\":23027:23039   */\n      add\n        /* \"#utility.yul\":23020:23039   */\n      swap1\n      pop\n        /* \"#utility.yul\":22679:23045   */\n      swap2\n      swap1\n      pop\n      jump\t// out\n        /* \"#utility.yul\":23051:23470   */\n    tag_120:\n        /* \"#utility.yul\":23217:23221   */\n      0x00\n        /* \"#utility.yul\":23255:23257   */\n      0x20\n        /* \"#utility.yul\":23244:23253   */\n      dup3\n        /* \"#utility.yul\":23240:23258   */\n      add\n        /* \"#utility.yul\":23232:23258   */\n      swap1\n      pop\n        /* \"#utility.yul\":23304:23313   */\n      dup2\n        /* \"#utility.yul\":23298:23302   */\n      dup2\n        /* \"#utility.yul\":23294:23314   */\n      sub\n        /* \"#utility.yul\":23290:23291   */\n      0x00\n        /* \"#utility.yul\":23279:23288   */\n      dup4\n        /* \"#utility.yul\":23275:23292   */\n      add\n        /* \"#utility.yul\":23268:23315   */\n      mstore\n        /* \"#utility.yul\":23332:23463   */\n      tag_490\n        /* \"#utility.yul\":23458:23462   */\n      dup2\n        /* \"#utility.yul\":23332:23463   */\n      tag_256\n      jump\t// in\n    tag_490:\n        /* \"#utility.yul\":23324:23463   */\n      swap1\n      pop\n        /* \"#utility.yul\":23051:23470   */\n      swap2\n      swap1\n      pop\n      jump\t// out\n        /* \"#utility.yul\":23476:23617   */\n    tag_257:\n        /* \"#utility.yul\":23525:23529   */\n      0x00\n        /* \"#utility.yul\":23548:23551   */\n      dup2\n        /* \"#utility.yul\":23540:23551   */\n      swap1\n      pop\n        /* \"#utility.yul\":23571:23574   */\n      dup2\n        /* \"#utility.yul\":23568:23569   */\n      0x00\n        /* \"#utility.yul\":23561:23575   */\n      mstore\n        /* \"#utility.yul\":23605:23609   */\n      0x20\n        /* \"#utility.yul\":23602:23603   */\n      0x00\n        /* \"#utility.yul\":23592:23610   */\n      keccak256\n        /* \"#utility.yul\":23584:23610   */\n      swap1\n      pop\n        /* \"#utility.yul\":23476:23617   */\n      swap2\n      swap1\n      pop\n      jump\t// out\n        /* \"#utility.yul\":23623:23716   */\n    tag_258:\n        /* \"#utility.yul\":23660:23666   */\n      0x00\n        /* \"#utility.yul\":23707:23709   */\n      0x20\n        /* \"#utility.yul\":23702:23704   */\n      0x1f\n        /* \"#utility.yul\":23695:23700   */\n      dup4\n        /* \"#utility.yul\":23691:23705   */\n      add\n        /* \"#utility.yul\":23687:23710   */\n      div\n        /* \"#utility.yul\":23677:23710   */\n      swap1\n      pop\n        /* \"#utility.yul\":23623:23716   */\n      swap2\n      swap1\n      pop\n      jump\t// out\n        /* \"#utility.yul\":23722:23829   */\n    tag_259:\n        /* \"#utility.yul\":23766:23774   */\n      0x00\n        /* \"#utility.yul\":23816:23821   */\n      dup3\n        /* \"#utility.yul\":23810:23814   */\n      dup3\n        /* \"#utility.yul\":23806:23822   */\n      shl\n        /* \"#utility.yul\":23785:23822   */\n      swap1\n      pop\n        /* \"#utility.yul\":23722:23829   */\n      swap3\n      swap2\n      pop\n      pop\n      jump\t// out\n        /* \"#utility.yul\":23835:24228   */\n    tag_260:\n        /* \"#utility.yul\":23904:23910   */\n      0x00\n        /* \"#utility.yul\":23954:23955   */\n      0x08\n        /* \"#utility.yul\":23942:23952   */\n      dup4\n        /* \"#utility.yul\":23938:23956   */\n      mul\n        /* \"#utility.yul\":23977:24074   */\n      tag_495\n        /* \"#utility.yul\":24007:24073   */\n      0xffffffffffffffffffffffffffffffffffffffffffffffffffffffffffffffff\n        /* \"#utility.yul\":23996:24005   */\n      dup3\n        /* \"#utility.yul\":23977:24074   */\n      tag_259\n      jump\t// in\n    tag_495:\n        /* \"#utility.yul\":24095:24134   */\n      tag_496\n        /* \"#utility.yul\":24125:24133   */\n      dup7\n        /* \"#utility.yul\":24114:24123   */\n      dup4\n        /* \"#utility.yul\":24095:24134   */\n      tag_259\n      jump\t// in\n    tag_496:\n        /* \"#utility.yul\":24083:24134   */\n      swap6\n      pop\n        /* \"#utility.yul\":24167:24171   */\n      dup1\n        /* \"#utility.yul\":24163:24172   */\n      not\n        /* \"#utility.yul\":24156:24161   */\n      dup5\n        /* \"#utility.yul\":24152:24173   */\n      and\n        /* \"#utility.yul\":24143:24173   */\n      swap4\n      pop\n        /* \"#utility.yul\":24216:24220   */\n      dup1\n        /* \"#utility.yul\":24206:24214   */\n      dup7\n        /* \"#utility.yul\":24202:24221   */\n      and\n        /* \"#utility.yul\":24195:24200   */\n      dup5\n        /* \"#utility.yul\":24192:24222   */\n      or\n        /* \"#utility.yul\":24182:24222   */\n      swap3\n      pop\n        /* \"#utility.yul\":23911:24228   */\n      pop\n      pop\n        /* \"#utility.yul\":23835:24228   */\n      swap4\n      swap3\n      pop\n      pop\n      pop\n      jump\t// out\n        /* \"#utility.yul\":24234:24294   */\n    tag_261:\n        /* \"#utility.yul\":24262:24265   */\n      0x00\n        /* \"#utility.yul\":24283:24288   */\n      dup2\n        /* \"#utility.yul\":24276:24288   */\n      swap1\n      pop\n        /* \"#utility.yul\":24234:24294   */\n      swap2\n      swap1\n      pop\n      jump\t// out\n        /* \"#utility.yul\":24300:24442   */\n    tag_262:\n        /* \"#utility.yul\":24350:24359   */\n      0x00\n        /* \"#utility.yul\":24383:24436   */\n      tag_499\n        /* \"#utility.yul\":24401:24435   */\n      tag_500\n        /* \"#utility.yul\":24410:24434   */\n      tag_501\n        /* \"#utility.yul\":24428:24433   */\n      dup5\n        /* \"#utility.yul\":24410:24434   */\n      tag_219\n      jump\t// in\n    tag_501:\n        /* \"#utility.yul\":24401:24435   */\n      tag_261\n      jump\t// in\n    tag_500:\n        /* \"#utility.yul\":24383:24436   */\n      tag_219\n      jump\t// in\n    tag_499:\n        /* \"#utility.yul\":24370:24436   */\n      swap1\n      pop\n        /* \"#utility.yul\":24300:24442   */\n      swap2\n      swap1\n      pop\n      jump\t// out\n        /* \"#utility.yul\":24448:24523   */\n    tag_263:\n        /* \"#utility.yul\":24491:24494   */\n      0x00\n        /* \"#utility.yul\":24512:24517   */\n      dup2\n        /* \"#utility.yul\":24505:24517   */\n      swap1\n      pop\n        /* \"#utility.yul\":24448:24523   */\n      swap2\n      swap1\n      pop\n      jump\t// out\n        /* \"#utility.yul\":24529:24798   */\n    tag_264:\n        /* \"#utility.yul\":24639:24678   */\n      tag_504\n        /* \"#utility.yul\":24670:24677   */\n      dup4\n        /* \"#utility.yul\":24639:24678   */\n      tag_262\n      jump\t// in\n    tag_504:\n        /* \"#utility.yul\":24700:24791   */\n      tag_505\n        /* \"#utility.yul\":24749:24790   */\n      tag_506\n        /* \"#utility.yul\":24773:24789   */\n      dup3\n        /* \"#utility.yul\":24749:24790   */\n      tag_263\n      jump\t// in\n    tag_506:\n        /* \"#utility.yul\":24741:24747   */\n      dup5\n        /* \"#utility.yul\":24734:24738   */\n      dup5\n        /* \"#utility.yul\":24728:24739   */\n      sload\n        /* \"#utility.yul\":24700:24791   */\n      tag_260\n      jump\t// in\n    tag_505:\n        /* \"#utility.yul\":24694:24698   */\n      dup3\n        /* \"#utility.yul\":24687:24792   */\n      sstore\n        /* \"#utility.yul\":24605:24798   */\n      pop\n        /* \"#utility.yul\":24529:24798   */\n      pop\n      pop\n      pop\n      jump\t// out\n        /* \"#utility.yul\":24804:24877   */\n    tag_265:\n        /* \"#utility.yul\":24849:24852   */\n      0x00\n        /* \"#utility.yul\":24870:24871   */\n      0x00\n        /* \"#utility.yul\":24863:24871   */\n      swap1\n      pop\n        /* \"#utility.yul\":24804:24877   */\n      swap1\n      jump\t// out\n        /* \"#utility.yul\":24883:25072   */\n    tag_266:\n        /* \"#utility.yul\":24960:24992   */\n      tag_509\n      tag_265\n      jump\t// in\n    tag_509:\n        /* \"#utility.yul\":25001:25066   */\n      tag_510\n        /* \"#utility.yul\":25059:25065   */\n      dup2\n        /* \"#utility.yul\":25051:25057   */\n      dup5\n        /* \"#utility.yul\":25045:25049   */\n      dup5\n        /* \"#utility.yul\":25001:25066   */\n      tag_264\n      jump\t// in\n    tag_510:\n        /* \"#utility.yul\":24936:25072   */\n      pop\n        /* \"#utility.yul\":24883:25072   */\n      pop\n      pop\n      jump\t// out\n        /* \"#utility.yul\":25078:25292   */\n    tag_267:\n        /* \"#utility.yul\":25163:25164   */\n      0x00\n        /* \"#utility.yul\":25148:25286   */\n    tag_512:\n        /* \"#utility.yul\":25173:25182   */\n      dup3\n        /* \"#utility.yul\":25170:25171   */\n      dup2\n        /* \"#utility.yul\":25167:25183   */\n      lt\n        /* \"#utility.yul\":25148:25286   */\n      iszero\n      tag_514\n      jumpi\n        /* \"#utility.yul\":25225:25276   */\n      tag_515\n        /* \"#utility.yul\":25274:25275   */\n      0x00\n        /* \"#utility.yul\":25270:25271   */\n      dup3\n        /* \"#utility.yul\":25259:25268   */\n      dup5\n        /* \"#utility.yul\":25255:25272   */\n      add\n        /* \"#utility.yul\":25225:25276   */\n      tag_266\n      jump\t// in\n    tag_515:\n        /* \"#utility.yul\":25198:25199   */\n      0x01\n        /* \"#utility.yul\":25195:25196   */\n      dup2\n        /* \"#utility.yul\":25191:25200   */\n      add\n        /* \"#utility.yul\":25186:25200   */\n      swap1\n      pop\n        /* \"#utility.yul\":25148:25286   */\n      jump(tag_512)\n    tag_514:\n        /* \"#utility.yul\":25152:25166   */\n      pop\n        /* \"#utility.yul\":25078:25292   */\n      pop\n      pop\n      jump\t// out\n        /* \"#utility.yul\":25298:26044   */\n    tag_268:\n        /* \"#utility.yul\":25399:25401   */\n      0x1f\n        /* \"#utility.yul\":25394:25397   */\n      dup3\n        /* \"#utility.yul\":25391:25402   */\n      gt\n        /* \"#utility.yul\":25388:26037   */\n      iszero\n      tag_517\n      jumpi\n        /* \"#utility.yul\":25428:25438   */\n      dup3\n        /* \"#utility.yul\":25423:25426   */\n      dup3\n        /* \"#utility.yul\":25420:25439   */\n      gt\n        /* \"#utility.yul\":25417:26027   */\n      iszero\n      tag_518\n      jumpi\n        /* \"#utility.yul\":25474:25512   */\n      tag_519\n        /* \"#utility.yul\":25506:25511   */\n      dup2\n        /* \"#utility.yul\":25474:25512   */\n      tag_257\n      jump\t// in\n    tag_519:\n        /* \"#utility.yul\":25549:25571   */\n      tag_520\n        /* \"#utility.yul\":25567:25570   */\n      dup4\n        /* \"#utility.yul\":25549:25571   */\n      tag_258\n      jump\t// in\n    tag_520:\n        /* \"#utility.yul\":25608:25637   */\n      tag_521\n        /* \"#utility.yul\":25626:25636   */\n      dup6\n        /* \"#utility.yul\":25608:25637   */\n      tag_258\n      jump\t// in\n    tag_521:\n        /* \"#utility.yul\":25798:25800   */\n      0x20\n        /* \"#utility.yul\":25786:25796   */\n      dup7\n        /* \"#utility.yul\":25783:25801   */\n      lt\n        /* \"#utility.yul\":25780:25859   */\n      iszero\n      tag_522\n      jumpi\n        /* \"#utility.yul\":25840:25841   */\n      0x00\n        /* \"#utility.yul\":25824:25841   */\n      swap1\n      pop\n        /* \"#utility.yul\":25780:25859   */\n    tag_522:\n        /* \"#utility.yul\":25909:25921   */\n      dup1\n        /* \"#utility.yul\":25899:25907   */\n      dup4\n        /* \"#utility.yul\":25895:25922   */\n      add\n        /* \"#utility.yul\":25939:26013   */\n      tag_523\n        /* \"#utility.yul\":25999:26011   */\n      dup3\n        /* \"#utility.yul\":25985:25997   */\n      dup5\n        /* \"#utility.yul\":25981:26012   */\n      sub\n        /* \"#utility.yul\":25968:25979   */\n      dup3\n        /* \"#utility.yul\":25939:26013   */\n      tag_267\n      jump\t// in\n    tag_523:\n        /* \"#utility.yul\":25440:26027   */\n      pop\n      pop\n      pop\n      pop\n        /* \"#utility.yul\":25417:26027   */\n    tag_518:\n        /* \"#utility.yul\":25388:26037   */\n    tag_517:\n        /* \"#utility.yul\":25298:26044   */\n      pop\n      pop\n      pop\n      jump\t// out\n        /* \"#utility.yul\":26050:26167   */\n    tag_269:\n        /* \"#utility.yul\":26104:26112   */\n      0x00\n        /* \"#utility.yul\":26154:26159   */\n      dup3\n        /* \"#utility.yul\":26148:26152   */\n      dup3\n        /* \"#utility.yul\":26144:26160   */\n      shr\n        /* \"#utility.yul\":26123:26160   */\n      swap1\n      pop\n        /* \"#utility.yul\":26050:26167   */\n      swap3\n      swap2\n      pop\n      pop\n      jump\t// out\n        /* \"#utility.yul\":26173:26342   */\n    tag_270:\n        /* \"#utility.yul\":26217:26223   */\n      0x00\n        /* \"#utility.yul\":26250:26301   */\n      tag_526\n        /* \"#utility.yul\":26298:26299   */\n      0x00\n        /* \"#utility.yul\":26294:26300   */\n      not\n        /* \"#utility.yul\":26286:26291   */\n      dup5\n        /* \"#utility.yul\":26283:26284   */\n      0x08\n        /* \"#utility.yul\":26279:26292   */\n      mul\n        /* \"#utility.yul\":26250:26301   */\n      tag_269\n      jump\t// in\n    tag_526:\n        /* \"#utility.yul\":26246:26302   */\n      not\n        /* \"#utility.yul\":26331:26335   */\n      dup1\n        /* \"#utility.yul\":26325:26329   */\n      dup4\n        /* \"#utility.yul\":26321:26336   */\n      and\n        /* \"#utility.yul\":26311:26336   */\n      swap2\n      pop\n        /* \"#utility.yul\":26224:26342   */\n      pop\n        /* \"#utility.yul\":26173:26342   */\n      swap3\n      swap2\n      pop\n      pop\n      jump\t// out\n        /* \"#utility.yul\":26347:26642   */\n    tag_271:\n        /* \"#utility.yul\":26423:26427   */\n      0x00\n        /* \"#utility.yul\":26569:26598   */\n      tag_528\n        /* \"#utility.yul\":26594:26597   */\n      dup4\n        /* \"#utility.yul\":26588:26592   */\n      dup4\n        /* \"#utility.yul\":26569:26598   */\n      tag_270\n      jump\t// in\n    tag_528:\n        /* \"#utility.yul\":26561:26598   */\n      swap2\n      pop\n        /* \"#utility.yul\":26631:26634   */\n      dup3\n        /* \"#utility.yul\":26628:26629   */\n      0x02\n        /* \"#utility.yul\":26624:26635   */\n      mul\n        /* \"#utility.yul\":26618:26622   */\n      dup3\n        /* \"#utility.yul\":26615:26636   */\n      or\n        /* \"#utility.yul\":26607:26636   */\n      swap1\n      pop\n        /* \"#utility.yul\":26347:26642   */\n      swap3\n      swap2\n      pop\n      pop\n      jump\t// out\n        /* \"#utility.yul\":26647:28042   */\n    tag_122:\n        /* \"#utility.yul\":26764:26801   */\n      tag_530\n        /* \"#utility.yul\":26797:26800   */\n      dup3\n        /* \"#utility.yul\":26764:26801   */\n      tag_215\n      jump\t// in\n    tag_530:\n        /* \"#utility.yul\":26866:26884   */\n      0xffffffffffffffff\n        /* \"#utility.yul\":26858:26864   */\n      dup2\n        /* \"#utility.yul\":26855:26885   */\n      gt\n        /* \"#utility.yul\":26852:26908   */\n      iszero\n      tag_531\n      jumpi\n        /* \"#utility.yul\":26888:26906   */\n      tag_532\n      tag_82\n      jump\t// in\n    tag_532:\n        /* \"#utility.yul\":26852:26908   */\n    tag_531:\n        /* \"#utility.yul\":26932:26970   */\n      tag_533\n        /* \"#utility.yul\":26964:26968   */\n      dup3\n        /* \"#utility.yul\":26958:26969   */\n      sload\n        /* \"#utility.yul\":26932:26970   */\n      tag_94\n      jump\t// in\n    tag_533:\n        /* \"#utility.yul\":27017:27084   */\n      tag_534\n        /* \"#utility.yul\":27077:27083   */\n      dup3\n        /* \"#utility.yul\":27069:27075   */\n      dup3\n        /* \"#utility.yul\":27063:27067   */\n      dup6\n        /* \"#utility.yul\":27017:27084   */\n      tag_268\n      jump\t// in\n    tag_534:\n        /* \"#utility.yul\":27111:27112   */\n      0x00\n        /* \"#utility.yul\":27135:27139   */\n      0x20\n        /* \"#utility.yul\":27122:27139   */\n      swap1\n      pop\n        /* \"#utility.yul\":27167:27169   */\n      0x1f\n        /* \"#utility.yul\":27159:27165   */\n      dup4\n        /* \"#utility.yul\":27156:27170   */\n      gt\n        /* \"#utility.yul\":27184:27185   */\n      0x01\n        /* \"#utility.yul\":27179:27797   */\n      dup2\n      eq\n      tag_536\n      jumpi\n        /* \"#utility.yul\":27841:27842   */\n      0x00\n        /* \"#utility.yul\":27858:27864   */\n      dup5\n        /* \"#utility.yul\":27855:27932   */\n      iszero\n      tag_537\n      jumpi\n        /* \"#utility.yul\":27907:27916   */\n      dup3\n        /* \"#utility.yul\":27902:27905   */\n      dup8\n        /* \"#utility.yul\":27898:27917   */\n      add\n        /* \"#utility.yul\":27892:27918   */\n      mload\n        /* \"#utility.yul\":27883:27918   */\n      swap1\n      pop\n        /* \"#utility.yul\":27855:27932   */\n    tag_537:\n        /* \"#utility.yul\":27958:28025   */\n      tag_538\n        /* \"#utility.yul\":28018:28024   */\n      dup6\n        /* \"#utility.yul\":28011:28016   */\n      dup3\n        /* \"#utility.yul\":27958:28025   */\n      tag_271\n      jump\t// in\n    tag_538:\n        /* \"#utility.yul\":27952:27956   */\n      dup7\n        /* \"#utility.yul\":27945:28026   */\n      sstore\n        /* \"#utility.yul\":27814:28036   */\n      pop\n        /* \"#utility.yul\":27149:28036   */\n      jump(tag_535)\n        /* \"#utility.yul\":27179:27797   */\n    tag_536:\n        /* \"#utility.yul\":27231:27235   */\n      0x1f\n        /* \"#utility.yul\":27227:27236   */\n      not\n        /* \"#utility.yul\":27219:27225   */\n      dup5\n        /* \"#utility.yul\":27215:27237   */\n      and\n        /* \"#utility.yul\":27265:27302   */\n      tag_539\n        /* \"#utility.yul\":27297:27301   */\n      dup7\n        /* \"#utility.yul\":27265:27302   */\n      tag_257\n      jump\t// in\n    tag_539:\n        /* \"#utility.yul\":27324:27325   */\n      0x00\n        /* \"#utility.yul\":27338:27546   */\n    tag_540:\n        /* \"#utility.yul\":27352:27359   */\n      dup3\n        /* \"#utility.yul\":27349:27350   */\n      dup2\n        /* \"#utility.yul\":27346:27360   */\n      lt\n        /* \"#utility.yul\":27338:27546   */\n      iszero\n      tag_542\n      jumpi\n        /* \"#utility.yul\":27431:27440   */\n      dup5\n        /* \"#utility.yul\":27426:27429   */\n      dup10\n        /* \"#utility.yul\":27422:27441   */\n      add\n        /* \"#utility.yul\":27416:27442   */\n      mload\n        /* \"#utility.yul\":27408:27414   */\n      dup3\n        /* \"#utility.yul\":27401:27443   */\n      sstore\n        /* \"#utility.yul\":27482:27483   */\n      0x01\n        /* \"#utility.yul\":27474:27480   */\n      dup3\n        /* \"#utility.yul\":27470:27484   */\n      add\n        /* \"#utility.yul\":27460:27484   */\n      swap2\n      pop\n        /* \"#utility.yul\":27529:27531   */\n      0x20\n        /* \"#utility.yul\":27518:27527   */\n      dup6\n        /* \"#utility.yul\":27514:27532   */\n      add\n        /* \"#utility.yul\":27501:27532   */\n      swap5\n      pop\n        /* \"#utility.yul\":27375:27379   */\n      0x20\n        /* \"#utility.yul\":27372:27373   */\n      dup2\n        /* \"#utility.yul\":27368:27380   */\n      add\n        /* \"#utility.yul\":27363:27380   */\n      swap1\n      pop\n        /* \"#utility.yul\":27338:27546   */\n      jump(tag_540)\n    tag_542:\n        /* \"#utility.yul\":27574:27580   */\n      dup7\n        /* \"#utility.yul\":27565:27572   */\n      dup4\n        /* \"#utility.yul\":27562:27581   */\n      lt\n        /* \"#utility.yul\":27559:27738   */\n      iszero\n      tag_543\n      jumpi\n        /* \"#utility.yul\":27632:27641   */\n      dup5\n        /* \"#utility.yul\":27627:27630   */\n      dup10\n        /* \"#utility.yul\":27623:27642   */\n      add\n        /* \"#utility.yul\":27617:27643   */\n      mload\n        /* \"#utility.yul\":27675:27723   */\n      tag_544\n        /* \"#utility.yul\":27717:27721   */\n      0x1f\n        /* \"#utility.yul\":27709:27715   */\n      dup10\n        /* \"#utility.yul\":27705:27722   */\n      and\n        /* \"#utility.yul\":27694:27703   */\n      dup3\n        /* \"#utility.yul\":27675:27723   */\n      tag_270\n      jump\t// in\n    tag_544:\n        /* \"#utility.yul\":27667:27673   */\n      dup4\n        /* \"#utility.yul\":27660:27724   */\n      sstore\n        /* \"#utility.yul\":27582:27738   */\n      pop\n        /* \"#utility.yul\":27559:27738   */\n    tag_543:\n        /* \"#utility.yul\":27784:27785   */\n      0x01\n        /* \"#utility.yul\":27780:27781   */\n      0x02\n        /* \"#utility.yul\":27772:27778   */\n      dup9\n        /* \"#utility.yul\":27768:27782   */\n      mul\n        /* \"#utility.yul\":27764:27786   */\n      add\n        /* \"#utility.yul\":27758:27762   */\n      dup9\n        /* \"#utility.yul\":27751:27787   */\n      sstore\n        /* \"#utility.yul\":27186:27797   */\n      pop\n      pop\n      pop\n        /* \"#utility.yul\":27149:28036   */\n    tag_535:\n      pop\n        /* \"#utility.yul\":26739:28042   */\n      pop\n      pop\n      pop\n        /* \"#utility.yul\":26647:28042   */\n      pop\n      pop\n      jump\t// out\n        /* \"#utility.yul\":28048:28361   */\n    tag_127:\n        /* \"#utility.yul\":28161:28165   */\n      0x00\n        /* \"#utility.yul\":28199:28201   */\n      0x20\n        /* \"#utility.yul\":28188:28197   */\n      dup3\n        /* \"#utility.yul\":28184:28202   */\n      add\n        /* \"#utility.yul\":28176:28202   */\n      swap1\n      pop\n        /* \"#utility.yul\":28248:28257   */\n      dup2\n        /* \"#utility.yul\":28242:28246   */\n      dup2\n        /* \"#utility.yul\":28238:28258   */\n      sub\n        /* \"#utility.yul\":28234:28235   */\n      0x00\n        /* \"#utility.yul\":28223:28232   */\n      dup4\n        /* \"#utility.yul\":28219:28236   */\n      add\n        /* \"#utility.yul\":28212:28259   */\n      mstore\n        /* \"#utility.yul\":28276:28354   */\n      tag_546\n        /* \"#utility.yul\":28349:28353   */\n      dup2\n        /* \"#utility.yul\":28340:28346   */\n      dup5\n        /* \"#utility.yul\":28276:28354   */\n      tag_238\n      jump\t// in\n    tag_546:\n        /* \"#utility.yul\":28268:28354   */\n      swap1\n      pop\n        /* \"#utility.yul\":28048:28361   */\n      swap3\n      swap2\n      pop\n      pop\n      jump\t// out\n        /* \"#utility.yul\":28367:28533   */\n    tag_272:\n        /* \"#utility.yul\":28507:28525   */\n      0x55736572206e6f74206578697374732100000000000000000000000000000000\n        /* \"#utility.yul\":28503:28504   */\n      0x00\n        /* \"#utility.yul\":28495:28501   */\n      dup3\n        /* \"#utility.yul\":28491:28505   */\n      add\n        /* \"#utility.yul\":28484:28526   */\n      mstore\n        /* \"#utility.yul\":28367:28533   */\n      pop\n      jump\t// out\n        /* \"#utility.yul\":28539:28905   */\n    tag_273:\n        /* \"#utility.yul\":28681:28684   */\n      0x00\n        /* \"#utility.yul\":28702:28769   */\n      tag_549\n        /* \"#utility.yul\":28766:28768   */\n      0x10\n        /* \"#utility.yul\":28761:28764   */\n      dup4\n        /* \"#utility.yul\":28702:28769   */\n      tag_237\n      jump\t// in\n    tag_549:\n        /* \"#utility.yul\":28695:28769   */\n      swap2\n      pop\n        /* \"#utility.yul\":28778:28871   */\n      tag_550\n        /* \"#utility.yul\":28867:28870   */\n      dup3\n        /* \"#utility.yul\":28778:28871   */\n      tag_272\n      jump\t// in\n    tag_550:\n        /* \"#utility.yul\":28896:28898   */\n      0x20\n        /* \"#utility.yul\":28891:28894   */\n      dup3\n        /* \"#utility.yul\":28887:28899   */\n      add\n        /* \"#utility.yul\":28880:28899   */\n      swap1\n      pop\n        /* \"#utility.yul\":28539:28905   */\n      swap2\n      swap1\n      pop\n      jump\t// out\n        /* \"#utility.yul\":28911:29330   */\n    tag_134:\n        /* \"#utility.yul\":29077:29081   */\n      0x00\n        /* \"#utility.yul\":29115:29117   */\n      0x20\n        /* \"#utility.yul\":29104:29113   */\n      dup3\n        /* \"#utility.yul\":29100:29118   */\n      add\n        /* \"#utility.yul\":29092:29118   */\n      swap1\n      pop\n        /* \"#utility.yul\":29164:29173   */\n      dup2\n        /* \"#utility.yul\":29158:29162   */\n      dup2\n        /* \"#utility.yul\":29154:29174   */\n      sub\n        /* \"#utility.yul\":29150:29151   */\n      0x00\n        /* \"#utility.yul\":29139:29148   */\n      dup4\n        /* \"#utility.yul\":29135:29152   */\n      add\n        /* \"#utility.yul\":29128:29175   */\n      mstore\n        /* \"#utility.yul\":29192:29323   */\n      tag_552\n        /* \"#utility.yul\":29318:29322   */\n      dup2\n        /* \"#utility.yul\":29192:29323   */\n      tag_273\n      jump\t// in\n    tag_552:\n        /* \"#utility.yul\":29184:29323   */\n      swap1\n      pop\n        /* \"#utility.yul\":28911:29330   */\n      swap2\n      swap1\n      pop\n      jump\t// out\n        /* \"#utility.yul\":29336:29500   */\n    tag_274:\n        /* \"#utility.yul\":29476:29492   */\n      0x496e76616c69642072616e676521000000000000000000000000000000000000\n        /* \"#utility.yul\":29472:29473   */\n      0x00\n        /* \"#utility.yul\":29464:29470   */\n      dup3\n        /* \"#utility.yul\":29460:29474   */\n      add\n        /* \"#utility.yul\":29453:29493   */\n      mstore\n        /* \"#utility.yul\":29336:29500   */\n      pop\n      jump\t// out\n        /* \"#utility.yul\":29506:29872   */\n    tag_275:\n        /* \"#utility.yul\":29648:29651   */\n      0x00\n        /* \"#utility.yul\":29669:29736   */\n      tag_555\n        /* \"#utility.yul\":29733:29735   */\n      0x0e\n        /* \"#utility.yul\":29728:29731   */\n      dup4\n        /* \"#utility.yul\":29669:29736   */\n      tag_237\n      jump\t// in\n    tag_555:\n        /* \"#utility.yul\":29662:29736   */\n      swap2\n      pop\n        /* \"#utility.yul\":29745:29838   */\n      tag_556\n        /* \"#utility.yul\":29834:29837   */\n      dup3\n        /* \"#utility.yul\":29745:29838   */\n      tag_274\n      jump\t// in\n    tag_556:\n        /* \"#utility.yul\":29863:29865   */\n      0x20\n        /* \"#utility.yul\":29858:29861   */\n      dup3\n        /* \"#utility.yul\":29854:29866   */\n      add\n        /* \"#utility.yul\":29847:29866   */\n      swap1\n      pop\n        /* \"#utility.yul\":29506:29872   */\n      swap2\n      swap1\n      pop\n      jump\t// out\n        /* \"#utility.yul\":29878:30297   */\n    tag_170:\n        /* \"#utility.yul\":30044:30048   */\n      0x00\n        /* \"#utility.yul\":30082:30084   */\n      0x20\n        /* \"#utility.yul\":30071:30080   */\n      dup3\n        /* \"#utility.yul\":30067:30085   */\n      add\n        /* \"#utility.yul\":30059:30085   */\n      swap1\n      pop\n        /* \"#utility.yul\":30131:30140   */\n      dup2\n        /* \"#utility.yul\":30125:30129   */\n      dup2\n        /* \"#utility.yul\":30121:30141   */\n      sub\n        /* \"#utility.yul\":30117:30118   */\n      0x00\n        /* \"#utility.yul\":30106:30115   */\n      dup4\n        /* \"#utility.yul\":30102:30119   */\n      add\n        /* \"#utility.yul\":30095:30142   */\n      mstore\n        /* \"#utility.yul\":30159:30290   */\n      tag_558\n        /* \"#utility.yul\":30285:30289   */\n      dup2\n        /* \"#utility.yul\":30159:30290   */\n      tag_275\n      jump\t// in\n    tag_558:\n        /* \"#utility.yul\":30151:30290   */\n      swap1\n      pop\n        /* \"#utility.yul\":29878:30297   */\n      swap2\n      swap1\n      pop\n      jump\t// out\n        /* \"#utility.yul\":30303:30473   */\n    tag_276:\n        /* \"#utility.yul\":30443:30465   */\n      0x496e646578206f7574206f6620626f756e647321000000000000000000000000\n        /* \"#utility.yul\":30439:30440   */\n      0x00\n        /* \"#utility.yul\":30431:30437   */\n      dup3\n        /* \"#utility.yul\":30427:30441   */\n      add\n        /* \"#utility.yul\":30420:30466   */\n      mstore\n        /* \"#utility.yul\":30303:30473   */\n      pop\n      jump\t// out\n        /* \"#utility.yul\":30479:30845   */\n    tag_277:\n        /* \"#utility.yul\":30621:30624   */\n      0x00\n        /* \"#utility.yul\":30642:30709   */\n      tag_561\n        /* \"#utility.yul\":30706:30708   */\n      0x14\n        /* \"#utility.yul\":30701:30704   */\n      dup4\n        /* \"#utility.yul\":30642:30709   */\n      tag_237\n      jump\t// in\n    tag_561:\n        /* \"#utility.yul\":30635:30709   */\n      swap2\n      pop\n        /* \"#utility.yul\":30718:30811   */\n      tag_562\n        /* \"#utility.yul\":30807:30810   */\n      dup3\n        /* \"#utility.yul\":30718:30811   */\n      tag_276\n      jump\t// in\n    tag_562:\n        /* \"#utility.yul\":30836:30838   */\n      0x20\n        /* \"#utility.yul\":30831:30834   */\n      dup3\n        /* \"#utility.yul\":30827:30839   */\n      add\n        /* \"#utility.yul\":30820:30839   */\n      swap1\n      pop\n        /* \"#utility.yul\":30479:30845   */\n      swap2\n      swap1\n      pop\n      jump\t// out\n        /* \"#utility.yul\":30851:31270   */\n    tag_173:\n        /* \"#utility.yul\":31017:31021   */\n      0x00\n        /* \"#utility.yul\":31055:31057   */\n      0x20\n        /* \"#utility.yul\":31044:31053   */\n      dup3\n        /* \"#utility.yul\":31040:31058   */\n      add\n        /* \"#utility.yul\":31032:31058   */\n      swap1\n      pop\n        /* \"#utility.yul\":31104:31113   */\n      dup2\n        /* \"#utility.yul\":31098:31102   */\n      dup2\n        /* \"#utility.yul\":31094:31114   */\n      sub\n        /* \"#utility.yul\":31090:31091   */\n      0x00\n        /* \"#utility.yul\":31079:31088   */\n      dup4\n        /* \"#utility.yul\":31075:31092   */\n      add\n        /* \"#utility.yul\":31068:31115   */\n      mstore\n        /* \"#utility.yul\":31132:31263   */\n      tag_564\n        /* \"#utility.yul\":31258:31262   */\n      dup2\n        /* \"#utility.yul\":31132:31263   */\n      tag_277\n      jump\t// in\n    tag_564:\n        /* \"#utility.yul\":31124:31263   */\n      swap1\n      pop\n        /* \"#utility.yul\":30851:31270   */\n      swap2\n      swap1\n      pop\n      jump\t// out\n        /* \"#utility.yul\":31276:31470   */\n    tag_175:\n        /* \"#utility.yul\":31316:31320   */\n      0x00\n        /* \"#utility.yul\":31336:31356   */\n      tag_566\n        /* \"#utility.yul\":31354:31355   */\n      dup3\n        /* \"#utility.yul\":31336:31356   */\n      tag_219\n      jump\t// in\n    tag_566:\n        /* \"#utility.yul\":31331:31356   */\n      swap2\n      pop\n        /* \"#utility.yul\":31370:31390   */\n      tag_567\n        /* \"#utility.yul\":31388:31389   */\n      dup4\n        /* \"#utility.yul\":31370:31390   */\n      tag_219\n      jump\t// in\n    tag_567:\n        /* \"#utility.yul\":31365:31390   */\n      swap3\n      pop\n        /* \"#utility.yul\":31414:31415   */\n      dup3\n        /* \"#utility.yul\":31411:31412   */\n      dup3\n        /* \"#utility.yul\":31407:31416   */\n      sub\n        /* \"#utility.yul\":31399:31416   */\n      swap1\n      pop\n        /* \"#utility.yul\":31438:31439   */\n      dup2\n        /* \"#utility.yul\":31432:31436   */\n      dup2\n        /* \"#utility.yul\":31429:31440   */\n      gt\n        /* \"#utility.yul\":31426:31463   */\n      iszero\n      tag_568\n      jumpi\n        /* \"#utility.yul\":31443:31461   */\n      tag_569\n      tag_248\n      jump\t// in\n    tag_569:\n        /* \"#utility.yul\":31426:31463   */\n    tag_568:\n        /* \"#utility.yul\":31276:31470   */\n      swap3\n      swap2\n      pop\n      pop\n      jump\t// out\n        /* \"#utility.yul\":31476:31640   */\n    tag_278:\n        /* \"#utility.yul\":31616:31632   */\n      0x4d7573742073656e642045544821000000000000000000000000000000000000\n        /* \"#utility.yul\":31612:31613   */\n      0x00\n        /* \"#utility.yul\":31604:31610   */\n      dup3\n        /* \"#utility.yul\":31600:31614   */\n      add\n        /* \"#utility.yul\":31593:31633   */\n      mstore\n        /* \"#utility.yul\":31476:31640   */\n      pop\n      jump\t// out\n        /* \"#utility.yul\":31646:32012   */\n    tag_279:\n        /* \"#utility.yul\":31788:31791   */\n      0x00\n        /* \"#utility.yul\":31809:31876   */\n      tag_572\n        /* \"#utility.yul\":31873:31875   */\n      0x0e\n        /* \"#utility.yul\":31868:31871   */\n      dup4\n        /* \"#utility.yul\":31809:31876   */\n      tag_237\n      jump\t// in\n    tag_572:\n        /* \"#utility.yul\":31802:31876   */\n      swap2\n      pop\n        /* \"#utility.yul\":31885:31978   */\n      tag_573\n        /* \"#utility.yul\":31974:31977   */\n      dup3\n        /* \"#utility.yul\":31885:31978   */\n      tag_278\n      jump\t// in\n    tag_573:\n        /* \"#utility.yul\":32003:32005   */\n      0x20\n        /* \"#utility.yul\":31998:32001   */\n      dup3\n        /* \"#utility.yul\":31994:32006   */\n      add\n        /* \"#utility.yul\":31987:32006   */\n      swap1\n      pop\n        /* \"#utility.yul\":31646:32012   */\n      swap2\n      swap1\n      pop\n      jump\t// out\n        /* \"#utility.yul\":32018:32437   */\n    tag_193:\n        /* \"#utility.yul\":32184:32188   */\n      0x00\n        /* \"#utility.yul\":32222:32224   */\n      0x20\n        /* \"#utility.yul\":32211:32220   */\n      dup3\n        /* \"#utility.yul\":32207:32225   */\n      add\n        /* \"#utility.yul\":32199:32225   */\n      swap1\n      pop\n        /* \"#utility.yul\":32271:32280   */\n      dup2\n        /* \"#utility.yul\":32265:32269   */\n      dup2\n        /* \"#utility.yul\":32261:32281   */\n      sub\n        /* \"#utility.yul\":32257:32258   */\n      0x00\n        /* \"#utility.yul\":32246:32255   */\n      dup4\n        /* \"#utility.yul\":32242:32259   */\n      add\n        /* \"#utility.yul\":32235:32282   */\n      mstore\n        /* \"#utility.yul\":32299:32430   */\n      tag_575\n        /* \"#utility.yul\":32425:32429   */\n      dup2\n        /* \"#utility.yul\":32299:32430   */\n      tag_279\n      jump\t// in\n    tag_575:\n        /* \"#utility.yul\":32291:32430   */\n      swap1\n      pop\n        /* \"#utility.yul\":32018:32437   */\n      swap2\n      swap1\n      pop\n      jump\t// out\n        /* \"#utility.yul\":32443:32634   */\n    tag_195:\n        /* \"#utility.yul\":32483:32486   */\n      0x00\n        /* \"#utility.yul\":32502:32522   */\n      tag_577\n        /* \"#utility.yul\":32520:32521   */\n      dup3\n        /* \"#utility.yul\":32502:32522   */\n      tag_219\n      jump\t// in\n    tag_577:\n        /* \"#utility.yul\":32497:32522   */\n      swap2\n      pop\n        /* \"#utility.yul\":32536:32556   */\n      tag_578\n        /* \"#utility.yul\":32554:32555   */\n      dup4\n        /* \"#utility.yul\":32536:32556   */\n      tag_219\n      jump\t// in\n    tag_578:\n        /* \"#utility.yul\":32531:32556   */\n      swap3\n      pop\n        /* \"#utility.yul\":32579:32580   */\n      dup3\n        /* \"#utility.yul\":32576:32577   */\n      dup3\n        /* \"#utility.yul\":32572:32581   */\n      add\n        /* \"#utility.yul\":32565:32581   */\n      swap1\n      pop\n        /* \"#utility.yul\":32600:32603   */\n      dup1\n        /* \"#utility.yul\":32597:32598   */\n      dup3\n        /* \"#utility.yul\":32594:32604   */\n      gt\n        /* \"#utility.yul\":32591:32627   */\n      iszero\n      tag_579\n      jumpi\n        /* \"#utility.yul\":32607:32625   */\n      tag_580\n      tag_248\n      jump\t// in\n    tag_580:\n        /* \"#utility.yul\":32591:32627   */\n    tag_579:\n        /* \"#utility.yul\":32443:32634   */\n      swap3\n      swap2\n      pop\n      pop\n      jump\t// out\n\n    auxdata: 0xa2646970667358221220f3b23cd5c224bc91982aa7bb63aec7aaaaa7ac520c918191cb479992971270a964736f6c63430008220033\n}\n",
				"bytecode": {
					"linkReferences": {},
					"object": "6080604052348015600e575f5ffd5b506121fd8061001c5f395ff3fe6080604052600436106100a6575f3560e01c8063c3c5a54711610063578063c3c5a547146101f0578063c9d3cc6a1461022c578063e2842d7914610254578063ed5cd0e71461027e578063f814c7db146102ba578063fa6ac131146102c4576100a6565b806306752aff146100aa57806307973ccf146100e65780633ffbd47f14610110578063502c9bd5146101385780636386c1c714610174578063a87430ba146101b0575b5f5ffd5b3480156100b5575f5ffd5b506100d060048036038101906100cb91906113e1565b6102ee565b6040516100dd91906115ef565b60405180910390f35b3480156100f1575f5ffd5b506100fa610550565b604051610107919061161e565b60405180910390f35b34801561011b575f5ffd5b50610136600480360381019061013191906116e7565b610556565b005b348015610143575f5ffd5b5061015e60048036038101906101599190611787565b610847565b60405161016b91906117c1565b60405180910390f35b34801561017f575f5ffd5b5061019a600480360381019061019591906117da565b610882565b6040516101a7919061187f565b60405180910390f35b3480156101bb575f5ffd5b506101d660048036038101906101d191906117da565b610ab0565b6040516101e79594939291906118f6565b60405180910390f35b3480156101fb575f5ffd5b50610216600480360381019061021191906117da565b610bf9565b6040516102239190611955565b60405180910390f35b348015610237575f5ffd5b50610252600480360381019061024d91906116e7565b610cd8565b005b34801561025f575f5ffd5b50610268610e53565b6040516102759190611a25565b60405180910390f35b348015610289575f5ffd5b506102a4600480360381019061029f9190611a45565b610ede565b6040516102b19190611a25565b60405180910390f35b6102c2611080565b005b3480156102cf575f5ffd5b506102d86111f2565b6040516102e5919061161e565b60405180910390f35b60605f825190505f8167ffffffffffffffff8111156103105761030f61124b565b5b60405190808252806020026020018201604052801561034957816020015b6103366111f8565b81526020019060019003908161032e5790505b5090505f5f90505f5f90505b83811015610544575f5f87838151811061037257610371611a83565b5b602002602001015173ffffffffffffffffffffffffffffffffffffffff1673ffffffffffffffffffffffffffffffffffffffff1681526020019081526020015f206040518060a00160405290815f820180546103cd90611add565b80601f01602080910402602001604051908101604052809291908181526020018280546103f990611add565b80156104445780601f1061041b57610100808354040283529160200191610444565b820191905f5260205f20905b81548152906001019060200180831161042757829003601f168201915b5050505050815260200160018201805461045d90611add565b80601f016020809104026020016040519081016040528092919081815260200182805461048990611add565b80156104d45780601f106104ab576101008083540402835291602001916104d4565b820191905f5260205f20905b8154815290600101906020018083116104b757829003601f168201915b505050505081526020016002820154815260200160038201548152602001600482015f9054906101000a900460ff16151515158152505083838151811061051e5761051d611a83565b5b6020026020010181905250818061053490611b3a565b9250508080600101915050610355565b50819350505050919050565b60025481565b5f3390505f5f8273ffffffffffffffffffffffffffffffffffffffff1673ffffffffffffffffffffffffffffffffffffffff1681526020019081526020015f206004015f9054906101000a900460ff16156105e6576040517f08c379a00000000000000000000000000000000000000000000000000000000081526004016105dd90611bcb565b60405180910390fd5b6103e86002541061062c576040517f08c379a000000000000000000000000000000000000000000000000000000000815260040161062390611c33565b60405180910390fd5b5f83511161066f576040517f08c379a000000000000000000000000000000000000000000000000000000000815260040161066690611c9b565b60405180910390fd5b5f8251116106b2576040517f08c379a00000000000000000000000000000000000000000000000000000000081526004016106a990611d03565b60405180910390fd5b5f6040518060a001604052808581526020018481526020015f8152602001428152602001600115158152509050805f5f8473ffffffffffffffffffffffffffffffffffffffff1673ffffffffffffffffffffffffffffffffffffffff1681526020019081526020015f205f820151815f01908161072f9190611ed2565b5060208201518160010190816107459190611ed2565b5060408201518160020155606082015181600301556080820151816004015f6101000a81548160ff021916908315150217905550905050600182908060018154018082558091505060019003905f5260205f20015f9091909190916101000a81548173ffffffffffffffffffffffffffffffffffffffff021916908373ffffffffffffffffffffffffffffffffffffffff16021790555060025f8154809291906107ee90611b3a565b91905055508173ffffffffffffffffffffffffffffffffffffffff167f48cac28ad4dc618e15f4c2dd5e97751182f166de97b25618318b2112aa951a2f856040516108399190611fa1565b60405180910390a250505050565b60018181548110610856575f80fd5b905f5260205f20015f915054906101000a900473ffffffffffffffffffffffffffffffffffffffff1681565b61088a6111f8565b5f5f8373ffffffffffffffffffffffffffffffffffffffff1673ffffffffffffffffffffffffffffffffffffffff1681526020019081526020015f206004015f9054906101000a900460ff16610915576040517f08c379a000000000000000000000000000000000000000000000000000000000815260040161090c9061200b565b60405180910390fd5b5f5f8373ffffffffffffffffffffffffffffffffffffffff1673ffffffffffffffffffffffffffffffffffffffff1681526020019081526020015f206040518060a00160405290815f8201805461096b90611add565b80601f016020809104026020016040519081016040528092919081815260200182805461099790611add565b80156109e25780601f106109b9576101008083540402835291602001916109e2565b820191905f5260205f20905b8154815290600101906020018083116109c557829003601f168201915b505050505081526020016001820180546109fb90611add565b80601f0160208091040260200160405190810160405280929190818152602001828054610a2790611add565b8015610a725780601f10610a4957610100808354040283529160200191610a72565b820191905f5260205f20905b815481529060010190602001808311610a5557829003601f168201915b505050505081526020016002820154815260200160038201548152602001600482015f9054906101000a900460ff1615151515815250509050919050565b5f602052805f5260405f205f91509050805f018054610ace90611add565b80601f0160208091040260200160405190810160405280929190818152602001828054610afa90611add565b8015610b455780601f10610b1c57610100808354040283529160200191610b45565b820191905f5260205f20905b815481529060010190602001808311610b2857829003601f168201915b505050505090806001018054610b5a90611add565b80601f0160208091040260200160405190810160405280929190818152602001828054610b8690611add565b8015610bd15780601f10610ba857610100808354040283529160200191610bd1565b820191905f5260205f20905b815481529060010190602001808311610bb457829003601f168201915b505050505090806002015490806003015490806004015f9054906101000a900460ff16905085565b5f5f5f8373ffffffffffffffffffffffffffffffffffffffff1673ffffffffffffffffffffffffffffffffffffffff1681526020019081526020015f206004015f9054906101000a900460ff16610c85576040517f08c379a0000000000000000000000000000000000000000000000000000000008152600401610c7c9061200b565b60405180910390fd5b5f5f8373ffffffffffffffffffffffffffffffffffffffff1673ffffffffffffffffffffffffffffffffffffffff1681526020019081526020015f206004015f9054906101000a900460ff169050919050565b5f3390505f5f8273ffffffffffffffffffffffffffffffffffffffff1673ffffffffffffffffffffffffffffffffffffffff1681526020019081526020015f206004015f9054906101000a900460ff16610d67576040517f08c379a0000000000000000000000000000000000000000000000000000000008152600401610d5e9061200b565b60405180910390fd5b825f5f8373ffffffffffffffffffffffffffffffffffffffff1673ffffffffffffffffffffffffffffffffffffffff1681526020019081526020015f205f019081610db29190611ed2565b50815f5f8373ffffffffffffffffffffffffffffffffffffffff1673ffffffffffffffffffffffffffffffffffffffff1681526020019081526020015f206001019081610dff9190611ed2565b508073ffffffffffffffffffffffffffffffffffffffff167fd6136f3cad7c60bfc24bbf1548f39f766ca8bce104bf9adde3deb6237dec51df84604051610e469190611fa1565b60405180910390a2505050565b60606001805480602002602001604051908101604052809291908181526020018280548015610ed457602002820191905f5260205f20905b815f9054906101000a900473ffffffffffffffffffffffffffffffffffffffff1673ffffffffffffffffffffffffffffffffffffffff1681526020019060010190808311610e8b575b5050505050905090565b606081831115610f23576040517f08c379a0000000000000000000000000000000000000000000000000000000008152600401610f1a90612073565b60405180910390fd5b600254821115610f68576040517f08c379a0000000000000000000000000000000000000000000000000000000008152600401610f5f906120db565b60405180910390fd5b5f8383610f7591906120f9565b67ffffffffffffffff811115610f8e57610f8d61124b565b5b604051908082528060200260200182016040528015610fbc5781602001602082028036833780820191505090505b5090505f5f90505f8590505b848110156110745760018181548110610fe457610fe3611a83565b5b905f5260205f20015f9054906101000a900473ffffffffffffffffffffffffffffffffffffffff1683838151811061101f5761101e611a83565b5b602002602001019073ffffffffffffffffffffffffffffffffffffffff16908173ffffffffffffffffffffffffffffffffffffffff1681525050818061106490611b3a565b9250508080600101915050610fc8565b50819250505092915050565b5f5f3373ffffffffffffffffffffffffffffffffffffffff1673ffffffffffffffffffffffffffffffffffffffff1681526020019081526020015f206004015f9054906101000a900460ff1661110b576040517f08c379a00000000000000000000000000000000000000000000000000000000081526004016111029061200b565b60405180910390fd5b5f341161114d576040517f08c379a000000000000000000000000000000000000000000000000000000000815260040161114490612176565b60405180910390fd5b345f5f3373ffffffffffffffffffffffffffffffffffffffff1673ffffffffffffffffffffffffffffffffffffffff1681526020019081526020015f206002015f82825461119b9190612194565b925050819055503373ffffffffffffffffffffffffffffffffffffffff167fe1fffcc4923d04b559f4d29a8bfc6cda04eb5b0d3c460751c2402c5c5cc9109c346040516111e8919061161e565b60405180910390a2565b6103e881565b6040518060a0016040528060608152602001606081526020015f81526020015f81526020015f151581525090565b5f604051905090565b5f5ffd5b5f5ffd5b5f5ffd5b5f601f19601f8301169050919050565b7f4e487b71000000000000000000000000000000000000000000000000000000005f52604160045260245ffd5b6112818261123b565b810181811067ffffffffffffffff821117156112a05761129f61124b565b5b80604052505050565b5f6112b2611226565b90506112be8282611278565b919050565b5f67ffffffffffffffff8211156112dd576112dc61124b565b5b602082029050602081019050919050565b5f5ffd5b5f73ffffffffffffffffffffffffffffffffffffffff82169050919050565b5f61131b826112f2565b9050919050565b61132b81611311565b8114611335575f5ffd5b50565b5f8135905061134681611322565b92915050565b5f61135e611359846112c3565b6112a9565b90508083825260208201905060208402830185811115611381576113806112ee565b5b835b818110156113aa57806113968882611338565b845260208401935050602081019050611383565b5050509392505050565b5f82601f8301126113c8576113c7611237565b5b81356113d884826020860161134c565b91505092915050565b5f602082840312156113f6576113f561122f565b5b5f82013567ffffffffffffffff81111561141357611412611233565b5b61141f848285016113b4565b91505092915050565b5f81519050919050565b5f82825260208201905092915050565b5f819050602082019050919050565b5f81519050919050565b5f82825260208201905092915050565b8281835e5f83830152505050565b5f61148382611451565b61148d818561145b565b935061149d81856020860161146b565b6114a68161123b565b840191505092915050565b5f819050919050565b6114c3816114b1565b82525050565b5f8115159050919050565b6114dd816114c9565b82525050565b5f60a083015f8301518482035f8601526114fd8282611479565b915050602083015184820360208601526115178282611479565b915050604083015161152c60408601826114ba565b50606083015161153f60608601826114ba565b50608083015161155260808601826114d4565b508091505092915050565b5f61156883836114e3565b905092915050565b5f602082019050919050565b5f61158682611428565b6115908185611432565b9350836020820285016115a285611442565b805f5b858110156115dd57848403895281516115be858261155d565b94506115c983611570565b925060208a019950506001810190506115a5565b50829750879550505050505092915050565b5f6020820190508181035f830152611607818461157c565b905092915050565b611618816114b1565b82525050565b5f6020820190506116315f83018461160f565b92915050565b5f5ffd5b5f67ffffffffffffffff8211156116555761165461124b565b5b61165e8261123b565b9050602081019050919050565b828183375f83830152505050565b5f61168b6116868461163b565b6112a9565b9050828152602081018484840111156116a7576116a6611637565b5b6116b284828561166b565b509392505050565b5f82601f8301126116ce576116cd611237565b5b81356116de848260208601611679565b91505092915050565b5f5f604083850312156116fd576116fc61122f565b5b5f83013567ffffffffffffffff81111561171a57611719611233565b5b611726858286016116ba565b925050602083013567ffffffffffffffff81111561174757611746611233565b5b611753858286016116ba565b9150509250929050565b611766816114b1565b8114611770575f5ffd5b50565b5f813590506117818161175d565b92915050565b5f6020828403121561179c5761179b61122f565b5b5f6117a984828501611773565b91505092915050565b6117bb81611311565b82525050565b5f6020820190506117d45f8301846117b2565b92915050565b5f602082840312156117ef576117ee61122f565b5b5f6117fc84828501611338565b91505092915050565b5f60a083015f8301518482035f86015261181f8282611479565b915050602083015184820360208601526118398282611479565b915050604083015161184e60408601826114ba565b50606083015161186160608601826114ba565b50608083015161187460808601826114d4565b508091505092915050565b5f6020820190508181035f8301526118978184611805565b905092915050565b5f82825260208201905092915050565b5f6118b982611451565b6118c3818561189f565b93506118d381856020860161146b565b6118dc8161123b565b840191505092915050565b6118f0816114c9565b82525050565b5f60a0820190508181035f83015261190e81886118af565b9050818103602083015261192281876118af565b9050611931604083018661160f565b61193e606083018561160f565b61194b60808301846118e7565b9695505050505050565b5f6020820190506119685f8301846118e7565b92915050565b5f81519050919050565b5f82825260208201905092915050565b5f819050602082019050919050565b6119a081611311565b82525050565b5f6119b18383611997565b60208301905092915050565b5f602082019050919050565b5f6119d38261196e565b6119dd8185611978565b93506119e883611988565b805f5b83811015611a185781516119ff88826119a6565b9750611a0a836119bd565b9250506001810190506119eb565b5085935050505092915050565b5f6020820190508181035f830152611a3d81846119c9565b905092915050565b5f5f60408385031215611a5b57611a5a61122f565b5b5f611a6885828601611773565b9250506020611a7985828601611773565b9150509250929050565b7f4e487b71000000000000000000000000000000000000000000000000000000005f52603260045260245ffd5b7f4e487b71000000000000000000000000000000000000000000000000000000005f52602260045260245ffd5b5f6002820490506001821680611af457607f821691505b602082108103611b0757611b06611ab0565b5b50919050565b7f4e487b71000000000000000000000000000000000000000000000000000000005f52601160045260245ffd5b5f611b44826114b1565b91507fffffffffffffffffffffffffffffffffffffffffffffffffffffffffffffffff8203611b7657611b75611b0d565b5b600182019050919050565b7f5573657220616c726561647920726567697374657265642100000000000000005f82015250565b5f611bb560188361189f565b9150611bc082611b81565b602082019050919050565b5f6020820190508181035f830152611be281611ba9565b9050919050565b7f4d617820557365727320726561636865642100000000000000000000000000005f82015250565b5f611c1d60128361189f565b9150611c2882611be9565b602082019050919050565b5f6020820190508181035f830152611c4a81611c11565b9050919050565b7f4e616d65207265717569726564210000000000000000000000000000000000005f82015250565b5f611c85600e8361189f565b9150611c9082611c51565b602082019050919050565b5f6020820190508181035f830152611cb281611c79565b9050919050565b7f456d61696c2072657175697265642100000000000000000000000000000000005f82015250565b5f611ced600f8361189f565b9150611cf882611cb9565b602082019050919050565b5f6020820190508181035f830152611d1a81611ce1565b9050919050565b5f819050815f5260205f209050919050565b5f6020601f8301049050919050565b5f82821b905092915050565b5f60088302611d7d7fffffffffffffffffffffffffffffffffffffffffffffffffffffffffffffffff82611d42565b611d878683611d42565b95508019841693508086168417925050509392505050565b5f819050919050565b5f611dc2611dbd611db8846114b1565b611d9f565b6114b1565b9050919050565b5f819050919050565b611ddb83611da8565b611def611de782611dc9565b848454611d4e565b825550505050565b5f5f905090565b611e06611df7565b611e11818484611dd2565b505050565b5f5b82811015611e3757611e2c5f828401611dfe565b600181019050611e18565b505050565b601f821115611e8a5782821115611e8957611e5681611d21565b611e5f83611d33565b611e6885611d33565b6020861015611e75575f90505b808301611e8482840382611e16565b505050505b5b505050565b5f82821c905092915050565b5f611eaa5f1984600802611e8f565b1980831691505092915050565b5f611ec28383611e9b565b9150826002028217905092915050565b611edb82611451565b67ffffffffffffffff811115611ef457611ef361124b565b5b611efe8254611add565b611f09828285611e3c565b5f60209050601f831160018114611f3a575f8415611f28578287015190505b611f328582611eb7565b865550611f99565b601f198416611f4886611d21565b5f5b82811015611f6f57848901518255600182019150602085019450602081019050611f4a565b86831015611f8c5784890151611f88601f891682611e9b565b8355505b6001600288020188555050505b505050505050565b5f6020820190508181035f830152611fb981846118af565b905092915050565b7f55736572206e6f742065786973747321000000000000000000000000000000005f82015250565b5f611ff560108361189f565b915061200082611fc1565b602082019050919050565b5f6020820190508181035f83015261202281611fe9565b9050919050565b7f496e76616c69642072616e6765210000000000000000000000000000000000005f82015250565b5f61205d600e8361189f565b915061206882612029565b602082019050919050565b5f6020820190508181035f83015261208a81612051565b9050919050565b7f496e646578206f7574206f6620626f756e6473210000000000000000000000005f82015250565b5f6120c560148361189f565b91506120d082612091565b602082019050919050565b5f6020820190508181035f8301526120f2816120b9565b9050919050565b5f612103826114b1565b915061210e836114b1565b925082820390508181111561212657612125611b0d565b5b92915050565b7f4d7573742073656e6420455448210000000000000000000000000000000000005f82015250565b5f612160600e8361189f565b915061216b8261212c565b602082019050919050565b5f6020820190508181035f83015261218d81612154565b9050919050565b5f61219e826114b1565b91506121a9836114b1565b92508282019050808211156121c1576121c0611b0d565b5b9291505056fea2646970667358221220f3b23cd5c224bc91982aa7bb63aec7aaaaa7ac520c918191cb479992971270a964736f6c63430008220033",
					"opcodes": "PUSH1 0x80 PUSH1 0x40 MSTORE CALLVALUE DUP1 ISZERO PUSH1 0xE JUMPI PUSH0 PUSH0 REVERT JUMPDEST POP PUSH2 0x21FD DUP1 PUSH2 0x1C PUSH0 CODECOPY PUSH0 RETURN INVALID PUSH1 0x80 PUSH1 0x40 MSTORE PUSH1 0x4 CALLDATASIZE LT PUSH2 0xA6 JUMPI PUSH0 CALLDATALOAD PUSH1 0xE0 SHR DUP1 PUSH4 0xC3C5A547 GT PUSH2 0x63 JUMPI DUP1 PUSH4 0xC3C5A547 EQ PUSH2 0x1F0 JUMPI DUP1 PUSH4 0xC9D3CC6A EQ PUSH2 0x22C JUMPI DUP1 PUSH4 0xE2842D79 EQ PUSH2 0x254 JUMPI DUP1 PUSH4 0xED5CD0E7 EQ PUSH2 0x27E JUMPI DUP1 PUSH4 0xF814C7DB EQ PUSH2 0x2BA JUMPI DUP1 PUSH4 0xFA6AC131 EQ PUSH2 0x2C4 JUMPI PUSH2 0xA6 JUMP JUMPDEST DUP1 PUSH4 0x6752AFF EQ PUSH2 0xAA JUMPI DUP1 PUSH4 0x7973CCF EQ PUSH2 0xE6 JUMPI DUP1 PUSH4 0x3FFBD47F EQ PUSH2 0x110 JUMPI DUP1 PUSH4 0x502C9BD5 EQ PUSH2 0x138 JUMPI DUP1 PUSH4 0x6386C1C7 EQ PUSH2 0x174 JUMPI DUP1 PUSH4 0xA87430BA EQ PUSH2 0x1B0 JUMPI JUMPDEST PUSH0 PUSH0 REVERT JUMPDEST CALLVALUE DUP1 ISZERO PUSH2 0xB5 JUMPI PUSH0 PUSH0 REVERT JUMPDEST POP PUSH2 0xD0 PUSH1 0x4 DUP1 CALLDATASIZE SUB DUP2 ADD SWAP1 PUSH2 0xCB SWAP2 SWAP1 PUSH2 0x13E1 JUMP JUMPDEST PUSH2 0x2EE JUMP JUMPDEST PUSH1 0x40 MLOAD PUSH2 0xDD SWAP2 SWAP1 PUSH2 0x15EF JUMP JUMPDEST PUSH1 0x40 MLOAD DUP1 SWAP2 SUB SWAP1 RETURN JUMPDEST CALLVALUE DUP1 ISZERO PUSH2 0xF1 JUMPI PUSH0 PUSH0 REVERT JUMPDEST POP PUSH2 0xFA PUSH2 0x550 JUMP JUMPDEST PUSH1 0x40 MLOAD PUSH2 0x107 SWAP2 SWAP1 PUSH2 0x161E JUMP JUMPDEST PUSH1 0x40 MLOAD DUP1 SWAP2 SUB SWAP1 RETURN JUMPDEST CALLVALUE DUP1 ISZERO PUSH2 0x11B JUMPI PUSH0 PUSH0 REVERT JUMPDEST POP PUSH2 0x136 PUSH1 0x4 DUP1 CALLDATASIZE SUB DUP2 ADD SWAP1 PUSH2 0x131 SWAP2 SWAP1 PUSH2 0x16E7 JUMP JUMPDEST PUSH2 0x556 JUMP JUMPDEST STOP JUMPDEST CALLVALUE DUP1 ISZERO PUSH2 0x143 JUMPI PUSH0 PUSH0 REVERT JUMPDEST POP PUSH2 0x15E PUSH1 0x4 DUP1 CALLDATASIZE SUB DUP2 ADD SWAP1 PUSH2 0x159 SWAP2 SWAP1 PUSH2 0x1787 JUMP JUMPDEST PUSH2 0x847 JUMP JUMPDEST PUSH1 0x40 MLOAD PUSH2 0x16B SWAP2 SWAP1 PUSH2 0x17C1 JUMP JUMPDEST PUSH1 0x40 MLOAD DUP1 SWAP2 SUB SWAP1 RETURN JUMPDEST CALLVALUE DUP1 ISZERO PUSH2 0x17F JUMPI PUSH0 PUSH0 REVERT JUMPDEST POP PUSH2 0x19A PUSH1 0x4 DUP1 CALLDATASIZE SUB DUP2 ADD SWAP1 PUSH2 0x195 SWAP2 SWAP1 PUSH2 0x17DA JUMP JUMPDEST PUSH2 0x882 JUMP JUMPDEST PUSH1 0x40 MLOAD PUSH2 0x1A7 SWAP2 SWAP1 PUSH2 0x187F JUMP JUMPDEST PUSH1 0x40 MLOAD DUP1 SWAP2 SUB SWAP1 RETURN JUMPDEST CALLVALUE DUP1 ISZERO PUSH2 0x1BB JUMPI PUSH0 PUSH0 REVERT JUMPDEST POP PUSH2 0x1D6 PUSH1 0x4 DUP1 CALLDATASIZE SUB DUP2 ADD SWAP1 PUSH2 0x1D1 SWAP2 SWAP1 PUSH2 0x17DA JUMP JUMPDEST PUSH2 0xAB0 JUMP JUMPDEST PUSH1 0x40 MLOAD PUSH2 0x1E7 SWAP6 SWAP5 SWAP4 SWAP3 SWAP2 SWAP1 PUSH2 0x18F6 JUMP JUMPDEST PUSH1 0x40 MLOAD DUP1 SWAP2 SUB SWAP1 RETURN JUMPDEST CALLVALUE DUP1 ISZERO PUSH2 0x1FB JUMPI PUSH0 PUSH0 REVERT JUMPDEST POP PUSH2 0x216 PUSH1 0x4 DUP1 CALLDATASIZE SUB DUP2 ADD SWAP1 PUSH2 0x211 SWAP2 SWAP1 PUSH2 0x17DA JUMP JUMPDEST PUSH2 0xBF9 JUMP JUMPDEST PUSH1 0x40 MLOAD PUSH2 0x223 SWAP2 SWAP1 PUSH2 0x1955 JUMP JUMPDEST PUSH1 0x40 MLOAD DUP1 SWAP2 SUB SWAP1 RETURN JUMPDEST CALLVALUE DUP1 ISZERO PUSH2 0x237 JUMPI PUSH0 PUSH0 REVERT JUMPDEST POP PUSH2 0x252 PUSH1 0x4 DUP1 CALLDATASIZE SUB DUP2 ADD SWAP1 PUSH2 0x24D SWAP2 SWAP1 PUSH2 0x16E7 JUMP JUMPDEST PUSH2 0xCD8 JUMP JUMPDEST STOP JUMPDEST CALLVALUE DUP1 ISZERO PUSH2 0x25F JUMPI PUSH0 PUSH0 REVERT JUMPDEST POP PUSH2 0x268 PUSH2 0xE53 JUMP JUMPDEST PUSH1 0x40 MLOAD PUSH2 0x275 SWAP2 SWAP1 PUSH2 0x1A25 JUMP JUMPDEST PUSH1 0x40 MLOAD DUP1 SWAP2 SUB SWAP1 RETURN JUMPDEST CALLVALUE DUP1 ISZERO PUSH2 0x289 JUMPI PUSH0 PUSH0 REVERT JUMPDEST POP PUSH2 0x2A4 PUSH1 0x4 DUP1 CALLDATASIZE SUB DUP2 ADD SWAP1 PUSH2 0x29F SWAP2 SWAP1 PUSH2 0x1A45 JUMP JUMPDEST PUSH2 0xEDE JUMP JUMPDEST PUSH1 0x40 MLOAD PUSH2 0x2B1 SWAP2 SWAP1 PUSH2 0x1A25 JUMP JUMPDEST PUSH1 0x40 MLOAD DUP1 SWAP2 SUB SWAP1 RETURN JUMPDEST PUSH2 0x2C2 PUSH2 0x1080 JUMP JUMPDEST STOP JUMPDEST CALLVALUE DUP1 ISZERO PUSH2 0x2CF JUMPI PUSH0 PUSH0 REVERT JUMPDEST POP PUSH2 0x2D8 PUSH2 0x11F2 JUMP JUMPDEST PUSH1 0x40 MLOAD PUSH2 0x2E5 SWAP2 SWAP1 PUSH2 0x161E JUMP JUMPDEST PUSH1 0x40 MLOAD DUP1 SWAP2 SUB SWAP1 RETURN JUMPDEST PUSH1 0x60 PUSH0 DUP3 MLOAD SWAP1 POP PUSH0 DUP2 PUSH8 0xFFFFFFFFFFFFFFFF DUP2 GT ISZERO PUSH2 0x310 JUMPI PUSH2 0x30F PUSH2 0x124B JUMP JUMPDEST JUMPDEST PUSH1 0x40 MLOAD SWAP1 DUP1 DUP3 MSTORE DUP1 PUSH1 0x20 MUL PUSH1 0x20 ADD DUP3 ADD PUSH1 0x40 MSTORE DUP1 ISZERO PUSH2 0x349 JUMPI DUP2 PUSH1 0x20 ADD JUMPDEST PUSH2 0x336 PUSH2 0x11F8 JUMP JUMPDEST DUP2 MSTORE PUSH1 0x20 ADD SWAP1 PUSH1 0x1 SWAP1 SUB SWAP1 DUP2 PUSH2 0x32E JUMPI SWAP1 POP JUMPDEST POP SWAP1 POP PUSH0 PUSH0 SWAP1 POP PUSH0 PUSH0 SWAP1 POP JUMPDEST DUP4 DUP2 LT ISZERO PUSH2 0x544 JUMPI PUSH0 PUSH0 DUP8 DUP4 DUP2 MLOAD DUP2 LT PUSH2 0x372 JUMPI PUSH2 0x371 PUSH2 0x1A83 JUMP JUMPDEST JUMPDEST PUSH1 0x20 MUL PUSH1 0x20 ADD ADD MLOAD PUSH20 0xFFFFFFFFFFFFFFFFFFFFFFFFFFFFFFFFFFFFFFFF AND PUSH20 0xFFFFFFFFFFFFFFFFFFFFFFFFFFFFFFFFFFFFFFFF AND DUP2 MSTORE PUSH1 0x20 ADD SWAP1 DUP2 MSTORE PUSH1 0x20 ADD PUSH0 KECCAK256 PUSH1 0x40 MLOAD DUP1 PUSH1 0xA0 ADD PUSH1 0x40 MSTORE SWAP1 DUP2 PUSH0 DUP3 ADD DUP1 SLOAD PUSH2 0x3CD SWAP1 PUSH2 0x1ADD JUMP JUMPDEST DUP1 PUSH1 0x1F ADD PUSH1 0x20 DUP1 SWAP2 DIV MUL PUSH1 0x20 ADD PUSH1 0x40 MLOAD SWAP1 DUP2 ADD PUSH1 0x40 MSTORE DUP1 SWAP3 SWAP2 SWAP1 DUP2 DUP2 MSTORE PUSH1 0x20 ADD DUP3 DUP1 SLOAD PUSH2 0x3F9 SWAP1 PUSH2 0x1ADD JUMP JUMPDEST DUP1 ISZERO PUSH2 0x444 JUMPI DUP1 PUSH1 0x1F LT PUSH2 0x41B JUMPI PUSH2 0x100 DUP1 DUP4 SLOAD DIV MUL DUP4 MSTORE SWAP2 PUSH1 0x20 ADD SWAP2 PUSH2 0x444 JUMP JUMPDEST DUP3 ADD SWAP2 SWAP1 PUSH0 MSTORE PUSH1 0x20 PUSH0 KECCAK256 SWAP1 JUMPDEST DUP2 SLOAD DUP2 MSTORE SWAP1 PUSH1 0x1 ADD SWAP1 PUSH1 0x20 ADD DUP1 DUP4 GT PUSH2 0x427 JUMPI DUP3 SWAP1 SUB PUSH1 0x1F AND DUP3 ADD SWAP2 JUMPDEST POP POP POP POP POP DUP2 MSTORE PUSH1 0x20 ADD PUSH1 0x1 DUP3 ADD DUP1 SLOAD PUSH2 0x45D SWAP1 PUSH2 0x1ADD JUMP JUMPDEST DUP1 PUSH1 0x1F ADD PUSH1 0x20 DUP1 SWAP2 DIV MUL PUSH1 0x20 ADD PUSH1 0x40 MLOAD SWAP1 DUP2 ADD PUSH1 0x40 MSTORE DUP1 SWAP3 SWAP2 SWAP1 DUP2 DUP2 MSTORE PUSH1 0x20 ADD DUP3 DUP1 SLOAD PUSH2 0x489 SWAP1 PUSH2 0x1ADD JUMP JUMPDEST DUP1 ISZERO PUSH2 0x4D4 JUMPI DUP1 PUSH1 0x1F LT PUSH2 0x4AB JUMPI PUSH2 0x100 DUP1 DUP4 SLOAD DIV MUL DUP4 MSTORE SWAP2 PUSH1 0x20 ADD SWAP2 PUSH2 0x4D4 JUMP JUMPDEST DUP3 ADD SWAP2 SWAP1 PUSH0 MSTORE PUSH1 0x20 PUSH0 KECCAK256 SWAP1 JUMPDEST DUP2 SLOAD DUP2 MSTORE SWAP1 PUSH1 0x1 ADD SWAP1 PUSH1 0x20 ADD DUP1 DUP4 GT PUSH2 0x4B7 JUMPI DUP3 SWAP1 SUB PUSH1 0x1F AND DUP3 ADD SWAP2 JUMPDEST POP POP POP POP POP DUP2 MSTORE PUSH1 0x20 ADD PUSH1 0x2 DUP3 ADD SLOAD DUP2 MSTORE PUSH1 0x20 ADD PUSH1 0x3 DUP3 ADD SLOAD DUP2 MSTORE PUSH1 0x20 ADD PUSH1 0x4 DUP3 ADD PUSH0 SWAP1 SLOAD SWAP1 PUSH2 0x100 EXP SWAP1 DIV PUSH1 0xFF AND ISZERO ISZERO ISZERO ISZERO DUP2 MSTORE POP POP DUP4 DUP4 DUP2 MLOAD DUP2 LT PUSH2 0x51E JUMPI PUSH2 0x51D PUSH2 0x1A83 JUMP JUMPDEST JUMPDEST PUSH1 0x20 MUL PUSH1 0x20 ADD ADD DUP2 SWAP1 MSTORE POP DUP2 DUP1 PUSH2 0x534 SWAP1 PUSH2 0x1B3A JUMP JUMPDEST SWAP3 POP POP DUP1 DUP1 PUSH1 0x1 ADD SWAP2 POP POP PUSH2 0x355 JUMP JUMPDEST POP DUP2 SWAP4 POP POP POP POP SWAP2 SWAP1 POP JUMP JUMPDEST PUSH1 0x2 SLOAD DUP2 JUMP JUMPDEST PUSH0 CALLER SWAP1 POP PUSH0 PUSH0 DUP3 PUSH20 0xFFFFFFFFFFFFFFFFFFFFFFFFFFFFFFFFFFFFFFFF AND PUSH20 0xFFFFFFFFFFFFFFFFFFFFFFFFFFFFFFFFFFFFFFFF AND DUP2 MSTORE PUSH1 0x20 ADD SWAP1 DUP2 MSTORE PUSH1 0x20 ADD PUSH0 KECCAK256 PUSH1 0x4 ADD PUSH0 SWAP1 SLOAD SWAP1 PUSH2 0x100 EXP SWAP1 DIV PUSH1 0xFF AND ISZERO PUSH2 0x5E6 JUMPI PUSH1 0x40 MLOAD PUSH32 0x8C379A000000000000000000000000000000000000000000000000000000000 DUP2 MSTORE PUSH1 0x4 ADD PUSH2 0x5DD SWAP1 PUSH2 0x1BCB JUMP JUMPDEST PUSH1 0x40 MLOAD DUP1 SWAP2 SUB SWAP1 REVERT JUMPDEST PUSH2 0x3E8 PUSH1 0x2 SLOAD LT PUSH2 0x62C JUMPI PUSH1 0x40 MLOAD PUSH32 0x8C379A000000000000000000000000000000000000000000000000000000000 DUP2 MSTORE PUSH1 0x4 ADD PUSH2 0x623 SWAP1 PUSH2 0x1C33 JUMP JUMPDEST PUSH1 0x40 MLOAD DUP1 SWAP2 SUB SWAP1 REVERT JUMPDEST PUSH0 DUP4 MLOAD GT PUSH2 0x66F JUMPI PUSH1 0x40 MLOAD PUSH32 0x8C379A000000000000000000000000000000000000000000000000000000000 DUP2 MSTORE PUSH1 0x4 ADD PUSH2 0x666 SWAP1 PUSH2 0x1C9B JUMP JUMPDEST PUSH1 0x40 MLOAD DUP1 SWAP2 SUB SWAP1 REVERT JUMPDEST PUSH0 DUP3 MLOAD GT PUSH2 0x6B2 JUMPI PUSH1 0x40 MLOAD PUSH32 0x8C379A000000000000000000000000000000000000000000000000000000000 DUP2 MSTORE PUSH1 0x4 ADD PUSH2 0x6A9 SWAP1 PUSH2 0x1D03 JUMP JUMPDEST PUSH1 0x40 MLOAD DUP1 SWAP2 SUB SWAP1 REVERT JUMPDEST PUSH0 PUSH1 0x40 MLOAD DUP1 PUSH1 0xA0 ADD PUSH1 0x40 MSTORE DUP1 DUP6 DUP2 MSTORE PUSH1 0x20 ADD DUP5 DUP2 MSTORE PUSH1 0x20 ADD PUSH0 DUP2 MSTORE PUSH1 0x20 ADD TIMESTAMP DUP2 MSTORE PUSH1 0x20 ADD PUSH1 0x1 ISZERO ISZERO DUP2 MSTORE POP SWAP1 POP DUP1 PUSH0 PUSH0 DUP5 PUSH20 0xFFFFFFFFFFFFFFFFFFFFFFFFFFFFFFFFFFFFFFFF AND PUSH20 0xFFFFFFFFFFFFFFFFFFFFFFFFFFFFFFFFFFFFFFFF AND DUP2 MSTORE PUSH1 0x20 ADD SWAP1 DUP2 MSTORE PUSH1 0x20 ADD PUSH0 KECCAK256 PUSH0 DUP3 ADD MLOAD DUP2 PUSH0 ADD SWAP1 DUP2 PUSH2 0x72F SWAP2 SWAP1 PUSH2 0x1ED2 JUMP JUMPDEST POP PUSH1 0x20 DUP3 ADD MLOAD DUP2 PUSH1 0x1 ADD SWAP1 DUP2 PUSH2 0x745 SWAP2 SWAP1 PUSH2 0x1ED2 JUMP JUMPDEST POP PUSH1 0x40 DUP3 ADD MLOAD DUP2 PUSH1 0x2 ADD SSTORE PUSH1 0x60 DUP3 ADD MLOAD DUP2 PUSH1 0x3 ADD SSTORE PUSH1 0x80 DUP3 ADD MLOAD DUP2 PUSH1 0x4 ADD PUSH0 PUSH2 0x100 EXP DUP2 SLOAD DUP2 PUSH1 0xFF MUL NOT AND SWAP1 DUP4 ISZERO ISZERO MUL OR SWAP1 SSTORE POP SWAP1 POP POP PUSH1 0x1 DUP3 SWAP1 DUP1 PUSH1 0x1 DUP2 SLOAD ADD DUP1 DUP3 SSTORE DUP1 SWAP2 POP POP PUSH1 0x1 SWAP1 SUB SWAP1 PUSH0 MSTORE PUSH1 0x20 PUSH0 KECCAK256 ADD PUSH0 SWAP1 SWAP2 SWAP1 SWAP2 SWAP1 SWAP2 PUSH2 0x100 EXP DUP2 SLOAD DUP2 PUSH20 0xFFFFFFFFFFFFFFFFFFFFFFFFFFFFFFFFFFFFFFFF MUL NOT AND SWAP1 DUP4 PUSH20 0xFFFFFFFFFFFFFFFFFFFFFFFFFFFFFFFFFFFFFFFF AND MUL OR SWAP1 SSTORE POP PUSH1 0x2 PUSH0 DUP2 SLOAD DUP1 SWAP3 SWAP2 SWAP1 PUSH2 0x7EE SWAP1 PUSH2 0x1B3A JUMP JUMPDEST SWAP2 SWAP1 POP SSTORE POP DUP2 PUSH20 0xFFFFFFFFFFFFFFFFFFFFFFFFFFFFFFFFFFFFFFFF AND PUSH32 0x48CAC28AD4DC618E15F4C2DD5E97751182F166DE97B25618318B2112AA951A2F DUP6 PUSH1 0x40 MLOAD PUSH2 0x839 SWAP2 SWAP1 PUSH2 0x1FA1 JUMP JUMPDEST PUSH1 0x40 MLOAD DUP1 SWAP2 SUB SWAP1 LOG2 POP POP POP POP JUMP JUMPDEST PUSH1 0x1 DUP2 DUP2 SLOAD DUP2 LT PUSH2 0x856 JUMPI PUSH0 DUP1 REVERT JUMPDEST SWAP1 PUSH0 MSTORE PUSH1 0x20 PUSH0 KECCAK256 ADD PUSH0 SWAP2 POP SLOAD SWAP1 PUSH2 0x100 EXP SWAP1 DIV PUSH20 0xFFFFFFFFFFFFFFFFFFFFFFFFFFFFFFFFFFFFFFFF AND DUP2 JUMP JUMPDEST PUSH2 0x88A PUSH2 0x11F8 JUMP JUMPDEST PUSH0 PUSH0 DUP4 PUSH20 0xFFFFFFFFFFFFFFFFFFFFFFFFFFFFFFFFFFFFFFFF AND PUSH20 0xFFFFFFFFFFFFFFFFFFFFFFFFFFFFFFFFFFFFFFFF AND DUP2 MSTORE PUSH1 0x20 ADD SWAP1 DUP2 MSTORE PUSH1 0x20 ADD PUSH0 KECCAK256 PUSH1 0x4 ADD PUSH0 SWAP1 SLOAD SWAP1 PUSH2 0x100 EXP SWAP1 DIV PUSH1 0xFF AND PUSH2 0x915 JUMPI PUSH1 0x40 MLOAD PUSH32 0x8C379A000000000000000000000000000000000000000000000000000000000 DUP2 MSTORE PUSH1 0x4 ADD PUSH2 0x90C SWAP1 PUSH2 0x200B JUMP JUMPDEST PUSH1 0x40 MLOAD DUP1 SWAP2 SUB SWAP1 REVERT JUMPDEST PUSH0 PUSH0 DUP4 PUSH20 0xFFFFFFFFFFFFFFFFFFFFFFFFFFFFFFFFFFFFFFFF AND PUSH20 0xFFFFFFFFFFFFFFFFFFFFFFFFFFFFFFFFFFFFFFFF AND DUP2 MSTORE PUSH1 0x20 ADD SWAP1 DUP2 MSTORE PUSH1 0x20 ADD PUSH0 KECCAK256 PUSH1 0x40 MLOAD DUP1 PUSH1 0xA0 ADD PUSH1 0x40 MSTORE SWAP1 DUP2 PUSH0 DUP3 ADD DUP1 SLOAD PUSH2 0x96B SWAP1 PUSH2 0x1ADD JUMP JUMPDEST DUP1 PUSH1 0x1F ADD PUSH1 0x20 DUP1 SWAP2 DIV MUL PUSH1 0x20 ADD PUSH1 0x40 MLOAD SWAP1 DUP2 ADD PUSH1 0x40 MSTORE DUP1 SWAP3 SWAP2 SWAP1 DUP2 DUP2 MSTORE PUSH1 0x20 ADD DUP3 DUP1 SLOAD PUSH2 0x997 SWAP1 PUSH2 0x1ADD JUMP JUMPDEST DUP1 ISZERO PUSH2 0x9E2 JUMPI DUP1 PUSH1 0x1F LT PUSH2 0x9B9 JUMPI PUSH2 0x100 DUP1 DUP4 SLOAD DIV MUL DUP4 MSTORE SWAP2 PUSH1 0x20 ADD SWAP2 PUSH2 0x9E2 JUMP JUMPDEST DUP3 ADD SWAP2 SWAP1 PUSH0 MSTORE PUSH1 0x20 PUSH0 KECCAK256 SWAP1 JUMPDEST DUP2 SLOAD DUP2 MSTORE SWAP1 PUSH1 0x1 ADD SWAP1 PUSH1 0x20 ADD DUP1 DUP4 GT PUSH2 0x9C5 JUMPI DUP3 SWAP1 SUB PUSH1 0x1F AND DUP3 ADD SWAP2 JUMPDEST POP POP POP POP POP DUP2 MSTORE PUSH1 0x20 ADD PUSH1 0x1 DUP3 ADD DUP1 SLOAD PUSH2 0x9FB SWAP1 PUSH2 0x1ADD JUMP JUMPDEST DUP1 PUSH1 0x1F ADD PUSH1 0x20 DUP1 SWAP2 DIV MUL PUSH1 0x20 ADD PUSH1 0x40 MLOAD SWAP1 DUP2 ADD PUSH1 0x40 MSTORE DUP1 SWAP3 SWAP2 SWAP1 DUP2 DUP2 MSTORE PUSH1 0x20 ADD DUP3 DUP1 SLOAD PUSH2 0xA27 SWAP1 PUSH2 0x1ADD JUMP JUMPDEST DUP1 ISZERO PUSH2 0xA72 JUMPI DUP1 PUSH1 0x1F LT PUSH2 0xA49 JUMPI PUSH2 0x100 DUP1 DUP4 SLOAD DIV MUL DUP4 MSTORE SWAP2 PUSH1 0x20 ADD SWAP2 PUSH2 0xA72 JUMP JUMPDEST DUP3 ADD SWAP2 SWAP1 PUSH0 MSTORE PUSH1 0x20 PUSH0 KECCAK256 SWAP1 JUMPDEST DUP2 SLOAD DUP2 MSTORE SWAP1 PUSH1 0x1 ADD SWAP1 PUSH1 0x20 ADD DUP1 DUP4 GT PUSH2 0xA55 JUMPI DUP3 SWAP1 SUB PUSH1 0x1F AND DUP3 ADD SWAP2 JUMPDEST POP POP POP POP POP DUP2 MSTORE PUSH1 0x20 ADD PUSH1 0x2 DUP3 ADD SLOAD DUP2 MSTORE PUSH1 0x20 ADD PUSH1 0x3 DUP3 ADD SLOAD DUP2 MSTORE PUSH1 0x20 ADD PUSH1 0x4 DUP3 ADD PUSH0 SWAP1 SLOAD SWAP1 PUSH2 0x100 EXP SWAP1 DIV PUSH1 0xFF AND ISZERO ISZERO ISZERO ISZERO DUP2 MSTORE POP POP SWAP1 POP SWAP2 SWAP1 POP JUMP JUMPDEST PUSH0 PUSH1 0x20 MSTORE DUP1 PUSH0 MSTORE PUSH1 0x40 PUSH0 KECCAK256 PUSH0 SWAP2 POP SWAP1 POP DUP1 PUSH0 ADD DUP1 SLOAD PUSH2 0xACE SWAP1 PUSH2 0x1ADD JUMP JUMPDEST DUP1 PUSH1 0x1F ADD PUSH1 0x20 DUP1 SWAP2 DIV MUL PUSH1 0x20 ADD PUSH1 0x40 MLOAD SWAP1 DUP2 ADD PUSH1 0x40 MSTORE DUP1 SWAP3 SWAP2 SWAP1 DUP2 DUP2 MSTORE PUSH1 0x20 ADD DUP3 DUP1 SLOAD PUSH2 0xAFA SWAP1 PUSH2 0x1ADD JUMP JUMPDEST DUP1 ISZERO PUSH2 0xB45 JUMPI DUP1 PUSH1 0x1F LT PUSH2 0xB1C JUMPI PUSH2 0x100 DUP1 DUP4 SLOAD DIV MUL DUP4 MSTORE SWAP2 PUSH1 0x20 ADD SWAP2 PUSH2 0xB45 JUMP JUMPDEST DUP3 ADD SWAP2 SWAP1 PUSH0 MSTORE PUSH1 0x20 PUSH0 KECCAK256 SWAP1 JUMPDEST DUP2 SLOAD DUP2 MSTORE SWAP1 PUSH1 0x1 ADD SWAP1 PUSH1 0x20 ADD DUP1 DUP4 GT PUSH2 0xB28 JUMPI DUP3 SWAP1 SUB PUSH1 0x1F AND DUP3 ADD SWAP2 JUMPDEST POP POP POP POP POP SWAP1 DUP1 PUSH1 0x1 ADD DUP1 SLOAD PUSH2 0xB5A SWAP1 PUSH2 0x1ADD JUMP JUMPDEST DUP1 PUSH1 0x1F ADD PUSH1 0x20 DUP1 SWAP2 DIV MUL PUSH1 0x20 ADD PUSH1 0x40 MLOAD SWAP1 DUP2 ADD PUSH1 0x40 MSTORE DUP1 SWAP3 SWAP2 SWAP1 DUP2 DUP2 MSTORE PUSH1 0x20 ADD DUP3 DUP1 SLOAD PUSH2 0xB86 SWAP1 PUSH2 0x1ADD JUMP JUMPDEST DUP1 ISZERO PUSH2 0xBD1 JUMPI DUP1 PUSH1 0x1F LT PUSH2 0xBA8 JUMPI PUSH2 0x100 DUP1 DUP4 SLOAD DIV MUL DUP4 MSTORE SWAP2 PUSH1 0x20 ADD SWAP2 PUSH2 0xBD1 JUMP JUMPDEST DUP3 ADD SWAP2 SWAP1 PUSH0 MSTORE PUSH1 0x20 PUSH0 KECCAK256 SWAP1 JUMPDEST DUP2 SLOAD DUP2 MSTORE SWAP1 PUSH1 0x1 ADD SWAP1 PUSH1 0x20 ADD DUP1 DUP4 GT PUSH2 0xBB4 JUMPI DUP3 SWAP1 SUB PUSH1 0x1F AND DUP3 ADD SWAP2 JUMPDEST POP POP POP POP POP SWAP1 DUP1 PUSH1 0x2 ADD SLOAD SWAP1 DUP1 PUSH1 0x3 ADD SLOAD SWAP1 DUP1 PUSH1 0x4 ADD PUSH0 SWAP1 SLOAD SWAP1 PUSH2 0x100 EXP SWAP1 DIV PUSH1 0xFF AND SWAP1 POP DUP6 JUMP JUMPDEST PUSH0 PUSH0 PUSH0 DUP4 PUSH20 0xFFFFFFFFFFFFFFFFFFFFFFFFFFFFFFFFFFFFFFFF AND PUSH20 0xFFFFFFFFFFFFFFFFFFFFFFFFFFFFFFFFFFFFFFFF AND DUP2 MSTORE PUSH1 0x20 ADD SWAP1 DUP2 MSTORE PUSH1 0x20 ADD PUSH0 KECCAK256 PUSH1 0x4 ADD PUSH0 SWAP1 SLOAD SWAP1 PUSH2 0x100 EXP SWAP1 DIV PUSH1 0xFF AND PUSH2 0xC85 JUMPI PUSH1 0x40 MLOAD PUSH32 0x8C379A000000000000000000000000000000000000000000000000000000000 DUP2 MSTORE PUSH1 0x4 ADD PUSH2 0xC7C SWAP1 PUSH2 0x200B JUMP JUMPDEST PUSH1 0x40 MLOAD DUP1 SWAP2 SUB SWAP1 REVERT JUMPDEST PUSH0 PUSH0 DUP4 PUSH20 0xFFFFFFFFFFFFFFFFFFFFFFFFFFFFFFFFFFFFFFFF AND PUSH20 0xFFFFFFFFFFFFFFFFFFFFFFFFFFFFFFFFFFFFFFFF AND DUP2 MSTORE PUSH1 0x20 ADD SWAP1 DUP2 MSTORE PUSH1 0x20 ADD PUSH0 KECCAK256 PUSH1 0x4 ADD PUSH0 SWAP1 SLOAD SWAP1 PUSH2 0x100 EXP SWAP1 DIV PUSH1 0xFF AND SWAP1 POP SWAP2 SWAP1 POP JUMP JUMPDEST PUSH0 CALLER SWAP1 POP PUSH0 PUSH0 DUP3 PUSH20 0xFFFFFFFFFFFFFFFFFFFFFFFFFFFFFFFFFFFFFFFF AND PUSH20 0xFFFFFFFFFFFFFFFFFFFFFFFFFFFFFFFFFFFFFFFF AND DUP2 MSTORE PUSH1 0x20 ADD SWAP1 DUP2 MSTORE PUSH1 0x20 ADD PUSH0 KECCAK256 PUSH1 0x4 ADD PUSH0 SWAP1 SLOAD SWAP1 PUSH2 0x100 EXP SWAP1 DIV PUSH1 0xFF AND PUSH2 0xD67 JUMPI PUSH1 0x40 MLOAD PUSH32 0x8C379A000000000000000000000000000000000000000000000000000000000 DUP2 MSTORE PUSH1 0x4 ADD PUSH2 0xD5E SWAP1 PUSH2 0x200B JUMP JUMPDEST PUSH1 0x40 MLOAD DUP1 SWAP2 SUB SWAP1 REVERT JUMPDEST DUP3 PUSH0 PUSH0 DUP4 PUSH20 0xFFFFFFFFFFFFFFFFFFFFFFFFFFFFFFFFFFFFFFFF AND PUSH20 0xFFFFFFFFFFFFFFFFFFFFFFFFFFFFFFFFFFFFFFFF AND DUP2 MSTORE PUSH1 0x20 ADD SWAP1 DUP2 MSTORE PUSH1 0x20 ADD PUSH0 KECCAK256 PUSH0 ADD SWAP1 DUP2 PUSH2 0xDB2 SWAP2 SWAP1 PUSH2 0x1ED2 JUMP JUMPDEST POP DUP2 PUSH0 PUSH0 DUP4 PUSH20 0xFFFFFFFFFFFFFFFFFFFFFFFFFFFFFFFFFFFFFFFF AND PUSH20 0xFFFFFFFFFFFFFFFFFFFFFFFFFFFFFFFFFFFFFFFF AND DUP2 MSTORE PUSH1 0x20 ADD SWAP1 DUP2 MSTORE PUSH1 0x20 ADD PUSH0 KECCAK256 PUSH1 0x1 ADD SWAP1 DUP2 PUSH2 0xDFF SWAP2 SWAP1 PUSH2 0x1ED2 JUMP JUMPDEST POP DUP1 PUSH20 0xFFFFFFFFFFFFFFFFFFFFFFFFFFFFFFFFFFFFFFFF AND PUSH32 0xD6136F3CAD7C60BFC24BBF1548F39F766CA8BCE104BF9ADDE3DEB6237DEC51DF DUP5 PUSH1 0x40 MLOAD PUSH2 0xE46 SWAP2 SWAP1 PUSH2 0x1FA1 JUMP JUMPDEST PUSH1 0x40 MLOAD DUP1 SWAP2 SUB SWAP1 LOG2 POP POP POP JUMP JUMPDEST PUSH1 0x60 PUSH1 0x1 DUP1 SLOAD DUP1 PUSH1 0x20 MUL PUSH1 0x20 ADD PUSH1 0x40 MLOAD SWAP1 DUP2 ADD PUSH1 0x40 MSTORE DUP1 SWAP3 SWAP2 SWAP1 DUP2 DUP2 MSTORE PUSH1 0x20 ADD DUP3 DUP1 SLOAD DUP1 ISZERO PUSH2 0xED4 JUMPI PUSH1 0x20 MUL DUP3 ADD SWAP2 SWAP1 PUSH0 MSTORE PUSH1 0x20 PUSH0 KECCAK256 SWAP1 JUMPDEST DUP2 PUSH0 SWAP1 SLOAD SWAP1 PUSH2 0x100 EXP SWAP1 DIV PUSH20 0xFFFFFFFFFFFFFFFFFFFFFFFFFFFFFFFFFFFFFFFF AND PUSH20 0xFFFFFFFFFFFFFFFFFFFFFFFFFFFFFFFFFFFFFFFF AND DUP2 MSTORE PUSH1 0x20 ADD SWAP1 PUSH1 0x1 ADD SWAP1 DUP1 DUP4 GT PUSH2 0xE8B JUMPI JUMPDEST POP POP POP POP POP SWAP1 POP SWAP1 JUMP JUMPDEST PUSH1 0x60 DUP2 DUP4 GT ISZERO PUSH2 0xF23 JUMPI PUSH1 0x40 MLOAD PUSH32 0x8C379A000000000000000000000000000000000000000000000000000000000 DUP2 MSTORE PUSH1 0x4 ADD PUSH2 0xF1A SWAP1 PUSH2 0x2073 JUMP JUMPDEST PUSH1 0x40 MLOAD DUP1 SWAP2 SUB SWAP1 REVERT JUMPDEST PUSH1 0x2 SLOAD DUP3 GT ISZERO PUSH2 0xF68 JUMPI PUSH1 0x40 MLOAD PUSH32 0x8C379A000000000000000000000000000000000000000000000000000000000 DUP2 MSTORE PUSH1 0x4 ADD PUSH2 0xF5F SWAP1 PUSH2 0x20DB JUMP JUMPDEST PUSH1 0x40 MLOAD DUP1 SWAP2 SUB SWAP1 REVERT JUMPDEST PUSH0 DUP4 DUP4 PUSH2 0xF75 SWAP2 SWAP1 PUSH2 0x20F9 JUMP JUMPDEST PUSH8 0xFFFFFFFFFFFFFFFF DUP2 GT ISZERO PUSH2 0xF8E JUMPI PUSH2 0xF8D PUSH2 0x124B JUMP JUMPDEST JUMPDEST PUSH1 0x40 MLOAD SWAP1 DUP1 DUP3 MSTORE DUP1 PUSH1 0x20 MUL PUSH1 0x20 ADD DUP3 ADD PUSH1 0x40 MSTORE DUP1 ISZERO PUSH2 0xFBC JUMPI DUP2 PUSH1 0x20 ADD PUSH1 0x20 DUP3 MUL DUP1 CALLDATASIZE DUP4 CALLDATACOPY DUP1 DUP3 ADD SWAP2 POP POP SWAP1 POP JUMPDEST POP SWAP1 POP PUSH0 PUSH0 SWAP1 POP PUSH0 DUP6 SWAP1 POP JUMPDEST DUP5 DUP2 LT ISZERO PUSH2 0x1074 JUMPI PUSH1 0x1 DUP2 DUP2 SLOAD DUP2 LT PUSH2 0xFE4 JUMPI PUSH2 0xFE3 PUSH2 0x1A83 JUMP JUMPDEST JUMPDEST SWAP1 PUSH0 MSTORE PUSH1 0x20 PUSH0 KECCAK256 ADD PUSH0 SWAP1 SLOAD SWAP1 PUSH2 0x100 EXP SWAP1 DIV PUSH20 0xFFFFFFFFFFFFFFFFFFFFFFFFFFFFFFFFFFFFFFFF AND DUP4 DUP4 DUP2 MLOAD DUP2 LT PUSH2 0x101F JUMPI PUSH2 0x101E PUSH2 0x1A83 JUMP JUMPDEST JUMPDEST PUSH1 0x20 MUL PUSH1 0x20 ADD ADD SWAP1 PUSH20 0xFFFFFFFFFFFFFFFFFFFFFFFFFFFFFFFFFFFFFFFF AND SWAP1 DUP2 PUSH20 0xFFFFFFFFFFFFFFFFFFFFFFFFFFFFFFFFFFFFFFFF AND DUP2 MSTORE POP POP DUP2 DUP1 PUSH2 0x1064 SWAP1 PUSH2 0x1B3A JUMP JUMPDEST SWAP3 POP POP DUP1 DUP1 PUSH1 0x1 ADD SWAP2 POP POP PUSH2 0xFC8 JUMP JUMPDEST POP DUP2 SWAP3 POP POP POP SWAP3 SWAP2 POP POP JUMP JUMPDEST PUSH0 PUSH0 CALLER PUSH20 0xFFFFFFFFFFFFFFFFFFFFFFFFFFFFFFFFFFFFFFFF AND PUSH20 0xFFFFFFFFFFFFFFFFFFFFFFFFFFFFFFFFFFFFFFFF AND DUP2 MSTORE PUSH1 0x20 ADD SWAP1 DUP2 MSTORE PUSH1 0x20 ADD PUSH0 KECCAK256 PUSH1 0x4 ADD PUSH0 SWAP1 SLOAD SWAP1 PUSH2 0x100 EXP SWAP1 DIV PUSH1 0xFF AND PUSH2 0x110B JUMPI PUSH1 0x40 MLOAD PUSH32 0x8C379A000000000000000000000000000000000000000000000000000000000 DUP2 MSTORE PUSH1 0x4 ADD PUSH2 0x1102 SWAP1 PUSH2 0x200B JUMP JUMPDEST PUSH1 0x40 MLOAD DUP1 SWAP2 SUB SWAP1 REVERT JUMPDEST PUSH0 CALLVALUE GT PUSH2 0x114D JUMPI PUSH1 0x40 MLOAD PUSH32 0x8C379A000000000000000000000000000000000000000000000000000000000 DUP2 MSTORE PUSH1 0x4 ADD PUSH2 0x1144 SWAP1 PUSH2 0x2176 JUMP JUMPDEST PUSH1 0x40 MLOAD DUP1 SWAP2 SUB SWAP1 REVERT JUMPDEST CALLVALUE PUSH0 PUSH0 CALLER PUSH20 0xFFFFFFFFFFFFFFFFFFFFFFFFFFFFFFFFFFFFFFFF AND PUSH20 0xFFFFFFFFFFFFFFFFFFFFFFFFFFFFFFFFFFFFFFFF AND DUP2 MSTORE PUSH1 0x20 ADD SWAP1 DUP2 MSTORE PUSH1 0x20 ADD PUSH0 KECCAK256 PUSH1 0x2 ADD PUSH0 DUP3 DUP3 SLOAD PUSH2 0x119B SWAP2 SWAP1 PUSH2 0x2194 JUMP JUMPDEST SWAP3 POP POP DUP2 SWAP1 SSTORE POP CALLER PUSH20 0xFFFFFFFFFFFFFFFFFFFFFFFFFFFFFFFFFFFFFFFF AND PUSH32 0xE1FFFCC4923D04B559F4D29A8BFC6CDA04EB5B0D3C460751C2402C5C5CC9109C CALLVALUE PUSH1 0x40 MLOAD PUSH2 0x11E8 SWAP2 SWAP1 PUSH2 0x161E JUMP JUMPDEST PUSH1 0x40 MLOAD DUP1 SWAP2 SUB SWAP1 LOG2 JUMP JUMPDEST PUSH2 0x3E8 DUP2 JUMP JUMPDEST PUSH1 0x40 MLOAD DUP1 PUSH1 0xA0 ADD PUSH1 0x40 MSTORE DUP1 PUSH1 0x60 DUP2 MSTORE PUSH1 0x20 ADD PUSH1 0x60 DUP2 MSTORE PUSH1 0x20 ADD PUSH0 DUP2 MSTORE PUSH1 0x20 ADD PUSH0 DUP2 MSTORE PUSH1 0x20 ADD PUSH0 ISZERO ISZERO DUP2 MSTORE POP SWAP1 JUMP JUMPDEST PUSH0 PUSH1 0x40 MLOAD SWAP1 POP SWAP1 JUMP JUMPDEST PUSH0 PUSH0 REVERT JUMPDEST PUSH0 PUSH0 REVERT JUMPDEST PUSH0 PUSH0 REVERT JUMPDEST PUSH0 PUSH1 0x1F NOT PUSH1 0x1F DUP4 ADD AND SWAP1 POP SWAP2 SWAP1 POP JUMP JUMPDEST PUSH32 0x4E487B7100000000000000000000000000000000000000000000000000000000 PUSH0 MSTORE PUSH1 0x41 PUSH1 0x4 MSTORE PUSH1 0x24 PUSH0 REVERT JUMPDEST PUSH2 0x1281 DUP3 PUSH2 0x123B JUMP JUMPDEST DUP2 ADD DUP2 DUP2 LT PUSH8 0xFFFFFFFFFFFFFFFF DUP3 GT OR ISZERO PUSH2 0x12A0 JUMPI PUSH2 0x129F PUSH2 0x124B JUMP JUMPDEST JUMPDEST DUP1 PUSH1 0x40 MSTORE POP POP POP JUMP JUMPDEST PUSH0 PUSH2 0x12B2 PUSH2 0x1226 JUMP JUMPDEST SWAP1 POP PUSH2 0x12BE DUP3 DUP3 PUSH2 0x1278 JUMP JUMPDEST SWAP2 SWAP1 POP JUMP JUMPDEST PUSH0 PUSH8 0xFFFFFFFFFFFFFFFF DUP3 GT ISZERO PUSH2 0x12DD JUMPI PUSH2 0x12DC PUSH2 0x124B JUMP JUMPDEST JUMPDEST PUSH1 0x20 DUP3 MUL SWAP1 POP PUSH1 0x20 DUP2 ADD SWAP1 POP SWAP2 SWAP1 POP JUMP JUMPDEST PUSH0 PUSH0 REVERT JUMPDEST PUSH0 PUSH20 0xFFFFFFFFFFFFFFFFFFFFFFFFFFFFFFFFFFFFFFFF DUP3 AND SWAP1 POP SWAP2 SWAP1 POP JUMP JUMPDEST PUSH0 PUSH2 0x131B DUP3 PUSH2 0x12F2 JUMP JUMPDEST SWAP1 POP SWAP2 SWAP1 POP JUMP JUMPDEST PUSH2 0x132B DUP2 PUSH2 0x1311 JUMP JUMPDEST DUP2 EQ PUSH2 0x1335 JUMPI PUSH0 PUSH0 REVERT JUMPDEST POP JUMP JUMPDEST PUSH0 DUP2 CALLDATALOAD SWAP1 POP PUSH2 0x1346 DUP2 PUSH2 0x1322 JUMP JUMPDEST SWAP3 SWAP2 POP POP JUMP JUMPDEST PUSH0 PUSH2 0x135E PUSH2 0x1359 DUP5 PUSH2 0x12C3 JUMP JUMPDEST PUSH2 0x12A9 JUMP JUMPDEST SWAP1 POP DUP1 DUP4 DUP3 MSTORE PUSH1 0x20 DUP3 ADD SWAP1 POP PUSH1 0x20 DUP5 MUL DUP4 ADD DUP6 DUP2 GT ISZERO PUSH2 0x1381 JUMPI PUSH2 0x1380 PUSH2 0x12EE JUMP JUMPDEST JUMPDEST DUP4 JUMPDEST DUP2 DUP2 LT ISZERO PUSH2 0x13AA JUMPI DUP1 PUSH2 0x1396 DUP9 DUP3 PUSH2 0x1338 JUMP JUMPDEST DUP5 MSTORE PUSH1 0x20 DUP5 ADD SWAP4 POP POP PUSH1 0x20 DUP2 ADD SWAP1 POP PUSH2 0x1383 JUMP JUMPDEST POP POP POP SWAP4 SWAP3 POP POP POP JUMP JUMPDEST PUSH0 DUP3 PUSH1 0x1F DUP4 ADD SLT PUSH2 0x13C8 JUMPI PUSH2 0x13C7 PUSH2 0x1237 JUMP JUMPDEST JUMPDEST DUP2 CALLDATALOAD PUSH2 0x13D8 DUP5 DUP3 PUSH1 0x20 DUP7 ADD PUSH2 0x134C JUMP JUMPDEST SWAP2 POP POP SWAP3 SWAP2 POP POP JUMP JUMPDEST PUSH0 PUSH1 0x20 DUP3 DUP5 SUB SLT ISZERO PUSH2 0x13F6 JUMPI PUSH2 0x13F5 PUSH2 0x122F JUMP JUMPDEST JUMPDEST PUSH0 DUP3 ADD CALLDATALOAD PUSH8 0xFFFFFFFFFFFFFFFF DUP2 GT ISZERO PUSH2 0x1413 JUMPI PUSH2 0x1412 PUSH2 0x1233 JUMP JUMPDEST JUMPDEST PUSH2 0x141F DUP5 DUP3 DUP6 ADD PUSH2 0x13B4 JUMP JUMPDEST SWAP2 POP POP SWAP3 SWAP2 POP POP JUMP JUMPDEST PUSH0 DUP2 MLOAD SWAP1 POP SWAP2 SWAP1 POP JUMP JUMPDEST PUSH0 DUP3 DUP3 MSTORE PUSH1 0x20 DUP3 ADD SWAP1 POP SWAP3 SWAP2 POP POP JUMP JUMPDEST PUSH0 DUP2 SWAP1 POP PUSH1 0x20 DUP3 ADD SWAP1 POP SWAP2 SWAP1 POP JUMP JUMPDEST PUSH0 DUP2 MLOAD SWAP1 POP SWAP2 SWAP1 POP JUMP JUMPDEST PUSH0 DUP3 DUP3 MSTORE PUSH1 0x20 DUP3 ADD SWAP1 POP SWAP3 SWAP2 POP POP JUMP JUMPDEST DUP3 DUP2 DUP4 MCOPY PUSH0 DUP4 DUP4 ADD MSTORE POP POP POP JUMP JUMPDEST PUSH0 PUSH2 0x1483 DUP3 PUSH2 0x1451 JUMP JUMPDEST PUSH2 0x148D DUP2 DUP6 PUSH2 0x145B JUMP JUMPDEST SWAP4 POP PUSH2 0x149D DUP2 DUP6 PUSH1 0x20 DUP7 ADD PUSH2 0x146B JUMP JUMPDEST PUSH2 0x14A6 DUP2 PUSH2 0x123B JUMP JUMPDEST DUP5 ADD SWAP2 POP POP SWAP3 SWAP2 POP POP JUMP JUMPDEST PUSH0 DUP2 SWAP1 POP SWAP2 SWAP1 POP JUMP JUMPDEST PUSH2 0x14C3 DUP2 PUSH2 0x14B1 JUMP JUMPDEST DUP3 MSTORE POP POP JUMP JUMPDEST PUSH0 DUP2 ISZERO ISZERO SWAP1 POP SWAP2 SWAP1 POP JUMP JUMPDEST PUSH2 0x14DD DUP2 PUSH2 0x14C9 JUMP JUMPDEST DUP3 MSTORE POP POP JUMP JUMPDEST PUSH0 PUSH1 0xA0 DUP4 ADD PUSH0 DUP4 ADD MLOAD DUP5 DUP3 SUB PUSH0 DUP7 ADD MSTORE PUSH2 0x14FD DUP3 DUP3 PUSH2 0x1479 JUMP JUMPDEST SWAP2 POP POP PUSH1 0x20 DUP4 ADD MLOAD DUP5 DUP3 SUB PUSH1 0x20 DUP7 ADD MSTORE PUSH2 0x1517 DUP3 DUP3 PUSH2 0x1479 JUMP JUMPDEST SWAP2 POP POP PUSH1 0x40 DUP4 ADD MLOAD PUSH2 0x152C PUSH1 0x40 DUP7 ADD DUP3 PUSH2 0x14BA JUMP JUMPDEST POP PUSH1 0x60 DUP4 ADD MLOAD PUSH2 0x153F PUSH1 0x60 DUP7 ADD DUP3 PUSH2 0x14BA JUMP JUMPDEST POP PUSH1 0x80 DUP4 ADD MLOAD PUSH2 0x1552 PUSH1 0x80 DUP7 ADD DUP3 PUSH2 0x14D4 JUMP JUMPDEST POP DUP1 SWAP2 POP POP SWAP3 SWAP2 POP POP JUMP JUMPDEST PUSH0 PUSH2 0x1568 DUP4 DUP4 PUSH2 0x14E3 JUMP JUMPDEST SWAP1 POP SWAP3 SWAP2 POP POP JUMP JUMPDEST PUSH0 PUSH1 0x20 DUP3 ADD SWAP1 POP SWAP2 SWAP1 POP JUMP JUMPDEST PUSH0 PUSH2 0x1586 DUP3 PUSH2 0x1428 JUMP JUMPDEST PUSH2 0x1590 DUP2 DUP6 PUSH2 0x1432 JUMP JUMPDEST SWAP4 POP DUP4 PUSH1 0x20 DUP3 MUL DUP6 ADD PUSH2 0x15A2 DUP6 PUSH2 0x1442 JUMP JUMPDEST DUP1 PUSH0 JUMPDEST DUP6 DUP2 LT ISZERO PUSH2 0x15DD JUMPI DUP5 DUP5 SUB DUP10 MSTORE DUP2 MLOAD PUSH2 0x15BE DUP6 DUP3 PUSH2 0x155D JUMP JUMPDEST SWAP5 POP PUSH2 0x15C9 DUP4 PUSH2 0x1570 JUMP JUMPDEST SWAP3 POP PUSH1 0x20 DUP11 ADD SWAP10 POP POP PUSH1 0x1 DUP2 ADD SWAP1 POP PUSH2 0x15A5 JUMP JUMPDEST POP DUP3 SWAP8 POP DUP8 SWAP6 POP POP POP POP POP POP SWAP3 SWAP2 POP POP JUMP JUMPDEST PUSH0 PUSH1 0x20 DUP3 ADD SWAP1 POP DUP2 DUP2 SUB PUSH0 DUP4 ADD MSTORE PUSH2 0x1607 DUP2 DUP5 PUSH2 0x157C JUMP JUMPDEST SWAP1 POP SWAP3 SWAP2 POP POP JUMP JUMPDEST PUSH2 0x1618 DUP2 PUSH2 0x14B1 JUMP JUMPDEST DUP3 MSTORE POP POP JUMP JUMPDEST PUSH0 PUSH1 0x20 DUP3 ADD SWAP1 POP PUSH2 0x1631 PUSH0 DUP4 ADD DUP5 PUSH2 0x160F JUMP JUMPDEST SWAP3 SWAP2 POP POP JUMP JUMPDEST PUSH0 PUSH0 REVERT JUMPDEST PUSH0 PUSH8 0xFFFFFFFFFFFFFFFF DUP3 GT ISZERO PUSH2 0x1655 JUMPI PUSH2 0x1654 PUSH2 0x124B JUMP JUMPDEST JUMPDEST PUSH2 0x165E DUP3 PUSH2 0x123B JUMP JUMPDEST SWAP1 POP PUSH1 0x20 DUP2 ADD SWAP1 POP SWAP2 SWAP1 POP JUMP JUMPDEST DUP3 DUP2 DUP4 CALLDATACOPY PUSH0 DUP4 DUP4 ADD MSTORE POP POP POP JUMP JUMPDEST PUSH0 PUSH2 0x168B PUSH2 0x1686 DUP5 PUSH2 0x163B JUMP JUMPDEST PUSH2 0x12A9 JUMP JUMPDEST SWAP1 POP DUP3 DUP2 MSTORE PUSH1 0x20 DUP2 ADD DUP5 DUP5 DUP5 ADD GT ISZERO PUSH2 0x16A7 JUMPI PUSH2 0x16A6 PUSH2 0x1637 JUMP JUMPDEST JUMPDEST PUSH2 0x16B2 DUP5 DUP3 DUP6 PUSH2 0x166B JUMP JUMPDEST POP SWAP4 SWAP3 POP POP POP JUMP JUMPDEST PUSH0 DUP3 PUSH1 0x1F DUP4 ADD SLT PUSH2 0x16CE JUMPI PUSH2 0x16CD PUSH2 0x1237 JUMP JUMPDEST JUMPDEST DUP2 CALLDATALOAD PUSH2 0x16DE DUP5 DUP3 PUSH1 0x20 DUP7 ADD PUSH2 0x1679 JUMP JUMPDEST SWAP2 POP POP SWAP3 SWAP2 POP POP JUMP JUMPDEST PUSH0 PUSH0 PUSH1 0x40 DUP4 DUP6 SUB SLT ISZERO PUSH2 0x16FD JUMPI PUSH2 0x16FC PUSH2 0x122F JUMP JUMPDEST JUMPDEST PUSH0 DUP4 ADD CALLDATALOAD PUSH8 0xFFFFFFFFFFFFFFFF DUP2 GT ISZERO PUSH2 0x171A JUMPI PUSH2 0x1719 PUSH2 0x1233 JUMP JUMPDEST JUMPDEST PUSH2 0x1726 DUP6 DUP3 DUP7 ADD PUSH2 0x16BA JUMP JUMPDEST SWAP3 POP POP PUSH1 0x20 DUP4 ADD CALLDATALOAD PUSH8 0xFFFFFFFFFFFFFFFF DUP2 GT ISZERO PUSH2 0x1747 JUMPI PUSH2 0x1746 PUSH2 0x1233 JUMP JUMPDEST JUMPDEST PUSH2 0x1753 DUP6 DUP3 DUP7 ADD PUSH2 0x16BA JUMP JUMPDEST SWAP2 POP POP SWAP3 POP SWAP3 SWAP1 POP JUMP JUMPDEST PUSH2 0x1766 DUP2 PUSH2 0x14B1 JUMP JUMPDEST DUP2 EQ PUSH2 0x1770 JUMPI PUSH0 PUSH0 REVERT JUMPDEST POP JUMP JUMPDEST PUSH0 DUP2 CALLDATALOAD SWAP1 POP PUSH2 0x1781 DUP2 PUSH2 0x175D JUMP JUMPDEST SWAP3 SWAP2 POP POP JUMP JUMPDEST PUSH0 PUSH1 0x20 DUP3 DUP5 SUB SLT ISZERO PUSH2 0x179C JUMPI PUSH2 0x179B PUSH2 0x122F JUMP JUMPDEST JUMPDEST PUSH0 PUSH2 0x17A9 DUP5 DUP3 DUP6 ADD PUSH2 0x1773 JUMP JUMPDEST SWAP2 POP POP SWAP3 SWAP2 POP POP JUMP JUMPDEST PUSH2 0x17BB DUP2 PUSH2 0x1311 JUMP JUMPDEST DUP3 MSTORE POP POP JUMP JUMPDEST PUSH0 PUSH1 0x20 DUP3 ADD SWAP1 POP PUSH2 0x17D4 PUSH0 DUP4 ADD DUP5 PUSH2 0x17B2 JUMP JUMPDEST SWAP3 SWAP2 POP POP JUMP JUMPDEST PUSH0 PUSH1 0x20 DUP3 DUP5 SUB SLT ISZERO PUSH2 0x17EF JUMPI PUSH2 0x17EE PUSH2 0x122F JUMP JUMPDEST JUMPDEST PUSH0 PUSH2 0x17FC DUP5 DUP3 DUP6 ADD PUSH2 0x1338 JUMP JUMPDEST SWAP2 POP POP SWAP3 SWAP2 POP POP JUMP JUMPDEST PUSH0 PUSH1 0xA0 DUP4 ADD PUSH0 DUP4 ADD MLOAD DUP5 DUP3 SUB PUSH0 DUP7 ADD MSTORE PUSH2 0x181F DUP3 DUP3 PUSH2 0x1479 JUMP JUMPDEST SWAP2 POP POP PUSH1 0x20 DUP4 ADD MLOAD DUP5 DUP3 SUB PUSH1 0x20 DUP7 ADD MSTORE PUSH2 0x1839 DUP3 DUP3 PUSH2 0x1479 JUMP JUMPDEST SWAP2 POP POP PUSH1 0x40 DUP4 ADD MLOAD PUSH2 0x184E PUSH1 0x40 DUP7 ADD DUP3 PUSH2 0x14BA JUMP JUMPDEST POP PUSH1 0x60 DUP4 ADD MLOAD PUSH2 0x1861 PUSH1 0x60 DUP7 ADD DUP3 PUSH2 0x14BA JUMP JUMPDEST POP PUSH1 0x80 DUP4 ADD MLOAD PUSH2 0x1874 PUSH1 0x80 DUP7 ADD DUP3 PUSH2 0x14D4 JUMP JUMPDEST POP DUP1 SWAP2 POP POP SWAP3 SWAP2 POP POP JUMP JUMPDEST PUSH0 PUSH1 0x20 DUP3 ADD SWAP1 POP DUP2 DUP2 SUB PUSH0 DUP4 ADD MSTORE PUSH2 0x1897 DUP2 DUP5 PUSH2 0x1805 JUMP JUMPDEST SWAP1 POP SWAP3 SWAP2 POP POP JUMP JUMPDEST PUSH0 DUP3 DUP3 MSTORE PUSH1 0x20 DUP3 ADD SWAP1 POP SWAP3 SWAP2 POP POP JUMP JUMPDEST PUSH0 PUSH2 0x18B9 DUP3 PUSH2 0x1451 JUMP JUMPDEST PUSH2 0x18C3 DUP2 DUP6 PUSH2 0x189F JUMP JUMPDEST SWAP4 POP PUSH2 0x18D3 DUP2 DUP6 PUSH1 0x20 DUP7 ADD PUSH2 0x146B JUMP JUMPDEST PUSH2 0x18DC DUP2 PUSH2 0x123B JUMP JUMPDEST DUP5 ADD SWAP2 POP POP SWAP3 SWAP2 POP POP JUMP JUMPDEST PUSH2 0x18F0 DUP2 PUSH2 0x14C9 JUMP JUMPDEST DUP3 MSTORE POP POP JUMP JUMPDEST PUSH0 PUSH1 0xA0 DUP3 ADD SWAP1 POP DUP2 DUP2 SUB PUSH0 DUP4 ADD MSTORE PUSH2 0x190E DUP2 DUP9 PUSH2 0x18AF JUMP JUMPDEST SWAP1 POP DUP2 DUP2 SUB PUSH1 0x20 DUP4 ADD MSTORE PUSH2 0x1922 DUP2 DUP8 PUSH2 0x18AF JUMP JUMPDEST SWAP1 POP PUSH2 0x1931 PUSH1 0x40 DUP4 ADD DUP7 PUSH2 0x160F JUMP JUMPDEST PUSH2 0x193E PUSH1 0x60 DUP4 ADD DUP6 PUSH2 0x160F JUMP JUMPDEST PUSH2 0x194B PUSH1 0x80 DUP4 ADD DUP5 PUSH2 0x18E7 JUMP JUMPDEST SWAP7 SWAP6 POP POP POP POP POP POP JUMP JUMPDEST PUSH0 PUSH1 0x20 DUP3 ADD SWAP1 POP PUSH2 0x1968 PUSH0 DUP4 ADD DUP5 PUSH2 0x18E7 JUMP JUMPDEST SWAP3 SWAP2 POP POP JUMP JUMPDEST PUSH0 DUP2 MLOAD SWAP1 POP SWAP2 SWAP1 POP JUMP JUMPDEST PUSH0 DUP3 DUP3 MSTORE PUSH1 0x20 DUP3 ADD SWAP1 POP SWAP3 SWAP2 POP POP JUMP JUMPDEST PUSH0 DUP2 SWAP1 POP PUSH1 0x20 DUP3 ADD SWAP1 POP SWAP2 SWAP1 POP JUMP JUMPDEST PUSH2 0x19A0 DUP2 PUSH2 0x1311 JUMP JUMPDEST DUP3 MSTORE POP POP JUMP JUMPDEST PUSH0 PUSH2 0x19B1 DUP4 DUP4 PUSH2 0x1997 JUMP JUMPDEST PUSH1 0x20 DUP4 ADD SWAP1 POP SWAP3 SWAP2 POP POP JUMP JUMPDEST PUSH0 PUSH1 0x20 DUP3 ADD SWAP1 POP SWAP2 SWAP1 POP JUMP JUMPDEST PUSH0 PUSH2 0x19D3 DUP3 PUSH2 0x196E JUMP JUMPDEST PUSH2 0x19DD DUP2 DUP6 PUSH2 0x1978 JUMP JUMPDEST SWAP4 POP PUSH2 0x19E8 DUP4 PUSH2 0x1988 JUMP JUMPDEST DUP1 PUSH0 JUMPDEST DUP4 DUP2 LT ISZERO PUSH2 0x1A18 JUMPI DUP2 MLOAD PUSH2 0x19FF DUP9 DUP3 PUSH2 0x19A6 JUMP JUMPDEST SWAP8 POP PUSH2 0x1A0A DUP4 PUSH2 0x19BD JUMP JUMPDEST SWAP3 POP POP PUSH1 0x1 DUP2 ADD SWAP1 POP PUSH2 0x19EB JUMP JUMPDEST POP DUP6 SWAP4 POP POP POP POP SWAP3 SWAP2 POP POP JUMP JUMPDEST PUSH0 PUSH1 0x20 DUP3 ADD SWAP1 POP DUP2 DUP2 SUB PUSH0 DUP4 ADD MSTORE PUSH2 0x1A3D DUP2 DUP5 PUSH2 0x19C9 JUMP JUMPDEST SWAP1 POP SWAP3 SWAP2 POP POP JUMP JUMPDEST PUSH0 PUSH0 PUSH1 0x40 DUP4 DUP6 SUB SLT ISZERO PUSH2 0x1A5B JUMPI PUSH2 0x1A5A PUSH2 0x122F JUMP JUMPDEST JUMPDEST PUSH0 PUSH2 0x1A68 DUP6 DUP3 DUP7 ADD PUSH2 0x1773 JUMP JUMPDEST SWAP3 POP POP PUSH1 0x20 PUSH2 0x1A79 DUP6 DUP3 DUP7 ADD PUSH2 0x1773 JUMP JUMPDEST SWAP2 POP POP SWAP3 POP SWAP3 SWAP1 POP JUMP JUMPDEST PUSH32 0x4E487B7100000000000000000000000000000000000000000000000000000000 PUSH0 MSTORE PUSH1 0x32 PUSH1 0x4 MSTORE PUSH1 0x24 PUSH0 REVERT JUMPDEST PUSH32 0x4E487B7100000000000000000000000000000000000000000000000000000000 PUSH0 MSTORE PUSH1 0x22 PUSH1 0x4 MSTORE PUSH1 0x24 PUSH0 REVERT JUMPDEST PUSH0 PUSH1 0x2 DUP3 DIV SWAP1 POP PUSH1 0x1 DUP3 AND DUP1 PUSH2 0x1AF4 JUMPI PUSH1 0x7F DUP3 AND SWAP2 POP JUMPDEST PUSH1 0x20 DUP3 LT DUP2 SUB PUSH2 0x1B07 JUMPI PUSH2 0x1B06 PUSH2 0x1AB0 JUMP JUMPDEST JUMPDEST POP SWAP2 SWAP1 POP JUMP JUMPDEST PUSH32 0x4E487B7100000000000000000000000000000000000000000000000000000000 PUSH0 MSTORE PUSH1 0x11 PUSH1 0x4 MSTORE PUSH1 0x24 PUSH0 REVERT JUMPDEST PUSH0 PUSH2 0x1B44 DUP3 PUSH2 0x14B1 JUMP JUMPDEST SWAP2 POP PUSH32 0xFFFFFFFFFFFFFFFFFFFFFFFFFFFFFFFFFFFFFFFFFFFFFFFFFFFFFFFFFFFFFFFF DUP3 SUB PUSH2 0x1B76 JUMPI PUSH2 0x1B75 PUSH2 0x1B0D JUMP JUMPDEST JUMPDEST PUSH1 0x1 DUP3 ADD SWAP1 POP SWAP2 SWAP1 POP JUMP JUMPDEST PUSH32 0x5573657220616C72656164792072656769737465726564210000000000000000 PUSH0 DUP3 ADD MSTORE POP JUMP JUMPDEST PUSH0 PUSH2 0x1BB5 PUSH1 0x18 DUP4 PUSH2 0x189F JUMP JUMPDEST SWAP2 POP PUSH2 0x1BC0 DUP3 PUSH2 0x1B81 JUMP JUMPDEST PUSH1 0x20 DUP3 ADD SWAP1 POP SWAP2 SWAP1 POP JUMP JUMPDEST PUSH0 PUSH1 0x20 DUP3 ADD SWAP1 POP DUP2 DUP2 SUB PUSH0 DUP4 ADD MSTORE PUSH2 0x1BE2 DUP2 PUSH2 0x1BA9 JUMP JUMPDEST SWAP1 POP SWAP2 SWAP1 POP JUMP JUMPDEST PUSH32 0x4D61782055736572732072656163686564210000000000000000000000000000 PUSH0 DUP3 ADD MSTORE POP JUMP JUMPDEST PUSH0 PUSH2 0x1C1D PUSH1 0x12 DUP4 PUSH2 0x189F JUMP JUMPDEST SWAP2 POP PUSH2 0x1C28 DUP3 PUSH2 0x1BE9 JUMP JUMPDEST PUSH1 0x20 DUP3 ADD SWAP1 POP SWAP2 SWAP1 POP JUMP JUMPDEST PUSH0 PUSH1 0x20 DUP3 ADD SWAP1 POP DUP2 DUP2 SUB PUSH0 DUP4 ADD MSTORE PUSH2 0x1C4A DUP2 PUSH2 0x1C11 JUMP JUMPDEST SWAP1 POP SWAP2 SWAP1 POP JUMP JUMPDEST PUSH32 0x4E616D6520726571756972656421000000000000000000000000000000000000 PUSH0 DUP3 ADD MSTORE POP JUMP JUMPDEST PUSH0 PUSH2 0x1C85 PUSH1 0xE DUP4 PUSH2 0x189F JUMP JUMPDEST SWAP2 POP PUSH2 0x1C90 DUP3 PUSH2 0x1C51 JUMP JUMPDEST PUSH1 0x20 DUP3 ADD SWAP1 POP SWAP2 SWAP1 POP JUMP JUMPDEST PUSH0 PUSH1 0x20 DUP3 ADD SWAP1 POP DUP2 DUP2 SUB PUSH0 DUP4 ADD MSTORE PUSH2 0x1CB2 DUP2 PUSH2 0x1C79 JUMP JUMPDEST SWAP1 POP SWAP2 SWAP1 POP JUMP JUMPDEST PUSH32 0x456D61696C207265717569726564210000000000000000000000000000000000 PUSH0 DUP3 ADD MSTORE POP JUMP JUMPDEST PUSH0 PUSH2 0x1CED PUSH1 0xF DUP4 PUSH2 0x189F JUMP JUMPDEST SWAP2 POP PUSH2 0x1CF8 DUP3 PUSH2 0x1CB9 JUMP JUMPDEST PUSH1 0x20 DUP3 ADD SWAP1 POP SWAP2 SWAP1 POP JUMP JUMPDEST PUSH0 PUSH1 0x20 DUP3 ADD SWAP1 POP DUP2 DUP2 SUB PUSH0 DUP4 ADD MSTORE PUSH2 0x1D1A DUP2 PUSH2 0x1CE1 JUMP JUMPDEST SWAP1 POP SWAP2 SWAP1 POP JUMP JUMPDEST PUSH0 DUP2 SWAP1 POP DUP2 PUSH0 MSTORE PUSH1 0x20 PUSH0 KECCAK256 SWAP1 POP SWAP2 SWAP1 POP JUMP JUMPDEST PUSH0 PUSH1 0x20 PUSH1 0x1F DUP4 ADD DIV SWAP1 POP SWAP2 SWAP1 POP JUMP JUMPDEST PUSH0 DUP3 DUP3 SHL SWAP1 POP SWAP3 SWAP2 POP POP JUMP JUMPDEST PUSH0 PUSH1 0x8 DUP4 MUL PUSH2 0x1D7D PUSH32 0xFFFFFFFFFFFFFFFFFFFFFFFFFFFFFFFFFFFFFFFFFFFFFFFFFFFFFFFFFFFFFFFF DUP3 PUSH2 0x1D42 JUMP JUMPDEST PUSH2 0x1D87 DUP7 DUP4 PUSH2 0x1D42 JUMP JUMPDEST SWAP6 POP DUP1 NOT DUP5 AND SWAP4 POP DUP1 DUP7 AND DUP5 OR SWAP3 POP POP POP SWAP4 SWAP3 POP POP POP JUMP JUMPDEST PUSH0 DUP2 SWAP1 POP SWAP2 SWAP1 POP JUMP JUMPDEST PUSH0 PUSH2 0x1DC2 PUSH2 0x1DBD PUSH2 0x1DB8 DUP5 PUSH2 0x14B1 JUMP JUMPDEST PUSH2 0x1D9F JUMP JUMPDEST PUSH2 0x14B1 JUMP JUMPDEST SWAP1 POP SWAP2 SWAP1 POP JUMP JUMPDEST PUSH0 DUP2 SWAP1 POP SWAP2 SWAP1 POP JUMP JUMPDEST PUSH2 0x1DDB DUP4 PUSH2 0x1DA8 JUMP JUMPDEST PUSH2 0x1DEF PUSH2 0x1DE7 DUP3 PUSH2 0x1DC9 JUMP JUMPDEST DUP5 DUP5 SLOAD PUSH2 0x1D4E JUMP JUMPDEST DUP3 SSTORE POP POP POP POP JUMP JUMPDEST PUSH0 PUSH0 SWAP1 POP SWAP1 JUMP JUMPDEST PUSH2 0x1E06 PUSH2 0x1DF7 JUMP JUMPDEST PUSH2 0x1E11 DUP2 DUP5 DUP5 PUSH2 0x1DD2 JUMP JUMPDEST POP POP POP JUMP JUMPDEST PUSH0 JUMPDEST DUP3 DUP2 LT ISZERO PUSH2 0x1E37 JUMPI PUSH2 0x1E2C PUSH0 DUP3 DUP5 ADD PUSH2 0x1DFE JUMP JUMPDEST PUSH1 0x1 DUP2 ADD SWAP1 POP PUSH2 0x1E18 JUMP JUMPDEST POP POP POP JUMP JUMPDEST PUSH1 0x1F DUP3 GT ISZERO PUSH2 0x1E8A JUMPI DUP3 DUP3 GT ISZERO PUSH2 0x1E89 JUMPI PUSH2 0x1E56 DUP2 PUSH2 0x1D21 JUMP JUMPDEST PUSH2 0x1E5F DUP4 PUSH2 0x1D33 JUMP JUMPDEST PUSH2 0x1E68 DUP6 PUSH2 0x1D33 JUMP JUMPDEST PUSH1 0x20 DUP7 LT ISZERO PUSH2 0x1E75 JUMPI PUSH0 SWAP1 POP JUMPDEST DUP1 DUP4 ADD PUSH2 0x1E84 DUP3 DUP5 SUB DUP3 PUSH2 0x1E16 JUMP JUMPDEST POP POP POP POP JUMPDEST JUMPDEST POP POP POP JUMP JUMPDEST PUSH0 DUP3 DUP3 SHR SWAP1 POP SWAP3 SWAP2 POP POP JUMP JUMPDEST PUSH0 PUSH2 0x1EAA PUSH0 NOT DUP5 PUSH1 0x8 MUL PUSH2 0x1E8F JUMP JUMPDEST NOT DUP1 DUP4 AND SWAP2 POP POP SWAP3 SWAP2 POP POP JUMP JUMPDEST PUSH0 PUSH2 0x1EC2 DUP4 DUP4 PUSH2 0x1E9B JUMP JUMPDEST SWAP2 POP DUP3 PUSH1 0x2 MUL DUP3 OR SWAP1 POP SWAP3 SWAP2 POP POP JUMP JUMPDEST PUSH2 0x1EDB DUP3 PUSH2 0x1451 JUMP JUMPDEST PUSH8 0xFFFFFFFFFFFFFFFF DUP2 GT ISZERO PUSH2 0x1EF4 JUMPI PUSH2 0x1EF3 PUSH2 0x124B JUMP JUMPDEST JUMPDEST PUSH2 0x1EFE DUP3 SLOAD PUSH2 0x1ADD JUMP JUMPDEST PUSH2 0x1F09 DUP3 DUP3 DUP6 PUSH2 0x1E3C JUMP JUMPDEST PUSH0 PUSH1 0x20 SWAP1 POP PUSH1 0x1F DUP4 GT PUSH1 0x1 DUP2 EQ PUSH2 0x1F3A JUMPI PUSH0 DUP5 ISZERO PUSH2 0x1F28 JUMPI DUP3 DUP8 ADD MLOAD SWAP1 POP JUMPDEST PUSH2 0x1F32 DUP6 DUP3 PUSH2 0x1EB7 JUMP JUMPDEST DUP7 SSTORE POP PUSH2 0x1F99 JUMP JUMPDEST PUSH1 0x1F NOT DUP5 AND PUSH2 0x1F48 DUP7 PUSH2 0x1D21 JUMP JUMPDEST PUSH0 JUMPDEST DUP3 DUP2 LT ISZERO PUSH2 0x1F6F JUMPI DUP5 DUP10 ADD MLOAD DUP3 SSTORE PUSH1 0x1 DUP3 ADD SWAP2 POP PUSH1 0x20 DUP6 ADD SWAP5 POP PUSH1 0x20 DUP2 ADD SWAP1 POP PUSH2 0x1F4A JUMP JUMPDEST DUP7 DUP4 LT ISZERO PUSH2 0x1F8C JUMPI DUP5 DUP10 ADD MLOAD PUSH2 0x1F88 PUSH1 0x1F DUP10 AND DUP3 PUSH2 0x1E9B JUMP JUMPDEST DUP4 SSTORE POP JUMPDEST PUSH1 0x1 PUSH1 0x2 DUP9 MUL ADD DUP9 SSTORE POP POP POP JUMPDEST POP POP POP POP POP POP JUMP JUMPDEST PUSH0 PUSH1 0x20 DUP3 ADD SWAP1 POP DUP2 DUP2 SUB PUSH0 DUP4 ADD MSTORE PUSH2 0x1FB9 DUP2 DUP5 PUSH2 0x18AF JUMP JUMPDEST SWAP1 POP SWAP3 SWAP2 POP POP JUMP JUMPDEST PUSH32 0x55736572206E6F74206578697374732100000000000000000000000000000000 PUSH0 DUP3 ADD MSTORE POP JUMP JUMPDEST PUSH0 PUSH2 0x1FF5 PUSH1 0x10 DUP4 PUSH2 0x189F JUMP JUMPDEST SWAP2 POP PUSH2 0x2000 DUP3 PUSH2 0x1FC1 JUMP JUMPDEST PUSH1 0x20 DUP3 ADD SWAP1 POP SWAP2 SWAP1 POP JUMP JUMPDEST PUSH0 PUSH1 0x20 DUP3 ADD SWAP1 POP DUP2 DUP2 SUB PUSH0 DUP4 ADD MSTORE PUSH2 0x2022 DUP2 PUSH2 0x1FE9 JUMP JUMPDEST SWAP1 POP SWAP2 SWAP1 POP JUMP JUMPDEST PUSH32 0x496E76616C69642072616E676521000000000000000000000000000000000000 PUSH0 DUP3 ADD MSTORE POP JUMP JUMPDEST PUSH0 PUSH2 0x205D PUSH1 0xE DUP4 PUSH2 0x189F JUMP JUMPDEST SWAP2 POP PUSH2 0x2068 DUP3 PUSH2 0x2029 JUMP JUMPDEST PUSH1 0x20 DUP3 ADD SWAP1 POP SWAP2 SWAP1 POP JUMP JUMPDEST PUSH0 PUSH1 0x20 DUP3 ADD SWAP1 POP DUP2 DUP2 SUB PUSH0 DUP4 ADD MSTORE PUSH2 0x208A DUP2 PUSH2 0x2051 JUMP JUMPDEST SWAP1 POP SWAP2 SWAP1 POP JUMP JUMPDEST PUSH32 0x496E646578206F7574206F6620626F756E647321000000000000000000000000 PUSH0 DUP3 ADD MSTORE POP JUMP JUMPDEST PUSH0 PUSH2 0x20C5 PUSH1 0x14 DUP4 PUSH2 0x189F JUMP JUMPDEST SWAP2 POP PUSH2 0x20D0 DUP3 PUSH2 0x2091 JUMP JUMPDEST PUSH1 0x20 DUP3 ADD SWAP1 POP SWAP2 SWAP1 POP JUMP JUMPDEST PUSH0 PUSH1 0x20 DUP3 ADD SWAP1 POP DUP2 DUP2 SUB PUSH0 DUP4 ADD MSTORE PUSH2 0x20F2 DUP2 PUSH2 0x20B9 JUMP JUMPDEST SWAP1 POP SWAP2 SWAP1 POP JUMP JUMPDEST PUSH0 PUSH2 0x2103 DUP3 PUSH2 0x14B1 JUMP JUMPDEST SWAP2 POP PUSH2 0x210E DUP4 PUSH2 0x14B1 JUMP JUMPDEST SWAP3 POP DUP3 DUP3 SUB SWAP1 POP DUP2 DUP2 GT ISZERO PUSH2 0x2126 JUMPI PUSH2 0x2125 PUSH2 0x1B0D JUMP JUMPDEST JUMPDEST SWAP3 SWAP2 POP POP JUMP JUMPDEST PUSH32 0x4D7573742073656E642045544821000000000000000000000000000000000000 PUSH0 DUP3 ADD MSTORE POP JUMP JUMPDEST PUSH0 PUSH2 0x2160 PUSH1 0xE DUP4 PUSH2 0x189F JUMP JUMPDEST SWAP2 POP PUSH2 0x216B DUP3 PUSH2 0x212C JUMP JUMPDEST PUSH1 0x20 DUP3 ADD SWAP1 POP SWAP2 SWAP1 POP JUMP JUMPDEST PUSH0 PUSH1 0x20 DUP3 ADD SWAP1 POP DUP2 DUP2 SUB PUSH0 DUP4 ADD MSTORE PUSH2 0x218D DUP2 PUSH2 0x2154 JUMP JUMPDEST SWAP1 POP SWAP2 SWAP1 POP JUMP JUMPDEST PUSH0 PUSH2 0x219E DUP3 PUSH2 0x14B1 JUMP JUMPDEST SWAP2 POP PUSH2 0x21A9 DUP4 PUSH2 0x14B1 JUMP JUMPDEST SWAP3 POP DUP3 DUP3 ADD SWAP1 POP DUP1 DUP3 GT ISZERO PUSH2 0x21C1 JUMPI PUSH2 0x21C0 PUSH2 0x1B0D JUMP JUMPDEST JUMPDEST SWAP3 SWAP2 POP POP JUMP INVALID LOG2 PUSH5 0x6970667358 0x22 SLT KECCAK256 RETURN 0xB2 EXTCODECOPY 0xD5 0xC2 0x24 0xBC SWAP2 SWAP9 0x2A 0xA7 0xBB PUSH4 0xAEC7AAAA 0xA7 0xAC MSTORE 0xC SWAP2 DUP2 SWAP2 0xCB SELFBALANCE SWAP10 SWAP3 SWAP8 SLT PUSH17 0xA964736F6C634300082200330000000000 "
				},
				"gasEstimates": {
					"creation": {
						"codeDepositCost": "1740200",
						"executionCost": "1825",
						"totalCost": "1742025"
					},
					"external": {
						"MAX_USERS()": "435",
						"despot()": "infinite",
						"getAllUsers()": "infinite",
						"getUserInfo(address)": "infinite",
						"getUserInfoBatch(address[])": "infinite",
						"getUsersByRange(uint256,uint256)": "infinite",
						"isRegistered(address)": "5120",
						"register(string,string)": "infinite",
						"updateProfile(string,string)": "infinite",
						"userAddresses(uint256)": "5011",
						"userCount()": "2448",
						"users(address)": "infinite"
					}
				},
				"methodIdentifiers": {
					"MAX_USERS()": "fa6ac131",
					"despot()": "f814c7db",
					"getAllUsers()": "e2842d79",
					"getUserInfo(address)": "6386c1c7",
					"getUserInfoBatch(address[])": "06752aff",
					"getUsersByRange(uint256,uint256)": "ed5cd0e7",
					"isRegistered(address)": "c3c5a547",
					"register(string,string)": "3ffbd47f",
					"updateProfile(string,string)": "c9d3cc6a",
					"userAddresses(uint256)": "502c9bd5",
					"userCount()": "07973ccf",
					"users(address)": "a87430ba"
				}
			},
			"storageLayout": {
				"storage": [
					{
						"astId": 18,
						"contract": "lession3.2-Mapping&Struct/UserManagementSystem.sol:UserManagementSystem",
						"label": "users",
						"offset": 0,
						"slot": "0",
						"type": "t_mapping(t_address,t_struct(User)13_storage)"
					},
					{
						"astId": 21,
						"contract": "lession3.2-Mapping&Struct/UserManagementSystem.sol:UserManagementSystem",
						"label": "userAddresses",
						"offset": 0,
						"slot": "1",
						"type": "t_array(t_address)dyn_storage"
					},
					{
						"astId": 23,
						"contract": "lession3.2-Mapping&Struct/UserManagementSystem.sol:UserManagementSystem",
						"label": "userCount",
						"offset": 0,
						"slot": "2",
						"type": "t_uint256"
					}
				],
				"types": {
					"t_address": {
						"encoding": "inplace",
						"label": "address",
						"numberOfBytes": "20"
					},
					"t_array(t_address)dyn_storage": {
						"base": "t_address",
						"encoding": "dynamic_array",
						"label": "address[]",
						"numberOfBytes": "32"
					},
					"t_bool": {
						"encoding": "inplace",
						"label": "bool",
						"numberOfBytes": "1"
					},
					"t_mapping(t_address,t_struct(User)13_storage)": {
						"encoding": "mapping",
						"key": "t_address",
						"label": "mapping(address => struct UserManagementSystem.User)",
						"numberOfBytes": "32",
						"value": "t_struct(User)13_storage"
					},
					"t_string_storage": {
						"encoding": "bytes",
						"label": "string",
						"numberOfBytes": "32"
					},
					"t_struct(User)13_storage": {
						"encoding": "inplace",
						"label": "struct UserManagementSystem.User",
						"members": [
							{
								"astId": 4,
								"contract": "lession3.2-Mapping&Struct/UserManagementSystem.sol:UserManagementSystem",
								"label": "name",
								"offset": 0,
								"slot": "0",
								"type": "t_string_storage"
							},
							{
								"astId": 6,
								"contract": "lession3.2-Mapping&Struct/UserManagementSystem.sol:UserManagementSystem",
								"label": "email",
								"offset": 0,
								"slot": "1",
								"type": "t_string_storage"
							},
							{
								"astId": 8,
								"contract": "lession3.2-Mapping&Struct/UserManagementSystem.sol:UserManagementSystem",
								"label": "balance",
								"offset": 0,
								"slot": "2",
								"type": "t_uint256"
							},
							{
								"astId": 10,
								"contract": "lession3.2-Mapping&Struct/UserManagementSystem.sol:UserManagementSystem",
								"label": "registeredAt",
								"offset": 0,
								"slot": "3",
								"type": "t_uint256"
							},
							{
								"astId": 12,
								"contract": "lession3.2-Mapping&Struct/UserManagementSystem.sol:UserManagementSystem",
								"label": "exists",
								"offset": 0,
								"slot": "4",
								"type": "t_bool"
							}
						],
						"numberOfBytes": "160"
					},
					"t_uint256": {
						"encoding": "inplace",
						"label": "uint256",
						"numberOfBytes": "32"
					}
				}
			},
			"userdoc": {
				"kind": "user",
				"methods": {},
				"notice": "创建⼀个完整的⽤户管理系统，实现以下功能： 1. ⽤户注册（包含name、email） 2. 更新个⼈资料 3. 存款功能（payable） 4. 查询⽤户信息 5. 获取所有⽤户列表 6. 分批查询⽤户 7. 限制最多1000个⽤户",
				"version": 1
			}
		}
	}
}