{
	"lession8.1-Invocation/factorynew/TestFactory.sol": {
		"TestFactory": {
			"abi": [
				{
					"inputs": [],
					"name": "testCreate2",
					"outputs": [
						{
							"internalType": "address",
							"name": "",
							"type": "address"
						}
					],
					"stateMutability": "nonpayable",
					"type": "function"
				}
			],
			"devdoc": {
				"kind": "dev",
				"methods": {},
				"version": 1
			},
			"evm": {
				"assembly": "    /* \"lession8.1-Invocation/factorynew/TestFactory.sol\":119:837  contract TestFactory {... */\n  mstore(0x40, 0x80)\n  callvalue\n  dup1\n  iszero\n  tag_1\n  jumpi\n  revert(0x00, 0x00)\ntag_1:\n  pop\n  dataSize(sub_0)\n  dup1\n  dataOffset(sub_0)\n  0x00\n  codecopy\n  0x00\n  return\nstop\n\nsub_0: assembly {\n        /* \"lession8.1-Invocation/factorynew/TestFactory.sol\":119:837  contract TestFactory {... */\n      mstore(0x40, 0x80)\n      callvalue\n      dup1\n      iszero\n      tag_1\n      jumpi\n      revert(0x00, 0x00)\n    tag_1:\n      pop\n      jumpi(tag_2, lt(calldatasize, 0x04))\n      shr(0xe0, calldataload(0x00))\n      dup1\n      0x0318ac0c\n      eq\n      tag_3\n      jumpi\n    tag_2:\n      revert(0x00, 0x00)\n        /* \"lession8.1-Invocation/factorynew/TestFactory.sol\":147:834  function testCreate2() external returns (address) {... */\n    tag_3:\n      tag_4\n      tag_5\n      jump\t// in\n    tag_4:\n      mload(0x40)\n      tag_6\n      swap2\n      swap1\n      tag_7\n      jump\t// in\n    tag_6:\n      mload(0x40)\n      dup1\n      swap2\n      sub\n      swap1\n      return\n    tag_5:\n        /* \"lession8.1-Invocation/factorynew/TestFactory.sol\":188:195  address */\n      0x00\n        /* \"lession8.1-Invocation/factorynew/TestFactory.sol\":237:259  CounterFactory factory */\n      0x00\n        /* \"lession8.1-Invocation/factorynew/TestFactory.sol\":262:282  new CounterFactory() */\n      mload(0x40)\n      tag_9\n      swap1\n      tag_10\n      jump\t// in\n    tag_9:\n      mload(0x40)\n      dup1\n      swap2\n      sub\n      swap1\n      0x00\n      create\n      dup1\n      iszero\n      dup1\n      iszero\n      tag_11\n      jumpi\n      returndatacopy(0x00, 0x00, returndatasize)\n      revert(0x00, returndatasize)\n    tag_11:\n      pop\n        /* \"lession8.1-Invocation/factorynew/TestFactory.sol\":237:282  CounterFactory factory = new CounterFactory() */\n      swap1\n      pop\n        /* \"lession8.1-Invocation/factorynew/TestFactory.sol\":331:343  bytes32 salt */\n      0x00\n        /* \"lession8.1-Invocation/factorynew/TestFactory.sol\":346:412  0x0000000000000000000000000000000000000000000000000000000000000001 */\n      0x01\n        /* \"lession8.1-Invocation/factorynew/TestFactory.sol\":331:412  bytes32 salt = 0x0000000000000000000000000000000000000000000000000000000000000001 */\n      0x00\n      shl\n      swap1\n      pop\n        /* \"lession8.1-Invocation/factorynew/TestFactory.sol\":490:514  address predictedAddress */\n      0x00\n        /* \"lession8.1-Invocation/factorynew/TestFactory.sol\":517:524  factory */\n      dup3\n        /* \"lession8.1-Invocation/factorynew/TestFactory.sol\":517:539  factory.computeAddress */\n      0xffffffffffffffffffffffffffffffffffffffff\n      and\n      0x2f1f618d\n        /* \"lession8.1-Invocation/factorynew/TestFactory.sol\":540:544  salt */\n      dup4\n        /* \"lession8.1-Invocation/factorynew/TestFactory.sol\":553:560  factory */\n      dup6\n        /* \"lession8.1-Invocation/factorynew/TestFactory.sol\":517:562  factory.computeAddress(salt,address(factory)) */\n      mload(0x40)\n      dup4\n      0xffffffff\n      and\n      0xe0\n      shl\n      dup2\n      mstore\n      0x04\n      add\n      tag_12\n      swap3\n      swap2\n      swap1\n      tag_13\n      jump\t// in\n    tag_12:\n      0x20\n      mload(0x40)\n      dup1\n      dup4\n      sub\n      dup2\n      dup7\n      gas\n      staticcall\n      iszero\n      dup1\n      iszero\n      tag_15\n      jumpi\n      returndatacopy(0x00, 0x00, returndatasize)\n      revert(0x00, returndatasize)\n    tag_15:\n      pop\n      pop\n      pop\n      pop\n      mload(0x40)\n      returndatasize\n      not(0x1f)\n      0x1f\n      dup3\n      add\n      and\n      dup3\n      add\n      dup1\n      0x40\n      mstore\n      pop\n      dup2\n      add\n      swap1\n      tag_16\n      swap2\n      swap1\n      tag_17\n      jump\t// in\n    tag_16:\n        /* \"lession8.1-Invocation/factorynew/TestFactory.sol\":490:562  address predictedAddress = factory.computeAddress(salt,address(factory)) */\n      swap1\n      pop\n        /* \"lession8.1-Invocation/factorynew/TestFactory.sol\":618:639  address actualAddress */\n      0x00\n        /* \"lession8.1-Invocation/factorynew/TestFactory.sol\":642:649  factory */\n      dup4\n        /* \"lession8.1-Invocation/factorynew/TestFactory.sol\":642:672  factory.createCounterByCreate2 */\n      0xffffffffffffffffffffffffffffffffffffffff\n      and\n      0xcaaa0a0a\n        /* \"lession8.1-Invocation/factorynew/TestFactory.sol\":673:677  salt */\n      dup5\n        /* \"lession8.1-Invocation/factorynew/TestFactory.sol\":642:678  factory.createCounterByCreate2(salt) */\n      mload(0x40)\n      dup3\n      0xffffffff\n      and\n      0xe0\n      shl\n      dup2\n      mstore\n      0x04\n      add\n      tag_18\n      swap2\n      swap1\n      tag_19\n      jump\t// in\n    tag_18:\n      0x20\n      mload(0x40)\n      dup1\n      dup4\n      sub\n      dup2\n      0x00\n      dup8\n      gas\n      call\n      iszero\n      dup1\n      iszero\n      tag_21\n      jumpi\n      returndatacopy(0x00, 0x00, returndatasize)\n      revert(0x00, returndatasize)\n    tag_21:\n      pop\n      pop\n      pop\n      pop\n      mload(0x40)\n      returndatasize\n      not(0x1f)\n      0x1f\n      dup3\n      add\n      and\n      dup3\n      add\n      dup1\n      0x40\n      mstore\n      pop\n      dup2\n      add\n      swap1\n      tag_22\n      swap2\n      swap1\n      tag_17\n      jump\t// in\n    tag_22:\n        /* \"lession8.1-Invocation/factorynew/TestFactory.sol\":618:678  address actualAddress = factory.createCounterByCreate2(salt) */\n      swap1\n      pop\n        /* \"lession8.1-Invocation/factorynew/TestFactory.sol\":761:774  actualAddress */\n      dup1\n        /* \"lession8.1-Invocation/factorynew/TestFactory.sol\":741:774  predictedAddress == actualAddress */\n      0xffffffffffffffffffffffffffffffffffffffff\n      and\n        /* \"lession8.1-Invocation/factorynew/TestFactory.sol\":741:757  predictedAddress */\n      dup3\n        /* \"lession8.1-Invocation/factorynew/TestFactory.sol\":741:774  predictedAddress == actualAddress */\n      0xffffffffffffffffffffffffffffffffffffffff\n      and\n      eq\n        /* \"lession8.1-Invocation/factorynew/TestFactory.sol\":733:795  require(predictedAddress == actualAddress,\"Address mismatch!\") */\n      tag_23\n      jumpi\n      mload(0x40)\n      0x08c379a000000000000000000000000000000000000000000000000000000000\n      dup2\n      mstore\n      0x04\n      add\n      tag_24\n      swap1\n      tag_25\n      jump\t// in\n    tag_24:\n      mload(0x40)\n      dup1\n      swap2\n      sub\n      swap1\n      revert\n    tag_23:\n        /* \"lession8.1-Invocation/factorynew/TestFactory.sol\":813:826  actualAddress */\n      dup1\n        /* \"lession8.1-Invocation/factorynew/TestFactory.sol\":806:826  return actualAddress */\n      swap5\n      pop\n      pop\n      pop\n      pop\n      pop\n        /* \"lession8.1-Invocation/factorynew/TestFactory.sol\":147:834  function testCreate2() external returns (address) {... */\n      swap1\n      jump\t// out\n    tag_10:\n      dataSize(sub_0)\n      dup1\n      dataOffset(sub_0)\n      dup4\n      codecopy\n      add\n      swap1\n      jump\t// out\n        /* \"#utility.yul\":7:133   */\n    tag_26:\n        /* \"#utility.yul\":44:51   */\n      0x00\n        /* \"#utility.yul\":84:126   */\n      0xffffffffffffffffffffffffffffffffffffffff\n        /* \"#utility.yul\":77:82   */\n      dup3\n        /* \"#utility.yul\":73:127   */\n      and\n        /* \"#utility.yul\":62:127   */\n      swap1\n      pop\n        /* \"#utility.yul\":7:133   */\n      swap2\n      swap1\n      pop\n      jump\t// out\n        /* \"#utility.yul\":139:235   */\n    tag_27:\n        /* \"#utility.yul\":176:183   */\n      0x00\n        /* \"#utility.yul\":205:229   */\n      tag_42\n        /* \"#utility.yul\":223:228   */\n      dup3\n        /* \"#utility.yul\":205:229   */\n      tag_26\n      jump\t// in\n    tag_42:\n        /* \"#utility.yul\":194:229   */\n      swap1\n      pop\n        /* \"#utility.yul\":139:235   */\n      swap2\n      swap1\n      pop\n      jump\t// out\n        /* \"#utility.yul\":241:359   */\n    tag_28:\n        /* \"#utility.yul\":328:352   */\n      tag_44\n        /* \"#utility.yul\":346:351   */\n      dup2\n        /* \"#utility.yul\":328:352   */\n      tag_27\n      jump\t// in\n    tag_44:\n        /* \"#utility.yul\":323:326   */\n      dup3\n        /* \"#utility.yul\":316:353   */\n      mstore\n        /* \"#utility.yul\":241:359   */\n      pop\n      pop\n      jump\t// out\n        /* \"#utility.yul\":365:587   */\n    tag_7:\n        /* \"#utility.yul\":458:462   */\n      0x00\n        /* \"#utility.yul\":496:498   */\n      0x20\n        /* \"#utility.yul\":485:494   */\n      dup3\n        /* \"#utility.yul\":481:499   */\n      add\n        /* \"#utility.yul\":473:499   */\n      swap1\n      pop\n        /* \"#utility.yul\":509:580   */\n      tag_46\n        /* \"#utility.yul\":577:578   */\n      0x00\n        /* \"#utility.yul\":566:575   */\n      dup4\n        /* \"#utility.yul\":562:579   */\n      add\n        /* \"#utility.yul\":553:559   */\n      dup5\n        /* \"#utility.yul\":509:580   */\n      tag_28\n      jump\t// in\n    tag_46:\n        /* \"#utility.yul\":365:587   */\n      swap3\n      swap2\n      pop\n      pop\n      jump\t// out\n        /* \"#utility.yul\":593:670   */\n    tag_29:\n        /* \"#utility.yul\":630:637   */\n      0x00\n        /* \"#utility.yul\":659:664   */\n      dup2\n        /* \"#utility.yul\":648:664   */\n      swap1\n      pop\n        /* \"#utility.yul\":593:670   */\n      swap2\n      swap1\n      pop\n      jump\t// out\n        /* \"#utility.yul\":676:794   */\n    tag_30:\n        /* \"#utility.yul\":763:787   */\n      tag_49\n        /* \"#utility.yul\":781:786   */\n      dup2\n        /* \"#utility.yul\":763:787   */\n      tag_29\n      jump\t// in\n    tag_49:\n        /* \"#utility.yul\":758:761   */\n      dup3\n        /* \"#utility.yul\":751:788   */\n      mstore\n        /* \"#utility.yul\":676:794   */\n      pop\n      pop\n      jump\t// out\n        /* \"#utility.yul\":800:1132   */\n    tag_13:\n        /* \"#utility.yul\":921:925   */\n      0x00\n        /* \"#utility.yul\":959:961   */\n      0x40\n        /* \"#utility.yul\":948:957   */\n      dup3\n        /* \"#utility.yul\":944:962   */\n      add\n        /* \"#utility.yul\":936:962   */\n      swap1\n      pop\n        /* \"#utility.yul\":972:1043   */\n      tag_51\n        /* \"#utility.yul\":1040:1041   */\n      0x00\n        /* \"#utility.yul\":1029:1038   */\n      dup4\n        /* \"#utility.yul\":1025:1042   */\n      add\n        /* \"#utility.yul\":1016:1022   */\n      dup6\n        /* \"#utility.yul\":972:1043   */\n      tag_30\n      jump\t// in\n    tag_51:\n        /* \"#utility.yul\":1053:1125   */\n      tag_52\n        /* \"#utility.yul\":1121:1123   */\n      0x20\n        /* \"#utility.yul\":1110:1119   */\n      dup4\n        /* \"#utility.yul\":1106:1124   */\n      add\n        /* \"#utility.yul\":1097:1103   */\n      dup5\n        /* \"#utility.yul\":1053:1125   */\n      tag_28\n      jump\t// in\n    tag_52:\n        /* \"#utility.yul\":800:1132   */\n      swap4\n      swap3\n      pop\n      pop\n      pop\n      jump\t// out\n        /* \"#utility.yul\":1219:1336   */\n    tag_32:\n        /* \"#utility.yul\":1328:1329   */\n      0x00\n        /* \"#utility.yul\":1325:1326   */\n      0x00\n        /* \"#utility.yul\":1318:1330   */\n      revert\n        /* \"#utility.yul\":1465:1587   */\n    tag_34:\n        /* \"#utility.yul\":1538:1562   */\n      tag_57\n        /* \"#utility.yul\":1556:1561   */\n      dup2\n        /* \"#utility.yul\":1538:1562   */\n      tag_27\n      jump\t// in\n    tag_57:\n        /* \"#utility.yul\":1531:1536   */\n      dup2\n        /* \"#utility.yul\":1528:1563   */\n      eq\n        /* \"#utility.yul\":1518:1581   */\n      tag_58\n      jumpi\n        /* \"#utility.yul\":1577:1578   */\n      0x00\n        /* \"#utility.yul\":1574:1575   */\n      0x00\n        /* \"#utility.yul\":1567:1579   */\n      revert\n        /* \"#utility.yul\":1518:1581   */\n    tag_58:\n        /* \"#utility.yul\":1465:1587   */\n      pop\n      jump\t// out\n        /* \"#utility.yul\":1593:1736   */\n    tag_35:\n        /* \"#utility.yul\":1650:1655   */\n      0x00\n        /* \"#utility.yul\":1681:1687   */\n      dup2\n        /* \"#utility.yul\":1675:1688   */\n      mload\n        /* \"#utility.yul\":1666:1688   */\n      swap1\n      pop\n        /* \"#utility.yul\":1697:1730   */\n      tag_60\n        /* \"#utility.yul\":1724:1729   */\n      dup2\n        /* \"#utility.yul\":1697:1730   */\n      tag_34\n      jump\t// in\n    tag_60:\n        /* \"#utility.yul\":1593:1736   */\n      swap3\n      swap2\n      pop\n      pop\n      jump\t// out\n        /* \"#utility.yul\":1742:2093   */\n    tag_17:\n        /* \"#utility.yul\":1812:1818   */\n      0x00\n        /* \"#utility.yul\":1861:1863   */\n      0x20\n        /* \"#utility.yul\":1849:1858   */\n      dup3\n        /* \"#utility.yul\":1840:1847   */\n      dup5\n        /* \"#utility.yul\":1836:1859   */\n      sub\n        /* \"#utility.yul\":1832:1864   */\n      slt\n        /* \"#utility.yul\":1829:1948   */\n      iszero\n      tag_62\n      jumpi\n        /* \"#utility.yul\":1867:1946   */\n      tag_63\n      tag_32\n      jump\t// in\n    tag_63:\n        /* \"#utility.yul\":1829:1948   */\n    tag_62:\n        /* \"#utility.yul\":1987:1988   */\n      0x00\n        /* \"#utility.yul\":2012:2076   */\n      tag_64\n        /* \"#utility.yul\":2068:2075   */\n      dup5\n        /* \"#utility.yul\":2059:2065   */\n      dup3\n        /* \"#utility.yul\":2048:2057   */\n      dup6\n        /* \"#utility.yul\":2044:2066   */\n      add\n        /* \"#utility.yul\":2012:2076   */\n      tag_35\n      jump\t// in\n    tag_64:\n        /* \"#utility.yul\":2002:2076   */\n      swap2\n      pop\n        /* \"#utility.yul\":1958:2086   */\n      pop\n        /* \"#utility.yul\":1742:2093   */\n      swap3\n      swap2\n      pop\n      pop\n      jump\t// out\n        /* \"#utility.yul\":2099:2321   */\n    tag_19:\n        /* \"#utility.yul\":2192:2196   */\n      0x00\n        /* \"#utility.yul\":2230:2232   */\n      0x20\n        /* \"#utility.yul\":2219:2228   */\n      dup3\n        /* \"#utility.yul\":2215:2233   */\n      add\n        /* \"#utility.yul\":2207:2233   */\n      swap1\n      pop\n        /* \"#utility.yul\":2243:2314   */\n      tag_66\n        /* \"#utility.yul\":2311:2312   */\n      0x00\n        /* \"#utility.yul\":2300:2309   */\n      dup4\n        /* \"#utility.yul\":2296:2313   */\n      add\n        /* \"#utility.yul\":2287:2293   */\n      dup5\n        /* \"#utility.yul\":2243:2314   */\n      tag_30\n      jump\t// in\n    tag_66:\n        /* \"#utility.yul\":2099:2321   */\n      swap3\n      swap2\n      pop\n      pop\n      jump\t// out\n        /* \"#utility.yul\":2327:2496   */\n    tag_36:\n        /* \"#utility.yul\":2411:2422   */\n      0x00\n        /* \"#utility.yul\":2445:2451   */\n      dup3\n        /* \"#utility.yul\":2440:2443   */\n      dup3\n        /* \"#utility.yul\":2433:2452   */\n      mstore\n        /* \"#utility.yul\":2485:2489   */\n      0x20\n        /* \"#utility.yul\":2480:2483   */\n      dup3\n        /* \"#utility.yul\":2476:2490   */\n      add\n        /* \"#utility.yul\":2461:2490   */\n      swap1\n      pop\n        /* \"#utility.yul\":2327:2496   */\n      swap3\n      swap2\n      pop\n      pop\n      jump\t// out\n        /* \"#utility.yul\":2502:2669   */\n    tag_37:\n        /* \"#utility.yul\":2642:2661   */\n      0x41646472657373206d69736d6174636821000000000000000000000000000000\n        /* \"#utility.yul\":2638:2639   */\n      0x00\n        /* \"#utility.yul\":2630:2636   */\n      dup3\n        /* \"#utility.yul\":2626:2640   */\n      add\n        /* \"#utility.yul\":2619:2662   */\n      mstore\n        /* \"#utility.yul\":2502:2669   */\n      pop\n      jump\t// out\n        /* \"#utility.yul\":2675:3041   */\n    tag_38:\n        /* \"#utility.yul\":2817:2820   */\n      0x00\n        /* \"#utility.yul\":2838:2905   */\n      tag_70\n        /* \"#utility.yul\":2902:2904   */\n      0x11\n        /* \"#utility.yul\":2897:2900   */\n      dup4\n        /* \"#utility.yul\":2838:2905   */\n      tag_36\n      jump\t// in\n    tag_70:\n        /* \"#utility.yul\":2831:2905   */\n      swap2\n      pop\n        /* \"#utility.yul\":2914:3007   */\n      tag_71\n        /* \"#utility.yul\":3003:3006   */\n      dup3\n        /* \"#utility.yul\":2914:3007   */\n      tag_37\n      jump\t// in\n    tag_71:\n        /* \"#utility.yul\":3032:3034   */\n      0x20\n        /* \"#utility.yul\":3027:3030   */\n      dup3\n        /* \"#utility.yul\":3023:3035   */\n      add\n        /* \"#utility.yul\":3016:3035   */\n      swap1\n      pop\n        /* \"#utility.yul\":2675:3041   */\n      swap2\n      swap1\n      pop\n      jump\t// out\n        /* \"#utility.yul\":3047:3466   */\n    tag_25:\n        /* \"#utility.yul\":3213:3217   */\n      0x00\n        /* \"#utility.yul\":3251:3253   */\n      0x20\n        /* \"#utility.yul\":3240:3249   */\n      dup3\n        /* \"#utility.yul\":3236:3254   */\n      add\n        /* \"#utility.yul\":3228:3254   */\n      swap1\n      pop\n        /* \"#utility.yul\":3300:3309   */\n      dup2\n        /* \"#utility.yul\":3294:3298   */\n      dup2\n        /* \"#utility.yul\":3290:3310   */\n      sub\n        /* \"#utility.yul\":3286:3287   */\n      0x00\n        /* \"#utility.yul\":3275:3284   */\n      dup4\n        /* \"#utility.yul\":3271:3288   */\n      add\n        /* \"#utility.yul\":3264:3311   */\n      mstore\n        /* \"#utility.yul\":3328:3459   */\n      tag_73\n        /* \"#utility.yul\":3454:3458   */\n      dup2\n        /* \"#utility.yul\":3328:3459   */\n      tag_38\n      jump\t// in\n    tag_73:\n        /* \"#utility.yul\":3320:3459   */\n      swap1\n      pop\n        /* \"#utility.yul\":3047:3466   */\n      swap2\n      swap1\n      pop\n      jump\t// out\n    stop\n\n    sub_0: assembly {\n            /* \"lession8.1-Invocation/factorynew/CounterFactory.sol\":153:2872  contract CounterFactory {... */\n          mstore(0x40, 0x80)\n          callvalue\n          dup1\n          iszero\n          tag_1\n          jumpi\n          revert(0x00, 0x00)\n        tag_1:\n          pop\n          dataSize(sub_0)\n          dup1\n          dataOffset(sub_0)\n          0x00\n          codecopy\n          0x00\n          return\n        stop\n\n        sub_0: assembly {\n                /* \"lession8.1-Invocation/factorynew/CounterFactory.sol\":153:2872  contract CounterFactory {... */\n              mstore(0x40, 0x80)\n              callvalue\n              dup1\n              iszero\n              tag_1\n              jumpi\n              revert(0x00, 0x00)\n            tag_1:\n              pop\n              jumpi(tag_2, lt(calldatasize, 0x04))\n              shr(0xe0, calldataload(0x00))\n              dup1\n              0x214aed45\n              eq\n              tag_3\n              jumpi\n              dup1\n              0x2f1f618d\n              eq\n              tag_4\n              jumpi\n              dup1\n              0x639e5214\n              eq\n              tag_5\n              jumpi\n              dup1\n              0x78b52948\n              eq\n              tag_6\n              jumpi\n              dup1\n              0xcaaa0a0a\n              eq\n              tag_7\n              jumpi\n              dup1\n              0xfba7ffa3\n              eq\n              tag_8\n              jumpi\n            tag_2:\n              revert(0x00, 0x00)\n                /* \"lession8.1-Invocation/factorynew/CounterFactory.sol\":2701:2870  function getCounter(uint index) external view returns (address) {... */\n            tag_3:\n              tag_9\n              0x04\n              dup1\n              calldatasize\n              sub\n              dup2\n              add\n              swap1\n              tag_10\n              swap2\n              swap1\n              tag_11\n              jump\t// in\n            tag_10:\n              tag_12\n              jump\t// in\n            tag_9:\n              mload(0x40)\n              tag_13\n              swap2\n              swap1\n              tag_14\n              jump\t// in\n            tag_13:\n              mload(0x40)\n              dup1\n              swap2\n              sub\n              swap1\n              return\n                /* \"lession8.1-Invocation/factorynew/CounterFactory.sol\":1661:2459  function computeAddress(bytes32 salt,address deployer) external view returns (address) {... */\n            tag_4:\n              tag_15\n              0x04\n              dup1\n              calldatasize\n              sub\n              dup2\n              add\n              swap1\n              tag_16\n              swap2\n              swap1\n              tag_17\n              jump\t// in\n            tag_16:\n              tag_18\n              jump\t// in\n            tag_15:\n              mload(0x40)\n              tag_19\n              swap2\n              swap1\n              tag_14\n              jump\t// in\n            tag_19:\n              mload(0x40)\n              dup1\n              swap2\n              sub\n              swap1\n              return\n                /* \"lession8.1-Invocation/factorynew/CounterFactory.sol\":2531:2629  function getCounterCount() external view returns (uint256) {... */\n            tag_5:\n              tag_20\n              tag_21\n              jump\t// in\n            tag_20:\n              mload(0x40)\n              tag_22\n              swap2\n              swap1\n              tag_23\n              jump\t// in\n            tag_22:\n              mload(0x40)\n              dup1\n              swap2\n              sub\n              swap1\n              return\n                /* \"lession8.1-Invocation/factorynew/CounterFactory.sol\":467:968  function createCounter() external returns (address) {... */\n            tag_6:\n              tag_24\n              tag_25\n              jump\t// in\n            tag_24:\n              mload(0x40)\n              tag_26\n              swap2\n              swap1\n              tag_14\n              jump\t// in\n            tag_26:\n              mload(0x40)\n              dup1\n              swap2\n              sub\n              swap1\n              return\n                /* \"lession8.1-Invocation/factorynew/CounterFactory.sol\":1138:1471  function createCounterByCreate2(bytes32 salt) external returns (address) {... */\n            tag_7:\n              tag_27\n              0x04\n              dup1\n              calldatasize\n              sub\n              dup2\n              add\n              swap1\n              tag_28\n              swap2\n              swap1\n              tag_29\n              jump\t// in\n            tag_28:\n              tag_30\n              jump\t// in\n            tag_27:\n              mload(0x40)\n              tag_31\n              swap2\n              swap1\n              tag_14\n              jump\t// in\n            tag_31:\n              mload(0x40)\n              dup1\n              swap2\n              sub\n              swap1\n              return\n                /* \"lession8.1-Invocation/factorynew/CounterFactory.sol\":227:252  address[] public counters */\n            tag_8:\n              tag_32\n              0x04\n              dup1\n              calldatasize\n              sub\n              dup2\n              add\n              swap1\n              tag_33\n              swap2\n              swap1\n              tag_11\n              jump\t// in\n            tag_33:\n              tag_34\n              jump\t// in\n            tag_32:\n              mload(0x40)\n              tag_35\n              swap2\n              swap1\n              tag_14\n              jump\t// in\n            tag_35:\n              mload(0x40)\n              dup1\n              swap2\n              sub\n              swap1\n              return\n                /* \"lession8.1-Invocation/factorynew/CounterFactory.sol\":2701:2870  function getCounter(uint index) external view returns (address) {... */\n            tag_12:\n                /* \"lession8.1-Invocation/factorynew/CounterFactory.sol\":2756:2763  address */\n              0x00\n                /* \"lession8.1-Invocation/factorynew/CounterFactory.sol\":2791:2799  counters */\n              0x00\n                /* \"lession8.1-Invocation/factorynew/CounterFactory.sol\":2791:2806  counters.length */\n              dup1\n              sload\n              swap1\n              pop\n                /* \"lession8.1-Invocation/factorynew/CounterFactory.sol\":2783:2788  index */\n              dup3\n                /* \"lession8.1-Invocation/factorynew/CounterFactory.sol\":2783:2806  index < counters.length */\n              lt\n                /* \"lession8.1-Invocation/factorynew/CounterFactory.sol\":2775:2831  require(index < counters.length, \"Index out of bounds!\") */\n              tag_37\n              jumpi\n              mload(0x40)\n              0x08c379a000000000000000000000000000000000000000000000000000000000\n              dup2\n              mstore\n              0x04\n              add\n              tag_38\n              swap1\n              tag_39\n              jump\t// in\n            tag_38:\n              mload(0x40)\n              dup1\n              swap2\n              sub\n              swap1\n              revert\n            tag_37:\n                /* \"lession8.1-Invocation/factorynew/CounterFactory.sol\":2848:2856  counters */\n              0x00\n                /* \"lession8.1-Invocation/factorynew/CounterFactory.sol\":2857:2862  index */\n              dup3\n                /* \"lession8.1-Invocation/factorynew/CounterFactory.sol\":2848:2863  counters[index] */\n              dup2\n              sload\n              dup2\n              lt\n              tag_40\n              jumpi\n              tag_41\n              tag_42\n              jump\t// in\n            tag_41:\n            tag_40:\n              swap1\n              0x00\n              mstore\n              keccak256(0x00, 0x20)\n              add\n              0x00\n              swap1\n              sload\n              swap1\n              0x0100\n              exp\n              swap1\n              div\n              0xffffffffffffffffffffffffffffffffffffffff\n              and\n                /* \"lession8.1-Invocation/factorynew/CounterFactory.sol\":2841:2863  return counters[index] */\n              swap1\n              pop\n                /* \"lession8.1-Invocation/factorynew/CounterFactory.sol\":2701:2870  function getCounter(uint index) external view returns (address) {... */\n              swap2\n              swap1\n              pop\n              jump\t// out\n                /* \"lession8.1-Invocation/factorynew/CounterFactory.sol\":1661:2459  function computeAddress(bytes32 salt,address deployer) external view returns (address) {... */\n            tag_18:\n                /* \"lession8.1-Invocation/factorynew/CounterFactory.sol\":1739:1746  address */\n              0x00\n                /* \"lession8.1-Invocation/factorynew/CounterFactory.sol\":1929:1950  bytes memory bytecode */\n              0x00\n                /* \"lession8.1-Invocation/factorynew/CounterFactory.sol\":1970:1996  type(Counter).creationCode */\n              mload(0x40)\n              dup1\n              0x20\n              add\n              tag_45\n              swap1\n              tag_46\n              jump\t// in\n            tag_45:\n              0x20\n              dup3\n              add\n              dup2\n              sub\n              dup3\n              mstore\n              not(0x1f)\n              0x1f\n              dup3\n              add\n              and\n              0x40\n              mstore\n              pop\n                /* \"lession8.1-Invocation/factorynew/CounterFactory.sol\":2008:2018  msg.sender */\n              caller\n                /* \"lession8.1-Invocation/factorynew/CounterFactory.sol\":1997:2019  abi.encode(msg.sender) */\n              add(0x20, mload(0x40))\n              tag_47\n              swap2\n              swap1\n              tag_14\n              jump\t// in\n            tag_47:\n              mload(0x40)\n              0x20\n              dup2\n              dup4\n              sub\n              sub\n              dup2\n              mstore\n              swap1\n              0x40\n              mstore\n                /* \"lession8.1-Invocation/factorynew/CounterFactory.sol\":1953:2020  abi.encodePacked(type(Counter).creationCode,abi.encode(msg.sender)) */\n              add(0x20, mload(0x40))\n              tag_48\n              swap3\n              swap2\n              swap1\n              tag_49\n              jump\t// in\n            tag_48:\n              mload(0x40)\n              0x20\n              dup2\n              dup4\n              sub\n              sub\n              dup2\n              mstore\n              swap1\n              0x40\n              mstore\n                /* \"lession8.1-Invocation/factorynew/CounterFactory.sol\":1929:2020  bytes memory bytecode = abi.encodePacked(type(Counter).creationCode,abi.encode(msg.sender)) */\n              swap1\n              pop\n                /* \"lession8.1-Invocation/factorynew/CounterFactory.sol\":2136:2148  bytes32 hash */\n              0x00\n                /* \"lession8.1-Invocation/factorynew/CounterFactory.sol\":2210:2214  0xff */\n              0xff\n                /* \"lession8.1-Invocation/factorynew/CounterFactory.sol\":2203:2215  bytes1(0xff) */\n              0xf8\n              shl\n                /* \"lession8.1-Invocation/factorynew/CounterFactory.sol\":2228:2236  deployer */\n              dup5\n                /* \"lession8.1-Invocation/factorynew/CounterFactory.sol\":2271:2275  salt */\n              dup7\n                /* \"lession8.1-Invocation/factorynew/CounterFactory.sol\":2309:2317  bytecode */\n              dup5\n                /* \"lession8.1-Invocation/factorynew/CounterFactory.sol\":2299:2318  keccak256(bytecode) */\n              dup1\n              mload\n              swap1\n              0x20\n              add\n              keccak256\n                /* \"lession8.1-Invocation/factorynew/CounterFactory.sol\":2174:2350  abi.encodePacked(... */\n              add(0x20, mload(0x40))\n              tag_50\n              swap5\n              swap4\n              swap3\n              swap2\n              swap1\n              tag_51\n              jump\t// in\n            tag_50:\n              mload(0x40)\n              0x20\n              dup2\n              dup4\n              sub\n              sub\n              dup2\n              mstore\n              swap1\n              0x40\n              mstore\n                /* \"lession8.1-Invocation/factorynew/CounterFactory.sol\":2151:2351  keccak256(... */\n              dup1\n              mload\n              swap1\n              0x20\n              add\n              keccak256\n                /* \"lession8.1-Invocation/factorynew/CounterFactory.sol\":2136:2351  bytes32 hash = keccak256(... */\n              swap1\n              pop\n                /* \"lession8.1-Invocation/factorynew/CounterFactory.sol\":2445:2449  hash */\n              dup1\n                /* \"lession8.1-Invocation/factorynew/CounterFactory.sol\":2437:2450  uint256(hash) */\n              0x00\n              shr\n                /* \"lession8.1-Invocation/factorynew/CounterFactory.sol\":2414:2452  return address(uint160(uint256(hash))) */\n              swap3\n              pop\n              pop\n              pop\n                /* \"lession8.1-Invocation/factorynew/CounterFactory.sol\":1661:2459  function computeAddress(bytes32 salt,address deployer) external view returns (address) {... */\n              swap3\n              swap2\n              pop\n              pop\n              jump\t// out\n                /* \"lession8.1-Invocation/factorynew/CounterFactory.sol\":2531:2629  function getCounterCount() external view returns (uint256) {... */\n            tag_21:\n                /* \"lession8.1-Invocation/factorynew/CounterFactory.sol\":2581:2588  uint256 */\n              0x00\n                /* \"lession8.1-Invocation/factorynew/CounterFactory.sol\":2607:2615  counters */\n              0x00\n                /* \"lession8.1-Invocation/factorynew/CounterFactory.sol\":2607:2622  counters.length */\n              dup1\n              sload\n              swap1\n              pop\n                /* \"lession8.1-Invocation/factorynew/CounterFactory.sol\":2600:2622  return counters.length */\n              swap1\n              pop\n                /* \"lession8.1-Invocation/factorynew/CounterFactory.sol\":2531:2629  function getCounterCount() external view returns (uint256) {... */\n              swap1\n              jump\t// out\n                /* \"lession8.1-Invocation/factorynew/CounterFactory.sol\":467:968  function createCounter() external returns (address) {... */\n            tag_25:\n                /* \"lession8.1-Invocation/factorynew/CounterFactory.sol\":510:517  address */\n              0x00\n                /* \"lession8.1-Invocation/factorynew/CounterFactory.sol\":643:661  Counter newCounter */\n              0x00\n                /* \"lession8.1-Invocation/factorynew/CounterFactory.sol\":676:686  msg.sender */\n              caller\n                /* \"lession8.1-Invocation/factorynew/CounterFactory.sol\":664:687  new Counter(msg.sender) */\n              mload(0x40)\n              tag_54\n              swap1\n              tag_46\n              jump\t// in\n            tag_54:\n              tag_55\n              swap2\n              swap1\n              tag_14\n              jump\t// in\n            tag_55:\n              mload(0x40)\n              dup1\n              swap2\n              sub\n              swap1\n              0x00\n              create\n              dup1\n              iszero\n              dup1\n              iszero\n              tag_56\n              jumpi\n              returndatacopy(0x00, 0x00, returndatasize)\n              revert(0x00, returndatasize)\n            tag_56:\n              pop\n                /* \"lession8.1-Invocation/factorynew/CounterFactory.sol\":643:687  Counter newCounter = new Counter(msg.sender) */\n              swap1\n              pop\n                /* \"lession8.1-Invocation/factorynew/CounterFactory.sol\":730:752  address counterAddress */\n              0x00\n                /* \"lession8.1-Invocation/factorynew/CounterFactory.sol\":763:773  newCounter */\n              dup2\n                /* \"lession8.1-Invocation/factorynew/CounterFactory.sol\":730:774  address counterAddress = address(newCounter) */\n              swap1\n              pop\n                /* \"lession8.1-Invocation/factorynew/CounterFactory.sol\":818:826  counters */\n              0x00\n                /* \"lession8.1-Invocation/factorynew/CounterFactory.sol\":832:846  counterAddress */\n              dup2\n                /* \"lession8.1-Invocation/factorynew/CounterFactory.sol\":818:847  counters.push(counterAddress) */\n              swap1\n              dup1\n              0x01\n              dup2\n              sload\n              add\n              dup1\n              dup3\n              sstore\n              dup1\n              swap2\n              pop\n              pop\n              0x01\n              swap1\n              sub\n              swap1\n              0x00\n              mstore\n              keccak256(0x00, 0x20)\n              add\n              0x00\n              swap1\n              swap2\n              swap1\n              swap2\n              swap1\n              swap2\n              0x0100\n              exp\n              dup2\n              sload\n              dup2\n              0xffffffffffffffffffffffffffffffffffffffff\n              mul\n              not\n              and\n              swap1\n              dup4\n              0xffffffffffffffffffffffffffffffffffffffff\n              and\n              mul\n              or\n              swap1\n              sstore\n              pop\n                /* \"lession8.1-Invocation/factorynew/CounterFactory.sol\":902:916  counterAddress */\n              dup1\n                /* \"lession8.1-Invocation/factorynew/CounterFactory.sol\":887:929  CounterCreated(counterAddress, msg.sender) */\n              0xffffffffffffffffffffffffffffffffffffffff\n              and\n              0x5c38acfb3685547711685ae1e758ca685f33fa7cd3e3c738411afd24b9339189\n                /* \"lession8.1-Invocation/factorynew/CounterFactory.sol\":918:928  msg.sender */\n              caller\n                /* \"lession8.1-Invocation/factorynew/CounterFactory.sol\":887:929  CounterCreated(counterAddress, msg.sender) */\n              mload(0x40)\n              tag_58\n              swap2\n              swap1\n              tag_14\n              jump\t// in\n            tag_58:\n              mload(0x40)\n              dup1\n              swap2\n              sub\n              swap1\n              log2\n                /* \"lession8.1-Invocation/factorynew/CounterFactory.sol\":947:961  counterAddress */\n              dup1\n                /* \"lession8.1-Invocation/factorynew/CounterFactory.sol\":940:961  return counterAddress */\n              swap3\n              pop\n              pop\n              pop\n                /* \"lession8.1-Invocation/factorynew/CounterFactory.sol\":467:968  function createCounter() external returns (address) {... */\n              swap1\n              jump\t// out\n                /* \"lession8.1-Invocation/factorynew/CounterFactory.sol\":1138:1471  function createCounterByCreate2(bytes32 salt) external returns (address) {... */\n            tag_30:\n                /* \"lession8.1-Invocation/factorynew/CounterFactory.sol\":1202:1209  address */\n              0x00\n                /* \"lession8.1-Invocation/factorynew/CounterFactory.sol\":1266:1284  Counter newCounter */\n              0x00\n                /* \"lession8.1-Invocation/factorynew/CounterFactory.sol\":1304:1308  salt */\n              dup3\n                /* \"lession8.1-Invocation/factorynew/CounterFactory.sol\":1310:1320  msg.sender */\n              caller\n                /* \"lession8.1-Invocation/factorynew/CounterFactory.sol\":1287:1321  new Counter{salt:salt}(msg.sender) */\n              mload(0x40)\n              tag_60\n              swap1\n              tag_46\n              jump\t// in\n            tag_60:\n              tag_61\n              swap2\n              swap1\n              tag_14\n              jump\t// in\n            tag_61:\n              dup2\n              swap1\n              mload(0x40)\n              dup1\n              swap2\n              sub\n              swap1\n              0x00\n              create2\n              swap1\n              pop\n              dup1\n              iszero\n              dup1\n              iszero\n              tag_62\n              jumpi\n              returndatacopy(0x00, 0x00, returndatasize)\n              revert(0x00, returndatasize)\n            tag_62:\n              pop\n                /* \"lession8.1-Invocation/factorynew/CounterFactory.sol\":1266:1321  Counter newCounter = new Counter{salt:salt}(msg.sender) */\n              swap1\n              pop\n                /* \"lession8.1-Invocation/factorynew/CounterFactory.sol\":1331:1353  address counterAddress */\n              0x00\n                /* \"lession8.1-Invocation/factorynew/CounterFactory.sol\":1364:1374  newCounter */\n              dup2\n                /* \"lession8.1-Invocation/factorynew/CounterFactory.sol\":1331:1375  address counterAddress = address(newCounter) */\n              swap1\n              pop\n                /* \"lession8.1-Invocation/factorynew/CounterFactory.sol\":1405:1419  counterAddress */\n              dup1\n                /* \"lession8.1-Invocation/factorynew/CounterFactory.sol\":1390:1432  CounterCreated(counterAddress, msg.sender) */\n              0xffffffffffffffffffffffffffffffffffffffff\n              and\n              0x5c38acfb3685547711685ae1e758ca685f33fa7cd3e3c738411afd24b9339189\n                /* \"lession8.1-Invocation/factorynew/CounterFactory.sol\":1421:1431  msg.sender */\n              caller\n                /* \"lession8.1-Invocation/factorynew/CounterFactory.sol\":1390:1432  CounterCreated(counterAddress, msg.sender) */\n              mload(0x40)\n              tag_63\n              swap2\n              swap1\n              tag_14\n              jump\t// in\n            tag_63:\n              mload(0x40)\n              dup1\n              swap2\n              sub\n              swap1\n              log2\n                /* \"lession8.1-Invocation/factorynew/CounterFactory.sol\":1450:1464  counterAddress */\n              dup1\n                /* \"lession8.1-Invocation/factorynew/CounterFactory.sol\":1443:1464  return counterAddress */\n              swap3\n              pop\n              pop\n              pop\n                /* \"lession8.1-Invocation/factorynew/CounterFactory.sol\":1138:1471  function createCounterByCreate2(bytes32 salt) external returns (address) {... */\n              swap2\n              swap1\n              pop\n              jump\t// out\n                /* \"lession8.1-Invocation/factorynew/CounterFactory.sol\":227:252  address[] public counters */\n            tag_34:\n              0x00\n              dup2\n              dup2\n              sload\n              dup2\n              lt\n              tag_64\n              jumpi\n              0x00\n              dup1\n              revert\n            tag_64:\n              swap1\n              0x00\n              mstore\n              keccak256(0x00, 0x20)\n              add\n              0x00\n              swap2\n              pop\n              sload\n              swap1\n              0x0100\n              exp\n              swap1\n              div\n              0xffffffffffffffffffffffffffffffffffffffff\n              and\n              dup2\n              jump\t// out\n            tag_46:\n              dataSize(sub_0)\n              dup1\n              dataOffset(sub_0)\n              dup4\n              codecopy\n              add\n              swap1\n              jump\t// out\n                /* \"#utility.yul\":88:205   */\n            tag_67:\n                /* \"#utility.yul\":197:198   */\n              0x00\n                /* \"#utility.yul\":194:195   */\n              0x00\n                /* \"#utility.yul\":187:199   */\n              revert\n                /* \"#utility.yul\":334:411   */\n            tag_69:\n                /* \"#utility.yul\":371:378   */\n              0x00\n                /* \"#utility.yul\":400:405   */\n              dup2\n                /* \"#utility.yul\":389:405   */\n              swap1\n              pop\n                /* \"#utility.yul\":334:411   */\n              swap2\n              swap1\n              pop\n              jump\t// out\n                /* \"#utility.yul\":417:539   */\n            tag_70:\n                /* \"#utility.yul\":490:514   */\n              tag_103\n                /* \"#utility.yul\":508:513   */\n              dup2\n                /* \"#utility.yul\":490:514   */\n              tag_69\n              jump\t// in\n            tag_103:\n                /* \"#utility.yul\":483:488   */\n              dup2\n                /* \"#utility.yul\":480:515   */\n              eq\n                /* \"#utility.yul\":470:533   */\n              tag_104\n              jumpi\n                /* \"#utility.yul\":529:530   */\n              0x00\n                /* \"#utility.yul\":526:527   */\n              0x00\n                /* \"#utility.yul\":519:531   */\n              revert\n                /* \"#utility.yul\":470:533   */\n            tag_104:\n                /* \"#utility.yul\":417:539   */\n              pop\n              jump\t// out\n                /* \"#utility.yul\":545:684   */\n            tag_71:\n                /* \"#utility.yul\":591:596   */\n              0x00\n                /* \"#utility.yul\":629:635   */\n              dup2\n                /* \"#utility.yul\":616:636   */\n              calldataload\n                /* \"#utility.yul\":607:636   */\n              swap1\n              pop\n                /* \"#utility.yul\":645:678   */\n              tag_106\n                /* \"#utility.yul\":672:677   */\n              dup2\n                /* \"#utility.yul\":645:678   */\n              tag_70\n              jump\t// in\n            tag_106:\n                /* \"#utility.yul\":545:684   */\n              swap3\n              swap2\n              pop\n              pop\n              jump\t// out\n                /* \"#utility.yul\":690:1019   */\n            tag_11:\n                /* \"#utility.yul\":749:755   */\n              0x00\n                /* \"#utility.yul\":798:800   */\n              0x20\n                /* \"#utility.yul\":786:795   */\n              dup3\n                /* \"#utility.yul\":777:784   */\n              dup5\n                /* \"#utility.yul\":773:796   */\n              sub\n                /* \"#utility.yul\":769:801   */\n              slt\n                /* \"#utility.yul\":766:885   */\n              iszero\n              tag_108\n              jumpi\n                /* \"#utility.yul\":804:883   */\n              tag_109\n              tag_67\n              jump\t// in\n            tag_109:\n                /* \"#utility.yul\":766:885   */\n            tag_108:\n                /* \"#utility.yul\":924:925   */\n              0x00\n                /* \"#utility.yul\":949:1002   */\n              tag_110\n                /* \"#utility.yul\":994:1001   */\n              dup5\n                /* \"#utility.yul\":985:991   */\n              dup3\n                /* \"#utility.yul\":974:983   */\n              dup6\n                /* \"#utility.yul\":970:992   */\n              add\n                /* \"#utility.yul\":949:1002   */\n              tag_71\n              jump\t// in\n            tag_110:\n                /* \"#utility.yul\":939:1002   */\n              swap2\n              pop\n                /* \"#utility.yul\":895:1012   */\n              pop\n                /* \"#utility.yul\":690:1019   */\n              swap3\n              swap2\n              pop\n              pop\n              jump\t// out\n                /* \"#utility.yul\":1025:1151   */\n            tag_72:\n                /* \"#utility.yul\":1062:1069   */\n              0x00\n                /* \"#utility.yul\":1102:1144   */\n              0xffffffffffffffffffffffffffffffffffffffff\n                /* \"#utility.yul\":1095:1100   */\n              dup3\n                /* \"#utility.yul\":1091:1145   */\n              and\n                /* \"#utility.yul\":1080:1145   */\n              swap1\n              pop\n                /* \"#utility.yul\":1025:1151   */\n              swap2\n              swap1\n              pop\n              jump\t// out\n                /* \"#utility.yul\":1157:1253   */\n            tag_73:\n                /* \"#utility.yul\":1194:1201   */\n              0x00\n                /* \"#utility.yul\":1223:1247   */\n              tag_113\n                /* \"#utility.yul\":1241:1246   */\n              dup3\n                /* \"#utility.yul\":1223:1247   */\n              tag_72\n              jump\t// in\n            tag_113:\n                /* \"#utility.yul\":1212:1247   */\n              swap1\n              pop\n                /* \"#utility.yul\":1157:1253   */\n              swap2\n              swap1\n              pop\n              jump\t// out\n                /* \"#utility.yul\":1259:1377   */\n            tag_74:\n                /* \"#utility.yul\":1346:1370   */\n              tag_115\n                /* \"#utility.yul\":1364:1369   */\n              dup2\n                /* \"#utility.yul\":1346:1370   */\n              tag_73\n              jump\t// in\n            tag_115:\n                /* \"#utility.yul\":1341:1344   */\n              dup3\n                /* \"#utility.yul\":1334:1371   */\n              mstore\n                /* \"#utility.yul\":1259:1377   */\n              pop\n              pop\n              jump\t// out\n                /* \"#utility.yul\":1383:1605   */\n            tag_14:\n                /* \"#utility.yul\":1476:1480   */\n              0x00\n                /* \"#utility.yul\":1514:1516   */\n              0x20\n                /* \"#utility.yul\":1503:1512   */\n              dup3\n                /* \"#utility.yul\":1499:1517   */\n              add\n                /* \"#utility.yul\":1491:1517   */\n              swap1\n              pop\n                /* \"#utility.yul\":1527:1598   */\n              tag_117\n                /* \"#utility.yul\":1595:1596   */\n              0x00\n                /* \"#utility.yul\":1584:1593   */\n              dup4\n                /* \"#utility.yul\":1580:1597   */\n              add\n                /* \"#utility.yul\":1571:1577   */\n              dup5\n                /* \"#utility.yul\":1527:1598   */\n              tag_74\n              jump\t// in\n            tag_117:\n                /* \"#utility.yul\":1383:1605   */\n              swap3\n              swap2\n              pop\n              pop\n              jump\t// out\n                /* \"#utility.yul\":1611:1688   */\n            tag_75:\n                /* \"#utility.yul\":1648:1655   */\n              0x00\n                /* \"#utility.yul\":1677:1682   */\n              dup2\n                /* \"#utility.yul\":1666:1682   */\n              swap1\n              pop\n                /* \"#utility.yul\":1611:1688   */\n              swap2\n              swap1\n              pop\n              jump\t// out\n                /* \"#utility.yul\":1694:1816   */\n            tag_76:\n                /* \"#utility.yul\":1767:1791   */\n              tag_120\n                /* \"#utility.yul\":1785:1790   */\n              dup2\n                /* \"#utility.yul\":1767:1791   */\n              tag_75\n              jump\t// in\n            tag_120:\n                /* \"#utility.yul\":1760:1765   */\n              dup2\n                /* \"#utility.yul\":1757:1792   */\n              eq\n                /* \"#utility.yul\":1747:1810   */\n              tag_121\n              jumpi\n                /* \"#utility.yul\":1806:1807   */\n              0x00\n                /* \"#utility.yul\":1803:1804   */\n              0x00\n                /* \"#utility.yul\":1796:1808   */\n              revert\n                /* \"#utility.yul\":1747:1810   */\n            tag_121:\n                /* \"#utility.yul\":1694:1816   */\n              pop\n              jump\t// out\n                /* \"#utility.yul\":1822:1961   */\n            tag_77:\n                /* \"#utility.yul\":1868:1873   */\n              0x00\n                /* \"#utility.yul\":1906:1912   */\n              dup2\n                /* \"#utility.yul\":1893:1913   */\n              calldataload\n                /* \"#utility.yul\":1884:1913   */\n              swap1\n              pop\n                /* \"#utility.yul\":1922:1955   */\n              tag_123\n                /* \"#utility.yul\":1949:1954   */\n              dup2\n                /* \"#utility.yul\":1922:1955   */\n              tag_76\n              jump\t// in\n            tag_123:\n                /* \"#utility.yul\":1822:1961   */\n              swap3\n              swap2\n              pop\n              pop\n              jump\t// out\n                /* \"#utility.yul\":1967:2089   */\n            tag_78:\n                /* \"#utility.yul\":2040:2064   */\n              tag_125\n                /* \"#utility.yul\":2058:2063   */\n              dup2\n                /* \"#utility.yul\":2040:2064   */\n              tag_73\n              jump\t// in\n            tag_125:\n                /* \"#utility.yul\":2033:2038   */\n              dup2\n                /* \"#utility.yul\":2030:2065   */\n              eq\n                /* \"#utility.yul\":2020:2083   */\n              tag_126\n              jumpi\n                /* \"#utility.yul\":2079:2080   */\n              0x00\n                /* \"#utility.yul\":2076:2077   */\n              0x00\n                /* \"#utility.yul\":2069:2081   */\n              revert\n                /* \"#utility.yul\":2020:2083   */\n            tag_126:\n                /* \"#utility.yul\":1967:2089   */\n              pop\n              jump\t// out\n                /* \"#utility.yul\":2095:2234   */\n            tag_79:\n                /* \"#utility.yul\":2141:2146   */\n              0x00\n                /* \"#utility.yul\":2179:2185   */\n              dup2\n                /* \"#utility.yul\":2166:2186   */\n              calldataload\n                /* \"#utility.yul\":2157:2186   */\n              swap1\n              pop\n                /* \"#utility.yul\":2195:2228   */\n              tag_128\n                /* \"#utility.yul\":2222:2227   */\n              dup2\n                /* \"#utility.yul\":2195:2228   */\n              tag_78\n              jump\t// in\n            tag_128:\n                /* \"#utility.yul\":2095:2234   */\n              swap3\n              swap2\n              pop\n              pop\n              jump\t// out\n                /* \"#utility.yul\":2240:2714   */\n            tag_17:\n                /* \"#utility.yul\":2308:2314   */\n              0x00\n                /* \"#utility.yul\":2316:2322   */\n              0x00\n                /* \"#utility.yul\":2365:2367   */\n              0x40\n                /* \"#utility.yul\":2353:2362   */\n              dup4\n                /* \"#utility.yul\":2344:2351   */\n              dup6\n                /* \"#utility.yul\":2340:2363   */\n              sub\n                /* \"#utility.yul\":2336:2368   */\n              slt\n                /* \"#utility.yul\":2333:2452   */\n              iszero\n              tag_130\n              jumpi\n                /* \"#utility.yul\":2371:2450   */\n              tag_131\n              tag_67\n              jump\t// in\n            tag_131:\n                /* \"#utility.yul\":2333:2452   */\n            tag_130:\n                /* \"#utility.yul\":2491:2492   */\n              0x00\n                /* \"#utility.yul\":2516:2569   */\n              tag_132\n                /* \"#utility.yul\":2561:2568   */\n              dup6\n                /* \"#utility.yul\":2552:2558   */\n              dup3\n                /* \"#utility.yul\":2541:2550   */\n              dup7\n                /* \"#utility.yul\":2537:2559   */\n              add\n                /* \"#utility.yul\":2516:2569   */\n              tag_77\n              jump\t// in\n            tag_132:\n                /* \"#utility.yul\":2506:2569   */\n              swap3\n              pop\n                /* \"#utility.yul\":2462:2579   */\n              pop\n                /* \"#utility.yul\":2618:2620   */\n              0x20\n                /* \"#utility.yul\":2644:2697   */\n              tag_133\n                /* \"#utility.yul\":2689:2696   */\n              dup6\n                /* \"#utility.yul\":2680:2686   */\n              dup3\n                /* \"#utility.yul\":2669:2678   */\n              dup7\n                /* \"#utility.yul\":2665:2687   */\n              add\n                /* \"#utility.yul\":2644:2697   */\n              tag_79\n              jump\t// in\n            tag_133:\n                /* \"#utility.yul\":2634:2697   */\n              swap2\n              pop\n                /* \"#utility.yul\":2589:2707   */\n              pop\n                /* \"#utility.yul\":2240:2714   */\n              swap3\n              pop\n              swap3\n              swap1\n              pop\n              jump\t// out\n                /* \"#utility.yul\":2720:2838   */\n            tag_80:\n                /* \"#utility.yul\":2807:2831   */\n              tag_135\n                /* \"#utility.yul\":2825:2830   */\n              dup2\n                /* \"#utility.yul\":2807:2831   */\n              tag_69\n              jump\t// in\n            tag_135:\n                /* \"#utility.yul\":2802:2805   */\n              dup3\n                /* \"#utility.yul\":2795:2832   */\n              mstore\n                /* \"#utility.yul\":2720:2838   */\n              pop\n              pop\n              jump\t// out\n                /* \"#utility.yul\":2844:3066   */\n            tag_23:\n                /* \"#utility.yul\":2937:2941   */\n              0x00\n                /* \"#utility.yul\":2975:2977   */\n              0x20\n                /* \"#utility.yul\":2964:2973   */\n              dup3\n                /* \"#utility.yul\":2960:2978   */\n              add\n                /* \"#utility.yul\":2952:2978   */\n              swap1\n              pop\n                /* \"#utility.yul\":2988:3059   */\n              tag_137\n                /* \"#utility.yul\":3056:3057   */\n              0x00\n                /* \"#utility.yul\":3045:3054   */\n              dup4\n                /* \"#utility.yul\":3041:3058   */\n              add\n                /* \"#utility.yul\":3032:3038   */\n              dup5\n                /* \"#utility.yul\":2988:3059   */\n              tag_80\n              jump\t// in\n            tag_137:\n                /* \"#utility.yul\":2844:3066   */\n              swap3\n              swap2\n              pop\n              pop\n              jump\t// out\n                /* \"#utility.yul\":3072:3401   */\n            tag_29:\n                /* \"#utility.yul\":3131:3137   */\n              0x00\n                /* \"#utility.yul\":3180:3182   */\n              0x20\n                /* \"#utility.yul\":3168:3177   */\n              dup3\n                /* \"#utility.yul\":3159:3166   */\n              dup5\n                /* \"#utility.yul\":3155:3178   */\n              sub\n                /* \"#utility.yul\":3151:3183   */\n              slt\n                /* \"#utility.yul\":3148:3267   */\n              iszero\n              tag_139\n              jumpi\n                /* \"#utility.yul\":3186:3265   */\n              tag_140\n              tag_67\n              jump\t// in\n            tag_140:\n                /* \"#utility.yul\":3148:3267   */\n            tag_139:\n                /* \"#utility.yul\":3306:3307   */\n              0x00\n                /* \"#utility.yul\":3331:3384   */\n              tag_141\n                /* \"#utility.yul\":3376:3383   */\n              dup5\n                /* \"#utility.yul\":3367:3373   */\n              dup3\n                /* \"#utility.yul\":3356:3365   */\n              dup6\n                /* \"#utility.yul\":3352:3374   */\n              add\n                /* \"#utility.yul\":3331:3384   */\n              tag_77\n              jump\t// in\n            tag_141:\n                /* \"#utility.yul\":3321:3384   */\n              swap2\n              pop\n                /* \"#utility.yul\":3277:3394   */\n              pop\n                /* \"#utility.yul\":3072:3401   */\n              swap3\n              swap2\n              pop\n              pop\n              jump\t// out\n                /* \"#utility.yul\":3407:3576   */\n            tag_81:\n                /* \"#utility.yul\":3491:3502   */\n              0x00\n                /* \"#utility.yul\":3525:3531   */\n              dup3\n                /* \"#utility.yul\":3520:3523   */\n              dup3\n                /* \"#utility.yul\":3513:3532   */\n              mstore\n                /* \"#utility.yul\":3565:3569   */\n              0x20\n                /* \"#utility.yul\":3560:3563   */\n              dup3\n                /* \"#utility.yul\":3556:3570   */\n              add\n                /* \"#utility.yul\":3541:3570   */\n              swap1\n              pop\n                /* \"#utility.yul\":3407:3576   */\n              swap3\n              swap2\n              pop\n              pop\n              jump\t// out\n                /* \"#utility.yul\":3582:3752   */\n            tag_82:\n                /* \"#utility.yul\":3722:3744   */\n              0x496e646578206f7574206f6620626f756e647321000000000000000000000000\n                /* \"#utility.yul\":3718:3719   */\n              0x00\n                /* \"#utility.yul\":3710:3716   */\n              dup3\n                /* \"#utility.yul\":3706:3720   */\n              add\n                /* \"#utility.yul\":3699:3745   */\n              mstore\n                /* \"#utility.yul\":3582:3752   */\n              pop\n              jump\t// out\n                /* \"#utility.yul\":3758:4124   */\n            tag_83:\n                /* \"#utility.yul\":3900:3903   */\n              0x00\n                /* \"#utility.yul\":3921:3988   */\n              tag_145\n                /* \"#utility.yul\":3985:3987   */\n              0x14\n                /* \"#utility.yul\":3980:3983   */\n              dup4\n                /* \"#utility.yul\":3921:3988   */\n              tag_81\n              jump\t// in\n            tag_145:\n                /* \"#utility.yul\":3914:3988   */\n              swap2\n              pop\n                /* \"#utility.yul\":3997:4090   */\n              tag_146\n                /* \"#utility.yul\":4086:4089   */\n              dup3\n                /* \"#utility.yul\":3997:4090   */\n              tag_82\n              jump\t// in\n            tag_146:\n                /* \"#utility.yul\":4115:4117   */\n              0x20\n                /* \"#utility.yul\":4110:4113   */\n              dup3\n                /* \"#utility.yul\":4106:4118   */\n              add\n                /* \"#utility.yul\":4099:4118   */\n              swap1\n              pop\n                /* \"#utility.yul\":3758:4124   */\n              swap2\n              swap1\n              pop\n              jump\t// out\n                /* \"#utility.yul\":4130:4549   */\n            tag_39:\n                /* \"#utility.yul\":4296:4300   */\n              0x00\n                /* \"#utility.yul\":4334:4336   */\n              0x20\n                /* \"#utility.yul\":4323:4332   */\n              dup3\n                /* \"#utility.yul\":4319:4337   */\n              add\n                /* \"#utility.yul\":4311:4337   */\n              swap1\n              pop\n                /* \"#utility.yul\":4383:4392   */\n              dup2\n                /* \"#utility.yul\":4377:4381   */\n              dup2\n                /* \"#utility.yul\":4373:4393   */\n              sub\n                /* \"#utility.yul\":4369:4370   */\n              0x00\n                /* \"#utility.yul\":4358:4367   */\n              dup4\n                /* \"#utility.yul\":4354:4371   */\n              add\n                /* \"#utility.yul\":4347:4394   */\n              mstore\n                /* \"#utility.yul\":4411:4542   */\n              tag_148\n                /* \"#utility.yul\":4537:4541   */\n              dup2\n                /* \"#utility.yul\":4411:4542   */\n              tag_83\n              jump\t// in\n            tag_148:\n                /* \"#utility.yul\":4403:4542   */\n              swap1\n              pop\n                /* \"#utility.yul\":4130:4549   */\n              swap2\n              swap1\n              pop\n              jump\t// out\n                /* \"#utility.yul\":4555:4735   */\n            tag_42:\n                /* \"#utility.yul\":4603:4680   */\n              0x4e487b7100000000000000000000000000000000000000000000000000000000\n                /* \"#utility.yul\":4600:4601   */\n              0x00\n                /* \"#utility.yul\":4593:4681   */\n              mstore\n                /* \"#utility.yul\":4700:4704   */\n              0x32\n                /* \"#utility.yul\":4697:4698   */\n              0x04\n                /* \"#utility.yul\":4690:4705   */\n              mstore\n                /* \"#utility.yul\":4724:4728   */\n              0x24\n                /* \"#utility.yul\":4721:4722   */\n              0x00\n                /* \"#utility.yul\":4714:4729   */\n              revert\n                /* \"#utility.yul\":4741:4839   */\n            tag_84:\n                /* \"#utility.yul\":4792:4798   */\n              0x00\n                /* \"#utility.yul\":4826:4831   */\n              dup2\n                /* \"#utility.yul\":4820:4832   */\n              mload\n                /* \"#utility.yul\":4810:4832   */\n              swap1\n              pop\n                /* \"#utility.yul\":4741:4839   */\n              swap2\n              swap1\n              pop\n              jump\t// out\n                /* \"#utility.yul\":4845:4992   */\n            tag_85:\n                /* \"#utility.yul\":4946:4957   */\n              0x00\n                /* \"#utility.yul\":4983:4986   */\n              dup2\n                /* \"#utility.yul\":4968:4986   */\n              swap1\n              pop\n                /* \"#utility.yul\":4845:4992   */\n              swap3\n              swap2\n              pop\n              pop\n              jump\t// out\n                /* \"#utility.yul\":4998:5137   */\n            tag_86:\n                /* \"#utility.yul\":5087:5093   */\n              dup3\n                /* \"#utility.yul\":5082:5085   */\n              dup2\n                /* \"#utility.yul\":5077:5080   */\n              dup4\n                /* \"#utility.yul\":5071:5094   */\n              mcopy\n                /* \"#utility.yul\":5128:5129   */\n              0x00\n                /* \"#utility.yul\":5119:5125   */\n              dup4\n                /* \"#utility.yul\":5114:5117   */\n              dup4\n                /* \"#utility.yul\":5110:5126   */\n              add\n                /* \"#utility.yul\":5103:5130   */\n              mstore\n                /* \"#utility.yul\":4998:5137   */\n              pop\n              pop\n              pop\n              jump\t// out\n                /* \"#utility.yul\":5143:5529   */\n            tag_87:\n                /* \"#utility.yul\":5247:5250   */\n              0x00\n                /* \"#utility.yul\":5275:5313   */\n              tag_154\n                /* \"#utility.yul\":5307:5312   */\n              dup3\n                /* \"#utility.yul\":5275:5313   */\n              tag_84\n              jump\t// in\n            tag_154:\n                /* \"#utility.yul\":5329:5417   */\n              tag_155\n                /* \"#utility.yul\":5410:5416   */\n              dup2\n                /* \"#utility.yul\":5405:5408   */\n              dup6\n                /* \"#utility.yul\":5329:5417   */\n              tag_85\n              jump\t// in\n            tag_155:\n                /* \"#utility.yul\":5322:5417   */\n              swap4\n              pop\n                /* \"#utility.yul\":5426:5491   */\n              tag_156\n                /* \"#utility.yul\":5484:5490   */\n              dup2\n                /* \"#utility.yul\":5479:5482   */\n              dup6\n                /* \"#utility.yul\":5472:5476   */\n              0x20\n                /* \"#utility.yul\":5465:5470   */\n              dup7\n                /* \"#utility.yul\":5461:5477   */\n              add\n                /* \"#utility.yul\":5426:5491   */\n              tag_86\n              jump\t// in\n            tag_156:\n                /* \"#utility.yul\":5516:5522   */\n              dup1\n                /* \"#utility.yul\":5511:5514   */\n              dup5\n                /* \"#utility.yul\":5507:5523   */\n              add\n                /* \"#utility.yul\":5500:5523   */\n              swap2\n              pop\n                /* \"#utility.yul\":5251:5529   */\n              pop\n                /* \"#utility.yul\":5143:5529   */\n              swap3\n              swap2\n              pop\n              pop\n              jump\t// out\n                /* \"#utility.yul\":5535:5962   */\n            tag_49:\n                /* \"#utility.yul\":5711:5714   */\n              0x00\n                /* \"#utility.yul\":5733:5826   */\n              tag_158\n                /* \"#utility.yul\":5822:5825   */\n              dup3\n                /* \"#utility.yul\":5813:5819   */\n              dup6\n                /* \"#utility.yul\":5733:5826   */\n              tag_87\n              jump\t// in\n            tag_158:\n                /* \"#utility.yul\":5726:5826   */\n              swap2\n              pop\n                /* \"#utility.yul\":5843:5936   */\n              tag_159\n                /* \"#utility.yul\":5932:5935   */\n              dup3\n                /* \"#utility.yul\":5923:5929   */\n              dup5\n                /* \"#utility.yul\":5843:5936   */\n              tag_87\n              jump\t// in\n            tag_159:\n                /* \"#utility.yul\":5836:5936   */\n              swap2\n              pop\n                /* \"#utility.yul\":5953:5956   */\n              dup2\n                /* \"#utility.yul\":5946:5956   */\n              swap1\n              pop\n                /* \"#utility.yul\":5535:5962   */\n              swap4\n              swap3\n              pop\n              pop\n              pop\n              jump\t// out\n                /* \"#utility.yul\":5968:6117   */\n            tag_88:\n                /* \"#utility.yul\":6004:6011   */\n              0x00\n                /* \"#utility.yul\":6044:6110   */\n              0xff00000000000000000000000000000000000000000000000000000000000000\n                /* \"#utility.yul\":6037:6042   */\n              dup3\n                /* \"#utility.yul\":6033:6111   */\n              and\n                /* \"#utility.yul\":6022:6111   */\n              swap1\n              pop\n                /* \"#utility.yul\":5968:6117   */\n              swap2\n              swap1\n              pop\n              jump\t// out\n                /* \"#utility.yul\":6123:6201   */\n            tag_89:\n                /* \"#utility.yul\":6161:6168   */\n              0x00\n                /* \"#utility.yul\":6190:6195   */\n              dup2\n                /* \"#utility.yul\":6179:6195   */\n              swap1\n              pop\n                /* \"#utility.yul\":6123:6201   */\n              swap2\n              swap1\n              pop\n              jump\t// out\n                /* \"#utility.yul\":6207:6360   */\n            tag_90:\n                /* \"#utility.yul\":6310:6353   */\n              tag_163\n                /* \"#utility.yul\":6329:6352   */\n              tag_164\n                /* \"#utility.yul\":6346:6351   */\n              dup3\n                /* \"#utility.yul\":6329:6352   */\n              tag_88\n              jump\t// in\n            tag_164:\n                /* \"#utility.yul\":6310:6353   */\n              tag_89\n              jump\t// in\n            tag_163:\n                /* \"#utility.yul\":6305:6308   */\n              dup3\n                /* \"#utility.yul\":6298:6354   */\n              mstore\n                /* \"#utility.yul\":6207:6360   */\n              pop\n              pop\n              jump\t// out\n                /* \"#utility.yul\":6366:6460   */\n            tag_91:\n                /* \"#utility.yul\":6399:6407   */\n              0x00\n                /* \"#utility.yul\":6447:6452   */\n              dup2\n                /* \"#utility.yul\":6443:6445   */\n              0x60\n                /* \"#utility.yul\":6439:6453   */\n              shl\n                /* \"#utility.yul\":6418:6453   */\n              swap1\n              pop\n                /* \"#utility.yul\":6366:6460   */\n              swap2\n              swap1\n              pop\n              jump\t// out\n                /* \"#utility.yul\":6466:6560   */\n            tag_92:\n                /* \"#utility.yul\":6505:6512   */\n              0x00\n                /* \"#utility.yul\":6534:6554   */\n              tag_167\n                /* \"#utility.yul\":6548:6553   */\n              dup3\n                /* \"#utility.yul\":6534:6554   */\n              tag_91\n              jump\t// in\n            tag_167:\n                /* \"#utility.yul\":6523:6554   */\n              swap1\n              pop\n                /* \"#utility.yul\":6466:6560   */\n              swap2\n              swap1\n              pop\n              jump\t// out\n                /* \"#utility.yul\":6566:6666   */\n            tag_93:\n                /* \"#utility.yul\":6605:6612   */\n              0x00\n                /* \"#utility.yul\":6634:6660   */\n              tag_169\n                /* \"#utility.yul\":6654:6659   */\n              dup3\n                /* \"#utility.yul\":6634:6660   */\n              tag_92\n              jump\t// in\n            tag_169:\n                /* \"#utility.yul\":6623:6660   */\n              swap1\n              pop\n                /* \"#utility.yul\":6566:6666   */\n              swap2\n              swap1\n              pop\n              jump\t// out\n                /* \"#utility.yul\":6672:6829   */\n            tag_94:\n                /* \"#utility.yul\":6777:6822   */\n              tag_171\n                /* \"#utility.yul\":6797:6821   */\n              tag_172\n                /* \"#utility.yul\":6815:6820   */\n              dup3\n                /* \"#utility.yul\":6797:6821   */\n              tag_73\n              jump\t// in\n            tag_172:\n                /* \"#utility.yul\":6777:6822   */\n              tag_93\n              jump\t// in\n            tag_171:\n                /* \"#utility.yul\":6772:6775   */\n              dup3\n                /* \"#utility.yul\":6765:6823   */\n              mstore\n                /* \"#utility.yul\":6672:6829   */\n              pop\n              pop\n              jump\t// out\n                /* \"#utility.yul\":6835:6914   */\n            tag_95:\n                /* \"#utility.yul\":6874:6881   */\n              0x00\n                /* \"#utility.yul\":6903:6908   */\n              dup2\n                /* \"#utility.yul\":6892:6908   */\n              swap1\n              pop\n                /* \"#utility.yul\":6835:6914   */\n              swap2\n              swap1\n              pop\n              jump\t// out\n                /* \"#utility.yul\":6920:7077   */\n            tag_96:\n                /* \"#utility.yul\":7025:7070   */\n              tag_175\n                /* \"#utility.yul\":7045:7069   */\n              tag_176\n                /* \"#utility.yul\":7063:7068   */\n              dup3\n                /* \"#utility.yul\":7045:7069   */\n              tag_75\n              jump\t// in\n            tag_176:\n                /* \"#utility.yul\":7025:7070   */\n              tag_95\n              jump\t// in\n            tag_175:\n                /* \"#utility.yul\":7020:7023   */\n              dup3\n                /* \"#utility.yul\":7013:7071   */\n              mstore\n                /* \"#utility.yul\":6920:7077   */\n              pop\n              pop\n              jump\t// out\n                /* \"#utility.yul\":7083:7757   */\n            tag_51:\n                /* \"#utility.yul\":7277:7280   */\n              0x00\n                /* \"#utility.yul\":7292:7365   */\n              tag_178\n                /* \"#utility.yul\":7361:7364   */\n              dup3\n                /* \"#utility.yul\":7352:7358   */\n              dup8\n                /* \"#utility.yul\":7292:7365   */\n              tag_90\n              jump\t// in\n            tag_178:\n                /* \"#utility.yul\":7390:7391   */\n              0x01\n                /* \"#utility.yul\":7385:7388   */\n              dup3\n                /* \"#utility.yul\":7381:7392   */\n              add\n                /* \"#utility.yul\":7374:7392   */\n              swap2\n              pop\n                /* \"#utility.yul\":7402:7477   */\n              tag_179\n                /* \"#utility.yul\":7473:7476   */\n              dup3\n                /* \"#utility.yul\":7464:7470   */\n              dup7\n                /* \"#utility.yul\":7402:7477   */\n              tag_94\n              jump\t// in\n            tag_179:\n                /* \"#utility.yul\":7502:7504   */\n              0x14\n                /* \"#utility.yul\":7497:7500   */\n              dup3\n                /* \"#utility.yul\":7493:7505   */\n              add\n                /* \"#utility.yul\":7486:7505   */\n              swap2\n              pop\n                /* \"#utility.yul\":7515:7590   */\n              tag_180\n                /* \"#utility.yul\":7586:7589   */\n              dup3\n                /* \"#utility.yul\":7577:7583   */\n              dup6\n                /* \"#utility.yul\":7515:7590   */\n              tag_96\n              jump\t// in\n            tag_180:\n                /* \"#utility.yul\":7615:7617   */\n              0x20\n                /* \"#utility.yul\":7610:7613   */\n              dup3\n                /* \"#utility.yul\":7606:7618   */\n              add\n                /* \"#utility.yul\":7599:7618   */\n              swap2\n              pop\n                /* \"#utility.yul\":7628:7703   */\n              tag_181\n                /* \"#utility.yul\":7699:7702   */\n              dup3\n                /* \"#utility.yul\":7690:7696   */\n              dup5\n                /* \"#utility.yul\":7628:7703   */\n              tag_96\n              jump\t// in\n            tag_181:\n                /* \"#utility.yul\":7728:7730   */\n              0x20\n                /* \"#utility.yul\":7723:7726   */\n              dup3\n                /* \"#utility.yul\":7719:7731   */\n              add\n                /* \"#utility.yul\":7712:7731   */\n              swap2\n              pop\n                /* \"#utility.yul\":7748:7751   */\n              dup2\n                /* \"#utility.yul\":7741:7751   */\n              swap1\n              pop\n                /* \"#utility.yul\":7083:7757   */\n              swap6\n              swap5\n              pop\n              pop\n              pop\n              pop\n              pop\n              jump\t// out\n            stop\n\n            sub_0: assembly {\n                    /* \"lession8.1-Invocation/factorynew/Counter.sol\":85:350  contract Counter {... */\n                  mstore(0x40, 0x80)\n                    /* \"lession8.1-Invocation/factorynew/Counter.sol\":158:236  constructor(address _owner) {... */\n                  callvalue\n                  dup1\n                  iszero\n                  tag_1\n                  jumpi\n                  revert(0x00, 0x00)\n                tag_1:\n                  pop\n                  mload(0x40)\n                  sub(codesize, bytecodeSize)\n                  dup1\n                  bytecodeSize\n                  dup4\n                  codecopy\n                  dup2\n                  dup2\n                  add\n                  0x40\n                  mstore\n                  dup2\n                  add\n                  swap1\n                  tag_2\n                  swap2\n                  swap1\n                  tag_3\n                  jump\t// in\n                tag_2:\n                    /* \"lession8.1-Invocation/factorynew/Counter.sol\":204:210  _owner */\n                  dup1\n                    /* \"lession8.1-Invocation/factorynew/Counter.sol\":196:201  owner */\n                  0x01\n                  0x00\n                    /* \"lession8.1-Invocation/factorynew/Counter.sol\":196:210  owner = _owner */\n                  0x0100\n                  exp\n                  dup2\n                  sload\n                  dup2\n                  0xffffffffffffffffffffffffffffffffffffffff\n                  mul\n                  not\n                  and\n                  swap1\n                  dup4\n                  0xffffffffffffffffffffffffffffffffffffffff\n                  and\n                  mul\n                  or\n                  swap1\n                  sstore\n                  pop\n                    /* \"lession8.1-Invocation/factorynew/Counter.sol\":228:229  0 */\n                  0x00\n                    /* \"lession8.1-Invocation/factorynew/Counter.sol\":220:225  count */\n                  0x00\n                    /* \"lession8.1-Invocation/factorynew/Counter.sol\":220:229  count = 0 */\n                  dup2\n                  swap1\n                  sstore\n                  pop\n                    /* \"lession8.1-Invocation/factorynew/Counter.sol\":158:236  constructor(address _owner) {... */\n                  pop\n                    /* \"lession8.1-Invocation/factorynew/Counter.sol\":85:350  contract Counter {... */\n                  jump(tag_6)\n                    /* \"#utility.yul\":88:205   */\n                tag_8:\n                    /* \"#utility.yul\":197:198   */\n                  0x00\n                    /* \"#utility.yul\":194:195   */\n                  0x00\n                    /* \"#utility.yul\":187:199   */\n                  revert\n                    /* \"#utility.yul\":334:460   */\n                tag_10:\n                    /* \"#utility.yul\":371:378   */\n                  0x00\n                    /* \"#utility.yul\":411:453   */\n                  0xffffffffffffffffffffffffffffffffffffffff\n                    /* \"#utility.yul\":404:409   */\n                  dup3\n                    /* \"#utility.yul\":400:454   */\n                  and\n                    /* \"#utility.yul\":389:454   */\n                  swap1\n                  pop\n                    /* \"#utility.yul\":334:460   */\n                  swap2\n                  swap1\n                  pop\n                  jump\t// out\n                    /* \"#utility.yul\":466:562   */\n                tag_11:\n                    /* \"#utility.yul\":503:510   */\n                  0x00\n                    /* \"#utility.yul\":532:556   */\n                  tag_20\n                    /* \"#utility.yul\":550:555   */\n                  dup3\n                    /* \"#utility.yul\":532:556   */\n                  tag_10\n                  jump\t// in\n                tag_20:\n                    /* \"#utility.yul\":521:556   */\n                  swap1\n                  pop\n                    /* \"#utility.yul\":466:562   */\n                  swap2\n                  swap1\n                  pop\n                  jump\t// out\n                    /* \"#utility.yul\":568:690   */\n                tag_12:\n                    /* \"#utility.yul\":641:665   */\n                  tag_22\n                    /* \"#utility.yul\":659:664   */\n                  dup2\n                    /* \"#utility.yul\":641:665   */\n                  tag_11\n                  jump\t// in\n                tag_22:\n                    /* \"#utility.yul\":634:639   */\n                  dup2\n                    /* \"#utility.yul\":631:666   */\n                  eq\n                    /* \"#utility.yul\":621:684   */\n                  tag_23\n                  jumpi\n                    /* \"#utility.yul\":680:681   */\n                  0x00\n                    /* \"#utility.yul\":677:678   */\n                  0x00\n                    /* \"#utility.yul\":670:682   */\n                  revert\n                    /* \"#utility.yul\":621:684   */\n                tag_23:\n                    /* \"#utility.yul\":568:690   */\n                  pop\n                  jump\t// out\n                    /* \"#utility.yul\":696:839   */\n                tag_13:\n                    /* \"#utility.yul\":753:758   */\n                  0x00\n                    /* \"#utility.yul\":784:790   */\n                  dup2\n                    /* \"#utility.yul\":778:791   */\n                  mload\n                    /* \"#utility.yul\":769:791   */\n                  swap1\n                  pop\n                    /* \"#utility.yul\":800:833   */\n                  tag_25\n                    /* \"#utility.yul\":827:832   */\n                  dup2\n                    /* \"#utility.yul\":800:833   */\n                  tag_12\n                  jump\t// in\n                tag_25:\n                    /* \"#utility.yul\":696:839   */\n                  swap3\n                  swap2\n                  pop\n                  pop\n                  jump\t// out\n                    /* \"#utility.yul\":845:1196   */\n                tag_3:\n                    /* \"#utility.yul\":915:921   */\n                  0x00\n                    /* \"#utility.yul\":964:966   */\n                  0x20\n                    /* \"#utility.yul\":952:961   */\n                  dup3\n                    /* \"#utility.yul\":943:950   */\n                  dup5\n                    /* \"#utility.yul\":939:962   */\n                  sub\n                    /* \"#utility.yul\":935:967   */\n                  slt\n                    /* \"#utility.yul\":932:1051   */\n                  iszero\n                  tag_27\n                  jumpi\n                    /* \"#utility.yul\":970:1049   */\n                  tag_28\n                  tag_8\n                  jump\t// in\n                tag_28:\n                    /* \"#utility.yul\":932:1051   */\n                tag_27:\n                    /* \"#utility.yul\":1090:1091   */\n                  0x00\n                    /* \"#utility.yul\":1115:1179   */\n                  tag_29\n                    /* \"#utility.yul\":1171:1178   */\n                  dup5\n                    /* \"#utility.yul\":1162:1168   */\n                  dup3\n                    /* \"#utility.yul\":1151:1160   */\n                  dup6\n                    /* \"#utility.yul\":1147:1169   */\n                  add\n                    /* \"#utility.yul\":1115:1179   */\n                  tag_13\n                  jump\t// in\n                tag_29:\n                    /* \"#utility.yul\":1105:1179   */\n                  swap2\n                  pop\n                    /* \"#utility.yul\":1061:1189   */\n                  pop\n                    /* \"#utility.yul\":845:1196   */\n                  swap3\n                  swap2\n                  pop\n                  pop\n                  jump\t// out\n                    /* \"lession8.1-Invocation/factorynew/Counter.sol\":85:350  contract Counter {... */\n                tag_6:\n                  dataSize(sub_0)\n                  dup1\n                  dataOffset(sub_0)\n                  0x00\n                  codecopy\n                  0x00\n                  return\n                stop\n\n                sub_0: assembly {\n                        /* \"lession8.1-Invocation/factorynew/Counter.sol\":85:350  contract Counter {... */\n                      mstore(0x40, 0x80)\n                      callvalue\n                      dup1\n                      iszero\n                      tag_1\n                      jumpi\n                      revert(0x00, 0x00)\n                    tag_1:\n                      pop\n                      jumpi(tag_2, lt(calldatasize, 0x04))\n                      shr(0xe0, calldataload(0x00))\n                      dup1\n                      0x06661abd\n                      eq\n                      tag_3\n                      jumpi\n                      dup1\n                      0x8da5cb5b\n                      eq\n                      tag_4\n                      jumpi\n                      dup1\n                      0xd09de08a\n                      eq\n                      tag_5\n                      jumpi\n                    tag_2:\n                      revert(0x00, 0x00)\n                        /* \"lession8.1-Invocation/factorynew/Counter.sol\":108:125  uint public count */\n                    tag_3:\n                      tag_6\n                      tag_7\n                      jump\t// in\n                    tag_6:\n                      mload(0x40)\n                      tag_8\n                      swap2\n                      swap1\n                      tag_9\n                      jump\t// in\n                    tag_8:\n                      mload(0x40)\n                      dup1\n                      swap2\n                      sub\n                      swap1\n                      return\n                        /* \"lession8.1-Invocation/factorynew/Counter.sol\":131:151  address public owner */\n                    tag_4:\n                      tag_10\n                      tag_11\n                      jump\t// in\n                    tag_10:\n                      mload(0x40)\n                      tag_12\n                      swap2\n                      swap1\n                      tag_13\n                      jump\t// in\n                    tag_12:\n                      mload(0x40)\n                      dup1\n                      swap2\n                      sub\n                      swap1\n                      return\n                        /* \"lession8.1-Invocation/factorynew/Counter.sol\":242:348  function increment() external {... */\n                    tag_5:\n                      tag_14\n                      tag_15\n                      jump\t// in\n                    tag_14:\n                      stop\n                        /* \"lession8.1-Invocation/factorynew/Counter.sol\":108:125  uint public count */\n                    tag_7:\n                      sload(0x00)\n                      dup2\n                      jump\t// out\n                        /* \"lession8.1-Invocation/factorynew/Counter.sol\":131:151  address public owner */\n                    tag_11:\n                      0x01\n                      0x00\n                      swap1\n                      sload\n                      swap1\n                      0x0100\n                      exp\n                      swap1\n                      div\n                      0xffffffffffffffffffffffffffffffffffffffff\n                      and\n                      dup2\n                      jump\t// out\n                        /* \"lession8.1-Invocation/factorynew/Counter.sol\":242:348  function increment() external {... */\n                    tag_15:\n                        /* \"lession8.1-Invocation/factorynew/Counter.sol\":299:309  msg.sender */\n                      caller\n                        /* \"lession8.1-Invocation/factorynew/Counter.sol\":290:309  owner == msg.sender */\n                      0xffffffffffffffffffffffffffffffffffffffff\n                      and\n                        /* \"lession8.1-Invocation/factorynew/Counter.sol\":290:295  owner */\n                      0x01\n                      0x00\n                      swap1\n                      sload\n                      swap1\n                      0x0100\n                      exp\n                      swap1\n                      div\n                      0xffffffffffffffffffffffffffffffffffffffff\n                      and\n                        /* \"lession8.1-Invocation/factorynew/Counter.sol\":290:309  owner == msg.sender */\n                      0xffffffffffffffffffffffffffffffffffffffff\n                      and\n                      eq\n                        /* \"lession8.1-Invocation/factorynew/Counter.sol\":282:324  require(owner == msg.sender, \"Not owner!\") */\n                      tag_17\n                      jumpi\n                      mload(0x40)\n                      0x08c379a000000000000000000000000000000000000000000000000000000000\n                      dup2\n                      mstore\n                      0x04\n                      add\n                      tag_18\n                      swap1\n                      tag_19\n                      jump\t// in\n                    tag_18:\n                      mload(0x40)\n                      dup1\n                      swap2\n                      sub\n                      swap1\n                      revert\n                    tag_17:\n                        /* \"lession8.1-Invocation/factorynew/Counter.sol\":334:339  count */\n                      0x00\n                      0x00\n                        /* \"lession8.1-Invocation/factorynew/Counter.sol\":334:341  count++ */\n                      dup2\n                      sload\n                      dup1\n                      swap3\n                      swap2\n                      swap1\n                      tag_20\n                      swap1\n                      tag_21\n                      jump\t// in\n                    tag_20:\n                      swap2\n                      swap1\n                      pop\n                      sstore\n                      pop\n                        /* \"lession8.1-Invocation/factorynew/Counter.sol\":242:348  function increment() external {... */\n                      jump\t// out\n                        /* \"#utility.yul\":7:84   */\n                    tag_22:\n                        /* \"#utility.yul\":44:51   */\n                      0x00\n                        /* \"#utility.yul\":73:78   */\n                      dup2\n                        /* \"#utility.yul\":62:78   */\n                      swap1\n                      pop\n                        /* \"#utility.yul\":7:84   */\n                      swap2\n                      swap1\n                      pop\n                      jump\t// out\n                        /* \"#utility.yul\":90:208   */\n                    tag_23:\n                        /* \"#utility.yul\":177:201   */\n                      tag_34\n                        /* \"#utility.yul\":195:200   */\n                      dup2\n                        /* \"#utility.yul\":177:201   */\n                      tag_22\n                      jump\t// in\n                    tag_34:\n                        /* \"#utility.yul\":172:175   */\n                      dup3\n                        /* \"#utility.yul\":165:202   */\n                      mstore\n                        /* \"#utility.yul\":90:208   */\n                      pop\n                      pop\n                      jump\t// out\n                        /* \"#utility.yul\":214:436   */\n                    tag_9:\n                        /* \"#utility.yul\":307:311   */\n                      0x00\n                        /* \"#utility.yul\":345:347   */\n                      0x20\n                        /* \"#utility.yul\":334:343   */\n                      dup3\n                        /* \"#utility.yul\":330:348   */\n                      add\n                        /* \"#utility.yul\":322:348   */\n                      swap1\n                      pop\n                        /* \"#utility.yul\":358:429   */\n                      tag_36\n                        /* \"#utility.yul\":426:427   */\n                      0x00\n                        /* \"#utility.yul\":415:424   */\n                      dup4\n                        /* \"#utility.yul\":411:428   */\n                      add\n                        /* \"#utility.yul\":402:408   */\n                      dup5\n                        /* \"#utility.yul\":358:429   */\n                      tag_23\n                      jump\t// in\n                    tag_36:\n                        /* \"#utility.yul\":214:436   */\n                      swap3\n                      swap2\n                      pop\n                      pop\n                      jump\t// out\n                        /* \"#utility.yul\":442:568   */\n                    tag_24:\n                        /* \"#utility.yul\":479:486   */\n                      0x00\n                        /* \"#utility.yul\":519:561   */\n                      0xffffffffffffffffffffffffffffffffffffffff\n                        /* \"#utility.yul\":512:517   */\n                      dup3\n                        /* \"#utility.yul\":508:562   */\n                      and\n                        /* \"#utility.yul\":497:562   */\n                      swap1\n                      pop\n                        /* \"#utility.yul\":442:568   */\n                      swap2\n                      swap1\n                      pop\n                      jump\t// out\n                        /* \"#utility.yul\":574:670   */\n                    tag_25:\n                        /* \"#utility.yul\":611:618   */\n                      0x00\n                        /* \"#utility.yul\":640:664   */\n                      tag_39\n                        /* \"#utility.yul\":658:663   */\n                      dup3\n                        /* \"#utility.yul\":640:664   */\n                      tag_24\n                      jump\t// in\n                    tag_39:\n                        /* \"#utility.yul\":629:664   */\n                      swap1\n                      pop\n                        /* \"#utility.yul\":574:670   */\n                      swap2\n                      swap1\n                      pop\n                      jump\t// out\n                        /* \"#utility.yul\":676:794   */\n                    tag_26:\n                        /* \"#utility.yul\":763:787   */\n                      tag_41\n                        /* \"#utility.yul\":781:786   */\n                      dup2\n                        /* \"#utility.yul\":763:787   */\n                      tag_25\n                      jump\t// in\n                    tag_41:\n                        /* \"#utility.yul\":758:761   */\n                      dup3\n                        /* \"#utility.yul\":751:788   */\n                      mstore\n                        /* \"#utility.yul\":676:794   */\n                      pop\n                      pop\n                      jump\t// out\n                        /* \"#utility.yul\":800:1022   */\n                    tag_13:\n                        /* \"#utility.yul\":893:897   */\n                      0x00\n                        /* \"#utility.yul\":931:933   */\n                      0x20\n                        /* \"#utility.yul\":920:929   */\n                      dup3\n                        /* \"#utility.yul\":916:934   */\n                      add\n                        /* \"#utility.yul\":908:934   */\n                      swap1\n                      pop\n                        /* \"#utility.yul\":944:1015   */\n                      tag_43\n                        /* \"#utility.yul\":1012:1013   */\n                      0x00\n                        /* \"#utility.yul\":1001:1010   */\n                      dup4\n                        /* \"#utility.yul\":997:1014   */\n                      add\n                        /* \"#utility.yul\":988:994   */\n                      dup5\n                        /* \"#utility.yul\":944:1015   */\n                      tag_26\n                      jump\t// in\n                    tag_43:\n                        /* \"#utility.yul\":800:1022   */\n                      swap3\n                      swap2\n                      pop\n                      pop\n                      jump\t// out\n                        /* \"#utility.yul\":1028:1197   */\n                    tag_27:\n                        /* \"#utility.yul\":1112:1123   */\n                      0x00\n                        /* \"#utility.yul\":1146:1152   */\n                      dup3\n                        /* \"#utility.yul\":1141:1144   */\n                      dup3\n                        /* \"#utility.yul\":1134:1153   */\n                      mstore\n                        /* \"#utility.yul\":1186:1190   */\n                      0x20\n                        /* \"#utility.yul\":1181:1184   */\n                      dup3\n                        /* \"#utility.yul\":1177:1191   */\n                      add\n                        /* \"#utility.yul\":1162:1191   */\n                      swap1\n                      pop\n                        /* \"#utility.yul\":1028:1197   */\n                      swap3\n                      swap2\n                      pop\n                      pop\n                      jump\t// out\n                        /* \"#utility.yul\":1203:1363   */\n                    tag_28:\n                        /* \"#utility.yul\":1343:1355   */\n                      0x4e6f74206f776e65722100000000000000000000000000000000000000000000\n                        /* \"#utility.yul\":1339:1340   */\n                      0x00\n                        /* \"#utility.yul\":1331:1337   */\n                      dup3\n                        /* \"#utility.yul\":1327:1341   */\n                      add\n                        /* \"#utility.yul\":1320:1356   */\n                      mstore\n                        /* \"#utility.yul\":1203:1363   */\n                      pop\n                      jump\t// out\n                        /* \"#utility.yul\":1369:1735   */\n                    tag_29:\n                        /* \"#utility.yul\":1511:1514   */\n                      0x00\n                        /* \"#utility.yul\":1532:1599   */\n                      tag_47\n                        /* \"#utility.yul\":1596:1598   */\n                      0x0a\n                        /* \"#utility.yul\":1591:1594   */\n                      dup4\n                        /* \"#utility.yul\":1532:1599   */\n                      tag_27\n                      jump\t// in\n                    tag_47:\n                        /* \"#utility.yul\":1525:1599   */\n                      swap2\n                      pop\n                        /* \"#utility.yul\":1608:1701   */\n                      tag_48\n                        /* \"#utility.yul\":1697:1700   */\n                      dup3\n                        /* \"#utility.yul\":1608:1701   */\n                      tag_28\n                      jump\t// in\n                    tag_48:\n                        /* \"#utility.yul\":1726:1728   */\n                      0x20\n                        /* \"#utility.yul\":1721:1724   */\n                      dup3\n                        /* \"#utility.yul\":1717:1729   */\n                      add\n                        /* \"#utility.yul\":1710:1729   */\n                      swap1\n                      pop\n                        /* \"#utility.yul\":1369:1735   */\n                      swap2\n                      swap1\n                      pop\n                      jump\t// out\n                        /* \"#utility.yul\":1741:2160   */\n                    tag_19:\n                        /* \"#utility.yul\":1907:1911   */\n                      0x00\n                        /* \"#utility.yul\":1945:1947   */\n                      0x20\n                        /* \"#utility.yul\":1934:1943   */\n                      dup3\n                        /* \"#utility.yul\":1930:1948   */\n                      add\n                        /* \"#utility.yul\":1922:1948   */\n                      swap1\n                      pop\n                        /* \"#utility.yul\":1994:2003   */\n                      dup2\n                        /* \"#utility.yul\":1988:1992   */\n                      dup2\n                        /* \"#utility.yul\":1984:2004   */\n                      sub\n                        /* \"#utility.yul\":1980:1981   */\n                      0x00\n                        /* \"#utility.yul\":1969:1978   */\n                      dup4\n                        /* \"#utility.yul\":1965:1982   */\n                      add\n                        /* \"#utility.yul\":1958:2005   */\n                      mstore\n                        /* \"#utility.yul\":2022:2153   */\n                      tag_50\n                        /* \"#utility.yul\":2148:2152   */\n                      dup2\n                        /* \"#utility.yul\":2022:2153   */\n                      tag_29\n                      jump\t// in\n                    tag_50:\n                        /* \"#utility.yul\":2014:2153   */\n                      swap1\n                      pop\n                        /* \"#utility.yul\":1741:2160   */\n                      swap2\n                      swap1\n                      pop\n                      jump\t// out\n                        /* \"#utility.yul\":2166:2346   */\n                    tag_30:\n                        /* \"#utility.yul\":2214:2291   */\n                      0x4e487b7100000000000000000000000000000000000000000000000000000000\n                        /* \"#utility.yul\":2211:2212   */\n                      0x00\n                        /* \"#utility.yul\":2204:2292   */\n                      mstore\n                        /* \"#utility.yul\":2311:2315   */\n                      0x11\n                        /* \"#utility.yul\":2308:2309   */\n                      0x04\n                        /* \"#utility.yul\":2301:2316   */\n                      mstore\n                        /* \"#utility.yul\":2335:2339   */\n                      0x24\n                        /* \"#utility.yul\":2332:2333   */\n                      0x00\n                        /* \"#utility.yul\":2325:2340   */\n                      revert\n                        /* \"#utility.yul\":2352:2585   */\n                    tag_21:\n                        /* \"#utility.yul\":2391:2394   */\n                      0x00\n                        /* \"#utility.yul\":2414:2438   */\n                      tag_53\n                        /* \"#utility.yul\":2432:2437   */\n                      dup3\n                        /* \"#utility.yul\":2414:2438   */\n                      tag_22\n                      jump\t// in\n                    tag_53:\n                        /* \"#utility.yul\":2405:2438   */\n                      swap2\n                      pop\n                        /* \"#utility.yul\":2460:2526   */\n                      0xffffffffffffffffffffffffffffffffffffffffffffffffffffffffffffffff\n                        /* \"#utility.yul\":2453:2458   */\n                      dup3\n                        /* \"#utility.yul\":2450:2527   */\n                      sub\n                        /* \"#utility.yul\":2447:2550   */\n                      tag_54\n                      jumpi\n                        /* \"#utility.yul\":2530:2548   */\n                      tag_55\n                      tag_30\n                      jump\t// in\n                    tag_55:\n                        /* \"#utility.yul\":2447:2550   */\n                    tag_54:\n                        /* \"#utility.yul\":2577:2578   */\n                      0x01\n                        /* \"#utility.yul\":2570:2575   */\n                      dup3\n                        /* \"#utility.yul\":2566:2579   */\n                      add\n                        /* \"#utility.yul\":2559:2579   */\n                      swap1\n                      pop\n                        /* \"#utility.yul\":2352:2585   */\n                      swap2\n                      swap1\n                      pop\n                      jump\t// out\n\n                    auxdata: 0xa2646970667358221220c0cf35899b3cb05f6259c0d2e9bd5a35c99deaccedf838171c09ed3df48a372d64736f6c63430008220033\n                }\n            }\n\n            auxdata: 0xa2646970667358221220c9479ff26f2aa2bdb64018891928c4378f8fb46cedca9fcc00933a27ed52ca2e64736f6c63430008220033\n        }\n    }\n\n    auxdata: 0xa2646970667358221220bd2727cadc2aeddd6a49dcf0027e501347da16c9ad9dba8a24b0189b3bc5375d64736f6c63430008220033\n}\n",
				"bytecode": {
					"linkReferences": {},
					"object": "6080604052348015600e575f5ffd5b506110498061001c5f395ff3fe608060405234801561000f575f5ffd5b5060043610610029575f3560e01c80630318ac0c1461002d575b5f5ffd5b61003561004b565b6040516100429190610239565b60405180910390f35b5f5f604051610059906101ed565b604051809103905ff080158015610072573d5f5f3e3d5ffd5b5090505f60015f1b90505f8273ffffffffffffffffffffffffffffffffffffffff16632f1f618d83856040518363ffffffff1660e01b81526004016100b892919061026a565b602060405180830381865afa1580156100d3573d5f5f3e3d5ffd5b505050506040513d601f19601f820116820180604052508101906100f791906102bf565b90505f8373ffffffffffffffffffffffffffffffffffffffff1663caaa0a0a846040518263ffffffff1660e01b815260040161013391906102ea565b6020604051808303815f875af115801561014f573d5f5f3e3d5ffd5b505050506040513d601f19601f8201168201806040525081019061017391906102bf565b90508073ffffffffffffffffffffffffffffffffffffffff168273ffffffffffffffffffffffffffffffffffffffff16146101e3576040517f08c379a00000000000000000000000000000000000000000000000000000000081526004016101da9061035d565b60405180910390fd5b8094505050505090565b610c988061037c83390190565b5f73ffffffffffffffffffffffffffffffffffffffff82169050919050565b5f610223826101fa565b9050919050565b61023381610219565b82525050565b5f60208201905061024c5f83018461022a565b92915050565b5f819050919050565b61026481610252565b82525050565b5f60408201905061027d5f83018561025b565b61028a602083018461022a565b9392505050565b5f5ffd5b61029e81610219565b81146102a8575f5ffd5b50565b5f815190506102b981610295565b92915050565b5f602082840312156102d4576102d3610291565b5b5f6102e1848285016102ab565b91505092915050565b5f6020820190506102fd5f83018461025b565b92915050565b5f82825260208201905092915050565b7f41646472657373206d69736d61746368210000000000000000000000000000005f82015250565b5f610347601183610303565b915061035282610313565b602082019050919050565b5f6020820190508181035f8301526103748161033b565b905091905056fe6080604052348015600e575f5ffd5b50610c7c8061001c5f395ff3fe608060405234801561000f575f5ffd5b5060043610610060575f3560e01c8063214aed45146100645780632f1f618d14610094578063639e5214146100c457806378b52948146100e2578063caaa0a0a14610100578063fba7ffa314610130575b5f5ffd5b61007e600480360381019061007991906104a6565b610160565b60405161008b9190610510565b60405180910390f35b6100ae60048036038101906100a99190610586565b6101e9565b6040516100bb9190610510565b60405180910390f35b6100cc610299565b6040516100d991906105d3565b60405180910390f35b6100ea6102a4565b6040516100f79190610510565b60405180910390f35b61011a600480360381019061011591906105ec565b610392565b6040516101279190610510565b60405180910390f35b61014a600480360381019061014591906104a6565b610428565b6040516101579190610510565b60405180910390f35b5f5f8054905082106101a7576040517f08c379a000000000000000000000000000000000000000000000000000000000815260040161019e90610671565b60405180910390fd5b5f82815481106101ba576101b961068f565b5b905f5260205f20015f9054906101000a900473ffffffffffffffffffffffffffffffffffffffff169050919050565b5f5f604051806020016101fb90610462565b6020820181038252601f19601f82011660405250336040516020016102209190610510565b60405160208183030381529060405260405160200161024092919061070e565b60405160208183030381529060405290505f60ff60f81b8486848051906020012060405160200161027494939291906107e1565b604051602081830303815290604052805190602001209050805f1c9250505092915050565b5f5f80549050905090565b5f5f336040516102b390610462565b6102bd9190610510565b604051809103905ff0801580156102d6573d5f5f3e3d5ffd5b5090505f8190505f81908060018154018082558091505060019003905f5260205f20015f9091909190916101000a81548173ffffffffffffffffffffffffffffffffffffffff021916908373ffffffffffffffffffffffffffffffffffffffff1602179055508073ffffffffffffffffffffffffffffffffffffffff167f5c38acfb3685547711685ae1e758ca685f33fa7cd3e3c738411afd24b9339189336040516103829190610510565b60405180910390a2809250505090565b5f5f82336040516103a290610462565b6103ac9190610510565b8190604051809103905ff59050801580156103c9573d5f5f3e3d5ffd5b5090505f8190508073ffffffffffffffffffffffffffffffffffffffff167f5c38acfb3685547711685ae1e758ca685f33fa7cd3e3c738411afd24b9339189336040516104169190610510565b60405180910390a28092505050919050565b5f8181548110610436575f80fd5b905f5260205f20015f915054906101000a900473ffffffffffffffffffffffffffffffffffffffff1681565b6104188061082f83390190565b5f5ffd5b5f819050919050565b61048581610473565b811461048f575f5ffd5b50565b5f813590506104a08161047c565b92915050565b5f602082840312156104bb576104ba61046f565b5b5f6104c884828501610492565b91505092915050565b5f73ffffffffffffffffffffffffffffffffffffffff82169050919050565b5f6104fa826104d1565b9050919050565b61050a816104f0565b82525050565b5f6020820190506105235f830184610501565b92915050565b5f819050919050565b61053b81610529565b8114610545575f5ffd5b50565b5f8135905061055681610532565b92915050565b610565816104f0565b811461056f575f5ffd5b50565b5f813590506105808161055c565b92915050565b5f5f6040838503121561059c5761059b61046f565b5b5f6105a985828601610548565b92505060206105ba85828601610572565b9150509250929050565b6105cd81610473565b82525050565b5f6020820190506105e65f8301846105c4565b92915050565b5f602082840312156106015761060061046f565b5b5f61060e84828501610548565b91505092915050565b5f82825260208201905092915050565b7f496e646578206f7574206f6620626f756e6473210000000000000000000000005f82015250565b5f61065b601483610617565b915061066682610627565b602082019050919050565b5f6020820190508181035f8301526106888161064f565b9050919050565b7f4e487b71000000000000000000000000000000000000000000000000000000005f52603260045260245ffd5b5f81519050919050565b5f81905092915050565b8281835e5f83830152505050565b5f6106e8826106bc565b6106f281856106c6565b93506107028185602086016106d0565b80840191505092915050565b5f61071982856106de565b915061072582846106de565b91508190509392505050565b5f7fff0000000000000000000000000000000000000000000000000000000000000082169050919050565b5f819050919050565b61077661077182610731565b61075c565b82525050565b5f8160601b9050919050565b5f6107928261077c565b9050919050565b5f6107a382610788565b9050919050565b6107bb6107b6826104f0565b610799565b82525050565b5f819050919050565b6107db6107d682610529565b6107c1565b82525050565b5f6107ec8287610765565b6001820191506107fc82866107aa565b60148201915061080c82856107ca565b60208201915061081c82846107ca565b6020820191508190509594505050505056fe608060405234801561000f575f5ffd5b50604051610418380380610418833981810160405281019061003191906100db565b8060015f6101000a81548173ffffffffffffffffffffffffffffffffffffffff021916908373ffffffffffffffffffffffffffffffffffffffff1602179055505f5f8190555050610106565b5f5ffd5b5f73ffffffffffffffffffffffffffffffffffffffff82169050919050565b5f6100aa82610081565b9050919050565b6100ba816100a0565b81146100c4575f5ffd5b50565b5f815190506100d5816100b1565b92915050565b5f602082840312156100f0576100ef61007d565b5b5f6100fd848285016100c7565b91505092915050565b610305806101135f395ff3fe608060405234801561000f575f5ffd5b506004361061003f575f3560e01c806306661abd146100435780638da5cb5b14610061578063d09de08a1461007f575b5f5ffd5b61004b610089565b6040516100589190610172565b60405180910390f35b61006961008e565b60405161007691906101ca565b60405180910390f35b6100876100b3565b005b5f5481565b60015f9054906101000a900473ffffffffffffffffffffffffffffffffffffffff1681565b3373ffffffffffffffffffffffffffffffffffffffff1660015f9054906101000a900473ffffffffffffffffffffffffffffffffffffffff1673ffffffffffffffffffffffffffffffffffffffff1614610142576040517f08c379a00000000000000000000000000000000000000000000000000000000081526004016101399061023d565b60405180910390fd5b5f5f81548092919061015390610288565b9190505550565b5f819050919050565b61016c8161015a565b82525050565b5f6020820190506101855f830184610163565b92915050565b5f73ffffffffffffffffffffffffffffffffffffffff82169050919050565b5f6101b48261018b565b9050919050565b6101c4816101aa565b82525050565b5f6020820190506101dd5f8301846101bb565b92915050565b5f82825260208201905092915050565b7f4e6f74206f776e657221000000000000000000000000000000000000000000005f82015250565b5f610227600a836101e3565b9150610232826101f3565b602082019050919050565b5f6020820190508181035f8301526102548161021b565b9050919050565b7f4e487b71000000000000000000000000000000000000000000000000000000005f52601160045260245ffd5b5f6102928261015a565b91507fffffffffffffffffffffffffffffffffffffffffffffffffffffffffffffffff82036102c4576102c361025b565b5b60018201905091905056fea2646970667358221220c0cf35899b3cb05f6259c0d2e9bd5a35c99deaccedf838171c09ed3df48a372d64736f6c63430008220033a2646970667358221220c9479ff26f2aa2bdb64018891928c4378f8fb46cedca9fcc00933a27ed52ca2e64736f6c63430008220033a2646970667358221220bd2727cadc2aeddd6a49dcf0027e501347da16c9ad9dba8a24b0189b3bc5375d64736f6c63430008220033",
					"opcodes": "PUSH1 0x80 PUSH1 0x40 MSTORE CALLVALUE DUP1 ISZERO PUSH1 0xE JUMPI PUSH0 PUSH0 REVERT JUMPDEST POP PUSH2 0x1049 DUP1 PUSH2 0x1C PUSH0 CODECOPY PUSH0 RETURN INVALID PUSH1 0x80 PUSH1 0x40 MSTORE CALLVALUE DUP1 ISZERO PUSH2 0xF JUMPI PUSH0 PUSH0 REVERT JUMPDEST POP PUSH1 0x4 CALLDATASIZE LT PUSH2 0x29 JUMPI PUSH0 CALLDATALOAD PUSH1 0xE0 SHR DUP1 PUSH4 0x318AC0C EQ PUSH2 0x2D JUMPI JUMPDEST PUSH0 PUSH0 REVERT JUMPDEST PUSH2 0x35 PUSH2 0x4B JUMP JUMPDEST PUSH1 0x40 MLOAD PUSH2 0x42 SWAP2 SWAP1 PUSH2 0x239 JUMP JUMPDEST PUSH1 0x40 MLOAD DUP1 SWAP2 SUB SWAP1 RETURN JUMPDEST PUSH0 PUSH0 PUSH1 0x40 MLOAD PUSH2 0x59 SWAP1 PUSH2 0x1ED JUMP JUMPDEST PUSH1 0x40 MLOAD DUP1 SWAP2 SUB SWAP1 PUSH0 CREATE DUP1 ISZERO DUP1 ISZERO PUSH2 0x72 JUMPI RETURNDATASIZE PUSH0 PUSH0 RETURNDATACOPY RETURNDATASIZE PUSH0 REVERT JUMPDEST POP SWAP1 POP PUSH0 PUSH1 0x1 PUSH0 SHL SWAP1 POP PUSH0 DUP3 PUSH20 0xFFFFFFFFFFFFFFFFFFFFFFFFFFFFFFFFFFFFFFFF AND PUSH4 0x2F1F618D DUP4 DUP6 PUSH1 0x40 MLOAD DUP4 PUSH4 0xFFFFFFFF AND PUSH1 0xE0 SHL DUP2 MSTORE PUSH1 0x4 ADD PUSH2 0xB8 SWAP3 SWAP2 SWAP1 PUSH2 0x26A JUMP JUMPDEST PUSH1 0x20 PUSH1 0x40 MLOAD DUP1 DUP4 SUB DUP2 DUP7 GAS STATICCALL ISZERO DUP1 ISZERO PUSH2 0xD3 JUMPI RETURNDATASIZE PUSH0 PUSH0 RETURNDATACOPY RETURNDATASIZE PUSH0 REVERT JUMPDEST POP POP POP POP PUSH1 0x40 MLOAD RETURNDATASIZE PUSH1 0x1F NOT PUSH1 0x1F DUP3 ADD AND DUP3 ADD DUP1 PUSH1 0x40 MSTORE POP DUP2 ADD SWAP1 PUSH2 0xF7 SWAP2 SWAP1 PUSH2 0x2BF JUMP JUMPDEST SWAP1 POP PUSH0 DUP4 PUSH20 0xFFFFFFFFFFFFFFFFFFFFFFFFFFFFFFFFFFFFFFFF AND PUSH4 0xCAAA0A0A DUP5 PUSH1 0x40 MLOAD DUP3 PUSH4 0xFFFFFFFF AND PUSH1 0xE0 SHL DUP2 MSTORE PUSH1 0x4 ADD PUSH2 0x133 SWAP2 SWAP1 PUSH2 0x2EA JUMP JUMPDEST PUSH1 0x20 PUSH1 0x40 MLOAD DUP1 DUP4 SUB DUP2 PUSH0 DUP8 GAS CALL ISZERO DUP1 ISZERO PUSH2 0x14F JUMPI RETURNDATASIZE PUSH0 PUSH0 RETURNDATACOPY RETURNDATASIZE PUSH0 REVERT JUMPDEST POP POP POP POP PUSH1 0x40 MLOAD RETURNDATASIZE PUSH1 0x1F NOT PUSH1 0x1F DUP3 ADD AND DUP3 ADD DUP1 PUSH1 0x40 MSTORE POP DUP2 ADD SWAP1 PUSH2 0x173 SWAP2 SWAP1 PUSH2 0x2BF JUMP JUMPDEST SWAP1 POP DUP1 PUSH20 0xFFFFFFFFFFFFFFFFFFFFFFFFFFFFFFFFFFFFFFFF AND DUP3 PUSH20 0xFFFFFFFFFFFFFFFFFFFFFFFFFFFFFFFFFFFFFFFF AND EQ PUSH2 0x1E3 JUMPI PUSH1 0x40 MLOAD PUSH32 0x8C379A000000000000000000000000000000000000000000000000000000000 DUP2 MSTORE PUSH1 0x4 ADD PUSH2 0x1DA SWAP1 PUSH2 0x35D JUMP JUMPDEST PUSH1 0x40 MLOAD DUP1 SWAP2 SUB SWAP1 REVERT JUMPDEST DUP1 SWAP5 POP POP POP POP POP SWAP1 JUMP JUMPDEST PUSH2 0xC98 DUP1 PUSH2 0x37C DUP4 CODECOPY ADD SWAP1 JUMP JUMPDEST PUSH0 PUSH20 0xFFFFFFFFFFFFFFFFFFFFFFFFFFFFFFFFFFFFFFFF DUP3 AND SWAP1 POP SWAP2 SWAP1 POP JUMP JUMPDEST PUSH0 PUSH2 0x223 DUP3 PUSH2 0x1FA JUMP JUMPDEST SWAP1 POP SWAP2 SWAP1 POP JUMP JUMPDEST PUSH2 0x233 DUP2 PUSH2 0x219 JUMP JUMPDEST DUP3 MSTORE POP POP JUMP JUMPDEST PUSH0 PUSH1 0x20 DUP3 ADD SWAP1 POP PUSH2 0x24C PUSH0 DUP4 ADD DUP5 PUSH2 0x22A JUMP JUMPDEST SWAP3 SWAP2 POP POP JUMP JUMPDEST PUSH0 DUP2 SWAP1 POP SWAP2 SWAP1 POP JUMP JUMPDEST PUSH2 0x264 DUP2 PUSH2 0x252 JUMP JUMPDEST DUP3 MSTORE POP POP JUMP JUMPDEST PUSH0 PUSH1 0x40 DUP3 ADD SWAP1 POP PUSH2 0x27D PUSH0 DUP4 ADD DUP6 PUSH2 0x25B JUMP JUMPDEST PUSH2 0x28A PUSH1 0x20 DUP4 ADD DUP5 PUSH2 0x22A JUMP JUMPDEST SWAP4 SWAP3 POP POP POP JUMP JUMPDEST PUSH0 PUSH0 REVERT JUMPDEST PUSH2 0x29E DUP2 PUSH2 0x219 JUMP JUMPDEST DUP2 EQ PUSH2 0x2A8 JUMPI PUSH0 PUSH0 REVERT JUMPDEST POP JUMP JUMPDEST PUSH0 DUP2 MLOAD SWAP1 POP PUSH2 0x2B9 DUP2 PUSH2 0x295 JUMP JUMPDEST SWAP3 SWAP2 POP POP JUMP JUMPDEST PUSH0 PUSH1 0x20 DUP3 DUP5 SUB SLT ISZERO PUSH2 0x2D4 JUMPI PUSH2 0x2D3 PUSH2 0x291 JUMP JUMPDEST JUMPDEST PUSH0 PUSH2 0x2E1 DUP5 DUP3 DUP6 ADD PUSH2 0x2AB JUMP JUMPDEST SWAP2 POP POP SWAP3 SWAP2 POP POP JUMP JUMPDEST PUSH0 PUSH1 0x20 DUP3 ADD SWAP1 POP PUSH2 0x2FD PUSH0 DUP4 ADD DUP5 PUSH2 0x25B JUMP JUMPDEST SWAP3 SWAP2 POP POP JUMP JUMPDEST PUSH0 DUP3 DUP3 MSTORE PUSH1 0x20 DUP3 ADD SWAP1 POP SWAP3 SWAP2 POP POP JUMP JUMPDEST PUSH32 0x41646472657373206D69736D6174636821000000000000000000000000000000 PUSH0 DUP3 ADD MSTORE POP JUMP JUMPDEST PUSH0 PUSH2 0x347 PUSH1 0x11 DUP4 PUSH2 0x303 JUMP JUMPDEST SWAP2 POP PUSH2 0x352 DUP3 PUSH2 0x313 JUMP JUMPDEST PUSH1 0x20 DUP3 ADD SWAP1 POP SWAP2 SWAP1 POP JUMP JUMPDEST PUSH0 PUSH1 0x20 DUP3 ADD SWAP1 POP DUP2 DUP2 SUB PUSH0 DUP4 ADD MSTORE PUSH2 0x374 DUP2 PUSH2 0x33B JUMP JUMPDEST SWAP1 POP SWAP2 SWAP1 POP JUMP INVALID PUSH1 0x80 PUSH1 0x40 MSTORE CALLVALUE DUP1 ISZERO PUSH1 0xE JUMPI PUSH0 PUSH0 REVERT JUMPDEST POP PUSH2 0xC7C DUP1 PUSH2 0x1C PUSH0 CODECOPY PUSH0 RETURN INVALID PUSH1 0x80 PUSH1 0x40 MSTORE CALLVALUE DUP1 ISZERO PUSH2 0xF JUMPI PUSH0 PUSH0 REVERT JUMPDEST POP PUSH1 0x4 CALLDATASIZE LT PUSH2 0x60 JUMPI PUSH0 CALLDATALOAD PUSH1 0xE0 SHR DUP1 PUSH4 0x214AED45 EQ PUSH2 0x64 JUMPI DUP1 PUSH4 0x2F1F618D EQ PUSH2 0x94 JUMPI DUP1 PUSH4 0x639E5214 EQ PUSH2 0xC4 JUMPI DUP1 PUSH4 0x78B52948 EQ PUSH2 0xE2 JUMPI DUP1 PUSH4 0xCAAA0A0A EQ PUSH2 0x100 JUMPI DUP1 PUSH4 0xFBA7FFA3 EQ PUSH2 0x130 JUMPI JUMPDEST PUSH0 PUSH0 REVERT JUMPDEST PUSH2 0x7E PUSH1 0x4 DUP1 CALLDATASIZE SUB DUP2 ADD SWAP1 PUSH2 0x79 SWAP2 SWAP1 PUSH2 0x4A6 JUMP JUMPDEST PUSH2 0x160 JUMP JUMPDEST PUSH1 0x40 MLOAD PUSH2 0x8B SWAP2 SWAP1 PUSH2 0x510 JUMP JUMPDEST PUSH1 0x40 MLOAD DUP1 SWAP2 SUB SWAP1 RETURN JUMPDEST PUSH2 0xAE PUSH1 0x4 DUP1 CALLDATASIZE SUB DUP2 ADD SWAP1 PUSH2 0xA9 SWAP2 SWAP1 PUSH2 0x586 JUMP JUMPDEST PUSH2 0x1E9 JUMP JUMPDEST PUSH1 0x40 MLOAD PUSH2 0xBB SWAP2 SWAP1 PUSH2 0x510 JUMP JUMPDEST PUSH1 0x40 MLOAD DUP1 SWAP2 SUB SWAP1 RETURN JUMPDEST PUSH2 0xCC PUSH2 0x299 JUMP JUMPDEST PUSH1 0x40 MLOAD PUSH2 0xD9 SWAP2 SWAP1 PUSH2 0x5D3 JUMP JUMPDEST PUSH1 0x40 MLOAD DUP1 SWAP2 SUB SWAP1 RETURN JUMPDEST PUSH2 0xEA PUSH2 0x2A4 JUMP JUMPDEST PUSH1 0x40 MLOAD PUSH2 0xF7 SWAP2 SWAP1 PUSH2 0x510 JUMP JUMPDEST PUSH1 0x40 MLOAD DUP1 SWAP2 SUB SWAP1 RETURN JUMPDEST PUSH2 0x11A PUSH1 0x4 DUP1 CALLDATASIZE SUB DUP2 ADD SWAP1 PUSH2 0x115 SWAP2 SWAP1 PUSH2 0x5EC JUMP JUMPDEST PUSH2 0x392 JUMP JUMPDEST PUSH1 0x40 MLOAD PUSH2 0x127 SWAP2 SWAP1 PUSH2 0x510 JUMP JUMPDEST PUSH1 0x40 MLOAD DUP1 SWAP2 SUB SWAP1 RETURN JUMPDEST PUSH2 0x14A PUSH1 0x4 DUP1 CALLDATASIZE SUB DUP2 ADD SWAP1 PUSH2 0x145 SWAP2 SWAP1 PUSH2 0x4A6 JUMP JUMPDEST PUSH2 0x428 JUMP JUMPDEST PUSH1 0x40 MLOAD PUSH2 0x157 SWAP2 SWAP1 PUSH2 0x510 JUMP JUMPDEST PUSH1 0x40 MLOAD DUP1 SWAP2 SUB SWAP1 RETURN JUMPDEST PUSH0 PUSH0 DUP1 SLOAD SWAP1 POP DUP3 LT PUSH2 0x1A7 JUMPI PUSH1 0x40 MLOAD PUSH32 0x8C379A000000000000000000000000000000000000000000000000000000000 DUP2 MSTORE PUSH1 0x4 ADD PUSH2 0x19E SWAP1 PUSH2 0x671 JUMP JUMPDEST PUSH1 0x40 MLOAD DUP1 SWAP2 SUB SWAP1 REVERT JUMPDEST PUSH0 DUP3 DUP2 SLOAD DUP2 LT PUSH2 0x1BA JUMPI PUSH2 0x1B9 PUSH2 0x68F JUMP JUMPDEST JUMPDEST SWAP1 PUSH0 MSTORE PUSH1 0x20 PUSH0 KECCAK256 ADD PUSH0 SWAP1 SLOAD SWAP1 PUSH2 0x100 EXP SWAP1 DIV PUSH20 0xFFFFFFFFFFFFFFFFFFFFFFFFFFFFFFFFFFFFFFFF AND SWAP1 POP SWAP2 SWAP1 POP JUMP JUMPDEST PUSH0 PUSH0 PUSH1 0x40 MLOAD DUP1 PUSH1 0x20 ADD PUSH2 0x1FB SWAP1 PUSH2 0x462 JUMP JUMPDEST PUSH1 0x20 DUP3 ADD DUP2 SUB DUP3 MSTORE PUSH1 0x1F NOT PUSH1 0x1F DUP3 ADD AND PUSH1 0x40 MSTORE POP CALLER PUSH1 0x40 MLOAD PUSH1 0x20 ADD PUSH2 0x220 SWAP2 SWAP1 PUSH2 0x510 JUMP JUMPDEST PUSH1 0x40 MLOAD PUSH1 0x20 DUP2 DUP4 SUB SUB DUP2 MSTORE SWAP1 PUSH1 0x40 MSTORE PUSH1 0x40 MLOAD PUSH1 0x20 ADD PUSH2 0x240 SWAP3 SWAP2 SWAP1 PUSH2 0x70E JUMP JUMPDEST PUSH1 0x40 MLOAD PUSH1 0x20 DUP2 DUP4 SUB SUB DUP2 MSTORE SWAP1 PUSH1 0x40 MSTORE SWAP1 POP PUSH0 PUSH1 0xFF PUSH1 0xF8 SHL DUP5 DUP7 DUP5 DUP1 MLOAD SWAP1 PUSH1 0x20 ADD KECCAK256 PUSH1 0x40 MLOAD PUSH1 0x20 ADD PUSH2 0x274 SWAP5 SWAP4 SWAP3 SWAP2 SWAP1 PUSH2 0x7E1 JUMP JUMPDEST PUSH1 0x40 MLOAD PUSH1 0x20 DUP2 DUP4 SUB SUB DUP2 MSTORE SWAP1 PUSH1 0x40 MSTORE DUP1 MLOAD SWAP1 PUSH1 0x20 ADD KECCAK256 SWAP1 POP DUP1 PUSH0 SHR SWAP3 POP POP POP SWAP3 SWAP2 POP POP JUMP JUMPDEST PUSH0 PUSH0 DUP1 SLOAD SWAP1 POP SWAP1 POP SWAP1 JUMP JUMPDEST PUSH0 PUSH0 CALLER PUSH1 0x40 MLOAD PUSH2 0x2B3 SWAP1 PUSH2 0x462 JUMP JUMPDEST PUSH2 0x2BD SWAP2 SWAP1 PUSH2 0x510 JUMP JUMPDEST PUSH1 0x40 MLOAD DUP1 SWAP2 SUB SWAP1 PUSH0 CREATE DUP1 ISZERO DUP1 ISZERO PUSH2 0x2D6 JUMPI RETURNDATASIZE PUSH0 PUSH0 RETURNDATACOPY RETURNDATASIZE PUSH0 REVERT JUMPDEST POP SWAP1 POP PUSH0 DUP2 SWAP1 POP PUSH0 DUP2 SWAP1 DUP1 PUSH1 0x1 DUP2 SLOAD ADD DUP1 DUP3 SSTORE DUP1 SWAP2 POP POP PUSH1 0x1 SWAP1 SUB SWAP1 PUSH0 MSTORE PUSH1 0x20 PUSH0 KECCAK256 ADD PUSH0 SWAP1 SWAP2 SWAP1 SWAP2 SWAP1 SWAP2 PUSH2 0x100 EXP DUP2 SLOAD DUP2 PUSH20 0xFFFFFFFFFFFFFFFFFFFFFFFFFFFFFFFFFFFFFFFF MUL NOT AND SWAP1 DUP4 PUSH20 0xFFFFFFFFFFFFFFFFFFFFFFFFFFFFFFFFFFFFFFFF AND MUL OR SWAP1 SSTORE POP DUP1 PUSH20 0xFFFFFFFFFFFFFFFFFFFFFFFFFFFFFFFFFFFFFFFF AND PUSH32 0x5C38ACFB3685547711685AE1E758CA685F33FA7CD3E3C738411AFD24B9339189 CALLER PUSH1 0x40 MLOAD PUSH2 0x382 SWAP2 SWAP1 PUSH2 0x510 JUMP JUMPDEST PUSH1 0x40 MLOAD DUP1 SWAP2 SUB SWAP1 LOG2 DUP1 SWAP3 POP POP POP SWAP1 JUMP JUMPDEST PUSH0 PUSH0 DUP3 CALLER PUSH1 0x40 MLOAD PUSH2 0x3A2 SWAP1 PUSH2 0x462 JUMP JUMPDEST PUSH2 0x3AC SWAP2 SWAP1 PUSH2 0x510 JUMP JUMPDEST DUP2 SWAP1 PUSH1 0x40 MLOAD DUP1 SWAP2 SUB SWAP1 PUSH0 CREATE2 SWAP1 POP DUP1 ISZERO DUP1 ISZERO PUSH2 0x3C9 JUMPI RETURNDATASIZE PUSH0 PUSH0 RETURNDATACOPY RETURNDATASIZE PUSH0 REVERT JUMPDEST POP SWAP1 POP PUSH0 DUP2 SWAP1 POP DUP1 PUSH20 0xFFFFFFFFFFFFFFFFFFFFFFFFFFFFFFFFFFFFFFFF AND PUSH32 0x5C38ACFB3685547711685AE1E758CA685F33FA7CD3E3C738411AFD24B9339189 CALLER PUSH1 0x40 MLOAD PUSH2 0x416 SWAP2 SWAP1 PUSH2 0x510 JUMP JUMPDEST PUSH1 0x40 MLOAD DUP1 SWAP2 SUB SWAP1 LOG2 DUP1 SWAP3 POP POP POP SWAP2 SWAP1 POP JUMP JUMPDEST PUSH0 DUP2 DUP2 SLOAD DUP2 LT PUSH2 0x436 JUMPI PUSH0 DUP1 REVERT JUMPDEST SWAP1 PUSH0 MSTORE PUSH1 0x20 PUSH0 KECCAK256 ADD PUSH0 SWAP2 POP SLOAD SWAP1 PUSH2 0x100 EXP SWAP1 DIV PUSH20 0xFFFFFFFFFFFFFFFFFFFFFFFFFFFFFFFFFFFFFFFF AND DUP2 JUMP JUMPDEST PUSH2 0x418 DUP1 PUSH2 0x82F DUP4 CODECOPY ADD SWAP1 JUMP JUMPDEST PUSH0 PUSH0 REVERT JUMPDEST PUSH0 DUP2 SWAP1 POP SWAP2 SWAP1 POP JUMP JUMPDEST PUSH2 0x485 DUP2 PUSH2 0x473 JUMP JUMPDEST DUP2 EQ PUSH2 0x48F JUMPI PUSH0 PUSH0 REVERT JUMPDEST POP JUMP JUMPDEST PUSH0 DUP2 CALLDATALOAD SWAP1 POP PUSH2 0x4A0 DUP2 PUSH2 0x47C JUMP JUMPDEST SWAP3 SWAP2 POP POP JUMP JUMPDEST PUSH0 PUSH1 0x20 DUP3 DUP5 SUB SLT ISZERO PUSH2 0x4BB JUMPI PUSH2 0x4BA PUSH2 0x46F JUMP JUMPDEST JUMPDEST PUSH0 PUSH2 0x4C8 DUP5 DUP3 DUP6 ADD PUSH2 0x492 JUMP JUMPDEST SWAP2 POP POP SWAP3 SWAP2 POP POP JUMP JUMPDEST PUSH0 PUSH20 0xFFFFFFFFFFFFFFFFFFFFFFFFFFFFFFFFFFFFFFFF DUP3 AND SWAP1 POP SWAP2 SWAP1 POP JUMP JUMPDEST PUSH0 PUSH2 0x4FA DUP3 PUSH2 0x4D1 JUMP JUMPDEST SWAP1 POP SWAP2 SWAP1 POP JUMP JUMPDEST PUSH2 0x50A DUP2 PUSH2 0x4F0 JUMP JUMPDEST DUP3 MSTORE POP POP JUMP JUMPDEST PUSH0 PUSH1 0x20 DUP3 ADD SWAP1 POP PUSH2 0x523 PUSH0 DUP4 ADD DUP5 PUSH2 0x501 JUMP JUMPDEST SWAP3 SWAP2 POP POP JUMP JUMPDEST PUSH0 DUP2 SWAP1 POP SWAP2 SWAP1 POP JUMP JUMPDEST PUSH2 0x53B DUP2 PUSH2 0x529 JUMP JUMPDEST DUP2 EQ PUSH2 0x545 JUMPI PUSH0 PUSH0 REVERT JUMPDEST POP JUMP JUMPDEST PUSH0 DUP2 CALLDATALOAD SWAP1 POP PUSH2 0x556 DUP2 PUSH2 0x532 JUMP JUMPDEST SWAP3 SWAP2 POP POP JUMP JUMPDEST PUSH2 0x565 DUP2 PUSH2 0x4F0 JUMP JUMPDEST DUP2 EQ PUSH2 0x56F JUMPI PUSH0 PUSH0 REVERT JUMPDEST POP JUMP JUMPDEST PUSH0 DUP2 CALLDATALOAD SWAP1 POP PUSH2 0x580 DUP2 PUSH2 0x55C JUMP JUMPDEST SWAP3 SWAP2 POP POP JUMP JUMPDEST PUSH0 PUSH0 PUSH1 0x40 DUP4 DUP6 SUB SLT ISZERO PUSH2 0x59C JUMPI PUSH2 0x59B PUSH2 0x46F JUMP JUMPDEST JUMPDEST PUSH0 PUSH2 0x5A9 DUP6 DUP3 DUP7 ADD PUSH2 0x548 JUMP JUMPDEST SWAP3 POP POP PUSH1 0x20 PUSH2 0x5BA DUP6 DUP3 DUP7 ADD PUSH2 0x572 JUMP JUMPDEST SWAP2 POP POP SWAP3 POP SWAP3 SWAP1 POP JUMP JUMPDEST PUSH2 0x5CD DUP2 PUSH2 0x473 JUMP JUMPDEST DUP3 MSTORE POP POP JUMP JUMPDEST PUSH0 PUSH1 0x20 DUP3 ADD SWAP1 POP PUSH2 0x5E6 PUSH0 DUP4 ADD DUP5 PUSH2 0x5C4 JUMP JUMPDEST SWAP3 SWAP2 POP POP JUMP JUMPDEST PUSH0 PUSH1 0x20 DUP3 DUP5 SUB SLT ISZERO PUSH2 0x601 JUMPI PUSH2 0x600 PUSH2 0x46F JUMP JUMPDEST JUMPDEST PUSH0 PUSH2 0x60E DUP5 DUP3 DUP6 ADD PUSH2 0x548 JUMP JUMPDEST SWAP2 POP POP SWAP3 SWAP2 POP POP JUMP JUMPDEST PUSH0 DUP3 DUP3 MSTORE PUSH1 0x20 DUP3 ADD SWAP1 POP SWAP3 SWAP2 POP POP JUMP JUMPDEST PUSH32 0x496E646578206F7574206F6620626F756E647321000000000000000000000000 PUSH0 DUP3 ADD MSTORE POP JUMP JUMPDEST PUSH0 PUSH2 0x65B PUSH1 0x14 DUP4 PUSH2 0x617 JUMP JUMPDEST SWAP2 POP PUSH2 0x666 DUP3 PUSH2 0x627 JUMP JUMPDEST PUSH1 0x20 DUP3 ADD SWAP1 POP SWAP2 SWAP1 POP JUMP JUMPDEST PUSH0 PUSH1 0x20 DUP3 ADD SWAP1 POP DUP2 DUP2 SUB PUSH0 DUP4 ADD MSTORE PUSH2 0x688 DUP2 PUSH2 0x64F JUMP JUMPDEST SWAP1 POP SWAP2 SWAP1 POP JUMP JUMPDEST PUSH32 0x4E487B7100000000000000000000000000000000000000000000000000000000 PUSH0 MSTORE PUSH1 0x32 PUSH1 0x4 MSTORE PUSH1 0x24 PUSH0 REVERT JUMPDEST PUSH0 DUP2 MLOAD SWAP1 POP SWAP2 SWAP1 POP JUMP JUMPDEST PUSH0 DUP2 SWAP1 POP SWAP3 SWAP2 POP POP JUMP JUMPDEST DUP3 DUP2 DUP4 MCOPY PUSH0 DUP4 DUP4 ADD MSTORE POP POP POP JUMP JUMPDEST PUSH0 PUSH2 0x6E8 DUP3 PUSH2 0x6BC JUMP JUMPDEST PUSH2 0x6F2 DUP2 DUP6 PUSH2 0x6C6 JUMP JUMPDEST SWAP4 POP PUSH2 0x702 DUP2 DUP6 PUSH1 0x20 DUP7 ADD PUSH2 0x6D0 JUMP JUMPDEST DUP1 DUP5 ADD SWAP2 POP POP SWAP3 SWAP2 POP POP JUMP JUMPDEST PUSH0 PUSH2 0x719 DUP3 DUP6 PUSH2 0x6DE JUMP JUMPDEST SWAP2 POP PUSH2 0x725 DUP3 DUP5 PUSH2 0x6DE JUMP JUMPDEST SWAP2 POP DUP2 SWAP1 POP SWAP4 SWAP3 POP POP POP JUMP JUMPDEST PUSH0 PUSH32 0xFF00000000000000000000000000000000000000000000000000000000000000 DUP3 AND SWAP1 POP SWAP2 SWAP1 POP JUMP JUMPDEST PUSH0 DUP2 SWAP1 POP SWAP2 SWAP1 POP JUMP JUMPDEST PUSH2 0x776 PUSH2 0x771 DUP3 PUSH2 0x731 JUMP JUMPDEST PUSH2 0x75C JUMP JUMPDEST DUP3 MSTORE POP POP JUMP JUMPDEST PUSH0 DUP2 PUSH1 0x60 SHL SWAP1 POP SWAP2 SWAP1 POP JUMP JUMPDEST PUSH0 PUSH2 0x792 DUP3 PUSH2 0x77C JUMP JUMPDEST SWAP1 POP SWAP2 SWAP1 POP JUMP JUMPDEST PUSH0 PUSH2 0x7A3 DUP3 PUSH2 0x788 JUMP JUMPDEST SWAP1 POP SWAP2 SWAP1 POP JUMP JUMPDEST PUSH2 0x7BB PUSH2 0x7B6 DUP3 PUSH2 0x4F0 JUMP JUMPDEST PUSH2 0x799 JUMP JUMPDEST DUP3 MSTORE POP POP JUMP JUMPDEST PUSH0 DUP2 SWAP1 POP SWAP2 SWAP1 POP JUMP JUMPDEST PUSH2 0x7DB PUSH2 0x7D6 DUP3 PUSH2 0x529 JUMP JUMPDEST PUSH2 0x7C1 JUMP JUMPDEST DUP3 MSTORE POP POP JUMP JUMPDEST PUSH0 PUSH2 0x7EC DUP3 DUP8 PUSH2 0x765 JUMP JUMPDEST PUSH1 0x1 DUP3 ADD SWAP2 POP PUSH2 0x7FC DUP3 DUP7 PUSH2 0x7AA JUMP JUMPDEST PUSH1 0x14 DUP3 ADD SWAP2 POP PUSH2 0x80C DUP3 DUP6 PUSH2 0x7CA JUMP JUMPDEST PUSH1 0x20 DUP3 ADD SWAP2 POP PUSH2 0x81C DUP3 DUP5 PUSH2 0x7CA JUMP JUMPDEST PUSH1 0x20 DUP3 ADD SWAP2 POP DUP2 SWAP1 POP SWAP6 SWAP5 POP POP POP POP POP JUMP INVALID PUSH1 0x80 PUSH1 0x40 MSTORE CALLVALUE DUP1 ISZERO PUSH2 0xF JUMPI PUSH0 PUSH0 REVERT JUMPDEST POP PUSH1 0x40 MLOAD PUSH2 0x418 CODESIZE SUB DUP1 PUSH2 0x418 DUP4 CODECOPY DUP2 DUP2 ADD PUSH1 0x40 MSTORE DUP2 ADD SWAP1 PUSH2 0x31 SWAP2 SWAP1 PUSH2 0xDB JUMP JUMPDEST DUP1 PUSH1 0x1 PUSH0 PUSH2 0x100 EXP DUP2 SLOAD DUP2 PUSH20 0xFFFFFFFFFFFFFFFFFFFFFFFFFFFFFFFFFFFFFFFF MUL NOT AND SWAP1 DUP4 PUSH20 0xFFFFFFFFFFFFFFFFFFFFFFFFFFFFFFFFFFFFFFFF AND MUL OR SWAP1 SSTORE POP PUSH0 PUSH0 DUP2 SWAP1 SSTORE POP POP PUSH2 0x106 JUMP JUMPDEST PUSH0 PUSH0 REVERT JUMPDEST PUSH0 PUSH20 0xFFFFFFFFFFFFFFFFFFFFFFFFFFFFFFFFFFFFFFFF DUP3 AND SWAP1 POP SWAP2 SWAP1 POP JUMP JUMPDEST PUSH0 PUSH2 0xAA DUP3 PUSH2 0x81 JUMP JUMPDEST SWAP1 POP SWAP2 SWAP1 POP JUMP JUMPDEST PUSH2 0xBA DUP2 PUSH2 0xA0 JUMP JUMPDEST DUP2 EQ PUSH2 0xC4 JUMPI PUSH0 PUSH0 REVERT JUMPDEST POP JUMP JUMPDEST PUSH0 DUP2 MLOAD SWAP1 POP PUSH2 0xD5 DUP2 PUSH2 0xB1 JUMP JUMPDEST SWAP3 SWAP2 POP POP JUMP JUMPDEST PUSH0 PUSH1 0x20 DUP3 DUP5 SUB SLT ISZERO PUSH2 0xF0 JUMPI PUSH2 0xEF PUSH2 0x7D JUMP JUMPDEST JUMPDEST PUSH0 PUSH2 0xFD DUP5 DUP3 DUP6 ADD PUSH2 0xC7 JUMP JUMPDEST SWAP2 POP POP SWAP3 SWAP2 POP POP JUMP JUMPDEST PUSH2 0x305 DUP1 PUSH2 0x113 PUSH0 CODECOPY PUSH0 RETURN INVALID PUSH1 0x80 PUSH1 0x40 MSTORE CALLVALUE DUP1 ISZERO PUSH2 0xF JUMPI PUSH0 PUSH0 REVERT JUMPDEST POP PUSH1 0x4 CALLDATASIZE LT PUSH2 0x3F JUMPI PUSH0 CALLDATALOAD PUSH1 0xE0 SHR DUP1 PUSH4 0x6661ABD EQ PUSH2 0x43 JUMPI DUP1 PUSH4 0x8DA5CB5B EQ PUSH2 0x61 JUMPI DUP1 PUSH4 0xD09DE08A EQ PUSH2 0x7F JUMPI JUMPDEST PUSH0 PUSH0 REVERT JUMPDEST PUSH2 0x4B PUSH2 0x89 JUMP JUMPDEST PUSH1 0x40 MLOAD PUSH2 0x58 SWAP2 SWAP1 PUSH2 0x172 JUMP JUMPDEST PUSH1 0x40 MLOAD DUP1 SWAP2 SUB SWAP1 RETURN JUMPDEST PUSH2 0x69 PUSH2 0x8E JUMP JUMPDEST PUSH1 0x40 MLOAD PUSH2 0x76 SWAP2 SWAP1 PUSH2 0x1CA JUMP JUMPDEST PUSH1 0x40 MLOAD DUP1 SWAP2 SUB SWAP1 RETURN JUMPDEST PUSH2 0x87 PUSH2 0xB3 JUMP JUMPDEST STOP JUMPDEST PUSH0 SLOAD DUP2 JUMP JUMPDEST PUSH1 0x1 PUSH0 SWAP1 SLOAD SWAP1 PUSH2 0x100 EXP SWAP1 DIV PUSH20 0xFFFFFFFFFFFFFFFFFFFFFFFFFFFFFFFFFFFFFFFF AND DUP2 JUMP JUMPDEST CALLER PUSH20 0xFFFFFFFFFFFFFFFFFFFFFFFFFFFFFFFFFFFFFFFF AND PUSH1 0x1 PUSH0 SWAP1 SLOAD SWAP1 PUSH2 0x100 EXP SWAP1 DIV PUSH20 0xFFFFFFFFFFFFFFFFFFFFFFFFFFFFFFFFFFFFFFFF AND PUSH20 0xFFFFFFFFFFFFFFFFFFFFFFFFFFFFFFFFFFFFFFFF AND EQ PUSH2 0x142 JUMPI PUSH1 0x40 MLOAD PUSH32 0x8C379A000000000000000000000000000000000000000000000000000000000 DUP2 MSTORE PUSH1 0x4 ADD PUSH2 0x139 SWAP1 PUSH2 0x23D JUMP JUMPDEST PUSH1 0x40 MLOAD DUP1 SWAP2 SUB SWAP1 REVERT JUMPDEST PUSH0 PUSH0 DUP2 SLOAD DUP1 SWAP3 SWAP2 SWAP1 PUSH2 0x153 SWAP1 PUSH2 0x288 JUMP JUMPDEST SWAP2 SWAP1 POP SSTORE POP JUMP JUMPDEST PUSH0 DUP2 SWAP1 POP SWAP2 SWAP1 POP JUMP JUMPDEST PUSH2 0x16C DUP2 PUSH2 0x15A JUMP JUMPDEST DUP3 MSTORE POP POP JUMP JUMPDEST PUSH0 PUSH1 0x20 DUP3 ADD SWAP1 POP PUSH2 0x185 PUSH0 DUP4 ADD DUP5 PUSH2 0x163 JUMP JUMPDEST SWAP3 SWAP2 POP POP JUMP JUMPDEST PUSH0 PUSH20 0xFFFFFFFFFFFFFFFFFFFFFFFFFFFFFFFFFFFFFFFF DUP3 AND SWAP1 POP SWAP2 SWAP1 POP JUMP JUMPDEST PUSH0 PUSH2 0x1B4 DUP3 PUSH2 0x18B JUMP JUMPDEST SWAP1 POP SWAP2 SWAP1 POP JUMP JUMPDEST PUSH2 0x1C4 DUP2 PUSH2 0x1AA JUMP JUMPDEST DUP3 MSTORE POP POP JUMP JUMPDEST PUSH0 PUSH1 0x20 DUP3 ADD SWAP1 POP PUSH2 0x1DD PUSH0 DUP4 ADD DUP5 PUSH2 0x1BB JUMP JUMPDEST SWAP3 SWAP2 POP POP JUMP JUMPDEST PUSH0 DUP3 DUP3 MSTORE PUSH1 0x20 DUP3 ADD SWAP1 POP SWAP3 SWAP2 POP POP JUMP JUMPDEST PUSH32 0x4E6F74206F776E65722100000000000000000000000000000000000000000000 PUSH0 DUP3 ADD MSTORE POP JUMP JUMPDEST PUSH0 PUSH2 0x227 PUSH1 0xA DUP4 PUSH2 0x1E3 JUMP JUMPDEST SWAP2 POP PUSH2 0x232 DUP3 PUSH2 0x1F3 JUMP JUMPDEST PUSH1 0x20 DUP3 ADD SWAP1 POP SWAP2 SWAP1 POP JUMP JUMPDEST PUSH0 PUSH1 0x20 DUP3 ADD SWAP1 POP DUP2 DUP2 SUB PUSH0 DUP4 ADD MSTORE PUSH2 0x254 DUP2 PUSH2 0x21B JUMP JUMPDEST SWAP1 POP SWAP2 SWAP1 POP JUMP JUMPDEST PUSH32 0x4E487B7100000000000000000000000000000000000000000000000000000000 PUSH0 MSTORE PUSH1 0x11 PUSH1 0x4 MSTORE PUSH1 0x24 PUSH0 REVERT JUMPDEST PUSH0 PUSH2 0x292 DUP3 PUSH2 0x15A JUMP JUMPDEST SWAP2 POP PUSH32 0xFFFFFFFFFFFFFFFFFFFFFFFFFFFFFFFFFFFFFFFFFFFFFFFFFFFFFFFFFFFFFFFF DUP3 SUB PUSH2 0x2C4 JUMPI PUSH2 0x2C3 PUSH2 0x25B JUMP JUMPDEST JUMPDEST PUSH1 0x1 DUP3 ADD SWAP1 POP SWAP2 SWAP1 POP JUMP INVALID LOG2 PUSH5 0x6970667358 0x22 SLT KECCAK256 0xC0 0xCF CALLDATALOAD DUP10 SWAP12 EXTCODECOPY 0xB0 PUSH0 PUSH3 0x59C0D2 0xE9 0xBD GAS CALLDATALOAD 0xC9 SWAP14 0xEA 0xCC 0xED EXTCALL CODESIZE OR SHR MULMOD 0xED RETURNDATASIZE DELEGATECALL DUP11 CALLDATACOPY 0x2D PUSH5 0x736F6C6343 STOP ADDMOD 0x22 STOP CALLER LOG2 PUSH5 0x6970667358 0x22 SLT KECCAK256 0xC9 SELFBALANCE SWAP16 CALLCODE PUSH16 0x2AA2BDB64018891928C4378F8FB46CED 0xCA SWAP16 0xCC STOP SWAP4 GASPRICE 0x27 0xED MSTORE 0xCA 0x2E PUSH5 0x736F6C6343 STOP ADDMOD 0x22 STOP CALLER LOG2 PUSH5 0x6970667358 0x22 SLT KECCAK256 0xBD 0x27 0x27 0xCA 0xDC 0x2A 0xED 0xDD PUSH11 0x49DCF0027E501347DA16C9 0xAD SWAP14 0xBA DUP11 0x24 0xB0 XOR SWAP12 EXTCODESIZE 0xC5 CALLDATACOPY TSTORE PUSH5 0x736F6C6343 STOP ADDMOD 0x22 STOP CALLER "
				},
				"gasEstimates": {
					"creation": {
						"codeDepositCost": "833800",
						"executionCost": "868",
						"totalCost": "834668"
					},
					"external": {
						"testCreate2()": "infinite"
					}
				},
				"methodIdentifiers": {
					"testCreate2()": "0318ac0c"
				}
			},
			"storageLayout": {
				"storage": [],
				"types": null
			},
			"userdoc": {
				"kind": "user",
				"methods": {},
				"version": 1
			}
		}
	}
}