{
	"lession6.2-Library/OpenzepplinDemo.sol": {
		"OpenzepplinDemo": {
			"abi": [
				{
					"inputs": [
						{
							"internalType": "string",
							"name": "str1",
							"type": "string"
						},
						{
							"internalType": "string",
							"name": "str2",
							"type": "string"
						}
					],
					"name": "compreTwoString",
					"outputs": [
						{
							"internalType": "bool",
							"name": "",
							"type": "bool"
						}
					],
					"stateMutability": "pure",
					"type": "function"
				},
				{
					"inputs": [
						{
							"internalType": "uint256",
							"name": "num",
							"type": "uint256"
						}
					],
					"name": "numberToString",
					"outputs": [
						{
							"internalType": "string",
							"name": "",
							"type": "string"
						}
					],
					"stateMutability": "pure",
					"type": "function"
				}
			],
			"devdoc": {
				"kind": "dev",
				"methods": {},
				"version": 1
			},
			"evm": {
				"assembly": "    /* \"lession6.2-Library/OpenzepplinDemo.sol\":166:581  contract OpenzepplinDemo {... */\n  mstore(0x40, 0x80)\n  callvalue\n  dup1\n  iszero\n  tag_1\n  jumpi\n  revert(0x00, 0x00)\ntag_1:\n  pop\n  dataSize(sub_0)\n  dup1\n  dataOffset(sub_0)\n  0x00\n  codecopy\n  0x00\n  return\nstop\n\nsub_0: assembly {\n        /* \"lession6.2-Library/OpenzepplinDemo.sol\":166:581  contract OpenzepplinDemo {... */\n      mstore(0x40, 0x80)\n      callvalue\n      dup1\n      iszero\n      tag_1\n      jumpi\n      revert(0x00, 0x00)\n    tag_1:\n      pop\n      jumpi(tag_2, lt(calldatasize, 0x04))\n      shr(0xe0, calldataload(0x00))\n      dup1\n      0x170dc660\n      eq\n      tag_3\n      jumpi\n      dup1\n      0xb9475278\n      eq\n      tag_4\n      jumpi\n    tag_2:\n      revert(0x00, 0x00)\n        /* \"lession6.2-Library/OpenzepplinDemo.sol\":322:435  function numberToString(uint256 num) public pure returns (string memory) {... */\n    tag_3:\n      tag_5\n      0x04\n      dup1\n      calldatasize\n      sub\n      dup2\n      add\n      swap1\n      tag_6\n      swap2\n      swap1\n      tag_7\n      jump\t// in\n    tag_6:\n      tag_8\n      jump\t// in\n    tag_5:\n      mload(0x40)\n      tag_9\n      swap2\n      swap1\n      tag_10\n      jump\t// in\n    tag_9:\n      mload(0x40)\n      dup1\n      swap2\n      sub\n      swap1\n      return\n        /* \"lession6.2-Library/OpenzepplinDemo.sol\":443:576  function compreTwoString(string memory str1,string memory str2) public pure returns (bool) {... */\n    tag_4:\n      tag_11\n      0x04\n      dup1\n      calldatasize\n      sub\n      dup2\n      add\n      swap1\n      tag_12\n      swap2\n      swap1\n      tag_13\n      jump\t// in\n    tag_12:\n      tag_14\n      jump\t// in\n    tag_11:\n      mload(0x40)\n      tag_15\n      swap2\n      swap1\n      tag_16\n      jump\t// in\n    tag_15:\n      mload(0x40)\n      dup1\n      swap2\n      sub\n      swap1\n      return\n        /* \"lession6.2-Library/OpenzepplinDemo.sol\":322:435  function numberToString(uint256 num) public pure returns (string memory) {... */\n    tag_8:\n        /* \"lession6.2-Library/OpenzepplinDemo.sol\":380:393  string memory */\n      0x60\n        /* \"lession6.2-Library/OpenzepplinDemo.sol\":413:427  num.toString() */\n      tag_18\n        /* \"lession6.2-Library/OpenzepplinDemo.sol\":413:416  num */\n      dup3\n        /* \"lession6.2-Library/OpenzepplinDemo.sol\":413:425  num.toString */\n      tag_19\n        /* \"lession6.2-Library/OpenzepplinDemo.sol\":413:427  num.toString() */\n      jump\t// in\n    tag_18:\n        /* \"lession6.2-Library/OpenzepplinDemo.sol\":406:427  return num.toString() */\n      swap1\n      pop\n        /* \"lession6.2-Library/OpenzepplinDemo.sol\":322:435  function numberToString(uint256 num) public pure returns (string memory) {... */\n      swap2\n      swap1\n      pop\n      jump\t// out\n        /* \"lession6.2-Library/OpenzepplinDemo.sol\":443:576  function compreTwoString(string memory str1,string memory str2) public pure returns (bool) {... */\n    tag_14:\n        /* \"lession6.2-Library/OpenzepplinDemo.sol\":528:532  bool */\n      0x00\n        /* \"lession6.2-Library/OpenzepplinDemo.sol\":552:568  str1.equal(str2) */\n      tag_21\n        /* \"lession6.2-Library/OpenzepplinDemo.sol\":563:567  str2 */\n      dup3\n        /* \"lession6.2-Library/OpenzepplinDemo.sol\":552:556  str1 */\n      dup5\n        /* \"lession6.2-Library/OpenzepplinDemo.sol\":552:562  str1.equal */\n      tag_22\n      swap1\n        /* \"lession6.2-Library/OpenzepplinDemo.sol\":552:568  str1.equal(str2) */\n      swap2\n      swap1\n      0xffffffff\n      and\n      jump\t// in\n    tag_21:\n        /* \"lession6.2-Library/OpenzepplinDemo.sol\":545:568  return str1.equal(str2) */\n      swap1\n      pop\n        /* \"lession6.2-Library/OpenzepplinDemo.sol\":443:576  function compreTwoString(string memory str1,string memory str2) public pure returns (bool) {... */\n      swap3\n      swap2\n      pop\n      pop\n      jump\t// out\n        /* \"@openzeppelin/contracts/utils/Strings.sol\":1292:1944  function toString(uint256 value) internal pure returns (string memory) {... */\n    tag_19:\n        /* \"@openzeppelin/contracts/utils/Strings.sol\":1348:1361  string memory */\n      0x60\n        /* \"@openzeppelin/contracts/utils/Strings.sol\":1399:1413  uint256 length */\n      0x00\n        /* \"@openzeppelin/contracts/utils/Strings.sol\":1436:1437  1 */\n      0x01\n        /* \"@openzeppelin/contracts/utils/Strings.sol\":1416:1433  Math.log10(value) */\n      tag_24\n        /* \"@openzeppelin/contracts/utils/Strings.sol\":1427:1432  value */\n      dup5\n        /* \"@openzeppelin/contracts/utils/Strings.sol\":1416:1426  Math.log10 */\n      tag_25\n        /* \"@openzeppelin/contracts/utils/Strings.sol\":1416:1433  Math.log10(value) */\n      jump\t// in\n    tag_24:\n        /* \"@openzeppelin/contracts/utils/Strings.sol\":1416:1437  Math.log10(value) + 1 */\n      add\n        /* \"@openzeppelin/contracts/utils/Strings.sol\":1399:1437  uint256 length = Math.log10(value) + 1 */\n      swap1\n      pop\n        /* \"@openzeppelin/contracts/utils/Strings.sol\":1452:1472  string memory buffer */\n      0x00\n        /* \"@openzeppelin/contracts/utils/Strings.sol\":1486:1492  length */\n      dup2\n        /* \"@openzeppelin/contracts/utils/Strings.sol\":1475:1493  new string(length) */\n      0xffffffffffffffff\n      dup2\n      gt\n      iszero\n      tag_26\n      jumpi\n      tag_27\n      tag_28\n      jump\t// in\n    tag_27:\n    tag_26:\n      mload(0x40)\n      swap1\n      dup1\n      dup3\n      mstore\n      dup1\n      0x1f\n      add\n      not(0x1f)\n      and\n      0x20\n      add\n      dup3\n      add\n      0x40\n      mstore\n      dup1\n      iszero\n      tag_29\n      jumpi\n      dup2\n      0x20\n      add\n      0x01\n      dup3\n      mul\n      dup1\n      calldatasize\n      dup4\n      calldatacopy\n      dup1\n      dup3\n      add\n      swap2\n      pop\n      pop\n      swap1\n      pop\n    tag_29:\n      pop\n        /* \"@openzeppelin/contracts/utils/Strings.sol\":1452:1493  string memory buffer = new string(length) */\n      swap1\n      pop\n        /* \"@openzeppelin/contracts/utils/Strings.sol\":1508:1519  uint256 ptr */\n      0x00\n        /* \"@openzeppelin/contracts/utils/Strings.sol\":1608:1614  length */\n      dup3\n        /* \"@openzeppelin/contracts/utils/Strings.sol\":1601:1605  0x20 */\n      0x20\n        /* \"@openzeppelin/contracts/utils/Strings.sol\":1593:1599  buffer */\n      dup4\n        /* \"@openzeppelin/contracts/utils/Strings.sol\":1589:1606  add(buffer, 0x20) */\n      add\n        /* \"@openzeppelin/contracts/utils/Strings.sol\":1585:1615  add(add(buffer, 0x20), length) */\n      add\n        /* \"@openzeppelin/contracts/utils/Strings.sol\":1578:1615  ptr := add(add(buffer, 0x20), length) */\n      swap1\n      pop\n        /* \"@openzeppelin/contracts/utils/Strings.sol\":1644:1898  while (true) {... */\n    tag_30:\n        /* \"@openzeppelin/contracts/utils/Strings.sol\":1651:1655  true */\n      0x01\n        /* \"@openzeppelin/contracts/utils/Strings.sol\":1644:1898  while (true) {... */\n      iszero\n      tag_31\n      jumpi\n        /* \"@openzeppelin/contracts/utils/Strings.sol\":1676:1681  ptr-- */\n      dup1\n      dup1\n      0x01\n      swap1\n      sub\n      swap2\n      pop\n      pop\n        /* \"@openzeppelin/contracts/utils/Strings.sol\":1782:1792  HEX_DIGITS */\n      0x3031323334353637383961626364656600000000000000000000000000000000\n        /* \"@openzeppelin/contracts/utils/Strings.sol\":1777:1779  10 */\n      0x0a\n        /* \"@openzeppelin/contracts/utils/Strings.sol\":1770:1775  value */\n      dup7\n        /* \"@openzeppelin/contracts/utils/Strings.sol\":1766:1780  mod(value, 10) */\n      mod\n        /* \"@openzeppelin/contracts/utils/Strings.sol\":1761:1793  byte(mod(value, 10), HEX_DIGITS) */\n      byte\n        /* \"@openzeppelin/contracts/utils/Strings.sol\":1756:1759  ptr */\n      dup2\n        /* \"@openzeppelin/contracts/utils/Strings.sol\":1748:1794  mstore8(ptr, byte(mod(value, 10), HEX_DIGITS)) */\n      mstore8\n        /* \"@openzeppelin/contracts/utils/Strings.sol\":1840:1842  10 */\n      0x0a\n        /* \"@openzeppelin/contracts/utils/Strings.sol\":1831:1842  value /= 10 */\n      dup6\n      dup2\n      tag_32\n      jumpi\n      tag_33\n      tag_34\n      jump\t// in\n    tag_33:\n    tag_32:\n      div\n      swap5\n      pop\n        /* \"@openzeppelin/contracts/utils/Strings.sol\":1874:1875  0 */\n      0x00\n        /* \"@openzeppelin/contracts/utils/Strings.sol\":1865:1870  value */\n      dup6\n        /* \"@openzeppelin/contracts/utils/Strings.sol\":1865:1875  value == 0 */\n      sub\n        /* \"@openzeppelin/contracts/utils/Strings.sol\":1644:1898  while (true) {... */\n      tag_30\n        /* \"@openzeppelin/contracts/utils/Strings.sol\":1861:1882  if (value == 0) break */\n      jumpi\n        /* \"@openzeppelin/contracts/utils/Strings.sol\":1644:1898  while (true) {... */\n    tag_31:\n        /* \"@openzeppelin/contracts/utils/Strings.sol\":1919:1925  buffer */\n      dup2\n        /* \"@openzeppelin/contracts/utils/Strings.sol\":1912:1925  return buffer */\n      swap4\n      pop\n      pop\n      pop\n      pop\n        /* \"@openzeppelin/contracts/utils/Strings.sol\":1292:1944  function toString(uint256 value) internal pure returns (string memory) {... */\n      swap2\n      swap1\n      pop\n      jump\t// out\n        /* \"@openzeppelin/contracts/utils/Strings.sol\":5123:5258  function equal(string memory a, string memory b) internal pure returns (bool) {... */\n    tag_22:\n        /* \"@openzeppelin/contracts/utils/Strings.sol\":5195:5199  bool */\n      0x00\n        /* \"@openzeppelin/contracts/utils/Strings.sol\":5219:5250  Bytes.equal(bytes(a), bytes(b)) */\n      tag_37\n        /* \"@openzeppelin/contracts/utils/Strings.sol\":5237:5238  a */\n      dup4\n        /* \"@openzeppelin/contracts/utils/Strings.sol\":5247:5248  b */\n      dup4\n        /* \"@openzeppelin/contracts/utils/Strings.sol\":5219:5230  Bytes.equal */\n      tag_38\n        /* \"@openzeppelin/contracts/utils/Strings.sol\":5219:5250  Bytes.equal(bytes(a), bytes(b)) */\n      jump\t// in\n    tag_37:\n        /* \"@openzeppelin/contracts/utils/Strings.sol\":5212:5250  return Bytes.equal(bytes(a), bytes(b)) */\n      swap1\n      pop\n        /* \"@openzeppelin/contracts/utils/Strings.sol\":5123:5258  function equal(string memory a, string memory b) internal pure returns (bool) {... */\n      swap3\n      swap2\n      pop\n      pop\n      jump\t// out\n        /* \"@openzeppelin/contracts/utils/math/Math.sol\":30145:31093  function log10(uint256 value) internal pure returns (uint256) {... */\n    tag_25:\n        /* \"@openzeppelin/contracts/utils/math/Math.sol\":30198:30205  uint256 */\n      0x00\n        /* \"@openzeppelin/contracts/utils/math/Math.sol\":30218:30232  uint256 result */\n      0x00\n        /* \"@openzeppelin/contracts/utils/math/Math.sol\":30235:30236  0 */\n      0x00\n        /* \"@openzeppelin/contracts/utils/math/Math.sol\":30218:30236  uint256 result = 0 */\n      swap1\n      pop\n        /* \"@openzeppelin/contracts/utils/math/Math.sol\":30285:30293  10 ** 64 */\n      0x184f03e93ff9f4daa797ed6e38ed64bf6a1f010000000000000000\n        /* \"@openzeppelin/contracts/utils/math/Math.sol\":30276:30281  value */\n      dup4\n        /* \"@openzeppelin/contracts/utils/math/Math.sol\":30276:30293  value >= 10 ** 64 */\n      lt\n        /* \"@openzeppelin/contracts/utils/math/Math.sol\":30272:30378  if (value >= 10 ** 64) {... */\n      tag_40\n      jumpi\n        /* \"@openzeppelin/contracts/utils/math/Math.sol\":30323:30331  10 ** 64 */\n      0x184f03e93ff9f4daa797ed6e38ed64bf6a1f010000000000000000\n        /* \"@openzeppelin/contracts/utils/math/Math.sol\":30314:30331  value /= 10 ** 64 */\n      dup4\n      dup2\n      tag_41\n      jumpi\n      tag_42\n      tag_34\n      jump\t// in\n    tag_42:\n    tag_41:\n      div\n      swap3\n      pop\n        /* \"@openzeppelin/contracts/utils/math/Math.sol\":30360:30362  64 */\n      0x40\n        /* \"@openzeppelin/contracts/utils/math/Math.sol\":30350:30362  result += 64 */\n      dup2\n      add\n      swap1\n      pop\n        /* \"@openzeppelin/contracts/utils/math/Math.sol\":30272:30378  if (value >= 10 ** 64) {... */\n    tag_40:\n        /* \"@openzeppelin/contracts/utils/math/Math.sol\":30405:30413  10 ** 32 */\n      0x04ee2d6d415b85acef8100000000\n        /* \"@openzeppelin/contracts/utils/math/Math.sol\":30396:30401  value */\n      dup4\n        /* \"@openzeppelin/contracts/utils/math/Math.sol\":30396:30413  value >= 10 ** 32 */\n      lt\n        /* \"@openzeppelin/contracts/utils/math/Math.sol\":30392:30498  if (value >= 10 ** 32) {... */\n      tag_43\n      jumpi\n        /* \"@openzeppelin/contracts/utils/math/Math.sol\":30443:30451  10 ** 32 */\n      0x04ee2d6d415b85acef8100000000\n        /* \"@openzeppelin/contracts/utils/math/Math.sol\":30434:30451  value /= 10 ** 32 */\n      dup4\n      dup2\n      tag_44\n      jumpi\n      tag_45\n      tag_34\n      jump\t// in\n    tag_45:\n    tag_44:\n      div\n      swap3\n      pop\n        /* \"@openzeppelin/contracts/utils/math/Math.sol\":30480:30482  32 */\n      0x20\n        /* \"@openzeppelin/contracts/utils/math/Math.sol\":30470:30482  result += 32 */\n      dup2\n      add\n      swap1\n      pop\n        /* \"@openzeppelin/contracts/utils/math/Math.sol\":30392:30498  if (value >= 10 ** 32) {... */\n    tag_43:\n        /* \"@openzeppelin/contracts/utils/math/Math.sol\":30525:30533  10 ** 16 */\n      0x2386f26fc10000\n        /* \"@openzeppelin/contracts/utils/math/Math.sol\":30516:30521  value */\n      dup4\n        /* \"@openzeppelin/contracts/utils/math/Math.sol\":30516:30533  value >= 10 ** 16 */\n      lt\n        /* \"@openzeppelin/contracts/utils/math/Math.sol\":30512:30618  if (value >= 10 ** 16) {... */\n      tag_46\n      jumpi\n        /* \"@openzeppelin/contracts/utils/math/Math.sol\":30563:30571  10 ** 16 */\n      0x2386f26fc10000\n        /* \"@openzeppelin/contracts/utils/math/Math.sol\":30554:30571  value /= 10 ** 16 */\n      dup4\n      dup2\n      tag_47\n      jumpi\n      tag_48\n      tag_34\n      jump\t// in\n    tag_48:\n    tag_47:\n      div\n      swap3\n      pop\n        /* \"@openzeppelin/contracts/utils/math/Math.sol\":30600:30602  16 */\n      0x10\n        /* \"@openzeppelin/contracts/utils/math/Math.sol\":30590:30602  result += 16 */\n      dup2\n      add\n      swap1\n      pop\n        /* \"@openzeppelin/contracts/utils/math/Math.sol\":30512:30618  if (value >= 10 ** 16) {... */\n    tag_46:\n        /* \"@openzeppelin/contracts/utils/math/Math.sol\":30645:30652  10 ** 8 */\n      0x05f5e100\n        /* \"@openzeppelin/contracts/utils/math/Math.sol\":30636:30641  value */\n      dup4\n        /* \"@openzeppelin/contracts/utils/math/Math.sol\":30636:30652  value >= 10 ** 8 */\n      lt\n        /* \"@openzeppelin/contracts/utils/math/Math.sol\":30632:30735  if (value >= 10 ** 8) {... */\n      tag_49\n      jumpi\n        /* \"@openzeppelin/contracts/utils/math/Math.sol\":30682:30689  10 ** 8 */\n      0x05f5e100\n        /* \"@openzeppelin/contracts/utils/math/Math.sol\":30673:30689  value /= 10 ** 8 */\n      dup4\n      dup2\n      tag_50\n      jumpi\n      tag_51\n      tag_34\n      jump\t// in\n    tag_51:\n    tag_50:\n      div\n      swap3\n      pop\n        /* \"@openzeppelin/contracts/utils/math/Math.sol\":30718:30719  8 */\n      0x08\n        /* \"@openzeppelin/contracts/utils/math/Math.sol\":30708:30719  result += 8 */\n      dup2\n      add\n      swap1\n      pop\n        /* \"@openzeppelin/contracts/utils/math/Math.sol\":30632:30735  if (value >= 10 ** 8) {... */\n    tag_49:\n        /* \"@openzeppelin/contracts/utils/math/Math.sol\":30762:30769  10 ** 4 */\n      0x2710\n        /* \"@openzeppelin/contracts/utils/math/Math.sol\":30753:30758  value */\n      dup4\n        /* \"@openzeppelin/contracts/utils/math/Math.sol\":30753:30769  value >= 10 ** 4 */\n      lt\n        /* \"@openzeppelin/contracts/utils/math/Math.sol\":30749:30852  if (value >= 10 ** 4) {... */\n      tag_52\n      jumpi\n        /* \"@openzeppelin/contracts/utils/math/Math.sol\":30799:30806  10 ** 4 */\n      0x2710\n        /* \"@openzeppelin/contracts/utils/math/Math.sol\":30790:30806  value /= 10 ** 4 */\n      dup4\n      dup2\n      tag_53\n      jumpi\n      tag_54\n      tag_34\n      jump\t// in\n    tag_54:\n    tag_53:\n      div\n      swap3\n      pop\n        /* \"@openzeppelin/contracts/utils/math/Math.sol\":30835:30836  4 */\n      0x04\n        /* \"@openzeppelin/contracts/utils/math/Math.sol\":30825:30836  result += 4 */\n      dup2\n      add\n      swap1\n      pop\n        /* \"@openzeppelin/contracts/utils/math/Math.sol\":30749:30852  if (value >= 10 ** 4) {... */\n    tag_52:\n        /* \"@openzeppelin/contracts/utils/math/Math.sol\":30879:30886  10 ** 2 */\n      0x64\n        /* \"@openzeppelin/contracts/utils/math/Math.sol\":30870:30875  value */\n      dup4\n        /* \"@openzeppelin/contracts/utils/math/Math.sol\":30870:30886  value >= 10 ** 2 */\n      lt\n        /* \"@openzeppelin/contracts/utils/math/Math.sol\":30866:30969  if (value >= 10 ** 2) {... */\n      tag_55\n      jumpi\n        /* \"@openzeppelin/contracts/utils/math/Math.sol\":30916:30923  10 ** 2 */\n      0x64\n        /* \"@openzeppelin/contracts/utils/math/Math.sol\":30907:30923  value /= 10 ** 2 */\n      dup4\n      dup2\n      tag_56\n      jumpi\n      tag_57\n      tag_34\n      jump\t// in\n    tag_57:\n    tag_56:\n      div\n      swap3\n      pop\n        /* \"@openzeppelin/contracts/utils/math/Math.sol\":30952:30953  2 */\n      0x02\n        /* \"@openzeppelin/contracts/utils/math/Math.sol\":30942:30953  result += 2 */\n      dup2\n      add\n      swap1\n      pop\n        /* \"@openzeppelin/contracts/utils/math/Math.sol\":30866:30969  if (value >= 10 ** 2) {... */\n    tag_55:\n        /* \"@openzeppelin/contracts/utils/math/Math.sol\":30996:31003  10 ** 1 */\n      0x0a\n        /* \"@openzeppelin/contracts/utils/math/Math.sol\":30987:30992  value */\n      dup4\n        /* \"@openzeppelin/contracts/utils/math/Math.sol\":30987:31003  value >= 10 ** 1 */\n      lt\n        /* \"@openzeppelin/contracts/utils/math/Math.sol\":30983:31051  if (value >= 10 ** 1) {... */\n      tag_58\n      jumpi\n        /* \"@openzeppelin/contracts/utils/math/Math.sol\":31034:31035  1 */\n      0x01\n        /* \"@openzeppelin/contracts/utils/math/Math.sol\":31024:31035  result += 1 */\n      dup2\n      add\n      swap1\n      pop\n        /* \"@openzeppelin/contracts/utils/math/Math.sol\":30983:31051  if (value >= 10 ** 1) {... */\n    tag_58:\n        /* \"@openzeppelin/contracts/utils/math/Math.sol\":31079:31085  result */\n      dup1\n        /* \"@openzeppelin/contracts/utils/math/Math.sol\":31072:31085  return result */\n      swap2\n      pop\n      pop\n        /* \"@openzeppelin/contracts/utils/math/Math.sol\":30145:31093  function log10(uint256 value) internal pure returns (uint256) {... */\n      swap2\n      swap1\n      pop\n      jump\t// out\n        /* \"@openzeppelin/contracts/utils/Bytes.sol\":10667:10821  function equal(bytes memory a, bytes memory b) internal pure returns (bool) {... */\n    tag_38:\n        /* \"@openzeppelin/contracts/utils/Bytes.sol\":10737:10741  bool */\n      0x00\n        /* \"@openzeppelin/contracts/utils/Bytes.sol\":10773:10774  b */\n      dup2\n        /* \"@openzeppelin/contracts/utils/Bytes.sol\":10773:10781  b.length */\n      mload\n        /* \"@openzeppelin/contracts/utils/Bytes.sol\":10761:10762  a */\n      dup4\n        /* \"@openzeppelin/contracts/utils/Bytes.sol\":10761:10769  a.length */\n      mload\n        /* \"@openzeppelin/contracts/utils/Bytes.sol\":10761:10781  a.length == b.length */\n      eq\n        /* \"@openzeppelin/contracts/utils/Bytes.sol\":10761:10813  a.length == b.length && keccak256(a) == keccak256(b) */\n      dup1\n      iszero\n      tag_60\n      jumpi\n      pop\n        /* \"@openzeppelin/contracts/utils/Bytes.sol\":10811:10812  b */\n      dup2\n        /* \"@openzeppelin/contracts/utils/Bytes.sol\":10801:10813  keccak256(b) */\n      dup1\n      mload\n      swap1\n      0x20\n      add\n      keccak256\n        /* \"@openzeppelin/contracts/utils/Bytes.sol\":10795:10796  a */\n      dup4\n        /* \"@openzeppelin/contracts/utils/Bytes.sol\":10785:10797  keccak256(a) */\n      dup1\n      mload\n      swap1\n      0x20\n      add\n      keccak256\n        /* \"@openzeppelin/contracts/utils/Bytes.sol\":10785:10813  keccak256(a) == keccak256(b) */\n      eq\n        /* \"@openzeppelin/contracts/utils/Bytes.sol\":10761:10813  a.length == b.length && keccak256(a) == keccak256(b) */\n    tag_60:\n        /* \"@openzeppelin/contracts/utils/Bytes.sol\":10754:10813  return a.length == b.length && keccak256(a) == keccak256(b) */\n      swap1\n      pop\n        /* \"@openzeppelin/contracts/utils/Bytes.sol\":10667:10821  function equal(bytes memory a, bytes memory b) internal pure returns (bool) {... */\n      swap3\n      swap2\n      pop\n      pop\n      jump\t// out\n        /* \"#utility.yul\":7:82   */\n    tag_61:\n        /* \"#utility.yul\":40:46   */\n      0x00\n        /* \"#utility.yul\":73:75   */\n      0x40\n        /* \"#utility.yul\":67:76   */\n      mload\n        /* \"#utility.yul\":57:76   */\n      swap1\n      pop\n        /* \"#utility.yul\":7:82   */\n      swap1\n      jump\t// out\n        /* \"#utility.yul\":88:205   */\n    tag_62:\n        /* \"#utility.yul\":197:198   */\n      0x00\n        /* \"#utility.yul\":194:195   */\n      0x00\n        /* \"#utility.yul\":187:199   */\n      revert\n        /* \"#utility.yul\":211:328   */\n    tag_63:\n        /* \"#utility.yul\":320:321   */\n      0x00\n        /* \"#utility.yul\":317:318   */\n      0x00\n        /* \"#utility.yul\":310:322   */\n      revert\n        /* \"#utility.yul\":334:411   */\n    tag_64:\n        /* \"#utility.yul\":371:378   */\n      0x00\n        /* \"#utility.yul\":400:405   */\n      dup2\n        /* \"#utility.yul\":389:405   */\n      swap1\n      pop\n        /* \"#utility.yul\":334:411   */\n      swap2\n      swap1\n      pop\n      jump\t// out\n        /* \"#utility.yul\":417:539   */\n    tag_65:\n        /* \"#utility.yul\":490:514   */\n      tag_88\n        /* \"#utility.yul\":508:513   */\n      dup2\n        /* \"#utility.yul\":490:514   */\n      tag_64\n      jump\t// in\n    tag_88:\n        /* \"#utility.yul\":483:488   */\n      dup2\n        /* \"#utility.yul\":480:515   */\n      eq\n        /* \"#utility.yul\":470:533   */\n      tag_89\n      jumpi\n        /* \"#utility.yul\":529:530   */\n      0x00\n        /* \"#utility.yul\":526:527   */\n      0x00\n        /* \"#utility.yul\":519:531   */\n      revert\n        /* \"#utility.yul\":470:533   */\n    tag_89:\n        /* \"#utility.yul\":417:539   */\n      pop\n      jump\t// out\n        /* \"#utility.yul\":545:684   */\n    tag_66:\n        /* \"#utility.yul\":591:596   */\n      0x00\n        /* \"#utility.yul\":629:635   */\n      dup2\n        /* \"#utility.yul\":616:636   */\n      calldataload\n        /* \"#utility.yul\":607:636   */\n      swap1\n      pop\n        /* \"#utility.yul\":645:678   */\n      tag_91\n        /* \"#utility.yul\":672:677   */\n      dup2\n        /* \"#utility.yul\":645:678   */\n      tag_65\n      jump\t// in\n    tag_91:\n        /* \"#utility.yul\":545:684   */\n      swap3\n      swap2\n      pop\n      pop\n      jump\t// out\n        /* \"#utility.yul\":690:1019   */\n    tag_7:\n        /* \"#utility.yul\":749:755   */\n      0x00\n        /* \"#utility.yul\":798:800   */\n      0x20\n        /* \"#utility.yul\":786:795   */\n      dup3\n        /* \"#utility.yul\":777:784   */\n      dup5\n        /* \"#utility.yul\":773:796   */\n      sub\n        /* \"#utility.yul\":769:801   */\n      slt\n        /* \"#utility.yul\":766:885   */\n      iszero\n      tag_93\n      jumpi\n        /* \"#utility.yul\":804:883   */\n      tag_94\n      tag_62\n      jump\t// in\n    tag_94:\n        /* \"#utility.yul\":766:885   */\n    tag_93:\n        /* \"#utility.yul\":924:925   */\n      0x00\n        /* \"#utility.yul\":949:1002   */\n      tag_95\n        /* \"#utility.yul\":994:1001   */\n      dup5\n        /* \"#utility.yul\":985:991   */\n      dup3\n        /* \"#utility.yul\":974:983   */\n      dup6\n        /* \"#utility.yul\":970:992   */\n      add\n        /* \"#utility.yul\":949:1002   */\n      tag_66\n      jump\t// in\n    tag_95:\n        /* \"#utility.yul\":939:1002   */\n      swap2\n      pop\n        /* \"#utility.yul\":895:1012   */\n      pop\n        /* \"#utility.yul\":690:1019   */\n      swap3\n      swap2\n      pop\n      pop\n      jump\t// out\n        /* \"#utility.yul\":1025:1124   */\n    tag_67:\n        /* \"#utility.yul\":1077:1083   */\n      0x00\n        /* \"#utility.yul\":1111:1116   */\n      dup2\n        /* \"#utility.yul\":1105:1117   */\n      mload\n        /* \"#utility.yul\":1095:1117   */\n      swap1\n      pop\n        /* \"#utility.yul\":1025:1124   */\n      swap2\n      swap1\n      pop\n      jump\t// out\n        /* \"#utility.yul\":1130:1299   */\n    tag_68:\n        /* \"#utility.yul\":1214:1225   */\n      0x00\n        /* \"#utility.yul\":1248:1254   */\n      dup3\n        /* \"#utility.yul\":1243:1246   */\n      dup3\n        /* \"#utility.yul\":1236:1255   */\n      mstore\n        /* \"#utility.yul\":1288:1292   */\n      0x20\n        /* \"#utility.yul\":1283:1286   */\n      dup3\n        /* \"#utility.yul\":1279:1293   */\n      add\n        /* \"#utility.yul\":1264:1293   */\n      swap1\n      pop\n        /* \"#utility.yul\":1130:1299   */\n      swap3\n      swap2\n      pop\n      pop\n      jump\t// out\n        /* \"#utility.yul\":1305:1444   */\n    tag_69:\n        /* \"#utility.yul\":1394:1400   */\n      dup3\n        /* \"#utility.yul\":1389:1392   */\n      dup2\n        /* \"#utility.yul\":1384:1387   */\n      dup4\n        /* \"#utility.yul\":1378:1401   */\n      mcopy\n        /* \"#utility.yul\":1435:1436   */\n      0x00\n        /* \"#utility.yul\":1426:1432   */\n      dup4\n        /* \"#utility.yul\":1421:1424   */\n      dup4\n        /* \"#utility.yul\":1417:1433   */\n      add\n        /* \"#utility.yul\":1410:1437   */\n      mstore\n        /* \"#utility.yul\":1305:1444   */\n      pop\n      pop\n      pop\n      jump\t// out\n        /* \"#utility.yul\":1450:1552   */\n    tag_70:\n        /* \"#utility.yul\":1491:1497   */\n      0x00\n        /* \"#utility.yul\":1542:1544   */\n      0x1f\n        /* \"#utility.yul\":1538:1545   */\n      not\n        /* \"#utility.yul\":1533:1535   */\n      0x1f\n        /* \"#utility.yul\":1526:1531   */\n      dup4\n        /* \"#utility.yul\":1522:1536   */\n      add\n        /* \"#utility.yul\":1518:1546   */\n      and\n        /* \"#utility.yul\":1508:1546   */\n      swap1\n      pop\n        /* \"#utility.yul\":1450:1552   */\n      swap2\n      swap1\n      pop\n      jump\t// out\n        /* \"#utility.yul\":1558:1935   */\n    tag_71:\n        /* \"#utility.yul\":1646:1649   */\n      0x00\n        /* \"#utility.yul\":1674:1713   */\n      tag_101\n        /* \"#utility.yul\":1707:1712   */\n      dup3\n        /* \"#utility.yul\":1674:1713   */\n      tag_67\n      jump\t// in\n    tag_101:\n        /* \"#utility.yul\":1729:1800   */\n      tag_102\n        /* \"#utility.yul\":1793:1799   */\n      dup2\n        /* \"#utility.yul\":1788:1791   */\n      dup6\n        /* \"#utility.yul\":1729:1800   */\n      tag_68\n      jump\t// in\n    tag_102:\n        /* \"#utility.yul\":1722:1800   */\n      swap4\n      pop\n        /* \"#utility.yul\":1809:1874   */\n      tag_103\n        /* \"#utility.yul\":1867:1873   */\n      dup2\n        /* \"#utility.yul\":1862:1865   */\n      dup6\n        /* \"#utility.yul\":1855:1859   */\n      0x20\n        /* \"#utility.yul\":1848:1853   */\n      dup7\n        /* \"#utility.yul\":1844:1860   */\n      add\n        /* \"#utility.yul\":1809:1874   */\n      tag_69\n      jump\t// in\n    tag_103:\n        /* \"#utility.yul\":1899:1928   */\n      tag_104\n        /* \"#utility.yul\":1921:1927   */\n      dup2\n        /* \"#utility.yul\":1899:1928   */\n      tag_70\n      jump\t// in\n    tag_104:\n        /* \"#utility.yul\":1894:1897   */\n      dup5\n        /* \"#utility.yul\":1890:1929   */\n      add\n        /* \"#utility.yul\":1883:1929   */\n      swap2\n      pop\n        /* \"#utility.yul\":1650:1935   */\n      pop\n        /* \"#utility.yul\":1558:1935   */\n      swap3\n      swap2\n      pop\n      pop\n      jump\t// out\n        /* \"#utility.yul\":1941:2254   */\n    tag_10:\n        /* \"#utility.yul\":2054:2058   */\n      0x00\n        /* \"#utility.yul\":2092:2094   */\n      0x20\n        /* \"#utility.yul\":2081:2090   */\n      dup3\n        /* \"#utility.yul\":2077:2095   */\n      add\n        /* \"#utility.yul\":2069:2095   */\n      swap1\n      pop\n        /* \"#utility.yul\":2141:2150   */\n      dup2\n        /* \"#utility.yul\":2135:2139   */\n      dup2\n        /* \"#utility.yul\":2131:2151   */\n      sub\n        /* \"#utility.yul\":2127:2128   */\n      0x00\n        /* \"#utility.yul\":2116:2125   */\n      dup4\n        /* \"#utility.yul\":2112:2129   */\n      add\n        /* \"#utility.yul\":2105:2152   */\n      mstore\n        /* \"#utility.yul\":2169:2247   */\n      tag_106\n        /* \"#utility.yul\":2242:2246   */\n      dup2\n        /* \"#utility.yul\":2233:2239   */\n      dup5\n        /* \"#utility.yul\":2169:2247   */\n      tag_71\n      jump\t// in\n    tag_106:\n        /* \"#utility.yul\":2161:2247   */\n      swap1\n      pop\n        /* \"#utility.yul\":1941:2254   */\n      swap3\n      swap2\n      pop\n      pop\n      jump\t// out\n        /* \"#utility.yul\":2260:2377   */\n    tag_72:\n        /* \"#utility.yul\":2369:2370   */\n      0x00\n        /* \"#utility.yul\":2366:2367   */\n      0x00\n        /* \"#utility.yul\":2359:2371   */\n      revert\n        /* \"#utility.yul\":2383:2500   */\n    tag_73:\n        /* \"#utility.yul\":2492:2493   */\n      0x00\n        /* \"#utility.yul\":2489:2490   */\n      0x00\n        /* \"#utility.yul\":2482:2494   */\n      revert\n        /* \"#utility.yul\":2506:2686   */\n    tag_28:\n        /* \"#utility.yul\":2554:2631   */\n      0x4e487b7100000000000000000000000000000000000000000000000000000000\n        /* \"#utility.yul\":2551:2552   */\n      0x00\n        /* \"#utility.yul\":2544:2632   */\n      mstore\n        /* \"#utility.yul\":2651:2655   */\n      0x41\n        /* \"#utility.yul\":2648:2649   */\n      0x04\n        /* \"#utility.yul\":2641:2656   */\n      mstore\n        /* \"#utility.yul\":2675:2679   */\n      0x24\n        /* \"#utility.yul\":2672:2673   */\n      0x00\n        /* \"#utility.yul\":2665:2680   */\n      revert\n        /* \"#utility.yul\":2692:2973   */\n    tag_74:\n        /* \"#utility.yul\":2775:2802   */\n      tag_111\n        /* \"#utility.yul\":2797:2801   */\n      dup3\n        /* \"#utility.yul\":2775:2802   */\n      tag_70\n      jump\t// in\n    tag_111:\n        /* \"#utility.yul\":2767:2773   */\n      dup2\n        /* \"#utility.yul\":2763:2803   */\n      add\n        /* \"#utility.yul\":2905:2911   */\n      dup2\n        /* \"#utility.yul\":2893:2903   */\n      dup2\n        /* \"#utility.yul\":2890:2912   */\n      lt\n        /* \"#utility.yul\":2869:2887   */\n      0xffffffffffffffff\n        /* \"#utility.yul\":2857:2867   */\n      dup3\n        /* \"#utility.yul\":2854:2888   */\n      gt\n        /* \"#utility.yul\":2851:2913   */\n      or\n        /* \"#utility.yul\":2848:2936   */\n      iszero\n      tag_112\n      jumpi\n        /* \"#utility.yul\":2916:2934   */\n      tag_113\n      tag_28\n      jump\t// in\n    tag_113:\n        /* \"#utility.yul\":2848:2936   */\n    tag_112:\n        /* \"#utility.yul\":2956:2966   */\n      dup1\n        /* \"#utility.yul\":2952:2954   */\n      0x40\n        /* \"#utility.yul\":2945:2967   */\n      mstore\n        /* \"#utility.yul\":2735:2973   */\n      pop\n        /* \"#utility.yul\":2692:2973   */\n      pop\n      pop\n      jump\t// out\n        /* \"#utility.yul\":2979:3108   */\n    tag_75:\n        /* \"#utility.yul\":3013:3019   */\n      0x00\n        /* \"#utility.yul\":3040:3060   */\n      tag_115\n      tag_61\n      jump\t// in\n    tag_115:\n        /* \"#utility.yul\":3030:3060   */\n      swap1\n      pop\n        /* \"#utility.yul\":3069:3102   */\n      tag_116\n        /* \"#utility.yul\":3097:3101   */\n      dup3\n        /* \"#utility.yul\":3089:3095   */\n      dup3\n        /* \"#utility.yul\":3069:3102   */\n      tag_74\n      jump\t// in\n    tag_116:\n        /* \"#utility.yul\":2979:3108   */\n      swap2\n      swap1\n      pop\n      jump\t// out\n        /* \"#utility.yul\":3114:3422   */\n    tag_76:\n        /* \"#utility.yul\":3176:3180   */\n      0x00\n        /* \"#utility.yul\":3266:3284   */\n      0xffffffffffffffff\n        /* \"#utility.yul\":3258:3264   */\n      dup3\n        /* \"#utility.yul\":3255:3285   */\n      gt\n        /* \"#utility.yul\":3252:3308   */\n      iszero\n      tag_118\n      jumpi\n        /* \"#utility.yul\":3288:3306   */\n      tag_119\n      tag_28\n      jump\t// in\n    tag_119:\n        /* \"#utility.yul\":3252:3308   */\n    tag_118:\n        /* \"#utility.yul\":3326:3355   */\n      tag_120\n        /* \"#utility.yul\":3348:3354   */\n      dup3\n        /* \"#utility.yul\":3326:3355   */\n      tag_70\n      jump\t// in\n    tag_120:\n        /* \"#utility.yul\":3318:3355   */\n      swap1\n      pop\n        /* \"#utility.yul\":3410:3414   */\n      0x20\n        /* \"#utility.yul\":3404:3408   */\n      dup2\n        /* \"#utility.yul\":3400:3415   */\n      add\n        /* \"#utility.yul\":3392:3415   */\n      swap1\n      pop\n        /* \"#utility.yul\":3114:3422   */\n      swap2\n      swap1\n      pop\n      jump\t// out\n        /* \"#utility.yul\":3428:3576   */\n    tag_77:\n        /* \"#utility.yul\":3526:3532   */\n      dup3\n        /* \"#utility.yul\":3521:3524   */\n      dup2\n        /* \"#utility.yul\":3516:3519   */\n      dup4\n        /* \"#utility.yul\":3503:3533   */\n      calldatacopy\n        /* \"#utility.yul\":3567:3568   */\n      0x00\n        /* \"#utility.yul\":3558:3564   */\n      dup4\n        /* \"#utility.yul\":3553:3556   */\n      dup4\n        /* \"#utility.yul\":3549:3565   */\n      add\n        /* \"#utility.yul\":3542:3569   */\n      mstore\n        /* \"#utility.yul\":3428:3576   */\n      pop\n      pop\n      pop\n      jump\t// out\n        /* \"#utility.yul\":3582:4007   */\n    tag_78:\n        /* \"#utility.yul\":3660:3665   */\n      0x00\n        /* \"#utility.yul\":3685:3751   */\n      tag_123\n        /* \"#utility.yul\":3701:3750   */\n      tag_124\n        /* \"#utility.yul\":3743:3749   */\n      dup5\n        /* \"#utility.yul\":3701:3750   */\n      tag_76\n      jump\t// in\n    tag_124:\n        /* \"#utility.yul\":3685:3751   */\n      tag_75\n      jump\t// in\n    tag_123:\n        /* \"#utility.yul\":3676:3751   */\n      swap1\n      pop\n        /* \"#utility.yul\":3774:3780   */\n      dup3\n        /* \"#utility.yul\":3767:3772   */\n      dup2\n        /* \"#utility.yul\":3760:3781   */\n      mstore\n        /* \"#utility.yul\":3812:3816   */\n      0x20\n        /* \"#utility.yul\":3805:3810   */\n      dup2\n        /* \"#utility.yul\":3801:3817   */\n      add\n        /* \"#utility.yul\":3850:3853   */\n      dup5\n        /* \"#utility.yul\":3841:3847   */\n      dup5\n        /* \"#utility.yul\":3836:3839   */\n      dup5\n        /* \"#utility.yul\":3832:3848   */\n      add\n        /* \"#utility.yul\":3829:3854   */\n      gt\n        /* \"#utility.yul\":3826:3938   */\n      iszero\n      tag_125\n      jumpi\n        /* \"#utility.yul\":3857:3936   */\n      tag_126\n      tag_73\n      jump\t// in\n    tag_126:\n        /* \"#utility.yul\":3826:3938   */\n    tag_125:\n        /* \"#utility.yul\":3947:4001   */\n      tag_127\n        /* \"#utility.yul\":3994:4000   */\n      dup5\n        /* \"#utility.yul\":3989:3992   */\n      dup3\n        /* \"#utility.yul\":3984:3987   */\n      dup6\n        /* \"#utility.yul\":3947:4001   */\n      tag_77\n      jump\t// in\n    tag_127:\n        /* \"#utility.yul\":3666:4007   */\n      pop\n        /* \"#utility.yul\":3582:4007   */\n      swap4\n      swap3\n      pop\n      pop\n      pop\n      jump\t// out\n        /* \"#utility.yul\":4027:4367   */\n    tag_79:\n        /* \"#utility.yul\":4083:4088   */\n      0x00\n        /* \"#utility.yul\":4132:4135   */\n      dup3\n        /* \"#utility.yul\":4125:4129   */\n      0x1f\n        /* \"#utility.yul\":4117:4123   */\n      dup4\n        /* \"#utility.yul\":4113:4130   */\n      add\n        /* \"#utility.yul\":4109:4136   */\n      slt\n        /* \"#utility.yul\":4099:4221   */\n      tag_129\n      jumpi\n        /* \"#utility.yul\":4140:4219   */\n      tag_130\n      tag_72\n      jump\t// in\n    tag_130:\n        /* \"#utility.yul\":4099:4221   */\n    tag_129:\n        /* \"#utility.yul\":4257:4263   */\n      dup2\n        /* \"#utility.yul\":4244:4264   */\n      calldataload\n        /* \"#utility.yul\":4282:4361   */\n      tag_131\n        /* \"#utility.yul\":4357:4360   */\n      dup5\n        /* \"#utility.yul\":4349:4355   */\n      dup3\n        /* \"#utility.yul\":4342:4346   */\n      0x20\n        /* \"#utility.yul\":4334:4340   */\n      dup7\n        /* \"#utility.yul\":4330:4347   */\n      add\n        /* \"#utility.yul\":4282:4361   */\n      tag_78\n      jump\t// in\n    tag_131:\n        /* \"#utility.yul\":4273:4361   */\n      swap2\n      pop\n        /* \"#utility.yul\":4089:4367   */\n      pop\n        /* \"#utility.yul\":4027:4367   */\n      swap3\n      swap2\n      pop\n      pop\n      jump\t// out\n        /* \"#utility.yul\":4373:5207   */\n    tag_13:\n        /* \"#utility.yul\":4461:4467   */\n      0x00\n        /* \"#utility.yul\":4469:4475   */\n      0x00\n        /* \"#utility.yul\":4518:4520   */\n      0x40\n        /* \"#utility.yul\":4506:4515   */\n      dup4\n        /* \"#utility.yul\":4497:4504   */\n      dup6\n        /* \"#utility.yul\":4493:4516   */\n      sub\n        /* \"#utility.yul\":4489:4521   */\n      slt\n        /* \"#utility.yul\":4486:4605   */\n      iszero\n      tag_133\n      jumpi\n        /* \"#utility.yul\":4524:4603   */\n      tag_134\n      tag_62\n      jump\t// in\n    tag_134:\n        /* \"#utility.yul\":4486:4605   */\n    tag_133:\n        /* \"#utility.yul\":4672:4673   */\n      0x00\n        /* \"#utility.yul\":4661:4670   */\n      dup4\n        /* \"#utility.yul\":4657:4674   */\n      add\n        /* \"#utility.yul\":4644:4675   */\n      calldataload\n        /* \"#utility.yul\":4702:4720   */\n      0xffffffffffffffff\n        /* \"#utility.yul\":4694:4700   */\n      dup2\n        /* \"#utility.yul\":4691:4721   */\n      gt\n        /* \"#utility.yul\":4688:4805   */\n      iszero\n      tag_135\n      jumpi\n        /* \"#utility.yul\":4724:4803   */\n      tag_136\n      tag_63\n      jump\t// in\n    tag_136:\n        /* \"#utility.yul\":4688:4805   */\n    tag_135:\n        /* \"#utility.yul\":4829:4892   */\n      tag_137\n        /* \"#utility.yul\":4884:4891   */\n      dup6\n        /* \"#utility.yul\":4875:4881   */\n      dup3\n        /* \"#utility.yul\":4864:4873   */\n      dup7\n        /* \"#utility.yul\":4860:4882   */\n      add\n        /* \"#utility.yul\":4829:4892   */\n      tag_79\n      jump\t// in\n    tag_137:\n        /* \"#utility.yul\":4819:4892   */\n      swap3\n      pop\n        /* \"#utility.yul\":4615:4902   */\n      pop\n        /* \"#utility.yul\":4969:4971   */\n      0x20\n        /* \"#utility.yul\":4958:4967   */\n      dup4\n        /* \"#utility.yul\":4954:4972   */\n      add\n        /* \"#utility.yul\":4941:4973   */\n      calldataload\n        /* \"#utility.yul\":5000:5018   */\n      0xffffffffffffffff\n        /* \"#utility.yul\":4992:4998   */\n      dup2\n        /* \"#utility.yul\":4989:5019   */\n      gt\n        /* \"#utility.yul\":4986:5103   */\n      iszero\n      tag_138\n      jumpi\n        /* \"#utility.yul\":5022:5101   */\n      tag_139\n      tag_63\n      jump\t// in\n    tag_139:\n        /* \"#utility.yul\":4986:5103   */\n    tag_138:\n        /* \"#utility.yul\":5127:5190   */\n      tag_140\n        /* \"#utility.yul\":5182:5189   */\n      dup6\n        /* \"#utility.yul\":5173:5179   */\n      dup3\n        /* \"#utility.yul\":5162:5171   */\n      dup7\n        /* \"#utility.yul\":5158:5180   */\n      add\n        /* \"#utility.yul\":5127:5190   */\n      tag_79\n      jump\t// in\n    tag_140:\n        /* \"#utility.yul\":5117:5190   */\n      swap2\n      pop\n        /* \"#utility.yul\":4912:5200   */\n      pop\n        /* \"#utility.yul\":4373:5207   */\n      swap3\n      pop\n      swap3\n      swap1\n      pop\n      jump\t// out\n        /* \"#utility.yul\":5213:5303   */\n    tag_80:\n        /* \"#utility.yul\":5247:5254   */\n      0x00\n        /* \"#utility.yul\":5290:5295   */\n      dup2\n        /* \"#utility.yul\":5283:5296   */\n      iszero\n        /* \"#utility.yul\":5276:5297   */\n      iszero\n        /* \"#utility.yul\":5265:5297   */\n      swap1\n      pop\n        /* \"#utility.yul\":5213:5303   */\n      swap2\n      swap1\n      pop\n      jump\t// out\n        /* \"#utility.yul\":5309:5418   */\n    tag_81:\n        /* \"#utility.yul\":5390:5411   */\n      tag_143\n        /* \"#utility.yul\":5405:5410   */\n      dup2\n        /* \"#utility.yul\":5390:5411   */\n      tag_80\n      jump\t// in\n    tag_143:\n        /* \"#utility.yul\":5385:5388   */\n      dup3\n        /* \"#utility.yul\":5378:5412   */\n      mstore\n        /* \"#utility.yul\":5309:5418   */\n      pop\n      pop\n      jump\t// out\n        /* \"#utility.yul\":5424:5634   */\n    tag_16:\n        /* \"#utility.yul\":5511:5515   */\n      0x00\n        /* \"#utility.yul\":5549:5551   */\n      0x20\n        /* \"#utility.yul\":5538:5547   */\n      dup3\n        /* \"#utility.yul\":5534:5552   */\n      add\n        /* \"#utility.yul\":5526:5552   */\n      swap1\n      pop\n        /* \"#utility.yul\":5562:5627   */\n      tag_145\n        /* \"#utility.yul\":5624:5625   */\n      0x00\n        /* \"#utility.yul\":5613:5622   */\n      dup4\n        /* \"#utility.yul\":5609:5626   */\n      add\n        /* \"#utility.yul\":5600:5606   */\n      dup5\n        /* \"#utility.yul\":5562:5627   */\n      tag_81\n      jump\t// in\n    tag_145:\n        /* \"#utility.yul\":5424:5634   */\n      swap3\n      swap2\n      pop\n      pop\n      jump\t// out\n        /* \"#utility.yul\":5640:5820   */\n    tag_34:\n        /* \"#utility.yul\":5688:5765   */\n      0x4e487b7100000000000000000000000000000000000000000000000000000000\n        /* \"#utility.yul\":5685:5686   */\n      0x00\n        /* \"#utility.yul\":5678:5766   */\n      mstore\n        /* \"#utility.yul\":5785:5789   */\n      0x12\n        /* \"#utility.yul\":5782:5783   */\n      0x04\n        /* \"#utility.yul\":5775:5790   */\n      mstore\n        /* \"#utility.yul\":5809:5813   */\n      0x24\n        /* \"#utility.yul\":5806:5807   */\n      0x00\n        /* \"#utility.yul\":5799:5814   */\n      revert\n\n    auxdata: 0xa2646970667358221220acbe638ac431e8485601cc596e636fd2afe9aca50a8acbe4714ad187400b6e7864736f6c63430008220033\n}\n",
				"bytecode": {
					"linkReferences": {},
					"object": "6080604052348015600e575f5ffd5b506106528061001c5f395ff3fe608060405234801561000f575f5ffd5b5060043610610034575f3560e01c8063170dc66014610038578063b947527814610068575b5f5ffd5b610052600480360381019061004d919061035f565b610098565b60405161005f91906103fa565b60405180910390f35b610082600480360381019061007d9190610546565b6100aa565b60405161008f91906105d6565b60405180910390f35b60606100a3826100c6565b9050919050565b5f6100be828461019090919063ffffffff16565b905092915050565b60605f60016100d4846101a3565b0190505f8167ffffffffffffffff8111156100f2576100f1610422565b5b6040519080825280601f01601f1916602001820160405280156101245781602001600182028036833780820191505090505b5090505f82602083010190505b600115610185578080600190039150507f3031323334353637383961626364656600000000000000000000000000000000600a86061a8153600a858161017a576101796105ef565b5b0494505f8503610131575b819350505050919050565b5f61019b83836102f4565b905092915050565b5f5f5f90507a184f03e93ff9f4daa797ed6e38ed64bf6a1f01000000000000000083106101ff577a184f03e93ff9f4daa797ed6e38ed64bf6a1f01000000000000000083816101f5576101f46105ef565b5b0492506040810190505b6d04ee2d6d415b85acef8100000000831061023c576d04ee2d6d415b85acef81000000008381610232576102316105ef565b5b0492506020810190505b662386f26fc10000831061026b57662386f26fc100008381610261576102606105ef565b5b0492506010810190505b6305f5e1008310610294576305f5e100838161028a576102896105ef565b5b0492506008810190505b61271083106102b95761271083816102af576102ae6105ef565b5b0492506004810190505b606483106102dc57606483816102d2576102d16105ef565b5b0492506002810190505b600a83106102eb576001810190505b80915050919050565b5f81518351148015610313575081805190602001208380519060200120145b905092915050565b5f604051905090565b5f5ffd5b5f5ffd5b5f819050919050565b61033e8161032c565b8114610348575f5ffd5b50565b5f8135905061035981610335565b92915050565b5f6020828403121561037457610373610324565b5b5f6103818482850161034b565b91505092915050565b5f81519050919050565b5f82825260208201905092915050565b8281835e5f83830152505050565b5f601f19601f8301169050919050565b5f6103cc8261038a565b6103d68185610394565b93506103e68185602086016103a4565b6103ef816103b2565b840191505092915050565b5f6020820190508181035f83015261041281846103c2565b905092915050565b5f5ffd5b5f5ffd5b7f4e487b71000000000000000000000000000000000000000000000000000000005f52604160045260245ffd5b610458826103b2565b810181811067ffffffffffffffff8211171561047757610476610422565b5b80604052505050565b5f61048961031b565b9050610495828261044f565b919050565b5f67ffffffffffffffff8211156104b4576104b3610422565b5b6104bd826103b2565b9050602081019050919050565b828183375f83830152505050565b5f6104ea6104e58461049a565b610480565b9050828152602081018484840111156105065761050561041e565b5b6105118482856104ca565b509392505050565b5f82601f83011261052d5761052c61041a565b5b813561053d8482602086016104d8565b91505092915050565b5f5f6040838503121561055c5761055b610324565b5b5f83013567ffffffffffffffff81111561057957610578610328565b5b61058585828601610519565b925050602083013567ffffffffffffffff8111156105a6576105a5610328565b5b6105b285828601610519565b9150509250929050565b5f8115159050919050565b6105d0816105bc565b82525050565b5f6020820190506105e95f8301846105c7565b92915050565b7f4e487b71000000000000000000000000000000000000000000000000000000005f52601260045260245ffdfea2646970667358221220acbe638ac431e8485601cc596e636fd2afe9aca50a8acbe4714ad187400b6e7864736f6c63430008220033",
					"opcodes": "PUSH1 0x80 PUSH1 0x40 MSTORE CALLVALUE DUP1 ISZERO PUSH1 0xE JUMPI PUSH0 PUSH0 REVERT JUMPDEST POP PUSH2 0x652 DUP1 PUSH2 0x1C PUSH0 CODECOPY PUSH0 RETURN INVALID PUSH1 0x80 PUSH1 0x40 MSTORE CALLVALUE DUP1 ISZERO PUSH2 0xF JUMPI PUSH0 PUSH0 REVERT JUMPDEST POP PUSH1 0x4 CALLDATASIZE LT PUSH2 0x34 JUMPI PUSH0 CALLDATALOAD PUSH1 0xE0 SHR DUP1 PUSH4 0x170DC660 EQ PUSH2 0x38 JUMPI DUP1 PUSH4 0xB9475278 EQ PUSH2 0x68 JUMPI JUMPDEST PUSH0 PUSH0 REVERT JUMPDEST PUSH2 0x52 PUSH1 0x4 DUP1 CALLDATASIZE SUB DUP2 ADD SWAP1 PUSH2 0x4D SWAP2 SWAP1 PUSH2 0x35F JUMP JUMPDEST PUSH2 0x98 JUMP JUMPDEST PUSH1 0x40 MLOAD PUSH2 0x5F SWAP2 SWAP1 PUSH2 0x3FA JUMP JUMPDEST PUSH1 0x40 MLOAD DUP1 SWAP2 SUB SWAP1 RETURN JUMPDEST PUSH2 0x82 PUSH1 0x4 DUP1 CALLDATASIZE SUB DUP2 ADD SWAP1 PUSH2 0x7D SWAP2 SWAP1 PUSH2 0x546 JUMP JUMPDEST PUSH2 0xAA JUMP JUMPDEST PUSH1 0x40 MLOAD PUSH2 0x8F SWAP2 SWAP1 PUSH2 0x5D6 JUMP JUMPDEST PUSH1 0x40 MLOAD DUP1 SWAP2 SUB SWAP1 RETURN JUMPDEST PUSH1 0x60 PUSH2 0xA3 DUP3 PUSH2 0xC6 JUMP JUMPDEST SWAP1 POP SWAP2 SWAP1 POP JUMP JUMPDEST PUSH0 PUSH2 0xBE DUP3 DUP5 PUSH2 0x190 SWAP1 SWAP2 SWAP1 PUSH4 0xFFFFFFFF AND JUMP JUMPDEST SWAP1 POP SWAP3 SWAP2 POP POP JUMP JUMPDEST PUSH1 0x60 PUSH0 PUSH1 0x1 PUSH2 0xD4 DUP5 PUSH2 0x1A3 JUMP JUMPDEST ADD SWAP1 POP PUSH0 DUP2 PUSH8 0xFFFFFFFFFFFFFFFF DUP2 GT ISZERO PUSH2 0xF2 JUMPI PUSH2 0xF1 PUSH2 0x422 JUMP JUMPDEST JUMPDEST PUSH1 0x40 MLOAD SWAP1 DUP1 DUP3 MSTORE DUP1 PUSH1 0x1F ADD PUSH1 0x1F NOT AND PUSH1 0x20 ADD DUP3 ADD PUSH1 0x40 MSTORE DUP1 ISZERO PUSH2 0x124 JUMPI DUP2 PUSH1 0x20 ADD PUSH1 0x1 DUP3 MUL DUP1 CALLDATASIZE DUP4 CALLDATACOPY DUP1 DUP3 ADD SWAP2 POP POP SWAP1 POP JUMPDEST POP SWAP1 POP PUSH0 DUP3 PUSH1 0x20 DUP4 ADD ADD SWAP1 POP JUMPDEST PUSH1 0x1 ISZERO PUSH2 0x185 JUMPI DUP1 DUP1 PUSH1 0x1 SWAP1 SUB SWAP2 POP POP PUSH32 0x3031323334353637383961626364656600000000000000000000000000000000 PUSH1 0xA DUP7 MOD BYTE DUP2 MSTORE8 PUSH1 0xA DUP6 DUP2 PUSH2 0x17A JUMPI PUSH2 0x179 PUSH2 0x5EF JUMP JUMPDEST JUMPDEST DIV SWAP5 POP PUSH0 DUP6 SUB PUSH2 0x131 JUMPI JUMPDEST DUP2 SWAP4 POP POP POP POP SWAP2 SWAP1 POP JUMP JUMPDEST PUSH0 PUSH2 0x19B DUP4 DUP4 PUSH2 0x2F4 JUMP JUMPDEST SWAP1 POP SWAP3 SWAP2 POP POP JUMP JUMPDEST PUSH0 PUSH0 PUSH0 SWAP1 POP PUSH27 0x184F03E93FF9F4DAA797ED6E38ED64BF6A1F010000000000000000 DUP4 LT PUSH2 0x1FF JUMPI PUSH27 0x184F03E93FF9F4DAA797ED6E38ED64BF6A1F010000000000000000 DUP4 DUP2 PUSH2 0x1F5 JUMPI PUSH2 0x1F4 PUSH2 0x5EF JUMP JUMPDEST JUMPDEST DIV SWAP3 POP PUSH1 0x40 DUP2 ADD SWAP1 POP JUMPDEST PUSH14 0x4EE2D6D415B85ACEF8100000000 DUP4 LT PUSH2 0x23C JUMPI PUSH14 0x4EE2D6D415B85ACEF8100000000 DUP4 DUP2 PUSH2 0x232 JUMPI PUSH2 0x231 PUSH2 0x5EF JUMP JUMPDEST JUMPDEST DIV SWAP3 POP PUSH1 0x20 DUP2 ADD SWAP1 POP JUMPDEST PUSH7 0x2386F26FC10000 DUP4 LT PUSH2 0x26B JUMPI PUSH7 0x2386F26FC10000 DUP4 DUP2 PUSH2 0x261 JUMPI PUSH2 0x260 PUSH2 0x5EF JUMP JUMPDEST JUMPDEST DIV SWAP3 POP PUSH1 0x10 DUP2 ADD SWAP1 POP JUMPDEST PUSH4 0x5F5E100 DUP4 LT PUSH2 0x294 JUMPI PUSH4 0x5F5E100 DUP4 DUP2 PUSH2 0x28A JUMPI PUSH2 0x289 PUSH2 0x5EF JUMP JUMPDEST JUMPDEST DIV SWAP3 POP PUSH1 0x8 DUP2 ADD SWAP1 POP JUMPDEST PUSH2 0x2710 DUP4 LT PUSH2 0x2B9 JUMPI PUSH2 0x2710 DUP4 DUP2 PUSH2 0x2AF JUMPI PUSH2 0x2AE PUSH2 0x5EF JUMP JUMPDEST JUMPDEST DIV SWAP3 POP PUSH1 0x4 DUP2 ADD SWAP1 POP JUMPDEST PUSH1 0x64 DUP4 LT PUSH2 0x2DC JUMPI PUSH1 0x64 DUP4 DUP2 PUSH2 0x2D2 JUMPI PUSH2 0x2D1 PUSH2 0x5EF JUMP JUMPDEST JUMPDEST DIV SWAP3 POP PUSH1 0x2 DUP2 ADD SWAP1 POP JUMPDEST PUSH1 0xA DUP4 LT PUSH2 0x2EB JUMPI PUSH1 0x1 DUP2 ADD SWAP1 POP JUMPDEST DUP1 SWAP2 POP POP SWAP2 SWAP1 POP JUMP JUMPDEST PUSH0 DUP2 MLOAD DUP4 MLOAD EQ DUP1 ISZERO PUSH2 0x313 JUMPI POP DUP2 DUP1 MLOAD SWAP1 PUSH1 0x20 ADD KECCAK256 DUP4 DUP1 MLOAD SWAP1 PUSH1 0x20 ADD KECCAK256 EQ JUMPDEST SWAP1 POP SWAP3 SWAP2 POP POP JUMP JUMPDEST PUSH0 PUSH1 0x40 MLOAD SWAP1 POP SWAP1 JUMP JUMPDEST PUSH0 PUSH0 REVERT JUMPDEST PUSH0 PUSH0 REVERT JUMPDEST PUSH0 DUP2 SWAP1 POP SWAP2 SWAP1 POP JUMP JUMPDEST PUSH2 0x33E DUP2 PUSH2 0x32C JUMP JUMPDEST DUP2 EQ PUSH2 0x348 JUMPI PUSH0 PUSH0 REVERT JUMPDEST POP JUMP JUMPDEST PUSH0 DUP2 CALLDATALOAD SWAP1 POP PUSH2 0x359 DUP2 PUSH2 0x335 JUMP JUMPDEST SWAP3 SWAP2 POP POP JUMP JUMPDEST PUSH0 PUSH1 0x20 DUP3 DUP5 SUB SLT ISZERO PUSH2 0x374 JUMPI PUSH2 0x373 PUSH2 0x324 JUMP JUMPDEST JUMPDEST PUSH0 PUSH2 0x381 DUP5 DUP3 DUP6 ADD PUSH2 0x34B JUMP JUMPDEST SWAP2 POP POP SWAP3 SWAP2 POP POP JUMP JUMPDEST PUSH0 DUP2 MLOAD SWAP1 POP SWAP2 SWAP1 POP JUMP JUMPDEST PUSH0 DUP3 DUP3 MSTORE PUSH1 0x20 DUP3 ADD SWAP1 POP SWAP3 SWAP2 POP POP JUMP JUMPDEST DUP3 DUP2 DUP4 MCOPY PUSH0 DUP4 DUP4 ADD MSTORE POP POP POP JUMP JUMPDEST PUSH0 PUSH1 0x1F NOT PUSH1 0x1F DUP4 ADD AND SWAP1 POP SWAP2 SWAP1 POP JUMP JUMPDEST PUSH0 PUSH2 0x3CC DUP3 PUSH2 0x38A JUMP JUMPDEST PUSH2 0x3D6 DUP2 DUP6 PUSH2 0x394 JUMP JUMPDEST SWAP4 POP PUSH2 0x3E6 DUP2 DUP6 PUSH1 0x20 DUP7 ADD PUSH2 0x3A4 JUMP JUMPDEST PUSH2 0x3EF DUP2 PUSH2 0x3B2 JUMP JUMPDEST DUP5 ADD SWAP2 POP POP SWAP3 SWAP2 POP POP JUMP JUMPDEST PUSH0 PUSH1 0x20 DUP3 ADD SWAP1 POP DUP2 DUP2 SUB PUSH0 DUP4 ADD MSTORE PUSH2 0x412 DUP2 DUP5 PUSH2 0x3C2 JUMP JUMPDEST SWAP1 POP SWAP3 SWAP2 POP POP JUMP JUMPDEST PUSH0 PUSH0 REVERT JUMPDEST PUSH0 PUSH0 REVERT JUMPDEST PUSH32 0x4E487B7100000000000000000000000000000000000000000000000000000000 PUSH0 MSTORE PUSH1 0x41 PUSH1 0x4 MSTORE PUSH1 0x24 PUSH0 REVERT JUMPDEST PUSH2 0x458 DUP3 PUSH2 0x3B2 JUMP JUMPDEST DUP2 ADD DUP2 DUP2 LT PUSH8 0xFFFFFFFFFFFFFFFF DUP3 GT OR ISZERO PUSH2 0x477 JUMPI PUSH2 0x476 PUSH2 0x422 JUMP JUMPDEST JUMPDEST DUP1 PUSH1 0x40 MSTORE POP POP POP JUMP JUMPDEST PUSH0 PUSH2 0x489 PUSH2 0x31B JUMP JUMPDEST SWAP1 POP PUSH2 0x495 DUP3 DUP3 PUSH2 0x44F JUMP JUMPDEST SWAP2 SWAP1 POP JUMP JUMPDEST PUSH0 PUSH8 0xFFFFFFFFFFFFFFFF DUP3 GT ISZERO PUSH2 0x4B4 JUMPI PUSH2 0x4B3 PUSH2 0x422 JUMP JUMPDEST JUMPDEST PUSH2 0x4BD DUP3 PUSH2 0x3B2 JUMP JUMPDEST SWAP1 POP PUSH1 0x20 DUP2 ADD SWAP1 POP SWAP2 SWAP1 POP JUMP JUMPDEST DUP3 DUP2 DUP4 CALLDATACOPY PUSH0 DUP4 DUP4 ADD MSTORE POP POP POP JUMP JUMPDEST PUSH0 PUSH2 0x4EA PUSH2 0x4E5 DUP5 PUSH2 0x49A JUMP JUMPDEST PUSH2 0x480 JUMP JUMPDEST SWAP1 POP DUP3 DUP2 MSTORE PUSH1 0x20 DUP2 ADD DUP5 DUP5 DUP5 ADD GT ISZERO PUSH2 0x506 JUMPI PUSH2 0x505 PUSH2 0x41E JUMP JUMPDEST JUMPDEST PUSH2 0x511 DUP5 DUP3 DUP6 PUSH2 0x4CA JUMP JUMPDEST POP SWAP4 SWAP3 POP POP POP JUMP JUMPDEST PUSH0 DUP3 PUSH1 0x1F DUP4 ADD SLT PUSH2 0x52D JUMPI PUSH2 0x52C PUSH2 0x41A JUMP JUMPDEST JUMPDEST DUP2 CALLDATALOAD PUSH2 0x53D DUP5 DUP3 PUSH1 0x20 DUP7 ADD PUSH2 0x4D8 JUMP JUMPDEST SWAP2 POP POP SWAP3 SWAP2 POP POP JUMP JUMPDEST PUSH0 PUSH0 PUSH1 0x40 DUP4 DUP6 SUB SLT ISZERO PUSH2 0x55C JUMPI PUSH2 0x55B PUSH2 0x324 JUMP JUMPDEST JUMPDEST PUSH0 DUP4 ADD CALLDATALOAD PUSH8 0xFFFFFFFFFFFFFFFF DUP2 GT ISZERO PUSH2 0x579 JUMPI PUSH2 0x578 PUSH2 0x328 JUMP JUMPDEST JUMPDEST PUSH2 0x585 DUP6 DUP3 DUP7 ADD PUSH2 0x519 JUMP JUMPDEST SWAP3 POP POP PUSH1 0x20 DUP4 ADD CALLDATALOAD PUSH8 0xFFFFFFFFFFFFFFFF DUP2 GT ISZERO PUSH2 0x5A6 JUMPI PUSH2 0x5A5 PUSH2 0x328 JUMP JUMPDEST JUMPDEST PUSH2 0x5B2 DUP6 DUP3 DUP7 ADD PUSH2 0x519 JUMP JUMPDEST SWAP2 POP POP SWAP3 POP SWAP3 SWAP1 POP JUMP JUMPDEST PUSH0 DUP2 ISZERO ISZERO SWAP1 POP SWAP2 SWAP1 POP JUMP JUMPDEST PUSH2 0x5D0 DUP2 PUSH2 0x5BC JUMP JUMPDEST DUP3 MSTORE POP POP JUMP JUMPDEST PUSH0 PUSH1 0x20 DUP3 ADD SWAP1 POP PUSH2 0x5E9 PUSH0 DUP4 ADD DUP5 PUSH2 0x5C7 JUMP JUMPDEST SWAP3 SWAP2 POP POP JUMP JUMPDEST PUSH32 0x4E487B7100000000000000000000000000000000000000000000000000000000 PUSH0 MSTORE PUSH1 0x12 PUSH1 0x4 MSTORE PUSH1 0x24 PUSH0 REVERT INVALID LOG2 PUSH5 0x6970667358 0x22 SLT KECCAK256 0xAC 0xBE PUSH4 0x8AC431E8 BASEFEE JUMP ADD 0xCC MSIZE PUSH15 0x636FD2AFE9ACA50A8ACBE4714AD187 BLOCKHASH SIGNEXTEND PUSH15 0x7864736F6C63430008220033000000 "
				},
				"gasEstimates": {
					"creation": {
						"codeDepositCost": "323600",
						"executionCost": "360",
						"totalCost": "323960"
					},
					"external": {
						"compreTwoString(string,string)": "infinite",
						"numberToString(uint256)": "infinite"
					}
				},
				"methodIdentifiers": {
					"compreTwoString(string,string)": "b9475278",
					"numberToString(uint256)": "170dc660"
				}
			},
			"storageLayout": {
				"storage": [],
				"types": null
			},
			"userdoc": {
				"kind": "user",
				"methods": {},
				"version": 1
			}
		}
	}
}