{
	"lession7.1-Event/OrderSystem.sol": {
		"OrderSystem": {
			"abi": [
				{
					"anonymous": false,
					"inputs": [
						{
							"indexed": true,
							"internalType": "uint256",
							"name": "orderId",
							"type": "uint256"
						},
						{
							"indexed": true,
							"internalType": "address",
							"name": "canceller",
							"type": "address"
						},
						{
							"indexed": false,
							"internalType": "string",
							"name": "reason",
							"type": "string"
						},
						{
							"indexed": false,
							"internalType": "uint256",
							"name": "timestamp",
							"type": "uint256"
						}
					],
					"name": "OrderCanncelled",
					"type": "event"
				},
				{
					"anonymous": false,
					"inputs": [
						{
							"indexed": true,
							"internalType": "uint256",
							"name": "orderId",
							"type": "uint256"
						},
						{
							"indexed": true,
							"internalType": "address",
							"name": "buyer",
							"type": "address"
						},
						{
							"indexed": false,
							"internalType": "uint256",
							"name": "timestamp",
							"type": "uint256"
						}
					],
					"name": "OrderCompleted",
					"type": "event"
				},
				{
					"anonymous": false,
					"inputs": [
						{
							"indexed": true,
							"internalType": "uint256",
							"name": "orderId",
							"type": "uint256"
						},
						{
							"indexed": true,
							"internalType": "address",
							"name": "buyer",
							"type": "address"
						},
						{
							"indexed": false,
							"internalType": "uint256",
							"name": "amount",
							"type": "uint256"
						},
						{
							"indexed": false,
							"internalType": "uint256",
							"name": "timestamp",
							"type": "uint256"
						}
					],
					"name": "OrderCreated",
					"type": "event"
				},
				{
					"anonymous": false,
					"inputs": [
						{
							"indexed": true,
							"internalType": "uint256",
							"name": "orderId",
							"type": "uint256"
						},
						{
							"indexed": true,
							"internalType": "address",
							"name": "buyer",
							"type": "address"
						},
						{
							"indexed": false,
							"internalType": "uint256",
							"name": "amount",
							"type": "uint256"
						},
						{
							"indexed": false,
							"internalType": "uint256",
							"name": "timestamp",
							"type": "uint256"
						}
					],
					"name": "OrderPaid",
					"type": "event"
				},
				{
					"anonymous": false,
					"inputs": [
						{
							"indexed": true,
							"internalType": "uint256",
							"name": "orderId",
							"type": "uint256"
						},
						{
							"indexed": false,
							"internalType": "uint256",
							"name": "timestamp",
							"type": "uint256"
						}
					],
					"name": "OrderShipped",
					"type": "event"
				},
				{
					"inputs": [
						{
							"internalType": "uint256",
							"name": "orderId",
							"type": "uint256"
						}
					],
					"name": "canncelOrder",
					"outputs": [],
					"stateMutability": "nonpayable",
					"type": "function"
				},
				{
					"inputs": [
						{
							"internalType": "uint256",
							"name": "orderId",
							"type": "uint256"
						}
					],
					"name": "completeOrder",
					"outputs": [],
					"stateMutability": "nonpayable",
					"type": "function"
				},
				{
					"inputs": [],
					"name": "createOrder",
					"outputs": [
						{
							"internalType": "uint256",
							"name": "",
							"type": "uint256"
						}
					],
					"stateMutability": "payable",
					"type": "function"
				},
				{
					"inputs": [],
					"name": "orderCount",
					"outputs": [
						{
							"internalType": "uint256",
							"name": "",
							"type": "uint256"
						}
					],
					"stateMutability": "view",
					"type": "function"
				},
				{
					"inputs": [
						{
							"internalType": "uint256",
							"name": "",
							"type": "uint256"
						}
					],
					"name": "orders",
					"outputs": [
						{
							"internalType": "address",
							"name": "buyer",
							"type": "address"
						},
						{
							"internalType": "uint256",
							"name": "amount",
							"type": "uint256"
						},
						{
							"internalType": "enum OrderSystem.OrderStatus",
							"name": "status",
							"type": "uint8"
						},
						{
							"internalType": "uint256",
							"name": "createdAt",
							"type": "uint256"
						}
					],
					"stateMutability": "view",
					"type": "function"
				},
				{
					"inputs": [
						{
							"internalType": "uint256",
							"name": "orderId",
							"type": "uint256"
						}
					],
					"name": "pay",
					"outputs": [],
					"stateMutability": "nonpayable",
					"type": "function"
				},
				{
					"inputs": [
						{
							"internalType": "uint256",
							"name": "orderId",
							"type": "uint256"
						}
					],
					"name": "shipOrder",
					"outputs": [],
					"stateMutability": "nonpayable",
					"type": "function"
				}
			],
			"devdoc": {
				"kind": "dev",
				"methods": {},
				"version": 1
			},
			"evm": {
				"assembly": "    /* \"lession7.1-Event/OrderSystem.sol\":374:3616  contract OrderSystem {... */\n  mstore(0x40, 0x80)\n    /* \"lession7.1-Event/OrderSystem.sol\":675:676  0 */\n  0x00\n    /* \"lession7.1-Event/OrderSystem.sol\":650:676  uint public orderCount = 0 */\n  0x01\n  sstore\n    /* \"lession7.1-Event/OrderSystem.sol\":374:3616  contract OrderSystem {... */\n  callvalue\n  dup1\n  iszero\n  tag_1\n  jumpi\n  revert(0x00, 0x00)\ntag_1:\n  pop\n  dataSize(sub_0)\n  dup1\n  dataOffset(sub_0)\n  0x00\n  codecopy\n  0x00\n  return\nstop\n\nsub_0: assembly {\n        /* \"lession7.1-Event/OrderSystem.sol\":374:3616  contract OrderSystem {... */\n      mstore(0x40, 0x80)\n      jumpi(tag_1, lt(calldatasize, 0x04))\n      shr(0xe0, calldataload(0x00))\n      dup1\n      0xa85c38ef\n      gt\n      tag_9\n      jumpi\n      dup1\n      0xa85c38ef\n      eq\n      tag_5\n      jumpi\n      dup1\n      0xb6adaaff\n      eq\n      tag_6\n      jumpi\n      dup1\n      0xc290d691\n      eq\n      tag_7\n      jumpi\n      dup1\n      0xdbc92f96\n      eq\n      tag_8\n      jumpi\n      jump(tag_1)\n    tag_9:\n      dup1\n      0x194c302c\n      eq\n      tag_2\n      jumpi\n      dup1\n      0x2453ffa8\n      eq\n      tag_3\n      jumpi\n      dup1\n      0x6512e6ec\n      eq\n      tag_4\n      jumpi\n    tag_1:\n      revert(0x00, 0x00)\n        /* \"lession7.1-Event/OrderSystem.sol\":2273:2570  function shipOrder(uint orderId) public isExist(orderId) {... */\n    tag_2:\n      callvalue\n      dup1\n      iszero\n      tag_10\n      jumpi\n      revert(0x00, 0x00)\n    tag_10:\n      pop\n      tag_11\n      0x04\n      dup1\n      calldatasize\n      sub\n      dup2\n      add\n      swap1\n      tag_12\n      swap2\n      swap1\n      tag_13\n      jump\t// in\n    tag_12:\n      tag_14\n      jump\t// in\n    tag_11:\n      stop\n        /* \"lession7.1-Event/OrderSystem.sol\":650:676  uint public orderCount = 0 */\n    tag_3:\n      callvalue\n      dup1\n      iszero\n      tag_15\n      jumpi\n      revert(0x00, 0x00)\n    tag_15:\n      pop\n      tag_16\n      tag_17\n      jump\t// in\n    tag_16:\n      mload(0x40)\n      tag_18\n      swap2\n      swap1\n      tag_19\n      jump\t// in\n    tag_18:\n      mload(0x40)\n      dup1\n      swap2\n      sub\n      swap1\n      return\n        /* \"lession7.1-Event/OrderSystem.sol\":1403:1905  function createOrder() public payable returns (uint) {... */\n    tag_4:\n      tag_20\n      tag_21\n      jump\t// in\n    tag_20:\n      mload(0x40)\n      tag_22\n      swap2\n      swap1\n      tag_19\n      jump\t// in\n    tag_22:\n      mload(0x40)\n      dup1\n      swap2\n      sub\n      swap1\n      return\n        /* \"lession7.1-Event/OrderSystem.sol\":606:643  mapping (uint => Order) public orders */\n    tag_5:\n      callvalue\n      dup1\n      iszero\n      tag_23\n      jumpi\n      revert(0x00, 0x00)\n    tag_23:\n      pop\n      tag_24\n      0x04\n      dup1\n      calldatasize\n      sub\n      dup2\n      add\n      swap1\n      tag_25\n      swap2\n      swap1\n      tag_13\n      jump\t// in\n    tag_25:\n      tag_26\n      jump\t// in\n    tag_24:\n      mload(0x40)\n      tag_27\n      swap5\n      swap4\n      swap3\n      swap2\n      swap1\n      tag_28\n      jump\t// in\n    tag_27:\n      mload(0x40)\n      dup1\n      swap2\n      sub\n      swap1\n      return\n        /* \"lession7.1-Event/OrderSystem.sol\":2599:2925  function completeOrder(uint orderId) public isExist(orderId) {... */\n    tag_6:\n      callvalue\n      dup1\n      iszero\n      tag_29\n      jumpi\n      revert(0x00, 0x00)\n    tag_29:\n      pop\n      tag_30\n      0x04\n      dup1\n      calldatasize\n      sub\n      dup2\n      add\n      swap1\n      tag_31\n      swap2\n      swap1\n      tag_13\n      jump\t// in\n    tag_31:\n      tag_32\n      jump\t// in\n    tag_30:\n      stop\n        /* \"lession7.1-Event/OrderSystem.sol\":1934:2250  function pay(uint orderId) public isExist(orderId) {... */\n    tag_7:\n      callvalue\n      dup1\n      iszero\n      tag_33\n      jumpi\n      revert(0x00, 0x00)\n    tag_33:\n      pop\n      tag_34\n      0x04\n      dup1\n      calldatasize\n      sub\n      dup2\n      add\n      swap1\n      tag_35\n      swap2\n      swap1\n      tag_13\n      jump\t// in\n    tag_35:\n      tag_36\n      jump\t// in\n    tag_34:\n      stop\n        /* \"lession7.1-Event/OrderSystem.sol\":2954:3611  function canncelOrder(uint orderId) public isExist(orderId) {... */\n    tag_8:\n      callvalue\n      dup1\n      iszero\n      tag_37\n      jumpi\n      revert(0x00, 0x00)\n    tag_37:\n      pop\n      tag_38\n      0x04\n      dup1\n      calldatasize\n      sub\n      dup2\n      add\n      swap1\n      tag_39\n      swap2\n      swap1\n      tag_13\n      jump\t// in\n    tag_39:\n      tag_40\n      jump\t// in\n    tag_38:\n      stop\n        /* \"lession7.1-Event/OrderSystem.sol\":2273:2570  function shipOrder(uint orderId) public isExist(orderId) {... */\n    tag_14:\n        /* \"lession7.1-Event/OrderSystem.sol\":2321:2328  orderId */\n      dup1\n        /* \"lession7.1-Event/OrderSystem.sol\":1323:1333  orderCount */\n      sload(0x01)\n        /* \"lession7.1-Event/OrderSystem.sol\":1317:1319  id */\n      dup2\n        /* \"lession7.1-Event/OrderSystem.sol\":1317:1333  id <= orderCount */\n      gt\n      iszero\n        /* \"lession7.1-Event/OrderSystem.sol\":1309:1354  require(id <= orderCount, \"Order not exist!\") */\n      tag_42\n      jumpi\n      mload(0x40)\n      0x08c379a000000000000000000000000000000000000000000000000000000000\n      dup2\n      mstore\n      0x04\n      add\n      tag_43\n      swap1\n      tag_44\n      jump\t// in\n    tag_43:\n      mload(0x40)\n      dup1\n      swap2\n      sub\n      swap1\n      revert\n    tag_42:\n        /* \"lession7.1-Event/OrderSystem.sol\":2341:2360  Order storage order */\n      0x00\n        /* \"lession7.1-Event/OrderSystem.sol\":2363:2369  orders */\n      0x00\n        /* \"lession7.1-Event/OrderSystem.sol\":2363:2378  orders[orderId] */\n      0x00\n        /* \"lession7.1-Event/OrderSystem.sol\":2370:2377  orderId */\n      dup5\n        /* \"lession7.1-Event/OrderSystem.sol\":2363:2378  orders[orderId] */\n      dup2\n      mstore\n      0x20\n      add\n      swap1\n      dup2\n      mstore\n      0x20\n      add\n      0x00\n      keccak256\n        /* \"lession7.1-Event/OrderSystem.sol\":2341:2378  Order storage order = orders[orderId] */\n      swap1\n      pop\n        /* \"lession7.1-Event/OrderSystem.sol\":2413:2429  OrderStatus.Paid */\n      0x01\n        /* \"lession7.1-Event/OrderSystem.sol\":2397:2429  order.status == OrderStatus.Paid */\n      0x04\n      dup2\n      gt\n      iszero\n      tag_46\n      jumpi\n      tag_47\n      tag_48\n      jump\t// in\n    tag_47:\n    tag_46:\n        /* \"lession7.1-Event/OrderSystem.sol\":2397:2402  order */\n      dup2\n        /* \"lession7.1-Event/OrderSystem.sol\":2397:2409  order.status */\n      0x02\n      add\n      0x00\n      swap1\n      sload\n      swap1\n      0x0100\n      exp\n      swap1\n      div\n      0xff\n      and\n        /* \"lession7.1-Event/OrderSystem.sol\":2397:2429  order.status == OrderStatus.Paid */\n      0x04\n      dup2\n      gt\n      iszero\n      tag_49\n      jumpi\n      tag_50\n      tag_48\n      jump\t// in\n    tag_50:\n    tag_49:\n      eq\n        /* \"lession7.1-Event/OrderSystem.sol\":2389:2459  require(order.status == OrderStatus.Paid, \"Order status is not paid!\") */\n      tag_51\n      jumpi\n      mload(0x40)\n      0x08c379a000000000000000000000000000000000000000000000000000000000\n      dup2\n      mstore\n      0x04\n      add\n      tag_52\n      swap1\n      tag_53\n      jump\t// in\n    tag_52:\n      mload(0x40)\n      dup1\n      swap2\n      sub\n      swap1\n      revert\n    tag_51:\n        /* \"lession7.1-Event/OrderSystem.sol\":2487:2506  OrderStatus.Shipped */\n      0x02\n        /* \"lession7.1-Event/OrderSystem.sol\":2472:2477  order */\n      dup2\n        /* \"lession7.1-Event/OrderSystem.sol\":2472:2484  order.status */\n      0x02\n      add\n      0x00\n        /* \"lession7.1-Event/OrderSystem.sol\":2472:2506  order.status = OrderStatus.Shipped */\n      0x0100\n      exp\n      dup2\n      sload\n      dup2\n      0xff\n      mul\n      not\n      and\n      swap1\n      dup4\n      0x04\n      dup2\n      gt\n      iszero\n      tag_54\n      jumpi\n      tag_55\n      tag_48\n      jump\t// in\n    tag_55:\n    tag_54:\n      mul\n      or\n      swap1\n      sstore\n      pop\n        /* \"lession7.1-Event/OrderSystem.sol\":2537:2544  orderId */\n      dup3\n        /* \"lession7.1-Event/OrderSystem.sol\":2524:2562  OrderShipped(orderId, block.timestamp) */\n      0xd293cce49277a4dadc0edc7a4a30f89cb1d3bffcf9f52380f4f52525243ad7f9\n        /* \"lession7.1-Event/OrderSystem.sol\":2546:2561  block.timestamp */\n      timestamp\n        /* \"lession7.1-Event/OrderSystem.sol\":2524:2562  OrderShipped(orderId, block.timestamp) */\n      mload(0x40)\n      tag_56\n      swap2\n      swap1\n      tag_19\n      jump\t// in\n    tag_56:\n      mload(0x40)\n      dup1\n      swap2\n      sub\n      swap1\n      log2\n        /* \"lession7.1-Event/OrderSystem.sol\":2330:2570  {... */\n      pop\n        /* \"lession7.1-Event/OrderSystem.sol\":2273:2570  function shipOrder(uint orderId) public isExist(orderId) {... */\n      pop\n      pop\n      jump\t// out\n        /* \"lession7.1-Event/OrderSystem.sol\":650:676  uint public orderCount = 0 */\n    tag_17:\n      sload(0x01)\n      dup2\n      jump\t// out\n        /* \"lession7.1-Event/OrderSystem.sol\":1403:1905  function createOrder() public payable returns (uint) {... */\n    tag_21:\n        /* \"lession7.1-Event/OrderSystem.sol\":1450:1454  uint */\n      0x00\n        /* \"lession7.1-Event/OrderSystem.sol\":1487:1488  0 */\n      0x00\n        /* \"lession7.1-Event/OrderSystem.sol\":1475:1484  msg.value */\n      callvalue\n        /* \"lession7.1-Event/OrderSystem.sol\":1475:1488  msg.value > 0 */\n      gt\n        /* \"lession7.1-Event/OrderSystem.sol\":1467:1526  require(msg.value > 0, \"Amount must be greater than zero!\") */\n      tag_58\n      jumpi\n      mload(0x40)\n      0x08c379a000000000000000000000000000000000000000000000000000000000\n      dup2\n      mstore\n      0x04\n      add\n      tag_59\n      swap1\n      tag_60\n      jump\t// in\n    tag_59:\n      mload(0x40)\n      dup1\n      swap2\n      sub\n      swap1\n      revert\n    tag_58:\n        /* \"lession7.1-Event/OrderSystem.sol\":1539:1551  uint orderId */\n      0x00\n        /* \"lession7.1-Event/OrderSystem.sol\":1554:1564  orderCount */\n      0x01\n      0x00\n        /* \"lession7.1-Event/OrderSystem.sol\":1554:1566  orderCount++ */\n      dup2\n      sload\n      dup1\n      swap3\n      swap2\n      swap1\n      tag_61\n      swap1\n      tag_62\n      jump\t// in\n    tag_61:\n      swap2\n      swap1\n      pop\n      sstore\n        /* \"lession7.1-Event/OrderSystem.sol\":1539:1566  uint orderId = orderCount++ */\n      swap1\n      pop\n        /* \"lession7.1-Event/OrderSystem.sol\":1597:1762  Order({... */\n      mload(0x40)\n      dup1\n      0x80\n      add\n      0x40\n      mstore\n      dup1\n        /* \"lession7.1-Event/OrderSystem.sol\":1625:1635  msg.sender */\n      caller\n        /* \"lession7.1-Event/OrderSystem.sol\":1597:1762  Order({... */\n      0xffffffffffffffffffffffffffffffffffffffff\n      and\n      dup2\n      mstore\n      0x20\n      add\n        /* \"lession7.1-Event/OrderSystem.sol\":1658:1667  msg.value */\n      callvalue\n        /* \"lession7.1-Event/OrderSystem.sol\":1597:1762  Order({... */\n      dup2\n      mstore\n      0x20\n      add\n        /* \"lession7.1-Event/OrderSystem.sol\":1690:1709  OrderStatus.Created */\n      0x00\n        /* \"lession7.1-Event/OrderSystem.sol\":1597:1762  Order({... */\n      0x04\n      dup2\n      gt\n      iszero\n      tag_63\n      jumpi\n      tag_64\n      tag_48\n      jump\t// in\n    tag_64:\n    tag_63:\n      dup2\n      mstore\n      0x20\n      add\n        /* \"lession7.1-Event/OrderSystem.sol\":1735:1750  block.timestamp */\n      timestamp\n        /* \"lession7.1-Event/OrderSystem.sol\":1597:1762  Order({... */\n      dup2\n      mstore\n      pop\n        /* \"lession7.1-Event/OrderSystem.sol\":1579:1585  orders */\n      0x00\n        /* \"lession7.1-Event/OrderSystem.sol\":1579:1594  orders[orderId] */\n      0x00\n        /* \"lession7.1-Event/OrderSystem.sol\":1586:1593  orderId */\n      dup4\n        /* \"lession7.1-Event/OrderSystem.sol\":1579:1594  orders[orderId] */\n      dup2\n      mstore\n      0x20\n      add\n      swap1\n      dup2\n      mstore\n      0x20\n      add\n      0x00\n      keccak256\n        /* \"lession7.1-Event/OrderSystem.sol\":1579:1762  orders[orderId] = Order({... */\n      0x00\n      dup3\n      add\n      mload\n      dup2\n      0x00\n      add\n      exp(0x0100, 0x00)\n      dup2\n      sload\n      dup2\n      0xffffffffffffffffffffffffffffffffffffffff\n      mul\n      not\n      and\n      swap1\n      dup4\n      0xffffffffffffffffffffffffffffffffffffffff\n      and\n      mul\n      or\n      swap1\n      sstore\n      pop\n      0x20\n      dup3\n      add\n      mload\n      dup2\n      0x01\n      add\n      sstore\n      0x40\n      dup3\n      add\n      mload\n      dup2\n      0x02\n      add\n      exp(0x0100, 0x00)\n      dup2\n      sload\n      dup2\n      0xff\n      mul\n      not\n      and\n      swap1\n      dup4\n      0x04\n      dup2\n      gt\n      iszero\n      tag_65\n      jumpi\n      tag_66\n      tag_48\n      jump\t// in\n    tag_66:\n    tag_65:\n      mul\n      or\n      swap1\n      sstore\n      pop\n      0x60\n      dup3\n      add\n      mload\n      dup2\n      0x03\n      add\n      sstore\n      swap1\n      pop\n      pop\n        /* \"lession7.1-Event/OrderSystem.sol\":1833:1843  msg.sender */\n      caller\n        /* \"lession7.1-Event/OrderSystem.sol\":1811:1872  OrderCreated(orderId, msg.sender, msg.value, block.timestamp) */\n      0xffffffffffffffffffffffffffffffffffffffff\n      and\n        /* \"lession7.1-Event/OrderSystem.sol\":1824:1831  orderId */\n      dup2\n        /* \"lession7.1-Event/OrderSystem.sol\":1811:1872  OrderCreated(orderId, msg.sender, msg.value, block.timestamp) */\n      0xf7c110a6973307f2bc91245c2c06344ada13add2c1741e83ac5c0bb332bc85d5\n        /* \"lession7.1-Event/OrderSystem.sol\":1845:1854  msg.value */\n      callvalue\n        /* \"lession7.1-Event/OrderSystem.sol\":1856:1871  block.timestamp */\n      timestamp\n        /* \"lession7.1-Event/OrderSystem.sol\":1811:1872  OrderCreated(orderId, msg.sender, msg.value, block.timestamp) */\n      mload(0x40)\n      tag_67\n      swap3\n      swap2\n      swap1\n      tag_68\n      jump\t// in\n    tag_67:\n      mload(0x40)\n      dup1\n      swap2\n      sub\n      swap1\n      log3\n        /* \"lession7.1-Event/OrderSystem.sol\":1890:1897  orderId */\n      dup1\n        /* \"lession7.1-Event/OrderSystem.sol\":1883:1897  return orderId */\n      swap2\n      pop\n      pop\n        /* \"lession7.1-Event/OrderSystem.sol\":1403:1905  function createOrder() public payable returns (uint) {... */\n      swap1\n      jump\t// out\n        /* \"lession7.1-Event/OrderSystem.sol\":606:643  mapping (uint => Order) public orders */\n    tag_26:\n      mstore(0x20, 0x00)\n      dup1\n      0x00\n      mstore\n      keccak256(0x00, 0x40)\n      0x00\n      swap2\n      pop\n      swap1\n      pop\n      dup1\n      0x00\n      add\n      0x00\n      swap1\n      sload\n      swap1\n      0x0100\n      exp\n      swap1\n      div\n      0xffffffffffffffffffffffffffffffffffffffff\n      and\n      swap1\n      dup1\n      0x01\n      add\n      sload\n      swap1\n      dup1\n      0x02\n      add\n      0x00\n      swap1\n      sload\n      swap1\n      0x0100\n      exp\n      swap1\n      div\n      0xff\n      and\n      swap1\n      dup1\n      0x03\n      add\n      sload\n      swap1\n      pop\n      dup5\n      jump\t// out\n        /* \"lession7.1-Event/OrderSystem.sol\":2599:2925  function completeOrder(uint orderId) public isExist(orderId) {... */\n    tag_32:\n        /* \"lession7.1-Event/OrderSystem.sol\":2651:2658  orderId */\n      dup1\n        /* \"lession7.1-Event/OrderSystem.sol\":1323:1333  orderCount */\n      sload(0x01)\n        /* \"lession7.1-Event/OrderSystem.sol\":1317:1319  id */\n      dup2\n        /* \"lession7.1-Event/OrderSystem.sol\":1317:1333  id <= orderCount */\n      gt\n      iszero\n        /* \"lession7.1-Event/OrderSystem.sol\":1309:1354  require(id <= orderCount, \"Order not exist!\") */\n      tag_70\n      jumpi\n      mload(0x40)\n      0x08c379a000000000000000000000000000000000000000000000000000000000\n      dup2\n      mstore\n      0x04\n      add\n      tag_71\n      swap1\n      tag_44\n      jump\t// in\n    tag_71:\n      mload(0x40)\n      dup1\n      swap2\n      sub\n      swap1\n      revert\n    tag_70:\n        /* \"lession7.1-Event/OrderSystem.sol\":2671:2690  Order storage order */\n      0x00\n        /* \"lession7.1-Event/OrderSystem.sol\":2693:2699  orders */\n      0x00\n        /* \"lession7.1-Event/OrderSystem.sol\":2693:2708  orders[orderId] */\n      0x00\n        /* \"lession7.1-Event/OrderSystem.sol\":2700:2707  orderId */\n      dup5\n        /* \"lession7.1-Event/OrderSystem.sol\":2693:2708  orders[orderId] */\n      dup2\n      mstore\n      0x20\n      add\n      swap1\n      dup2\n      mstore\n      0x20\n      add\n      0x00\n      keccak256\n        /* \"lession7.1-Event/OrderSystem.sol\":2671:2708  Order storage order = orders[orderId] */\n      swap1\n      pop\n        /* \"lession7.1-Event/OrderSystem.sol\":2745:2764  OrderStatus.Shipped */\n      0x02\n        /* \"lession7.1-Event/OrderSystem.sol\":2729:2764  order.status == OrderStatus.Shipped */\n      0x04\n      dup2\n      gt\n      iszero\n      tag_73\n      jumpi\n      tag_74\n      tag_48\n      jump\t// in\n    tag_74:\n    tag_73:\n        /* \"lession7.1-Event/OrderSystem.sol\":2729:2734  order */\n      dup2\n        /* \"lession7.1-Event/OrderSystem.sol\":2729:2741  order.status */\n      0x02\n      add\n      0x00\n      swap1\n      sload\n      swap1\n      0x0100\n      exp\n      swap1\n      div\n      0xff\n      and\n        /* \"lession7.1-Event/OrderSystem.sol\":2729:2764  order.status == OrderStatus.Shipped */\n      0x04\n      dup2\n      gt\n      iszero\n      tag_75\n      jumpi\n      tag_76\n      tag_48\n      jump\t// in\n    tag_76:\n    tag_75:\n      eq\n        /* \"lession7.1-Event/OrderSystem.sol\":2721:2797  require(order.status == OrderStatus.Shipped, \"Order status is not shipped!\") */\n      tag_77\n      jumpi\n      mload(0x40)\n      0x08c379a000000000000000000000000000000000000000000000000000000000\n      dup2\n      mstore\n      0x04\n      add\n      tag_78\n      swap1\n      tag_79\n      jump\t// in\n    tag_78:\n      mload(0x40)\n      dup1\n      swap2\n      sub\n      swap1\n      revert\n    tag_77:\n        /* \"lession7.1-Event/OrderSystem.sol\":2825:2846  OrderStatus.Completed */\n      0x03\n        /* \"lession7.1-Event/OrderSystem.sol\":2810:2815  order */\n      dup2\n        /* \"lession7.1-Event/OrderSystem.sol\":2810:2822  order.status */\n      0x02\n      add\n      0x00\n        /* \"lession7.1-Event/OrderSystem.sol\":2810:2846  order.status = OrderStatus.Completed */\n      0x0100\n      exp\n      dup2\n      sload\n      dup2\n      0xff\n      mul\n      not\n      and\n      swap1\n      dup4\n      0x04\n      dup2\n      gt\n      iszero\n      tag_80\n      jumpi\n      tag_81\n      tag_48\n      jump\t// in\n    tag_81:\n    tag_80:\n      mul\n      or\n      swap1\n      sstore\n      pop\n        /* \"lession7.1-Event/OrderSystem.sol\":2888:2893  order */\n      dup1\n        /* \"lession7.1-Event/OrderSystem.sol\":2888:2899  order.buyer */\n      0x00\n      add\n      0x00\n      swap1\n      sload\n      swap1\n      0x0100\n      exp\n      swap1\n      div\n      0xffffffffffffffffffffffffffffffffffffffff\n      and\n        /* \"lession7.1-Event/OrderSystem.sol\":2864:2917  OrderCompleted(orderId, order.buyer, block.timestamp) */\n      0xffffffffffffffffffffffffffffffffffffffff\n      and\n        /* \"lession7.1-Event/OrderSystem.sol\":2879:2886  orderId */\n      dup4\n        /* \"lession7.1-Event/OrderSystem.sol\":2864:2917  OrderCompleted(orderId, order.buyer, block.timestamp) */\n      0xe542d9ced06ebf48c00dc3567a112897fa34963ecc9a6ebf2beba9bc70f56894\n        /* \"lession7.1-Event/OrderSystem.sol\":2901:2916  block.timestamp */\n      timestamp\n        /* \"lession7.1-Event/OrderSystem.sol\":2864:2917  OrderCompleted(orderId, order.buyer, block.timestamp) */\n      mload(0x40)\n      tag_82\n      swap2\n      swap1\n      tag_19\n      jump\t// in\n    tag_82:\n      mload(0x40)\n      dup1\n      swap2\n      sub\n      swap1\n      log3\n        /* \"lession7.1-Event/OrderSystem.sol\":2660:2925  {... */\n      pop\n        /* \"lession7.1-Event/OrderSystem.sol\":2599:2925  function completeOrder(uint orderId) public isExist(orderId) {... */\n      pop\n      pop\n      jump\t// out\n        /* \"lession7.1-Event/OrderSystem.sol\":1934:2250  function pay(uint orderId) public isExist(orderId) {... */\n    tag_36:\n        /* \"lession7.1-Event/OrderSystem.sol\":1976:1983  orderId */\n      dup1\n        /* \"lession7.1-Event/OrderSystem.sol\":1323:1333  orderCount */\n      sload(0x01)\n        /* \"lession7.1-Event/OrderSystem.sol\":1317:1319  id */\n      dup2\n        /* \"lession7.1-Event/OrderSystem.sol\":1317:1333  id <= orderCount */\n      gt\n      iszero\n        /* \"lession7.1-Event/OrderSystem.sol\":1309:1354  require(id <= orderCount, \"Order not exist!\") */\n      tag_84\n      jumpi\n      mload(0x40)\n      0x08c379a000000000000000000000000000000000000000000000000000000000\n      dup2\n      mstore\n      0x04\n      add\n      tag_85\n      swap1\n      tag_44\n      jump\t// in\n    tag_85:\n      mload(0x40)\n      dup1\n      swap2\n      sub\n      swap1\n      revert\n    tag_84:\n        /* \"lession7.1-Event/OrderSystem.sol\":1996:2015  Order storage order */\n      0x00\n        /* \"lession7.1-Event/OrderSystem.sol\":2018:2024  orders */\n      0x00\n        /* \"lession7.1-Event/OrderSystem.sol\":2018:2033  orders[orderId] */\n      0x00\n        /* \"lession7.1-Event/OrderSystem.sol\":2025:2032  orderId */\n      dup5\n        /* \"lession7.1-Event/OrderSystem.sol\":2018:2033  orders[orderId] */\n      dup2\n      mstore\n      0x20\n      add\n      swap1\n      dup2\n      mstore\n      0x20\n      add\n      0x00\n      keccak256\n        /* \"lession7.1-Event/OrderSystem.sol\":1996:2033  Order storage order = orders[orderId] */\n      swap1\n      pop\n        /* \"lession7.1-Event/OrderSystem.sol\":2068:2087  OrderStatus.Created */\n      0x00\n        /* \"lession7.1-Event/OrderSystem.sol\":2052:2087  order.status == OrderStatus.Created */\n      0x04\n      dup2\n      gt\n      iszero\n      tag_87\n      jumpi\n      tag_88\n      tag_48\n      jump\t// in\n    tag_88:\n    tag_87:\n        /* \"lession7.1-Event/OrderSystem.sol\":2052:2057  order */\n      dup2\n        /* \"lession7.1-Event/OrderSystem.sol\":2052:2064  order.status */\n      0x02\n      add\n      0x00\n      swap1\n      sload\n      swap1\n      0x0100\n      exp\n      swap1\n      div\n      0xff\n      and\n        /* \"lession7.1-Event/OrderSystem.sol\":2052:2087  order.status == OrderStatus.Created */\n      0x04\n      dup2\n      gt\n      iszero\n      tag_89\n      jumpi\n      tag_90\n      tag_48\n      jump\t// in\n    tag_90:\n    tag_89:\n      eq\n        /* \"lession7.1-Event/OrderSystem.sol\":2044:2111  require(order.status == OrderStatus.Created, \"Order status error!\") */\n      tag_91\n      jumpi\n      mload(0x40)\n      0x08c379a000000000000000000000000000000000000000000000000000000000\n      dup2\n      mstore\n      0x04\n      add\n      tag_92\n      swap1\n      tag_93\n      jump\t// in\n    tag_92:\n      mload(0x40)\n      dup1\n      swap2\n      sub\n      swap1\n      revert\n    tag_91:\n        /* \"lession7.1-Event/OrderSystem.sol\":2147:2163  OrderStatus.Paid */\n      0x01\n        /* \"lession7.1-Event/OrderSystem.sol\":2132:2137  order */\n      dup2\n        /* \"lession7.1-Event/OrderSystem.sol\":2132:2144  order.status */\n      0x02\n      add\n      0x00\n        /* \"lession7.1-Event/OrderSystem.sol\":2132:2163  order.status = OrderStatus.Paid */\n      0x0100\n      exp\n      dup2\n      sload\n      dup2\n      0xff\n      mul\n      not\n      and\n      swap1\n      dup4\n      0x04\n      dup2\n      gt\n      iszero\n      tag_94\n      jumpi\n      tag_95\n      tag_48\n      jump\t// in\n    tag_95:\n    tag_94:\n      mul\n      or\n      swap1\n      sstore\n      pop\n        /* \"lession7.1-Event/OrderSystem.sol\":2200:2210  msg.sender */\n      caller\n        /* \"lession7.1-Event/OrderSystem.sol\":2181:2242  OrderPaid(orderId, msg.sender,order.amount , block.timestamp) */\n      0xffffffffffffffffffffffffffffffffffffffff\n      and\n        /* \"lession7.1-Event/OrderSystem.sol\":2191:2198  orderId */\n      dup4\n        /* \"lession7.1-Event/OrderSystem.sol\":2181:2242  OrderPaid(orderId, msg.sender,order.amount , block.timestamp) */\n      0x1a9df17bc46d3a01929944669671ff9da8906ec5d59a9d0495ecb656c7673b62\n        /* \"lession7.1-Event/OrderSystem.sol\":2211:2216  order */\n      dup4\n        /* \"lession7.1-Event/OrderSystem.sol\":2211:2223  order.amount */\n      0x01\n      add\n      sload\n        /* \"lession7.1-Event/OrderSystem.sol\":2226:2241  block.timestamp */\n      timestamp\n        /* \"lession7.1-Event/OrderSystem.sol\":2181:2242  OrderPaid(orderId, msg.sender,order.amount , block.timestamp) */\n      mload(0x40)\n      tag_96\n      swap3\n      swap2\n      swap1\n      tag_68\n      jump\t// in\n    tag_96:\n      mload(0x40)\n      dup1\n      swap2\n      sub\n      swap1\n      log3\n        /* \"lession7.1-Event/OrderSystem.sol\":1985:2250  {... */\n      pop\n        /* \"lession7.1-Event/OrderSystem.sol\":1934:2250  function pay(uint orderId) public isExist(orderId) {... */\n      pop\n      pop\n      jump\t// out\n        /* \"lession7.1-Event/OrderSystem.sol\":2954:3611  function canncelOrder(uint orderId) public isExist(orderId) {... */\n    tag_40:\n        /* \"lession7.1-Event/OrderSystem.sol\":3005:3012  orderId */\n      dup1\n        /* \"lession7.1-Event/OrderSystem.sol\":1323:1333  orderCount */\n      sload(0x01)\n        /* \"lession7.1-Event/OrderSystem.sol\":1317:1319  id */\n      dup2\n        /* \"lession7.1-Event/OrderSystem.sol\":1317:1333  id <= orderCount */\n      gt\n      iszero\n        /* \"lession7.1-Event/OrderSystem.sol\":1309:1354  require(id <= orderCount, \"Order not exist!\") */\n      tag_98\n      jumpi\n      mload(0x40)\n      0x08c379a000000000000000000000000000000000000000000000000000000000\n      dup2\n      mstore\n      0x04\n      add\n      tag_99\n      swap1\n      tag_44\n      jump\t// in\n    tag_99:\n      mload(0x40)\n      dup1\n      swap2\n      sub\n      swap1\n      revert\n    tag_98:\n        /* \"lession7.1-Event/OrderSystem.sol\":3025:3044  Order storage order */\n      0x00\n        /* \"lession7.1-Event/OrderSystem.sol\":3047:3053  orders */\n      0x00\n        /* \"lession7.1-Event/OrderSystem.sol\":3047:3062  orders[orderId] */\n      0x00\n        /* \"lession7.1-Event/OrderSystem.sol\":3054:3061  orderId */\n      dup5\n        /* \"lession7.1-Event/OrderSystem.sol\":3047:3062  orders[orderId] */\n      dup2\n      mstore\n      0x20\n      add\n      swap1\n      dup2\n      mstore\n      0x20\n      add\n      0x00\n      keccak256\n        /* \"lession7.1-Event/OrderSystem.sol\":3025:3062  Order storage order = orders[orderId] */\n      swap1\n      pop\n        /* \"lession7.1-Event/OrderSystem.sol\":3099:3118  OrderStatus.Created */\n      0x00\n        /* \"lession7.1-Event/OrderSystem.sol\":3083:3118  order.status == OrderStatus.Created */\n      0x04\n      dup2\n      gt\n      iszero\n      tag_101\n      jumpi\n      tag_102\n      tag_48\n      jump\t// in\n    tag_102:\n    tag_101:\n        /* \"lession7.1-Event/OrderSystem.sol\":3083:3088  order */\n      dup2\n        /* \"lession7.1-Event/OrderSystem.sol\":3083:3095  order.status */\n      0x02\n      add\n      0x00\n      swap1\n      sload\n      swap1\n      0x0100\n      exp\n      swap1\n      div\n      0xff\n      and\n        /* \"lession7.1-Event/OrderSystem.sol\":3083:3118  order.status == OrderStatus.Created */\n      0x04\n      dup2\n      gt\n      iszero\n      tag_103\n      jumpi\n      tag_104\n      tag_48\n      jump\t// in\n    tag_104:\n    tag_103:\n      eq\n        /* \"lession7.1-Event/OrderSystem.sol\":3083:3154  order.status == OrderStatus.Created || order.status == OrderStatus.Paid */\n      dup1\n      tag_105\n      jumpi\n      pop\n        /* \"lession7.1-Event/OrderSystem.sol\":3138:3154  OrderStatus.Paid */\n      0x01\n        /* \"lession7.1-Event/OrderSystem.sol\":3122:3154  order.status == OrderStatus.Paid */\n      0x04\n      dup2\n      gt\n      iszero\n      tag_106\n      jumpi\n      tag_107\n      tag_48\n      jump\t// in\n    tag_107:\n    tag_106:\n        /* \"lession7.1-Event/OrderSystem.sol\":3122:3127  order */\n      dup2\n        /* \"lession7.1-Event/OrderSystem.sol\":3122:3134  order.status */\n      0x02\n      add\n      0x00\n      swap1\n      sload\n      swap1\n      0x0100\n      exp\n      swap1\n      div\n      0xff\n      and\n        /* \"lession7.1-Event/OrderSystem.sol\":3122:3154  order.status == OrderStatus.Paid */\n      0x04\n      dup2\n      gt\n      iszero\n      tag_108\n      jumpi\n      tag_109\n      tag_48\n      jump\t// in\n    tag_109:\n    tag_108:\n      eq\n        /* \"lession7.1-Event/OrderSystem.sol\":3083:3154  order.status == OrderStatus.Created || order.status == OrderStatus.Paid */\n    tag_105:\n        /* \"lession7.1-Event/OrderSystem.sol\":3075:3178  require(order.status == OrderStatus.Created || order.status == OrderStatus.Paid, \"Order status Error!\") */\n      tag_110\n      jumpi\n      mload(0x40)\n      0x08c379a000000000000000000000000000000000000000000000000000000000\n      dup2\n      mstore\n      0x04\n      add\n      tag_111\n      swap1\n      tag_112\n      jump\t// in\n    tag_111:\n      mload(0x40)\n      dup1\n      swap2\n      sub\n      swap1\n      revert\n    tag_110:\n        /* \"lession7.1-Event/OrderSystem.sol\":3212:3222  msg.sender */\n      caller\n        /* \"lession7.1-Event/OrderSystem.sol\":3197:3222  order.buyer == msg.sender */\n      0xffffffffffffffffffffffffffffffffffffffff\n      and\n        /* \"lession7.1-Event/OrderSystem.sol\":3197:3202  order */\n      dup2\n        /* \"lession7.1-Event/OrderSystem.sol\":3197:3208  order.buyer */\n      0x00\n      add\n      0x00\n      swap1\n      sload\n      swap1\n      0x0100\n      exp\n      swap1\n      div\n      0xffffffffffffffffffffffffffffffffffffffff\n      and\n        /* \"lession7.1-Event/OrderSystem.sol\":3197:3222  order.buyer == msg.sender */\n      0xffffffffffffffffffffffffffffffffffffffff\n      and\n      eq\n        /* \"lession7.1-Event/OrderSystem.sol\":3189:3254  require(order.buyer == msg.sender, \"Cannot cancel others order!\") */\n      tag_113\n      jumpi\n      mload(0x40)\n      0x08c379a000000000000000000000000000000000000000000000000000000000\n      dup2\n      mstore\n      0x04\n      add\n      tag_114\n      swap1\n      tag_115\n      jump\t// in\n    tag_114:\n      mload(0x40)\n      dup1\n      swap2\n      sub\n      swap1\n      revert\n    tag_113:\n        /* \"lession7.1-Event/OrderSystem.sol\":3294:3310  OrderStatus.Paid */\n      0x01\n        /* \"lession7.1-Event/OrderSystem.sol\":3278:3310  order.status == OrderStatus.Paid */\n      0x04\n      dup2\n      gt\n      iszero\n      tag_116\n      jumpi\n      tag_117\n      tag_48\n      jump\t// in\n    tag_117:\n    tag_116:\n        /* \"lession7.1-Event/OrderSystem.sol\":3278:3283  order */\n      dup2\n        /* \"lession7.1-Event/OrderSystem.sol\":3278:3290  order.status */\n      0x02\n      add\n      0x00\n      swap1\n      sload\n      swap1\n      0x0100\n      exp\n      swap1\n      div\n      0xff\n      and\n        /* \"lession7.1-Event/OrderSystem.sol\":3278:3310  order.status == OrderStatus.Paid */\n      0x04\n      dup2\n      gt\n      iszero\n      tag_118\n      jumpi\n      tag_119\n      tag_48\n      jump\t// in\n    tag_119:\n    tag_118:\n      sub\n        /* \"lession7.1-Event/OrderSystem.sol\":3274:3456  if (order.status == OrderStatus.Paid) {... */\n      tag_120\n      jumpi\n        /* \"lession7.1-Event/OrderSystem.sol\":3326:3338  bool success */\n      0x00\n        /* \"lession7.1-Event/OrderSystem.sol\":3351:3356  order */\n      dup2\n        /* \"lession7.1-Event/OrderSystem.sol\":3351:3362  order.buyer */\n      0x00\n      add\n      0x00\n      swap1\n      sload\n      swap1\n      0x0100\n      exp\n      swap1\n      div\n      0xffffffffffffffffffffffffffffffffffffffff\n      and\n        /* \"lession7.1-Event/OrderSystem.sol\":3343:3368  payable(order.buyer).call */\n      0xffffffffffffffffffffffffffffffffffffffff\n      and\n        /* \"lession7.1-Event/OrderSystem.sol\":3375:3380  order */\n      dup3\n        /* \"lession7.1-Event/OrderSystem.sol\":3375:3387  order.amount */\n      0x01\n      add\n      sload\n        /* \"lession7.1-Event/OrderSystem.sol\":3343:3392  payable(order.buyer).call{value:order.amount}(\"\") */\n      mload(0x40)\n      tag_121\n      swap1\n      tag_122\n      jump\t// in\n    tag_121:\n      0x00\n      mload(0x40)\n      dup1\n      dup4\n      sub\n      dup2\n      dup6\n      dup8\n      gas\n      call\n      swap3\n      pop\n      pop\n      pop\n      returndatasize\n      dup1\n      0x00\n      dup2\n      eq\n      tag_125\n      jumpi\n      mload(0x40)\n      swap2\n      pop\n      and(add(returndatasize, 0x3f), not(0x1f))\n      dup3\n      add\n      0x40\n      mstore\n      returndatasize\n      dup3\n      mstore\n      returndatasize\n      0x00\n      0x20\n      dup5\n      add\n      returndatacopy\n      jump(tag_124)\n    tag_125:\n      0x60\n      swap2\n      pop\n    tag_124:\n      pop\n        /* \"lession7.1-Event/OrderSystem.sol\":3325:3392  (bool success,) = payable(order.buyer).call{value:order.amount}(\"\") */\n      pop\n      swap1\n      pop\n        /* \"lession7.1-Event/OrderSystem.sol\":3413:3420  success */\n      dup1\n        /* \"lession7.1-Event/OrderSystem.sol\":3405:3444  require(success, \"Transaction failed!\") */\n      tag_126\n      jumpi\n      mload(0x40)\n      0x08c379a000000000000000000000000000000000000000000000000000000000\n      dup2\n      mstore\n      0x04\n      add\n      tag_127\n      swap1\n      tag_128\n      jump\t// in\n    tag_127:\n      mload(0x40)\n      dup1\n      swap2\n      sub\n      swap1\n      revert\n    tag_126:\n        /* \"lession7.1-Event/OrderSystem.sol\":3312:3456  {... */\n      pop\n        /* \"lession7.1-Event/OrderSystem.sol\":3274:3456  if (order.status == OrderStatus.Paid) {... */\n    tag_120:\n        /* \"lession7.1-Event/OrderSystem.sol\":3483:3504  OrderStatus.Cancelled */\n      0x04\n        /* \"lession7.1-Event/OrderSystem.sol\":3468:3473  order */\n      dup2\n        /* \"lession7.1-Event/OrderSystem.sol\":3468:3480  order.status */\n      0x02\n      add\n      0x00\n        /* \"lession7.1-Event/OrderSystem.sol\":3468:3504  order.status = OrderStatus.Cancelled */\n      0x0100\n      exp\n      dup2\n      sload\n      dup2\n      0xff\n      mul\n      not\n      and\n      swap1\n      dup4\n      0x04\n      dup2\n      gt\n      iszero\n      tag_129\n      jumpi\n      tag_130\n      tag_48\n      jump\t// in\n    tag_130:\n    tag_129:\n      mul\n      or\n      swap1\n      sstore\n      pop\n        /* \"lession7.1-Event/OrderSystem.sol\":3545:3555  msg.sender */\n      caller\n        /* \"lession7.1-Event/OrderSystem.sol\":3520:3603  OrderCanncelled(orderId, msg.sender, \"Don't want to buy anymore!\", block.timestamp) */\n      0xffffffffffffffffffffffffffffffffffffffff\n      and\n        /* \"lession7.1-Event/OrderSystem.sol\":3536:3543  orderId */\n      dup4\n        /* \"lession7.1-Event/OrderSystem.sol\":3520:3603  OrderCanncelled(orderId, msg.sender, \"Don't want to buy anymore!\", block.timestamp) */\n      0x45fec032814816ce45ab599b24095a38fc09432606b92c6c44131845be64cf64\n        /* \"lession7.1-Event/OrderSystem.sol\":3587:3602  block.timestamp */\n      timestamp\n        /* \"lession7.1-Event/OrderSystem.sol\":3520:3603  OrderCanncelled(orderId, msg.sender, \"Don't want to buy anymore!\", block.timestamp) */\n      mload(0x40)\n      tag_131\n      swap2\n      swap1\n      tag_132\n      jump\t// in\n    tag_131:\n      mload(0x40)\n      dup1\n      swap2\n      sub\n      swap1\n      log3\n        /* \"lession7.1-Event/OrderSystem.sol\":3014:3611  {... */\n      pop\n        /* \"lession7.1-Event/OrderSystem.sol\":2954:3611  function canncelOrder(uint orderId) public isExist(orderId) {... */\n      pop\n      pop\n      jump\t// out\n        /* \"#utility.yul\":88:205   */\n    tag_134:\n        /* \"#utility.yul\":197:198   */\n      0x00\n        /* \"#utility.yul\":194:195   */\n      0x00\n        /* \"#utility.yul\":187:199   */\n      revert\n        /* \"#utility.yul\":334:411   */\n    tag_136:\n        /* \"#utility.yul\":371:378   */\n      0x00\n        /* \"#utility.yul\":400:405   */\n      dup2\n        /* \"#utility.yul\":389:405   */\n      swap1\n      pop\n        /* \"#utility.yul\":334:411   */\n      swap2\n      swap1\n      pop\n      jump\t// out\n        /* \"#utility.yul\":417:539   */\n    tag_137:\n        /* \"#utility.yul\":490:514   */\n      tag_176\n        /* \"#utility.yul\":508:513   */\n      dup2\n        /* \"#utility.yul\":490:514   */\n      tag_136\n      jump\t// in\n    tag_176:\n        /* \"#utility.yul\":483:488   */\n      dup2\n        /* \"#utility.yul\":480:515   */\n      eq\n        /* \"#utility.yul\":470:533   */\n      tag_177\n      jumpi\n        /* \"#utility.yul\":529:530   */\n      0x00\n        /* \"#utility.yul\":526:527   */\n      0x00\n        /* \"#utility.yul\":519:531   */\n      revert\n        /* \"#utility.yul\":470:533   */\n    tag_177:\n        /* \"#utility.yul\":417:539   */\n      pop\n      jump\t// out\n        /* \"#utility.yul\":545:684   */\n    tag_138:\n        /* \"#utility.yul\":591:596   */\n      0x00\n        /* \"#utility.yul\":629:635   */\n      dup2\n        /* \"#utility.yul\":616:636   */\n      calldataload\n        /* \"#utility.yul\":607:636   */\n      swap1\n      pop\n        /* \"#utility.yul\":645:678   */\n      tag_179\n        /* \"#utility.yul\":672:677   */\n      dup2\n        /* \"#utility.yul\":645:678   */\n      tag_137\n      jump\t// in\n    tag_179:\n        /* \"#utility.yul\":545:684   */\n      swap3\n      swap2\n      pop\n      pop\n      jump\t// out\n        /* \"#utility.yul\":690:1019   */\n    tag_13:\n        /* \"#utility.yul\":749:755   */\n      0x00\n        /* \"#utility.yul\":798:800   */\n      0x20\n        /* \"#utility.yul\":786:795   */\n      dup3\n        /* \"#utility.yul\":777:784   */\n      dup5\n        /* \"#utility.yul\":773:796   */\n      sub\n        /* \"#utility.yul\":769:801   */\n      slt\n        /* \"#utility.yul\":766:885   */\n      iszero\n      tag_181\n      jumpi\n        /* \"#utility.yul\":804:883   */\n      tag_182\n      tag_134\n      jump\t// in\n    tag_182:\n        /* \"#utility.yul\":766:885   */\n    tag_181:\n        /* \"#utility.yul\":924:925   */\n      0x00\n        /* \"#utility.yul\":949:1002   */\n      tag_183\n        /* \"#utility.yul\":994:1001   */\n      dup5\n        /* \"#utility.yul\":985:991   */\n      dup3\n        /* \"#utility.yul\":974:983   */\n      dup6\n        /* \"#utility.yul\":970:992   */\n      add\n        /* \"#utility.yul\":949:1002   */\n      tag_138\n      jump\t// in\n    tag_183:\n        /* \"#utility.yul\":939:1002   */\n      swap2\n      pop\n        /* \"#utility.yul\":895:1012   */\n      pop\n        /* \"#utility.yul\":690:1019   */\n      swap3\n      swap2\n      pop\n      pop\n      jump\t// out\n        /* \"#utility.yul\":1025:1143   */\n    tag_139:\n        /* \"#utility.yul\":1112:1136   */\n      tag_185\n        /* \"#utility.yul\":1130:1135   */\n      dup2\n        /* \"#utility.yul\":1112:1136   */\n      tag_136\n      jump\t// in\n    tag_185:\n        /* \"#utility.yul\":1107:1110   */\n      dup3\n        /* \"#utility.yul\":1100:1137   */\n      mstore\n        /* \"#utility.yul\":1025:1143   */\n      pop\n      pop\n      jump\t// out\n        /* \"#utility.yul\":1149:1371   */\n    tag_19:\n        /* \"#utility.yul\":1242:1246   */\n      0x00\n        /* \"#utility.yul\":1280:1282   */\n      0x20\n        /* \"#utility.yul\":1269:1278   */\n      dup3\n        /* \"#utility.yul\":1265:1283   */\n      add\n        /* \"#utility.yul\":1257:1283   */\n      swap1\n      pop\n        /* \"#utility.yul\":1293:1364   */\n      tag_187\n        /* \"#utility.yul\":1361:1362   */\n      0x00\n        /* \"#utility.yul\":1350:1359   */\n      dup4\n        /* \"#utility.yul\":1346:1363   */\n      add\n        /* \"#utility.yul\":1337:1343   */\n      dup5\n        /* \"#utility.yul\":1293:1364   */\n      tag_139\n      jump\t// in\n    tag_187:\n        /* \"#utility.yul\":1149:1371   */\n      swap3\n      swap2\n      pop\n      pop\n      jump\t// out\n        /* \"#utility.yul\":1377:1503   */\n    tag_140:\n        /* \"#utility.yul\":1414:1421   */\n      0x00\n        /* \"#utility.yul\":1454:1496   */\n      0xffffffffffffffffffffffffffffffffffffffff\n        /* \"#utility.yul\":1447:1452   */\n      dup3\n        /* \"#utility.yul\":1443:1497   */\n      and\n        /* \"#utility.yul\":1432:1497   */\n      swap1\n      pop\n        /* \"#utility.yul\":1377:1503   */\n      swap2\n      swap1\n      pop\n      jump\t// out\n        /* \"#utility.yul\":1509:1605   */\n    tag_141:\n        /* \"#utility.yul\":1546:1553   */\n      0x00\n        /* \"#utility.yul\":1575:1599   */\n      tag_190\n        /* \"#utility.yul\":1593:1598   */\n      dup3\n        /* \"#utility.yul\":1575:1599   */\n      tag_140\n      jump\t// in\n    tag_190:\n        /* \"#utility.yul\":1564:1599   */\n      swap1\n      pop\n        /* \"#utility.yul\":1509:1605   */\n      swap2\n      swap1\n      pop\n      jump\t// out\n        /* \"#utility.yul\":1611:1729   */\n    tag_142:\n        /* \"#utility.yul\":1698:1722   */\n      tag_192\n        /* \"#utility.yul\":1716:1721   */\n      dup2\n        /* \"#utility.yul\":1698:1722   */\n      tag_141\n      jump\t// in\n    tag_192:\n        /* \"#utility.yul\":1693:1696   */\n      dup3\n        /* \"#utility.yul\":1686:1723   */\n      mstore\n        /* \"#utility.yul\":1611:1729   */\n      pop\n      pop\n      jump\t// out\n        /* \"#utility.yul\":1735:1915   */\n    tag_48:\n        /* \"#utility.yul\":1783:1860   */\n      0x4e487b7100000000000000000000000000000000000000000000000000000000\n        /* \"#utility.yul\":1780:1781   */\n      0x00\n        /* \"#utility.yul\":1773:1861   */\n      mstore\n        /* \"#utility.yul\":1880:1884   */\n      0x21\n        /* \"#utility.yul\":1877:1878   */\n      0x04\n        /* \"#utility.yul\":1870:1885   */\n      mstore\n        /* \"#utility.yul\":1904:1908   */\n      0x24\n        /* \"#utility.yul\":1901:1902   */\n      0x00\n        /* \"#utility.yul\":1894:1909   */\n      revert\n        /* \"#utility.yul\":1921:2039   */\n    tag_143:\n        /* \"#utility.yul\":2007:2008   */\n      0x05\n        /* \"#utility.yul\":2000:2005   */\n      dup2\n        /* \"#utility.yul\":1997:2009   */\n      lt\n        /* \"#utility.yul\":1987:2033   */\n      tag_195\n      jumpi\n        /* \"#utility.yul\":2013:2031   */\n      tag_196\n      tag_48\n      jump\t// in\n    tag_196:\n        /* \"#utility.yul\":1987:2033   */\n    tag_195:\n        /* \"#utility.yul\":1921:2039   */\n      pop\n      jump\t// out\n        /* \"#utility.yul\":2045:2182   */\n    tag_144:\n        /* \"#utility.yul\":2095:2102   */\n      0x00\n        /* \"#utility.yul\":2124:2129   */\n      dup2\n        /* \"#utility.yul\":2113:2129   */\n      swap1\n      pop\n        /* \"#utility.yul\":2130:2176   */\n      tag_198\n        /* \"#utility.yul\":2170:2175   */\n      dup3\n        /* \"#utility.yul\":2130:2176   */\n      tag_143\n      jump\t// in\n    tag_198:\n        /* \"#utility.yul\":2045:2182   */\n      swap2\n      swap1\n      pop\n      jump\t// out\n        /* \"#utility.yul\":2188:2325   */\n    tag_145:\n        /* \"#utility.yul\":2249:2258   */\n      0x00\n        /* \"#utility.yul\":2282:2319   */\n      tag_200\n        /* \"#utility.yul\":2313:2318   */\n      dup3\n        /* \"#utility.yul\":2282:2319   */\n      tag_144\n      jump\t// in\n    tag_200:\n        /* \"#utility.yul\":2269:2319   */\n      swap1\n      pop\n        /* \"#utility.yul\":2188:2325   */\n      swap2\n      swap1\n      pop\n      jump\t// out\n        /* \"#utility.yul\":2331:2484   */\n    tag_146:\n        /* \"#utility.yul\":2429:2477   */\n      tag_202\n        /* \"#utility.yul\":2471:2476   */\n      dup2\n        /* \"#utility.yul\":2429:2477   */\n      tag_145\n      jump\t// in\n    tag_202:\n        /* \"#utility.yul\":2424:2427   */\n      dup3\n        /* \"#utility.yul\":2417:2478   */\n      mstore\n        /* \"#utility.yul\":2331:2484   */\n      pop\n      pop\n      jump\t// out\n        /* \"#utility.yul\":2490:3065   */\n    tag_28:\n        /* \"#utility.yul\":2678:2682   */\n      0x00\n        /* \"#utility.yul\":2716:2719   */\n      0x80\n        /* \"#utility.yul\":2705:2714   */\n      dup3\n        /* \"#utility.yul\":2701:2720   */\n      add\n        /* \"#utility.yul\":2693:2720   */\n      swap1\n      pop\n        /* \"#utility.yul\":2730:2801   */\n      tag_204\n        /* \"#utility.yul\":2798:2799   */\n      0x00\n        /* \"#utility.yul\":2787:2796   */\n      dup4\n        /* \"#utility.yul\":2783:2800   */\n      add\n        /* \"#utility.yul\":2774:2780   */\n      dup8\n        /* \"#utility.yul\":2730:2801   */\n      tag_142\n      jump\t// in\n    tag_204:\n        /* \"#utility.yul\":2811:2883   */\n      tag_205\n        /* \"#utility.yul\":2879:2881   */\n      0x20\n        /* \"#utility.yul\":2868:2877   */\n      dup4\n        /* \"#utility.yul\":2864:2882   */\n      add\n        /* \"#utility.yul\":2855:2861   */\n      dup7\n        /* \"#utility.yul\":2811:2883   */\n      tag_139\n      jump\t// in\n    tag_205:\n        /* \"#utility.yul\":2893:2976   */\n      tag_206\n        /* \"#utility.yul\":2972:2974   */\n      0x40\n        /* \"#utility.yul\":2961:2970   */\n      dup4\n        /* \"#utility.yul\":2957:2975   */\n      add\n        /* \"#utility.yul\":2948:2954   */\n      dup6\n        /* \"#utility.yul\":2893:2976   */\n      tag_146\n      jump\t// in\n    tag_206:\n        /* \"#utility.yul\":2986:3058   */\n      tag_207\n        /* \"#utility.yul\":3054:3056   */\n      0x60\n        /* \"#utility.yul\":3043:3052   */\n      dup4\n        /* \"#utility.yul\":3039:3057   */\n      add\n        /* \"#utility.yul\":3030:3036   */\n      dup5\n        /* \"#utility.yul\":2986:3058   */\n      tag_139\n      jump\t// in\n    tag_207:\n        /* \"#utility.yul\":2490:3065   */\n      swap6\n      swap5\n      pop\n      pop\n      pop\n      pop\n      pop\n      jump\t// out\n        /* \"#utility.yul\":3071:3240   */\n    tag_147:\n        /* \"#utility.yul\":3155:3166   */\n      0x00\n        /* \"#utility.yul\":3189:3195   */\n      dup3\n        /* \"#utility.yul\":3184:3187   */\n      dup3\n        /* \"#utility.yul\":3177:3196   */\n      mstore\n        /* \"#utility.yul\":3229:3233   */\n      0x20\n        /* \"#utility.yul\":3224:3227   */\n      dup3\n        /* \"#utility.yul\":3220:3234   */\n      add\n        /* \"#utility.yul\":3205:3234   */\n      swap1\n      pop\n        /* \"#utility.yul\":3071:3240   */\n      swap3\n      swap2\n      pop\n      pop\n      jump\t// out\n        /* \"#utility.yul\":3246:3412   */\n    tag_148:\n        /* \"#utility.yul\":3386:3404   */\n      0x4f72646572206e6f742065786973742100000000000000000000000000000000\n        /* \"#utility.yul\":3382:3383   */\n      0x00\n        /* \"#utility.yul\":3374:3380   */\n      dup3\n        /* \"#utility.yul\":3370:3384   */\n      add\n        /* \"#utility.yul\":3363:3405   */\n      mstore\n        /* \"#utility.yul\":3246:3412   */\n      pop\n      jump\t// out\n        /* \"#utility.yul\":3418:3784   */\n    tag_149:\n        /* \"#utility.yul\":3560:3563   */\n      0x00\n        /* \"#utility.yul\":3581:3648   */\n      tag_211\n        /* \"#utility.yul\":3645:3647   */\n      0x10\n        /* \"#utility.yul\":3640:3643   */\n      dup4\n        /* \"#utility.yul\":3581:3648   */\n      tag_147\n      jump\t// in\n    tag_211:\n        /* \"#utility.yul\":3574:3648   */\n      swap2\n      pop\n        /* \"#utility.yul\":3657:3750   */\n      tag_212\n        /* \"#utility.yul\":3746:3749   */\n      dup3\n        /* \"#utility.yul\":3657:3750   */\n      tag_148\n      jump\t// in\n    tag_212:\n        /* \"#utility.yul\":3775:3777   */\n      0x20\n        /* \"#utility.yul\":3770:3773   */\n      dup3\n        /* \"#utility.yul\":3766:3778   */\n      add\n        /* \"#utility.yul\":3759:3778   */\n      swap1\n      pop\n        /* \"#utility.yul\":3418:3784   */\n      swap2\n      swap1\n      pop\n      jump\t// out\n        /* \"#utility.yul\":3790:4209   */\n    tag_44:\n        /* \"#utility.yul\":3956:3960   */\n      0x00\n        /* \"#utility.yul\":3994:3996   */\n      0x20\n        /* \"#utility.yul\":3983:3992   */\n      dup3\n        /* \"#utility.yul\":3979:3997   */\n      add\n        /* \"#utility.yul\":3971:3997   */\n      swap1\n      pop\n        /* \"#utility.yul\":4043:4052   */\n      dup2\n        /* \"#utility.yul\":4037:4041   */\n      dup2\n        /* \"#utility.yul\":4033:4053   */\n      sub\n        /* \"#utility.yul\":4029:4030   */\n      0x00\n        /* \"#utility.yul\":4018:4027   */\n      dup4\n        /* \"#utility.yul\":4014:4031   */\n      add\n        /* \"#utility.yul\":4007:4054   */\n      mstore\n        /* \"#utility.yul\":4071:4202   */\n      tag_214\n        /* \"#utility.yul\":4197:4201   */\n      dup2\n        /* \"#utility.yul\":4071:4202   */\n      tag_149\n      jump\t// in\n    tag_214:\n        /* \"#utility.yul\":4063:4202   */\n      swap1\n      pop\n        /* \"#utility.yul\":3790:4209   */\n      swap2\n      swap1\n      pop\n      jump\t// out\n        /* \"#utility.yul\":4215:4390   */\n    tag_150:\n        /* \"#utility.yul\":4355:4382   */\n      0x4f7264657220737461747573206973206e6f7420706169642100000000000000\n        /* \"#utility.yul\":4351:4352   */\n      0x00\n        /* \"#utility.yul\":4343:4349   */\n      dup3\n        /* \"#utility.yul\":4339:4353   */\n      add\n        /* \"#utility.yul\":4332:4383   */\n      mstore\n        /* \"#utility.yul\":4215:4390   */\n      pop\n      jump\t// out\n        /* \"#utility.yul\":4396:4762   */\n    tag_151:\n        /* \"#utility.yul\":4538:4541   */\n      0x00\n        /* \"#utility.yul\":4559:4626   */\n      tag_217\n        /* \"#utility.yul\":4623:4625   */\n      0x19\n        /* \"#utility.yul\":4618:4621   */\n      dup4\n        /* \"#utility.yul\":4559:4626   */\n      tag_147\n      jump\t// in\n    tag_217:\n        /* \"#utility.yul\":4552:4626   */\n      swap2\n      pop\n        /* \"#utility.yul\":4635:4728   */\n      tag_218\n        /* \"#utility.yul\":4724:4727   */\n      dup3\n        /* \"#utility.yul\":4635:4728   */\n      tag_150\n      jump\t// in\n    tag_218:\n        /* \"#utility.yul\":4753:4755   */\n      0x20\n        /* \"#utility.yul\":4748:4751   */\n      dup3\n        /* \"#utility.yul\":4744:4756   */\n      add\n        /* \"#utility.yul\":4737:4756   */\n      swap1\n      pop\n        /* \"#utility.yul\":4396:4762   */\n      swap2\n      swap1\n      pop\n      jump\t// out\n        /* \"#utility.yul\":4768:5187   */\n    tag_53:\n        /* \"#utility.yul\":4934:4938   */\n      0x00\n        /* \"#utility.yul\":4972:4974   */\n      0x20\n        /* \"#utility.yul\":4961:4970   */\n      dup3\n        /* \"#utility.yul\":4957:4975   */\n      add\n        /* \"#utility.yul\":4949:4975   */\n      swap1\n      pop\n        /* \"#utility.yul\":5021:5030   */\n      dup2\n        /* \"#utility.yul\":5015:5019   */\n      dup2\n        /* \"#utility.yul\":5011:5031   */\n      sub\n        /* \"#utility.yul\":5007:5008   */\n      0x00\n        /* \"#utility.yul\":4996:5005   */\n      dup4\n        /* \"#utility.yul\":4992:5009   */\n      add\n        /* \"#utility.yul\":4985:5032   */\n      mstore\n        /* \"#utility.yul\":5049:5180   */\n      tag_220\n        /* \"#utility.yul\":5175:5179   */\n      dup2\n        /* \"#utility.yul\":5049:5180   */\n      tag_151\n      jump\t// in\n    tag_220:\n        /* \"#utility.yul\":5041:5180   */\n      swap1\n      pop\n        /* \"#utility.yul\":4768:5187   */\n      swap2\n      swap1\n      pop\n      jump\t// out\n        /* \"#utility.yul\":5193:5413   */\n    tag_152:\n        /* \"#utility.yul\":5333:5367   */\n      0x416d6f756e74206d7573742062652067726561746572207468616e207a65726f\n        /* \"#utility.yul\":5329:5330   */\n      0x00\n        /* \"#utility.yul\":5321:5327   */\n      dup3\n        /* \"#utility.yul\":5317:5331   */\n      add\n        /* \"#utility.yul\":5310:5368   */\n      mstore\n        /* \"#utility.yul\":5402:5405   */\n      0x2100000000000000000000000000000000000000000000000000000000000000\n        /* \"#utility.yul\":5397:5399   */\n      0x20\n        /* \"#utility.yul\":5389:5395   */\n      dup3\n        /* \"#utility.yul\":5385:5400   */\n      add\n        /* \"#utility.yul\":5378:5406   */\n      mstore\n        /* \"#utility.yul\":5193:5413   */\n      pop\n      jump\t// out\n        /* \"#utility.yul\":5419:5785   */\n    tag_153:\n        /* \"#utility.yul\":5561:5564   */\n      0x00\n        /* \"#utility.yul\":5582:5649   */\n      tag_223\n        /* \"#utility.yul\":5646:5648   */\n      0x21\n        /* \"#utility.yul\":5641:5644   */\n      dup4\n        /* \"#utility.yul\":5582:5649   */\n      tag_147\n      jump\t// in\n    tag_223:\n        /* \"#utility.yul\":5575:5649   */\n      swap2\n      pop\n        /* \"#utility.yul\":5658:5751   */\n      tag_224\n        /* \"#utility.yul\":5747:5750   */\n      dup3\n        /* \"#utility.yul\":5658:5751   */\n      tag_152\n      jump\t// in\n    tag_224:\n        /* \"#utility.yul\":5776:5778   */\n      0x40\n        /* \"#utility.yul\":5771:5774   */\n      dup3\n        /* \"#utility.yul\":5767:5779   */\n      add\n        /* \"#utility.yul\":5760:5779   */\n      swap1\n      pop\n        /* \"#utility.yul\":5419:5785   */\n      swap2\n      swap1\n      pop\n      jump\t// out\n        /* \"#utility.yul\":5791:6210   */\n    tag_60:\n        /* \"#utility.yul\":5957:5961   */\n      0x00\n        /* \"#utility.yul\":5995:5997   */\n      0x20\n        /* \"#utility.yul\":5984:5993   */\n      dup3\n        /* \"#utility.yul\":5980:5998   */\n      add\n        /* \"#utility.yul\":5972:5998   */\n      swap1\n      pop\n        /* \"#utility.yul\":6044:6053   */\n      dup2\n        /* \"#utility.yul\":6038:6042   */\n      dup2\n        /* \"#utility.yul\":6034:6054   */\n      sub\n        /* \"#utility.yul\":6030:6031   */\n      0x00\n        /* \"#utility.yul\":6019:6028   */\n      dup4\n        /* \"#utility.yul\":6015:6032   */\n      add\n        /* \"#utility.yul\":6008:6055   */\n      mstore\n        /* \"#utility.yul\":6072:6203   */\n      tag_226\n        /* \"#utility.yul\":6198:6202   */\n      dup2\n        /* \"#utility.yul\":6072:6203   */\n      tag_153\n      jump\t// in\n    tag_226:\n        /* \"#utility.yul\":6064:6203   */\n      swap1\n      pop\n        /* \"#utility.yul\":5791:6210   */\n      swap2\n      swap1\n      pop\n      jump\t// out\n        /* \"#utility.yul\":6216:6396   */\n    tag_154:\n        /* \"#utility.yul\":6264:6341   */\n      0x4e487b7100000000000000000000000000000000000000000000000000000000\n        /* \"#utility.yul\":6261:6262   */\n      0x00\n        /* \"#utility.yul\":6254:6342   */\n      mstore\n        /* \"#utility.yul\":6361:6365   */\n      0x11\n        /* \"#utility.yul\":6358:6359   */\n      0x04\n        /* \"#utility.yul\":6351:6366   */\n      mstore\n        /* \"#utility.yul\":6385:6389   */\n      0x24\n        /* \"#utility.yul\":6382:6383   */\n      0x00\n        /* \"#utility.yul\":6375:6390   */\n      revert\n        /* \"#utility.yul\":6402:6635   */\n    tag_62:\n        /* \"#utility.yul\":6441:6444   */\n      0x00\n        /* \"#utility.yul\":6464:6488   */\n      tag_229\n        /* \"#utility.yul\":6482:6487   */\n      dup3\n        /* \"#utility.yul\":6464:6488   */\n      tag_136\n      jump\t// in\n    tag_229:\n        /* \"#utility.yul\":6455:6488   */\n      swap2\n      pop\n        /* \"#utility.yul\":6510:6576   */\n      0xffffffffffffffffffffffffffffffffffffffffffffffffffffffffffffffff\n        /* \"#utility.yul\":6503:6508   */\n      dup3\n        /* \"#utility.yul\":6500:6577   */\n      sub\n        /* \"#utility.yul\":6497:6600   */\n      tag_230\n      jumpi\n        /* \"#utility.yul\":6580:6598   */\n      tag_231\n      tag_154\n      jump\t// in\n    tag_231:\n        /* \"#utility.yul\":6497:6600   */\n    tag_230:\n        /* \"#utility.yul\":6627:6628   */\n      0x01\n        /* \"#utility.yul\":6620:6625   */\n      dup3\n        /* \"#utility.yul\":6616:6629   */\n      add\n        /* \"#utility.yul\":6609:6629   */\n      swap1\n      pop\n        /* \"#utility.yul\":6402:6635   */\n      swap2\n      swap1\n      pop\n      jump\t// out\n        /* \"#utility.yul\":6641:6973   */\n    tag_68:\n        /* \"#utility.yul\":6762:6766   */\n      0x00\n        /* \"#utility.yul\":6800:6802   */\n      0x40\n        /* \"#utility.yul\":6789:6798   */\n      dup3\n        /* \"#utility.yul\":6785:6803   */\n      add\n        /* \"#utility.yul\":6777:6803   */\n      swap1\n      pop\n        /* \"#utility.yul\":6813:6884   */\n      tag_233\n        /* \"#utility.yul\":6881:6882   */\n      0x00\n        /* \"#utility.yul\":6870:6879   */\n      dup4\n        /* \"#utility.yul\":6866:6883   */\n      add\n        /* \"#utility.yul\":6857:6863   */\n      dup6\n        /* \"#utility.yul\":6813:6884   */\n      tag_139\n      jump\t// in\n    tag_233:\n        /* \"#utility.yul\":6894:6966   */\n      tag_234\n        /* \"#utility.yul\":6962:6964   */\n      0x20\n        /* \"#utility.yul\":6951:6960   */\n      dup4\n        /* \"#utility.yul\":6947:6965   */\n      add\n        /* \"#utility.yul\":6938:6944   */\n      dup5\n        /* \"#utility.yul\":6894:6966   */\n      tag_139\n      jump\t// in\n    tag_234:\n        /* \"#utility.yul\":6641:6973   */\n      swap4\n      swap3\n      pop\n      pop\n      pop\n      jump\t// out\n        /* \"#utility.yul\":6979:7157   */\n    tag_155:\n        /* \"#utility.yul\":7119:7149   */\n      0x4f7264657220737461747573206973206e6f7420736869707065642100000000\n        /* \"#utility.yul\":7115:7116   */\n      0x00\n        /* \"#utility.yul\":7107:7113   */\n      dup3\n        /* \"#utility.yul\":7103:7117   */\n      add\n        /* \"#utility.yul\":7096:7150   */\n      mstore\n        /* \"#utility.yul\":6979:7157   */\n      pop\n      jump\t// out\n        /* \"#utility.yul\":7163:7529   */\n    tag_156:\n        /* \"#utility.yul\":7305:7308   */\n      0x00\n        /* \"#utility.yul\":7326:7393   */\n      tag_237\n        /* \"#utility.yul\":7390:7392   */\n      0x1c\n        /* \"#utility.yul\":7385:7388   */\n      dup4\n        /* \"#utility.yul\":7326:7393   */\n      tag_147\n      jump\t// in\n    tag_237:\n        /* \"#utility.yul\":7319:7393   */\n      swap2\n      pop\n        /* \"#utility.yul\":7402:7495   */\n      tag_238\n        /* \"#utility.yul\":7491:7494   */\n      dup3\n        /* \"#utility.yul\":7402:7495   */\n      tag_155\n      jump\t// in\n    tag_238:\n        /* \"#utility.yul\":7520:7522   */\n      0x20\n        /* \"#utility.yul\":7515:7518   */\n      dup3\n        /* \"#utility.yul\":7511:7523   */\n      add\n        /* \"#utility.yul\":7504:7523   */\n      swap1\n      pop\n        /* \"#utility.yul\":7163:7529   */\n      swap2\n      swap1\n      pop\n      jump\t// out\n        /* \"#utility.yul\":7535:7954   */\n    tag_79:\n        /* \"#utility.yul\":7701:7705   */\n      0x00\n        /* \"#utility.yul\":7739:7741   */\n      0x20\n        /* \"#utility.yul\":7728:7737   */\n      dup3\n        /* \"#utility.yul\":7724:7742   */\n      add\n        /* \"#utility.yul\":7716:7742   */\n      swap1\n      pop\n        /* \"#utility.yul\":7788:7797   */\n      dup2\n        /* \"#utility.yul\":7782:7786   */\n      dup2\n        /* \"#utility.yul\":7778:7798   */\n      sub\n        /* \"#utility.yul\":7774:7775   */\n      0x00\n        /* \"#utility.yul\":7763:7772   */\n      dup4\n        /* \"#utility.yul\":7759:7776   */\n      add\n        /* \"#utility.yul\":7752:7799   */\n      mstore\n        /* \"#utility.yul\":7816:7947   */\n      tag_240\n        /* \"#utility.yul\":7942:7946   */\n      dup2\n        /* \"#utility.yul\":7816:7947   */\n      tag_156\n      jump\t// in\n    tag_240:\n        /* \"#utility.yul\":7808:7947   */\n      swap1\n      pop\n        /* \"#utility.yul\":7535:7954   */\n      swap2\n      swap1\n      pop\n      jump\t// out\n        /* \"#utility.yul\":7960:8129   */\n    tag_157:\n        /* \"#utility.yul\":8100:8121   */\n      0x4f7264657220737461747573206572726f722100000000000000000000000000\n        /* \"#utility.yul\":8096:8097   */\n      0x00\n        /* \"#utility.yul\":8088:8094   */\n      dup3\n        /* \"#utility.yul\":8084:8098   */\n      add\n        /* \"#utility.yul\":8077:8122   */\n      mstore\n        /* \"#utility.yul\":7960:8129   */\n      pop\n      jump\t// out\n        /* \"#utility.yul\":8135:8501   */\n    tag_158:\n        /* \"#utility.yul\":8277:8280   */\n      0x00\n        /* \"#utility.yul\":8298:8365   */\n      tag_243\n        /* \"#utility.yul\":8362:8364   */\n      0x13\n        /* \"#utility.yul\":8357:8360   */\n      dup4\n        /* \"#utility.yul\":8298:8365   */\n      tag_147\n      jump\t// in\n    tag_243:\n        /* \"#utility.yul\":8291:8365   */\n      swap2\n      pop\n        /* \"#utility.yul\":8374:8467   */\n      tag_244\n        /* \"#utility.yul\":8463:8466   */\n      dup3\n        /* \"#utility.yul\":8374:8467   */\n      tag_157\n      jump\t// in\n    tag_244:\n        /* \"#utility.yul\":8492:8494   */\n      0x20\n        /* \"#utility.yul\":8487:8490   */\n      dup3\n        /* \"#utility.yul\":8483:8495   */\n      add\n        /* \"#utility.yul\":8476:8495   */\n      swap1\n      pop\n        /* \"#utility.yul\":8135:8501   */\n      swap2\n      swap1\n      pop\n      jump\t// out\n        /* \"#utility.yul\":8507:8926   */\n    tag_93:\n        /* \"#utility.yul\":8673:8677   */\n      0x00\n        /* \"#utility.yul\":8711:8713   */\n      0x20\n        /* \"#utility.yul\":8700:8709   */\n      dup3\n        /* \"#utility.yul\":8696:8714   */\n      add\n        /* \"#utility.yul\":8688:8714   */\n      swap1\n      pop\n        /* \"#utility.yul\":8760:8769   */\n      dup2\n        /* \"#utility.yul\":8754:8758   */\n      dup2\n        /* \"#utility.yul\":8750:8770   */\n      sub\n        /* \"#utility.yul\":8746:8747   */\n      0x00\n        /* \"#utility.yul\":8735:8744   */\n      dup4\n        /* \"#utility.yul\":8731:8748   */\n      add\n        /* \"#utility.yul\":8724:8771   */\n      mstore\n        /* \"#utility.yul\":8788:8919   */\n      tag_246\n        /* \"#utility.yul\":8914:8918   */\n      dup2\n        /* \"#utility.yul\":8788:8919   */\n      tag_158\n      jump\t// in\n    tag_246:\n        /* \"#utility.yul\":8780:8919   */\n      swap1\n      pop\n        /* \"#utility.yul\":8507:8926   */\n      swap2\n      swap1\n      pop\n      jump\t// out\n        /* \"#utility.yul\":8932:9101   */\n    tag_159:\n        /* \"#utility.yul\":9072:9093   */\n      0x4f7264657220737461747573204572726f722100000000000000000000000000\n        /* \"#utility.yul\":9068:9069   */\n      0x00\n        /* \"#utility.yul\":9060:9066   */\n      dup3\n        /* \"#utility.yul\":9056:9070   */\n      add\n        /* \"#utility.yul\":9049:9094   */\n      mstore\n        /* \"#utility.yul\":8932:9101   */\n      pop\n      jump\t// out\n        /* \"#utility.yul\":9107:9473   */\n    tag_160:\n        /* \"#utility.yul\":9249:9252   */\n      0x00\n        /* \"#utility.yul\":9270:9337   */\n      tag_249\n        /* \"#utility.yul\":9334:9336   */\n      0x13\n        /* \"#utility.yul\":9329:9332   */\n      dup4\n        /* \"#utility.yul\":9270:9337   */\n      tag_147\n      jump\t// in\n    tag_249:\n        /* \"#utility.yul\":9263:9337   */\n      swap2\n      pop\n        /* \"#utility.yul\":9346:9439   */\n      tag_250\n        /* \"#utility.yul\":9435:9438   */\n      dup3\n        /* \"#utility.yul\":9346:9439   */\n      tag_159\n      jump\t// in\n    tag_250:\n        /* \"#utility.yul\":9464:9466   */\n      0x20\n        /* \"#utility.yul\":9459:9462   */\n      dup3\n        /* \"#utility.yul\":9455:9467   */\n      add\n        /* \"#utility.yul\":9448:9467   */\n      swap1\n      pop\n        /* \"#utility.yul\":9107:9473   */\n      swap2\n      swap1\n      pop\n      jump\t// out\n        /* \"#utility.yul\":9479:9898   */\n    tag_112:\n        /* \"#utility.yul\":9645:9649   */\n      0x00\n        /* \"#utility.yul\":9683:9685   */\n      0x20\n        /* \"#utility.yul\":9672:9681   */\n      dup3\n        /* \"#utility.yul\":9668:9686   */\n      add\n        /* \"#utility.yul\":9660:9686   */\n      swap1\n      pop\n        /* \"#utility.yul\":9732:9741   */\n      dup2\n        /* \"#utility.yul\":9726:9730   */\n      dup2\n        /* \"#utility.yul\":9722:9742   */\n      sub\n        /* \"#utility.yul\":9718:9719   */\n      0x00\n        /* \"#utility.yul\":9707:9716   */\n      dup4\n        /* \"#utility.yul\":9703:9720   */\n      add\n        /* \"#utility.yul\":9696:9743   */\n      mstore\n        /* \"#utility.yul\":9760:9891   */\n      tag_252\n        /* \"#utility.yul\":9886:9890   */\n      dup2\n        /* \"#utility.yul\":9760:9891   */\n      tag_160\n      jump\t// in\n    tag_252:\n        /* \"#utility.yul\":9752:9891   */\n      swap1\n      pop\n        /* \"#utility.yul\":9479:9898   */\n      swap2\n      swap1\n      pop\n      jump\t// out\n        /* \"#utility.yul\":9904:10081   */\n    tag_161:\n        /* \"#utility.yul\":10044:10073   */\n      0x43616e6e6f742063616e63656c206f7468657273206f72646572210000000000\n        /* \"#utility.yul\":10040:10041   */\n      0x00\n        /* \"#utility.yul\":10032:10038   */\n      dup3\n        /* \"#utility.yul\":10028:10042   */\n      add\n        /* \"#utility.yul\":10021:10074   */\n      mstore\n        /* \"#utility.yul\":9904:10081   */\n      pop\n      jump\t// out\n        /* \"#utility.yul\":10087:10453   */\n    tag_162:\n        /* \"#utility.yul\":10229:10232   */\n      0x00\n        /* \"#utility.yul\":10250:10317   */\n      tag_255\n        /* \"#utility.yul\":10314:10316   */\n      0x1b\n        /* \"#utility.yul\":10309:10312   */\n      dup4\n        /* \"#utility.yul\":10250:10317   */\n      tag_147\n      jump\t// in\n    tag_255:\n        /* \"#utility.yul\":10243:10317   */\n      swap2\n      pop\n        /* \"#utility.yul\":10326:10419   */\n      tag_256\n        /* \"#utility.yul\":10415:10418   */\n      dup3\n        /* \"#utility.yul\":10326:10419   */\n      tag_161\n      jump\t// in\n    tag_256:\n        /* \"#utility.yul\":10444:10446   */\n      0x20\n        /* \"#utility.yul\":10439:10442   */\n      dup3\n        /* \"#utility.yul\":10435:10447   */\n      add\n        /* \"#utility.yul\":10428:10447   */\n      swap1\n      pop\n        /* \"#utility.yul\":10087:10453   */\n      swap2\n      swap1\n      pop\n      jump\t// out\n        /* \"#utility.yul\":10459:10878   */\n    tag_115:\n        /* \"#utility.yul\":10625:10629   */\n      0x00\n        /* \"#utility.yul\":10663:10665   */\n      0x20\n        /* \"#utility.yul\":10652:10661   */\n      dup3\n        /* \"#utility.yul\":10648:10666   */\n      add\n        /* \"#utility.yul\":10640:10666   */\n      swap1\n      pop\n        /* \"#utility.yul\":10712:10721   */\n      dup2\n        /* \"#utility.yul\":10706:10710   */\n      dup2\n        /* \"#utility.yul\":10702:10722   */\n      sub\n        /* \"#utility.yul\":10698:10699   */\n      0x00\n        /* \"#utility.yul\":10687:10696   */\n      dup4\n        /* \"#utility.yul\":10683:10700   */\n      add\n        /* \"#utility.yul\":10676:10723   */\n      mstore\n        /* \"#utility.yul\":10740:10871   */\n      tag_258\n        /* \"#utility.yul\":10866:10870   */\n      dup2\n        /* \"#utility.yul\":10740:10871   */\n      tag_162\n      jump\t// in\n    tag_258:\n        /* \"#utility.yul\":10732:10871   */\n      swap1\n      pop\n        /* \"#utility.yul\":10459:10878   */\n      swap2\n      swap1\n      pop\n      jump\t// out\n        /* \"#utility.yul\":10884:11031   */\n    tag_163:\n        /* \"#utility.yul\":10985:10996   */\n      0x00\n        /* \"#utility.yul\":11022:11025   */\n      dup2\n        /* \"#utility.yul\":11007:11025   */\n      swap1\n      pop\n        /* \"#utility.yul\":10884:11031   */\n      swap3\n      swap2\n      pop\n      pop\n      jump\t// out\n        /* \"#utility.yul\":11037:11151   */\n    tag_164:\n      pop\n      jump\t// out\n        /* \"#utility.yul\":11157:11555   */\n    tag_165:\n        /* \"#utility.yul\":11316:11319   */\n      0x00\n        /* \"#utility.yul\":11337:11420   */\n      tag_262\n        /* \"#utility.yul\":11418:11419   */\n      0x00\n        /* \"#utility.yul\":11413:11416   */\n      dup4\n        /* \"#utility.yul\":11337:11420   */\n      tag_163\n      jump\t// in\n    tag_262:\n        /* \"#utility.yul\":11330:11420   */\n      swap2\n      pop\n        /* \"#utility.yul\":11429:11522   */\n      tag_263\n        /* \"#utility.yul\":11518:11521   */\n      dup3\n        /* \"#utility.yul\":11429:11522   */\n      tag_164\n      jump\t// in\n    tag_263:\n        /* \"#utility.yul\":11547:11548   */\n      0x00\n        /* \"#utility.yul\":11542:11545   */\n      dup3\n        /* \"#utility.yul\":11538:11549   */\n      add\n        /* \"#utility.yul\":11531:11549   */\n      swap1\n      pop\n        /* \"#utility.yul\":11157:11555   */\n      swap2\n      swap1\n      pop\n      jump\t// out\n        /* \"#utility.yul\":11561:11940   */\n    tag_122:\n        /* \"#utility.yul\":11745:11748   */\n      0x00\n        /* \"#utility.yul\":11767:11914   */\n      tag_265\n        /* \"#utility.yul\":11910:11913   */\n      dup3\n        /* \"#utility.yul\":11767:11914   */\n      tag_165\n      jump\t// in\n    tag_265:\n        /* \"#utility.yul\":11760:11914   */\n      swap2\n      pop\n        /* \"#utility.yul\":11931:11934   */\n      dup2\n        /* \"#utility.yul\":11924:11934   */\n      swap1\n      pop\n        /* \"#utility.yul\":11561:11940   */\n      swap2\n      swap1\n      pop\n      jump\t// out\n        /* \"#utility.yul\":11946:12115   */\n    tag_166:\n        /* \"#utility.yul\":12086:12107   */\n      0x5472616e73616374696f6e206661696c65642100000000000000000000000000\n        /* \"#utility.yul\":12082:12083   */\n      0x00\n        /* \"#utility.yul\":12074:12080   */\n      dup3\n        /* \"#utility.yul\":12070:12084   */\n      add\n        /* \"#utility.yul\":12063:12108   */\n      mstore\n        /* \"#utility.yul\":11946:12115   */\n      pop\n      jump\t// out\n        /* \"#utility.yul\":12121:12487   */\n    tag_167:\n        /* \"#utility.yul\":12263:12266   */\n      0x00\n        /* \"#utility.yul\":12284:12351   */\n      tag_268\n        /* \"#utility.yul\":12348:12350   */\n      0x13\n        /* \"#utility.yul\":12343:12346   */\n      dup4\n        /* \"#utility.yul\":12284:12351   */\n      tag_147\n      jump\t// in\n    tag_268:\n        /* \"#utility.yul\":12277:12351   */\n      swap2\n      pop\n        /* \"#utility.yul\":12360:12453   */\n      tag_269\n        /* \"#utility.yul\":12449:12452   */\n      dup3\n        /* \"#utility.yul\":12360:12453   */\n      tag_166\n      jump\t// in\n    tag_269:\n        /* \"#utility.yul\":12478:12480   */\n      0x20\n        /* \"#utility.yul\":12473:12476   */\n      dup3\n        /* \"#utility.yul\":12469:12481   */\n      add\n        /* \"#utility.yul\":12462:12481   */\n      swap1\n      pop\n        /* \"#utility.yul\":12121:12487   */\n      swap2\n      swap1\n      pop\n      jump\t// out\n        /* \"#utility.yul\":12493:12912   */\n    tag_128:\n        /* \"#utility.yul\":12659:12663   */\n      0x00\n        /* \"#utility.yul\":12697:12699   */\n      0x20\n        /* \"#utility.yul\":12686:12695   */\n      dup3\n        /* \"#utility.yul\":12682:12700   */\n      add\n        /* \"#utility.yul\":12674:12700   */\n      swap1\n      pop\n        /* \"#utility.yul\":12746:12755   */\n      dup2\n        /* \"#utility.yul\":12740:12744   */\n      dup2\n        /* \"#utility.yul\":12736:12756   */\n      sub\n        /* \"#utility.yul\":12732:12733   */\n      0x00\n        /* \"#utility.yul\":12721:12730   */\n      dup4\n        /* \"#utility.yul\":12717:12734   */\n      add\n        /* \"#utility.yul\":12710:12757   */\n      mstore\n        /* \"#utility.yul\":12774:12905   */\n      tag_271\n        /* \"#utility.yul\":12900:12904   */\n      dup2\n        /* \"#utility.yul\":12774:12905   */\n      tag_167\n      jump\t// in\n    tag_271:\n        /* \"#utility.yul\":12766:12905   */\n      swap1\n      pop\n        /* \"#utility.yul\":12493:12912   */\n      swap2\n      swap1\n      pop\n      jump\t// out\n        /* \"#utility.yul\":12918:13094   */\n    tag_168:\n        /* \"#utility.yul\":13058:13086   */\n      0x446f6e27742077616e7420746f2062757920616e796d6f726521000000000000\n        /* \"#utility.yul\":13054:13055   */\n      0x00\n        /* \"#utility.yul\":13046:13052   */\n      dup3\n        /* \"#utility.yul\":13042:13056   */\n      add\n        /* \"#utility.yul\":13035:13087   */\n      mstore\n        /* \"#utility.yul\":12918:13094   */\n      pop\n      jump\t// out\n        /* \"#utility.yul\":13100:13466   */\n    tag_169:\n        /* \"#utility.yul\":13242:13245   */\n      0x00\n        /* \"#utility.yul\":13263:13330   */\n      tag_274\n        /* \"#utility.yul\":13327:13329   */\n      0x1a\n        /* \"#utility.yul\":13322:13325   */\n      dup4\n        /* \"#utility.yul\":13263:13330   */\n      tag_147\n      jump\t// in\n    tag_274:\n        /* \"#utility.yul\":13256:13330   */\n      swap2\n      pop\n        /* \"#utility.yul\":13339:13432   */\n      tag_275\n        /* \"#utility.yul\":13428:13431   */\n      dup3\n        /* \"#utility.yul\":13339:13432   */\n      tag_168\n      jump\t// in\n    tag_275:\n        /* \"#utility.yul\":13457:13459   */\n      0x20\n        /* \"#utility.yul\":13452:13455   */\n      dup3\n        /* \"#utility.yul\":13448:13460   */\n      add\n        /* \"#utility.yul\":13441:13460   */\n      swap1\n      pop\n        /* \"#utility.yul\":13100:13466   */\n      swap2\n      swap1\n      pop\n      jump\t// out\n        /* \"#utility.yul\":13472:14001   */\n    tag_132:\n        /* \"#utility.yul\":13666:13670   */\n      0x00\n        /* \"#utility.yul\":13704:13706   */\n      0x40\n        /* \"#utility.yul\":13693:13702   */\n      dup3\n        /* \"#utility.yul\":13689:13707   */\n      add\n        /* \"#utility.yul\":13681:13707   */\n      swap1\n      pop\n        /* \"#utility.yul\":13753:13762   */\n      dup2\n        /* \"#utility.yul\":13747:13751   */\n      dup2\n        /* \"#utility.yul\":13743:13763   */\n      sub\n        /* \"#utility.yul\":13739:13740   */\n      0x00\n        /* \"#utility.yul\":13728:13737   */\n      dup4\n        /* \"#utility.yul\":13724:13741   */\n      add\n        /* \"#utility.yul\":13717:13764   */\n      mstore\n        /* \"#utility.yul\":13781:13912   */\n      tag_277\n        /* \"#utility.yul\":13907:13911   */\n      dup2\n        /* \"#utility.yul\":13781:13912   */\n      tag_169\n      jump\t// in\n    tag_277:\n        /* \"#utility.yul\":13773:13912   */\n      swap1\n      pop\n        /* \"#utility.yul\":13922:13994   */\n      tag_278\n        /* \"#utility.yul\":13990:13992   */\n      0x20\n        /* \"#utility.yul\":13979:13988   */\n      dup4\n        /* \"#utility.yul\":13975:13993   */\n      add\n        /* \"#utility.yul\":13966:13972   */\n      dup5\n        /* \"#utility.yul\":13922:13994   */\n      tag_139\n      jump\t// in\n    tag_278:\n        /* \"#utility.yul\":13472:14001   */\n      swap3\n      swap2\n      pop\n      pop\n      jump\t// out\n\n    auxdata: 0xa2646970667358221220c99c6adb26e0921819ba63eec27134d39d6fd45228f90156dc9cd7fe5198688264736f6c63430008220033\n}\n",
				"bytecode": {
					"linkReferences": {},
					"object": "60806040525f6001553480156012575f5ffd5b50611134806100205f395ff3fe60806040526004361061006f575f3560e01c8063a85c38ef1161004d578063a85c38ef146100e3578063b6adaaff14610122578063c290d6911461014a578063dbc92f96146101725761006f565b8063194c302c146100735780632453ffa81461009b5780636512e6ec146100c5575b5f5ffd5b34801561007e575f5ffd5b5061009960048036038101906100949190610aee565b61019a565b005b3480156100a6575f5ffd5b506100af6102d3565b6040516100bc9190610b28565b60405180910390f35b6100cd6102d9565b6040516100da9190610b28565b60405180910390f35b3480156100ee575f5ffd5b5061010960048036038101906101049190610aee565b610470565b6040516101199493929190610bf3565b60405180910390f35b34801561012d575f5ffd5b5061014860048036038101906101439190610aee565b6104c6565b005b348015610155575f5ffd5b50610170600480360381019061016b9190610aee565b610638565b005b34801561017d575f5ffd5b5061019860048036038101906101939190610aee565b61078d565b005b806001548111156101e0576040517f08c379a00000000000000000000000000000000000000000000000000000000081526004016101d790610c90565b60405180910390fd5b5f5f5f8481526020019081526020015f2090506001600481111561020757610206610b80565b5b816002015f9054906101000a900460ff16600481111561022a57610229610b80565b5b1461026a576040517f08c379a000000000000000000000000000000000000000000000000000000000815260040161026190610cf8565b60405180910390fd5b6002816002015f6101000a81548160ff0219169083600481111561029157610290610b80565b5b0217905550827fd293cce49277a4dadc0edc7a4a30f89cb1d3bffcf9f52380f4f52525243ad7f9426040516102c69190610b28565b60405180910390a2505050565b60015481565b5f5f341161031c576040517f08c379a000000000000000000000000000000000000000000000000000000000815260040161031390610d86565b60405180910390fd5b5f60015f81548092919061032f90610dd1565b91905055905060405180608001604052803373ffffffffffffffffffffffffffffffffffffffff1681526020013481526020015f600481111561037557610374610b80565b5b8152602001428152505f5f8381526020019081526020015f205f820151815f015f6101000a81548173ffffffffffffffffffffffffffffffffffffffff021916908373ffffffffffffffffffffffffffffffffffffffff160217905550602082015181600101556040820151816002015f6101000a81548160ff0219169083600481111561040657610405610b80565b5b0217905550606082015181600301559050503373ffffffffffffffffffffffffffffffffffffffff16817ff7c110a6973307f2bc91245c2c06344ada13add2c1741e83ac5c0bb332bc85d53442604051610461929190610e18565b60405180910390a38091505090565b5f602052805f5260405f205f91509050805f015f9054906101000a900473ffffffffffffffffffffffffffffffffffffffff1690806001015490806002015f9054906101000a900460ff16908060030154905084565b8060015481111561050c576040517f08c379a000000000000000000000000000000000000000000000000000000000815260040161050390610c90565b60405180910390fd5b5f5f5f8481526020019081526020015f2090506002600481111561053357610532610b80565b5b816002015f9054906101000a900460ff16600481111561055657610555610b80565b5b14610596576040517f08c379a000000000000000000000000000000000000000000000000000000000815260040161058d90610e89565b60405180910390fd5b6003816002015f6101000a81548160ff021916908360048111156105bd576105bc610b80565b5b0217905550805f015f9054906101000a900473ffffffffffffffffffffffffffffffffffffffff1673ffffffffffffffffffffffffffffffffffffffff16837fe542d9ced06ebf48c00dc3567a112897fa34963ecc9a6ebf2beba9bc70f568944260405161062b9190610b28565b60405180910390a3505050565b8060015481111561067e576040517f08c379a000000000000000000000000000000000000000000000000000000000815260040161067590610c90565b60405180910390fd5b5f5f5f8481526020019081526020015f2090505f60048111156106a4576106a3610b80565b5b816002015f9054906101000a900460ff1660048111156106c7576106c6610b80565b5b14610707576040517f08c379a00000000000000000000000000000000000000000000000000000000081526004016106fe90610ef1565b60405180910390fd5b6001816002015f6101000a81548160ff0219169083600481111561072e5761072d610b80565b5b02179055503373ffffffffffffffffffffffffffffffffffffffff16837f1a9df17bc46d3a01929944669671ff9da8906ec5d59a9d0495ecb656c7673b62836001015442604051610780929190610e18565b60405180910390a3505050565b806001548111156107d3576040517f08c379a00000000000000000000000000000000000000000000000000000000081526004016107ca90610c90565b60405180910390fd5b5f5f5f8481526020019081526020015f2090505f60048111156107f9576107f8610b80565b5b816002015f9054906101000a900460ff16600481111561081c5761081b610b80565b5b148061085c57506001600481111561083757610836610b80565b5b816002015f9054906101000a900460ff16600481111561085a57610859610b80565b5b145b61089b576040517f08c379a000000000000000000000000000000000000000000000000000000000815260040161089290610f59565b60405180910390fd5b3373ffffffffffffffffffffffffffffffffffffffff16815f015f9054906101000a900473ffffffffffffffffffffffffffffffffffffffff1673ffffffffffffffffffffffffffffffffffffffff161461092b576040517f08c379a000000000000000000000000000000000000000000000000000000000815260040161092290610fc1565b60405180910390fd5b6001600481111561093f5761093e610b80565b5b816002015f9054906101000a900460ff16600481111561096257610961610b80565b5b03610a37575f815f015f9054906101000a900473ffffffffffffffffffffffffffffffffffffffff1673ffffffffffffffffffffffffffffffffffffffff1682600101546040516109b29061100c565b5f6040518083038185875af1925050503d805f81146109ec576040519150601f19603f3d011682016040523d82523d5f602084013e6109f1565b606091505b5050905080610a35576040517f08c379a0000000000000000000000000000000000000000000000000000000008152600401610a2c9061106a565b60405180910390fd5b505b6004816002015f6101000a81548160ff02191690836004811115610a5e57610a5d610b80565b5b02179055503373ffffffffffffffffffffffffffffffffffffffff16837f45fec032814816ce45ab599b24095a38fc09432606b92c6c44131845be64cf6442604051610aaa91906110d2565b60405180910390a3505050565b5f5ffd5b5f819050919050565b610acd81610abb565b8114610ad7575f5ffd5b50565b5f81359050610ae881610ac4565b92915050565b5f60208284031215610b0357610b02610ab7565b5b5f610b1084828501610ada565b91505092915050565b610b2281610abb565b82525050565b5f602082019050610b3b5f830184610b19565b92915050565b5f73ffffffffffffffffffffffffffffffffffffffff82169050919050565b5f610b6a82610b41565b9050919050565b610b7a81610b60565b82525050565b7f4e487b71000000000000000000000000000000000000000000000000000000005f52602160045260245ffd5b60058110610bbe57610bbd610b80565b5b50565b5f819050610bce82610bad565b919050565b5f610bdd82610bc1565b9050919050565b610bed81610bd3565b82525050565b5f608082019050610c065f830187610b71565b610c136020830186610b19565b610c206040830185610be4565b610c2d6060830184610b19565b95945050505050565b5f82825260208201905092915050565b7f4f72646572206e6f7420657869737421000000000000000000000000000000005f82015250565b5f610c7a601083610c36565b9150610c8582610c46565b602082019050919050565b5f6020820190508181035f830152610ca781610c6e565b9050919050565b7f4f7264657220737461747573206973206e6f74207061696421000000000000005f82015250565b5f610ce2601983610c36565b9150610ced82610cae565b602082019050919050565b5f6020820190508181035f830152610d0f81610cd6565b9050919050565b7f416d6f756e74206d7573742062652067726561746572207468616e207a65726f5f8201527f2100000000000000000000000000000000000000000000000000000000000000602082015250565b5f610d70602183610c36565b9150610d7b82610d16565b604082019050919050565b5f6020820190508181035f830152610d9d81610d64565b9050919050565b7f4e487b71000000000000000000000000000000000000000000000000000000005f52601160045260245ffd5b5f610ddb82610abb565b91507fffffffffffffffffffffffffffffffffffffffffffffffffffffffffffffffff8203610e0d57610e0c610da4565b5b600182019050919050565b5f604082019050610e2b5f830185610b19565b610e386020830184610b19565b9392505050565b7f4f7264657220737461747573206973206e6f74207368697070656421000000005f82015250565b5f610e73601c83610c36565b9150610e7e82610e3f565b602082019050919050565b5f6020820190508181035f830152610ea081610e67565b9050919050565b7f4f7264657220737461747573206572726f7221000000000000000000000000005f82015250565b5f610edb601383610c36565b9150610ee682610ea7565b602082019050919050565b5f6020820190508181035f830152610f0881610ecf565b9050919050565b7f4f7264657220737461747573204572726f7221000000000000000000000000005f82015250565b5f610f43601383610c36565b9150610f4e82610f0f565b602082019050919050565b5f6020820190508181035f830152610f7081610f37565b9050919050565b7f43616e6e6f742063616e63656c206f7468657273206f726465722100000000005f82015250565b5f610fab601b83610c36565b9150610fb682610f77565b602082019050919050565b5f6020820190508181035f830152610fd881610f9f565b9050919050565b5f81905092915050565b50565b5f610ff75f83610fdf565b915061100282610fe9565b5f82019050919050565b5f61101682610fec565b9150819050919050565b7f5472616e73616374696f6e206661696c656421000000000000000000000000005f82015250565b5f611054601383610c36565b915061105f82611020565b602082019050919050565b5f6020820190508181035f83015261108181611048565b9050919050565b7f446f6e27742077616e7420746f2062757920616e796d6f7265210000000000005f82015250565b5f6110bc601a83610c36565b91506110c782611088565b602082019050919050565b5f6040820190508181035f8301526110e9816110b0565b90506110f86020830184610b19565b9291505056fea2646970667358221220c99c6adb26e0921819ba63eec27134d39d6fd45228f90156dc9cd7fe5198688264736f6c63430008220033",
					"opcodes": "PUSH1 0x80 PUSH1 0x40 MSTORE PUSH0 PUSH1 0x1 SSTORE CALLVALUE DUP1 ISZERO PUSH1 0x12 JUMPI PUSH0 PUSH0 REVERT JUMPDEST POP PUSH2 0x1134 DUP1 PUSH2 0x20 PUSH0 CODECOPY PUSH0 RETURN INVALID PUSH1 0x80 PUSH1 0x40 MSTORE PUSH1 0x4 CALLDATASIZE LT PUSH2 0x6F JUMPI PUSH0 CALLDATALOAD PUSH1 0xE0 SHR DUP1 PUSH4 0xA85C38EF GT PUSH2 0x4D JUMPI DUP1 PUSH4 0xA85C38EF EQ PUSH2 0xE3 JUMPI DUP1 PUSH4 0xB6ADAAFF EQ PUSH2 0x122 JUMPI DUP1 PUSH4 0xC290D691 EQ PUSH2 0x14A JUMPI DUP1 PUSH4 0xDBC92F96 EQ PUSH2 0x172 JUMPI PUSH2 0x6F JUMP JUMPDEST DUP1 PUSH4 0x194C302C EQ PUSH2 0x73 JUMPI DUP1 PUSH4 0x2453FFA8 EQ PUSH2 0x9B JUMPI DUP1 PUSH4 0x6512E6EC EQ PUSH2 0xC5 JUMPI JUMPDEST PUSH0 PUSH0 REVERT JUMPDEST CALLVALUE DUP1 ISZERO PUSH2 0x7E JUMPI PUSH0 PUSH0 REVERT JUMPDEST POP PUSH2 0x99 PUSH1 0x4 DUP1 CALLDATASIZE SUB DUP2 ADD SWAP1 PUSH2 0x94 SWAP2 SWAP1 PUSH2 0xAEE JUMP JUMPDEST PUSH2 0x19A JUMP JUMPDEST STOP JUMPDEST CALLVALUE DUP1 ISZERO PUSH2 0xA6 JUMPI PUSH0 PUSH0 REVERT JUMPDEST POP PUSH2 0xAF PUSH2 0x2D3 JUMP JUMPDEST PUSH1 0x40 MLOAD PUSH2 0xBC SWAP2 SWAP1 PUSH2 0xB28 JUMP JUMPDEST PUSH1 0x40 MLOAD DUP1 SWAP2 SUB SWAP1 RETURN JUMPDEST PUSH2 0xCD PUSH2 0x2D9 JUMP JUMPDEST PUSH1 0x40 MLOAD PUSH2 0xDA SWAP2 SWAP1 PUSH2 0xB28 JUMP JUMPDEST PUSH1 0x40 MLOAD DUP1 SWAP2 SUB SWAP1 RETURN JUMPDEST CALLVALUE DUP1 ISZERO PUSH2 0xEE JUMPI PUSH0 PUSH0 REVERT JUMPDEST POP PUSH2 0x109 PUSH1 0x4 DUP1 CALLDATASIZE SUB DUP2 ADD SWAP1 PUSH2 0x104 SWAP2 SWAP1 PUSH2 0xAEE JUMP JUMPDEST PUSH2 0x470 JUMP JUMPDEST PUSH1 0x40 MLOAD PUSH2 0x119 SWAP5 SWAP4 SWAP3 SWAP2 SWAP1 PUSH2 0xBF3 JUMP JUMPDEST PUSH1 0x40 MLOAD DUP1 SWAP2 SUB SWAP1 RETURN JUMPDEST CALLVALUE DUP1 ISZERO PUSH2 0x12D JUMPI PUSH0 PUSH0 REVERT JUMPDEST POP PUSH2 0x148 PUSH1 0x4 DUP1 CALLDATASIZE SUB DUP2 ADD SWAP1 PUSH2 0x143 SWAP2 SWAP1 PUSH2 0xAEE JUMP JUMPDEST PUSH2 0x4C6 JUMP JUMPDEST STOP JUMPDEST CALLVALUE DUP1 ISZERO PUSH2 0x155 JUMPI PUSH0 PUSH0 REVERT JUMPDEST POP PUSH2 0x170 PUSH1 0x4 DUP1 CALLDATASIZE SUB DUP2 ADD SWAP1 PUSH2 0x16B SWAP2 SWAP1 PUSH2 0xAEE JUMP JUMPDEST PUSH2 0x638 JUMP JUMPDEST STOP JUMPDEST CALLVALUE DUP1 ISZERO PUSH2 0x17D JUMPI PUSH0 PUSH0 REVERT JUMPDEST POP PUSH2 0x198 PUSH1 0x4 DUP1 CALLDATASIZE SUB DUP2 ADD SWAP1 PUSH2 0x193 SWAP2 SWAP1 PUSH2 0xAEE JUMP JUMPDEST PUSH2 0x78D JUMP JUMPDEST STOP JUMPDEST DUP1 PUSH1 0x1 SLOAD DUP2 GT ISZERO PUSH2 0x1E0 JUMPI PUSH1 0x40 MLOAD PUSH32 0x8C379A000000000000000000000000000000000000000000000000000000000 DUP2 MSTORE PUSH1 0x4 ADD PUSH2 0x1D7 SWAP1 PUSH2 0xC90 JUMP JUMPDEST PUSH1 0x40 MLOAD DUP1 SWAP2 SUB SWAP1 REVERT JUMPDEST PUSH0 PUSH0 PUSH0 DUP5 DUP2 MSTORE PUSH1 0x20 ADD SWAP1 DUP2 MSTORE PUSH1 0x20 ADD PUSH0 KECCAK256 SWAP1 POP PUSH1 0x1 PUSH1 0x4 DUP2 GT ISZERO PUSH2 0x207 JUMPI PUSH2 0x206 PUSH2 0xB80 JUMP JUMPDEST JUMPDEST DUP2 PUSH1 0x2 ADD PUSH0 SWAP1 SLOAD SWAP1 PUSH2 0x100 EXP SWAP1 DIV PUSH1 0xFF AND PUSH1 0x4 DUP2 GT ISZERO PUSH2 0x22A JUMPI PUSH2 0x229 PUSH2 0xB80 JUMP JUMPDEST JUMPDEST EQ PUSH2 0x26A JUMPI PUSH1 0x40 MLOAD PUSH32 0x8C379A000000000000000000000000000000000000000000000000000000000 DUP2 MSTORE PUSH1 0x4 ADD PUSH2 0x261 SWAP1 PUSH2 0xCF8 JUMP JUMPDEST PUSH1 0x40 MLOAD DUP1 SWAP2 SUB SWAP1 REVERT JUMPDEST PUSH1 0x2 DUP2 PUSH1 0x2 ADD PUSH0 PUSH2 0x100 EXP DUP2 SLOAD DUP2 PUSH1 0xFF MUL NOT AND SWAP1 DUP4 PUSH1 0x4 DUP2 GT ISZERO PUSH2 0x291 JUMPI PUSH2 0x290 PUSH2 0xB80 JUMP JUMPDEST JUMPDEST MUL OR SWAP1 SSTORE POP DUP3 PUSH32 0xD293CCE49277A4DADC0EDC7A4A30F89CB1D3BFFCF9F52380F4F52525243AD7F9 TIMESTAMP PUSH1 0x40 MLOAD PUSH2 0x2C6 SWAP2 SWAP1 PUSH2 0xB28 JUMP JUMPDEST PUSH1 0x40 MLOAD DUP1 SWAP2 SUB SWAP1 LOG2 POP POP POP JUMP JUMPDEST PUSH1 0x1 SLOAD DUP2 JUMP JUMPDEST PUSH0 PUSH0 CALLVALUE GT PUSH2 0x31C JUMPI PUSH1 0x40 MLOAD PUSH32 0x8C379A000000000000000000000000000000000000000000000000000000000 DUP2 MSTORE PUSH1 0x4 ADD PUSH2 0x313 SWAP1 PUSH2 0xD86 JUMP JUMPDEST PUSH1 0x40 MLOAD DUP1 SWAP2 SUB SWAP1 REVERT JUMPDEST PUSH0 PUSH1 0x1 PUSH0 DUP2 SLOAD DUP1 SWAP3 SWAP2 SWAP1 PUSH2 0x32F SWAP1 PUSH2 0xDD1 JUMP JUMPDEST SWAP2 SWAP1 POP SSTORE SWAP1 POP PUSH1 0x40 MLOAD DUP1 PUSH1 0x80 ADD PUSH1 0x40 MSTORE DUP1 CALLER PUSH20 0xFFFFFFFFFFFFFFFFFFFFFFFFFFFFFFFFFFFFFFFF AND DUP2 MSTORE PUSH1 0x20 ADD CALLVALUE DUP2 MSTORE PUSH1 0x20 ADD PUSH0 PUSH1 0x4 DUP2 GT ISZERO PUSH2 0x375 JUMPI PUSH2 0x374 PUSH2 0xB80 JUMP JUMPDEST JUMPDEST DUP2 MSTORE PUSH1 0x20 ADD TIMESTAMP DUP2 MSTORE POP PUSH0 PUSH0 DUP4 DUP2 MSTORE PUSH1 0x20 ADD SWAP1 DUP2 MSTORE PUSH1 0x20 ADD PUSH0 KECCAK256 PUSH0 DUP3 ADD MLOAD DUP2 PUSH0 ADD PUSH0 PUSH2 0x100 EXP DUP2 SLOAD DUP2 PUSH20 0xFFFFFFFFFFFFFFFFFFFFFFFFFFFFFFFFFFFFFFFF MUL NOT AND SWAP1 DUP4 PUSH20 0xFFFFFFFFFFFFFFFFFFFFFFFFFFFFFFFFFFFFFFFF AND MUL OR SWAP1 SSTORE POP PUSH1 0x20 DUP3 ADD MLOAD DUP2 PUSH1 0x1 ADD SSTORE PUSH1 0x40 DUP3 ADD MLOAD DUP2 PUSH1 0x2 ADD PUSH0 PUSH2 0x100 EXP DUP2 SLOAD DUP2 PUSH1 0xFF MUL NOT AND SWAP1 DUP4 PUSH1 0x4 DUP2 GT ISZERO PUSH2 0x406 JUMPI PUSH2 0x405 PUSH2 0xB80 JUMP JUMPDEST JUMPDEST MUL OR SWAP1 SSTORE POP PUSH1 0x60 DUP3 ADD MLOAD DUP2 PUSH1 0x3 ADD SSTORE SWAP1 POP POP CALLER PUSH20 0xFFFFFFFFFFFFFFFFFFFFFFFFFFFFFFFFFFFFFFFF AND DUP2 PUSH32 0xF7C110A6973307F2BC91245C2C06344ADA13ADD2C1741E83AC5C0BB332BC85D5 CALLVALUE TIMESTAMP PUSH1 0x40 MLOAD PUSH2 0x461 SWAP3 SWAP2 SWAP1 PUSH2 0xE18 JUMP JUMPDEST PUSH1 0x40 MLOAD DUP1 SWAP2 SUB SWAP1 LOG3 DUP1 SWAP2 POP POP SWAP1 JUMP JUMPDEST PUSH0 PUSH1 0x20 MSTORE DUP1 PUSH0 MSTORE PUSH1 0x40 PUSH0 KECCAK256 PUSH0 SWAP2 POP SWAP1 POP DUP1 PUSH0 ADD PUSH0 SWAP1 SLOAD SWAP1 PUSH2 0x100 EXP SWAP1 DIV PUSH20 0xFFFFFFFFFFFFFFFFFFFFFFFFFFFFFFFFFFFFFFFF AND SWAP1 DUP1 PUSH1 0x1 ADD SLOAD SWAP1 DUP1 PUSH1 0x2 ADD PUSH0 SWAP1 SLOAD SWAP1 PUSH2 0x100 EXP SWAP1 DIV PUSH1 0xFF AND SWAP1 DUP1 PUSH1 0x3 ADD SLOAD SWAP1 POP DUP5 JUMP JUMPDEST DUP1 PUSH1 0x1 SLOAD DUP2 GT ISZERO PUSH2 0x50C JUMPI PUSH1 0x40 MLOAD PUSH32 0x8C379A000000000000000000000000000000000000000000000000000000000 DUP2 MSTORE PUSH1 0x4 ADD PUSH2 0x503 SWAP1 PUSH2 0xC90 JUMP JUMPDEST PUSH1 0x40 MLOAD DUP1 SWAP2 SUB SWAP1 REVERT JUMPDEST PUSH0 PUSH0 PUSH0 DUP5 DUP2 MSTORE PUSH1 0x20 ADD SWAP1 DUP2 MSTORE PUSH1 0x20 ADD PUSH0 KECCAK256 SWAP1 POP PUSH1 0x2 PUSH1 0x4 DUP2 GT ISZERO PUSH2 0x533 JUMPI PUSH2 0x532 PUSH2 0xB80 JUMP JUMPDEST JUMPDEST DUP2 PUSH1 0x2 ADD PUSH0 SWAP1 SLOAD SWAP1 PUSH2 0x100 EXP SWAP1 DIV PUSH1 0xFF AND PUSH1 0x4 DUP2 GT ISZERO PUSH2 0x556 JUMPI PUSH2 0x555 PUSH2 0xB80 JUMP JUMPDEST JUMPDEST EQ PUSH2 0x596 JUMPI PUSH1 0x40 MLOAD PUSH32 0x8C379A000000000000000000000000000000000000000000000000000000000 DUP2 MSTORE PUSH1 0x4 ADD PUSH2 0x58D SWAP1 PUSH2 0xE89 JUMP JUMPDEST PUSH1 0x40 MLOAD DUP1 SWAP2 SUB SWAP1 REVERT JUMPDEST PUSH1 0x3 DUP2 PUSH1 0x2 ADD PUSH0 PUSH2 0x100 EXP DUP2 SLOAD DUP2 PUSH1 0xFF MUL NOT AND SWAP1 DUP4 PUSH1 0x4 DUP2 GT ISZERO PUSH2 0x5BD JUMPI PUSH2 0x5BC PUSH2 0xB80 JUMP JUMPDEST JUMPDEST MUL OR SWAP1 SSTORE POP DUP1 PUSH0 ADD PUSH0 SWAP1 SLOAD SWAP1 PUSH2 0x100 EXP SWAP1 DIV PUSH20 0xFFFFFFFFFFFFFFFFFFFFFFFFFFFFFFFFFFFFFFFF AND PUSH20 0xFFFFFFFFFFFFFFFFFFFFFFFFFFFFFFFFFFFFFFFF AND DUP4 PUSH32 0xE542D9CED06EBF48C00DC3567A112897FA34963ECC9A6EBF2BEBA9BC70F56894 TIMESTAMP PUSH1 0x40 MLOAD PUSH2 0x62B SWAP2 SWAP1 PUSH2 0xB28 JUMP JUMPDEST PUSH1 0x40 MLOAD DUP1 SWAP2 SUB SWAP1 LOG3 POP POP POP JUMP JUMPDEST DUP1 PUSH1 0x1 SLOAD DUP2 GT ISZERO PUSH2 0x67E JUMPI PUSH1 0x40 MLOAD PUSH32 0x8C379A000000000000000000000000000000000000000000000000000000000 DUP2 MSTORE PUSH1 0x4 ADD PUSH2 0x675 SWAP1 PUSH2 0xC90 JUMP JUMPDEST PUSH1 0x40 MLOAD DUP1 SWAP2 SUB SWAP1 REVERT JUMPDEST PUSH0 PUSH0 PUSH0 DUP5 DUP2 MSTORE PUSH1 0x20 ADD SWAP1 DUP2 MSTORE PUSH1 0x20 ADD PUSH0 KECCAK256 SWAP1 POP PUSH0 PUSH1 0x4 DUP2 GT ISZERO PUSH2 0x6A4 JUMPI PUSH2 0x6A3 PUSH2 0xB80 JUMP JUMPDEST JUMPDEST DUP2 PUSH1 0x2 ADD PUSH0 SWAP1 SLOAD SWAP1 PUSH2 0x100 EXP SWAP1 DIV PUSH1 0xFF AND PUSH1 0x4 DUP2 GT ISZERO PUSH2 0x6C7 JUMPI PUSH2 0x6C6 PUSH2 0xB80 JUMP JUMPDEST JUMPDEST EQ PUSH2 0x707 JUMPI PUSH1 0x40 MLOAD PUSH32 0x8C379A000000000000000000000000000000000000000000000000000000000 DUP2 MSTORE PUSH1 0x4 ADD PUSH2 0x6FE SWAP1 PUSH2 0xEF1 JUMP JUMPDEST PUSH1 0x40 MLOAD DUP1 SWAP2 SUB SWAP1 REVERT JUMPDEST PUSH1 0x1 DUP2 PUSH1 0x2 ADD PUSH0 PUSH2 0x100 EXP DUP2 SLOAD DUP2 PUSH1 0xFF MUL NOT AND SWAP1 DUP4 PUSH1 0x4 DUP2 GT ISZERO PUSH2 0x72E JUMPI PUSH2 0x72D PUSH2 0xB80 JUMP JUMPDEST JUMPDEST MUL OR SWAP1 SSTORE POP CALLER PUSH20 0xFFFFFFFFFFFFFFFFFFFFFFFFFFFFFFFFFFFFFFFF AND DUP4 PUSH32 0x1A9DF17BC46D3A01929944669671FF9DA8906EC5D59A9D0495ECB656C7673B62 DUP4 PUSH1 0x1 ADD SLOAD TIMESTAMP PUSH1 0x40 MLOAD PUSH2 0x780 SWAP3 SWAP2 SWAP1 PUSH2 0xE18 JUMP JUMPDEST PUSH1 0x40 MLOAD DUP1 SWAP2 SUB SWAP1 LOG3 POP POP POP JUMP JUMPDEST DUP1 PUSH1 0x1 SLOAD DUP2 GT ISZERO PUSH2 0x7D3 JUMPI PUSH1 0x40 MLOAD PUSH32 0x8C379A000000000000000000000000000000000000000000000000000000000 DUP2 MSTORE PUSH1 0x4 ADD PUSH2 0x7CA SWAP1 PUSH2 0xC90 JUMP JUMPDEST PUSH1 0x40 MLOAD DUP1 SWAP2 SUB SWAP1 REVERT JUMPDEST PUSH0 PUSH0 PUSH0 DUP5 DUP2 MSTORE PUSH1 0x20 ADD SWAP1 DUP2 MSTORE PUSH1 0x20 ADD PUSH0 KECCAK256 SWAP1 POP PUSH0 PUSH1 0x4 DUP2 GT ISZERO PUSH2 0x7F9 JUMPI PUSH2 0x7F8 PUSH2 0xB80 JUMP JUMPDEST JUMPDEST DUP2 PUSH1 0x2 ADD PUSH0 SWAP1 SLOAD SWAP1 PUSH2 0x100 EXP SWAP1 DIV PUSH1 0xFF AND PUSH1 0x4 DUP2 GT ISZERO PUSH2 0x81C JUMPI PUSH2 0x81B PUSH2 0xB80 JUMP JUMPDEST JUMPDEST EQ DUP1 PUSH2 0x85C JUMPI POP PUSH1 0x1 PUSH1 0x4 DUP2 GT ISZERO PUSH2 0x837 JUMPI PUSH2 0x836 PUSH2 0xB80 JUMP JUMPDEST JUMPDEST DUP2 PUSH1 0x2 ADD PUSH0 SWAP1 SLOAD SWAP1 PUSH2 0x100 EXP SWAP1 DIV PUSH1 0xFF AND PUSH1 0x4 DUP2 GT ISZERO PUSH2 0x85A JUMPI PUSH2 0x859 PUSH2 0xB80 JUMP JUMPDEST JUMPDEST EQ JUMPDEST PUSH2 0x89B JUMPI PUSH1 0x40 MLOAD PUSH32 0x8C379A000000000000000000000000000000000000000000000000000000000 DUP2 MSTORE PUSH1 0x4 ADD PUSH2 0x892 SWAP1 PUSH2 0xF59 JUMP JUMPDEST PUSH1 0x40 MLOAD DUP1 SWAP2 SUB SWAP1 REVERT JUMPDEST CALLER PUSH20 0xFFFFFFFFFFFFFFFFFFFFFFFFFFFFFFFFFFFFFFFF AND DUP2 PUSH0 ADD PUSH0 SWAP1 SLOAD SWAP1 PUSH2 0x100 EXP SWAP1 DIV PUSH20 0xFFFFFFFFFFFFFFFFFFFFFFFFFFFFFFFFFFFFFFFF AND PUSH20 0xFFFFFFFFFFFFFFFFFFFFFFFFFFFFFFFFFFFFFFFF AND EQ PUSH2 0x92B JUMPI PUSH1 0x40 MLOAD PUSH32 0x8C379A000000000000000000000000000000000000000000000000000000000 DUP2 MSTORE PUSH1 0x4 ADD PUSH2 0x922 SWAP1 PUSH2 0xFC1 JUMP JUMPDEST PUSH1 0x40 MLOAD DUP1 SWAP2 SUB SWAP1 REVERT JUMPDEST PUSH1 0x1 PUSH1 0x4 DUP2 GT ISZERO PUSH2 0x93F JUMPI PUSH2 0x93E PUSH2 0xB80 JUMP JUMPDEST JUMPDEST DUP2 PUSH1 0x2 ADD PUSH0 SWAP1 SLOAD SWAP1 PUSH2 0x100 EXP SWAP1 DIV PUSH1 0xFF AND PUSH1 0x4 DUP2 GT ISZERO PUSH2 0x962 JUMPI PUSH2 0x961 PUSH2 0xB80 JUMP JUMPDEST JUMPDEST SUB PUSH2 0xA37 JUMPI PUSH0 DUP2 PUSH0 ADD PUSH0 SWAP1 SLOAD SWAP1 PUSH2 0x100 EXP SWAP1 DIV PUSH20 0xFFFFFFFFFFFFFFFFFFFFFFFFFFFFFFFFFFFFFFFF AND PUSH20 0xFFFFFFFFFFFFFFFFFFFFFFFFFFFFFFFFFFFFFFFF AND DUP3 PUSH1 0x1 ADD SLOAD PUSH1 0x40 MLOAD PUSH2 0x9B2 SWAP1 PUSH2 0x100C JUMP JUMPDEST PUSH0 PUSH1 0x40 MLOAD DUP1 DUP4 SUB DUP2 DUP6 DUP8 GAS CALL SWAP3 POP POP POP RETURNDATASIZE DUP1 PUSH0 DUP2 EQ PUSH2 0x9EC JUMPI PUSH1 0x40 MLOAD SWAP2 POP PUSH1 0x1F NOT PUSH1 0x3F RETURNDATASIZE ADD AND DUP3 ADD PUSH1 0x40 MSTORE RETURNDATASIZE DUP3 MSTORE RETURNDATASIZE PUSH0 PUSH1 0x20 DUP5 ADD RETURNDATACOPY PUSH2 0x9F1 JUMP JUMPDEST PUSH1 0x60 SWAP2 POP JUMPDEST POP POP SWAP1 POP DUP1 PUSH2 0xA35 JUMPI PUSH1 0x40 MLOAD PUSH32 0x8C379A000000000000000000000000000000000000000000000000000000000 DUP2 MSTORE PUSH1 0x4 ADD PUSH2 0xA2C SWAP1 PUSH2 0x106A JUMP JUMPDEST PUSH1 0x40 MLOAD DUP1 SWAP2 SUB SWAP1 REVERT JUMPDEST POP JUMPDEST PUSH1 0x4 DUP2 PUSH1 0x2 ADD PUSH0 PUSH2 0x100 EXP DUP2 SLOAD DUP2 PUSH1 0xFF MUL NOT AND SWAP1 DUP4 PUSH1 0x4 DUP2 GT ISZERO PUSH2 0xA5E JUMPI PUSH2 0xA5D PUSH2 0xB80 JUMP JUMPDEST JUMPDEST MUL OR SWAP1 SSTORE POP CALLER PUSH20 0xFFFFFFFFFFFFFFFFFFFFFFFFFFFFFFFFFFFFFFFF AND DUP4 PUSH32 0x45FEC032814816CE45AB599B24095A38FC09432606B92C6C44131845BE64CF64 TIMESTAMP PUSH1 0x40 MLOAD PUSH2 0xAAA SWAP2 SWAP1 PUSH2 0x10D2 JUMP JUMPDEST PUSH1 0x40 MLOAD DUP1 SWAP2 SUB SWAP1 LOG3 POP POP POP JUMP JUMPDEST PUSH0 PUSH0 REVERT JUMPDEST PUSH0 DUP2 SWAP1 POP SWAP2 SWAP1 POP JUMP JUMPDEST PUSH2 0xACD DUP2 PUSH2 0xABB JUMP JUMPDEST DUP2 EQ PUSH2 0xAD7 JUMPI PUSH0 PUSH0 REVERT JUMPDEST POP JUMP JUMPDEST PUSH0 DUP2 CALLDATALOAD SWAP1 POP PUSH2 0xAE8 DUP2 PUSH2 0xAC4 JUMP JUMPDEST SWAP3 SWAP2 POP POP JUMP JUMPDEST PUSH0 PUSH1 0x20 DUP3 DUP5 SUB SLT ISZERO PUSH2 0xB03 JUMPI PUSH2 0xB02 PUSH2 0xAB7 JUMP JUMPDEST JUMPDEST PUSH0 PUSH2 0xB10 DUP5 DUP3 DUP6 ADD PUSH2 0xADA JUMP JUMPDEST SWAP2 POP POP SWAP3 SWAP2 POP POP JUMP JUMPDEST PUSH2 0xB22 DUP2 PUSH2 0xABB JUMP JUMPDEST DUP3 MSTORE POP POP JUMP JUMPDEST PUSH0 PUSH1 0x20 DUP3 ADD SWAP1 POP PUSH2 0xB3B PUSH0 DUP4 ADD DUP5 PUSH2 0xB19 JUMP JUMPDEST SWAP3 SWAP2 POP POP JUMP JUMPDEST PUSH0 PUSH20 0xFFFFFFFFFFFFFFFFFFFFFFFFFFFFFFFFFFFFFFFF DUP3 AND SWAP1 POP SWAP2 SWAP1 POP JUMP JUMPDEST PUSH0 PUSH2 0xB6A DUP3 PUSH2 0xB41 JUMP JUMPDEST SWAP1 POP SWAP2 SWAP1 POP JUMP JUMPDEST PUSH2 0xB7A DUP2 PUSH2 0xB60 JUMP JUMPDEST DUP3 MSTORE POP POP JUMP JUMPDEST PUSH32 0x4E487B7100000000000000000000000000000000000000000000000000000000 PUSH0 MSTORE PUSH1 0x21 PUSH1 0x4 MSTORE PUSH1 0x24 PUSH0 REVERT JUMPDEST PUSH1 0x5 DUP2 LT PUSH2 0xBBE JUMPI PUSH2 0xBBD PUSH2 0xB80 JUMP JUMPDEST JUMPDEST POP JUMP JUMPDEST PUSH0 DUP2 SWAP1 POP PUSH2 0xBCE DUP3 PUSH2 0xBAD JUMP JUMPDEST SWAP2 SWAP1 POP JUMP JUMPDEST PUSH0 PUSH2 0xBDD DUP3 PUSH2 0xBC1 JUMP JUMPDEST SWAP1 POP SWAP2 SWAP1 POP JUMP JUMPDEST PUSH2 0xBED DUP2 PUSH2 0xBD3 JUMP JUMPDEST DUP3 MSTORE POP POP JUMP JUMPDEST PUSH0 PUSH1 0x80 DUP3 ADD SWAP1 POP PUSH2 0xC06 PUSH0 DUP4 ADD DUP8 PUSH2 0xB71 JUMP JUMPDEST PUSH2 0xC13 PUSH1 0x20 DUP4 ADD DUP7 PUSH2 0xB19 JUMP JUMPDEST PUSH2 0xC20 PUSH1 0x40 DUP4 ADD DUP6 PUSH2 0xBE4 JUMP JUMPDEST PUSH2 0xC2D PUSH1 0x60 DUP4 ADD DUP5 PUSH2 0xB19 JUMP JUMPDEST SWAP6 SWAP5 POP POP POP POP POP JUMP JUMPDEST PUSH0 DUP3 DUP3 MSTORE PUSH1 0x20 DUP3 ADD SWAP1 POP SWAP3 SWAP2 POP POP JUMP JUMPDEST PUSH32 0x4F72646572206E6F742065786973742100000000000000000000000000000000 PUSH0 DUP3 ADD MSTORE POP JUMP JUMPDEST PUSH0 PUSH2 0xC7A PUSH1 0x10 DUP4 PUSH2 0xC36 JUMP JUMPDEST SWAP2 POP PUSH2 0xC85 DUP3 PUSH2 0xC46 JUMP JUMPDEST PUSH1 0x20 DUP3 ADD SWAP1 POP SWAP2 SWAP1 POP JUMP JUMPDEST PUSH0 PUSH1 0x20 DUP3 ADD SWAP1 POP DUP2 DUP2 SUB PUSH0 DUP4 ADD MSTORE PUSH2 0xCA7 DUP2 PUSH2 0xC6E JUMP JUMPDEST SWAP1 POP SWAP2 SWAP1 POP JUMP JUMPDEST PUSH32 0x4F7264657220737461747573206973206E6F7420706169642100000000000000 PUSH0 DUP3 ADD MSTORE POP JUMP JUMPDEST PUSH0 PUSH2 0xCE2 PUSH1 0x19 DUP4 PUSH2 0xC36 JUMP JUMPDEST SWAP2 POP PUSH2 0xCED DUP3 PUSH2 0xCAE JUMP JUMPDEST PUSH1 0x20 DUP3 ADD SWAP1 POP SWAP2 SWAP1 POP JUMP JUMPDEST PUSH0 PUSH1 0x20 DUP3 ADD SWAP1 POP DUP2 DUP2 SUB PUSH0 DUP4 ADD MSTORE PUSH2 0xD0F DUP2 PUSH2 0xCD6 JUMP JUMPDEST SWAP1 POP SWAP2 SWAP1 POP JUMP JUMPDEST PUSH32 0x416D6F756E74206D7573742062652067726561746572207468616E207A65726F PUSH0 DUP3 ADD MSTORE PUSH32 0x2100000000000000000000000000000000000000000000000000000000000000 PUSH1 0x20 DUP3 ADD MSTORE POP JUMP JUMPDEST PUSH0 PUSH2 0xD70 PUSH1 0x21 DUP4 PUSH2 0xC36 JUMP JUMPDEST SWAP2 POP PUSH2 0xD7B DUP3 PUSH2 0xD16 JUMP JUMPDEST PUSH1 0x40 DUP3 ADD SWAP1 POP SWAP2 SWAP1 POP JUMP JUMPDEST PUSH0 PUSH1 0x20 DUP3 ADD SWAP1 POP DUP2 DUP2 SUB PUSH0 DUP4 ADD MSTORE PUSH2 0xD9D DUP2 PUSH2 0xD64 JUMP JUMPDEST SWAP1 POP SWAP2 SWAP1 POP JUMP JUMPDEST PUSH32 0x4E487B7100000000000000000000000000000000000000000000000000000000 PUSH0 MSTORE PUSH1 0x11 PUSH1 0x4 MSTORE PUSH1 0x24 PUSH0 REVERT JUMPDEST PUSH0 PUSH2 0xDDB DUP3 PUSH2 0xABB JUMP JUMPDEST SWAP2 POP PUSH32 0xFFFFFFFFFFFFFFFFFFFFFFFFFFFFFFFFFFFFFFFFFFFFFFFFFFFFFFFFFFFFFFFF DUP3 SUB PUSH2 0xE0D JUMPI PUSH2 0xE0C PUSH2 0xDA4 JUMP JUMPDEST JUMPDEST PUSH1 0x1 DUP3 ADD SWAP1 POP SWAP2 SWAP1 POP JUMP JUMPDEST PUSH0 PUSH1 0x40 DUP3 ADD SWAP1 POP PUSH2 0xE2B PUSH0 DUP4 ADD DUP6 PUSH2 0xB19 JUMP JUMPDEST PUSH2 0xE38 PUSH1 0x20 DUP4 ADD DUP5 PUSH2 0xB19 JUMP JUMPDEST SWAP4 SWAP3 POP POP POP JUMP JUMPDEST PUSH32 0x4F7264657220737461747573206973206E6F7420736869707065642100000000 PUSH0 DUP3 ADD MSTORE POP JUMP JUMPDEST PUSH0 PUSH2 0xE73 PUSH1 0x1C DUP4 PUSH2 0xC36 JUMP JUMPDEST SWAP2 POP PUSH2 0xE7E DUP3 PUSH2 0xE3F JUMP JUMPDEST PUSH1 0x20 DUP3 ADD SWAP1 POP SWAP2 SWAP1 POP JUMP JUMPDEST PUSH0 PUSH1 0x20 DUP3 ADD SWAP1 POP DUP2 DUP2 SUB PUSH0 DUP4 ADD MSTORE PUSH2 0xEA0 DUP2 PUSH2 0xE67 JUMP JUMPDEST SWAP1 POP SWAP2 SWAP1 POP JUMP JUMPDEST PUSH32 0x4F7264657220737461747573206572726F722100000000000000000000000000 PUSH0 DUP3 ADD MSTORE POP JUMP JUMPDEST PUSH0 PUSH2 0xEDB PUSH1 0x13 DUP4 PUSH2 0xC36 JUMP JUMPDEST SWAP2 POP PUSH2 0xEE6 DUP3 PUSH2 0xEA7 JUMP JUMPDEST PUSH1 0x20 DUP3 ADD SWAP1 POP SWAP2 SWAP1 POP JUMP JUMPDEST PUSH0 PUSH1 0x20 DUP3 ADD SWAP1 POP DUP2 DUP2 SUB PUSH0 DUP4 ADD MSTORE PUSH2 0xF08 DUP2 PUSH2 0xECF JUMP JUMPDEST SWAP1 POP SWAP2 SWAP1 POP JUMP JUMPDEST PUSH32 0x4F7264657220737461747573204572726F722100000000000000000000000000 PUSH0 DUP3 ADD MSTORE POP JUMP JUMPDEST PUSH0 PUSH2 0xF43 PUSH1 0x13 DUP4 PUSH2 0xC36 JUMP JUMPDEST SWAP2 POP PUSH2 0xF4E DUP3 PUSH2 0xF0F JUMP JUMPDEST PUSH1 0x20 DUP3 ADD SWAP1 POP SWAP2 SWAP1 POP JUMP JUMPDEST PUSH0 PUSH1 0x20 DUP3 ADD SWAP1 POP DUP2 DUP2 SUB PUSH0 DUP4 ADD MSTORE PUSH2 0xF70 DUP2 PUSH2 0xF37 JUMP JUMPDEST SWAP1 POP SWAP2 SWAP1 POP JUMP JUMPDEST PUSH32 0x43616E6E6F742063616E63656C206F7468657273206F72646572210000000000 PUSH0 DUP3 ADD MSTORE POP JUMP JUMPDEST PUSH0 PUSH2 0xFAB PUSH1 0x1B DUP4 PUSH2 0xC36 JUMP JUMPDEST SWAP2 POP PUSH2 0xFB6 DUP3 PUSH2 0xF77 JUMP JUMPDEST PUSH1 0x20 DUP3 ADD SWAP1 POP SWAP2 SWAP1 POP JUMP JUMPDEST PUSH0 PUSH1 0x20 DUP3 ADD SWAP1 POP DUP2 DUP2 SUB PUSH0 DUP4 ADD MSTORE PUSH2 0xFD8 DUP2 PUSH2 0xF9F JUMP JUMPDEST SWAP1 POP SWAP2 SWAP1 POP JUMP JUMPDEST PUSH0 DUP2 SWAP1 POP SWAP3 SWAP2 POP POP JUMP JUMPDEST POP JUMP JUMPDEST PUSH0 PUSH2 0xFF7 PUSH0 DUP4 PUSH2 0xFDF JUMP JUMPDEST SWAP2 POP PUSH2 0x1002 DUP3 PUSH2 0xFE9 JUMP JUMPDEST PUSH0 DUP3 ADD SWAP1 POP SWAP2 SWAP1 POP JUMP JUMPDEST PUSH0 PUSH2 0x1016 DUP3 PUSH2 0xFEC JUMP JUMPDEST SWAP2 POP DUP2 SWAP1 POP SWAP2 SWAP1 POP JUMP JUMPDEST PUSH32 0x5472616E73616374696F6E206661696C65642100000000000000000000000000 PUSH0 DUP3 ADD MSTORE POP JUMP JUMPDEST PUSH0 PUSH2 0x1054 PUSH1 0x13 DUP4 PUSH2 0xC36 JUMP JUMPDEST SWAP2 POP PUSH2 0x105F DUP3 PUSH2 0x1020 JUMP JUMPDEST PUSH1 0x20 DUP3 ADD SWAP1 POP SWAP2 SWAP1 POP JUMP JUMPDEST PUSH0 PUSH1 0x20 DUP3 ADD SWAP1 POP DUP2 DUP2 SUB PUSH0 DUP4 ADD MSTORE PUSH2 0x1081 DUP2 PUSH2 0x1048 JUMP JUMPDEST SWAP1 POP SWAP2 SWAP1 POP JUMP JUMPDEST PUSH32 0x446F6E27742077616E7420746F2062757920616E796D6F726521000000000000 PUSH0 DUP3 ADD MSTORE POP JUMP JUMPDEST PUSH0 PUSH2 0x10BC PUSH1 0x1A DUP4 PUSH2 0xC36 JUMP JUMPDEST SWAP2 POP PUSH2 0x10C7 DUP3 PUSH2 0x1088 JUMP JUMPDEST PUSH1 0x20 DUP3 ADD SWAP1 POP SWAP2 SWAP1 POP JUMP JUMPDEST PUSH0 PUSH1 0x40 DUP3 ADD SWAP1 POP DUP2 DUP2 SUB PUSH0 DUP4 ADD MSTORE PUSH2 0x10E9 DUP2 PUSH2 0x10B0 JUMP JUMPDEST SWAP1 POP PUSH2 0x10F8 PUSH1 0x20 DUP4 ADD DUP5 PUSH2 0xB19 JUMP JUMPDEST SWAP3 SWAP2 POP POP JUMP INVALID LOG2 PUSH5 0x6970667358 0x22 SLT KECCAK256 0xC9 SWAP13 PUSH11 0xDB26E0921819BA63EEC271 CALLVALUE 0xD3 SWAP14 PUSH16 0xD45228F90156DC9CD7FE519868826473 PUSH16 0x6C634300082200330000000000000000 "
				},
				"gasEstimates": {
					"creation": {
						"codeDepositCost": "880800",
						"executionCost": "5919",
						"totalCost": "886719"
					},
					"external": {
						"canncelOrder(uint256)": "infinite",
						"completeOrder(uint256)": "infinite",
						"createOrder()": "infinite",
						"orderCount()": "2448",
						"orders(uint256)": "infinite",
						"pay(uint256)": "infinite",
						"shipOrder(uint256)": "infinite"
					}
				},
				"methodIdentifiers": {
					"canncelOrder(uint256)": "dbc92f96",
					"completeOrder(uint256)": "b6adaaff",
					"createOrder()": "6512e6ec",
					"orderCount()": "2453ffa8",
					"orders(uint256)": "a85c38ef",
					"pay(uint256)": "c290d691",
					"shipOrder(uint256)": "194c302c"
				}
			},
			"storageLayout": {
				"storage": [
					{
						"astId": 23,
						"contract": "lession7.1-Event/OrderSystem.sol:OrderSystem",
						"label": "orders",
						"offset": 0,
						"slot": "0",
						"type": "t_mapping(t_uint256,t_struct(Order)18_storage)"
					},
					{
						"astId": 26,
						"contract": "lession7.1-Event/OrderSystem.sol:OrderSystem",
						"label": "orderCount",
						"offset": 0,
						"slot": "1",
						"type": "t_uint256"
					}
				],
				"types": {
					"t_address": {
						"encoding": "inplace",
						"label": "address",
						"numberOfBytes": "20"
					},
					"t_enum(OrderStatus)8": {
						"encoding": "inplace",
						"label": "enum OrderSystem.OrderStatus",
						"numberOfBytes": "1"
					},
					"t_mapping(t_uint256,t_struct(Order)18_storage)": {
						"encoding": "mapping",
						"key": "t_uint256",
						"label": "mapping(uint256 => struct OrderSystem.Order)",
						"numberOfBytes": "32",
						"value": "t_struct(Order)18_storage"
					},
					"t_struct(Order)18_storage": {
						"encoding": "inplace",
						"label": "struct OrderSystem.Order",
						"members": [
							{
								"astId": 10,
								"contract": "lession7.1-Event/OrderSystem.sol:OrderSystem",
								"label": "buyer",
								"offset": 0,
								"slot": "0",
								"type": "t_address"
							},
							{
								"astId": 12,
								"contract": "lession7.1-Event/OrderSystem.sol:OrderSystem",
								"label": "amount",
								"offset": 0,
								"slot": "1",
								"type": "t_uint256"
							},
							{
								"astId": 15,
								"contract": "lession7.1-Event/OrderSystem.sol:OrderSystem",
								"label": "status",
								"offset": 0,
								"slot": "2",
								"type": "t_enum(OrderStatus)8"
							},
							{
								"astId": 17,
								"contract": "lession7.1-Event/OrderSystem.sol:OrderSystem",
								"label": "createdAt",
								"offset": 0,
								"slot": "3",
								"type": "t_uint256"
							}
						],
						"numberOfBytes": "128"
					},
					"t_uint256": {
						"encoding": "inplace",
						"label": "uint256",
						"numberOfBytes": "32"
					}
				}
			},
			"userdoc": {
				"kind": "user",
				"methods": {},
				"notice": "任务：创建⼀个订单系统，使⽤多个事件追踪订单的完整⽣命周期。 要求： 1. 定义OrderCreated、OrderPaid、OrderShipped、OrderCompleted、OrderCancelled事件 2. 实现相应的状态转换函数 3. 使⽤合适的indexed参数 4. 确保事件在正确的时机触发",
				"version": 1
			}
		}
	}
}