{
	"lession8.2-Security/SecureVaulCEI.sol": {
		"SecureVaulCEI": {
			"abi": [
				{
					"inputs": [
						{
							"internalType": "address",
							"name": "",
							"type": "address"
						}
					],
					"name": "balances",
					"outputs": [
						{
							"internalType": "uint256",
							"name": "",
							"type": "uint256"
						}
					],
					"stateMutability": "view",
					"type": "function"
				},
				{
					"inputs": [],
					"name": "deposit",
					"outputs": [],
					"stateMutability": "payable",
					"type": "function"
				},
				{
					"inputs": [],
					"name": "withDraw",
					"outputs": [],
					"stateMutability": "nonpayable",
					"type": "function"
				}
			],
			"devdoc": {
				"kind": "dev",
				"methods": {},
				"version": 1
			},
			"evm": {
				"assembly": "    /* \"lession8.2-Security/SecureVaulCEI.sol\":111:671  contract SecureVaulCEI {... */\n  mstore(0x40, 0x80)\n  callvalue\n  dup1\n  iszero\n  tag_1\n  jumpi\n  revert(0x00, 0x00)\ntag_1:\n  pop\n  dataSize(sub_0)\n  dup1\n  dataOffset(sub_0)\n  0x00\n  codecopy\n  0x00\n  return\nstop\n\nsub_0: assembly {\n        /* \"lession8.2-Security/SecureVaulCEI.sol\":111:671  contract SecureVaulCEI {... */\n      mstore(0x40, 0x80)\n      jumpi(tag_1, lt(calldatasize, 0x04))\n      shr(0xe0, calldataload(0x00))\n      dup1\n      0x0fdb1c10\n      eq\n      tag_2\n      jumpi\n      dup1\n      0x27e235e3\n      eq\n      tag_3\n      jumpi\n      dup1\n      0xd0e30db0\n      eq\n      tag_4\n      jumpi\n    tag_1:\n      revert(0x00, 0x00)\n        /* \"lession8.2-Security/SecureVaulCEI.sol\":331:669  function withDraw() external {... */\n    tag_2:\n      callvalue\n      dup1\n      iszero\n      tag_5\n      jumpi\n      revert(0x00, 0x00)\n    tag_5:\n      pop\n      tag_6\n      tag_7\n      jump\t// in\n    tag_6:\n      stop\n        /* \"lession8.2-Security/SecureVaulCEI.sol\":140:181  mapping (address => uint) public balances */\n    tag_3:\n      callvalue\n      dup1\n      iszero\n      tag_8\n      jumpi\n      revert(0x00, 0x00)\n    tag_8:\n      pop\n      tag_9\n      0x04\n      dup1\n      calldatasize\n      sub\n      dup2\n      add\n      swap1\n      tag_10\n      swap2\n      swap1\n      tag_11\n      jump\t// in\n    tag_10:\n      tag_12\n      jump\t// in\n    tag_9:\n      mload(0x40)\n      tag_13\n      swap2\n      swap1\n      tag_14\n      jump\t// in\n    tag_13:\n      mload(0x40)\n      dup1\n      swap2\n      sub\n      swap1\n      return\n        /* \"lession8.2-Security/SecureVaulCEI.sol\":188:325  function deposit() external payable {... */\n    tag_4:\n      tag_15\n      tag_16\n      jump\t// in\n    tag_15:\n      stop\n        /* \"lession8.2-Security/SecureVaulCEI.sol\":331:669  function withDraw() external {... */\n    tag_7:\n        /* \"lession8.2-Security/SecureVaulCEI.sol\":388:399  uint amount */\n      0x00\n        /* \"lession8.2-Security/SecureVaulCEI.sol\":402:410  balances */\n      0x00\n        /* \"lession8.2-Security/SecureVaulCEI.sol\":402:422  balances[msg.sender] */\n      0x00\n        /* \"lession8.2-Security/SecureVaulCEI.sol\":411:421  msg.sender */\n      caller\n        /* \"lession8.2-Security/SecureVaulCEI.sol\":402:422  balances[msg.sender] */\n      0xffffffffffffffffffffffffffffffffffffffff\n      and\n      0xffffffffffffffffffffffffffffffffffffffff\n      and\n      dup2\n      mstore\n      0x20\n      add\n      swap1\n      dup2\n      mstore\n      0x20\n      add\n      0x00\n      keccak256\n      sload\n        /* \"lession8.2-Security/SecureVaulCEI.sol\":388:422  uint amount = balances[msg.sender] */\n      swap1\n      pop\n        /* \"lession8.2-Security/SecureVaulCEI.sol\":449:450  0 */\n      0x00\n        /* \"lession8.2-Security/SecureVaulCEI.sol\":440:446  amount */\n      dup2\n        /* \"lession8.2-Security/SecureVaulCEI.sol\":440:450  amount > 0 */\n      gt\n        /* \"lession8.2-Security/SecureVaulCEI.sol\":432:466  require(amount > 0, \"No balance!\") */\n      tag_18\n      jumpi\n      mload(0x40)\n      0x08c379a000000000000000000000000000000000000000000000000000000000\n      dup2\n      mstore\n      0x04\n      add\n      tag_19\n      swap1\n      tag_20\n      jump\t// in\n    tag_19:\n      mload(0x40)\n      dup1\n      swap2\n      sub\n      swap1\n      revert\n    tag_18:\n        /* \"lession8.2-Security/SecureVaulCEI.sol\":520:526  amount */\n      dup1\n        /* \"lession8.2-Security/SecureVaulCEI.sol\":496:504  balances */\n      0x00\n        /* \"lession8.2-Security/SecureVaulCEI.sol\":496:516  balances[msg.sender] */\n      0x00\n        /* \"lession8.2-Security/SecureVaulCEI.sol\":505:515  msg.sender */\n      caller\n        /* \"lession8.2-Security/SecureVaulCEI.sol\":496:516  balances[msg.sender] */\n      0xffffffffffffffffffffffffffffffffffffffff\n      and\n      0xffffffffffffffffffffffffffffffffffffffff\n      and\n      dup2\n      mstore\n      0x20\n      add\n      swap1\n      dup2\n      mstore\n      0x20\n      add\n      0x00\n      keccak256\n      0x00\n        /* \"lession8.2-Security/SecureVaulCEI.sol\":496:526  balances[msg.sender] -= amount */\n      dup3\n      dup3\n      sload\n      tag_21\n      swap2\n      swap1\n      tag_22\n      jump\t// in\n    tag_21:\n      swap3\n      pop\n      pop\n      dup2\n      swap1\n      sstore\n      pop\n        /* \"lession8.2-Security/SecureVaulCEI.sol\":562:574  bool success */\n      0x00\n        /* \"lession8.2-Security/SecureVaulCEI.sol\":579:589  msg.sender */\n      caller\n        /* \"lession8.2-Security/SecureVaulCEI.sol\":579:594  msg.sender.call */\n      0xffffffffffffffffffffffffffffffffffffffff\n      and\n        /* \"lession8.2-Security/SecureVaulCEI.sol\":602:608  amount */\n      dup3\n        /* \"lession8.2-Security/SecureVaulCEI.sol\":579:613  msg.sender.call{value: amount}(\"\") */\n      mload(0x40)\n      tag_23\n      swap1\n      tag_24\n      jump\t// in\n    tag_23:\n      0x00\n      mload(0x40)\n      dup1\n      dup4\n      sub\n      dup2\n      dup6\n      dup8\n      gas\n      call\n      swap3\n      pop\n      pop\n      pop\n      returndatasize\n      dup1\n      0x00\n      dup2\n      eq\n      tag_27\n      jumpi\n      mload(0x40)\n      swap2\n      pop\n      and(add(returndatasize, 0x3f), not(0x1f))\n      dup3\n      add\n      0x40\n      mstore\n      returndatasize\n      dup3\n      mstore\n      returndatasize\n      0x00\n      0x20\n      dup5\n      add\n      returndatacopy\n      jump(tag_26)\n    tag_27:\n      0x60\n      swap2\n      pop\n    tag_26:\n      pop\n        /* \"lession8.2-Security/SecureVaulCEI.sol\":561:613  (bool success,) = msg.sender.call{value: amount}(\"\") */\n      pop\n      swap1\n      pop\n        /* \"lession8.2-Security/SecureVaulCEI.sol\":631:638  success */\n      dup1\n        /* \"lession8.2-Security/SecureVaulCEI.sol\":623:662  require(success, \"Transaction failed!\") */\n      tag_28\n      jumpi\n      mload(0x40)\n      0x08c379a000000000000000000000000000000000000000000000000000000000\n      dup2\n      mstore\n      0x04\n      add\n      tag_29\n      swap1\n      tag_30\n      jump\t// in\n    tag_29:\n      mload(0x40)\n      dup1\n      swap2\n      sub\n      swap1\n      revert\n    tag_28:\n        /* \"lession8.2-Security/SecureVaulCEI.sol\":360:669  {... */\n      pop\n      pop\n        /* \"lession8.2-Security/SecureVaulCEI.sol\":331:669  function withDraw() external {... */\n      jump\t// out\n        /* \"lession8.2-Security/SecureVaulCEI.sol\":140:181  mapping (address => uint) public balances */\n    tag_12:\n      mstore(0x20, 0x00)\n      dup1\n      0x00\n      mstore\n      keccak256(0x00, 0x40)\n      0x00\n      swap2\n      pop\n      swap1\n      pop\n      sload\n      dup2\n      jump\t// out\n        /* \"lession8.2-Security/SecureVaulCEI.sol\":188:325  function deposit() external payable {... */\n    tag_16:\n        /* \"lession8.2-Security/SecureVaulCEI.sol\":254:255  0 */\n      0x00\n        /* \"lession8.2-Security/SecureVaulCEI.sol\":242:251  msg.value */\n      callvalue\n        /* \"lession8.2-Security/SecureVaulCEI.sol\":242:255  msg.value > 0 */\n      gt\n        /* \"lession8.2-Security/SecureVaulCEI.sol\":234:275  require(msg.value > 0, \"Invalid amount!\") */\n      tag_32\n      jumpi\n      mload(0x40)\n      0x08c379a000000000000000000000000000000000000000000000000000000000\n      dup2\n      mstore\n      0x04\n      add\n      tag_33\n      swap1\n      tag_34\n      jump\t// in\n    tag_33:\n      mload(0x40)\n      dup1\n      swap2\n      sub\n      swap1\n      revert\n    tag_32:\n        /* \"lession8.2-Security/SecureVaulCEI.sol\":309:318  msg.value */\n      callvalue\n        /* \"lession8.2-Security/SecureVaulCEI.sol\":285:293  balances */\n      0x00\n        /* \"lession8.2-Security/SecureVaulCEI.sol\":285:305  balances[msg.sender] */\n      0x00\n        /* \"lession8.2-Security/SecureVaulCEI.sol\":294:304  msg.sender */\n      caller\n        /* \"lession8.2-Security/SecureVaulCEI.sol\":285:305  balances[msg.sender] */\n      0xffffffffffffffffffffffffffffffffffffffff\n      and\n      0xffffffffffffffffffffffffffffffffffffffff\n      and\n      dup2\n      mstore\n      0x20\n      add\n      swap1\n      dup2\n      mstore\n      0x20\n      add\n      0x00\n      keccak256\n      0x00\n        /* \"lession8.2-Security/SecureVaulCEI.sol\":285:318  balances[msg.sender] += msg.value */\n      dup3\n      dup3\n      sload\n      tag_35\n      swap2\n      swap1\n      tag_36\n      jump\t// in\n    tag_35:\n      swap3\n      pop\n      pop\n      dup2\n      swap1\n      sstore\n      pop\n        /* \"lession8.2-Security/SecureVaulCEI.sol\":188:325  function deposit() external payable {... */\n      jump\t// out\n        /* \"#utility.yul\":88:205   */\n    tag_38:\n        /* \"#utility.yul\":197:198   */\n      0x00\n        /* \"#utility.yul\":194:195   */\n      0x00\n        /* \"#utility.yul\":187:199   */\n      revert\n        /* \"#utility.yul\":334:460   */\n    tag_40:\n        /* \"#utility.yul\":371:378   */\n      0x00\n        /* \"#utility.yul\":411:453   */\n      0xffffffffffffffffffffffffffffffffffffffff\n        /* \"#utility.yul\":404:409   */\n      dup3\n        /* \"#utility.yul\":400:454   */\n      and\n        /* \"#utility.yul\":389:454   */\n      swap1\n      pop\n        /* \"#utility.yul\":334:460   */\n      swap2\n      swap1\n      pop\n      jump\t// out\n        /* \"#utility.yul\":466:562   */\n    tag_41:\n        /* \"#utility.yul\":503:510   */\n      0x00\n        /* \"#utility.yul\":532:556   */\n      tag_63\n        /* \"#utility.yul\":550:555   */\n      dup3\n        /* \"#utility.yul\":532:556   */\n      tag_40\n      jump\t// in\n    tag_63:\n        /* \"#utility.yul\":521:556   */\n      swap1\n      pop\n        /* \"#utility.yul\":466:562   */\n      swap2\n      swap1\n      pop\n      jump\t// out\n        /* \"#utility.yul\":568:690   */\n    tag_42:\n        /* \"#utility.yul\":641:665   */\n      tag_65\n        /* \"#utility.yul\":659:664   */\n      dup2\n        /* \"#utility.yul\":641:665   */\n      tag_41\n      jump\t// in\n    tag_65:\n        /* \"#utility.yul\":634:639   */\n      dup2\n        /* \"#utility.yul\":631:666   */\n      eq\n        /* \"#utility.yul\":621:684   */\n      tag_66\n      jumpi\n        /* \"#utility.yul\":680:681   */\n      0x00\n        /* \"#utility.yul\":677:678   */\n      0x00\n        /* \"#utility.yul\":670:682   */\n      revert\n        /* \"#utility.yul\":621:684   */\n    tag_66:\n        /* \"#utility.yul\":568:690   */\n      pop\n      jump\t// out\n        /* \"#utility.yul\":696:835   */\n    tag_43:\n        /* \"#utility.yul\":742:747   */\n      0x00\n        /* \"#utility.yul\":780:786   */\n      dup2\n        /* \"#utility.yul\":767:787   */\n      calldataload\n        /* \"#utility.yul\":758:787   */\n      swap1\n      pop\n        /* \"#utility.yul\":796:829   */\n      tag_68\n        /* \"#utility.yul\":823:828   */\n      dup2\n        /* \"#utility.yul\":796:829   */\n      tag_42\n      jump\t// in\n    tag_68:\n        /* \"#utility.yul\":696:835   */\n      swap3\n      swap2\n      pop\n      pop\n      jump\t// out\n        /* \"#utility.yul\":841:1170   */\n    tag_11:\n        /* \"#utility.yul\":900:906   */\n      0x00\n        /* \"#utility.yul\":949:951   */\n      0x20\n        /* \"#utility.yul\":937:946   */\n      dup3\n        /* \"#utility.yul\":928:935   */\n      dup5\n        /* \"#utility.yul\":924:947   */\n      sub\n        /* \"#utility.yul\":920:952   */\n      slt\n        /* \"#utility.yul\":917:1036   */\n      iszero\n      tag_70\n      jumpi\n        /* \"#utility.yul\":955:1034   */\n      tag_71\n      tag_38\n      jump\t// in\n    tag_71:\n        /* \"#utility.yul\":917:1036   */\n    tag_70:\n        /* \"#utility.yul\":1075:1076   */\n      0x00\n        /* \"#utility.yul\":1100:1153   */\n      tag_72\n        /* \"#utility.yul\":1145:1152   */\n      dup5\n        /* \"#utility.yul\":1136:1142   */\n      dup3\n        /* \"#utility.yul\":1125:1134   */\n      dup6\n        /* \"#utility.yul\":1121:1143   */\n      add\n        /* \"#utility.yul\":1100:1153   */\n      tag_43\n      jump\t// in\n    tag_72:\n        /* \"#utility.yul\":1090:1153   */\n      swap2\n      pop\n        /* \"#utility.yul\":1046:1163   */\n      pop\n        /* \"#utility.yul\":841:1170   */\n      swap3\n      swap2\n      pop\n      pop\n      jump\t// out\n        /* \"#utility.yul\":1176:1253   */\n    tag_44:\n        /* \"#utility.yul\":1213:1220   */\n      0x00\n        /* \"#utility.yul\":1242:1247   */\n      dup2\n        /* \"#utility.yul\":1231:1247   */\n      swap1\n      pop\n        /* \"#utility.yul\":1176:1253   */\n      swap2\n      swap1\n      pop\n      jump\t// out\n        /* \"#utility.yul\":1259:1377   */\n    tag_45:\n        /* \"#utility.yul\":1346:1370   */\n      tag_75\n        /* \"#utility.yul\":1364:1369   */\n      dup2\n        /* \"#utility.yul\":1346:1370   */\n      tag_44\n      jump\t// in\n    tag_75:\n        /* \"#utility.yul\":1341:1344   */\n      dup3\n        /* \"#utility.yul\":1334:1371   */\n      mstore\n        /* \"#utility.yul\":1259:1377   */\n      pop\n      pop\n      jump\t// out\n        /* \"#utility.yul\":1383:1605   */\n    tag_14:\n        /* \"#utility.yul\":1476:1480   */\n      0x00\n        /* \"#utility.yul\":1514:1516   */\n      0x20\n        /* \"#utility.yul\":1503:1512   */\n      dup3\n        /* \"#utility.yul\":1499:1517   */\n      add\n        /* \"#utility.yul\":1491:1517   */\n      swap1\n      pop\n        /* \"#utility.yul\":1527:1598   */\n      tag_77\n        /* \"#utility.yul\":1595:1596   */\n      0x00\n        /* \"#utility.yul\":1584:1593   */\n      dup4\n        /* \"#utility.yul\":1580:1597   */\n      add\n        /* \"#utility.yul\":1571:1577   */\n      dup5\n        /* \"#utility.yul\":1527:1598   */\n      tag_45\n      jump\t// in\n    tag_77:\n        /* \"#utility.yul\":1383:1605   */\n      swap3\n      swap2\n      pop\n      pop\n      jump\t// out\n        /* \"#utility.yul\":1611:1780   */\n    tag_46:\n        /* \"#utility.yul\":1695:1706   */\n      0x00\n        /* \"#utility.yul\":1729:1735   */\n      dup3\n        /* \"#utility.yul\":1724:1727   */\n      dup3\n        /* \"#utility.yul\":1717:1736   */\n      mstore\n        /* \"#utility.yul\":1769:1773   */\n      0x20\n        /* \"#utility.yul\":1764:1767   */\n      dup3\n        /* \"#utility.yul\":1760:1774   */\n      add\n        /* \"#utility.yul\":1745:1774   */\n      swap1\n      pop\n        /* \"#utility.yul\":1611:1780   */\n      swap3\n      swap2\n      pop\n      pop\n      jump\t// out\n        /* \"#utility.yul\":1786:1947   */\n    tag_47:\n        /* \"#utility.yul\":1926:1939   */\n      0x4e6f2062616c616e636521000000000000000000000000000000000000000000\n        /* \"#utility.yul\":1922:1923   */\n      0x00\n        /* \"#utility.yul\":1914:1920   */\n      dup3\n        /* \"#utility.yul\":1910:1924   */\n      add\n        /* \"#utility.yul\":1903:1940   */\n      mstore\n        /* \"#utility.yul\":1786:1947   */\n      pop\n      jump\t// out\n        /* \"#utility.yul\":1953:2319   */\n    tag_48:\n        /* \"#utility.yul\":2095:2098   */\n      0x00\n        /* \"#utility.yul\":2116:2183   */\n      tag_81\n        /* \"#utility.yul\":2180:2182   */\n      0x0b\n        /* \"#utility.yul\":2175:2178   */\n      dup4\n        /* \"#utility.yul\":2116:2183   */\n      tag_46\n      jump\t// in\n    tag_81:\n        /* \"#utility.yul\":2109:2183   */\n      swap2\n      pop\n        /* \"#utility.yul\":2192:2285   */\n      tag_82\n        /* \"#utility.yul\":2281:2284   */\n      dup3\n        /* \"#utility.yul\":2192:2285   */\n      tag_47\n      jump\t// in\n    tag_82:\n        /* \"#utility.yul\":2310:2312   */\n      0x20\n        /* \"#utility.yul\":2305:2308   */\n      dup3\n        /* \"#utility.yul\":2301:2313   */\n      add\n        /* \"#utility.yul\":2294:2313   */\n      swap1\n      pop\n        /* \"#utility.yul\":1953:2319   */\n      swap2\n      swap1\n      pop\n      jump\t// out\n        /* \"#utility.yul\":2325:2744   */\n    tag_20:\n        /* \"#utility.yul\":2491:2495   */\n      0x00\n        /* \"#utility.yul\":2529:2531   */\n      0x20\n        /* \"#utility.yul\":2518:2527   */\n      dup3\n        /* \"#utility.yul\":2514:2532   */\n      add\n        /* \"#utility.yul\":2506:2532   */\n      swap1\n      pop\n        /* \"#utility.yul\":2578:2587   */\n      dup2\n        /* \"#utility.yul\":2572:2576   */\n      dup2\n        /* \"#utility.yul\":2568:2588   */\n      sub\n        /* \"#utility.yul\":2564:2565   */\n      0x00\n        /* \"#utility.yul\":2553:2562   */\n      dup4\n        /* \"#utility.yul\":2549:2566   */\n      add\n        /* \"#utility.yul\":2542:2589   */\n      mstore\n        /* \"#utility.yul\":2606:2737   */\n      tag_84\n        /* \"#utility.yul\":2732:2736   */\n      dup2\n        /* \"#utility.yul\":2606:2737   */\n      tag_48\n      jump\t// in\n    tag_84:\n        /* \"#utility.yul\":2598:2737   */\n      swap1\n      pop\n        /* \"#utility.yul\":2325:2744   */\n      swap2\n      swap1\n      pop\n      jump\t// out\n        /* \"#utility.yul\":2750:2930   */\n    tag_49:\n        /* \"#utility.yul\":2798:2875   */\n      0x4e487b7100000000000000000000000000000000000000000000000000000000\n        /* \"#utility.yul\":2795:2796   */\n      0x00\n        /* \"#utility.yul\":2788:2876   */\n      mstore\n        /* \"#utility.yul\":2895:2899   */\n      0x11\n        /* \"#utility.yul\":2892:2893   */\n      0x04\n        /* \"#utility.yul\":2885:2900   */\n      mstore\n        /* \"#utility.yul\":2919:2923   */\n      0x24\n        /* \"#utility.yul\":2916:2917   */\n      0x00\n        /* \"#utility.yul\":2909:2924   */\n      revert\n        /* \"#utility.yul\":2936:3130   */\n    tag_22:\n        /* \"#utility.yul\":2976:2980   */\n      0x00\n        /* \"#utility.yul\":2996:3016   */\n      tag_87\n        /* \"#utility.yul\":3014:3015   */\n      dup3\n        /* \"#utility.yul\":2996:3016   */\n      tag_44\n      jump\t// in\n    tag_87:\n        /* \"#utility.yul\":2991:3016   */\n      swap2\n      pop\n        /* \"#utility.yul\":3030:3050   */\n      tag_88\n        /* \"#utility.yul\":3048:3049   */\n      dup4\n        /* \"#utility.yul\":3030:3050   */\n      tag_44\n      jump\t// in\n    tag_88:\n        /* \"#utility.yul\":3025:3050   */\n      swap3\n      pop\n        /* \"#utility.yul\":3074:3075   */\n      dup3\n        /* \"#utility.yul\":3071:3072   */\n      dup3\n        /* \"#utility.yul\":3067:3076   */\n      sub\n        /* \"#utility.yul\":3059:3076   */\n      swap1\n      pop\n        /* \"#utility.yul\":3098:3099   */\n      dup2\n        /* \"#utility.yul\":3092:3096   */\n      dup2\n        /* \"#utility.yul\":3089:3100   */\n      gt\n        /* \"#utility.yul\":3086:3123   */\n      iszero\n      tag_89\n      jumpi\n        /* \"#utility.yul\":3103:3121   */\n      tag_90\n      tag_49\n      jump\t// in\n    tag_90:\n        /* \"#utility.yul\":3086:3123   */\n    tag_89:\n        /* \"#utility.yul\":2936:3130   */\n      swap3\n      swap2\n      pop\n      pop\n      jump\t// out\n        /* \"#utility.yul\":3136:3283   */\n    tag_50:\n        /* \"#utility.yul\":3237:3248   */\n      0x00\n        /* \"#utility.yul\":3274:3277   */\n      dup2\n        /* \"#utility.yul\":3259:3277   */\n      swap1\n      pop\n        /* \"#utility.yul\":3136:3283   */\n      swap3\n      swap2\n      pop\n      pop\n      jump\t// out\n        /* \"#utility.yul\":3289:3403   */\n    tag_51:\n      pop\n      jump\t// out\n        /* \"#utility.yul\":3409:3807   */\n    tag_52:\n        /* \"#utility.yul\":3568:3571   */\n      0x00\n        /* \"#utility.yul\":3589:3672   */\n      tag_94\n        /* \"#utility.yul\":3670:3671   */\n      0x00\n        /* \"#utility.yul\":3665:3668   */\n      dup4\n        /* \"#utility.yul\":3589:3672   */\n      tag_50\n      jump\t// in\n    tag_94:\n        /* \"#utility.yul\":3582:3672   */\n      swap2\n      pop\n        /* \"#utility.yul\":3681:3774   */\n      tag_95\n        /* \"#utility.yul\":3770:3773   */\n      dup3\n        /* \"#utility.yul\":3681:3774   */\n      tag_51\n      jump\t// in\n    tag_95:\n        /* \"#utility.yul\":3799:3800   */\n      0x00\n        /* \"#utility.yul\":3794:3797   */\n      dup3\n        /* \"#utility.yul\":3790:3801   */\n      add\n        /* \"#utility.yul\":3783:3801   */\n      swap1\n      pop\n        /* \"#utility.yul\":3409:3807   */\n      swap2\n      swap1\n      pop\n      jump\t// out\n        /* \"#utility.yul\":3813:4192   */\n    tag_24:\n        /* \"#utility.yul\":3997:4000   */\n      0x00\n        /* \"#utility.yul\":4019:4166   */\n      tag_97\n        /* \"#utility.yul\":4162:4165   */\n      dup3\n        /* \"#utility.yul\":4019:4166   */\n      tag_52\n      jump\t// in\n    tag_97:\n        /* \"#utility.yul\":4012:4166   */\n      swap2\n      pop\n        /* \"#utility.yul\":4183:4186   */\n      dup2\n        /* \"#utility.yul\":4176:4186   */\n      swap1\n      pop\n        /* \"#utility.yul\":3813:4192   */\n      swap2\n      swap1\n      pop\n      jump\t// out\n        /* \"#utility.yul\":4198:4367   */\n    tag_53:\n        /* \"#utility.yul\":4338:4359   */\n      0x5472616e73616374696f6e206661696c65642100000000000000000000000000\n        /* \"#utility.yul\":4334:4335   */\n      0x00\n        /* \"#utility.yul\":4326:4332   */\n      dup3\n        /* \"#utility.yul\":4322:4336   */\n      add\n        /* \"#utility.yul\":4315:4360   */\n      mstore\n        /* \"#utility.yul\":4198:4367   */\n      pop\n      jump\t// out\n        /* \"#utility.yul\":4373:4739   */\n    tag_54:\n        /* \"#utility.yul\":4515:4518   */\n      0x00\n        /* \"#utility.yul\":4536:4603   */\n      tag_100\n        /* \"#utility.yul\":4600:4602   */\n      0x13\n        /* \"#utility.yul\":4595:4598   */\n      dup4\n        /* \"#utility.yul\":4536:4603   */\n      tag_46\n      jump\t// in\n    tag_100:\n        /* \"#utility.yul\":4529:4603   */\n      swap2\n      pop\n        /* \"#utility.yul\":4612:4705   */\n      tag_101\n        /* \"#utility.yul\":4701:4704   */\n      dup3\n        /* \"#utility.yul\":4612:4705   */\n      tag_53\n      jump\t// in\n    tag_101:\n        /* \"#utility.yul\":4730:4732   */\n      0x20\n        /* \"#utility.yul\":4725:4728   */\n      dup3\n        /* \"#utility.yul\":4721:4733   */\n      add\n        /* \"#utility.yul\":4714:4733   */\n      swap1\n      pop\n        /* \"#utility.yul\":4373:4739   */\n      swap2\n      swap1\n      pop\n      jump\t// out\n        /* \"#utility.yul\":4745:5164   */\n    tag_30:\n        /* \"#utility.yul\":4911:4915   */\n      0x00\n        /* \"#utility.yul\":4949:4951   */\n      0x20\n        /* \"#utility.yul\":4938:4947   */\n      dup3\n        /* \"#utility.yul\":4934:4952   */\n      add\n        /* \"#utility.yul\":4926:4952   */\n      swap1\n      pop\n        /* \"#utility.yul\":4998:5007   */\n      dup2\n        /* \"#utility.yul\":4992:4996   */\n      dup2\n        /* \"#utility.yul\":4988:5008   */\n      sub\n        /* \"#utility.yul\":4984:4985   */\n      0x00\n        /* \"#utility.yul\":4973:4982   */\n      dup4\n        /* \"#utility.yul\":4969:4986   */\n      add\n        /* \"#utility.yul\":4962:5009   */\n      mstore\n        /* \"#utility.yul\":5026:5157   */\n      tag_103\n        /* \"#utility.yul\":5152:5156   */\n      dup2\n        /* \"#utility.yul\":5026:5157   */\n      tag_54\n      jump\t// in\n    tag_103:\n        /* \"#utility.yul\":5018:5157   */\n      swap1\n      pop\n        /* \"#utility.yul\":4745:5164   */\n      swap2\n      swap1\n      pop\n      jump\t// out\n        /* \"#utility.yul\":5170:5335   */\n    tag_55:\n        /* \"#utility.yul\":5310:5327   */\n      0x496e76616c696420616d6f756e74210000000000000000000000000000000000\n        /* \"#utility.yul\":5306:5307   */\n      0x00\n        /* \"#utility.yul\":5298:5304   */\n      dup3\n        /* \"#utility.yul\":5294:5308   */\n      add\n        /* \"#utility.yul\":5287:5328   */\n      mstore\n        /* \"#utility.yul\":5170:5335   */\n      pop\n      jump\t// out\n        /* \"#utility.yul\":5341:5707   */\n    tag_56:\n        /* \"#utility.yul\":5483:5486   */\n      0x00\n        /* \"#utility.yul\":5504:5571   */\n      tag_106\n        /* \"#utility.yul\":5568:5570   */\n      0x0f\n        /* \"#utility.yul\":5563:5566   */\n      dup4\n        /* \"#utility.yul\":5504:5571   */\n      tag_46\n      jump\t// in\n    tag_106:\n        /* \"#utility.yul\":5497:5571   */\n      swap2\n      pop\n        /* \"#utility.yul\":5580:5673   */\n      tag_107\n        /* \"#utility.yul\":5669:5672   */\n      dup3\n        /* \"#utility.yul\":5580:5673   */\n      tag_55\n      jump\t// in\n    tag_107:\n        /* \"#utility.yul\":5698:5700   */\n      0x20\n        /* \"#utility.yul\":5693:5696   */\n      dup3\n        /* \"#utility.yul\":5689:5701   */\n      add\n        /* \"#utility.yul\":5682:5701   */\n      swap1\n      pop\n        /* \"#utility.yul\":5341:5707   */\n      swap2\n      swap1\n      pop\n      jump\t// out\n        /* \"#utility.yul\":5713:6132   */\n    tag_34:\n        /* \"#utility.yul\":5879:5883   */\n      0x00\n        /* \"#utility.yul\":5917:5919   */\n      0x20\n        /* \"#utility.yul\":5906:5915   */\n      dup3\n        /* \"#utility.yul\":5902:5920   */\n      add\n        /* \"#utility.yul\":5894:5920   */\n      swap1\n      pop\n        /* \"#utility.yul\":5966:5975   */\n      dup2\n        /* \"#utility.yul\":5960:5964   */\n      dup2\n        /* \"#utility.yul\":5956:5976   */\n      sub\n        /* \"#utility.yul\":5952:5953   */\n      0x00\n        /* \"#utility.yul\":5941:5950   */\n      dup4\n        /* \"#utility.yul\":5937:5954   */\n      add\n        /* \"#utility.yul\":5930:5977   */\n      mstore\n        /* \"#utility.yul\":5994:6125   */\n      tag_109\n        /* \"#utility.yul\":6120:6124   */\n      dup2\n        /* \"#utility.yul\":5994:6125   */\n      tag_56\n      jump\t// in\n    tag_109:\n        /* \"#utility.yul\":5986:6125   */\n      swap1\n      pop\n        /* \"#utility.yul\":5713:6132   */\n      swap2\n      swap1\n      pop\n      jump\t// out\n        /* \"#utility.yul\":6138:6329   */\n    tag_36:\n        /* \"#utility.yul\":6178:6181   */\n      0x00\n        /* \"#utility.yul\":6197:6217   */\n      tag_111\n        /* \"#utility.yul\":6215:6216   */\n      dup3\n        /* \"#utility.yul\":6197:6217   */\n      tag_44\n      jump\t// in\n    tag_111:\n        /* \"#utility.yul\":6192:6217   */\n      swap2\n      pop\n        /* \"#utility.yul\":6231:6251   */\n      tag_112\n        /* \"#utility.yul\":6249:6250   */\n      dup4\n        /* \"#utility.yul\":6231:6251   */\n      tag_44\n      jump\t// in\n    tag_112:\n        /* \"#utility.yul\":6226:6251   */\n      swap3\n      pop\n        /* \"#utility.yul\":6274:6275   */\n      dup3\n        /* \"#utility.yul\":6271:6272   */\n      dup3\n        /* \"#utility.yul\":6267:6276   */\n      add\n        /* \"#utility.yul\":6260:6276   */\n      swap1\n      pop\n        /* \"#utility.yul\":6295:6298   */\n      dup1\n        /* \"#utility.yul\":6292:6293   */\n      dup3\n        /* \"#utility.yul\":6289:6299   */\n      gt\n        /* \"#utility.yul\":6286:6322   */\n      iszero\n      tag_113\n      jumpi\n        /* \"#utility.yul\":6302:6320   */\n      tag_114\n      tag_49\n      jump\t// in\n    tag_114:\n        /* \"#utility.yul\":6286:6322   */\n    tag_113:\n        /* \"#utility.yul\":6138:6329   */\n      swap3\n      swap2\n      pop\n      pop\n      jump\t// out\n\n    auxdata: 0xa2646970667358221220f39565639896db1931ecdbd88a08877d1f14a92b50e9bd19edb029e9168dc6bd64736f6c63430008220033\n}\n",
				"bytecode": {
					"linkReferences": {},
					"object": "6080604052348015600e575f5ffd5b506105c98061001c5f395ff3fe608060405260043610610033575f3560e01c80630fdb1c101461003757806327e235e31461004d578063d0e30db014610089575b5f5ffd5b348015610042575f5ffd5b5061004b610093565b005b348015610058575f5ffd5b50610073600480360381019061006e919061031b565b610213565b604051610080919061035e565b60405180910390f35b610091610227565b005b5f5f5f3373ffffffffffffffffffffffffffffffffffffffff1673ffffffffffffffffffffffffffffffffffffffff1681526020019081526020015f205490505f8111610115576040517f08c379a000000000000000000000000000000000000000000000000000000000815260040161010c906103d1565b60405180910390fd5b805f5f3373ffffffffffffffffffffffffffffffffffffffff1673ffffffffffffffffffffffffffffffffffffffff1681526020019081526020015f205f828254610160919061041c565b925050819055505f3373ffffffffffffffffffffffffffffffffffffffff168260405161018c9061047c565b5f6040518083038185875af1925050503d805f81146101c6576040519150601f19603f3d011682016040523d82523d5f602084013e6101cb565b606091505b505090508061020f576040517f08c379a0000000000000000000000000000000000000000000000000000000008152600401610206906104da565b60405180910390fd5b5050565b5f602052805f5260405f205f915090505481565b5f3411610269576040517f08c379a000000000000000000000000000000000000000000000000000000000815260040161026090610542565b60405180910390fd5b345f5f3373ffffffffffffffffffffffffffffffffffffffff1673ffffffffffffffffffffffffffffffffffffffff1681526020019081526020015f205f8282546102b49190610560565b92505081905550565b5f5ffd5b5f73ffffffffffffffffffffffffffffffffffffffff82169050919050565b5f6102ea826102c1565b9050919050565b6102fa816102e0565b8114610304575f5ffd5b50565b5f81359050610315816102f1565b92915050565b5f602082840312156103305761032f6102bd565b5b5f61033d84828501610307565b91505092915050565b5f819050919050565b61035881610346565b82525050565b5f6020820190506103715f83018461034f565b92915050565b5f82825260208201905092915050565b7f4e6f2062616c616e6365210000000000000000000000000000000000000000005f82015250565b5f6103bb600b83610377565b91506103c682610387565b602082019050919050565b5f6020820190508181035f8301526103e8816103af565b9050919050565b7f4e487b71000000000000000000000000000000000000000000000000000000005f52601160045260245ffd5b5f61042682610346565b915061043183610346565b9250828203905081811115610449576104486103ef565b5b92915050565b5f81905092915050565b50565b5f6104675f8361044f565b915061047282610459565b5f82019050919050565b5f6104868261045c565b9150819050919050565b7f5472616e73616374696f6e206661696c656421000000000000000000000000005f82015250565b5f6104c4601383610377565b91506104cf82610490565b602082019050919050565b5f6020820190508181035f8301526104f1816104b8565b9050919050565b7f496e76616c696420616d6f756e742100000000000000000000000000000000005f82015250565b5f61052c600f83610377565b9150610537826104f8565b602082019050919050565b5f6020820190508181035f83015261055981610520565b9050919050565b5f61056a82610346565b915061057583610346565b925082820190508082111561058d5761058c6103ef565b5b9291505056fea2646970667358221220f39565639896db1931ecdbd88a08877d1f14a92b50e9bd19edb029e9168dc6bd64736f6c63430008220033",
					"opcodes": "PUSH1 0x80 PUSH1 0x40 MSTORE CALLVALUE DUP1 ISZERO PUSH1 0xE JUMPI PUSH0 PUSH0 REVERT JUMPDEST POP PUSH2 0x5C9 DUP1 PUSH2 0x1C PUSH0 CODECOPY PUSH0 RETURN INVALID PUSH1 0x80 PUSH1 0x40 MSTORE PUSH1 0x4 CALLDATASIZE LT PUSH2 0x33 JUMPI PUSH0 CALLDATALOAD PUSH1 0xE0 SHR DUP1 PUSH4 0xFDB1C10 EQ PUSH2 0x37 JUMPI DUP1 PUSH4 0x27E235E3 EQ PUSH2 0x4D JUMPI DUP1 PUSH4 0xD0E30DB0 EQ PUSH2 0x89 JUMPI JUMPDEST PUSH0 PUSH0 REVERT JUMPDEST CALLVALUE DUP1 ISZERO PUSH2 0x42 JUMPI PUSH0 PUSH0 REVERT JUMPDEST POP PUSH2 0x4B PUSH2 0x93 JUMP JUMPDEST STOP JUMPDEST CALLVALUE DUP1 ISZERO PUSH2 0x58 JUMPI PUSH0 PUSH0 REVERT JUMPDEST POP PUSH2 0x73 PUSH1 0x4 DUP1 CALLDATASIZE SUB DUP2 ADD SWAP1 PUSH2 0x6E SWAP2 SWAP1 PUSH2 0x31B JUMP JUMPDEST PUSH2 0x213 JUMP JUMPDEST PUSH1 0x40 MLOAD PUSH2 0x80 SWAP2 SWAP1 PUSH2 0x35E JUMP JUMPDEST PUSH1 0x40 MLOAD DUP1 SWAP2 SUB SWAP1 RETURN JUMPDEST PUSH2 0x91 PUSH2 0x227 JUMP JUMPDEST STOP JUMPDEST PUSH0 PUSH0 PUSH0 CALLER PUSH20 0xFFFFFFFFFFFFFFFFFFFFFFFFFFFFFFFFFFFFFFFF AND PUSH20 0xFFFFFFFFFFFFFFFFFFFFFFFFFFFFFFFFFFFFFFFF AND DUP2 MSTORE PUSH1 0x20 ADD SWAP1 DUP2 MSTORE PUSH1 0x20 ADD PUSH0 KECCAK256 SLOAD SWAP1 POP PUSH0 DUP2 GT PUSH2 0x115 JUMPI PUSH1 0x40 MLOAD PUSH32 0x8C379A000000000000000000000000000000000000000000000000000000000 DUP2 MSTORE PUSH1 0x4 ADD PUSH2 0x10C SWAP1 PUSH2 0x3D1 JUMP JUMPDEST PUSH1 0x40 MLOAD DUP1 SWAP2 SUB SWAP1 REVERT JUMPDEST DUP1 PUSH0 PUSH0 CALLER PUSH20 0xFFFFFFFFFFFFFFFFFFFFFFFFFFFFFFFFFFFFFFFF AND PUSH20 0xFFFFFFFFFFFFFFFFFFFFFFFFFFFFFFFFFFFFFFFF AND DUP2 MSTORE PUSH1 0x20 ADD SWAP1 DUP2 MSTORE PUSH1 0x20 ADD PUSH0 KECCAK256 PUSH0 DUP3 DUP3 SLOAD PUSH2 0x160 SWAP2 SWAP1 PUSH2 0x41C JUMP JUMPDEST SWAP3 POP POP DUP2 SWAP1 SSTORE POP PUSH0 CALLER PUSH20 0xFFFFFFFFFFFFFFFFFFFFFFFFFFFFFFFFFFFFFFFF AND DUP3 PUSH1 0x40 MLOAD PUSH2 0x18C SWAP1 PUSH2 0x47C JUMP JUMPDEST PUSH0 PUSH1 0x40 MLOAD DUP1 DUP4 SUB DUP2 DUP6 DUP8 GAS CALL SWAP3 POP POP POP RETURNDATASIZE DUP1 PUSH0 DUP2 EQ PUSH2 0x1C6 JUMPI PUSH1 0x40 MLOAD SWAP2 POP PUSH1 0x1F NOT PUSH1 0x3F RETURNDATASIZE ADD AND DUP3 ADD PUSH1 0x40 MSTORE RETURNDATASIZE DUP3 MSTORE RETURNDATASIZE PUSH0 PUSH1 0x20 DUP5 ADD RETURNDATACOPY PUSH2 0x1CB JUMP JUMPDEST PUSH1 0x60 SWAP2 POP JUMPDEST POP POP SWAP1 POP DUP1 PUSH2 0x20F JUMPI PUSH1 0x40 MLOAD PUSH32 0x8C379A000000000000000000000000000000000000000000000000000000000 DUP2 MSTORE PUSH1 0x4 ADD PUSH2 0x206 SWAP1 PUSH2 0x4DA JUMP JUMPDEST PUSH1 0x40 MLOAD DUP1 SWAP2 SUB SWAP1 REVERT JUMPDEST POP POP JUMP JUMPDEST PUSH0 PUSH1 0x20 MSTORE DUP1 PUSH0 MSTORE PUSH1 0x40 PUSH0 KECCAK256 PUSH0 SWAP2 POP SWAP1 POP SLOAD DUP2 JUMP JUMPDEST PUSH0 CALLVALUE GT PUSH2 0x269 JUMPI PUSH1 0x40 MLOAD PUSH32 0x8C379A000000000000000000000000000000000000000000000000000000000 DUP2 MSTORE PUSH1 0x4 ADD PUSH2 0x260 SWAP1 PUSH2 0x542 JUMP JUMPDEST PUSH1 0x40 MLOAD DUP1 SWAP2 SUB SWAP1 REVERT JUMPDEST CALLVALUE PUSH0 PUSH0 CALLER PUSH20 0xFFFFFFFFFFFFFFFFFFFFFFFFFFFFFFFFFFFFFFFF AND PUSH20 0xFFFFFFFFFFFFFFFFFFFFFFFFFFFFFFFFFFFFFFFF AND DUP2 MSTORE PUSH1 0x20 ADD SWAP1 DUP2 MSTORE PUSH1 0x20 ADD PUSH0 KECCAK256 PUSH0 DUP3 DUP3 SLOAD PUSH2 0x2B4 SWAP2 SWAP1 PUSH2 0x560 JUMP JUMPDEST SWAP3 POP POP DUP2 SWAP1 SSTORE POP JUMP JUMPDEST PUSH0 PUSH0 REVERT JUMPDEST PUSH0 PUSH20 0xFFFFFFFFFFFFFFFFFFFFFFFFFFFFFFFFFFFFFFFF DUP3 AND SWAP1 POP SWAP2 SWAP1 POP JUMP JUMPDEST PUSH0 PUSH2 0x2EA DUP3 PUSH2 0x2C1 JUMP JUMPDEST SWAP1 POP SWAP2 SWAP1 POP JUMP JUMPDEST PUSH2 0x2FA DUP2 PUSH2 0x2E0 JUMP JUMPDEST DUP2 EQ PUSH2 0x304 JUMPI PUSH0 PUSH0 REVERT JUMPDEST POP JUMP JUMPDEST PUSH0 DUP2 CALLDATALOAD SWAP1 POP PUSH2 0x315 DUP2 PUSH2 0x2F1 JUMP JUMPDEST SWAP3 SWAP2 POP POP JUMP JUMPDEST PUSH0 PUSH1 0x20 DUP3 DUP5 SUB SLT ISZERO PUSH2 0x330 JUMPI PUSH2 0x32F PUSH2 0x2BD JUMP JUMPDEST JUMPDEST PUSH0 PUSH2 0x33D DUP5 DUP3 DUP6 ADD PUSH2 0x307 JUMP JUMPDEST SWAP2 POP POP SWAP3 SWAP2 POP POP JUMP JUMPDEST PUSH0 DUP2 SWAP1 POP SWAP2 SWAP1 POP JUMP JUMPDEST PUSH2 0x358 DUP2 PUSH2 0x346 JUMP JUMPDEST DUP3 MSTORE POP POP JUMP JUMPDEST PUSH0 PUSH1 0x20 DUP3 ADD SWAP1 POP PUSH2 0x371 PUSH0 DUP4 ADD DUP5 PUSH2 0x34F JUMP JUMPDEST SWAP3 SWAP2 POP POP JUMP JUMPDEST PUSH0 DUP3 DUP3 MSTORE PUSH1 0x20 DUP3 ADD SWAP1 POP SWAP3 SWAP2 POP POP JUMP JUMPDEST PUSH32 0x4E6F2062616C616E636521000000000000000000000000000000000000000000 PUSH0 DUP3 ADD MSTORE POP JUMP JUMPDEST PUSH0 PUSH2 0x3BB PUSH1 0xB DUP4 PUSH2 0x377 JUMP JUMPDEST SWAP2 POP PUSH2 0x3C6 DUP3 PUSH2 0x387 JUMP JUMPDEST PUSH1 0x20 DUP3 ADD SWAP1 POP SWAP2 SWAP1 POP JUMP JUMPDEST PUSH0 PUSH1 0x20 DUP3 ADD SWAP1 POP DUP2 DUP2 SUB PUSH0 DUP4 ADD MSTORE PUSH2 0x3E8 DUP2 PUSH2 0x3AF JUMP JUMPDEST SWAP1 POP SWAP2 SWAP1 POP JUMP JUMPDEST PUSH32 0x4E487B7100000000000000000000000000000000000000000000000000000000 PUSH0 MSTORE PUSH1 0x11 PUSH1 0x4 MSTORE PUSH1 0x24 PUSH0 REVERT JUMPDEST PUSH0 PUSH2 0x426 DUP3 PUSH2 0x346 JUMP JUMPDEST SWAP2 POP PUSH2 0x431 DUP4 PUSH2 0x346 JUMP JUMPDEST SWAP3 POP DUP3 DUP3 SUB SWAP1 POP DUP2 DUP2 GT ISZERO PUSH2 0x449 JUMPI PUSH2 0x448 PUSH2 0x3EF JUMP JUMPDEST JUMPDEST SWAP3 SWAP2 POP POP JUMP JUMPDEST PUSH0 DUP2 SWAP1 POP SWAP3 SWAP2 POP POP JUMP JUMPDEST POP JUMP JUMPDEST PUSH0 PUSH2 0x467 PUSH0 DUP4 PUSH2 0x44F JUMP JUMPDEST SWAP2 POP PUSH2 0x472 DUP3 PUSH2 0x459 JUMP JUMPDEST PUSH0 DUP3 ADD SWAP1 POP SWAP2 SWAP1 POP JUMP JUMPDEST PUSH0 PUSH2 0x486 DUP3 PUSH2 0x45C JUMP JUMPDEST SWAP2 POP DUP2 SWAP1 POP SWAP2 SWAP1 POP JUMP JUMPDEST PUSH32 0x5472616E73616374696F6E206661696C65642100000000000000000000000000 PUSH0 DUP3 ADD MSTORE POP JUMP JUMPDEST PUSH0 PUSH2 0x4C4 PUSH1 0x13 DUP4 PUSH2 0x377 JUMP JUMPDEST SWAP2 POP PUSH2 0x4CF DUP3 PUSH2 0x490 JUMP JUMPDEST PUSH1 0x20 DUP3 ADD SWAP1 POP SWAP2 SWAP1 POP JUMP JUMPDEST PUSH0 PUSH1 0x20 DUP3 ADD SWAP1 POP DUP2 DUP2 SUB PUSH0 DUP4 ADD MSTORE PUSH2 0x4F1 DUP2 PUSH2 0x4B8 JUMP JUMPDEST SWAP1 POP SWAP2 SWAP1 POP JUMP JUMPDEST PUSH32 0x496E76616C696420616D6F756E74210000000000000000000000000000000000 PUSH0 DUP3 ADD MSTORE POP JUMP JUMPDEST PUSH0 PUSH2 0x52C PUSH1 0xF DUP4 PUSH2 0x377 JUMP JUMPDEST SWAP2 POP PUSH2 0x537 DUP3 PUSH2 0x4F8 JUMP JUMPDEST PUSH1 0x20 DUP3 ADD SWAP1 POP SWAP2 SWAP1 POP JUMP JUMPDEST PUSH0 PUSH1 0x20 DUP3 ADD SWAP1 POP DUP2 DUP2 SUB PUSH0 DUP4 ADD MSTORE PUSH2 0x559 DUP2 PUSH2 0x520 JUMP JUMPDEST SWAP1 POP SWAP2 SWAP1 POP JUMP JUMPDEST PUSH0 PUSH2 0x56A DUP3 PUSH2 0x346 JUMP JUMPDEST SWAP2 POP PUSH2 0x575 DUP4 PUSH2 0x346 JUMP JUMPDEST SWAP3 POP DUP3 DUP3 ADD SWAP1 POP DUP1 DUP3 GT ISZERO PUSH2 0x58D JUMPI PUSH2 0x58C PUSH2 0x3EF JUMP JUMPDEST JUMPDEST SWAP3 SWAP2 POP POP JUMP INVALID LOG2 PUSH5 0x6970667358 0x22 SLT KECCAK256 RETURN SWAP6 PUSH6 0x639896DB1931 EOFCREATE 0xDB 0xD8 DUP11 ADDMOD DUP8 PUSH30 0x1F14A92B50E9BD19EDB029E9168DC6BD64736F6C63430008220033000000 "
				},
				"gasEstimates": {
					"creation": {
						"codeDepositCost": "296200",
						"executionCost": "335",
						"totalCost": "296535"
					},
					"external": {
						"balances(address)": "2801",
						"deposit()": "infinite",
						"withDraw()": "infinite"
					}
				},
				"methodIdentifiers": {
					"balances(address)": "27e235e3",
					"deposit()": "d0e30db0",
					"withDraw()": "0fdb1c10"
				}
			},
			"storageLayout": {
				"storage": [
					{
						"astId": 5,
						"contract": "lession8.2-Security/SecureVaulCEI.sol:SecureVaulCEI",
						"label": "balances",
						"offset": 0,
						"slot": "0",
						"type": "t_mapping(t_address,t_uint256)"
					}
				],
				"types": {
					"t_address": {
						"encoding": "inplace",
						"label": "address",
						"numberOfBytes": "20"
					},
					"t_mapping(t_address,t_uint256)": {
						"encoding": "mapping",
						"key": "t_address",
						"label": "mapping(address => uint256)",
						"numberOfBytes": "32",
						"value": "t_uint256"
					},
					"t_uint256": {
						"encoding": "inplace",
						"label": "uint256",
						"numberOfBytes": "32"
					}
				}
			},
			"userdoc": {
				"kind": "user",
				"methods": {},
				"version": 1
			}
		}
	}
}