{
	"lession8.1-Invocation/factorynew/CounterNewFactory.sol": {
		"CounterNewFactory": {
			"abi": [
				{
					"anonymous": false,
					"inputs": [
						{
							"indexed": true,
							"internalType": "address",
							"name": "counterAddress",
							"type": "address"
						},
						{
							"indexed": false,
							"internalType": "address",
							"name": "owner",
							"type": "address"
						}
					],
					"name": "CounterCreated",
					"type": "event"
				},
				{
					"inputs": [
						{
							"internalType": "uint256",
							"name": "",
							"type": "uint256"
						}
					],
					"name": "counters",
					"outputs": [
						{
							"internalType": "address",
							"name": "",
							"type": "address"
						}
					],
					"stateMutability": "view",
					"type": "function"
				},
				{
					"inputs": [],
					"name": "createCounter",
					"outputs": [
						{
							"internalType": "address",
							"name": "",
							"type": "address"
						}
					],
					"stateMutability": "nonpayable",
					"type": "function"
				},
				{
					"inputs": [
						{
							"internalType": "uint256",
							"name": "index",
							"type": "uint256"
						}
					],
					"name": "getCounter",
					"outputs": [
						{
							"internalType": "address",
							"name": "",
							"type": "address"
						}
					],
					"stateMutability": "view",
					"type": "function"
				},
				{
					"inputs": [],
					"name": "getCounterCount",
					"outputs": [
						{
							"internalType": "uint256",
							"name": "",
							"type": "uint256"
						}
					],
					"stateMutability": "view",
					"type": "function"
				}
			],
			"devdoc": {
				"kind": "dev",
				"methods": {
					"createCounter()": {
						"returns": {
							"_0": "新创建的计数器合约地址"
						}
					}
				},
				"version": 1
			},
			"evm": {
				"assembly": "    /* \"lession8.1-Invocation/factorynew/CounterNewFactory.sol\":153:1363  contract CounterNewFactory {... */\n  mstore(0x40, 0x80)\n  callvalue\n  dup1\n  iszero\n  tag_1\n  jumpi\n  revert(0x00, 0x00)\ntag_1:\n  pop\n  dataSize(sub_0)\n  dup1\n  dataOffset(sub_0)\n  0x00\n  codecopy\n  0x00\n  return\nstop\n\nsub_0: assembly {\n        /* \"lession8.1-Invocation/factorynew/CounterNewFactory.sol\":153:1363  contract CounterNewFactory {... */\n      mstore(0x40, 0x80)\n      callvalue\n      dup1\n      iszero\n      tag_1\n      jumpi\n      revert(0x00, 0x00)\n    tag_1:\n      pop\n      jumpi(tag_2, lt(calldatasize, 0x04))\n      shr(0xe0, calldataload(0x00))\n      dup1\n      0x214aed45\n      eq\n      tag_3\n      jumpi\n      dup1\n      0x639e5214\n      eq\n      tag_4\n      jumpi\n      dup1\n      0x78b52948\n      eq\n      tag_5\n      jumpi\n      dup1\n      0xfba7ffa3\n      eq\n      tag_6\n      jumpi\n    tag_2:\n      revert(0x00, 0x00)\n        /* \"lession8.1-Invocation/factorynew/CounterNewFactory.sol\":1192:1361  function getCounter(uint index) external view returns (address) {... */\n    tag_3:\n      tag_7\n      0x04\n      dup1\n      calldatasize\n      sub\n      dup2\n      add\n      swap1\n      tag_8\n      swap2\n      swap1\n      tag_9\n      jump\t// in\n    tag_8:\n      tag_10\n      jump\t// in\n    tag_7:\n      mload(0x40)\n      tag_11\n      swap2\n      swap1\n      tag_12\n      jump\t// in\n    tag_11:\n      mload(0x40)\n      dup1\n      swap2\n      sub\n      swap1\n      return\n        /* \"lession8.1-Invocation/factorynew/CounterNewFactory.sol\":1022:1120  function getCounterCount() external view returns (uint256) {... */\n    tag_4:\n      tag_13\n      tag_14\n      jump\t// in\n    tag_13:\n      mload(0x40)\n      tag_15\n      swap2\n      swap1\n      tag_16\n      jump\t// in\n    tag_15:\n      mload(0x40)\n      dup1\n      swap2\n      sub\n      swap1\n      return\n        /* \"lession8.1-Invocation/factorynew/CounterNewFactory.sol\":449:950  function createCounter() external returns (address) {... */\n    tag_5:\n      tag_17\n      tag_18\n      jump\t// in\n    tag_17:\n      mload(0x40)\n      tag_19\n      swap2\n      swap1\n      tag_12\n      jump\t// in\n    tag_19:\n      mload(0x40)\n      dup1\n      swap2\n      sub\n      swap1\n      return\n        /* \"lession8.1-Invocation/factorynew/CounterNewFactory.sol\":230:255  address[] public counters */\n    tag_6:\n      tag_20\n      0x04\n      dup1\n      calldatasize\n      sub\n      dup2\n      add\n      swap1\n      tag_21\n      swap2\n      swap1\n      tag_9\n      jump\t// in\n    tag_21:\n      tag_22\n      jump\t// in\n    tag_20:\n      mload(0x40)\n      tag_23\n      swap2\n      swap1\n      tag_12\n      jump\t// in\n    tag_23:\n      mload(0x40)\n      dup1\n      swap2\n      sub\n      swap1\n      return\n        /* \"lession8.1-Invocation/factorynew/CounterNewFactory.sol\":1192:1361  function getCounter(uint index) external view returns (address) {... */\n    tag_10:\n        /* \"lession8.1-Invocation/factorynew/CounterNewFactory.sol\":1247:1254  address */\n      0x00\n        /* \"lession8.1-Invocation/factorynew/CounterNewFactory.sol\":1282:1290  counters */\n      0x00\n        /* \"lession8.1-Invocation/factorynew/CounterNewFactory.sol\":1282:1297  counters.length */\n      dup1\n      sload\n      swap1\n      pop\n        /* \"lession8.1-Invocation/factorynew/CounterNewFactory.sol\":1274:1279  index */\n      dup3\n        /* \"lession8.1-Invocation/factorynew/CounterNewFactory.sol\":1274:1297  index < counters.length */\n      lt\n        /* \"lession8.1-Invocation/factorynew/CounterNewFactory.sol\":1266:1322  require(index < counters.length, \"Index out of bounds!\") */\n      tag_25\n      jumpi\n      mload(0x40)\n      0x08c379a000000000000000000000000000000000000000000000000000000000\n      dup2\n      mstore\n      0x04\n      add\n      tag_26\n      swap1\n      tag_27\n      jump\t// in\n    tag_26:\n      mload(0x40)\n      dup1\n      swap2\n      sub\n      swap1\n      revert\n    tag_25:\n        /* \"lession8.1-Invocation/factorynew/CounterNewFactory.sol\":1339:1347  counters */\n      0x00\n        /* \"lession8.1-Invocation/factorynew/CounterNewFactory.sol\":1348:1353  index */\n      dup3\n        /* \"lession8.1-Invocation/factorynew/CounterNewFactory.sol\":1339:1354  counters[index] */\n      dup2\n      sload\n      dup2\n      lt\n      tag_28\n      jumpi\n      tag_29\n      tag_30\n      jump\t// in\n    tag_29:\n    tag_28:\n      swap1\n      0x00\n      mstore\n      keccak256(0x00, 0x20)\n      add\n      0x00\n      swap1\n      sload\n      swap1\n      0x0100\n      exp\n      swap1\n      div\n      0xffffffffffffffffffffffffffffffffffffffff\n      and\n        /* \"lession8.1-Invocation/factorynew/CounterNewFactory.sol\":1332:1354  return counters[index] */\n      swap1\n      pop\n        /* \"lession8.1-Invocation/factorynew/CounterNewFactory.sol\":1192:1361  function getCounter(uint index) external view returns (address) {... */\n      swap2\n      swap1\n      pop\n      jump\t// out\n        /* \"lession8.1-Invocation/factorynew/CounterNewFactory.sol\":1022:1120  function getCounterCount() external view returns (uint256) {... */\n    tag_14:\n        /* \"lession8.1-Invocation/factorynew/CounterNewFactory.sol\":1072:1079  uint256 */\n      0x00\n        /* \"lession8.1-Invocation/factorynew/CounterNewFactory.sol\":1098:1106  counters */\n      0x00\n        /* \"lession8.1-Invocation/factorynew/CounterNewFactory.sol\":1098:1113  counters.length */\n      dup1\n      sload\n      swap1\n      pop\n        /* \"lession8.1-Invocation/factorynew/CounterNewFactory.sol\":1091:1113  return counters.length */\n      swap1\n      pop\n        /* \"lession8.1-Invocation/factorynew/CounterNewFactory.sol\":1022:1120  function getCounterCount() external view returns (uint256) {... */\n      swap1\n      jump\t// out\n        /* \"lession8.1-Invocation/factorynew/CounterNewFactory.sol\":449:950  function createCounter() external returns (address) {... */\n    tag_18:\n        /* \"lession8.1-Invocation/factorynew/CounterNewFactory.sol\":492:499  address */\n      0x00\n        /* \"lession8.1-Invocation/factorynew/CounterNewFactory.sol\":625:643  Counter newCounter */\n      0x00\n        /* \"lession8.1-Invocation/factorynew/CounterNewFactory.sol\":658:668  msg.sender */\n      caller\n        /* \"lession8.1-Invocation/factorynew/CounterNewFactory.sol\":646:669  new Counter(msg.sender) */\n      mload(0x40)\n      tag_34\n      swap1\n      tag_35\n      jump\t// in\n    tag_34:\n      tag_36\n      swap2\n      swap1\n      tag_12\n      jump\t// in\n    tag_36:\n      mload(0x40)\n      dup1\n      swap2\n      sub\n      swap1\n      0x00\n      create\n      dup1\n      iszero\n      dup1\n      iszero\n      tag_37\n      jumpi\n      returndatacopy(0x00, 0x00, returndatasize)\n      revert(0x00, returndatasize)\n    tag_37:\n      pop\n        /* \"lession8.1-Invocation/factorynew/CounterNewFactory.sol\":625:669  Counter newCounter = new Counter(msg.sender) */\n      swap1\n      pop\n        /* \"lession8.1-Invocation/factorynew/CounterNewFactory.sol\":712:734  address counterAddress */\n      0x00\n        /* \"lession8.1-Invocation/factorynew/CounterNewFactory.sol\":745:755  newCounter */\n      dup2\n        /* \"lession8.1-Invocation/factorynew/CounterNewFactory.sol\":712:756  address counterAddress = address(newCounter) */\n      swap1\n      pop\n        /* \"lession8.1-Invocation/factorynew/CounterNewFactory.sol\":800:808  counters */\n      0x00\n        /* \"lession8.1-Invocation/factorynew/CounterNewFactory.sol\":814:828  counterAddress */\n      dup2\n        /* \"lession8.1-Invocation/factorynew/CounterNewFactory.sol\":800:829  counters.push(counterAddress) */\n      swap1\n      dup1\n      0x01\n      dup2\n      sload\n      add\n      dup1\n      dup3\n      sstore\n      dup1\n      swap2\n      pop\n      pop\n      0x01\n      swap1\n      sub\n      swap1\n      0x00\n      mstore\n      keccak256(0x00, 0x20)\n      add\n      0x00\n      swap1\n      swap2\n      swap1\n      swap2\n      swap1\n      swap2\n      0x0100\n      exp\n      dup2\n      sload\n      dup2\n      0xffffffffffffffffffffffffffffffffffffffff\n      mul\n      not\n      and\n      swap1\n      dup4\n      0xffffffffffffffffffffffffffffffffffffffff\n      and\n      mul\n      or\n      swap1\n      sstore\n      pop\n        /* \"lession8.1-Invocation/factorynew/CounterNewFactory.sol\":884:898  counterAddress */\n      dup1\n        /* \"lession8.1-Invocation/factorynew/CounterNewFactory.sol\":869:911  CounterCreated(counterAddress, msg.sender) */\n      0xffffffffffffffffffffffffffffffffffffffff\n      and\n      0x5c38acfb3685547711685ae1e758ca685f33fa7cd3e3c738411afd24b9339189\n        /* \"lession8.1-Invocation/factorynew/CounterNewFactory.sol\":900:910  msg.sender */\n      caller\n        /* \"lession8.1-Invocation/factorynew/CounterNewFactory.sol\":869:911  CounterCreated(counterAddress, msg.sender) */\n      mload(0x40)\n      tag_39\n      swap2\n      swap1\n      tag_12\n      jump\t// in\n    tag_39:\n      mload(0x40)\n      dup1\n      swap2\n      sub\n      swap1\n      log2\n        /* \"lession8.1-Invocation/factorynew/CounterNewFactory.sol\":929:943  counterAddress */\n      dup1\n        /* \"lession8.1-Invocation/factorynew/CounterNewFactory.sol\":922:943  return counterAddress */\n      swap3\n      pop\n      pop\n      pop\n        /* \"lession8.1-Invocation/factorynew/CounterNewFactory.sol\":449:950  function createCounter() external returns (address) {... */\n      swap1\n      jump\t// out\n        /* \"lession8.1-Invocation/factorynew/CounterNewFactory.sol\":230:255  address[] public counters */\n    tag_22:\n      0x00\n      dup2\n      dup2\n      sload\n      dup2\n      lt\n      tag_40\n      jumpi\n      0x00\n      dup1\n      revert\n    tag_40:\n      swap1\n      0x00\n      mstore\n      keccak256(0x00, 0x20)\n      add\n      0x00\n      swap2\n      pop\n      sload\n      swap1\n      0x0100\n      exp\n      swap1\n      div\n      0xffffffffffffffffffffffffffffffffffffffff\n      and\n      dup2\n      jump\t// out\n    tag_35:\n      dataSize(sub_0)\n      dup1\n      dataOffset(sub_0)\n      dup4\n      codecopy\n      add\n      swap1\n      jump\t// out\n        /* \"#utility.yul\":88:205   */\n    tag_43:\n        /* \"#utility.yul\":197:198   */\n      0x00\n        /* \"#utility.yul\":194:195   */\n      0x00\n        /* \"#utility.yul\":187:199   */\n      revert\n        /* \"#utility.yul\":334:411   */\n    tag_45:\n        /* \"#utility.yul\":371:378   */\n      0x00\n        /* \"#utility.yul\":400:405   */\n      dup2\n        /* \"#utility.yul\":389:405   */\n      swap1\n      pop\n        /* \"#utility.yul\":334:411   */\n      swap2\n      swap1\n      pop\n      jump\t// out\n        /* \"#utility.yul\":417:539   */\n    tag_46:\n        /* \"#utility.yul\":490:514   */\n      tag_61\n        /* \"#utility.yul\":508:513   */\n      dup2\n        /* \"#utility.yul\":490:514   */\n      tag_45\n      jump\t// in\n    tag_61:\n        /* \"#utility.yul\":483:488   */\n      dup2\n        /* \"#utility.yul\":480:515   */\n      eq\n        /* \"#utility.yul\":470:533   */\n      tag_62\n      jumpi\n        /* \"#utility.yul\":529:530   */\n      0x00\n        /* \"#utility.yul\":526:527   */\n      0x00\n        /* \"#utility.yul\":519:531   */\n      revert\n        /* \"#utility.yul\":470:533   */\n    tag_62:\n        /* \"#utility.yul\":417:539   */\n      pop\n      jump\t// out\n        /* \"#utility.yul\":545:684   */\n    tag_47:\n        /* \"#utility.yul\":591:596   */\n      0x00\n        /* \"#utility.yul\":629:635   */\n      dup2\n        /* \"#utility.yul\":616:636   */\n      calldataload\n        /* \"#utility.yul\":607:636   */\n      swap1\n      pop\n        /* \"#utility.yul\":645:678   */\n      tag_64\n        /* \"#utility.yul\":672:677   */\n      dup2\n        /* \"#utility.yul\":645:678   */\n      tag_46\n      jump\t// in\n    tag_64:\n        /* \"#utility.yul\":545:684   */\n      swap3\n      swap2\n      pop\n      pop\n      jump\t// out\n        /* \"#utility.yul\":690:1019   */\n    tag_9:\n        /* \"#utility.yul\":749:755   */\n      0x00\n        /* \"#utility.yul\":798:800   */\n      0x20\n        /* \"#utility.yul\":786:795   */\n      dup3\n        /* \"#utility.yul\":777:784   */\n      dup5\n        /* \"#utility.yul\":773:796   */\n      sub\n        /* \"#utility.yul\":769:801   */\n      slt\n        /* \"#utility.yul\":766:885   */\n      iszero\n      tag_66\n      jumpi\n        /* \"#utility.yul\":804:883   */\n      tag_67\n      tag_43\n      jump\t// in\n    tag_67:\n        /* \"#utility.yul\":766:885   */\n    tag_66:\n        /* \"#utility.yul\":924:925   */\n      0x00\n        /* \"#utility.yul\":949:1002   */\n      tag_68\n        /* \"#utility.yul\":994:1001   */\n      dup5\n        /* \"#utility.yul\":985:991   */\n      dup3\n        /* \"#utility.yul\":974:983   */\n      dup6\n        /* \"#utility.yul\":970:992   */\n      add\n        /* \"#utility.yul\":949:1002   */\n      tag_47\n      jump\t// in\n    tag_68:\n        /* \"#utility.yul\":939:1002   */\n      swap2\n      pop\n        /* \"#utility.yul\":895:1012   */\n      pop\n        /* \"#utility.yul\":690:1019   */\n      swap3\n      swap2\n      pop\n      pop\n      jump\t// out\n        /* \"#utility.yul\":1025:1151   */\n    tag_48:\n        /* \"#utility.yul\":1062:1069   */\n      0x00\n        /* \"#utility.yul\":1102:1144   */\n      0xffffffffffffffffffffffffffffffffffffffff\n        /* \"#utility.yul\":1095:1100   */\n      dup3\n        /* \"#utility.yul\":1091:1145   */\n      and\n        /* \"#utility.yul\":1080:1145   */\n      swap1\n      pop\n        /* \"#utility.yul\":1025:1151   */\n      swap2\n      swap1\n      pop\n      jump\t// out\n        /* \"#utility.yul\":1157:1253   */\n    tag_49:\n        /* \"#utility.yul\":1194:1201   */\n      0x00\n        /* \"#utility.yul\":1223:1247   */\n      tag_71\n        /* \"#utility.yul\":1241:1246   */\n      dup3\n        /* \"#utility.yul\":1223:1247   */\n      tag_48\n      jump\t// in\n    tag_71:\n        /* \"#utility.yul\":1212:1247   */\n      swap1\n      pop\n        /* \"#utility.yul\":1157:1253   */\n      swap2\n      swap1\n      pop\n      jump\t// out\n        /* \"#utility.yul\":1259:1377   */\n    tag_50:\n        /* \"#utility.yul\":1346:1370   */\n      tag_73\n        /* \"#utility.yul\":1364:1369   */\n      dup2\n        /* \"#utility.yul\":1346:1370   */\n      tag_49\n      jump\t// in\n    tag_73:\n        /* \"#utility.yul\":1341:1344   */\n      dup3\n        /* \"#utility.yul\":1334:1371   */\n      mstore\n        /* \"#utility.yul\":1259:1377   */\n      pop\n      pop\n      jump\t// out\n        /* \"#utility.yul\":1383:1605   */\n    tag_12:\n        /* \"#utility.yul\":1476:1480   */\n      0x00\n        /* \"#utility.yul\":1514:1516   */\n      0x20\n        /* \"#utility.yul\":1503:1512   */\n      dup3\n        /* \"#utility.yul\":1499:1517   */\n      add\n        /* \"#utility.yul\":1491:1517   */\n      swap1\n      pop\n        /* \"#utility.yul\":1527:1598   */\n      tag_75\n        /* \"#utility.yul\":1595:1596   */\n      0x00\n        /* \"#utility.yul\":1584:1593   */\n      dup4\n        /* \"#utility.yul\":1580:1597   */\n      add\n        /* \"#utility.yul\":1571:1577   */\n      dup5\n        /* \"#utility.yul\":1527:1598   */\n      tag_50\n      jump\t// in\n    tag_75:\n        /* \"#utility.yul\":1383:1605   */\n      swap3\n      swap2\n      pop\n      pop\n      jump\t// out\n        /* \"#utility.yul\":1611:1729   */\n    tag_51:\n        /* \"#utility.yul\":1698:1722   */\n      tag_77\n        /* \"#utility.yul\":1716:1721   */\n      dup2\n        /* \"#utility.yul\":1698:1722   */\n      tag_45\n      jump\t// in\n    tag_77:\n        /* \"#utility.yul\":1693:1696   */\n      dup3\n        /* \"#utility.yul\":1686:1723   */\n      mstore\n        /* \"#utility.yul\":1611:1729   */\n      pop\n      pop\n      jump\t// out\n        /* \"#utility.yul\":1735:1957   */\n    tag_16:\n        /* \"#utility.yul\":1828:1832   */\n      0x00\n        /* \"#utility.yul\":1866:1868   */\n      0x20\n        /* \"#utility.yul\":1855:1864   */\n      dup3\n        /* \"#utility.yul\":1851:1869   */\n      add\n        /* \"#utility.yul\":1843:1869   */\n      swap1\n      pop\n        /* \"#utility.yul\":1879:1950   */\n      tag_79\n        /* \"#utility.yul\":1947:1948   */\n      0x00\n        /* \"#utility.yul\":1936:1945   */\n      dup4\n        /* \"#utility.yul\":1932:1949   */\n      add\n        /* \"#utility.yul\":1923:1929   */\n      dup5\n        /* \"#utility.yul\":1879:1950   */\n      tag_51\n      jump\t// in\n    tag_79:\n        /* \"#utility.yul\":1735:1957   */\n      swap3\n      swap2\n      pop\n      pop\n      jump\t// out\n        /* \"#utility.yul\":1963:2132   */\n    tag_52:\n        /* \"#utility.yul\":2047:2058   */\n      0x00\n        /* \"#utility.yul\":2081:2087   */\n      dup3\n        /* \"#utility.yul\":2076:2079   */\n      dup3\n        /* \"#utility.yul\":2069:2088   */\n      mstore\n        /* \"#utility.yul\":2121:2125   */\n      0x20\n        /* \"#utility.yul\":2116:2119   */\n      dup3\n        /* \"#utility.yul\":2112:2126   */\n      add\n        /* \"#utility.yul\":2097:2126   */\n      swap1\n      pop\n        /* \"#utility.yul\":1963:2132   */\n      swap3\n      swap2\n      pop\n      pop\n      jump\t// out\n        /* \"#utility.yul\":2138:2308   */\n    tag_53:\n        /* \"#utility.yul\":2278:2300   */\n      0x496e646578206f7574206f6620626f756e647321000000000000000000000000\n        /* \"#utility.yul\":2274:2275   */\n      0x00\n        /* \"#utility.yul\":2266:2272   */\n      dup3\n        /* \"#utility.yul\":2262:2276   */\n      add\n        /* \"#utility.yul\":2255:2301   */\n      mstore\n        /* \"#utility.yul\":2138:2308   */\n      pop\n      jump\t// out\n        /* \"#utility.yul\":2314:2680   */\n    tag_54:\n        /* \"#utility.yul\":2456:2459   */\n      0x00\n        /* \"#utility.yul\":2477:2544   */\n      tag_83\n        /* \"#utility.yul\":2541:2543   */\n      0x14\n        /* \"#utility.yul\":2536:2539   */\n      dup4\n        /* \"#utility.yul\":2477:2544   */\n      tag_52\n      jump\t// in\n    tag_83:\n        /* \"#utility.yul\":2470:2544   */\n      swap2\n      pop\n        /* \"#utility.yul\":2553:2646   */\n      tag_84\n        /* \"#utility.yul\":2642:2645   */\n      dup3\n        /* \"#utility.yul\":2553:2646   */\n      tag_53\n      jump\t// in\n    tag_84:\n        /* \"#utility.yul\":2671:2673   */\n      0x20\n        /* \"#utility.yul\":2666:2669   */\n      dup3\n        /* \"#utility.yul\":2662:2674   */\n      add\n        /* \"#utility.yul\":2655:2674   */\n      swap1\n      pop\n        /* \"#utility.yul\":2314:2680   */\n      swap2\n      swap1\n      pop\n      jump\t// out\n        /* \"#utility.yul\":2686:3105   */\n    tag_27:\n        /* \"#utility.yul\":2852:2856   */\n      0x00\n        /* \"#utility.yul\":2890:2892   */\n      0x20\n        /* \"#utility.yul\":2879:2888   */\n      dup3\n        /* \"#utility.yul\":2875:2893   */\n      add\n        /* \"#utility.yul\":2867:2893   */\n      swap1\n      pop\n        /* \"#utility.yul\":2939:2948   */\n      dup2\n        /* \"#utility.yul\":2933:2937   */\n      dup2\n        /* \"#utility.yul\":2929:2949   */\n      sub\n        /* \"#utility.yul\":2925:2926   */\n      0x00\n        /* \"#utility.yul\":2914:2923   */\n      dup4\n        /* \"#utility.yul\":2910:2927   */\n      add\n        /* \"#utility.yul\":2903:2950   */\n      mstore\n        /* \"#utility.yul\":2967:3098   */\n      tag_86\n        /* \"#utility.yul\":3093:3097   */\n      dup2\n        /* \"#utility.yul\":2967:3098   */\n      tag_54\n      jump\t// in\n    tag_86:\n        /* \"#utility.yul\":2959:3098   */\n      swap1\n      pop\n        /* \"#utility.yul\":2686:3105   */\n      swap2\n      swap1\n      pop\n      jump\t// out\n        /* \"#utility.yul\":3111:3291   */\n    tag_30:\n        /* \"#utility.yul\":3159:3236   */\n      0x4e487b7100000000000000000000000000000000000000000000000000000000\n        /* \"#utility.yul\":3156:3157   */\n      0x00\n        /* \"#utility.yul\":3149:3237   */\n      mstore\n        /* \"#utility.yul\":3256:3260   */\n      0x32\n        /* \"#utility.yul\":3253:3254   */\n      0x04\n        /* \"#utility.yul\":3246:3261   */\n      mstore\n        /* \"#utility.yul\":3280:3284   */\n      0x24\n        /* \"#utility.yul\":3277:3278   */\n      0x00\n        /* \"#utility.yul\":3270:3285   */\n      revert\n    stop\n\n    sub_0: assembly {\n            /* \"lession8.1-Invocation/factorynew/Counter.sol\":85:350  contract Counter {... */\n          mstore(0x40, 0x80)\n            /* \"lession8.1-Invocation/factorynew/Counter.sol\":158:236  constructor(address _owner) {... */\n          callvalue\n          dup1\n          iszero\n          tag_1\n          jumpi\n          revert(0x00, 0x00)\n        tag_1:\n          pop\n          mload(0x40)\n          sub(codesize, bytecodeSize)\n          dup1\n          bytecodeSize\n          dup4\n          codecopy\n          dup2\n          dup2\n          add\n          0x40\n          mstore\n          dup2\n          add\n          swap1\n          tag_2\n          swap2\n          swap1\n          tag_3\n          jump\t// in\n        tag_2:\n            /* \"lession8.1-Invocation/factorynew/Counter.sol\":204:210  _owner */\n          dup1\n            /* \"lession8.1-Invocation/factorynew/Counter.sol\":196:201  owner */\n          0x01\n          0x00\n            /* \"lession8.1-Invocation/factorynew/Counter.sol\":196:210  owner = _owner */\n          0x0100\n          exp\n          dup2\n          sload\n          dup2\n          0xffffffffffffffffffffffffffffffffffffffff\n          mul\n          not\n          and\n          swap1\n          dup4\n          0xffffffffffffffffffffffffffffffffffffffff\n          and\n          mul\n          or\n          swap1\n          sstore\n          pop\n            /* \"lession8.1-Invocation/factorynew/Counter.sol\":228:229  0 */\n          0x00\n            /* \"lession8.1-Invocation/factorynew/Counter.sol\":220:225  count */\n          0x00\n            /* \"lession8.1-Invocation/factorynew/Counter.sol\":220:229  count = 0 */\n          dup2\n          swap1\n          sstore\n          pop\n            /* \"lession8.1-Invocation/factorynew/Counter.sol\":158:236  constructor(address _owner) {... */\n          pop\n            /* \"lession8.1-Invocation/factorynew/Counter.sol\":85:350  contract Counter {... */\n          jump(tag_6)\n            /* \"#utility.yul\":88:205   */\n        tag_8:\n            /* \"#utility.yul\":197:198   */\n          0x00\n            /* \"#utility.yul\":194:195   */\n          0x00\n            /* \"#utility.yul\":187:199   */\n          revert\n            /* \"#utility.yul\":334:460   */\n        tag_10:\n            /* \"#utility.yul\":371:378   */\n          0x00\n            /* \"#utility.yul\":411:453   */\n          0xffffffffffffffffffffffffffffffffffffffff\n            /* \"#utility.yul\":404:409   */\n          dup3\n            /* \"#utility.yul\":400:454   */\n          and\n            /* \"#utility.yul\":389:454   */\n          swap1\n          pop\n            /* \"#utility.yul\":334:460   */\n          swap2\n          swap1\n          pop\n          jump\t// out\n            /* \"#utility.yul\":466:562   */\n        tag_11:\n            /* \"#utility.yul\":503:510   */\n          0x00\n            /* \"#utility.yul\":532:556   */\n          tag_20\n            /* \"#utility.yul\":550:555   */\n          dup3\n            /* \"#utility.yul\":532:556   */\n          tag_10\n          jump\t// in\n        tag_20:\n            /* \"#utility.yul\":521:556   */\n          swap1\n          pop\n            /* \"#utility.yul\":466:562   */\n          swap2\n          swap1\n          pop\n          jump\t// out\n            /* \"#utility.yul\":568:690   */\n        tag_12:\n            /* \"#utility.yul\":641:665   */\n          tag_22\n            /* \"#utility.yul\":659:664   */\n          dup2\n            /* \"#utility.yul\":641:665   */\n          tag_11\n          jump\t// in\n        tag_22:\n            /* \"#utility.yul\":634:639   */\n          dup2\n            /* \"#utility.yul\":631:666   */\n          eq\n            /* \"#utility.yul\":621:684   */\n          tag_23\n          jumpi\n            /* \"#utility.yul\":680:681   */\n          0x00\n            /* \"#utility.yul\":677:678   */\n          0x00\n            /* \"#utility.yul\":670:682   */\n          revert\n            /* \"#utility.yul\":621:684   */\n        tag_23:\n            /* \"#utility.yul\":568:690   */\n          pop\n          jump\t// out\n            /* \"#utility.yul\":696:839   */\n        tag_13:\n            /* \"#utility.yul\":753:758   */\n          0x00\n            /* \"#utility.yul\":784:790   */\n          dup2\n            /* \"#utility.yul\":778:791   */\n          mload\n            /* \"#utility.yul\":769:791   */\n          swap1\n          pop\n            /* \"#utility.yul\":800:833   */\n          tag_25\n            /* \"#utility.yul\":827:832   */\n          dup2\n            /* \"#utility.yul\":800:833   */\n          tag_12\n          jump\t// in\n        tag_25:\n            /* \"#utility.yul\":696:839   */\n          swap3\n          swap2\n          pop\n          pop\n          jump\t// out\n            /* \"#utility.yul\":845:1196   */\n        tag_3:\n            /* \"#utility.yul\":915:921   */\n          0x00\n            /* \"#utility.yul\":964:966   */\n          0x20\n            /* \"#utility.yul\":952:961   */\n          dup3\n            /* \"#utility.yul\":943:950   */\n          dup5\n            /* \"#utility.yul\":939:962   */\n          sub\n            /* \"#utility.yul\":935:967   */\n          slt\n            /* \"#utility.yul\":932:1051   */\n          iszero\n          tag_27\n          jumpi\n            /* \"#utility.yul\":970:1049   */\n          tag_28\n          tag_8\n          jump\t// in\n        tag_28:\n            /* \"#utility.yul\":932:1051   */\n        tag_27:\n            /* \"#utility.yul\":1090:1091   */\n          0x00\n            /* \"#utility.yul\":1115:1179   */\n          tag_29\n            /* \"#utility.yul\":1171:1178   */\n          dup5\n            /* \"#utility.yul\":1162:1168   */\n          dup3\n            /* \"#utility.yul\":1151:1160   */\n          dup6\n            /* \"#utility.yul\":1147:1169   */\n          add\n            /* \"#utility.yul\":1115:1179   */\n          tag_13\n          jump\t// in\n        tag_29:\n            /* \"#utility.yul\":1105:1179   */\n          swap2\n          pop\n            /* \"#utility.yul\":1061:1189   */\n          pop\n            /* \"#utility.yul\":845:1196   */\n          swap3\n          swap2\n          pop\n          pop\n          jump\t// out\n            /* \"lession8.1-Invocation/factorynew/Counter.sol\":85:350  contract Counter {... */\n        tag_6:\n          dataSize(sub_0)\n          dup1\n          dataOffset(sub_0)\n          0x00\n          codecopy\n          0x00\n          return\n        stop\n\n        sub_0: assembly {\n                /* \"lession8.1-Invocation/factorynew/Counter.sol\":85:350  contract Counter {... */\n              mstore(0x40, 0x80)\n              callvalue\n              dup1\n              iszero\n              tag_1\n              jumpi\n              revert(0x00, 0x00)\n            tag_1:\n              pop\n              jumpi(tag_2, lt(calldatasize, 0x04))\n              shr(0xe0, calldataload(0x00))\n              dup1\n              0x06661abd\n              eq\n              tag_3\n              jumpi\n              dup1\n              0x8da5cb5b\n              eq\n              tag_4\n              jumpi\n              dup1\n              0xd09de08a\n              eq\n              tag_5\n              jumpi\n            tag_2:\n              revert(0x00, 0x00)\n                /* \"lession8.1-Invocation/factorynew/Counter.sol\":108:125  uint public count */\n            tag_3:\n              tag_6\n              tag_7\n              jump\t// in\n            tag_6:\n              mload(0x40)\n              tag_8\n              swap2\n              swap1\n              tag_9\n              jump\t// in\n            tag_8:\n              mload(0x40)\n              dup1\n              swap2\n              sub\n              swap1\n              return\n                /* \"lession8.1-Invocation/factorynew/Counter.sol\":131:151  address public owner */\n            tag_4:\n              tag_10\n              tag_11\n              jump\t// in\n            tag_10:\n              mload(0x40)\n              tag_12\n              swap2\n              swap1\n              tag_13\n              jump\t// in\n            tag_12:\n              mload(0x40)\n              dup1\n              swap2\n              sub\n              swap1\n              return\n                /* \"lession8.1-Invocation/factorynew/Counter.sol\":242:348  function increment() external {... */\n            tag_5:\n              tag_14\n              tag_15\n              jump\t// in\n            tag_14:\n              stop\n                /* \"lession8.1-Invocation/factorynew/Counter.sol\":108:125  uint public count */\n            tag_7:\n              sload(0x00)\n              dup2\n              jump\t// out\n                /* \"lession8.1-Invocation/factorynew/Counter.sol\":131:151  address public owner */\n            tag_11:\n              0x01\n              0x00\n              swap1\n              sload\n              swap1\n              0x0100\n              exp\n              swap1\n              div\n              0xffffffffffffffffffffffffffffffffffffffff\n              and\n              dup2\n              jump\t// out\n                /* \"lession8.1-Invocation/factorynew/Counter.sol\":242:348  function increment() external {... */\n            tag_15:\n                /* \"lession8.1-Invocation/factorynew/Counter.sol\":299:309  msg.sender */\n              caller\n                /* \"lession8.1-Invocation/factorynew/Counter.sol\":290:309  owner == msg.sender */\n              0xffffffffffffffffffffffffffffffffffffffff\n              and\n                /* \"lession8.1-Invocation/factorynew/Counter.sol\":290:295  owner */\n              0x01\n              0x00\n              swap1\n              sload\n              swap1\n              0x0100\n              exp\n              swap1\n              div\n              0xffffffffffffffffffffffffffffffffffffffff\n              and\n                /* \"lession8.1-Invocation/factorynew/Counter.sol\":290:309  owner == msg.sender */\n              0xffffffffffffffffffffffffffffffffffffffff\n              and\n              eq\n                /* \"lession8.1-Invocation/factorynew/Counter.sol\":282:324  require(owner == msg.sender, \"Not owner!\") */\n              tag_17\n              jumpi\n              mload(0x40)\n              0x08c379a000000000000000000000000000000000000000000000000000000000\n              dup2\n              mstore\n              0x04\n              add\n              tag_18\n              swap1\n              tag_19\n              jump\t// in\n            tag_18:\n              mload(0x40)\n              dup1\n              swap2\n              sub\n              swap1\n              revert\n            tag_17:\n                /* \"lession8.1-Invocation/factorynew/Counter.sol\":334:339  count */\n              0x00\n              0x00\n                /* \"lession8.1-Invocation/factorynew/Counter.sol\":334:341  count++ */\n              dup2\n              sload\n              dup1\n              swap3\n              swap2\n              swap1\n              tag_20\n              swap1\n              tag_21\n              jump\t// in\n            tag_20:\n              swap2\n              swap1\n              pop\n              sstore\n              pop\n                /* \"lession8.1-Invocation/factorynew/Counter.sol\":242:348  function increment() external {... */\n              jump\t// out\n                /* \"#utility.yul\":7:84   */\n            tag_22:\n                /* \"#utility.yul\":44:51   */\n              0x00\n                /* \"#utility.yul\":73:78   */\n              dup2\n                /* \"#utility.yul\":62:78   */\n              swap1\n              pop\n                /* \"#utility.yul\":7:84   */\n              swap2\n              swap1\n              pop\n              jump\t// out\n                /* \"#utility.yul\":90:208   */\n            tag_23:\n                /* \"#utility.yul\":177:201   */\n              tag_34\n                /* \"#utility.yul\":195:200   */\n              dup2\n                /* \"#utility.yul\":177:201   */\n              tag_22\n              jump\t// in\n            tag_34:\n                /* \"#utility.yul\":172:175   */\n              dup3\n                /* \"#utility.yul\":165:202   */\n              mstore\n                /* \"#utility.yul\":90:208   */\n              pop\n              pop\n              jump\t// out\n                /* \"#utility.yul\":214:436   */\n            tag_9:\n                /* \"#utility.yul\":307:311   */\n              0x00\n                /* \"#utility.yul\":345:347   */\n              0x20\n                /* \"#utility.yul\":334:343   */\n              dup3\n                /* \"#utility.yul\":330:348   */\n              add\n                /* \"#utility.yul\":322:348   */\n              swap1\n              pop\n                /* \"#utility.yul\":358:429   */\n              tag_36\n                /* \"#utility.yul\":426:427   */\n              0x00\n                /* \"#utility.yul\":415:424   */\n              dup4\n                /* \"#utility.yul\":411:428   */\n              add\n                /* \"#utility.yul\":402:408   */\n              dup5\n                /* \"#utility.yul\":358:429   */\n              tag_23\n              jump\t// in\n            tag_36:\n                /* \"#utility.yul\":214:436   */\n              swap3\n              swap2\n              pop\n              pop\n              jump\t// out\n                /* \"#utility.yul\":442:568   */\n            tag_24:\n                /* \"#utility.yul\":479:486   */\n              0x00\n                /* \"#utility.yul\":519:561   */\n              0xffffffffffffffffffffffffffffffffffffffff\n                /* \"#utility.yul\":512:517   */\n              dup3\n                /* \"#utility.yul\":508:562   */\n              and\n                /* \"#utility.yul\":497:562   */\n              swap1\n              pop\n                /* \"#utility.yul\":442:568   */\n              swap2\n              swap1\n              pop\n              jump\t// out\n                /* \"#utility.yul\":574:670   */\n            tag_25:\n                /* \"#utility.yul\":611:618   */\n              0x00\n                /* \"#utility.yul\":640:664   */\n              tag_39\n                /* \"#utility.yul\":658:663   */\n              dup3\n                /* \"#utility.yul\":640:664   */\n              tag_24\n              jump\t// in\n            tag_39:\n                /* \"#utility.yul\":629:664   */\n              swap1\n              pop\n                /* \"#utility.yul\":574:670   */\n              swap2\n              swap1\n              pop\n              jump\t// out\n                /* \"#utility.yul\":676:794   */\n            tag_26:\n                /* \"#utility.yul\":763:787   */\n              tag_41\n                /* \"#utility.yul\":781:786   */\n              dup2\n                /* \"#utility.yul\":763:787   */\n              tag_25\n              jump\t// in\n            tag_41:\n                /* \"#utility.yul\":758:761   */\n              dup3\n                /* \"#utility.yul\":751:788   */\n              mstore\n                /* \"#utility.yul\":676:794   */\n              pop\n              pop\n              jump\t// out\n                /* \"#utility.yul\":800:1022   */\n            tag_13:\n                /* \"#utility.yul\":893:897   */\n              0x00\n                /* \"#utility.yul\":931:933   */\n              0x20\n                /* \"#utility.yul\":920:929   */\n              dup3\n                /* \"#utility.yul\":916:934   */\n              add\n                /* \"#utility.yul\":908:934   */\n              swap1\n              pop\n                /* \"#utility.yul\":944:1015   */\n              tag_43\n                /* \"#utility.yul\":1012:1013   */\n              0x00\n                /* \"#utility.yul\":1001:1010   */\n              dup4\n                /* \"#utility.yul\":997:1014   */\n              add\n                /* \"#utility.yul\":988:994   */\n              dup5\n                /* \"#utility.yul\":944:1015   */\n              tag_26\n              jump\t// in\n            tag_43:\n                /* \"#utility.yul\":800:1022   */\n              swap3\n              swap2\n              pop\n              pop\n              jump\t// out\n                /* \"#utility.yul\":1028:1197   */\n            tag_27:\n                /* \"#utility.yul\":1112:1123   */\n              0x00\n                /* \"#utility.yul\":1146:1152   */\n              dup3\n                /* \"#utility.yul\":1141:1144   */\n              dup3\n                /* \"#utility.yul\":1134:1153   */\n              mstore\n                /* \"#utility.yul\":1186:1190   */\n              0x20\n                /* \"#utility.yul\":1181:1184   */\n              dup3\n                /* \"#utility.yul\":1177:1191   */\n              add\n                /* \"#utility.yul\":1162:1191   */\n              swap1\n              pop\n                /* \"#utility.yul\":1028:1197   */\n              swap3\n              swap2\n              pop\n              pop\n              jump\t// out\n                /* \"#utility.yul\":1203:1363   */\n            tag_28:\n                /* \"#utility.yul\":1343:1355   */\n              0x4e6f74206f776e65722100000000000000000000000000000000000000000000\n                /* \"#utility.yul\":1339:1340   */\n              0x00\n                /* \"#utility.yul\":1331:1337   */\n              dup3\n                /* \"#utility.yul\":1327:1341   */\n              add\n                /* \"#utility.yul\":1320:1356   */\n              mstore\n                /* \"#utility.yul\":1203:1363   */\n              pop\n              jump\t// out\n                /* \"#utility.yul\":1369:1735   */\n            tag_29:\n                /* \"#utility.yul\":1511:1514   */\n              0x00\n                /* \"#utility.yul\":1532:1599   */\n              tag_47\n                /* \"#utility.yul\":1596:1598   */\n              0x0a\n                /* \"#utility.yul\":1591:1594   */\n              dup4\n                /* \"#utility.yul\":1532:1599   */\n              tag_27\n              jump\t// in\n            tag_47:\n                /* \"#utility.yul\":1525:1599   */\n              swap2\n              pop\n                /* \"#utility.yul\":1608:1701   */\n              tag_48\n                /* \"#utility.yul\":1697:1700   */\n              dup3\n                /* \"#utility.yul\":1608:1701   */\n              tag_28\n              jump\t// in\n            tag_48:\n                /* \"#utility.yul\":1726:1728   */\n              0x20\n                /* \"#utility.yul\":1721:1724   */\n              dup3\n                /* \"#utility.yul\":1717:1729   */\n              add\n                /* \"#utility.yul\":1710:1729   */\n              swap1\n              pop\n                /* \"#utility.yul\":1369:1735   */\n              swap2\n              swap1\n              pop\n              jump\t// out\n                /* \"#utility.yul\":1741:2160   */\n            tag_19:\n                /* \"#utility.yul\":1907:1911   */\n              0x00\n                /* \"#utility.yul\":1945:1947   */\n              0x20\n                /* \"#utility.yul\":1934:1943   */\n              dup3\n                /* \"#utility.yul\":1930:1948   */\n              add\n                /* \"#utility.yul\":1922:1948   */\n              swap1\n              pop\n                /* \"#utility.yul\":1994:2003   */\n              dup2\n                /* \"#utility.yul\":1988:1992   */\n              dup2\n                /* \"#utility.yul\":1984:2004   */\n              sub\n                /* \"#utility.yul\":1980:1981   */\n              0x00\n                /* \"#utility.yul\":1969:1978   */\n              dup4\n                /* \"#utility.yul\":1965:1982   */\n              add\n                /* \"#utility.yul\":1958:2005   */\n              mstore\n                /* \"#utility.yul\":2022:2153   */\n              tag_50\n                /* \"#utility.yul\":2148:2152   */\n              dup2\n                /* \"#utility.yul\":2022:2153   */\n              tag_29\n              jump\t// in\n            tag_50:\n                /* \"#utility.yul\":2014:2153   */\n              swap1\n              pop\n                /* \"#utility.yul\":1741:2160   */\n              swap2\n              swap1\n              pop\n              jump\t// out\n                /* \"#utility.yul\":2166:2346   */\n            tag_30:\n                /* \"#utility.yul\":2214:2291   */\n              0x4e487b7100000000000000000000000000000000000000000000000000000000\n                /* \"#utility.yul\":2211:2212   */\n              0x00\n                /* \"#utility.yul\":2204:2292   */\n              mstore\n                /* \"#utility.yul\":2311:2315   */\n              0x11\n                /* \"#utility.yul\":2308:2309   */\n              0x04\n                /* \"#utility.yul\":2301:2316   */\n              mstore\n                /* \"#utility.yul\":2335:2339   */\n              0x24\n                /* \"#utility.yul\":2332:2333   */\n              0x00\n                /* \"#utility.yul\":2325:2340   */\n              revert\n                /* \"#utility.yul\":2352:2585   */\n            tag_21:\n                /* \"#utility.yul\":2391:2394   */\n              0x00\n                /* \"#utility.yul\":2414:2438   */\n              tag_53\n                /* \"#utility.yul\":2432:2437   */\n              dup3\n                /* \"#utility.yul\":2414:2438   */\n              tag_22\n              jump\t// in\n            tag_53:\n                /* \"#utility.yul\":2405:2438   */\n              swap2\n              pop\n                /* \"#utility.yul\":2460:2526   */\n              0xffffffffffffffffffffffffffffffffffffffffffffffffffffffffffffffff\n                /* \"#utility.yul\":2453:2458   */\n              dup3\n                /* \"#utility.yul\":2450:2527   */\n              sub\n                /* \"#utility.yul\":2447:2550   */\n              tag_54\n              jumpi\n                /* \"#utility.yul\":2530:2548   */\n              tag_55\n              tag_30\n              jump\t// in\n            tag_55:\n                /* \"#utility.yul\":2447:2550   */\n            tag_54:\n                /* \"#utility.yul\":2577:2578   */\n              0x01\n                /* \"#utility.yul\":2570:2575   */\n              dup3\n                /* \"#utility.yul\":2566:2579   */\n              add\n                /* \"#utility.yul\":2559:2579   */\n              swap1\n              pop\n                /* \"#utility.yul\":2352:2585   */\n              swap2\n              swap1\n              pop\n              jump\t// out\n\n            auxdata: 0xa2646970667358221220c0cf35899b3cb05f6259c0d2e9bd5a35c99deaccedf838171c09ed3df48a372d64736f6c63430008220033\n        }\n    }\n\n    auxdata: 0xa2646970667358221220510de2282fef7b67a01138eb54f97a2124742cb1e3ddaf6003eec9db6e634eb264736f6c63430008220033\n}\n",
				"bytecode": {
					"linkReferences": {},
					"object": "6080604052348015600e575f5ffd5b506108888061001c5f395ff3fe608060405234801561000f575f5ffd5b506004361061004a575f3560e01c8063214aed451461004e578063639e52141461007e57806378b529481461009c578063fba7ffa3146100ba575b5f5ffd5b610068600480360381019061006391906102ea565b6100ea565b6040516100759190610354565b60405180910390f35b610086610173565b604051610093919061037c565b60405180910390f35b6100a461017e565b6040516100b19190610354565b60405180910390f35b6100d460048036038101906100cf91906102ea565b61026c565b6040516100e19190610354565b60405180910390f35b5f5f805490508210610131576040517f08c379a0000000000000000000000000000000000000000000000000000000008152600401610128906103ef565b60405180910390fd5b5f82815481106101445761014361040d565b5b905f5260205f20015f9054906101000a900473ffffffffffffffffffffffffffffffffffffffff169050919050565b5f5f80549050905090565b5f5f3360405161018d906102a6565b6101979190610354565b604051809103905ff0801580156101b0573d5f5f3e3d5ffd5b5090505f8190505f81908060018154018082558091505060019003905f5260205f20015f9091909190916101000a81548173ffffffffffffffffffffffffffffffffffffffff021916908373ffffffffffffffffffffffffffffffffffffffff1602179055508073ffffffffffffffffffffffffffffffffffffffff167f5c38acfb3685547711685ae1e758ca685f33fa7cd3e3c738411afd24b93391893360405161025c9190610354565b60405180910390a2809250505090565b5f818154811061027a575f80fd5b905f5260205f20015f915054906101000a900473ffffffffffffffffffffffffffffffffffffffff1681565b6104188061043b83390190565b5f5ffd5b5f819050919050565b6102c9816102b7565b81146102d3575f5ffd5b50565b5f813590506102e4816102c0565b92915050565b5f602082840312156102ff576102fe6102b3565b5b5f61030c848285016102d6565b91505092915050565b5f73ffffffffffffffffffffffffffffffffffffffff82169050919050565b5f61033e82610315565b9050919050565b61034e81610334565b82525050565b5f6020820190506103675f830184610345565b92915050565b610376816102b7565b82525050565b5f60208201905061038f5f83018461036d565b92915050565b5f82825260208201905092915050565b7f496e646578206f7574206f6620626f756e6473210000000000000000000000005f82015250565b5f6103d9601483610395565b91506103e4826103a5565b602082019050919050565b5f6020820190508181035f830152610406816103cd565b9050919050565b7f4e487b71000000000000000000000000000000000000000000000000000000005f52603260045260245ffdfe608060405234801561000f575f5ffd5b50604051610418380380610418833981810160405281019061003191906100db565b8060015f6101000a81548173ffffffffffffffffffffffffffffffffffffffff021916908373ffffffffffffffffffffffffffffffffffffffff1602179055505f5f8190555050610106565b5f5ffd5b5f73ffffffffffffffffffffffffffffffffffffffff82169050919050565b5f6100aa82610081565b9050919050565b6100ba816100a0565b81146100c4575f5ffd5b50565b5f815190506100d5816100b1565b92915050565b5f602082840312156100f0576100ef61007d565b5b5f6100fd848285016100c7565b91505092915050565b610305806101135f395ff3fe608060405234801561000f575f5ffd5b506004361061003f575f3560e01c806306661abd146100435780638da5cb5b14610061578063d09de08a1461007f575b5f5ffd5b61004b610089565b6040516100589190610172565b60405180910390f35b61006961008e565b60405161007691906101ca565b60405180910390f35b6100876100b3565b005b5f5481565b60015f9054906101000a900473ffffffffffffffffffffffffffffffffffffffff1681565b3373ffffffffffffffffffffffffffffffffffffffff1660015f9054906101000a900473ffffffffffffffffffffffffffffffffffffffff1673ffffffffffffffffffffffffffffffffffffffff1614610142576040517f08c379a00000000000000000000000000000000000000000000000000000000081526004016101399061023d565b60405180910390fd5b5f5f81548092919061015390610288565b9190505550565b5f819050919050565b61016c8161015a565b82525050565b5f6020820190506101855f830184610163565b92915050565b5f73ffffffffffffffffffffffffffffffffffffffff82169050919050565b5f6101b48261018b565b9050919050565b6101c4816101aa565b82525050565b5f6020820190506101dd5f8301846101bb565b92915050565b5f82825260208201905092915050565b7f4e6f74206f776e657221000000000000000000000000000000000000000000005f82015250565b5f610227600a836101e3565b9150610232826101f3565b602082019050919050565b5f6020820190508181035f8301526102548161021b565b9050919050565b7f4e487b71000000000000000000000000000000000000000000000000000000005f52601160045260245ffd5b5f6102928261015a565b91507fffffffffffffffffffffffffffffffffffffffffffffffffffffffffffffffff82036102c4576102c361025b565b5b60018201905091905056fea2646970667358221220c0cf35899b3cb05f6259c0d2e9bd5a35c99deaccedf838171c09ed3df48a372d64736f6c63430008220033a2646970667358221220510de2282fef7b67a01138eb54f97a2124742cb1e3ddaf6003eec9db6e634eb264736f6c63430008220033",
					"opcodes": "PUSH1 0x80 PUSH1 0x40 MSTORE CALLVALUE DUP1 ISZERO PUSH1 0xE JUMPI PUSH0 PUSH0 REVERT JUMPDEST POP PUSH2 0x888 DUP1 PUSH2 0x1C PUSH0 CODECOPY PUSH0 RETURN INVALID PUSH1 0x80 PUSH1 0x40 MSTORE CALLVALUE DUP1 ISZERO PUSH2 0xF JUMPI PUSH0 PUSH0 REVERT JUMPDEST POP PUSH1 0x4 CALLDATASIZE LT PUSH2 0x4A JUMPI PUSH0 CALLDATALOAD PUSH1 0xE0 SHR DUP1 PUSH4 0x214AED45 EQ PUSH2 0x4E JUMPI DUP1 PUSH4 0x639E5214 EQ PUSH2 0x7E JUMPI DUP1 PUSH4 0x78B52948 EQ PUSH2 0x9C JUMPI DUP1 PUSH4 0xFBA7FFA3 EQ PUSH2 0xBA JUMPI JUMPDEST PUSH0 PUSH0 REVERT JUMPDEST PUSH2 0x68 PUSH1 0x4 DUP1 CALLDATASIZE SUB DUP2 ADD SWAP1 PUSH2 0x63 SWAP2 SWAP1 PUSH2 0x2EA JUMP JUMPDEST PUSH2 0xEA JUMP JUMPDEST PUSH1 0x40 MLOAD PUSH2 0x75 SWAP2 SWAP1 PUSH2 0x354 JUMP JUMPDEST PUSH1 0x40 MLOAD DUP1 SWAP2 SUB SWAP1 RETURN JUMPDEST PUSH2 0x86 PUSH2 0x173 JUMP JUMPDEST PUSH1 0x40 MLOAD PUSH2 0x93 SWAP2 SWAP1 PUSH2 0x37C JUMP JUMPDEST PUSH1 0x40 MLOAD DUP1 SWAP2 SUB SWAP1 RETURN JUMPDEST PUSH2 0xA4 PUSH2 0x17E JUMP JUMPDEST PUSH1 0x40 MLOAD PUSH2 0xB1 SWAP2 SWAP1 PUSH2 0x354 JUMP JUMPDEST PUSH1 0x40 MLOAD DUP1 SWAP2 SUB SWAP1 RETURN JUMPDEST PUSH2 0xD4 PUSH1 0x4 DUP1 CALLDATASIZE SUB DUP2 ADD SWAP1 PUSH2 0xCF SWAP2 SWAP1 PUSH2 0x2EA JUMP JUMPDEST PUSH2 0x26C JUMP JUMPDEST PUSH1 0x40 MLOAD PUSH2 0xE1 SWAP2 SWAP1 PUSH2 0x354 JUMP JUMPDEST PUSH1 0x40 MLOAD DUP1 SWAP2 SUB SWAP1 RETURN JUMPDEST PUSH0 PUSH0 DUP1 SLOAD SWAP1 POP DUP3 LT PUSH2 0x131 JUMPI PUSH1 0x40 MLOAD PUSH32 0x8C379A000000000000000000000000000000000000000000000000000000000 DUP2 MSTORE PUSH1 0x4 ADD PUSH2 0x128 SWAP1 PUSH2 0x3EF JUMP JUMPDEST PUSH1 0x40 MLOAD DUP1 SWAP2 SUB SWAP1 REVERT JUMPDEST PUSH0 DUP3 DUP2 SLOAD DUP2 LT PUSH2 0x144 JUMPI PUSH2 0x143 PUSH2 0x40D JUMP JUMPDEST JUMPDEST SWAP1 PUSH0 MSTORE PUSH1 0x20 PUSH0 KECCAK256 ADD PUSH0 SWAP1 SLOAD SWAP1 PUSH2 0x100 EXP SWAP1 DIV PUSH20 0xFFFFFFFFFFFFFFFFFFFFFFFFFFFFFFFFFFFFFFFF AND SWAP1 POP SWAP2 SWAP1 POP JUMP JUMPDEST PUSH0 PUSH0 DUP1 SLOAD SWAP1 POP SWAP1 POP SWAP1 JUMP JUMPDEST PUSH0 PUSH0 CALLER PUSH1 0x40 MLOAD PUSH2 0x18D SWAP1 PUSH2 0x2A6 JUMP JUMPDEST PUSH2 0x197 SWAP2 SWAP1 PUSH2 0x354 JUMP JUMPDEST PUSH1 0x40 MLOAD DUP1 SWAP2 SUB SWAP1 PUSH0 CREATE DUP1 ISZERO DUP1 ISZERO PUSH2 0x1B0 JUMPI RETURNDATASIZE PUSH0 PUSH0 RETURNDATACOPY RETURNDATASIZE PUSH0 REVERT JUMPDEST POP SWAP1 POP PUSH0 DUP2 SWAP1 POP PUSH0 DUP2 SWAP1 DUP1 PUSH1 0x1 DUP2 SLOAD ADD DUP1 DUP3 SSTORE DUP1 SWAP2 POP POP PUSH1 0x1 SWAP1 SUB SWAP1 PUSH0 MSTORE PUSH1 0x20 PUSH0 KECCAK256 ADD PUSH0 SWAP1 SWAP2 SWAP1 SWAP2 SWAP1 SWAP2 PUSH2 0x100 EXP DUP2 SLOAD DUP2 PUSH20 0xFFFFFFFFFFFFFFFFFFFFFFFFFFFFFFFFFFFFFFFF MUL NOT AND SWAP1 DUP4 PUSH20 0xFFFFFFFFFFFFFFFFFFFFFFFFFFFFFFFFFFFFFFFF AND MUL OR SWAP1 SSTORE POP DUP1 PUSH20 0xFFFFFFFFFFFFFFFFFFFFFFFFFFFFFFFFFFFFFFFF AND PUSH32 0x5C38ACFB3685547711685AE1E758CA685F33FA7CD3E3C738411AFD24B9339189 CALLER PUSH1 0x40 MLOAD PUSH2 0x25C SWAP2 SWAP1 PUSH2 0x354 JUMP JUMPDEST PUSH1 0x40 MLOAD DUP1 SWAP2 SUB SWAP1 LOG2 DUP1 SWAP3 POP POP POP SWAP1 JUMP JUMPDEST PUSH0 DUP2 DUP2 SLOAD DUP2 LT PUSH2 0x27A JUMPI PUSH0 DUP1 REVERT JUMPDEST SWAP1 PUSH0 MSTORE PUSH1 0x20 PUSH0 KECCAK256 ADD PUSH0 SWAP2 POP SLOAD SWAP1 PUSH2 0x100 EXP SWAP1 DIV PUSH20 0xFFFFFFFFFFFFFFFFFFFFFFFFFFFFFFFFFFFFFFFF AND DUP2 JUMP JUMPDEST PUSH2 0x418 DUP1 PUSH2 0x43B DUP4 CODECOPY ADD SWAP1 JUMP JUMPDEST PUSH0 PUSH0 REVERT JUMPDEST PUSH0 DUP2 SWAP1 POP SWAP2 SWAP1 POP JUMP JUMPDEST PUSH2 0x2C9 DUP2 PUSH2 0x2B7 JUMP JUMPDEST DUP2 EQ PUSH2 0x2D3 JUMPI PUSH0 PUSH0 REVERT JUMPDEST POP JUMP JUMPDEST PUSH0 DUP2 CALLDATALOAD SWAP1 POP PUSH2 0x2E4 DUP2 PUSH2 0x2C0 JUMP JUMPDEST SWAP3 SWAP2 POP POP JUMP JUMPDEST PUSH0 PUSH1 0x20 DUP3 DUP5 SUB SLT ISZERO PUSH2 0x2FF JUMPI PUSH2 0x2FE PUSH2 0x2B3 JUMP JUMPDEST JUMPDEST PUSH0 PUSH2 0x30C DUP5 DUP3 DUP6 ADD PUSH2 0x2D6 JUMP JUMPDEST SWAP2 POP POP SWAP3 SWAP2 POP POP JUMP JUMPDEST PUSH0 PUSH20 0xFFFFFFFFFFFFFFFFFFFFFFFFFFFFFFFFFFFFFFFF DUP3 AND SWAP1 POP SWAP2 SWAP1 POP JUMP JUMPDEST PUSH0 PUSH2 0x33E DUP3 PUSH2 0x315 JUMP JUMPDEST SWAP1 POP SWAP2 SWAP1 POP JUMP JUMPDEST PUSH2 0x34E DUP2 PUSH2 0x334 JUMP JUMPDEST DUP3 MSTORE POP POP JUMP JUMPDEST PUSH0 PUSH1 0x20 DUP3 ADD SWAP1 POP PUSH2 0x367 PUSH0 DUP4 ADD DUP5 PUSH2 0x345 JUMP JUMPDEST SWAP3 SWAP2 POP POP JUMP JUMPDEST PUSH2 0x376 DUP2 PUSH2 0x2B7 JUMP JUMPDEST DUP3 MSTORE POP POP JUMP JUMPDEST PUSH0 PUSH1 0x20 DUP3 ADD SWAP1 POP PUSH2 0x38F PUSH0 DUP4 ADD DUP5 PUSH2 0x36D JUMP JUMPDEST SWAP3 SWAP2 POP POP JUMP JUMPDEST PUSH0 DUP3 DUP3 MSTORE PUSH1 0x20 DUP3 ADD SWAP1 POP SWAP3 SWAP2 POP POP JUMP JUMPDEST PUSH32 0x496E646578206F7574206F6620626F756E647321000000000000000000000000 PUSH0 DUP3 ADD MSTORE POP JUMP JUMPDEST PUSH0 PUSH2 0x3D9 PUSH1 0x14 DUP4 PUSH2 0x395 JUMP JUMPDEST SWAP2 POP PUSH2 0x3E4 DUP3 PUSH2 0x3A5 JUMP JUMPDEST PUSH1 0x20 DUP3 ADD SWAP1 POP SWAP2 SWAP1 POP JUMP JUMPDEST PUSH0 PUSH1 0x20 DUP3 ADD SWAP1 POP DUP2 DUP2 SUB PUSH0 DUP4 ADD MSTORE PUSH2 0x406 DUP2 PUSH2 0x3CD JUMP JUMPDEST SWAP1 POP SWAP2 SWAP1 POP JUMP JUMPDEST PUSH32 0x4E487B7100000000000000000000000000000000000000000000000000000000 PUSH0 MSTORE PUSH1 0x32 PUSH1 0x4 MSTORE PUSH1 0x24 PUSH0 REVERT INVALID PUSH1 0x80 PUSH1 0x40 MSTORE CALLVALUE DUP1 ISZERO PUSH2 0xF JUMPI PUSH0 PUSH0 REVERT JUMPDEST POP PUSH1 0x40 MLOAD PUSH2 0x418 CODESIZE SUB DUP1 PUSH2 0x418 DUP4 CODECOPY DUP2 DUP2 ADD PUSH1 0x40 MSTORE DUP2 ADD SWAP1 PUSH2 0x31 SWAP2 SWAP1 PUSH2 0xDB JUMP JUMPDEST DUP1 PUSH1 0x1 PUSH0 PUSH2 0x100 EXP DUP2 SLOAD DUP2 PUSH20 0xFFFFFFFFFFFFFFFFFFFFFFFFFFFFFFFFFFFFFFFF MUL NOT AND SWAP1 DUP4 PUSH20 0xFFFFFFFFFFFFFFFFFFFFFFFFFFFFFFFFFFFFFFFF AND MUL OR SWAP1 SSTORE POP PUSH0 PUSH0 DUP2 SWAP1 SSTORE POP POP PUSH2 0x106 JUMP JUMPDEST PUSH0 PUSH0 REVERT JUMPDEST PUSH0 PUSH20 0xFFFFFFFFFFFFFFFFFFFFFFFFFFFFFFFFFFFFFFFF DUP3 AND SWAP1 POP SWAP2 SWAP1 POP JUMP JUMPDEST PUSH0 PUSH2 0xAA DUP3 PUSH2 0x81 JUMP JUMPDEST SWAP1 POP SWAP2 SWAP1 POP JUMP JUMPDEST PUSH2 0xBA DUP2 PUSH2 0xA0 JUMP JUMPDEST DUP2 EQ PUSH2 0xC4 JUMPI PUSH0 PUSH0 REVERT JUMPDEST POP JUMP JUMPDEST PUSH0 DUP2 MLOAD SWAP1 POP PUSH2 0xD5 DUP2 PUSH2 0xB1 JUMP JUMPDEST SWAP3 SWAP2 POP POP JUMP JUMPDEST PUSH0 PUSH1 0x20 DUP3 DUP5 SUB SLT ISZERO PUSH2 0xF0 JUMPI PUSH2 0xEF PUSH2 0x7D JUMP JUMPDEST JUMPDEST PUSH0 PUSH2 0xFD DUP5 DUP3 DUP6 ADD PUSH2 0xC7 JUMP JUMPDEST SWAP2 POP POP SWAP3 SWAP2 POP POP JUMP JUMPDEST PUSH2 0x305 DUP1 PUSH2 0x113 PUSH0 CODECOPY PUSH0 RETURN INVALID PUSH1 0x80 PUSH1 0x40 MSTORE CALLVALUE DUP1 ISZERO PUSH2 0xF JUMPI PUSH0 PUSH0 REVERT JUMPDEST POP PUSH1 0x4 CALLDATASIZE LT PUSH2 0x3F JUMPI PUSH0 CALLDATALOAD PUSH1 0xE0 SHR DUP1 PUSH4 0x6661ABD EQ PUSH2 0x43 JUMPI DUP1 PUSH4 0x8DA5CB5B EQ PUSH2 0x61 JUMPI DUP1 PUSH4 0xD09DE08A EQ PUSH2 0x7F JUMPI JUMPDEST PUSH0 PUSH0 REVERT JUMPDEST PUSH2 0x4B PUSH2 0x89 JUMP JUMPDEST PUSH1 0x40 MLOAD PUSH2 0x58 SWAP2 SWAP1 PUSH2 0x172 JUMP JUMPDEST PUSH1 0x40 MLOAD DUP1 SWAP2 SUB SWAP1 RETURN JUMPDEST PUSH2 0x69 PUSH2 0x8E JUMP JUMPDEST PUSH1 0x40 MLOAD PUSH2 0x76 SWAP2 SWAP1 PUSH2 0x1CA JUMP JUMPDEST PUSH1 0x40 MLOAD DUP1 SWAP2 SUB SWAP1 RETURN JUMPDEST PUSH2 0x87 PUSH2 0xB3 JUMP JUMPDEST STOP JUMPDEST PUSH0 SLOAD DUP2 JUMP JUMPDEST PUSH1 0x1 PUSH0 SWAP1 SLOAD SWAP1 PUSH2 0x100 EXP SWAP1 DIV PUSH20 0xFFFFFFFFFFFFFFFFFFFFFFFFFFFFFFFFFFFFFFFF AND DUP2 JUMP JUMPDEST CALLER PUSH20 0xFFFFFFFFFFFFFFFFFFFFFFFFFFFFFFFFFFFFFFFF AND PUSH1 0x1 PUSH0 SWAP1 SLOAD SWAP1 PUSH2 0x100 EXP SWAP1 DIV PUSH20 0xFFFFFFFFFFFFFFFFFFFFFFFFFFFFFFFFFFFFFFFF AND PUSH20 0xFFFFFFFFFFFFFFFFFFFFFFFFFFFFFFFFFFFFFFFF AND EQ PUSH2 0x142 JUMPI PUSH1 0x40 MLOAD PUSH32 0x8C379A000000000000000000000000000000000000000000000000000000000 DUP2 MSTORE PUSH1 0x4 ADD PUSH2 0x139 SWAP1 PUSH2 0x23D JUMP JUMPDEST PUSH1 0x40 MLOAD DUP1 SWAP2 SUB SWAP1 REVERT JUMPDEST PUSH0 PUSH0 DUP2 SLOAD DUP1 SWAP3 SWAP2 SWAP1 PUSH2 0x153 SWAP1 PUSH2 0x288 JUMP JUMPDEST SWAP2 SWAP1 POP SSTORE POP JUMP JUMPDEST PUSH0 DUP2 SWAP1 POP SWAP2 SWAP1 POP JUMP JUMPDEST PUSH2 0x16C DUP2 PUSH2 0x15A JUMP JUMPDEST DUP3 MSTORE POP POP JUMP JUMPDEST PUSH0 PUSH1 0x20 DUP3 ADD SWAP1 POP PUSH2 0x185 PUSH0 DUP4 ADD DUP5 PUSH2 0x163 JUMP JUMPDEST SWAP3 SWAP2 POP POP JUMP JUMPDEST PUSH0 PUSH20 0xFFFFFFFFFFFFFFFFFFFFFFFFFFFFFFFFFFFFFFFF DUP3 AND SWAP1 POP SWAP2 SWAP1 POP JUMP JUMPDEST PUSH0 PUSH2 0x1B4 DUP3 PUSH2 0x18B JUMP JUMPDEST SWAP1 POP SWAP2 SWAP1 POP JUMP JUMPDEST PUSH2 0x1C4 DUP2 PUSH2 0x1AA JUMP JUMPDEST DUP3 MSTORE POP POP JUMP JUMPDEST PUSH0 PUSH1 0x20 DUP3 ADD SWAP1 POP PUSH2 0x1DD PUSH0 DUP4 ADD DUP5 PUSH2 0x1BB JUMP JUMPDEST SWAP3 SWAP2 POP POP JUMP JUMPDEST PUSH0 DUP3 DUP3 MSTORE PUSH1 0x20 DUP3 ADD SWAP1 POP SWAP3 SWAP2 POP POP JUMP JUMPDEST PUSH32 0x4E6F74206F776E65722100000000000000000000000000000000000000000000 PUSH0 DUP3 ADD MSTORE POP JUMP JUMPDEST PUSH0 PUSH2 0x227 PUSH1 0xA DUP4 PUSH2 0x1E3 JUMP JUMPDEST SWAP2 POP PUSH2 0x232 DUP3 PUSH2 0x1F3 JUMP JUMPDEST PUSH1 0x20 DUP3 ADD SWAP1 POP SWAP2 SWAP1 POP JUMP JUMPDEST PUSH0 PUSH1 0x20 DUP3 ADD SWAP1 POP DUP2 DUP2 SUB PUSH0 DUP4 ADD MSTORE PUSH2 0x254 DUP2 PUSH2 0x21B JUMP JUMPDEST SWAP1 POP SWAP2 SWAP1 POP JUMP JUMPDEST PUSH32 0x4E487B7100000000000000000000000000000000000000000000000000000000 PUSH0 MSTORE PUSH1 0x11 PUSH1 0x4 MSTORE PUSH1 0x24 PUSH0 REVERT JUMPDEST PUSH0 PUSH2 0x292 DUP3 PUSH2 0x15A JUMP JUMPDEST SWAP2 POP PUSH32 0xFFFFFFFFFFFFFFFFFFFFFFFFFFFFFFFFFFFFFFFFFFFFFFFFFFFFFFFFFFFFFFFF DUP3 SUB PUSH2 0x2C4 JUMPI PUSH2 0x2C3 PUSH2 0x25B JUMP JUMPDEST JUMPDEST PUSH1 0x1 DUP3 ADD SWAP1 POP SWAP2 SWAP1 POP JUMP INVALID LOG2 PUSH5 0x6970667358 0x22 SLT KECCAK256 0xC0 0xCF CALLDATALOAD DUP10 SWAP12 EXTCODECOPY 0xB0 PUSH0 PUSH3 0x59C0D2 0xE9 0xBD GAS CALLDATALOAD 0xC9 SWAP14 0xEA 0xCC 0xED EXTCALL CODESIZE OR SHR MULMOD 0xED RETURNDATASIZE DELEGATECALL DUP11 CALLDATACOPY 0x2D PUSH5 0x736F6C6343 STOP ADDMOD 0x22 STOP CALLER LOG2 PUSH5 0x6970667358 0x22 SLT KECCAK256 MLOAD 0xD 0xE2 0x28 0x2F 0xEF PUSH28 0x67A01138EB54F97A2124742CB1E3DDAF6003EEC9DB6E634EB264736F PUSH13 0x63430008220033000000000000 "
				},
				"gasEstimates": {
					"creation": {
						"codeDepositCost": "436800",
						"executionCost": "472",
						"totalCost": "437272"
					},
					"external": {
						"counters(uint256)": "4987",
						"createCounter()": "infinite",
						"getCounter(uint256)": "7061",
						"getCounterCount()": "2439"
					}
				},
				"methodIdentifiers": {
					"counters(uint256)": "fba7ffa3",
					"createCounter()": "78b52948",
					"getCounter(uint256)": "214aed45",
					"getCounterCount()": "639e5214"
				}
			},
			"storageLayout": {
				"storage": [
					{
						"astId": 41,
						"contract": "lession8.1-Invocation/factorynew/CounterNewFactory.sol:CounterNewFactory",
						"label": "counters",
						"offset": 0,
						"slot": "0",
						"type": "t_array(t_address)dyn_storage"
					}
				],
				"types": {
					"t_address": {
						"encoding": "inplace",
						"label": "address",
						"numberOfBytes": "20"
					},
					"t_array(t_address)dyn_storage": {
						"base": "t_address",
						"encoding": "dynamic_array",
						"label": "address[]",
						"numberOfBytes": "32"
					}
				}
			},
			"userdoc": {
				"kind": "user",
				"methods": {
					"createCounter()": {
						"notice": "使⽤new创建新的计数器合约"
					},
					"getCounter(uint256)": {
						"notice": "查询指定索引的计数器地址"
					},
					"getCounterCount()": {
						"notice": "查询所有创建的计数器数量"
					}
				},
				"version": 1
			}
		}
	}
}