{
	"lession4.2-Specialtype&Globalvariable/SimpleShop.sol": {
		"SimpleShop": {
			"abi": [
				{
					"inputs": [],
					"stateMutability": "nonpayable",
					"type": "constructor"
				},
				{
					"anonymous": false,
					"inputs": [
						{
							"indexed": true,
							"internalType": "address",
							"name": "buyer",
							"type": "address"
						},
						{
							"indexed": false,
							"internalType": "uint256",
							"name": "quantity",
							"type": "uint256"
						},
						{
							"indexed": false,
							"internalType": "uint256",
							"name": "totalPaid",
							"type": "uint256"
						}
					],
					"name": "ItemPurchased",
					"type": "event"
				},
				{
					"anonymous": false,
					"inputs": [
						{
							"indexed": true,
							"internalType": "address",
							"name": "user",
							"type": "address"
						},
						{
							"indexed": false,
							"internalType": "uint256",
							"name": "amount",
							"type": "uint256"
						}
					],
					"name": "OwnerWithDraw",
					"type": "event"
				},
				{
					"inputs": [],
					"name": "ITEM_PRICE",
					"outputs": [
						{
							"internalType": "uint256",
							"name": "",
							"type": "uint256"
						}
					],
					"stateMutability": "view",
					"type": "function"
				},
				{
					"inputs": [],
					"name": "OWNER",
					"outputs": [
						{
							"internalType": "address",
							"name": "",
							"type": "address"
						}
					],
					"stateMutability": "view",
					"type": "function"
				},
				{
					"inputs": [
						{
							"internalType": "uint256",
							"name": "quantity",
							"type": "uint256"
						}
					],
					"name": "buyItem",
					"outputs": [],
					"stateMutability": "payable",
					"type": "function"
				},
				{
					"inputs": [],
					"name": "getContractBalance",
					"outputs": [
						{
							"internalType": "uint256",
							"name": "",
							"type": "uint256"
						}
					],
					"stateMutability": "view",
					"type": "function"
				},
				{
					"inputs": [
						{
							"internalType": "address",
							"name": "buyer",
							"type": "address"
						}
					],
					"name": "getPurchases",
					"outputs": [
						{
							"internalType": "uint256",
							"name": "",
							"type": "uint256"
						}
					],
					"stateMutability": "view",
					"type": "function"
				},
				{
					"inputs": [
						{
							"internalType": "address",
							"name": "",
							"type": "address"
						}
					],
					"name": "purchases",
					"outputs": [
						{
							"internalType": "uint256",
							"name": "",
							"type": "uint256"
						}
					],
					"stateMutability": "view",
					"type": "function"
				},
				{
					"inputs": [],
					"name": "withDraw",
					"outputs": [],
					"stateMutability": "nonpayable",
					"type": "function"
				}
			],
			"devdoc": {
				"kind": "dev",
				"methods": {},
				"version": 1
			},
			"evm": {
				"assembly": "    /* \"lession4.2-Specialtype&Globalvariable/SimpleShop.sol\":120:1699  contract SimpleShop {... */\n  mstore(0x40, 0xa0)\n    /* \"lession4.2-Specialtype&Globalvariable/SimpleShop.sol\":519:568  constructor() {... */\n  callvalue\n  dup1\n  iszero\n  tag_1\n  jumpi\n  revert(0x00, 0x00)\ntag_1:\n  pop\n    /* \"lession4.2-Specialtype&Globalvariable/SimpleShop.sol\":551:561  msg.sender */\n  caller\n    /* \"lession4.2-Specialtype&Globalvariable/SimpleShop.sol\":543:561  OWNER = msg.sender */\n  0xffffffffffffffffffffffffffffffffffffffff\n  and\n  0x80\n  dup2\n  0xffffffffffffffffffffffffffffffffffffffff\n  and\n  dup2\n  mstore\n  pop\n  pop\n    /* \"lession4.2-Specialtype&Globalvariable/SimpleShop.sol\":120:1699  contract SimpleShop {... */\n  mload(0x80)\n  codecopy(0x00, dataOffset(sub_0), dataSize(sub_0))\n  0x00\n  assignImmutable(\"0x13600b294191fc92924bb3ce4b969c1e7e2bab8f4c93c3fc6d0a51733df3c060\")\n  return(0x00, dataSize(sub_0))\nstop\n\nsub_0: assembly {\n        /* \"lession4.2-Specialtype&Globalvariable/SimpleShop.sol\":120:1699  contract SimpleShop {... */\n      mstore(0x40, 0x80)\n      jumpi(tag_1, lt(calldatasize, 0x04))\n      shr(0xe0, calldataload(0x00))\n      dup1\n      0x6f9fb98a\n      gt\n      tag_9\n      jumpi\n      dup1\n      0x6f9fb98a\n      eq\n      tag_5\n      jumpi\n      dup1\n      0x70cd5a80\n      eq\n      tag_6\n      jumpi\n      dup1\n      0x842a77d3\n      eq\n      tag_7\n      jumpi\n      dup1\n      0xe7fb74c7\n      eq\n      tag_8\n      jumpi\n      jump(tag_1)\n    tag_9:\n      dup1\n      0x0fdb1c10\n      eq\n      tag_2\n      jumpi\n      dup1\n      0x117803e3\n      eq\n      tag_3\n      jumpi\n      dup1\n      0x6b0d7f55\n      eq\n      tag_4\n      jumpi\n    tag_1:\n      revert(0x00, 0x00)\n        /* \"lession4.2-Specialtype&Globalvariable/SimpleShop.sol\":1263:1563  function withDraw() public onlyOwner {... */\n    tag_2:\n      callvalue\n      dup1\n      iszero\n      tag_10\n      jumpi\n      revert(0x00, 0x00)\n    tag_10:\n      pop\n      tag_11\n      tag_12\n      jump\t// in\n    tag_11:\n      stop\n        /* \"lession4.2-Specialtype&Globalvariable/SimpleShop.sol\":169:199  address public immutable OWNER */\n    tag_3:\n      callvalue\n      dup1\n      iszero\n      tag_13\n      jumpi\n      revert(0x00, 0x00)\n    tag_13:\n      pop\n      tag_14\n      tag_15\n      jump\t// in\n    tag_14:\n      mload(0x40)\n      tag_16\n      swap2\n      swap1\n      tag_17\n      jump\t// in\n    tag_16:\n      mload(0x40)\n      dup1\n      swap2\n      sub\n      swap1\n      return\n        /* \"lession4.2-Specialtype&Globalvariable/SimpleShop.sol\":232:275  uint public constant ITEM_PRICE = 0.1 ether */\n    tag_4:\n      callvalue\n      dup1\n      iszero\n      tag_18\n      jumpi\n      revert(0x00, 0x00)\n    tag_18:\n      pop\n      tag_19\n      tag_20\n      jump\t// in\n    tag_19:\n      mload(0x40)\n      tag_21\n      swap2\n      swap1\n      tag_22\n      jump\t// in\n    tag_21:\n      mload(0x40)\n      dup1\n      swap2\n      sub\n      swap1\n      return\n        /* \"lession4.2-Specialtype&Globalvariable/SimpleShop.sol\":1595:1697  function getContractBalance() public view returns (uint) {... */\n    tag_5:\n      callvalue\n      dup1\n      iszero\n      tag_23\n      jumpi\n      revert(0x00, 0x00)\n    tag_23:\n      pop\n      tag_24\n      tag_25\n      jump\t// in\n    tag_24:\n      mload(0x40)\n      tag_26\n      swap2\n      swap1\n      tag_22\n      jump\t// in\n    tag_26:\n      mload(0x40)\n      dup1\n      swap2\n      sub\n      swap1\n      return\n        /* \"lession4.2-Specialtype&Globalvariable/SimpleShop.sol\":1129:1233  function getPurchases(address buyer) public view returns (uint) {... */\n    tag_6:\n      callvalue\n      dup1\n      iszero\n      tag_27\n      jumpi\n      revert(0x00, 0x00)\n    tag_27:\n      pop\n      tag_28\n      0x04\n      dup1\n      calldatasize\n      sub\n      dup2\n      add\n      swap1\n      tag_29\n      swap2\n      swap1\n      tag_30\n      jump\t// in\n    tag_29:\n      tag_31\n      jump\t// in\n    tag_28:\n      mload(0x40)\n      tag_32\n      swap2\n      swap1\n      tag_22\n      jump\t// in\n    tag_32:\n      mload(0x40)\n      dup1\n      swap2\n      sub\n      swap1\n      return\n        /* \"lession4.2-Specialtype&Globalvariable/SimpleShop.sol\":320:362  mapping (address => uint) public purchases */\n    tag_7:\n      callvalue\n      dup1\n      iszero\n      tag_33\n      jumpi\n      revert(0x00, 0x00)\n    tag_33:\n      pop\n      tag_34\n      0x04\n      dup1\n      calldatasize\n      sub\n      dup2\n      add\n      swap1\n      tag_35\n      swap2\n      swap1\n      tag_30\n      jump\t// in\n    tag_35:\n      tag_36\n      jump\t// in\n    tag_34:\n      mload(0x40)\n      tag_37\n      swap2\n      swap1\n      tag_22\n      jump\t// in\n    tag_37:\n      mload(0x40)\n      dup1\n      swap2\n      sub\n      swap1\n      return\n        /* \"lession4.2-Specialtype&Globalvariable/SimpleShop.sol\":718:1097  function buyItem(uint quantity) public payable  {... */\n    tag_8:\n      tag_38\n      0x04\n      dup1\n      calldatasize\n      sub\n      dup2\n      add\n      swap1\n      tag_39\n      swap2\n      swap1\n      tag_40\n      jump\t// in\n    tag_39:\n      tag_41\n      jump\t// in\n    tag_38:\n      stop\n        /* \"lession4.2-Specialtype&Globalvariable/SimpleShop.sol\":1263:1563  function withDraw() public onlyOwner {... */\n    tag_12:\n        /* \"lession4.2-Specialtype&Globalvariable/SimpleShop.sol\":643:648  OWNER */\n      immutable(\"0x13600b294191fc92924bb3ce4b969c1e7e2bab8f4c93c3fc6d0a51733df3c060\")\n        /* \"lession4.2-Specialtype&Globalvariable/SimpleShop.sol\":629:648  msg.sender == OWNER */\n      0xffffffffffffffffffffffffffffffffffffffff\n      and\n        /* \"lession4.2-Specialtype&Globalvariable/SimpleShop.sol\":629:639  msg.sender */\n      caller\n        /* \"lession4.2-Specialtype&Globalvariable/SimpleShop.sol\":629:648  msg.sender == OWNER */\n      0xffffffffffffffffffffffffffffffffffffffff\n      and\n      eq\n        /* \"lession4.2-Specialtype&Globalvariable/SimpleShop.sol\":621:674  require(msg.sender == OWNER, \"Only owner can call !\") */\n      tag_43\n      jumpi\n      mload(0x40)\n      0x08c379a000000000000000000000000000000000000000000000000000000000\n      dup2\n      mstore\n      0x04\n      add\n      tag_44\n      swap1\n      tag_45\n      jump\t// in\n    tag_44:\n      mload(0x40)\n      dup1\n      swap2\n      sub\n      swap1\n      revert\n    tag_43:\n        /* \"lession4.2-Specialtype&Globalvariable/SimpleShop.sol\":1310:1322  uint balance */\n      0x00\n        /* \"lession4.2-Specialtype&Globalvariable/SimpleShop.sol\":1325:1346  address(this).balance */\n      selfbalance\n        /* \"lession4.2-Specialtype&Globalvariable/SimpleShop.sol\":1310:1346  uint balance = address(this).balance */\n      swap1\n      pop\n        /* \"lession4.2-Specialtype&Globalvariable/SimpleShop.sol\":1374:1375  0 */\n      0x00\n        /* \"lession4.2-Specialtype&Globalvariable/SimpleShop.sol\":1364:1371  balance */\n      dup2\n        /* \"lession4.2-Specialtype&Globalvariable/SimpleShop.sol\":1364:1375  balance > 0 */\n      gt\n        /* \"lession4.2-Specialtype&Globalvariable/SimpleShop.sol\":1356:1403  require(balance > 0, \"No balance to withdraw!\") */\n      tag_47\n      jumpi\n      mload(0x40)\n      0x08c379a000000000000000000000000000000000000000000000000000000000\n      dup2\n      mstore\n      0x04\n      add\n      tag_48\n      swap1\n      tag_49\n      jump\t// in\n    tag_48:\n      mload(0x40)\n      dup1\n      swap2\n      sub\n      swap1\n      revert\n    tag_47:\n        /* \"lession4.2-Specialtype&Globalvariable/SimpleShop.sol\":1414:1426  bool success */\n      0x00\n        /* \"lession4.2-Specialtype&Globalvariable/SimpleShop.sol\":1431:1436  OWNER */\n      immutable(\"0x13600b294191fc92924bb3ce4b969c1e7e2bab8f4c93c3fc6d0a51733df3c060\")\n        /* \"lession4.2-Specialtype&Globalvariable/SimpleShop.sol\":1431:1441  OWNER.call */\n      0xffffffffffffffffffffffffffffffffffffffff\n      and\n        /* \"lession4.2-Specialtype&Globalvariable/SimpleShop.sol\":1448:1455  balance */\n      dup3\n        /* \"lession4.2-Specialtype&Globalvariable/SimpleShop.sol\":1431:1460  OWNER.call{value:balance}(\"\") */\n      mload(0x40)\n      tag_50\n      swap1\n      tag_51\n      jump\t// in\n    tag_50:\n      0x00\n      mload(0x40)\n      dup1\n      dup4\n      sub\n      dup2\n      dup6\n      dup8\n      gas\n      call\n      swap3\n      pop\n      pop\n      pop\n      returndatasize\n      dup1\n      0x00\n      dup2\n      eq\n      tag_54\n      jumpi\n      mload(0x40)\n      swap2\n      pop\n      and(add(returndatasize, 0x3f), not(0x1f))\n      dup3\n      add\n      0x40\n      mstore\n      returndatasize\n      dup3\n      mstore\n      returndatasize\n      0x00\n      0x20\n      dup5\n      add\n      returndatacopy\n      jump(tag_53)\n    tag_54:\n      0x60\n      swap2\n      pop\n    tag_53:\n      pop\n        /* \"lession4.2-Specialtype&Globalvariable/SimpleShop.sol\":1413:1460  (bool success,) = OWNER.call{value:balance}(\"\") */\n      pop\n      swap1\n      pop\n        /* \"lession4.2-Specialtype&Globalvariable/SimpleShop.sol\":1479:1486  success */\n      dup1\n        /* \"lession4.2-Specialtype&Globalvariable/SimpleShop.sol\":1471:1511  require(success, \"Transaction failed !\") */\n      tag_55\n      jumpi\n      mload(0x40)\n      0x08c379a000000000000000000000000000000000000000000000000000000000\n      dup2\n      mstore\n      0x04\n      add\n      tag_56\n      swap1\n      tag_57\n      jump\t// in\n    tag_56:\n      mload(0x40)\n      dup1\n      swap2\n      sub\n      swap1\n      revert\n    tag_55:\n        /* \"lession4.2-Specialtype&Globalvariable/SimpleShop.sol\":1541:1546  OWNER */\n      immutable(\"0x13600b294191fc92924bb3ce4b969c1e7e2bab8f4c93c3fc6d0a51733df3c060\")\n        /* \"lession4.2-Specialtype&Globalvariable/SimpleShop.sol\":1527:1556  OwnerWithDraw(OWNER, balance) */\n      0xffffffffffffffffffffffffffffffffffffffff\n      and\n      0x6e8e1f59fc4c6e920d1dd77a30a41de6fd31bbc4cb226a9436144d4803a326d8\n        /* \"lession4.2-Specialtype&Globalvariable/SimpleShop.sol\":1548:1555  balance */\n      dup4\n        /* \"lession4.2-Specialtype&Globalvariable/SimpleShop.sol\":1527:1556  OwnerWithDraw(OWNER, balance) */\n      mload(0x40)\n      tag_58\n      swap2\n      swap1\n      tag_22\n      jump\t// in\n    tag_58:\n      mload(0x40)\n      dup1\n      swap2\n      sub\n      swap1\n      log2\n        /* \"lession4.2-Specialtype&Globalvariable/SimpleShop.sol\":1300:1563  {... */\n      pop\n      pop\n        /* \"lession4.2-Specialtype&Globalvariable/SimpleShop.sol\":1263:1563  function withDraw() public onlyOwner {... */\n      jump\t// out\n        /* \"lession4.2-Specialtype&Globalvariable/SimpleShop.sol\":169:199  address public immutable OWNER */\n    tag_15:\n      immutable(\"0x13600b294191fc92924bb3ce4b969c1e7e2bab8f4c93c3fc6d0a51733df3c060\")\n      dup2\n      jump\t// out\n        /* \"lession4.2-Specialtype&Globalvariable/SimpleShop.sol\":232:275  uint public constant ITEM_PRICE = 0.1 ether */\n    tag_20:\n        /* \"lession4.2-Specialtype&Globalvariable/SimpleShop.sol\":266:275  0.1 ether */\n      0x016345785d8a0000\n        /* \"lession4.2-Specialtype&Globalvariable/SimpleShop.sol\":232:275  uint public constant ITEM_PRICE = 0.1 ether */\n      dup2\n      jump\t// out\n        /* \"lession4.2-Specialtype&Globalvariable/SimpleShop.sol\":1595:1697  function getContractBalance() public view returns (uint) {... */\n    tag_25:\n        /* \"lession4.2-Specialtype&Globalvariable/SimpleShop.sol\":1646:1650  uint */\n      0x00\n        /* \"lession4.2-Specialtype&Globalvariable/SimpleShop.sol\":1669:1690  address(this).balance */\n      selfbalance\n        /* \"lession4.2-Specialtype&Globalvariable/SimpleShop.sol\":1662:1690  return address(this).balance */\n      swap1\n      pop\n        /* \"lession4.2-Specialtype&Globalvariable/SimpleShop.sol\":1595:1697  function getContractBalance() public view returns (uint) {... */\n      swap1\n      jump\t// out\n        /* \"lession4.2-Specialtype&Globalvariable/SimpleShop.sol\":1129:1233  function getPurchases(address buyer) public view returns (uint) {... */\n    tag_31:\n        /* \"lession4.2-Specialtype&Globalvariable/SimpleShop.sol\":1187:1191  uint */\n      0x00\n        /* \"lession4.2-Specialtype&Globalvariable/SimpleShop.sol\":1210:1219  purchases */\n      0x00\n        /* \"lession4.2-Specialtype&Globalvariable/SimpleShop.sol\":1210:1226  purchases[buyer] */\n      0x00\n        /* \"lession4.2-Specialtype&Globalvariable/SimpleShop.sol\":1220:1225  buyer */\n      dup4\n        /* \"lession4.2-Specialtype&Globalvariable/SimpleShop.sol\":1210:1226  purchases[buyer] */\n      0xffffffffffffffffffffffffffffffffffffffff\n      and\n      0xffffffffffffffffffffffffffffffffffffffff\n      and\n      dup2\n      mstore\n      0x20\n      add\n      swap1\n      dup2\n      mstore\n      0x20\n      add\n      0x00\n      keccak256\n      sload\n        /* \"lession4.2-Specialtype&Globalvariable/SimpleShop.sol\":1203:1226  return purchases[buyer] */\n      swap1\n      pop\n        /* \"lession4.2-Specialtype&Globalvariable/SimpleShop.sol\":1129:1233  function getPurchases(address buyer) public view returns (uint) {... */\n      swap2\n      swap1\n      pop\n      jump\t// out\n        /* \"lession4.2-Specialtype&Globalvariable/SimpleShop.sol\":320:362  mapping (address => uint) public purchases */\n    tag_36:\n      mstore(0x20, 0x00)\n      dup1\n      0x00\n      mstore\n      keccak256(0x00, 0x40)\n      0x00\n      swap2\n      pop\n      swap1\n      pop\n      sload\n      dup2\n      jump\t// out\n        /* \"lession4.2-Specialtype&Globalvariable/SimpleShop.sol\":718:1097  function buyItem(uint quantity) public payable  {... */\n    tag_41:\n        /* \"lession4.2-Specialtype&Globalvariable/SimpleShop.sol\":795:796  0 */\n      0x00\n        /* \"lession4.2-Specialtype&Globalvariable/SimpleShop.sol\":784:792  quantity */\n      dup2\n        /* \"lession4.2-Specialtype&Globalvariable/SimpleShop.sol\":784:796  quantity > 0 */\n      gt\n        /* \"lession4.2-Specialtype&Globalvariable/SimpleShop.sol\":776:820  require(quantity > 0, \"Incorrect quantity!\") */\n      tag_62\n      jumpi\n      mload(0x40)\n      0x08c379a000000000000000000000000000000000000000000000000000000000\n      dup2\n      mstore\n      0x04\n      add\n      tag_63\n      swap1\n      tag_64\n      jump\t// in\n    tag_63:\n      mload(0x40)\n      dup1\n      swap2\n      sub\n      swap1\n      revert\n    tag_62:\n        /* \"lession4.2-Specialtype&Globalvariable/SimpleShop.sol\":896:907  uint totoal */\n      0x00\n        /* \"lession4.2-Specialtype&Globalvariable/SimpleShop.sol\":923:931  quantity */\n      dup2\n        /* \"lession4.2-Specialtype&Globalvariable/SimpleShop.sol\":266:275  0.1 ether */\n      0x016345785d8a0000\n        /* \"lession4.2-Specialtype&Globalvariable/SimpleShop.sol\":910:931  ITEM_PRICE * quantity */\n      tag_65\n      swap2\n      swap1\n      tag_66\n      jump\t// in\n    tag_65:\n        /* \"lession4.2-Specialtype&Globalvariable/SimpleShop.sol\":896:931  uint totoal = ITEM_PRICE * quantity */\n      swap1\n      pop\n        /* \"lession4.2-Specialtype&Globalvariable/SimpleShop.sol\":962:968  totoal */\n      dup1\n        /* \"lession4.2-Specialtype&Globalvariable/SimpleShop.sol\":949:958  msg.value */\n      callvalue\n        /* \"lession4.2-Specialtype&Globalvariable/SimpleShop.sol\":949:968  msg.value == totoal */\n      eq\n        /* \"lession4.2-Specialtype&Globalvariable/SimpleShop.sol\":941:988  require(msg.value == totoal, \"Invalid money !\") */\n      tag_67\n      jumpi\n      mload(0x40)\n      0x08c379a000000000000000000000000000000000000000000000000000000000\n      dup2\n      mstore\n      0x04\n      add\n      tag_68\n      swap1\n      tag_69\n      jump\t// in\n    tag_68:\n      mload(0x40)\n      dup1\n      swap2\n      sub\n      swap1\n      revert\n    tag_67:\n        /* \"lession4.2-Specialtype&Globalvariable/SimpleShop.sol\":1023:1031  quantity */\n      dup2\n        /* \"lession4.2-Specialtype&Globalvariable/SimpleShop.sol\":998:1007  purchases */\n      0x00\n        /* \"lession4.2-Specialtype&Globalvariable/SimpleShop.sol\":998:1019  purchases[msg.sender] */\n      0x00\n        /* \"lession4.2-Specialtype&Globalvariable/SimpleShop.sol\":1008:1018  msg.sender */\n      caller\n        /* \"lession4.2-Specialtype&Globalvariable/SimpleShop.sol\":998:1019  purchases[msg.sender] */\n      0xffffffffffffffffffffffffffffffffffffffff\n      and\n      0xffffffffffffffffffffffffffffffffffffffff\n      and\n      dup2\n      mstore\n      0x20\n      add\n      swap1\n      dup2\n      mstore\n      0x20\n      add\n      0x00\n      keccak256\n      0x00\n        /* \"lession4.2-Specialtype&Globalvariable/SimpleShop.sol\":998:1031  purchases[msg.sender] += quantity */\n      dup3\n      dup3\n      sload\n      tag_70\n      swap2\n      swap1\n      tag_71\n      jump\t// in\n    tag_70:\n      swap3\n      pop\n      pop\n      dup2\n      swap1\n      sstore\n      pop\n        /* \"lession4.2-Specialtype&Globalvariable/SimpleShop.sol\":1061:1071  msg.sender */\n      caller\n        /* \"lession4.2-Specialtype&Globalvariable/SimpleShop.sol\":1047:1090  ItemPurchased(msg.sender, quantity, totoal) */\n      0xffffffffffffffffffffffffffffffffffffffff\n      and\n      0x1452773cf753d0d7c71ed9990f7c7e2bdde4a2d08d187b3647953877e400488d\n        /* \"lession4.2-Specialtype&Globalvariable/SimpleShop.sol\":1073:1081  quantity */\n      dup4\n        /* \"lession4.2-Specialtype&Globalvariable/SimpleShop.sol\":1083:1089  totoal */\n      dup4\n        /* \"lession4.2-Specialtype&Globalvariable/SimpleShop.sol\":1047:1090  ItemPurchased(msg.sender, quantity, totoal) */\n      mload(0x40)\n      tag_72\n      swap3\n      swap2\n      swap1\n      tag_73\n      jump\t// in\n    tag_72:\n      mload(0x40)\n      dup1\n      swap2\n      sub\n      swap1\n      log2\n        /* \"lession4.2-Specialtype&Globalvariable/SimpleShop.sol\":766:1097  {... */\n      pop\n        /* \"lession4.2-Specialtype&Globalvariable/SimpleShop.sol\":718:1097  function buyItem(uint quantity) public payable  {... */\n      pop\n      jump\t// out\n        /* \"#utility.yul\":7:133   */\n    tag_74:\n        /* \"#utility.yul\":44:51   */\n      0x00\n        /* \"#utility.yul\":84:126   */\n      0xffffffffffffffffffffffffffffffffffffffff\n        /* \"#utility.yul\":77:82   */\n      dup3\n        /* \"#utility.yul\":73:127   */\n      and\n        /* \"#utility.yul\":62:127   */\n      swap1\n      pop\n        /* \"#utility.yul\":7:133   */\n      swap2\n      swap1\n      pop\n      jump\t// out\n        /* \"#utility.yul\":139:235   */\n    tag_75:\n        /* \"#utility.yul\":176:183   */\n      0x00\n        /* \"#utility.yul\":205:229   */\n      tag_104\n        /* \"#utility.yul\":223:228   */\n      dup3\n        /* \"#utility.yul\":205:229   */\n      tag_74\n      jump\t// in\n    tag_104:\n        /* \"#utility.yul\":194:229   */\n      swap1\n      pop\n        /* \"#utility.yul\":139:235   */\n      swap2\n      swap1\n      pop\n      jump\t// out\n        /* \"#utility.yul\":241:359   */\n    tag_76:\n        /* \"#utility.yul\":328:352   */\n      tag_106\n        /* \"#utility.yul\":346:351   */\n      dup2\n        /* \"#utility.yul\":328:352   */\n      tag_75\n      jump\t// in\n    tag_106:\n        /* \"#utility.yul\":323:326   */\n      dup3\n        /* \"#utility.yul\":316:353   */\n      mstore\n        /* \"#utility.yul\":241:359   */\n      pop\n      pop\n      jump\t// out\n        /* \"#utility.yul\":365:587   */\n    tag_17:\n        /* \"#utility.yul\":458:462   */\n      0x00\n        /* \"#utility.yul\":496:498   */\n      0x20\n        /* \"#utility.yul\":485:494   */\n      dup3\n        /* \"#utility.yul\":481:499   */\n      add\n        /* \"#utility.yul\":473:499   */\n      swap1\n      pop\n        /* \"#utility.yul\":509:580   */\n      tag_108\n        /* \"#utility.yul\":577:578   */\n      0x00\n        /* \"#utility.yul\":566:575   */\n      dup4\n        /* \"#utility.yul\":562:579   */\n      add\n        /* \"#utility.yul\":553:559   */\n      dup5\n        /* \"#utility.yul\":509:580   */\n      tag_76\n      jump\t// in\n    tag_108:\n        /* \"#utility.yul\":365:587   */\n      swap3\n      swap2\n      pop\n      pop\n      jump\t// out\n        /* \"#utility.yul\":593:670   */\n    tag_77:\n        /* \"#utility.yul\":630:637   */\n      0x00\n        /* \"#utility.yul\":659:664   */\n      dup2\n        /* \"#utility.yul\":648:664   */\n      swap1\n      pop\n        /* \"#utility.yul\":593:670   */\n      swap2\n      swap1\n      pop\n      jump\t// out\n        /* \"#utility.yul\":676:794   */\n    tag_78:\n        /* \"#utility.yul\":763:787   */\n      tag_111\n        /* \"#utility.yul\":781:786   */\n      dup2\n        /* \"#utility.yul\":763:787   */\n      tag_77\n      jump\t// in\n    tag_111:\n        /* \"#utility.yul\":758:761   */\n      dup3\n        /* \"#utility.yul\":751:788   */\n      mstore\n        /* \"#utility.yul\":676:794   */\n      pop\n      pop\n      jump\t// out\n        /* \"#utility.yul\":800:1022   */\n    tag_22:\n        /* \"#utility.yul\":893:897   */\n      0x00\n        /* \"#utility.yul\":931:933   */\n      0x20\n        /* \"#utility.yul\":920:929   */\n      dup3\n        /* \"#utility.yul\":916:934   */\n      add\n        /* \"#utility.yul\":908:934   */\n      swap1\n      pop\n        /* \"#utility.yul\":944:1015   */\n      tag_113\n        /* \"#utility.yul\":1012:1013   */\n      0x00\n        /* \"#utility.yul\":1001:1010   */\n      dup4\n        /* \"#utility.yul\":997:1014   */\n      add\n        /* \"#utility.yul\":988:994   */\n      dup5\n        /* \"#utility.yul\":944:1015   */\n      tag_78\n      jump\t// in\n    tag_113:\n        /* \"#utility.yul\":800:1022   */\n      swap3\n      swap2\n      pop\n      pop\n      jump\t// out\n        /* \"#utility.yul\":1109:1226   */\n    tag_80:\n        /* \"#utility.yul\":1218:1219   */\n      0x00\n        /* \"#utility.yul\":1215:1216   */\n      0x00\n        /* \"#utility.yul\":1208:1220   */\n      revert\n        /* \"#utility.yul\":1355:1477   */\n    tag_82:\n        /* \"#utility.yul\":1428:1452   */\n      tag_118\n        /* \"#utility.yul\":1446:1451   */\n      dup2\n        /* \"#utility.yul\":1428:1452   */\n      tag_75\n      jump\t// in\n    tag_118:\n        /* \"#utility.yul\":1421:1426   */\n      dup2\n        /* \"#utility.yul\":1418:1453   */\n      eq\n        /* \"#utility.yul\":1408:1471   */\n      tag_119\n      jumpi\n        /* \"#utility.yul\":1467:1468   */\n      0x00\n        /* \"#utility.yul\":1464:1465   */\n      0x00\n        /* \"#utility.yul\":1457:1469   */\n      revert\n        /* \"#utility.yul\":1408:1471   */\n    tag_119:\n        /* \"#utility.yul\":1355:1477   */\n      pop\n      jump\t// out\n        /* \"#utility.yul\":1483:1622   */\n    tag_83:\n        /* \"#utility.yul\":1529:1534   */\n      0x00\n        /* \"#utility.yul\":1567:1573   */\n      dup2\n        /* \"#utility.yul\":1554:1574   */\n      calldataload\n        /* \"#utility.yul\":1545:1574   */\n      swap1\n      pop\n        /* \"#utility.yul\":1583:1616   */\n      tag_121\n        /* \"#utility.yul\":1610:1615   */\n      dup2\n        /* \"#utility.yul\":1583:1616   */\n      tag_82\n      jump\t// in\n    tag_121:\n        /* \"#utility.yul\":1483:1622   */\n      swap3\n      swap2\n      pop\n      pop\n      jump\t// out\n        /* \"#utility.yul\":1628:1957   */\n    tag_30:\n        /* \"#utility.yul\":1687:1693   */\n      0x00\n        /* \"#utility.yul\":1736:1738   */\n      0x20\n        /* \"#utility.yul\":1724:1733   */\n      dup3\n        /* \"#utility.yul\":1715:1722   */\n      dup5\n        /* \"#utility.yul\":1711:1734   */\n      sub\n        /* \"#utility.yul\":1707:1739   */\n      slt\n        /* \"#utility.yul\":1704:1823   */\n      iszero\n      tag_123\n      jumpi\n        /* \"#utility.yul\":1742:1821   */\n      tag_124\n      tag_80\n      jump\t// in\n    tag_124:\n        /* \"#utility.yul\":1704:1823   */\n    tag_123:\n        /* \"#utility.yul\":1862:1863   */\n      0x00\n        /* \"#utility.yul\":1887:1940   */\n      tag_125\n        /* \"#utility.yul\":1932:1939   */\n      dup5\n        /* \"#utility.yul\":1923:1929   */\n      dup3\n        /* \"#utility.yul\":1912:1921   */\n      dup6\n        /* \"#utility.yul\":1908:1930   */\n      add\n        /* \"#utility.yul\":1887:1940   */\n      tag_83\n      jump\t// in\n    tag_125:\n        /* \"#utility.yul\":1877:1940   */\n      swap2\n      pop\n        /* \"#utility.yul\":1833:1950   */\n      pop\n        /* \"#utility.yul\":1628:1957   */\n      swap3\n      swap2\n      pop\n      pop\n      jump\t// out\n        /* \"#utility.yul\":1963:2085   */\n    tag_84:\n        /* \"#utility.yul\":2036:2060   */\n      tag_127\n        /* \"#utility.yul\":2054:2059   */\n      dup2\n        /* \"#utility.yul\":2036:2060   */\n      tag_77\n      jump\t// in\n    tag_127:\n        /* \"#utility.yul\":2029:2034   */\n      dup2\n        /* \"#utility.yul\":2026:2061   */\n      eq\n        /* \"#utility.yul\":2016:2079   */\n      tag_128\n      jumpi\n        /* \"#utility.yul\":2075:2076   */\n      0x00\n        /* \"#utility.yul\":2072:2073   */\n      0x00\n        /* \"#utility.yul\":2065:2077   */\n      revert\n        /* \"#utility.yul\":2016:2079   */\n    tag_128:\n        /* \"#utility.yul\":1963:2085   */\n      pop\n      jump\t// out\n        /* \"#utility.yul\":2091:2230   */\n    tag_85:\n        /* \"#utility.yul\":2137:2142   */\n      0x00\n        /* \"#utility.yul\":2175:2181   */\n      dup2\n        /* \"#utility.yul\":2162:2182   */\n      calldataload\n        /* \"#utility.yul\":2153:2182   */\n      swap1\n      pop\n        /* \"#utility.yul\":2191:2224   */\n      tag_130\n        /* \"#utility.yul\":2218:2223   */\n      dup2\n        /* \"#utility.yul\":2191:2224   */\n      tag_84\n      jump\t// in\n    tag_130:\n        /* \"#utility.yul\":2091:2230   */\n      swap3\n      swap2\n      pop\n      pop\n      jump\t// out\n        /* \"#utility.yul\":2236:2565   */\n    tag_40:\n        /* \"#utility.yul\":2295:2301   */\n      0x00\n        /* \"#utility.yul\":2344:2346   */\n      0x20\n        /* \"#utility.yul\":2332:2341   */\n      dup3\n        /* \"#utility.yul\":2323:2330   */\n      dup5\n        /* \"#utility.yul\":2319:2342   */\n      sub\n        /* \"#utility.yul\":2315:2347   */\n      slt\n        /* \"#utility.yul\":2312:2431   */\n      iszero\n      tag_132\n      jumpi\n        /* \"#utility.yul\":2350:2429   */\n      tag_133\n      tag_80\n      jump\t// in\n    tag_133:\n        /* \"#utility.yul\":2312:2431   */\n    tag_132:\n        /* \"#utility.yul\":2470:2471   */\n      0x00\n        /* \"#utility.yul\":2495:2548   */\n      tag_134\n        /* \"#utility.yul\":2540:2547   */\n      dup5\n        /* \"#utility.yul\":2531:2537   */\n      dup3\n        /* \"#utility.yul\":2520:2529   */\n      dup6\n        /* \"#utility.yul\":2516:2538   */\n      add\n        /* \"#utility.yul\":2495:2548   */\n      tag_85\n      jump\t// in\n    tag_134:\n        /* \"#utility.yul\":2485:2548   */\n      swap2\n      pop\n        /* \"#utility.yul\":2441:2558   */\n      pop\n        /* \"#utility.yul\":2236:2565   */\n      swap3\n      swap2\n      pop\n      pop\n      jump\t// out\n        /* \"#utility.yul\":2571:2740   */\n    tag_86:\n        /* \"#utility.yul\":2655:2666   */\n      0x00\n        /* \"#utility.yul\":2689:2695   */\n      dup3\n        /* \"#utility.yul\":2684:2687   */\n      dup3\n        /* \"#utility.yul\":2677:2696   */\n      mstore\n        /* \"#utility.yul\":2729:2733   */\n      0x20\n        /* \"#utility.yul\":2724:2727   */\n      dup3\n        /* \"#utility.yul\":2720:2734   */\n      add\n        /* \"#utility.yul\":2705:2734   */\n      swap1\n      pop\n        /* \"#utility.yul\":2571:2740   */\n      swap3\n      swap2\n      pop\n      pop\n      jump\t// out\n        /* \"#utility.yul\":2746:2917   */\n    tag_87:\n        /* \"#utility.yul\":2886:2909   */\n      0x4f6e6c79206f776e65722063616e2063616c6c20210000000000000000000000\n        /* \"#utility.yul\":2882:2883   */\n      0x00\n        /* \"#utility.yul\":2874:2880   */\n      dup3\n        /* \"#utility.yul\":2870:2884   */\n      add\n        /* \"#utility.yul\":2863:2910   */\n      mstore\n        /* \"#utility.yul\":2746:2917   */\n      pop\n      jump\t// out\n        /* \"#utility.yul\":2923:3289   */\n    tag_88:\n        /* \"#utility.yul\":3065:3068   */\n      0x00\n        /* \"#utility.yul\":3086:3153   */\n      tag_138\n        /* \"#utility.yul\":3150:3152   */\n      0x15\n        /* \"#utility.yul\":3145:3148   */\n      dup4\n        /* \"#utility.yul\":3086:3153   */\n      tag_86\n      jump\t// in\n    tag_138:\n        /* \"#utility.yul\":3079:3153   */\n      swap2\n      pop\n        /* \"#utility.yul\":3162:3255   */\n      tag_139\n        /* \"#utility.yul\":3251:3254   */\n      dup3\n        /* \"#utility.yul\":3162:3255   */\n      tag_87\n      jump\t// in\n    tag_139:\n        /* \"#utility.yul\":3280:3282   */\n      0x20\n        /* \"#utility.yul\":3275:3278   */\n      dup3\n        /* \"#utility.yul\":3271:3283   */\n      add\n        /* \"#utility.yul\":3264:3283   */\n      swap1\n      pop\n        /* \"#utility.yul\":2923:3289   */\n      swap2\n      swap1\n      pop\n      jump\t// out\n        /* \"#utility.yul\":3295:3714   */\n    tag_45:\n        /* \"#utility.yul\":3461:3465   */\n      0x00\n        /* \"#utility.yul\":3499:3501   */\n      0x20\n        /* \"#utility.yul\":3488:3497   */\n      dup3\n        /* \"#utility.yul\":3484:3502   */\n      add\n        /* \"#utility.yul\":3476:3502   */\n      swap1\n      pop\n        /* \"#utility.yul\":3548:3557   */\n      dup2\n        /* \"#utility.yul\":3542:3546   */\n      dup2\n        /* \"#utility.yul\":3538:3558   */\n      sub\n        /* \"#utility.yul\":3534:3535   */\n      0x00\n        /* \"#utility.yul\":3523:3532   */\n      dup4\n        /* \"#utility.yul\":3519:3536   */\n      add\n        /* \"#utility.yul\":3512:3559   */\n      mstore\n        /* \"#utility.yul\":3576:3707   */\n      tag_141\n        /* \"#utility.yul\":3702:3706   */\n      dup2\n        /* \"#utility.yul\":3576:3707   */\n      tag_88\n      jump\t// in\n    tag_141:\n        /* \"#utility.yul\":3568:3707   */\n      swap1\n      pop\n        /* \"#utility.yul\":3295:3714   */\n      swap2\n      swap1\n      pop\n      jump\t// out\n        /* \"#utility.yul\":3720:3893   */\n    tag_89:\n        /* \"#utility.yul\":3860:3885   */\n      0x4e6f2062616c616e636520746f20776974686472617721000000000000000000\n        /* \"#utility.yul\":3856:3857   */\n      0x00\n        /* \"#utility.yul\":3848:3854   */\n      dup3\n        /* \"#utility.yul\":3844:3858   */\n      add\n        /* \"#utility.yul\":3837:3886   */\n      mstore\n        /* \"#utility.yul\":3720:3893   */\n      pop\n      jump\t// out\n        /* \"#utility.yul\":3899:4265   */\n    tag_90:\n        /* \"#utility.yul\":4041:4044   */\n      0x00\n        /* \"#utility.yul\":4062:4129   */\n      tag_144\n        /* \"#utility.yul\":4126:4128   */\n      0x17\n        /* \"#utility.yul\":4121:4124   */\n      dup4\n        /* \"#utility.yul\":4062:4129   */\n      tag_86\n      jump\t// in\n    tag_144:\n        /* \"#utility.yul\":4055:4129   */\n      swap2\n      pop\n        /* \"#utility.yul\":4138:4231   */\n      tag_145\n        /* \"#utility.yul\":4227:4230   */\n      dup3\n        /* \"#utility.yul\":4138:4231   */\n      tag_89\n      jump\t// in\n    tag_145:\n        /* \"#utility.yul\":4256:4258   */\n      0x20\n        /* \"#utility.yul\":4251:4254   */\n      dup3\n        /* \"#utility.yul\":4247:4259   */\n      add\n        /* \"#utility.yul\":4240:4259   */\n      swap1\n      pop\n        /* \"#utility.yul\":3899:4265   */\n      swap2\n      swap1\n      pop\n      jump\t// out\n        /* \"#utility.yul\":4271:4690   */\n    tag_49:\n        /* \"#utility.yul\":4437:4441   */\n      0x00\n        /* \"#utility.yul\":4475:4477   */\n      0x20\n        /* \"#utility.yul\":4464:4473   */\n      dup3\n        /* \"#utility.yul\":4460:4478   */\n      add\n        /* \"#utility.yul\":4452:4478   */\n      swap1\n      pop\n        /* \"#utility.yul\":4524:4533   */\n      dup2\n        /* \"#utility.yul\":4518:4522   */\n      dup2\n        /* \"#utility.yul\":4514:4534   */\n      sub\n        /* \"#utility.yul\":4510:4511   */\n      0x00\n        /* \"#utility.yul\":4499:4508   */\n      dup4\n        /* \"#utility.yul\":4495:4512   */\n      add\n        /* \"#utility.yul\":4488:4535   */\n      mstore\n        /* \"#utility.yul\":4552:4683   */\n      tag_147\n        /* \"#utility.yul\":4678:4682   */\n      dup2\n        /* \"#utility.yul\":4552:4683   */\n      tag_90\n      jump\t// in\n    tag_147:\n        /* \"#utility.yul\":4544:4683   */\n      swap1\n      pop\n        /* \"#utility.yul\":4271:4690   */\n      swap2\n      swap1\n      pop\n      jump\t// out\n        /* \"#utility.yul\":4696:4843   */\n    tag_91:\n        /* \"#utility.yul\":4797:4808   */\n      0x00\n        /* \"#utility.yul\":4834:4837   */\n      dup2\n        /* \"#utility.yul\":4819:4837   */\n      swap1\n      pop\n        /* \"#utility.yul\":4696:4843   */\n      swap3\n      swap2\n      pop\n      pop\n      jump\t// out\n        /* \"#utility.yul\":4849:4963   */\n    tag_92:\n      pop\n      jump\t// out\n        /* \"#utility.yul\":4969:5367   */\n    tag_93:\n        /* \"#utility.yul\":5128:5131   */\n      0x00\n        /* \"#utility.yul\":5149:5232   */\n      tag_151\n        /* \"#utility.yul\":5230:5231   */\n      0x00\n        /* \"#utility.yul\":5225:5228   */\n      dup4\n        /* \"#utility.yul\":5149:5232   */\n      tag_91\n      jump\t// in\n    tag_151:\n        /* \"#utility.yul\":5142:5232   */\n      swap2\n      pop\n        /* \"#utility.yul\":5241:5334   */\n      tag_152\n        /* \"#utility.yul\":5330:5333   */\n      dup3\n        /* \"#utility.yul\":5241:5334   */\n      tag_92\n      jump\t// in\n    tag_152:\n        /* \"#utility.yul\":5359:5360   */\n      0x00\n        /* \"#utility.yul\":5354:5357   */\n      dup3\n        /* \"#utility.yul\":5350:5361   */\n      add\n        /* \"#utility.yul\":5343:5361   */\n      swap1\n      pop\n        /* \"#utility.yul\":4969:5367   */\n      swap2\n      swap1\n      pop\n      jump\t// out\n        /* \"#utility.yul\":5373:5752   */\n    tag_51:\n        /* \"#utility.yul\":5557:5560   */\n      0x00\n        /* \"#utility.yul\":5579:5726   */\n      tag_154\n        /* \"#utility.yul\":5722:5725   */\n      dup3\n        /* \"#utility.yul\":5579:5726   */\n      tag_93\n      jump\t// in\n    tag_154:\n        /* \"#utility.yul\":5572:5726   */\n      swap2\n      pop\n        /* \"#utility.yul\":5743:5746   */\n      dup2\n        /* \"#utility.yul\":5736:5746   */\n      swap1\n      pop\n        /* \"#utility.yul\":5373:5752   */\n      swap2\n      swap1\n      pop\n      jump\t// out\n        /* \"#utility.yul\":5758:5928   */\n    tag_94:\n        /* \"#utility.yul\":5898:5920   */\n      0x5472616e73616374696f6e206661696c65642021000000000000000000000000\n        /* \"#utility.yul\":5894:5895   */\n      0x00\n        /* \"#utility.yul\":5886:5892   */\n      dup3\n        /* \"#utility.yul\":5882:5896   */\n      add\n        /* \"#utility.yul\":5875:5921   */\n      mstore\n        /* \"#utility.yul\":5758:5928   */\n      pop\n      jump\t// out\n        /* \"#utility.yul\":5934:6300   */\n    tag_95:\n        /* \"#utility.yul\":6076:6079   */\n      0x00\n        /* \"#utility.yul\":6097:6164   */\n      tag_157\n        /* \"#utility.yul\":6161:6163   */\n      0x14\n        /* \"#utility.yul\":6156:6159   */\n      dup4\n        /* \"#utility.yul\":6097:6164   */\n      tag_86\n      jump\t// in\n    tag_157:\n        /* \"#utility.yul\":6090:6164   */\n      swap2\n      pop\n        /* \"#utility.yul\":6173:6266   */\n      tag_158\n        /* \"#utility.yul\":6262:6265   */\n      dup3\n        /* \"#utility.yul\":6173:6266   */\n      tag_94\n      jump\t// in\n    tag_158:\n        /* \"#utility.yul\":6291:6293   */\n      0x20\n        /* \"#utility.yul\":6286:6289   */\n      dup3\n        /* \"#utility.yul\":6282:6294   */\n      add\n        /* \"#utility.yul\":6275:6294   */\n      swap1\n      pop\n        /* \"#utility.yul\":5934:6300   */\n      swap2\n      swap1\n      pop\n      jump\t// out\n        /* \"#utility.yul\":6306:6725   */\n    tag_57:\n        /* \"#utility.yul\":6472:6476   */\n      0x00\n        /* \"#utility.yul\":6510:6512   */\n      0x20\n        /* \"#utility.yul\":6499:6508   */\n      dup3\n        /* \"#utility.yul\":6495:6513   */\n      add\n        /* \"#utility.yul\":6487:6513   */\n      swap1\n      pop\n        /* \"#utility.yul\":6559:6568   */\n      dup2\n        /* \"#utility.yul\":6553:6557   */\n      dup2\n        /* \"#utility.yul\":6549:6569   */\n      sub\n        /* \"#utility.yul\":6545:6546   */\n      0x00\n        /* \"#utility.yul\":6534:6543   */\n      dup4\n        /* \"#utility.yul\":6530:6547   */\n      add\n        /* \"#utility.yul\":6523:6570   */\n      mstore\n        /* \"#utility.yul\":6587:6718   */\n      tag_160\n        /* \"#utility.yul\":6713:6717   */\n      dup2\n        /* \"#utility.yul\":6587:6718   */\n      tag_95\n      jump\t// in\n    tag_160:\n        /* \"#utility.yul\":6579:6718   */\n      swap1\n      pop\n        /* \"#utility.yul\":6306:6725   */\n      swap2\n      swap1\n      pop\n      jump\t// out\n        /* \"#utility.yul\":6731:6900   */\n    tag_96:\n        /* \"#utility.yul\":6871:6892   */\n      0x496e636f7272656374207175616e746974792100000000000000000000000000\n        /* \"#utility.yul\":6867:6868   */\n      0x00\n        /* \"#utility.yul\":6859:6865   */\n      dup3\n        /* \"#utility.yul\":6855:6869   */\n      add\n        /* \"#utility.yul\":6848:6893   */\n      mstore\n        /* \"#utility.yul\":6731:6900   */\n      pop\n      jump\t// out\n        /* \"#utility.yul\":6906:7272   */\n    tag_97:\n        /* \"#utility.yul\":7048:7051   */\n      0x00\n        /* \"#utility.yul\":7069:7136   */\n      tag_163\n        /* \"#utility.yul\":7133:7135   */\n      0x13\n        /* \"#utility.yul\":7128:7131   */\n      dup4\n        /* \"#utility.yul\":7069:7136   */\n      tag_86\n      jump\t// in\n    tag_163:\n        /* \"#utility.yul\":7062:7136   */\n      swap2\n      pop\n        /* \"#utility.yul\":7145:7238   */\n      tag_164\n        /* \"#utility.yul\":7234:7237   */\n      dup3\n        /* \"#utility.yul\":7145:7238   */\n      tag_96\n      jump\t// in\n    tag_164:\n        /* \"#utility.yul\":7263:7265   */\n      0x20\n        /* \"#utility.yul\":7258:7261   */\n      dup3\n        /* \"#utility.yul\":7254:7266   */\n      add\n        /* \"#utility.yul\":7247:7266   */\n      swap1\n      pop\n        /* \"#utility.yul\":6906:7272   */\n      swap2\n      swap1\n      pop\n      jump\t// out\n        /* \"#utility.yul\":7278:7697   */\n    tag_64:\n        /* \"#utility.yul\":7444:7448   */\n      0x00\n        /* \"#utility.yul\":7482:7484   */\n      0x20\n        /* \"#utility.yul\":7471:7480   */\n      dup3\n        /* \"#utility.yul\":7467:7485   */\n      add\n        /* \"#utility.yul\":7459:7485   */\n      swap1\n      pop\n        /* \"#utility.yul\":7531:7540   */\n      dup2\n        /* \"#utility.yul\":7525:7529   */\n      dup2\n        /* \"#utility.yul\":7521:7541   */\n      sub\n        /* \"#utility.yul\":7517:7518   */\n      0x00\n        /* \"#utility.yul\":7506:7515   */\n      dup4\n        /* \"#utility.yul\":7502:7519   */\n      add\n        /* \"#utility.yul\":7495:7542   */\n      mstore\n        /* \"#utility.yul\":7559:7690   */\n      tag_166\n        /* \"#utility.yul\":7685:7689   */\n      dup2\n        /* \"#utility.yul\":7559:7690   */\n      tag_97\n      jump\t// in\n    tag_166:\n        /* \"#utility.yul\":7551:7690   */\n      swap1\n      pop\n        /* \"#utility.yul\":7278:7697   */\n      swap2\n      swap1\n      pop\n      jump\t// out\n        /* \"#utility.yul\":7703:7883   */\n    tag_98:\n        /* \"#utility.yul\":7751:7828   */\n      0x4e487b7100000000000000000000000000000000000000000000000000000000\n        /* \"#utility.yul\":7748:7749   */\n      0x00\n        /* \"#utility.yul\":7741:7829   */\n      mstore\n        /* \"#utility.yul\":7848:7852   */\n      0x11\n        /* \"#utility.yul\":7845:7846   */\n      0x04\n        /* \"#utility.yul\":7838:7853   */\n      mstore\n        /* \"#utility.yul\":7872:7876   */\n      0x24\n        /* \"#utility.yul\":7869:7870   */\n      0x00\n        /* \"#utility.yul\":7862:7877   */\n      revert\n        /* \"#utility.yul\":7889:8299   */\n    tag_66:\n        /* \"#utility.yul\":7929:7936   */\n      0x00\n        /* \"#utility.yul\":7952:7972   */\n      tag_169\n        /* \"#utility.yul\":7970:7971   */\n      dup3\n        /* \"#utility.yul\":7952:7972   */\n      tag_77\n      jump\t// in\n    tag_169:\n        /* \"#utility.yul\":7947:7972   */\n      swap2\n      pop\n        /* \"#utility.yul\":7986:8006   */\n      tag_170\n        /* \"#utility.yul\":8004:8005   */\n      dup4\n        /* \"#utility.yul\":7986:8006   */\n      tag_77\n      jump\t// in\n    tag_170:\n        /* \"#utility.yul\":7981:8006   */\n      swap3\n      pop\n        /* \"#utility.yul\":8041:8042   */\n      dup3\n        /* \"#utility.yul\":8038:8039   */\n      dup3\n        /* \"#utility.yul\":8034:8043   */\n      mul\n        /* \"#utility.yul\":8063:8093   */\n      tag_171\n        /* \"#utility.yul\":8081:8092   */\n      dup2\n        /* \"#utility.yul\":8063:8093   */\n      tag_77\n      jump\t// in\n    tag_171:\n        /* \"#utility.yul\":8052:8093   */\n      swap2\n      pop\n        /* \"#utility.yul\":8242:8243   */\n      dup3\n        /* \"#utility.yul\":8233:8240   */\n      dup3\n        /* \"#utility.yul\":8229:8244   */\n      div\n        /* \"#utility.yul\":8226:8227   */\n      dup5\n        /* \"#utility.yul\":8223:8245   */\n      eq\n        /* \"#utility.yul\":8203:8204   */\n      dup4\n        /* \"#utility.yul\":8196:8205   */\n      iszero\n        /* \"#utility.yul\":8176:8259   */\n      or\n        /* \"#utility.yul\":8153:8292   */\n      tag_172\n      jumpi\n        /* \"#utility.yul\":8272:8290   */\n      tag_173\n      tag_98\n      jump\t// in\n    tag_173:\n        /* \"#utility.yul\":8153:8292   */\n    tag_172:\n        /* \"#utility.yul\":7937:8299   */\n      pop\n        /* \"#utility.yul\":7889:8299   */\n      swap3\n      swap2\n      pop\n      pop\n      jump\t// out\n        /* \"#utility.yul\":8305:8470   */\n    tag_99:\n        /* \"#utility.yul\":8445:8462   */\n      0x496e76616c6964206d6f6e657920210000000000000000000000000000000000\n        /* \"#utility.yul\":8441:8442   */\n      0x00\n        /* \"#utility.yul\":8433:8439   */\n      dup3\n        /* \"#utility.yul\":8429:8443   */\n      add\n        /* \"#utility.yul\":8422:8463   */\n      mstore\n        /* \"#utility.yul\":8305:8470   */\n      pop\n      jump\t// out\n        /* \"#utility.yul\":8476:8842   */\n    tag_100:\n        /* \"#utility.yul\":8618:8621   */\n      0x00\n        /* \"#utility.yul\":8639:8706   */\n      tag_176\n        /* \"#utility.yul\":8703:8705   */\n      0x0f\n        /* \"#utility.yul\":8698:8701   */\n      dup4\n        /* \"#utility.yul\":8639:8706   */\n      tag_86\n      jump\t// in\n    tag_176:\n        /* \"#utility.yul\":8632:8706   */\n      swap2\n      pop\n        /* \"#utility.yul\":8715:8808   */\n      tag_177\n        /* \"#utility.yul\":8804:8807   */\n      dup3\n        /* \"#utility.yul\":8715:8808   */\n      tag_99\n      jump\t// in\n    tag_177:\n        /* \"#utility.yul\":8833:8835   */\n      0x20\n        /* \"#utility.yul\":8828:8831   */\n      dup3\n        /* \"#utility.yul\":8824:8836   */\n      add\n        /* \"#utility.yul\":8817:8836   */\n      swap1\n      pop\n        /* \"#utility.yul\":8476:8842   */\n      swap2\n      swap1\n      pop\n      jump\t// out\n        /* \"#utility.yul\":8848:9267   */\n    tag_69:\n        /* \"#utility.yul\":9014:9018   */\n      0x00\n        /* \"#utility.yul\":9052:9054   */\n      0x20\n        /* \"#utility.yul\":9041:9050   */\n      dup3\n        /* \"#utility.yul\":9037:9055   */\n      add\n        /* \"#utility.yul\":9029:9055   */\n      swap1\n      pop\n        /* \"#utility.yul\":9101:9110   */\n      dup2\n        /* \"#utility.yul\":9095:9099   */\n      dup2\n        /* \"#utility.yul\":9091:9111   */\n      sub\n        /* \"#utility.yul\":9087:9088   */\n      0x00\n        /* \"#utility.yul\":9076:9085   */\n      dup4\n        /* \"#utility.yul\":9072:9089   */\n      add\n        /* \"#utility.yul\":9065:9112   */\n      mstore\n        /* \"#utility.yul\":9129:9260   */\n      tag_179\n        /* \"#utility.yul\":9255:9259   */\n      dup2\n        /* \"#utility.yul\":9129:9260   */\n      tag_100\n      jump\t// in\n    tag_179:\n        /* \"#utility.yul\":9121:9260   */\n      swap1\n      pop\n        /* \"#utility.yul\":8848:9267   */\n      swap2\n      swap1\n      pop\n      jump\t// out\n        /* \"#utility.yul\":9273:9464   */\n    tag_71:\n        /* \"#utility.yul\":9313:9316   */\n      0x00\n        /* \"#utility.yul\":9332:9352   */\n      tag_181\n        /* \"#utility.yul\":9350:9351   */\n      dup3\n        /* \"#utility.yul\":9332:9352   */\n      tag_77\n      jump\t// in\n    tag_181:\n        /* \"#utility.yul\":9327:9352   */\n      swap2\n      pop\n        /* \"#utility.yul\":9366:9386   */\n      tag_182\n        /* \"#utility.yul\":9384:9385   */\n      dup4\n        /* \"#utility.yul\":9366:9386   */\n      tag_77\n      jump\t// in\n    tag_182:\n        /* \"#utility.yul\":9361:9386   */\n      swap3\n      pop\n        /* \"#utility.yul\":9409:9410   */\n      dup3\n        /* \"#utility.yul\":9406:9407   */\n      dup3\n        /* \"#utility.yul\":9402:9411   */\n      add\n        /* \"#utility.yul\":9395:9411   */\n      swap1\n      pop\n        /* \"#utility.yul\":9430:9433   */\n      dup1\n        /* \"#utility.yul\":9427:9428   */\n      dup3\n        /* \"#utility.yul\":9424:9434   */\n      gt\n        /* \"#utility.yul\":9421:9457   */\n      iszero\n      tag_183\n      jumpi\n        /* \"#utility.yul\":9437:9455   */\n      tag_184\n      tag_98\n      jump\t// in\n    tag_184:\n        /* \"#utility.yul\":9421:9457   */\n    tag_183:\n        /* \"#utility.yul\":9273:9464   */\n      swap3\n      swap2\n      pop\n      pop\n      jump\t// out\n        /* \"#utility.yul\":9470:9802   */\n    tag_73:\n        /* \"#utility.yul\":9591:9595   */\n      0x00\n        /* \"#utility.yul\":9629:9631   */\n      0x40\n        /* \"#utility.yul\":9618:9627   */\n      dup3\n        /* \"#utility.yul\":9614:9632   */\n      add\n        /* \"#utility.yul\":9606:9632   */\n      swap1\n      pop\n        /* \"#utility.yul\":9642:9713   */\n      tag_186\n        /* \"#utility.yul\":9710:9711   */\n      0x00\n        /* \"#utility.yul\":9699:9708   */\n      dup4\n        /* \"#utility.yul\":9695:9712   */\n      add\n        /* \"#utility.yul\":9686:9692   */\n      dup6\n        /* \"#utility.yul\":9642:9713   */\n      tag_78\n      jump\t// in\n    tag_186:\n        /* \"#utility.yul\":9723:9795   */\n      tag_187\n        /* \"#utility.yul\":9791:9793   */\n      0x20\n        /* \"#utility.yul\":9780:9789   */\n      dup4\n        /* \"#utility.yul\":9776:9794   */\n      add\n        /* \"#utility.yul\":9767:9773   */\n      dup5\n        /* \"#utility.yul\":9723:9795   */\n      tag_78\n      jump\t// in\n    tag_187:\n        /* \"#utility.yul\":9470:9802   */\n      swap4\n      swap3\n      pop\n      pop\n      pop\n      jump\t// out\n\n    auxdata: 0xa264697066735822122097bef01d177d577cc94eee9a51128ceaf16b7b0d5fa4f8f9dd48c688ece7d39e64736f6c63430008220033\n}\n",
				"bytecode": {
					"linkReferences": {},
					"object": "60a0604052348015600e575f5ffd5b503373ffffffffffffffffffffffffffffffffffffffff1660808173ffffffffffffffffffffffffffffffffffffffff1681525050608051610a086100705f395f818161019d015281816102720152818161033901526103ab0152610a085ff3fe60806040526004361061006f575f3560e01c80636f9fb98a1161004d5780636f9fb98a146100dd57806370cd5a8014610107578063842a77d314610143578063e7fb74c71461017f5761006f565b80630fdb1c1014610073578063117803e3146100895780636b0d7f55146100b3575b5f5ffd5b34801561007e575f5ffd5b5061008761019b565b005b348015610094575f5ffd5b5061009d6103a9565b6040516100aa91906105b9565b60405180910390f35b3480156100be575f5ffd5b506100c76103cd565b6040516100d491906105ea565b60405180910390f35b3480156100e8575f5ffd5b506100f16103d9565b6040516100fe91906105ea565b60405180910390f35b348015610112575f5ffd5b5061012d60048036038101906101289190610631565b6103e0565b60405161013a91906105ea565b60405180910390f35b34801561014e575f5ffd5b5061016960048036038101906101649190610631565b610425565b60405161017691906105ea565b60405180910390f35b61019960048036038101906101949190610686565b610439565b005b7f000000000000000000000000000000000000000000000000000000000000000073ffffffffffffffffffffffffffffffffffffffff163373ffffffffffffffffffffffffffffffffffffffff1614610229576040517f08c379a00000000000000000000000000000000000000000000000000000000081526004016102209061070b565b60405180910390fd5b5f4790505f811161026f576040517f08c379a000000000000000000000000000000000000000000000000000000000815260040161026690610773565b60405180910390fd5b5f7f000000000000000000000000000000000000000000000000000000000000000073ffffffffffffffffffffffffffffffffffffffff16826040516102b4906107be565b5f6040518083038185875af1925050503d805f81146102ee576040519150601f19603f3d011682016040523d82523d5f602084013e6102f3565b606091505b5050905080610337576040517f08c379a000000000000000000000000000000000000000000000000000000000815260040161032e9061081c565b60405180910390fd5b7f000000000000000000000000000000000000000000000000000000000000000073ffffffffffffffffffffffffffffffffffffffff167f6e8e1f59fc4c6e920d1dd77a30a41de6fd31bbc4cb226a9436144d4803a326d88360405161039d91906105ea565b60405180910390a25050565b7f000000000000000000000000000000000000000000000000000000000000000081565b67016345785d8a000081565b5f47905090565b5f5f5f8373ffffffffffffffffffffffffffffffffffffffff1673ffffffffffffffffffffffffffffffffffffffff1681526020019081526020015f20549050919050565b5f602052805f5260405f205f915090505481565b5f811161047b576040517f08c379a000000000000000000000000000000000000000000000000000000000815260040161047290610884565b60405180910390fd5b5f8167016345785d8a000061049091906108cf565b90508034146104d4576040517f08c379a00000000000000000000000000000000000000000000000000000000081526004016104cb9061095a565b60405180910390fd5b815f5f3373ffffffffffffffffffffffffffffffffffffffff1673ffffffffffffffffffffffffffffffffffffffff1681526020019081526020015f205f82825461051f9190610978565b925050819055503373ffffffffffffffffffffffffffffffffffffffff167f1452773cf753d0d7c71ed9990f7c7e2bdde4a2d08d187b3647953877e400488d838360405161056e9291906109ab565b60405180910390a25050565b5f73ffffffffffffffffffffffffffffffffffffffff82169050919050565b5f6105a38261057a565b9050919050565b6105b381610599565b82525050565b5f6020820190506105cc5f8301846105aa565b92915050565b5f819050919050565b6105e4816105d2565b82525050565b5f6020820190506105fd5f8301846105db565b92915050565b5f5ffd5b61061081610599565b811461061a575f5ffd5b50565b5f8135905061062b81610607565b92915050565b5f6020828403121561064657610645610603565b5b5f6106538482850161061d565b91505092915050565b610665816105d2565b811461066f575f5ffd5b50565b5f813590506106808161065c565b92915050565b5f6020828403121561069b5761069a610603565b5b5f6106a884828501610672565b91505092915050565b5f82825260208201905092915050565b7f4f6e6c79206f776e65722063616e2063616c6c202100000000000000000000005f82015250565b5f6106f56015836106b1565b9150610700826106c1565b602082019050919050565b5f6020820190508181035f830152610722816106e9565b9050919050565b7f4e6f2062616c616e636520746f207769746864726177210000000000000000005f82015250565b5f61075d6017836106b1565b915061076882610729565b602082019050919050565b5f6020820190508181035f83015261078a81610751565b9050919050565b5f81905092915050565b50565b5f6107a95f83610791565b91506107b48261079b565b5f82019050919050565b5f6107c88261079e565b9150819050919050565b7f5472616e73616374696f6e206661696c656420210000000000000000000000005f82015250565b5f6108066014836106b1565b9150610811826107d2565b602082019050919050565b5f6020820190508181035f830152610833816107fa565b9050919050565b7f496e636f7272656374207175616e7469747921000000000000000000000000005f82015250565b5f61086e6013836106b1565b91506108798261083a565b602082019050919050565b5f6020820190508181035f83015261089b81610862565b9050919050565b7f4e487b71000000000000000000000000000000000000000000000000000000005f52601160045260245ffd5b5f6108d9826105d2565b91506108e4836105d2565b92508282026108f2816105d2565b91508282048414831517610909576109086108a2565b5b5092915050565b7f496e76616c6964206d6f6e6579202100000000000000000000000000000000005f82015250565b5f610944600f836106b1565b915061094f82610910565b602082019050919050565b5f6020820190508181035f83015261097181610938565b9050919050565b5f610982826105d2565b915061098d836105d2565b92508282019050808211156109a5576109a46108a2565b5b92915050565b5f6040820190506109be5f8301856105db565b6109cb60208301846105db565b939250505056fea264697066735822122097bef01d177d577cc94eee9a51128ceaf16b7b0d5fa4f8f9dd48c688ece7d39e64736f6c63430008220033",
					"opcodes": "PUSH1 0xA0 PUSH1 0x40 MSTORE CALLVALUE DUP1 ISZERO PUSH1 0xE JUMPI PUSH0 PUSH0 REVERT JUMPDEST POP CALLER PUSH20 0xFFFFFFFFFFFFFFFFFFFFFFFFFFFFFFFFFFFFFFFF AND PUSH1 0x80 DUP2 PUSH20 0xFFFFFFFFFFFFFFFFFFFFFFFFFFFFFFFFFFFFFFFF AND DUP2 MSTORE POP POP PUSH1 0x80 MLOAD PUSH2 0xA08 PUSH2 0x70 PUSH0 CODECOPY PUSH0 DUP2 DUP2 PUSH2 0x19D ADD MSTORE DUP2 DUP2 PUSH2 0x272 ADD MSTORE DUP2 DUP2 PUSH2 0x339 ADD MSTORE PUSH2 0x3AB ADD MSTORE PUSH2 0xA08 PUSH0 RETURN INVALID PUSH1 0x80 PUSH1 0x40 MSTORE PUSH1 0x4 CALLDATASIZE LT PUSH2 0x6F JUMPI PUSH0 CALLDATALOAD PUSH1 0xE0 SHR DUP1 PUSH4 0x6F9FB98A GT PUSH2 0x4D JUMPI DUP1 PUSH4 0x6F9FB98A EQ PUSH2 0xDD JUMPI DUP1 PUSH4 0x70CD5A80 EQ PUSH2 0x107 JUMPI DUP1 PUSH4 0x842A77D3 EQ PUSH2 0x143 JUMPI DUP1 PUSH4 0xE7FB74C7 EQ PUSH2 0x17F JUMPI PUSH2 0x6F JUMP JUMPDEST DUP1 PUSH4 0xFDB1C10 EQ PUSH2 0x73 JUMPI DUP1 PUSH4 0x117803E3 EQ PUSH2 0x89 JUMPI DUP1 PUSH4 0x6B0D7F55 EQ PUSH2 0xB3 JUMPI JUMPDEST PUSH0 PUSH0 REVERT JUMPDEST CALLVALUE DUP1 ISZERO PUSH2 0x7E JUMPI PUSH0 PUSH0 REVERT JUMPDEST POP PUSH2 0x87 PUSH2 0x19B JUMP JUMPDEST STOP JUMPDEST CALLVALUE DUP1 ISZERO PUSH2 0x94 JUMPI PUSH0 PUSH0 REVERT JUMPDEST POP PUSH2 0x9D PUSH2 0x3A9 JUMP JUMPDEST PUSH1 0x40 MLOAD PUSH2 0xAA SWAP2 SWAP1 PUSH2 0x5B9 JUMP JUMPDEST PUSH1 0x40 MLOAD DUP1 SWAP2 SUB SWAP1 RETURN JUMPDEST CALLVALUE DUP1 ISZERO PUSH2 0xBE JUMPI PUSH0 PUSH0 REVERT JUMPDEST POP PUSH2 0xC7 PUSH2 0x3CD JUMP JUMPDEST PUSH1 0x40 MLOAD PUSH2 0xD4 SWAP2 SWAP1 PUSH2 0x5EA JUMP JUMPDEST PUSH1 0x40 MLOAD DUP1 SWAP2 SUB SWAP1 RETURN JUMPDEST CALLVALUE DUP1 ISZERO PUSH2 0xE8 JUMPI PUSH0 PUSH0 REVERT JUMPDEST POP PUSH2 0xF1 PUSH2 0x3D9 JUMP JUMPDEST PUSH1 0x40 MLOAD PUSH2 0xFE SWAP2 SWAP1 PUSH2 0x5EA JUMP JUMPDEST PUSH1 0x40 MLOAD DUP1 SWAP2 SUB SWAP1 RETURN JUMPDEST CALLVALUE DUP1 ISZERO PUSH2 0x112 JUMPI PUSH0 PUSH0 REVERT JUMPDEST POP PUSH2 0x12D PUSH1 0x4 DUP1 CALLDATASIZE SUB DUP2 ADD SWAP1 PUSH2 0x128 SWAP2 SWAP1 PUSH2 0x631 JUMP JUMPDEST PUSH2 0x3E0 JUMP JUMPDEST PUSH1 0x40 MLOAD PUSH2 0x13A SWAP2 SWAP1 PUSH2 0x5EA JUMP JUMPDEST PUSH1 0x40 MLOAD DUP1 SWAP2 SUB SWAP1 RETURN JUMPDEST CALLVALUE DUP1 ISZERO PUSH2 0x14E JUMPI PUSH0 PUSH0 REVERT JUMPDEST POP PUSH2 0x169 PUSH1 0x4 DUP1 CALLDATASIZE SUB DUP2 ADD SWAP1 PUSH2 0x164 SWAP2 SWAP1 PUSH2 0x631 JUMP JUMPDEST PUSH2 0x425 JUMP JUMPDEST PUSH1 0x40 MLOAD PUSH2 0x176 SWAP2 SWAP1 PUSH2 0x5EA JUMP JUMPDEST PUSH1 0x40 MLOAD DUP1 SWAP2 SUB SWAP1 RETURN JUMPDEST PUSH2 0x199 PUSH1 0x4 DUP1 CALLDATASIZE SUB DUP2 ADD SWAP1 PUSH2 0x194 SWAP2 SWAP1 PUSH2 0x686 JUMP JUMPDEST PUSH2 0x439 JUMP JUMPDEST STOP JUMPDEST PUSH32 0x0 PUSH20 0xFFFFFFFFFFFFFFFFFFFFFFFFFFFFFFFFFFFFFFFF AND CALLER PUSH20 0xFFFFFFFFFFFFFFFFFFFFFFFFFFFFFFFFFFFFFFFF AND EQ PUSH2 0x229 JUMPI PUSH1 0x40 MLOAD PUSH32 0x8C379A000000000000000000000000000000000000000000000000000000000 DUP2 MSTORE PUSH1 0x4 ADD PUSH2 0x220 SWAP1 PUSH2 0x70B JUMP JUMPDEST PUSH1 0x40 MLOAD DUP1 SWAP2 SUB SWAP1 REVERT JUMPDEST PUSH0 SELFBALANCE SWAP1 POP PUSH0 DUP2 GT PUSH2 0x26F JUMPI PUSH1 0x40 MLOAD PUSH32 0x8C379A000000000000000000000000000000000000000000000000000000000 DUP2 MSTORE PUSH1 0x4 ADD PUSH2 0x266 SWAP1 PUSH2 0x773 JUMP JUMPDEST PUSH1 0x40 MLOAD DUP1 SWAP2 SUB SWAP1 REVERT JUMPDEST PUSH0 PUSH32 0x0 PUSH20 0xFFFFFFFFFFFFFFFFFFFFFFFFFFFFFFFFFFFFFFFF AND DUP3 PUSH1 0x40 MLOAD PUSH2 0x2B4 SWAP1 PUSH2 0x7BE JUMP JUMPDEST PUSH0 PUSH1 0x40 MLOAD DUP1 DUP4 SUB DUP2 DUP6 DUP8 GAS CALL SWAP3 POP POP POP RETURNDATASIZE DUP1 PUSH0 DUP2 EQ PUSH2 0x2EE JUMPI PUSH1 0x40 MLOAD SWAP2 POP PUSH1 0x1F NOT PUSH1 0x3F RETURNDATASIZE ADD AND DUP3 ADD PUSH1 0x40 MSTORE RETURNDATASIZE DUP3 MSTORE RETURNDATASIZE PUSH0 PUSH1 0x20 DUP5 ADD RETURNDATACOPY PUSH2 0x2F3 JUMP JUMPDEST PUSH1 0x60 SWAP2 POP JUMPDEST POP POP SWAP1 POP DUP1 PUSH2 0x337 JUMPI PUSH1 0x40 MLOAD PUSH32 0x8C379A000000000000000000000000000000000000000000000000000000000 DUP2 MSTORE PUSH1 0x4 ADD PUSH2 0x32E SWAP1 PUSH2 0x81C JUMP JUMPDEST PUSH1 0x40 MLOAD DUP1 SWAP2 SUB SWAP1 REVERT JUMPDEST PUSH32 0x0 PUSH20 0xFFFFFFFFFFFFFFFFFFFFFFFFFFFFFFFFFFFFFFFF AND PUSH32 0x6E8E1F59FC4C6E920D1DD77A30A41DE6FD31BBC4CB226A9436144D4803A326D8 DUP4 PUSH1 0x40 MLOAD PUSH2 0x39D SWAP2 SWAP1 PUSH2 0x5EA JUMP JUMPDEST PUSH1 0x40 MLOAD DUP1 SWAP2 SUB SWAP1 LOG2 POP POP JUMP JUMPDEST PUSH32 0x0 DUP2 JUMP JUMPDEST PUSH8 0x16345785D8A0000 DUP2 JUMP JUMPDEST PUSH0 SELFBALANCE SWAP1 POP SWAP1 JUMP JUMPDEST PUSH0 PUSH0 PUSH0 DUP4 PUSH20 0xFFFFFFFFFFFFFFFFFFFFFFFFFFFFFFFFFFFFFFFF AND PUSH20 0xFFFFFFFFFFFFFFFFFFFFFFFFFFFFFFFFFFFFFFFF AND DUP2 MSTORE PUSH1 0x20 ADD SWAP1 DUP2 MSTORE PUSH1 0x20 ADD PUSH0 KECCAK256 SLOAD SWAP1 POP SWAP2 SWAP1 POP JUMP JUMPDEST PUSH0 PUSH1 0x20 MSTORE DUP1 PUSH0 MSTORE PUSH1 0x40 PUSH0 KECCAK256 PUSH0 SWAP2 POP SWAP1 POP SLOAD DUP2 JUMP JUMPDEST PUSH0 DUP2 GT PUSH2 0x47B JUMPI PUSH1 0x40 MLOAD PUSH32 0x8C379A000000000000000000000000000000000000000000000000000000000 DUP2 MSTORE PUSH1 0x4 ADD PUSH2 0x472 SWAP1 PUSH2 0x884 JUMP JUMPDEST PUSH1 0x40 MLOAD DUP1 SWAP2 SUB SWAP1 REVERT JUMPDEST PUSH0 DUP2 PUSH8 0x16345785D8A0000 PUSH2 0x490 SWAP2 SWAP1 PUSH2 0x8CF JUMP JUMPDEST SWAP1 POP DUP1 CALLVALUE EQ PUSH2 0x4D4 JUMPI PUSH1 0x40 MLOAD PUSH32 0x8C379A000000000000000000000000000000000000000000000000000000000 DUP2 MSTORE PUSH1 0x4 ADD PUSH2 0x4CB SWAP1 PUSH2 0x95A JUMP JUMPDEST PUSH1 0x40 MLOAD DUP1 SWAP2 SUB SWAP1 REVERT JUMPDEST DUP2 PUSH0 PUSH0 CALLER PUSH20 0xFFFFFFFFFFFFFFFFFFFFFFFFFFFFFFFFFFFFFFFF AND PUSH20 0xFFFFFFFFFFFFFFFFFFFFFFFFFFFFFFFFFFFFFFFF AND DUP2 MSTORE PUSH1 0x20 ADD SWAP1 DUP2 MSTORE PUSH1 0x20 ADD PUSH0 KECCAK256 PUSH0 DUP3 DUP3 SLOAD PUSH2 0x51F SWAP2 SWAP1 PUSH2 0x978 JUMP JUMPDEST SWAP3 POP POP DUP2 SWAP1 SSTORE POP CALLER PUSH20 0xFFFFFFFFFFFFFFFFFFFFFFFFFFFFFFFFFFFFFFFF AND PUSH32 0x1452773CF753D0D7C71ED9990F7C7E2BDDE4A2D08D187B3647953877E400488D DUP4 DUP4 PUSH1 0x40 MLOAD PUSH2 0x56E SWAP3 SWAP2 SWAP1 PUSH2 0x9AB JUMP JUMPDEST PUSH1 0x40 MLOAD DUP1 SWAP2 SUB SWAP1 LOG2 POP POP JUMP JUMPDEST PUSH0 PUSH20 0xFFFFFFFFFFFFFFFFFFFFFFFFFFFFFFFFFFFFFFFF DUP3 AND SWAP1 POP SWAP2 SWAP1 POP JUMP JUMPDEST PUSH0 PUSH2 0x5A3 DUP3 PUSH2 0x57A JUMP JUMPDEST SWAP1 POP SWAP2 SWAP1 POP JUMP JUMPDEST PUSH2 0x5B3 DUP2 PUSH2 0x599 JUMP JUMPDEST DUP3 MSTORE POP POP JUMP JUMPDEST PUSH0 PUSH1 0x20 DUP3 ADD SWAP1 POP PUSH2 0x5CC PUSH0 DUP4 ADD DUP5 PUSH2 0x5AA JUMP JUMPDEST SWAP3 SWAP2 POP POP JUMP JUMPDEST PUSH0 DUP2 SWAP1 POP SWAP2 SWAP1 POP JUMP JUMPDEST PUSH2 0x5E4 DUP2 PUSH2 0x5D2 JUMP JUMPDEST DUP3 MSTORE POP POP JUMP JUMPDEST PUSH0 PUSH1 0x20 DUP3 ADD SWAP1 POP PUSH2 0x5FD PUSH0 DUP4 ADD DUP5 PUSH2 0x5DB JUMP JUMPDEST SWAP3 SWAP2 POP POP JUMP JUMPDEST PUSH0 PUSH0 REVERT JUMPDEST PUSH2 0x610 DUP2 PUSH2 0x599 JUMP JUMPDEST DUP2 EQ PUSH2 0x61A JUMPI PUSH0 PUSH0 REVERT JUMPDEST POP JUMP JUMPDEST PUSH0 DUP2 CALLDATALOAD SWAP1 POP PUSH2 0x62B DUP2 PUSH2 0x607 JUMP JUMPDEST SWAP3 SWAP2 POP POP JUMP JUMPDEST PUSH0 PUSH1 0x20 DUP3 DUP5 SUB SLT ISZERO PUSH2 0x646 JUMPI PUSH2 0x645 PUSH2 0x603 JUMP JUMPDEST JUMPDEST PUSH0 PUSH2 0x653 DUP5 DUP3 DUP6 ADD PUSH2 0x61D JUMP JUMPDEST SWAP2 POP POP SWAP3 SWAP2 POP POP JUMP JUMPDEST PUSH2 0x665 DUP2 PUSH2 0x5D2 JUMP JUMPDEST DUP2 EQ PUSH2 0x66F JUMPI PUSH0 PUSH0 REVERT JUMPDEST POP JUMP JUMPDEST PUSH0 DUP2 CALLDATALOAD SWAP1 POP PUSH2 0x680 DUP2 PUSH2 0x65C JUMP JUMPDEST SWAP3 SWAP2 POP POP JUMP JUMPDEST PUSH0 PUSH1 0x20 DUP3 DUP5 SUB SLT ISZERO PUSH2 0x69B JUMPI PUSH2 0x69A PUSH2 0x603 JUMP JUMPDEST JUMPDEST PUSH0 PUSH2 0x6A8 DUP5 DUP3 DUP6 ADD PUSH2 0x672 JUMP JUMPDEST SWAP2 POP POP SWAP3 SWAP2 POP POP JUMP JUMPDEST PUSH0 DUP3 DUP3 MSTORE PUSH1 0x20 DUP3 ADD SWAP1 POP SWAP3 SWAP2 POP POP JUMP JUMPDEST PUSH32 0x4F6E6C79206F776E65722063616E2063616C6C20210000000000000000000000 PUSH0 DUP3 ADD MSTORE POP JUMP JUMPDEST PUSH0 PUSH2 0x6F5 PUSH1 0x15 DUP4 PUSH2 0x6B1 JUMP JUMPDEST SWAP2 POP PUSH2 0x700 DUP3 PUSH2 0x6C1 JUMP JUMPDEST PUSH1 0x20 DUP3 ADD SWAP1 POP SWAP2 SWAP1 POP JUMP JUMPDEST PUSH0 PUSH1 0x20 DUP3 ADD SWAP1 POP DUP2 DUP2 SUB PUSH0 DUP4 ADD MSTORE PUSH2 0x722 DUP2 PUSH2 0x6E9 JUMP JUMPDEST SWAP1 POP SWAP2 SWAP1 POP JUMP JUMPDEST PUSH32 0x4E6F2062616C616E636520746F20776974686472617721000000000000000000 PUSH0 DUP3 ADD MSTORE POP JUMP JUMPDEST PUSH0 PUSH2 0x75D PUSH1 0x17 DUP4 PUSH2 0x6B1 JUMP JUMPDEST SWAP2 POP PUSH2 0x768 DUP3 PUSH2 0x729 JUMP JUMPDEST PUSH1 0x20 DUP3 ADD SWAP1 POP SWAP2 SWAP1 POP JUMP JUMPDEST PUSH0 PUSH1 0x20 DUP3 ADD SWAP1 POP DUP2 DUP2 SUB PUSH0 DUP4 ADD MSTORE PUSH2 0x78A DUP2 PUSH2 0x751 JUMP JUMPDEST SWAP1 POP SWAP2 SWAP1 POP JUMP JUMPDEST PUSH0 DUP2 SWAP1 POP SWAP3 SWAP2 POP POP JUMP JUMPDEST POP JUMP JUMPDEST PUSH0 PUSH2 0x7A9 PUSH0 DUP4 PUSH2 0x791 JUMP JUMPDEST SWAP2 POP PUSH2 0x7B4 DUP3 PUSH2 0x79B JUMP JUMPDEST PUSH0 DUP3 ADD SWAP1 POP SWAP2 SWAP1 POP JUMP JUMPDEST PUSH0 PUSH2 0x7C8 DUP3 PUSH2 0x79E JUMP JUMPDEST SWAP2 POP DUP2 SWAP1 POP SWAP2 SWAP1 POP JUMP JUMPDEST PUSH32 0x5472616E73616374696F6E206661696C65642021000000000000000000000000 PUSH0 DUP3 ADD MSTORE POP JUMP JUMPDEST PUSH0 PUSH2 0x806 PUSH1 0x14 DUP4 PUSH2 0x6B1 JUMP JUMPDEST SWAP2 POP PUSH2 0x811 DUP3 PUSH2 0x7D2 JUMP JUMPDEST PUSH1 0x20 DUP3 ADD SWAP1 POP SWAP2 SWAP1 POP JUMP JUMPDEST PUSH0 PUSH1 0x20 DUP3 ADD SWAP1 POP DUP2 DUP2 SUB PUSH0 DUP4 ADD MSTORE PUSH2 0x833 DUP2 PUSH2 0x7FA JUMP JUMPDEST SWAP1 POP SWAP2 SWAP1 POP JUMP JUMPDEST PUSH32 0x496E636F7272656374207175616E746974792100000000000000000000000000 PUSH0 DUP3 ADD MSTORE POP JUMP JUMPDEST PUSH0 PUSH2 0x86E PUSH1 0x13 DUP4 PUSH2 0x6B1 JUMP JUMPDEST SWAP2 POP PUSH2 0x879 DUP3 PUSH2 0x83A JUMP JUMPDEST PUSH1 0x20 DUP3 ADD SWAP1 POP SWAP2 SWAP1 POP JUMP JUMPDEST PUSH0 PUSH1 0x20 DUP3 ADD SWAP1 POP DUP2 DUP2 SUB PUSH0 DUP4 ADD MSTORE PUSH2 0x89B DUP2 PUSH2 0x862 JUMP JUMPDEST SWAP1 POP SWAP2 SWAP1 POP JUMP JUMPDEST PUSH32 0x4E487B7100000000000000000000000000000000000000000000000000000000 PUSH0 MSTORE PUSH1 0x11 PUSH1 0x4 MSTORE PUSH1 0x24 PUSH0 REVERT JUMPDEST PUSH0 PUSH2 0x8D9 DUP3 PUSH2 0x5D2 JUMP JUMPDEST SWAP2 POP PUSH2 0x8E4 DUP4 PUSH2 0x5D2 JUMP JUMPDEST SWAP3 POP DUP3 DUP3 MUL PUSH2 0x8F2 DUP2 PUSH2 0x5D2 JUMP JUMPDEST SWAP2 POP DUP3 DUP3 DIV DUP5 EQ DUP4 ISZERO OR PUSH2 0x909 JUMPI PUSH2 0x908 PUSH2 0x8A2 JUMP JUMPDEST JUMPDEST POP SWAP3 SWAP2 POP POP JUMP JUMPDEST PUSH32 0x496E76616C6964206D6F6E657920210000000000000000000000000000000000 PUSH0 DUP3 ADD MSTORE POP JUMP JUMPDEST PUSH0 PUSH2 0x944 PUSH1 0xF DUP4 PUSH2 0x6B1 JUMP JUMPDEST SWAP2 POP PUSH2 0x94F DUP3 PUSH2 0x910 JUMP JUMPDEST PUSH1 0x20 DUP3 ADD SWAP1 POP SWAP2 SWAP1 POP JUMP JUMPDEST PUSH0 PUSH1 0x20 DUP3 ADD SWAP1 POP DUP2 DUP2 SUB PUSH0 DUP4 ADD MSTORE PUSH2 0x971 DUP2 PUSH2 0x938 JUMP JUMPDEST SWAP1 POP SWAP2 SWAP1 POP JUMP JUMPDEST PUSH0 PUSH2 0x982 DUP3 PUSH2 0x5D2 JUMP JUMPDEST SWAP2 POP PUSH2 0x98D DUP4 PUSH2 0x5D2 JUMP JUMPDEST SWAP3 POP DUP3 DUP3 ADD SWAP1 POP DUP1 DUP3 GT ISZERO PUSH2 0x9A5 JUMPI PUSH2 0x9A4 PUSH2 0x8A2 JUMP JUMPDEST JUMPDEST SWAP3 SWAP2 POP POP JUMP JUMPDEST PUSH0 PUSH1 0x40 DUP3 ADD SWAP1 POP PUSH2 0x9BE PUSH0 DUP4 ADD DUP6 PUSH2 0x5DB JUMP JUMPDEST PUSH2 0x9CB PUSH1 0x20 DUP4 ADD DUP5 PUSH2 0x5DB JUMP JUMPDEST SWAP4 SWAP3 POP POP POP JUMP INVALID LOG2 PUSH5 0x6970667358 0x22 SLT KECCAK256 SWAP8 0xBE CREATE SAR OR PUSH30 0x577CC94EEE9A51128CEAF16B7B0D5FA4F8F9DD48C688ECE7D39E64736F6C PUSH4 0x43000822 STOP CALLER "
				},
				"gasEstimates": {
					"creation": {
						"codeDepositCost": "513600",
						"executionCost": "infinite",
						"totalCost": "infinite"
					},
					"external": {
						"ITEM_PRICE()": "370",
						"OWNER()": "infinite",
						"buyItem(uint256)": "infinite",
						"getContractBalance()": "334",
						"getPurchases(address)": "2850",
						"purchases(address)": "2845",
						"withDraw()": "infinite"
					}
				},
				"methodIdentifiers": {
					"ITEM_PRICE()": "6b0d7f55",
					"OWNER()": "117803e3",
					"buyItem(uint256)": "e7fb74c7",
					"getContractBalance()": "6f9fb98a",
					"getPurchases(address)": "70cd5a80",
					"purchases(address)": "842a77d3",
					"withDraw()": "0fdb1c10"
				}
			},
			"storageLayout": {
				"storage": [
					{
						"astId": 11,
						"contract": "lession4.2-Specialtype&Globalvariable/SimpleShop.sol:SimpleShop",
						"label": "purchases",
						"offset": 0,
						"slot": "0",
						"type": "t_mapping(t_address,t_uint256)"
					}
				],
				"types": {
					"t_address": {
						"encoding": "inplace",
						"label": "address",
						"numberOfBytes": "20"
					},
					"t_mapping(t_address,t_uint256)": {
						"encoding": "mapping",
						"key": "t_address",
						"label": "mapping(address => uint256)",
						"numberOfBytes": "32",
						"value": "t_uint256"
					},
					"t_uint256": {
						"encoding": "inplace",
						"label": "uint256",
						"numberOfBytes": "32"
					}
				}
			},
			"userdoc": {
				"kind": "user",
				"methods": {},
				"notice": "综合运⽤msg.sender、msg.value、address payable。",
				"version": 1
			}
		}
	}
}