{
	"lession7.2-Error/AuctionContract.sol": {
		"AuctionContract": {
			"abi": [
				{
					"inputs": [
						{
							"internalType": "uint256",
							"name": "_duration",
							"type": "uint256"
						}
					],
					"stateMutability": "nonpayable",
					"type": "constructor"
				},
				{
					"inputs": [],
					"name": "AlreadyWithdrawn",
					"type": "error"
				},
				{
					"inputs": [],
					"name": "AuctionEndedError",
					"type": "error"
				},
				{
					"inputs": [],
					"name": "AuctionNotEnded",
					"type": "error"
				},
				{
					"inputs": [
						{
							"internalType": "uint256",
							"name": "currentBid",
							"type": "uint256"
						},
						{
							"internalType": "uint256",
							"name": "amount",
							"type": "uint256"
						}
					],
					"name": "BidTooLow",
					"type": "error"
				},
				{
					"inputs": [],
					"name": "NotHighestBidder",
					"type": "error"
				},
				{
					"inputs": [],
					"name": "WithdrawalFailed",
					"type": "error"
				},
				{
					"anonymous": false,
					"inputs": [
						{
							"indexed": false,
							"internalType": "address",
							"name": "winner",
							"type": "address"
						},
						{
							"indexed": false,
							"internalType": "uint256",
							"name": "amount",
							"type": "uint256"
						}
					],
					"name": "AuctionEnded",
					"type": "event"
				},
				{
					"anonymous": false,
					"inputs": [
						{
							"indexed": true,
							"internalType": "address",
							"name": "bidder",
							"type": "address"
						},
						{
							"indexed": false,
							"internalType": "uint256",
							"name": "amount",
							"type": "uint256"
						}
					],
					"name": "NewBid",
					"type": "event"
				},
				{
					"anonymous": false,
					"inputs": [
						{
							"indexed": true,
							"internalType": "address",
							"name": "currentBid",
							"type": "address"
						},
						{
							"indexed": false,
							"internalType": "uint256",
							"name": "amount",
							"type": "uint256"
						}
					],
					"name": "Withdrawal",
					"type": "event"
				},
				{
					"inputs": [],
					"name": "auctionEnd",
					"outputs": [
						{
							"internalType": "uint256",
							"name": "",
							"type": "uint256"
						}
					],
					"stateMutability": "view",
					"type": "function"
				},
				{
					"inputs": [],
					"name": "bid",
					"outputs": [],
					"stateMutability": "payable",
					"type": "function"
				},
				{
					"inputs": [],
					"name": "endAuction",
					"outputs": [],
					"stateMutability": "nonpayable",
					"type": "function"
				},
				{
					"inputs": [
						{
							"internalType": "address",
							"name": "",
							"type": "address"
						}
					],
					"name": "hasWithdrawn",
					"outputs": [
						{
							"internalType": "bool",
							"name": "",
							"type": "bool"
						}
					],
					"stateMutability": "view",
					"type": "function"
				},
				{
					"inputs": [],
					"name": "highestBid",
					"outputs": [
						{
							"internalType": "uint256",
							"name": "",
							"type": "uint256"
						}
					],
					"stateMutability": "view",
					"type": "function"
				},
				{
					"inputs": [],
					"name": "highestBidder",
					"outputs": [
						{
							"internalType": "address",
							"name": "",
							"type": "address"
						}
					],
					"stateMutability": "view",
					"type": "function"
				},
				{
					"inputs": [],
					"name": "owner",
					"outputs": [
						{
							"internalType": "address",
							"name": "",
							"type": "address"
						}
					],
					"stateMutability": "view",
					"type": "function"
				},
				{
					"inputs": [
						{
							"internalType": "address",
							"name": "",
							"type": "address"
						}
					],
					"name": "penddingReturns",
					"outputs": [
						{
							"internalType": "uint256",
							"name": "",
							"type": "uint256"
						}
					],
					"stateMutability": "view",
					"type": "function"
				},
				{
					"inputs": [],
					"name": "withDraw",
					"outputs": [
						{
							"internalType": "bool",
							"name": "",
							"type": "bool"
						}
					],
					"stateMutability": "nonpayable",
					"type": "function"
				}
			],
			"devdoc": {
				"kind": "dev",
				"methods": {},
				"version": 1
			},
			"evm": {
				"assembly": "    /* \"lession7.2-Error/AuctionContract.sol\":77:2971  contract AuctionContract {... */\n  mstore(0x40, 0x80)\n    /* \"lession7.2-Error/AuctionContract.sol\":725:850  constructor(uint _duration) {... */\n  callvalue\n  dup1\n  iszero\n  tag_1\n  jumpi\n  revert(0x00, 0x00)\ntag_1:\n  pop\n  mload(0x40)\n  sub(codesize, bytecodeSize)\n  dup1\n  bytecodeSize\n  dup4\n  codecopy\n  dup2\n  dup2\n  add\n  0x40\n  mstore\n  dup2\n  add\n  swap1\n  tag_2\n  swap2\n  swap1\n  tag_3\n  jump\t// in\ntag_2:\n    /* \"lession7.2-Error/AuctionContract.sol\":772:782  msg.sender */\n  caller\n    /* \"lession7.2-Error/AuctionContract.sol\":764:769  owner */\n  0x00\n  0x00\n    /* \"lession7.2-Error/AuctionContract.sol\":764:782  owner = msg.sender */\n  0x0100\n  exp\n  dup2\n  sload\n  dup2\n  0xffffffffffffffffffffffffffffffffffffffff\n  mul\n  not\n  and\n  swap1\n  dup4\n  0xffffffffffffffffffffffffffffffffffffffff\n  and\n  mul\n  or\n  swap1\n  sstore\n  pop\n    /* \"lession7.2-Error/AuctionContract.sol\":836:842  1 days */\n  0x015180\n    /* \"lession7.2-Error/AuctionContract.sol\":824:833  _duration */\n  dup2\n    /* \"lession7.2-Error/AuctionContract.sol\":824:842  _duration * 1 days */\n  tag_6\n  swap2\n  swap1\n  tag_7\n  jump\t// in\ntag_6:\n    /* \"lession7.2-Error/AuctionContract.sol\":806:821  block.timestamp */\n  timestamp\n    /* \"lession7.2-Error/AuctionContract.sol\":806:842  block.timestamp + _duration * 1 days */\n  tag_8\n  swap2\n  swap1\n  tag_9\n  jump\t// in\ntag_8:\n    /* \"lession7.2-Error/AuctionContract.sol\":793:803  auctionEnd */\n  0x01\n    /* \"lession7.2-Error/AuctionContract.sol\":793:842  auctionEnd = block.timestamp + _duration * 1 days */\n  dup2\n  swap1\n  sstore\n  pop\n    /* \"lession7.2-Error/AuctionContract.sol\":725:850  constructor(uint _duration) {... */\n  pop\n    /* \"lession7.2-Error/AuctionContract.sol\":77:2971  contract AuctionContract {... */\n  jump(tag_10)\n    /* \"#utility.yul\":88:205   */\ntag_12:\n    /* \"#utility.yul\":197:198   */\n  0x00\n    /* \"#utility.yul\":194:195   */\n  0x00\n    /* \"#utility.yul\":187:199   */\n  revert\n    /* \"#utility.yul\":334:411   */\ntag_14:\n    /* \"#utility.yul\":371:378   */\n  0x00\n    /* \"#utility.yul\":400:405   */\n  dup2\n    /* \"#utility.yul\":389:405   */\n  swap1\n  pop\n    /* \"#utility.yul\":334:411   */\n  swap2\n  swap1\n  pop\n  jump\t// out\n    /* \"#utility.yul\":417:539   */\ntag_15:\n    /* \"#utility.yul\":490:514   */\n  tag_24\n    /* \"#utility.yul\":508:513   */\n  dup2\n    /* \"#utility.yul\":490:514   */\n  tag_14\n  jump\t// in\ntag_24:\n    /* \"#utility.yul\":483:488   */\n  dup2\n    /* \"#utility.yul\":480:515   */\n  eq\n    /* \"#utility.yul\":470:533   */\n  tag_25\n  jumpi\n    /* \"#utility.yul\":529:530   */\n  0x00\n    /* \"#utility.yul\":526:527   */\n  0x00\n    /* \"#utility.yul\":519:531   */\n  revert\n    /* \"#utility.yul\":470:533   */\ntag_25:\n    /* \"#utility.yul\":417:539   */\n  pop\n  jump\t// out\n    /* \"#utility.yul\":545:688   */\ntag_16:\n    /* \"#utility.yul\":602:607   */\n  0x00\n    /* \"#utility.yul\":633:639   */\n  dup2\n    /* \"#utility.yul\":627:640   */\n  mload\n    /* \"#utility.yul\":618:640   */\n  swap1\n  pop\n    /* \"#utility.yul\":649:682   */\n  tag_27\n    /* \"#utility.yul\":676:681   */\n  dup2\n    /* \"#utility.yul\":649:682   */\n  tag_15\n  jump\t// in\ntag_27:\n    /* \"#utility.yul\":545:688   */\n  swap3\n  swap2\n  pop\n  pop\n  jump\t// out\n    /* \"#utility.yul\":694:1045   */\ntag_3:\n    /* \"#utility.yul\":764:770   */\n  0x00\n    /* \"#utility.yul\":813:815   */\n  0x20\n    /* \"#utility.yul\":801:810   */\n  dup3\n    /* \"#utility.yul\":792:799   */\n  dup5\n    /* \"#utility.yul\":788:811   */\n  sub\n    /* \"#utility.yul\":784:816   */\n  slt\n    /* \"#utility.yul\":781:900   */\n  iszero\n  tag_29\n  jumpi\n    /* \"#utility.yul\":819:898   */\n  tag_30\n  tag_12\n  jump\t// in\ntag_30:\n    /* \"#utility.yul\":781:900   */\ntag_29:\n    /* \"#utility.yul\":939:940   */\n  0x00\n    /* \"#utility.yul\":964:1028   */\n  tag_31\n    /* \"#utility.yul\":1020:1027   */\n  dup5\n    /* \"#utility.yul\":1011:1017   */\n  dup3\n    /* \"#utility.yul\":1000:1009   */\n  dup6\n    /* \"#utility.yul\":996:1018   */\n  add\n    /* \"#utility.yul\":964:1028   */\n  tag_16\n  jump\t// in\ntag_31:\n    /* \"#utility.yul\":954:1028   */\n  swap2\n  pop\n    /* \"#utility.yul\":910:1038   */\n  pop\n    /* \"#utility.yul\":694:1045   */\n  swap3\n  swap2\n  pop\n  pop\n  jump\t// out\n    /* \"#utility.yul\":1051:1231   */\ntag_17:\n    /* \"#utility.yul\":1099:1176   */\n  0x4e487b7100000000000000000000000000000000000000000000000000000000\n    /* \"#utility.yul\":1096:1097   */\n  0x00\n    /* \"#utility.yul\":1089:1177   */\n  mstore\n    /* \"#utility.yul\":1196:1200   */\n  0x11\n    /* \"#utility.yul\":1193:1194   */\n  0x04\n    /* \"#utility.yul\":1186:1201   */\n  mstore\n    /* \"#utility.yul\":1220:1224   */\n  0x24\n    /* \"#utility.yul\":1217:1218   */\n  0x00\n    /* \"#utility.yul\":1210:1225   */\n  revert\n    /* \"#utility.yul\":1237:1647   */\ntag_7:\n    /* \"#utility.yul\":1277:1284   */\n  0x00\n    /* \"#utility.yul\":1300:1320   */\n  tag_34\n    /* \"#utility.yul\":1318:1319   */\n  dup3\n    /* \"#utility.yul\":1300:1320   */\n  tag_14\n  jump\t// in\ntag_34:\n    /* \"#utility.yul\":1295:1320   */\n  swap2\n  pop\n    /* \"#utility.yul\":1334:1354   */\n  tag_35\n    /* \"#utility.yul\":1352:1353   */\n  dup4\n    /* \"#utility.yul\":1334:1354   */\n  tag_14\n  jump\t// in\ntag_35:\n    /* \"#utility.yul\":1329:1354   */\n  swap3\n  pop\n    /* \"#utility.yul\":1389:1390   */\n  dup3\n    /* \"#utility.yul\":1386:1387   */\n  dup3\n    /* \"#utility.yul\":1382:1391   */\n  mul\n    /* \"#utility.yul\":1411:1441   */\n  tag_36\n    /* \"#utility.yul\":1429:1440   */\n  dup2\n    /* \"#utility.yul\":1411:1441   */\n  tag_14\n  jump\t// in\ntag_36:\n    /* \"#utility.yul\":1400:1441   */\n  swap2\n  pop\n    /* \"#utility.yul\":1590:1591   */\n  dup3\n    /* \"#utility.yul\":1581:1588   */\n  dup3\n    /* \"#utility.yul\":1577:1592   */\n  div\n    /* \"#utility.yul\":1574:1575   */\n  dup5\n    /* \"#utility.yul\":1571:1593   */\n  eq\n    /* \"#utility.yul\":1551:1552   */\n  dup4\n    /* \"#utility.yul\":1544:1553   */\n  iszero\n    /* \"#utility.yul\":1524:1607   */\n  or\n    /* \"#utility.yul\":1501:1640   */\n  tag_37\n  jumpi\n    /* \"#utility.yul\":1620:1638   */\n  tag_38\n  tag_17\n  jump\t// in\ntag_38:\n    /* \"#utility.yul\":1501:1640   */\ntag_37:\n    /* \"#utility.yul\":1285:1647   */\n  pop\n    /* \"#utility.yul\":1237:1647   */\n  swap3\n  swap2\n  pop\n  pop\n  jump\t// out\n    /* \"#utility.yul\":1653:1844   */\ntag_9:\n    /* \"#utility.yul\":1693:1696   */\n  0x00\n    /* \"#utility.yul\":1712:1732   */\n  tag_40\n    /* \"#utility.yul\":1730:1731   */\n  dup3\n    /* \"#utility.yul\":1712:1732   */\n  tag_14\n  jump\t// in\ntag_40:\n    /* \"#utility.yul\":1707:1732   */\n  swap2\n  pop\n    /* \"#utility.yul\":1746:1766   */\n  tag_41\n    /* \"#utility.yul\":1764:1765   */\n  dup4\n    /* \"#utility.yul\":1746:1766   */\n  tag_14\n  jump\t// in\ntag_41:\n    /* \"#utility.yul\":1741:1766   */\n  swap3\n  pop\n    /* \"#utility.yul\":1789:1790   */\n  dup3\n    /* \"#utility.yul\":1786:1787   */\n  dup3\n    /* \"#utility.yul\":1782:1791   */\n  add\n    /* \"#utility.yul\":1775:1791   */\n  swap1\n  pop\n    /* \"#utility.yul\":1810:1813   */\n  dup1\n    /* \"#utility.yul\":1807:1808   */\n  dup3\n    /* \"#utility.yul\":1804:1814   */\n  gt\n    /* \"#utility.yul\":1801:1837   */\n  iszero\n  tag_42\n  jumpi\n    /* \"#utility.yul\":1817:1835   */\n  tag_43\n  tag_17\n  jump\t// in\ntag_43:\n    /* \"#utility.yul\":1801:1837   */\ntag_42:\n    /* \"#utility.yul\":1653:1844   */\n  swap3\n  swap2\n  pop\n  pop\n  jump\t// out\n    /* \"lession7.2-Error/AuctionContract.sol\":77:2971  contract AuctionContract {... */\ntag_10:\n  dataSize(sub_0)\n  dup1\n  dataOffset(sub_0)\n  0x00\n  codecopy\n  0x00\n  return\nstop\n\nsub_0: assembly {\n        /* \"lession7.2-Error/AuctionContract.sol\":77:2971  contract AuctionContract {... */\n      mstore(0x40, 0x80)\n      jumpi(tag_1, lt(calldatasize, 0x04))\n      shr(0xe0, calldataload(0x00))\n      dup1\n      0x8da5cb5b\n      gt\n      tag_11\n      jumpi\n      dup1\n      0x8da5cb5b\n      eq\n      tag_6\n      jumpi\n      dup1\n      0x91f90157\n      eq\n      tag_7\n      jumpi\n      dup1\n      0xc18a6b8b\n      eq\n      tag_8\n      jumpi\n      dup1\n      0xd57bde79\n      eq\n      tag_9\n      jumpi\n      dup1\n      0xfe67a54b\n      eq\n      tag_10\n      jumpi\n      jump(tag_1)\n    tag_11:\n      dup1\n      0x0fdb1c10\n      eq\n      tag_2\n      jumpi\n      dup1\n      0x1998aeef\n      eq\n      tag_3\n      jumpi\n      dup1\n      0x2a24f46c\n      eq\n      tag_4\n      jumpi\n      dup1\n      0x5e2c19db\n      eq\n      tag_5\n      jumpi\n    tag_1:\n      revert(0x00, 0x00)\n        /* \"lession7.2-Error/AuctionContract.sol\":1697:2543  function withDraw() public returns (bool) {... */\n    tag_2:\n      callvalue\n      dup1\n      iszero\n      tag_12\n      jumpi\n      revert(0x00, 0x00)\n    tag_12:\n      pop\n      tag_13\n      tag_14\n      jump\t// in\n    tag_13:\n      mload(0x40)\n      tag_15\n      swap2\n      swap1\n      tag_16\n      jump\t// in\n    tag_15:\n      mload(0x40)\n      dup1\n      swap2\n      sub\n      swap1\n      return\n        /* \"lession7.2-Error/AuctionContract.sol\":873:1634  function bid() public payable {... */\n    tag_3:\n      tag_17\n      tag_18\n      jump\t// in\n    tag_17:\n      stop\n        /* \"lession7.2-Error/AuctionContract.sol\":138:160  uint public auctionEnd */\n    tag_4:\n      callvalue\n      dup1\n      iszero\n      tag_19\n      jumpi\n      revert(0x00, 0x00)\n    tag_19:\n      pop\n      tag_20\n      tag_21\n      jump\t// in\n    tag_20:\n      mload(0x40)\n      tag_22\n      swap2\n      swap1\n      tag_23\n      jump\t// in\n    tag_22:\n      mload(0x40)\n      dup1\n      swap2\n      sub\n      swap1\n      return\n        /* \"lession7.2-Error/AuctionContract.sol\":288:333  mapping (address => bool) public hasWithdrawn */\n    tag_5:\n      callvalue\n      dup1\n      iszero\n      tag_24\n      jumpi\n      revert(0x00, 0x00)\n    tag_24:\n      pop\n      tag_25\n      0x04\n      dup1\n      calldatasize\n      sub\n      dup2\n      add\n      swap1\n      tag_26\n      swap2\n      swap1\n      tag_27\n      jump\t// in\n    tag_26:\n      tag_28\n      jump\t// in\n    tag_25:\n      mload(0x40)\n      tag_29\n      swap2\n      swap1\n      tag_16\n      jump\t// in\n    tag_29:\n      mload(0x40)\n      dup1\n      swap2\n      sub\n      swap1\n      return\n        /* \"lession7.2-Error/AuctionContract.sol\":111:131  address public owner */\n    tag_6:\n      callvalue\n      dup1\n      iszero\n      tag_30\n      jumpi\n      revert(0x00, 0x00)\n    tag_30:\n      pop\n      tag_31\n      tag_32\n      jump\t// in\n    tag_31:\n      mload(0x40)\n      tag_33\n      swap2\n      swap1\n      tag_34\n      jump\t// in\n    tag_33:\n      mload(0x40)\n      dup1\n      swap2\n      sub\n      swap1\n      return\n        /* \"lession7.2-Error/AuctionContract.sol\":196:224  address public highestBidder */\n    tag_7:\n      callvalue\n      dup1\n      iszero\n      tag_35\n      jumpi\n      revert(0x00, 0x00)\n    tag_35:\n      pop\n      tag_36\n      tag_37\n      jump\t// in\n    tag_36:\n      mload(0x40)\n      tag_38\n      swap2\n      swap1\n      tag_34\n      jump\t// in\n    tag_38:\n      mload(0x40)\n      dup1\n      swap2\n      sub\n      swap1\n      return\n        /* \"lession7.2-Error/AuctionContract.sol\":233:281  mapping (address => uint) public penddingReturns */\n    tag_8:\n      callvalue\n      dup1\n      iszero\n      tag_39\n      jumpi\n      revert(0x00, 0x00)\n    tag_39:\n      pop\n      tag_40\n      0x04\n      dup1\n      calldatasize\n      sub\n      dup2\n      add\n      swap1\n      tag_41\n      swap2\n      swap1\n      tag_27\n      jump\t// in\n    tag_41:\n      tag_42\n      jump\t// in\n    tag_40:\n      mload(0x40)\n      tag_43\n      swap2\n      swap1\n      tag_23\n      jump\t// in\n    tag_43:\n      mload(0x40)\n      dup1\n      swap2\n      sub\n      swap1\n      return\n        /* \"lession7.2-Error/AuctionContract.sol\":167:189  uint public highestBid */\n    tag_9:\n      callvalue\n      dup1\n      iszero\n      tag_44\n      jumpi\n      revert(0x00, 0x00)\n    tag_44:\n      pop\n      tag_45\n      tag_46\n      jump\t// in\n    tag_45:\n      mload(0x40)\n      tag_47\n      swap2\n      swap1\n      tag_23\n      jump\t// in\n    tag_47:\n      mload(0x40)\n      dup1\n      swap2\n      sub\n      swap1\n      return\n        /* \"lession7.2-Error/AuctionContract.sol\":2572:2968  function endAuction() public {... */\n    tag_10:\n      callvalue\n      dup1\n      iszero\n      tag_48\n      jumpi\n      revert(0x00, 0x00)\n    tag_48:\n      pop\n      tag_49\n      tag_50\n      jump\t// in\n    tag_49:\n      stop\n        /* \"lession7.2-Error/AuctionContract.sol\":1697:2543  function withDraw() public returns (bool) {... */\n    tag_14:\n        /* \"lession7.2-Error/AuctionContract.sol\":1733:1737  bool */\n      0x00\n        /* \"lession7.2-Error/AuctionContract.sol\":1784:1795  uint amount */\n      0x00\n        /* \"lession7.2-Error/AuctionContract.sol\":1798:1813  penddingReturns */\n      0x04\n        /* \"lession7.2-Error/AuctionContract.sol\":1798:1825  penddingReturns[msg.sender] */\n      0x00\n        /* \"lession7.2-Error/AuctionContract.sol\":1814:1824  msg.sender */\n      caller\n        /* \"lession7.2-Error/AuctionContract.sol\":1798:1825  penddingReturns[msg.sender] */\n      0xffffffffffffffffffffffffffffffffffffffff\n      and\n      0xffffffffffffffffffffffffffffffffffffffff\n      and\n      dup2\n      mstore\n      0x20\n      add\n      swap1\n      dup2\n      mstore\n      0x20\n      add\n      0x00\n      keccak256\n      sload\n        /* \"lession7.2-Error/AuctionContract.sol\":1784:1825  uint amount = penddingReturns[msg.sender] */\n      swap1\n      pop\n        /* \"lession7.2-Error/AuctionContract.sol\":1853:1854  0 */\n      0x00\n        /* \"lession7.2-Error/AuctionContract.sol\":1844:1850  amount */\n      dup2\n        /* \"lession7.2-Error/AuctionContract.sol\":1844:1854  amount > 0 */\n      gt\n        /* \"lession7.2-Error/AuctionContract.sol\":1836:1870  require(amount > 0, \"No returns!\") */\n      tag_52\n      jumpi\n      mload(0x40)\n      0x08c379a000000000000000000000000000000000000000000000000000000000\n      dup2\n      mstore\n      0x04\n      add\n      tag_53\n      swap1\n      tag_54\n      jump\t// in\n    tag_53:\n      mload(0x40)\n      dup1\n      swap2\n      sub\n      swap1\n      revert\n    tag_52:\n        /* \"lession7.2-Error/AuctionContract.sol\":1925:1937  hasWithdrawn */\n      0x05\n        /* \"lession7.2-Error/AuctionContract.sol\":1925:1949  hasWithdrawn[msg.sender] */\n      0x00\n        /* \"lession7.2-Error/AuctionContract.sol\":1938:1948  msg.sender */\n      caller\n        /* \"lession7.2-Error/AuctionContract.sol\":1925:1949  hasWithdrawn[msg.sender] */\n      0xffffffffffffffffffffffffffffffffffffffff\n      and\n      0xffffffffffffffffffffffffffffffffffffffff\n      and\n      dup2\n      mstore\n      0x20\n      add\n      swap1\n      dup2\n      mstore\n      0x20\n      add\n      0x00\n      keccak256\n      0x00\n      swap1\n      sload\n      swap1\n      0x0100\n      exp\n      swap1\n      div\n      0xff\n      and\n        /* \"lession7.2-Error/AuctionContract.sol\":1921:2003  if (hasWithdrawn[msg.sender]) {... */\n      iszero\n      tag_55\n      jumpi\n        /* \"lession7.2-Error/AuctionContract.sol\":1973:1991  AlreadyWithdrawn() */\n      mload(0x40)\n      0x6507689f00000000000000000000000000000000000000000000000000000000\n      dup2\n      mstore\n      0x04\n      add\n      mload(0x40)\n      dup1\n      swap2\n      sub\n      swap1\n      revert\n        /* \"lession7.2-Error/AuctionContract.sol\":1921:2003  if (hasWithdrawn[msg.sender]) {... */\n    tag_55:\n        /* \"lession7.2-Error/AuctionContract.sol\":2094:2095  0 */\n      0x00\n        /* \"lession7.2-Error/AuctionContract.sol\":2064:2079  penddingReturns */\n      0x04\n        /* \"lession7.2-Error/AuctionContract.sol\":2064:2091  penddingReturns[msg.sender] */\n      0x00\n        /* \"lession7.2-Error/AuctionContract.sol\":2080:2090  msg.sender */\n      caller\n        /* \"lession7.2-Error/AuctionContract.sol\":2064:2091  penddingReturns[msg.sender] */\n      0xffffffffffffffffffffffffffffffffffffffff\n      and\n      0xffffffffffffffffffffffffffffffffffffffff\n      and\n      dup2\n      mstore\n      0x20\n      add\n      swap1\n      dup2\n      mstore\n      0x20\n      add\n      0x00\n      keccak256\n        /* \"lession7.2-Error/AuctionContract.sol\":2064:2095  penddingReturns[msg.sender] = 0 */\n      dup2\n      swap1\n      sstore\n      pop\n        /* \"lession7.2-Error/AuctionContract.sol\":2133:2137  true */\n      0x01\n        /* \"lession7.2-Error/AuctionContract.sol\":2106:2118  hasWithdrawn */\n      0x05\n        /* \"lession7.2-Error/AuctionContract.sol\":2106:2130  hasWithdrawn[msg.sender] */\n      0x00\n        /* \"lession7.2-Error/AuctionContract.sol\":2119:2129  msg.sender */\n      caller\n        /* \"lession7.2-Error/AuctionContract.sol\":2106:2130  hasWithdrawn[msg.sender] */\n      0xffffffffffffffffffffffffffffffffffffffff\n      and\n      0xffffffffffffffffffffffffffffffffffffffff\n      and\n      dup2\n      mstore\n      0x20\n      add\n      swap1\n      dup2\n      mstore\n      0x20\n      add\n      0x00\n      keccak256\n      0x00\n        /* \"lession7.2-Error/AuctionContract.sol\":2106:2137  hasWithdrawn[msg.sender] = true */\n      0x0100\n      exp\n      dup2\n      sload\n      dup2\n      0xff\n      mul\n      not\n      and\n      swap1\n      dup4\n      iszero\n      iszero\n      mul\n      or\n      swap1\n      sstore\n      pop\n        /* \"lession7.2-Error/AuctionContract.sol\":2191:2203  bool success */\n      0x00\n        /* \"lession7.2-Error/AuctionContract.sol\":2208:2218  msg.sender */\n      caller\n        /* \"lession7.2-Error/AuctionContract.sol\":2208:2223  msg.sender.call */\n      0xffffffffffffffffffffffffffffffffffffffff\n      and\n        /* \"lession7.2-Error/AuctionContract.sol\":2230:2236  amount */\n      dup3\n        /* \"lession7.2-Error/AuctionContract.sol\":2208:2241  msg.sender.call{value:amount}(\"\") */\n      mload(0x40)\n      tag_56\n      swap1\n      tag_57\n      jump\t// in\n    tag_56:\n      0x00\n      mload(0x40)\n      dup1\n      dup4\n      sub\n      dup2\n      dup6\n      dup8\n      gas\n      call\n      swap3\n      pop\n      pop\n      pop\n      returndatasize\n      dup1\n      0x00\n      dup2\n      eq\n      tag_60\n      jumpi\n      mload(0x40)\n      swap2\n      pop\n      and(add(returndatasize, 0x3f), not(0x1f))\n      dup3\n      add\n      0x40\n      mstore\n      returndatasize\n      dup3\n      mstore\n      returndatasize\n      0x00\n      0x20\n      dup5\n      add\n      returndatacopy\n      jump(tag_59)\n    tag_60:\n      0x60\n      swap2\n      pop\n    tag_59:\n      pop\n        /* \"lession7.2-Error/AuctionContract.sol\":2190:2241  (bool success,) = msg.sender.call{value:amount}(\"\") */\n      pop\n      swap1\n      pop\n        /* \"lession7.2-Error/AuctionContract.sol\":2257:2264  success */\n      dup1\n        /* \"lession7.2-Error/AuctionContract.sol\":2252:2468  if (!success) {... */\n      tag_61\n      jumpi\n        /* \"lession7.2-Error/AuctionContract.sol\":2361:2367  amount */\n      dup2\n        /* \"lession7.2-Error/AuctionContract.sol\":2331:2346  penddingReturns */\n      0x04\n        /* \"lession7.2-Error/AuctionContract.sol\":2331:2358  penddingReturns[msg.sender] */\n      0x00\n        /* \"lession7.2-Error/AuctionContract.sol\":2347:2357  msg.sender */\n      caller\n        /* \"lession7.2-Error/AuctionContract.sol\":2331:2358  penddingReturns[msg.sender] */\n      0xffffffffffffffffffffffffffffffffffffffff\n      and\n      0xffffffffffffffffffffffffffffffffffffffff\n      and\n      dup2\n      mstore\n      0x20\n      add\n      swap1\n      dup2\n      mstore\n      0x20\n      add\n      0x00\n      keccak256\n        /* \"lession7.2-Error/AuctionContract.sol\":2331:2367  penddingReturns[msg.sender] = amount */\n      dup2\n      swap1\n      sstore\n      pop\n        /* \"lession7.2-Error/AuctionContract.sol\":2409:2414  false */\n      0x00\n        /* \"lession7.2-Error/AuctionContract.sol\":2382:2394  hasWithdrawn */\n      0x05\n        /* \"lession7.2-Error/AuctionContract.sol\":2382:2406  hasWithdrawn[msg.sender] */\n      0x00\n        /* \"lession7.2-Error/AuctionContract.sol\":2395:2405  msg.sender */\n      caller\n        /* \"lession7.2-Error/AuctionContract.sol\":2382:2406  hasWithdrawn[msg.sender] */\n      0xffffffffffffffffffffffffffffffffffffffff\n      and\n      0xffffffffffffffffffffffffffffffffffffffff\n      and\n      dup2\n      mstore\n      0x20\n      add\n      swap1\n      dup2\n      mstore\n      0x20\n      add\n      0x00\n      keccak256\n      0x00\n        /* \"lession7.2-Error/AuctionContract.sol\":2382:2414  hasWithdrawn[msg.sender] = false */\n      0x0100\n      exp\n      dup2\n      sload\n      dup2\n      0xff\n      mul\n      not\n      and\n      swap1\n      dup4\n      iszero\n      iszero\n      mul\n      or\n      swap1\n      sstore\n      pop\n        /* \"lession7.2-Error/AuctionContract.sol\":2438:2456  WithdrawalFailed() */\n      mload(0x40)\n      0x27fcd9d100000000000000000000000000000000000000000000000000000000\n      dup2\n      mstore\n      0x04\n      add\n      mload(0x40)\n      dup1\n      swap2\n      sub\n      swap1\n      revert\n        /* \"lession7.2-Error/AuctionContract.sol\":2252:2468  if (!success) {... */\n    tag_61:\n        /* \"lession7.2-Error/AuctionContract.sol\":2494:2504  msg.sender */\n      caller\n        /* \"lession7.2-Error/AuctionContract.sol\":2483:2513  Withdrawal(msg.sender, amount) */\n      0xffffffffffffffffffffffffffffffffffffffff\n      and\n      0x7fcf532c15f0a6db0bd6d0e038bea71d30d808c7d98cb3bf7268a95bf5081b65\n        /* \"lession7.2-Error/AuctionContract.sol\":2506:2512  amount */\n      dup4\n        /* \"lession7.2-Error/AuctionContract.sol\":2483:2513  Withdrawal(msg.sender, amount) */\n      mload(0x40)\n      tag_62\n      swap2\n      swap1\n      tag_23\n      jump\t// in\n    tag_62:\n      mload(0x40)\n      dup1\n      swap2\n      sub\n      swap1\n      log2\n        /* \"lession7.2-Error/AuctionContract.sol\":2531:2535  true */\n      0x01\n        /* \"lession7.2-Error/AuctionContract.sol\":2524:2535  return true */\n      swap3\n      pop\n      pop\n      pop\n        /* \"lession7.2-Error/AuctionContract.sol\":1697:2543  function withDraw() public returns (bool) {... */\n      swap1\n      jump\t// out\n        /* \"lession7.2-Error/AuctionContract.sol\":873:1634  function bid() public payable {... */\n    tag_18:\n        /* \"lession7.2-Error/AuctionContract.sol\":979:989  auctionEnd */\n      sload(0x01)\n        /* \"lession7.2-Error/AuctionContract.sol\":961:976  block.timestamp */\n      timestamp\n        /* \"lession7.2-Error/AuctionContract.sol\":961:989  block.timestamp > auctionEnd */\n      gt\n        /* \"lession7.2-Error/AuctionContract.sol\":957:1044  if (block.timestamp > auctionEnd) {... */\n      iszero\n      tag_64\n      jumpi\n        /* \"lession7.2-Error/AuctionContract.sol\":1013:1032  AuctionEndedError() */\n      mload(0x40)\n      0x967574c100000000000000000000000000000000000000000000000000000000\n      dup2\n      mstore\n      0x04\n      add\n      mload(0x40)\n      dup1\n      swap2\n      sub\n      swap1\n      revert\n        /* \"lession7.2-Error/AuctionContract.sol\":957:1044  if (block.timestamp > auctionEnd) {... */\n    tag_64:\n        /* \"lession7.2-Error/AuctionContract.sol\":1123:1133  highestBid */\n      sload(0x02)\n        /* \"lession7.2-Error/AuctionContract.sol\":1110:1119  msg.value */\n      callvalue\n        /* \"lession7.2-Error/AuctionContract.sol\":1110:1133  msg.value <= highestBid */\n      gt\n        /* \"lession7.2-Error/AuctionContract.sol\":1106:1200  if (msg.value <= highestBid) {... */\n      tag_65\n      jumpi\n        /* \"lession7.2-Error/AuctionContract.sol\":1167:1177  highestBid */\n      sload(0x02)\n        /* \"lession7.2-Error/AuctionContract.sol\":1178:1187  msg.value */\n      callvalue\n        /* \"lession7.2-Error/AuctionContract.sol\":1157:1188  BidTooLow(highestBid,msg.value) */\n      mload(0x40)\n      0xf0defc6100000000000000000000000000000000000000000000000000000000\n      dup2\n      mstore\n      0x04\n      add\n      tag_66\n      swap3\n      swap2\n      swap1\n      tag_67\n      jump\t// in\n    tag_66:\n      mload(0x40)\n      dup1\n      swap2\n      sub\n      swap1\n      revert\n        /* \"lession7.2-Error/AuctionContract.sol\":1106:1200  if (msg.value <= highestBid) {... */\n    tag_65:\n        /* \"lession7.2-Error/AuctionContract.sol\":1279:1294  block.timestamp */\n      timestamp\n        /* \"lession7.2-Error/AuctionContract.sol\":1266:1276  auctionEnd */\n      sload(0x01)\n        /* \"lession7.2-Error/AuctionContract.sol\":1266:1294  auctionEnd > block.timestamp */\n      gt\n        /* \"lession7.2-Error/AuctionContract.sol\":1259:1295  assert(auctionEnd > block.timestamp) */\n      tag_68\n      jumpi\n      tag_69\n      tag_70\n      jump\t// in\n    tag_69:\n    tag_68:\n        /* \"lession7.2-Error/AuctionContract.sol\":1401:1402  0 */\n      0x00\n        /* \"lession7.2-Error/AuctionContract.sol\":1376:1403  highestBidder != address(0) */\n      0xffffffffffffffffffffffffffffffffffffffff\n      and\n        /* \"lession7.2-Error/AuctionContract.sol\":1376:1389  highestBidder */\n      0x03\n      0x00\n      swap1\n      sload\n      swap1\n      0x0100\n      exp\n      swap1\n      div\n      0xffffffffffffffffffffffffffffffffffffffff\n      and\n        /* \"lession7.2-Error/AuctionContract.sol\":1376:1403  highestBidder != address(0) */\n      0xffffffffffffffffffffffffffffffffffffffff\n      and\n      eq\n        /* \"lession7.2-Error/AuctionContract.sol\":1372:1476  if (highestBidder != address(0)) {... */\n      tag_71\n      jumpi\n        /* \"lession7.2-Error/AuctionContract.sol\":1454:1464  highestBid */\n      sload(0x02)\n        /* \"lession7.2-Error/AuctionContract.sol\":1420:1435  penddingReturns */\n      0x04\n        /* \"lession7.2-Error/AuctionContract.sol\":1420:1450  penddingReturns[highestBidder] */\n      0x00\n        /* \"lession7.2-Error/AuctionContract.sol\":1436:1449  highestBidder */\n      0x03\n      0x00\n      swap1\n      sload\n      swap1\n      0x0100\n      exp\n      swap1\n      div\n      0xffffffffffffffffffffffffffffffffffffffff\n      and\n        /* \"lession7.2-Error/AuctionContract.sol\":1420:1450  penddingReturns[highestBidder] */\n      0xffffffffffffffffffffffffffffffffffffffff\n      and\n      0xffffffffffffffffffffffffffffffffffffffff\n      and\n      dup2\n      mstore\n      0x20\n      add\n      swap1\n      dup2\n      mstore\n      0x20\n      add\n      0x00\n      keccak256\n      0x00\n        /* \"lession7.2-Error/AuctionContract.sol\":1420:1464  penddingReturns[highestBidder] += highestBid */\n      dup3\n      dup3\n      sload\n      tag_72\n      swap2\n      swap1\n      tag_73\n      jump\t// in\n    tag_72:\n      swap3\n      pop\n      pop\n      dup2\n      swap1\n      sstore\n      pop\n        /* \"lession7.2-Error/AuctionContract.sol\":1372:1476  if (highestBidder != address(0)) {... */\n    tag_71:\n        /* \"lession7.2-Error/AuctionContract.sol\":1535:1545  msg.sender */\n      caller\n        /* \"lession7.2-Error/AuctionContract.sol\":1519:1532  highestBidder */\n      0x03\n      0x00\n        /* \"lession7.2-Error/AuctionContract.sol\":1519:1545  highestBidder = msg.sender */\n      0x0100\n      exp\n      dup2\n      sload\n      dup2\n      0xffffffffffffffffffffffffffffffffffffffff\n      mul\n      not\n      and\n      swap1\n      dup4\n      0xffffffffffffffffffffffffffffffffffffffff\n      and\n      mul\n      or\n      swap1\n      sstore\n      pop\n        /* \"lession7.2-Error/AuctionContract.sol\":1569:1578  msg.value */\n      callvalue\n        /* \"lession7.2-Error/AuctionContract.sol\":1556:1566  highestBid */\n      0x02\n        /* \"lession7.2-Error/AuctionContract.sol\":1556:1578  highestBid = msg.value */\n      dup2\n      swap1\n      sstore\n      pop\n        /* \"lession7.2-Error/AuctionContract.sol\":1604:1614  msg.sender */\n      caller\n        /* \"lession7.2-Error/AuctionContract.sol\":1597:1626  NewBid(msg.sender, msg.value) */\n      0xffffffffffffffffffffffffffffffffffffffff\n      and\n      0xdd0b6c6a77960e2066c96171b4d7ac9e8b4c184011f38544afa36a5bb63ec59f\n        /* \"lession7.2-Error/AuctionContract.sol\":1616:1625  msg.value */\n      callvalue\n        /* \"lession7.2-Error/AuctionContract.sol\":1597:1626  NewBid(msg.sender, msg.value) */\n      mload(0x40)\n      tag_74\n      swap2\n      swap1\n      tag_23\n      jump\t// in\n    tag_74:\n      mload(0x40)\n      dup1\n      swap2\n      sub\n      swap1\n      log2\n        /* \"lession7.2-Error/AuctionContract.sol\":873:1634  function bid() public payable {... */\n      jump\t// out\n        /* \"lession7.2-Error/AuctionContract.sol\":138:160  uint public auctionEnd */\n    tag_21:\n      sload(0x01)\n      dup2\n      jump\t// out\n        /* \"lession7.2-Error/AuctionContract.sol\":288:333  mapping (address => bool) public hasWithdrawn */\n    tag_28:\n      mstore(0x20, 0x05)\n      dup1\n      0x00\n      mstore\n      keccak256(0x00, 0x40)\n      0x00\n      swap2\n      pop\n      sload\n      swap1\n      0x0100\n      exp\n      swap1\n      div\n      0xff\n      and\n      dup2\n      jump\t// out\n        /* \"lession7.2-Error/AuctionContract.sol\":111:131  address public owner */\n    tag_32:\n      0x00\n      0x00\n      swap1\n      sload\n      swap1\n      0x0100\n      exp\n      swap1\n      div\n      0xffffffffffffffffffffffffffffffffffffffff\n      and\n      dup2\n      jump\t// out\n        /* \"lession7.2-Error/AuctionContract.sol\":196:224  address public highestBidder */\n    tag_37:\n      0x03\n      0x00\n      swap1\n      sload\n      swap1\n      0x0100\n      exp\n      swap1\n      div\n      0xffffffffffffffffffffffffffffffffffffffff\n      and\n      dup2\n      jump\t// out\n        /* \"lession7.2-Error/AuctionContract.sol\":233:281  mapping (address => uint) public penddingReturns */\n    tag_42:\n      mstore(0x20, 0x04)\n      dup1\n      0x00\n      mstore\n      keccak256(0x00, 0x40)\n      0x00\n      swap2\n      pop\n      swap1\n      pop\n      sload\n      dup2\n      jump\t// out\n        /* \"lession7.2-Error/AuctionContract.sol\":167:189  uint public highestBid */\n    tag_46:\n      sload(0x02)\n      dup2\n      jump\t// out\n        /* \"lession7.2-Error/AuctionContract.sol\":2572:2968  function endAuction() public {... */\n    tag_50:\n        /* \"lession7.2-Error/AuctionContract.sol\":2629:2639  msg.sender */\n      caller\n        /* \"lession7.2-Error/AuctionContract.sol\":2620:2639  owner == msg.sender */\n      0xffffffffffffffffffffffffffffffffffffffff\n      and\n        /* \"lession7.2-Error/AuctionContract.sol\":2620:2625  owner */\n      0x00\n      0x00\n      swap1\n      sload\n      swap1\n      0x0100\n      exp\n      swap1\n      div\n      0xffffffffffffffffffffffffffffffffffffffff\n      and\n        /* \"lession7.2-Error/AuctionContract.sol\":2620:2639  owner == msg.sender */\n      0xffffffffffffffffffffffffffffffffffffffff\n      and\n      eq\n        /* \"lession7.2-Error/AuctionContract.sol\":2612:2663  require(owner == msg.sender, \"Only owner can end!\") */\n      tag_76\n      jumpi\n      mload(0x40)\n      0x08c379a000000000000000000000000000000000000000000000000000000000\n      dup2\n      mstore\n      0x04\n      add\n      tag_77\n      swap1\n      tag_78\n      jump\t// in\n    tag_77:\n      mload(0x40)\n      dup1\n      swap2\n      sub\n      swap1\n      revert\n    tag_76:\n        /* \"lession7.2-Error/AuctionContract.sol\":2698:2708  auctionEnd */\n      sload(0x01)\n        /* \"lession7.2-Error/AuctionContract.sol\":2680:2695  block.timestamp */\n      timestamp\n        /* \"lession7.2-Error/AuctionContract.sol\":2680:2708  block.timestamp < auctionEnd */\n      lt\n        /* \"lession7.2-Error/AuctionContract.sol\":2676:2761  if (block.timestamp < auctionEnd) {... */\n      iszero\n      tag_79\n      jumpi\n        /* \"lession7.2-Error/AuctionContract.sol\":2732:2749  AuctionNotEnded() */\n      mload(0x40)\n      0x6463738900000000000000000000000000000000000000000000000000000000\n      dup2\n      mstore\n      0x04\n      add\n      mload(0x40)\n      dup1\n      swap2\n      sub\n      swap1\n      revert\n        /* \"lession7.2-Error/AuctionContract.sol\":2676:2761  if (block.timestamp < auctionEnd) {... */\n    tag_79:\n        /* \"lession7.2-Error/AuctionContract.sol\":2778:2817  AuctionEnded(highestBidder, highestBid) */\n      0xdaec4582d5d9595688c8c98545fdd1c696d41c6aeaeb636737e84ed2f5c00eda\n        /* \"lession7.2-Error/AuctionContract.sol\":2791:2804  highestBidder */\n      0x03\n      0x00\n      swap1\n      sload\n      swap1\n      0x0100\n      exp\n      swap1\n      div\n      0xffffffffffffffffffffffffffffffffffffffff\n      and\n        /* \"lession7.2-Error/AuctionContract.sol\":2806:2816  highestBid */\n      sload(0x02)\n        /* \"lession7.2-Error/AuctionContract.sol\":2778:2817  AuctionEnded(highestBidder, highestBid) */\n      mload(0x40)\n      tag_80\n      swap3\n      swap2\n      swap1\n      tag_81\n      jump\t// in\n    tag_80:\n      mload(0x40)\n      dup1\n      swap2\n      sub\n      swap1\n      log1\n        /* \"lession7.2-Error/AuctionContract.sol\":2862:2874  bool success */\n      0x00\n        /* \"lession7.2-Error/AuctionContract.sol\":2879:2884  owner */\n      0x00\n      0x00\n      swap1\n      sload\n      swap1\n      0x0100\n      exp\n      swap1\n      div\n      0xffffffffffffffffffffffffffffffffffffffff\n      and\n        /* \"lession7.2-Error/AuctionContract.sol\":2879:2889  owner.call */\n      0xffffffffffffffffffffffffffffffffffffffff\n      and\n        /* \"lession7.2-Error/AuctionContract.sol\":2896:2906  highestBid */\n      sload(0x02)\n        /* \"lession7.2-Error/AuctionContract.sol\":2879:2911  owner.call{value:highestBid}(\"\") */\n      mload(0x40)\n      tag_82\n      swap1\n      tag_57\n      jump\t// in\n    tag_82:\n      0x00\n      mload(0x40)\n      dup1\n      dup4\n      sub\n      dup2\n      dup6\n      dup8\n      gas\n      call\n      swap3\n      pop\n      pop\n      pop\n      returndatasize\n      dup1\n      0x00\n      dup2\n      eq\n      tag_85\n      jumpi\n      mload(0x40)\n      swap2\n      pop\n      and(add(returndatasize, 0x3f), not(0x1f))\n      dup3\n      add\n      0x40\n      mstore\n      returndatasize\n      dup3\n      mstore\n      returndatasize\n      0x00\n      0x20\n      dup5\n      add\n      returndatacopy\n      jump(tag_84)\n    tag_85:\n      0x60\n      swap2\n      pop\n    tag_84:\n      pop\n        /* \"lession7.2-Error/AuctionContract.sol\":2861:2911  (bool success,) = owner.call{value:highestBid}(\"\") */\n      pop\n      swap1\n      pop\n        /* \"lession7.2-Error/AuctionContract.sol\":2930:2937  success */\n      dup1\n        /* \"lession7.2-Error/AuctionContract.sol\":2922:2960  require(success,\"Transaction failed!\") */\n      tag_86\n      jumpi\n      mload(0x40)\n      0x08c379a000000000000000000000000000000000000000000000000000000000\n      dup2\n      mstore\n      0x04\n      add\n      tag_87\n      swap1\n      tag_88\n      jump\t// in\n    tag_87:\n      mload(0x40)\n      dup1\n      swap2\n      sub\n      swap1\n      revert\n    tag_86:\n        /* \"lession7.2-Error/AuctionContract.sol\":2601:2968  {... */\n      pop\n        /* \"lession7.2-Error/AuctionContract.sol\":2572:2968  function endAuction() public {... */\n      jump\t// out\n        /* \"#utility.yul\":7:97   */\n    tag_89:\n        /* \"#utility.yul\":41:48   */\n      0x00\n        /* \"#utility.yul\":84:89   */\n      dup2\n        /* \"#utility.yul\":77:90   */\n      iszero\n        /* \"#utility.yul\":70:91   */\n      iszero\n        /* \"#utility.yul\":59:91   */\n      swap1\n      pop\n        /* \"#utility.yul\":7:97   */\n      swap2\n      swap1\n      pop\n      jump\t// out\n        /* \"#utility.yul\":103:212   */\n    tag_90:\n        /* \"#utility.yul\":184:205   */\n      tag_115\n        /* \"#utility.yul\":199:204   */\n      dup2\n        /* \"#utility.yul\":184:205   */\n      tag_89\n      jump\t// in\n    tag_115:\n        /* \"#utility.yul\":179:182   */\n      dup3\n        /* \"#utility.yul\":172:206   */\n      mstore\n        /* \"#utility.yul\":103:212   */\n      pop\n      pop\n      jump\t// out\n        /* \"#utility.yul\":218:428   */\n    tag_16:\n        /* \"#utility.yul\":305:309   */\n      0x00\n        /* \"#utility.yul\":343:345   */\n      0x20\n        /* \"#utility.yul\":332:341   */\n      dup3\n        /* \"#utility.yul\":328:346   */\n      add\n        /* \"#utility.yul\":320:346   */\n      swap1\n      pop\n        /* \"#utility.yul\":356:421   */\n      tag_117\n        /* \"#utility.yul\":418:419   */\n      0x00\n        /* \"#utility.yul\":407:416   */\n      dup4\n        /* \"#utility.yul\":403:420   */\n      add\n        /* \"#utility.yul\":394:400   */\n      dup5\n        /* \"#utility.yul\":356:421   */\n      tag_90\n      jump\t// in\n    tag_117:\n        /* \"#utility.yul\":218:428   */\n      swap3\n      swap2\n      pop\n      pop\n      jump\t// out\n        /* \"#utility.yul\":434:511   */\n    tag_91:\n        /* \"#utility.yul\":471:478   */\n      0x00\n        /* \"#utility.yul\":500:505   */\n      dup2\n        /* \"#utility.yul\":489:505   */\n      swap1\n      pop\n        /* \"#utility.yul\":434:511   */\n      swap2\n      swap1\n      pop\n      jump\t// out\n        /* \"#utility.yul\":517:635   */\n    tag_92:\n        /* \"#utility.yul\":604:628   */\n      tag_120\n        /* \"#utility.yul\":622:627   */\n      dup2\n        /* \"#utility.yul\":604:628   */\n      tag_91\n      jump\t// in\n    tag_120:\n        /* \"#utility.yul\":599:602   */\n      dup3\n        /* \"#utility.yul\":592:629   */\n      mstore\n        /* \"#utility.yul\":517:635   */\n      pop\n      pop\n      jump\t// out\n        /* \"#utility.yul\":641:863   */\n    tag_23:\n        /* \"#utility.yul\":734:738   */\n      0x00\n        /* \"#utility.yul\":772:774   */\n      0x20\n        /* \"#utility.yul\":761:770   */\n      dup3\n        /* \"#utility.yul\":757:775   */\n      add\n        /* \"#utility.yul\":749:775   */\n      swap1\n      pop\n        /* \"#utility.yul\":785:856   */\n      tag_122\n        /* \"#utility.yul\":853:854   */\n      0x00\n        /* \"#utility.yul\":842:851   */\n      dup4\n        /* \"#utility.yul\":838:855   */\n      add\n        /* \"#utility.yul\":829:835   */\n      dup5\n        /* \"#utility.yul\":785:856   */\n      tag_92\n      jump\t// in\n    tag_122:\n        /* \"#utility.yul\":641:863   */\n      swap3\n      swap2\n      pop\n      pop\n      jump\t// out\n        /* \"#utility.yul\":950:1067   */\n    tag_94:\n        /* \"#utility.yul\":1059:1060   */\n      0x00\n        /* \"#utility.yul\":1056:1057   */\n      0x00\n        /* \"#utility.yul\":1049:1061   */\n      revert\n        /* \"#utility.yul\":1196:1322   */\n    tag_96:\n        /* \"#utility.yul\":1233:1240   */\n      0x00\n        /* \"#utility.yul\":1273:1315   */\n      0xffffffffffffffffffffffffffffffffffffffff\n        /* \"#utility.yul\":1266:1271   */\n      dup3\n        /* \"#utility.yul\":1262:1316   */\n      and\n        /* \"#utility.yul\":1251:1316   */\n      swap1\n      pop\n        /* \"#utility.yul\":1196:1322   */\n      swap2\n      swap1\n      pop\n      jump\t// out\n        /* \"#utility.yul\":1328:1424   */\n    tag_97:\n        /* \"#utility.yul\":1365:1372   */\n      0x00\n        /* \"#utility.yul\":1394:1418   */\n      tag_128\n        /* \"#utility.yul\":1412:1417   */\n      dup3\n        /* \"#utility.yul\":1394:1418   */\n      tag_96\n      jump\t// in\n    tag_128:\n        /* \"#utility.yul\":1383:1418   */\n      swap1\n      pop\n        /* \"#utility.yul\":1328:1424   */\n      swap2\n      swap1\n      pop\n      jump\t// out\n        /* \"#utility.yul\":1430:1552   */\n    tag_98:\n        /* \"#utility.yul\":1503:1527   */\n      tag_130\n        /* \"#utility.yul\":1521:1526   */\n      dup2\n        /* \"#utility.yul\":1503:1527   */\n      tag_97\n      jump\t// in\n    tag_130:\n        /* \"#utility.yul\":1496:1501   */\n      dup2\n        /* \"#utility.yul\":1493:1528   */\n      eq\n        /* \"#utility.yul\":1483:1546   */\n      tag_131\n      jumpi\n        /* \"#utility.yul\":1542:1543   */\n      0x00\n        /* \"#utility.yul\":1539:1540   */\n      0x00\n        /* \"#utility.yul\":1532:1544   */\n      revert\n        /* \"#utility.yul\":1483:1546   */\n    tag_131:\n        /* \"#utility.yul\":1430:1552   */\n      pop\n      jump\t// out\n        /* \"#utility.yul\":1558:1697   */\n    tag_99:\n        /* \"#utility.yul\":1604:1609   */\n      0x00\n        /* \"#utility.yul\":1642:1648   */\n      dup2\n        /* \"#utility.yul\":1629:1649   */\n      calldataload\n        /* \"#utility.yul\":1620:1649   */\n      swap1\n      pop\n        /* \"#utility.yul\":1658:1691   */\n      tag_133\n        /* \"#utility.yul\":1685:1690   */\n      dup2\n        /* \"#utility.yul\":1658:1691   */\n      tag_98\n      jump\t// in\n    tag_133:\n        /* \"#utility.yul\":1558:1697   */\n      swap3\n      swap2\n      pop\n      pop\n      jump\t// out\n        /* \"#utility.yul\":1703:2032   */\n    tag_27:\n        /* \"#utility.yul\":1762:1768   */\n      0x00\n        /* \"#utility.yul\":1811:1813   */\n      0x20\n        /* \"#utility.yul\":1799:1808   */\n      dup3\n        /* \"#utility.yul\":1790:1797   */\n      dup5\n        /* \"#utility.yul\":1786:1809   */\n      sub\n        /* \"#utility.yul\":1782:1814   */\n      slt\n        /* \"#utility.yul\":1779:1898   */\n      iszero\n      tag_135\n      jumpi\n        /* \"#utility.yul\":1817:1896   */\n      tag_136\n      tag_94\n      jump\t// in\n    tag_136:\n        /* \"#utility.yul\":1779:1898   */\n    tag_135:\n        /* \"#utility.yul\":1937:1938   */\n      0x00\n        /* \"#utility.yul\":1962:2015   */\n      tag_137\n        /* \"#utility.yul\":2007:2014   */\n      dup5\n        /* \"#utility.yul\":1998:2004   */\n      dup3\n        /* \"#utility.yul\":1987:1996   */\n      dup6\n        /* \"#utility.yul\":1983:2005   */\n      add\n        /* \"#utility.yul\":1962:2015   */\n      tag_99\n      jump\t// in\n    tag_137:\n        /* \"#utility.yul\":1952:2015   */\n      swap2\n      pop\n        /* \"#utility.yul\":1908:2025   */\n      pop\n        /* \"#utility.yul\":1703:2032   */\n      swap3\n      swap2\n      pop\n      pop\n      jump\t// out\n        /* \"#utility.yul\":2038:2156   */\n    tag_100:\n        /* \"#utility.yul\":2125:2149   */\n      tag_139\n        /* \"#utility.yul\":2143:2148   */\n      dup2\n        /* \"#utility.yul\":2125:2149   */\n      tag_97\n      jump\t// in\n    tag_139:\n        /* \"#utility.yul\":2120:2123   */\n      dup3\n        /* \"#utility.yul\":2113:2150   */\n      mstore\n        /* \"#utility.yul\":2038:2156   */\n      pop\n      pop\n      jump\t// out\n        /* \"#utility.yul\":2162:2384   */\n    tag_34:\n        /* \"#utility.yul\":2255:2259   */\n      0x00\n        /* \"#utility.yul\":2293:2295   */\n      0x20\n        /* \"#utility.yul\":2282:2291   */\n      dup3\n        /* \"#utility.yul\":2278:2296   */\n      add\n        /* \"#utility.yul\":2270:2296   */\n      swap1\n      pop\n        /* \"#utility.yul\":2306:2377   */\n      tag_141\n        /* \"#utility.yul\":2374:2375   */\n      0x00\n        /* \"#utility.yul\":2363:2372   */\n      dup4\n        /* \"#utility.yul\":2359:2376   */\n      add\n        /* \"#utility.yul\":2350:2356   */\n      dup5\n        /* \"#utility.yul\":2306:2377   */\n      tag_100\n      jump\t// in\n    tag_141:\n        /* \"#utility.yul\":2162:2384   */\n      swap3\n      swap2\n      pop\n      pop\n      jump\t// out\n        /* \"#utility.yul\":2390:2559   */\n    tag_101:\n        /* \"#utility.yul\":2474:2485   */\n      0x00\n        /* \"#utility.yul\":2508:2514   */\n      dup3\n        /* \"#utility.yul\":2503:2506   */\n      dup3\n        /* \"#utility.yul\":2496:2515   */\n      mstore\n        /* \"#utility.yul\":2548:2552   */\n      0x20\n        /* \"#utility.yul\":2543:2546   */\n      dup3\n        /* \"#utility.yul\":2539:2553   */\n      add\n        /* \"#utility.yul\":2524:2553   */\n      swap1\n      pop\n        /* \"#utility.yul\":2390:2559   */\n      swap3\n      swap2\n      pop\n      pop\n      jump\t// out\n        /* \"#utility.yul\":2565:2726   */\n    tag_102:\n        /* \"#utility.yul\":2705:2718   */\n      0x4e6f2072657475726e7321000000000000000000000000000000000000000000\n        /* \"#utility.yul\":2701:2702   */\n      0x00\n        /* \"#utility.yul\":2693:2699   */\n      dup3\n        /* \"#utility.yul\":2689:2703   */\n      add\n        /* \"#utility.yul\":2682:2719   */\n      mstore\n        /* \"#utility.yul\":2565:2726   */\n      pop\n      jump\t// out\n        /* \"#utility.yul\":2732:3098   */\n    tag_103:\n        /* \"#utility.yul\":2874:2877   */\n      0x00\n        /* \"#utility.yul\":2895:2962   */\n      tag_145\n        /* \"#utility.yul\":2959:2961   */\n      0x0b\n        /* \"#utility.yul\":2954:2957   */\n      dup4\n        /* \"#utility.yul\":2895:2962   */\n      tag_101\n      jump\t// in\n    tag_145:\n        /* \"#utility.yul\":2888:2962   */\n      swap2\n      pop\n        /* \"#utility.yul\":2971:3064   */\n      tag_146\n        /* \"#utility.yul\":3060:3063   */\n      dup3\n        /* \"#utility.yul\":2971:3064   */\n      tag_102\n      jump\t// in\n    tag_146:\n        /* \"#utility.yul\":3089:3091   */\n      0x20\n        /* \"#utility.yul\":3084:3087   */\n      dup3\n        /* \"#utility.yul\":3080:3092   */\n      add\n        /* \"#utility.yul\":3073:3092   */\n      swap1\n      pop\n        /* \"#utility.yul\":2732:3098   */\n      swap2\n      swap1\n      pop\n      jump\t// out\n        /* \"#utility.yul\":3104:3523   */\n    tag_54:\n        /* \"#utility.yul\":3270:3274   */\n      0x00\n        /* \"#utility.yul\":3308:3310   */\n      0x20\n        /* \"#utility.yul\":3297:3306   */\n      dup3\n        /* \"#utility.yul\":3293:3311   */\n      add\n        /* \"#utility.yul\":3285:3311   */\n      swap1\n      pop\n        /* \"#utility.yul\":3357:3366   */\n      dup2\n        /* \"#utility.yul\":3351:3355   */\n      dup2\n        /* \"#utility.yul\":3347:3367   */\n      sub\n        /* \"#utility.yul\":3343:3344   */\n      0x00\n        /* \"#utility.yul\":3332:3341   */\n      dup4\n        /* \"#utility.yul\":3328:3345   */\n      add\n        /* \"#utility.yul\":3321:3368   */\n      mstore\n        /* \"#utility.yul\":3385:3516   */\n      tag_148\n        /* \"#utility.yul\":3511:3515   */\n      dup2\n        /* \"#utility.yul\":3385:3516   */\n      tag_103\n      jump\t// in\n    tag_148:\n        /* \"#utility.yul\":3377:3516   */\n      swap1\n      pop\n        /* \"#utility.yul\":3104:3523   */\n      swap2\n      swap1\n      pop\n      jump\t// out\n        /* \"#utility.yul\":3529:3676   */\n    tag_104:\n        /* \"#utility.yul\":3630:3641   */\n      0x00\n        /* \"#utility.yul\":3667:3670   */\n      dup2\n        /* \"#utility.yul\":3652:3670   */\n      swap1\n      pop\n        /* \"#utility.yul\":3529:3676   */\n      swap3\n      swap2\n      pop\n      pop\n      jump\t// out\n        /* \"#utility.yul\":3682:3796   */\n    tag_105:\n      pop\n      jump\t// out\n        /* \"#utility.yul\":3802:4200   */\n    tag_106:\n        /* \"#utility.yul\":3961:3964   */\n      0x00\n        /* \"#utility.yul\":3982:4065   */\n      tag_152\n        /* \"#utility.yul\":4063:4064   */\n      0x00\n        /* \"#utility.yul\":4058:4061   */\n      dup4\n        /* \"#utility.yul\":3982:4065   */\n      tag_104\n      jump\t// in\n    tag_152:\n        /* \"#utility.yul\":3975:4065   */\n      swap2\n      pop\n        /* \"#utility.yul\":4074:4167   */\n      tag_153\n        /* \"#utility.yul\":4163:4166   */\n      dup3\n        /* \"#utility.yul\":4074:4167   */\n      tag_105\n      jump\t// in\n    tag_153:\n        /* \"#utility.yul\":4192:4193   */\n      0x00\n        /* \"#utility.yul\":4187:4190   */\n      dup3\n        /* \"#utility.yul\":4183:4194   */\n      add\n        /* \"#utility.yul\":4176:4194   */\n      swap1\n      pop\n        /* \"#utility.yul\":3802:4200   */\n      swap2\n      swap1\n      pop\n      jump\t// out\n        /* \"#utility.yul\":4206:4585   */\n    tag_57:\n        /* \"#utility.yul\":4390:4393   */\n      0x00\n        /* \"#utility.yul\":4412:4559   */\n      tag_155\n        /* \"#utility.yul\":4555:4558   */\n      dup3\n        /* \"#utility.yul\":4412:4559   */\n      tag_106\n      jump\t// in\n    tag_155:\n        /* \"#utility.yul\":4405:4559   */\n      swap2\n      pop\n        /* \"#utility.yul\":4576:4579   */\n      dup2\n        /* \"#utility.yul\":4569:4579   */\n      swap1\n      pop\n        /* \"#utility.yul\":4206:4585   */\n      swap2\n      swap1\n      pop\n      jump\t// out\n        /* \"#utility.yul\":4591:4923   */\n    tag_67:\n        /* \"#utility.yul\":4712:4716   */\n      0x00\n        /* \"#utility.yul\":4750:4752   */\n      0x40\n        /* \"#utility.yul\":4739:4748   */\n      dup3\n        /* \"#utility.yul\":4735:4753   */\n      add\n        /* \"#utility.yul\":4727:4753   */\n      swap1\n      pop\n        /* \"#utility.yul\":4763:4834   */\n      tag_157\n        /* \"#utility.yul\":4831:4832   */\n      0x00\n        /* \"#utility.yul\":4820:4829   */\n      dup4\n        /* \"#utility.yul\":4816:4833   */\n      add\n        /* \"#utility.yul\":4807:4813   */\n      dup6\n        /* \"#utility.yul\":4763:4834   */\n      tag_92\n      jump\t// in\n    tag_157:\n        /* \"#utility.yul\":4844:4916   */\n      tag_158\n        /* \"#utility.yul\":4912:4914   */\n      0x20\n        /* \"#utility.yul\":4901:4910   */\n      dup4\n        /* \"#utility.yul\":4897:4915   */\n      add\n        /* \"#utility.yul\":4888:4894   */\n      dup5\n        /* \"#utility.yul\":4844:4916   */\n      tag_92\n      jump\t// in\n    tag_158:\n        /* \"#utility.yul\":4591:4923   */\n      swap4\n      swap3\n      pop\n      pop\n      pop\n      jump\t// out\n        /* \"#utility.yul\":4929:5109   */\n    tag_70:\n        /* \"#utility.yul\":4977:5054   */\n      0x4e487b7100000000000000000000000000000000000000000000000000000000\n        /* \"#utility.yul\":4974:4975   */\n      0x00\n        /* \"#utility.yul\":4967:5055   */\n      mstore\n        /* \"#utility.yul\":5074:5078   */\n      0x01\n        /* \"#utility.yul\":5071:5072   */\n      0x04\n        /* \"#utility.yul\":5064:5079   */\n      mstore\n        /* \"#utility.yul\":5098:5102   */\n      0x24\n        /* \"#utility.yul\":5095:5096   */\n      0x00\n        /* \"#utility.yul\":5088:5103   */\n      revert\n        /* \"#utility.yul\":5115:5295   */\n    tag_107:\n        /* \"#utility.yul\":5163:5240   */\n      0x4e487b7100000000000000000000000000000000000000000000000000000000\n        /* \"#utility.yul\":5160:5161   */\n      0x00\n        /* \"#utility.yul\":5153:5241   */\n      mstore\n        /* \"#utility.yul\":5260:5264   */\n      0x11\n        /* \"#utility.yul\":5257:5258   */\n      0x04\n        /* \"#utility.yul\":5250:5265   */\n      mstore\n        /* \"#utility.yul\":5284:5288   */\n      0x24\n        /* \"#utility.yul\":5281:5282   */\n      0x00\n        /* \"#utility.yul\":5274:5289   */\n      revert\n        /* \"#utility.yul\":5301:5492   */\n    tag_73:\n        /* \"#utility.yul\":5341:5344   */\n      0x00\n        /* \"#utility.yul\":5360:5380   */\n      tag_162\n        /* \"#utility.yul\":5378:5379   */\n      dup3\n        /* \"#utility.yul\":5360:5380   */\n      tag_91\n      jump\t// in\n    tag_162:\n        /* \"#utility.yul\":5355:5380   */\n      swap2\n      pop\n        /* \"#utility.yul\":5394:5414   */\n      tag_163\n        /* \"#utility.yul\":5412:5413   */\n      dup4\n        /* \"#utility.yul\":5394:5414   */\n      tag_91\n      jump\t// in\n    tag_163:\n        /* \"#utility.yul\":5389:5414   */\n      swap3\n      pop\n        /* \"#utility.yul\":5437:5438   */\n      dup3\n        /* \"#utility.yul\":5434:5435   */\n      dup3\n        /* \"#utility.yul\":5430:5439   */\n      add\n        /* \"#utility.yul\":5423:5439   */\n      swap1\n      pop\n        /* \"#utility.yul\":5458:5461   */\n      dup1\n        /* \"#utility.yul\":5455:5456   */\n      dup3\n        /* \"#utility.yul\":5452:5462   */\n      gt\n        /* \"#utility.yul\":5449:5485   */\n      iszero\n      tag_164\n      jumpi\n        /* \"#utility.yul\":5465:5483   */\n      tag_165\n      tag_107\n      jump\t// in\n    tag_165:\n        /* \"#utility.yul\":5449:5485   */\n    tag_164:\n        /* \"#utility.yul\":5301:5492   */\n      swap3\n      swap2\n      pop\n      pop\n      jump\t// out\n        /* \"#utility.yul\":5498:5667   */\n    tag_108:\n        /* \"#utility.yul\":5638:5659   */\n      0x4f6e6c79206f776e65722063616e20656e642100000000000000000000000000\n        /* \"#utility.yul\":5634:5635   */\n      0x00\n        /* \"#utility.yul\":5626:5632   */\n      dup3\n        /* \"#utility.yul\":5622:5636   */\n      add\n        /* \"#utility.yul\":5615:5660   */\n      mstore\n        /* \"#utility.yul\":5498:5667   */\n      pop\n      jump\t// out\n        /* \"#utility.yul\":5673:6039   */\n    tag_109:\n        /* \"#utility.yul\":5815:5818   */\n      0x00\n        /* \"#utility.yul\":5836:5903   */\n      tag_168\n        /* \"#utility.yul\":5900:5902   */\n      0x13\n        /* \"#utility.yul\":5895:5898   */\n      dup4\n        /* \"#utility.yul\":5836:5903   */\n      tag_101\n      jump\t// in\n    tag_168:\n        /* \"#utility.yul\":5829:5903   */\n      swap2\n      pop\n        /* \"#utility.yul\":5912:6005   */\n      tag_169\n        /* \"#utility.yul\":6001:6004   */\n      dup3\n        /* \"#utility.yul\":5912:6005   */\n      tag_108\n      jump\t// in\n    tag_169:\n        /* \"#utility.yul\":6030:6032   */\n      0x20\n        /* \"#utility.yul\":6025:6028   */\n      dup3\n        /* \"#utility.yul\":6021:6033   */\n      add\n        /* \"#utility.yul\":6014:6033   */\n      swap1\n      pop\n        /* \"#utility.yul\":5673:6039   */\n      swap2\n      swap1\n      pop\n      jump\t// out\n        /* \"#utility.yul\":6045:6464   */\n    tag_78:\n        /* \"#utility.yul\":6211:6215   */\n      0x00\n        /* \"#utility.yul\":6249:6251   */\n      0x20\n        /* \"#utility.yul\":6238:6247   */\n      dup3\n        /* \"#utility.yul\":6234:6252   */\n      add\n        /* \"#utility.yul\":6226:6252   */\n      swap1\n      pop\n        /* \"#utility.yul\":6298:6307   */\n      dup2\n        /* \"#utility.yul\":6292:6296   */\n      dup2\n        /* \"#utility.yul\":6288:6308   */\n      sub\n        /* \"#utility.yul\":6284:6285   */\n      0x00\n        /* \"#utility.yul\":6273:6282   */\n      dup4\n        /* \"#utility.yul\":6269:6286   */\n      add\n        /* \"#utility.yul\":6262:6309   */\n      mstore\n        /* \"#utility.yul\":6326:6457   */\n      tag_171\n        /* \"#utility.yul\":6452:6456   */\n      dup2\n        /* \"#utility.yul\":6326:6457   */\n      tag_109\n      jump\t// in\n    tag_171:\n        /* \"#utility.yul\":6318:6457   */\n      swap1\n      pop\n        /* \"#utility.yul\":6045:6464   */\n      swap2\n      swap1\n      pop\n      jump\t// out\n        /* \"#utility.yul\":6470:6802   */\n    tag_81:\n        /* \"#utility.yul\":6591:6595   */\n      0x00\n        /* \"#utility.yul\":6629:6631   */\n      0x40\n        /* \"#utility.yul\":6618:6627   */\n      dup3\n        /* \"#utility.yul\":6614:6632   */\n      add\n        /* \"#utility.yul\":6606:6632   */\n      swap1\n      pop\n        /* \"#utility.yul\":6642:6713   */\n      tag_173\n        /* \"#utility.yul\":6710:6711   */\n      0x00\n        /* \"#utility.yul\":6699:6708   */\n      dup4\n        /* \"#utility.yul\":6695:6712   */\n      add\n        /* \"#utility.yul\":6686:6692   */\n      dup6\n        /* \"#utility.yul\":6642:6713   */\n      tag_100\n      jump\t// in\n    tag_173:\n        /* \"#utility.yul\":6723:6795   */\n      tag_174\n        /* \"#utility.yul\":6791:6793   */\n      0x20\n        /* \"#utility.yul\":6780:6789   */\n      dup4\n        /* \"#utility.yul\":6776:6794   */\n      add\n        /* \"#utility.yul\":6767:6773   */\n      dup5\n        /* \"#utility.yul\":6723:6795   */\n      tag_92\n      jump\t// in\n    tag_174:\n        /* \"#utility.yul\":6470:6802   */\n      swap4\n      swap3\n      pop\n      pop\n      pop\n      jump\t// out\n        /* \"#utility.yul\":6808:6977   */\n    tag_110:\n        /* \"#utility.yul\":6948:6969   */\n      0x5472616e73616374696f6e206661696c65642100000000000000000000000000\n        /* \"#utility.yul\":6944:6945   */\n      0x00\n        /* \"#utility.yul\":6936:6942   */\n      dup3\n        /* \"#utility.yul\":6932:6946   */\n      add\n        /* \"#utility.yul\":6925:6970   */\n      mstore\n        /* \"#utility.yul\":6808:6977   */\n      pop\n      jump\t// out\n        /* \"#utility.yul\":6983:7349   */\n    tag_111:\n        /* \"#utility.yul\":7125:7128   */\n      0x00\n        /* \"#utility.yul\":7146:7213   */\n      tag_177\n        /* \"#utility.yul\":7210:7212   */\n      0x13\n        /* \"#utility.yul\":7205:7208   */\n      dup4\n        /* \"#utility.yul\":7146:7213   */\n      tag_101\n      jump\t// in\n    tag_177:\n        /* \"#utility.yul\":7139:7213   */\n      swap2\n      pop\n        /* \"#utility.yul\":7222:7315   */\n      tag_178\n        /* \"#utility.yul\":7311:7314   */\n      dup3\n        /* \"#utility.yul\":7222:7315   */\n      tag_110\n      jump\t// in\n    tag_178:\n        /* \"#utility.yul\":7340:7342   */\n      0x20\n        /* \"#utility.yul\":7335:7338   */\n      dup3\n        /* \"#utility.yul\":7331:7343   */\n      add\n        /* \"#utility.yul\":7324:7343   */\n      swap1\n      pop\n        /* \"#utility.yul\":6983:7349   */\n      swap2\n      swap1\n      pop\n      jump\t// out\n        /* \"#utility.yul\":7355:7774   */\n    tag_88:\n        /* \"#utility.yul\":7521:7525   */\n      0x00\n        /* \"#utility.yul\":7559:7561   */\n      0x20\n        /* \"#utility.yul\":7548:7557   */\n      dup3\n        /* \"#utility.yul\":7544:7562   */\n      add\n        /* \"#utility.yul\":7536:7562   */\n      swap1\n      pop\n        /* \"#utility.yul\":7608:7617   */\n      dup2\n        /* \"#utility.yul\":7602:7606   */\n      dup2\n        /* \"#utility.yul\":7598:7618   */\n      sub\n        /* \"#utility.yul\":7594:7595   */\n      0x00\n        /* \"#utility.yul\":7583:7592   */\n      dup4\n        /* \"#utility.yul\":7579:7596   */\n      add\n        /* \"#utility.yul\":7572:7619   */\n      mstore\n        /* \"#utility.yul\":7636:7767   */\n      tag_180\n        /* \"#utility.yul\":7762:7766   */\n      dup2\n        /* \"#utility.yul\":7636:7767   */\n      tag_111\n      jump\t// in\n    tag_180:\n        /* \"#utility.yul\":7628:7767   */\n      swap1\n      pop\n        /* \"#utility.yul\":7355:7774   */\n      swap2\n      swap1\n      pop\n      jump\t// out\n\n    auxdata: 0xa26469706673582212200f7828c7d417da83bae4249d623c155130c573ae171c76fdb1d90a942d8949ca64736f6c63430008220033\n}\n",
				"bytecode": {
					"linkReferences": {},
					"object": "608060405234801561000f575f5ffd5b50604051610ee4380380610ee4833981810160405281019061003191906100cd565b335f5f6101000a81548173ffffffffffffffffffffffffffffffffffffffff021916908373ffffffffffffffffffffffffffffffffffffffff160217905550620151808161007f9190610125565b4261008a9190610166565b60018190555050610199565b5f5ffd5b5f819050919050565b6100ac8161009a565b81146100b6575f5ffd5b50565b5f815190506100c7816100a3565b92915050565b5f602082840312156100e2576100e1610096565b5b5f6100ef848285016100b9565b91505092915050565b7f4e487b71000000000000000000000000000000000000000000000000000000005f52601160045260245ffd5b5f61012f8261009a565b915061013a8361009a565b92508282026101488161009a565b9150828204841483151761015f5761015e6100f8565b5b5092915050565b5f6101708261009a565b915061017b8361009a565b9250828201905080821115610193576101926100f8565b5b92915050565b610d3e806101a65f395ff3fe608060405260043610610085575f3560e01c80638da5cb5b116100585780638da5cb5b1461012357806391f901571461014d578063c18a6b8b14610177578063d57bde79146101b3578063fe67a54b146101dd57610085565b80630fdb1c10146100895780631998aeef146100b35780632a24f46c146100bd5780635e2c19db146100e7575b5f5ffd5b348015610094575f5ffd5b5061009d6101f3565b6040516100aa91906109a9565b60405180910390f35b6100bb61051b565b005b3480156100c8575f5ffd5b506100d1610715565b6040516100de91906109da565b60405180910390f35b3480156100f2575f5ffd5b5061010d60048036038101906101089190610a51565b61071b565b60405161011a91906109a9565b60405180910390f35b34801561012e575f5ffd5b50610137610738565b6040516101449190610a8b565b60405180910390f35b348015610158575f5ffd5b5061016161075c565b60405161016e9190610a8b565b60405180910390f35b348015610182575f5ffd5b5061019d60048036038101906101989190610a51565b610781565b6040516101aa91906109da565b60405180910390f35b3480156101be575f5ffd5b506101c7610796565b6040516101d491906109da565b60405180910390f35b3480156101e8575f5ffd5b506101f161079c565b005b5f5f60045f3373ffffffffffffffffffffffffffffffffffffffff1673ffffffffffffffffffffffffffffffffffffffff1681526020019081526020015f205490505f8111610277576040517f08c379a000000000000000000000000000000000000000000000000000000000815260040161026e90610afe565b60405180910390fd5b60055f3373ffffffffffffffffffffffffffffffffffffffff1673ffffffffffffffffffffffffffffffffffffffff1681526020019081526020015f205f9054906101000a900460ff16156102f8576040517f6507689f00000000000000000000000000000000000000000000000000000000815260040160405180910390fd5b5f60045f3373ffffffffffffffffffffffffffffffffffffffff1673ffffffffffffffffffffffffffffffffffffffff1681526020019081526020015f2081905550600160055f3373ffffffffffffffffffffffffffffffffffffffff1673ffffffffffffffffffffffffffffffffffffffff1681526020019081526020015f205f6101000a81548160ff0219169083151502179055505f3373ffffffffffffffffffffffffffffffffffffffff16826040516103b490610b49565b5f6040518083038185875af1925050503d805f81146103ee576040519150601f19603f3d011682016040523d82523d5f602084013e6103f3565b606091505b50509050806104c4578160045f3373ffffffffffffffffffffffffffffffffffffffff1673ffffffffffffffffffffffffffffffffffffffff1681526020019081526020015f20819055505f60055f3373ffffffffffffffffffffffffffffffffffffffff1673ffffffffffffffffffffffffffffffffffffffff1681526020019081526020015f205f6101000a81548160ff0219169083151502179055506040517f27fcd9d100000000000000000000000000000000000000000000000000000000815260040160405180910390fd5b3373ffffffffffffffffffffffffffffffffffffffff167f7fcf532c15f0a6db0bd6d0e038bea71d30d808c7d98cb3bf7268a95bf5081b658360405161050a91906109da565b60405180910390a260019250505090565b600154421115610557576040517f967574c100000000000000000000000000000000000000000000000000000000815260040160405180910390fd5b60025434116105a157600254346040517ff0defc61000000000000000000000000000000000000000000000000000000008152600401610598929190610b5d565b60405180910390fd5b42600154116105b3576105b2610b84565b5b5f73ffffffffffffffffffffffffffffffffffffffff1660035f9054906101000a900473ffffffffffffffffffffffffffffffffffffffff1673ffffffffffffffffffffffffffffffffffffffff161461067e5760025460045f60035f9054906101000a900473ffffffffffffffffffffffffffffffffffffffff1673ffffffffffffffffffffffffffffffffffffffff1673ffffffffffffffffffffffffffffffffffffffff1681526020019081526020015f205f8282546106769190610bde565b925050819055505b3360035f6101000a81548173ffffffffffffffffffffffffffffffffffffffff021916908373ffffffffffffffffffffffffffffffffffffffff160217905550346002819055503373ffffffffffffffffffffffffffffffffffffffff167fdd0b6c6a77960e2066c96171b4d7ac9e8b4c184011f38544afa36a5bb63ec59f3460405161070b91906109da565b60405180910390a2565b60015481565b6005602052805f5260405f205f915054906101000a900460ff1681565b5f5f9054906101000a900473ffffffffffffffffffffffffffffffffffffffff1681565b60035f9054906101000a900473ffffffffffffffffffffffffffffffffffffffff1681565b6004602052805f5260405f205f915090505481565b60025481565b3373ffffffffffffffffffffffffffffffffffffffff165f5f9054906101000a900473ffffffffffffffffffffffffffffffffffffffff1673ffffffffffffffffffffffffffffffffffffffff161461082a576040517f08c379a000000000000000000000000000000000000000000000000000000000815260040161082190610c5b565b60405180910390fd5b600154421015610866576040517f6463738900000000000000000000000000000000000000000000000000000000815260040160405180910390fd5b7fdaec4582d5d9595688c8c98545fdd1c696d41c6aeaeb636737e84ed2f5c00eda60035f9054906101000a900473ffffffffffffffffffffffffffffffffffffffff166002546040516108ba929190610c79565b60405180910390a15f5f5f9054906101000a900473ffffffffffffffffffffffffffffffffffffffff1673ffffffffffffffffffffffffffffffffffffffff1660025460405161090990610b49565b5f6040518083038185875af1925050503d805f8114610943576040519150601f19603f3d011682016040523d82523d5f602084013e610948565b606091505b505090508061098c576040517f08c379a000000000000000000000000000000000000000000000000000000000815260040161098390610cea565b60405180910390fd5b50565b5f8115159050919050565b6109a38161098f565b82525050565b5f6020820190506109bc5f83018461099a565b92915050565b5f819050919050565b6109d4816109c2565b82525050565b5f6020820190506109ed5f8301846109cb565b92915050565b5f5ffd5b5f73ffffffffffffffffffffffffffffffffffffffff82169050919050565b5f610a20826109f7565b9050919050565b610a3081610a16565b8114610a3a575f5ffd5b50565b5f81359050610a4b81610a27565b92915050565b5f60208284031215610a6657610a656109f3565b5b5f610a7384828501610a3d565b91505092915050565b610a8581610a16565b82525050565b5f602082019050610a9e5f830184610a7c565b92915050565b5f82825260208201905092915050565b7f4e6f2072657475726e73210000000000000000000000000000000000000000005f82015250565b5f610ae8600b83610aa4565b9150610af382610ab4565b602082019050919050565b5f6020820190508181035f830152610b1581610adc565b9050919050565b5f81905092915050565b50565b5f610b345f83610b1c565b9150610b3f82610b26565b5f82019050919050565b5f610b5382610b29565b9150819050919050565b5f604082019050610b705f8301856109cb565b610b7d60208301846109cb565b9392505050565b7f4e487b71000000000000000000000000000000000000000000000000000000005f52600160045260245ffd5b7f4e487b71000000000000000000000000000000000000000000000000000000005f52601160045260245ffd5b5f610be8826109c2565b9150610bf3836109c2565b9250828201905080821115610c0b57610c0a610bb1565b5b92915050565b7f4f6e6c79206f776e65722063616e20656e6421000000000000000000000000005f82015250565b5f610c45601383610aa4565b9150610c5082610c11565b602082019050919050565b5f6020820190508181035f830152610c7281610c39565b9050919050565b5f604082019050610c8c5f830185610a7c565b610c9960208301846109cb565b9392505050565b7f5472616e73616374696f6e206661696c656421000000000000000000000000005f82015250565b5f610cd4601383610aa4565b9150610cdf82610ca0565b602082019050919050565b5f6020820190508181035f830152610d0181610cc8565b905091905056fea26469706673582212200f7828c7d417da83bae4249d623c155130c573ae171c76fdb1d90a942d8949ca64736f6c63430008220033",
					"opcodes": "PUSH1 0x80 PUSH1 0x40 MSTORE CALLVALUE DUP1 ISZERO PUSH2 0xF JUMPI PUSH0 PUSH0 REVERT JUMPDEST POP PUSH1 0x40 MLOAD PUSH2 0xEE4 CODESIZE SUB DUP1 PUSH2 0xEE4 DUP4 CODECOPY DUP2 DUP2 ADD PUSH1 0x40 MSTORE DUP2 ADD SWAP1 PUSH2 0x31 SWAP2 SWAP1 PUSH2 0xCD JUMP JUMPDEST CALLER PUSH0 PUSH0 PUSH2 0x100 EXP DUP2 SLOAD DUP2 PUSH20 0xFFFFFFFFFFFFFFFFFFFFFFFFFFFFFFFFFFFFFFFF MUL NOT AND SWAP1 DUP4 PUSH20 0xFFFFFFFFFFFFFFFFFFFFFFFFFFFFFFFFFFFFFFFF AND MUL OR SWAP1 SSTORE POP PUSH3 0x15180 DUP2 PUSH2 0x7F SWAP2 SWAP1 PUSH2 0x125 JUMP JUMPDEST TIMESTAMP PUSH2 0x8A SWAP2 SWAP1 PUSH2 0x166 JUMP JUMPDEST PUSH1 0x1 DUP2 SWAP1 SSTORE POP POP PUSH2 0x199 JUMP JUMPDEST PUSH0 PUSH0 REVERT JUMPDEST PUSH0 DUP2 SWAP1 POP SWAP2 SWAP1 POP JUMP JUMPDEST PUSH2 0xAC DUP2 PUSH2 0x9A JUMP JUMPDEST DUP2 EQ PUSH2 0xB6 JUMPI PUSH0 PUSH0 REVERT JUMPDEST POP JUMP JUMPDEST PUSH0 DUP2 MLOAD SWAP1 POP PUSH2 0xC7 DUP2 PUSH2 0xA3 JUMP JUMPDEST SWAP3 SWAP2 POP POP JUMP JUMPDEST PUSH0 PUSH1 0x20 DUP3 DUP5 SUB SLT ISZERO PUSH2 0xE2 JUMPI PUSH2 0xE1 PUSH2 0x96 JUMP JUMPDEST JUMPDEST PUSH0 PUSH2 0xEF DUP5 DUP3 DUP6 ADD PUSH2 0xB9 JUMP JUMPDEST SWAP2 POP POP SWAP3 SWAP2 POP POP JUMP JUMPDEST PUSH32 0x4E487B7100000000000000000000000000000000000000000000000000000000 PUSH0 MSTORE PUSH1 0x11 PUSH1 0x4 MSTORE PUSH1 0x24 PUSH0 REVERT JUMPDEST PUSH0 PUSH2 0x12F DUP3 PUSH2 0x9A JUMP JUMPDEST SWAP2 POP PUSH2 0x13A DUP4 PUSH2 0x9A JUMP JUMPDEST SWAP3 POP DUP3 DUP3 MUL PUSH2 0x148 DUP2 PUSH2 0x9A JUMP JUMPDEST SWAP2 POP DUP3 DUP3 DIV DUP5 EQ DUP4 ISZERO OR PUSH2 0x15F JUMPI PUSH2 0x15E PUSH2 0xF8 JUMP JUMPDEST JUMPDEST POP SWAP3 SWAP2 POP POP JUMP JUMPDEST PUSH0 PUSH2 0x170 DUP3 PUSH2 0x9A JUMP JUMPDEST SWAP2 POP PUSH2 0x17B DUP4 PUSH2 0x9A JUMP JUMPDEST SWAP3 POP DUP3 DUP3 ADD SWAP1 POP DUP1 DUP3 GT ISZERO PUSH2 0x193 JUMPI PUSH2 0x192 PUSH2 0xF8 JUMP JUMPDEST JUMPDEST SWAP3 SWAP2 POP POP JUMP JUMPDEST PUSH2 0xD3E DUP1 PUSH2 0x1A6 PUSH0 CODECOPY PUSH0 RETURN INVALID PUSH1 0x80 PUSH1 0x40 MSTORE PUSH1 0x4 CALLDATASIZE LT PUSH2 0x85 JUMPI PUSH0 CALLDATALOAD PUSH1 0xE0 SHR DUP1 PUSH4 0x8DA5CB5B GT PUSH2 0x58 JUMPI DUP1 PUSH4 0x8DA5CB5B EQ PUSH2 0x123 JUMPI DUP1 PUSH4 0x91F90157 EQ PUSH2 0x14D JUMPI DUP1 PUSH4 0xC18A6B8B EQ PUSH2 0x177 JUMPI DUP1 PUSH4 0xD57BDE79 EQ PUSH2 0x1B3 JUMPI DUP1 PUSH4 0xFE67A54B EQ PUSH2 0x1DD JUMPI PUSH2 0x85 JUMP JUMPDEST DUP1 PUSH4 0xFDB1C10 EQ PUSH2 0x89 JUMPI DUP1 PUSH4 0x1998AEEF EQ PUSH2 0xB3 JUMPI DUP1 PUSH4 0x2A24F46C EQ PUSH2 0xBD JUMPI DUP1 PUSH4 0x5E2C19DB EQ PUSH2 0xE7 JUMPI JUMPDEST PUSH0 PUSH0 REVERT JUMPDEST CALLVALUE DUP1 ISZERO PUSH2 0x94 JUMPI PUSH0 PUSH0 REVERT JUMPDEST POP PUSH2 0x9D PUSH2 0x1F3 JUMP JUMPDEST PUSH1 0x40 MLOAD PUSH2 0xAA SWAP2 SWAP1 PUSH2 0x9A9 JUMP JUMPDEST PUSH1 0x40 MLOAD DUP1 SWAP2 SUB SWAP1 RETURN JUMPDEST PUSH2 0xBB PUSH2 0x51B JUMP JUMPDEST STOP JUMPDEST CALLVALUE DUP1 ISZERO PUSH2 0xC8 JUMPI PUSH0 PUSH0 REVERT JUMPDEST POP PUSH2 0xD1 PUSH2 0x715 JUMP JUMPDEST PUSH1 0x40 MLOAD PUSH2 0xDE SWAP2 SWAP1 PUSH2 0x9DA JUMP JUMPDEST PUSH1 0x40 MLOAD DUP1 SWAP2 SUB SWAP1 RETURN JUMPDEST CALLVALUE DUP1 ISZERO PUSH2 0xF2 JUMPI PUSH0 PUSH0 REVERT JUMPDEST POP PUSH2 0x10D PUSH1 0x4 DUP1 CALLDATASIZE SUB DUP2 ADD SWAP1 PUSH2 0x108 SWAP2 SWAP1 PUSH2 0xA51 JUMP JUMPDEST PUSH2 0x71B JUMP JUMPDEST PUSH1 0x40 MLOAD PUSH2 0x11A SWAP2 SWAP1 PUSH2 0x9A9 JUMP JUMPDEST PUSH1 0x40 MLOAD DUP1 SWAP2 SUB SWAP1 RETURN JUMPDEST CALLVALUE DUP1 ISZERO PUSH2 0x12E JUMPI PUSH0 PUSH0 REVERT JUMPDEST POP PUSH2 0x137 PUSH2 0x738 JUMP JUMPDEST PUSH1 0x40 MLOAD PUSH2 0x144 SWAP2 SWAP1 PUSH2 0xA8B JUMP JUMPDEST PUSH1 0x40 MLOAD DUP1 SWAP2 SUB SWAP1 RETURN JUMPDEST CALLVALUE DUP1 ISZERO PUSH2 0x158 JUMPI PUSH0 PUSH0 REVERT JUMPDEST POP PUSH2 0x161 PUSH2 0x75C JUMP JUMPDEST PUSH1 0x40 MLOAD PUSH2 0x16E SWAP2 SWAP1 PUSH2 0xA8B JUMP JUMPDEST PUSH1 0x40 MLOAD DUP1 SWAP2 SUB SWAP1 RETURN JUMPDEST CALLVALUE DUP1 ISZERO PUSH2 0x182 JUMPI PUSH0 PUSH0 REVERT JUMPDEST POP PUSH2 0x19D PUSH1 0x4 DUP1 CALLDATASIZE SUB DUP2 ADD SWAP1 PUSH2 0x198 SWAP2 SWAP1 PUSH2 0xA51 JUMP JUMPDEST PUSH2 0x781 JUMP JUMPDEST PUSH1 0x40 MLOAD PUSH2 0x1AA SWAP2 SWAP1 PUSH2 0x9DA JUMP JUMPDEST PUSH1 0x40 MLOAD DUP1 SWAP2 SUB SWAP1 RETURN JUMPDEST CALLVALUE DUP1 ISZERO PUSH2 0x1BE JUMPI PUSH0 PUSH0 REVERT JUMPDEST POP PUSH2 0x1C7 PUSH2 0x796 JUMP JUMPDEST PUSH1 0x40 MLOAD PUSH2 0x1D4 SWAP2 SWAP1 PUSH2 0x9DA JUMP JUMPDEST PUSH1 0x40 MLOAD DUP1 SWAP2 SUB SWAP1 RETURN JUMPDEST CALLVALUE DUP1 ISZERO PUSH2 0x1E8 JUMPI PUSH0 PUSH0 REVERT JUMPDEST POP PUSH2 0x1F1 PUSH2 0x79C JUMP JUMPDEST STOP JUMPDEST PUSH0 PUSH0 PUSH1 0x4 PUSH0 CALLER PUSH20 0xFFFFFFFFFFFFFFFFFFFFFFFFFFFFFFFFFFFFFFFF AND PUSH20 0xFFFFFFFFFFFFFFFFFFFFFFFFFFFFFFFFFFFFFFFF AND DUP2 MSTORE PUSH1 0x20 ADD SWAP1 DUP2 MSTORE PUSH1 0x20 ADD PUSH0 KECCAK256 SLOAD SWAP1 POP PUSH0 DUP2 GT PUSH2 0x277 JUMPI PUSH1 0x40 MLOAD PUSH32 0x8C379A000000000000000000000000000000000000000000000000000000000 DUP2 MSTORE PUSH1 0x4 ADD PUSH2 0x26E SWAP1 PUSH2 0xAFE JUMP JUMPDEST PUSH1 0x40 MLOAD DUP1 SWAP2 SUB SWAP1 REVERT JUMPDEST PUSH1 0x5 PUSH0 CALLER PUSH20 0xFFFFFFFFFFFFFFFFFFFFFFFFFFFFFFFFFFFFFFFF AND PUSH20 0xFFFFFFFFFFFFFFFFFFFFFFFFFFFFFFFFFFFFFFFF AND DUP2 MSTORE PUSH1 0x20 ADD SWAP1 DUP2 MSTORE PUSH1 0x20 ADD PUSH0 KECCAK256 PUSH0 SWAP1 SLOAD SWAP1 PUSH2 0x100 EXP SWAP1 DIV PUSH1 0xFF AND ISZERO PUSH2 0x2F8 JUMPI PUSH1 0x40 MLOAD PUSH32 0x6507689F00000000000000000000000000000000000000000000000000000000 DUP2 MSTORE PUSH1 0x4 ADD PUSH1 0x40 MLOAD DUP1 SWAP2 SUB SWAP1 REVERT JUMPDEST PUSH0 PUSH1 0x4 PUSH0 CALLER PUSH20 0xFFFFFFFFFFFFFFFFFFFFFFFFFFFFFFFFFFFFFFFF AND PUSH20 0xFFFFFFFFFFFFFFFFFFFFFFFFFFFFFFFFFFFFFFFF AND DUP2 MSTORE PUSH1 0x20 ADD SWAP1 DUP2 MSTORE PUSH1 0x20 ADD PUSH0 KECCAK256 DUP2 SWAP1 SSTORE POP PUSH1 0x1 PUSH1 0x5 PUSH0 CALLER PUSH20 0xFFFFFFFFFFFFFFFFFFFFFFFFFFFFFFFFFFFFFFFF AND PUSH20 0xFFFFFFFFFFFFFFFFFFFFFFFFFFFFFFFFFFFFFFFF AND DUP2 MSTORE PUSH1 0x20 ADD SWAP1 DUP2 MSTORE PUSH1 0x20 ADD PUSH0 KECCAK256 PUSH0 PUSH2 0x100 EXP DUP2 SLOAD DUP2 PUSH1 0xFF MUL NOT AND SWAP1 DUP4 ISZERO ISZERO MUL OR SWAP1 SSTORE POP PUSH0 CALLER PUSH20 0xFFFFFFFFFFFFFFFFFFFFFFFFFFFFFFFFFFFFFFFF AND DUP3 PUSH1 0x40 MLOAD PUSH2 0x3B4 SWAP1 PUSH2 0xB49 JUMP JUMPDEST PUSH0 PUSH1 0x40 MLOAD DUP1 DUP4 SUB DUP2 DUP6 DUP8 GAS CALL SWAP3 POP POP POP RETURNDATASIZE DUP1 PUSH0 DUP2 EQ PUSH2 0x3EE JUMPI PUSH1 0x40 MLOAD SWAP2 POP PUSH1 0x1F NOT PUSH1 0x3F RETURNDATASIZE ADD AND DUP3 ADD PUSH1 0x40 MSTORE RETURNDATASIZE DUP3 MSTORE RETURNDATASIZE PUSH0 PUSH1 0x20 DUP5 ADD RETURNDATACOPY PUSH2 0x3F3 JUMP JUMPDEST PUSH1 0x60 SWAP2 POP JUMPDEST POP POP SWAP1 POP DUP1 PUSH2 0x4C4 JUMPI DUP2 PUSH1 0x4 PUSH0 CALLER PUSH20 0xFFFFFFFFFFFFFFFFFFFFFFFFFFFFFFFFFFFFFFFF AND PUSH20 0xFFFFFFFFFFFFFFFFFFFFFFFFFFFFFFFFFFFFFFFF AND DUP2 MSTORE PUSH1 0x20 ADD SWAP1 DUP2 MSTORE PUSH1 0x20 ADD PUSH0 KECCAK256 DUP2 SWAP1 SSTORE POP PUSH0 PUSH1 0x5 PUSH0 CALLER PUSH20 0xFFFFFFFFFFFFFFFFFFFFFFFFFFFFFFFFFFFFFFFF AND PUSH20 0xFFFFFFFFFFFFFFFFFFFFFFFFFFFFFFFFFFFFFFFF AND DUP2 MSTORE PUSH1 0x20 ADD SWAP1 DUP2 MSTORE PUSH1 0x20 ADD PUSH0 KECCAK256 PUSH0 PUSH2 0x100 EXP DUP2 SLOAD DUP2 PUSH1 0xFF MUL NOT AND SWAP1 DUP4 ISZERO ISZERO MUL OR SWAP1 SSTORE POP PUSH1 0x40 MLOAD PUSH32 0x27FCD9D100000000000000000000000000000000000000000000000000000000 DUP2 MSTORE PUSH1 0x4 ADD PUSH1 0x40 MLOAD DUP1 SWAP2 SUB SWAP1 REVERT JUMPDEST CALLER PUSH20 0xFFFFFFFFFFFFFFFFFFFFFFFFFFFFFFFFFFFFFFFF AND PUSH32 0x7FCF532C15F0A6DB0BD6D0E038BEA71D30D808C7D98CB3BF7268A95BF5081B65 DUP4 PUSH1 0x40 MLOAD PUSH2 0x50A SWAP2 SWAP1 PUSH2 0x9DA JUMP JUMPDEST PUSH1 0x40 MLOAD DUP1 SWAP2 SUB SWAP1 LOG2 PUSH1 0x1 SWAP3 POP POP POP SWAP1 JUMP JUMPDEST PUSH1 0x1 SLOAD TIMESTAMP GT ISZERO PUSH2 0x557 JUMPI PUSH1 0x40 MLOAD PUSH32 0x967574C100000000000000000000000000000000000000000000000000000000 DUP2 MSTORE PUSH1 0x4 ADD PUSH1 0x40 MLOAD DUP1 SWAP2 SUB SWAP1 REVERT JUMPDEST PUSH1 0x2 SLOAD CALLVALUE GT PUSH2 0x5A1 JUMPI PUSH1 0x2 SLOAD CALLVALUE PUSH1 0x40 MLOAD PUSH32 0xF0DEFC6100000000000000000000000000000000000000000000000000000000 DUP2 MSTORE PUSH1 0x4 ADD PUSH2 0x598 SWAP3 SWAP2 SWAP1 PUSH2 0xB5D JUMP JUMPDEST PUSH1 0x40 MLOAD DUP1 SWAP2 SUB SWAP1 REVERT JUMPDEST TIMESTAMP PUSH1 0x1 SLOAD GT PUSH2 0x5B3 JUMPI PUSH2 0x5B2 PUSH2 0xB84 JUMP JUMPDEST JUMPDEST PUSH0 PUSH20 0xFFFFFFFFFFFFFFFFFFFFFFFFFFFFFFFFFFFFFFFF AND PUSH1 0x3 PUSH0 SWAP1 SLOAD SWAP1 PUSH2 0x100 EXP SWAP1 DIV PUSH20 0xFFFFFFFFFFFFFFFFFFFFFFFFFFFFFFFFFFFFFFFF AND PUSH20 0xFFFFFFFFFFFFFFFFFFFFFFFFFFFFFFFFFFFFFFFF AND EQ PUSH2 0x67E JUMPI PUSH1 0x2 SLOAD PUSH1 0x4 PUSH0 PUSH1 0x3 PUSH0 SWAP1 SLOAD SWAP1 PUSH2 0x100 EXP SWAP1 DIV PUSH20 0xFFFFFFFFFFFFFFFFFFFFFFFFFFFFFFFFFFFFFFFF AND PUSH20 0xFFFFFFFFFFFFFFFFFFFFFFFFFFFFFFFFFFFFFFFF AND PUSH20 0xFFFFFFFFFFFFFFFFFFFFFFFFFFFFFFFFFFFFFFFF AND DUP2 MSTORE PUSH1 0x20 ADD SWAP1 DUP2 MSTORE PUSH1 0x20 ADD PUSH0 KECCAK256 PUSH0 DUP3 DUP3 SLOAD PUSH2 0x676 SWAP2 SWAP1 PUSH2 0xBDE JUMP JUMPDEST SWAP3 POP POP DUP2 SWAP1 SSTORE POP JUMPDEST CALLER PUSH1 0x3 PUSH0 PUSH2 0x100 EXP DUP2 SLOAD DUP2 PUSH20 0xFFFFFFFFFFFFFFFFFFFFFFFFFFFFFFFFFFFFFFFF MUL NOT AND SWAP1 DUP4 PUSH20 0xFFFFFFFFFFFFFFFFFFFFFFFFFFFFFFFFFFFFFFFF AND MUL OR SWAP1 SSTORE POP CALLVALUE PUSH1 0x2 DUP2 SWAP1 SSTORE POP CALLER PUSH20 0xFFFFFFFFFFFFFFFFFFFFFFFFFFFFFFFFFFFFFFFF AND PUSH32 0xDD0B6C6A77960E2066C96171B4D7AC9E8B4C184011F38544AFA36A5BB63EC59F CALLVALUE PUSH1 0x40 MLOAD PUSH2 0x70B SWAP2 SWAP1 PUSH2 0x9DA JUMP JUMPDEST PUSH1 0x40 MLOAD DUP1 SWAP2 SUB SWAP1 LOG2 JUMP JUMPDEST PUSH1 0x1 SLOAD DUP2 JUMP JUMPDEST PUSH1 0x5 PUSH1 0x20 MSTORE DUP1 PUSH0 MSTORE PUSH1 0x40 PUSH0 KECCAK256 PUSH0 SWAP2 POP SLOAD SWAP1 PUSH2 0x100 EXP SWAP1 DIV PUSH1 0xFF AND DUP2 JUMP JUMPDEST PUSH0 PUSH0 SWAP1 SLOAD SWAP1 PUSH2 0x100 EXP SWAP1 DIV PUSH20 0xFFFFFFFFFFFFFFFFFFFFFFFFFFFFFFFFFFFFFFFF AND DUP2 JUMP JUMPDEST PUSH1 0x3 PUSH0 SWAP1 SLOAD SWAP1 PUSH2 0x100 EXP SWAP1 DIV PUSH20 0xFFFFFFFFFFFFFFFFFFFFFFFFFFFFFFFFFFFFFFFF AND DUP2 JUMP JUMPDEST PUSH1 0x4 PUSH1 0x20 MSTORE DUP1 PUSH0 MSTORE PUSH1 0x40 PUSH0 KECCAK256 PUSH0 SWAP2 POP SWAP1 POP SLOAD DUP2 JUMP JUMPDEST PUSH1 0x2 SLOAD DUP2 JUMP JUMPDEST CALLER PUSH20 0xFFFFFFFFFFFFFFFFFFFFFFFFFFFFFFFFFFFFFFFF AND PUSH0 PUSH0 SWAP1 SLOAD SWAP1 PUSH2 0x100 EXP SWAP1 DIV PUSH20 0xFFFFFFFFFFFFFFFFFFFFFFFFFFFFFFFFFFFFFFFF AND PUSH20 0xFFFFFFFFFFFFFFFFFFFFFFFFFFFFFFFFFFFFFFFF AND EQ PUSH2 0x82A JUMPI PUSH1 0x40 MLOAD PUSH32 0x8C379A000000000000000000000000000000000000000000000000000000000 DUP2 MSTORE PUSH1 0x4 ADD PUSH2 0x821 SWAP1 PUSH2 0xC5B JUMP JUMPDEST PUSH1 0x40 MLOAD DUP1 SWAP2 SUB SWAP1 REVERT JUMPDEST PUSH1 0x1 SLOAD TIMESTAMP LT ISZERO PUSH2 0x866 JUMPI PUSH1 0x40 MLOAD PUSH32 0x6463738900000000000000000000000000000000000000000000000000000000 DUP2 MSTORE PUSH1 0x4 ADD PUSH1 0x40 MLOAD DUP1 SWAP2 SUB SWAP1 REVERT JUMPDEST PUSH32 0xDAEC4582D5D9595688C8C98545FDD1C696D41C6AEAEB636737E84ED2F5C00EDA PUSH1 0x3 PUSH0 SWAP1 SLOAD SWAP1 PUSH2 0x100 EXP SWAP1 DIV PUSH20 0xFFFFFFFFFFFFFFFFFFFFFFFFFFFFFFFFFFFFFFFF AND PUSH1 0x2 SLOAD PUSH1 0x40 MLOAD PUSH2 0x8BA SWAP3 SWAP2 SWAP1 PUSH2 0xC79 JUMP JUMPDEST PUSH1 0x40 MLOAD DUP1 SWAP2 SUB SWAP1 LOG1 PUSH0 PUSH0 PUSH0 SWAP1 SLOAD SWAP1 PUSH2 0x100 EXP SWAP1 DIV PUSH20 0xFFFFFFFFFFFFFFFFFFFFFFFFFFFFFFFFFFFFFFFF AND PUSH20 0xFFFFFFFFFFFFFFFFFFFFFFFFFFFFFFFFFFFFFFFF AND PUSH1 0x2 SLOAD PUSH1 0x40 MLOAD PUSH2 0x909 SWAP1 PUSH2 0xB49 JUMP JUMPDEST PUSH0 PUSH1 0x40 MLOAD DUP1 DUP4 SUB DUP2 DUP6 DUP8 GAS CALL SWAP3 POP POP POP RETURNDATASIZE DUP1 PUSH0 DUP2 EQ PUSH2 0x943 JUMPI PUSH1 0x40 MLOAD SWAP2 POP PUSH1 0x1F NOT PUSH1 0x3F RETURNDATASIZE ADD AND DUP3 ADD PUSH1 0x40 MSTORE RETURNDATASIZE DUP3 MSTORE RETURNDATASIZE PUSH0 PUSH1 0x20 DUP5 ADD RETURNDATACOPY PUSH2 0x948 JUMP JUMPDEST PUSH1 0x60 SWAP2 POP JUMPDEST POP POP SWAP1 POP DUP1 PUSH2 0x98C JUMPI PUSH1 0x40 MLOAD PUSH32 0x8C379A000000000000000000000000000000000000000000000000000000000 DUP2 MSTORE PUSH1 0x4 ADD PUSH2 0x983 SWAP1 PUSH2 0xCEA JUMP JUMPDEST PUSH1 0x40 MLOAD DUP1 SWAP2 SUB SWAP1 REVERT JUMPDEST POP JUMP JUMPDEST PUSH0 DUP2 ISZERO ISZERO SWAP1 POP SWAP2 SWAP1 POP JUMP JUMPDEST PUSH2 0x9A3 DUP2 PUSH2 0x98F JUMP JUMPDEST DUP3 MSTORE POP POP JUMP JUMPDEST PUSH0 PUSH1 0x20 DUP3 ADD SWAP1 POP PUSH2 0x9BC PUSH0 DUP4 ADD DUP5 PUSH2 0x99A JUMP JUMPDEST SWAP3 SWAP2 POP POP JUMP JUMPDEST PUSH0 DUP2 SWAP1 POP SWAP2 SWAP1 POP JUMP JUMPDEST PUSH2 0x9D4 DUP2 PUSH2 0x9C2 JUMP JUMPDEST DUP3 MSTORE POP POP JUMP JUMPDEST PUSH0 PUSH1 0x20 DUP3 ADD SWAP1 POP PUSH2 0x9ED PUSH0 DUP4 ADD DUP5 PUSH2 0x9CB JUMP JUMPDEST SWAP3 SWAP2 POP POP JUMP JUMPDEST PUSH0 PUSH0 REVERT JUMPDEST PUSH0 PUSH20 0xFFFFFFFFFFFFFFFFFFFFFFFFFFFFFFFFFFFFFFFF DUP3 AND SWAP1 POP SWAP2 SWAP1 POP JUMP JUMPDEST PUSH0 PUSH2 0xA20 DUP3 PUSH2 0x9F7 JUMP JUMPDEST SWAP1 POP SWAP2 SWAP1 POP JUMP JUMPDEST PUSH2 0xA30 DUP2 PUSH2 0xA16 JUMP JUMPDEST DUP2 EQ PUSH2 0xA3A JUMPI PUSH0 PUSH0 REVERT JUMPDEST POP JUMP JUMPDEST PUSH0 DUP2 CALLDATALOAD SWAP1 POP PUSH2 0xA4B DUP2 PUSH2 0xA27 JUMP JUMPDEST SWAP3 SWAP2 POP POP JUMP JUMPDEST PUSH0 PUSH1 0x20 DUP3 DUP5 SUB SLT ISZERO PUSH2 0xA66 JUMPI PUSH2 0xA65 PUSH2 0x9F3 JUMP JUMPDEST JUMPDEST PUSH0 PUSH2 0xA73 DUP5 DUP3 DUP6 ADD PUSH2 0xA3D JUMP JUMPDEST SWAP2 POP POP SWAP3 SWAP2 POP POP JUMP JUMPDEST PUSH2 0xA85 DUP2 PUSH2 0xA16 JUMP JUMPDEST DUP3 MSTORE POP POP JUMP JUMPDEST PUSH0 PUSH1 0x20 DUP3 ADD SWAP1 POP PUSH2 0xA9E PUSH0 DUP4 ADD DUP5 PUSH2 0xA7C JUMP JUMPDEST SWAP3 SWAP2 POP POP JUMP JUMPDEST PUSH0 DUP3 DUP3 MSTORE PUSH1 0x20 DUP3 ADD SWAP1 POP SWAP3 SWAP2 POP POP JUMP JUMPDEST PUSH32 0x4E6F2072657475726E7321000000000000000000000000000000000000000000 PUSH0 DUP3 ADD MSTORE POP JUMP JUMPDEST PUSH0 PUSH2 0xAE8 PUSH1 0xB DUP4 PUSH2 0xAA4 JUMP JUMPDEST SWAP2 POP PUSH2 0xAF3 DUP3 PUSH2 0xAB4 JUMP JUMPDEST PUSH1 0x20 DUP3 ADD SWAP1 POP SWAP2 SWAP1 POP JUMP JUMPDEST PUSH0 PUSH1 0x20 DUP3 ADD SWAP1 POP DUP2 DUP2 SUB PUSH0 DUP4 ADD MSTORE PUSH2 0xB15 DUP2 PUSH2 0xADC JUMP JUMPDEST SWAP1 POP SWAP2 SWAP1 POP JUMP JUMPDEST PUSH0 DUP2 SWAP1 POP SWAP3 SWAP2 POP POP JUMP JUMPDEST POP JUMP JUMPDEST PUSH0 PUSH2 0xB34 PUSH0 DUP4 PUSH2 0xB1C JUMP JUMPDEST SWAP2 POP PUSH2 0xB3F DUP3 PUSH2 0xB26 JUMP JUMPDEST PUSH0 DUP3 ADD SWAP1 POP SWAP2 SWAP1 POP JUMP JUMPDEST PUSH0 PUSH2 0xB53 DUP3 PUSH2 0xB29 JUMP JUMPDEST SWAP2 POP DUP2 SWAP1 POP SWAP2 SWAP1 POP JUMP JUMPDEST PUSH0 PUSH1 0x40 DUP3 ADD SWAP1 POP PUSH2 0xB70 PUSH0 DUP4 ADD DUP6 PUSH2 0x9CB JUMP JUMPDEST PUSH2 0xB7D PUSH1 0x20 DUP4 ADD DUP5 PUSH2 0x9CB JUMP JUMPDEST SWAP4 SWAP3 POP POP POP JUMP JUMPDEST PUSH32 0x4E487B7100000000000000000000000000000000000000000000000000000000 PUSH0 MSTORE PUSH1 0x1 PUSH1 0x4 MSTORE PUSH1 0x24 PUSH0 REVERT JUMPDEST PUSH32 0x4E487B7100000000000000000000000000000000000000000000000000000000 PUSH0 MSTORE PUSH1 0x11 PUSH1 0x4 MSTORE PUSH1 0x24 PUSH0 REVERT JUMPDEST PUSH0 PUSH2 0xBE8 DUP3 PUSH2 0x9C2 JUMP JUMPDEST SWAP2 POP PUSH2 0xBF3 DUP4 PUSH2 0x9C2 JUMP JUMPDEST SWAP3 POP DUP3 DUP3 ADD SWAP1 POP DUP1 DUP3 GT ISZERO PUSH2 0xC0B JUMPI PUSH2 0xC0A PUSH2 0xBB1 JUMP JUMPDEST JUMPDEST SWAP3 SWAP2 POP POP JUMP JUMPDEST PUSH32 0x4F6E6C79206F776E65722063616E20656E642100000000000000000000000000 PUSH0 DUP3 ADD MSTORE POP JUMP JUMPDEST PUSH0 PUSH2 0xC45 PUSH1 0x13 DUP4 PUSH2 0xAA4 JUMP JUMPDEST SWAP2 POP PUSH2 0xC50 DUP3 PUSH2 0xC11 JUMP JUMPDEST PUSH1 0x20 DUP3 ADD SWAP1 POP SWAP2 SWAP1 POP JUMP JUMPDEST PUSH0 PUSH1 0x20 DUP3 ADD SWAP1 POP DUP2 DUP2 SUB PUSH0 DUP4 ADD MSTORE PUSH2 0xC72 DUP2 PUSH2 0xC39 JUMP JUMPDEST SWAP1 POP SWAP2 SWAP1 POP JUMP JUMPDEST PUSH0 PUSH1 0x40 DUP3 ADD SWAP1 POP PUSH2 0xC8C PUSH0 DUP4 ADD DUP6 PUSH2 0xA7C JUMP JUMPDEST PUSH2 0xC99 PUSH1 0x20 DUP4 ADD DUP5 PUSH2 0x9CB JUMP JUMPDEST SWAP4 SWAP3 POP POP POP JUMP JUMPDEST PUSH32 0x5472616E73616374696F6E206661696C65642100000000000000000000000000 PUSH0 DUP3 ADD MSTORE POP JUMP JUMPDEST PUSH0 PUSH2 0xCD4 PUSH1 0x13 DUP4 PUSH2 0xAA4 JUMP JUMPDEST SWAP2 POP PUSH2 0xCDF DUP3 PUSH2 0xCA0 JUMP JUMPDEST PUSH1 0x20 DUP3 ADD SWAP1 POP SWAP2 SWAP1 POP JUMP JUMPDEST PUSH0 PUSH1 0x20 DUP3 ADD SWAP1 POP DUP2 DUP2 SUB PUSH0 DUP4 ADD MSTORE PUSH2 0xD01 DUP2 PUSH2 0xCC8 JUMP JUMPDEST SWAP1 POP SWAP2 SWAP1 POP JUMP INVALID LOG2 PUSH5 0x6970667358 0x22 SLT KECCAK256 0xF PUSH25 0x28C7D417DA83BAE4249D623C155130C573AE171C76FDB1D90A SWAP5 0x2D DUP10 BLOBHASH 0xCA PUSH5 0x736F6C6343 STOP ADDMOD 0x22 STOP CALLER "
				},
				"gasEstimates": {
					"creation": {
						"codeDepositCost": "678000",
						"executionCost": "infinite",
						"totalCost": "infinite"
					},
					"external": {
						"auctionEnd()": "2470",
						"bid()": "infinite",
						"endAuction()": "infinite",
						"hasWithdrawn(address)": "2900",
						"highestBid()": "2491",
						"highestBidder()": "2530",
						"owner()": "2507",
						"penddingReturns(address)": "2846",
						"withDraw()": "infinite"
					}
				},
				"methodIdentifiers": {
					"auctionEnd()": "2a24f46c",
					"bid()": "1998aeef",
					"endAuction()": "fe67a54b",
					"hasWithdrawn(address)": "5e2c19db",
					"highestBid()": "d57bde79",
					"highestBidder()": "91f90157",
					"owner()": "8da5cb5b",
					"penddingReturns(address)": "c18a6b8b",
					"withDraw()": "0fdb1c10"
				}
			},
			"storageLayout": {
				"storage": [
					{
						"astId": 3,
						"contract": "lession7.2-Error/AuctionContract.sol:AuctionContract",
						"label": "owner",
						"offset": 0,
						"slot": "0",
						"type": "t_address"
					},
					{
						"astId": 5,
						"contract": "lession7.2-Error/AuctionContract.sol:AuctionContract",
						"label": "auctionEnd",
						"offset": 0,
						"slot": "1",
						"type": "t_uint256"
					},
					{
						"astId": 7,
						"contract": "lession7.2-Error/AuctionContract.sol:AuctionContract",
						"label": "highestBid",
						"offset": 0,
						"slot": "2",
						"type": "t_uint256"
					},
					{
						"astId": 9,
						"contract": "lession7.2-Error/AuctionContract.sol:AuctionContract",
						"label": "highestBidder",
						"offset": 0,
						"slot": "3",
						"type": "t_address"
					},
					{
						"astId": 13,
						"contract": "lession7.2-Error/AuctionContract.sol:AuctionContract",
						"label": "penddingReturns",
						"offset": 0,
						"slot": "4",
						"type": "t_mapping(t_address,t_uint256)"
					},
					{
						"astId": 17,
						"contract": "lession7.2-Error/AuctionContract.sol:AuctionContract",
						"label": "hasWithdrawn",
						"offset": 0,
						"slot": "5",
						"type": "t_mapping(t_address,t_bool)"
					}
				],
				"types": {
					"t_address": {
						"encoding": "inplace",
						"label": "address",
						"numberOfBytes": "20"
					},
					"t_bool": {
						"encoding": "inplace",
						"label": "bool",
						"numberOfBytes": "1"
					},
					"t_mapping(t_address,t_bool)": {
						"encoding": "mapping",
						"key": "t_address",
						"label": "mapping(address => bool)",
						"numberOfBytes": "32",
						"value": "t_bool"
					},
					"t_mapping(t_address,t_uint256)": {
						"encoding": "mapping",
						"key": "t_address",
						"label": "mapping(address => uint256)",
						"numberOfBytes": "32",
						"value": "t_uint256"
					},
					"t_uint256": {
						"encoding": "inplace",
						"label": "uint256",
						"numberOfBytes": "32"
					}
				}
			},
			"userdoc": {
				"kind": "user",
				"methods": {
					"withDraw()": {
						"notice": "提取未中标的出价"
					}
				},
				"version": 1
			}
		}
	}
}