{
	"lession8.1-Invocation/delegatecall/TestProxy.sol": {
		"TestProxy": {
			"abi": [
				{
					"inputs": [
						{
							"internalType": "address",
							"name": "proxy",
							"type": "address"
						}
					],
					"name": "testDelegateCall",
					"outputs": [],
					"stateMutability": "nonpayable",
					"type": "function"
				}
			],
			"devdoc": {
				"kind": "dev",
				"methods": {},
				"version": 1
			},
			"evm": {
				"assembly": "    /* \"lession8.1-Invocation/delegatecall/TestProxy.sol\":57:328  contract TestProxy {... */\n  mstore(0x40, 0x80)\n  callvalue\n  dup1\n  iszero\n  tag_1\n  jumpi\n  revert(0x00, 0x00)\ntag_1:\n  pop\n  dataSize(sub_0)\n  dup1\n  dataOffset(sub_0)\n  0x00\n  codecopy\n  0x00\n  return\nstop\n\nsub_0: assembly {\n        /* \"lession8.1-Invocation/delegatecall/TestProxy.sol\":57:328  contract TestProxy {... */\n      mstore(0x40, 0x80)\n      callvalue\n      dup1\n      iszero\n      tag_1\n      jumpi\n      revert(0x00, 0x00)\n    tag_1:\n      pop\n      jumpi(tag_2, lt(calldatasize, 0x04))\n      shr(0xe0, calldataload(0x00))\n      dup1\n      0x8a59c5a6\n      eq\n      tag_3\n      jumpi\n    tag_2:\n      revert(0x00, 0x00)\n        /* \"lession8.1-Invocation/delegatecall/TestProxy.sol\":83:326  function testDelegateCall(address proxy) external {... */\n    tag_3:\n      tag_4\n      0x04\n      dup1\n      calldatasize\n      sub\n      dup2\n      add\n      swap1\n      tag_5\n      swap2\n      swap1\n      tag_6\n      jump\t// in\n    tag_5:\n      tag_7\n      jump\t// in\n    tag_4:\n      stop\n    tag_7:\n        /* \"lession8.1-Invocation/delegatecall/TestProxy.sol\":191:203  bool success */\n      0x00\n        /* \"lession8.1-Invocation/delegatecall/TestProxy.sol\":208:213  proxy */\n      dup2\n        /* \"lession8.1-Invocation/delegatecall/TestProxy.sol\":208:218  proxy.call */\n      0xffffffffffffffffffffffffffffffffffffffff\n      and\n        /* \"lession8.1-Invocation/delegatecall/TestProxy.sol\":264:267  888 */\n      0x0378\n        /* \"lession8.1-Invocation/delegatecall/TestProxy.sol\":219:268  abi.encodeWithSignature(\"setValue(uint256)\", 888) */\n      add(0x24, mload(0x40))\n      tag_9\n      swap2\n      swap1\n      tag_10\n      jump\t// in\n    tag_9:\n      mload(0x40)\n      0x20\n      dup2\n      dup4\n      sub\n      sub\n      dup2\n      mstore\n      swap1\n      0x40\n      mstore\n      and(not(0xffffffffffffffffffffffffffffffffffffffffffffffffffffffff), 0x5524107700000000000000000000000000000000000000000000000000000000)\n      0x20\n      dup3\n      add\n      dup1\n      mload\n      0xffffffffffffffffffffffffffffffffffffffffffffffffffffffff\n      dup4\n      dup2\n      dup4\n      and\n      or\n      dup4\n      mstore\n      pop\n      pop\n      pop\n      pop\n        /* \"lession8.1-Invocation/delegatecall/TestProxy.sol\":208:269  proxy.call(abi.encodeWithSignature(\"setValue(uint256)\", 888)) */\n      mload(0x40)\n      tag_11\n      swap2\n      swap1\n      tag_12\n      jump\t// in\n    tag_11:\n      0x00\n      mload(0x40)\n      dup1\n      dup4\n      sub\n      dup2\n      0x00\n      dup7\n      gas\n      call\n      swap2\n      pop\n      pop\n      returndatasize\n      dup1\n      0x00\n      dup2\n      eq\n      tag_15\n      jumpi\n      mload(0x40)\n      swap2\n      pop\n      and(add(returndatasize, 0x3f), not(0x1f))\n      dup3\n      add\n      0x40\n      mstore\n      returndatasize\n      dup3\n      mstore\n      returndatasize\n      0x00\n      0x20\n      dup5\n      add\n      returndatacopy\n      jump(tag_14)\n    tag_15:\n      0x60\n      swap2\n      pop\n    tag_14:\n      pop\n        /* \"lession8.1-Invocation/delegatecall/TestProxy.sol\":190:269  (bool success,) = proxy.call(abi.encodeWithSignature(\"setValue(uint256)\", 888)) */\n      pop\n      swap1\n      pop\n        /* \"lession8.1-Invocation/delegatecall/TestProxy.sol\":287:294  success */\n      dup1\n        /* \"lession8.1-Invocation/delegatecall/TestProxy.sol\":279:319  require(success, \"delegatecall failed!\") */\n      tag_16\n      jumpi\n      mload(0x40)\n      0x08c379a000000000000000000000000000000000000000000000000000000000\n      dup2\n      mstore\n      0x04\n      add\n      tag_17\n      swap1\n      tag_18\n      jump\t// in\n    tag_17:\n      mload(0x40)\n      dup1\n      swap2\n      sub\n      swap1\n      revert\n    tag_16:\n        /* \"lession8.1-Invocation/delegatecall/TestProxy.sol\":133:326  {... */\n      pop\n        /* \"lession8.1-Invocation/delegatecall/TestProxy.sol\":83:326  function testDelegateCall(address proxy) external {... */\n      pop\n      jump\t// out\n        /* \"#utility.yul\":88:205   */\n    tag_20:\n        /* \"#utility.yul\":197:198   */\n      0x00\n        /* \"#utility.yul\":194:195   */\n      0x00\n        /* \"#utility.yul\":187:199   */\n      revert\n        /* \"#utility.yul\":334:460   */\n    tag_22:\n        /* \"#utility.yul\":371:378   */\n      0x00\n        /* \"#utility.yul\":411:453   */\n      0xffffffffffffffffffffffffffffffffffffffff\n        /* \"#utility.yul\":404:409   */\n      dup3\n        /* \"#utility.yul\":400:454   */\n      and\n        /* \"#utility.yul\":389:454   */\n      swap1\n      pop\n        /* \"#utility.yul\":334:460   */\n      swap2\n      swap1\n      pop\n      jump\t// out\n        /* \"#utility.yul\":466:562   */\n    tag_23:\n        /* \"#utility.yul\":503:510   */\n      0x00\n        /* \"#utility.yul\":532:556   */\n      tag_44\n        /* \"#utility.yul\":550:555   */\n      dup3\n        /* \"#utility.yul\":532:556   */\n      tag_22\n      jump\t// in\n    tag_44:\n        /* \"#utility.yul\":521:556   */\n      swap1\n      pop\n        /* \"#utility.yul\":466:562   */\n      swap2\n      swap1\n      pop\n      jump\t// out\n        /* \"#utility.yul\":568:690   */\n    tag_24:\n        /* \"#utility.yul\":641:665   */\n      tag_46\n        /* \"#utility.yul\":659:664   */\n      dup2\n        /* \"#utility.yul\":641:665   */\n      tag_23\n      jump\t// in\n    tag_46:\n        /* \"#utility.yul\":634:639   */\n      dup2\n        /* \"#utility.yul\":631:666   */\n      eq\n        /* \"#utility.yul\":621:684   */\n      tag_47\n      jumpi\n        /* \"#utility.yul\":680:681   */\n      0x00\n        /* \"#utility.yul\":677:678   */\n      0x00\n        /* \"#utility.yul\":670:682   */\n      revert\n        /* \"#utility.yul\":621:684   */\n    tag_47:\n        /* \"#utility.yul\":568:690   */\n      pop\n      jump\t// out\n        /* \"#utility.yul\":696:835   */\n    tag_25:\n        /* \"#utility.yul\":742:747   */\n      0x00\n        /* \"#utility.yul\":780:786   */\n      dup2\n        /* \"#utility.yul\":767:787   */\n      calldataload\n        /* \"#utility.yul\":758:787   */\n      swap1\n      pop\n        /* \"#utility.yul\":796:829   */\n      tag_49\n        /* \"#utility.yul\":823:828   */\n      dup2\n        /* \"#utility.yul\":796:829   */\n      tag_24\n      jump\t// in\n    tag_49:\n        /* \"#utility.yul\":696:835   */\n      swap3\n      swap2\n      pop\n      pop\n      jump\t// out\n        /* \"#utility.yul\":841:1170   */\n    tag_6:\n        /* \"#utility.yul\":900:906   */\n      0x00\n        /* \"#utility.yul\":949:951   */\n      0x20\n        /* \"#utility.yul\":937:946   */\n      dup3\n        /* \"#utility.yul\":928:935   */\n      dup5\n        /* \"#utility.yul\":924:947   */\n      sub\n        /* \"#utility.yul\":920:952   */\n      slt\n        /* \"#utility.yul\":917:1036   */\n      iszero\n      tag_51\n      jumpi\n        /* \"#utility.yul\":955:1034   */\n      tag_52\n      tag_20\n      jump\t// in\n    tag_52:\n        /* \"#utility.yul\":917:1036   */\n    tag_51:\n        /* \"#utility.yul\":1075:1076   */\n      0x00\n        /* \"#utility.yul\":1100:1153   */\n      tag_53\n        /* \"#utility.yul\":1145:1152   */\n      dup5\n        /* \"#utility.yul\":1136:1142   */\n      dup3\n        /* \"#utility.yul\":1125:1134   */\n      dup6\n        /* \"#utility.yul\":1121:1143   */\n      add\n        /* \"#utility.yul\":1100:1153   */\n      tag_25\n      jump\t// in\n    tag_53:\n        /* \"#utility.yul\":1090:1153   */\n      swap2\n      pop\n        /* \"#utility.yul\":1046:1163   */\n      pop\n        /* \"#utility.yul\":841:1170   */\n      swap3\n      swap2\n      pop\n      pop\n      jump\t// out\n        /* \"#utility.yul\":1176:1263   */\n    tag_26:\n        /* \"#utility.yul\":1223:1230   */\n      0x00\n        /* \"#utility.yul\":1252:1257   */\n      dup2\n        /* \"#utility.yul\":1241:1257   */\n      swap1\n      pop\n        /* \"#utility.yul\":1176:1263   */\n      swap2\n      swap1\n      pop\n      jump\t// out\n        /* \"#utility.yul\":1269:1358   */\n    tag_27:\n        /* \"#utility.yul\":1305:1312   */\n      0x00\n        /* \"#utility.yul\":1345:1351   */\n      0xffff\n        /* \"#utility.yul\":1338:1343   */\n      dup3\n        /* \"#utility.yul\":1334:1352   */\n      and\n        /* \"#utility.yul\":1323:1352   */\n      swap1\n      pop\n        /* \"#utility.yul\":1269:1358   */\n      swap2\n      swap1\n      pop\n      jump\t// out\n        /* \"#utility.yul\":1364:1424   */\n    tag_28:\n        /* \"#utility.yul\":1392:1395   */\n      0x00\n        /* \"#utility.yul\":1413:1418   */\n      dup2\n        /* \"#utility.yul\":1406:1418   */\n      swap1\n      pop\n        /* \"#utility.yul\":1364:1424   */\n      swap2\n      swap1\n      pop\n      jump\t// out\n        /* \"#utility.yul\":1430:1590   */\n    tag_29:\n        /* \"#utility.yul\":1489:1498   */\n      0x00\n        /* \"#utility.yul\":1522:1584   */\n      tag_58\n        /* \"#utility.yul\":1539:1583   */\n      tag_59\n        /* \"#utility.yul\":1548:1582   */\n      tag_60\n        /* \"#utility.yul\":1576:1581   */\n      dup5\n        /* \"#utility.yul\":1548:1582   */\n      tag_26\n      jump\t// in\n    tag_60:\n        /* \"#utility.yul\":1539:1583   */\n      tag_28\n      jump\t// in\n    tag_59:\n        /* \"#utility.yul\":1522:1584   */\n      tag_27\n      jump\t// in\n    tag_58:\n        /* \"#utility.yul\":1509:1584   */\n      swap1\n      pop\n        /* \"#utility.yul\":1430:1590   */\n      swap2\n      swap1\n      pop\n      jump\t// out\n        /* \"#utility.yul\":1596:1745   */\n    tag_30:\n        /* \"#utility.yul\":1692:1738   */\n      tag_62\n        /* \"#utility.yul\":1732:1737   */\n      dup2\n        /* \"#utility.yul\":1692:1738   */\n      tag_29\n      jump\t// in\n    tag_62:\n        /* \"#utility.yul\":1687:1690   */\n      dup3\n        /* \"#utility.yul\":1680:1739   */\n      mstore\n        /* \"#utility.yul\":1596:1745   */\n      pop\n      pop\n      jump\t// out\n        /* \"#utility.yul\":1751:1991   */\n    tag_10:\n        /* \"#utility.yul\":1853:1857   */\n      0x00\n        /* \"#utility.yul\":1891:1893   */\n      0x20\n        /* \"#utility.yul\":1880:1889   */\n      dup3\n        /* \"#utility.yul\":1876:1894   */\n      add\n        /* \"#utility.yul\":1868:1894   */\n      swap1\n      pop\n        /* \"#utility.yul\":1904:1984   */\n      tag_64\n        /* \"#utility.yul\":1981:1982   */\n      0x00\n        /* \"#utility.yul\":1970:1979   */\n      dup4\n        /* \"#utility.yul\":1966:1983   */\n      add\n        /* \"#utility.yul\":1957:1963   */\n      dup5\n        /* \"#utility.yul\":1904:1984   */\n      tag_30\n      jump\t// in\n    tag_64:\n        /* \"#utility.yul\":1751:1991   */\n      swap3\n      swap2\n      pop\n      pop\n      jump\t// out\n        /* \"#utility.yul\":1997:2095   */\n    tag_31:\n        /* \"#utility.yul\":2048:2054   */\n      0x00\n        /* \"#utility.yul\":2082:2087   */\n      dup2\n        /* \"#utility.yul\":2076:2088   */\n      mload\n        /* \"#utility.yul\":2066:2088   */\n      swap1\n      pop\n        /* \"#utility.yul\":1997:2095   */\n      swap2\n      swap1\n      pop\n      jump\t// out\n        /* \"#utility.yul\":2101:2248   */\n    tag_32:\n        /* \"#utility.yul\":2202:2213   */\n      0x00\n        /* \"#utility.yul\":2239:2242   */\n      dup2\n        /* \"#utility.yul\":2224:2242   */\n      swap1\n      pop\n        /* \"#utility.yul\":2101:2248   */\n      swap3\n      swap2\n      pop\n      pop\n      jump\t// out\n        /* \"#utility.yul\":2254:2393   */\n    tag_33:\n        /* \"#utility.yul\":2343:2349   */\n      dup3\n        /* \"#utility.yul\":2338:2341   */\n      dup2\n        /* \"#utility.yul\":2333:2336   */\n      dup4\n        /* \"#utility.yul\":2327:2350   */\n      mcopy\n        /* \"#utility.yul\":2384:2385   */\n      0x00\n        /* \"#utility.yul\":2375:2381   */\n      dup4\n        /* \"#utility.yul\":2370:2373   */\n      dup4\n        /* \"#utility.yul\":2366:2382   */\n      add\n        /* \"#utility.yul\":2359:2386   */\n      mstore\n        /* \"#utility.yul\":2254:2393   */\n      pop\n      pop\n      pop\n      jump\t// out\n        /* \"#utility.yul\":2399:2785   */\n    tag_34:\n        /* \"#utility.yul\":2503:2506   */\n      0x00\n        /* \"#utility.yul\":2531:2569   */\n      tag_69\n        /* \"#utility.yul\":2563:2568   */\n      dup3\n        /* \"#utility.yul\":2531:2569   */\n      tag_31\n      jump\t// in\n    tag_69:\n        /* \"#utility.yul\":2585:2673   */\n      tag_70\n        /* \"#utility.yul\":2666:2672   */\n      dup2\n        /* \"#utility.yul\":2661:2664   */\n      dup6\n        /* \"#utility.yul\":2585:2673   */\n      tag_32\n      jump\t// in\n    tag_70:\n        /* \"#utility.yul\":2578:2673   */\n      swap4\n      pop\n        /* \"#utility.yul\":2682:2747   */\n      tag_71\n        /* \"#utility.yul\":2740:2746   */\n      dup2\n        /* \"#utility.yul\":2735:2738   */\n      dup6\n        /* \"#utility.yul\":2728:2732   */\n      0x20\n        /* \"#utility.yul\":2721:2726   */\n      dup7\n        /* \"#utility.yul\":2717:2733   */\n      add\n        /* \"#utility.yul\":2682:2747   */\n      tag_33\n      jump\t// in\n    tag_71:\n        /* \"#utility.yul\":2772:2778   */\n      dup1\n        /* \"#utility.yul\":2767:2770   */\n      dup5\n        /* \"#utility.yul\":2763:2779   */\n      add\n        /* \"#utility.yul\":2756:2779   */\n      swap2\n      pop\n        /* \"#utility.yul\":2507:2785   */\n      pop\n        /* \"#utility.yul\":2399:2785   */\n      swap3\n      swap2\n      pop\n      pop\n      jump\t// out\n        /* \"#utility.yul\":2791:3062   */\n    tag_12:\n        /* \"#utility.yul\":2921:2924   */\n      0x00\n        /* \"#utility.yul\":2943:3036   */\n      tag_73\n        /* \"#utility.yul\":3032:3035   */\n      dup3\n        /* \"#utility.yul\":3023:3029   */\n      dup5\n        /* \"#utility.yul\":2943:3036   */\n      tag_34\n      jump\t// in\n    tag_73:\n        /* \"#utility.yul\":2936:3036   */\n      swap2\n      pop\n        /* \"#utility.yul\":3053:3056   */\n      dup2\n        /* \"#utility.yul\":3046:3056   */\n      swap1\n      pop\n        /* \"#utility.yul\":2791:3062   */\n      swap3\n      swap2\n      pop\n      pop\n      jump\t// out\n        /* \"#utility.yul\":3068:3237   */\n    tag_35:\n        /* \"#utility.yul\":3152:3163   */\n      0x00\n        /* \"#utility.yul\":3186:3192   */\n      dup3\n        /* \"#utility.yul\":3181:3184   */\n      dup3\n        /* \"#utility.yul\":3174:3193   */\n      mstore\n        /* \"#utility.yul\":3226:3230   */\n      0x20\n        /* \"#utility.yul\":3221:3224   */\n      dup3\n        /* \"#utility.yul\":3217:3231   */\n      add\n        /* \"#utility.yul\":3202:3231   */\n      swap1\n      pop\n        /* \"#utility.yul\":3068:3237   */\n      swap3\n      swap2\n      pop\n      pop\n      jump\t// out\n        /* \"#utility.yul\":3243:3413   */\n    tag_36:\n        /* \"#utility.yul\":3383:3405   */\n      0x64656c656761746563616c6c206661696c656421000000000000000000000000\n        /* \"#utility.yul\":3379:3380   */\n      0x00\n        /* \"#utility.yul\":3371:3377   */\n      dup3\n        /* \"#utility.yul\":3367:3381   */\n      add\n        /* \"#utility.yul\":3360:3406   */\n      mstore\n        /* \"#utility.yul\":3243:3413   */\n      pop\n      jump\t// out\n        /* \"#utility.yul\":3419:3785   */\n    tag_37:\n        /* \"#utility.yul\":3561:3564   */\n      0x00\n        /* \"#utility.yul\":3582:3649   */\n      tag_77\n        /* \"#utility.yul\":3646:3648   */\n      0x14\n        /* \"#utility.yul\":3641:3644   */\n      dup4\n        /* \"#utility.yul\":3582:3649   */\n      tag_35\n      jump\t// in\n    tag_77:\n        /* \"#utility.yul\":3575:3649   */\n      swap2\n      pop\n        /* \"#utility.yul\":3658:3751   */\n      tag_78\n        /* \"#utility.yul\":3747:3750   */\n      dup3\n        /* \"#utility.yul\":3658:3751   */\n      tag_36\n      jump\t// in\n    tag_78:\n        /* \"#utility.yul\":3776:3778   */\n      0x20\n        /* \"#utility.yul\":3771:3774   */\n      dup3\n        /* \"#utility.yul\":3767:3779   */\n      add\n        /* \"#utility.yul\":3760:3779   */\n      swap1\n      pop\n        /* \"#utility.yul\":3419:3785   */\n      swap2\n      swap1\n      pop\n      jump\t// out\n        /* \"#utility.yul\":3791:4210   */\n    tag_18:\n        /* \"#utility.yul\":3957:3961   */\n      0x00\n        /* \"#utility.yul\":3995:3997   */\n      0x20\n        /* \"#utility.yul\":3984:3993   */\n      dup3\n        /* \"#utility.yul\":3980:3998   */\n      add\n        /* \"#utility.yul\":3972:3998   */\n      swap1\n      pop\n        /* \"#utility.yul\":4044:4053   */\n      dup2\n        /* \"#utility.yul\":4038:4042   */\n      dup2\n        /* \"#utility.yul\":4034:4054   */\n      sub\n        /* \"#utility.yul\":4030:4031   */\n      0x00\n        /* \"#utility.yul\":4019:4028   */\n      dup4\n        /* \"#utility.yul\":4015:4032   */\n      add\n        /* \"#utility.yul\":4008:4055   */\n      mstore\n        /* \"#utility.yul\":4072:4203   */\n      tag_80\n        /* \"#utility.yul\":4198:4202   */\n      dup2\n        /* \"#utility.yul\":4072:4203   */\n      tag_37\n      jump\t// in\n    tag_80:\n        /* \"#utility.yul\":4064:4203   */\n      swap1\n      pop\n        /* \"#utility.yul\":3791:4210   */\n      swap2\n      swap1\n      pop\n      jump\t// out\n\n    auxdata: 0xa2646970667358221220e871ffa8bf4ce2c44e18ea58eb2a43a12e386c05061c10c3dbca6d085b652fc664736f6c63430008220033\n}\n",
				"bytecode": {
					"linkReferences": {},
					"object": "6080604052348015600e575f5ffd5b5061038b8061001c5f395ff3fe608060405234801561000f575f5ffd5b5060043610610029575f3560e01c80638a59c5a61461002d575b5f5ffd5b610047600480360381019061004291906101e2565b610049565b005b5f8173ffffffffffffffffffffffffffffffffffffffff16610378604051602401610074919061025c565b6040516020818303038152906040527f55241077000000000000000000000000000000000000000000000000000000007bffffffffffffffffffffffffffffffffffffffffffffffffffffffff19166020820180517bffffffffffffffffffffffffffffffffffffffffffffffffffffffff83818316178352505050506040516100fe91906102c7565b5f604051808303815f865af19150503d805f8114610137576040519150601f19603f3d011682016040523d82523d5f602084013e61013c565b606091505b5050905080610180576040517f08c379a000000000000000000000000000000000000000000000000000000000815260040161017790610337565b60405180910390fd5b5050565b5f5ffd5b5f73ffffffffffffffffffffffffffffffffffffffff82169050919050565b5f6101b182610188565b9050919050565b6101c1816101a7565b81146101cb575f5ffd5b50565b5f813590506101dc816101b8565b92915050565b5f602082840312156101f7576101f6610184565b5b5f610204848285016101ce565b91505092915050565b5f819050919050565b5f61ffff82169050919050565b5f819050919050565b5f61024661024161023c8461020d565b610223565b610216565b9050919050565b6102568161022c565b82525050565b5f60208201905061026f5f83018461024d565b92915050565b5f81519050919050565b5f81905092915050565b8281835e5f83830152505050565b5f6102a182610275565b6102ab818561027f565b93506102bb818560208601610289565b80840191505092915050565b5f6102d28284610297565b915081905092915050565b5f82825260208201905092915050565b7f64656c656761746563616c6c206661696c6564210000000000000000000000005f82015250565b5f6103216014836102dd565b915061032c826102ed565b602082019050919050565b5f6020820190508181035f83015261034e81610315565b905091905056fea2646970667358221220e871ffa8bf4ce2c44e18ea58eb2a43a12e386c05061c10c3dbca6d085b652fc664736f6c63430008220033",
					"opcodes": "PUSH1 0x80 PUSH1 0x40 MSTORE CALLVALUE DUP1 ISZERO PUSH1 0xE JUMPI PUSH0 PUSH0 REVERT JUMPDEST POP PUSH2 0x38B DUP1 PUSH2 0x1C PUSH0 CODECOPY PUSH0 RETURN INVALID PUSH1 0x80 PUSH1 0x40 MSTORE CALLVALUE DUP1 ISZERO PUSH2 0xF JUMPI PUSH0 PUSH0 REVERT JUMPDEST POP PUSH1 0x4 CALLDATASIZE LT PUSH2 0x29 JUMPI PUSH0 CALLDATALOAD PUSH1 0xE0 SHR DUP1 PUSH4 0x8A59C5A6 EQ PUSH2 0x2D JUMPI JUMPDEST PUSH0 PUSH0 REVERT JUMPDEST PUSH2 0x47 PUSH1 0x4 DUP1 CALLDATASIZE SUB DUP2 ADD SWAP1 PUSH2 0x42 SWAP2 SWAP1 PUSH2 0x1E2 JUMP JUMPDEST PUSH2 0x49 JUMP JUMPDEST STOP JUMPDEST PUSH0 DUP2 PUSH20 0xFFFFFFFFFFFFFFFFFFFFFFFFFFFFFFFFFFFFFFFF AND PUSH2 0x378 PUSH1 0x40 MLOAD PUSH1 0x24 ADD PUSH2 0x74 SWAP2 SWAP1 PUSH2 0x25C JUMP JUMPDEST PUSH1 0x40 MLOAD PUSH1 0x20 DUP2 DUP4 SUB SUB DUP2 MSTORE SWAP1 PUSH1 0x40 MSTORE PUSH32 0x5524107700000000000000000000000000000000000000000000000000000000 PUSH28 0xFFFFFFFFFFFFFFFFFFFFFFFFFFFFFFFFFFFFFFFFFFFFFFFFFFFFFFFF NOT AND PUSH1 0x20 DUP3 ADD DUP1 MLOAD PUSH28 0xFFFFFFFFFFFFFFFFFFFFFFFFFFFFFFFFFFFFFFFFFFFFFFFFFFFFFFFF DUP4 DUP2 DUP4 AND OR DUP4 MSTORE POP POP POP POP PUSH1 0x40 MLOAD PUSH2 0xFE SWAP2 SWAP1 PUSH2 0x2C7 JUMP JUMPDEST PUSH0 PUSH1 0x40 MLOAD DUP1 DUP4 SUB DUP2 PUSH0 DUP7 GAS CALL SWAP2 POP POP RETURNDATASIZE DUP1 PUSH0 DUP2 EQ PUSH2 0x137 JUMPI PUSH1 0x40 MLOAD SWAP2 POP PUSH1 0x1F NOT PUSH1 0x3F RETURNDATASIZE ADD AND DUP3 ADD PUSH1 0x40 MSTORE RETURNDATASIZE DUP3 MSTORE RETURNDATASIZE PUSH0 PUSH1 0x20 DUP5 ADD RETURNDATACOPY PUSH2 0x13C JUMP JUMPDEST PUSH1 0x60 SWAP2 POP JUMPDEST POP POP SWAP1 POP DUP1 PUSH2 0x180 JUMPI PUSH1 0x40 MLOAD PUSH32 0x8C379A000000000000000000000000000000000000000000000000000000000 DUP2 MSTORE PUSH1 0x4 ADD PUSH2 0x177 SWAP1 PUSH2 0x337 JUMP JUMPDEST PUSH1 0x40 MLOAD DUP1 SWAP2 SUB SWAP1 REVERT JUMPDEST POP POP JUMP JUMPDEST PUSH0 PUSH0 REVERT JUMPDEST PUSH0 PUSH20 0xFFFFFFFFFFFFFFFFFFFFFFFFFFFFFFFFFFFFFFFF DUP3 AND SWAP1 POP SWAP2 SWAP1 POP JUMP JUMPDEST PUSH0 PUSH2 0x1B1 DUP3 PUSH2 0x188 JUMP JUMPDEST SWAP1 POP SWAP2 SWAP1 POP JUMP JUMPDEST PUSH2 0x1C1 DUP2 PUSH2 0x1A7 JUMP JUMPDEST DUP2 EQ PUSH2 0x1CB JUMPI PUSH0 PUSH0 REVERT JUMPDEST POP JUMP JUMPDEST PUSH0 DUP2 CALLDATALOAD SWAP1 POP PUSH2 0x1DC DUP2 PUSH2 0x1B8 JUMP JUMPDEST SWAP3 SWAP2 POP POP JUMP JUMPDEST PUSH0 PUSH1 0x20 DUP3 DUP5 SUB SLT ISZERO PUSH2 0x1F7 JUMPI PUSH2 0x1F6 PUSH2 0x184 JUMP JUMPDEST JUMPDEST PUSH0 PUSH2 0x204 DUP5 DUP3 DUP6 ADD PUSH2 0x1CE JUMP JUMPDEST SWAP2 POP POP SWAP3 SWAP2 POP POP JUMP JUMPDEST PUSH0 DUP2 SWAP1 POP SWAP2 SWAP1 POP JUMP JUMPDEST PUSH0 PUSH2 0xFFFF DUP3 AND SWAP1 POP SWAP2 SWAP1 POP JUMP JUMPDEST PUSH0 DUP2 SWAP1 POP SWAP2 SWAP1 POP JUMP JUMPDEST PUSH0 PUSH2 0x246 PUSH2 0x241 PUSH2 0x23C DUP5 PUSH2 0x20D JUMP JUMPDEST PUSH2 0x223 JUMP JUMPDEST PUSH2 0x216 JUMP JUMPDEST SWAP1 POP SWAP2 SWAP1 POP JUMP JUMPDEST PUSH2 0x256 DUP2 PUSH2 0x22C JUMP JUMPDEST DUP3 MSTORE POP POP JUMP JUMPDEST PUSH0 PUSH1 0x20 DUP3 ADD SWAP1 POP PUSH2 0x26F PUSH0 DUP4 ADD DUP5 PUSH2 0x24D JUMP JUMPDEST SWAP3 SWAP2 POP POP JUMP JUMPDEST PUSH0 DUP2 MLOAD SWAP1 POP SWAP2 SWAP1 POP JUMP JUMPDEST PUSH0 DUP2 SWAP1 POP SWAP3 SWAP2 POP POP JUMP JUMPDEST DUP3 DUP2 DUP4 MCOPY PUSH0 DUP4 DUP4 ADD MSTORE POP POP POP JUMP JUMPDEST PUSH0 PUSH2 0x2A1 DUP3 PUSH2 0x275 JUMP JUMPDEST PUSH2 0x2AB DUP2 DUP6 PUSH2 0x27F JUMP JUMPDEST SWAP4 POP PUSH2 0x2BB DUP2 DUP6 PUSH1 0x20 DUP7 ADD PUSH2 0x289 JUMP JUMPDEST DUP1 DUP5 ADD SWAP2 POP POP SWAP3 SWAP2 POP POP JUMP JUMPDEST PUSH0 PUSH2 0x2D2 DUP3 DUP5 PUSH2 0x297 JUMP JUMPDEST SWAP2 POP DUP2 SWAP1 POP SWAP3 SWAP2 POP POP JUMP JUMPDEST PUSH0 DUP3 DUP3 MSTORE PUSH1 0x20 DUP3 ADD SWAP1 POP SWAP3 SWAP2 POP POP JUMP JUMPDEST PUSH32 0x64656C656761746563616C6C206661696C656421000000000000000000000000 PUSH0 DUP3 ADD MSTORE POP JUMP JUMPDEST PUSH0 PUSH2 0x321 PUSH1 0x14 DUP4 PUSH2 0x2DD JUMP JUMPDEST SWAP2 POP PUSH2 0x32C DUP3 PUSH2 0x2ED JUMP JUMPDEST PUSH1 0x20 DUP3 ADD SWAP1 POP SWAP2 SWAP1 POP JUMP JUMPDEST PUSH0 PUSH1 0x20 DUP3 ADD SWAP1 POP DUP2 DUP2 SUB PUSH0 DUP4 ADD MSTORE PUSH2 0x34E DUP2 PUSH2 0x315 JUMP JUMPDEST SWAP1 POP SWAP2 SWAP1 POP JUMP INVALID LOG2 PUSH5 0x6970667358 0x22 SLT KECCAK256 0xE8 PUSH18 0xFFA8BF4CE2C44E18EA58EB2A43A12E386C05 MOD SHR LT 0xC3 0xDB 0xCA PUSH14 0x85B652FC664736F6C6343000822 STOP CALLER "
				},
				"gasEstimates": {
					"creation": {
						"codeDepositCost": "181400",
						"executionCost": "224",
						"totalCost": "181624"
					},
					"external": {
						"testDelegateCall(address)": "infinite"
					}
				},
				"methodIdentifiers": {
					"testDelegateCall(address)": "8a59c5a6"
				}
			},
			"storageLayout": {
				"storage": [],
				"types": null
			},
			"userdoc": {
				"kind": "user",
				"methods": {},
				"version": 1
			}
		}
	}
}