{
	"lession8.1-Invocation/delegatecall/Proxy.sol": {
		"Proxy": {
			"abi": [
				{
					"inputs": [
						{
							"internalType": "address",
							"name": "_implementation",
							"type": "address"
						}
					],
					"stateMutability": "nonpayable",
					"type": "constructor"
				},
				{
					"anonymous": false,
					"inputs": [
						{
							"indexed": true,
							"internalType": "address",
							"name": "newImplementation",
							"type": "address"
						}
					],
					"name": "Upgraded",
					"type": "event"
				},
				{
					"stateMutability": "payable",
					"type": "fallback"
				},
				{
					"inputs": [],
					"name": "implementation",
					"outputs": [
						{
							"internalType": "address",
							"name": "",
							"type": "address"
						}
					],
					"stateMutability": "view",
					"type": "function"
				},
				{
					"inputs": [],
					"name": "owner",
					"outputs": [
						{
							"internalType": "address",
							"name": "",
							"type": "address"
						}
					],
					"stateMutability": "view",
					"type": "function"
				},
				{
					"inputs": [
						{
							"internalType": "address",
							"name": "newImplementation",
							"type": "address"
						}
					],
					"name": "upgrade",
					"outputs": [],
					"stateMutability": "nonpayable",
					"type": "function"
				},
				{
					"inputs": [],
					"name": "value",
					"outputs": [
						{
							"internalType": "uint256",
							"name": "",
							"type": "uint256"
						}
					],
					"stateMutability": "view",
					"type": "function"
				},
				{
					"stateMutability": "payable",
					"type": "receive"
				}
			],
			"devdoc": {
				"kind": "dev",
				"methods": {
					"upgrade(address)": {
						"params": {
							"newImplementation": "新的逻辑合约地址"
						}
					}
				},
				"version": 1
			},
			"evm": {
				"assembly": "    /* \"lession8.1-Invocation/delegatecall/Proxy.sol\":57:1890  contract Proxy {... */\n  mstore(0x40, 0x80)\n    /* \"lession8.1-Invocation/delegatecall/Proxy.sol\":441:555  constructor(address _implementation) {... */\n  callvalue\n  dup1\n  iszero\n  tag_1\n  jumpi\n  revert(0x00, 0x00)\ntag_1:\n  pop\n  mload(0x40)\n  sub(codesize, bytecodeSize)\n  dup1\n  bytecodeSize\n  dup4\n  codecopy\n  dup2\n  dup2\n  add\n  0x40\n  mstore\n  dup2\n  add\n  swap1\n  tag_2\n  swap2\n  swap1\n  tag_3\n  jump\t// in\ntag_2:\n    /* \"lession8.1-Invocation/delegatecall/Proxy.sol\":505:520  _implementation */\n  dup1\n    /* \"lession8.1-Invocation/delegatecall/Proxy.sol\":488:502  implementation */\n  0x00\n  0x00\n    /* \"lession8.1-Invocation/delegatecall/Proxy.sol\":488:520  implementation = _implementation */\n  0x0100\n  exp\n  dup2\n  sload\n  dup2\n  0xffffffffffffffffffffffffffffffffffffffff\n  mul\n  not\n  and\n  swap1\n  dup4\n  0xffffffffffffffffffffffffffffffffffffffff\n  and\n  mul\n  or\n  swap1\n  sstore\n  pop\n    /* \"lession8.1-Invocation/delegatecall/Proxy.sol\":538:548  msg.sender */\n  caller\n    /* \"lession8.1-Invocation/delegatecall/Proxy.sol\":530:535  owner */\n  0x02\n  0x00\n    /* \"lession8.1-Invocation/delegatecall/Proxy.sol\":530:548  owner = msg.sender */\n  0x0100\n  exp\n  dup2\n  sload\n  dup2\n  0xffffffffffffffffffffffffffffffffffffffff\n  mul\n  not\n  and\n  swap1\n  dup4\n  0xffffffffffffffffffffffffffffffffffffffff\n  and\n  mul\n  or\n  swap1\n  sstore\n  pop\n    /* \"lession8.1-Invocation/delegatecall/Proxy.sol\":441:555  constructor(address _implementation) {... */\n  pop\n    /* \"lession8.1-Invocation/delegatecall/Proxy.sol\":57:1890  contract Proxy {... */\n  jump(tag_6)\n    /* \"#utility.yul\":88:205   */\ntag_8:\n    /* \"#utility.yul\":197:198   */\n  0x00\n    /* \"#utility.yul\":194:195   */\n  0x00\n    /* \"#utility.yul\":187:199   */\n  revert\n    /* \"#utility.yul\":334:460   */\ntag_10:\n    /* \"#utility.yul\":371:378   */\n  0x00\n    /* \"#utility.yul\":411:453   */\n  0xffffffffffffffffffffffffffffffffffffffff\n    /* \"#utility.yul\":404:409   */\n  dup3\n    /* \"#utility.yul\":400:454   */\n  and\n    /* \"#utility.yul\":389:454   */\n  swap1\n  pop\n    /* \"#utility.yul\":334:460   */\n  swap2\n  swap1\n  pop\n  jump\t// out\n    /* \"#utility.yul\":466:562   */\ntag_11:\n    /* \"#utility.yul\":503:510   */\n  0x00\n    /* \"#utility.yul\":532:556   */\n  tag_20\n    /* \"#utility.yul\":550:555   */\n  dup3\n    /* \"#utility.yul\":532:556   */\n  tag_10\n  jump\t// in\ntag_20:\n    /* \"#utility.yul\":521:556   */\n  swap1\n  pop\n    /* \"#utility.yul\":466:562   */\n  swap2\n  swap1\n  pop\n  jump\t// out\n    /* \"#utility.yul\":568:690   */\ntag_12:\n    /* \"#utility.yul\":641:665   */\n  tag_22\n    /* \"#utility.yul\":659:664   */\n  dup2\n    /* \"#utility.yul\":641:665   */\n  tag_11\n  jump\t// in\ntag_22:\n    /* \"#utility.yul\":634:639   */\n  dup2\n    /* \"#utility.yul\":631:666   */\n  eq\n    /* \"#utility.yul\":621:684   */\n  tag_23\n  jumpi\n    /* \"#utility.yul\":680:681   */\n  0x00\n    /* \"#utility.yul\":677:678   */\n  0x00\n    /* \"#utility.yul\":670:682   */\n  revert\n    /* \"#utility.yul\":621:684   */\ntag_23:\n    /* \"#utility.yul\":568:690   */\n  pop\n  jump\t// out\n    /* \"#utility.yul\":696:839   */\ntag_13:\n    /* \"#utility.yul\":753:758   */\n  0x00\n    /* \"#utility.yul\":784:790   */\n  dup2\n    /* \"#utility.yul\":778:791   */\n  mload\n    /* \"#utility.yul\":769:791   */\n  swap1\n  pop\n    /* \"#utility.yul\":800:833   */\n  tag_25\n    /* \"#utility.yul\":827:832   */\n  dup2\n    /* \"#utility.yul\":800:833   */\n  tag_12\n  jump\t// in\ntag_25:\n    /* \"#utility.yul\":696:839   */\n  swap3\n  swap2\n  pop\n  pop\n  jump\t// out\n    /* \"#utility.yul\":845:1196   */\ntag_3:\n    /* \"#utility.yul\":915:921   */\n  0x00\n    /* \"#utility.yul\":964:966   */\n  0x20\n    /* \"#utility.yul\":952:961   */\n  dup3\n    /* \"#utility.yul\":943:950   */\n  dup5\n    /* \"#utility.yul\":939:962   */\n  sub\n    /* \"#utility.yul\":935:967   */\n  slt\n    /* \"#utility.yul\":932:1051   */\n  iszero\n  tag_27\n  jumpi\n    /* \"#utility.yul\":970:1049   */\n  tag_28\n  tag_8\n  jump\t// in\ntag_28:\n    /* \"#utility.yul\":932:1051   */\ntag_27:\n    /* \"#utility.yul\":1090:1091   */\n  0x00\n    /* \"#utility.yul\":1115:1179   */\n  tag_29\n    /* \"#utility.yul\":1171:1178   */\n  dup5\n    /* \"#utility.yul\":1162:1168   */\n  dup3\n    /* \"#utility.yul\":1151:1160   */\n  dup6\n    /* \"#utility.yul\":1147:1169   */\n  add\n    /* \"#utility.yul\":1115:1179   */\n  tag_13\n  jump\t// in\ntag_29:\n    /* \"#utility.yul\":1105:1179   */\n  swap2\n  pop\n    /* \"#utility.yul\":1061:1189   */\n  pop\n    /* \"#utility.yul\":845:1196   */\n  swap3\n  swap2\n  pop\n  pop\n  jump\t// out\n    /* \"lession8.1-Invocation/delegatecall/Proxy.sol\":57:1890  contract Proxy {... */\ntag_6:\n  dataSize(sub_0)\n  dup1\n  dataOffset(sub_0)\n  0x00\n  codecopy\n  0x00\n  return\nstop\n\nsub_0: assembly {\n        /* \"lession8.1-Invocation/delegatecall/Proxy.sol\":57:1890  contract Proxy {... */\n      mstore(0x40, 0x80)\n      jumpi(tag_1, lt(calldatasize, 0x04))\n      shr(0xe0, calldataload(0x00))\n      dup1\n      0x0900f010\n      eq\n      tag_3\n      jumpi\n      dup1\n      0x3fa4f245\n      eq\n      tag_4\n      jumpi\n      dup1\n      0x5c60da1b\n      eq\n      tag_5\n      jumpi\n      dup1\n      0x8da5cb5b\n      eq\n      tag_6\n      jumpi\n      jump(tag_2)\n    tag_1:\n      jumpi(tag_2, calldatasize)\n      stop\n    tag_2:\n        /* \"lession8.1-Invocation/delegatecall/Proxy.sol\":1114:1126  address impl */\n      0x00\n        /* \"lession8.1-Invocation/delegatecall/Proxy.sol\":1129:1143  implementation */\n      0x00\n      0x00\n      swap1\n      sload\n      swap1\n      0x0100\n      exp\n      swap1\n      div\n      0xffffffffffffffffffffffffffffffffffffffff\n      and\n        /* \"lession8.1-Invocation/delegatecall/Proxy.sol\":1114:1143  address impl = implementation */\n      swap1\n      pop\n        /* \"lession8.1-Invocation/delegatecall/Proxy.sol\":1177:1178  0 */\n      0x00\n        /* \"lession8.1-Invocation/delegatecall/Proxy.sol\":1161:1179  impl != address(0) */\n      0xffffffffffffffffffffffffffffffffffffffff\n      and\n        /* \"lession8.1-Invocation/delegatecall/Proxy.sol\":1161:1165  impl */\n      dup2\n        /* \"lession8.1-Invocation/delegatecall/Proxy.sol\":1161:1179  impl != address(0) */\n      0xffffffffffffffffffffffffffffffffffffffff\n      and\n      sub\n        /* \"lession8.1-Invocation/delegatecall/Proxy.sol\":1153:1207  require(impl != address(0), \"Implementation not set!\") */\n      tag_11\n      jumpi\n      mload(0x40)\n      0x08c379a000000000000000000000000000000000000000000000000000000000\n      dup2\n      mstore\n      0x04\n      add\n      tag_12\n      swap1\n      tag_13\n      jump\t// in\n    tag_12:\n      mload(0x40)\n      dup1\n      swap2\n      sub\n      swap1\n      revert\n    tag_11:\n        /* \"lession8.1-Invocation/delegatecall/Proxy.sol\":1433:1445  bool success */\n      0x00\n        /* \"lession8.1-Invocation/delegatecall/Proxy.sol\":1446:1469  bytes memory returnData */\n      0x00\n        /* \"lession8.1-Invocation/delegatecall/Proxy.sol\":1473:1477  impl */\n      dup3\n        /* \"lession8.1-Invocation/delegatecall/Proxy.sol\":1473:1490  impl.delegatecall */\n      0xffffffffffffffffffffffffffffffffffffffff\n      and\n        /* \"lession8.1-Invocation/delegatecall/Proxy.sol\":1491:1499  msg.data */\n      0x00\n      calldatasize\n        /* \"lession8.1-Invocation/delegatecall/Proxy.sol\":1473:1500  impl.delegatecall(msg.data) */\n      mload(0x40)\n      tag_14\n      swap3\n      swap2\n      swap1\n      tag_15\n      jump\t// in\n    tag_14:\n      0x00\n      mload(0x40)\n      dup1\n      dup4\n      sub\n      dup2\n      dup6\n      gas\n      delegatecall\n      swap2\n      pop\n      pop\n      returndatasize\n      dup1\n      0x00\n      dup2\n      eq\n      tag_18\n      jumpi\n      mload(0x40)\n      swap2\n      pop\n      and(add(returndatasize, 0x3f), not(0x1f))\n      dup3\n      add\n      0x40\n      mstore\n      returndatasize\n      dup3\n      mstore\n      returndatasize\n      0x00\n      0x20\n      dup5\n      add\n      returndatacopy\n      jump(tag_17)\n    tag_18:\n      0x60\n      swap2\n      pop\n    tag_17:\n      pop\n        /* \"lession8.1-Invocation/delegatecall/Proxy.sol\":1432:1500  (bool success,bytes memory returnData) = impl.delegatecall(msg.data) */\n      swap2\n      pop\n      swap2\n      pop\n        /* \"lession8.1-Invocation/delegatecall/Proxy.sol\":1515:1522  success */\n      dup2\n        /* \"lession8.1-Invocation/delegatecall/Proxy.sol\":1510:1709  if (!success) {... */\n      tag_19\n      jumpi\n        /* \"lession8.1-Invocation/delegatecall/Proxy.sol\":1625:1641  returndatasize() */\n      returndatasize\n        /* \"lession8.1-Invocation/delegatecall/Proxy.sol\":1623:1624  0 */\n      0x00\n        /* \"lession8.1-Invocation/delegatecall/Proxy.sol\":1621:1622  0 */\n      0x00\n        /* \"lession8.1-Invocation/delegatecall/Proxy.sol\":1606:1642  returndatacopy(0,0,returndatasize()) */\n      returndatacopy\n        /* \"lession8.1-Invocation/delegatecall/Proxy.sol\":1668:1684  returndatasize() */\n      returndatasize\n        /* \"lession8.1-Invocation/delegatecall/Proxy.sol\":1666:1667  0 */\n      0x00\n        /* \"lession8.1-Invocation/delegatecall/Proxy.sol\":1659:1685  revert(0,returndatasize()) */\n      revert\n        /* \"lession8.1-Invocation/delegatecall/Proxy.sol\":1510:1709  if (!success) {... */\n    tag_19:\n        /* \"lession8.1-Invocation/delegatecall/Proxy.sol\":1801:1811  returnData */\n      dup1\n        /* \"lession8.1-Invocation/delegatecall/Proxy.sol\":1795:1812  mload(returnData) */\n      mload\n        /* \"lession8.1-Invocation/delegatecall/Proxy.sol\":1789:1793  0x20 */\n      0x20\n        /* \"lession8.1-Invocation/delegatecall/Proxy.sol\":1778:1788  returnData */\n      dup3\n        /* \"lession8.1-Invocation/delegatecall/Proxy.sol\":1774:1794  add(returnData,0x20) */\n      add\n        /* \"lession8.1-Invocation/delegatecall/Proxy.sol\":1766:1813  return (add(returnData,0x20),mload(returnData)) */\n      return\n        /* \"lession8.1-Invocation/delegatecall/Proxy.sol\":680:878  function upgrade(address newImplementation) external {... */\n    tag_3:\n      callvalue\n      dup1\n      iszero\n      tag_20\n      jumpi\n      revert(0x00, 0x00)\n    tag_20:\n      pop\n      tag_21\n      0x04\n      dup1\n      calldatasize\n      sub\n      dup2\n      add\n      swap1\n      tag_22\n      swap2\n      swap1\n      tag_23\n      jump\t// in\n    tag_22:\n      tag_24\n      jump\t// in\n    tag_21:\n      stop\n        /* \"lession8.1-Invocation/delegatecall/Proxy.sol\":188:208  uint256 public value */\n    tag_4:\n      callvalue\n      dup1\n      iszero\n      tag_25\n      jumpi\n      revert(0x00, 0x00)\n    tag_25:\n      pop\n      tag_26\n      tag_27\n      jump\t// in\n    tag_26:\n      mload(0x40)\n      tag_28\n      swap2\n      swap1\n      tag_29\n      jump\t// in\n    tag_28:\n      mload(0x40)\n      dup1\n      swap2\n      sub\n      swap1\n      return\n        /* \"lession8.1-Invocation/delegatecall/Proxy.sol\":131:160  address public implementation */\n    tag_5:\n      callvalue\n      dup1\n      iszero\n      tag_30\n      jumpi\n      revert(0x00, 0x00)\n    tag_30:\n      pop\n      tag_31\n      tag_32\n      jump\t// in\n    tag_31:\n      mload(0x40)\n      tag_33\n      swap2\n      swap1\n      tag_34\n      jump\t// in\n    tag_33:\n      mload(0x40)\n      dup1\n      swap2\n      sub\n      swap1\n      return\n        /* \"lession8.1-Invocation/delegatecall/Proxy.sol\":247:267  address public owner */\n    tag_6:\n      callvalue\n      dup1\n      iszero\n      tag_35\n      jumpi\n      revert(0x00, 0x00)\n    tag_35:\n      pop\n      tag_36\n      tag_37\n      jump\t// in\n    tag_36:\n      mload(0x40)\n      tag_38\n      swap2\n      swap1\n      tag_34\n      jump\t// in\n    tag_38:\n      mload(0x40)\n      dup1\n      swap2\n      sub\n      swap1\n      return\n        /* \"lession8.1-Invocation/delegatecall/Proxy.sol\":680:878  function upgrade(address newImplementation) external {... */\n    tag_24:\n        /* \"lession8.1-Invocation/delegatecall/Proxy.sol\":765:770  owner */\n      0x02\n      0x00\n      swap1\n      sload\n      swap1\n      0x0100\n      exp\n      swap1\n      div\n      0xffffffffffffffffffffffffffffffffffffffff\n      and\n        /* \"lession8.1-Invocation/delegatecall/Proxy.sol\":751:770  msg.sender == owner */\n      0xffffffffffffffffffffffffffffffffffffffff\n      and\n        /* \"lession8.1-Invocation/delegatecall/Proxy.sol\":751:761  msg.sender */\n      caller\n        /* \"lession8.1-Invocation/delegatecall/Proxy.sol\":751:770  msg.sender == owner */\n      0xffffffffffffffffffffffffffffffffffffffff\n      and\n      eq\n        /* \"lession8.1-Invocation/delegatecall/Proxy.sol\":743:785  require(msg.sender == owner, \"Not owner!\") */\n      tag_40\n      jumpi\n      mload(0x40)\n      0x08c379a000000000000000000000000000000000000000000000000000000000\n      dup2\n      mstore\n      0x04\n      add\n      tag_41\n      swap1\n      tag_42\n      jump\t// in\n    tag_41:\n      mload(0x40)\n      dup1\n      swap2\n      sub\n      swap1\n      revert\n    tag_40:\n        /* \"lession8.1-Invocation/delegatecall/Proxy.sol\":812:829  newImplementation */\n      dup1\n        /* \"lession8.1-Invocation/delegatecall/Proxy.sol\":795:809  implementation */\n      0x00\n      0x00\n        /* \"lession8.1-Invocation/delegatecall/Proxy.sol\":795:829  implementation = newImplementation */\n      0x0100\n      exp\n      dup2\n      sload\n      dup2\n      0xffffffffffffffffffffffffffffffffffffffff\n      mul\n      not\n      and\n      swap1\n      dup4\n      0xffffffffffffffffffffffffffffffffffffffff\n      and\n      mul\n      or\n      swap1\n      sstore\n      pop\n        /* \"lession8.1-Invocation/delegatecall/Proxy.sol\":853:870  newImplementation */\n      dup1\n        /* \"lession8.1-Invocation/delegatecall/Proxy.sol\":844:871  Upgraded(newImplementation) */\n      0xffffffffffffffffffffffffffffffffffffffff\n      and\n      0xbc7cd75a20ee27fd9adebab32041f755214dbc6bffa90cc0225b39da2e5c2d3b\n      mload(0x40)\n      mload(0x40)\n      dup1\n      swap2\n      sub\n      swap1\n      log2\n        /* \"lession8.1-Invocation/delegatecall/Proxy.sol\":680:878  function upgrade(address newImplementation) external {... */\n      pop\n      jump\t// out\n        /* \"lession8.1-Invocation/delegatecall/Proxy.sol\":188:208  uint256 public value */\n    tag_27:\n      sload(0x01)\n      dup2\n      jump\t// out\n        /* \"lession8.1-Invocation/delegatecall/Proxy.sol\":131:160  address public implementation */\n    tag_32:\n      0x00\n      0x00\n      swap1\n      sload\n      swap1\n      0x0100\n      exp\n      swap1\n      div\n      0xffffffffffffffffffffffffffffffffffffffff\n      and\n      dup2\n      jump\t// out\n        /* \"lession8.1-Invocation/delegatecall/Proxy.sol\":247:267  address public owner */\n    tag_37:\n      0x02\n      0x00\n      swap1\n      sload\n      swap1\n      0x0100\n      exp\n      swap1\n      div\n      0xffffffffffffffffffffffffffffffffffffffff\n      and\n      dup2\n      jump\t// out\n        /* \"#utility.yul\":7:176   */\n    tag_43:\n        /* \"#utility.yul\":91:102   */\n      0x00\n        /* \"#utility.yul\":125:131   */\n      dup3\n        /* \"#utility.yul\":120:123   */\n      dup3\n        /* \"#utility.yul\":113:132   */\n      mstore\n        /* \"#utility.yul\":165:169   */\n      0x20\n        /* \"#utility.yul\":160:163   */\n      dup3\n        /* \"#utility.yul\":156:170   */\n      add\n        /* \"#utility.yul\":141:170   */\n      swap1\n      pop\n        /* \"#utility.yul\":7:176   */\n      swap3\n      swap2\n      pop\n      pop\n      jump\t// out\n        /* \"#utility.yul\":182:355   */\n    tag_44:\n        /* \"#utility.yul\":322:347   */\n      0x496d706c656d656e746174696f6e206e6f742073657421000000000000000000\n        /* \"#utility.yul\":318:319   */\n      0x00\n        /* \"#utility.yul\":310:316   */\n      dup3\n        /* \"#utility.yul\":306:320   */\n      add\n        /* \"#utility.yul\":299:348   */\n      mstore\n        /* \"#utility.yul\":182:355   */\n      pop\n      jump\t// out\n        /* \"#utility.yul\":361:727   */\n    tag_45:\n        /* \"#utility.yul\":503:506   */\n      0x00\n        /* \"#utility.yul\":524:591   */\n      tag_65\n        /* \"#utility.yul\":588:590   */\n      0x17\n        /* \"#utility.yul\":583:586   */\n      dup4\n        /* \"#utility.yul\":524:591   */\n      tag_43\n      jump\t// in\n    tag_65:\n        /* \"#utility.yul\":517:591   */\n      swap2\n      pop\n        /* \"#utility.yul\":600:693   */\n      tag_66\n        /* \"#utility.yul\":689:692   */\n      dup3\n        /* \"#utility.yul\":600:693   */\n      tag_44\n      jump\t// in\n    tag_66:\n        /* \"#utility.yul\":718:720   */\n      0x20\n        /* \"#utility.yul\":713:716   */\n      dup3\n        /* \"#utility.yul\":709:721   */\n      add\n        /* \"#utility.yul\":702:721   */\n      swap1\n      pop\n        /* \"#utility.yul\":361:727   */\n      swap2\n      swap1\n      pop\n      jump\t// out\n        /* \"#utility.yul\":733:1152   */\n    tag_13:\n        /* \"#utility.yul\":899:903   */\n      0x00\n        /* \"#utility.yul\":937:939   */\n      0x20\n        /* \"#utility.yul\":926:935   */\n      dup3\n        /* \"#utility.yul\":922:940   */\n      add\n        /* \"#utility.yul\":914:940   */\n      swap1\n      pop\n        /* \"#utility.yul\":986:995   */\n      dup2\n        /* \"#utility.yul\":980:984   */\n      dup2\n        /* \"#utility.yul\":976:996   */\n      sub\n        /* \"#utility.yul\":972:973   */\n      0x00\n        /* \"#utility.yul\":961:970   */\n      dup4\n        /* \"#utility.yul\":957:974   */\n      add\n        /* \"#utility.yul\":950:997   */\n      mstore\n        /* \"#utility.yul\":1014:1145   */\n      tag_68\n        /* \"#utility.yul\":1140:1144   */\n      dup2\n        /* \"#utility.yul\":1014:1145   */\n      tag_45\n      jump\t// in\n    tag_68:\n        /* \"#utility.yul\":1006:1145   */\n      swap1\n      pop\n        /* \"#utility.yul\":733:1152   */\n      swap2\n      swap1\n      pop\n      jump\t// out\n        /* \"#utility.yul\":1158:1305   */\n    tag_46:\n        /* \"#utility.yul\":1259:1270   */\n      0x00\n        /* \"#utility.yul\":1296:1299   */\n      dup2\n        /* \"#utility.yul\":1281:1299   */\n      swap1\n      pop\n        /* \"#utility.yul\":1158:1305   */\n      swap3\n      swap2\n      pop\n      pop\n      jump\t// out\n        /* \"#utility.yul\":1311:1459   */\n    tag_47:\n        /* \"#utility.yul\":1409:1415   */\n      dup3\n        /* \"#utility.yul\":1404:1407   */\n      dup2\n        /* \"#utility.yul\":1399:1402   */\n      dup4\n        /* \"#utility.yul\":1386:1416   */\n      calldatacopy\n        /* \"#utility.yul\":1450:1451   */\n      0x00\n        /* \"#utility.yul\":1441:1447   */\n      dup4\n        /* \"#utility.yul\":1436:1439   */\n      dup4\n        /* \"#utility.yul\":1432:1448   */\n      add\n        /* \"#utility.yul\":1425:1452   */\n      mstore\n        /* \"#utility.yul\":1311:1459   */\n      pop\n      pop\n      pop\n      jump\t// out\n        /* \"#utility.yul\":1487:1814   */\n    tag_48:\n        /* \"#utility.yul\":1601:1604   */\n      0x00\n        /* \"#utility.yul\":1622:1710   */\n      tag_72\n        /* \"#utility.yul\":1703:1709   */\n      dup4\n        /* \"#utility.yul\":1698:1701   */\n      dup6\n        /* \"#utility.yul\":1622:1710   */\n      tag_46\n      jump\t// in\n    tag_72:\n        /* \"#utility.yul\":1615:1710   */\n      swap4\n      pop\n        /* \"#utility.yul\":1720:1776   */\n      tag_73\n        /* \"#utility.yul\":1769:1775   */\n      dup4\n        /* \"#utility.yul\":1764:1767   */\n      dup6\n        /* \"#utility.yul\":1757:1762   */\n      dup5\n        /* \"#utility.yul\":1720:1776   */\n      tag_47\n      jump\t// in\n    tag_73:\n        /* \"#utility.yul\":1801:1807   */\n      dup3\n        /* \"#utility.yul\":1796:1799   */\n      dup5\n        /* \"#utility.yul\":1792:1808   */\n      add\n        /* \"#utility.yul\":1785:1808   */\n      swap1\n      pop\n        /* \"#utility.yul\":1487:1814   */\n      swap4\n      swap3\n      pop\n      pop\n      pop\n      jump\t// out\n        /* \"#utility.yul\":1820:2111   */\n    tag_15:\n        /* \"#utility.yul\":1960:1963   */\n      0x00\n        /* \"#utility.yul\":1982:2085   */\n      tag_75\n        /* \"#utility.yul\":2081:2084   */\n      dup3\n        /* \"#utility.yul\":2072:2078   */\n      dup5\n        /* \"#utility.yul\":2064:2070   */\n      dup7\n        /* \"#utility.yul\":1982:2085   */\n      tag_48\n      jump\t// in\n    tag_75:\n        /* \"#utility.yul\":1975:2085   */\n      swap2\n      pop\n        /* \"#utility.yul\":2102:2105   */\n      dup2\n        /* \"#utility.yul\":2095:2105   */\n      swap1\n      pop\n        /* \"#utility.yul\":1820:2111   */\n      swap4\n      swap3\n      pop\n      pop\n      pop\n      jump\t// out\n        /* \"#utility.yul\":2198:2315   */\n    tag_50:\n        /* \"#utility.yul\":2307:2308   */\n      0x00\n        /* \"#utility.yul\":2304:2305   */\n      0x00\n        /* \"#utility.yul\":2297:2309   */\n      revert\n        /* \"#utility.yul\":2444:2570   */\n    tag_52:\n        /* \"#utility.yul\":2481:2488   */\n      0x00\n        /* \"#utility.yul\":2521:2563   */\n      0xffffffffffffffffffffffffffffffffffffffff\n        /* \"#utility.yul\":2514:2519   */\n      dup3\n        /* \"#utility.yul\":2510:2564   */\n      and\n        /* \"#utility.yul\":2499:2564   */\n      swap1\n      pop\n        /* \"#utility.yul\":2444:2570   */\n      swap2\n      swap1\n      pop\n      jump\t// out\n        /* \"#utility.yul\":2576:2672   */\n    tag_53:\n        /* \"#utility.yul\":2613:2620   */\n      0x00\n        /* \"#utility.yul\":2642:2666   */\n      tag_81\n        /* \"#utility.yul\":2660:2665   */\n      dup3\n        /* \"#utility.yul\":2642:2666   */\n      tag_52\n      jump\t// in\n    tag_81:\n        /* \"#utility.yul\":2631:2666   */\n      swap1\n      pop\n        /* \"#utility.yul\":2576:2672   */\n      swap2\n      swap1\n      pop\n      jump\t// out\n        /* \"#utility.yul\":2678:2800   */\n    tag_54:\n        /* \"#utility.yul\":2751:2775   */\n      tag_83\n        /* \"#utility.yul\":2769:2774   */\n      dup2\n        /* \"#utility.yul\":2751:2775   */\n      tag_53\n      jump\t// in\n    tag_83:\n        /* \"#utility.yul\":2744:2749   */\n      dup2\n        /* \"#utility.yul\":2741:2776   */\n      eq\n        /* \"#utility.yul\":2731:2794   */\n      tag_84\n      jumpi\n        /* \"#utility.yul\":2790:2791   */\n      0x00\n        /* \"#utility.yul\":2787:2788   */\n      0x00\n        /* \"#utility.yul\":2780:2792   */\n      revert\n        /* \"#utility.yul\":2731:2794   */\n    tag_84:\n        /* \"#utility.yul\":2678:2800   */\n      pop\n      jump\t// out\n        /* \"#utility.yul\":2806:2945   */\n    tag_55:\n        /* \"#utility.yul\":2852:2857   */\n      0x00\n        /* \"#utility.yul\":2890:2896   */\n      dup2\n        /* \"#utility.yul\":2877:2897   */\n      calldataload\n        /* \"#utility.yul\":2868:2897   */\n      swap1\n      pop\n        /* \"#utility.yul\":2906:2939   */\n      tag_86\n        /* \"#utility.yul\":2933:2938   */\n      dup2\n        /* \"#utility.yul\":2906:2939   */\n      tag_54\n      jump\t// in\n    tag_86:\n        /* \"#utility.yul\":2806:2945   */\n      swap3\n      swap2\n      pop\n      pop\n      jump\t// out\n        /* \"#utility.yul\":2951:3280   */\n    tag_23:\n        /* \"#utility.yul\":3010:3016   */\n      0x00\n        /* \"#utility.yul\":3059:3061   */\n      0x20\n        /* \"#utility.yul\":3047:3056   */\n      dup3\n        /* \"#utility.yul\":3038:3045   */\n      dup5\n        /* \"#utility.yul\":3034:3057   */\n      sub\n        /* \"#utility.yul\":3030:3062   */\n      slt\n        /* \"#utility.yul\":3027:3146   */\n      iszero\n      tag_88\n      jumpi\n        /* \"#utility.yul\":3065:3144   */\n      tag_89\n      tag_50\n      jump\t// in\n    tag_89:\n        /* \"#utility.yul\":3027:3146   */\n    tag_88:\n        /* \"#utility.yul\":3185:3186   */\n      0x00\n        /* \"#utility.yul\":3210:3263   */\n      tag_90\n        /* \"#utility.yul\":3255:3262   */\n      dup5\n        /* \"#utility.yul\":3246:3252   */\n      dup3\n        /* \"#utility.yul\":3235:3244   */\n      dup6\n        /* \"#utility.yul\":3231:3253   */\n      add\n        /* \"#utility.yul\":3210:3263   */\n      tag_55\n      jump\t// in\n    tag_90:\n        /* \"#utility.yul\":3200:3263   */\n      swap2\n      pop\n        /* \"#utility.yul\":3156:3273   */\n      pop\n        /* \"#utility.yul\":2951:3280   */\n      swap3\n      swap2\n      pop\n      pop\n      jump\t// out\n        /* \"#utility.yul\":3286:3363   */\n    tag_56:\n        /* \"#utility.yul\":3323:3330   */\n      0x00\n        /* \"#utility.yul\":3352:3357   */\n      dup2\n        /* \"#utility.yul\":3341:3357   */\n      swap1\n      pop\n        /* \"#utility.yul\":3286:3363   */\n      swap2\n      swap1\n      pop\n      jump\t// out\n        /* \"#utility.yul\":3369:3487   */\n    tag_57:\n        /* \"#utility.yul\":3456:3480   */\n      tag_93\n        /* \"#utility.yul\":3474:3479   */\n      dup2\n        /* \"#utility.yul\":3456:3480   */\n      tag_56\n      jump\t// in\n    tag_93:\n        /* \"#utility.yul\":3451:3454   */\n      dup3\n        /* \"#utility.yul\":3444:3481   */\n      mstore\n        /* \"#utility.yul\":3369:3487   */\n      pop\n      pop\n      jump\t// out\n        /* \"#utility.yul\":3493:3715   */\n    tag_29:\n        /* \"#utility.yul\":3586:3590   */\n      0x00\n        /* \"#utility.yul\":3624:3626   */\n      0x20\n        /* \"#utility.yul\":3613:3622   */\n      dup3\n        /* \"#utility.yul\":3609:3627   */\n      add\n        /* \"#utility.yul\":3601:3627   */\n      swap1\n      pop\n        /* \"#utility.yul\":3637:3708   */\n      tag_95\n        /* \"#utility.yul\":3705:3706   */\n      0x00\n        /* \"#utility.yul\":3694:3703   */\n      dup4\n        /* \"#utility.yul\":3690:3707   */\n      add\n        /* \"#utility.yul\":3681:3687   */\n      dup5\n        /* \"#utility.yul\":3637:3708   */\n      tag_57\n      jump\t// in\n    tag_95:\n        /* \"#utility.yul\":3493:3715   */\n      swap3\n      swap2\n      pop\n      pop\n      jump\t// out\n        /* \"#utility.yul\":3721:3839   */\n    tag_58:\n        /* \"#utility.yul\":3808:3832   */\n      tag_97\n        /* \"#utility.yul\":3826:3831   */\n      dup2\n        /* \"#utility.yul\":3808:3832   */\n      tag_53\n      jump\t// in\n    tag_97:\n        /* \"#utility.yul\":3803:3806   */\n      dup3\n        /* \"#utility.yul\":3796:3833   */\n      mstore\n        /* \"#utility.yul\":3721:3839   */\n      pop\n      pop\n      jump\t// out\n        /* \"#utility.yul\":3845:4067   */\n    tag_34:\n        /* \"#utility.yul\":3938:3942   */\n      0x00\n        /* \"#utility.yul\":3976:3978   */\n      0x20\n        /* \"#utility.yul\":3965:3974   */\n      dup3\n        /* \"#utility.yul\":3961:3979   */\n      add\n        /* \"#utility.yul\":3953:3979   */\n      swap1\n      pop\n        /* \"#utility.yul\":3989:4060   */\n      tag_99\n        /* \"#utility.yul\":4057:4058   */\n      0x00\n        /* \"#utility.yul\":4046:4055   */\n      dup4\n        /* \"#utility.yul\":4042:4059   */\n      add\n        /* \"#utility.yul\":4033:4039   */\n      dup5\n        /* \"#utility.yul\":3989:4060   */\n      tag_58\n      jump\t// in\n    tag_99:\n        /* \"#utility.yul\":3845:4067   */\n      swap3\n      swap2\n      pop\n      pop\n      jump\t// out\n        /* \"#utility.yul\":4073:4233   */\n    tag_59:\n        /* \"#utility.yul\":4213:4225   */\n      0x4e6f74206f776e65722100000000000000000000000000000000000000000000\n        /* \"#utility.yul\":4209:4210   */\n      0x00\n        /* \"#utility.yul\":4201:4207   */\n      dup3\n        /* \"#utility.yul\":4197:4211   */\n      add\n        /* \"#utility.yul\":4190:4226   */\n      mstore\n        /* \"#utility.yul\":4073:4233   */\n      pop\n      jump\t// out\n        /* \"#utility.yul\":4239:4605   */\n    tag_60:\n        /* \"#utility.yul\":4381:4384   */\n      0x00\n        /* \"#utility.yul\":4402:4469   */\n      tag_102\n        /* \"#utility.yul\":4466:4468   */\n      0x0a\n        /* \"#utility.yul\":4461:4464   */\n      dup4\n        /* \"#utility.yul\":4402:4469   */\n      tag_43\n      jump\t// in\n    tag_102:\n        /* \"#utility.yul\":4395:4469   */\n      swap2\n      pop\n        /* \"#utility.yul\":4478:4571   */\n      tag_103\n        /* \"#utility.yul\":4567:4570   */\n      dup3\n        /* \"#utility.yul\":4478:4571   */\n      tag_59\n      jump\t// in\n    tag_103:\n        /* \"#utility.yul\":4596:4598   */\n      0x20\n        /* \"#utility.yul\":4591:4594   */\n      dup3\n        /* \"#utility.yul\":4587:4599   */\n      add\n        /* \"#utility.yul\":4580:4599   */\n      swap1\n      pop\n        /* \"#utility.yul\":4239:4605   */\n      swap2\n      swap1\n      pop\n      jump\t// out\n        /* \"#utility.yul\":4611:5030   */\n    tag_42:\n        /* \"#utility.yul\":4777:4781   */\n      0x00\n        /* \"#utility.yul\":4815:4817   */\n      0x20\n        /* \"#utility.yul\":4804:4813   */\n      dup3\n        /* \"#utility.yul\":4800:4818   */\n      add\n        /* \"#utility.yul\":4792:4818   */\n      swap1\n      pop\n        /* \"#utility.yul\":4864:4873   */\n      dup2\n        /* \"#utility.yul\":4858:4862   */\n      dup2\n        /* \"#utility.yul\":4854:4874   */\n      sub\n        /* \"#utility.yul\":4850:4851   */\n      0x00\n        /* \"#utility.yul\":4839:4848   */\n      dup4\n        /* \"#utility.yul\":4835:4852   */\n      add\n        /* \"#utility.yul\":4828:4875   */\n      mstore\n        /* \"#utility.yul\":4892:5023   */\n      tag_105\n        /* \"#utility.yul\":5018:5022   */\n      dup2\n        /* \"#utility.yul\":4892:5023   */\n      tag_60\n      jump\t// in\n    tag_105:\n        /* \"#utility.yul\":4884:5023   */\n      swap1\n      pop\n        /* \"#utility.yul\":4611:5030   */\n      swap2\n      swap1\n      pop\n      jump\t// out\n\n    auxdata: 0xa2646970667358221220474ae50b29eb456ac9d48e5ed6a9b70cd510fac7eaae30ce66b2c7c7e89d275864736f6c63430008220033\n}\n",
				"bytecode": {
					"linkReferences": {},
					"object": "608060405234801561000f575f5ffd5b506040516106fc3803806106fc83398181016040528101906100319190610114565b805f5f6101000a81548173ffffffffffffffffffffffffffffffffffffffff021916908373ffffffffffffffffffffffffffffffffffffffff1602179055503360025f6101000a81548173ffffffffffffffffffffffffffffffffffffffff021916908373ffffffffffffffffffffffffffffffffffffffff1602179055505061013f565b5f5ffd5b5f73ffffffffffffffffffffffffffffffffffffffff82169050919050565b5f6100e3826100ba565b9050919050565b6100f3816100d9565b81146100fd575f5ffd5b50565b5f8151905061010e816100ea565b92915050565b5f60208284031215610129576101286100b6565b5b5f61013684828501610100565b91505092915050565b6105b08061014c5f395ff3fe608060405260043610610042575f3560e01c80630900f0101461015b5780633fa4f245146101835780635c60da1b146101ad5780638da5cb5b146101d757610049565b3661004957005b5f5f5f9054906101000a900473ffffffffffffffffffffffffffffffffffffffff1690505f73ffffffffffffffffffffffffffffffffffffffff168173ffffffffffffffffffffffffffffffffffffffff16036100db576040517f08c379a00000000000000000000000000000000000000000000000000000000081526004016100d2906103be565b60405180910390fd5b5f5f8273ffffffffffffffffffffffffffffffffffffffff165f36604051610104929190610418565b5f60405180830381855af49150503d805f811461013c576040519150601f19603f3d011682016040523d82523d5f602084013e610141565b606091505b509150915081610153573d5f5f3e3d5ffd5b805160208201f35b348015610166575f5ffd5b50610181600480360381019061017c919061048e565b610201565b005b34801561018e575f5ffd5b50610197610315565b6040516101a491906104d1565b60405180910390f35b3480156101b8575f5ffd5b506101c161031b565b6040516101ce91906104f9565b60405180910390f35b3480156101e2575f5ffd5b506101eb61033f565b6040516101f891906104f9565b60405180910390f35b60025f9054906101000a900473ffffffffffffffffffffffffffffffffffffffff1673ffffffffffffffffffffffffffffffffffffffff163373ffffffffffffffffffffffffffffffffffffffff1614610290576040517f08c379a00000000000000000000000000000000000000000000000000000000081526004016102879061055c565b60405180910390fd5b805f5f6101000a81548173ffffffffffffffffffffffffffffffffffffffff021916908373ffffffffffffffffffffffffffffffffffffffff1602179055508073ffffffffffffffffffffffffffffffffffffffff167fbc7cd75a20ee27fd9adebab32041f755214dbc6bffa90cc0225b39da2e5c2d3b60405160405180910390a250565b60015481565b5f5f9054906101000a900473ffffffffffffffffffffffffffffffffffffffff1681565b60025f9054906101000a900473ffffffffffffffffffffffffffffffffffffffff1681565b5f82825260208201905092915050565b7f496d706c656d656e746174696f6e206e6f7420736574210000000000000000005f82015250565b5f6103a8601783610364565b91506103b382610374565b602082019050919050565b5f6020820190508181035f8301526103d58161039c565b9050919050565b5f81905092915050565b828183375f83830152505050565b5f6103ff83856103dc565b935061040c8385846103e6565b82840190509392505050565b5f6104248284866103f4565b91508190509392505050565b5f5ffd5b5f73ffffffffffffffffffffffffffffffffffffffff82169050919050565b5f61045d82610434565b9050919050565b61046d81610453565b8114610477575f5ffd5b50565b5f8135905061048881610464565b92915050565b5f602082840312156104a3576104a2610430565b5b5f6104b08482850161047a565b91505092915050565b5f819050919050565b6104cb816104b9565b82525050565b5f6020820190506104e45f8301846104c2565b92915050565b6104f381610453565b82525050565b5f60208201905061050c5f8301846104ea565b92915050565b7f4e6f74206f776e657221000000000000000000000000000000000000000000005f82015250565b5f610546600a83610364565b915061055182610512565b602082019050919050565b5f6020820190508181035f8301526105738161053a565b905091905056fea2646970667358221220474ae50b29eb456ac9d48e5ed6a9b70cd510fac7eaae30ce66b2c7c7e89d275864736f6c63430008220033",
					"opcodes": "PUSH1 0x80 PUSH1 0x40 MSTORE CALLVALUE DUP1 ISZERO PUSH2 0xF JUMPI PUSH0 PUSH0 REVERT JUMPDEST POP PUSH1 0x40 MLOAD PUSH2 0x6FC CODESIZE SUB DUP1 PUSH2 0x6FC DUP4 CODECOPY DUP2 DUP2 ADD PUSH1 0x40 MSTORE DUP2 ADD SWAP1 PUSH2 0x31 SWAP2 SWAP1 PUSH2 0x114 JUMP JUMPDEST DUP1 PUSH0 PUSH0 PUSH2 0x100 EXP DUP2 SLOAD DUP2 PUSH20 0xFFFFFFFFFFFFFFFFFFFFFFFFFFFFFFFFFFFFFFFF MUL NOT AND SWAP1 DUP4 PUSH20 0xFFFFFFFFFFFFFFFFFFFFFFFFFFFFFFFFFFFFFFFF AND MUL OR SWAP1 SSTORE POP CALLER PUSH1 0x2 PUSH0 PUSH2 0x100 EXP DUP2 SLOAD DUP2 PUSH20 0xFFFFFFFFFFFFFFFFFFFFFFFFFFFFFFFFFFFFFFFF MUL NOT AND SWAP1 DUP4 PUSH20 0xFFFFFFFFFFFFFFFFFFFFFFFFFFFFFFFFFFFFFFFF AND MUL OR SWAP1 SSTORE POP POP PUSH2 0x13F JUMP JUMPDEST PUSH0 PUSH0 REVERT JUMPDEST PUSH0 PUSH20 0xFFFFFFFFFFFFFFFFFFFFFFFFFFFFFFFFFFFFFFFF DUP3 AND SWAP1 POP SWAP2 SWAP1 POP JUMP JUMPDEST PUSH0 PUSH2 0xE3 DUP3 PUSH2 0xBA JUMP JUMPDEST SWAP1 POP SWAP2 SWAP1 POP JUMP JUMPDEST PUSH2 0xF3 DUP2 PUSH2 0xD9 JUMP JUMPDEST DUP2 EQ PUSH2 0xFD JUMPI PUSH0 PUSH0 REVERT JUMPDEST POP JUMP JUMPDEST PUSH0 DUP2 MLOAD SWAP1 POP PUSH2 0x10E DUP2 PUSH2 0xEA JUMP JUMPDEST SWAP3 SWAP2 POP POP JUMP JUMPDEST PUSH0 PUSH1 0x20 DUP3 DUP5 SUB SLT ISZERO PUSH2 0x129 JUMPI PUSH2 0x128 PUSH2 0xB6 JUMP JUMPDEST JUMPDEST PUSH0 PUSH2 0x136 DUP5 DUP3 DUP6 ADD PUSH2 0x100 JUMP JUMPDEST SWAP2 POP POP SWAP3 SWAP2 POP POP JUMP JUMPDEST PUSH2 0x5B0 DUP1 PUSH2 0x14C PUSH0 CODECOPY PUSH0 RETURN INVALID PUSH1 0x80 PUSH1 0x40 MSTORE PUSH1 0x4 CALLDATASIZE LT PUSH2 0x42 JUMPI PUSH0 CALLDATALOAD PUSH1 0xE0 SHR DUP1 PUSH4 0x900F010 EQ PUSH2 0x15B JUMPI DUP1 PUSH4 0x3FA4F245 EQ PUSH2 0x183 JUMPI DUP1 PUSH4 0x5C60DA1B EQ PUSH2 0x1AD JUMPI DUP1 PUSH4 0x8DA5CB5B EQ PUSH2 0x1D7 JUMPI PUSH2 0x49 JUMP JUMPDEST CALLDATASIZE PUSH2 0x49 JUMPI STOP JUMPDEST PUSH0 PUSH0 PUSH0 SWAP1 SLOAD SWAP1 PUSH2 0x100 EXP SWAP1 DIV PUSH20 0xFFFFFFFFFFFFFFFFFFFFFFFFFFFFFFFFFFFFFFFF AND SWAP1 POP PUSH0 PUSH20 0xFFFFFFFFFFFFFFFFFFFFFFFFFFFFFFFFFFFFFFFF AND DUP2 PUSH20 0xFFFFFFFFFFFFFFFFFFFFFFFFFFFFFFFFFFFFFFFF AND SUB PUSH2 0xDB JUMPI PUSH1 0x40 MLOAD PUSH32 0x8C379A000000000000000000000000000000000000000000000000000000000 DUP2 MSTORE PUSH1 0x4 ADD PUSH2 0xD2 SWAP1 PUSH2 0x3BE JUMP JUMPDEST PUSH1 0x40 MLOAD DUP1 SWAP2 SUB SWAP1 REVERT JUMPDEST PUSH0 PUSH0 DUP3 PUSH20 0xFFFFFFFFFFFFFFFFFFFFFFFFFFFFFFFFFFFFFFFF AND PUSH0 CALLDATASIZE PUSH1 0x40 MLOAD PUSH2 0x104 SWAP3 SWAP2 SWAP1 PUSH2 0x418 JUMP JUMPDEST PUSH0 PUSH1 0x40 MLOAD DUP1 DUP4 SUB DUP2 DUP6 GAS DELEGATECALL SWAP2 POP POP RETURNDATASIZE DUP1 PUSH0 DUP2 EQ PUSH2 0x13C JUMPI PUSH1 0x40 MLOAD SWAP2 POP PUSH1 0x1F NOT PUSH1 0x3F RETURNDATASIZE ADD AND DUP3 ADD PUSH1 0x40 MSTORE RETURNDATASIZE DUP3 MSTORE RETURNDATASIZE PUSH0 PUSH1 0x20 DUP5 ADD RETURNDATACOPY PUSH2 0x141 JUMP JUMPDEST PUSH1 0x60 SWAP2 POP JUMPDEST POP SWAP2 POP SWAP2 POP DUP2 PUSH2 0x153 JUMPI RETURNDATASIZE PUSH0 PUSH0 RETURNDATACOPY RETURNDATASIZE PUSH0 REVERT JUMPDEST DUP1 MLOAD PUSH1 0x20 DUP3 ADD RETURN JUMPDEST CALLVALUE DUP1 ISZERO PUSH2 0x166 JUMPI PUSH0 PUSH0 REVERT JUMPDEST POP PUSH2 0x181 PUSH1 0x4 DUP1 CALLDATASIZE SUB DUP2 ADD SWAP1 PUSH2 0x17C SWAP2 SWAP1 PUSH2 0x48E JUMP JUMPDEST PUSH2 0x201 JUMP JUMPDEST STOP JUMPDEST CALLVALUE DUP1 ISZERO PUSH2 0x18E JUMPI PUSH0 PUSH0 REVERT JUMPDEST POP PUSH2 0x197 PUSH2 0x315 JUMP JUMPDEST PUSH1 0x40 MLOAD PUSH2 0x1A4 SWAP2 SWAP1 PUSH2 0x4D1 JUMP JUMPDEST PUSH1 0x40 MLOAD DUP1 SWAP2 SUB SWAP1 RETURN JUMPDEST CALLVALUE DUP1 ISZERO PUSH2 0x1B8 JUMPI PUSH0 PUSH0 REVERT JUMPDEST POP PUSH2 0x1C1 PUSH2 0x31B JUMP JUMPDEST PUSH1 0x40 MLOAD PUSH2 0x1CE SWAP2 SWAP1 PUSH2 0x4F9 JUMP JUMPDEST PUSH1 0x40 MLOAD DUP1 SWAP2 SUB SWAP1 RETURN JUMPDEST CALLVALUE DUP1 ISZERO PUSH2 0x1E2 JUMPI PUSH0 PUSH0 REVERT JUMPDEST POP PUSH2 0x1EB PUSH2 0x33F JUMP JUMPDEST PUSH1 0x40 MLOAD PUSH2 0x1F8 SWAP2 SWAP1 PUSH2 0x4F9 JUMP JUMPDEST PUSH1 0x40 MLOAD DUP1 SWAP2 SUB SWAP1 RETURN JUMPDEST PUSH1 0x2 PUSH0 SWAP1 SLOAD SWAP1 PUSH2 0x100 EXP SWAP1 DIV PUSH20 0xFFFFFFFFFFFFFFFFFFFFFFFFFFFFFFFFFFFFFFFF AND PUSH20 0xFFFFFFFFFFFFFFFFFFFFFFFFFFFFFFFFFFFFFFFF AND CALLER PUSH20 0xFFFFFFFFFFFFFFFFFFFFFFFFFFFFFFFFFFFFFFFF AND EQ PUSH2 0x290 JUMPI PUSH1 0x40 MLOAD PUSH32 0x8C379A000000000000000000000000000000000000000000000000000000000 DUP2 MSTORE PUSH1 0x4 ADD PUSH2 0x287 SWAP1 PUSH2 0x55C JUMP JUMPDEST PUSH1 0x40 MLOAD DUP1 SWAP2 SUB SWAP1 REVERT JUMPDEST DUP1 PUSH0 PUSH0 PUSH2 0x100 EXP DUP2 SLOAD DUP2 PUSH20 0xFFFFFFFFFFFFFFFFFFFFFFFFFFFFFFFFFFFFFFFF MUL NOT AND SWAP1 DUP4 PUSH20 0xFFFFFFFFFFFFFFFFFFFFFFFFFFFFFFFFFFFFFFFF AND MUL OR SWAP1 SSTORE POP DUP1 PUSH20 0xFFFFFFFFFFFFFFFFFFFFFFFFFFFFFFFFFFFFFFFF AND PUSH32 0xBC7CD75A20EE27FD9ADEBAB32041F755214DBC6BFFA90CC0225B39DA2E5C2D3B PUSH1 0x40 MLOAD PUSH1 0x40 MLOAD DUP1 SWAP2 SUB SWAP1 LOG2 POP JUMP JUMPDEST PUSH1 0x1 SLOAD DUP2 JUMP JUMPDEST PUSH0 PUSH0 SWAP1 SLOAD SWAP1 PUSH2 0x100 EXP SWAP1 DIV PUSH20 0xFFFFFFFFFFFFFFFFFFFFFFFFFFFFFFFFFFFFFFFF AND DUP2 JUMP JUMPDEST PUSH1 0x2 PUSH0 SWAP1 SLOAD SWAP1 PUSH2 0x100 EXP SWAP1 DIV PUSH20 0xFFFFFFFFFFFFFFFFFFFFFFFFFFFFFFFFFFFFFFFF AND DUP2 JUMP JUMPDEST PUSH0 DUP3 DUP3 MSTORE PUSH1 0x20 DUP3 ADD SWAP1 POP SWAP3 SWAP2 POP POP JUMP JUMPDEST PUSH32 0x496D706C656D656E746174696F6E206E6F742073657421000000000000000000 PUSH0 DUP3 ADD MSTORE POP JUMP JUMPDEST PUSH0 PUSH2 0x3A8 PUSH1 0x17 DUP4 PUSH2 0x364 JUMP JUMPDEST SWAP2 POP PUSH2 0x3B3 DUP3 PUSH2 0x374 JUMP JUMPDEST PUSH1 0x20 DUP3 ADD SWAP1 POP SWAP2 SWAP1 POP JUMP JUMPDEST PUSH0 PUSH1 0x20 DUP3 ADD SWAP1 POP DUP2 DUP2 SUB PUSH0 DUP4 ADD MSTORE PUSH2 0x3D5 DUP2 PUSH2 0x39C JUMP JUMPDEST SWAP1 POP SWAP2 SWAP1 POP JUMP JUMPDEST PUSH0 DUP2 SWAP1 POP SWAP3 SWAP2 POP POP JUMP JUMPDEST DUP3 DUP2 DUP4 CALLDATACOPY PUSH0 DUP4 DUP4 ADD MSTORE POP POP POP JUMP JUMPDEST PUSH0 PUSH2 0x3FF DUP4 DUP6 PUSH2 0x3DC JUMP JUMPDEST SWAP4 POP PUSH2 0x40C DUP4 DUP6 DUP5 PUSH2 0x3E6 JUMP JUMPDEST DUP3 DUP5 ADD SWAP1 POP SWAP4 SWAP3 POP POP POP JUMP JUMPDEST PUSH0 PUSH2 0x424 DUP3 DUP5 DUP7 PUSH2 0x3F4 JUMP JUMPDEST SWAP2 POP DUP2 SWAP1 POP SWAP4 SWAP3 POP POP POP JUMP JUMPDEST PUSH0 PUSH0 REVERT JUMPDEST PUSH0 PUSH20 0xFFFFFFFFFFFFFFFFFFFFFFFFFFFFFFFFFFFFFFFF DUP3 AND SWAP1 POP SWAP2 SWAP1 POP JUMP JUMPDEST PUSH0 PUSH2 0x45D DUP3 PUSH2 0x434 JUMP JUMPDEST SWAP1 POP SWAP2 SWAP1 POP JUMP JUMPDEST PUSH2 0x46D DUP2 PUSH2 0x453 JUMP JUMPDEST DUP2 EQ PUSH2 0x477 JUMPI PUSH0 PUSH0 REVERT JUMPDEST POP JUMP JUMPDEST PUSH0 DUP2 CALLDATALOAD SWAP1 POP PUSH2 0x488 DUP2 PUSH2 0x464 JUMP JUMPDEST SWAP3 SWAP2 POP POP JUMP JUMPDEST PUSH0 PUSH1 0x20 DUP3 DUP5 SUB SLT ISZERO PUSH2 0x4A3 JUMPI PUSH2 0x4A2 PUSH2 0x430 JUMP JUMPDEST JUMPDEST PUSH0 PUSH2 0x4B0 DUP5 DUP3 DUP6 ADD PUSH2 0x47A JUMP JUMPDEST SWAP2 POP POP SWAP3 SWAP2 POP POP JUMP JUMPDEST PUSH0 DUP2 SWAP1 POP SWAP2 SWAP1 POP JUMP JUMPDEST PUSH2 0x4CB DUP2 PUSH2 0x4B9 JUMP JUMPDEST DUP3 MSTORE POP POP JUMP JUMPDEST PUSH0 PUSH1 0x20 DUP3 ADD SWAP1 POP PUSH2 0x4E4 PUSH0 DUP4 ADD DUP5 PUSH2 0x4C2 JUMP JUMPDEST SWAP3 SWAP2 POP POP JUMP JUMPDEST PUSH2 0x4F3 DUP2 PUSH2 0x453 JUMP JUMPDEST DUP3 MSTORE POP POP JUMP JUMPDEST PUSH0 PUSH1 0x20 DUP3 ADD SWAP1 POP PUSH2 0x50C PUSH0 DUP4 ADD DUP5 PUSH2 0x4EA JUMP JUMPDEST SWAP3 SWAP2 POP POP JUMP JUMPDEST PUSH32 0x4E6F74206F776E65722100000000000000000000000000000000000000000000 PUSH0 DUP3 ADD MSTORE POP JUMP JUMPDEST PUSH0 PUSH2 0x546 PUSH1 0xA DUP4 PUSH2 0x364 JUMP JUMPDEST SWAP2 POP PUSH2 0x551 DUP3 PUSH2 0x512 JUMP JUMPDEST PUSH1 0x20 DUP3 ADD SWAP1 POP SWAP2 SWAP1 POP JUMP JUMPDEST PUSH0 PUSH1 0x20 DUP3 ADD SWAP1 POP DUP2 DUP2 SUB PUSH0 DUP4 ADD MSTORE PUSH2 0x573 DUP2 PUSH2 0x53A JUMP JUMPDEST SWAP1 POP SWAP2 SWAP1 POP JUMP INVALID LOG2 PUSH5 0x6970667358 0x22 SLT KECCAK256 SELFBALANCE BLOBBASEFEE JUMPF 0xB29 0xEB GASLIMIT PUSH11 0xC9D48E5ED6A9B70CD510FA 0xC7 0xEA 0xAE ADDRESS 0xCE PUSH7 0xB2C7C7E89D2758 PUSH5 0x736F6C6343 STOP ADDMOD 0x22 STOP CALLER "
				},
				"gasEstimates": {
					"creation": {
						"codeDepositCost": "291200",
						"executionCost": "infinite",
						"totalCost": "infinite"
					},
					"external": {
						"": "infinite",
						"implementation()": "2529",
						"owner()": "2552",
						"upgrade(address)": "28022",
						"value()": "2425"
					}
				},
				"methodIdentifiers": {
					"implementation()": "5c60da1b",
					"owner()": "8da5cb5b",
					"upgrade(address)": "0900f010",
					"value()": "3fa4f245"
				}
			},
			"storageLayout": {
				"storage": [
					{
						"astId": 3,
						"contract": "lession8.1-Invocation/delegatecall/Proxy.sol:Proxy",
						"label": "implementation",
						"offset": 0,
						"slot": "0",
						"type": "t_address"
					},
					{
						"astId": 5,
						"contract": "lession8.1-Invocation/delegatecall/Proxy.sol:Proxy",
						"label": "value",
						"offset": 0,
						"slot": "1",
						"type": "t_uint256"
					},
					{
						"astId": 7,
						"contract": "lession8.1-Invocation/delegatecall/Proxy.sol:Proxy",
						"label": "owner",
						"offset": 0,
						"slot": "2",
						"type": "t_address"
					},
					{
						"astId": 9,
						"contract": "lession8.1-Invocation/delegatecall/Proxy.sol:Proxy",
						"label": "initialized",
						"offset": 20,
						"slot": "2",
						"type": "t_bool"
					}
				],
				"types": {
					"t_address": {
						"encoding": "inplace",
						"label": "address",
						"numberOfBytes": "20"
					},
					"t_bool": {
						"encoding": "inplace",
						"label": "bool",
						"numberOfBytes": "1"
					},
					"t_uint256": {
						"encoding": "inplace",
						"label": "uint256",
						"numberOfBytes": "32"
					}
				}
			},
			"userdoc": {
				"kind": "user",
				"methods": {
					"upgrade(address)": {
						"notice": "升级函数：更换逻辑合约"
					}
				},
				"version": 1
			}
		}
	}
}