{
	"lession2.1/VotingSystem.sol": {
		"VotingSystem": {
			"abi": [
				{
					"anonymous": false,
					"inputs": [
						{
							"indexed": true,
							"internalType": "address",
							"name": "ovter",
							"type": "address"
						},
						{
							"indexed": false,
							"internalType": "enum VotingSystem.VoteOption",
							"name": "vote",
							"type": "uint8"
						}
					],
					"name": "Voted",
					"type": "event"
				},
				{
					"inputs": [],
					"name": "abstainCount",
					"outputs": [
						{
							"internalType": "uint256",
							"name": "",
							"type": "uint256"
						}
					],
					"stateMutability": "view",
					"type": "function"
				},
				{
					"inputs": [],
					"name": "getMyVote",
					"outputs": [
						{
							"internalType": "enum VotingSystem.VoteOption",
							"name": "",
							"type": "uint8"
						}
					],
					"stateMutability": "view",
					"type": "function"
				},
				{
					"inputs": [],
					"name": "getResults",
					"outputs": [
						{
							"internalType": "uint256",
							"name": "",
							"type": "uint256"
						},
						{
							"internalType": "uint256",
							"name": "",
							"type": "uint256"
						},
						{
							"internalType": "uint256",
							"name": "",
							"type": "uint256"
						}
					],
					"stateMutability": "view",
					"type": "function"
				},
				{
					"inputs": [],
					"name": "getTotalVotes",
					"outputs": [
						{
							"internalType": "uint256",
							"name": "",
							"type": "uint256"
						}
					],
					"stateMutability": "view",
					"type": "function"
				},
				{
					"inputs": [
						{
							"internalType": "address",
							"name": "",
							"type": "address"
						}
					],
					"name": "hasVoted",
					"outputs": [
						{
							"internalType": "bool",
							"name": "",
							"type": "bool"
						}
					],
					"stateMutability": "view",
					"type": "function"
				},
				{
					"inputs": [],
					"name": "noCount",
					"outputs": [
						{
							"internalType": "uint256",
							"name": "",
							"type": "uint256"
						}
					],
					"stateMutability": "view",
					"type": "function"
				},
				{
					"inputs": [
						{
							"internalType": "enum VotingSystem.VoteOption",
							"name": "_vote",
							"type": "uint8"
						}
					],
					"name": "vote",
					"outputs": [],
					"stateMutability": "nonpayable",
					"type": "function"
				},
				{
					"inputs": [
						{
							"internalType": "address",
							"name": "",
							"type": "address"
						}
					],
					"name": "votes",
					"outputs": [
						{
							"internalType": "enum VotingSystem.VoteOption",
							"name": "",
							"type": "uint8"
						}
					],
					"stateMutability": "view",
					"type": "function"
				},
				{
					"inputs": [],
					"name": "yesCount",
					"outputs": [
						{
							"internalType": "uint256",
							"name": "",
							"type": "uint256"
						}
					],
					"stateMutability": "view",
					"type": "function"
				}
			],
			"devdoc": {
				"kind": "dev",
				"methods": {},
				"version": 1
			},
			"evm": {
				"assembly": "    /* \"lession2.1/VotingSystem.sol\":330:1710  contract VotingSystem {... */\n  mstore(0x40, 0x80)\n  callvalue\n  dup1\n  iszero\n  tag_1\n  jumpi\n  revert(0x00, 0x00)\ntag_1:\n  pop\n  dataSize(sub_0)\n  dup1\n  dataOffset(sub_0)\n  0x00\n  codecopy\n  0x00\n  return\nstop\n\nsub_0: assembly {\n        /* \"lession2.1/VotingSystem.sol\":330:1710  contract VotingSystem {... */\n      mstore(0x40, 0x80)\n      callvalue\n      dup1\n      iszero\n      tag_1\n      jumpi\n      revert(0x00, 0x00)\n    tag_1:\n      pop\n      jumpi(tag_2, lt(calldatasize, 0x04))\n      shr(0xe0, calldataload(0x00))\n      dup1\n      0x8cb647d3\n      gt\n      tag_12\n      jumpi\n      dup1\n      0x8cb647d3\n      eq\n      tag_7\n      jumpi\n      dup1\n      0x9a0e7d66\n      eq\n      tag_8\n      jumpi\n      dup1\n      0xa2fcbad7\n      eq\n      tag_9\n      jumpi\n      dup1\n      0xb3f98adc\n      eq\n      tag_10\n      jumpi\n      dup1\n      0xd8bff5a5\n      eq\n      tag_11\n      jumpi\n      jump(tag_2)\n    tag_12:\n      dup1\n      0x09eef43e\n      eq\n      tag_3\n      jumpi\n      dup1\n      0x3e118090\n      eq\n      tag_4\n      jumpi\n      dup1\n      0x4717f97c\n      eq\n      tag_5\n      jumpi\n      dup1\n      0x5c8d9541\n      eq\n      tag_6\n      jumpi\n    tag_2:\n      revert(0x00, 0x00)\n        /* \"lession2.1/VotingSystem.sol\":507:548  mapping (address => bool) public hasVoted */\n    tag_3:\n      tag_13\n      0x04\n      dup1\n      calldatasize\n      sub\n      dup2\n      add\n      swap1\n      tag_14\n      swap2\n      swap1\n      tag_15\n      jump\t// in\n    tag_14:\n      tag_16\n      jump\t// in\n    tag_13:\n      mload(0x40)\n      tag_17\n      swap2\n      swap1\n      tag_18\n      jump\t// in\n    tag_17:\n      mload(0x40)\n      dup1\n      swap2\n      sub\n      swap1\n      return\n        /* \"lession2.1/VotingSystem.sol\":608:632  uint public abstainCount */\n    tag_4:\n      tag_19\n      tag_20\n      jump\t// in\n    tag_19:\n      mload(0x40)\n      tag_21\n      swap2\n      swap1\n      tag_22\n      jump\t// in\n    tag_21:\n      mload(0x40)\n      dup1\n      swap2\n      sub\n      swap1\n      return\n        /* \"lession2.1/VotingSystem.sol\":1239:1355  function getResults() public view returns (uint,uint,uint) {... */\n    tag_5:\n      tag_23\n      tag_24\n      jump\t// in\n    tag_23:\n      mload(0x40)\n      tag_25\n      swap4\n      swap3\n      swap2\n      swap1\n      tag_26\n      jump\t// in\n    tag_25:\n      mload(0x40)\n      dup1\n      swap2\n      sub\n      swap1\n      return\n        /* \"lession2.1/VotingSystem.sol\":555:575  uint public yesCount */\n    tag_6:\n      tag_27\n      tag_28\n      jump\t// in\n    tag_27:\n      mload(0x40)\n      tag_29\n      swap2\n      swap1\n      tag_22\n      jump\t// in\n    tag_29:\n      mload(0x40)\n      dup1\n      swap2\n      sub\n      swap1\n      return\n        /* \"lession2.1/VotingSystem.sol\":1402:1562  function getMyVote() public view returns (VoteOption) {... */\n    tag_7:\n      tag_30\n      tag_31\n      jump\t// in\n    tag_30:\n      mload(0x40)\n      tag_32\n      swap2\n      swap1\n      tag_33\n      jump\t// in\n    tag_32:\n      mload(0x40)\n      dup1\n      swap2\n      sub\n      swap1\n      return\n        /* \"lession2.1/VotingSystem.sol\":1594:1705  function getTotalVotes() public view returns (uint) {... */\n    tag_8:\n      tag_34\n      tag_35\n      jump\t// in\n    tag_34:\n      mload(0x40)\n      tag_36\n      swap2\n      swap1\n      tag_22\n      jump\t// in\n    tag_36:\n      mload(0x40)\n      dup1\n      swap2\n      sub\n      swap1\n      return\n        /* \"lession2.1/VotingSystem.sol\":582:601  uint public noCount */\n    tag_9:\n      tag_37\n      tag_38\n      jump\t// in\n    tag_37:\n      mload(0x40)\n      tag_39\n      swap2\n      swap1\n      tag_22\n      jump\t// in\n    tag_39:\n      mload(0x40)\n      dup1\n      swap2\n      sub\n      swap1\n      return\n        /* \"lession2.1/VotingSystem.sol\":715:1216  function vote(VoteOption _vote) public  {... */\n    tag_10:\n      tag_40\n      0x04\n      dup1\n      calldatasize\n      sub\n      dup2\n      add\n      swap1\n      tag_41\n      swap2\n      swap1\n      tag_42\n      jump\t// in\n    tag_41:\n      tag_43\n      jump\t// in\n    tag_40:\n      stop\n        /* \"lession2.1/VotingSystem.sol\":456:500  mapping (address => VoteOption) public votes */\n    tag_11:\n      tag_44\n      0x04\n      dup1\n      calldatasize\n      sub\n      dup2\n      add\n      swap1\n      tag_45\n      swap2\n      swap1\n      tag_15\n      jump\t// in\n    tag_45:\n      tag_46\n      jump\t// in\n    tag_44:\n      mload(0x40)\n      tag_47\n      swap2\n      swap1\n      tag_33\n      jump\t// in\n    tag_47:\n      mload(0x40)\n      dup1\n      swap2\n      sub\n      swap1\n      return\n        /* \"lession2.1/VotingSystem.sol\":507:548  mapping (address => bool) public hasVoted */\n    tag_16:\n      mstore(0x20, 0x01)\n      dup1\n      0x00\n      mstore\n      keccak256(0x00, 0x40)\n      0x00\n      swap2\n      pop\n      sload\n      swap1\n      0x0100\n      exp\n      swap1\n      div\n      0xff\n      and\n      dup2\n      jump\t// out\n        /* \"lession2.1/VotingSystem.sol\":608:632  uint public abstainCount */\n    tag_20:\n      sload(0x04)\n      dup2\n      jump\t// out\n        /* \"lession2.1/VotingSystem.sol\":1239:1355  function getResults() public view returns (uint,uint,uint) {... */\n    tag_24:\n        /* \"lession2.1/VotingSystem.sol\":1282:1286  uint */\n      0x00\n        /* \"lession2.1/VotingSystem.sol\":1287:1291  uint */\n      0x00\n        /* \"lession2.1/VotingSystem.sol\":1292:1296  uint */\n      0x00\n        /* \"lession2.1/VotingSystem.sol\":1317:1325  yesCount */\n      sload(0x02)\n        /* \"lession2.1/VotingSystem.sol\":1326:1333  noCount */\n      sload(0x03)\n        /* \"lession2.1/VotingSystem.sol\":1334:1346  abstainCount */\n      sload(0x04)\n        /* \"lession2.1/VotingSystem.sol\":1309:1347  return (yesCount,noCount,abstainCount) */\n      swap3\n      pop\n      swap3\n      pop\n      swap3\n      pop\n        /* \"lession2.1/VotingSystem.sol\":1239:1355  function getResults() public view returns (uint,uint,uint) {... */\n      swap1\n      swap2\n      swap3\n      jump\t// out\n        /* \"lession2.1/VotingSystem.sol\":555:575  uint public yesCount */\n    tag_28:\n      sload(0x02)\n      dup2\n      jump\t// out\n        /* \"lession2.1/VotingSystem.sol\":1402:1562  function getMyVote() public view returns (VoteOption) {... */\n    tag_31:\n        /* \"lession2.1/VotingSystem.sol\":1444:1454  VoteOption */\n      0x00\n        /* \"lession2.1/VotingSystem.sol\":1475:1483  hasVoted */\n      0x01\n        /* \"lession2.1/VotingSystem.sol\":1475:1495  hasVoted[msg.sender] */\n      0x00\n        /* \"lession2.1/VotingSystem.sol\":1484:1494  msg.sender */\n      caller\n        /* \"lession2.1/VotingSystem.sol\":1475:1495  hasVoted[msg.sender] */\n      0xffffffffffffffffffffffffffffffffffffffff\n      and\n      0xffffffffffffffffffffffffffffffffffffffff\n      and\n      dup2\n      mstore\n      0x20\n      add\n      swap1\n      dup2\n      mstore\n      0x20\n      add\n      0x00\n      keccak256\n      0x00\n      swap1\n      sload\n      swap1\n      0x0100\n      exp\n      swap1\n      div\n      0xff\n      and\n        /* \"lession2.1/VotingSystem.sol\":1467:1519  require(hasVoted[msg.sender],\"You need vote first!\") */\n      tag_50\n      jumpi\n      mload(0x40)\n      0x08c379a000000000000000000000000000000000000000000000000000000000\n      dup2\n      mstore\n      0x04\n      add\n      tag_51\n      swap1\n      tag_52\n      jump\t// in\n    tag_51:\n      mload(0x40)\n      dup1\n      swap2\n      sub\n      swap1\n      revert\n    tag_50:\n        /* \"lession2.1/VotingSystem.sol\":1537:1542  votes */\n      0x00\n        /* \"lession2.1/VotingSystem.sol\":1537:1554  votes[msg.sender] */\n      0x00\n        /* \"lession2.1/VotingSystem.sol\":1543:1553  msg.sender */\n      caller\n        /* \"lession2.1/VotingSystem.sol\":1537:1554  votes[msg.sender] */\n      0xffffffffffffffffffffffffffffffffffffffff\n      and\n      0xffffffffffffffffffffffffffffffffffffffff\n      and\n      dup2\n      mstore\n      0x20\n      add\n      swap1\n      dup2\n      mstore\n      0x20\n      add\n      0x00\n      keccak256\n      0x00\n      swap1\n      sload\n      swap1\n      0x0100\n      exp\n      swap1\n      div\n      0xff\n      and\n        /* \"lession2.1/VotingSystem.sol\":1530:1554  return votes[msg.sender] */\n      swap1\n      pop\n        /* \"lession2.1/VotingSystem.sol\":1402:1562  function getMyVote() public view returns (VoteOption) {... */\n      swap1\n      jump\t// out\n        /* \"lession2.1/VotingSystem.sol\":1594:1705  function getTotalVotes() public view returns (uint) {... */\n    tag_35:\n        /* \"lession2.1/VotingSystem.sol\":1640:1644  uint */\n      0x00\n        /* \"lession2.1/VotingSystem.sol\":1685:1697  abstainCount */\n      sload(0x04)\n        /* \"lession2.1/VotingSystem.sol\":1675:1682  noCount */\n      sload(0x03)\n        /* \"lession2.1/VotingSystem.sol\":1664:1672  yesCount */\n      sload(0x02)\n        /* \"lession2.1/VotingSystem.sol\":1664:1682  yesCount + noCount */\n      tag_54\n      swap2\n      swap1\n      tag_55\n      jump\t// in\n    tag_54:\n        /* \"lession2.1/VotingSystem.sol\":1664:1697  yesCount + noCount + abstainCount */\n      tag_56\n      swap2\n      swap1\n      tag_55\n      jump\t// in\n    tag_56:\n        /* \"lession2.1/VotingSystem.sol\":1657:1697  return yesCount + noCount + abstainCount */\n      swap1\n      pop\n        /* \"lession2.1/VotingSystem.sol\":1594:1705  function getTotalVotes() public view returns (uint) {... */\n      swap1\n      jump\t// out\n        /* \"lession2.1/VotingSystem.sol\":582:601  uint public noCount */\n    tag_38:\n      sload(0x03)\n      dup2\n      jump\t// out\n        /* \"lession2.1/VotingSystem.sol\":715:1216  function vote(VoteOption _vote) public  {... */\n    tag_43:\n        /* \"lession2.1/VotingSystem.sol\":809:817  hasVoted */\n      0x01\n        /* \"lession2.1/VotingSystem.sol\":809:829  hasVoted[msg.sender] */\n      0x00\n        /* \"lession2.1/VotingSystem.sol\":818:828  msg.sender */\n      caller\n        /* \"lession2.1/VotingSystem.sol\":809:829  hasVoted[msg.sender] */\n      0xffffffffffffffffffffffffffffffffffffffff\n      and\n      0xffffffffffffffffffffffffffffffffffffffff\n      and\n      dup2\n      mstore\n      0x20\n      add\n      swap1\n      dup2\n      mstore\n      0x20\n      add\n      0x00\n      keccak256\n      0x00\n      swap1\n      sload\n      swap1\n      0x0100\n      exp\n      swap1\n      div\n      0xff\n      and\n        /* \"lession2.1/VotingSystem.sol\":808:829  !hasVoted[msg.sender] */\n      iszero\n        /* \"lession2.1/VotingSystem.sol\":800:851  require(!hasVoted[msg.sender],\"You already voted!\") */\n      tag_58\n      jumpi\n      mload(0x40)\n      0x08c379a000000000000000000000000000000000000000000000000000000000\n      dup2\n      mstore\n      0x04\n      add\n      tag_59\n      swap1\n      tag_60\n      jump\t// in\n    tag_59:\n      mload(0x40)\n      dup1\n      swap2\n      sub\n      swap1\n      revert\n    tag_58:\n        /* \"lession2.1/VotingSystem.sol\":907:912  _vote */\n      dup1\n        /* \"lession2.1/VotingSystem.sol\":887:892  votes */\n      0x00\n        /* \"lession2.1/VotingSystem.sol\":887:904  votes[msg.sender] */\n      0x00\n        /* \"lession2.1/VotingSystem.sol\":893:903  msg.sender */\n      caller\n        /* \"lession2.1/VotingSystem.sol\":887:904  votes[msg.sender] */\n      0xffffffffffffffffffffffffffffffffffffffff\n      and\n      0xffffffffffffffffffffffffffffffffffffffff\n      and\n      dup2\n      mstore\n      0x20\n      add\n      swap1\n      dup2\n      mstore\n      0x20\n      add\n      0x00\n      keccak256\n      0x00\n        /* \"lession2.1/VotingSystem.sol\":887:912  votes[msg.sender] = _vote */\n      0x0100\n      exp\n      dup2\n      sload\n      dup2\n      0xff\n      mul\n      not\n      and\n      swap1\n      dup4\n      0x02\n      dup2\n      gt\n      iszero\n      tag_61\n      jumpi\n      tag_62\n      tag_63\n      jump\t// in\n    tag_62:\n    tag_61:\n      mul\n      or\n      swap1\n      sstore\n      pop\n        /* \"lession2.1/VotingSystem.sol\":946:950  true */\n      0x01\n        /* \"lession2.1/VotingSystem.sol\":923:931  hasVoted */\n      dup1\n        /* \"lession2.1/VotingSystem.sol\":923:943  hasVoted[msg.sender] */\n      0x00\n        /* \"lession2.1/VotingSystem.sol\":932:942  msg.sender */\n      caller\n        /* \"lession2.1/VotingSystem.sol\":923:943  hasVoted[msg.sender] */\n      0xffffffffffffffffffffffffffffffffffffffff\n      and\n      0xffffffffffffffffffffffffffffffffffffffff\n      and\n      dup2\n      mstore\n      0x20\n      add\n      swap1\n      dup2\n      mstore\n      0x20\n      add\n      0x00\n      keccak256\n      0x00\n        /* \"lession2.1/VotingSystem.sol\":923:950  hasVoted[msg.sender] = true */\n      0x0100\n      exp\n      dup2\n      sload\n      dup2\n      0xff\n      mul\n      not\n      and\n      swap1\n      dup4\n      iszero\n      iszero\n      mul\n      or\n      swap1\n      sstore\n      pop\n        /* \"lession2.1/VotingSystem.sol\":999:1013  VoteOption.YES */\n      0x00\n        /* \"lession2.1/VotingSystem.sol\":990:1013  _vote == VoteOption.YES */\n      0x02\n      dup2\n      gt\n      iszero\n      tag_64\n      jumpi\n      tag_65\n      tag_63\n      jump\t// in\n    tag_65:\n    tag_64:\n        /* \"lession2.1/VotingSystem.sol\":990:995  _vote */\n      dup2\n        /* \"lession2.1/VotingSystem.sol\":990:1013  _vote == VoteOption.YES */\n      0x02\n      dup2\n      gt\n      iszero\n      tag_66\n      jumpi\n      tag_67\n      tag_63\n      jump\t// in\n    tag_67:\n    tag_66:\n      sub\n        /* \"lession2.1/VotingSystem.sol\":986:1169  if (_vote == VoteOption.YES) {... */\n      tag_68\n      jumpi\n        /* \"lession2.1/VotingSystem.sol\":1030:1038  yesCount */\n      0x02\n      0x00\n        /* \"lession2.1/VotingSystem.sol\":1030:1040  yesCount++ */\n      dup2\n      sload\n      dup1\n      swap3\n      swap2\n      swap1\n      tag_69\n      swap1\n      tag_70\n      jump\t// in\n    tag_69:\n      swap2\n      swap1\n      pop\n      sstore\n      pop\n        /* \"lession2.1/VotingSystem.sol\":986:1169  if (_vote == VoteOption.YES) {... */\n      jump(tag_71)\n    tag_68:\n        /* \"lession2.1/VotingSystem.sol\":1071:1084  VoteOption.NO */\n      0x01\n        /* \"lession2.1/VotingSystem.sol\":1062:1084  _vote == VoteOption.NO */\n      0x02\n      dup2\n      gt\n      iszero\n      tag_72\n      jumpi\n      tag_73\n      tag_63\n      jump\t// in\n    tag_73:\n    tag_72:\n        /* \"lession2.1/VotingSystem.sol\":1062:1067  _vote */\n      dup2\n        /* \"lession2.1/VotingSystem.sol\":1062:1084  _vote == VoteOption.NO */\n      0x02\n      dup2\n      gt\n      iszero\n      tag_74\n      jumpi\n      tag_75\n      tag_63\n      jump\t// in\n    tag_75:\n    tag_74:\n      sub\n        /* \"lession2.1/VotingSystem.sol\":1058:1169  if (_vote == VoteOption.NO) {... */\n      tag_76\n      jumpi\n        /* \"lession2.1/VotingSystem.sol\":1101:1108  noCount */\n      0x03\n      0x00\n        /* \"lession2.1/VotingSystem.sol\":1101:1110  noCount++ */\n      dup2\n      sload\n      dup1\n      swap3\n      swap2\n      swap1\n      tag_77\n      swap1\n      tag_70\n      jump\t// in\n    tag_77:\n      swap2\n      swap1\n      pop\n      sstore\n      pop\n        /* \"lession2.1/VotingSystem.sol\":1058:1169  if (_vote == VoteOption.NO) {... */\n      jump(tag_78)\n    tag_76:\n        /* \"lession2.1/VotingSystem.sol\":1143:1155  abstainCount */\n      0x04\n      0x00\n        /* \"lession2.1/VotingSystem.sol\":1143:1157  abstainCount++ */\n      dup2\n      sload\n      dup1\n      swap3\n      swap2\n      swap1\n      tag_79\n      swap1\n      tag_70\n      jump\t// in\n    tag_79:\n      swap2\n      swap1\n      pop\n      sstore\n      pop\n        /* \"lession2.1/VotingSystem.sol\":1058:1169  if (_vote == VoteOption.NO) {... */\n    tag_78:\n        /* \"lession2.1/VotingSystem.sol\":986:1169  if (_vote == VoteOption.YES) {... */\n    tag_71:\n        /* \"lession2.1/VotingSystem.sol\":1190:1200  msg.sender */\n      caller\n        /* \"lession2.1/VotingSystem.sol\":1184:1208  Voted(msg.sender, _vote) */\n      0xffffffffffffffffffffffffffffffffffffffff\n      and\n      0x14075e33dffdc00c1fcaf75d0f86d667170be57fb566b12b41b499e5fa53b125\n        /* \"lession2.1/VotingSystem.sol\":1202:1207  _vote */\n      dup3\n        /* \"lession2.1/VotingSystem.sol\":1184:1208  Voted(msg.sender, _vote) */\n      mload(0x40)\n      tag_80\n      swap2\n      swap1\n      tag_33\n      jump\t// in\n    tag_80:\n      mload(0x40)\n      dup1\n      swap2\n      sub\n      swap1\n      log2\n        /* \"lession2.1/VotingSystem.sol\":715:1216  function vote(VoteOption _vote) public  {... */\n      pop\n      jump\t// out\n        /* \"lession2.1/VotingSystem.sol\":456:500  mapping (address => VoteOption) public votes */\n    tag_46:\n      mstore(0x20, 0x00)\n      dup1\n      0x00\n      mstore\n      keccak256(0x00, 0x40)\n      0x00\n      swap2\n      pop\n      sload\n      swap1\n      0x0100\n      exp\n      swap1\n      div\n      0xff\n      and\n      dup2\n      jump\t// out\n        /* \"#utility.yul\":88:205   */\n    tag_82:\n        /* \"#utility.yul\":197:198   */\n      0x00\n        /* \"#utility.yul\":194:195   */\n      0x00\n        /* \"#utility.yul\":187:199   */\n      revert\n        /* \"#utility.yul\":334:460   */\n    tag_84:\n        /* \"#utility.yul\":371:378   */\n      0x00\n        /* \"#utility.yul\":411:453   */\n      0xffffffffffffffffffffffffffffffffffffffff\n        /* \"#utility.yul\":404:409   */\n      dup3\n        /* \"#utility.yul\":400:454   */\n      and\n        /* \"#utility.yul\":389:454   */\n      swap1\n      pop\n        /* \"#utility.yul\":334:460   */\n      swap2\n      swap1\n      pop\n      jump\t// out\n        /* \"#utility.yul\":466:562   */\n    tag_85:\n        /* \"#utility.yul\":503:510   */\n      0x00\n        /* \"#utility.yul\":532:556   */\n      tag_110\n        /* \"#utility.yul\":550:555   */\n      dup3\n        /* \"#utility.yul\":532:556   */\n      tag_84\n      jump\t// in\n    tag_110:\n        /* \"#utility.yul\":521:556   */\n      swap1\n      pop\n        /* \"#utility.yul\":466:562   */\n      swap2\n      swap1\n      pop\n      jump\t// out\n        /* \"#utility.yul\":568:690   */\n    tag_86:\n        /* \"#utility.yul\":641:665   */\n      tag_112\n        /* \"#utility.yul\":659:664   */\n      dup2\n        /* \"#utility.yul\":641:665   */\n      tag_85\n      jump\t// in\n    tag_112:\n        /* \"#utility.yul\":634:639   */\n      dup2\n        /* \"#utility.yul\":631:666   */\n      eq\n        /* \"#utility.yul\":621:684   */\n      tag_113\n      jumpi\n        /* \"#utility.yul\":680:681   */\n      0x00\n        /* \"#utility.yul\":677:678   */\n      0x00\n        /* \"#utility.yul\":670:682   */\n      revert\n        /* \"#utility.yul\":621:684   */\n    tag_113:\n        /* \"#utility.yul\":568:690   */\n      pop\n      jump\t// out\n        /* \"#utility.yul\":696:835   */\n    tag_87:\n        /* \"#utility.yul\":742:747   */\n      0x00\n        /* \"#utility.yul\":780:786   */\n      dup2\n        /* \"#utility.yul\":767:787   */\n      calldataload\n        /* \"#utility.yul\":758:787   */\n      swap1\n      pop\n        /* \"#utility.yul\":796:829   */\n      tag_115\n        /* \"#utility.yul\":823:828   */\n      dup2\n        /* \"#utility.yul\":796:829   */\n      tag_86\n      jump\t// in\n    tag_115:\n        /* \"#utility.yul\":696:835   */\n      swap3\n      swap2\n      pop\n      pop\n      jump\t// out\n        /* \"#utility.yul\":841:1170   */\n    tag_15:\n        /* \"#utility.yul\":900:906   */\n      0x00\n        /* \"#utility.yul\":949:951   */\n      0x20\n        /* \"#utility.yul\":937:946   */\n      dup3\n        /* \"#utility.yul\":928:935   */\n      dup5\n        /* \"#utility.yul\":924:947   */\n      sub\n        /* \"#utility.yul\":920:952   */\n      slt\n        /* \"#utility.yul\":917:1036   */\n      iszero\n      tag_117\n      jumpi\n        /* \"#utility.yul\":955:1034   */\n      tag_118\n      tag_82\n      jump\t// in\n    tag_118:\n        /* \"#utility.yul\":917:1036   */\n    tag_117:\n        /* \"#utility.yul\":1075:1076   */\n      0x00\n        /* \"#utility.yul\":1100:1153   */\n      tag_119\n        /* \"#utility.yul\":1145:1152   */\n      dup5\n        /* \"#utility.yul\":1136:1142   */\n      dup3\n        /* \"#utility.yul\":1125:1134   */\n      dup6\n        /* \"#utility.yul\":1121:1143   */\n      add\n        /* \"#utility.yul\":1100:1153   */\n      tag_87\n      jump\t// in\n    tag_119:\n        /* \"#utility.yul\":1090:1153   */\n      swap2\n      pop\n        /* \"#utility.yul\":1046:1163   */\n      pop\n        /* \"#utility.yul\":841:1170   */\n      swap3\n      swap2\n      pop\n      pop\n      jump\t// out\n        /* \"#utility.yul\":1176:1266   */\n    tag_88:\n        /* \"#utility.yul\":1210:1217   */\n      0x00\n        /* \"#utility.yul\":1253:1258   */\n      dup2\n        /* \"#utility.yul\":1246:1259   */\n      iszero\n        /* \"#utility.yul\":1239:1260   */\n      iszero\n        /* \"#utility.yul\":1228:1260   */\n      swap1\n      pop\n        /* \"#utility.yul\":1176:1266   */\n      swap2\n      swap1\n      pop\n      jump\t// out\n        /* \"#utility.yul\":1272:1381   */\n    tag_89:\n        /* \"#utility.yul\":1353:1374   */\n      tag_122\n        /* \"#utility.yul\":1368:1373   */\n      dup2\n        /* \"#utility.yul\":1353:1374   */\n      tag_88\n      jump\t// in\n    tag_122:\n        /* \"#utility.yul\":1348:1351   */\n      dup3\n        /* \"#utility.yul\":1341:1375   */\n      mstore\n        /* \"#utility.yul\":1272:1381   */\n      pop\n      pop\n      jump\t// out\n        /* \"#utility.yul\":1387:1597   */\n    tag_18:\n        /* \"#utility.yul\":1474:1478   */\n      0x00\n        /* \"#utility.yul\":1512:1514   */\n      0x20\n        /* \"#utility.yul\":1501:1510   */\n      dup3\n        /* \"#utility.yul\":1497:1515   */\n      add\n        /* \"#utility.yul\":1489:1515   */\n      swap1\n      pop\n        /* \"#utility.yul\":1525:1590   */\n      tag_124\n        /* \"#utility.yul\":1587:1588   */\n      0x00\n        /* \"#utility.yul\":1576:1585   */\n      dup4\n        /* \"#utility.yul\":1572:1589   */\n      add\n        /* \"#utility.yul\":1563:1569   */\n      dup5\n        /* \"#utility.yul\":1525:1590   */\n      tag_89\n      jump\t// in\n    tag_124:\n        /* \"#utility.yul\":1387:1597   */\n      swap3\n      swap2\n      pop\n      pop\n      jump\t// out\n        /* \"#utility.yul\":1603:1680   */\n    tag_90:\n        /* \"#utility.yul\":1640:1647   */\n      0x00\n        /* \"#utility.yul\":1669:1674   */\n      dup2\n        /* \"#utility.yul\":1658:1674   */\n      swap1\n      pop\n        /* \"#utility.yul\":1603:1680   */\n      swap2\n      swap1\n      pop\n      jump\t// out\n        /* \"#utility.yul\":1686:1804   */\n    tag_91:\n        /* \"#utility.yul\":1773:1797   */\n      tag_127\n        /* \"#utility.yul\":1791:1796   */\n      dup2\n        /* \"#utility.yul\":1773:1797   */\n      tag_90\n      jump\t// in\n    tag_127:\n        /* \"#utility.yul\":1768:1771   */\n      dup3\n        /* \"#utility.yul\":1761:1798   */\n      mstore\n        /* \"#utility.yul\":1686:1804   */\n      pop\n      pop\n      jump\t// out\n        /* \"#utility.yul\":1810:2032   */\n    tag_22:\n        /* \"#utility.yul\":1903:1907   */\n      0x00\n        /* \"#utility.yul\":1941:1943   */\n      0x20\n        /* \"#utility.yul\":1930:1939   */\n      dup3\n        /* \"#utility.yul\":1926:1944   */\n      add\n        /* \"#utility.yul\":1918:1944   */\n      swap1\n      pop\n        /* \"#utility.yul\":1954:2025   */\n      tag_129\n        /* \"#utility.yul\":2022:2023   */\n      0x00\n        /* \"#utility.yul\":2011:2020   */\n      dup4\n        /* \"#utility.yul\":2007:2024   */\n      add\n        /* \"#utility.yul\":1998:2004   */\n      dup5\n        /* \"#utility.yul\":1954:2025   */\n      tag_91\n      jump\t// in\n    tag_129:\n        /* \"#utility.yul\":1810:2032   */\n      swap3\n      swap2\n      pop\n      pop\n      jump\t// out\n        /* \"#utility.yul\":2038:2480   */\n    tag_26:\n        /* \"#utility.yul\":2187:2191   */\n      0x00\n        /* \"#utility.yul\":2225:2227   */\n      0x60\n        /* \"#utility.yul\":2214:2223   */\n      dup3\n        /* \"#utility.yul\":2210:2228   */\n      add\n        /* \"#utility.yul\":2202:2228   */\n      swap1\n      pop\n        /* \"#utility.yul\":2238:2309   */\n      tag_131\n        /* \"#utility.yul\":2306:2307   */\n      0x00\n        /* \"#utility.yul\":2295:2304   */\n      dup4\n        /* \"#utility.yul\":2291:2308   */\n      add\n        /* \"#utility.yul\":2282:2288   */\n      dup7\n        /* \"#utility.yul\":2238:2309   */\n      tag_91\n      jump\t// in\n    tag_131:\n        /* \"#utility.yul\":2319:2391   */\n      tag_132\n        /* \"#utility.yul\":2387:2389   */\n      0x20\n        /* \"#utility.yul\":2376:2385   */\n      dup4\n        /* \"#utility.yul\":2372:2390   */\n      add\n        /* \"#utility.yul\":2363:2369   */\n      dup6\n        /* \"#utility.yul\":2319:2391   */\n      tag_91\n      jump\t// in\n    tag_132:\n        /* \"#utility.yul\":2401:2473   */\n      tag_133\n        /* \"#utility.yul\":2469:2471   */\n      0x40\n        /* \"#utility.yul\":2458:2467   */\n      dup4\n        /* \"#utility.yul\":2454:2472   */\n      add\n        /* \"#utility.yul\":2445:2451   */\n      dup5\n        /* \"#utility.yul\":2401:2473   */\n      tag_91\n      jump\t// in\n    tag_133:\n        /* \"#utility.yul\":2038:2480   */\n      swap5\n      swap4\n      pop\n      pop\n      pop\n      pop\n      jump\t// out\n        /* \"#utility.yul\":2486:2666   */\n    tag_63:\n        /* \"#utility.yul\":2534:2611   */\n      0x4e487b7100000000000000000000000000000000000000000000000000000000\n        /* \"#utility.yul\":2531:2532   */\n      0x00\n        /* \"#utility.yul\":2524:2612   */\n      mstore\n        /* \"#utility.yul\":2631:2635   */\n      0x21\n        /* \"#utility.yul\":2628:2629   */\n      0x04\n        /* \"#utility.yul\":2621:2636   */\n      mstore\n        /* \"#utility.yul\":2655:2659   */\n      0x24\n        /* \"#utility.yul\":2652:2653   */\n      0x00\n        /* \"#utility.yul\":2645:2660   */\n      revert\n        /* \"#utility.yul\":2672:2789   */\n    tag_92:\n        /* \"#utility.yul\":2757:2758   */\n      0x03\n        /* \"#utility.yul\":2750:2755   */\n      dup2\n        /* \"#utility.yul\":2747:2759   */\n      lt\n        /* \"#utility.yul\":2737:2783   */\n      tag_136\n      jumpi\n        /* \"#utility.yul\":2763:2781   */\n      tag_137\n      tag_63\n      jump\t// in\n    tag_137:\n        /* \"#utility.yul\":2737:2783   */\n    tag_136:\n        /* \"#utility.yul\":2672:2789   */\n      pop\n      jump\t// out\n        /* \"#utility.yul\":2795:2930   */\n    tag_93:\n        /* \"#utility.yul\":2844:2851   */\n      0x00\n        /* \"#utility.yul\":2873:2878   */\n      dup2\n        /* \"#utility.yul\":2862:2878   */\n      swap1\n      pop\n        /* \"#utility.yul\":2879:2924   */\n      tag_139\n        /* \"#utility.yul\":2918:2923   */\n      dup3\n        /* \"#utility.yul\":2879:2924   */\n      tag_92\n      jump\t// in\n    tag_139:\n        /* \"#utility.yul\":2795:2930   */\n      swap2\n      swap1\n      pop\n      jump\t// out\n        /* \"#utility.yul\":2936:3071   */\n    tag_94:\n        /* \"#utility.yul\":2996:3005   */\n      0x00\n        /* \"#utility.yul\":3029:3065   */\n      tag_141\n        /* \"#utility.yul\":3059:3064   */\n      dup3\n        /* \"#utility.yul\":3029:3065   */\n      tag_93\n      jump\t// in\n    tag_141:\n        /* \"#utility.yul\":3016:3065   */\n      swap1\n      pop\n        /* \"#utility.yul\":2936:3071   */\n      swap2\n      swap1\n      pop\n      jump\t// out\n        /* \"#utility.yul\":3077:3228   */\n    tag_95:\n        /* \"#utility.yul\":3174:3221   */\n      tag_143\n        /* \"#utility.yul\":3215:3220   */\n      dup2\n        /* \"#utility.yul\":3174:3221   */\n      tag_94\n      jump\t// in\n    tag_143:\n        /* \"#utility.yul\":3169:3172   */\n      dup3\n        /* \"#utility.yul\":3162:3222   */\n      mstore\n        /* \"#utility.yul\":3077:3228   */\n      pop\n      pop\n      jump\t// out\n        /* \"#utility.yul\":3234:3476   */\n    tag_33:\n        /* \"#utility.yul\":3337:3341   */\n      0x00\n        /* \"#utility.yul\":3375:3377   */\n      0x20\n        /* \"#utility.yul\":3364:3373   */\n      dup3\n        /* \"#utility.yul\":3360:3378   */\n      add\n        /* \"#utility.yul\":3352:3378   */\n      swap1\n      pop\n        /* \"#utility.yul\":3388:3469   */\n      tag_145\n        /* \"#utility.yul\":3466:3467   */\n      0x00\n        /* \"#utility.yul\":3455:3464   */\n      dup4\n        /* \"#utility.yul\":3451:3468   */\n      add\n        /* \"#utility.yul\":3442:3448   */\n      dup5\n        /* \"#utility.yul\":3388:3469   */\n      tag_95\n      jump\t// in\n    tag_145:\n        /* \"#utility.yul\":3234:3476   */\n      swap3\n      swap2\n      pop\n      pop\n      jump\t// out\n        /* \"#utility.yul\":3482:3593   */\n    tag_96:\n        /* \"#utility.yul\":3567:3568   */\n      0x03\n        /* \"#utility.yul\":3560:3565   */\n      dup2\n        /* \"#utility.yul\":3557:3569   */\n      lt\n        /* \"#utility.yul\":3547:3587   */\n      tag_147\n      jumpi\n        /* \"#utility.yul\":3583:3584   */\n      0x00\n        /* \"#utility.yul\":3580:3581   */\n      0x00\n        /* \"#utility.yul\":3573:3585   */\n      revert\n        /* \"#utility.yul\":3547:3587   */\n    tag_147:\n        /* \"#utility.yul\":3482:3593   */\n      pop\n      jump\t// out\n        /* \"#utility.yul\":3599:3762   */\n    tag_97:\n        /* \"#utility.yul\":3657:3662   */\n      0x00\n        /* \"#utility.yul\":3695:3701   */\n      dup2\n        /* \"#utility.yul\":3682:3702   */\n      calldataload\n        /* \"#utility.yul\":3673:3702   */\n      swap1\n      pop\n        /* \"#utility.yul\":3711:3756   */\n      tag_149\n        /* \"#utility.yul\":3750:3755   */\n      dup2\n        /* \"#utility.yul\":3711:3756   */\n      tag_96\n      jump\t// in\n    tag_149:\n        /* \"#utility.yul\":3599:3762   */\n      swap3\n      swap2\n      pop\n      pop\n      jump\t// out\n        /* \"#utility.yul\":3768:4121   */\n    tag_42:\n        /* \"#utility.yul\":3839:3845   */\n      0x00\n        /* \"#utility.yul\":3888:3890   */\n      0x20\n        /* \"#utility.yul\":3876:3885   */\n      dup3\n        /* \"#utility.yul\":3867:3874   */\n      dup5\n        /* \"#utility.yul\":3863:3886   */\n      sub\n        /* \"#utility.yul\":3859:3891   */\n      slt\n        /* \"#utility.yul\":3856:3975   */\n      iszero\n      tag_151\n      jumpi\n        /* \"#utility.yul\":3894:3973   */\n      tag_152\n      tag_82\n      jump\t// in\n    tag_152:\n        /* \"#utility.yul\":3856:3975   */\n    tag_151:\n        /* \"#utility.yul\":4014:4015   */\n      0x00\n        /* \"#utility.yul\":4039:4104   */\n      tag_153\n        /* \"#utility.yul\":4096:4103   */\n      dup5\n        /* \"#utility.yul\":4087:4093   */\n      dup3\n        /* \"#utility.yul\":4076:4085   */\n      dup6\n        /* \"#utility.yul\":4072:4094   */\n      add\n        /* \"#utility.yul\":4039:4104   */\n      tag_97\n      jump\t// in\n    tag_153:\n        /* \"#utility.yul\":4029:4104   */\n      swap2\n      pop\n        /* \"#utility.yul\":3985:4114   */\n      pop\n        /* \"#utility.yul\":3768:4121   */\n      swap3\n      swap2\n      pop\n      pop\n      jump\t// out\n        /* \"#utility.yul\":4127:4296   */\n    tag_98:\n        /* \"#utility.yul\":4211:4222   */\n      0x00\n        /* \"#utility.yul\":4245:4251   */\n      dup3\n        /* \"#utility.yul\":4240:4243   */\n      dup3\n        /* \"#utility.yul\":4233:4252   */\n      mstore\n        /* \"#utility.yul\":4285:4289   */\n      0x20\n        /* \"#utility.yul\":4280:4283   */\n      dup3\n        /* \"#utility.yul\":4276:4290   */\n      add\n        /* \"#utility.yul\":4261:4290   */\n      swap1\n      pop\n        /* \"#utility.yul\":4127:4296   */\n      swap3\n      swap2\n      pop\n      pop\n      jump\t// out\n        /* \"#utility.yul\":4302:4472   */\n    tag_99:\n        /* \"#utility.yul\":4442:4464   */\n      0x596f75206e65656420766f746520666972737421000000000000000000000000\n        /* \"#utility.yul\":4438:4439   */\n      0x00\n        /* \"#utility.yul\":4430:4436   */\n      dup3\n        /* \"#utility.yul\":4426:4440   */\n      add\n        /* \"#utility.yul\":4419:4465   */\n      mstore\n        /* \"#utility.yul\":4302:4472   */\n      pop\n      jump\t// out\n        /* \"#utility.yul\":4478:4844   */\n    tag_100:\n        /* \"#utility.yul\":4620:4623   */\n      0x00\n        /* \"#utility.yul\":4641:4708   */\n      tag_157\n        /* \"#utility.yul\":4705:4707   */\n      0x14\n        /* \"#utility.yul\":4700:4703   */\n      dup4\n        /* \"#utility.yul\":4641:4708   */\n      tag_98\n      jump\t// in\n    tag_157:\n        /* \"#utility.yul\":4634:4708   */\n      swap2\n      pop\n        /* \"#utility.yul\":4717:4810   */\n      tag_158\n        /* \"#utility.yul\":4806:4809   */\n      dup3\n        /* \"#utility.yul\":4717:4810   */\n      tag_99\n      jump\t// in\n    tag_158:\n        /* \"#utility.yul\":4835:4837   */\n      0x20\n        /* \"#utility.yul\":4830:4833   */\n      dup3\n        /* \"#utility.yul\":4826:4838   */\n      add\n        /* \"#utility.yul\":4819:4838   */\n      swap1\n      pop\n        /* \"#utility.yul\":4478:4844   */\n      swap2\n      swap1\n      pop\n      jump\t// out\n        /* \"#utility.yul\":4850:5269   */\n    tag_52:\n        /* \"#utility.yul\":5016:5020   */\n      0x00\n        /* \"#utility.yul\":5054:5056   */\n      0x20\n        /* \"#utility.yul\":5043:5052   */\n      dup3\n        /* \"#utility.yul\":5039:5057   */\n      add\n        /* \"#utility.yul\":5031:5057   */\n      swap1\n      pop\n        /* \"#utility.yul\":5103:5112   */\n      dup2\n        /* \"#utility.yul\":5097:5101   */\n      dup2\n        /* \"#utility.yul\":5093:5113   */\n      sub\n        /* \"#utility.yul\":5089:5090   */\n      0x00\n        /* \"#utility.yul\":5078:5087   */\n      dup4\n        /* \"#utility.yul\":5074:5091   */\n      add\n        /* \"#utility.yul\":5067:5114   */\n      mstore\n        /* \"#utility.yul\":5131:5262   */\n      tag_160\n        /* \"#utility.yul\":5257:5261   */\n      dup2\n        /* \"#utility.yul\":5131:5262   */\n      tag_100\n      jump\t// in\n    tag_160:\n        /* \"#utility.yul\":5123:5262   */\n      swap1\n      pop\n        /* \"#utility.yul\":4850:5269   */\n      swap2\n      swap1\n      pop\n      jump\t// out\n        /* \"#utility.yul\":5275:5455   */\n    tag_101:\n        /* \"#utility.yul\":5323:5400   */\n      0x4e487b7100000000000000000000000000000000000000000000000000000000\n        /* \"#utility.yul\":5320:5321   */\n      0x00\n        /* \"#utility.yul\":5313:5401   */\n      mstore\n        /* \"#utility.yul\":5420:5424   */\n      0x11\n        /* \"#utility.yul\":5417:5418   */\n      0x04\n        /* \"#utility.yul\":5410:5425   */\n      mstore\n        /* \"#utility.yul\":5444:5448   */\n      0x24\n        /* \"#utility.yul\":5441:5442   */\n      0x00\n        /* \"#utility.yul\":5434:5449   */\n      revert\n        /* \"#utility.yul\":5461:5652   */\n    tag_55:\n        /* \"#utility.yul\":5501:5504   */\n      0x00\n        /* \"#utility.yul\":5520:5540   */\n      tag_163\n        /* \"#utility.yul\":5538:5539   */\n      dup3\n        /* \"#utility.yul\":5520:5540   */\n      tag_90\n      jump\t// in\n    tag_163:\n        /* \"#utility.yul\":5515:5540   */\n      swap2\n      pop\n        /* \"#utility.yul\":5554:5574   */\n      tag_164\n        /* \"#utility.yul\":5572:5573   */\n      dup4\n        /* \"#utility.yul\":5554:5574   */\n      tag_90\n      jump\t// in\n    tag_164:\n        /* \"#utility.yul\":5549:5574   */\n      swap3\n      pop\n        /* \"#utility.yul\":5597:5598   */\n      dup3\n        /* \"#utility.yul\":5594:5595   */\n      dup3\n        /* \"#utility.yul\":5590:5599   */\n      add\n        /* \"#utility.yul\":5583:5599   */\n      swap1\n      pop\n        /* \"#utility.yul\":5618:5621   */\n      dup1\n        /* \"#utility.yul\":5615:5616   */\n      dup3\n        /* \"#utility.yul\":5612:5622   */\n      gt\n        /* \"#utility.yul\":5609:5645   */\n      iszero\n      tag_165\n      jumpi\n        /* \"#utility.yul\":5625:5643   */\n      tag_166\n      tag_101\n      jump\t// in\n    tag_166:\n        /* \"#utility.yul\":5609:5645   */\n    tag_165:\n        /* \"#utility.yul\":5461:5652   */\n      swap3\n      swap2\n      pop\n      pop\n      jump\t// out\n        /* \"#utility.yul\":5658:5826   */\n    tag_102:\n        /* \"#utility.yul\":5798:5818   */\n      0x596f7520616c726561647920766f746564210000000000000000000000000000\n        /* \"#utility.yul\":5794:5795   */\n      0x00\n        /* \"#utility.yul\":5786:5792   */\n      dup3\n        /* \"#utility.yul\":5782:5796   */\n      add\n        /* \"#utility.yul\":5775:5819   */\n      mstore\n        /* \"#utility.yul\":5658:5826   */\n      pop\n      jump\t// out\n        /* \"#utility.yul\":5832:6198   */\n    tag_103:\n        /* \"#utility.yul\":5974:5977   */\n      0x00\n        /* \"#utility.yul\":5995:6062   */\n      tag_169\n        /* \"#utility.yul\":6059:6061   */\n      0x12\n        /* \"#utility.yul\":6054:6057   */\n      dup4\n        /* \"#utility.yul\":5995:6062   */\n      tag_98\n      jump\t// in\n    tag_169:\n        /* \"#utility.yul\":5988:6062   */\n      swap2\n      pop\n        /* \"#utility.yul\":6071:6164   */\n      tag_170\n        /* \"#utility.yul\":6160:6163   */\n      dup3\n        /* \"#utility.yul\":6071:6164   */\n      tag_102\n      jump\t// in\n    tag_170:\n        /* \"#utility.yul\":6189:6191   */\n      0x20\n        /* \"#utility.yul\":6184:6187   */\n      dup3\n        /* \"#utility.yul\":6180:6192   */\n      add\n        /* \"#utility.yul\":6173:6192   */\n      swap1\n      pop\n        /* \"#utility.yul\":5832:6198   */\n      swap2\n      swap1\n      pop\n      jump\t// out\n        /* \"#utility.yul\":6204:6623   */\n    tag_60:\n        /* \"#utility.yul\":6370:6374   */\n      0x00\n        /* \"#utility.yul\":6408:6410   */\n      0x20\n        /* \"#utility.yul\":6397:6406   */\n      dup3\n        /* \"#utility.yul\":6393:6411   */\n      add\n        /* \"#utility.yul\":6385:6411   */\n      swap1\n      pop\n        /* \"#utility.yul\":6457:6466   */\n      dup2\n        /* \"#utility.yul\":6451:6455   */\n      dup2\n        /* \"#utility.yul\":6447:6467   */\n      sub\n        /* \"#utility.yul\":6443:6444   */\n      0x00\n        /* \"#utility.yul\":6432:6441   */\n      dup4\n        /* \"#utility.yul\":6428:6445   */\n      add\n        /* \"#utility.yul\":6421:6468   */\n      mstore\n        /* \"#utility.yul\":6485:6616   */\n      tag_172\n        /* \"#utility.yul\":6611:6615   */\n      dup2\n        /* \"#utility.yul\":6485:6616   */\n      tag_103\n      jump\t// in\n    tag_172:\n        /* \"#utility.yul\":6477:6616   */\n      swap1\n      pop\n        /* \"#utility.yul\":6204:6623   */\n      swap2\n      swap1\n      pop\n      jump\t// out\n        /* \"#utility.yul\":6629:6862   */\n    tag_70:\n        /* \"#utility.yul\":6668:6671   */\n      0x00\n        /* \"#utility.yul\":6691:6715   */\n      tag_174\n        /* \"#utility.yul\":6709:6714   */\n      dup3\n        /* \"#utility.yul\":6691:6715   */\n      tag_90\n      jump\t// in\n    tag_174:\n        /* \"#utility.yul\":6682:6715   */\n      swap2\n      pop\n        /* \"#utility.yul\":6737:6803   */\n      0xffffffffffffffffffffffffffffffffffffffffffffffffffffffffffffffff\n        /* \"#utility.yul\":6730:6735   */\n      dup3\n        /* \"#utility.yul\":6727:6804   */\n      sub\n        /* \"#utility.yul\":6724:6827   */\n      tag_175\n      jumpi\n        /* \"#utility.yul\":6807:6825   */\n      tag_176\n      tag_101\n      jump\t// in\n    tag_176:\n        /* \"#utility.yul\":6724:6827   */\n    tag_175:\n        /* \"#utility.yul\":6854:6855   */\n      0x01\n        /* \"#utility.yul\":6847:6852   */\n      dup3\n        /* \"#utility.yul\":6843:6856   */\n      add\n        /* \"#utility.yul\":6836:6856   */\n      swap1\n      pop\n        /* \"#utility.yul\":6629:6862   */\n      swap2\n      swap1\n      pop\n      jump\t// out\n\n    auxdata: 0xa2646970667358221220d5f0912fb58995e3ca376cd2c9040431f9060a273d4d75922b27785912e0251964736f6c63430008220033\n}\n",
				"bytecode": {
					"linkReferences": {},
					"object": "6080604052348015600e575f5ffd5b506109178061001c5f395ff3fe608060405234801561000f575f5ffd5b5060043610610091575f3560e01c80638cb647d3116100645780638cb647d3146101215780639a0e7d661461013f578063a2fcbad71461015d578063b3f98adc1461017b578063d8bff5a51461019757610091565b806309eef43e146100955780633e118090146100c55780634717f97c146100e35780635c8d954114610103575b5f5ffd5b6100af60048036038101906100aa91906105bc565b6101c7565b6040516100bc9190610601565b60405180910390f35b6100cd6101e4565b6040516100da9190610632565b60405180910390f35b6100eb6101ea565b6040516100fa9392919061064b565b60405180910390f35b61010b610201565b6040516101189190610632565b60405180910390f35b610129610207565b60405161013691906106f3565b60405180910390f35b6101476102df565b6040516101549190610632565b60405180910390f35b610165610302565b6040516101729190610632565b60405180910390f35b6101956004803603810190610190919061072f565b610308565b005b6101b160048036038101906101ac91906105bc565b610542565b6040516101be91906106f3565b60405180910390f35b6001602052805f5260405f205f915054906101000a900460ff1681565b60045481565b5f5f5f600254600354600454925092509250909192565b60025481565b5f60015f3373ffffffffffffffffffffffffffffffffffffffff1673ffffffffffffffffffffffffffffffffffffffff1681526020019081526020015f205f9054906101000a900460ff16610291576040517f08c379a0000000000000000000000000000000000000000000000000000000008152600401610288906107b4565b60405180910390fd5b5f5f3373ffffffffffffffffffffffffffffffffffffffff1673ffffffffffffffffffffffffffffffffffffffff1681526020019081526020015f205f9054906101000a900460ff16905090565b5f6004546003546002546102f391906107ff565b6102fd91906107ff565b905090565b60035481565b60015f3373ffffffffffffffffffffffffffffffffffffffff1673ffffffffffffffffffffffffffffffffffffffff1681526020019081526020015f205f9054906101000a900460ff1615610392576040517f08c379a00000000000000000000000000000000000000000000000000000000081526004016103899061087c565b60405180910390fd5b805f5f3373ffffffffffffffffffffffffffffffffffffffff1673ffffffffffffffffffffffffffffffffffffffff1681526020019081526020015f205f6101000a81548160ff021916908360028111156103f0576103ef610680565b5b02179055506001805f3373ffffffffffffffffffffffffffffffffffffffff1673ffffffffffffffffffffffffffffffffffffffff1681526020019081526020015f205f6101000a81548160ff0219169083151502179055505f600281111561045c5761045b610680565b5b81600281111561046f5761046e610680565b5b036104905760025f8154809291906104869061089a565b91905055506104f1565b600160028111156104a4576104a3610680565b5b8160028111156104b7576104b6610680565b5b036104d85760035f8154809291906104ce9061089a565b91905055506104f0565b60045f8154809291906104ea9061089a565b91905055505b5b3373ffffffffffffffffffffffffffffffffffffffff167f14075e33dffdc00c1fcaf75d0f86d667170be57fb566b12b41b499e5fa53b1258260405161053791906106f3565b60405180910390a250565b5f602052805f5260405f205f915054906101000a900460ff1681565b5f5ffd5b5f73ffffffffffffffffffffffffffffffffffffffff82169050919050565b5f61058b82610562565b9050919050565b61059b81610581565b81146105a5575f5ffd5b50565b5f813590506105b681610592565b92915050565b5f602082840312156105d1576105d061055e565b5b5f6105de848285016105a8565b91505092915050565b5f8115159050919050565b6105fb816105e7565b82525050565b5f6020820190506106145f8301846105f2565b92915050565b5f819050919050565b61062c8161061a565b82525050565b5f6020820190506106455f830184610623565b92915050565b5f60608201905061065e5f830186610623565b61066b6020830185610623565b6106786040830184610623565b949350505050565b7f4e487b71000000000000000000000000000000000000000000000000000000005f52602160045260245ffd5b600381106106be576106bd610680565b5b50565b5f8190506106ce826106ad565b919050565b5f6106dd826106c1565b9050919050565b6106ed816106d3565b82525050565b5f6020820190506107065f8301846106e4565b92915050565b60038110610718575f5ffd5b50565b5f813590506107298161070c565b92915050565b5f602082840312156107445761074361055e565b5b5f6107518482850161071b565b91505092915050565b5f82825260208201905092915050565b7f596f75206e65656420766f7465206669727374210000000000000000000000005f82015250565b5f61079e60148361075a565b91506107a98261076a565b602082019050919050565b5f6020820190508181035f8301526107cb81610792565b9050919050565b7f4e487b71000000000000000000000000000000000000000000000000000000005f52601160045260245ffd5b5f6108098261061a565b91506108148361061a565b925082820190508082111561082c5761082b6107d2565b5b92915050565b7f596f7520616c726561647920766f7465642100000000000000000000000000005f82015250565b5f61086660128361075a565b915061087182610832565b602082019050919050565b5f6020820190508181035f8301526108938161085a565b9050919050565b5f6108a48261061a565b91507fffffffffffffffffffffffffffffffffffffffffffffffffffffffffffffffff82036108d6576108d56107d2565b5b60018201905091905056fea2646970667358221220d5f0912fb58995e3ca376cd2c9040431f9060a273d4d75922b27785912e0251964736f6c63430008220033",
					"opcodes": "PUSH1 0x80 PUSH1 0x40 MSTORE CALLVALUE DUP1 ISZERO PUSH1 0xE JUMPI PUSH0 PUSH0 REVERT JUMPDEST POP PUSH2 0x917 DUP1 PUSH2 0x1C PUSH0 CODECOPY PUSH0 RETURN INVALID PUSH1 0x80 PUSH1 0x40 MSTORE CALLVALUE DUP1 ISZERO PUSH2 0xF JUMPI PUSH0 PUSH0 REVERT JUMPDEST POP PUSH1 0x4 CALLDATASIZE LT PUSH2 0x91 JUMPI PUSH0 CALLDATALOAD PUSH1 0xE0 SHR DUP1 PUSH4 0x8CB647D3 GT PUSH2 0x64 JUMPI DUP1 PUSH4 0x8CB647D3 EQ PUSH2 0x121 JUMPI DUP1 PUSH4 0x9A0E7D66 EQ PUSH2 0x13F JUMPI DUP1 PUSH4 0xA2FCBAD7 EQ PUSH2 0x15D JUMPI DUP1 PUSH4 0xB3F98ADC EQ PUSH2 0x17B JUMPI DUP1 PUSH4 0xD8BFF5A5 EQ PUSH2 0x197 JUMPI PUSH2 0x91 JUMP JUMPDEST DUP1 PUSH4 0x9EEF43E EQ PUSH2 0x95 JUMPI DUP1 PUSH4 0x3E118090 EQ PUSH2 0xC5 JUMPI DUP1 PUSH4 0x4717F97C EQ PUSH2 0xE3 JUMPI DUP1 PUSH4 0x5C8D9541 EQ PUSH2 0x103 JUMPI JUMPDEST PUSH0 PUSH0 REVERT JUMPDEST PUSH2 0xAF PUSH1 0x4 DUP1 CALLDATASIZE SUB DUP2 ADD SWAP1 PUSH2 0xAA SWAP2 SWAP1 PUSH2 0x5BC JUMP JUMPDEST PUSH2 0x1C7 JUMP JUMPDEST PUSH1 0x40 MLOAD PUSH2 0xBC SWAP2 SWAP1 PUSH2 0x601 JUMP JUMPDEST PUSH1 0x40 MLOAD DUP1 SWAP2 SUB SWAP1 RETURN JUMPDEST PUSH2 0xCD PUSH2 0x1E4 JUMP JUMPDEST PUSH1 0x40 MLOAD PUSH2 0xDA SWAP2 SWAP1 PUSH2 0x632 JUMP JUMPDEST PUSH1 0x40 MLOAD DUP1 SWAP2 SUB SWAP1 RETURN JUMPDEST PUSH2 0xEB PUSH2 0x1EA JUMP JUMPDEST PUSH1 0x40 MLOAD PUSH2 0xFA SWAP4 SWAP3 SWAP2 SWAP1 PUSH2 0x64B JUMP JUMPDEST PUSH1 0x40 MLOAD DUP1 SWAP2 SUB SWAP1 RETURN JUMPDEST PUSH2 0x10B PUSH2 0x201 JUMP JUMPDEST PUSH1 0x40 MLOAD PUSH2 0x118 SWAP2 SWAP1 PUSH2 0x632 JUMP JUMPDEST PUSH1 0x40 MLOAD DUP1 SWAP2 SUB SWAP1 RETURN JUMPDEST PUSH2 0x129 PUSH2 0x207 JUMP JUMPDEST PUSH1 0x40 MLOAD PUSH2 0x136 SWAP2 SWAP1 PUSH2 0x6F3 JUMP JUMPDEST PUSH1 0x40 MLOAD DUP1 SWAP2 SUB SWAP1 RETURN JUMPDEST PUSH2 0x147 PUSH2 0x2DF JUMP JUMPDEST PUSH1 0x40 MLOAD PUSH2 0x154 SWAP2 SWAP1 PUSH2 0x632 JUMP JUMPDEST PUSH1 0x40 MLOAD DUP1 SWAP2 SUB SWAP1 RETURN JUMPDEST PUSH2 0x165 PUSH2 0x302 JUMP JUMPDEST PUSH1 0x40 MLOAD PUSH2 0x172 SWAP2 SWAP1 PUSH2 0x632 JUMP JUMPDEST PUSH1 0x40 MLOAD DUP1 SWAP2 SUB SWAP1 RETURN JUMPDEST PUSH2 0x195 PUSH1 0x4 DUP1 CALLDATASIZE SUB DUP2 ADD SWAP1 PUSH2 0x190 SWAP2 SWAP1 PUSH2 0x72F JUMP JUMPDEST PUSH2 0x308 JUMP JUMPDEST STOP JUMPDEST PUSH2 0x1B1 PUSH1 0x4 DUP1 CALLDATASIZE SUB DUP2 ADD SWAP1 PUSH2 0x1AC SWAP2 SWAP1 PUSH2 0x5BC JUMP JUMPDEST PUSH2 0x542 JUMP JUMPDEST PUSH1 0x40 MLOAD PUSH2 0x1BE SWAP2 SWAP1 PUSH2 0x6F3 JUMP JUMPDEST PUSH1 0x40 MLOAD DUP1 SWAP2 SUB SWAP1 RETURN JUMPDEST PUSH1 0x1 PUSH1 0x20 MSTORE DUP1 PUSH0 MSTORE PUSH1 0x40 PUSH0 KECCAK256 PUSH0 SWAP2 POP SLOAD SWAP1 PUSH2 0x100 EXP SWAP1 DIV PUSH1 0xFF AND DUP2 JUMP JUMPDEST PUSH1 0x4 SLOAD DUP2 JUMP JUMPDEST PUSH0 PUSH0 PUSH0 PUSH1 0x2 SLOAD PUSH1 0x3 SLOAD PUSH1 0x4 SLOAD SWAP3 POP SWAP3 POP SWAP3 POP SWAP1 SWAP2 SWAP3 JUMP JUMPDEST PUSH1 0x2 SLOAD DUP2 JUMP JUMPDEST PUSH0 PUSH1 0x1 PUSH0 CALLER PUSH20 0xFFFFFFFFFFFFFFFFFFFFFFFFFFFFFFFFFFFFFFFF AND PUSH20 0xFFFFFFFFFFFFFFFFFFFFFFFFFFFFFFFFFFFFFFFF AND DUP2 MSTORE PUSH1 0x20 ADD SWAP1 DUP2 MSTORE PUSH1 0x20 ADD PUSH0 KECCAK256 PUSH0 SWAP1 SLOAD SWAP1 PUSH2 0x100 EXP SWAP1 DIV PUSH1 0xFF AND PUSH2 0x291 JUMPI PUSH1 0x40 MLOAD PUSH32 0x8C379A000000000000000000000000000000000000000000000000000000000 DUP2 MSTORE PUSH1 0x4 ADD PUSH2 0x288 SWAP1 PUSH2 0x7B4 JUMP JUMPDEST PUSH1 0x40 MLOAD DUP1 SWAP2 SUB SWAP1 REVERT JUMPDEST PUSH0 PUSH0 CALLER PUSH20 0xFFFFFFFFFFFFFFFFFFFFFFFFFFFFFFFFFFFFFFFF AND PUSH20 0xFFFFFFFFFFFFFFFFFFFFFFFFFFFFFFFFFFFFFFFF AND DUP2 MSTORE PUSH1 0x20 ADD SWAP1 DUP2 MSTORE PUSH1 0x20 ADD PUSH0 KECCAK256 PUSH0 SWAP1 SLOAD SWAP1 PUSH2 0x100 EXP SWAP1 DIV PUSH1 0xFF AND SWAP1 POP SWAP1 JUMP JUMPDEST PUSH0 PUSH1 0x4 SLOAD PUSH1 0x3 SLOAD PUSH1 0x2 SLOAD PUSH2 0x2F3 SWAP2 SWAP1 PUSH2 0x7FF JUMP JUMPDEST PUSH2 0x2FD SWAP2 SWAP1 PUSH2 0x7FF JUMP JUMPDEST SWAP1 POP SWAP1 JUMP JUMPDEST PUSH1 0x3 SLOAD DUP2 JUMP JUMPDEST PUSH1 0x1 PUSH0 CALLER PUSH20 0xFFFFFFFFFFFFFFFFFFFFFFFFFFFFFFFFFFFFFFFF AND PUSH20 0xFFFFFFFFFFFFFFFFFFFFFFFFFFFFFFFFFFFFFFFF AND DUP2 MSTORE PUSH1 0x20 ADD SWAP1 DUP2 MSTORE PUSH1 0x20 ADD PUSH0 KECCAK256 PUSH0 SWAP1 SLOAD SWAP1 PUSH2 0x100 EXP SWAP1 DIV PUSH1 0xFF AND ISZERO PUSH2 0x392 JUMPI PUSH1 0x40 MLOAD PUSH32 0x8C379A000000000000000000000000000000000000000000000000000000000 DUP2 MSTORE PUSH1 0x4 ADD PUSH2 0x389 SWAP1 PUSH2 0x87C JUMP JUMPDEST PUSH1 0x40 MLOAD DUP1 SWAP2 SUB SWAP1 REVERT JUMPDEST DUP1 PUSH0 PUSH0 CALLER PUSH20 0xFFFFFFFFFFFFFFFFFFFFFFFFFFFFFFFFFFFFFFFF AND PUSH20 0xFFFFFFFFFFFFFFFFFFFFFFFFFFFFFFFFFFFFFFFF AND DUP2 MSTORE PUSH1 0x20 ADD SWAP1 DUP2 MSTORE PUSH1 0x20 ADD PUSH0 KECCAK256 PUSH0 PUSH2 0x100 EXP DUP2 SLOAD DUP2 PUSH1 0xFF MUL NOT AND SWAP1 DUP4 PUSH1 0x2 DUP2 GT ISZERO PUSH2 0x3F0 JUMPI PUSH2 0x3EF PUSH2 0x680 JUMP JUMPDEST JUMPDEST MUL OR SWAP1 SSTORE POP PUSH1 0x1 DUP1 PUSH0 CALLER PUSH20 0xFFFFFFFFFFFFFFFFFFFFFFFFFFFFFFFFFFFFFFFF AND PUSH20 0xFFFFFFFFFFFFFFFFFFFFFFFFFFFFFFFFFFFFFFFF AND DUP2 MSTORE PUSH1 0x20 ADD SWAP1 DUP2 MSTORE PUSH1 0x20 ADD PUSH0 KECCAK256 PUSH0 PUSH2 0x100 EXP DUP2 SLOAD DUP2 PUSH1 0xFF MUL NOT AND SWAP1 DUP4 ISZERO ISZERO MUL OR SWAP1 SSTORE POP PUSH0 PUSH1 0x2 DUP2 GT ISZERO PUSH2 0x45C JUMPI PUSH2 0x45B PUSH2 0x680 JUMP JUMPDEST JUMPDEST DUP2 PUSH1 0x2 DUP2 GT ISZERO PUSH2 0x46F JUMPI PUSH2 0x46E PUSH2 0x680 JUMP JUMPDEST JUMPDEST SUB PUSH2 0x490 JUMPI PUSH1 0x2 PUSH0 DUP2 SLOAD DUP1 SWAP3 SWAP2 SWAP1 PUSH2 0x486 SWAP1 PUSH2 0x89A JUMP JUMPDEST SWAP2 SWAP1 POP SSTORE POP PUSH2 0x4F1 JUMP JUMPDEST PUSH1 0x1 PUSH1 0x2 DUP2 GT ISZERO PUSH2 0x4A4 JUMPI PUSH2 0x4A3 PUSH2 0x680 JUMP JUMPDEST JUMPDEST DUP2 PUSH1 0x2 DUP2 GT ISZERO PUSH2 0x4B7 JUMPI PUSH2 0x4B6 PUSH2 0x680 JUMP JUMPDEST JUMPDEST SUB PUSH2 0x4D8 JUMPI PUSH1 0x3 PUSH0 DUP2 SLOAD DUP1 SWAP3 SWAP2 SWAP1 PUSH2 0x4CE SWAP1 PUSH2 0x89A JUMP JUMPDEST SWAP2 SWAP1 POP SSTORE POP PUSH2 0x4F0 JUMP JUMPDEST PUSH1 0x4 PUSH0 DUP2 SLOAD DUP1 SWAP3 SWAP2 SWAP1 PUSH2 0x4EA SWAP1 PUSH2 0x89A JUMP JUMPDEST SWAP2 SWAP1 POP SSTORE POP JUMPDEST JUMPDEST CALLER PUSH20 0xFFFFFFFFFFFFFFFFFFFFFFFFFFFFFFFFFFFFFFFF AND PUSH32 0x14075E33DFFDC00C1FCAF75D0F86D667170BE57FB566B12B41B499E5FA53B125 DUP3 PUSH1 0x40 MLOAD PUSH2 0x537 SWAP2 SWAP1 PUSH2 0x6F3 JUMP JUMPDEST PUSH1 0x40 MLOAD DUP1 SWAP2 SUB SWAP1 LOG2 POP JUMP JUMPDEST PUSH0 PUSH1 0x20 MSTORE DUP1 PUSH0 MSTORE PUSH1 0x40 PUSH0 KECCAK256 PUSH0 SWAP2 POP SLOAD SWAP1 PUSH2 0x100 EXP SWAP1 DIV PUSH1 0xFF AND DUP2 JUMP JUMPDEST PUSH0 PUSH0 REVERT JUMPDEST PUSH0 PUSH20 0xFFFFFFFFFFFFFFFFFFFFFFFFFFFFFFFFFFFFFFFF DUP3 AND SWAP1 POP SWAP2 SWAP1 POP JUMP JUMPDEST PUSH0 PUSH2 0x58B DUP3 PUSH2 0x562 JUMP JUMPDEST SWAP1 POP SWAP2 SWAP1 POP JUMP JUMPDEST PUSH2 0x59B DUP2 PUSH2 0x581 JUMP JUMPDEST DUP2 EQ PUSH2 0x5A5 JUMPI PUSH0 PUSH0 REVERT JUMPDEST POP JUMP JUMPDEST PUSH0 DUP2 CALLDATALOAD SWAP1 POP PUSH2 0x5B6 DUP2 PUSH2 0x592 JUMP JUMPDEST SWAP3 SWAP2 POP POP JUMP JUMPDEST PUSH0 PUSH1 0x20 DUP3 DUP5 SUB SLT ISZERO PUSH2 0x5D1 JUMPI PUSH2 0x5D0 PUSH2 0x55E JUMP JUMPDEST JUMPDEST PUSH0 PUSH2 0x5DE DUP5 DUP3 DUP6 ADD PUSH2 0x5A8 JUMP JUMPDEST SWAP2 POP POP SWAP3 SWAP2 POP POP JUMP JUMPDEST PUSH0 DUP2 ISZERO ISZERO SWAP1 POP SWAP2 SWAP1 POP JUMP JUMPDEST PUSH2 0x5FB DUP2 PUSH2 0x5E7 JUMP JUMPDEST DUP3 MSTORE POP POP JUMP JUMPDEST PUSH0 PUSH1 0x20 DUP3 ADD SWAP1 POP PUSH2 0x614 PUSH0 DUP4 ADD DUP5 PUSH2 0x5F2 JUMP JUMPDEST SWAP3 SWAP2 POP POP JUMP JUMPDEST PUSH0 DUP2 SWAP1 POP SWAP2 SWAP1 POP JUMP JUMPDEST PUSH2 0x62C DUP2 PUSH2 0x61A JUMP JUMPDEST DUP3 MSTORE POP POP JUMP JUMPDEST PUSH0 PUSH1 0x20 DUP3 ADD SWAP1 POP PUSH2 0x645 PUSH0 DUP4 ADD DUP5 PUSH2 0x623 JUMP JUMPDEST SWAP3 SWAP2 POP POP JUMP JUMPDEST PUSH0 PUSH1 0x60 DUP3 ADD SWAP1 POP PUSH2 0x65E PUSH0 DUP4 ADD DUP7 PUSH2 0x623 JUMP JUMPDEST PUSH2 0x66B PUSH1 0x20 DUP4 ADD DUP6 PUSH2 0x623 JUMP JUMPDEST PUSH2 0x678 PUSH1 0x40 DUP4 ADD DUP5 PUSH2 0x623 JUMP JUMPDEST SWAP5 SWAP4 POP POP POP POP JUMP JUMPDEST PUSH32 0x4E487B7100000000000000000000000000000000000000000000000000000000 PUSH0 MSTORE PUSH1 0x21 PUSH1 0x4 MSTORE PUSH1 0x24 PUSH0 REVERT JUMPDEST PUSH1 0x3 DUP2 LT PUSH2 0x6BE JUMPI PUSH2 0x6BD PUSH2 0x680 JUMP JUMPDEST JUMPDEST POP JUMP JUMPDEST PUSH0 DUP2 SWAP1 POP PUSH2 0x6CE DUP3 PUSH2 0x6AD JUMP JUMPDEST SWAP2 SWAP1 POP JUMP JUMPDEST PUSH0 PUSH2 0x6DD DUP3 PUSH2 0x6C1 JUMP JUMPDEST SWAP1 POP SWAP2 SWAP1 POP JUMP JUMPDEST PUSH2 0x6ED DUP2 PUSH2 0x6D3 JUMP JUMPDEST DUP3 MSTORE POP POP JUMP JUMPDEST PUSH0 PUSH1 0x20 DUP3 ADD SWAP1 POP PUSH2 0x706 PUSH0 DUP4 ADD DUP5 PUSH2 0x6E4 JUMP JUMPDEST SWAP3 SWAP2 POP POP JUMP JUMPDEST PUSH1 0x3 DUP2 LT PUSH2 0x718 JUMPI PUSH0 PUSH0 REVERT JUMPDEST POP JUMP JUMPDEST PUSH0 DUP2 CALLDATALOAD SWAP1 POP PUSH2 0x729 DUP2 PUSH2 0x70C JUMP JUMPDEST SWAP3 SWAP2 POP POP JUMP JUMPDEST PUSH0 PUSH1 0x20 DUP3 DUP5 SUB SLT ISZERO PUSH2 0x744 JUMPI PUSH2 0x743 PUSH2 0x55E JUMP JUMPDEST JUMPDEST PUSH0 PUSH2 0x751 DUP5 DUP3 DUP6 ADD PUSH2 0x71B JUMP JUMPDEST SWAP2 POP POP SWAP3 SWAP2 POP POP JUMP JUMPDEST PUSH0 DUP3 DUP3 MSTORE PUSH1 0x20 DUP3 ADD SWAP1 POP SWAP3 SWAP2 POP POP JUMP JUMPDEST PUSH32 0x596F75206E65656420766F746520666972737421000000000000000000000000 PUSH0 DUP3 ADD MSTORE POP JUMP JUMPDEST PUSH0 PUSH2 0x79E PUSH1 0x14 DUP4 PUSH2 0x75A JUMP JUMPDEST SWAP2 POP PUSH2 0x7A9 DUP3 PUSH2 0x76A JUMP JUMPDEST PUSH1 0x20 DUP3 ADD SWAP1 POP SWAP2 SWAP1 POP JUMP JUMPDEST PUSH0 PUSH1 0x20 DUP3 ADD SWAP1 POP DUP2 DUP2 SUB PUSH0 DUP4 ADD MSTORE PUSH2 0x7CB DUP2 PUSH2 0x792 JUMP JUMPDEST SWAP1 POP SWAP2 SWAP1 POP JUMP JUMPDEST PUSH32 0x4E487B7100000000000000000000000000000000000000000000000000000000 PUSH0 MSTORE PUSH1 0x11 PUSH1 0x4 MSTORE PUSH1 0x24 PUSH0 REVERT JUMPDEST PUSH0 PUSH2 0x809 DUP3 PUSH2 0x61A JUMP JUMPDEST SWAP2 POP PUSH2 0x814 DUP4 PUSH2 0x61A JUMP JUMPDEST SWAP3 POP DUP3 DUP3 ADD SWAP1 POP DUP1 DUP3 GT ISZERO PUSH2 0x82C JUMPI PUSH2 0x82B PUSH2 0x7D2 JUMP JUMPDEST JUMPDEST SWAP3 SWAP2 POP POP JUMP JUMPDEST PUSH32 0x596F7520616C726561647920766F746564210000000000000000000000000000 PUSH0 DUP3 ADD MSTORE POP JUMP JUMPDEST PUSH0 PUSH2 0x866 PUSH1 0x12 DUP4 PUSH2 0x75A JUMP JUMPDEST SWAP2 POP PUSH2 0x871 DUP3 PUSH2 0x832 JUMP JUMPDEST PUSH1 0x20 DUP3 ADD SWAP1 POP SWAP2 SWAP1 POP JUMP JUMPDEST PUSH0 PUSH1 0x20 DUP3 ADD SWAP1 POP DUP2 DUP2 SUB PUSH0 DUP4 ADD MSTORE PUSH2 0x893 DUP2 PUSH2 0x85A JUMP JUMPDEST SWAP1 POP SWAP2 SWAP1 POP JUMP JUMPDEST PUSH0 PUSH2 0x8A4 DUP3 PUSH2 0x61A JUMP JUMPDEST SWAP2 POP PUSH32 0xFFFFFFFFFFFFFFFFFFFFFFFFFFFFFFFFFFFFFFFFFFFFFFFFFFFFFFFFFFFFFFFF DUP3 SUB PUSH2 0x8D6 JUMPI PUSH2 0x8D5 PUSH2 0x7D2 JUMP JUMPDEST JUMPDEST PUSH1 0x1 DUP3 ADD SWAP1 POP SWAP2 SWAP1 POP JUMP INVALID LOG2 PUSH5 0x6970667358 0x22 SLT KECCAK256 0xD5 CREATE SWAP2 0x2F 0xB5 DUP10 SWAP6 CALLF 0xCA37 PUSH13 0xD2C9040431F9060A273D4D7592 0x2B 0x27 PUSH25 0x5912E0251964736F6C63430008220033000000000000000000 "
				},
				"gasEstimates": {
					"creation": {
						"codeDepositCost": "465400",
						"executionCost": "497",
						"totalCost": "465897"
					},
					"external": {
						"abstainCount()": "2448",
						"getMyVote()": "4886",
						"getResults()": "infinite",
						"getTotalVotes()": "infinite",
						"hasVoted(address)": "2834",
						"noCount()": "2469",
						"vote(uint8)": "77572",
						"votes(address)": "3008",
						"yesCount()": "2492"
					}
				},
				"methodIdentifiers": {
					"abstainCount()": "3e118090",
					"getMyVote()": "8cb647d3",
					"getResults()": "4717f97c",
					"getTotalVotes()": "9a0e7d66",
					"hasVoted(address)": "09eef43e",
					"noCount()": "a2fcbad7",
					"vote(uint8)": "b3f98adc",
					"votes(address)": "d8bff5a5",
					"yesCount()": "5c8d9541"
				}
			},
			"storageLayout": {
				"storage": [
					{
						"astId": 11,
						"contract": "lession2.1/VotingSystem.sol:VotingSystem",
						"label": "votes",
						"offset": 0,
						"slot": "0",
						"type": "t_mapping(t_address,t_enum(VoteOption)6)"
					},
					{
						"astId": 15,
						"contract": "lession2.1/VotingSystem.sol:VotingSystem",
						"label": "hasVoted",
						"offset": 0,
						"slot": "1",
						"type": "t_mapping(t_address,t_bool)"
					},
					{
						"astId": 17,
						"contract": "lession2.1/VotingSystem.sol:VotingSystem",
						"label": "yesCount",
						"offset": 0,
						"slot": "2",
						"type": "t_uint256"
					},
					{
						"astId": 19,
						"contract": "lession2.1/VotingSystem.sol:VotingSystem",
						"label": "noCount",
						"offset": 0,
						"slot": "3",
						"type": "t_uint256"
					},
					{
						"astId": 21,
						"contract": "lession2.1/VotingSystem.sol:VotingSystem",
						"label": "abstainCount",
						"offset": 0,
						"slot": "4",
						"type": "t_uint256"
					}
				],
				"types": {
					"t_address": {
						"encoding": "inplace",
						"label": "address",
						"numberOfBytes": "20"
					},
					"t_bool": {
						"encoding": "inplace",
						"label": "bool",
						"numberOfBytes": "1"
					},
					"t_enum(VoteOption)6": {
						"encoding": "inplace",
						"label": "enum VotingSystem.VoteOption",
						"numberOfBytes": "1"
					},
					"t_mapping(t_address,t_bool)": {
						"encoding": "mapping",
						"key": "t_address",
						"label": "mapping(address => bool)",
						"numberOfBytes": "32",
						"value": "t_bool"
					},
					"t_mapping(t_address,t_enum(VoteOption)6)": {
						"encoding": "mapping",
						"key": "t_address",
						"label": "mapping(address => enum VotingSystem.VoteOption)",
						"numberOfBytes": "32",
						"value": "t_enum(VoteOption)6"
					},
					"t_uint256": {
						"encoding": "inplace",
						"label": "uint256",
						"numberOfBytes": "32"
					}
				}
			},
			"userdoc": {
				"kind": "user",
				"methods": {},
				"notice": "创建⼀个简单的投票合约，使⽤枚举定义投票选项。 任务要求： 1. 使⽤enum定义投票选项：Yes, No, Abstain 2. 使⽤mapping记录每个地址的投票 3. 使⽤uint统计每个选项的票数 4. 实现投票和查询功能",
				"version": 1
			}
		}
	}
}