{
	"lession3.1/OptimizedCode.sol": {
		"OptimizedCode": {
			"abi": [
				{
					"inputs": [
						{
							"internalType": "uint256",
							"name": "",
							"type": "uint256"
						}
					],
					"name": "data",
					"outputs": [
						{
							"internalType": "uint256",
							"name": "",
							"type": "uint256"
						}
					],
					"stateMutability": "view",
					"type": "function"
				},
				{
					"inputs": [
						{
							"internalType": "uint256[]",
							"name": "values",
							"type": "uint256[]"
						}
					],
					"name": "optimizedProcess",
					"outputs": [],
					"stateMutability": "nonpayable",
					"type": "function"
				},
				{
					"inputs": [
						{
							"internalType": "uint256[]",
							"name": "values",
							"type": "uint256[]"
						}
					],
					"name": "process",
					"outputs": [],
					"stateMutability": "nonpayable",
					"type": "function"
				},
				{
					"inputs": [
						{
							"internalType": "uint256[]",
							"name": "values",
							"type": "uint256[]"
						}
					],
					"name": "unOptimizedProcess",
					"outputs": [],
					"stateMutability": "nonpayable",
					"type": "function"
				}
			],
			"devdoc": {
				"kind": "dev",
				"methods": {},
				"version": 1
			},
			"evm": {
				"assembly": "    /* \"lession3.1/OptimizedCode.sol\":60:1948  contract OptimizedCode {... */\n  mstore(0x40, 0x80)\n  callvalue\n  dup1\n  iszero\n  tag_1\n  jumpi\n  revert(0x00, 0x00)\ntag_1:\n  pop\n  dataSize(sub_0)\n  dup1\n  dataOffset(sub_0)\n  0x00\n  codecopy\n  0x00\n  return\nstop\n\nsub_0: assembly {\n        /* \"lession3.1/OptimizedCode.sol\":60:1948  contract OptimizedCode {... */\n      mstore(0x40, 0x80)\n      callvalue\n      dup1\n      iszero\n      tag_1\n      jumpi\n      revert(0x00, 0x00)\n    tag_1:\n      pop\n      jumpi(tag_2, lt(calldatasize, 0x04))\n      shr(0xe0, calldataload(0x00))\n      dup1\n      0x44d2c733\n      eq\n      tag_3\n      jumpi\n      dup1\n      0xe2744a81\n      eq\n      tag_4\n      jumpi\n      dup1\n      0xf0ba8440\n      eq\n      tag_5\n      jumpi\n      dup1\n      0xf6d4d7c4\n      eq\n      tag_6\n      jumpi\n    tag_2:\n      revert(0x00, 0x00)\n        /* \"lession3.1/OptimizedCode.sol\":117:333  function unOptimizedProcess(uint[] memory values) public {... */\n    tag_3:\n      tag_7\n      0x04\n      dup1\n      calldatasize\n      sub\n      dup2\n      add\n      swap1\n      tag_8\n      swap2\n      swap1\n      tag_9\n      jump\t// in\n    tag_8:\n      tag_10\n      jump\t// in\n    tag_7:\n      stop\n        /* \"lession3.1/OptimizedCode.sol\":966:1945  function process(uint[] calldata values) external {... */\n    tag_4:\n      tag_11\n      0x04\n      dup1\n      calldatasize\n      sub\n      dup2\n      add\n      swap1\n      tag_12\n      swap2\n      swap1\n      tag_13\n      jump\t// in\n    tag_12:\n      tag_14\n      jump\t// in\n    tag_11:\n      stop\n        /* \"lession3.1/OptimizedCode.sol\":90:108  uint[] public data */\n    tag_5:\n      tag_15\n      0x04\n      dup1\n      calldatasize\n      sub\n      dup2\n      add\n      swap1\n      tag_16\n      swap2\n      swap1\n      tag_17\n      jump\t// in\n    tag_16:\n      tag_18\n      jump\t// in\n    tag_15:\n      mload(0x40)\n      tag_19\n      swap2\n      swap1\n      tag_20\n      jump\t// in\n    tag_19:\n      mload(0x40)\n      dup1\n      swap2\n      sub\n      swap1\n      return\n        /* \"lession3.1/OptimizedCode.sol\":341:940  function optimizedProcess(uint[] calldata values) external {... */\n    tag_6:\n      tag_21\n      0x04\n      dup1\n      calldatasize\n      sub\n      dup2\n      add\n      swap1\n      tag_22\n      swap2\n      swap1\n      tag_13\n      jump\t// in\n    tag_22:\n      tag_23\n      jump\t// in\n    tag_21:\n      stop\n        /* \"lession3.1/OptimizedCode.sol\":117:333  function unOptimizedProcess(uint[] memory values) public {... */\n    tag_10:\n        /* \"lession3.1/OptimizedCode.sol\":189:195  uint i */\n      0x00\n        /* \"lession3.1/OptimizedCode.sol\":198:199  0 */\n      0x00\n        /* \"lession3.1/OptimizedCode.sol\":189:199  uint i = 0 */\n      swap1\n      pop\n        /* \"lession3.1/OptimizedCode.sol\":185:326  for(uint i = 0; i < values.length; i++) {... */\n    tag_25:\n        /* \"lession3.1/OptimizedCode.sol\":205:211  values */\n      dup2\n        /* \"lession3.1/OptimizedCode.sol\":205:218  values.length */\n      mload\n        /* \"lession3.1/OptimizedCode.sol\":201:202  i */\n      dup2\n        /* \"lession3.1/OptimizedCode.sol\":201:218  i < values.length */\n      lt\n        /* \"lession3.1/OptimizedCode.sol\":185:326  for(uint i = 0; i < values.length; i++) {... */\n      iszero\n      tag_26\n      jumpi\n        /* \"lession3.1/OptimizedCode.sol\":255:257  10 */\n      0x0a\n        /* \"lession3.1/OptimizedCode.sol\":243:249  values */\n      dup3\n        /* \"lession3.1/OptimizedCode.sol\":250:251  i */\n      dup3\n        /* \"lession3.1/OptimizedCode.sol\":243:252  values[i] */\n      dup2\n      mload\n      dup2\n      lt\n      tag_28\n      jumpi\n      tag_29\n      tag_30\n      jump\t// in\n    tag_29:\n    tag_28:\n      0x20\n      mul\n      0x20\n      add\n      add\n      mload\n        /* \"lession3.1/OptimizedCode.sol\":243:257  values[i] > 10 */\n      gt\n        /* \"lession3.1/OptimizedCode.sol\":240:314  if(values[i] > 10) {... */\n      iszero\n      tag_31\n      jumpi\n        /* \"lession3.1/OptimizedCode.sol\":278:282  data */\n      0x00\n        /* \"lession3.1/OptimizedCode.sol\":288:294  values */\n      dup3\n        /* \"lession3.1/OptimizedCode.sol\":295:296  i */\n      dup3\n        /* \"lession3.1/OptimizedCode.sol\":288:297  values[i] */\n      dup2\n      mload\n      dup2\n      lt\n      tag_32\n      jumpi\n      tag_33\n      tag_30\n      jump\t// in\n    tag_33:\n    tag_32:\n      0x20\n      mul\n      0x20\n      add\n      add\n      mload\n        /* \"lession3.1/OptimizedCode.sol\":278:298  data.push(values[i]) */\n      swap1\n      dup1\n      0x01\n      dup2\n      sload\n      add\n      dup1\n      dup3\n      sstore\n      dup1\n      swap2\n      pop\n      pop\n      0x01\n      swap1\n      sub\n      swap1\n      0x00\n      mstore\n      keccak256(0x00, 0x20)\n      add\n      0x00\n      swap1\n      swap2\n      swap1\n      swap2\n      swap1\n      swap2\n      pop\n      sstore\n        /* \"lession3.1/OptimizedCode.sol\":240:314  if(values[i] > 10) {... */\n    tag_31:\n        /* \"lession3.1/OptimizedCode.sol\":220:223  i++ */\n      dup1\n      dup1\n      0x01\n      add\n      swap2\n      pop\n      pop\n        /* \"lession3.1/OptimizedCode.sol\":185:326  for(uint i = 0; i < values.length; i++) {... */\n      jump(tag_25)\n    tag_26:\n      pop\n        /* \"lession3.1/OptimizedCode.sol\":117:333  function unOptimizedProcess(uint[] memory values) public {... */\n      pop\n      jump\t// out\n        /* \"lession3.1/OptimizedCode.sol\":966:1945  function process(uint[] calldata values) external {... */\n    tag_14:\n        /* \"lession3.1/OptimizedCode.sol\":1027:1035  uint len */\n      0x00\n        /* \"lession3.1/OptimizedCode.sol\":1038:1044  values */\n      dup3\n      dup3\n        /* \"lession3.1/OptimizedCode.sol\":1038:1051  values.length */\n      swap1\n      pop\n        /* \"lession3.1/OptimizedCode.sol\":1027:1051  uint len = values.length */\n      swap1\n      pop\n        /* \"lession3.1/OptimizedCode.sol\":1062:1077  uint currentLen */\n      0x00\n        /* \"lession3.1/OptimizedCode.sol\":1080:1084  data */\n      0x00\n        /* \"lession3.1/OptimizedCode.sol\":1080:1091  data.length */\n      dup1\n      sload\n      swap1\n      pop\n        /* \"lession3.1/OptimizedCode.sol\":1062:1091  uint currentLen = data.length */\n      swap1\n      pop\n        /* \"lession3.1/OptimizedCode.sol\":1102:1112  uint count */\n      0x00\n        /* \"lession3.1/OptimizedCode.sol\":1115:1116  0 */\n      0x00\n        /* \"lession3.1/OptimizedCode.sol\":1102:1116  uint count = 0 */\n      swap1\n      pop\n        /* \"lession3.1/OptimizedCode.sol\":1190:1196  uint i */\n      0x00\n        /* \"lession3.1/OptimizedCode.sol\":1199:1200  0 */\n      0x00\n        /* \"lession3.1/OptimizedCode.sol\":1190:1200  uint i = 0 */\n      swap1\n      pop\n        /* \"lession3.1/OptimizedCode.sol\":1185:1314  for (uint i = 0; i < len; i++) ... */\n    tag_36:\n        /* \"lession3.1/OptimizedCode.sol\":1206:1209  len */\n      dup4\n        /* \"lession3.1/OptimizedCode.sol\":1202:1203  i */\n      dup2\n        /* \"lession3.1/OptimizedCode.sol\":1202:1209  i < len */\n      lt\n        /* \"lession3.1/OptimizedCode.sol\":1185:1314  for (uint i = 0; i < len; i++) ... */\n      iszero\n      tag_37\n      jumpi\n        /* \"lession3.1/OptimizedCode.sol\":1257:1259  10 */\n      0x0a\n        /* \"lession3.1/OptimizedCode.sol\":1245:1251  values */\n      dup7\n      dup7\n        /* \"lession3.1/OptimizedCode.sol\":1252:1253  i */\n      dup4\n        /* \"lession3.1/OptimizedCode.sol\":1245:1254  values[i] */\n      dup2\n      dup2\n      lt\n      tag_39\n      jumpi\n      tag_40\n      tag_30\n      jump\t// in\n    tag_40:\n    tag_39:\n      swap1\n      pop\n      0x20\n      mul\n      add\n      calldataload\n        /* \"lession3.1/OptimizedCode.sol\":1245:1259  values[i] > 10 */\n      gt\n        /* \"lession3.1/OptimizedCode.sol\":1241:1303  if (values[i] > 10) {... */\n      iszero\n      tag_41\n      jumpi\n        /* \"lession3.1/OptimizedCode.sol\":1280:1287  count++ */\n      dup2\n      dup1\n      tag_42\n      swap1\n      tag_43\n      jump\t// in\n    tag_42:\n      swap3\n      pop\n      pop\n        /* \"lession3.1/OptimizedCode.sol\":1241:1303  if (values[i] > 10) {... */\n    tag_41:\n        /* \"lession3.1/OptimizedCode.sol\":1211:1214  i++ */\n      dup1\n      dup1\n      0x01\n      add\n      swap2\n      pop\n      pop\n        /* \"lession3.1/OptimizedCode.sol\":1185:1314  for (uint i = 0; i < len; i++) ... */\n      jump(tag_36)\n    tag_37:\n      pop\n        /* \"lession3.1/OptimizedCode.sol\":1391:1392  0 */\n      0x00\n        /* \"lession3.1/OptimizedCode.sol\":1383:1388  count */\n      dup2\n        /* \"lession3.1/OptimizedCode.sol\":1383:1392  count > 0 */\n      gt\n        /* \"lession3.1/OptimizedCode.sol\":1379:1607  if (count > 0) {... */\n      iszero\n      tag_44\n      jumpi\n        /* \"lession3.1/OptimizedCode.sol\":1409:1420  uint newLen */\n      0x00\n        /* \"lession3.1/OptimizedCode.sol\":1436:1441  count */\n      dup2\n        /* \"lession3.1/OptimizedCode.sol\":1423:1433  currentLen */\n      dup4\n        /* \"lession3.1/OptimizedCode.sol\":1423:1441  currentLen + count */\n      tag_45\n      swap2\n      swap1\n      tag_46\n      jump\t// in\n    tag_45:\n        /* \"lession3.1/OptimizedCode.sol\":1409:1441  uint newLen = currentLen + count */\n      swap1\n      pop\n        /* \"lession3.1/OptimizedCode.sol\":1574:1580  newLen */\n      dup1\n        /* \"lession3.1/OptimizedCode.sol\":1570:1571  0 */\n      0x00\n        /* \"lession3.1/OptimizedCode.sol\":1559:1568  data.slot */\n      0x00\n        /* \"lession3.1/OptimizedCode.sol\":1555:1572  add(data.slot, 0) */\n      add\n        /* \"lession3.1/OptimizedCode.sol\":1548:1581  sstore(add(data.slot, 0), newLen) */\n      sstore\n        /* \"lession3.1/OptimizedCode.sol\":1464:1596  {... */\n      pop\n        /* \"lession3.1/OptimizedCode.sol\":1379:1607  if (count > 0) {... */\n    tag_44:\n        /* \"lession3.1/OptimizedCode.sol\":1684:1694  uint index */\n      0x00\n        /* \"lession3.1/OptimizedCode.sol\":1697:1707  currentLen */\n      dup3\n        /* \"lession3.1/OptimizedCode.sol\":1684:1707  uint index = currentLen */\n      swap1\n      pop\n        /* \"lession3.1/OptimizedCode.sol\":1723:1729  uint i */\n      0x00\n        /* \"lession3.1/OptimizedCode.sol\":1732:1733  0 */\n      0x00\n        /* \"lession3.1/OptimizedCode.sol\":1723:1733  uint i = 0 */\n      swap1\n      pop\n        /* \"lession3.1/OptimizedCode.sol\":1718:1938  for (uint i = 0; i < len; i++) ... */\n    tag_47:\n        /* \"lession3.1/OptimizedCode.sol\":1739:1742  len */\n      dup5\n        /* \"lession3.1/OptimizedCode.sol\":1735:1736  i */\n      dup2\n        /* \"lession3.1/OptimizedCode.sol\":1735:1742  i < len */\n      lt\n        /* \"lession3.1/OptimizedCode.sol\":1718:1938  for (uint i = 0; i < len; i++) ... */\n      iszero\n      tag_48\n      jumpi\n        /* \"lession3.1/OptimizedCode.sol\":1790:1792  10 */\n      0x0a\n        /* \"lession3.1/OptimizedCode.sol\":1778:1784  values */\n      dup8\n      dup8\n        /* \"lession3.1/OptimizedCode.sol\":1785:1786  i */\n      dup4\n        /* \"lession3.1/OptimizedCode.sol\":1778:1787  values[i] */\n      dup2\n      dup2\n      lt\n      tag_50\n      jumpi\n      tag_51\n      tag_30\n      jump\t// in\n    tag_51:\n    tag_50:\n      swap1\n      pop\n      0x20\n      mul\n      add\n      calldataload\n        /* \"lession3.1/OptimizedCode.sol\":1778:1792  values[i] > 10 */\n      gt\n        /* \"lession3.1/OptimizedCode.sol\":1774:1927  if (values[i] > 10) {... */\n      iszero\n      tag_52\n      jumpi\n        /* \"lession3.1/OptimizedCode.sol\":1876:1882  values */\n      dup7\n      dup7\n        /* \"lession3.1/OptimizedCode.sol\":1883:1884  i */\n      dup3\n        /* \"lession3.1/OptimizedCode.sol\":1876:1885  values[i] */\n      dup2\n      dup2\n      lt\n      tag_53\n      jumpi\n      tag_54\n      tag_30\n      jump\t// in\n    tag_54:\n    tag_53:\n      swap1\n      pop\n      0x20\n      mul\n      add\n      calldataload\n        /* \"lession3.1/OptimizedCode.sol\":1862:1866  data */\n      0x00\n        /* \"lession3.1/OptimizedCode.sol\":1867:1872  index */\n      dup4\n        /* \"lession3.1/OptimizedCode.sol\":1862:1873  data[index] */\n      dup2\n      sload\n      dup2\n      lt\n      tag_55\n      jumpi\n      tag_56\n      tag_30\n      jump\t// in\n    tag_56:\n    tag_55:\n      swap1\n      0x00\n      mstore\n      keccak256(0x00, 0x20)\n      add\n        /* \"lession3.1/OptimizedCode.sol\":1862:1885  data[index] = values[i] */\n      dup2\n      swap1\n      sstore\n      pop\n        /* \"lession3.1/OptimizedCode.sol\":1904:1911  index++ */\n      dup2\n      dup1\n      tag_58\n      swap1\n      tag_43\n      jump\t// in\n    tag_58:\n      swap3\n      pop\n      pop\n        /* \"lession3.1/OptimizedCode.sol\":1774:1927  if (values[i] > 10) {... */\n    tag_52:\n        /* \"lession3.1/OptimizedCode.sol\":1744:1747  i++ */\n      dup1\n      dup1\n      0x01\n      add\n      swap2\n      pop\n      pop\n        /* \"lession3.1/OptimizedCode.sol\":1718:1938  for (uint i = 0; i < len; i++) ... */\n      jump(tag_47)\n    tag_48:\n      pop\n        /* \"lession3.1/OptimizedCode.sol\":1016:1945  {... */\n      pop\n      pop\n      pop\n      pop\n        /* \"lession3.1/OptimizedCode.sol\":966:1945  function process(uint[] calldata values) external {... */\n      pop\n      pop\n      jump\t// out\n        /* \"lession3.1/OptimizedCode.sol\":90:108  uint[] public data */\n    tag_18:\n      0x00\n      dup2\n      dup2\n      sload\n      dup2\n      lt\n      tag_59\n      jumpi\n      0x00\n      dup1\n      revert\n    tag_59:\n      swap1\n      0x00\n      mstore\n      keccak256(0x00, 0x20)\n      add\n      0x00\n      swap2\n      pop\n      swap1\n      pop\n      sload\n      dup2\n      jump\t// out\n        /* \"lession3.1/OptimizedCode.sol\":341:940  function optimizedProcess(uint[] calldata values) external {... */\n    tag_23:\n        /* \"lession3.1/OptimizedCode.sol\":411:419  uint len */\n      0x00\n        /* \"lession3.1/OptimizedCode.sol\":422:428  values */\n      dup3\n      dup3\n        /* \"lession3.1/OptimizedCode.sol\":422:435  values.length */\n      swap1\n      pop\n        /* \"lession3.1/OptimizedCode.sol\":411:435  uint len = values.length */\n      swap1\n      pop\n        /* \"lession3.1/OptimizedCode.sol\":514:533  uint[] memory temps */\n      0x00\n        /* \"lession3.1/OptimizedCode.sol\":547:550  len */\n      dup2\n        /* \"lession3.1/OptimizedCode.sol\":536:551  new uint[](len) */\n      0xffffffffffffffff\n      dup2\n      gt\n      iszero\n      tag_62\n      jumpi\n      tag_63\n      tag_64\n      jump\t// in\n    tag_63:\n    tag_62:\n      mload(0x40)\n      swap1\n      dup1\n      dup3\n      mstore\n      dup1\n      0x20\n      mul\n      0x20\n      add\n      dup3\n      add\n      0x40\n      mstore\n      dup1\n      iszero\n      tag_65\n      jumpi\n      dup2\n      0x20\n      add\n      0x20\n      dup3\n      mul\n      dup1\n      calldatasize\n      dup4\n      calldatacopy\n      dup1\n      dup3\n      add\n      swap2\n      pop\n      pop\n      swap1\n      pop\n    tag_65:\n      pop\n        /* \"lession3.1/OptimizedCode.sol\":514:551  uint[] memory temps = new uint[](len) */\n      swap1\n      pop\n        /* \"lession3.1/OptimizedCode.sol\":562:572  uint count */\n      0x00\n        /* \"lession3.1/OptimizedCode.sol\":575:576  0 */\n      0x00\n        /* \"lession3.1/OptimizedCode.sol\":562:576  uint count = 0 */\n      swap1\n      pop\n        /* \"lession3.1/OptimizedCode.sol\":592:598  uint i */\n      0x00\n        /* \"lession3.1/OptimizedCode.sol\":601:602  0 */\n      0x00\n        /* \"lession3.1/OptimizedCode.sol\":592:602  uint i = 0 */\n      swap1\n      pop\n        /* \"lession3.1/OptimizedCode.sol\":587:780  for (uint i = 0; i < len; i++) ... */\n    tag_66:\n        /* \"lession3.1/OptimizedCode.sol\":608:611  len */\n      dup4\n        /* \"lession3.1/OptimizedCode.sol\":604:605  i */\n      dup2\n        /* \"lession3.1/OptimizedCode.sol\":604:611  i < len */\n      lt\n        /* \"lession3.1/OptimizedCode.sol\":587:780  for (uint i = 0; i < len; i++) ... */\n      iszero\n      tag_67\n      jumpi\n        /* \"lession3.1/OptimizedCode.sol\":643:651  uint val */\n      0x00\n        /* \"lession3.1/OptimizedCode.sol\":654:660  values */\n      dup7\n      dup7\n        /* \"lession3.1/OptimizedCode.sol\":661:662  i */\n      dup4\n        /* \"lession3.1/OptimizedCode.sol\":654:663  values[i] */\n      dup2\n      dup2\n      lt\n      tag_69\n      jumpi\n      tag_70\n      tag_30\n      jump\t// in\n    tag_70:\n    tag_69:\n      swap1\n      pop\n      0x20\n      mul\n      add\n      calldataload\n        /* \"lession3.1/OptimizedCode.sol\":643:663  uint val = values[i] */\n      swap1\n      pop\n        /* \"lession3.1/OptimizedCode.sol\":688:690  10 */\n      0x0a\n        /* \"lession3.1/OptimizedCode.sol\":682:685  val */\n      dup2\n        /* \"lession3.1/OptimizedCode.sol\":682:690  val > 10 */\n      gt\n        /* \"lession3.1/OptimizedCode.sol\":678:769  if (val > 10) {... */\n      iszero\n      tag_71\n      jumpi\n        /* \"lession3.1/OptimizedCode.sol\":725:728  val */\n      dup1\n        /* \"lession3.1/OptimizedCode.sol\":710:715  temps */\n      dup5\n        /* \"lession3.1/OptimizedCode.sol\":716:721  count */\n      dup5\n        /* \"lession3.1/OptimizedCode.sol\":710:722  temps[count] */\n      dup2\n      mload\n      dup2\n      lt\n      tag_72\n      jumpi\n      tag_73\n      tag_30\n      jump\t// in\n    tag_73:\n    tag_72:\n      0x20\n      mul\n      0x20\n      add\n      add\n        /* \"lession3.1/OptimizedCode.sol\":710:728  temps[count] = val */\n      dup2\n      dup2\n      mstore\n      pop\n      pop\n        /* \"lession3.1/OptimizedCode.sol\":746:753  count++ */\n      dup3\n      dup1\n      tag_74\n      swap1\n      tag_43\n      jump\t// in\n    tag_74:\n      swap4\n      pop\n      pop\n        /* \"lession3.1/OptimizedCode.sol\":678:769  if (val > 10) {... */\n    tag_71:\n        /* \"lession3.1/OptimizedCode.sol\":628:780  {... */\n      pop\n        /* \"lession3.1/OptimizedCode.sol\":613:616  i++ */\n      dup1\n      dup1\n      0x01\n      add\n      swap2\n      pop\n      pop\n        /* \"lession3.1/OptimizedCode.sol\":587:780  for (uint i = 0; i < len; i++) ... */\n      jump(tag_66)\n    tag_67:\n      pop\n        /* \"lession3.1/OptimizedCode.sol\":842:848  uint i */\n      0x00\n        /* \"lession3.1/OptimizedCode.sol\":851:852  0 */\n      0x00\n        /* \"lession3.1/OptimizedCode.sol\":842:852  uint i = 0 */\n      swap1\n      pop\n        /* \"lession3.1/OptimizedCode.sol\":837:933  for (uint i = 0; i < temps.length; i++) ... */\n    tag_75:\n        /* \"lession3.1/OptimizedCode.sol\":858:863  temps */\n      dup3\n        /* \"lession3.1/OptimizedCode.sol\":858:870  temps.length */\n      mload\n        /* \"lession3.1/OptimizedCode.sol\":854:855  i */\n      dup2\n        /* \"lession3.1/OptimizedCode.sol\":854:870  i < temps.length */\n      lt\n        /* \"lession3.1/OptimizedCode.sol\":837:933  for (uint i = 0; i < temps.length; i++) ... */\n      iszero\n      tag_76\n      jumpi\n        /* \"lession3.1/OptimizedCode.sol\":902:906  data */\n      0x00\n        /* \"lession3.1/OptimizedCode.sol\":912:917  temps */\n      dup4\n        /* \"lession3.1/OptimizedCode.sol\":918:919  i */\n      dup3\n        /* \"lession3.1/OptimizedCode.sol\":912:920  temps[i] */\n      dup2\n      mload\n      dup2\n      lt\n      tag_78\n      jumpi\n      tag_79\n      tag_30\n      jump\t// in\n    tag_79:\n    tag_78:\n      0x20\n      mul\n      0x20\n      add\n      add\n      mload\n        /* \"lession3.1/OptimizedCode.sol\":902:921  data.push(temps[i]) */\n      swap1\n      dup1\n      0x01\n      dup2\n      sload\n      add\n      dup1\n      dup3\n      sstore\n      dup1\n      swap2\n      pop\n      pop\n      0x01\n      swap1\n      sub\n      swap1\n      0x00\n      mstore\n      keccak256(0x00, 0x20)\n      add\n      0x00\n      swap1\n      swap2\n      swap1\n      swap2\n      swap1\n      swap2\n      pop\n      sstore\n        /* \"lession3.1/OptimizedCode.sol\":872:875  i++ */\n      dup1\n      dup1\n      0x01\n      add\n      swap2\n      pop\n      pop\n        /* \"lession3.1/OptimizedCode.sol\":837:933  for (uint i = 0; i < temps.length; i++) ... */\n      jump(tag_75)\n    tag_76:\n      pop\n        /* \"lession3.1/OptimizedCode.sol\":400:940  {... */\n      pop\n      pop\n      pop\n        /* \"lession3.1/OptimizedCode.sol\":341:940  function optimizedProcess(uint[] calldata values) external {... */\n      pop\n      pop\n      jump\t// out\n        /* \"#utility.yul\":7:82   */\n    tag_81:\n        /* \"#utility.yul\":40:46   */\n      0x00\n        /* \"#utility.yul\":73:75   */\n      0x40\n        /* \"#utility.yul\":67:76   */\n      mload\n        /* \"#utility.yul\":57:76   */\n      swap1\n      pop\n        /* \"#utility.yul\":7:82   */\n      swap1\n      jump\t// out\n        /* \"#utility.yul\":88:205   */\n    tag_82:\n        /* \"#utility.yul\":197:198   */\n      0x00\n        /* \"#utility.yul\":194:195   */\n      0x00\n        /* \"#utility.yul\":187:199   */\n      revert\n        /* \"#utility.yul\":211:328   */\n    tag_83:\n        /* \"#utility.yul\":320:321   */\n      0x00\n        /* \"#utility.yul\":317:318   */\n      0x00\n        /* \"#utility.yul\":310:322   */\n      revert\n        /* \"#utility.yul\":334:451   */\n    tag_84:\n        /* \"#utility.yul\":443:444   */\n      0x00\n        /* \"#utility.yul\":440:441   */\n      0x00\n        /* \"#utility.yul\":433:445   */\n      revert\n        /* \"#utility.yul\":457:559   */\n    tag_85:\n        /* \"#utility.yul\":498:504   */\n      0x00\n        /* \"#utility.yul\":549:551   */\n      0x1f\n        /* \"#utility.yul\":545:552   */\n      not\n        /* \"#utility.yul\":540:542   */\n      0x1f\n        /* \"#utility.yul\":533:538   */\n      dup4\n        /* \"#utility.yul\":529:543   */\n      add\n        /* \"#utility.yul\":525:553   */\n      and\n        /* \"#utility.yul\":515:553   */\n      swap1\n      pop\n        /* \"#utility.yul\":457:559   */\n      swap2\n      swap1\n      pop\n      jump\t// out\n        /* \"#utility.yul\":565:745   */\n    tag_64:\n        /* \"#utility.yul\":613:690   */\n      0x4e487b7100000000000000000000000000000000000000000000000000000000\n        /* \"#utility.yul\":610:611   */\n      0x00\n        /* \"#utility.yul\":603:691   */\n      mstore\n        /* \"#utility.yul\":710:714   */\n      0x41\n        /* \"#utility.yul\":707:708   */\n      0x04\n        /* \"#utility.yul\":700:715   */\n      mstore\n        /* \"#utility.yul\":734:738   */\n      0x24\n        /* \"#utility.yul\":731:732   */\n      0x00\n        /* \"#utility.yul\":724:739   */\n      revert\n        /* \"#utility.yul\":751:1032   */\n    tag_86:\n        /* \"#utility.yul\":834:861   */\n      tag_107\n        /* \"#utility.yul\":856:860   */\n      dup3\n        /* \"#utility.yul\":834:861   */\n      tag_85\n      jump\t// in\n    tag_107:\n        /* \"#utility.yul\":826:832   */\n      dup2\n        /* \"#utility.yul\":822:862   */\n      add\n        /* \"#utility.yul\":964:970   */\n      dup2\n        /* \"#utility.yul\":952:962   */\n      dup2\n        /* \"#utility.yul\":949:971   */\n      lt\n        /* \"#utility.yul\":928:946   */\n      0xffffffffffffffff\n        /* \"#utility.yul\":916:926   */\n      dup3\n        /* \"#utility.yul\":913:947   */\n      gt\n        /* \"#utility.yul\":910:972   */\n      or\n        /* \"#utility.yul\":907:995   */\n      iszero\n      tag_108\n      jumpi\n        /* \"#utility.yul\":975:993   */\n      tag_109\n      tag_64\n      jump\t// in\n    tag_109:\n        /* \"#utility.yul\":907:995   */\n    tag_108:\n        /* \"#utility.yul\":1015:1025   */\n      dup1\n        /* \"#utility.yul\":1011:1013   */\n      0x40\n        /* \"#utility.yul\":1004:1026   */\n      mstore\n        /* \"#utility.yul\":794:1032   */\n      pop\n        /* \"#utility.yul\":751:1032   */\n      pop\n      pop\n      jump\t// out\n        /* \"#utility.yul\":1038:1167   */\n    tag_87:\n        /* \"#utility.yul\":1072:1078   */\n      0x00\n        /* \"#utility.yul\":1099:1119   */\n      tag_111\n      tag_81\n      jump\t// in\n    tag_111:\n        /* \"#utility.yul\":1089:1119   */\n      swap1\n      pop\n        /* \"#utility.yul\":1128:1161   */\n      tag_112\n        /* \"#utility.yul\":1156:1160   */\n      dup3\n        /* \"#utility.yul\":1148:1154   */\n      dup3\n        /* \"#utility.yul\":1128:1161   */\n      tag_86\n      jump\t// in\n    tag_112:\n        /* \"#utility.yul\":1038:1167   */\n      swap2\n      swap1\n      pop\n      jump\t// out\n        /* \"#utility.yul\":1173:1484   */\n    tag_88:\n        /* \"#utility.yul\":1250:1254   */\n      0x00\n        /* \"#utility.yul\":1340:1358   */\n      0xffffffffffffffff\n        /* \"#utility.yul\":1332:1338   */\n      dup3\n        /* \"#utility.yul\":1329:1359   */\n      gt\n        /* \"#utility.yul\":1326:1382   */\n      iszero\n      tag_114\n      jumpi\n        /* \"#utility.yul\":1362:1380   */\n      tag_115\n      tag_64\n      jump\t// in\n    tag_115:\n        /* \"#utility.yul\":1326:1382   */\n    tag_114:\n        /* \"#utility.yul\":1412:1416   */\n      0x20\n        /* \"#utility.yul\":1404:1410   */\n      dup3\n        /* \"#utility.yul\":1400:1417   */\n      mul\n        /* \"#utility.yul\":1392:1417   */\n      swap1\n      pop\n        /* \"#utility.yul\":1472:1476   */\n      0x20\n        /* \"#utility.yul\":1466:1470   */\n      dup2\n        /* \"#utility.yul\":1462:1477   */\n      add\n        /* \"#utility.yul\":1454:1477   */\n      swap1\n      pop\n        /* \"#utility.yul\":1173:1484   */\n      swap2\n      swap1\n      pop\n      jump\t// out\n        /* \"#utility.yul\":1490:1607   */\n    tag_89:\n        /* \"#utility.yul\":1599:1600   */\n      0x00\n        /* \"#utility.yul\":1596:1597   */\n      0x00\n        /* \"#utility.yul\":1589:1601   */\n      revert\n        /* \"#utility.yul\":1613:1690   */\n    tag_90:\n        /* \"#utility.yul\":1650:1657   */\n      0x00\n        /* \"#utility.yul\":1679:1684   */\n      dup2\n        /* \"#utility.yul\":1668:1684   */\n      swap1\n      pop\n        /* \"#utility.yul\":1613:1690   */\n      swap2\n      swap1\n      pop\n      jump\t// out\n        /* \"#utility.yul\":1696:1818   */\n    tag_91:\n        /* \"#utility.yul\":1769:1793   */\n      tag_119\n        /* \"#utility.yul\":1787:1792   */\n      dup2\n        /* \"#utility.yul\":1769:1793   */\n      tag_90\n      jump\t// in\n    tag_119:\n        /* \"#utility.yul\":1762:1767   */\n      dup2\n        /* \"#utility.yul\":1759:1794   */\n      eq\n        /* \"#utility.yul\":1749:1812   */\n      tag_120\n      jumpi\n        /* \"#utility.yul\":1808:1809   */\n      0x00\n        /* \"#utility.yul\":1805:1806   */\n      0x00\n        /* \"#utility.yul\":1798:1810   */\n      revert\n        /* \"#utility.yul\":1749:1812   */\n    tag_120:\n        /* \"#utility.yul\":1696:1818   */\n      pop\n      jump\t// out\n        /* \"#utility.yul\":1824:1963   */\n    tag_92:\n        /* \"#utility.yul\":1870:1875   */\n      0x00\n        /* \"#utility.yul\":1908:1914   */\n      dup2\n        /* \"#utility.yul\":1895:1915   */\n      calldataload\n        /* \"#utility.yul\":1886:1915   */\n      swap1\n      pop\n        /* \"#utility.yul\":1924:1957   */\n      tag_122\n        /* \"#utility.yul\":1951:1956   */\n      dup2\n        /* \"#utility.yul\":1924:1957   */\n      tag_91\n      jump\t// in\n    tag_122:\n        /* \"#utility.yul\":1824:1963   */\n      swap3\n      swap2\n      pop\n      pop\n      jump\t// out\n        /* \"#utility.yul\":1986:2696   */\n    tag_93:\n        /* \"#utility.yul\":2082:2087   */\n      0x00\n        /* \"#utility.yul\":2107:2188   */\n      tag_124\n        /* \"#utility.yul\":2123:2187   */\n      tag_125\n        /* \"#utility.yul\":2180:2186   */\n      dup5\n        /* \"#utility.yul\":2123:2187   */\n      tag_88\n      jump\t// in\n    tag_125:\n        /* \"#utility.yul\":2107:2188   */\n      tag_87\n      jump\t// in\n    tag_124:\n        /* \"#utility.yul\":2098:2188   */\n      swap1\n      pop\n        /* \"#utility.yul\":2208:2213   */\n      dup1\n        /* \"#utility.yul\":2237:2243   */\n      dup4\n        /* \"#utility.yul\":2230:2235   */\n      dup3\n        /* \"#utility.yul\":2223:2244   */\n      mstore\n        /* \"#utility.yul\":2271:2275   */\n      0x20\n        /* \"#utility.yul\":2264:2269   */\n      dup3\n        /* \"#utility.yul\":2260:2276   */\n      add\n        /* \"#utility.yul\":2253:2276   */\n      swap1\n      pop\n        /* \"#utility.yul\":2324:2328   */\n      0x20\n        /* \"#utility.yul\":2316:2322   */\n      dup5\n        /* \"#utility.yul\":2312:2329   */\n      mul\n        /* \"#utility.yul\":2304:2310   */\n      dup4\n        /* \"#utility.yul\":2300:2330   */\n      add\n        /* \"#utility.yul\":2353:2356   */\n      dup6\n        /* \"#utility.yul\":2345:2351   */\n      dup2\n        /* \"#utility.yul\":2342:2357   */\n      gt\n        /* \"#utility.yul\":2339:2461   */\n      iszero\n      tag_126\n      jumpi\n        /* \"#utility.yul\":2372:2451   */\n      tag_127\n      tag_89\n      jump\t// in\n    tag_127:\n        /* \"#utility.yul\":2339:2461   */\n    tag_126:\n        /* \"#utility.yul\":2487:2493   */\n      dup4\n        /* \"#utility.yul\":2470:2690   */\n    tag_128:\n        /* \"#utility.yul\":2504:2510   */\n      dup2\n        /* \"#utility.yul\":2499:2502   */\n      dup2\n        /* \"#utility.yul\":2496:2511   */\n      lt\n        /* \"#utility.yul\":2470:2690   */\n      iszero\n      tag_130\n      jumpi\n        /* \"#utility.yul\":2579:2582   */\n      dup1\n        /* \"#utility.yul\":2608:2645   */\n      tag_131\n        /* \"#utility.yul\":2641:2644   */\n      dup9\n        /* \"#utility.yul\":2629:2639   */\n      dup3\n        /* \"#utility.yul\":2608:2645   */\n      tag_92\n      jump\t// in\n    tag_131:\n        /* \"#utility.yul\":2603:2606   */\n      dup5\n        /* \"#utility.yul\":2596:2646   */\n      mstore\n        /* \"#utility.yul\":2675:2679   */\n      0x20\n        /* \"#utility.yul\":2670:2673   */\n      dup5\n        /* \"#utility.yul\":2666:2680   */\n      add\n        /* \"#utility.yul\":2659:2680   */\n      swap4\n      pop\n        /* \"#utility.yul\":2546:2690   */\n      pop\n        /* \"#utility.yul\":2530:2534   */\n      0x20\n        /* \"#utility.yul\":2525:2528   */\n      dup2\n        /* \"#utility.yul\":2521:2535   */\n      add\n        /* \"#utility.yul\":2514:2535   */\n      swap1\n      pop\n        /* \"#utility.yul\":2470:2690   */\n      jump(tag_128)\n    tag_130:\n        /* \"#utility.yul\":2474:2495   */\n      pop\n        /* \"#utility.yul\":2088:2696   */\n      pop\n      pop\n        /* \"#utility.yul\":1986:2696   */\n      swap4\n      swap3\n      pop\n      pop\n      pop\n      jump\t// out\n        /* \"#utility.yul\":2719:3089   */\n    tag_94:\n        /* \"#utility.yul\":2790:2795   */\n      0x00\n        /* \"#utility.yul\":2839:2842   */\n      dup3\n        /* \"#utility.yul\":2832:2836   */\n      0x1f\n        /* \"#utility.yul\":2824:2830   */\n      dup4\n        /* \"#utility.yul\":2820:2837   */\n      add\n        /* \"#utility.yul\":2816:2843   */\n      slt\n        /* \"#utility.yul\":2806:2928   */\n      tag_133\n      jumpi\n        /* \"#utility.yul\":2847:2926   */\n      tag_134\n      tag_84\n      jump\t// in\n    tag_134:\n        /* \"#utility.yul\":2806:2928   */\n    tag_133:\n        /* \"#utility.yul\":2964:2970   */\n      dup2\n        /* \"#utility.yul\":2951:2971   */\n      calldataload\n        /* \"#utility.yul\":2989:3083   */\n      tag_135\n        /* \"#utility.yul\":3079:3082   */\n      dup5\n        /* \"#utility.yul\":3071:3077   */\n      dup3\n        /* \"#utility.yul\":3064:3068   */\n      0x20\n        /* \"#utility.yul\":3056:3062   */\n      dup7\n        /* \"#utility.yul\":3052:3069   */\n      add\n        /* \"#utility.yul\":2989:3083   */\n      tag_93\n      jump\t// in\n    tag_135:\n        /* \"#utility.yul\":2980:3083   */\n      swap2\n      pop\n        /* \"#utility.yul\":2796:3089   */\n      pop\n        /* \"#utility.yul\":2719:3089   */\n      swap3\n      swap2\n      pop\n      pop\n      jump\t// out\n        /* \"#utility.yul\":3095:3634   */\n    tag_9:\n        /* \"#utility.yul\":3179:3185   */\n      0x00\n        /* \"#utility.yul\":3228:3230   */\n      0x20\n        /* \"#utility.yul\":3216:3225   */\n      dup3\n        /* \"#utility.yul\":3207:3214   */\n      dup5\n        /* \"#utility.yul\":3203:3226   */\n      sub\n        /* \"#utility.yul\":3199:3231   */\n      slt\n        /* \"#utility.yul\":3196:3315   */\n      iszero\n      tag_137\n      jumpi\n        /* \"#utility.yul\":3234:3313   */\n      tag_138\n      tag_82\n      jump\t// in\n    tag_138:\n        /* \"#utility.yul\":3196:3315   */\n    tag_137:\n        /* \"#utility.yul\":3382:3383   */\n      0x00\n        /* \"#utility.yul\":3371:3380   */\n      dup3\n        /* \"#utility.yul\":3367:3384   */\n      add\n        /* \"#utility.yul\":3354:3385   */\n      calldataload\n        /* \"#utility.yul\":3412:3430   */\n      0xffffffffffffffff\n        /* \"#utility.yul\":3404:3410   */\n      dup2\n        /* \"#utility.yul\":3401:3431   */\n      gt\n        /* \"#utility.yul\":3398:3515   */\n      iszero\n      tag_139\n      jumpi\n        /* \"#utility.yul\":3434:3513   */\n      tag_140\n      tag_83\n      jump\t// in\n    tag_140:\n        /* \"#utility.yul\":3398:3515   */\n    tag_139:\n        /* \"#utility.yul\":3539:3617   */\n      tag_141\n        /* \"#utility.yul\":3609:3616   */\n      dup5\n        /* \"#utility.yul\":3600:3606   */\n      dup3\n        /* \"#utility.yul\":3589:3598   */\n      dup6\n        /* \"#utility.yul\":3585:3607   */\n      add\n        /* \"#utility.yul\":3539:3617   */\n      tag_94\n      jump\t// in\n    tag_141:\n        /* \"#utility.yul\":3529:3617   */\n      swap2\n      pop\n        /* \"#utility.yul\":3325:3627   */\n      pop\n        /* \"#utility.yul\":3095:3634   */\n      swap3\n      swap2\n      pop\n      pop\n      jump\t// out\n        /* \"#utility.yul\":3640:3757   */\n    tag_95:\n        /* \"#utility.yul\":3749:3750   */\n      0x00\n        /* \"#utility.yul\":3746:3747   */\n      0x00\n        /* \"#utility.yul\":3739:3751   */\n      revert\n        /* \"#utility.yul\":3780:4348   */\n    tag_96:\n        /* \"#utility.yul\":3853:3861   */\n      0x00\n        /* \"#utility.yul\":3863:3869   */\n      0x00\n        /* \"#utility.yul\":3913:3916   */\n      dup4\n        /* \"#utility.yul\":3906:3910   */\n      0x1f\n        /* \"#utility.yul\":3898:3904   */\n      dup5\n        /* \"#utility.yul\":3894:3911   */\n      add\n        /* \"#utility.yul\":3890:3917   */\n      slt\n        /* \"#utility.yul\":3880:4002   */\n      tag_144\n      jumpi\n        /* \"#utility.yul\":3921:4000   */\n      tag_145\n      tag_84\n      jump\t// in\n    tag_145:\n        /* \"#utility.yul\":3880:4002   */\n    tag_144:\n        /* \"#utility.yul\":4034:4040   */\n      dup3\n        /* \"#utility.yul\":4021:4041   */\n      calldataload\n        /* \"#utility.yul\":4011:4041   */\n      swap1\n      pop\n        /* \"#utility.yul\":4064:4082   */\n      0xffffffffffffffff\n        /* \"#utility.yul\":4056:4062   */\n      dup2\n        /* \"#utility.yul\":4053:4083   */\n      gt\n        /* \"#utility.yul\":4050:4167   */\n      iszero\n      tag_146\n      jumpi\n        /* \"#utility.yul\":4086:4165   */\n      tag_147\n      tag_95\n      jump\t// in\n    tag_147:\n        /* \"#utility.yul\":4050:4167   */\n    tag_146:\n        /* \"#utility.yul\":4200:4204   */\n      0x20\n        /* \"#utility.yul\":4192:4198   */\n      dup4\n        /* \"#utility.yul\":4188:4205   */\n      add\n        /* \"#utility.yul\":4176:4205   */\n      swap2\n      pop\n        /* \"#utility.yul\":4254:4257   */\n      dup4\n        /* \"#utility.yul\":4246:4250   */\n      0x20\n        /* \"#utility.yul\":4238:4244   */\n      dup3\n        /* \"#utility.yul\":4234:4251   */\n      mul\n        /* \"#utility.yul\":4224:4232   */\n      dup4\n        /* \"#utility.yul\":4220:4252   */\n      add\n        /* \"#utility.yul\":4217:4258   */\n      gt\n        /* \"#utility.yul\":4214:4342   */\n      iszero\n      tag_148\n      jumpi\n        /* \"#utility.yul\":4261:4340   */\n      tag_149\n      tag_89\n      jump\t// in\n    tag_149:\n        /* \"#utility.yul\":4214:4342   */\n    tag_148:\n        /* \"#utility.yul\":3780:4348   */\n      swap3\n      pop\n      swap3\n      swap1\n      pop\n      jump\t// out\n        /* \"#utility.yul\":4354:4913   */\n    tag_13:\n        /* \"#utility.yul\":4440:4446   */\n      0x00\n        /* \"#utility.yul\":4448:4454   */\n      0x00\n        /* \"#utility.yul\":4497:4499   */\n      0x20\n        /* \"#utility.yul\":4485:4494   */\n      dup4\n        /* \"#utility.yul\":4476:4483   */\n      dup6\n        /* \"#utility.yul\":4472:4495   */\n      sub\n        /* \"#utility.yul\":4468:4500   */\n      slt\n        /* \"#utility.yul\":4465:4584   */\n      iszero\n      tag_151\n      jumpi\n        /* \"#utility.yul\":4503:4582   */\n      tag_152\n      tag_82\n      jump\t// in\n    tag_152:\n        /* \"#utility.yul\":4465:4584   */\n    tag_151:\n        /* \"#utility.yul\":4651:4652   */\n      0x00\n        /* \"#utility.yul\":4640:4649   */\n      dup4\n        /* \"#utility.yul\":4636:4653   */\n      add\n        /* \"#utility.yul\":4623:4654   */\n      calldataload\n        /* \"#utility.yul\":4681:4699   */\n      0xffffffffffffffff\n        /* \"#utility.yul\":4673:4679   */\n      dup2\n        /* \"#utility.yul\":4670:4700   */\n      gt\n        /* \"#utility.yul\":4667:4784   */\n      iszero\n      tag_153\n      jumpi\n        /* \"#utility.yul\":4703:4782   */\n      tag_154\n      tag_83\n      jump\t// in\n    tag_154:\n        /* \"#utility.yul\":4667:4784   */\n    tag_153:\n        /* \"#utility.yul\":4816:4896   */\n      tag_155\n        /* \"#utility.yul\":4888:4895   */\n      dup6\n        /* \"#utility.yul\":4879:4885   */\n      dup3\n        /* \"#utility.yul\":4868:4877   */\n      dup7\n        /* \"#utility.yul\":4864:4886   */\n      add\n        /* \"#utility.yul\":4816:4896   */\n      tag_96\n      jump\t// in\n    tag_155:\n        /* \"#utility.yul\":4798:4896   */\n      swap3\n      pop\n      swap3\n      pop\n        /* \"#utility.yul\":4594:4906   */\n      pop\n        /* \"#utility.yul\":4354:4913   */\n      swap3\n      pop\n      swap3\n      swap1\n      pop\n      jump\t// out\n        /* \"#utility.yul\":4919:5248   */\n    tag_17:\n        /* \"#utility.yul\":4978:4984   */\n      0x00\n        /* \"#utility.yul\":5027:5029   */\n      0x20\n        /* \"#utility.yul\":5015:5024   */\n      dup3\n        /* \"#utility.yul\":5006:5013   */\n      dup5\n        /* \"#utility.yul\":5002:5025   */\n      sub\n        /* \"#utility.yul\":4998:5030   */\n      slt\n        /* \"#utility.yul\":4995:5114   */\n      iszero\n      tag_157\n      jumpi\n        /* \"#utility.yul\":5033:5112   */\n      tag_158\n      tag_82\n      jump\t// in\n    tag_158:\n        /* \"#utility.yul\":4995:5114   */\n    tag_157:\n        /* \"#utility.yul\":5153:5154   */\n      0x00\n        /* \"#utility.yul\":5178:5231   */\n      tag_159\n        /* \"#utility.yul\":5223:5230   */\n      dup5\n        /* \"#utility.yul\":5214:5220   */\n      dup3\n        /* \"#utility.yul\":5203:5212   */\n      dup6\n        /* \"#utility.yul\":5199:5221   */\n      add\n        /* \"#utility.yul\":5178:5231   */\n      tag_92\n      jump\t// in\n    tag_159:\n        /* \"#utility.yul\":5168:5231   */\n      swap2\n      pop\n        /* \"#utility.yul\":5124:5241   */\n      pop\n        /* \"#utility.yul\":4919:5248   */\n      swap3\n      swap2\n      pop\n      pop\n      jump\t// out\n        /* \"#utility.yul\":5254:5372   */\n    tag_97:\n        /* \"#utility.yul\":5341:5365   */\n      tag_161\n        /* \"#utility.yul\":5359:5364   */\n      dup2\n        /* \"#utility.yul\":5341:5365   */\n      tag_90\n      jump\t// in\n    tag_161:\n        /* \"#utility.yul\":5336:5339   */\n      dup3\n        /* \"#utility.yul\":5329:5366   */\n      mstore\n        /* \"#utility.yul\":5254:5372   */\n      pop\n      pop\n      jump\t// out\n        /* \"#utility.yul\":5378:5600   */\n    tag_20:\n        /* \"#utility.yul\":5471:5475   */\n      0x00\n        /* \"#utility.yul\":5509:5511   */\n      0x20\n        /* \"#utility.yul\":5498:5507   */\n      dup3\n        /* \"#utility.yul\":5494:5512   */\n      add\n        /* \"#utility.yul\":5486:5512   */\n      swap1\n      pop\n        /* \"#utility.yul\":5522:5593   */\n      tag_163\n        /* \"#utility.yul\":5590:5591   */\n      0x00\n        /* \"#utility.yul\":5579:5588   */\n      dup4\n        /* \"#utility.yul\":5575:5592   */\n      add\n        /* \"#utility.yul\":5566:5572   */\n      dup5\n        /* \"#utility.yul\":5522:5593   */\n      tag_97\n      jump\t// in\n    tag_163:\n        /* \"#utility.yul\":5378:5600   */\n      swap3\n      swap2\n      pop\n      pop\n      jump\t// out\n        /* \"#utility.yul\":5606:5786   */\n    tag_30:\n        /* \"#utility.yul\":5654:5731   */\n      0x4e487b7100000000000000000000000000000000000000000000000000000000\n        /* \"#utility.yul\":5651:5652   */\n      0x00\n        /* \"#utility.yul\":5644:5732   */\n      mstore\n        /* \"#utility.yul\":5751:5755   */\n      0x32\n        /* \"#utility.yul\":5748:5749   */\n      0x04\n        /* \"#utility.yul\":5741:5756   */\n      mstore\n        /* \"#utility.yul\":5775:5779   */\n      0x24\n        /* \"#utility.yul\":5772:5773   */\n      0x00\n        /* \"#utility.yul\":5765:5780   */\n      revert\n        /* \"#utility.yul\":5792:5972   */\n    tag_98:\n        /* \"#utility.yul\":5840:5917   */\n      0x4e487b7100000000000000000000000000000000000000000000000000000000\n        /* \"#utility.yul\":5837:5838   */\n      0x00\n        /* \"#utility.yul\":5830:5918   */\n      mstore\n        /* \"#utility.yul\":5937:5941   */\n      0x11\n        /* \"#utility.yul\":5934:5935   */\n      0x04\n        /* \"#utility.yul\":5927:5942   */\n      mstore\n        /* \"#utility.yul\":5961:5965   */\n      0x24\n        /* \"#utility.yul\":5958:5959   */\n      0x00\n        /* \"#utility.yul\":5951:5966   */\n      revert\n        /* \"#utility.yul\":5978:6211   */\n    tag_43:\n        /* \"#utility.yul\":6017:6020   */\n      0x00\n        /* \"#utility.yul\":6040:6064   */\n      tag_167\n        /* \"#utility.yul\":6058:6063   */\n      dup3\n        /* \"#utility.yul\":6040:6064   */\n      tag_90\n      jump\t// in\n    tag_167:\n        /* \"#utility.yul\":6031:6064   */\n      swap2\n      pop\n        /* \"#utility.yul\":6086:6152   */\n      0xffffffffffffffffffffffffffffffffffffffffffffffffffffffffffffffff\n        /* \"#utility.yul\":6079:6084   */\n      dup3\n        /* \"#utility.yul\":6076:6153   */\n      sub\n        /* \"#utility.yul\":6073:6176   */\n      tag_168\n      jumpi\n        /* \"#utility.yul\":6156:6174   */\n      tag_169\n      tag_98\n      jump\t// in\n    tag_169:\n        /* \"#utility.yul\":6073:6176   */\n    tag_168:\n        /* \"#utility.yul\":6203:6204   */\n      0x01\n        /* \"#utility.yul\":6196:6201   */\n      dup3\n        /* \"#utility.yul\":6192:6205   */\n      add\n        /* \"#utility.yul\":6185:6205   */\n      swap1\n      pop\n        /* \"#utility.yul\":5978:6211   */\n      swap2\n      swap1\n      pop\n      jump\t// out\n        /* \"#utility.yul\":6217:6408   */\n    tag_46:\n        /* \"#utility.yul\":6257:6260   */\n      0x00\n        /* \"#utility.yul\":6276:6296   */\n      tag_171\n        /* \"#utility.yul\":6294:6295   */\n      dup3\n        /* \"#utility.yul\":6276:6296   */\n      tag_90\n      jump\t// in\n    tag_171:\n        /* \"#utility.yul\":6271:6296   */\n      swap2\n      pop\n        /* \"#utility.yul\":6310:6330   */\n      tag_172\n        /* \"#utility.yul\":6328:6329   */\n      dup4\n        /* \"#utility.yul\":6310:6330   */\n      tag_90\n      jump\t// in\n    tag_172:\n        /* \"#utility.yul\":6305:6330   */\n      swap3\n      pop\n        /* \"#utility.yul\":6353:6354   */\n      dup3\n        /* \"#utility.yul\":6350:6351   */\n      dup3\n        /* \"#utility.yul\":6346:6355   */\n      add\n        /* \"#utility.yul\":6339:6355   */\n      swap1\n      pop\n        /* \"#utility.yul\":6374:6377   */\n      dup1\n        /* \"#utility.yul\":6371:6372   */\n      dup3\n        /* \"#utility.yul\":6368:6378   */\n      gt\n        /* \"#utility.yul\":6365:6401   */\n      iszero\n      tag_173\n      jumpi\n        /* \"#utility.yul\":6381:6399   */\n      tag_174\n      tag_98\n      jump\t// in\n    tag_174:\n        /* \"#utility.yul\":6365:6401   */\n    tag_173:\n        /* \"#utility.yul\":6217:6408   */\n      swap3\n      swap2\n      pop\n      pop\n      jump\t// out\n\n    auxdata: 0xa2646970667358221220391d4a24125a8c4040e2305ad6908240b1bc910db5bead0bf63882637cecb46264736f6c63430008220033\n}\n",
				"bytecode": {
					"linkReferences": {},
					"object": "6080604052348015600e575f5ffd5b506107878061001c5f395ff3fe608060405234801561000f575f5ffd5b506004361061004a575f3560e01c806344d2c7331461004e578063e2744a811461006a578063f0ba844014610086578063f6d4d7c4146100b6575b5f5ffd5b6100686004803603810190610063919061053f565b6100d2565b005b610084600480360381019061007f91906105df565b610154565b005b6100a0600480360381019061009b919061062a565b610262565b6040516100ad9190610664565b60405180910390f35b6100d060048036038101906100cb91906105df565b610281565b005b5f5f90505b815181101561015057600a8282815181106100f5576100f461067d565b5b60200260200101511115610143575f8282815181106101175761011661067d565b5b6020026020010151908060018154018082558091505060019003905f5260205f20015f90919091909150555b80806001019150506100d7565b5050565b5f8282905090505f5f8054905090505f5f90505f5f90505b838110156101b257600a8686838181106101895761018861067d565b5b9050602002013511156101a55781806101a1906106d7565b9250505b808060010191505061016c565b505f8111156101d1575f81836101c8919061071e565b9050805f5f0155505b5f8290505f5f90505b8481101561025957600a8787838181106101f7576101f661067d565b5b90506020020135111561024c578686828181106102175761021661067d565b5b905060200201355f83815481106102315761023061067d565b5b905f5260205f2001819055508180610248906106d7565b9250505b80806001019150506101da565b50505050505050565b5f8181548110610270575f80fd5b905f5260205f20015f915090505481565b5f8282905090505f8167ffffffffffffffff8111156102a3576102a26103d0565b5b6040519080825280602002602001820160405280156102d15781602001602082028036833780820191505090505b5090505f5f90505f5f90505b83811015610348575f8686838181106102f9576102f861067d565b5b905060200201359050600a81111561033a578084848151811061031f5761031e61067d565b5b6020026020010181815250508280610336906106d7565b9350505b5080806001019150506102dd565b505f5f90505b82518110156103a3575f83828151811061036b5761036a61067d565b5b6020026020010151908060018154018082558091505060019003905f5260205f20015f9091909190915055808060010191505061034e565b505050505050565b5f604051905090565b5f5ffd5b5f5ffd5b5f5ffd5b5f601f19601f8301169050919050565b7f4e487b71000000000000000000000000000000000000000000000000000000005f52604160045260245ffd5b610406826103c0565b810181811067ffffffffffffffff82111715610425576104246103d0565b5b80604052505050565b5f6104376103ab565b905061044382826103fd565b919050565b5f67ffffffffffffffff821115610462576104616103d0565b5b602082029050602081019050919050565b5f5ffd5b5f819050919050565b61048981610477565b8114610493575f5ffd5b50565b5f813590506104a481610480565b92915050565b5f6104bc6104b784610448565b61042e565b905080838252602082019050602084028301858111156104df576104de610473565b5b835b8181101561050857806104f48882610496565b8452602084019350506020810190506104e1565b5050509392505050565b5f82601f830112610526576105256103bc565b5b81356105368482602086016104aa565b91505092915050565b5f60208284031215610554576105536103b4565b5b5f82013567ffffffffffffffff811115610571576105706103b8565b5b61057d84828501610512565b91505092915050565b5f5ffd5b5f5f83601f84011261059f5761059e6103bc565b5b8235905067ffffffffffffffff8111156105bc576105bb610586565b5b6020830191508360208202830111156105d8576105d7610473565b5b9250929050565b5f5f602083850312156105f5576105f46103b4565b5b5f83013567ffffffffffffffff811115610612576106116103b8565b5b61061e8582860161058a565b92509250509250929050565b5f6020828403121561063f5761063e6103b4565b5b5f61064c84828501610496565b91505092915050565b61065e81610477565b82525050565b5f6020820190506106775f830184610655565b92915050565b7f4e487b71000000000000000000000000000000000000000000000000000000005f52603260045260245ffd5b7f4e487b71000000000000000000000000000000000000000000000000000000005f52601160045260245ffd5b5f6106e182610477565b91507fffffffffffffffffffffffffffffffffffffffffffffffffffffffffffffffff8203610713576107126106aa565b5b600182019050919050565b5f61072882610477565b915061073383610477565b925082820190508082111561074b5761074a6106aa565b5b9291505056fea2646970667358221220391d4a24125a8c4040e2305ad6908240b1bc910db5bead0bf63882637cecb46264736f6c63430008220033",
					"opcodes": "PUSH1 0x80 PUSH1 0x40 MSTORE CALLVALUE DUP1 ISZERO PUSH1 0xE JUMPI PUSH0 PUSH0 REVERT JUMPDEST POP PUSH2 0x787 DUP1 PUSH2 0x1C PUSH0 CODECOPY PUSH0 RETURN INVALID PUSH1 0x80 PUSH1 0x40 MSTORE CALLVALUE DUP1 ISZERO PUSH2 0xF JUMPI PUSH0 PUSH0 REVERT JUMPDEST POP PUSH1 0x4 CALLDATASIZE LT PUSH2 0x4A JUMPI PUSH0 CALLDATALOAD PUSH1 0xE0 SHR DUP1 PUSH4 0x44D2C733 EQ PUSH2 0x4E JUMPI DUP1 PUSH4 0xE2744A81 EQ PUSH2 0x6A JUMPI DUP1 PUSH4 0xF0BA8440 EQ PUSH2 0x86 JUMPI DUP1 PUSH4 0xF6D4D7C4 EQ PUSH2 0xB6 JUMPI JUMPDEST PUSH0 PUSH0 REVERT JUMPDEST PUSH2 0x68 PUSH1 0x4 DUP1 CALLDATASIZE SUB DUP2 ADD SWAP1 PUSH2 0x63 SWAP2 SWAP1 PUSH2 0x53F JUMP JUMPDEST PUSH2 0xD2 JUMP JUMPDEST STOP JUMPDEST PUSH2 0x84 PUSH1 0x4 DUP1 CALLDATASIZE SUB DUP2 ADD SWAP1 PUSH2 0x7F SWAP2 SWAP1 PUSH2 0x5DF JUMP JUMPDEST PUSH2 0x154 JUMP JUMPDEST STOP JUMPDEST PUSH2 0xA0 PUSH1 0x4 DUP1 CALLDATASIZE SUB DUP2 ADD SWAP1 PUSH2 0x9B SWAP2 SWAP1 PUSH2 0x62A JUMP JUMPDEST PUSH2 0x262 JUMP JUMPDEST PUSH1 0x40 MLOAD PUSH2 0xAD SWAP2 SWAP1 PUSH2 0x664 JUMP JUMPDEST PUSH1 0x40 MLOAD DUP1 SWAP2 SUB SWAP1 RETURN JUMPDEST PUSH2 0xD0 PUSH1 0x4 DUP1 CALLDATASIZE SUB DUP2 ADD SWAP1 PUSH2 0xCB SWAP2 SWAP1 PUSH2 0x5DF JUMP JUMPDEST PUSH2 0x281 JUMP JUMPDEST STOP JUMPDEST PUSH0 PUSH0 SWAP1 POP JUMPDEST DUP2 MLOAD DUP2 LT ISZERO PUSH2 0x150 JUMPI PUSH1 0xA DUP3 DUP3 DUP2 MLOAD DUP2 LT PUSH2 0xF5 JUMPI PUSH2 0xF4 PUSH2 0x67D JUMP JUMPDEST JUMPDEST PUSH1 0x20 MUL PUSH1 0x20 ADD ADD MLOAD GT ISZERO PUSH2 0x143 JUMPI PUSH0 DUP3 DUP3 DUP2 MLOAD DUP2 LT PUSH2 0x117 JUMPI PUSH2 0x116 PUSH2 0x67D JUMP JUMPDEST JUMPDEST PUSH1 0x20 MUL PUSH1 0x20 ADD ADD MLOAD SWAP1 DUP1 PUSH1 0x1 DUP2 SLOAD ADD DUP1 DUP3 SSTORE DUP1 SWAP2 POP POP PUSH1 0x1 SWAP1 SUB SWAP1 PUSH0 MSTORE PUSH1 0x20 PUSH0 KECCAK256 ADD PUSH0 SWAP1 SWAP2 SWAP1 SWAP2 SWAP1 SWAP2 POP SSTORE JUMPDEST DUP1 DUP1 PUSH1 0x1 ADD SWAP2 POP POP PUSH2 0xD7 JUMP JUMPDEST POP POP JUMP JUMPDEST PUSH0 DUP3 DUP3 SWAP1 POP SWAP1 POP PUSH0 PUSH0 DUP1 SLOAD SWAP1 POP SWAP1 POP PUSH0 PUSH0 SWAP1 POP PUSH0 PUSH0 SWAP1 POP JUMPDEST DUP4 DUP2 LT ISZERO PUSH2 0x1B2 JUMPI PUSH1 0xA DUP7 DUP7 DUP4 DUP2 DUP2 LT PUSH2 0x189 JUMPI PUSH2 0x188 PUSH2 0x67D JUMP JUMPDEST JUMPDEST SWAP1 POP PUSH1 0x20 MUL ADD CALLDATALOAD GT ISZERO PUSH2 0x1A5 JUMPI DUP2 DUP1 PUSH2 0x1A1 SWAP1 PUSH2 0x6D7 JUMP JUMPDEST SWAP3 POP POP JUMPDEST DUP1 DUP1 PUSH1 0x1 ADD SWAP2 POP POP PUSH2 0x16C JUMP JUMPDEST POP PUSH0 DUP2 GT ISZERO PUSH2 0x1D1 JUMPI PUSH0 DUP2 DUP4 PUSH2 0x1C8 SWAP2 SWAP1 PUSH2 0x71E JUMP JUMPDEST SWAP1 POP DUP1 PUSH0 PUSH0 ADD SSTORE POP JUMPDEST PUSH0 DUP3 SWAP1 POP PUSH0 PUSH0 SWAP1 POP JUMPDEST DUP5 DUP2 LT ISZERO PUSH2 0x259 JUMPI PUSH1 0xA DUP8 DUP8 DUP4 DUP2 DUP2 LT PUSH2 0x1F7 JUMPI PUSH2 0x1F6 PUSH2 0x67D JUMP JUMPDEST JUMPDEST SWAP1 POP PUSH1 0x20 MUL ADD CALLDATALOAD GT ISZERO PUSH2 0x24C JUMPI DUP7 DUP7 DUP3 DUP2 DUP2 LT PUSH2 0x217 JUMPI PUSH2 0x216 PUSH2 0x67D JUMP JUMPDEST JUMPDEST SWAP1 POP PUSH1 0x20 MUL ADD CALLDATALOAD PUSH0 DUP4 DUP2 SLOAD DUP2 LT PUSH2 0x231 JUMPI PUSH2 0x230 PUSH2 0x67D JUMP JUMPDEST JUMPDEST SWAP1 PUSH0 MSTORE PUSH1 0x20 PUSH0 KECCAK256 ADD DUP2 SWAP1 SSTORE POP DUP2 DUP1 PUSH2 0x248 SWAP1 PUSH2 0x6D7 JUMP JUMPDEST SWAP3 POP POP JUMPDEST DUP1 DUP1 PUSH1 0x1 ADD SWAP2 POP POP PUSH2 0x1DA JUMP JUMPDEST POP POP POP POP POP POP POP JUMP JUMPDEST PUSH0 DUP2 DUP2 SLOAD DUP2 LT PUSH2 0x270 JUMPI PUSH0 DUP1 REVERT JUMPDEST SWAP1 PUSH0 MSTORE PUSH1 0x20 PUSH0 KECCAK256 ADD PUSH0 SWAP2 POP SWAP1 POP SLOAD DUP2 JUMP JUMPDEST PUSH0 DUP3 DUP3 SWAP1 POP SWAP1 POP PUSH0 DUP2 PUSH8 0xFFFFFFFFFFFFFFFF DUP2 GT ISZERO PUSH2 0x2A3 JUMPI PUSH2 0x2A2 PUSH2 0x3D0 JUMP JUMPDEST JUMPDEST PUSH1 0x40 MLOAD SWAP1 DUP1 DUP3 MSTORE DUP1 PUSH1 0x20 MUL PUSH1 0x20 ADD DUP3 ADD PUSH1 0x40 MSTORE DUP1 ISZERO PUSH2 0x2D1 JUMPI DUP2 PUSH1 0x20 ADD PUSH1 0x20 DUP3 MUL DUP1 CALLDATASIZE DUP4 CALLDATACOPY DUP1 DUP3 ADD SWAP2 POP POP SWAP1 POP JUMPDEST POP SWAP1 POP PUSH0 PUSH0 SWAP1 POP PUSH0 PUSH0 SWAP1 POP JUMPDEST DUP4 DUP2 LT ISZERO PUSH2 0x348 JUMPI PUSH0 DUP7 DUP7 DUP4 DUP2 DUP2 LT PUSH2 0x2F9 JUMPI PUSH2 0x2F8 PUSH2 0x67D JUMP JUMPDEST JUMPDEST SWAP1 POP PUSH1 0x20 MUL ADD CALLDATALOAD SWAP1 POP PUSH1 0xA DUP2 GT ISZERO PUSH2 0x33A JUMPI DUP1 DUP5 DUP5 DUP2 MLOAD DUP2 LT PUSH2 0x31F JUMPI PUSH2 0x31E PUSH2 0x67D JUMP JUMPDEST JUMPDEST PUSH1 0x20 MUL PUSH1 0x20 ADD ADD DUP2 DUP2 MSTORE POP POP DUP3 DUP1 PUSH2 0x336 SWAP1 PUSH2 0x6D7 JUMP JUMPDEST SWAP4 POP POP JUMPDEST POP DUP1 DUP1 PUSH1 0x1 ADD SWAP2 POP POP PUSH2 0x2DD JUMP JUMPDEST POP PUSH0 PUSH0 SWAP1 POP JUMPDEST DUP3 MLOAD DUP2 LT ISZERO PUSH2 0x3A3 JUMPI PUSH0 DUP4 DUP3 DUP2 MLOAD DUP2 LT PUSH2 0x36B JUMPI PUSH2 0x36A PUSH2 0x67D JUMP JUMPDEST JUMPDEST PUSH1 0x20 MUL PUSH1 0x20 ADD ADD MLOAD SWAP1 DUP1 PUSH1 0x1 DUP2 SLOAD ADD DUP1 DUP3 SSTORE DUP1 SWAP2 POP POP PUSH1 0x1 SWAP1 SUB SWAP1 PUSH0 MSTORE PUSH1 0x20 PUSH0 KECCAK256 ADD PUSH0 SWAP1 SWAP2 SWAP1 SWAP2 SWAP1 SWAP2 POP SSTORE DUP1 DUP1 PUSH1 0x1 ADD SWAP2 POP POP PUSH2 0x34E JUMP JUMPDEST POP POP POP POP POP POP JUMP JUMPDEST PUSH0 PUSH1 0x40 MLOAD SWAP1 POP SWAP1 JUMP JUMPDEST PUSH0 PUSH0 REVERT JUMPDEST PUSH0 PUSH0 REVERT JUMPDEST PUSH0 PUSH0 REVERT JUMPDEST PUSH0 PUSH1 0x1F NOT PUSH1 0x1F DUP4 ADD AND SWAP1 POP SWAP2 SWAP1 POP JUMP JUMPDEST PUSH32 0x4E487B7100000000000000000000000000000000000000000000000000000000 PUSH0 MSTORE PUSH1 0x41 PUSH1 0x4 MSTORE PUSH1 0x24 PUSH0 REVERT JUMPDEST PUSH2 0x406 DUP3 PUSH2 0x3C0 JUMP JUMPDEST DUP2 ADD DUP2 DUP2 LT PUSH8 0xFFFFFFFFFFFFFFFF DUP3 GT OR ISZERO PUSH2 0x425 JUMPI PUSH2 0x424 PUSH2 0x3D0 JUMP JUMPDEST JUMPDEST DUP1 PUSH1 0x40 MSTORE POP POP POP JUMP JUMPDEST PUSH0 PUSH2 0x437 PUSH2 0x3AB JUMP JUMPDEST SWAP1 POP PUSH2 0x443 DUP3 DUP3 PUSH2 0x3FD JUMP JUMPDEST SWAP2 SWAP1 POP JUMP JUMPDEST PUSH0 PUSH8 0xFFFFFFFFFFFFFFFF DUP3 GT ISZERO PUSH2 0x462 JUMPI PUSH2 0x461 PUSH2 0x3D0 JUMP JUMPDEST JUMPDEST PUSH1 0x20 DUP3 MUL SWAP1 POP PUSH1 0x20 DUP2 ADD SWAP1 POP SWAP2 SWAP1 POP JUMP JUMPDEST PUSH0 PUSH0 REVERT JUMPDEST PUSH0 DUP2 SWAP1 POP SWAP2 SWAP1 POP JUMP JUMPDEST PUSH2 0x489 DUP2 PUSH2 0x477 JUMP JUMPDEST DUP2 EQ PUSH2 0x493 JUMPI PUSH0 PUSH0 REVERT JUMPDEST POP JUMP JUMPDEST PUSH0 DUP2 CALLDATALOAD SWAP1 POP PUSH2 0x4A4 DUP2 PUSH2 0x480 JUMP JUMPDEST SWAP3 SWAP2 POP POP JUMP JUMPDEST PUSH0 PUSH2 0x4BC PUSH2 0x4B7 DUP5 PUSH2 0x448 JUMP JUMPDEST PUSH2 0x42E JUMP JUMPDEST SWAP1 POP DUP1 DUP4 DUP3 MSTORE PUSH1 0x20 DUP3 ADD SWAP1 POP PUSH1 0x20 DUP5 MUL DUP4 ADD DUP6 DUP2 GT ISZERO PUSH2 0x4DF JUMPI PUSH2 0x4DE PUSH2 0x473 JUMP JUMPDEST JUMPDEST DUP4 JUMPDEST DUP2 DUP2 LT ISZERO PUSH2 0x508 JUMPI DUP1 PUSH2 0x4F4 DUP9 DUP3 PUSH2 0x496 JUMP JUMPDEST DUP5 MSTORE PUSH1 0x20 DUP5 ADD SWAP4 POP POP PUSH1 0x20 DUP2 ADD SWAP1 POP PUSH2 0x4E1 JUMP JUMPDEST POP POP POP SWAP4 SWAP3 POP POP POP JUMP JUMPDEST PUSH0 DUP3 PUSH1 0x1F DUP4 ADD SLT PUSH2 0x526 JUMPI PUSH2 0x525 PUSH2 0x3BC JUMP JUMPDEST JUMPDEST DUP2 CALLDATALOAD PUSH2 0x536 DUP5 DUP3 PUSH1 0x20 DUP7 ADD PUSH2 0x4AA JUMP JUMPDEST SWAP2 POP POP SWAP3 SWAP2 POP POP JUMP JUMPDEST PUSH0 PUSH1 0x20 DUP3 DUP5 SUB SLT ISZERO PUSH2 0x554 JUMPI PUSH2 0x553 PUSH2 0x3B4 JUMP JUMPDEST JUMPDEST PUSH0 DUP3 ADD CALLDATALOAD PUSH8 0xFFFFFFFFFFFFFFFF DUP2 GT ISZERO PUSH2 0x571 JUMPI PUSH2 0x570 PUSH2 0x3B8 JUMP JUMPDEST JUMPDEST PUSH2 0x57D DUP5 DUP3 DUP6 ADD PUSH2 0x512 JUMP JUMPDEST SWAP2 POP POP SWAP3 SWAP2 POP POP JUMP JUMPDEST PUSH0 PUSH0 REVERT JUMPDEST PUSH0 PUSH0 DUP4 PUSH1 0x1F DUP5 ADD SLT PUSH2 0x59F JUMPI PUSH2 0x59E PUSH2 0x3BC JUMP JUMPDEST JUMPDEST DUP3 CALLDATALOAD SWAP1 POP PUSH8 0xFFFFFFFFFFFFFFFF DUP2 GT ISZERO PUSH2 0x5BC JUMPI PUSH2 0x5BB PUSH2 0x586 JUMP JUMPDEST JUMPDEST PUSH1 0x20 DUP4 ADD SWAP2 POP DUP4 PUSH1 0x20 DUP3 MUL DUP4 ADD GT ISZERO PUSH2 0x5D8 JUMPI PUSH2 0x5D7 PUSH2 0x473 JUMP JUMPDEST JUMPDEST SWAP3 POP SWAP3 SWAP1 POP JUMP JUMPDEST PUSH0 PUSH0 PUSH1 0x20 DUP4 DUP6 SUB SLT ISZERO PUSH2 0x5F5 JUMPI PUSH2 0x5F4 PUSH2 0x3B4 JUMP JUMPDEST JUMPDEST PUSH0 DUP4 ADD CALLDATALOAD PUSH8 0xFFFFFFFFFFFFFFFF DUP2 GT ISZERO PUSH2 0x612 JUMPI PUSH2 0x611 PUSH2 0x3B8 JUMP JUMPDEST JUMPDEST PUSH2 0x61E DUP6 DUP3 DUP7 ADD PUSH2 0x58A JUMP JUMPDEST SWAP3 POP SWAP3 POP POP SWAP3 POP SWAP3 SWAP1 POP JUMP JUMPDEST PUSH0 PUSH1 0x20 DUP3 DUP5 SUB SLT ISZERO PUSH2 0x63F JUMPI PUSH2 0x63E PUSH2 0x3B4 JUMP JUMPDEST JUMPDEST PUSH0 PUSH2 0x64C DUP5 DUP3 DUP6 ADD PUSH2 0x496 JUMP JUMPDEST SWAP2 POP POP SWAP3 SWAP2 POP POP JUMP JUMPDEST PUSH2 0x65E DUP2 PUSH2 0x477 JUMP JUMPDEST DUP3 MSTORE POP POP JUMP JUMPDEST PUSH0 PUSH1 0x20 DUP3 ADD SWAP1 POP PUSH2 0x677 PUSH0 DUP4 ADD DUP5 PUSH2 0x655 JUMP JUMPDEST SWAP3 SWAP2 POP POP JUMP JUMPDEST PUSH32 0x4E487B7100000000000000000000000000000000000000000000000000000000 PUSH0 MSTORE PUSH1 0x32 PUSH1 0x4 MSTORE PUSH1 0x24 PUSH0 REVERT JUMPDEST PUSH32 0x4E487B7100000000000000000000000000000000000000000000000000000000 PUSH0 MSTORE PUSH1 0x11 PUSH1 0x4 MSTORE PUSH1 0x24 PUSH0 REVERT JUMPDEST PUSH0 PUSH2 0x6E1 DUP3 PUSH2 0x477 JUMP JUMPDEST SWAP2 POP PUSH32 0xFFFFFFFFFFFFFFFFFFFFFFFFFFFFFFFFFFFFFFFFFFFFFFFFFFFFFFFFFFFFFFFF DUP3 SUB PUSH2 0x713 JUMPI PUSH2 0x712 PUSH2 0x6AA JUMP JUMPDEST JUMPDEST PUSH1 0x1 DUP3 ADD SWAP1 POP SWAP2 SWAP1 POP JUMP JUMPDEST PUSH0 PUSH2 0x728 DUP3 PUSH2 0x477 JUMP JUMPDEST SWAP2 POP PUSH2 0x733 DUP4 PUSH2 0x477 JUMP JUMPDEST SWAP3 POP DUP3 DUP3 ADD SWAP1 POP DUP1 DUP3 GT ISZERO PUSH2 0x74B JUMPI PUSH2 0x74A PUSH2 0x6AA JUMP JUMPDEST JUMPDEST SWAP3 SWAP2 POP POP JUMP INVALID LOG2 PUSH5 0x6970667358 0x22 SLT KECCAK256 CODECOPY SAR BLOBBASEFEE 0x24 SLT GAS DUP13 BLOCKHASH BLOCKHASH 0xE2 ADDRESS GAS 0xD6 SWAP1 DUP3 BLOCKHASH 0xB1 0xBC SWAP2 0xD 0xB5 0xBE 0xAD SIGNEXTEND 0xF6 CODESIZE DUP3 PUSH4 0x7CECB462 PUSH5 0x736F6C6343 STOP ADDMOD 0x22 STOP CALLER "
				},
				"gasEstimates": {
					"creation": {
						"codeDepositCost": "385400",
						"executionCost": "422",
						"totalCost": "385822"
					},
					"external": {
						"data(uint256)": "infinite",
						"optimizedProcess(uint256[])": "infinite",
						"process(uint256[])": "infinite",
						"unOptimizedProcess(uint256[])": "infinite"
					}
				},
				"methodIdentifiers": {
					"data(uint256)": "f0ba8440",
					"optimizedProcess(uint256[])": "f6d4d7c4",
					"process(uint256[])": "e2744a81",
					"unOptimizedProcess(uint256[])": "44d2c733"
				}
			},
			"storageLayout": {
				"storage": [
					{
						"astId": 4,
						"contract": "lession3.1/OptimizedCode.sol:OptimizedCode",
						"label": "data",
						"offset": 0,
						"slot": "0",
						"type": "t_array(t_uint256)dyn_storage"
					}
				],
				"types": {
					"t_array(t_uint256)dyn_storage": {
						"base": "t_uint256",
						"encoding": "dynamic_array",
						"label": "uint256[]",
						"numberOfBytes": "32"
					},
					"t_uint256": {
						"encoding": "inplace",
						"label": "uint256",
						"numberOfBytes": "32"
					}
				}
			},
			"userdoc": {
				"kind": "user",
				"methods": {},
				"version": 1
			}
		}
	}
}