{
	"lession3.3-Function/MultiSignatureWallet.sol": {
		"MultiSignatureWallet": {
			"abi": [
				{
					"inputs": [
						{
							"internalType": "address[]",
							"name": "users",
							"type": "address[]"
						},
						{
							"internalType": "uint256",
							"name": "requiredCount",
							"type": "uint256"
						}
					],
					"stateMutability": "nonpayable",
					"type": "constructor"
				},
				{
					"anonymous": false,
					"inputs": [
						{
							"indexed": true,
							"internalType": "address",
							"name": "owner",
							"type": "address"
						},
						{
							"indexed": false,
							"internalType": "uint256",
							"name": "txId",
							"type": "uint256"
						}
					],
					"name": "OwnerConfirmTransaction",
					"type": "event"
				},
				{
					"anonymous": false,
					"inputs": [
						{
							"indexed": true,
							"internalType": "address",
							"name": "owner",
							"type": "address"
						},
						{
							"indexed": false,
							"internalType": "uint256",
							"name": "txId",
							"type": "uint256"
						},
						{
							"indexed": false,
							"internalType": "bool",
							"name": "success",
							"type": "bool"
						}
					],
					"name": "OwnerExeucteTransaction",
					"type": "event"
				},
				{
					"anonymous": false,
					"inputs": [
						{
							"indexed": true,
							"internalType": "address",
							"name": "owner",
							"type": "address"
						},
						{
							"indexed": false,
							"internalType": "uint256",
							"name": "txId",
							"type": "uint256"
						}
					],
					"name": "OwnerSubmitTransaction",
					"type": "event"
				},
				{
					"anonymous": false,
					"inputs": [
						{
							"indexed": false,
							"internalType": "uint256",
							"name": "txId",
							"type": "uint256"
						}
					],
					"name": "ReachRequiredCount",
					"type": "event"
				},
				{
					"inputs": [
						{
							"internalType": "uint256",
							"name": "txId",
							"type": "uint256"
						}
					],
					"name": "confirmTransaction",
					"outputs": [],
					"stateMutability": "nonpayable",
					"type": "function"
				},
				{
					"inputs": [
						{
							"internalType": "uint256",
							"name": "txId",
							"type": "uint256"
						}
					],
					"name": "executeTransaction",
					"outputs": [],
					"stateMutability": "nonpayable",
					"type": "function"
				},
				{
					"inputs": [],
					"name": "getBalance",
					"outputs": [
						{
							"internalType": "uint256",
							"name": "",
							"type": "uint256"
						}
					],
					"stateMutability": "view",
					"type": "function"
				},
				{
					"inputs": [
						{
							"internalType": "uint256",
							"name": "",
							"type": "uint256"
						}
					],
					"name": "owners",
					"outputs": [
						{
							"internalType": "address",
							"name": "",
							"type": "address"
						}
					],
					"stateMutability": "view",
					"type": "function"
				},
				{
					"inputs": [],
					"name": "required",
					"outputs": [
						{
							"internalType": "uint256",
							"name": "",
							"type": "uint256"
						}
					],
					"stateMutability": "view",
					"type": "function"
				},
				{
					"inputs": [
						{
							"internalType": "address",
							"name": "to",
							"type": "address"
						},
						{
							"internalType": "uint256",
							"name": "amount",
							"type": "uint256"
						},
						{
							"internalType": "bytes",
							"name": "data",
							"type": "bytes"
						}
					],
					"name": "submitTransaction",
					"outputs": [],
					"stateMutability": "nonpayable",
					"type": "function"
				},
				{
					"inputs": [],
					"name": "transactionCount",
					"outputs": [
						{
							"internalType": "uint256",
							"name": "",
							"type": "uint256"
						}
					],
					"stateMutability": "view",
					"type": "function"
				},
				{
					"inputs": [
						{
							"internalType": "uint256",
							"name": "",
							"type": "uint256"
						}
					],
					"name": "transactions",
					"outputs": [
						{
							"internalType": "address",
							"name": "to",
							"type": "address"
						},
						{
							"internalType": "uint256",
							"name": "value",
							"type": "uint256"
						},
						{
							"internalType": "bytes",
							"name": "data",
							"type": "bytes"
						},
						{
							"internalType": "bool",
							"name": "executed",
							"type": "bool"
						},
						{
							"internalType": "uint256",
							"name": "confirmCount",
							"type": "uint256"
						}
					],
					"stateMutability": "view",
					"type": "function"
				},
				{
					"stateMutability": "payable",
					"type": "receive"
				}
			],
			"devdoc": {
				"kind": "dev",
				"methods": {},
				"version": 1
			},
			"evm": {
				"assembly": "    /* \"lession3.3-Function/MultiSignatureWallet.sol\":338:4314  contract MultiSignatureWallet {... */\n  mstore(0x40, 0x80)\n    /* \"lession3.3-Function/MultiSignatureWallet.sol\":950:951  0 */\n  0x00\n    /* \"lession3.3-Function/MultiSignatureWallet.sol\":919:951  uint public transactionCount = 0 */\n  0x03\n  sstore\n    /* \"lession3.3-Function/MultiSignatureWallet.sol\":1498:1815  constructor(address[] memory users,uint requiredCount) {... */\n  callvalue\n  dup1\n  iszero\n  tag_1\n  jumpi\n  revert(0x00, 0x00)\ntag_1:\n  pop\n  mload(0x40)\n  sub(codesize, bytecodeSize)\n  dup1\n  bytecodeSize\n  dup4\n  codecopy\n  dup2\n  dup2\n  add\n  0x40\n  mstore\n  dup2\n  add\n  swap1\n  tag_2\n  swap2\n  swap1\n  tag_3\n  jump\t// in\ntag_2:\n    /* \"lession3.3-Function/MultiSignatureWallet.sol\":1573:1578  users */\n  dup2\n    /* \"lession3.3-Function/MultiSignatureWallet.sol\":1564:1570  owners */\n  0x00\n    /* \"lession3.3-Function/MultiSignatureWallet.sol\":1564:1578  owners = users */\n  swap1\n  dup2\n  tag_6\n  swap2\n  swap1\n  tag_7\n  jump\t// in\ntag_6:\n  pop\n    /* \"lession3.3-Function/MultiSignatureWallet.sol\":1677:1683  uint i */\n  0x00\n    /* \"lession3.3-Function/MultiSignatureWallet.sol\":1686:1687  0 */\n  0x00\n    /* \"lession3.3-Function/MultiSignatureWallet.sol\":1677:1687  uint i = 0 */\n  swap1\n  pop\n    /* \"lession3.3-Function/MultiSignatureWallet.sol\":1672:1773  for (uint i = 0; i < users.length; i++) ... */\ntag_8:\n    /* \"lession3.3-Function/MultiSignatureWallet.sol\":1693:1698  users */\n  dup3\n    /* \"lession3.3-Function/MultiSignatureWallet.sol\":1693:1705  users.length */\n  mload\n    /* \"lession3.3-Function/MultiSignatureWallet.sol\":1689:1690  i */\n  dup2\n    /* \"lession3.3-Function/MultiSignatureWallet.sol\":1689:1705  i < users.length */\n  lt\n    /* \"lession3.3-Function/MultiSignatureWallet.sol\":1672:1773  for (uint i = 0; i < users.length; i++) ... */\n  iszero\n  tag_9\n  jumpi\n    /* \"lession3.3-Function/MultiSignatureWallet.sol\":1757:1761  true */\n  0x01\n    /* \"lession3.3-Function/MultiSignatureWallet.sol\":1737:1744  isOwner */\n  0x02\n    /* \"lession3.3-Function/MultiSignatureWallet.sol\":1737:1754  isOwner[users[i]] */\n  0x00\n    /* \"lession3.3-Function/MultiSignatureWallet.sol\":1745:1750  users */\n  dup6\n    /* \"lession3.3-Function/MultiSignatureWallet.sol\":1751:1752  i */\n  dup5\n    /* \"lession3.3-Function/MultiSignatureWallet.sol\":1745:1753  users[i] */\n  dup2\n  mload\n  dup2\n  lt\n  tag_11\n  jumpi\n  tag_12\n  tag_13\n  jump\t// in\ntag_12:\ntag_11:\n  0x20\n  mul\n  0x20\n  add\n  add\n  mload\n    /* \"lession3.3-Function/MultiSignatureWallet.sol\":1737:1754  isOwner[users[i]] */\n  0xffffffffffffffffffffffffffffffffffffffff\n  and\n  0xffffffffffffffffffffffffffffffffffffffff\n  and\n  dup2\n  mstore\n  0x20\n  add\n  swap1\n  dup2\n  mstore\n  0x20\n  add\n  0x00\n  keccak256\n  0x00\n    /* \"lession3.3-Function/MultiSignatureWallet.sol\":1737:1761  isOwner[users[i]] = true */\n  0x0100\n  exp\n  dup2\n  sload\n  dup2\n  0xff\n  mul\n  not\n  and\n  swap1\n  dup4\n  iszero\n  iszero\n  mul\n  or\n  swap1\n  sstore\n  pop\n    /* \"lession3.3-Function/MultiSignatureWallet.sol\":1707:1710  i++ */\n  dup1\n  dup1\n  0x01\n  add\n  swap2\n  pop\n  pop\n    /* \"lession3.3-Function/MultiSignatureWallet.sol\":1672:1773  for (uint i = 0; i < users.length; i++) ... */\n  jump(tag_8)\ntag_9:\n  pop\n    /* \"lession3.3-Function/MultiSignatureWallet.sol\":1794:1807  requiredCount */\n  dup1\n    /* \"lession3.3-Function/MultiSignatureWallet.sol\":1783:1791  required */\n  0x01\n    /* \"lession3.3-Function/MultiSignatureWallet.sol\":1783:1807  required = requiredCount */\n  dup2\n  swap1\n  sstore\n  pop\n    /* \"lession3.3-Function/MultiSignatureWallet.sol\":1498:1815  constructor(address[] memory users,uint requiredCount) {... */\n  pop\n  pop\n    /* \"lession3.3-Function/MultiSignatureWallet.sol\":338:4314  contract MultiSignatureWallet {... */\n  jump(tag_14)\n    /* \"#utility.yul\":7:82   */\ntag_15:\n    /* \"#utility.yul\":40:46   */\n  0x00\n    /* \"#utility.yul\":73:75   */\n  0x40\n    /* \"#utility.yul\":67:76   */\n  mload\n    /* \"#utility.yul\":57:76   */\n  swap1\n  pop\n    /* \"#utility.yul\":7:82   */\n  swap1\n  jump\t// out\n    /* \"#utility.yul\":88:205   */\ntag_16:\n    /* \"#utility.yul\":197:198   */\n  0x00\n    /* \"#utility.yul\":194:195   */\n  0x00\n    /* \"#utility.yul\":187:199   */\n  revert\n    /* \"#utility.yul\":211:328   */\ntag_17:\n    /* \"#utility.yul\":320:321   */\n  0x00\n    /* \"#utility.yul\":317:318   */\n  0x00\n    /* \"#utility.yul\":310:322   */\n  revert\n    /* \"#utility.yul\":334:451   */\ntag_18:\n    /* \"#utility.yul\":443:444   */\n  0x00\n    /* \"#utility.yul\":440:441   */\n  0x00\n    /* \"#utility.yul\":433:445   */\n  revert\n    /* \"#utility.yul\":457:559   */\ntag_19:\n    /* \"#utility.yul\":498:504   */\n  0x00\n    /* \"#utility.yul\":549:551   */\n  0x1f\n    /* \"#utility.yul\":545:552   */\n  not\n    /* \"#utility.yul\":540:542   */\n  0x1f\n    /* \"#utility.yul\":533:538   */\n  dup4\n    /* \"#utility.yul\":529:543   */\n  add\n    /* \"#utility.yul\":525:553   */\n  and\n    /* \"#utility.yul\":515:553   */\n  swap1\n  pop\n    /* \"#utility.yul\":457:559   */\n  swap2\n  swap1\n  pop\n  jump\t// out\n    /* \"#utility.yul\":565:745   */\ntag_20:\n    /* \"#utility.yul\":613:690   */\n  0x4e487b7100000000000000000000000000000000000000000000000000000000\n    /* \"#utility.yul\":610:611   */\n  0x00\n    /* \"#utility.yul\":603:691   */\n  mstore\n    /* \"#utility.yul\":710:714   */\n  0x41\n    /* \"#utility.yul\":707:708   */\n  0x04\n    /* \"#utility.yul\":700:715   */\n  mstore\n    /* \"#utility.yul\":734:738   */\n  0x24\n    /* \"#utility.yul\":731:732   */\n  0x00\n    /* \"#utility.yul\":724:739   */\n  revert\n    /* \"#utility.yul\":751:1032   */\ntag_21:\n    /* \"#utility.yul\":834:861   */\n  tag_70\n    /* \"#utility.yul\":856:860   */\n  dup3\n    /* \"#utility.yul\":834:861   */\n  tag_19\n  jump\t// in\ntag_70:\n    /* \"#utility.yul\":826:832   */\n  dup2\n    /* \"#utility.yul\":822:862   */\n  add\n    /* \"#utility.yul\":964:970   */\n  dup2\n    /* \"#utility.yul\":952:962   */\n  dup2\n    /* \"#utility.yul\":949:971   */\n  lt\n    /* \"#utility.yul\":928:946   */\n  0xffffffffffffffff\n    /* \"#utility.yul\":916:926   */\n  dup3\n    /* \"#utility.yul\":913:947   */\n  gt\n    /* \"#utility.yul\":910:972   */\n  or\n    /* \"#utility.yul\":907:995   */\n  iszero\n  tag_71\n  jumpi\n    /* \"#utility.yul\":975:993   */\n  tag_72\n  tag_20\n  jump\t// in\ntag_72:\n    /* \"#utility.yul\":907:995   */\ntag_71:\n    /* \"#utility.yul\":1015:1025   */\n  dup1\n    /* \"#utility.yul\":1011:1013   */\n  0x40\n    /* \"#utility.yul\":1004:1026   */\n  mstore\n    /* \"#utility.yul\":794:1032   */\n  pop\n    /* \"#utility.yul\":751:1032   */\n  pop\n  pop\n  jump\t// out\n    /* \"#utility.yul\":1038:1167   */\ntag_22:\n    /* \"#utility.yul\":1072:1078   */\n  0x00\n    /* \"#utility.yul\":1099:1119   */\n  tag_74\n  tag_15\n  jump\t// in\ntag_74:\n    /* \"#utility.yul\":1089:1119   */\n  swap1\n  pop\n    /* \"#utility.yul\":1128:1161   */\n  tag_75\n    /* \"#utility.yul\":1156:1160   */\n  dup3\n    /* \"#utility.yul\":1148:1154   */\n  dup3\n    /* \"#utility.yul\":1128:1161   */\n  tag_21\n  jump\t// in\ntag_75:\n    /* \"#utility.yul\":1038:1167   */\n  swap2\n  swap1\n  pop\n  jump\t// out\n    /* \"#utility.yul\":1173:1484   */\ntag_23:\n    /* \"#utility.yul\":1250:1254   */\n  0x00\n    /* \"#utility.yul\":1340:1358   */\n  0xffffffffffffffff\n    /* \"#utility.yul\":1332:1338   */\n  dup3\n    /* \"#utility.yul\":1329:1359   */\n  gt\n    /* \"#utility.yul\":1326:1382   */\n  iszero\n  tag_77\n  jumpi\n    /* \"#utility.yul\":1362:1380   */\n  tag_78\n  tag_20\n  jump\t// in\ntag_78:\n    /* \"#utility.yul\":1326:1382   */\ntag_77:\n    /* \"#utility.yul\":1412:1416   */\n  0x20\n    /* \"#utility.yul\":1404:1410   */\n  dup3\n    /* \"#utility.yul\":1400:1417   */\n  mul\n    /* \"#utility.yul\":1392:1417   */\n  swap1\n  pop\n    /* \"#utility.yul\":1472:1476   */\n  0x20\n    /* \"#utility.yul\":1466:1470   */\n  dup2\n    /* \"#utility.yul\":1462:1477   */\n  add\n    /* \"#utility.yul\":1454:1477   */\n  swap1\n  pop\n    /* \"#utility.yul\":1173:1484   */\n  swap2\n  swap1\n  pop\n  jump\t// out\n    /* \"#utility.yul\":1490:1607   */\ntag_24:\n    /* \"#utility.yul\":1599:1600   */\n  0x00\n    /* \"#utility.yul\":1596:1597   */\n  0x00\n    /* \"#utility.yul\":1589:1601   */\n  revert\n    /* \"#utility.yul\":1613:1739   */\ntag_25:\n    /* \"#utility.yul\":1650:1657   */\n  0x00\n    /* \"#utility.yul\":1690:1732   */\n  0xffffffffffffffffffffffffffffffffffffffff\n    /* \"#utility.yul\":1683:1688   */\n  dup3\n    /* \"#utility.yul\":1679:1733   */\n  and\n    /* \"#utility.yul\":1668:1733   */\n  swap1\n  pop\n    /* \"#utility.yul\":1613:1739   */\n  swap2\n  swap1\n  pop\n  jump\t// out\n    /* \"#utility.yul\":1745:1841   */\ntag_26:\n    /* \"#utility.yul\":1782:1789   */\n  0x00\n    /* \"#utility.yul\":1811:1835   */\n  tag_82\n    /* \"#utility.yul\":1829:1834   */\n  dup3\n    /* \"#utility.yul\":1811:1835   */\n  tag_25\n  jump\t// in\ntag_82:\n    /* \"#utility.yul\":1800:1835   */\n  swap1\n  pop\n    /* \"#utility.yul\":1745:1841   */\n  swap2\n  swap1\n  pop\n  jump\t// out\n    /* \"#utility.yul\":1847:1969   */\ntag_27:\n    /* \"#utility.yul\":1920:1944   */\n  tag_84\n    /* \"#utility.yul\":1938:1943   */\n  dup2\n    /* \"#utility.yul\":1920:1944   */\n  tag_26\n  jump\t// in\ntag_84:\n    /* \"#utility.yul\":1913:1918   */\n  dup2\n    /* \"#utility.yul\":1910:1945   */\n  eq\n    /* \"#utility.yul\":1900:1963   */\n  tag_85\n  jumpi\n    /* \"#utility.yul\":1959:1960   */\n  0x00\n    /* \"#utility.yul\":1956:1957   */\n  0x00\n    /* \"#utility.yul\":1949:1961   */\n  revert\n    /* \"#utility.yul\":1900:1963   */\ntag_85:\n    /* \"#utility.yul\":1847:1969   */\n  pop\n  jump\t// out\n    /* \"#utility.yul\":1975:2118   */\ntag_28:\n    /* \"#utility.yul\":2032:2037   */\n  0x00\n    /* \"#utility.yul\":2063:2069   */\n  dup2\n    /* \"#utility.yul\":2057:2070   */\n  mload\n    /* \"#utility.yul\":2048:2070   */\n  swap1\n  pop\n    /* \"#utility.yul\":2079:2112   */\n  tag_87\n    /* \"#utility.yul\":2106:2111   */\n  dup2\n    /* \"#utility.yul\":2079:2112   */\n  tag_27\n  jump\t// in\ntag_87:\n    /* \"#utility.yul\":1975:2118   */\n  swap3\n  swap2\n  pop\n  pop\n  jump\t// out\n    /* \"#utility.yul\":2141:2873   */\ntag_29:\n    /* \"#utility.yul\":2248:2253   */\n  0x00\n    /* \"#utility.yul\":2273:2354   */\n  tag_89\n    /* \"#utility.yul\":2289:2353   */\n  tag_90\n    /* \"#utility.yul\":2346:2352   */\n  dup5\n    /* \"#utility.yul\":2289:2353   */\n  tag_23\n  jump\t// in\ntag_90:\n    /* \"#utility.yul\":2273:2354   */\n  tag_22\n  jump\t// in\ntag_89:\n    /* \"#utility.yul\":2264:2354   */\n  swap1\n  pop\n    /* \"#utility.yul\":2374:2379   */\n  dup1\n    /* \"#utility.yul\":2403:2409   */\n  dup4\n    /* \"#utility.yul\":2396:2401   */\n  dup3\n    /* \"#utility.yul\":2389:2410   */\n  mstore\n    /* \"#utility.yul\":2437:2441   */\n  0x20\n    /* \"#utility.yul\":2430:2435   */\n  dup3\n    /* \"#utility.yul\":2426:2442   */\n  add\n    /* \"#utility.yul\":2419:2442   */\n  swap1\n  pop\n    /* \"#utility.yul\":2490:2494   */\n  0x20\n    /* \"#utility.yul\":2482:2488   */\n  dup5\n    /* \"#utility.yul\":2478:2495   */\n  mul\n    /* \"#utility.yul\":2470:2476   */\n  dup4\n    /* \"#utility.yul\":2466:2496   */\n  add\n    /* \"#utility.yul\":2519:2522   */\n  dup6\n    /* \"#utility.yul\":2511:2517   */\n  dup2\n    /* \"#utility.yul\":2508:2523   */\n  gt\n    /* \"#utility.yul\":2505:2627   */\n  iszero\n  tag_91\n  jumpi\n    /* \"#utility.yul\":2538:2617   */\n  tag_92\n  tag_24\n  jump\t// in\ntag_92:\n    /* \"#utility.yul\":2505:2627   */\ntag_91:\n    /* \"#utility.yul\":2653:2659   */\n  dup4\n    /* \"#utility.yul\":2636:2867   */\ntag_93:\n    /* \"#utility.yul\":2670:2676   */\n  dup2\n    /* \"#utility.yul\":2665:2668   */\n  dup2\n    /* \"#utility.yul\":2662:2677   */\n  lt\n    /* \"#utility.yul\":2636:2867   */\n  iszero\n  tag_95\n  jumpi\n    /* \"#utility.yul\":2745:2748   */\n  dup1\n    /* \"#utility.yul\":2774:2822   */\n  tag_96\n    /* \"#utility.yul\":2818:2821   */\n  dup9\n    /* \"#utility.yul\":2806:2816   */\n  dup3\n    /* \"#utility.yul\":2774:2822   */\n  tag_28\n  jump\t// in\ntag_96:\n    /* \"#utility.yul\":2769:2772   */\n  dup5\n    /* \"#utility.yul\":2762:2823   */\n  mstore\n    /* \"#utility.yul\":2852:2856   */\n  0x20\n    /* \"#utility.yul\":2847:2850   */\n  dup5\n    /* \"#utility.yul\":2843:2857   */\n  add\n    /* \"#utility.yul\":2836:2857   */\n  swap4\n  pop\n    /* \"#utility.yul\":2712:2867   */\n  pop\n    /* \"#utility.yul\":2696:2700   */\n  0x20\n    /* \"#utility.yul\":2691:2694   */\n  dup2\n    /* \"#utility.yul\":2687:2701   */\n  add\n    /* \"#utility.yul\":2680:2701   */\n  swap1\n  pop\n    /* \"#utility.yul\":2636:2867   */\n  jump(tag_93)\ntag_95:\n    /* \"#utility.yul\":2640:2661   */\n  pop\n    /* \"#utility.yul\":2254:2873   */\n  pop\n  pop\n    /* \"#utility.yul\":2141:2873   */\n  swap4\n  swap3\n  pop\n  pop\n  pop\n  jump\t// out\n    /* \"#utility.yul\":2896:3281   */\ntag_30:\n    /* \"#utility.yul\":2978:2983   */\n  0x00\n    /* \"#utility.yul\":3027:3030   */\n  dup3\n    /* \"#utility.yul\":3020:3024   */\n  0x1f\n    /* \"#utility.yul\":3012:3018   */\n  dup4\n    /* \"#utility.yul\":3008:3025   */\n  add\n    /* \"#utility.yul\":3004:3031   */\n  slt\n    /* \"#utility.yul\":2994:3116   */\n  tag_98\n  jumpi\n    /* \"#utility.yul\":3035:3114   */\n  tag_99\n  tag_18\n  jump\t// in\ntag_99:\n    /* \"#utility.yul\":2994:3116   */\ntag_98:\n    /* \"#utility.yul\":3145:3151   */\n  dup2\n    /* \"#utility.yul\":3139:3152   */\n  mload\n    /* \"#utility.yul\":3170:3275   */\n  tag_100\n    /* \"#utility.yul\":3271:3274   */\n  dup5\n    /* \"#utility.yul\":3263:3269   */\n  dup3\n    /* \"#utility.yul\":3256:3260   */\n  0x20\n    /* \"#utility.yul\":3248:3254   */\n  dup7\n    /* \"#utility.yul\":3244:3261   */\n  add\n    /* \"#utility.yul\":3170:3275   */\n  tag_29\n  jump\t// in\ntag_100:\n    /* \"#utility.yul\":3161:3275   */\n  swap2\n  pop\n    /* \"#utility.yul\":2984:3281   */\n  pop\n    /* \"#utility.yul\":2896:3281   */\n  swap3\n  swap2\n  pop\n  pop\n  jump\t// out\n    /* \"#utility.yul\":3287:3364   */\ntag_31:\n    /* \"#utility.yul\":3324:3331   */\n  0x00\n    /* \"#utility.yul\":3353:3358   */\n  dup2\n    /* \"#utility.yul\":3342:3358   */\n  swap1\n  pop\n    /* \"#utility.yul\":3287:3364   */\n  swap2\n  swap1\n  pop\n  jump\t// out\n    /* \"#utility.yul\":3370:3492   */\ntag_32:\n    /* \"#utility.yul\":3443:3467   */\n  tag_103\n    /* \"#utility.yul\":3461:3466   */\n  dup2\n    /* \"#utility.yul\":3443:3467   */\n  tag_31\n  jump\t// in\ntag_103:\n    /* \"#utility.yul\":3436:3441   */\n  dup2\n    /* \"#utility.yul\":3433:3468   */\n  eq\n    /* \"#utility.yul\":3423:3486   */\n  tag_104\n  jumpi\n    /* \"#utility.yul\":3482:3483   */\n  0x00\n    /* \"#utility.yul\":3479:3480   */\n  0x00\n    /* \"#utility.yul\":3472:3484   */\n  revert\n    /* \"#utility.yul\":3423:3486   */\ntag_104:\n    /* \"#utility.yul\":3370:3492   */\n  pop\n  jump\t// out\n    /* \"#utility.yul\":3498:3641   */\ntag_33:\n    /* \"#utility.yul\":3555:3560   */\n  0x00\n    /* \"#utility.yul\":3586:3592   */\n  dup2\n    /* \"#utility.yul\":3580:3593   */\n  mload\n    /* \"#utility.yul\":3571:3593   */\n  swap1\n  pop\n    /* \"#utility.yul\":3602:3635   */\n  tag_106\n    /* \"#utility.yul\":3629:3634   */\n  dup2\n    /* \"#utility.yul\":3602:3635   */\n  tag_32\n  jump\t// in\ntag_106:\n    /* \"#utility.yul\":3498:3641   */\n  swap3\n  swap2\n  pop\n  pop\n  jump\t// out\n    /* \"#utility.yul\":3647:4357   */\ntag_3:\n    /* \"#utility.yul\":3751:3757   */\n  0x00\n    /* \"#utility.yul\":3759:3765   */\n  0x00\n    /* \"#utility.yul\":3808:3810   */\n  0x40\n    /* \"#utility.yul\":3796:3805   */\n  dup4\n    /* \"#utility.yul\":3787:3794   */\n  dup6\n    /* \"#utility.yul\":3783:3806   */\n  sub\n    /* \"#utility.yul\":3779:3811   */\n  slt\n    /* \"#utility.yul\":3776:3895   */\n  iszero\n  tag_108\n  jumpi\n    /* \"#utility.yul\":3814:3893   */\n  tag_109\n  tag_16\n  jump\t// in\ntag_109:\n    /* \"#utility.yul\":3776:3895   */\ntag_108:\n    /* \"#utility.yul\":3955:3956   */\n  0x00\n    /* \"#utility.yul\":3944:3953   */\n  dup4\n    /* \"#utility.yul\":3940:3957   */\n  add\n    /* \"#utility.yul\":3934:3958   */\n  mload\n    /* \"#utility.yul\":3985:4003   */\n  0xffffffffffffffff\n    /* \"#utility.yul\":3977:3983   */\n  dup2\n    /* \"#utility.yul\":3974:4004   */\n  gt\n    /* \"#utility.yul\":3971:4088   */\n  iszero\n  tag_110\n  jumpi\n    /* \"#utility.yul\":4007:4086   */\n  tag_111\n  tag_17\n  jump\t// in\ntag_111:\n    /* \"#utility.yul\":3971:4088   */\ntag_110:\n    /* \"#utility.yul\":4112:4201   */\n  tag_112\n    /* \"#utility.yul\":4193:4200   */\n  dup6\n    /* \"#utility.yul\":4184:4190   */\n  dup3\n    /* \"#utility.yul\":4173:4182   */\n  dup7\n    /* \"#utility.yul\":4169:4191   */\n  add\n    /* \"#utility.yul\":4112:4201   */\n  tag_30\n  jump\t// in\ntag_112:\n    /* \"#utility.yul\":4102:4201   */\n  swap3\n  pop\n    /* \"#utility.yul\":3905:4211   */\n  pop\n    /* \"#utility.yul\":4250:4252   */\n  0x20\n    /* \"#utility.yul\":4276:4340   */\n  tag_113\n    /* \"#utility.yul\":4332:4339   */\n  dup6\n    /* \"#utility.yul\":4323:4329   */\n  dup3\n    /* \"#utility.yul\":4312:4321   */\n  dup7\n    /* \"#utility.yul\":4308:4330   */\n  add\n    /* \"#utility.yul\":4276:4340   */\n  tag_33\n  jump\t// in\ntag_113:\n    /* \"#utility.yul\":4266:4340   */\n  swap2\n  pop\n    /* \"#utility.yul\":4221:4350   */\n  pop\n    /* \"#utility.yul\":3647:4357   */\n  swap3\n  pop\n  swap3\n  swap1\n  pop\n  jump\t// out\n    /* \"#utility.yul\":4363:4474   */\ntag_34:\n    /* \"#utility.yul\":4427:4433   */\n  0x00\n    /* \"#utility.yul\":4461:4466   */\n  dup2\n    /* \"#utility.yul\":4455:4467   */\n  sload\n    /* \"#utility.yul\":4445:4467   */\n  swap1\n  pop\n    /* \"#utility.yul\":4363:4474   */\n  swap2\n  swap1\n  pop\n  jump\t// out\n    /* \"#utility.yul\":5082:5285   */\ntag_37:\n    /* \"#utility.yul\":5163:5167   */\n  0x00\n    /* \"#utility.yul\":5186:5192   */\n  dup2\n    /* \"#utility.yul\":5178:5192   */\n  swap1\n  pop\n    /* \"#utility.yul\":5276:5277   */\n  0x01\n    /* \"#utility.yul\":5271:5272   */\n  dup1\n    /* \"#utility.yul\":5268:5269   */\n  0x01\n    /* \"#utility.yul\":5264:5273   */\n  sub\n    /* \"#utility.yul\":5256:5262   */\n  dup4\n    /* \"#utility.yul\":5252:5274   */\n  add\n    /* \"#utility.yul\":5248:5278   */\n  div\n    /* \"#utility.yul\":5240:5278   */\n  swap1\n  pop\n    /* \"#utility.yul\":5082:5285   */\n  swap2\n  swap1\n  pop\n  jump\t// out\n    /* \"#utility.yul\":5290:5446   */\ntag_38:\n    /* \"#utility.yul\":5354:5358   */\n  0x00\n    /* \"#utility.yul\":5377:5380   */\n  dup2\n    /* \"#utility.yul\":5369:5380   */\n  swap1\n  pop\n    /* \"#utility.yul\":5400:5403   */\n  dup2\n    /* \"#utility.yul\":5397:5398   */\n  0x00\n    /* \"#utility.yul\":5390:5404   */\n  mstore\n    /* \"#utility.yul\":5434:5438   */\n  0x20\n    /* \"#utility.yul\":5431:5432   */\n  0x00\n    /* \"#utility.yul\":5421:5439   */\n  keccak256\n    /* \"#utility.yul\":5413:5439   */\n  swap1\n  pop\n    /* \"#utility.yul\":5290:5446   */\n  swap2\n  swap1\n  pop\n  jump\t// out\n    /* \"#utility.yul\":5452:5559   */\ntag_39:\n    /* \"#utility.yul\":5496:5504   */\n  0x00\n    /* \"#utility.yul\":5546:5551   */\n  dup3\n    /* \"#utility.yul\":5540:5544   */\n  dup3\n    /* \"#utility.yul\":5536:5552   */\n  shl\n    /* \"#utility.yul\":5515:5552   */\n  swap1\n  pop\n    /* \"#utility.yul\":5452:5559   */\n  swap3\n  swap2\n  pop\n  pop\n  jump\t// out\n    /* \"#utility.yul\":5565:5958   */\ntag_40:\n    /* \"#utility.yul\":5634:5640   */\n  0x00\n    /* \"#utility.yul\":5684:5685   */\n  0x08\n    /* \"#utility.yul\":5672:5682   */\n  dup4\n    /* \"#utility.yul\":5668:5686   */\n  mul\n    /* \"#utility.yul\":5707:5804   */\n  tag_126\n    /* \"#utility.yul\":5737:5803   */\n  0xffffffffffffffffffffffffffffffffffffffffffffffffffffffffffffffff\n    /* \"#utility.yul\":5726:5735   */\n  dup3\n    /* \"#utility.yul\":5707:5804   */\n  tag_39\n  jump\t// in\ntag_126:\n    /* \"#utility.yul\":5825:5864   */\n  tag_127\n    /* \"#utility.yul\":5855:5863   */\n  dup7\n    /* \"#utility.yul\":5844:5853   */\n  dup4\n    /* \"#utility.yul\":5825:5864   */\n  tag_39\n  jump\t// in\ntag_127:\n    /* \"#utility.yul\":5813:5864   */\n  swap6\n  pop\n    /* \"#utility.yul\":5897:5901   */\n  dup1\n    /* \"#utility.yul\":5893:5902   */\n  not\n    /* \"#utility.yul\":5886:5891   */\n  dup5\n    /* \"#utility.yul\":5882:5903   */\n  and\n    /* \"#utility.yul\":5873:5903   */\n  swap4\n  pop\n    /* \"#utility.yul\":5946:5950   */\n  dup1\n    /* \"#utility.yul\":5936:5944   */\n  dup7\n    /* \"#utility.yul\":5932:5951   */\n  and\n    /* \"#utility.yul\":5925:5930   */\n  dup5\n    /* \"#utility.yul\":5922:5952   */\n  or\n    /* \"#utility.yul\":5912:5952   */\n  swap3\n  pop\n    /* \"#utility.yul\":5641:5958   */\n  pop\n  pop\n    /* \"#utility.yul\":5565:5958   */\n  swap4\n  swap3\n  pop\n  pop\n  pop\n  jump\t// out\n    /* \"#utility.yul\":5964:6024   */\ntag_41:\n    /* \"#utility.yul\":5992:5995   */\n  0x00\n    /* \"#utility.yul\":6013:6018   */\n  dup2\n    /* \"#utility.yul\":6006:6018   */\n  swap1\n  pop\n    /* \"#utility.yul\":5964:6024   */\n  swap2\n  swap1\n  pop\n  jump\t// out\n    /* \"#utility.yul\":6030:6172   */\ntag_42:\n    /* \"#utility.yul\":6080:6089   */\n  0x00\n    /* \"#utility.yul\":6113:6166   */\n  tag_130\n    /* \"#utility.yul\":6131:6165   */\n  tag_131\n    /* \"#utility.yul\":6140:6164   */\n  tag_132\n    /* \"#utility.yul\":6158:6163   */\n  dup5\n    /* \"#utility.yul\":6140:6164   */\n  tag_31\n  jump\t// in\ntag_132:\n    /* \"#utility.yul\":6131:6165   */\n  tag_41\n  jump\t// in\ntag_131:\n    /* \"#utility.yul\":6113:6166   */\n  tag_31\n  jump\t// in\ntag_130:\n    /* \"#utility.yul\":6100:6166   */\n  swap1\n  pop\n    /* \"#utility.yul\":6030:6172   */\n  swap2\n  swap1\n  pop\n  jump\t// out\n    /* \"#utility.yul\":6178:6253   */\ntag_43:\n    /* \"#utility.yul\":6221:6224   */\n  0x00\n    /* \"#utility.yul\":6242:6247   */\n  dup2\n    /* \"#utility.yul\":6235:6247   */\n  swap1\n  pop\n    /* \"#utility.yul\":6178:6253   */\n  swap2\n  swap1\n  pop\n  jump\t// out\n    /* \"#utility.yul\":6259:6528   */\ntag_44:\n    /* \"#utility.yul\":6369:6408   */\n  tag_135\n    /* \"#utility.yul\":6400:6407   */\n  dup4\n    /* \"#utility.yul\":6369:6408   */\n  tag_42\n  jump\t// in\ntag_135:\n    /* \"#utility.yul\":6430:6521   */\n  tag_136\n    /* \"#utility.yul\":6479:6520   */\n  tag_137\n    /* \"#utility.yul\":6503:6519   */\n  dup3\n    /* \"#utility.yul\":6479:6520   */\n  tag_43\n  jump\t// in\ntag_137:\n    /* \"#utility.yul\":6471:6477   */\n  dup5\n    /* \"#utility.yul\":6464:6468   */\n  dup5\n    /* \"#utility.yul\":6458:6469   */\n  sload\n    /* \"#utility.yul\":6430:6521   */\n  tag_40\n  jump\t// in\ntag_136:\n    /* \"#utility.yul\":6424:6428   */\n  dup3\n    /* \"#utility.yul\":6417:6522   */\n  sstore\n    /* \"#utility.yul\":6335:6528   */\n  pop\n    /* \"#utility.yul\":6259:6528   */\n  pop\n  pop\n  pop\n  jump\t// out\n    /* \"#utility.yul\":6534:6607   */\ntag_45:\n    /* \"#utility.yul\":6579:6582   */\n  0x00\n    /* \"#utility.yul\":6600:6601   */\n  0x00\n    /* \"#utility.yul\":6593:6601   */\n  swap1\n  pop\n    /* \"#utility.yul\":6534:6607   */\n  swap1\n  jump\t// out\n    /* \"#utility.yul\":6613:6802   */\ntag_46:\n    /* \"#utility.yul\":6690:6722   */\n  tag_140\n  tag_45\n  jump\t// in\ntag_140:\n    /* \"#utility.yul\":6731:6796   */\n  tag_141\n    /* \"#utility.yul\":6789:6795   */\n  dup2\n    /* \"#utility.yul\":6781:6787   */\n  dup5\n    /* \"#utility.yul\":6775:6779   */\n  dup5\n    /* \"#utility.yul\":6731:6796   */\n  tag_44\n  jump\t// in\ntag_141:\n    /* \"#utility.yul\":6666:6802   */\n  pop\n    /* \"#utility.yul\":6613:6802   */\n  pop\n  pop\n  jump\t// out\n    /* \"#utility.yul\":6808:7023   */\ntag_47:\n    /* \"#utility.yul\":6894:6895   */\n  0x00\n    /* \"#utility.yul\":6879:7017   */\ntag_143:\n    /* \"#utility.yul\":6904:6913   */\n  dup3\n    /* \"#utility.yul\":6901:6902   */\n  dup2\n    /* \"#utility.yul\":6898:6914   */\n  lt\n    /* \"#utility.yul\":6879:7017   */\n  iszero\n  tag_145\n  jumpi\n    /* \"#utility.yul\":6956:7007   */\n  tag_146\n    /* \"#utility.yul\":7005:7006   */\n  0x00\n    /* \"#utility.yul\":7001:7002   */\n  dup3\n    /* \"#utility.yul\":6990:6999   */\n  dup5\n    /* \"#utility.yul\":6986:7003   */\n  add\n    /* \"#utility.yul\":6956:7007   */\n  tag_46\n  jump\t// in\ntag_146:\n    /* \"#utility.yul\":6929:6930   */\n  0x01\n    /* \"#utility.yul\":6926:6927   */\n  dup2\n    /* \"#utility.yul\":6922:6931   */\n  add\n    /* \"#utility.yul\":6917:6931   */\n  swap1\n  pop\n    /* \"#utility.yul\":6879:7017   */\n  jump(tag_143)\ntag_145:\n    /* \"#utility.yul\":6883:6897   */\n  pop\n    /* \"#utility.yul\":6808:7023   */\n  pop\n  pop\n  jump\t// out\n    /* \"#utility.yul\":7402:8042   */\ntag_50:\n    /* \"#utility.yul\":7522:7525   */\n  dup2\n    /* \"#utility.yul\":7510:7520   */\n  dup4\n    /* \"#utility.yul\":7507:7526   */\n  lt\n    /* \"#utility.yul\":7504:8035   */\n  iszero\n  tag_151\n  jumpi\n    /* \"#utility.yul\":7613:7678   */\n  tag_152\n    /* \"#utility.yul\":7674:7677   */\n  dup3\n    /* \"#utility.yul\":7613:7678   */\n  tag_37\n  jump\t// in\ntag_152:\n    /* \"#utility.yul\":7711:7783   */\n  tag_153\n    /* \"#utility.yul\":7772:7782   */\n  dup5\n    /* \"#utility.yul\":7711:7783   */\n  tag_37\n  jump\t// in\ntag_153:\n    /* \"#utility.yul\":7818:7871   */\n  tag_154\n    /* \"#utility.yul\":7865:7870   */\n  dup4\n    /* \"#utility.yul\":7818:7871   */\n  tag_38\n  jump\t// in\ntag_154:\n    /* \"#utility.yul\":7923:7935   */\n  dup2\n    /* \"#utility.yul\":7907:7921   */\n  dup2\n    /* \"#utility.yul\":7903:7936   */\n  add\n    /* \"#utility.yul\":7950:8025   */\n  tag_155\n    /* \"#utility.yul\":8011:8023   */\n  dup4\n    /* \"#utility.yul\":7997:8009   */\n  dup6\n    /* \"#utility.yul\":7993:8024   */\n  sub\n    /* \"#utility.yul\":7980:7991   */\n  dup3\n    /* \"#utility.yul\":7950:8025   */\n  tag_47\n  jump\t// in\ntag_155:\n    /* \"#utility.yul\":7527:8035   */\n  pop\n  pop\n  pop\n  pop\n    /* \"#utility.yul\":7504:8035   */\ntag_151:\n    /* \"#utility.yul\":7402:8042   */\n  pop\n  pop\n  pop\n  jump\t// out\n    /* \"#utility.yul\":8048:8436   */\ntag_51:\n    /* \"#utility.yul\":8141:8161   */\n  0x010000000000000000\n    /* \"#utility.yul\":8133:8139   */\n  dup3\n    /* \"#utility.yul\":8130:8162   */\n  gt\n    /* \"#utility.yul\":8127:8205   */\n  iszero\n  tag_157\n  jumpi\n    /* \"#utility.yul\":8177:8195   */\n  tag_158\n  tag_20\n  jump\t// in\ntag_158:\n    /* \"#utility.yul\":8127:8205   */\ntag_157:\n    /* \"#utility.yul\":8229:8280   */\n  tag_159\n    /* \"#utility.yul\":8274:8279   */\n  dup2\n    /* \"#utility.yul\":8229:8280   */\n  tag_34\n  jump\t// in\ntag_159:\n    /* \"#utility.yul\":8332:8338   */\n  dup3\n    /* \"#utility.yul\":8325:8330   */\n  dup3\n    /* \"#utility.yul\":8318:8339   */\n  sstore\n    /* \"#utility.yul\":8349:8429   */\n  tag_160\n    /* \"#utility.yul\":8422:8428   */\n  dup4\n    /* \"#utility.yul\":8414:8420   */\n  dup3\n    /* \"#utility.yul\":8407:8412   */\n  dup5\n    /* \"#utility.yul\":8349:8429   */\n  tag_50\n  jump\t// in\ntag_160:\n    /* \"#utility.yul\":8117:8436   */\n  pop\n    /* \"#utility.yul\":8048:8436   */\n  pop\n  pop\n  jump\t// out\n    /* \"#utility.yul\":8441:8555   */\ntag_52:\n    /* \"#utility.yul\":8508:8514   */\n  0x00\n    /* \"#utility.yul\":8542:8547   */\n  dup2\n    /* \"#utility.yul\":8536:8548   */\n  mload\n    /* \"#utility.yul\":8526:8548   */\n  swap1\n  pop\n    /* \"#utility.yul\":8441:8555   */\n  swap2\n  swap1\n  pop\n  jump\t// out\n    /* \"#utility.yul\":8561:8715   */\ntag_53:\n    /* \"#utility.yul\":8604:8615   */\n  0x00\n    /* \"#utility.yul\":8640:8669   */\n  tag_163\n    /* \"#utility.yul\":8664:8667   */\n  dup3\n    /* \"#utility.yul\":8658:8668   */\n  mload\n    /* \"#utility.yul\":8640:8669   */\n  tag_26\n  jump\t// in\ntag_163:\n    /* \"#utility.yul\":8703:8708   */\n  dup1\n    /* \"#utility.yul\":8679:8708   */\n  swap2\n  pop\n    /* \"#utility.yul\":8616:8715   */\n  pop\n    /* \"#utility.yul\":8561:8715   */\n  swap2\n  swap1\n  pop\n  jump\t// out\n    /* \"#utility.yul\":8721:8853   */\ntag_54:\n    /* \"#utility.yul\":8788:8792   */\n  0x00\n    /* \"#utility.yul\":8811:8814   */\n  dup2\n    /* \"#utility.yul\":8803:8814   */\n  swap1\n  pop\n    /* \"#utility.yul\":8841:8845   */\n  0x20\n    /* \"#utility.yul\":8836:8839   */\n  dup3\n    /* \"#utility.yul\":8832:8846   */\n  add\n    /* \"#utility.yul\":8824:8846   */\n  swap1\n  pop\n    /* \"#utility.yul\":8721:8853   */\n  swap2\n  swap1\n  pop\n  jump\t// out\n    /* \"#utility.yul\":9992:10067   */\ntag_61:\n    /* \"#utility.yul\":10035:10038   */\n  0x00\n    /* \"#utility.yul\":10056:10061   */\n  dup2\n    /* \"#utility.yul\":10049:10061   */\n  swap1\n  pop\n    /* \"#utility.yul\":9992:10067   */\n  swap2\n  swap1\n  pop\n  jump\t// out\n    /* \"#utility.yul\":10073:11074   */\ntag_7:\n    /* \"#utility.yul\":10214:10266   */\n  tag_182\n    /* \"#utility.yul\":10262:10265   */\n  dup3\n    /* \"#utility.yul\":10214:10266   */\n  tag_52\n  jump\t// in\ntag_182:\n    /* \"#utility.yul\":10331:10349   */\n  0xffffffffffffffff\n    /* \"#utility.yul\":10323:10329   */\n  dup2\n    /* \"#utility.yul\":10320:10350   */\n  gt\n    /* \"#utility.yul\":10317:10373   */\n  iszero\n  tag_183\n  jumpi\n    /* \"#utility.yul\":10353:10371   */\n  tag_184\n  tag_20\n  jump\t// in\ntag_184:\n    /* \"#utility.yul\":10317:10373   */\ntag_183:\n    /* \"#utility.yul\":10382:10439   */\n  tag_185\n    /* \"#utility.yul\":10432:10438   */\n  dup2\n    /* \"#utility.yul\":10427:10430   */\n  dup4\n    /* \"#utility.yul\":10382:10439   */\n  tag_51\n  jump\t// in\ntag_185:\n    /* \"#utility.yul\":10463:10517   */\n  tag_186\n    /* \"#utility.yul\":10513:10516   */\n  dup4\n    /* \"#utility.yul\":10463:10517   */\n  tag_54\n  jump\t// in\ntag_186:\n    /* \"#utility.yul\":10541:10592   */\n  tag_187\n    /* \"#utility.yul\":10588:10591   */\n  dup4\n    /* \"#utility.yul\":10541:10592   */\n  tag_38\n  jump\t// in\ntag_187:\n    /* \"#utility.yul\":10631:10632   */\n  0x01\n    /* \"#utility.yul\":10623:10629   */\n  dup4\n    /* \"#utility.yul\":10619:10633   */\n  div\n    /* \"#utility.yul\":10658:10659   */\n  0x00\n    /* \"#utility.yul\":10643:11067   */\ntag_188:\n    /* \"#utility.yul\":10668:10677   */\n  dup2\n    /* \"#utility.yul\":10665:10666   */\n  dup2\n    /* \"#utility.yul\":10662:10678   */\n  lt\n    /* \"#utility.yul\":10643:11067   */\n  iszero\n  tag_190\n  jumpi\n    /* \"#utility.yul\":10732:10733   */\n  0x00\n    /* \"#utility.yul\":10785:10818   */\n  tag_191\n    /* \"#utility.yul\":10811:10817   */\n  dup6\n    /* \"#utility.yul\":10785:10818   */\n  tag_53\n  jump\t// in\ntag_191:\n    /* \"#utility.yul\":10853:10889   */\n  tag_192\n    /* \"#utility.yul\":10877:10888   */\n  dup2\n    /* \"#utility.yul\":10853:10889   */\n  tag_61\n  jump\t// in\ntag_192:\n    /* \"#utility.yul\":10939:10948   */\n  dup1\n    /* \"#utility.yul\":10906:10948   */\n  swap3\n  pop\n    /* \"#utility.yul\":10988:10990   */\n  0x20\n    /* \"#utility.yul\":10980:10986   */\n  dup8\n    /* \"#utility.yul\":10976:10991   */\n  add\n    /* \"#utility.yul\":10966:10991   */\n  swap7\n  pop\n    /* \"#utility.yul\":10747:11006   */\n  pop\n  pop\n    /* \"#utility.yul\":11044:11056   */\n  dup1\n    /* \"#utility.yul\":11040:11041   */\n  dup3\n    /* \"#utility.yul\":11031:11038   */\n  dup6\n    /* \"#utility.yul\":11027:11042   */\n  add\n    /* \"#utility.yul\":11020:11057   */\n  sstore\n    /* \"#utility.yul\":10698:11067   */\n  pop\n    /* \"#utility.yul\":10693:10694   */\n  0x01\n    /* \"#utility.yul\":10690:10691   */\n  dup2\n    /* \"#utility.yul\":10686:10695   */\n  add\n    /* \"#utility.yul\":10681:10695   */\n  swap1\n  pop\n    /* \"#utility.yul\":10643:11067   */\n  jump(tag_188)\ntag_190:\n    /* \"#utility.yul\":10647:10661   */\n  pop\n    /* \"#utility.yul\":10189:11074   */\n  pop\n  pop\n  pop\n  pop\n    /* \"#utility.yul\":10073:11074   */\n  pop\n  pop\n  jump\t// out\n    /* \"#utility.yul\":11080:11260   */\ntag_13:\n    /* \"#utility.yul\":11128:11205   */\n  0x4e487b7100000000000000000000000000000000000000000000000000000000\n    /* \"#utility.yul\":11125:11126   */\n  0x00\n    /* \"#utility.yul\":11118:11206   */\n  mstore\n    /* \"#utility.yul\":11225:11229   */\n  0x32\n    /* \"#utility.yul\":11222:11223   */\n  0x04\n    /* \"#utility.yul\":11215:11230   */\n  mstore\n    /* \"#utility.yul\":11249:11253   */\n  0x24\n    /* \"#utility.yul\":11246:11247   */\n  0x00\n    /* \"#utility.yul\":11239:11254   */\n  revert\n    /* \"lession3.3-Function/MultiSignatureWallet.sol\":338:4314  contract MultiSignatureWallet {... */\ntag_14:\n  dataSize(sub_0)\n  dup1\n  dataOffset(sub_0)\n  0x00\n  codecopy\n  0x00\n  return\nstop\n\nsub_0: assembly {\n        /* \"lession3.3-Function/MultiSignatureWallet.sol\":338:4314  contract MultiSignatureWallet {... */\n      mstore(0x40, 0x80)\n      jumpi(tag_1, lt(calldatasize, 0x04))\n      shr(0xe0, calldataload(0x00))\n      dup1\n      0xc01a8c84\n      gt\n      tag_11\n      jumpi\n      dup1\n      0xc01a8c84\n      eq\n      tag_7\n      jumpi\n      dup1\n      0xc6427474\n      eq\n      tag_8\n      jumpi\n      dup1\n      0xdc8452cd\n      eq\n      tag_9\n      jumpi\n      dup1\n      0xee22610b\n      eq\n      tag_10\n      jumpi\n      jump(tag_2)\n    tag_11:\n      dup1\n      0x025e7c27\n      eq\n      tag_3\n      jumpi\n      dup1\n      0x12065fe0\n      eq\n      tag_4\n      jumpi\n      dup1\n      0x9ace38c2\n      eq\n      tag_5\n      jumpi\n      dup1\n      0xb77bf600\n      eq\n      tag_6\n      jumpi\n      jump(tag_2)\n    tag_1:\n      jumpi(tag_2, calldatasize)\n      stop\n    tag_2:\n      revert(0x00, 0x00)\n        /* \"lession3.3-Function/MultiSignatureWallet.sol\":729:752  address[] public owners */\n    tag_3:\n      callvalue\n      dup1\n      iszero\n      tag_14\n      jumpi\n      revert(0x00, 0x00)\n    tag_14:\n      pop\n      tag_15\n      0x04\n      dup1\n      calldatasize\n      sub\n      dup2\n      add\n      swap1\n      tag_16\n      swap2\n      swap1\n      tag_17\n      jump\t// in\n    tag_16:\n      tag_18\n      jump\t// in\n    tag_15:\n      mload(0x40)\n      tag_19\n      swap2\n      swap1\n      tag_20\n      jump\t// in\n    tag_19:\n      mload(0x40)\n      dup1\n      swap2\n      sub\n      swap1\n      return\n        /* \"lession3.3-Function/MultiSignatureWallet.sol\":4177:4273  function getBalance() public view returns (uint) {... */\n    tag_4:\n      callvalue\n      dup1\n      iszero\n      tag_21\n      jumpi\n      revert(0x00, 0x00)\n    tag_21:\n      pop\n      tag_22\n      tag_23\n      jump\t// in\n    tag_22:\n      mload(0x40)\n      tag_24\n      swap2\n      swap1\n      tag_25\n      jump\t// in\n    tag_24:\n      mload(0x40)\n      dup1\n      swap2\n      sub\n      swap1\n      return\n        /* \"lession3.3-Function/MultiSignatureWallet.sol\":981:1030  mapping (uint => Transaction) public transactions */\n    tag_5:\n      callvalue\n      dup1\n      iszero\n      tag_26\n      jumpi\n      revert(0x00, 0x00)\n    tag_26:\n      pop\n      tag_27\n      0x04\n      dup1\n      calldatasize\n      sub\n      dup2\n      add\n      swap1\n      tag_28\n      swap2\n      swap1\n      tag_17\n      jump\t// in\n    tag_28:\n      tag_29\n      jump\t// in\n    tag_27:\n      mload(0x40)\n      tag_30\n      swap6\n      swap5\n      swap4\n      swap3\n      swap2\n      swap1\n      tag_31\n      jump\t// in\n    tag_30:\n      mload(0x40)\n      dup1\n      swap2\n      sub\n      swap1\n      return\n        /* \"lession3.3-Function/MultiSignatureWallet.sol\":919:951  uint public transactionCount = 0 */\n    tag_6:\n      callvalue\n      dup1\n      iszero\n      tag_32\n      jumpi\n      revert(0x00, 0x00)\n    tag_32:\n      pop\n      tag_33\n      tag_34\n      jump\t// in\n    tag_33:\n      mload(0x40)\n      tag_35\n      swap2\n      swap1\n      tag_25\n      jump\t// in\n    tag_35:\n      mload(0x40)\n      dup1\n      swap2\n      sub\n      swap1\n      return\n        /* \"lession3.3-Function/MultiSignatureWallet.sol\":3359:3741  function confirmTransaction(uint txId) public txExists(txId) notExecuted(txId) onlyOwners notConfirmed(txId) {... */\n    tag_7:\n      callvalue\n      dup1\n      iszero\n      tag_36\n      jumpi\n      revert(0x00, 0x00)\n    tag_36:\n      pop\n      tag_37\n      0x04\n      dup1\n      calldatasize\n      sub\n      dup2\n      add\n      swap1\n      tag_38\n      swap2\n      swap1\n      tag_17\n      jump\t// in\n    tag_38:\n      tag_39\n      jump\t// in\n    tag_37:\n      stop\n        /* \"lession3.3-Function/MultiSignatureWallet.sol\":2681:3330  function submitTransaction(address to ,uint amount,bytes calldata data) public isValidAddress(to) onlyOwners {... */\n    tag_8:\n      callvalue\n      dup1\n      iszero\n      tag_40\n      jumpi\n      revert(0x00, 0x00)\n    tag_40:\n      pop\n      tag_41\n      0x04\n      dup1\n      calldatasize\n      sub\n      dup2\n      add\n      swap1\n      tag_42\n      swap2\n      swap1\n      tag_43\n      jump\t// in\n    tag_42:\n      tag_44\n      jump\t// in\n    tag_41:\n      stop\n        /* \"lession3.3-Function/MultiSignatureWallet.sol\":780:800  uint public required */\n    tag_9:\n      callvalue\n      dup1\n      iszero\n      tag_45\n      jumpi\n      revert(0x00, 0x00)\n    tag_45:\n      pop\n      tag_46\n      tag_47\n      jump\t// in\n    tag_46:\n      mload(0x40)\n      tag_48\n      swap2\n      swap1\n      tag_25\n      jump\t// in\n    tag_48:\n      mload(0x40)\n      dup1\n      swap2\n      sub\n      swap1\n      return\n        /* \"lession3.3-Function/MultiSignatureWallet.sol\":3770:4169  function executeTransaction(uint txId) public txExists(txId) notExecuted(txId) onlyOwners {... */\n    tag_10:\n      callvalue\n      dup1\n      iszero\n      tag_49\n      jumpi\n      revert(0x00, 0x00)\n    tag_49:\n      pop\n      tag_50\n      0x04\n      dup1\n      calldatasize\n      sub\n      dup2\n      add\n      swap1\n      tag_51\n      swap2\n      swap1\n      tag_17\n      jump\t// in\n    tag_51:\n      tag_52\n      jump\t// in\n    tag_50:\n      stop\n        /* \"lession3.3-Function/MultiSignatureWallet.sol\":729:752  address[] public owners */\n    tag_18:\n      0x00\n      dup2\n      dup2\n      sload\n      dup2\n      lt\n      tag_53\n      jumpi\n      0x00\n      dup1\n      revert\n    tag_53:\n      swap1\n      0x00\n      mstore\n      keccak256(0x00, 0x20)\n      add\n      0x00\n      swap2\n      pop\n      sload\n      swap1\n      0x0100\n      exp\n      swap1\n      div\n      0xffffffffffffffffffffffffffffffffffffffff\n      and\n      dup2\n      jump\t// out\n        /* \"lession3.3-Function/MultiSignatureWallet.sol\":4177:4273  function getBalance() public view returns (uint) {... */\n    tag_23:\n        /* \"lession3.3-Function/MultiSignatureWallet.sol\":4220:4224  uint */\n      0x00\n        /* \"lession3.3-Function/MultiSignatureWallet.sol\":4244:4265  address(this).balance */\n      selfbalance\n        /* \"lession3.3-Function/MultiSignatureWallet.sol\":4237:4265  return address(this).balance */\n      swap1\n      pop\n        /* \"lession3.3-Function/MultiSignatureWallet.sol\":4177:4273  function getBalance() public view returns (uint) {... */\n      swap1\n      jump\t// out\n        /* \"lession3.3-Function/MultiSignatureWallet.sol\":981:1030  mapping (uint => Transaction) public transactions */\n    tag_29:\n      mstore(0x20, 0x04)\n      dup1\n      0x00\n      mstore\n      keccak256(0x00, 0x40)\n      0x00\n      swap2\n      pop\n      swap1\n      pop\n      dup1\n      0x00\n      add\n      0x00\n      swap1\n      sload\n      swap1\n      0x0100\n      exp\n      swap1\n      div\n      0xffffffffffffffffffffffffffffffffffffffff\n      and\n      swap1\n      dup1\n      0x01\n      add\n      sload\n      swap1\n      dup1\n      0x02\n      add\n      dup1\n      sload\n      tag_56\n      swap1\n      tag_57\n      jump\t// in\n    tag_56:\n      dup1\n      0x1f\n      add\n      0x20\n      dup1\n      swap2\n      div\n      mul\n      0x20\n      add\n      mload(0x40)\n      swap1\n      dup2\n      add\n      0x40\n      mstore\n      dup1\n      swap3\n      swap2\n      swap1\n      dup2\n      dup2\n      mstore\n      0x20\n      add\n      dup3\n      dup1\n      sload\n      tag_58\n      swap1\n      tag_57\n      jump\t// in\n    tag_58:\n      dup1\n      iszero\n      tag_59\n      jumpi\n      dup1\n      0x1f\n      lt\n      tag_60\n      jumpi\n      0x0100\n      dup1\n      dup4\n      sload\n      div\n      mul\n      dup4\n      mstore\n      swap2\n      0x20\n      add\n      swap2\n      jump(tag_59)\n    tag_60:\n      dup3\n      add\n      swap2\n      swap1\n      0x00\n      mstore\n      keccak256(0x00, 0x20)\n      swap1\n    tag_61:\n      dup2\n      sload\n      dup2\n      mstore\n      swap1\n      0x01\n      add\n      swap1\n      0x20\n      add\n      dup1\n      dup4\n      gt\n      tag_61\n      jumpi\n      dup3\n      swap1\n      sub\n      0x1f\n      and\n      dup3\n      add\n      swap2\n    tag_59:\n      pop\n      pop\n      pop\n      pop\n      pop\n      swap1\n      dup1\n      0x03\n      add\n      0x00\n      swap1\n      sload\n      swap1\n      0x0100\n      exp\n      swap1\n      div\n      0xff\n      and\n      swap1\n      dup1\n      0x04\n      add\n      sload\n      swap1\n      pop\n      dup6\n      jump\t// out\n        /* \"lession3.3-Function/MultiSignatureWallet.sol\":919:951  uint public transactionCount = 0 */\n    tag_34:\n      sload(0x03)\n      dup2\n      jump\t// out\n        /* \"lession3.3-Function/MultiSignatureWallet.sol\":3359:3741  function confirmTransaction(uint txId) public txExists(txId) notExecuted(txId) onlyOwners notConfirmed(txId) {... */\n    tag_39:\n        /* \"lession3.3-Function/MultiSignatureWallet.sol\":3414:3418  txId */\n      dup1\n        /* \"lession3.3-Function/MultiSignatureWallet.sol\":2075:2091  transactionCount */\n      sload(0x03)\n        /* \"lession3.3-Function/MultiSignatureWallet.sol\":2067:2071  txId */\n      dup2\n        /* \"lession3.3-Function/MultiSignatureWallet.sol\":2067:2091  txId <= transactionCount */\n      gt\n      iszero\n        /* \"lession3.3-Function/MultiSignatureWallet.sol\":2059:2118  require(txId <= transactionCount, \"Transaction not exist!\") */\n      tag_63\n      jumpi\n      mload(0x40)\n      0x08c379a000000000000000000000000000000000000000000000000000000000\n      dup2\n      mstore\n      0x04\n      add\n      tag_64\n      swap1\n      tag_65\n      jump\t// in\n    tag_64:\n      mload(0x40)\n      dup1\n      swap2\n      sub\n      swap1\n      revert\n    tag_63:\n        /* \"lession3.3-Function/MultiSignatureWallet.sol\":3432:3436  txId */\n      dup2\n        /* \"lession3.3-Function/MultiSignatureWallet.sol\":2228:2240  transactions */\n      0x04\n        /* \"lession3.3-Function/MultiSignatureWallet.sol\":2228:2246  transactions[txId] */\n      0x00\n        /* \"lession3.3-Function/MultiSignatureWallet.sol\":2241:2245  txId */\n      dup3\n        /* \"lession3.3-Function/MultiSignatureWallet.sol\":2228:2246  transactions[txId] */\n      dup2\n      mstore\n      0x20\n      add\n      swap1\n      dup2\n      mstore\n      0x20\n      add\n      0x00\n      keccak256\n        /* \"lession3.3-Function/MultiSignatureWallet.sol\":2228:2255  transactions[txId].executed */\n      0x03\n      add\n      0x00\n      swap1\n      sload\n      swap1\n      0x0100\n      exp\n      swap1\n      div\n      0xff\n      and\n        /* \"lession3.3-Function/MultiSignatureWallet.sol\":2227:2255  !transactions[txId].executed */\n      iszero\n        /* \"lession3.3-Function/MultiSignatureWallet.sol\":2219:2281  require(!transactions[txId].executed, \"Transaction executed!\") */\n      tag_67\n      jumpi\n      mload(0x40)\n      0x08c379a000000000000000000000000000000000000000000000000000000000\n      dup2\n      mstore\n      0x04\n      add\n      tag_68\n      swap1\n      tag_69\n      jump\t// in\n    tag_68:\n      mload(0x40)\n      dup1\n      swap2\n      sub\n      swap1\n      revert\n    tag_67:\n        /* \"lession3.3-Function/MultiSignatureWallet.sol\":1914:1921  isOwner */\n      0x02\n        /* \"lession3.3-Function/MultiSignatureWallet.sol\":1914:1933  isOwner[msg.sender] */\n      0x00\n        /* \"lession3.3-Function/MultiSignatureWallet.sol\":1922:1932  msg.sender */\n      caller\n        /* \"lession3.3-Function/MultiSignatureWallet.sol\":1914:1933  isOwner[msg.sender] */\n      0xffffffffffffffffffffffffffffffffffffffff\n      and\n      0xffffffffffffffffffffffffffffffffffffffff\n      and\n      dup2\n      mstore\n      0x20\n      add\n      swap1\n      dup2\n      mstore\n      0x20\n      add\n      0x00\n      keccak256\n      0x00\n      swap1\n      sload\n      swap1\n      0x0100\n      exp\n      swap1\n      div\n      0xff\n      and\n        /* \"lession3.3-Function/MultiSignatureWallet.sol\":1906:1958  require(isOwner[msg.sender], \"Only owers can call!\") */\n      tag_71\n      jumpi\n      mload(0x40)\n      0x08c379a000000000000000000000000000000000000000000000000000000000\n      dup2\n      mstore\n      0x04\n      add\n      tag_72\n      swap1\n      tag_73\n      jump\t// in\n    tag_72:\n      mload(0x40)\n      dup1\n      swap2\n      sub\n      swap1\n      revert\n    tag_71:\n        /* \"lession3.3-Function/MultiSignatureWallet.sol\":3462:3466  txId */\n      dup3\n        /* \"lession3.3-Function/MultiSignatureWallet.sol\":2406:2419  confirmations */\n      0x05\n        /* \"lession3.3-Function/MultiSignatureWallet.sol\":2406:2425  confirmations[txId] */\n      0x00\n        /* \"lession3.3-Function/MultiSignatureWallet.sol\":2420:2424  txId */\n      dup3\n        /* \"lession3.3-Function/MultiSignatureWallet.sol\":2406:2425  confirmations[txId] */\n      dup2\n      mstore\n      0x20\n      add\n      swap1\n      dup2\n      mstore\n      0x20\n      add\n      0x00\n      keccak256\n        /* \"lession3.3-Function/MultiSignatureWallet.sol\":2406:2437  confirmations[txId][msg.sender] */\n      0x00\n        /* \"lession3.3-Function/MultiSignatureWallet.sol\":2426:2436  msg.sender */\n      caller\n        /* \"lession3.3-Function/MultiSignatureWallet.sol\":2406:2437  confirmations[txId][msg.sender] */\n      0xffffffffffffffffffffffffffffffffffffffff\n      and\n      0xffffffffffffffffffffffffffffffffffffffff\n      and\n      dup2\n      mstore\n      0x20\n      add\n      swap1\n      dup2\n      mstore\n      0x20\n      add\n      0x00\n      keccak256\n      0x00\n      swap1\n      sload\n      swap1\n      0x0100\n      exp\n      swap1\n      div\n      0xff\n      and\n        /* \"lession3.3-Function/MultiSignatureWallet.sol\":2405:2437  !confirmations[txId][msg.sender] */\n      iszero\n        /* \"lession3.3-Function/MultiSignatureWallet.sol\":2397:2460  require(!confirmations[txId][msg.sender], \"Already confirmed!\") */\n      tag_75\n      jumpi\n      mload(0x40)\n      0x08c379a000000000000000000000000000000000000000000000000000000000\n      dup2\n      mstore\n      0x04\n      add\n      tag_76\n      swap1\n      tag_77\n      jump\t// in\n    tag_76:\n      mload(0x40)\n      dup1\n      swap2\n      sub\n      swap1\n      revert\n    tag_75:\n        /* \"lession3.3-Function/MultiSignatureWallet.sol\":3479:3491  transactions */\n      0x04\n        /* \"lession3.3-Function/MultiSignatureWallet.sol\":3479:3497  transactions[txId] */\n      0x00\n        /* \"lession3.3-Function/MultiSignatureWallet.sol\":3492:3496  txId */\n      dup6\n        /* \"lession3.3-Function/MultiSignatureWallet.sol\":3479:3497  transactions[txId] */\n      dup2\n      mstore\n      0x20\n      add\n      swap1\n      dup2\n      mstore\n      0x20\n      add\n      0x00\n      keccak256\n        /* \"lession3.3-Function/MultiSignatureWallet.sol\":3479:3510  transactions[txId].confirmCount */\n      0x04\n      add\n      0x00\n        /* \"lession3.3-Function/MultiSignatureWallet.sol\":3479:3512  transactions[txId].confirmCount++ */\n      dup2\n      sload\n      dup1\n      swap3\n      swap2\n      swap1\n      tag_79\n      swap1\n      tag_80\n      jump\t// in\n    tag_79:\n      swap2\n      swap1\n      pop\n      sstore\n      pop\n        /* \"lession3.3-Function/MultiSignatureWallet.sol\":3557:3561  true */\n      0x01\n        /* \"lession3.3-Function/MultiSignatureWallet.sol\":3523:3536  confirmations */\n      0x05\n        /* \"lession3.3-Function/MultiSignatureWallet.sol\":3523:3542  confirmations[txId] */\n      0x00\n        /* \"lession3.3-Function/MultiSignatureWallet.sol\":3537:3541  txId */\n      dup7\n        /* \"lession3.3-Function/MultiSignatureWallet.sol\":3523:3542  confirmations[txId] */\n      dup2\n      mstore\n      0x20\n      add\n      swap1\n      dup2\n      mstore\n      0x20\n      add\n      0x00\n      keccak256\n        /* \"lession3.3-Function/MultiSignatureWallet.sol\":3523:3554  confirmations[txId][msg.sender] */\n      0x00\n        /* \"lession3.3-Function/MultiSignatureWallet.sol\":3543:3553  msg.sender */\n      caller\n        /* \"lession3.3-Function/MultiSignatureWallet.sol\":3523:3554  confirmations[txId][msg.sender] */\n      0xffffffffffffffffffffffffffffffffffffffff\n      and\n      0xffffffffffffffffffffffffffffffffffffffff\n      and\n      dup2\n      mstore\n      0x20\n      add\n      swap1\n      dup2\n      mstore\n      0x20\n      add\n      0x00\n      keccak256\n      0x00\n        /* \"lession3.3-Function/MultiSignatureWallet.sol\":3523:3561  confirmations[txId][msg.sender] = true */\n      0x0100\n      exp\n      dup2\n      sload\n      dup2\n      0xff\n      mul\n      not\n      and\n      swap1\n      dup4\n      iszero\n      iszero\n      mul\n      or\n      swap1\n      sstore\n      pop\n        /* \"lession3.3-Function/MultiSignatureWallet.sol\":3611:3619  required */\n      sload(0x01)\n        /* \"lession3.3-Function/MultiSignatureWallet.sol\":3576:3588  transactions */\n      0x04\n        /* \"lession3.3-Function/MultiSignatureWallet.sol\":3576:3594  transactions[txId] */\n      0x00\n        /* \"lession3.3-Function/MultiSignatureWallet.sol\":3589:3593  txId */\n      dup7\n        /* \"lession3.3-Function/MultiSignatureWallet.sol\":3576:3594  transactions[txId] */\n      dup2\n      mstore\n      0x20\n      add\n      swap1\n      dup2\n      mstore\n      0x20\n      add\n      0x00\n      keccak256\n        /* \"lession3.3-Function/MultiSignatureWallet.sol\":3576:3607  transactions[txId].confirmCount */\n      0x04\n      add\n      sload\n        /* \"lession3.3-Function/MultiSignatureWallet.sol\":3576:3619  transactions[txId].confirmCount >= required */\n      lt\n        /* \"lession3.3-Function/MultiSignatureWallet.sol\":3572:3677  if (transactions[txId].confirmCount >= required) {... */\n      tag_81\n      jumpi\n        /* \"lession3.3-Function/MultiSignatureWallet.sol\":3641:3665  ReachRequiredCount(txId) */\n      0xc08ee165f89bdd562bdd9a5bdbc1ecfad110bd844dc4541aa2a46b4f8e637794\n        /* \"lession3.3-Function/MultiSignatureWallet.sol\":3660:3664  txId */\n      dup5\n        /* \"lession3.3-Function/MultiSignatureWallet.sol\":3641:3665  ReachRequiredCount(txId) */\n      mload(0x40)\n      tag_82\n      swap2\n      swap1\n      tag_25\n      jump\t// in\n    tag_82:\n      mload(0x40)\n      dup1\n      swap2\n      sub\n      swap1\n      log1\n        /* \"lession3.3-Function/MultiSignatureWallet.sol\":3572:3677  if (transactions[txId].confirmCount >= required) {... */\n    tag_81:\n        /* \"lession3.3-Function/MultiSignatureWallet.sol\":3716:3726  msg.sender */\n      caller\n        /* \"lession3.3-Function/MultiSignatureWallet.sol\":3692:3733  OwnerConfirmTransaction(msg.sender, txId) */\n      0xffffffffffffffffffffffffffffffffffffffff\n      and\n      0xb19038bc393a1b27cedea6e0d1016fe2d8ffbe0451bc4dbfed32eb1c19ab3522\n        /* \"lession3.3-Function/MultiSignatureWallet.sol\":3728:3732  txId */\n      dup6\n        /* \"lession3.3-Function/MultiSignatureWallet.sol\":3692:3733  OwnerConfirmTransaction(msg.sender, txId) */\n      mload(0x40)\n      tag_83\n      swap2\n      swap1\n      tag_25\n      jump\t// in\n    tag_83:\n      mload(0x40)\n      dup1\n      swap2\n      sub\n      swap1\n      log2\n        /* \"lession3.3-Function/MultiSignatureWallet.sol\":1969:1970  _ */\n      pop\n        /* \"lession3.3-Function/MultiSignatureWallet.sol\":2129:2130  _ */\n      pop\n        /* \"lession3.3-Function/MultiSignatureWallet.sol\":3359:3741  function confirmTransaction(uint txId) public txExists(txId) notExecuted(txId) onlyOwners notConfirmed(txId) {... */\n      pop\n      pop\n      jump\t// out\n        /* \"lession3.3-Function/MultiSignatureWallet.sol\":2681:3330  function submitTransaction(address to ,uint amount,bytes calldata data) public isValidAddress(to) onlyOwners {... */\n    tag_44:\n        /* \"lession3.3-Function/MultiSignatureWallet.sol\":2775:2777  to */\n      dup4\n        /* \"lession3.3-Function/MultiSignatureWallet.sol\":2600:2601  0 */\n      0x00\n        /* \"lession3.3-Function/MultiSignatureWallet.sol\":2584:2602  user != address(0) */\n      0xffffffffffffffffffffffffffffffffffffffff\n      and\n        /* \"lession3.3-Function/MultiSignatureWallet.sol\":2584:2588  user */\n      dup2\n        /* \"lession3.3-Function/MultiSignatureWallet.sol\":2584:2602  user != address(0) */\n      0xffffffffffffffffffffffffffffffffffffffff\n      and\n      sub\n        /* \"lession3.3-Function/MultiSignatureWallet.sol\":2576:2623  require(user != address(0), \"Invalid address!\") */\n      tag_85\n      jumpi\n      mload(0x40)\n      0x08c379a000000000000000000000000000000000000000000000000000000000\n      dup2\n      mstore\n      0x04\n      add\n      tag_86\n      swap1\n      tag_87\n      jump\t// in\n    tag_86:\n      mload(0x40)\n      dup1\n      swap2\n      sub\n      swap1\n      revert\n    tag_85:\n        /* \"lession3.3-Function/MultiSignatureWallet.sol\":1914:1921  isOwner */\n      0x02\n        /* \"lession3.3-Function/MultiSignatureWallet.sol\":1914:1933  isOwner[msg.sender] */\n      0x00\n        /* \"lession3.3-Function/MultiSignatureWallet.sol\":1922:1932  msg.sender */\n      caller\n        /* \"lession3.3-Function/MultiSignatureWallet.sol\":1914:1933  isOwner[msg.sender] */\n      0xffffffffffffffffffffffffffffffffffffffff\n      and\n      0xffffffffffffffffffffffffffffffffffffffff\n      and\n      dup2\n      mstore\n      0x20\n      add\n      swap1\n      dup2\n      mstore\n      0x20\n      add\n      0x00\n      keccak256\n      0x00\n      swap1\n      sload\n      swap1\n      0x0100\n      exp\n      swap1\n      div\n      0xff\n      and\n        /* \"lession3.3-Function/MultiSignatureWallet.sol\":1906:1958  require(isOwner[msg.sender], \"Only owers can call!\") */\n      tag_89\n      jumpi\n      mload(0x40)\n      0x08c379a000000000000000000000000000000000000000000000000000000000\n      dup2\n      mstore\n      0x04\n      add\n      tag_90\n      swap1\n      tag_73\n      jump\t// in\n    tag_90:\n      mload(0x40)\n      dup1\n      swap2\n      sub\n      swap1\n      revert\n    tag_89:\n        /* \"lession3.3-Function/MultiSignatureWallet.sol\":2801:2817  transactionCount */\n      0x03\n      0x00\n        /* \"lession3.3-Function/MultiSignatureWallet.sol\":2801:2819  transactionCount++ */\n      dup2\n      sload\n      dup1\n      swap3\n      swap2\n      swap1\n      tag_92\n      swap1\n      tag_80\n      jump\t// in\n    tag_92:\n      swap2\n      swap1\n      pop\n      sstore\n      pop\n        /* \"lession3.3-Function/MultiSignatureWallet.sol\":2830:2851  Transaction memory ts */\n      0x00\n        /* \"lession3.3-Function/MultiSignatureWallet.sol\":2854:3029  Transaction({... */\n      mload(0x40)\n      dup1\n      0xa0\n      add\n      0x40\n      mstore\n      dup1\n        /* \"lession3.3-Function/MultiSignatureWallet.sol\":2885:2887  to */\n      dup8\n        /* \"lession3.3-Function/MultiSignatureWallet.sol\":2854:3029  Transaction({... */\n      0xffffffffffffffffffffffffffffffffffffffff\n      and\n      dup2\n      mstore\n      0x20\n      add\n        /* \"lession3.3-Function/MultiSignatureWallet.sol\":2910:2916  amount */\n      dup7\n        /* \"lession3.3-Function/MultiSignatureWallet.sol\":2854:3029  Transaction({... */\n      dup2\n      mstore\n      0x20\n      add\n        /* \"lession3.3-Function/MultiSignatureWallet.sol\":2968:2972  data */\n      dup6\n      dup6\n        /* \"lession3.3-Function/MultiSignatureWallet.sol\":2854:3029  Transaction({... */\n      dup1\n      dup1\n      0x1f\n      add\n      0x20\n      dup1\n      swap2\n      div\n      mul\n      0x20\n      add\n      mload(0x40)\n      swap1\n      dup2\n      add\n      0x40\n      mstore\n      dup1\n      swap4\n      swap3\n      swap2\n      swap1\n      dup2\n      dup2\n      mstore\n      0x20\n      add\n      dup4\n      dup4\n      dup1\n      dup3\n      dup5\n      calldatacopy\n      0x00\n      dup2\n      dup5\n      add\n      mstore\n      not(0x1f)\n      0x1f\n      dup3\n      add\n      and\n      swap1\n      pop\n      dup1\n      dup4\n      add\n      swap3\n      pop\n      pop\n      pop\n      pop\n      pop\n      pop\n      pop\n      dup2\n      mstore\n      0x20\n      add\n        /* \"lession3.3-Function/MultiSignatureWallet.sol\":2942:2947  false */\n      0x00\n        /* \"lession3.3-Function/MultiSignatureWallet.sol\":2854:3029  Transaction({... */\n      iszero\n      iszero\n      dup2\n      mstore\n      0x20\n      add\n        /* \"lession3.3-Function/MultiSignatureWallet.sol\":3001:3017  transactionCount */\n      sload(0x03)\n        /* \"lession3.3-Function/MultiSignatureWallet.sol\":2854:3029  Transaction({... */\n      dup2\n      mstore\n      pop\n        /* \"lession3.3-Function/MultiSignatureWallet.sol\":2830:3029  Transaction memory ts = Transaction({... */\n      swap1\n      pop\n        /* \"lession3.3-Function/MultiSignatureWallet.sol\":3075:3077  ts */\n      dup1\n        /* \"lession3.3-Function/MultiSignatureWallet.sol\":3042:3054  transactions */\n      0x04\n        /* \"lession3.3-Function/MultiSignatureWallet.sol\":3042:3072  transactions[transactionCount] */\n      0x00\n        /* \"lession3.3-Function/MultiSignatureWallet.sol\":3055:3071  transactionCount */\n      sload(0x03)\n        /* \"lession3.3-Function/MultiSignatureWallet.sol\":3042:3072  transactions[transactionCount] */\n      dup2\n      mstore\n      0x20\n      add\n      swap1\n      dup2\n      mstore\n      0x20\n      add\n      0x00\n      keccak256\n        /* \"lession3.3-Function/MultiSignatureWallet.sol\":3042:3077  transactions[transactionCount] = ts */\n      0x00\n      dup3\n      add\n      mload\n      dup2\n      0x00\n      add\n      exp(0x0100, 0x00)\n      dup2\n      sload\n      dup2\n      0xffffffffffffffffffffffffffffffffffffffff\n      mul\n      not\n      and\n      swap1\n      dup4\n      0xffffffffffffffffffffffffffffffffffffffff\n      and\n      mul\n      or\n      swap1\n      sstore\n      pop\n      0x20\n      dup3\n      add\n      mload\n      dup2\n      0x01\n      add\n      sstore\n      0x40\n      dup3\n      add\n      mload\n      dup2\n      0x02\n      add\n      swap1\n      dup2\n      tag_93\n      swap2\n      swap1\n      tag_94\n      jump\t// in\n    tag_93:\n      pop\n      0x60\n      dup3\n      add\n      mload\n      dup2\n      0x03\n      add\n      exp(0x0100, 0x00)\n      dup2\n      sload\n      dup2\n      0xff\n      mul\n      not\n      and\n      swap1\n      dup4\n      iszero\n      iszero\n      mul\n      or\n      swap1\n      sstore\n      pop\n      0x80\n      dup3\n      add\n      mload\n      dup2\n      0x04\n      add\n      sstore\n      swap1\n      pop\n      pop\n        /* \"lession3.3-Function/MultiSignatureWallet.sol\":3130:3136  uint i */\n      0x00\n        /* \"lession3.3-Function/MultiSignatureWallet.sol\":3139:3140  0 */\n      0x00\n        /* \"lession3.3-Function/MultiSignatureWallet.sol\":3130:3140  uint i = 0 */\n      swap1\n      pop\n        /* \"lession3.3-Function/MultiSignatureWallet.sol\":3125:3253  for (uint i = 0; i < owners.length; i++) ... */\n    tag_95:\n        /* \"lession3.3-Function/MultiSignatureWallet.sol\":3146:3152  owners */\n      0x00\n        /* \"lession3.3-Function/MultiSignatureWallet.sol\":3146:3159  owners.length */\n      dup1\n      sload\n      swap1\n      pop\n        /* \"lession3.3-Function/MultiSignatureWallet.sol\":3142:3143  i */\n      dup2\n        /* \"lession3.3-Function/MultiSignatureWallet.sol\":3142:3159  i < owners.length */\n      lt\n        /* \"lession3.3-Function/MultiSignatureWallet.sol\":3125:3253  for (uint i = 0; i < owners.length; i++) ... */\n      iszero\n      tag_96\n      jumpi\n        /* \"lession3.3-Function/MultiSignatureWallet.sol\":3236:3241  false */\n      0x00\n        /* \"lession3.3-Function/MultiSignatureWallet.sol\":3191:3204  confirmations */\n      0x05\n        /* \"lession3.3-Function/MultiSignatureWallet.sol\":3191:3222  confirmations[transactionCount] */\n      0x00\n        /* \"lession3.3-Function/MultiSignatureWallet.sol\":3205:3221  transactionCount */\n      sload(0x03)\n        /* \"lession3.3-Function/MultiSignatureWallet.sol\":3191:3222  confirmations[transactionCount] */\n      dup2\n      mstore\n      0x20\n      add\n      swap1\n      dup2\n      mstore\n      0x20\n      add\n      0x00\n      keccak256\n        /* \"lession3.3-Function/MultiSignatureWallet.sol\":3191:3233  confirmations[transactionCount][owners[i]] */\n      0x00\n        /* \"lession3.3-Function/MultiSignatureWallet.sol\":3223:3229  owners */\n      0x00\n        /* \"lession3.3-Function/MultiSignatureWallet.sol\":3230:3231  i */\n      dup5\n        /* \"lession3.3-Function/MultiSignatureWallet.sol\":3223:3232  owners[i] */\n      dup2\n      sload\n      dup2\n      lt\n      tag_98\n      jumpi\n      tag_99\n      tag_100\n      jump\t// in\n    tag_99:\n    tag_98:\n      swap1\n      0x00\n      mstore\n      keccak256(0x00, 0x20)\n      add\n      0x00\n      swap1\n      sload\n      swap1\n      0x0100\n      exp\n      swap1\n      div\n      0xffffffffffffffffffffffffffffffffffffffff\n      and\n        /* \"lession3.3-Function/MultiSignatureWallet.sol\":3191:3233  confirmations[transactionCount][owners[i]] */\n      0xffffffffffffffffffffffffffffffffffffffff\n      and\n      0xffffffffffffffffffffffffffffffffffffffff\n      and\n      dup2\n      mstore\n      0x20\n      add\n      swap1\n      dup2\n      mstore\n      0x20\n      add\n      0x00\n      keccak256\n      0x00\n        /* \"lession3.3-Function/MultiSignatureWallet.sol\":3191:3241  confirmations[transactionCount][owners[i]] = false */\n      0x0100\n      exp\n      dup2\n      sload\n      dup2\n      0xff\n      mul\n      not\n      and\n      swap1\n      dup4\n      iszero\n      iszero\n      mul\n      or\n      swap1\n      sstore\n      pop\n        /* \"lession3.3-Function/MultiSignatureWallet.sol\":3161:3164  i++ */\n      dup1\n      dup1\n      0x01\n      add\n      swap2\n      pop\n      pop\n        /* \"lession3.3-Function/MultiSignatureWallet.sol\":3125:3253  for (uint i = 0; i < owners.length; i++) ... */\n      jump(tag_95)\n    tag_96:\n      pop\n        /* \"lession3.3-Function/MultiSignatureWallet.sol\":3293:3303  msg.sender */\n      caller\n        /* \"lession3.3-Function/MultiSignatureWallet.sol\":3270:3322  OwnerSubmitTransaction(msg.sender, transactionCount) */\n      0xffffffffffffffffffffffffffffffffffffffff\n      and\n      0xad9081d39974d3c3f66e3f1c87a1e97e9f64aaa7f821196885cc8acf00d799db\n        /* \"lession3.3-Function/MultiSignatureWallet.sol\":3305:3321  transactionCount */\n      sload(0x03)\n        /* \"lession3.3-Function/MultiSignatureWallet.sol\":3270:3322  OwnerSubmitTransaction(msg.sender, transactionCount) */\n      mload(0x40)\n      tag_102\n      swap2\n      swap1\n      tag_25\n      jump\t// in\n    tag_102:\n      mload(0x40)\n      dup1\n      swap2\n      sub\n      swap1\n      log2\n        /* \"lession3.3-Function/MultiSignatureWallet.sol\":2790:3330  {... */\n      pop\n        /* \"lession3.3-Function/MultiSignatureWallet.sol\":2681:3330  function submitTransaction(address to ,uint amount,bytes calldata data) public isValidAddress(to) onlyOwners {... */\n      pop\n      pop\n      pop\n      pop\n      pop\n      jump\t// out\n        /* \"lession3.3-Function/MultiSignatureWallet.sol\":780:800  uint public required */\n    tag_47:\n      sload(0x01)\n      dup2\n      jump\t// out\n        /* \"lession3.3-Function/MultiSignatureWallet.sol\":3770:4169  function executeTransaction(uint txId) public txExists(txId) notExecuted(txId) onlyOwners {... */\n    tag_52:\n        /* \"lession3.3-Function/MultiSignatureWallet.sol\":3825:3829  txId */\n      dup1\n        /* \"lession3.3-Function/MultiSignatureWallet.sol\":2075:2091  transactionCount */\n      sload(0x03)\n        /* \"lession3.3-Function/MultiSignatureWallet.sol\":2067:2071  txId */\n      dup2\n        /* \"lession3.3-Function/MultiSignatureWallet.sol\":2067:2091  txId <= transactionCount */\n      gt\n      iszero\n        /* \"lession3.3-Function/MultiSignatureWallet.sol\":2059:2118  require(txId <= transactionCount, \"Transaction not exist!\") */\n      tag_104\n      jumpi\n      mload(0x40)\n      0x08c379a000000000000000000000000000000000000000000000000000000000\n      dup2\n      mstore\n      0x04\n      add\n      tag_105\n      swap1\n      tag_65\n      jump\t// in\n    tag_105:\n      mload(0x40)\n      dup1\n      swap2\n      sub\n      swap1\n      revert\n    tag_104:\n        /* \"lession3.3-Function/MultiSignatureWallet.sol\":3843:3847  txId */\n      dup2\n        /* \"lession3.3-Function/MultiSignatureWallet.sol\":2228:2240  transactions */\n      0x04\n        /* \"lession3.3-Function/MultiSignatureWallet.sol\":2228:2246  transactions[txId] */\n      0x00\n        /* \"lession3.3-Function/MultiSignatureWallet.sol\":2241:2245  txId */\n      dup3\n        /* \"lession3.3-Function/MultiSignatureWallet.sol\":2228:2246  transactions[txId] */\n      dup2\n      mstore\n      0x20\n      add\n      swap1\n      dup2\n      mstore\n      0x20\n      add\n      0x00\n      keccak256\n        /* \"lession3.3-Function/MultiSignatureWallet.sol\":2228:2255  transactions[txId].executed */\n      0x03\n      add\n      0x00\n      swap1\n      sload\n      swap1\n      0x0100\n      exp\n      swap1\n      div\n      0xff\n      and\n        /* \"lession3.3-Function/MultiSignatureWallet.sol\":2227:2255  !transactions[txId].executed */\n      iszero\n        /* \"lession3.3-Function/MultiSignatureWallet.sol\":2219:2281  require(!transactions[txId].executed, \"Transaction executed!\") */\n      tag_107\n      jumpi\n      mload(0x40)\n      0x08c379a000000000000000000000000000000000000000000000000000000000\n      dup2\n      mstore\n      0x04\n      add\n      tag_108\n      swap1\n      tag_69\n      jump\t// in\n    tag_108:\n      mload(0x40)\n      dup1\n      swap2\n      sub\n      swap1\n      revert\n    tag_107:\n        /* \"lession3.3-Function/MultiSignatureWallet.sol\":1914:1921  isOwner */\n      0x02\n        /* \"lession3.3-Function/MultiSignatureWallet.sol\":1914:1933  isOwner[msg.sender] */\n      0x00\n        /* \"lession3.3-Function/MultiSignatureWallet.sol\":1922:1932  msg.sender */\n      caller\n        /* \"lession3.3-Function/MultiSignatureWallet.sol\":1914:1933  isOwner[msg.sender] */\n      0xffffffffffffffffffffffffffffffffffffffff\n      and\n      0xffffffffffffffffffffffffffffffffffffffff\n      and\n      dup2\n      mstore\n      0x20\n      add\n      swap1\n      dup2\n      mstore\n      0x20\n      add\n      0x00\n      keccak256\n      0x00\n      swap1\n      sload\n      swap1\n      0x0100\n      exp\n      swap1\n      div\n      0xff\n      and\n        /* \"lession3.3-Function/MultiSignatureWallet.sol\":1906:1958  require(isOwner[msg.sender], \"Only owers can call!\") */\n      tag_110\n      jumpi\n      mload(0x40)\n      0x08c379a000000000000000000000000000000000000000000000000000000000\n      dup2\n      mstore\n      0x04\n      add\n      tag_111\n      swap1\n      tag_73\n      jump\t// in\n    tag_111:\n      mload(0x40)\n      dup1\n      swap2\n      sub\n      swap1\n      revert\n    tag_110:\n        /* \"lession3.3-Function/MultiSignatureWallet.sol\":3871:3893  Transaction storage ts */\n      0x00\n        /* \"lession3.3-Function/MultiSignatureWallet.sol\":3896:3908  transactions */\n      0x04\n        /* \"lession3.3-Function/MultiSignatureWallet.sol\":3896:3914  transactions[txId] */\n      0x00\n        /* \"lession3.3-Function/MultiSignatureWallet.sol\":3909:3913  txId */\n      dup6\n        /* \"lession3.3-Function/MultiSignatureWallet.sol\":3896:3914  transactions[txId] */\n      dup2\n      mstore\n      0x20\n      add\n      swap1\n      dup2\n      mstore\n      0x20\n      add\n      0x00\n      keccak256\n        /* \"lession3.3-Function/MultiSignatureWallet.sol\":3871:3914  Transaction storage ts = transactions[txId] */\n      swap1\n      pop\n        /* \"lession3.3-Function/MultiSignatureWallet.sol\":3952:3960  required */\n      sload(0x01)\n        /* \"lession3.3-Function/MultiSignatureWallet.sol\":3933:3935  ts */\n      dup2\n        /* \"lession3.3-Function/MultiSignatureWallet.sol\":3933:3948  ts.confirmCount */\n      0x04\n      add\n      sload\n        /* \"lession3.3-Function/MultiSignatureWallet.sol\":3933:3960  ts.confirmCount >= required */\n      lt\n      iszero\n        /* \"lession3.3-Function/MultiSignatureWallet.sol\":3925:3993  require(ts.confirmCount >= required, \"Requires multiple signatures\") */\n      tag_113\n      jumpi\n      mload(0x40)\n      0x08c379a000000000000000000000000000000000000000000000000000000000\n      dup2\n      mstore\n      0x04\n      add\n      tag_114\n      swap1\n      tag_115\n      jump\t// in\n    tag_114:\n      mload(0x40)\n      dup1\n      swap2\n      sub\n      swap1\n      revert\n    tag_113:\n        /* \"lession3.3-Function/MultiSignatureWallet.sol\":4005:4017  bool success */\n      0x00\n        /* \"lession3.3-Function/MultiSignatureWallet.sol\":4030:4032  ts */\n      dup2\n        /* \"lession3.3-Function/MultiSignatureWallet.sol\":4030:4035  ts.to */\n      0x00\n      add\n      0x00\n      swap1\n      sload\n      swap1\n      0x0100\n      exp\n      swap1\n      div\n      0xffffffffffffffffffffffffffffffffffffffff\n      and\n        /* \"lession3.3-Function/MultiSignatureWallet.sol\":4022:4041  payable(ts.to).call */\n      0xffffffffffffffffffffffffffffffffffffffff\n      and\n        /* \"lession3.3-Function/MultiSignatureWallet.sol\":4048:4050  ts */\n      dup3\n        /* \"lession3.3-Function/MultiSignatureWallet.sol\":4048:4056  ts.value */\n      0x01\n      add\n      sload\n        /* \"lession3.3-Function/MultiSignatureWallet.sol\":4058:4060  ts */\n      dup4\n        /* \"lession3.3-Function/MultiSignatureWallet.sol\":4058:4065  ts.data */\n      0x02\n      add\n        /* \"lession3.3-Function/MultiSignatureWallet.sol\":4022:4066  payable(ts.to).call{value:ts.value}(ts.data) */\n      mload(0x40)\n      tag_116\n      swap2\n      swap1\n      tag_117\n      jump\t// in\n    tag_116:\n      0x00\n      mload(0x40)\n      dup1\n      dup4\n      sub\n      dup2\n      dup6\n      dup8\n      gas\n      call\n      swap3\n      pop\n      pop\n      pop\n      returndatasize\n      dup1\n      0x00\n      dup2\n      eq\n      tag_120\n      jumpi\n      mload(0x40)\n      swap2\n      pop\n      and(add(returndatasize, 0x3f), not(0x1f))\n      dup3\n      add\n      0x40\n      mstore\n      returndatasize\n      dup3\n      mstore\n      returndatasize\n      0x00\n      0x20\n      dup5\n      add\n      returndatacopy\n      jump(tag_119)\n    tag_120:\n      0x60\n      swap2\n      pop\n    tag_119:\n      pop\n        /* \"lession3.3-Function/MultiSignatureWallet.sol\":4004:4066  (bool success,) = payable(ts.to).call{value:ts.value}(ts.data) */\n      pop\n      swap1\n      pop\n        /* \"lession3.3-Function/MultiSignatureWallet.sol\":4091:4095  true */\n      0x01\n        /* \"lession3.3-Function/MultiSignatureWallet.sol\":4077:4079  ts */\n      dup3\n        /* \"lession3.3-Function/MultiSignatureWallet.sol\":4077:4088  ts.executed */\n      0x03\n      add\n      0x00\n        /* \"lession3.3-Function/MultiSignatureWallet.sol\":4077:4095  ts.executed = true */\n      0x0100\n      exp\n      dup2\n      sload\n      dup2\n      0xff\n      mul\n      not\n      and\n      swap1\n      dup4\n      iszero\n      iszero\n      mul\n      or\n      swap1\n      sstore\n      pop\n        /* \"lession3.3-Function/MultiSignatureWallet.sol\":4135:4145  msg.sender */\n      caller\n        /* \"lession3.3-Function/MultiSignatureWallet.sol\":4111:4161  OwnerExeucteTransaction(msg.sender, txId, success) */\n      0xffffffffffffffffffffffffffffffffffffffff\n      and\n      0x8ed81ce5e46a5ccb9e26bdc1a7232741726fbb2956d0c2586dd9115ecfff752a\n        /* \"lession3.3-Function/MultiSignatureWallet.sol\":4147:4151  txId */\n      dup7\n        /* \"lession3.3-Function/MultiSignatureWallet.sol\":4153:4160  success */\n      dup4\n        /* \"lession3.3-Function/MultiSignatureWallet.sol\":4111:4161  OwnerExeucteTransaction(msg.sender, txId, success) */\n      mload(0x40)\n      tag_121\n      swap3\n      swap2\n      swap1\n      tag_122\n      jump\t// in\n    tag_121:\n      mload(0x40)\n      dup1\n      swap2\n      sub\n      swap1\n      log2\n        /* \"lession3.3-Function/MultiSignatureWallet.sol\":3860:4169  {... */\n      pop\n      pop\n        /* \"lession3.3-Function/MultiSignatureWallet.sol\":2129:2130  _ */\n      pop\n        /* \"lession3.3-Function/MultiSignatureWallet.sol\":3770:4169  function executeTransaction(uint txId) public txExists(txId) notExecuted(txId) onlyOwners {... */\n      pop\n      pop\n      jump\t// out\n        /* \"#utility.yul\":88:205   */\n    tag_124:\n        /* \"#utility.yul\":197:198   */\n      0x00\n        /* \"#utility.yul\":194:195   */\n      0x00\n        /* \"#utility.yul\":187:199   */\n      revert\n        /* \"#utility.yul\":211:328   */\n    tag_125:\n        /* \"#utility.yul\":320:321   */\n      0x00\n        /* \"#utility.yul\":317:318   */\n      0x00\n        /* \"#utility.yul\":310:322   */\n      revert\n        /* \"#utility.yul\":334:411   */\n    tag_126:\n        /* \"#utility.yul\":371:378   */\n      0x00\n        /* \"#utility.yul\":400:405   */\n      dup2\n        /* \"#utility.yul\":389:405   */\n      swap1\n      pop\n        /* \"#utility.yul\":334:411   */\n      swap2\n      swap1\n      pop\n      jump\t// out\n        /* \"#utility.yul\":417:539   */\n    tag_127:\n        /* \"#utility.yul\":490:514   */\n      tag_185\n        /* \"#utility.yul\":508:513   */\n      dup2\n        /* \"#utility.yul\":490:514   */\n      tag_126\n      jump\t// in\n    tag_185:\n        /* \"#utility.yul\":483:488   */\n      dup2\n        /* \"#utility.yul\":480:515   */\n      eq\n        /* \"#utility.yul\":470:533   */\n      tag_186\n      jumpi\n        /* \"#utility.yul\":529:530   */\n      0x00\n        /* \"#utility.yul\":526:527   */\n      0x00\n        /* \"#utility.yul\":519:531   */\n      revert\n        /* \"#utility.yul\":470:533   */\n    tag_186:\n        /* \"#utility.yul\":417:539   */\n      pop\n      jump\t// out\n        /* \"#utility.yul\":545:684   */\n    tag_128:\n        /* \"#utility.yul\":591:596   */\n      0x00\n        /* \"#utility.yul\":629:635   */\n      dup2\n        /* \"#utility.yul\":616:636   */\n      calldataload\n        /* \"#utility.yul\":607:636   */\n      swap1\n      pop\n        /* \"#utility.yul\":645:678   */\n      tag_188\n        /* \"#utility.yul\":672:677   */\n      dup2\n        /* \"#utility.yul\":645:678   */\n      tag_127\n      jump\t// in\n    tag_188:\n        /* \"#utility.yul\":545:684   */\n      swap3\n      swap2\n      pop\n      pop\n      jump\t// out\n        /* \"#utility.yul\":690:1019   */\n    tag_17:\n        /* \"#utility.yul\":749:755   */\n      0x00\n        /* \"#utility.yul\":798:800   */\n      0x20\n        /* \"#utility.yul\":786:795   */\n      dup3\n        /* \"#utility.yul\":777:784   */\n      dup5\n        /* \"#utility.yul\":773:796   */\n      sub\n        /* \"#utility.yul\":769:801   */\n      slt\n        /* \"#utility.yul\":766:885   */\n      iszero\n      tag_190\n      jumpi\n        /* \"#utility.yul\":804:883   */\n      tag_191\n      tag_124\n      jump\t// in\n    tag_191:\n        /* \"#utility.yul\":766:885   */\n    tag_190:\n        /* \"#utility.yul\":924:925   */\n      0x00\n        /* \"#utility.yul\":949:1002   */\n      tag_192\n        /* \"#utility.yul\":994:1001   */\n      dup5\n        /* \"#utility.yul\":985:991   */\n      dup3\n        /* \"#utility.yul\":974:983   */\n      dup6\n        /* \"#utility.yul\":970:992   */\n      add\n        /* \"#utility.yul\":949:1002   */\n      tag_128\n      jump\t// in\n    tag_192:\n        /* \"#utility.yul\":939:1002   */\n      swap2\n      pop\n        /* \"#utility.yul\":895:1012   */\n      pop\n        /* \"#utility.yul\":690:1019   */\n      swap3\n      swap2\n      pop\n      pop\n      jump\t// out\n        /* \"#utility.yul\":1025:1151   */\n    tag_129:\n        /* \"#utility.yul\":1062:1069   */\n      0x00\n        /* \"#utility.yul\":1102:1144   */\n      0xffffffffffffffffffffffffffffffffffffffff\n        /* \"#utility.yul\":1095:1100   */\n      dup3\n        /* \"#utility.yul\":1091:1145   */\n      and\n        /* \"#utility.yul\":1080:1145   */\n      swap1\n      pop\n        /* \"#utility.yul\":1025:1151   */\n      swap2\n      swap1\n      pop\n      jump\t// out\n        /* \"#utility.yul\":1157:1253   */\n    tag_130:\n        /* \"#utility.yul\":1194:1201   */\n      0x00\n        /* \"#utility.yul\":1223:1247   */\n      tag_195\n        /* \"#utility.yul\":1241:1246   */\n      dup3\n        /* \"#utility.yul\":1223:1247   */\n      tag_129\n      jump\t// in\n    tag_195:\n        /* \"#utility.yul\":1212:1247   */\n      swap1\n      pop\n        /* \"#utility.yul\":1157:1253   */\n      swap2\n      swap1\n      pop\n      jump\t// out\n        /* \"#utility.yul\":1259:1377   */\n    tag_131:\n        /* \"#utility.yul\":1346:1370   */\n      tag_197\n        /* \"#utility.yul\":1364:1369   */\n      dup2\n        /* \"#utility.yul\":1346:1370   */\n      tag_130\n      jump\t// in\n    tag_197:\n        /* \"#utility.yul\":1341:1344   */\n      dup3\n        /* \"#utility.yul\":1334:1371   */\n      mstore\n        /* \"#utility.yul\":1259:1377   */\n      pop\n      pop\n      jump\t// out\n        /* \"#utility.yul\":1383:1605   */\n    tag_20:\n        /* \"#utility.yul\":1476:1480   */\n      0x00\n        /* \"#utility.yul\":1514:1516   */\n      0x20\n        /* \"#utility.yul\":1503:1512   */\n      dup3\n        /* \"#utility.yul\":1499:1517   */\n      add\n        /* \"#utility.yul\":1491:1517   */\n      swap1\n      pop\n        /* \"#utility.yul\":1527:1598   */\n      tag_199\n        /* \"#utility.yul\":1595:1596   */\n      0x00\n        /* \"#utility.yul\":1584:1593   */\n      dup4\n        /* \"#utility.yul\":1580:1597   */\n      add\n        /* \"#utility.yul\":1571:1577   */\n      dup5\n        /* \"#utility.yul\":1527:1598   */\n      tag_131\n      jump\t// in\n    tag_199:\n        /* \"#utility.yul\":1383:1605   */\n      swap3\n      swap2\n      pop\n      pop\n      jump\t// out\n        /* \"#utility.yul\":1611:1729   */\n    tag_132:\n        /* \"#utility.yul\":1698:1722   */\n      tag_201\n        /* \"#utility.yul\":1716:1721   */\n      dup2\n        /* \"#utility.yul\":1698:1722   */\n      tag_126\n      jump\t// in\n    tag_201:\n        /* \"#utility.yul\":1693:1696   */\n      dup3\n        /* \"#utility.yul\":1686:1723   */\n      mstore\n        /* \"#utility.yul\":1611:1729   */\n      pop\n      pop\n      jump\t// out\n        /* \"#utility.yul\":1735:1957   */\n    tag_25:\n        /* \"#utility.yul\":1828:1832   */\n      0x00\n        /* \"#utility.yul\":1866:1868   */\n      0x20\n        /* \"#utility.yul\":1855:1864   */\n      dup3\n        /* \"#utility.yul\":1851:1869   */\n      add\n        /* \"#utility.yul\":1843:1869   */\n      swap1\n      pop\n        /* \"#utility.yul\":1879:1950   */\n      tag_203\n        /* \"#utility.yul\":1947:1948   */\n      0x00\n        /* \"#utility.yul\":1936:1945   */\n      dup4\n        /* \"#utility.yul\":1932:1949   */\n      add\n        /* \"#utility.yul\":1923:1929   */\n      dup5\n        /* \"#utility.yul\":1879:1950   */\n      tag_132\n      jump\t// in\n    tag_203:\n        /* \"#utility.yul\":1735:1957   */\n      swap3\n      swap2\n      pop\n      pop\n      jump\t// out\n        /* \"#utility.yul\":1963:2061   */\n    tag_133:\n        /* \"#utility.yul\":2014:2020   */\n      0x00\n        /* \"#utility.yul\":2048:2053   */\n      dup2\n        /* \"#utility.yul\":2042:2054   */\n      mload\n        /* \"#utility.yul\":2032:2054   */\n      swap1\n      pop\n        /* \"#utility.yul\":1963:2061   */\n      swap2\n      swap1\n      pop\n      jump\t// out\n        /* \"#utility.yul\":2067:2235   */\n    tag_134:\n        /* \"#utility.yul\":2150:2161   */\n      0x00\n        /* \"#utility.yul\":2184:2190   */\n      dup3\n        /* \"#utility.yul\":2179:2182   */\n      dup3\n        /* \"#utility.yul\":2172:2191   */\n      mstore\n        /* \"#utility.yul\":2224:2228   */\n      0x20\n        /* \"#utility.yul\":2219:2222   */\n      dup3\n        /* \"#utility.yul\":2215:2229   */\n      add\n        /* \"#utility.yul\":2200:2229   */\n      swap1\n      pop\n        /* \"#utility.yul\":2067:2235   */\n      swap3\n      swap2\n      pop\n      pop\n      jump\t// out\n        /* \"#utility.yul\":2241:2380   */\n    tag_135:\n        /* \"#utility.yul\":2330:2336   */\n      dup3\n        /* \"#utility.yul\":2325:2328   */\n      dup2\n        /* \"#utility.yul\":2320:2323   */\n      dup4\n        /* \"#utility.yul\":2314:2337   */\n      mcopy\n        /* \"#utility.yul\":2371:2372   */\n      0x00\n        /* \"#utility.yul\":2362:2368   */\n      dup4\n        /* \"#utility.yul\":2357:2360   */\n      dup4\n        /* \"#utility.yul\":2353:2369   */\n      add\n        /* \"#utility.yul\":2346:2373   */\n      mstore\n        /* \"#utility.yul\":2241:2380   */\n      pop\n      pop\n      pop\n      jump\t// out\n        /* \"#utility.yul\":2386:2488   */\n    tag_136:\n        /* \"#utility.yul\":2427:2433   */\n      0x00\n        /* \"#utility.yul\":2478:2480   */\n      0x1f\n        /* \"#utility.yul\":2474:2481   */\n      not\n        /* \"#utility.yul\":2469:2471   */\n      0x1f\n        /* \"#utility.yul\":2462:2467   */\n      dup4\n        /* \"#utility.yul\":2458:2472   */\n      add\n        /* \"#utility.yul\":2454:2482   */\n      and\n        /* \"#utility.yul\":2444:2482   */\n      swap1\n      pop\n        /* \"#utility.yul\":2386:2488   */\n      swap2\n      swap1\n      pop\n      jump\t// out\n        /* \"#utility.yul\":2494:2867   */\n    tag_137:\n        /* \"#utility.yul\":2580:2583   */\n      0x00\n        /* \"#utility.yul\":2608:2646   */\n      tag_209\n        /* \"#utility.yul\":2640:2645   */\n      dup3\n        /* \"#utility.yul\":2608:2646   */\n      tag_133\n      jump\t// in\n    tag_209:\n        /* \"#utility.yul\":2662:2732   */\n      tag_210\n        /* \"#utility.yul\":2725:2731   */\n      dup2\n        /* \"#utility.yul\":2720:2723   */\n      dup6\n        /* \"#utility.yul\":2662:2732   */\n      tag_134\n      jump\t// in\n    tag_210:\n        /* \"#utility.yul\":2655:2732   */\n      swap4\n      pop\n        /* \"#utility.yul\":2741:2806   */\n      tag_211\n        /* \"#utility.yul\":2799:2805   */\n      dup2\n        /* \"#utility.yul\":2794:2797   */\n      dup6\n        /* \"#utility.yul\":2787:2791   */\n      0x20\n        /* \"#utility.yul\":2780:2785   */\n      dup7\n        /* \"#utility.yul\":2776:2792   */\n      add\n        /* \"#utility.yul\":2741:2806   */\n      tag_135\n      jump\t// in\n    tag_211:\n        /* \"#utility.yul\":2831:2860   */\n      tag_212\n        /* \"#utility.yul\":2853:2859   */\n      dup2\n        /* \"#utility.yul\":2831:2860   */\n      tag_136\n      jump\t// in\n    tag_212:\n        /* \"#utility.yul\":2826:2829   */\n      dup5\n        /* \"#utility.yul\":2822:2861   */\n      add\n        /* \"#utility.yul\":2815:2861   */\n      swap2\n      pop\n        /* \"#utility.yul\":2584:2867   */\n      pop\n        /* \"#utility.yul\":2494:2867   */\n      swap3\n      swap2\n      pop\n      pop\n      jump\t// out\n        /* \"#utility.yul\":2873:2963   */\n    tag_138:\n        /* \"#utility.yul\":2907:2914   */\n      0x00\n        /* \"#utility.yul\":2950:2955   */\n      dup2\n        /* \"#utility.yul\":2943:2956   */\n      iszero\n        /* \"#utility.yul\":2936:2957   */\n      iszero\n        /* \"#utility.yul\":2925:2957   */\n      swap1\n      pop\n        /* \"#utility.yul\":2873:2963   */\n      swap2\n      swap1\n      pop\n      jump\t// out\n        /* \"#utility.yul\":2969:3078   */\n    tag_139:\n        /* \"#utility.yul\":3050:3071   */\n      tag_215\n        /* \"#utility.yul\":3065:3070   */\n      dup2\n        /* \"#utility.yul\":3050:3071   */\n      tag_138\n      jump\t// in\n    tag_215:\n        /* \"#utility.yul\":3045:3048   */\n      dup3\n        /* \"#utility.yul\":3038:3072   */\n      mstore\n        /* \"#utility.yul\":2969:3078   */\n      pop\n      pop\n      jump\t// out\n        /* \"#utility.yul\":3084:3823   */\n    tag_31:\n        /* \"#utility.yul\":3301:3305   */\n      0x00\n        /* \"#utility.yul\":3339:3342   */\n      0xa0\n        /* \"#utility.yul\":3328:3337   */\n      dup3\n        /* \"#utility.yul\":3324:3343   */\n      add\n        /* \"#utility.yul\":3316:3343   */\n      swap1\n      pop\n        /* \"#utility.yul\":3353:3424   */\n      tag_217\n        /* \"#utility.yul\":3421:3422   */\n      0x00\n        /* \"#utility.yul\":3410:3419   */\n      dup4\n        /* \"#utility.yul\":3406:3423   */\n      add\n        /* \"#utility.yul\":3397:3403   */\n      dup9\n        /* \"#utility.yul\":3353:3424   */\n      tag_131\n      jump\t// in\n    tag_217:\n        /* \"#utility.yul\":3434:3506   */\n      tag_218\n        /* \"#utility.yul\":3502:3504   */\n      0x20\n        /* \"#utility.yul\":3491:3500   */\n      dup4\n        /* \"#utility.yul\":3487:3505   */\n      add\n        /* \"#utility.yul\":3478:3484   */\n      dup8\n        /* \"#utility.yul\":3434:3506   */\n      tag_132\n      jump\t// in\n    tag_218:\n        /* \"#utility.yul\":3553:3562   */\n      dup2\n        /* \"#utility.yul\":3547:3551   */\n      dup2\n        /* \"#utility.yul\":3543:3563   */\n      sub\n        /* \"#utility.yul\":3538:3540   */\n      0x40\n        /* \"#utility.yul\":3527:3536   */\n      dup4\n        /* \"#utility.yul\":3523:3541   */\n      add\n        /* \"#utility.yul\":3516:3564   */\n      mstore\n        /* \"#utility.yul\":3581:3657   */\n      tag_219\n        /* \"#utility.yul\":3652:3656   */\n      dup2\n        /* \"#utility.yul\":3643:3649   */\n      dup7\n        /* \"#utility.yul\":3581:3657   */\n      tag_137\n      jump\t// in\n    tag_219:\n        /* \"#utility.yul\":3573:3657   */\n      swap1\n      pop\n        /* \"#utility.yul\":3667:3733   */\n      tag_220\n        /* \"#utility.yul\":3729:3731   */\n      0x60\n        /* \"#utility.yul\":3718:3727   */\n      dup4\n        /* \"#utility.yul\":3714:3732   */\n      add\n        /* \"#utility.yul\":3705:3711   */\n      dup6\n        /* \"#utility.yul\":3667:3733   */\n      tag_139\n      jump\t// in\n    tag_220:\n        /* \"#utility.yul\":3743:3816   */\n      tag_221\n        /* \"#utility.yul\":3811:3814   */\n      0x80\n        /* \"#utility.yul\":3800:3809   */\n      dup4\n        /* \"#utility.yul\":3796:3815   */\n      add\n        /* \"#utility.yul\":3787:3793   */\n      dup5\n        /* \"#utility.yul\":3743:3816   */\n      tag_132\n      jump\t// in\n    tag_221:\n        /* \"#utility.yul\":3084:3823   */\n      swap7\n      swap6\n      pop\n      pop\n      pop\n      pop\n      pop\n      pop\n      jump\t// out\n        /* \"#utility.yul\":3829:3951   */\n    tag_140:\n        /* \"#utility.yul\":3902:3926   */\n      tag_223\n        /* \"#utility.yul\":3920:3925   */\n      dup2\n        /* \"#utility.yul\":3902:3926   */\n      tag_130\n      jump\t// in\n    tag_223:\n        /* \"#utility.yul\":3895:3900   */\n      dup2\n        /* \"#utility.yul\":3892:3927   */\n      eq\n        /* \"#utility.yul\":3882:3945   */\n      tag_224\n      jumpi\n        /* \"#utility.yul\":3941:3942   */\n      0x00\n        /* \"#utility.yul\":3938:3939   */\n      0x00\n        /* \"#utility.yul\":3931:3943   */\n      revert\n        /* \"#utility.yul\":3882:3945   */\n    tag_224:\n        /* \"#utility.yul\":3829:3951   */\n      pop\n      jump\t// out\n        /* \"#utility.yul\":3957:4096   */\n    tag_141:\n        /* \"#utility.yul\":4003:4008   */\n      0x00\n        /* \"#utility.yul\":4041:4047   */\n      dup2\n        /* \"#utility.yul\":4028:4048   */\n      calldataload\n        /* \"#utility.yul\":4019:4048   */\n      swap1\n      pop\n        /* \"#utility.yul\":4057:4090   */\n      tag_226\n        /* \"#utility.yul\":4084:4089   */\n      dup2\n        /* \"#utility.yul\":4057:4090   */\n      tag_140\n      jump\t// in\n    tag_226:\n        /* \"#utility.yul\":3957:4096   */\n      swap3\n      swap2\n      pop\n      pop\n      jump\t// out\n        /* \"#utility.yul\":4102:4219   */\n    tag_142:\n        /* \"#utility.yul\":4211:4212   */\n      0x00\n        /* \"#utility.yul\":4208:4209   */\n      0x00\n        /* \"#utility.yul\":4201:4213   */\n      revert\n        /* \"#utility.yul\":4225:4342   */\n    tag_143:\n        /* \"#utility.yul\":4334:4335   */\n      0x00\n        /* \"#utility.yul\":4331:4332   */\n      0x00\n        /* \"#utility.yul\":4324:4336   */\n      revert\n        /* \"#utility.yul\":4348:4465   */\n    tag_144:\n        /* \"#utility.yul\":4457:4458   */\n      0x00\n        /* \"#utility.yul\":4454:4455   */\n      0x00\n        /* \"#utility.yul\":4447:4459   */\n      revert\n        /* \"#utility.yul\":4484:5036   */\n    tag_145:\n        /* \"#utility.yul\":4541:4549   */\n      0x00\n        /* \"#utility.yul\":4551:4557   */\n      0x00\n        /* \"#utility.yul\":4601:4604   */\n      dup4\n        /* \"#utility.yul\":4594:4598   */\n      0x1f\n        /* \"#utility.yul\":4586:4592   */\n      dup5\n        /* \"#utility.yul\":4582:4599   */\n      add\n        /* \"#utility.yul\":4578:4605   */\n      slt\n        /* \"#utility.yul\":4568:4690   */\n      tag_231\n      jumpi\n        /* \"#utility.yul\":4609:4688   */\n      tag_232\n      tag_142\n      jump\t// in\n    tag_232:\n        /* \"#utility.yul\":4568:4690   */\n    tag_231:\n        /* \"#utility.yul\":4722:4728   */\n      dup3\n        /* \"#utility.yul\":4709:4729   */\n      calldataload\n        /* \"#utility.yul\":4699:4729   */\n      swap1\n      pop\n        /* \"#utility.yul\":4752:4770   */\n      0xffffffffffffffff\n        /* \"#utility.yul\":4744:4750   */\n      dup2\n        /* \"#utility.yul\":4741:4771   */\n      gt\n        /* \"#utility.yul\":4738:4855   */\n      iszero\n      tag_233\n      jumpi\n        /* \"#utility.yul\":4774:4853   */\n      tag_234\n      tag_143\n      jump\t// in\n    tag_234:\n        /* \"#utility.yul\":4738:4855   */\n    tag_233:\n        /* \"#utility.yul\":4888:4892   */\n      0x20\n        /* \"#utility.yul\":4880:4886   */\n      dup4\n        /* \"#utility.yul\":4876:4893   */\n      add\n        /* \"#utility.yul\":4864:4893   */\n      swap2\n      pop\n        /* \"#utility.yul\":4942:4945   */\n      dup4\n        /* \"#utility.yul\":4934:4938   */\n      0x01\n        /* \"#utility.yul\":4926:4932   */\n      dup3\n        /* \"#utility.yul\":4922:4939   */\n      mul\n        /* \"#utility.yul\":4912:4920   */\n      dup4\n        /* \"#utility.yul\":4908:4940   */\n      add\n        /* \"#utility.yul\":4905:4946   */\n      gt\n        /* \"#utility.yul\":4902:5030   */\n      iszero\n      tag_235\n      jumpi\n        /* \"#utility.yul\":4949:5028   */\n      tag_236\n      tag_144\n      jump\t// in\n    tag_236:\n        /* \"#utility.yul\":4902:5030   */\n    tag_235:\n        /* \"#utility.yul\":4484:5036   */\n      swap3\n      pop\n      swap3\n      swap1\n      pop\n      jump\t// out\n        /* \"#utility.yul\":5042:5859   */\n    tag_43:\n        /* \"#utility.yul\":5130:5136   */\n      0x00\n        /* \"#utility.yul\":5138:5144   */\n      0x00\n        /* \"#utility.yul\":5146:5152   */\n      0x00\n        /* \"#utility.yul\":5154:5160   */\n      0x00\n        /* \"#utility.yul\":5203:5205   */\n      0x60\n        /* \"#utility.yul\":5191:5200   */\n      dup6\n        /* \"#utility.yul\":5182:5189   */\n      dup8\n        /* \"#utility.yul\":5178:5201   */\n      sub\n        /* \"#utility.yul\":5174:5206   */\n      slt\n        /* \"#utility.yul\":5171:5290   */\n      iszero\n      tag_238\n      jumpi\n        /* \"#utility.yul\":5209:5288   */\n      tag_239\n      tag_124\n      jump\t// in\n    tag_239:\n        /* \"#utility.yul\":5171:5290   */\n    tag_238:\n        /* \"#utility.yul\":5329:5330   */\n      0x00\n        /* \"#utility.yul\":5354:5407   */\n      tag_240\n        /* \"#utility.yul\":5399:5406   */\n      dup8\n        /* \"#utility.yul\":5390:5396   */\n      dup3\n        /* \"#utility.yul\":5379:5388   */\n      dup9\n        /* \"#utility.yul\":5375:5397   */\n      add\n        /* \"#utility.yul\":5354:5407   */\n      tag_141\n      jump\t// in\n    tag_240:\n        /* \"#utility.yul\":5344:5407   */\n      swap5\n      pop\n        /* \"#utility.yul\":5300:5417   */\n      pop\n        /* \"#utility.yul\":5456:5458   */\n      0x20\n        /* \"#utility.yul\":5482:5535   */\n      tag_241\n        /* \"#utility.yul\":5527:5534   */\n      dup8\n        /* \"#utility.yul\":5518:5524   */\n      dup3\n        /* \"#utility.yul\":5507:5516   */\n      dup9\n        /* \"#utility.yul\":5503:5525   */\n      add\n        /* \"#utility.yul\":5482:5535   */\n      tag_128\n      jump\t// in\n    tag_241:\n        /* \"#utility.yul\":5472:5535   */\n      swap4\n      pop\n        /* \"#utility.yul\":5427:5545   */\n      pop\n        /* \"#utility.yul\":5612:5614   */\n      0x40\n        /* \"#utility.yul\":5601:5610   */\n      dup6\n        /* \"#utility.yul\":5597:5615   */\n      add\n        /* \"#utility.yul\":5584:5616   */\n      calldataload\n        /* \"#utility.yul\":5643:5661   */\n      0xffffffffffffffff\n        /* \"#utility.yul\":5635:5641   */\n      dup2\n        /* \"#utility.yul\":5632:5662   */\n      gt\n        /* \"#utility.yul\":5629:5746   */\n      iszero\n      tag_242\n      jumpi\n        /* \"#utility.yul\":5665:5744   */\n      tag_243\n      tag_125\n      jump\t// in\n    tag_243:\n        /* \"#utility.yul\":5629:5746   */\n    tag_242:\n        /* \"#utility.yul\":5778:5842   */\n      tag_244\n        /* \"#utility.yul\":5834:5841   */\n      dup8\n        /* \"#utility.yul\":5825:5831   */\n      dup3\n        /* \"#utility.yul\":5814:5823   */\n      dup9\n        /* \"#utility.yul\":5810:5832   */\n      add\n        /* \"#utility.yul\":5778:5842   */\n      tag_145\n      jump\t// in\n    tag_244:\n        /* \"#utility.yul\":5760:5842   */\n      swap3\n      pop\n      swap3\n      pop\n        /* \"#utility.yul\":5555:5852   */\n      pop\n        /* \"#utility.yul\":5042:5859   */\n      swap3\n      swap6\n      swap2\n      swap5\n      pop\n      swap3\n      pop\n      jump\t// out\n        /* \"#utility.yul\":5865:6045   */\n    tag_146:\n        /* \"#utility.yul\":5913:5990   */\n      0x4e487b7100000000000000000000000000000000000000000000000000000000\n        /* \"#utility.yul\":5910:5911   */\n      0x00\n        /* \"#utility.yul\":5903:5991   */\n      mstore\n        /* \"#utility.yul\":6010:6014   */\n      0x22\n        /* \"#utility.yul\":6007:6008   */\n      0x04\n        /* \"#utility.yul\":6000:6015   */\n      mstore\n        /* \"#utility.yul\":6034:6038   */\n      0x24\n        /* \"#utility.yul\":6031:6032   */\n      0x00\n        /* \"#utility.yul\":6024:6039   */\n      revert\n        /* \"#utility.yul\":6051:6371   */\n    tag_57:\n        /* \"#utility.yul\":6095:6101   */\n      0x00\n        /* \"#utility.yul\":6132:6133   */\n      0x02\n        /* \"#utility.yul\":6126:6130   */\n      dup3\n        /* \"#utility.yul\":6122:6134   */\n      div\n        /* \"#utility.yul\":6112:6134   */\n      swap1\n      pop\n        /* \"#utility.yul\":6179:6180   */\n      0x01\n        /* \"#utility.yul\":6173:6177   */\n      dup3\n        /* \"#utility.yul\":6169:6181   */\n      and\n        /* \"#utility.yul\":6200:6218   */\n      dup1\n        /* \"#utility.yul\":6190:6271   */\n      tag_247\n      jumpi\n        /* \"#utility.yul\":6256:6260   */\n      0x7f\n        /* \"#utility.yul\":6248:6254   */\n      dup3\n        /* \"#utility.yul\":6244:6261   */\n      and\n        /* \"#utility.yul\":6234:6261   */\n      swap2\n      pop\n        /* \"#utility.yul\":6190:6271   */\n    tag_247:\n        /* \"#utility.yul\":6318:6320   */\n      0x20\n        /* \"#utility.yul\":6310:6316   */\n      dup3\n        /* \"#utility.yul\":6307:6321   */\n      lt\n        /* \"#utility.yul\":6287:6305   */\n      dup2\n        /* \"#utility.yul\":6284:6322   */\n      sub\n        /* \"#utility.yul\":6281:6365   */\n      tag_248\n      jumpi\n        /* \"#utility.yul\":6337:6355   */\n      tag_249\n      tag_146\n      jump\t// in\n    tag_249:\n        /* \"#utility.yul\":6281:6365   */\n    tag_248:\n        /* \"#utility.yul\":6102:6371   */\n      pop\n        /* \"#utility.yul\":6051:6371   */\n      swap2\n      swap1\n      pop\n      jump\t// out\n        /* \"#utility.yul\":6377:6546   */\n    tag_147:\n        /* \"#utility.yul\":6461:6472   */\n      0x00\n        /* \"#utility.yul\":6495:6501   */\n      dup3\n        /* \"#utility.yul\":6490:6493   */\n      dup3\n        /* \"#utility.yul\":6483:6502   */\n      mstore\n        /* \"#utility.yul\":6535:6539   */\n      0x20\n        /* \"#utility.yul\":6530:6533   */\n      dup3\n        /* \"#utility.yul\":6526:6540   */\n      add\n        /* \"#utility.yul\":6511:6540   */\n      swap1\n      pop\n        /* \"#utility.yul\":6377:6546   */\n      swap3\n      swap2\n      pop\n      pop\n      jump\t// out\n        /* \"#utility.yul\":6552:6724   */\n    tag_148:\n        /* \"#utility.yul\":6692:6716   */\n      0x5472616e73616374696f6e206e6f742065786973742100000000000000000000\n        /* \"#utility.yul\":6688:6689   */\n      0x00\n        /* \"#utility.yul\":6680:6686   */\n      dup3\n        /* \"#utility.yul\":6676:6690   */\n      add\n        /* \"#utility.yul\":6669:6717   */\n      mstore\n        /* \"#utility.yul\":6552:6724   */\n      pop\n      jump\t// out\n        /* \"#utility.yul\":6730:7096   */\n    tag_149:\n        /* \"#utility.yul\":6872:6875   */\n      0x00\n        /* \"#utility.yul\":6893:6960   */\n      tag_253\n        /* \"#utility.yul\":6957:6959   */\n      0x16\n        /* \"#utility.yul\":6952:6955   */\n      dup4\n        /* \"#utility.yul\":6893:6960   */\n      tag_147\n      jump\t// in\n    tag_253:\n        /* \"#utility.yul\":6886:6960   */\n      swap2\n      pop\n        /* \"#utility.yul\":6969:7062   */\n      tag_254\n        /* \"#utility.yul\":7058:7061   */\n      dup3\n        /* \"#utility.yul\":6969:7062   */\n      tag_148\n      jump\t// in\n    tag_254:\n        /* \"#utility.yul\":7087:7089   */\n      0x20\n        /* \"#utility.yul\":7082:7085   */\n      dup3\n        /* \"#utility.yul\":7078:7090   */\n      add\n        /* \"#utility.yul\":7071:7090   */\n      swap1\n      pop\n        /* \"#utility.yul\":6730:7096   */\n      swap2\n      swap1\n      pop\n      jump\t// out\n        /* \"#utility.yul\":7102:7521   */\n    tag_65:\n        /* \"#utility.yul\":7268:7272   */\n      0x00\n        /* \"#utility.yul\":7306:7308   */\n      0x20\n        /* \"#utility.yul\":7295:7304   */\n      dup3\n        /* \"#utility.yul\":7291:7309   */\n      add\n        /* \"#utility.yul\":7283:7309   */\n      swap1\n      pop\n        /* \"#utility.yul\":7355:7364   */\n      dup2\n        /* \"#utility.yul\":7349:7353   */\n      dup2\n        /* \"#utility.yul\":7345:7365   */\n      sub\n        /* \"#utility.yul\":7341:7342   */\n      0x00\n        /* \"#utility.yul\":7330:7339   */\n      dup4\n        /* \"#utility.yul\":7326:7343   */\n      add\n        /* \"#utility.yul\":7319:7366   */\n      mstore\n        /* \"#utility.yul\":7383:7514   */\n      tag_256\n        /* \"#utility.yul\":7509:7513   */\n      dup2\n        /* \"#utility.yul\":7383:7514   */\n      tag_149\n      jump\t// in\n    tag_256:\n        /* \"#utility.yul\":7375:7514   */\n      swap1\n      pop\n        /* \"#utility.yul\":7102:7521   */\n      swap2\n      swap1\n      pop\n      jump\t// out\n        /* \"#utility.yul\":7527:7698   */\n    tag_150:\n        /* \"#utility.yul\":7667:7690   */\n      0x5472616e73616374696f6e206578656375746564210000000000000000000000\n        /* \"#utility.yul\":7663:7664   */\n      0x00\n        /* \"#utility.yul\":7655:7661   */\n      dup3\n        /* \"#utility.yul\":7651:7665   */\n      add\n        /* \"#utility.yul\":7644:7691   */\n      mstore\n        /* \"#utility.yul\":7527:7698   */\n      pop\n      jump\t// out\n        /* \"#utility.yul\":7704:8070   */\n    tag_151:\n        /* \"#utility.yul\":7846:7849   */\n      0x00\n        /* \"#utility.yul\":7867:7934   */\n      tag_259\n        /* \"#utility.yul\":7931:7933   */\n      0x15\n        /* \"#utility.yul\":7926:7929   */\n      dup4\n        /* \"#utility.yul\":7867:7934   */\n      tag_147\n      jump\t// in\n    tag_259:\n        /* \"#utility.yul\":7860:7934   */\n      swap2\n      pop\n        /* \"#utility.yul\":7943:8036   */\n      tag_260\n        /* \"#utility.yul\":8032:8035   */\n      dup3\n        /* \"#utility.yul\":7943:8036   */\n      tag_150\n      jump\t// in\n    tag_260:\n        /* \"#utility.yul\":8061:8063   */\n      0x20\n        /* \"#utility.yul\":8056:8059   */\n      dup3\n        /* \"#utility.yul\":8052:8064   */\n      add\n        /* \"#utility.yul\":8045:8064   */\n      swap1\n      pop\n        /* \"#utility.yul\":7704:8070   */\n      swap2\n      swap1\n      pop\n      jump\t// out\n        /* \"#utility.yul\":8076:8495   */\n    tag_69:\n        /* \"#utility.yul\":8242:8246   */\n      0x00\n        /* \"#utility.yul\":8280:8282   */\n      0x20\n        /* \"#utility.yul\":8269:8278   */\n      dup3\n        /* \"#utility.yul\":8265:8283   */\n      add\n        /* \"#utility.yul\":8257:8283   */\n      swap1\n      pop\n        /* \"#utility.yul\":8329:8338   */\n      dup2\n        /* \"#utility.yul\":8323:8327   */\n      dup2\n        /* \"#utility.yul\":8319:8339   */\n      sub\n        /* \"#utility.yul\":8315:8316   */\n      0x00\n        /* \"#utility.yul\":8304:8313   */\n      dup4\n        /* \"#utility.yul\":8300:8317   */\n      add\n        /* \"#utility.yul\":8293:8340   */\n      mstore\n        /* \"#utility.yul\":8357:8488   */\n      tag_262\n        /* \"#utility.yul\":8483:8487   */\n      dup2\n        /* \"#utility.yul\":8357:8488   */\n      tag_151\n      jump\t// in\n    tag_262:\n        /* \"#utility.yul\":8349:8488   */\n      swap1\n      pop\n        /* \"#utility.yul\":8076:8495   */\n      swap2\n      swap1\n      pop\n      jump\t// out\n        /* \"#utility.yul\":8501:8671   */\n    tag_152:\n        /* \"#utility.yul\":8641:8663   */\n      0x4f6e6c79206f776572732063616e2063616c6c21000000000000000000000000\n        /* \"#utility.yul\":8637:8638   */\n      0x00\n        /* \"#utility.yul\":8629:8635   */\n      dup3\n        /* \"#utility.yul\":8625:8639   */\n      add\n        /* \"#utility.yul\":8618:8664   */\n      mstore\n        /* \"#utility.yul\":8501:8671   */\n      pop\n      jump\t// out\n        /* \"#utility.yul\":8677:9043   */\n    tag_153:\n        /* \"#utility.yul\":8819:8822   */\n      0x00\n        /* \"#utility.yul\":8840:8907   */\n      tag_265\n        /* \"#utility.yul\":8904:8906   */\n      0x14\n        /* \"#utility.yul\":8899:8902   */\n      dup4\n        /* \"#utility.yul\":8840:8907   */\n      tag_147\n      jump\t// in\n    tag_265:\n        /* \"#utility.yul\":8833:8907   */\n      swap2\n      pop\n        /* \"#utility.yul\":8916:9009   */\n      tag_266\n        /* \"#utility.yul\":9005:9008   */\n      dup3\n        /* \"#utility.yul\":8916:9009   */\n      tag_152\n      jump\t// in\n    tag_266:\n        /* \"#utility.yul\":9034:9036   */\n      0x20\n        /* \"#utility.yul\":9029:9032   */\n      dup3\n        /* \"#utility.yul\":9025:9037   */\n      add\n        /* \"#utility.yul\":9018:9037   */\n      swap1\n      pop\n        /* \"#utility.yul\":8677:9043   */\n      swap2\n      swap1\n      pop\n      jump\t// out\n        /* \"#utility.yul\":9049:9468   */\n    tag_73:\n        /* \"#utility.yul\":9215:9219   */\n      0x00\n        /* \"#utility.yul\":9253:9255   */\n      0x20\n        /* \"#utility.yul\":9242:9251   */\n      dup3\n        /* \"#utility.yul\":9238:9256   */\n      add\n        /* \"#utility.yul\":9230:9256   */\n      swap1\n      pop\n        /* \"#utility.yul\":9302:9311   */\n      dup2\n        /* \"#utility.yul\":9296:9300   */\n      dup2\n        /* \"#utility.yul\":9292:9312   */\n      sub\n        /* \"#utility.yul\":9288:9289   */\n      0x00\n        /* \"#utility.yul\":9277:9286   */\n      dup4\n        /* \"#utility.yul\":9273:9290   */\n      add\n        /* \"#utility.yul\":9266:9313   */\n      mstore\n        /* \"#utility.yul\":9330:9461   */\n      tag_268\n        /* \"#utility.yul\":9456:9460   */\n      dup2\n        /* \"#utility.yul\":9330:9461   */\n      tag_153\n      jump\t// in\n    tag_268:\n        /* \"#utility.yul\":9322:9461   */\n      swap1\n      pop\n        /* \"#utility.yul\":9049:9468   */\n      swap2\n      swap1\n      pop\n      jump\t// out\n        /* \"#utility.yul\":9474:9642   */\n    tag_154:\n        /* \"#utility.yul\":9614:9634   */\n      0x416c726561647920636f6e6669726d6564210000000000000000000000000000\n        /* \"#utility.yul\":9610:9611   */\n      0x00\n        /* \"#utility.yul\":9602:9608   */\n      dup3\n        /* \"#utility.yul\":9598:9612   */\n      add\n        /* \"#utility.yul\":9591:9635   */\n      mstore\n        /* \"#utility.yul\":9474:9642   */\n      pop\n      jump\t// out\n        /* \"#utility.yul\":9648:10014   */\n    tag_155:\n        /* \"#utility.yul\":9790:9793   */\n      0x00\n        /* \"#utility.yul\":9811:9878   */\n      tag_271\n        /* \"#utility.yul\":9875:9877   */\n      0x12\n        /* \"#utility.yul\":9870:9873   */\n      dup4\n        /* \"#utility.yul\":9811:9878   */\n      tag_147\n      jump\t// in\n    tag_271:\n        /* \"#utility.yul\":9804:9878   */\n      swap2\n      pop\n        /* \"#utility.yul\":9887:9980   */\n      tag_272\n        /* \"#utility.yul\":9976:9979   */\n      dup3\n        /* \"#utility.yul\":9887:9980   */\n      tag_154\n      jump\t// in\n    tag_272:\n        /* \"#utility.yul\":10005:10007   */\n      0x20\n        /* \"#utility.yul\":10000:10003   */\n      dup3\n        /* \"#utility.yul\":9996:10008   */\n      add\n        /* \"#utility.yul\":9989:10008   */\n      swap1\n      pop\n        /* \"#utility.yul\":9648:10014   */\n      swap2\n      swap1\n      pop\n      jump\t// out\n        /* \"#utility.yul\":10020:10439   */\n    tag_77:\n        /* \"#utility.yul\":10186:10190   */\n      0x00\n        /* \"#utility.yul\":10224:10226   */\n      0x20\n        /* \"#utility.yul\":10213:10222   */\n      dup3\n        /* \"#utility.yul\":10209:10227   */\n      add\n        /* \"#utility.yul\":10201:10227   */\n      swap1\n      pop\n        /* \"#utility.yul\":10273:10282   */\n      dup2\n        /* \"#utility.yul\":10267:10271   */\n      dup2\n        /* \"#utility.yul\":10263:10283   */\n      sub\n        /* \"#utility.yul\":10259:10260   */\n      0x00\n        /* \"#utility.yul\":10248:10257   */\n      dup4\n        /* \"#utility.yul\":10244:10261   */\n      add\n        /* \"#utility.yul\":10237:10284   */\n      mstore\n        /* \"#utility.yul\":10301:10432   */\n      tag_274\n        /* \"#utility.yul\":10427:10431   */\n      dup2\n        /* \"#utility.yul\":10301:10432   */\n      tag_155\n      jump\t// in\n    tag_274:\n        /* \"#utility.yul\":10293:10432   */\n      swap1\n      pop\n        /* \"#utility.yul\":10020:10439   */\n      swap2\n      swap1\n      pop\n      jump\t// out\n        /* \"#utility.yul\":10445:10625   */\n    tag_156:\n        /* \"#utility.yul\":10493:10570   */\n      0x4e487b7100000000000000000000000000000000000000000000000000000000\n        /* \"#utility.yul\":10490:10491   */\n      0x00\n        /* \"#utility.yul\":10483:10571   */\n      mstore\n        /* \"#utility.yul\":10590:10594   */\n      0x11\n        /* \"#utility.yul\":10587:10588   */\n      0x04\n        /* \"#utility.yul\":10580:10595   */\n      mstore\n        /* \"#utility.yul\":10614:10618   */\n      0x24\n        /* \"#utility.yul\":10611:10612   */\n      0x00\n        /* \"#utility.yul\":10604:10619   */\n      revert\n        /* \"#utility.yul\":10631:10864   */\n    tag_80:\n        /* \"#utility.yul\":10670:10673   */\n      0x00\n        /* \"#utility.yul\":10693:10717   */\n      tag_277\n        /* \"#utility.yul\":10711:10716   */\n      dup3\n        /* \"#utility.yul\":10693:10717   */\n      tag_126\n      jump\t// in\n    tag_277:\n        /* \"#utility.yul\":10684:10717   */\n      swap2\n      pop\n        /* \"#utility.yul\":10739:10805   */\n      0xffffffffffffffffffffffffffffffffffffffffffffffffffffffffffffffff\n        /* \"#utility.yul\":10732:10737   */\n      dup3\n        /* \"#utility.yul\":10729:10806   */\n      sub\n        /* \"#utility.yul\":10726:10829   */\n      tag_278\n      jumpi\n        /* \"#utility.yul\":10809:10827   */\n      tag_279\n      tag_156\n      jump\t// in\n    tag_279:\n        /* \"#utility.yul\":10726:10829   */\n    tag_278:\n        /* \"#utility.yul\":10856:10857   */\n      0x01\n        /* \"#utility.yul\":10849:10854   */\n      dup3\n        /* \"#utility.yul\":10845:10858   */\n      add\n        /* \"#utility.yul\":10838:10858   */\n      swap1\n      pop\n        /* \"#utility.yul\":10631:10864   */\n      swap2\n      swap1\n      pop\n      jump\t// out\n        /* \"#utility.yul\":10870:11036   */\n    tag_157:\n        /* \"#utility.yul\":11010:11028   */\n      0x496e76616c696420616464726573732100000000000000000000000000000000\n        /* \"#utility.yul\":11006:11007   */\n      0x00\n        /* \"#utility.yul\":10998:11004   */\n      dup3\n        /* \"#utility.yul\":10994:11008   */\n      add\n        /* \"#utility.yul\":10987:11029   */\n      mstore\n        /* \"#utility.yul\":10870:11036   */\n      pop\n      jump\t// out\n        /* \"#utility.yul\":11042:11408   */\n    tag_158:\n        /* \"#utility.yul\":11184:11187   */\n      0x00\n        /* \"#utility.yul\":11205:11272   */\n      tag_282\n        /* \"#utility.yul\":11269:11271   */\n      0x10\n        /* \"#utility.yul\":11264:11267   */\n      dup4\n        /* \"#utility.yul\":11205:11272   */\n      tag_147\n      jump\t// in\n    tag_282:\n        /* \"#utility.yul\":11198:11272   */\n      swap2\n      pop\n        /* \"#utility.yul\":11281:11374   */\n      tag_283\n        /* \"#utility.yul\":11370:11373   */\n      dup3\n        /* \"#utility.yul\":11281:11374   */\n      tag_157\n      jump\t// in\n    tag_283:\n        /* \"#utility.yul\":11399:11401   */\n      0x20\n        /* \"#utility.yul\":11394:11397   */\n      dup3\n        /* \"#utility.yul\":11390:11402   */\n      add\n        /* \"#utility.yul\":11383:11402   */\n      swap1\n      pop\n        /* \"#utility.yul\":11042:11408   */\n      swap2\n      swap1\n      pop\n      jump\t// out\n        /* \"#utility.yul\":11414:11833   */\n    tag_87:\n        /* \"#utility.yul\":11580:11584   */\n      0x00\n        /* \"#utility.yul\":11618:11620   */\n      0x20\n        /* \"#utility.yul\":11607:11616   */\n      dup3\n        /* \"#utility.yul\":11603:11621   */\n      add\n        /* \"#utility.yul\":11595:11621   */\n      swap1\n      pop\n        /* \"#utility.yul\":11667:11676   */\n      dup2\n        /* \"#utility.yul\":11661:11665   */\n      dup2\n        /* \"#utility.yul\":11657:11677   */\n      sub\n        /* \"#utility.yul\":11653:11654   */\n      0x00\n        /* \"#utility.yul\":11642:11651   */\n      dup4\n        /* \"#utility.yul\":11638:11655   */\n      add\n        /* \"#utility.yul\":11631:11678   */\n      mstore\n        /* \"#utility.yul\":11695:11826   */\n      tag_285\n        /* \"#utility.yul\":11821:11825   */\n      dup2\n        /* \"#utility.yul\":11695:11826   */\n      tag_158\n      jump\t// in\n    tag_285:\n        /* \"#utility.yul\":11687:11826   */\n      swap1\n      pop\n        /* \"#utility.yul\":11414:11833   */\n      swap2\n      swap1\n      pop\n      jump\t// out\n        /* \"#utility.yul\":11839:12019   */\n    tag_159:\n        /* \"#utility.yul\":11887:11964   */\n      0x4e487b7100000000000000000000000000000000000000000000000000000000\n        /* \"#utility.yul\":11884:11885   */\n      0x00\n        /* \"#utility.yul\":11877:11965   */\n      mstore\n        /* \"#utility.yul\":11984:11988   */\n      0x41\n        /* \"#utility.yul\":11981:11982   */\n      0x04\n        /* \"#utility.yul\":11974:11989   */\n      mstore\n        /* \"#utility.yul\":12008:12012   */\n      0x24\n        /* \"#utility.yul\":12005:12006   */\n      0x00\n        /* \"#utility.yul\":11998:12013   */\n      revert\n        /* \"#utility.yul\":12025:12165   */\n    tag_160:\n        /* \"#utility.yul\":12073:12077   */\n      0x00\n        /* \"#utility.yul\":12096:12099   */\n      dup2\n        /* \"#utility.yul\":12088:12099   */\n      swap1\n      pop\n        /* \"#utility.yul\":12119:12122   */\n      dup2\n        /* \"#utility.yul\":12116:12117   */\n      0x00\n        /* \"#utility.yul\":12109:12123   */\n      mstore\n        /* \"#utility.yul\":12153:12157   */\n      0x20\n        /* \"#utility.yul\":12150:12151   */\n      0x00\n        /* \"#utility.yul\":12140:12158   */\n      keccak256\n        /* \"#utility.yul\":12132:12158   */\n      swap1\n      pop\n        /* \"#utility.yul\":12025:12165   */\n      swap2\n      swap1\n      pop\n      jump\t// out\n        /* \"#utility.yul\":12171:12264   */\n    tag_161:\n        /* \"#utility.yul\":12208:12214   */\n      0x00\n        /* \"#utility.yul\":12255:12257   */\n      0x20\n        /* \"#utility.yul\":12250:12252   */\n      0x1f\n        /* \"#utility.yul\":12243:12248   */\n      dup4\n        /* \"#utility.yul\":12239:12253   */\n      add\n        /* \"#utility.yul\":12235:12258   */\n      div\n        /* \"#utility.yul\":12225:12258   */\n      swap1\n      pop\n        /* \"#utility.yul\":12171:12264   */\n      swap2\n      swap1\n      pop\n      jump\t// out\n        /* \"#utility.yul\":12270:12377   */\n    tag_162:\n        /* \"#utility.yul\":12314:12322   */\n      0x00\n        /* \"#utility.yul\":12364:12369   */\n      dup3\n        /* \"#utility.yul\":12358:12362   */\n      dup3\n        /* \"#utility.yul\":12354:12370   */\n      shl\n        /* \"#utility.yul\":12333:12370   */\n      swap1\n      pop\n        /* \"#utility.yul\":12270:12377   */\n      swap3\n      swap2\n      pop\n      pop\n      jump\t// out\n        /* \"#utility.yul\":12383:12776   */\n    tag_163:\n        /* \"#utility.yul\":12452:12458   */\n      0x00\n        /* \"#utility.yul\":12502:12503   */\n      0x08\n        /* \"#utility.yul\":12490:12500   */\n      dup4\n        /* \"#utility.yul\":12486:12504   */\n      mul\n        /* \"#utility.yul\":12525:12622   */\n      tag_291\n        /* \"#utility.yul\":12555:12621   */\n      0xffffffffffffffffffffffffffffffffffffffffffffffffffffffffffffffff\n        /* \"#utility.yul\":12544:12553   */\n      dup3\n        /* \"#utility.yul\":12525:12622   */\n      tag_162\n      jump\t// in\n    tag_291:\n        /* \"#utility.yul\":12643:12682   */\n      tag_292\n        /* \"#utility.yul\":12673:12681   */\n      dup7\n        /* \"#utility.yul\":12662:12671   */\n      dup4\n        /* \"#utility.yul\":12643:12682   */\n      tag_162\n      jump\t// in\n    tag_292:\n        /* \"#utility.yul\":12631:12682   */\n      swap6\n      pop\n        /* \"#utility.yul\":12715:12719   */\n      dup1\n        /* \"#utility.yul\":12711:12720   */\n      not\n        /* \"#utility.yul\":12704:12709   */\n      dup5\n        /* \"#utility.yul\":12700:12721   */\n      and\n        /* \"#utility.yul\":12691:12721   */\n      swap4\n      pop\n        /* \"#utility.yul\":12764:12768   */\n      dup1\n        /* \"#utility.yul\":12754:12762   */\n      dup7\n        /* \"#utility.yul\":12750:12769   */\n      and\n        /* \"#utility.yul\":12743:12748   */\n      dup5\n        /* \"#utility.yul\":12740:12770   */\n      or\n        /* \"#utility.yul\":12730:12770   */\n      swap3\n      pop\n        /* \"#utility.yul\":12459:12776   */\n      pop\n      pop\n        /* \"#utility.yul\":12383:12776   */\n      swap4\n      swap3\n      pop\n      pop\n      pop\n      jump\t// out\n        /* \"#utility.yul\":12782:12842   */\n    tag_164:\n        /* \"#utility.yul\":12810:12813   */\n      0x00\n        /* \"#utility.yul\":12831:12836   */\n      dup2\n        /* \"#utility.yul\":12824:12836   */\n      swap1\n      pop\n        /* \"#utility.yul\":12782:12842   */\n      swap2\n      swap1\n      pop\n      jump\t// out\n        /* \"#utility.yul\":12848:12990   */\n    tag_165:\n        /* \"#utility.yul\":12898:12907   */\n      0x00\n        /* \"#utility.yul\":12931:12984   */\n      tag_295\n        /* \"#utility.yul\":12949:12983   */\n      tag_296\n        /* \"#utility.yul\":12958:12982   */\n      tag_297\n        /* \"#utility.yul\":12976:12981   */\n      dup5\n        /* \"#utility.yul\":12958:12982   */\n      tag_126\n      jump\t// in\n    tag_297:\n        /* \"#utility.yul\":12949:12983   */\n      tag_164\n      jump\t// in\n    tag_296:\n        /* \"#utility.yul\":12931:12984   */\n      tag_126\n      jump\t// in\n    tag_295:\n        /* \"#utility.yul\":12918:12984   */\n      swap1\n      pop\n        /* \"#utility.yul\":12848:12990   */\n      swap2\n      swap1\n      pop\n      jump\t// out\n        /* \"#utility.yul\":12996:13071   */\n    tag_166:\n        /* \"#utility.yul\":13039:13042   */\n      0x00\n        /* \"#utility.yul\":13060:13065   */\n      dup2\n        /* \"#utility.yul\":13053:13065   */\n      swap1\n      pop\n        /* \"#utility.yul\":12996:13071   */\n      swap2\n      swap1\n      pop\n      jump\t// out\n        /* \"#utility.yul\":13077:13346   */\n    tag_167:\n        /* \"#utility.yul\":13187:13226   */\n      tag_300\n        /* \"#utility.yul\":13218:13225   */\n      dup4\n        /* \"#utility.yul\":13187:13226   */\n      tag_165\n      jump\t// in\n    tag_300:\n        /* \"#utility.yul\":13248:13339   */\n      tag_301\n        /* \"#utility.yul\":13297:13338   */\n      tag_302\n        /* \"#utility.yul\":13321:13337   */\n      dup3\n        /* \"#utility.yul\":13297:13338   */\n      tag_166\n      jump\t// in\n    tag_302:\n        /* \"#utility.yul\":13289:13295   */\n      dup5\n        /* \"#utility.yul\":13282:13286   */\n      dup5\n        /* \"#utility.yul\":13276:13287   */\n      sload\n        /* \"#utility.yul\":13248:13339   */\n      tag_163\n      jump\t// in\n    tag_301:\n        /* \"#utility.yul\":13242:13246   */\n      dup3\n        /* \"#utility.yul\":13235:13340   */\n      sstore\n        /* \"#utility.yul\":13153:13346   */\n      pop\n        /* \"#utility.yul\":13077:13346   */\n      pop\n      pop\n      pop\n      jump\t// out\n        /* \"#utility.yul\":13352:13425   */\n    tag_168:\n        /* \"#utility.yul\":13397:13400   */\n      0x00\n        /* \"#utility.yul\":13418:13419   */\n      0x00\n        /* \"#utility.yul\":13411:13419   */\n      swap1\n      pop\n        /* \"#utility.yul\":13352:13425   */\n      swap1\n      jump\t// out\n        /* \"#utility.yul\":13431:13620   */\n    tag_169:\n        /* \"#utility.yul\":13508:13540   */\n      tag_305\n      tag_168\n      jump\t// in\n    tag_305:\n        /* \"#utility.yul\":13549:13614   */\n      tag_306\n        /* \"#utility.yul\":13607:13613   */\n      dup2\n        /* \"#utility.yul\":13599:13605   */\n      dup5\n        /* \"#utility.yul\":13593:13597   */\n      dup5\n        /* \"#utility.yul\":13549:13614   */\n      tag_167\n      jump\t// in\n    tag_306:\n        /* \"#utility.yul\":13484:13620   */\n      pop\n        /* \"#utility.yul\":13431:13620   */\n      pop\n      pop\n      jump\t// out\n        /* \"#utility.yul\":13626:13840   */\n    tag_170:\n        /* \"#utility.yul\":13711:13712   */\n      0x00\n        /* \"#utility.yul\":13696:13834   */\n    tag_308:\n        /* \"#utility.yul\":13721:13730   */\n      dup3\n        /* \"#utility.yul\":13718:13719   */\n      dup2\n        /* \"#utility.yul\":13715:13731   */\n      lt\n        /* \"#utility.yul\":13696:13834   */\n      iszero\n      tag_310\n      jumpi\n        /* \"#utility.yul\":13773:13824   */\n      tag_311\n        /* \"#utility.yul\":13822:13823   */\n      0x00\n        /* \"#utility.yul\":13818:13819   */\n      dup3\n        /* \"#utility.yul\":13807:13816   */\n      dup5\n        /* \"#utility.yul\":13803:13820   */\n      add\n        /* \"#utility.yul\":13773:13824   */\n      tag_169\n      jump\t// in\n    tag_311:\n        /* \"#utility.yul\":13746:13747   */\n      0x01\n        /* \"#utility.yul\":13743:13744   */\n      dup2\n        /* \"#utility.yul\":13739:13748   */\n      add\n        /* \"#utility.yul\":13734:13748   */\n      swap1\n      pop\n        /* \"#utility.yul\":13696:13834   */\n      jump(tag_308)\n    tag_310:\n        /* \"#utility.yul\":13700:13714   */\n      pop\n        /* \"#utility.yul\":13626:13840   */\n      pop\n      pop\n      jump\t// out\n        /* \"#utility.yul\":13846:14590   */\n    tag_171:\n        /* \"#utility.yul\":13946:13948   */\n      0x1f\n        /* \"#utility.yul\":13941:13944   */\n      dup3\n        /* \"#utility.yul\":13938:13949   */\n      gt\n        /* \"#utility.yul\":13935:14583   */\n      iszero\n      tag_313\n      jumpi\n        /* \"#utility.yul\":13975:13985   */\n      dup3\n        /* \"#utility.yul\":13970:13973   */\n      dup3\n        /* \"#utility.yul\":13967:13986   */\n      gt\n        /* \"#utility.yul\":13964:14573   */\n      iszero\n      tag_314\n      jumpi\n        /* \"#utility.yul\":14021:14058   */\n      tag_315\n        /* \"#utility.yul\":14052:14057   */\n      dup2\n        /* \"#utility.yul\":14021:14058   */\n      tag_160\n      jump\t// in\n    tag_315:\n        /* \"#utility.yul\":14095:14117   */\n      tag_316\n        /* \"#utility.yul\":14113:14116   */\n      dup4\n        /* \"#utility.yul\":14095:14117   */\n      tag_161\n      jump\t// in\n    tag_316:\n        /* \"#utility.yul\":14154:14183   */\n      tag_317\n        /* \"#utility.yul\":14172:14182   */\n      dup6\n        /* \"#utility.yul\":14154:14183   */\n      tag_161\n      jump\t// in\n    tag_317:\n        /* \"#utility.yul\":14344:14346   */\n      0x20\n        /* \"#utility.yul\":14332:14342   */\n      dup7\n        /* \"#utility.yul\":14329:14347   */\n      lt\n        /* \"#utility.yul\":14326:14405   */\n      iszero\n      tag_318\n      jumpi\n        /* \"#utility.yul\":14386:14387   */\n      0x00\n        /* \"#utility.yul\":14370:14387   */\n      swap1\n      pop\n        /* \"#utility.yul\":14326:14405   */\n    tag_318:\n        /* \"#utility.yul\":14455:14467   */\n      dup1\n        /* \"#utility.yul\":14445:14453   */\n      dup4\n        /* \"#utility.yul\":14441:14468   */\n      add\n        /* \"#utility.yul\":14485:14559   */\n      tag_319\n        /* \"#utility.yul\":14545:14557   */\n      dup3\n        /* \"#utility.yul\":14531:14543   */\n      dup5\n        /* \"#utility.yul\":14527:14558   */\n      sub\n        /* \"#utility.yul\":14514:14525   */\n      dup3\n        /* \"#utility.yul\":14485:14559   */\n      tag_170\n      jump\t// in\n    tag_319:\n        /* \"#utility.yul\":13987:14573   */\n      pop\n      pop\n      pop\n      pop\n        /* \"#utility.yul\":13964:14573   */\n    tag_314:\n        /* \"#utility.yul\":13935:14583   */\n    tag_313:\n        /* \"#utility.yul\":13846:14590   */\n      pop\n      pop\n      pop\n      jump\t// out\n        /* \"#utility.yul\":14596:14713   */\n    tag_172:\n        /* \"#utility.yul\":14650:14658   */\n      0x00\n        /* \"#utility.yul\":14700:14705   */\n      dup3\n        /* \"#utility.yul\":14694:14698   */\n      dup3\n        /* \"#utility.yul\":14690:14706   */\n      shr\n        /* \"#utility.yul\":14669:14706   */\n      swap1\n      pop\n        /* \"#utility.yul\":14596:14713   */\n      swap3\n      swap2\n      pop\n      pop\n      jump\t// out\n        /* \"#utility.yul\":14719:14888   */\n    tag_173:\n        /* \"#utility.yul\":14763:14769   */\n      0x00\n        /* \"#utility.yul\":14796:14847   */\n      tag_322\n        /* \"#utility.yul\":14844:14845   */\n      0x00\n        /* \"#utility.yul\":14840:14846   */\n      not\n        /* \"#utility.yul\":14832:14837   */\n      dup5\n        /* \"#utility.yul\":14829:14830   */\n      0x08\n        /* \"#utility.yul\":14825:14838   */\n      mul\n        /* \"#utility.yul\":14796:14847   */\n      tag_172\n      jump\t// in\n    tag_322:\n        /* \"#utility.yul\":14792:14848   */\n      not\n        /* \"#utility.yul\":14877:14881   */\n      dup1\n        /* \"#utility.yul\":14871:14875   */\n      dup4\n        /* \"#utility.yul\":14867:14882   */\n      and\n        /* \"#utility.yul\":14857:14882   */\n      swap2\n      pop\n        /* \"#utility.yul\":14770:14888   */\n      pop\n        /* \"#utility.yul\":14719:14888   */\n      swap3\n      swap2\n      pop\n      pop\n      jump\t// out\n        /* \"#utility.yul\":14893:15188   */\n    tag_174:\n        /* \"#utility.yul\":14969:14973   */\n      0x00\n        /* \"#utility.yul\":15115:15144   */\n      tag_324\n        /* \"#utility.yul\":15140:15143   */\n      dup4\n        /* \"#utility.yul\":15134:15138   */\n      dup4\n        /* \"#utility.yul\":15115:15144   */\n      tag_173\n      jump\t// in\n    tag_324:\n        /* \"#utility.yul\":15107:15144   */\n      swap2\n      pop\n        /* \"#utility.yul\":15177:15180   */\n      dup3\n        /* \"#utility.yul\":15174:15175   */\n      0x02\n        /* \"#utility.yul\":15170:15181   */\n      mul\n        /* \"#utility.yul\":15164:15168   */\n      dup3\n        /* \"#utility.yul\":15161:15182   */\n      or\n        /* \"#utility.yul\":15153:15182   */\n      swap1\n      pop\n        /* \"#utility.yul\":14893:15188   */\n      swap3\n      swap2\n      pop\n      pop\n      jump\t// out\n        /* \"#utility.yul\":15193:16583   */\n    tag_94:\n        /* \"#utility.yul\":15308:15344   */\n      tag_326\n        /* \"#utility.yul\":15340:15343   */\n      dup3\n        /* \"#utility.yul\":15308:15344   */\n      tag_133\n      jump\t// in\n    tag_326:\n        /* \"#utility.yul\":15409:15427   */\n      0xffffffffffffffff\n        /* \"#utility.yul\":15401:15407   */\n      dup2\n        /* \"#utility.yul\":15398:15428   */\n      gt\n        /* \"#utility.yul\":15395:15451   */\n      iszero\n      tag_327\n      jumpi\n        /* \"#utility.yul\":15431:15449   */\n      tag_328\n      tag_159\n      jump\t// in\n    tag_328:\n        /* \"#utility.yul\":15395:15451   */\n    tag_327:\n        /* \"#utility.yul\":15475:15513   */\n      tag_329\n        /* \"#utility.yul\":15507:15511   */\n      dup3\n        /* \"#utility.yul\":15501:15512   */\n      sload\n        /* \"#utility.yul\":15475:15513   */\n      tag_57\n      jump\t// in\n    tag_329:\n        /* \"#utility.yul\":15560:15626   */\n      tag_330\n        /* \"#utility.yul\":15619:15625   */\n      dup3\n        /* \"#utility.yul\":15611:15617   */\n      dup3\n        /* \"#utility.yul\":15605:15609   */\n      dup6\n        /* \"#utility.yul\":15560:15626   */\n      tag_171\n      jump\t// in\n    tag_330:\n        /* \"#utility.yul\":15653:15654   */\n      0x00\n        /* \"#utility.yul\":15677:15681   */\n      0x20\n        /* \"#utility.yul\":15664:15681   */\n      swap1\n      pop\n        /* \"#utility.yul\":15709:15711   */\n      0x1f\n        /* \"#utility.yul\":15701:15707   */\n      dup4\n        /* \"#utility.yul\":15698:15712   */\n      gt\n        /* \"#utility.yul\":15726:15727   */\n      0x01\n        /* \"#utility.yul\":15721:16338   */\n      dup2\n      eq\n      tag_332\n      jumpi\n        /* \"#utility.yul\":16382:16383   */\n      0x00\n        /* \"#utility.yul\":16399:16405   */\n      dup5\n        /* \"#utility.yul\":16396:16473   */\n      iszero\n      tag_333\n      jumpi\n        /* \"#utility.yul\":16448:16457   */\n      dup3\n        /* \"#utility.yul\":16443:16446   */\n      dup8\n        /* \"#utility.yul\":16439:16458   */\n      add\n        /* \"#utility.yul\":16433:16459   */\n      mload\n        /* \"#utility.yul\":16424:16459   */\n      swap1\n      pop\n        /* \"#utility.yul\":16396:16473   */\n    tag_333:\n        /* \"#utility.yul\":16499:16566   */\n      tag_334\n        /* \"#utility.yul\":16559:16565   */\n      dup6\n        /* \"#utility.yul\":16552:16557   */\n      dup3\n        /* \"#utility.yul\":16499:16566   */\n      tag_174\n      jump\t// in\n    tag_334:\n        /* \"#utility.yul\":16493:16497   */\n      dup7\n        /* \"#utility.yul\":16486:16567   */\n      sstore\n        /* \"#utility.yul\":16355:16577   */\n      pop\n        /* \"#utility.yul\":15691:16577   */\n      jump(tag_331)\n        /* \"#utility.yul\":15721:16338   */\n    tag_332:\n        /* \"#utility.yul\":15773:15777   */\n      0x1f\n        /* \"#utility.yul\":15769:15778   */\n      not\n        /* \"#utility.yul\":15761:15767   */\n      dup5\n        /* \"#utility.yul\":15757:15779   */\n      and\n        /* \"#utility.yul\":15807:15843   */\n      tag_335\n        /* \"#utility.yul\":15838:15842   */\n      dup7\n        /* \"#utility.yul\":15807:15843   */\n      tag_160\n      jump\t// in\n    tag_335:\n        /* \"#utility.yul\":15865:15866   */\n      0x00\n        /* \"#utility.yul\":15879:16087   */\n    tag_336:\n        /* \"#utility.yul\":15893:15900   */\n      dup3\n        /* \"#utility.yul\":15890:15891   */\n      dup2\n        /* \"#utility.yul\":15887:15901   */\n      lt\n        /* \"#utility.yul\":15879:16087   */\n      iszero\n      tag_338\n      jumpi\n        /* \"#utility.yul\":15972:15981   */\n      dup5\n        /* \"#utility.yul\":15967:15970   */\n      dup10\n        /* \"#utility.yul\":15963:15982   */\n      add\n        /* \"#utility.yul\":15957:15983   */\n      mload\n        /* \"#utility.yul\":15949:15955   */\n      dup3\n        /* \"#utility.yul\":15942:15984   */\n      sstore\n        /* \"#utility.yul\":16023:16024   */\n      0x01\n        /* \"#utility.yul\":16015:16021   */\n      dup3\n        /* \"#utility.yul\":16011:16025   */\n      add\n        /* \"#utility.yul\":16001:16025   */\n      swap2\n      pop\n        /* \"#utility.yul\":16070:16072   */\n      0x20\n        /* \"#utility.yul\":16059:16068   */\n      dup6\n        /* \"#utility.yul\":16055:16073   */\n      add\n        /* \"#utility.yul\":16042:16073   */\n      swap5\n      pop\n        /* \"#utility.yul\":15916:15920   */\n      0x20\n        /* \"#utility.yul\":15913:15914   */\n      dup2\n        /* \"#utility.yul\":15909:15921   */\n      add\n        /* \"#utility.yul\":15904:15921   */\n      swap1\n      pop\n        /* \"#utility.yul\":15879:16087   */\n      jump(tag_336)\n    tag_338:\n        /* \"#utility.yul\":16115:16121   */\n      dup7\n        /* \"#utility.yul\":16106:16113   */\n      dup4\n        /* \"#utility.yul\":16103:16122   */\n      lt\n        /* \"#utility.yul\":16100:16279   */\n      iszero\n      tag_339\n      jumpi\n        /* \"#utility.yul\":16173:16182   */\n      dup5\n        /* \"#utility.yul\":16168:16171   */\n      dup10\n        /* \"#utility.yul\":16164:16183   */\n      add\n        /* \"#utility.yul\":16158:16184   */\n      mload\n        /* \"#utility.yul\":16216:16264   */\n      tag_340\n        /* \"#utility.yul\":16258:16262   */\n      0x1f\n        /* \"#utility.yul\":16250:16256   */\n      dup10\n        /* \"#utility.yul\":16246:16263   */\n      and\n        /* \"#utility.yul\":16235:16244   */\n      dup3\n        /* \"#utility.yul\":16216:16264   */\n      tag_173\n      jump\t// in\n    tag_340:\n        /* \"#utility.yul\":16208:16214   */\n      dup4\n        /* \"#utility.yul\":16201:16265   */\n      sstore\n        /* \"#utility.yul\":16123:16279   */\n      pop\n        /* \"#utility.yul\":16100:16279   */\n    tag_339:\n        /* \"#utility.yul\":16325:16326   */\n      0x01\n        /* \"#utility.yul\":16321:16322   */\n      0x02\n        /* \"#utility.yul\":16313:16319   */\n      dup9\n        /* \"#utility.yul\":16309:16323   */\n      mul\n        /* \"#utility.yul\":16305:16327   */\n      add\n        /* \"#utility.yul\":16299:16303   */\n      dup9\n        /* \"#utility.yul\":16292:16328   */\n      sstore\n        /* \"#utility.yul\":15728:16338   */\n      pop\n      pop\n      pop\n        /* \"#utility.yul\":15691:16577   */\n    tag_331:\n      pop\n        /* \"#utility.yul\":15283:16583   */\n      pop\n      pop\n      pop\n        /* \"#utility.yul\":15193:16583   */\n      pop\n      pop\n      jump\t// out\n        /* \"#utility.yul\":16589:16769   */\n    tag_100:\n        /* \"#utility.yul\":16637:16714   */\n      0x4e487b7100000000000000000000000000000000000000000000000000000000\n        /* \"#utility.yul\":16634:16635   */\n      0x00\n        /* \"#utility.yul\":16627:16715   */\n      mstore\n        /* \"#utility.yul\":16734:16738   */\n      0x32\n        /* \"#utility.yul\":16731:16732   */\n      0x04\n        /* \"#utility.yul\":16724:16739   */\n      mstore\n        /* \"#utility.yul\":16758:16762   */\n      0x24\n        /* \"#utility.yul\":16755:16756   */\n      0x00\n        /* \"#utility.yul\":16748:16763   */\n      revert\n        /* \"#utility.yul\":16775:16953   */\n    tag_175:\n        /* \"#utility.yul\":16915:16945   */\n      0x5265717569726573206d756c7469706c65207369676e61747572657300000000\n        /* \"#utility.yul\":16911:16912   */\n      0x00\n        /* \"#utility.yul\":16903:16909   */\n      dup3\n        /* \"#utility.yul\":16899:16913   */\n      add\n        /* \"#utility.yul\":16892:16946   */\n      mstore\n        /* \"#utility.yul\":16775:16953   */\n      pop\n      jump\t// out\n        /* \"#utility.yul\":16959:17325   */\n    tag_176:\n        /* \"#utility.yul\":17101:17104   */\n      0x00\n        /* \"#utility.yul\":17122:17189   */\n      tag_344\n        /* \"#utility.yul\":17186:17188   */\n      0x1c\n        /* \"#utility.yul\":17181:17184   */\n      dup4\n        /* \"#utility.yul\":17122:17189   */\n      tag_147\n      jump\t// in\n    tag_344:\n        /* \"#utility.yul\":17115:17189   */\n      swap2\n      pop\n        /* \"#utility.yul\":17198:17291   */\n      tag_345\n        /* \"#utility.yul\":17287:17290   */\n      dup3\n        /* \"#utility.yul\":17198:17291   */\n      tag_175\n      jump\t// in\n    tag_345:\n        /* \"#utility.yul\":17316:17318   */\n      0x20\n        /* \"#utility.yul\":17311:17314   */\n      dup3\n        /* \"#utility.yul\":17307:17319   */\n      add\n        /* \"#utility.yul\":17300:17319   */\n      swap1\n      pop\n        /* \"#utility.yul\":16959:17325   */\n      swap2\n      swap1\n      pop\n      jump\t// out\n        /* \"#utility.yul\":17331:17750   */\n    tag_115:\n        /* \"#utility.yul\":17497:17501   */\n      0x00\n        /* \"#utility.yul\":17535:17537   */\n      0x20\n        /* \"#utility.yul\":17524:17533   */\n      dup3\n        /* \"#utility.yul\":17520:17538   */\n      add\n        /* \"#utility.yul\":17512:17538   */\n      swap1\n      pop\n        /* \"#utility.yul\":17584:17593   */\n      dup2\n        /* \"#utility.yul\":17578:17582   */\n      dup2\n        /* \"#utility.yul\":17574:17594   */\n      sub\n        /* \"#utility.yul\":17570:17571   */\n      0x00\n        /* \"#utility.yul\":17559:17568   */\n      dup4\n        /* \"#utility.yul\":17555:17572   */\n      add\n        /* \"#utility.yul\":17548:17595   */\n      mstore\n        /* \"#utility.yul\":17612:17743   */\n      tag_347\n        /* \"#utility.yul\":17738:17742   */\n      dup2\n        /* \"#utility.yul\":17612:17743   */\n      tag_176\n      jump\t// in\n    tag_347:\n        /* \"#utility.yul\":17604:17743   */\n      swap1\n      pop\n        /* \"#utility.yul\":17331:17750   */\n      swap2\n      swap1\n      pop\n      jump\t// out\n        /* \"#utility.yul\":17756:17903   */\n    tag_177:\n        /* \"#utility.yul\":17857:17868   */\n      0x00\n        /* \"#utility.yul\":17894:17897   */\n      dup2\n        /* \"#utility.yul\":17879:17897   */\n      swap1\n      pop\n        /* \"#utility.yul\":17756:17903   */\n      swap3\n      swap2\n      pop\n      pop\n      jump\t// out\n        /* \"#utility.yul\":17931:18801   */\n    tag_178:\n        /* \"#utility.yul\":18032:18035   */\n      0x00\n        /* \"#utility.yul\":18069:18074   */\n      dup2\n        /* \"#utility.yul\":18063:18075   */\n      sload\n        /* \"#utility.yul\":18098:18134   */\n      tag_350\n        /* \"#utility.yul\":18124:18133   */\n      dup2\n        /* \"#utility.yul\":18098:18134   */\n      tag_57\n      jump\t// in\n    tag_350:\n        /* \"#utility.yul\":18150:18238   */\n      tag_351\n        /* \"#utility.yul\":18231:18237   */\n      dup2\n        /* \"#utility.yul\":18226:18229   */\n      dup7\n        /* \"#utility.yul\":18150:18238   */\n      tag_177\n      jump\t// in\n    tag_351:\n        /* \"#utility.yul\":18143:18238   */\n      swap5\n      pop\n        /* \"#utility.yul\":18269:18270   */\n      0x01\n        /* \"#utility.yul\":18258:18267   */\n      dup3\n        /* \"#utility.yul\":18254:18271   */\n      and\n        /* \"#utility.yul\":18285:18286   */\n      0x00\n        /* \"#utility.yul\":18280:18446   */\n      dup2\n      eq\n      tag_353\n      jumpi\n        /* \"#utility.yul\":18460:18461   */\n      0x01\n        /* \"#utility.yul\":18455:18795   */\n      dup2\n      eq\n      tag_354\n      jumpi\n        /* \"#utility.yul\":18247:18795   */\n      jump(tag_352)\n        /* \"#utility.yul\":18280:18446   */\n    tag_353:\n        /* \"#utility.yul\":18364:18368   */\n      0xff\n        /* \"#utility.yul\":18360:18369   */\n      not\n        /* \"#utility.yul\":18349:18358   */\n      dup4\n        /* \"#utility.yul\":18345:18370   */\n      and\n        /* \"#utility.yul\":18340:18343   */\n      dup7\n        /* \"#utility.yul\":18333:18371   */\n      mstore\n        /* \"#utility.yul\":18426:18432   */\n      dup2\n        /* \"#utility.yul\":18419:18433   */\n      iszero\n        /* \"#utility.yul\":18412:18434   */\n      iszero\n        /* \"#utility.yul\":18404:18410   */\n      dup3\n        /* \"#utility.yul\":18400:18435   */\n      mul\n        /* \"#utility.yul\":18395:18398   */\n      dup7\n        /* \"#utility.yul\":18391:18436   */\n      add\n        /* \"#utility.yul\":18384:18436   */\n      swap4\n      pop\n        /* \"#utility.yul\":18280:18446   */\n      jump(tag_352)\n        /* \"#utility.yul\":18455:18795   */\n    tag_354:\n        /* \"#utility.yul\":18522:18559   */\n      tag_355\n        /* \"#utility.yul\":18553:18558   */\n      dup6\n        /* \"#utility.yul\":18522:18559   */\n      tag_160\n      jump\t// in\n    tag_355:\n        /* \"#utility.yul\":18581:18582   */\n      0x00\n        /* \"#utility.yul\":18595:18749   */\n    tag_356:\n        /* \"#utility.yul\":18609:18615   */\n      dup4\n        /* \"#utility.yul\":18606:18607   */\n      dup2\n        /* \"#utility.yul\":18603:18616   */\n      lt\n        /* \"#utility.yul\":18595:18749   */\n      iszero\n      tag_358\n      jumpi\n        /* \"#utility.yul\":18683:18690   */\n      dup2\n        /* \"#utility.yul\":18677:18691   */\n      sload\n        /* \"#utility.yul\":18673:18674   */\n      dup2\n        /* \"#utility.yul\":18668:18671   */\n      dup10\n        /* \"#utility.yul\":18664:18675   */\n      add\n        /* \"#utility.yul\":18657:18692   */\n      mstore\n        /* \"#utility.yul\":18733:18734   */\n      0x01\n        /* \"#utility.yul\":18724:18731   */\n      dup3\n        /* \"#utility.yul\":18720:18735   */\n      add\n        /* \"#utility.yul\":18709:18735   */\n      swap2\n      pop\n        /* \"#utility.yul\":18631:18635   */\n      0x20\n        /* \"#utility.yul\":18628:18629   */\n      dup2\n        /* \"#utility.yul\":18624:18636   */\n      add\n        /* \"#utility.yul\":18619:18636   */\n      swap1\n      pop\n        /* \"#utility.yul\":18595:18749   */\n      jump(tag_356)\n    tag_358:\n        /* \"#utility.yul\":18778:18784   */\n      dup4\n        /* \"#utility.yul\":18773:18776   */\n      dup9\n        /* \"#utility.yul\":18769:18785   */\n      add\n        /* \"#utility.yul\":18762:18785   */\n      swap6\n      pop\n        /* \"#utility.yul\":18462:18795   */\n      pop\n      pop\n        /* \"#utility.yul\":18247:18795   */\n    tag_352:\n      pop\n        /* \"#utility.yul\":18036:18801   */\n      pop\n      pop\n        /* \"#utility.yul\":17931:18801   */\n      swap3\n      swap2\n      pop\n      pop\n      jump\t// out\n        /* \"#utility.yul\":18807:19072   */\n    tag_117:\n        /* \"#utility.yul\":18934:18937   */\n      0x00\n        /* \"#utility.yul\":18956:19046   */\n      tag_360\n        /* \"#utility.yul\":19042:19045   */\n      dup3\n        /* \"#utility.yul\":19033:19039   */\n      dup5\n        /* \"#utility.yul\":18956:19046   */\n      tag_178\n      jump\t// in\n    tag_360:\n        /* \"#utility.yul\":18949:19046   */\n      swap2\n      pop\n        /* \"#utility.yul\":19063:19066   */\n      dup2\n        /* \"#utility.yul\":19056:19066   */\n      swap1\n      pop\n        /* \"#utility.yul\":18807:19072   */\n      swap3\n      swap2\n      pop\n      pop\n      jump\t// out\n        /* \"#utility.yul\":19078:19398   */\n    tag_122:\n        /* \"#utility.yul\":19193:19197   */\n      0x00\n        /* \"#utility.yul\":19231:19233   */\n      0x40\n        /* \"#utility.yul\":19220:19229   */\n      dup3\n        /* \"#utility.yul\":19216:19234   */\n      add\n        /* \"#utility.yul\":19208:19234   */\n      swap1\n      pop\n        /* \"#utility.yul\":19244:19315   */\n      tag_362\n        /* \"#utility.yul\":19312:19313   */\n      0x00\n        /* \"#utility.yul\":19301:19310   */\n      dup4\n        /* \"#utility.yul\":19297:19314   */\n      add\n        /* \"#utility.yul\":19288:19294   */\n      dup6\n        /* \"#utility.yul\":19244:19315   */\n      tag_132\n      jump\t// in\n    tag_362:\n        /* \"#utility.yul\":19325:19391   */\n      tag_363\n        /* \"#utility.yul\":19387:19389   */\n      0x20\n        /* \"#utility.yul\":19376:19385   */\n      dup4\n        /* \"#utility.yul\":19372:19390   */\n      add\n        /* \"#utility.yul\":19363:19369   */\n      dup5\n        /* \"#utility.yul\":19325:19391   */\n      tag_139\n      jump\t// in\n    tag_363:\n        /* \"#utility.yul\":19078:19398   */\n      swap4\n      swap3\n      pop\n      pop\n      pop\n      jump\t// out\n\n    auxdata: 0xa2646970667358221220f8afac136ee6c7bf75285f283923ea750d7b62263f2e2a4169d1ac21a93580e364736f6c63430008220033\n}\n",
				"bytecode": {
					"linkReferences": {},
					"object": "60806040525f600355348015610013575f5ffd5b50604051611bb1380380611bb1833981810160405281019061003591906102cb565b815f908161004391906104f7565b505f5f90505b82518110156100ce57600160025f85848151811061006a5761006961057b565b5b602002602001015173ffffffffffffffffffffffffffffffffffffffff1673ffffffffffffffffffffffffffffffffffffffff1681526020019081526020015f205f6101000a81548160ff0219169083151502179055508080600101915050610049565b508060018190555050506105a8565b5f604051905090565b5f5ffd5b5f5ffd5b5f5ffd5b5f601f19601f8301169050919050565b7f4e487b71000000000000000000000000000000000000000000000000000000005f52604160045260245ffd5b610138826100f2565b810181811067ffffffffffffffff8211171561015757610156610102565b5b80604052505050565b5f6101696100dd565b9050610175828261012f565b919050565b5f67ffffffffffffffff82111561019457610193610102565b5b602082029050602081019050919050565b5f5ffd5b5f73ffffffffffffffffffffffffffffffffffffffff82169050919050565b5f6101d2826101a9565b9050919050565b6101e2816101c8565b81146101ec575f5ffd5b50565b5f815190506101fd816101d9565b92915050565b5f6102156102108461017a565b610160565b90508083825260208201905060208402830185811115610238576102376101a5565b5b835b81811015610261578061024d88826101ef565b84526020840193505060208101905061023a565b5050509392505050565b5f82601f83011261027f5761027e6100ee565b5b815161028f848260208601610203565b91505092915050565b5f819050919050565b6102aa81610298565b81146102b4575f5ffd5b50565b5f815190506102c5816102a1565b92915050565b5f5f604083850312156102e1576102e06100e6565b5b5f83015167ffffffffffffffff8111156102fe576102fd6100ea565b5b61030a8582860161026b565b925050602061031b858286016102b7565b9150509250929050565b5f81549050919050565b5f8190506001806001038301049050919050565b5f819050815f5260205f209050919050565b5f82821b905092915050565b5f600883026103907fffffffffffffffffffffffffffffffffffffffffffffffffffffffffffffffff82610355565b61039a8683610355565b95508019841693508086168417925050509392505050565b5f819050919050565b5f6103d56103d06103cb84610298565b6103b2565b610298565b9050919050565b5f819050919050565b6103ee836103bb565b6104026103fa826103dc565b848454610361565b825550505050565b5f5f905090565b61041961040a565b6104248184846103e5565b505050565b5f5b8281101561044a5761043f5f828401610411565b60018101905061042b565b505050565b81831015610486576104608261032f565b6104698461032f565b61047283610343565b81810161048183850382610429565b505050505b505050565b680100000000000000008211156104a5576104a4610102565b5b6104ae81610325565b8282556104bc83828461044f565b505050565b5f81519050919050565b5f6104d682516101c8565b80915050919050565b5f819050602082019050919050565b5f819050919050565b610500826104c1565b67ffffffffffffffff81111561051957610518610102565b5b610523818361048b565b61052c836104df565b61053583610343565b600183045f5b81811015610572575f61054d856104cb565b610556816104ee565b809250602087019650505080828501555060018101905061053b565b50505050505050565b7f4e487b71000000000000000000000000000000000000000000000000000000005f52603260045260245ffd5b6115fc806105b55f395ff3fe60806040526004361061007e575f3560e01c8063c01a8c841161004d578063c01a8c8414610159578063c642747414610181578063dc8452cd146101a9578063ee22610b146101d357610085565b8063025e7c271461008957806312065fe0146100c55780639ace38c2146100ef578063b77bf6001461012f57610085565b3661008557005b5f5ffd5b348015610094575f5ffd5b506100af60048036038101906100aa9190610c4b565b6101fb565b6040516100bc9190610cb5565b60405180910390f35b3480156100d0575f5ffd5b506100d9610235565b6040516100e69190610cdd565b60405180910390f35b3480156100fa575f5ffd5b5061011560048036038101906101109190610c4b565b61023c565b604051610126959493929190610d80565b60405180910390f35b34801561013a575f5ffd5b5061014361031f565b6040516101509190610cdd565b60405180910390f35b348015610164575f5ffd5b5061017f600480360381019061017a9190610c4b565b610325565b005b34801561018c575f5ffd5b506101a760048036038101906101a29190610e63565b610626565b005b3480156101b4575f5ffd5b506101bd610976565b6040516101ca9190610cdd565b60405180910390f35b3480156101de575f5ffd5b506101f960048036038101906101f49190610c4b565b61097c565b005b5f8181548110610209575f80fd5b905f5260205f20015f915054906101000a900473ffffffffffffffffffffffffffffffffffffffff1681565b5f47905090565b6004602052805f5260405f205f91509050805f015f9054906101000a900473ffffffffffffffffffffffffffffffffffffffff169080600101549080600201805461028690610f01565b80601f01602080910402602001604051908101604052809291908181526020018280546102b290610f01565b80156102fd5780601f106102d4576101008083540402835291602001916102fd565b820191905f5260205f20905b8154815290600101906020018083116102e057829003601f168201915b505050505090806003015f9054906101000a900460ff16908060040154905085565b60035481565b8060035481111561036b576040517f08c379a000000000000000000000000000000000000000000000000000000000815260040161036290610f8b565b60405180910390fd5b8160045f8281526020019081526020015f206003015f9054906101000a900460ff16156103cd576040517f08c379a00000000000000000000000000000000000000000000000000000000081526004016103c490610ff3565b60405180910390fd5b60025f3373ffffffffffffffffffffffffffffffffffffffff1673ffffffffffffffffffffffffffffffffffffffff1681526020019081526020015f205f9054906101000a900460ff16610456576040517f08c379a000000000000000000000000000000000000000000000000000000000815260040161044d9061105b565b60405180910390fd5b8260055f8281526020019081526020015f205f3373ffffffffffffffffffffffffffffffffffffffff1673ffffffffffffffffffffffffffffffffffffffff1681526020019081526020015f205f9054906101000a900460ff16156104f0576040517f08c379a00000000000000000000000000000000000000000000000000000000081526004016104e7906110c3565b60405180910390fd5b60045f8581526020019081526020015f206004015f8154809291906105149061110e565b9190505550600160055f8681526020019081526020015f205f3373ffffffffffffffffffffffffffffffffffffffff1673ffffffffffffffffffffffffffffffffffffffff1681526020019081526020015f205f6101000a81548160ff02191690831515021790555060015460045f8681526020019081526020015f2060040154106105d2577fc08ee165f89bdd562bdd9a5bdbc1ecfad110bd844dc4541aa2a46b4f8e637794846040516105c99190610cdd565b60405180910390a15b3373ffffffffffffffffffffffffffffffffffffffff167fb19038bc393a1b27cedea6e0d1016fe2d8ffbe0451bc4dbfed32eb1c19ab3522856040516106189190610cdd565b60405180910390a250505050565b835f73ffffffffffffffffffffffffffffffffffffffff168173ffffffffffffffffffffffffffffffffffffffff1603610695576040517f08c379a000000000000000000000000000000000000000000000000000000000815260040161068c9061119f565b60405180910390fd5b60025f3373ffffffffffffffffffffffffffffffffffffffff1673ffffffffffffffffffffffffffffffffffffffff1681526020019081526020015f205f9054906101000a900460ff1661071e576040517f08c379a00000000000000000000000000000000000000000000000000000000081526004016107159061105b565b60405180910390fd5b60035f8154809291906107309061110e565b91905055505f6040518060a001604052808773ffffffffffffffffffffffffffffffffffffffff16815260200186815260200185858080601f0160208091040260200160405190810160405280939291908181526020018383808284375f81840152601f19601f8201169050808301925050505050505081526020015f1515815260200160035481525090508060045f60035481526020019081526020015f205f820151815f015f6101000a81548173ffffffffffffffffffffffffffffffffffffffff021916908373ffffffffffffffffffffffffffffffffffffffff160217905550602082015181600101556040820151816002019081610833919061139b565b506060820151816003015f6101000a81548160ff021916908315150217905550608082015181600401559050505f5f90505b5f8054905081101561091d575f60055f60035481526020019081526020015f205f5f84815481106108995761089861146a565b5b905f5260205f20015f9054906101000a900473ffffffffffffffffffffffffffffffffffffffff1673ffffffffffffffffffffffffffffffffffffffff1673ffffffffffffffffffffffffffffffffffffffff1681526020019081526020015f205f6101000a81548160ff0219169083151502179055508080600101915050610865565b503373ffffffffffffffffffffffffffffffffffffffff167fad9081d39974d3c3f66e3f1c87a1e97e9f64aaa7f821196885cc8acf00d799db6003546040516109669190610cdd565b60405180910390a2505050505050565b60015481565b806003548111156109c2576040517f08c379a00000000000000000000000000000000000000000000000000000000081526004016109b990610f8b565b60405180910390fd5b8160045f8281526020019081526020015f206003015f9054906101000a900460ff1615610a24576040517f08c379a0000000000000000000000000000000000000000000000000000000008152600401610a1b90610ff3565b60405180910390fd5b60025f3373ffffffffffffffffffffffffffffffffffffffff1673ffffffffffffffffffffffffffffffffffffffff1681526020019081526020015f205f9054906101000a900460ff16610aad576040517f08c379a0000000000000000000000000000000000000000000000000000000008152600401610aa49061105b565b60405180910390fd5b5f60045f8581526020019081526020015f20905060015481600401541015610b0a576040517f08c379a0000000000000000000000000000000000000000000000000000000008152600401610b01906114e1565b60405180910390fd5b5f815f015f9054906101000a900473ffffffffffffffffffffffffffffffffffffffff1673ffffffffffffffffffffffffffffffffffffffff16826001015483600201604051610b5a9190611589565b5f6040518083038185875af1925050503d805f8114610b94576040519150601f19603f3d011682016040523d82523d5f602084013e610b99565b606091505b505090506001826003015f6101000a81548160ff0219169083151502179055503373ffffffffffffffffffffffffffffffffffffffff167f8ed81ce5e46a5ccb9e26bdc1a7232741726fbb2956d0c2586dd9115ecfff752a8683604051610c0192919061159f565b60405180910390a25050505050565b5f5ffd5b5f5ffd5b5f819050919050565b610c2a81610c18565b8114610c34575f5ffd5b50565b5f81359050610c4581610c21565b92915050565b5f60208284031215610c6057610c5f610c10565b5b5f610c6d84828501610c37565b91505092915050565b5f73ffffffffffffffffffffffffffffffffffffffff82169050919050565b5f610c9f82610c76565b9050919050565b610caf81610c95565b82525050565b5f602082019050610cc85f830184610ca6565b92915050565b610cd781610c18565b82525050565b5f602082019050610cf05f830184610cce565b92915050565b5f81519050919050565b5f82825260208201905092915050565b8281835e5f83830152505050565b5f601f19601f8301169050919050565b5f610d3882610cf6565b610d428185610d00565b9350610d52818560208601610d10565b610d5b81610d1e565b840191505092915050565b5f8115159050919050565b610d7a81610d66565b82525050565b5f60a082019050610d935f830188610ca6565b610da06020830187610cce565b8181036040830152610db28186610d2e565b9050610dc16060830185610d71565b610dce6080830184610cce565b9695505050505050565b610de181610c95565b8114610deb575f5ffd5b50565b5f81359050610dfc81610dd8565b92915050565b5f5ffd5b5f5ffd5b5f5ffd5b5f5f83601f840112610e2357610e22610e02565b5b8235905067ffffffffffffffff811115610e4057610e3f610e06565b5b602083019150836001820283011115610e5c57610e5b610e0a565b5b9250929050565b5f5f5f5f60608587031215610e7b57610e7a610c10565b5b5f610e8887828801610dee565b9450506020610e9987828801610c37565b935050604085013567ffffffffffffffff811115610eba57610eb9610c14565b5b610ec687828801610e0e565b925092505092959194509250565b7f4e487b71000000000000000000000000000000000000000000000000000000005f52602260045260245ffd5b5f6002820490506001821680610f1857607f821691505b602082108103610f2b57610f2a610ed4565b5b50919050565b5f82825260208201905092915050565b7f5472616e73616374696f6e206e6f7420657869737421000000000000000000005f82015250565b5f610f75601683610f31565b9150610f8082610f41565b602082019050919050565b5f6020820190508181035f830152610fa281610f69565b9050919050565b7f5472616e73616374696f6e2065786563757465642100000000000000000000005f82015250565b5f610fdd601583610f31565b9150610fe882610fa9565b602082019050919050565b5f6020820190508181035f83015261100a81610fd1565b9050919050565b7f4f6e6c79206f776572732063616e2063616c6c210000000000000000000000005f82015250565b5f611045601483610f31565b915061105082611011565b602082019050919050565b5f6020820190508181035f83015261107281611039565b9050919050565b7f416c726561647920636f6e6669726d65642100000000000000000000000000005f82015250565b5f6110ad601283610f31565b91506110b882611079565b602082019050919050565b5f6020820190508181035f8301526110da816110a1565b9050919050565b7f4e487b71000000000000000000000000000000000000000000000000000000005f52601160045260245ffd5b5f61111882610c18565b91507fffffffffffffffffffffffffffffffffffffffffffffffffffffffffffffffff820361114a576111496110e1565b5b600182019050919050565b7f496e76616c6964206164647265737321000000000000000000000000000000005f82015250565b5f611189601083610f31565b915061119482611155565b602082019050919050565b5f6020820190508181035f8301526111b68161117d565b9050919050565b7f4e487b71000000000000000000000000000000000000000000000000000000005f52604160045260245ffd5b5f819050815f5260205f209050919050565b5f6020601f8301049050919050565b5f82821b905092915050565b5f600883026112467fffffffffffffffffffffffffffffffffffffffffffffffffffffffffffffffff8261120b565b611250868361120b565b95508019841693508086168417925050509392505050565b5f819050919050565b5f61128b61128661128184610c18565b611268565b610c18565b9050919050565b5f819050919050565b6112a483611271565b6112b86112b082611292565b848454611217565b825550505050565b5f5f905090565b6112cf6112c0565b6112da81848461129b565b505050565b5f5b82811015611300576112f55f8284016112c7565b6001810190506112e1565b505050565b601f82111561135357828211156113525761131f816111ea565b611328836111fc565b611331856111fc565b602086101561133e575f90505b80830161134d828403826112df565b505050505b5b505050565b5f82821c905092915050565b5f6113735f1984600802611358565b1980831691505092915050565b5f61138b8383611364565b9150826002028217905092915050565b6113a482610cf6565b67ffffffffffffffff8111156113bd576113bc6111bd565b5b6113c78254610f01565b6113d2828285611305565b5f60209050601f831160018114611403575f84156113f1578287015190505b6113fb8582611380565b865550611462565b601f198416611411866111ea565b5f5b8281101561143857848901518255600182019150602085019450602081019050611413565b868310156114555784890151611451601f891682611364565b8355505b6001600288020188555050505b505050505050565b7f4e487b71000000000000000000000000000000000000000000000000000000005f52603260045260245ffd5b7f5265717569726573206d756c7469706c65207369676e617475726573000000005f82015250565b5f6114cb601c83610f31565b91506114d682611497565b602082019050919050565b5f6020820190508181035f8301526114f8816114bf565b9050919050565b5f81905092915050565b5f815461151581610f01565b61151f81866114ff565b9450600182165f8114611539576001811461154e57611580565b60ff1983168652811515820286019350611580565b611557856111ea565b5f5b8381101561157857815481890152600182019150602081019050611559565b838801955050505b50505092915050565b5f6115948284611509565b915081905092915050565b5f6040820190506115b25f830185610cce565b6115bf6020830184610d71565b939250505056fea2646970667358221220f8afac136ee6c7bf75285f283923ea750d7b62263f2e2a4169d1ac21a93580e364736f6c63430008220033",
					"opcodes": "PUSH1 0x80 PUSH1 0x40 MSTORE PUSH0 PUSH1 0x3 SSTORE CALLVALUE DUP1 ISZERO PUSH2 0x13 JUMPI PUSH0 PUSH0 REVERT JUMPDEST POP PUSH1 0x40 MLOAD PUSH2 0x1BB1 CODESIZE SUB DUP1 PUSH2 0x1BB1 DUP4 CODECOPY DUP2 DUP2 ADD PUSH1 0x40 MSTORE DUP2 ADD SWAP1 PUSH2 0x35 SWAP2 SWAP1 PUSH2 0x2CB JUMP JUMPDEST DUP2 PUSH0 SWAP1 DUP2 PUSH2 0x43 SWAP2 SWAP1 PUSH2 0x4F7 JUMP JUMPDEST POP PUSH0 PUSH0 SWAP1 POP JUMPDEST DUP3 MLOAD DUP2 LT ISZERO PUSH2 0xCE JUMPI PUSH1 0x1 PUSH1 0x2 PUSH0 DUP6 DUP5 DUP2 MLOAD DUP2 LT PUSH2 0x6A JUMPI PUSH2 0x69 PUSH2 0x57B JUMP JUMPDEST JUMPDEST PUSH1 0x20 MUL PUSH1 0x20 ADD ADD MLOAD PUSH20 0xFFFFFFFFFFFFFFFFFFFFFFFFFFFFFFFFFFFFFFFF AND PUSH20 0xFFFFFFFFFFFFFFFFFFFFFFFFFFFFFFFFFFFFFFFF AND DUP2 MSTORE PUSH1 0x20 ADD SWAP1 DUP2 MSTORE PUSH1 0x20 ADD PUSH0 KECCAK256 PUSH0 PUSH2 0x100 EXP DUP2 SLOAD DUP2 PUSH1 0xFF MUL NOT AND SWAP1 DUP4 ISZERO ISZERO MUL OR SWAP1 SSTORE POP DUP1 DUP1 PUSH1 0x1 ADD SWAP2 POP POP PUSH2 0x49 JUMP JUMPDEST POP DUP1 PUSH1 0x1 DUP2 SWAP1 SSTORE POP POP POP PUSH2 0x5A8 JUMP JUMPDEST PUSH0 PUSH1 0x40 MLOAD SWAP1 POP SWAP1 JUMP JUMPDEST PUSH0 PUSH0 REVERT JUMPDEST PUSH0 PUSH0 REVERT JUMPDEST PUSH0 PUSH0 REVERT JUMPDEST PUSH0 PUSH1 0x1F NOT PUSH1 0x1F DUP4 ADD AND SWAP1 POP SWAP2 SWAP1 POP JUMP JUMPDEST PUSH32 0x4E487B7100000000000000000000000000000000000000000000000000000000 PUSH0 MSTORE PUSH1 0x41 PUSH1 0x4 MSTORE PUSH1 0x24 PUSH0 REVERT JUMPDEST PUSH2 0x138 DUP3 PUSH2 0xF2 JUMP JUMPDEST DUP2 ADD DUP2 DUP2 LT PUSH8 0xFFFFFFFFFFFFFFFF DUP3 GT OR ISZERO PUSH2 0x157 JUMPI PUSH2 0x156 PUSH2 0x102 JUMP JUMPDEST JUMPDEST DUP1 PUSH1 0x40 MSTORE POP POP POP JUMP JUMPDEST PUSH0 PUSH2 0x169 PUSH2 0xDD JUMP JUMPDEST SWAP1 POP PUSH2 0x175 DUP3 DUP3 PUSH2 0x12F JUMP JUMPDEST SWAP2 SWAP1 POP JUMP JUMPDEST PUSH0 PUSH8 0xFFFFFFFFFFFFFFFF DUP3 GT ISZERO PUSH2 0x194 JUMPI PUSH2 0x193 PUSH2 0x102 JUMP JUMPDEST JUMPDEST PUSH1 0x20 DUP3 MUL SWAP1 POP PUSH1 0x20 DUP2 ADD SWAP1 POP SWAP2 SWAP1 POP JUMP JUMPDEST PUSH0 PUSH0 REVERT JUMPDEST PUSH0 PUSH20 0xFFFFFFFFFFFFFFFFFFFFFFFFFFFFFFFFFFFFFFFF DUP3 AND SWAP1 POP SWAP2 SWAP1 POP JUMP JUMPDEST PUSH0 PUSH2 0x1D2 DUP3 PUSH2 0x1A9 JUMP JUMPDEST SWAP1 POP SWAP2 SWAP1 POP JUMP JUMPDEST PUSH2 0x1E2 DUP2 PUSH2 0x1C8 JUMP JUMPDEST DUP2 EQ PUSH2 0x1EC JUMPI PUSH0 PUSH0 REVERT JUMPDEST POP JUMP JUMPDEST PUSH0 DUP2 MLOAD SWAP1 POP PUSH2 0x1FD DUP2 PUSH2 0x1D9 JUMP JUMPDEST SWAP3 SWAP2 POP POP JUMP JUMPDEST PUSH0 PUSH2 0x215 PUSH2 0x210 DUP5 PUSH2 0x17A JUMP JUMPDEST PUSH2 0x160 JUMP JUMPDEST SWAP1 POP DUP1 DUP4 DUP3 MSTORE PUSH1 0x20 DUP3 ADD SWAP1 POP PUSH1 0x20 DUP5 MUL DUP4 ADD DUP6 DUP2 GT ISZERO PUSH2 0x238 JUMPI PUSH2 0x237 PUSH2 0x1A5 JUMP JUMPDEST JUMPDEST DUP4 JUMPDEST DUP2 DUP2 LT ISZERO PUSH2 0x261 JUMPI DUP1 PUSH2 0x24D DUP9 DUP3 PUSH2 0x1EF JUMP JUMPDEST DUP5 MSTORE PUSH1 0x20 DUP5 ADD SWAP4 POP POP PUSH1 0x20 DUP2 ADD SWAP1 POP PUSH2 0x23A JUMP JUMPDEST POP POP POP SWAP4 SWAP3 POP POP POP JUMP JUMPDEST PUSH0 DUP3 PUSH1 0x1F DUP4 ADD SLT PUSH2 0x27F JUMPI PUSH2 0x27E PUSH2 0xEE JUMP JUMPDEST JUMPDEST DUP2 MLOAD PUSH2 0x28F DUP5 DUP3 PUSH1 0x20 DUP7 ADD PUSH2 0x203 JUMP JUMPDEST SWAP2 POP POP SWAP3 SWAP2 POP POP JUMP JUMPDEST PUSH0 DUP2 SWAP1 POP SWAP2 SWAP1 POP JUMP JUMPDEST PUSH2 0x2AA DUP2 PUSH2 0x298 JUMP JUMPDEST DUP2 EQ PUSH2 0x2B4 JUMPI PUSH0 PUSH0 REVERT JUMPDEST POP JUMP JUMPDEST PUSH0 DUP2 MLOAD SWAP1 POP PUSH2 0x2C5 DUP2 PUSH2 0x2A1 JUMP JUMPDEST SWAP3 SWAP2 POP POP JUMP JUMPDEST PUSH0 PUSH0 PUSH1 0x40 DUP4 DUP6 SUB SLT ISZERO PUSH2 0x2E1 JUMPI PUSH2 0x2E0 PUSH2 0xE6 JUMP JUMPDEST JUMPDEST PUSH0 DUP4 ADD MLOAD PUSH8 0xFFFFFFFFFFFFFFFF DUP2 GT ISZERO PUSH2 0x2FE JUMPI PUSH2 0x2FD PUSH2 0xEA JUMP JUMPDEST JUMPDEST PUSH2 0x30A DUP6 DUP3 DUP7 ADD PUSH2 0x26B JUMP JUMPDEST SWAP3 POP POP PUSH1 0x20 PUSH2 0x31B DUP6 DUP3 DUP7 ADD PUSH2 0x2B7 JUMP JUMPDEST SWAP2 POP POP SWAP3 POP SWAP3 SWAP1 POP JUMP JUMPDEST PUSH0 DUP2 SLOAD SWAP1 POP SWAP2 SWAP1 POP JUMP JUMPDEST PUSH0 DUP2 SWAP1 POP PUSH1 0x1 DUP1 PUSH1 0x1 SUB DUP4 ADD DIV SWAP1 POP SWAP2 SWAP1 POP JUMP JUMPDEST PUSH0 DUP2 SWAP1 POP DUP2 PUSH0 MSTORE PUSH1 0x20 PUSH0 KECCAK256 SWAP1 POP SWAP2 SWAP1 POP JUMP JUMPDEST PUSH0 DUP3 DUP3 SHL SWAP1 POP SWAP3 SWAP2 POP POP JUMP JUMPDEST PUSH0 PUSH1 0x8 DUP4 MUL PUSH2 0x390 PUSH32 0xFFFFFFFFFFFFFFFFFFFFFFFFFFFFFFFFFFFFFFFFFFFFFFFFFFFFFFFFFFFFFFFF DUP3 PUSH2 0x355 JUMP JUMPDEST PUSH2 0x39A DUP7 DUP4 PUSH2 0x355 JUMP JUMPDEST SWAP6 POP DUP1 NOT DUP5 AND SWAP4 POP DUP1 DUP7 AND DUP5 OR SWAP3 POP POP POP SWAP4 SWAP3 POP POP POP JUMP JUMPDEST PUSH0 DUP2 SWAP1 POP SWAP2 SWAP1 POP JUMP JUMPDEST PUSH0 PUSH2 0x3D5 PUSH2 0x3D0 PUSH2 0x3CB DUP5 PUSH2 0x298 JUMP JUMPDEST PUSH2 0x3B2 JUMP JUMPDEST PUSH2 0x298 JUMP JUMPDEST SWAP1 POP SWAP2 SWAP1 POP JUMP JUMPDEST PUSH0 DUP2 SWAP1 POP SWAP2 SWAP1 POP JUMP JUMPDEST PUSH2 0x3EE DUP4 PUSH2 0x3BB JUMP JUMPDEST PUSH2 0x402 PUSH2 0x3FA DUP3 PUSH2 0x3DC JUMP JUMPDEST DUP5 DUP5 SLOAD PUSH2 0x361 JUMP JUMPDEST DUP3 SSTORE POP POP POP POP JUMP JUMPDEST PUSH0 PUSH0 SWAP1 POP SWAP1 JUMP JUMPDEST PUSH2 0x419 PUSH2 0x40A JUMP JUMPDEST PUSH2 0x424 DUP2 DUP5 DUP5 PUSH2 0x3E5 JUMP JUMPDEST POP POP POP JUMP JUMPDEST PUSH0 JUMPDEST DUP3 DUP2 LT ISZERO PUSH2 0x44A JUMPI PUSH2 0x43F PUSH0 DUP3 DUP5 ADD PUSH2 0x411 JUMP JUMPDEST PUSH1 0x1 DUP2 ADD SWAP1 POP PUSH2 0x42B JUMP JUMPDEST POP POP POP JUMP JUMPDEST DUP2 DUP4 LT ISZERO PUSH2 0x486 JUMPI PUSH2 0x460 DUP3 PUSH2 0x32F JUMP JUMPDEST PUSH2 0x469 DUP5 PUSH2 0x32F JUMP JUMPDEST PUSH2 0x472 DUP4 PUSH2 0x343 JUMP JUMPDEST DUP2 DUP2 ADD PUSH2 0x481 DUP4 DUP6 SUB DUP3 PUSH2 0x429 JUMP JUMPDEST POP POP POP POP JUMPDEST POP POP POP JUMP JUMPDEST PUSH9 0x10000000000000000 DUP3 GT ISZERO PUSH2 0x4A5 JUMPI PUSH2 0x4A4 PUSH2 0x102 JUMP JUMPDEST JUMPDEST PUSH2 0x4AE DUP2 PUSH2 0x325 JUMP JUMPDEST DUP3 DUP3 SSTORE PUSH2 0x4BC DUP4 DUP3 DUP5 PUSH2 0x44F JUMP JUMPDEST POP POP POP JUMP JUMPDEST PUSH0 DUP2 MLOAD SWAP1 POP SWAP2 SWAP1 POP JUMP JUMPDEST PUSH0 PUSH2 0x4D6 DUP3 MLOAD PUSH2 0x1C8 JUMP JUMPDEST DUP1 SWAP2 POP POP SWAP2 SWAP1 POP JUMP JUMPDEST PUSH0 DUP2 SWAP1 POP PUSH1 0x20 DUP3 ADD SWAP1 POP SWAP2 SWAP1 POP JUMP JUMPDEST PUSH0 DUP2 SWAP1 POP SWAP2 SWAP1 POP JUMP JUMPDEST PUSH2 0x500 DUP3 PUSH2 0x4C1 JUMP JUMPDEST PUSH8 0xFFFFFFFFFFFFFFFF DUP2 GT ISZERO PUSH2 0x519 JUMPI PUSH2 0x518 PUSH2 0x102 JUMP JUMPDEST JUMPDEST PUSH2 0x523 DUP2 DUP4 PUSH2 0x48B JUMP JUMPDEST PUSH2 0x52C DUP4 PUSH2 0x4DF JUMP JUMPDEST PUSH2 0x535 DUP4 PUSH2 0x343 JUMP JUMPDEST PUSH1 0x1 DUP4 DIV PUSH0 JUMPDEST DUP2 DUP2 LT ISZERO PUSH2 0x572 JUMPI PUSH0 PUSH2 0x54D DUP6 PUSH2 0x4CB JUMP JUMPDEST PUSH2 0x556 DUP2 PUSH2 0x4EE JUMP JUMPDEST DUP1 SWAP3 POP PUSH1 0x20 DUP8 ADD SWAP7 POP POP POP DUP1 DUP3 DUP6 ADD SSTORE POP PUSH1 0x1 DUP2 ADD SWAP1 POP PUSH2 0x53B JUMP JUMPDEST POP POP POP POP POP POP POP JUMP JUMPDEST PUSH32 0x4E487B7100000000000000000000000000000000000000000000000000000000 PUSH0 MSTORE PUSH1 0x32 PUSH1 0x4 MSTORE PUSH1 0x24 PUSH0 REVERT JUMPDEST PUSH2 0x15FC DUP1 PUSH2 0x5B5 PUSH0 CODECOPY PUSH0 RETURN INVALID PUSH1 0x80 PUSH1 0x40 MSTORE PUSH1 0x4 CALLDATASIZE LT PUSH2 0x7E JUMPI PUSH0 CALLDATALOAD PUSH1 0xE0 SHR DUP1 PUSH4 0xC01A8C84 GT PUSH2 0x4D JUMPI DUP1 PUSH4 0xC01A8C84 EQ PUSH2 0x159 JUMPI DUP1 PUSH4 0xC6427474 EQ PUSH2 0x181 JUMPI DUP1 PUSH4 0xDC8452CD EQ PUSH2 0x1A9 JUMPI DUP1 PUSH4 0xEE22610B EQ PUSH2 0x1D3 JUMPI PUSH2 0x85 JUMP JUMPDEST DUP1 PUSH4 0x25E7C27 EQ PUSH2 0x89 JUMPI DUP1 PUSH4 0x12065FE0 EQ PUSH2 0xC5 JUMPI DUP1 PUSH4 0x9ACE38C2 EQ PUSH2 0xEF JUMPI DUP1 PUSH4 0xB77BF600 EQ PUSH2 0x12F JUMPI PUSH2 0x85 JUMP JUMPDEST CALLDATASIZE PUSH2 0x85 JUMPI STOP JUMPDEST PUSH0 PUSH0 REVERT JUMPDEST CALLVALUE DUP1 ISZERO PUSH2 0x94 JUMPI PUSH0 PUSH0 REVERT JUMPDEST POP PUSH2 0xAF PUSH1 0x4 DUP1 CALLDATASIZE SUB DUP2 ADD SWAP1 PUSH2 0xAA SWAP2 SWAP1 PUSH2 0xC4B JUMP JUMPDEST PUSH2 0x1FB JUMP JUMPDEST PUSH1 0x40 MLOAD PUSH2 0xBC SWAP2 SWAP1 PUSH2 0xCB5 JUMP JUMPDEST PUSH1 0x40 MLOAD DUP1 SWAP2 SUB SWAP1 RETURN JUMPDEST CALLVALUE DUP1 ISZERO PUSH2 0xD0 JUMPI PUSH0 PUSH0 REVERT JUMPDEST POP PUSH2 0xD9 PUSH2 0x235 JUMP JUMPDEST PUSH1 0x40 MLOAD PUSH2 0xE6 SWAP2 SWAP1 PUSH2 0xCDD JUMP JUMPDEST PUSH1 0x40 MLOAD DUP1 SWAP2 SUB SWAP1 RETURN JUMPDEST CALLVALUE DUP1 ISZERO PUSH2 0xFA JUMPI PUSH0 PUSH0 REVERT JUMPDEST POP PUSH2 0x115 PUSH1 0x4 DUP1 CALLDATASIZE SUB DUP2 ADD SWAP1 PUSH2 0x110 SWAP2 SWAP1 PUSH2 0xC4B JUMP JUMPDEST PUSH2 0x23C JUMP JUMPDEST PUSH1 0x40 MLOAD PUSH2 0x126 SWAP6 SWAP5 SWAP4 SWAP3 SWAP2 SWAP1 PUSH2 0xD80 JUMP JUMPDEST PUSH1 0x40 MLOAD DUP1 SWAP2 SUB SWAP1 RETURN JUMPDEST CALLVALUE DUP1 ISZERO PUSH2 0x13A JUMPI PUSH0 PUSH0 REVERT JUMPDEST POP PUSH2 0x143 PUSH2 0x31F JUMP JUMPDEST PUSH1 0x40 MLOAD PUSH2 0x150 SWAP2 SWAP1 PUSH2 0xCDD JUMP JUMPDEST PUSH1 0x40 MLOAD DUP1 SWAP2 SUB SWAP1 RETURN JUMPDEST CALLVALUE DUP1 ISZERO PUSH2 0x164 JUMPI PUSH0 PUSH0 REVERT JUMPDEST POP PUSH2 0x17F PUSH1 0x4 DUP1 CALLDATASIZE SUB DUP2 ADD SWAP1 PUSH2 0x17A SWAP2 SWAP1 PUSH2 0xC4B JUMP JUMPDEST PUSH2 0x325 JUMP JUMPDEST STOP JUMPDEST CALLVALUE DUP1 ISZERO PUSH2 0x18C JUMPI PUSH0 PUSH0 REVERT JUMPDEST POP PUSH2 0x1A7 PUSH1 0x4 DUP1 CALLDATASIZE SUB DUP2 ADD SWAP1 PUSH2 0x1A2 SWAP2 SWAP1 PUSH2 0xE63 JUMP JUMPDEST PUSH2 0x626 JUMP JUMPDEST STOP JUMPDEST CALLVALUE DUP1 ISZERO PUSH2 0x1B4 JUMPI PUSH0 PUSH0 REVERT JUMPDEST POP PUSH2 0x1BD PUSH2 0x976 JUMP JUMPDEST PUSH1 0x40 MLOAD PUSH2 0x1CA SWAP2 SWAP1 PUSH2 0xCDD JUMP JUMPDEST PUSH1 0x40 MLOAD DUP1 SWAP2 SUB SWAP1 RETURN JUMPDEST CALLVALUE DUP1 ISZERO PUSH2 0x1DE JUMPI PUSH0 PUSH0 REVERT JUMPDEST POP PUSH2 0x1F9 PUSH1 0x4 DUP1 CALLDATASIZE SUB DUP2 ADD SWAP1 PUSH2 0x1F4 SWAP2 SWAP1 PUSH2 0xC4B JUMP JUMPDEST PUSH2 0x97C JUMP JUMPDEST STOP JUMPDEST PUSH0 DUP2 DUP2 SLOAD DUP2 LT PUSH2 0x209 JUMPI PUSH0 DUP1 REVERT JUMPDEST SWAP1 PUSH0 MSTORE PUSH1 0x20 PUSH0 KECCAK256 ADD PUSH0 SWAP2 POP SLOAD SWAP1 PUSH2 0x100 EXP SWAP1 DIV PUSH20 0xFFFFFFFFFFFFFFFFFFFFFFFFFFFFFFFFFFFFFFFF AND DUP2 JUMP JUMPDEST PUSH0 SELFBALANCE SWAP1 POP SWAP1 JUMP JUMPDEST PUSH1 0x4 PUSH1 0x20 MSTORE DUP1 PUSH0 MSTORE PUSH1 0x40 PUSH0 KECCAK256 PUSH0 SWAP2 POP SWAP1 POP DUP1 PUSH0 ADD PUSH0 SWAP1 SLOAD SWAP1 PUSH2 0x100 EXP SWAP1 DIV PUSH20 0xFFFFFFFFFFFFFFFFFFFFFFFFFFFFFFFFFFFFFFFF AND SWAP1 DUP1 PUSH1 0x1 ADD SLOAD SWAP1 DUP1 PUSH1 0x2 ADD DUP1 SLOAD PUSH2 0x286 SWAP1 PUSH2 0xF01 JUMP JUMPDEST DUP1 PUSH1 0x1F ADD PUSH1 0x20 DUP1 SWAP2 DIV MUL PUSH1 0x20 ADD PUSH1 0x40 MLOAD SWAP1 DUP2 ADD PUSH1 0x40 MSTORE DUP1 SWAP3 SWAP2 SWAP1 DUP2 DUP2 MSTORE PUSH1 0x20 ADD DUP3 DUP1 SLOAD PUSH2 0x2B2 SWAP1 PUSH2 0xF01 JUMP JUMPDEST DUP1 ISZERO PUSH2 0x2FD JUMPI DUP1 PUSH1 0x1F LT PUSH2 0x2D4 JUMPI PUSH2 0x100 DUP1 DUP4 SLOAD DIV MUL DUP4 MSTORE SWAP2 PUSH1 0x20 ADD SWAP2 PUSH2 0x2FD JUMP JUMPDEST DUP3 ADD SWAP2 SWAP1 PUSH0 MSTORE PUSH1 0x20 PUSH0 KECCAK256 SWAP1 JUMPDEST DUP2 SLOAD DUP2 MSTORE SWAP1 PUSH1 0x1 ADD SWAP1 PUSH1 0x20 ADD DUP1 DUP4 GT PUSH2 0x2E0 JUMPI DUP3 SWAP1 SUB PUSH1 0x1F AND DUP3 ADD SWAP2 JUMPDEST POP POP POP POP POP SWAP1 DUP1 PUSH1 0x3 ADD PUSH0 SWAP1 SLOAD SWAP1 PUSH2 0x100 EXP SWAP1 DIV PUSH1 0xFF AND SWAP1 DUP1 PUSH1 0x4 ADD SLOAD SWAP1 POP DUP6 JUMP JUMPDEST PUSH1 0x3 SLOAD DUP2 JUMP JUMPDEST DUP1 PUSH1 0x3 SLOAD DUP2 GT ISZERO PUSH2 0x36B JUMPI PUSH1 0x40 MLOAD PUSH32 0x8C379A000000000000000000000000000000000000000000000000000000000 DUP2 MSTORE PUSH1 0x4 ADD PUSH2 0x362 SWAP1 PUSH2 0xF8B JUMP JUMPDEST PUSH1 0x40 MLOAD DUP1 SWAP2 SUB SWAP1 REVERT JUMPDEST DUP2 PUSH1 0x4 PUSH0 DUP3 DUP2 MSTORE PUSH1 0x20 ADD SWAP1 DUP2 MSTORE PUSH1 0x20 ADD PUSH0 KECCAK256 PUSH1 0x3 ADD PUSH0 SWAP1 SLOAD SWAP1 PUSH2 0x100 EXP SWAP1 DIV PUSH1 0xFF AND ISZERO PUSH2 0x3CD JUMPI PUSH1 0x40 MLOAD PUSH32 0x8C379A000000000000000000000000000000000000000000000000000000000 DUP2 MSTORE PUSH1 0x4 ADD PUSH2 0x3C4 SWAP1 PUSH2 0xFF3 JUMP JUMPDEST PUSH1 0x40 MLOAD DUP1 SWAP2 SUB SWAP1 REVERT JUMPDEST PUSH1 0x2 PUSH0 CALLER PUSH20 0xFFFFFFFFFFFFFFFFFFFFFFFFFFFFFFFFFFFFFFFF AND PUSH20 0xFFFFFFFFFFFFFFFFFFFFFFFFFFFFFFFFFFFFFFFF AND DUP2 MSTORE PUSH1 0x20 ADD SWAP1 DUP2 MSTORE PUSH1 0x20 ADD PUSH0 KECCAK256 PUSH0 SWAP1 SLOAD SWAP1 PUSH2 0x100 EXP SWAP1 DIV PUSH1 0xFF AND PUSH2 0x456 JUMPI PUSH1 0x40 MLOAD PUSH32 0x8C379A000000000000000000000000000000000000000000000000000000000 DUP2 MSTORE PUSH1 0x4 ADD PUSH2 0x44D SWAP1 PUSH2 0x105B JUMP JUMPDEST PUSH1 0x40 MLOAD DUP1 SWAP2 SUB SWAP1 REVERT JUMPDEST DUP3 PUSH1 0x5 PUSH0 DUP3 DUP2 MSTORE PUSH1 0x20 ADD SWAP1 DUP2 MSTORE PUSH1 0x20 ADD PUSH0 KECCAK256 PUSH0 CALLER PUSH20 0xFFFFFFFFFFFFFFFFFFFFFFFFFFFFFFFFFFFFFFFF AND PUSH20 0xFFFFFFFFFFFFFFFFFFFFFFFFFFFFFFFFFFFFFFFF AND DUP2 MSTORE PUSH1 0x20 ADD SWAP1 DUP2 MSTORE PUSH1 0x20 ADD PUSH0 KECCAK256 PUSH0 SWAP1 SLOAD SWAP1 PUSH2 0x100 EXP SWAP1 DIV PUSH1 0xFF AND ISZERO PUSH2 0x4F0 JUMPI PUSH1 0x40 MLOAD PUSH32 0x8C379A000000000000000000000000000000000000000000000000000000000 DUP2 MSTORE PUSH1 0x4 ADD PUSH2 0x4E7 SWAP1 PUSH2 0x10C3 JUMP JUMPDEST PUSH1 0x40 MLOAD DUP1 SWAP2 SUB SWAP1 REVERT JUMPDEST PUSH1 0x4 PUSH0 DUP6 DUP2 MSTORE PUSH1 0x20 ADD SWAP1 DUP2 MSTORE PUSH1 0x20 ADD PUSH0 KECCAK256 PUSH1 0x4 ADD PUSH0 DUP2 SLOAD DUP1 SWAP3 SWAP2 SWAP1 PUSH2 0x514 SWAP1 PUSH2 0x110E JUMP JUMPDEST SWAP2 SWAP1 POP SSTORE POP PUSH1 0x1 PUSH1 0x5 PUSH0 DUP7 DUP2 MSTORE PUSH1 0x20 ADD SWAP1 DUP2 MSTORE PUSH1 0x20 ADD PUSH0 KECCAK256 PUSH0 CALLER PUSH20 0xFFFFFFFFFFFFFFFFFFFFFFFFFFFFFFFFFFFFFFFF AND PUSH20 0xFFFFFFFFFFFFFFFFFFFFFFFFFFFFFFFFFFFFFFFF AND DUP2 MSTORE PUSH1 0x20 ADD SWAP1 DUP2 MSTORE PUSH1 0x20 ADD PUSH0 KECCAK256 PUSH0 PUSH2 0x100 EXP DUP2 SLOAD DUP2 PUSH1 0xFF MUL NOT AND SWAP1 DUP4 ISZERO ISZERO MUL OR SWAP1 SSTORE POP PUSH1 0x1 SLOAD PUSH1 0x4 PUSH0 DUP7 DUP2 MSTORE PUSH1 0x20 ADD SWAP1 DUP2 MSTORE PUSH1 0x20 ADD PUSH0 KECCAK256 PUSH1 0x4 ADD SLOAD LT PUSH2 0x5D2 JUMPI PUSH32 0xC08EE165F89BDD562BDD9A5BDBC1ECFAD110BD844DC4541AA2A46B4F8E637794 DUP5 PUSH1 0x40 MLOAD PUSH2 0x5C9 SWAP2 SWAP1 PUSH2 0xCDD JUMP JUMPDEST PUSH1 0x40 MLOAD DUP1 SWAP2 SUB SWAP1 LOG1 JUMPDEST CALLER PUSH20 0xFFFFFFFFFFFFFFFFFFFFFFFFFFFFFFFFFFFFFFFF AND PUSH32 0xB19038BC393A1B27CEDEA6E0D1016FE2D8FFBE0451BC4DBFED32EB1C19AB3522 DUP6 PUSH1 0x40 MLOAD PUSH2 0x618 SWAP2 SWAP1 PUSH2 0xCDD JUMP JUMPDEST PUSH1 0x40 MLOAD DUP1 SWAP2 SUB SWAP1 LOG2 POP POP POP POP JUMP JUMPDEST DUP4 PUSH0 PUSH20 0xFFFFFFFFFFFFFFFFFFFFFFFFFFFFFFFFFFFFFFFF AND DUP2 PUSH20 0xFFFFFFFFFFFFFFFFFFFFFFFFFFFFFFFFFFFFFFFF AND SUB PUSH2 0x695 JUMPI PUSH1 0x40 MLOAD PUSH32 0x8C379A000000000000000000000000000000000000000000000000000000000 DUP2 MSTORE PUSH1 0x4 ADD PUSH2 0x68C SWAP1 PUSH2 0x119F JUMP JUMPDEST PUSH1 0x40 MLOAD DUP1 SWAP2 SUB SWAP1 REVERT JUMPDEST PUSH1 0x2 PUSH0 CALLER PUSH20 0xFFFFFFFFFFFFFFFFFFFFFFFFFFFFFFFFFFFFFFFF AND PUSH20 0xFFFFFFFFFFFFFFFFFFFFFFFFFFFFFFFFFFFFFFFF AND DUP2 MSTORE PUSH1 0x20 ADD SWAP1 DUP2 MSTORE PUSH1 0x20 ADD PUSH0 KECCAK256 PUSH0 SWAP1 SLOAD SWAP1 PUSH2 0x100 EXP SWAP1 DIV PUSH1 0xFF AND PUSH2 0x71E JUMPI PUSH1 0x40 MLOAD PUSH32 0x8C379A000000000000000000000000000000000000000000000000000000000 DUP2 MSTORE PUSH1 0x4 ADD PUSH2 0x715 SWAP1 PUSH2 0x105B JUMP JUMPDEST PUSH1 0x40 MLOAD DUP1 SWAP2 SUB SWAP1 REVERT JUMPDEST PUSH1 0x3 PUSH0 DUP2 SLOAD DUP1 SWAP3 SWAP2 SWAP1 PUSH2 0x730 SWAP1 PUSH2 0x110E JUMP JUMPDEST SWAP2 SWAP1 POP SSTORE POP PUSH0 PUSH1 0x40 MLOAD DUP1 PUSH1 0xA0 ADD PUSH1 0x40 MSTORE DUP1 DUP8 PUSH20 0xFFFFFFFFFFFFFFFFFFFFFFFFFFFFFFFFFFFFFFFF AND DUP2 MSTORE PUSH1 0x20 ADD DUP7 DUP2 MSTORE PUSH1 0x20 ADD DUP6 DUP6 DUP1 DUP1 PUSH1 0x1F ADD PUSH1 0x20 DUP1 SWAP2 DIV MUL PUSH1 0x20 ADD PUSH1 0x40 MLOAD SWAP1 DUP2 ADD PUSH1 0x40 MSTORE DUP1 SWAP4 SWAP3 SWAP2 SWAP1 DUP2 DUP2 MSTORE PUSH1 0x20 ADD DUP4 DUP4 DUP1 DUP3 DUP5 CALLDATACOPY PUSH0 DUP2 DUP5 ADD MSTORE PUSH1 0x1F NOT PUSH1 0x1F DUP3 ADD AND SWAP1 POP DUP1 DUP4 ADD SWAP3 POP POP POP POP POP POP POP DUP2 MSTORE PUSH1 0x20 ADD PUSH0 ISZERO ISZERO DUP2 MSTORE PUSH1 0x20 ADD PUSH1 0x3 SLOAD DUP2 MSTORE POP SWAP1 POP DUP1 PUSH1 0x4 PUSH0 PUSH1 0x3 SLOAD DUP2 MSTORE PUSH1 0x20 ADD SWAP1 DUP2 MSTORE PUSH1 0x20 ADD PUSH0 KECCAK256 PUSH0 DUP3 ADD MLOAD DUP2 PUSH0 ADD PUSH0 PUSH2 0x100 EXP DUP2 SLOAD DUP2 PUSH20 0xFFFFFFFFFFFFFFFFFFFFFFFFFFFFFFFFFFFFFFFF MUL NOT AND SWAP1 DUP4 PUSH20 0xFFFFFFFFFFFFFFFFFFFFFFFFFFFFFFFFFFFFFFFF AND MUL OR SWAP1 SSTORE POP PUSH1 0x20 DUP3 ADD MLOAD DUP2 PUSH1 0x1 ADD SSTORE PUSH1 0x40 DUP3 ADD MLOAD DUP2 PUSH1 0x2 ADD SWAP1 DUP2 PUSH2 0x833 SWAP2 SWAP1 PUSH2 0x139B JUMP JUMPDEST POP PUSH1 0x60 DUP3 ADD MLOAD DUP2 PUSH1 0x3 ADD PUSH0 PUSH2 0x100 EXP DUP2 SLOAD DUP2 PUSH1 0xFF MUL NOT AND SWAP1 DUP4 ISZERO ISZERO MUL OR SWAP1 SSTORE POP PUSH1 0x80 DUP3 ADD MLOAD DUP2 PUSH1 0x4 ADD SSTORE SWAP1 POP POP PUSH0 PUSH0 SWAP1 POP JUMPDEST PUSH0 DUP1 SLOAD SWAP1 POP DUP2 LT ISZERO PUSH2 0x91D JUMPI PUSH0 PUSH1 0x5 PUSH0 PUSH1 0x3 SLOAD DUP2 MSTORE PUSH1 0x20 ADD SWAP1 DUP2 MSTORE PUSH1 0x20 ADD PUSH0 KECCAK256 PUSH0 PUSH0 DUP5 DUP2 SLOAD DUP2 LT PUSH2 0x899 JUMPI PUSH2 0x898 PUSH2 0x146A JUMP JUMPDEST JUMPDEST SWAP1 PUSH0 MSTORE PUSH1 0x20 PUSH0 KECCAK256 ADD PUSH0 SWAP1 SLOAD SWAP1 PUSH2 0x100 EXP SWAP1 DIV PUSH20 0xFFFFFFFFFFFFFFFFFFFFFFFFFFFFFFFFFFFFFFFF AND PUSH20 0xFFFFFFFFFFFFFFFFFFFFFFFFFFFFFFFFFFFFFFFF AND PUSH20 0xFFFFFFFFFFFFFFFFFFFFFFFFFFFFFFFFFFFFFFFF AND DUP2 MSTORE PUSH1 0x20 ADD SWAP1 DUP2 MSTORE PUSH1 0x20 ADD PUSH0 KECCAK256 PUSH0 PUSH2 0x100 EXP DUP2 SLOAD DUP2 PUSH1 0xFF MUL NOT AND SWAP1 DUP4 ISZERO ISZERO MUL OR SWAP1 SSTORE POP DUP1 DUP1 PUSH1 0x1 ADD SWAP2 POP POP PUSH2 0x865 JUMP JUMPDEST POP CALLER PUSH20 0xFFFFFFFFFFFFFFFFFFFFFFFFFFFFFFFFFFFFFFFF AND PUSH32 0xAD9081D39974D3C3F66E3F1C87A1E97E9F64AAA7F821196885CC8ACF00D799DB PUSH1 0x3 SLOAD PUSH1 0x40 MLOAD PUSH2 0x966 SWAP2 SWAP1 PUSH2 0xCDD JUMP JUMPDEST PUSH1 0x40 MLOAD DUP1 SWAP2 SUB SWAP1 LOG2 POP POP POP POP POP POP JUMP JUMPDEST PUSH1 0x1 SLOAD DUP2 JUMP JUMPDEST DUP1 PUSH1 0x3 SLOAD DUP2 GT ISZERO PUSH2 0x9C2 JUMPI PUSH1 0x40 MLOAD PUSH32 0x8C379A000000000000000000000000000000000000000000000000000000000 DUP2 MSTORE PUSH1 0x4 ADD PUSH2 0x9B9 SWAP1 PUSH2 0xF8B JUMP JUMPDEST PUSH1 0x40 MLOAD DUP1 SWAP2 SUB SWAP1 REVERT JUMPDEST DUP2 PUSH1 0x4 PUSH0 DUP3 DUP2 MSTORE PUSH1 0x20 ADD SWAP1 DUP2 MSTORE PUSH1 0x20 ADD PUSH0 KECCAK256 PUSH1 0x3 ADD PUSH0 SWAP1 SLOAD SWAP1 PUSH2 0x100 EXP SWAP1 DIV PUSH1 0xFF AND ISZERO PUSH2 0xA24 JUMPI PUSH1 0x40 MLOAD PUSH32 0x8C379A000000000000000000000000000000000000000000000000000000000 DUP2 MSTORE PUSH1 0x4 ADD PUSH2 0xA1B SWAP1 PUSH2 0xFF3 JUMP JUMPDEST PUSH1 0x40 MLOAD DUP1 SWAP2 SUB SWAP1 REVERT JUMPDEST PUSH1 0x2 PUSH0 CALLER PUSH20 0xFFFFFFFFFFFFFFFFFFFFFFFFFFFFFFFFFFFFFFFF AND PUSH20 0xFFFFFFFFFFFFFFFFFFFFFFFFFFFFFFFFFFFFFFFF AND DUP2 MSTORE PUSH1 0x20 ADD SWAP1 DUP2 MSTORE PUSH1 0x20 ADD PUSH0 KECCAK256 PUSH0 SWAP1 SLOAD SWAP1 PUSH2 0x100 EXP SWAP1 DIV PUSH1 0xFF AND PUSH2 0xAAD JUMPI PUSH1 0x40 MLOAD PUSH32 0x8C379A000000000000000000000000000000000000000000000000000000000 DUP2 MSTORE PUSH1 0x4 ADD PUSH2 0xAA4 SWAP1 PUSH2 0x105B JUMP JUMPDEST PUSH1 0x40 MLOAD DUP1 SWAP2 SUB SWAP1 REVERT JUMPDEST PUSH0 PUSH1 0x4 PUSH0 DUP6 DUP2 MSTORE PUSH1 0x20 ADD SWAP1 DUP2 MSTORE PUSH1 0x20 ADD PUSH0 KECCAK256 SWAP1 POP PUSH1 0x1 SLOAD DUP2 PUSH1 0x4 ADD SLOAD LT ISZERO PUSH2 0xB0A JUMPI PUSH1 0x40 MLOAD PUSH32 0x8C379A000000000000000000000000000000000000000000000000000000000 DUP2 MSTORE PUSH1 0x4 ADD PUSH2 0xB01 SWAP1 PUSH2 0x14E1 JUMP JUMPDEST PUSH1 0x40 MLOAD DUP1 SWAP2 SUB SWAP1 REVERT JUMPDEST PUSH0 DUP2 PUSH0 ADD PUSH0 SWAP1 SLOAD SWAP1 PUSH2 0x100 EXP SWAP1 DIV PUSH20 0xFFFFFFFFFFFFFFFFFFFFFFFFFFFFFFFFFFFFFFFF AND PUSH20 0xFFFFFFFFFFFFFFFFFFFFFFFFFFFFFFFFFFFFFFFF AND DUP3 PUSH1 0x1 ADD SLOAD DUP4 PUSH1 0x2 ADD PUSH1 0x40 MLOAD PUSH2 0xB5A SWAP2 SWAP1 PUSH2 0x1589 JUMP JUMPDEST PUSH0 PUSH1 0x40 MLOAD DUP1 DUP4 SUB DUP2 DUP6 DUP8 GAS CALL SWAP3 POP POP POP RETURNDATASIZE DUP1 PUSH0 DUP2 EQ PUSH2 0xB94 JUMPI PUSH1 0x40 MLOAD SWAP2 POP PUSH1 0x1F NOT PUSH1 0x3F RETURNDATASIZE ADD AND DUP3 ADD PUSH1 0x40 MSTORE RETURNDATASIZE DUP3 MSTORE RETURNDATASIZE PUSH0 PUSH1 0x20 DUP5 ADD RETURNDATACOPY PUSH2 0xB99 JUMP JUMPDEST PUSH1 0x60 SWAP2 POP JUMPDEST POP POP SWAP1 POP PUSH1 0x1 DUP3 PUSH1 0x3 ADD PUSH0 PUSH2 0x100 EXP DUP2 SLOAD DUP2 PUSH1 0xFF MUL NOT AND SWAP1 DUP4 ISZERO ISZERO MUL OR SWAP1 SSTORE POP CALLER PUSH20 0xFFFFFFFFFFFFFFFFFFFFFFFFFFFFFFFFFFFFFFFF AND PUSH32 0x8ED81CE5E46A5CCB9E26BDC1A7232741726FBB2956D0C2586DD9115ECFFF752A DUP7 DUP4 PUSH1 0x40 MLOAD PUSH2 0xC01 SWAP3 SWAP2 SWAP1 PUSH2 0x159F JUMP JUMPDEST PUSH1 0x40 MLOAD DUP1 SWAP2 SUB SWAP1 LOG2 POP POP POP POP POP JUMP JUMPDEST PUSH0 PUSH0 REVERT JUMPDEST PUSH0 PUSH0 REVERT JUMPDEST PUSH0 DUP2 SWAP1 POP SWAP2 SWAP1 POP JUMP JUMPDEST PUSH2 0xC2A DUP2 PUSH2 0xC18 JUMP JUMPDEST DUP2 EQ PUSH2 0xC34 JUMPI PUSH0 PUSH0 REVERT JUMPDEST POP JUMP JUMPDEST PUSH0 DUP2 CALLDATALOAD SWAP1 POP PUSH2 0xC45 DUP2 PUSH2 0xC21 JUMP JUMPDEST SWAP3 SWAP2 POP POP JUMP JUMPDEST PUSH0 PUSH1 0x20 DUP3 DUP5 SUB SLT ISZERO PUSH2 0xC60 JUMPI PUSH2 0xC5F PUSH2 0xC10 JUMP JUMPDEST JUMPDEST PUSH0 PUSH2 0xC6D DUP5 DUP3 DUP6 ADD PUSH2 0xC37 JUMP JUMPDEST SWAP2 POP POP SWAP3 SWAP2 POP POP JUMP JUMPDEST PUSH0 PUSH20 0xFFFFFFFFFFFFFFFFFFFFFFFFFFFFFFFFFFFFFFFF DUP3 AND SWAP1 POP SWAP2 SWAP1 POP JUMP JUMPDEST PUSH0 PUSH2 0xC9F DUP3 PUSH2 0xC76 JUMP JUMPDEST SWAP1 POP SWAP2 SWAP1 POP JUMP JUMPDEST PUSH2 0xCAF DUP2 PUSH2 0xC95 JUMP JUMPDEST DUP3 MSTORE POP POP JUMP JUMPDEST PUSH0 PUSH1 0x20 DUP3 ADD SWAP1 POP PUSH2 0xCC8 PUSH0 DUP4 ADD DUP5 PUSH2 0xCA6 JUMP JUMPDEST SWAP3 SWAP2 POP POP JUMP JUMPDEST PUSH2 0xCD7 DUP2 PUSH2 0xC18 JUMP JUMPDEST DUP3 MSTORE POP POP JUMP JUMPDEST PUSH0 PUSH1 0x20 DUP3 ADD SWAP1 POP PUSH2 0xCF0 PUSH0 DUP4 ADD DUP5 PUSH2 0xCCE JUMP JUMPDEST SWAP3 SWAP2 POP POP JUMP JUMPDEST PUSH0 DUP2 MLOAD SWAP1 POP SWAP2 SWAP1 POP JUMP JUMPDEST PUSH0 DUP3 DUP3 MSTORE PUSH1 0x20 DUP3 ADD SWAP1 POP SWAP3 SWAP2 POP POP JUMP JUMPDEST DUP3 DUP2 DUP4 MCOPY PUSH0 DUP4 DUP4 ADD MSTORE POP POP POP JUMP JUMPDEST PUSH0 PUSH1 0x1F NOT PUSH1 0x1F DUP4 ADD AND SWAP1 POP SWAP2 SWAP1 POP JUMP JUMPDEST PUSH0 PUSH2 0xD38 DUP3 PUSH2 0xCF6 JUMP JUMPDEST PUSH2 0xD42 DUP2 DUP6 PUSH2 0xD00 JUMP JUMPDEST SWAP4 POP PUSH2 0xD52 DUP2 DUP6 PUSH1 0x20 DUP7 ADD PUSH2 0xD10 JUMP JUMPDEST PUSH2 0xD5B DUP2 PUSH2 0xD1E JUMP JUMPDEST DUP5 ADD SWAP2 POP POP SWAP3 SWAP2 POP POP JUMP JUMPDEST PUSH0 DUP2 ISZERO ISZERO SWAP1 POP SWAP2 SWAP1 POP JUMP JUMPDEST PUSH2 0xD7A DUP2 PUSH2 0xD66 JUMP JUMPDEST DUP3 MSTORE POP POP JUMP JUMPDEST PUSH0 PUSH1 0xA0 DUP3 ADD SWAP1 POP PUSH2 0xD93 PUSH0 DUP4 ADD DUP9 PUSH2 0xCA6 JUMP JUMPDEST PUSH2 0xDA0 PUSH1 0x20 DUP4 ADD DUP8 PUSH2 0xCCE JUMP JUMPDEST DUP2 DUP2 SUB PUSH1 0x40 DUP4 ADD MSTORE PUSH2 0xDB2 DUP2 DUP7 PUSH2 0xD2E JUMP JUMPDEST SWAP1 POP PUSH2 0xDC1 PUSH1 0x60 DUP4 ADD DUP6 PUSH2 0xD71 JUMP JUMPDEST PUSH2 0xDCE PUSH1 0x80 DUP4 ADD DUP5 PUSH2 0xCCE JUMP JUMPDEST SWAP7 SWAP6 POP POP POP POP POP POP JUMP JUMPDEST PUSH2 0xDE1 DUP2 PUSH2 0xC95 JUMP JUMPDEST DUP2 EQ PUSH2 0xDEB JUMPI PUSH0 PUSH0 REVERT JUMPDEST POP JUMP JUMPDEST PUSH0 DUP2 CALLDATALOAD SWAP1 POP PUSH2 0xDFC DUP2 PUSH2 0xDD8 JUMP JUMPDEST SWAP3 SWAP2 POP POP JUMP JUMPDEST PUSH0 PUSH0 REVERT JUMPDEST PUSH0 PUSH0 REVERT JUMPDEST PUSH0 PUSH0 REVERT JUMPDEST PUSH0 PUSH0 DUP4 PUSH1 0x1F DUP5 ADD SLT PUSH2 0xE23 JUMPI PUSH2 0xE22 PUSH2 0xE02 JUMP JUMPDEST JUMPDEST DUP3 CALLDATALOAD SWAP1 POP PUSH8 0xFFFFFFFFFFFFFFFF DUP2 GT ISZERO PUSH2 0xE40 JUMPI PUSH2 0xE3F PUSH2 0xE06 JUMP JUMPDEST JUMPDEST PUSH1 0x20 DUP4 ADD SWAP2 POP DUP4 PUSH1 0x1 DUP3 MUL DUP4 ADD GT ISZERO PUSH2 0xE5C JUMPI PUSH2 0xE5B PUSH2 0xE0A JUMP JUMPDEST JUMPDEST SWAP3 POP SWAP3 SWAP1 POP JUMP JUMPDEST PUSH0 PUSH0 PUSH0 PUSH0 PUSH1 0x60 DUP6 DUP8 SUB SLT ISZERO PUSH2 0xE7B JUMPI PUSH2 0xE7A PUSH2 0xC10 JUMP JUMPDEST JUMPDEST PUSH0 PUSH2 0xE88 DUP8 DUP3 DUP9 ADD PUSH2 0xDEE JUMP JUMPDEST SWAP5 POP POP PUSH1 0x20 PUSH2 0xE99 DUP8 DUP3 DUP9 ADD PUSH2 0xC37 JUMP JUMPDEST SWAP4 POP POP PUSH1 0x40 DUP6 ADD CALLDATALOAD PUSH8 0xFFFFFFFFFFFFFFFF DUP2 GT ISZERO PUSH2 0xEBA JUMPI PUSH2 0xEB9 PUSH2 0xC14 JUMP JUMPDEST JUMPDEST PUSH2 0xEC6 DUP8 DUP3 DUP9 ADD PUSH2 0xE0E JUMP JUMPDEST SWAP3 POP SWAP3 POP POP SWAP3 SWAP6 SWAP2 SWAP5 POP SWAP3 POP JUMP JUMPDEST PUSH32 0x4E487B7100000000000000000000000000000000000000000000000000000000 PUSH0 MSTORE PUSH1 0x22 PUSH1 0x4 MSTORE PUSH1 0x24 PUSH0 REVERT JUMPDEST PUSH0 PUSH1 0x2 DUP3 DIV SWAP1 POP PUSH1 0x1 DUP3 AND DUP1 PUSH2 0xF18 JUMPI PUSH1 0x7F DUP3 AND SWAP2 POP JUMPDEST PUSH1 0x20 DUP3 LT DUP2 SUB PUSH2 0xF2B JUMPI PUSH2 0xF2A PUSH2 0xED4 JUMP JUMPDEST JUMPDEST POP SWAP2 SWAP1 POP JUMP JUMPDEST PUSH0 DUP3 DUP3 MSTORE PUSH1 0x20 DUP3 ADD SWAP1 POP SWAP3 SWAP2 POP POP JUMP JUMPDEST PUSH32 0x5472616E73616374696F6E206E6F742065786973742100000000000000000000 PUSH0 DUP3 ADD MSTORE POP JUMP JUMPDEST PUSH0 PUSH2 0xF75 PUSH1 0x16 DUP4 PUSH2 0xF31 JUMP JUMPDEST SWAP2 POP PUSH2 0xF80 DUP3 PUSH2 0xF41 JUMP JUMPDEST PUSH1 0x20 DUP3 ADD SWAP1 POP SWAP2 SWAP1 POP JUMP JUMPDEST PUSH0 PUSH1 0x20 DUP3 ADD SWAP1 POP DUP2 DUP2 SUB PUSH0 DUP4 ADD MSTORE PUSH2 0xFA2 DUP2 PUSH2 0xF69 JUMP JUMPDEST SWAP1 POP SWAP2 SWAP1 POP JUMP JUMPDEST PUSH32 0x5472616E73616374696F6E206578656375746564210000000000000000000000 PUSH0 DUP3 ADD MSTORE POP JUMP JUMPDEST PUSH0 PUSH2 0xFDD PUSH1 0x15 DUP4 PUSH2 0xF31 JUMP JUMPDEST SWAP2 POP PUSH2 0xFE8 DUP3 PUSH2 0xFA9 JUMP JUMPDEST PUSH1 0x20 DUP3 ADD SWAP1 POP SWAP2 SWAP1 POP JUMP JUMPDEST PUSH0 PUSH1 0x20 DUP3 ADD SWAP1 POP DUP2 DUP2 SUB PUSH0 DUP4 ADD MSTORE PUSH2 0x100A DUP2 PUSH2 0xFD1 JUMP JUMPDEST SWAP1 POP SWAP2 SWAP1 POP JUMP JUMPDEST PUSH32 0x4F6E6C79206F776572732063616E2063616C6C21000000000000000000000000 PUSH0 DUP3 ADD MSTORE POP JUMP JUMPDEST PUSH0 PUSH2 0x1045 PUSH1 0x14 DUP4 PUSH2 0xF31 JUMP JUMPDEST SWAP2 POP PUSH2 0x1050 DUP3 PUSH2 0x1011 JUMP JUMPDEST PUSH1 0x20 DUP3 ADD SWAP1 POP SWAP2 SWAP1 POP JUMP JUMPDEST PUSH0 PUSH1 0x20 DUP3 ADD SWAP1 POP DUP2 DUP2 SUB PUSH0 DUP4 ADD MSTORE PUSH2 0x1072 DUP2 PUSH2 0x1039 JUMP JUMPDEST SWAP1 POP SWAP2 SWAP1 POP JUMP JUMPDEST PUSH32 0x416C726561647920636F6E6669726D6564210000000000000000000000000000 PUSH0 DUP3 ADD MSTORE POP JUMP JUMPDEST PUSH0 PUSH2 0x10AD PUSH1 0x12 DUP4 PUSH2 0xF31 JUMP JUMPDEST SWAP2 POP PUSH2 0x10B8 DUP3 PUSH2 0x1079 JUMP JUMPDEST PUSH1 0x20 DUP3 ADD SWAP1 POP SWAP2 SWAP1 POP JUMP JUMPDEST PUSH0 PUSH1 0x20 DUP3 ADD SWAP1 POP DUP2 DUP2 SUB PUSH0 DUP4 ADD MSTORE PUSH2 0x10DA DUP2 PUSH2 0x10A1 JUMP JUMPDEST SWAP1 POP SWAP2 SWAP1 POP JUMP JUMPDEST PUSH32 0x4E487B7100000000000000000000000000000000000000000000000000000000 PUSH0 MSTORE PUSH1 0x11 PUSH1 0x4 MSTORE PUSH1 0x24 PUSH0 REVERT JUMPDEST PUSH0 PUSH2 0x1118 DUP3 PUSH2 0xC18 JUMP JUMPDEST SWAP2 POP PUSH32 0xFFFFFFFFFFFFFFFFFFFFFFFFFFFFFFFFFFFFFFFFFFFFFFFFFFFFFFFFFFFFFFFF DUP3 SUB PUSH2 0x114A JUMPI PUSH2 0x1149 PUSH2 0x10E1 JUMP JUMPDEST JUMPDEST PUSH1 0x1 DUP3 ADD SWAP1 POP SWAP2 SWAP1 POP JUMP JUMPDEST PUSH32 0x496E76616C696420616464726573732100000000000000000000000000000000 PUSH0 DUP3 ADD MSTORE POP JUMP JUMPDEST PUSH0 PUSH2 0x1189 PUSH1 0x10 DUP4 PUSH2 0xF31 JUMP JUMPDEST SWAP2 POP PUSH2 0x1194 DUP3 PUSH2 0x1155 JUMP JUMPDEST PUSH1 0x20 DUP3 ADD SWAP1 POP SWAP2 SWAP1 POP JUMP JUMPDEST PUSH0 PUSH1 0x20 DUP3 ADD SWAP1 POP DUP2 DUP2 SUB PUSH0 DUP4 ADD MSTORE PUSH2 0x11B6 DUP2 PUSH2 0x117D JUMP JUMPDEST SWAP1 POP SWAP2 SWAP1 POP JUMP JUMPDEST PUSH32 0x4E487B7100000000000000000000000000000000000000000000000000000000 PUSH0 MSTORE PUSH1 0x41 PUSH1 0x4 MSTORE PUSH1 0x24 PUSH0 REVERT JUMPDEST PUSH0 DUP2 SWAP1 POP DUP2 PUSH0 MSTORE PUSH1 0x20 PUSH0 KECCAK256 SWAP1 POP SWAP2 SWAP1 POP JUMP JUMPDEST PUSH0 PUSH1 0x20 PUSH1 0x1F DUP4 ADD DIV SWAP1 POP SWAP2 SWAP1 POP JUMP JUMPDEST PUSH0 DUP3 DUP3 SHL SWAP1 POP SWAP3 SWAP2 POP POP JUMP JUMPDEST PUSH0 PUSH1 0x8 DUP4 MUL PUSH2 0x1246 PUSH32 0xFFFFFFFFFFFFFFFFFFFFFFFFFFFFFFFFFFFFFFFFFFFFFFFFFFFFFFFFFFFFFFFF DUP3 PUSH2 0x120B JUMP JUMPDEST PUSH2 0x1250 DUP7 DUP4 PUSH2 0x120B JUMP JUMPDEST SWAP6 POP DUP1 NOT DUP5 AND SWAP4 POP DUP1 DUP7 AND DUP5 OR SWAP3 POP POP POP SWAP4 SWAP3 POP POP POP JUMP JUMPDEST PUSH0 DUP2 SWAP1 POP SWAP2 SWAP1 POP JUMP JUMPDEST PUSH0 PUSH2 0x128B PUSH2 0x1286 PUSH2 0x1281 DUP5 PUSH2 0xC18 JUMP JUMPDEST PUSH2 0x1268 JUMP JUMPDEST PUSH2 0xC18 JUMP JUMPDEST SWAP1 POP SWAP2 SWAP1 POP JUMP JUMPDEST PUSH0 DUP2 SWAP1 POP SWAP2 SWAP1 POP JUMP JUMPDEST PUSH2 0x12A4 DUP4 PUSH2 0x1271 JUMP JUMPDEST PUSH2 0x12B8 PUSH2 0x12B0 DUP3 PUSH2 0x1292 JUMP JUMPDEST DUP5 DUP5 SLOAD PUSH2 0x1217 JUMP JUMPDEST DUP3 SSTORE POP POP POP POP JUMP JUMPDEST PUSH0 PUSH0 SWAP1 POP SWAP1 JUMP JUMPDEST PUSH2 0x12CF PUSH2 0x12C0 JUMP JUMPDEST PUSH2 0x12DA DUP2 DUP5 DUP5 PUSH2 0x129B JUMP JUMPDEST POP POP POP JUMP JUMPDEST PUSH0 JUMPDEST DUP3 DUP2 LT ISZERO PUSH2 0x1300 JUMPI PUSH2 0x12F5 PUSH0 DUP3 DUP5 ADD PUSH2 0x12C7 JUMP JUMPDEST PUSH1 0x1 DUP2 ADD SWAP1 POP PUSH2 0x12E1 JUMP JUMPDEST POP POP POP JUMP JUMPDEST PUSH1 0x1F DUP3 GT ISZERO PUSH2 0x1353 JUMPI DUP3 DUP3 GT ISZERO PUSH2 0x1352 JUMPI PUSH2 0x131F DUP2 PUSH2 0x11EA JUMP JUMPDEST PUSH2 0x1328 DUP4 PUSH2 0x11FC JUMP JUMPDEST PUSH2 0x1331 DUP6 PUSH2 0x11FC JUMP JUMPDEST PUSH1 0x20 DUP7 LT ISZERO PUSH2 0x133E JUMPI PUSH0 SWAP1 POP JUMPDEST DUP1 DUP4 ADD PUSH2 0x134D DUP3 DUP5 SUB DUP3 PUSH2 0x12DF JUMP JUMPDEST POP POP POP POP JUMPDEST JUMPDEST POP POP POP JUMP JUMPDEST PUSH0 DUP3 DUP3 SHR SWAP1 POP SWAP3 SWAP2 POP POP JUMP JUMPDEST PUSH0 PUSH2 0x1373 PUSH0 NOT DUP5 PUSH1 0x8 MUL PUSH2 0x1358 JUMP JUMPDEST NOT DUP1 DUP4 AND SWAP2 POP POP SWAP3 SWAP2 POP POP JUMP JUMPDEST PUSH0 PUSH2 0x138B DUP4 DUP4 PUSH2 0x1364 JUMP JUMPDEST SWAP2 POP DUP3 PUSH1 0x2 MUL DUP3 OR SWAP1 POP SWAP3 SWAP2 POP POP JUMP JUMPDEST PUSH2 0x13A4 DUP3 PUSH2 0xCF6 JUMP JUMPDEST PUSH8 0xFFFFFFFFFFFFFFFF DUP2 GT ISZERO PUSH2 0x13BD JUMPI PUSH2 0x13BC PUSH2 0x11BD JUMP JUMPDEST JUMPDEST PUSH2 0x13C7 DUP3 SLOAD PUSH2 0xF01 JUMP JUMPDEST PUSH2 0x13D2 DUP3 DUP3 DUP6 PUSH2 0x1305 JUMP JUMPDEST PUSH0 PUSH1 0x20 SWAP1 POP PUSH1 0x1F DUP4 GT PUSH1 0x1 DUP2 EQ PUSH2 0x1403 JUMPI PUSH0 DUP5 ISZERO PUSH2 0x13F1 JUMPI DUP3 DUP8 ADD MLOAD SWAP1 POP JUMPDEST PUSH2 0x13FB DUP6 DUP3 PUSH2 0x1380 JUMP JUMPDEST DUP7 SSTORE POP PUSH2 0x1462 JUMP JUMPDEST PUSH1 0x1F NOT DUP5 AND PUSH2 0x1411 DUP7 PUSH2 0x11EA JUMP JUMPDEST PUSH0 JUMPDEST DUP3 DUP2 LT ISZERO PUSH2 0x1438 JUMPI DUP5 DUP10 ADD MLOAD DUP3 SSTORE PUSH1 0x1 DUP3 ADD SWAP2 POP PUSH1 0x20 DUP6 ADD SWAP5 POP PUSH1 0x20 DUP2 ADD SWAP1 POP PUSH2 0x1413 JUMP JUMPDEST DUP7 DUP4 LT ISZERO PUSH2 0x1455 JUMPI DUP5 DUP10 ADD MLOAD PUSH2 0x1451 PUSH1 0x1F DUP10 AND DUP3 PUSH2 0x1364 JUMP JUMPDEST DUP4 SSTORE POP JUMPDEST PUSH1 0x1 PUSH1 0x2 DUP9 MUL ADD DUP9 SSTORE POP POP POP JUMPDEST POP POP POP POP POP POP JUMP JUMPDEST PUSH32 0x4E487B7100000000000000000000000000000000000000000000000000000000 PUSH0 MSTORE PUSH1 0x32 PUSH1 0x4 MSTORE PUSH1 0x24 PUSH0 REVERT JUMPDEST PUSH32 0x5265717569726573206D756C7469706C65207369676E61747572657300000000 PUSH0 DUP3 ADD MSTORE POP JUMP JUMPDEST PUSH0 PUSH2 0x14CB PUSH1 0x1C DUP4 PUSH2 0xF31 JUMP JUMPDEST SWAP2 POP PUSH2 0x14D6 DUP3 PUSH2 0x1497 JUMP JUMPDEST PUSH1 0x20 DUP3 ADD SWAP1 POP SWAP2 SWAP1 POP JUMP JUMPDEST PUSH0 PUSH1 0x20 DUP3 ADD SWAP1 POP DUP2 DUP2 SUB PUSH0 DUP4 ADD MSTORE PUSH2 0x14F8 DUP2 PUSH2 0x14BF JUMP JUMPDEST SWAP1 POP SWAP2 SWAP1 POP JUMP JUMPDEST PUSH0 DUP2 SWAP1 POP SWAP3 SWAP2 POP POP JUMP JUMPDEST PUSH0 DUP2 SLOAD PUSH2 0x1515 DUP2 PUSH2 0xF01 JUMP JUMPDEST PUSH2 0x151F DUP2 DUP7 PUSH2 0x14FF JUMP JUMPDEST SWAP5 POP PUSH1 0x1 DUP3 AND PUSH0 DUP2 EQ PUSH2 0x1539 JUMPI PUSH1 0x1 DUP2 EQ PUSH2 0x154E JUMPI PUSH2 0x1580 JUMP JUMPDEST PUSH1 0xFF NOT DUP4 AND DUP7 MSTORE DUP2 ISZERO ISZERO DUP3 MUL DUP7 ADD SWAP4 POP PUSH2 0x1580 JUMP JUMPDEST PUSH2 0x1557 DUP6 PUSH2 0x11EA JUMP JUMPDEST PUSH0 JUMPDEST DUP4 DUP2 LT ISZERO PUSH2 0x1578 JUMPI DUP2 SLOAD DUP2 DUP10 ADD MSTORE PUSH1 0x1 DUP3 ADD SWAP2 POP PUSH1 0x20 DUP2 ADD SWAP1 POP PUSH2 0x1559 JUMP JUMPDEST DUP4 DUP9 ADD SWAP6 POP POP POP JUMPDEST POP POP POP SWAP3 SWAP2 POP POP JUMP JUMPDEST PUSH0 PUSH2 0x1594 DUP3 DUP5 PUSH2 0x1509 JUMP JUMPDEST SWAP2 POP DUP2 SWAP1 POP SWAP3 SWAP2 POP POP JUMP JUMPDEST PUSH0 PUSH1 0x40 DUP3 ADD SWAP1 POP PUSH2 0x15B2 PUSH0 DUP4 ADD DUP6 PUSH2 0xCCE JUMP JUMPDEST PUSH2 0x15BF PUSH1 0x20 DUP4 ADD DUP5 PUSH2 0xD71 JUMP JUMPDEST SWAP4 SWAP3 POP POP POP JUMP INVALID LOG2 PUSH5 0x6970667358 0x22 SLT KECCAK256 EXTCALL 0xAF 0xAC SGT PUSH15 0xE6C7BF75285F283923EA750D7B6226 EXTCODEHASH 0x2E 0x2A COINBASE PUSH10 0xD1AC21A93580E364736F PUSH13 0x63430008220033000000000000 "
				},
				"gasEstimates": {
					"creation": {
						"codeDepositCost": "1125600",
						"executionCost": "infinite",
						"totalCost": "infinite"
					},
					"external": {
						"confirmTransaction(uint256)": "infinite",
						"executeTransaction(uint256)": "infinite",
						"getBalance()": "357",
						"owners(uint256)": "4944",
						"required()": "2469",
						"submitTransaction(address,uint256,bytes)": "infinite",
						"transactionCount()": "2492",
						"transactions(uint256)": "infinite"
					}
				},
				"methodIdentifiers": {
					"confirmTransaction(uint256)": "c01a8c84",
					"executeTransaction(uint256)": "ee22610b",
					"getBalance()": "12065fe0",
					"owners(uint256)": "025e7c27",
					"required()": "dc8452cd",
					"submitTransaction(address,uint256,bytes)": "c6427474",
					"transactionCount()": "b77bf600",
					"transactions(uint256)": "9ace38c2"
				}
			},
			"storageLayout": {
				"storage": [
					{
						"astId": 16,
						"contract": "lession3.3-Function/MultiSignatureWallet.sol:MultiSignatureWallet",
						"label": "owners",
						"offset": 0,
						"slot": "0",
						"type": "t_array(t_address)dyn_storage"
					},
					{
						"astId": 18,
						"contract": "lession3.3-Function/MultiSignatureWallet.sol:MultiSignatureWallet",
						"label": "required",
						"offset": 0,
						"slot": "1",
						"type": "t_uint256"
					},
					{
						"astId": 22,
						"contract": "lession3.3-Function/MultiSignatureWallet.sol:MultiSignatureWallet",
						"label": "isOwner",
						"offset": 0,
						"slot": "2",
						"type": "t_mapping(t_address,t_bool)"
					},
					{
						"astId": 25,
						"contract": "lession3.3-Function/MultiSignatureWallet.sol:MultiSignatureWallet",
						"label": "transactionCount",
						"offset": 0,
						"slot": "3",
						"type": "t_uint256"
					},
					{
						"astId": 30,
						"contract": "lession3.3-Function/MultiSignatureWallet.sol:MultiSignatureWallet",
						"label": "transactions",
						"offset": 0,
						"slot": "4",
						"type": "t_mapping(t_uint256,t_struct(Transaction)13_storage)"
					},
					{
						"astId": 36,
						"contract": "lession3.3-Function/MultiSignatureWallet.sol:MultiSignatureWallet",
						"label": "confirmations",
						"offset": 0,
						"slot": "5",
						"type": "t_mapping(t_uint256,t_mapping(t_address,t_bool))"
					}
				],
				"types": {
					"t_address": {
						"encoding": "inplace",
						"label": "address",
						"numberOfBytes": "20"
					},
					"t_array(t_address)dyn_storage": {
						"base": "t_address",
						"encoding": "dynamic_array",
						"label": "address[]",
						"numberOfBytes": "32"
					},
					"t_bool": {
						"encoding": "inplace",
						"label": "bool",
						"numberOfBytes": "1"
					},
					"t_bytes_storage": {
						"encoding": "bytes",
						"label": "bytes",
						"numberOfBytes": "32"
					},
					"t_mapping(t_address,t_bool)": {
						"encoding": "mapping",
						"key": "t_address",
						"label": "mapping(address => bool)",
						"numberOfBytes": "32",
						"value": "t_bool"
					},
					"t_mapping(t_uint256,t_mapping(t_address,t_bool))": {
						"encoding": "mapping",
						"key": "t_uint256",
						"label": "mapping(uint256 => mapping(address => bool))",
						"numberOfBytes": "32",
						"value": "t_mapping(t_address,t_bool)"
					},
					"t_mapping(t_uint256,t_struct(Transaction)13_storage)": {
						"encoding": "mapping",
						"key": "t_uint256",
						"label": "mapping(uint256 => struct MultiSignatureWallet.Transaction)",
						"numberOfBytes": "32",
						"value": "t_struct(Transaction)13_storage"
					},
					"t_struct(Transaction)13_storage": {
						"encoding": "inplace",
						"label": "struct MultiSignatureWallet.Transaction",
						"members": [
							{
								"astId": 4,
								"contract": "lession3.3-Function/MultiSignatureWallet.sol:MultiSignatureWallet",
								"label": "to",
								"offset": 0,
								"slot": "0",
								"type": "t_address"
							},
							{
								"astId": 6,
								"contract": "lession3.3-Function/MultiSignatureWallet.sol:MultiSignatureWallet",
								"label": "value",
								"offset": 0,
								"slot": "1",
								"type": "t_uint256"
							},
							{
								"astId": 8,
								"contract": "lession3.3-Function/MultiSignatureWallet.sol:MultiSignatureWallet",
								"label": "data",
								"offset": 0,
								"slot": "2",
								"type": "t_bytes_storage"
							},
							{
								"astId": 10,
								"contract": "lession3.3-Function/MultiSignatureWallet.sol:MultiSignatureWallet",
								"label": "executed",
								"offset": 0,
								"slot": "3",
								"type": "t_bool"
							},
							{
								"astId": 12,
								"contract": "lession3.3-Function/MultiSignatureWallet.sol:MultiSignatureWallet",
								"label": "confirmCount",
								"offset": 0,
								"slot": "4",
								"type": "t_uint256"
							}
						],
						"numberOfBytes": "160"
					},
					"t_uint256": {
						"encoding": "inplace",
						"label": "uint256",
						"numberOfBytes": "32"
					}
				}
			},
			"userdoc": {
				"kind": "user",
				"methods": {},
				"notice": "需求： 创建⼀个简单的多签名钱包： 1. 需要多个签名者确认才能执⾏交易 2. 提交交易提案 3. 签名者确认提案 4. 达到阈值后执⾏ 提示： 使⽤struct存储提案 使⽤mapping记录确认 使⽤modifier检查权限",
				"version": 1
			}
		}
	}
}