{
	"lession5.1-TokenContract/TotoroToken.sol": {
		"TotoroToken": {
			"abi": [
				{
					"inputs": [
						{
							"internalType": "string",
							"name": "_name",
							"type": "string"
						},
						{
							"internalType": "string",
							"name": "_symbol",
							"type": "string"
						},
						{
							"internalType": "uint8",
							"name": "_decimals",
							"type": "uint8"
						},
						{
							"internalType": "uint256",
							"name": "_initSupply",
							"type": "uint256"
						}
					],
					"stateMutability": "nonpayable",
					"type": "constructor"
				},
				{
					"anonymous": false,
					"inputs": [
						{
							"indexed": true,
							"internalType": "address",
							"name": "owner",
							"type": "address"
						},
						{
							"indexed": true,
							"internalType": "address",
							"name": "spender",
							"type": "address"
						},
						{
							"indexed": false,
							"internalType": "uint256",
							"name": "value",
							"type": "uint256"
						}
					],
					"name": "Approval",
					"type": "event"
				},
				{
					"anonymous": false,
					"inputs": [
						{
							"indexed": true,
							"internalType": "address",
							"name": "from",
							"type": "address"
						},
						{
							"indexed": true,
							"internalType": "address",
							"name": "to",
							"type": "address"
						},
						{
							"indexed": false,
							"internalType": "uint256",
							"name": "value",
							"type": "uint256"
						}
					],
					"name": "Transfer",
					"type": "event"
				},
				{
					"inputs": [],
					"name": "MAX_COUNT",
					"outputs": [
						{
							"internalType": "uint256",
							"name": "",
							"type": "uint256"
						}
					],
					"stateMutability": "view",
					"type": "function"
				},
				{
					"inputs": [
						{
							"internalType": "address",
							"name": "",
							"type": "address"
						},
						{
							"internalType": "address",
							"name": "",
							"type": "address"
						}
					],
					"name": "allowance",
					"outputs": [
						{
							"internalType": "uint256",
							"name": "",
							"type": "uint256"
						}
					],
					"stateMutability": "view",
					"type": "function"
				},
				{
					"inputs": [
						{
							"internalType": "address",
							"name": "spender",
							"type": "address"
						},
						{
							"internalType": "uint256",
							"name": "amount",
							"type": "uint256"
						}
					],
					"name": "approve",
					"outputs": [
						{
							"internalType": "bool",
							"name": "",
							"type": "bool"
						}
					],
					"stateMutability": "nonpayable",
					"type": "function"
				},
				{
					"inputs": [
						{
							"internalType": "address",
							"name": "",
							"type": "address"
						}
					],
					"name": "balanceOf",
					"outputs": [
						{
							"internalType": "uint256",
							"name": "",
							"type": "uint256"
						}
					],
					"stateMutability": "view",
					"type": "function"
				},
				{
					"inputs": [
						{
							"internalType": "address[]",
							"name": "recipients",
							"type": "address[]"
						},
						{
							"internalType": "uint256[]",
							"name": "amounts",
							"type": "uint256[]"
						}
					],
					"name": "batchTransfer",
					"outputs": [],
					"stateMutability": "nonpayable",
					"type": "function"
				},
				{
					"inputs": [
						{
							"internalType": "uint256",
							"name": "amount",
							"type": "uint256"
						}
					],
					"name": "burn",
					"outputs": [],
					"stateMutability": "nonpayable",
					"type": "function"
				},
				{
					"inputs": [],
					"name": "decimals",
					"outputs": [
						{
							"internalType": "uint8",
							"name": "",
							"type": "uint8"
						}
					],
					"stateMutability": "view",
					"type": "function"
				},
				{
					"inputs": [
						{
							"internalType": "address",
							"name": "to",
							"type": "address"
						},
						{
							"internalType": "uint256",
							"name": "amount",
							"type": "uint256"
						}
					],
					"name": "mint",
					"outputs": [],
					"stateMutability": "nonpayable",
					"type": "function"
				},
				{
					"inputs": [],
					"name": "name",
					"outputs": [
						{
							"internalType": "string",
							"name": "",
							"type": "string"
						}
					],
					"stateMutability": "view",
					"type": "function"
				},
				{
					"inputs": [],
					"name": "owner",
					"outputs": [
						{
							"internalType": "address",
							"name": "",
							"type": "address"
						}
					],
					"stateMutability": "view",
					"type": "function"
				},
				{
					"inputs": [],
					"name": "pause",
					"outputs": [],
					"stateMutability": "nonpayable",
					"type": "function"
				},
				{
					"inputs": [],
					"name": "paused",
					"outputs": [
						{
							"internalType": "bool",
							"name": "",
							"type": "bool"
						}
					],
					"stateMutability": "view",
					"type": "function"
				},
				{
					"inputs": [],
					"name": "resume",
					"outputs": [],
					"stateMutability": "nonpayable",
					"type": "function"
				},
				{
					"inputs": [],
					"name": "symbol",
					"outputs": [
						{
							"internalType": "string",
							"name": "",
							"type": "string"
						}
					],
					"stateMutability": "view",
					"type": "function"
				},
				{
					"inputs": [],
					"name": "totalSupply",
					"outputs": [
						{
							"internalType": "uint256",
							"name": "",
							"type": "uint256"
						}
					],
					"stateMutability": "view",
					"type": "function"
				},
				{
					"inputs": [
						{
							"internalType": "address",
							"name": "to",
							"type": "address"
						},
						{
							"internalType": "uint256",
							"name": "amount",
							"type": "uint256"
						}
					],
					"name": "transfer",
					"outputs": [
						{
							"internalType": "bool",
							"name": "",
							"type": "bool"
						}
					],
					"stateMutability": "nonpayable",
					"type": "function"
				},
				{
					"inputs": [
						{
							"internalType": "address",
							"name": "from",
							"type": "address"
						},
						{
							"internalType": "address",
							"name": "to",
							"type": "address"
						},
						{
							"internalType": "uint256",
							"name": "amount",
							"type": "uint256"
						}
					],
					"name": "transferFrom",
					"outputs": [
						{
							"internalType": "bool",
							"name": "",
							"type": "bool"
						}
					],
					"stateMutability": "nonpayable",
					"type": "function"
				}
			],
			"devdoc": {
				"kind": "dev",
				"methods": {},
				"version": 1
			},
			"evm": {
				"assembly": "    /* \"lession5.1-TokenContract/TotoroToken.sol\":333:5155  contract TotoroToken {... */\n  mstore(0x40, 0x80)\n    /* \"lession5.1-TokenContract/TotoroToken.sol\":869:874  false */\n  0x00\n    /* \"lession5.1-TokenContract/TotoroToken.sol\":848:874  bool public paused = false */\n  0x06\n  exp(0x0100, 0x14)\n  dup2\n  sload\n  dup2\n  0xff\n  mul\n  not\n  and\n  swap1\n  dup4\n  iszero\n  iszero\n  mul\n  or\n  swap1\n  sstore\n  pop\n    /* \"lession5.1-TokenContract/TotoroToken.sol\":1386:1752  constructor(string memory _name,string memory _symbol,uint8 _decimals,uint _initSupply) {... */\n  callvalue\n  dup1\n  iszero\n  tag_1\n  jumpi\n  revert(0x00, 0x00)\ntag_1:\n  pop\n  mload(0x40)\n  sub(codesize, bytecodeSize)\n  dup1\n  bytecodeSize\n  dup4\n  codecopy\n  dup2\n  dup2\n  add\n  0x40\n  mstore\n  dup2\n  add\n  swap1\n  tag_2\n  swap2\n  swap1\n  tag_3\n  jump\t// in\ntag_2:\n    /* \"lession5.1-TokenContract/TotoroToken.sol\":1491:1496  _name */\n  dup4\n    /* \"lession5.1-TokenContract/TotoroToken.sol\":1484:1488  name */\n  0x00\n    /* \"lession5.1-TokenContract/TotoroToken.sol\":1484:1496  name = _name */\n  swap1\n  dup2\n  tag_6\n  swap2\n  swap1\n  tag_7\n  jump\t// in\ntag_6:\n  pop\n    /* \"lession5.1-TokenContract/TotoroToken.sol\":1515:1522  _symbol */\n  dup3\n    /* \"lession5.1-TokenContract/TotoroToken.sol\":1506:1512  symbol */\n  0x01\n    /* \"lession5.1-TokenContract/TotoroToken.sol\":1506:1522  symbol = _symbol */\n  swap1\n  dup2\n  tag_8\n  swap2\n  swap1\n  tag_7\n  jump\t// in\ntag_8:\n  pop\n    /* \"lession5.1-TokenContract/TotoroToken.sol\":1543:1552  _decimals */\n  dup2\n    /* \"lession5.1-TokenContract/TotoroToken.sol\":1532:1540  decimals */\n  0x02\n  0x00\n    /* \"lession5.1-TokenContract/TotoroToken.sol\":1532:1552  decimals = _decimals */\n  0x0100\n  exp\n  dup2\n  sload\n  dup2\n  0xff\n  mul\n  not\n  and\n  swap1\n  dup4\n  0xff\n  and\n  mul\n  or\n  swap1\n  sstore\n  pop\n    /* \"lession5.1-TokenContract/TotoroToken.sol\":1594:1603  _decimals */\n  dup2\n    /* \"lession5.1-TokenContract/TotoroToken.sol\":1590:1592  10 */\n  0x0a\n    /* \"lession5.1-TokenContract/TotoroToken.sol\":1590:1603  10**_decimals */\n  tag_9\n  swap2\n  swap1\n  tag_10\n  jump\t// in\ntag_9:\n    /* \"lession5.1-TokenContract/TotoroToken.sol\":1576:1587  _initSupply */\n  dup2\n    /* \"lession5.1-TokenContract/TotoroToken.sol\":1576:1603  _initSupply * 10**_decimals */\n  tag_11\n  swap2\n  swap1\n  tag_12\n  jump\t// in\ntag_11:\n    /* \"lession5.1-TokenContract/TotoroToken.sol\":1562:1573  totalSupply */\n  0x03\n    /* \"lession5.1-TokenContract/TotoroToken.sol\":1562:1603  totalSupply = _initSupply * 10**_decimals */\n  dup2\n  swap1\n  sstore\n  pop\n    /* \"lession5.1-TokenContract/TotoroToken.sol\":1621:1631  msg.sender */\n  caller\n    /* \"lession5.1-TokenContract/TotoroToken.sol\":1613:1618  owner */\n  0x06\n  0x00\n    /* \"lession5.1-TokenContract/TotoroToken.sol\":1613:1631  owner = msg.sender */\n  0x0100\n  exp\n  dup2\n  sload\n  dup2\n  0xffffffffffffffffffffffffffffffffffffffff\n  mul\n  not\n  and\n  swap1\n  dup4\n  0xffffffffffffffffffffffffffffffffffffffff\n  and\n  mul\n  or\n  swap1\n  sstore\n  pop\n    /* \"lession5.1-TokenContract/TotoroToken.sol\":1665:1676  totalSupply */\n  sload(0x03)\n    /* \"lession5.1-TokenContract/TotoroToken.sol\":1641:1650  balanceOf */\n  0x04\n    /* \"lession5.1-TokenContract/TotoroToken.sol\":1641:1662  balanceOf[msg.sender] */\n  0x00\n    /* \"lession5.1-TokenContract/TotoroToken.sol\":1651:1661  msg.sender */\n  caller\n    /* \"lession5.1-TokenContract/TotoroToken.sol\":1641:1662  balanceOf[msg.sender] */\n  0xffffffffffffffffffffffffffffffffffffffff\n  and\n  0xffffffffffffffffffffffffffffffffffffffff\n  and\n  dup2\n  mstore\n  0x20\n  add\n  swap1\n  dup2\n  mstore\n  0x20\n  add\n  0x00\n  keccak256\n    /* \"lession5.1-TokenContract/TotoroToken.sol\":1641:1676  balanceOf[msg.sender] = totalSupply */\n  dup2\n  swap1\n  sstore\n  pop\n    /* \"lession5.1-TokenContract/TotoroToken.sol\":1721:1731  msg.sender */\n  caller\n    /* \"lession5.1-TokenContract/TotoroToken.sol\":1700:1745  Transfer(address(0), msg.sender, totalSupply) */\n  0xffffffffffffffffffffffffffffffffffffffff\n  and\n    /* \"lession5.1-TokenContract/TotoroToken.sol\":1717:1718  0 */\n  0x00\n    /* \"lession5.1-TokenContract/TotoroToken.sol\":1700:1745  Transfer(address(0), msg.sender, totalSupply) */\n  0xffffffffffffffffffffffffffffffffffffffff\n  and\n  0xddf252ad1be2c89b69c2b068fc378daa952ba7f163c4a11628f55a4df523b3ef\n    /* \"lession5.1-TokenContract/TotoroToken.sol\":1733:1744  totalSupply */\n  sload(0x03)\n    /* \"lession5.1-TokenContract/TotoroToken.sol\":1700:1745  Transfer(address(0), msg.sender, totalSupply) */\n  mload(0x40)\n  tag_13\n  swap2\n  swap1\n  tag_14\n  jump\t// in\ntag_13:\n  mload(0x40)\n  dup1\n  swap2\n  sub\n  swap1\n  log3\n    /* \"lession5.1-TokenContract/TotoroToken.sol\":1386:1752  constructor(string memory _name,string memory _symbol,uint8 _decimals,uint _initSupply) {... */\n  pop\n  pop\n  pop\n  pop\n    /* \"lession5.1-TokenContract/TotoroToken.sol\":333:5155  contract TotoroToken {... */\n  jump(tag_15)\n    /* \"#utility.yul\":7:82   */\ntag_16:\n    /* \"#utility.yul\":40:46   */\n  0x00\n    /* \"#utility.yul\":73:75   */\n  0x40\n    /* \"#utility.yul\":67:76   */\n  mload\n    /* \"#utility.yul\":57:76   */\n  swap1\n  pop\n    /* \"#utility.yul\":7:82   */\n  swap1\n  jump\t// out\n    /* \"#utility.yul\":88:205   */\ntag_17:\n    /* \"#utility.yul\":197:198   */\n  0x00\n    /* \"#utility.yul\":194:195   */\n  0x00\n    /* \"#utility.yul\":187:199   */\n  revert\n    /* \"#utility.yul\":211:328   */\ntag_18:\n    /* \"#utility.yul\":320:321   */\n  0x00\n    /* \"#utility.yul\":317:318   */\n  0x00\n    /* \"#utility.yul\":310:322   */\n  revert\n    /* \"#utility.yul\":334:451   */\ntag_19:\n    /* \"#utility.yul\":443:444   */\n  0x00\n    /* \"#utility.yul\":440:441   */\n  0x00\n    /* \"#utility.yul\":433:445   */\n  revert\n    /* \"#utility.yul\":457:574   */\ntag_20:\n    /* \"#utility.yul\":566:567   */\n  0x00\n    /* \"#utility.yul\":563:564   */\n  0x00\n    /* \"#utility.yul\":556:568   */\n  revert\n    /* \"#utility.yul\":580:682   */\ntag_21:\n    /* \"#utility.yul\":621:627   */\n  0x00\n    /* \"#utility.yul\":672:674   */\n  0x1f\n    /* \"#utility.yul\":668:675   */\n  not\n    /* \"#utility.yul\":663:665   */\n  0x1f\n    /* \"#utility.yul\":656:661   */\n  dup4\n    /* \"#utility.yul\":652:666   */\n  add\n    /* \"#utility.yul\":648:676   */\n  and\n    /* \"#utility.yul\":638:676   */\n  swap1\n  pop\n    /* \"#utility.yul\":580:682   */\n  swap2\n  swap1\n  pop\n  jump\t// out\n    /* \"#utility.yul\":688:868   */\ntag_22:\n    /* \"#utility.yul\":736:813   */\n  0x4e487b7100000000000000000000000000000000000000000000000000000000\n    /* \"#utility.yul\":733:734   */\n  0x00\n    /* \"#utility.yul\":726:814   */\n  mstore\n    /* \"#utility.yul\":833:837   */\n  0x41\n    /* \"#utility.yul\":830:831   */\n  0x04\n    /* \"#utility.yul\":823:838   */\n  mstore\n    /* \"#utility.yul\":857:861   */\n  0x24\n    /* \"#utility.yul\":854:855   */\n  0x00\n    /* \"#utility.yul\":847:862   */\n  revert\n    /* \"#utility.yul\":874:1155   */\ntag_23:\n    /* \"#utility.yul\":957:984   */\n  tag_67\n    /* \"#utility.yul\":979:983   */\n  dup3\n    /* \"#utility.yul\":957:984   */\n  tag_21\n  jump\t// in\ntag_67:\n    /* \"#utility.yul\":949:955   */\n  dup2\n    /* \"#utility.yul\":945:985   */\n  add\n    /* \"#utility.yul\":1087:1093   */\n  dup2\n    /* \"#utility.yul\":1075:1085   */\n  dup2\n    /* \"#utility.yul\":1072:1094   */\n  lt\n    /* \"#utility.yul\":1051:1069   */\n  0xffffffffffffffff\n    /* \"#utility.yul\":1039:1049   */\n  dup3\n    /* \"#utility.yul\":1036:1070   */\n  gt\n    /* \"#utility.yul\":1033:1095   */\n  or\n    /* \"#utility.yul\":1030:1118   */\n  iszero\n  tag_68\n  jumpi\n    /* \"#utility.yul\":1098:1116   */\n  tag_69\n  tag_22\n  jump\t// in\ntag_69:\n    /* \"#utility.yul\":1030:1118   */\ntag_68:\n    /* \"#utility.yul\":1138:1148   */\n  dup1\n    /* \"#utility.yul\":1134:1136   */\n  0x40\n    /* \"#utility.yul\":1127:1149   */\n  mstore\n    /* \"#utility.yul\":917:1155   */\n  pop\n    /* \"#utility.yul\":874:1155   */\n  pop\n  pop\n  jump\t// out\n    /* \"#utility.yul\":1161:1290   */\ntag_24:\n    /* \"#utility.yul\":1195:1201   */\n  0x00\n    /* \"#utility.yul\":1222:1242   */\n  tag_71\n  tag_16\n  jump\t// in\ntag_71:\n    /* \"#utility.yul\":1212:1242   */\n  swap1\n  pop\n    /* \"#utility.yul\":1251:1284   */\n  tag_72\n    /* \"#utility.yul\":1279:1283   */\n  dup3\n    /* \"#utility.yul\":1271:1277   */\n  dup3\n    /* \"#utility.yul\":1251:1284   */\n  tag_23\n  jump\t// in\ntag_72:\n    /* \"#utility.yul\":1161:1290   */\n  swap2\n  swap1\n  pop\n  jump\t// out\n    /* \"#utility.yul\":1296:1604   */\ntag_25:\n    /* \"#utility.yul\":1358:1362   */\n  0x00\n    /* \"#utility.yul\":1448:1466   */\n  0xffffffffffffffff\n    /* \"#utility.yul\":1440:1446   */\n  dup3\n    /* \"#utility.yul\":1437:1467   */\n  gt\n    /* \"#utility.yul\":1434:1490   */\n  iszero\n  tag_74\n  jumpi\n    /* \"#utility.yul\":1470:1488   */\n  tag_75\n  tag_22\n  jump\t// in\ntag_75:\n    /* \"#utility.yul\":1434:1490   */\ntag_74:\n    /* \"#utility.yul\":1508:1537   */\n  tag_76\n    /* \"#utility.yul\":1530:1536   */\n  dup3\n    /* \"#utility.yul\":1508:1537   */\n  tag_21\n  jump\t// in\ntag_76:\n    /* \"#utility.yul\":1500:1537   */\n  swap1\n  pop\n    /* \"#utility.yul\":1592:1596   */\n  0x20\n    /* \"#utility.yul\":1586:1590   */\n  dup2\n    /* \"#utility.yul\":1582:1597   */\n  add\n    /* \"#utility.yul\":1574:1597   */\n  swap1\n  pop\n    /* \"#utility.yul\":1296:1604   */\n  swap2\n  swap1\n  pop\n  jump\t// out\n    /* \"#utility.yul\":1610:1749   */\ntag_26:\n    /* \"#utility.yul\":1699:1705   */\n  dup3\n    /* \"#utility.yul\":1694:1697   */\n  dup2\n    /* \"#utility.yul\":1689:1692   */\n  dup4\n    /* \"#utility.yul\":1683:1706   */\n  mcopy\n    /* \"#utility.yul\":1740:1741   */\n  0x00\n    /* \"#utility.yul\":1731:1737   */\n  dup4\n    /* \"#utility.yul\":1726:1729   */\n  dup4\n    /* \"#utility.yul\":1722:1738   */\n  add\n    /* \"#utility.yul\":1715:1742   */\n  mstore\n    /* \"#utility.yul\":1610:1749   */\n  pop\n  pop\n  pop\n  jump\t// out\n    /* \"#utility.yul\":1755:2189   */\ntag_27:\n    /* \"#utility.yul\":1844:1849   */\n  0x00\n    /* \"#utility.yul\":1869:1935   */\n  tag_79\n    /* \"#utility.yul\":1885:1934   */\n  tag_80\n    /* \"#utility.yul\":1927:1933   */\n  dup5\n    /* \"#utility.yul\":1885:1934   */\n  tag_25\n  jump\t// in\ntag_80:\n    /* \"#utility.yul\":1869:1935   */\n  tag_24\n  jump\t// in\ntag_79:\n    /* \"#utility.yul\":1860:1935   */\n  swap1\n  pop\n    /* \"#utility.yul\":1958:1964   */\n  dup3\n    /* \"#utility.yul\":1951:1956   */\n  dup2\n    /* \"#utility.yul\":1944:1965   */\n  mstore\n    /* \"#utility.yul\":1996:2000   */\n  0x20\n    /* \"#utility.yul\":1989:1994   */\n  dup2\n    /* \"#utility.yul\":1985:2001   */\n  add\n    /* \"#utility.yul\":2034:2037   */\n  dup5\n    /* \"#utility.yul\":2025:2031   */\n  dup5\n    /* \"#utility.yul\":2020:2023   */\n  dup5\n    /* \"#utility.yul\":2016:2032   */\n  add\n    /* \"#utility.yul\":2013:2038   */\n  gt\n    /* \"#utility.yul\":2010:2122   */\n  iszero\n  tag_81\n  jumpi\n    /* \"#utility.yul\":2041:2120   */\n  tag_82\n  tag_20\n  jump\t// in\ntag_82:\n    /* \"#utility.yul\":2010:2122   */\ntag_81:\n    /* \"#utility.yul\":2131:2183   */\n  tag_83\n    /* \"#utility.yul\":2176:2182   */\n  dup5\n    /* \"#utility.yul\":2171:2174   */\n  dup3\n    /* \"#utility.yul\":2166:2169   */\n  dup6\n    /* \"#utility.yul\":2131:2183   */\n  tag_26\n  jump\t// in\ntag_83:\n    /* \"#utility.yul\":1850:2189   */\n  pop\n    /* \"#utility.yul\":1755:2189   */\n  swap4\n  swap3\n  pop\n  pop\n  pop\n  jump\t// out\n    /* \"#utility.yul\":2209:2564   */\ntag_28:\n    /* \"#utility.yul\":2276:2281   */\n  0x00\n    /* \"#utility.yul\":2325:2328   */\n  dup3\n    /* \"#utility.yul\":2318:2322   */\n  0x1f\n    /* \"#utility.yul\":2310:2316   */\n  dup4\n    /* \"#utility.yul\":2306:2323   */\n  add\n    /* \"#utility.yul\":2302:2329   */\n  slt\n    /* \"#utility.yul\":2292:2414   */\n  tag_85\n  jumpi\n    /* \"#utility.yul\":2333:2412   */\n  tag_86\n  tag_19\n  jump\t// in\ntag_86:\n    /* \"#utility.yul\":2292:2414   */\ntag_85:\n    /* \"#utility.yul\":2443:2449   */\n  dup2\n    /* \"#utility.yul\":2437:2450   */\n  mload\n    /* \"#utility.yul\":2468:2558   */\n  tag_87\n    /* \"#utility.yul\":2554:2557   */\n  dup5\n    /* \"#utility.yul\":2546:2552   */\n  dup3\n    /* \"#utility.yul\":2539:2543   */\n  0x20\n    /* \"#utility.yul\":2531:2537   */\n  dup7\n    /* \"#utility.yul\":2527:2544   */\n  add\n    /* \"#utility.yul\":2468:2558   */\n  tag_27\n  jump\t// in\ntag_87:\n    /* \"#utility.yul\":2459:2558   */\n  swap2\n  pop\n    /* \"#utility.yul\":2282:2564   */\n  pop\n    /* \"#utility.yul\":2209:2564   */\n  swap3\n  swap2\n  pop\n  pop\n  jump\t// out\n    /* \"#utility.yul\":2570:2656   */\ntag_29:\n    /* \"#utility.yul\":2605:2612   */\n  0x00\n    /* \"#utility.yul\":2645:2649   */\n  0xff\n    /* \"#utility.yul\":2638:2643   */\n  dup3\n    /* \"#utility.yul\":2634:2650   */\n  and\n    /* \"#utility.yul\":2623:2650   */\n  swap1\n  pop\n    /* \"#utility.yul\":2570:2656   */\n  swap2\n  swap1\n  pop\n  jump\t// out\n    /* \"#utility.yul\":2662:2780   */\ntag_30:\n    /* \"#utility.yul\":2733:2755   */\n  tag_90\n    /* \"#utility.yul\":2749:2754   */\n  dup2\n    /* \"#utility.yul\":2733:2755   */\n  tag_29\n  jump\t// in\ntag_90:\n    /* \"#utility.yul\":2726:2731   */\n  dup2\n    /* \"#utility.yul\":2723:2756   */\n  eq\n    /* \"#utility.yul\":2713:2774   */\n  tag_91\n  jumpi\n    /* \"#utility.yul\":2770:2771   */\n  0x00\n    /* \"#utility.yul\":2767:2768   */\n  0x00\n    /* \"#utility.yul\":2760:2772   */\n  revert\n    /* \"#utility.yul\":2713:2774   */\ntag_91:\n    /* \"#utility.yul\":2662:2780   */\n  pop\n  jump\t// out\n    /* \"#utility.yul\":2786:2925   */\ntag_31:\n    /* \"#utility.yul\":2841:2846   */\n  0x00\n    /* \"#utility.yul\":2872:2878   */\n  dup2\n    /* \"#utility.yul\":2866:2879   */\n  mload\n    /* \"#utility.yul\":2857:2879   */\n  swap1\n  pop\n    /* \"#utility.yul\":2888:2919   */\n  tag_93\n    /* \"#utility.yul\":2913:2918   */\n  dup2\n    /* \"#utility.yul\":2888:2919   */\n  tag_30\n  jump\t// in\ntag_93:\n    /* \"#utility.yul\":2786:2925   */\n  swap3\n  swap2\n  pop\n  pop\n  jump\t// out\n    /* \"#utility.yul\":2931:3008   */\ntag_32:\n    /* \"#utility.yul\":2968:2975   */\n  0x00\n    /* \"#utility.yul\":2997:3002   */\n  dup2\n    /* \"#utility.yul\":2986:3002   */\n  swap1\n  pop\n    /* \"#utility.yul\":2931:3008   */\n  swap2\n  swap1\n  pop\n  jump\t// out\n    /* \"#utility.yul\":3014:3136   */\ntag_33:\n    /* \"#utility.yul\":3087:3111   */\n  tag_96\n    /* \"#utility.yul\":3105:3110   */\n  dup2\n    /* \"#utility.yul\":3087:3111   */\n  tag_32\n  jump\t// in\ntag_96:\n    /* \"#utility.yul\":3080:3085   */\n  dup2\n    /* \"#utility.yul\":3077:3112   */\n  eq\n    /* \"#utility.yul\":3067:3130   */\n  tag_97\n  jumpi\n    /* \"#utility.yul\":3126:3127   */\n  0x00\n    /* \"#utility.yul\":3123:3124   */\n  0x00\n    /* \"#utility.yul\":3116:3128   */\n  revert\n    /* \"#utility.yul\":3067:3130   */\ntag_97:\n    /* \"#utility.yul\":3014:3136   */\n  pop\n  jump\t// out\n    /* \"#utility.yul\":3142:3285   */\ntag_34:\n    /* \"#utility.yul\":3199:3204   */\n  0x00\n    /* \"#utility.yul\":3230:3236   */\n  dup2\n    /* \"#utility.yul\":3224:3237   */\n  mload\n    /* \"#utility.yul\":3215:3237   */\n  swap1\n  pop\n    /* \"#utility.yul\":3246:3279   */\n  tag_99\n    /* \"#utility.yul\":3273:3278   */\n  dup2\n    /* \"#utility.yul\":3246:3279   */\n  tag_33\n  jump\t// in\ntag_99:\n    /* \"#utility.yul\":3142:3285   */\n  swap3\n  swap2\n  pop\n  pop\n  jump\t// out\n    /* \"#utility.yul\":3291:4453   */\ntag_3:\n    /* \"#utility.yul\":3406:3412   */\n  0x00\n    /* \"#utility.yul\":3414:3420   */\n  0x00\n    /* \"#utility.yul\":3422:3428   */\n  0x00\n    /* \"#utility.yul\":3430:3436   */\n  0x00\n    /* \"#utility.yul\":3479:3482   */\n  0x80\n    /* \"#utility.yul\":3467:3476   */\n  dup6\n    /* \"#utility.yul\":3458:3465   */\n  dup8\n    /* \"#utility.yul\":3454:3477   */\n  sub\n    /* \"#utility.yul\":3450:3483   */\n  slt\n    /* \"#utility.yul\":3447:3567   */\n  iszero\n  tag_101\n  jumpi\n    /* \"#utility.yul\":3486:3565   */\n  tag_102\n  tag_17\n  jump\t// in\ntag_102:\n    /* \"#utility.yul\":3447:3567   */\ntag_101:\n    /* \"#utility.yul\":3627:3628   */\n  0x00\n    /* \"#utility.yul\":3616:3625   */\n  dup6\n    /* \"#utility.yul\":3612:3629   */\n  add\n    /* \"#utility.yul\":3606:3630   */\n  mload\n    /* \"#utility.yul\":3657:3675   */\n  0xffffffffffffffff\n    /* \"#utility.yul\":3649:3655   */\n  dup2\n    /* \"#utility.yul\":3646:3676   */\n  gt\n    /* \"#utility.yul\":3643:3760   */\n  iszero\n  tag_103\n  jumpi\n    /* \"#utility.yul\":3679:3758   */\n  tag_104\n  tag_18\n  jump\t// in\ntag_104:\n    /* \"#utility.yul\":3643:3760   */\ntag_103:\n    /* \"#utility.yul\":3784:3858   */\n  tag_105\n    /* \"#utility.yul\":3850:3857   */\n  dup8\n    /* \"#utility.yul\":3841:3847   */\n  dup3\n    /* \"#utility.yul\":3830:3839   */\n  dup9\n    /* \"#utility.yul\":3826:3848   */\n  add\n    /* \"#utility.yul\":3784:3858   */\n  tag_28\n  jump\t// in\ntag_105:\n    /* \"#utility.yul\":3774:3858   */\n  swap5\n  pop\n    /* \"#utility.yul\":3577:3868   */\n  pop\n    /* \"#utility.yul\":3928:3930   */\n  0x20\n    /* \"#utility.yul\":3917:3926   */\n  dup6\n    /* \"#utility.yul\":3913:3931   */\n  add\n    /* \"#utility.yul\":3907:3932   */\n  mload\n    /* \"#utility.yul\":3959:3977   */\n  0xffffffffffffffff\n    /* \"#utility.yul\":3951:3957   */\n  dup2\n    /* \"#utility.yul\":3948:3978   */\n  gt\n    /* \"#utility.yul\":3945:4062   */\n  iszero\n  tag_106\n  jumpi\n    /* \"#utility.yul\":3981:4060   */\n  tag_107\n  tag_18\n  jump\t// in\ntag_107:\n    /* \"#utility.yul\":3945:4062   */\ntag_106:\n    /* \"#utility.yul\":4086:4160   */\n  tag_108\n    /* \"#utility.yul\":4152:4159   */\n  dup8\n    /* \"#utility.yul\":4143:4149   */\n  dup3\n    /* \"#utility.yul\":4132:4141   */\n  dup9\n    /* \"#utility.yul\":4128:4150   */\n  add\n    /* \"#utility.yul\":4086:4160   */\n  tag_28\n  jump\t// in\ntag_108:\n    /* \"#utility.yul\":4076:4160   */\n  swap4\n  pop\n    /* \"#utility.yul\":3878:4170   */\n  pop\n    /* \"#utility.yul\":4209:4211   */\n  0x40\n    /* \"#utility.yul\":4235:4297   */\n  tag_109\n    /* \"#utility.yul\":4289:4296   */\n  dup8\n    /* \"#utility.yul\":4280:4286   */\n  dup3\n    /* \"#utility.yul\":4269:4278   */\n  dup9\n    /* \"#utility.yul\":4265:4287   */\n  add\n    /* \"#utility.yul\":4235:4297   */\n  tag_31\n  jump\t// in\ntag_109:\n    /* \"#utility.yul\":4225:4297   */\n  swap3\n  pop\n    /* \"#utility.yul\":4180:4307   */\n  pop\n    /* \"#utility.yul\":4346:4348   */\n  0x60\n    /* \"#utility.yul\":4372:4436   */\n  tag_110\n    /* \"#utility.yul\":4428:4435   */\n  dup8\n    /* \"#utility.yul\":4419:4425   */\n  dup3\n    /* \"#utility.yul\":4408:4417   */\n  dup9\n    /* \"#utility.yul\":4404:4426   */\n  add\n    /* \"#utility.yul\":4372:4436   */\n  tag_34\n  jump\t// in\ntag_110:\n    /* \"#utility.yul\":4362:4436   */\n  swap2\n  pop\n    /* \"#utility.yul\":4317:4446   */\n  pop\n    /* \"#utility.yul\":3291:4453   */\n  swap3\n  swap6\n  swap2\n  swap5\n  pop\n  swap3\n  pop\n  jump\t// out\n    /* \"#utility.yul\":4459:4558   */\ntag_35:\n    /* \"#utility.yul\":4511:4517   */\n  0x00\n    /* \"#utility.yul\":4545:4550   */\n  dup2\n    /* \"#utility.yul\":4539:4551   */\n  mload\n    /* \"#utility.yul\":4529:4551   */\n  swap1\n  pop\n    /* \"#utility.yul\":4459:4558   */\n  swap2\n  swap1\n  pop\n  jump\t// out\n    /* \"#utility.yul\":4564:4744   */\ntag_36:\n    /* \"#utility.yul\":4612:4689   */\n  0x4e487b7100000000000000000000000000000000000000000000000000000000\n    /* \"#utility.yul\":4609:4610   */\n  0x00\n    /* \"#utility.yul\":4602:4690   */\n  mstore\n    /* \"#utility.yul\":4709:4713   */\n  0x22\n    /* \"#utility.yul\":4706:4707   */\n  0x04\n    /* \"#utility.yul\":4699:4714   */\n  mstore\n    /* \"#utility.yul\":4733:4737   */\n  0x24\n    /* \"#utility.yul\":4730:4731   */\n  0x00\n    /* \"#utility.yul\":4723:4738   */\n  revert\n    /* \"#utility.yul\":4750:5070   */\ntag_37:\n    /* \"#utility.yul\":4794:4800   */\n  0x00\n    /* \"#utility.yul\":4831:4832   */\n  0x02\n    /* \"#utility.yul\":4825:4829   */\n  dup3\n    /* \"#utility.yul\":4821:4833   */\n  div\n    /* \"#utility.yul\":4811:4833   */\n  swap1\n  pop\n    /* \"#utility.yul\":4878:4879   */\n  0x01\n    /* \"#utility.yul\":4872:4876   */\n  dup3\n    /* \"#utility.yul\":4868:4880   */\n  and\n    /* \"#utility.yul\":4899:4917   */\n  dup1\n    /* \"#utility.yul\":4889:4970   */\n  tag_114\n  jumpi\n    /* \"#utility.yul\":4955:4959   */\n  0x7f\n    /* \"#utility.yul\":4947:4953   */\n  dup3\n    /* \"#utility.yul\":4943:4960   */\n  and\n    /* \"#utility.yul\":4933:4960   */\n  swap2\n  pop\n    /* \"#utility.yul\":4889:4970   */\ntag_114:\n    /* \"#utility.yul\":5017:5019   */\n  0x20\n    /* \"#utility.yul\":5009:5015   */\n  dup3\n    /* \"#utility.yul\":5006:5020   */\n  lt\n    /* \"#utility.yul\":4986:5004   */\n  dup2\n    /* \"#utility.yul\":4983:5021   */\n  sub\n    /* \"#utility.yul\":4980:5064   */\n  tag_115\n  jumpi\n    /* \"#utility.yul\":5036:5054   */\n  tag_116\n  tag_36\n  jump\t// in\ntag_116:\n    /* \"#utility.yul\":4980:5064   */\ntag_115:\n    /* \"#utility.yul\":4801:5070   */\n  pop\n    /* \"#utility.yul\":4750:5070   */\n  swap2\n  swap1\n  pop\n  jump\t// out\n    /* \"#utility.yul\":5076:5217   */\ntag_38:\n    /* \"#utility.yul\":5125:5129   */\n  0x00\n    /* \"#utility.yul\":5148:5151   */\n  dup2\n    /* \"#utility.yul\":5140:5151   */\n  swap1\n  pop\n    /* \"#utility.yul\":5171:5174   */\n  dup2\n    /* \"#utility.yul\":5168:5169   */\n  0x00\n    /* \"#utility.yul\":5161:5175   */\n  mstore\n    /* \"#utility.yul\":5205:5209   */\n  0x20\n    /* \"#utility.yul\":5202:5203   */\n  0x00\n    /* \"#utility.yul\":5192:5210   */\n  keccak256\n    /* \"#utility.yul\":5184:5210   */\n  swap1\n  pop\n    /* \"#utility.yul\":5076:5217   */\n  swap2\n  swap1\n  pop\n  jump\t// out\n    /* \"#utility.yul\":5223:5316   */\ntag_39:\n    /* \"#utility.yul\":5260:5266   */\n  0x00\n    /* \"#utility.yul\":5307:5309   */\n  0x20\n    /* \"#utility.yul\":5302:5304   */\n  0x1f\n    /* \"#utility.yul\":5295:5300   */\n  dup4\n    /* \"#utility.yul\":5291:5305   */\n  add\n    /* \"#utility.yul\":5287:5310   */\n  div\n    /* \"#utility.yul\":5277:5310   */\n  swap1\n  pop\n    /* \"#utility.yul\":5223:5316   */\n  swap2\n  swap1\n  pop\n  jump\t// out\n    /* \"#utility.yul\":5322:5429   */\ntag_40:\n    /* \"#utility.yul\":5366:5374   */\n  0x00\n    /* \"#utility.yul\":5416:5421   */\n  dup3\n    /* \"#utility.yul\":5410:5414   */\n  dup3\n    /* \"#utility.yul\":5406:5422   */\n  shl\n    /* \"#utility.yul\":5385:5422   */\n  swap1\n  pop\n    /* \"#utility.yul\":5322:5429   */\n  swap3\n  swap2\n  pop\n  pop\n  jump\t// out\n    /* \"#utility.yul\":5435:5828   */\ntag_41:\n    /* \"#utility.yul\":5504:5510   */\n  0x00\n    /* \"#utility.yul\":5554:5555   */\n  0x08\n    /* \"#utility.yul\":5542:5552   */\n  dup4\n    /* \"#utility.yul\":5538:5556   */\n  mul\n    /* \"#utility.yul\":5577:5674   */\n  tag_121\n    /* \"#utility.yul\":5607:5673   */\n  0xffffffffffffffffffffffffffffffffffffffffffffffffffffffffffffffff\n    /* \"#utility.yul\":5596:5605   */\n  dup3\n    /* \"#utility.yul\":5577:5674   */\n  tag_40\n  jump\t// in\ntag_121:\n    /* \"#utility.yul\":5695:5734   */\n  tag_122\n    /* \"#utility.yul\":5725:5733   */\n  dup7\n    /* \"#utility.yul\":5714:5723   */\n  dup4\n    /* \"#utility.yul\":5695:5734   */\n  tag_40\n  jump\t// in\ntag_122:\n    /* \"#utility.yul\":5683:5734   */\n  swap6\n  pop\n    /* \"#utility.yul\":5767:5771   */\n  dup1\n    /* \"#utility.yul\":5763:5772   */\n  not\n    /* \"#utility.yul\":5756:5761   */\n  dup5\n    /* \"#utility.yul\":5752:5773   */\n  and\n    /* \"#utility.yul\":5743:5773   */\n  swap4\n  pop\n    /* \"#utility.yul\":5816:5820   */\n  dup1\n    /* \"#utility.yul\":5806:5814   */\n  dup7\n    /* \"#utility.yul\":5802:5821   */\n  and\n    /* \"#utility.yul\":5795:5800   */\n  dup5\n    /* \"#utility.yul\":5792:5822   */\n  or\n    /* \"#utility.yul\":5782:5822   */\n  swap3\n  pop\n    /* \"#utility.yul\":5511:5828   */\n  pop\n  pop\n    /* \"#utility.yul\":5435:5828   */\n  swap4\n  swap3\n  pop\n  pop\n  pop\n  jump\t// out\n    /* \"#utility.yul\":5834:5894   */\ntag_42:\n    /* \"#utility.yul\":5862:5865   */\n  0x00\n    /* \"#utility.yul\":5883:5888   */\n  dup2\n    /* \"#utility.yul\":5876:5888   */\n  swap1\n  pop\n    /* \"#utility.yul\":5834:5894   */\n  swap2\n  swap1\n  pop\n  jump\t// out\n    /* \"#utility.yul\":5900:6042   */\ntag_43:\n    /* \"#utility.yul\":5950:5959   */\n  0x00\n    /* \"#utility.yul\":5983:6036   */\n  tag_125\n    /* \"#utility.yul\":6001:6035   */\n  tag_126\n    /* \"#utility.yul\":6010:6034   */\n  tag_127\n    /* \"#utility.yul\":6028:6033   */\n  dup5\n    /* \"#utility.yul\":6010:6034   */\n  tag_32\n  jump\t// in\ntag_127:\n    /* \"#utility.yul\":6001:6035   */\n  tag_42\n  jump\t// in\ntag_126:\n    /* \"#utility.yul\":5983:6036   */\n  tag_32\n  jump\t// in\ntag_125:\n    /* \"#utility.yul\":5970:6036   */\n  swap1\n  pop\n    /* \"#utility.yul\":5900:6042   */\n  swap2\n  swap1\n  pop\n  jump\t// out\n    /* \"#utility.yul\":6048:6123   */\ntag_44:\n    /* \"#utility.yul\":6091:6094   */\n  0x00\n    /* \"#utility.yul\":6112:6117   */\n  dup2\n    /* \"#utility.yul\":6105:6117   */\n  swap1\n  pop\n    /* \"#utility.yul\":6048:6123   */\n  swap2\n  swap1\n  pop\n  jump\t// out\n    /* \"#utility.yul\":6129:6398   */\ntag_45:\n    /* \"#utility.yul\":6239:6278   */\n  tag_130\n    /* \"#utility.yul\":6270:6277   */\n  dup4\n    /* \"#utility.yul\":6239:6278   */\n  tag_43\n  jump\t// in\ntag_130:\n    /* \"#utility.yul\":6300:6391   */\n  tag_131\n    /* \"#utility.yul\":6349:6390   */\n  tag_132\n    /* \"#utility.yul\":6373:6389   */\n  dup3\n    /* \"#utility.yul\":6349:6390   */\n  tag_44\n  jump\t// in\ntag_132:\n    /* \"#utility.yul\":6341:6347   */\n  dup5\n    /* \"#utility.yul\":6334:6338   */\n  dup5\n    /* \"#utility.yul\":6328:6339   */\n  sload\n    /* \"#utility.yul\":6300:6391   */\n  tag_41\n  jump\t// in\ntag_131:\n    /* \"#utility.yul\":6294:6298   */\n  dup3\n    /* \"#utility.yul\":6287:6392   */\n  sstore\n    /* \"#utility.yul\":6205:6398   */\n  pop\n    /* \"#utility.yul\":6129:6398   */\n  pop\n  pop\n  pop\n  jump\t// out\n    /* \"#utility.yul\":6404:6477   */\ntag_46:\n    /* \"#utility.yul\":6449:6452   */\n  0x00\n    /* \"#utility.yul\":6470:6471   */\n  0x00\n    /* \"#utility.yul\":6463:6471   */\n  swap1\n  pop\n    /* \"#utility.yul\":6404:6477   */\n  swap1\n  jump\t// out\n    /* \"#utility.yul\":6483:6672   */\ntag_47:\n    /* \"#utility.yul\":6560:6592   */\n  tag_135\n  tag_46\n  jump\t// in\ntag_135:\n    /* \"#utility.yul\":6601:6666   */\n  tag_136\n    /* \"#utility.yul\":6659:6665   */\n  dup2\n    /* \"#utility.yul\":6651:6657   */\n  dup5\n    /* \"#utility.yul\":6645:6649   */\n  dup5\n    /* \"#utility.yul\":6601:6666   */\n  tag_45\n  jump\t// in\ntag_136:\n    /* \"#utility.yul\":6536:6672   */\n  pop\n    /* \"#utility.yul\":6483:6672   */\n  pop\n  pop\n  jump\t// out\n    /* \"#utility.yul\":6678:6892   */\ntag_48:\n    /* \"#utility.yul\":6763:6764   */\n  0x00\n    /* \"#utility.yul\":6748:6886   */\ntag_138:\n    /* \"#utility.yul\":6773:6782   */\n  dup3\n    /* \"#utility.yul\":6770:6771   */\n  dup2\n    /* \"#utility.yul\":6767:6783   */\n  lt\n    /* \"#utility.yul\":6748:6886   */\n  iszero\n  tag_140\n  jumpi\n    /* \"#utility.yul\":6825:6876   */\n  tag_141\n    /* \"#utility.yul\":6874:6875   */\n  0x00\n    /* \"#utility.yul\":6870:6871   */\n  dup3\n    /* \"#utility.yul\":6859:6868   */\n  dup5\n    /* \"#utility.yul\":6855:6872   */\n  add\n    /* \"#utility.yul\":6825:6876   */\n  tag_47\n  jump\t// in\ntag_141:\n    /* \"#utility.yul\":6798:6799   */\n  0x01\n    /* \"#utility.yul\":6795:6796   */\n  dup2\n    /* \"#utility.yul\":6791:6800   */\n  add\n    /* \"#utility.yul\":6786:6800   */\n  swap1\n  pop\n    /* \"#utility.yul\":6748:6886   */\n  jump(tag_138)\ntag_140:\n    /* \"#utility.yul\":6752:6766   */\n  pop\n    /* \"#utility.yul\":6678:6892   */\n  pop\n  pop\n  jump\t// out\n    /* \"#utility.yul\":6898:7644   */\ntag_49:\n    /* \"#utility.yul\":6999:7001   */\n  0x1f\n    /* \"#utility.yul\":6994:6997   */\n  dup3\n    /* \"#utility.yul\":6991:7002   */\n  gt\n    /* \"#utility.yul\":6988:7637   */\n  iszero\n  tag_143\n  jumpi\n    /* \"#utility.yul\":7028:7038   */\n  dup3\n    /* \"#utility.yul\":7023:7026   */\n  dup3\n    /* \"#utility.yul\":7020:7039   */\n  gt\n    /* \"#utility.yul\":7017:7627   */\n  iszero\n  tag_144\n  jumpi\n    /* \"#utility.yul\":7074:7112   */\n  tag_145\n    /* \"#utility.yul\":7106:7111   */\n  dup2\n    /* \"#utility.yul\":7074:7112   */\n  tag_38\n  jump\t// in\ntag_145:\n    /* \"#utility.yul\":7149:7171   */\n  tag_146\n    /* \"#utility.yul\":7167:7170   */\n  dup4\n    /* \"#utility.yul\":7149:7171   */\n  tag_39\n  jump\t// in\ntag_146:\n    /* \"#utility.yul\":7208:7237   */\n  tag_147\n    /* \"#utility.yul\":7226:7236   */\n  dup6\n    /* \"#utility.yul\":7208:7237   */\n  tag_39\n  jump\t// in\ntag_147:\n    /* \"#utility.yul\":7398:7400   */\n  0x20\n    /* \"#utility.yul\":7386:7396   */\n  dup7\n    /* \"#utility.yul\":7383:7401   */\n  lt\n    /* \"#utility.yul\":7380:7459   */\n  iszero\n  tag_148\n  jumpi\n    /* \"#utility.yul\":7440:7441   */\n  0x00\n    /* \"#utility.yul\":7424:7441   */\n  swap1\n  pop\n    /* \"#utility.yul\":7380:7459   */\ntag_148:\n    /* \"#utility.yul\":7509:7521   */\n  dup1\n    /* \"#utility.yul\":7499:7507   */\n  dup4\n    /* \"#utility.yul\":7495:7522   */\n  add\n    /* \"#utility.yul\":7539:7613   */\n  tag_149\n    /* \"#utility.yul\":7599:7611   */\n  dup3\n    /* \"#utility.yul\":7585:7597   */\n  dup5\n    /* \"#utility.yul\":7581:7612   */\n  sub\n    /* \"#utility.yul\":7568:7579   */\n  dup3\n    /* \"#utility.yul\":7539:7613   */\n  tag_48\n  jump\t// in\ntag_149:\n    /* \"#utility.yul\":7040:7627   */\n  pop\n  pop\n  pop\n  pop\n    /* \"#utility.yul\":7017:7627   */\ntag_144:\n    /* \"#utility.yul\":6988:7637   */\ntag_143:\n    /* \"#utility.yul\":6898:7644   */\n  pop\n  pop\n  pop\n  jump\t// out\n    /* \"#utility.yul\":7650:7767   */\ntag_50:\n    /* \"#utility.yul\":7704:7712   */\n  0x00\n    /* \"#utility.yul\":7754:7759   */\n  dup3\n    /* \"#utility.yul\":7748:7752   */\n  dup3\n    /* \"#utility.yul\":7744:7760   */\n  shr\n    /* \"#utility.yul\":7723:7760   */\n  swap1\n  pop\n    /* \"#utility.yul\":7650:7767   */\n  swap3\n  swap2\n  pop\n  pop\n  jump\t// out\n    /* \"#utility.yul\":7773:7942   */\ntag_51:\n    /* \"#utility.yul\":7817:7823   */\n  0x00\n    /* \"#utility.yul\":7850:7901   */\n  tag_152\n    /* \"#utility.yul\":7898:7899   */\n  0x00\n    /* \"#utility.yul\":7894:7900   */\n  not\n    /* \"#utility.yul\":7886:7891   */\n  dup5\n    /* \"#utility.yul\":7883:7884   */\n  0x08\n    /* \"#utility.yul\":7879:7892   */\n  mul\n    /* \"#utility.yul\":7850:7901   */\n  tag_50\n  jump\t// in\ntag_152:\n    /* \"#utility.yul\":7846:7902   */\n  not\n    /* \"#utility.yul\":7931:7935   */\n  dup1\n    /* \"#utility.yul\":7925:7929   */\n  dup4\n    /* \"#utility.yul\":7921:7936   */\n  and\n    /* \"#utility.yul\":7911:7936   */\n  swap2\n  pop\n    /* \"#utility.yul\":7824:7942   */\n  pop\n    /* \"#utility.yul\":7773:7942   */\n  swap3\n  swap2\n  pop\n  pop\n  jump\t// out\n    /* \"#utility.yul\":7947:8242   */\ntag_52:\n    /* \"#utility.yul\":8023:8027   */\n  0x00\n    /* \"#utility.yul\":8169:8198   */\n  tag_154\n    /* \"#utility.yul\":8194:8197   */\n  dup4\n    /* \"#utility.yul\":8188:8192   */\n  dup4\n    /* \"#utility.yul\":8169:8198   */\n  tag_51\n  jump\t// in\ntag_154:\n    /* \"#utility.yul\":8161:8198   */\n  swap2\n  pop\n    /* \"#utility.yul\":8231:8234   */\n  dup3\n    /* \"#utility.yul\":8228:8229   */\n  0x02\n    /* \"#utility.yul\":8224:8235   */\n  mul\n    /* \"#utility.yul\":8218:8222   */\n  dup3\n    /* \"#utility.yul\":8215:8236   */\n  or\n    /* \"#utility.yul\":8207:8236   */\n  swap1\n  pop\n    /* \"#utility.yul\":7947:8242   */\n  swap3\n  swap2\n  pop\n  pop\n  jump\t// out\n    /* \"#utility.yul\":8247:9642   */\ntag_7:\n    /* \"#utility.yul\":8364:8401   */\n  tag_156\n    /* \"#utility.yul\":8397:8400   */\n  dup3\n    /* \"#utility.yul\":8364:8401   */\n  tag_35\n  jump\t// in\ntag_156:\n    /* \"#utility.yul\":8466:8484   */\n  0xffffffffffffffff\n    /* \"#utility.yul\":8458:8464   */\n  dup2\n    /* \"#utility.yul\":8455:8485   */\n  gt\n    /* \"#utility.yul\":8452:8508   */\n  iszero\n  tag_157\n  jumpi\n    /* \"#utility.yul\":8488:8506   */\n  tag_158\n  tag_22\n  jump\t// in\ntag_158:\n    /* \"#utility.yul\":8452:8508   */\ntag_157:\n    /* \"#utility.yul\":8532:8570   */\n  tag_159\n    /* \"#utility.yul\":8564:8568   */\n  dup3\n    /* \"#utility.yul\":8558:8569   */\n  sload\n    /* \"#utility.yul\":8532:8570   */\n  tag_37\n  jump\t// in\ntag_159:\n    /* \"#utility.yul\":8617:8684   */\n  tag_160\n    /* \"#utility.yul\":8677:8683   */\n  dup3\n    /* \"#utility.yul\":8669:8675   */\n  dup3\n    /* \"#utility.yul\":8663:8667   */\n  dup6\n    /* \"#utility.yul\":8617:8684   */\n  tag_49\n  jump\t// in\ntag_160:\n    /* \"#utility.yul\":8711:8712   */\n  0x00\n    /* \"#utility.yul\":8735:8739   */\n  0x20\n    /* \"#utility.yul\":8722:8739   */\n  swap1\n  pop\n    /* \"#utility.yul\":8767:8769   */\n  0x1f\n    /* \"#utility.yul\":8759:8765   */\n  dup4\n    /* \"#utility.yul\":8756:8770   */\n  gt\n    /* \"#utility.yul\":8784:8785   */\n  0x01\n    /* \"#utility.yul\":8779:9397   */\n  dup2\n  eq\n  tag_162\n  jumpi\n    /* \"#utility.yul\":9441:9442   */\n  0x00\n    /* \"#utility.yul\":9458:9464   */\n  dup5\n    /* \"#utility.yul\":9455:9532   */\n  iszero\n  tag_163\n  jumpi\n    /* \"#utility.yul\":9507:9516   */\n  dup3\n    /* \"#utility.yul\":9502:9505   */\n  dup8\n    /* \"#utility.yul\":9498:9517   */\n  add\n    /* \"#utility.yul\":9492:9518   */\n  mload\n    /* \"#utility.yul\":9483:9518   */\n  swap1\n  pop\n    /* \"#utility.yul\":9455:9532   */\ntag_163:\n    /* \"#utility.yul\":9558:9625   */\n  tag_164\n    /* \"#utility.yul\":9618:9624   */\n  dup6\n    /* \"#utility.yul\":9611:9616   */\n  dup3\n    /* \"#utility.yul\":9558:9625   */\n  tag_52\n  jump\t// in\ntag_164:\n    /* \"#utility.yul\":9552:9556   */\n  dup7\n    /* \"#utility.yul\":9545:9626   */\n  sstore\n    /* \"#utility.yul\":9414:9636   */\n  pop\n    /* \"#utility.yul\":8749:9636   */\n  jump(tag_161)\n    /* \"#utility.yul\":8779:9397   */\ntag_162:\n    /* \"#utility.yul\":8831:8835   */\n  0x1f\n    /* \"#utility.yul\":8827:8836   */\n  not\n    /* \"#utility.yul\":8819:8825   */\n  dup5\n    /* \"#utility.yul\":8815:8837   */\n  and\n    /* \"#utility.yul\":8865:8902   */\n  tag_165\n    /* \"#utility.yul\":8897:8901   */\n  dup7\n    /* \"#utility.yul\":8865:8902   */\n  tag_38\n  jump\t// in\ntag_165:\n    /* \"#utility.yul\":8924:8925   */\n  0x00\n    /* \"#utility.yul\":8938:9146   */\ntag_166:\n    /* \"#utility.yul\":8952:8959   */\n  dup3\n    /* \"#utility.yul\":8949:8950   */\n  dup2\n    /* \"#utility.yul\":8946:8960   */\n  lt\n    /* \"#utility.yul\":8938:9146   */\n  iszero\n  tag_168\n  jumpi\n    /* \"#utility.yul\":9031:9040   */\n  dup5\n    /* \"#utility.yul\":9026:9029   */\n  dup10\n    /* \"#utility.yul\":9022:9041   */\n  add\n    /* \"#utility.yul\":9016:9042   */\n  mload\n    /* \"#utility.yul\":9008:9014   */\n  dup3\n    /* \"#utility.yul\":9001:9043   */\n  sstore\n    /* \"#utility.yul\":9082:9083   */\n  0x01\n    /* \"#utility.yul\":9074:9080   */\n  dup3\n    /* \"#utility.yul\":9070:9084   */\n  add\n    /* \"#utility.yul\":9060:9084   */\n  swap2\n  pop\n    /* \"#utility.yul\":9129:9131   */\n  0x20\n    /* \"#utility.yul\":9118:9127   */\n  dup6\n    /* \"#utility.yul\":9114:9132   */\n  add\n    /* \"#utility.yul\":9101:9132   */\n  swap5\n  pop\n    /* \"#utility.yul\":8975:8979   */\n  0x20\n    /* \"#utility.yul\":8972:8973   */\n  dup2\n    /* \"#utility.yul\":8968:8980   */\n  add\n    /* \"#utility.yul\":8963:8980   */\n  swap1\n  pop\n    /* \"#utility.yul\":8938:9146   */\n  jump(tag_166)\ntag_168:\n    /* \"#utility.yul\":9174:9180   */\n  dup7\n    /* \"#utility.yul\":9165:9172   */\n  dup4\n    /* \"#utility.yul\":9162:9181   */\n  lt\n    /* \"#utility.yul\":9159:9338   */\n  iszero\n  tag_169\n  jumpi\n    /* \"#utility.yul\":9232:9241   */\n  dup5\n    /* \"#utility.yul\":9227:9230   */\n  dup10\n    /* \"#utility.yul\":9223:9242   */\n  add\n    /* \"#utility.yul\":9217:9243   */\n  mload\n    /* \"#utility.yul\":9275:9323   */\n  tag_170\n    /* \"#utility.yul\":9317:9321   */\n  0x1f\n    /* \"#utility.yul\":9309:9315   */\n  dup10\n    /* \"#utility.yul\":9305:9322   */\n  and\n    /* \"#utility.yul\":9294:9303   */\n  dup3\n    /* \"#utility.yul\":9275:9323   */\n  tag_51\n  jump\t// in\ntag_170:\n    /* \"#utility.yul\":9267:9273   */\n  dup4\n    /* \"#utility.yul\":9260:9324   */\n  sstore\n    /* \"#utility.yul\":9182:9338   */\n  pop\n    /* \"#utility.yul\":9159:9338   */\ntag_169:\n    /* \"#utility.yul\":9384:9385   */\n  0x01\n    /* \"#utility.yul\":9380:9381   */\n  0x02\n    /* \"#utility.yul\":9372:9378   */\n  dup9\n    /* \"#utility.yul\":9368:9382   */\n  mul\n    /* \"#utility.yul\":9364:9386   */\n  add\n    /* \"#utility.yul\":9358:9362   */\n  dup9\n    /* \"#utility.yul\":9351:9387   */\n  sstore\n    /* \"#utility.yul\":8786:9397   */\n  pop\n  pop\n  pop\n    /* \"#utility.yul\":8749:9636   */\ntag_161:\n  pop\n    /* \"#utility.yul\":8339:9642   */\n  pop\n  pop\n  pop\n    /* \"#utility.yul\":8247:9642   */\n  pop\n  pop\n  jump\t// out\n    /* \"#utility.yul\":9648:9828   */\ntag_53:\n    /* \"#utility.yul\":9696:9773   */\n  0x4e487b7100000000000000000000000000000000000000000000000000000000\n    /* \"#utility.yul\":9693:9694   */\n  0x00\n    /* \"#utility.yul\":9686:9774   */\n  mstore\n    /* \"#utility.yul\":9793:9797   */\n  0x11\n    /* \"#utility.yul\":9790:9791   */\n  0x04\n    /* \"#utility.yul\":9783:9798   */\n  mstore\n    /* \"#utility.yul\":9817:9821   */\n  0x24\n    /* \"#utility.yul\":9814:9815   */\n  0x00\n    /* \"#utility.yul\":9807:9822   */\n  revert\n    /* \"#utility.yul\":9834:9936   */\ntag_54:\n    /* \"#utility.yul\":9876:9884   */\n  0x00\n    /* \"#utility.yul\":9923:9928   */\n  dup2\n    /* \"#utility.yul\":9920:9921   */\n  0x01\n    /* \"#utility.yul\":9916:9929   */\n  shr\n    /* \"#utility.yul\":9895:9929   */\n  swap1\n  pop\n    /* \"#utility.yul\":9834:9936   */\n  swap2\n  swap1\n  pop\n  jump\t// out\n    /* \"#utility.yul\":9942:10790   */\ntag_55:\n    /* \"#utility.yul\":10003:10008   */\n  0x00\n    /* \"#utility.yul\":10010:10014   */\n  0x00\n    /* \"#utility.yul\":10034:10040   */\n  dup3\n    /* \"#utility.yul\":10025:10040   */\n  swap2\n  pop\n    /* \"#utility.yul\":10058:10063   */\n  dup4\n    /* \"#utility.yul\":10049:10063   */\n  swap1\n  pop\n    /* \"#utility.yul\":10072:10784   */\ntag_174:\n    /* \"#utility.yul\":10093:10094   */\n  0x01\n    /* \"#utility.yul\":10083:10091   */\n  dup6\n    /* \"#utility.yul\":10080:10095   */\n  gt\n    /* \"#utility.yul\":10072:10784   */\n  iszero\n  tag_176\n  jumpi\n    /* \"#utility.yul\":10188:10192   */\n  dup1\n    /* \"#utility.yul\":10183:10186   */\n  dup7\n    /* \"#utility.yul\":10179:10193   */\n  div\n    /* \"#utility.yul\":10173:10177   */\n  dup2\n    /* \"#utility.yul\":10170:10194   */\n  gt\n    /* \"#utility.yul\":10167:10217   */\n  iszero\n  tag_177\n  jumpi\n    /* \"#utility.yul\":10197:10215   */\n  tag_178\n  tag_53\n  jump\t// in\ntag_178:\n    /* \"#utility.yul\":10167:10217   */\ntag_177:\n    /* \"#utility.yul\":10247:10248   */\n  0x01\n    /* \"#utility.yul\":10237:10245   */\n  dup6\n    /* \"#utility.yul\":10233:10249   */\n  and\n    /* \"#utility.yul\":10230:10681   */\n  iszero\n  tag_179\n  jumpi\n    /* \"#utility.yul\":10662:10666   */\n  dup1\n    /* \"#utility.yul\":10655:10660   */\n  dup3\n    /* \"#utility.yul\":10651:10667   */\n  mul\n    /* \"#utility.yul\":10642:10667   */\n  swap2\n  pop\n    /* \"#utility.yul\":10230:10681   */\ntag_179:\n    /* \"#utility.yul\":10712:10716   */\n  dup1\n    /* \"#utility.yul\":10706:10710   */\n  dup2\n    /* \"#utility.yul\":10702:10717   */\n  mul\n    /* \"#utility.yul\":10694:10717   */\n  swap1\n  pop\n    /* \"#utility.yul\":10742:10774   */\n  tag_180\n    /* \"#utility.yul\":10765:10773   */\n  dup6\n    /* \"#utility.yul\":10742:10774   */\n  tag_54\n  jump\t// in\ntag_180:\n    /* \"#utility.yul\":10730:10774   */\n  swap5\n  pop\n    /* \"#utility.yul\":10072:10784   */\n  jump(tag_174)\ntag_176:\n    /* \"#utility.yul\":9942:10790   */\n  swap5\n  pop\n  swap5\n  swap3\n  pop\n  pop\n  pop\n  jump\t// out\n    /* \"#utility.yul\":10796:11869   */\ntag_56:\n    /* \"#utility.yul\":10850:10855   */\n  0x00\n    /* \"#utility.yul\":11041:11049   */\n  dup3\n    /* \"#utility.yul\":11031:11071   */\n  tag_182\n  jumpi\n    /* \"#utility.yul\":11062:11063   */\n  0x01\n    /* \"#utility.yul\":11053:11063   */\n  swap1\n  pop\n    /* \"#utility.yul\":11064:11069   */\n  jump(tag_181)\n    /* \"#utility.yul\":11031:11071   */\ntag_182:\n    /* \"#utility.yul\":11090:11094   */\n  dup2\n    /* \"#utility.yul\":11080:11116   */\n  tag_183\n  jumpi\n    /* \"#utility.yul\":11107:11108   */\n  0x00\n    /* \"#utility.yul\":11098:11108   */\n  swap1\n  pop\n    /* \"#utility.yul\":11109:11114   */\n  jump(tag_181)\n    /* \"#utility.yul\":11080:11116   */\ntag_183:\n    /* \"#utility.yul\":11176:11180   */\n  dup2\n    /* \"#utility.yul\":11224:11225   */\n  0x01\n    /* \"#utility.yul\":11219:11246   */\n  dup2\n  eq\n  tag_185\n  jumpi\n    /* \"#utility.yul\":11260:11261   */\n  0x02\n    /* \"#utility.yul\":11255:11446   */\n  dup2\n  eq\n  tag_186\n  jumpi\n    /* \"#utility.yul\":11169:11446   */\n  jump(tag_184)\n    /* \"#utility.yul\":11219:11246   */\ntag_185:\n    /* \"#utility.yul\":11237:11238   */\n  0x01\n    /* \"#utility.yul\":11228:11238   */\n  swap2\n  pop\n    /* \"#utility.yul\":11239:11244   */\n  pop\n  jump(tag_181)\n    /* \"#utility.yul\":11255:11446   */\ntag_186:\n    /* \"#utility.yul\":11300:11303   */\n  0xff\n    /* \"#utility.yul\":11290:11298   */\n  dup5\n    /* \"#utility.yul\":11287:11304   */\n  gt\n    /* \"#utility.yul\":11284:11327   */\n  iszero\n  tag_187\n  jumpi\n    /* \"#utility.yul\":11307:11325   */\n  tag_188\n  tag_53\n  jump\t// in\ntag_188:\n    /* \"#utility.yul\":11284:11327   */\ntag_187:\n    /* \"#utility.yul\":11356:11364   */\n  dup4\n    /* \"#utility.yul\":11353:11354   */\n  0x02\n    /* \"#utility.yul\":11349:11365   */\n  exp\n    /* \"#utility.yul\":11340:11365   */\n  swap2\n  pop\n    /* \"#utility.yul\":11391:11394   */\n  dup5\n    /* \"#utility.yul\":11384:11389   */\n  dup3\n    /* \"#utility.yul\":11381:11395   */\n  gt\n    /* \"#utility.yul\":11378:11418   */\n  iszero\n  tag_189\n  jumpi\n    /* \"#utility.yul\":11398:11416   */\n  tag_190\n  tag_53\n  jump\t// in\ntag_190:\n    /* \"#utility.yul\":11378:11418   */\ntag_189:\n    /* \"#utility.yul\":11431:11436   */\n  pop\n  jump(tag_181)\n    /* \"#utility.yul\":11169:11446   */\ntag_184:\n  pop\n    /* \"#utility.yul\":11555:11557   */\n  0x20\n    /* \"#utility.yul\":11545:11553   */\n  dup4\n    /* \"#utility.yul\":11542:11558   */\n  lt\n    /* \"#utility.yul\":11536:11539   */\n  0x0133\n    /* \"#utility.yul\":11530:11534   */\n  dup4\n    /* \"#utility.yul\":11527:11540   */\n  lt\n    /* \"#utility.yul\":11523:11559   */\n  and\n    /* \"#utility.yul\":11505:11507   */\n  0x4e\n    /* \"#utility.yul\":11495:11503   */\n  dup5\n    /* \"#utility.yul\":11492:11508   */\n  lt\n    /* \"#utility.yul\":11487:11489   */\n  0x0b\n    /* \"#utility.yul\":11481:11485   */\n  dup5\n    /* \"#utility.yul\":11478:11490   */\n  lt\n    /* \"#utility.yul\":11474:11509   */\n  and\n    /* \"#utility.yul\":11458:11569   */\n  or\n    /* \"#utility.yul\":11455:11701   */\n  iszero\n  tag_191\n  jumpi\n    /* \"#utility.yul\":11611:11619   */\n  dup3\n    /* \"#utility.yul\":11605:11609   */\n  dup3\n    /* \"#utility.yul\":11601:11620   */\n  exp\n    /* \"#utility.yul\":11592:11620   */\n  swap1\n  pop\n    /* \"#utility.yul\":11646:11649   */\n  dup4\n    /* \"#utility.yul\":11639:11644   */\n  dup2\n    /* \"#utility.yul\":11636:11650   */\n  gt\n    /* \"#utility.yul\":11633:11673   */\n  iszero\n  tag_192\n  jumpi\n    /* \"#utility.yul\":11653:11671   */\n  tag_193\n  tag_53\n  jump\t// in\ntag_193:\n    /* \"#utility.yul\":11633:11673   */\ntag_192:\n    /* \"#utility.yul\":11686:11691   */\n  jump(tag_181)\n    /* \"#utility.yul\":11455:11701   */\ntag_191:\n    /* \"#utility.yul\":11726:11768   */\n  tag_194\n    /* \"#utility.yul\":11764:11767   */\n  dup5\n    /* \"#utility.yul\":11754:11762   */\n  dup5\n    /* \"#utility.yul\":11748:11752   */\n  dup5\n    /* \"#utility.yul\":11745:11746   */\n  0x01\n    /* \"#utility.yul\":11726:11768   */\n  tag_55\n  jump\t// in\ntag_194:\n    /* \"#utility.yul\":11711:11768   */\n  swap3\n  pop\n  swap1\n  pop\n    /* \"#utility.yul\":11800:11804   */\n  dup2\n    /* \"#utility.yul\":11795:11798   */\n  dup5\n    /* \"#utility.yul\":11791:11805   */\n  div\n    /* \"#utility.yul\":11784:11789   */\n  dup2\n    /* \"#utility.yul\":11781:11806   */\n  gt\n    /* \"#utility.yul\":11778:11829   */\n  iszero\n  tag_195\n  jumpi\n    /* \"#utility.yul\":11809:11827   */\n  tag_196\n  tag_53\n  jump\t// in\ntag_196:\n    /* \"#utility.yul\":11778:11829   */\ntag_195:\n    /* \"#utility.yul\":11858:11862   */\n  dup2\n    /* \"#utility.yul\":11851:11856   */\n  dup2\n    /* \"#utility.yul\":11847:11863   */\n  mul\n    /* \"#utility.yul\":11838:11863   */\n  swap1\n  pop\n    /* \"#utility.yul\":10796:11869   */\ntag_181:\n  swap4\n  swap3\n  pop\n  pop\n  pop\n  jump\t// out\n    /* \"#utility.yul\":11875:12156   */\ntag_10:\n    /* \"#utility.yul\":11933:11938   */\n  0x00\n    /* \"#utility.yul\":11957:11980   */\n  tag_198\n    /* \"#utility.yul\":11975:11979   */\n  dup3\n    /* \"#utility.yul\":11957:11980   */\n  tag_32\n  jump\t// in\ntag_198:\n    /* \"#utility.yul\":11949:11980   */\n  swap2\n  pop\n    /* \"#utility.yul\":12001:12026   */\n  tag_199\n    /* \"#utility.yul\":12017:12025   */\n  dup4\n    /* \"#utility.yul\":12001:12026   */\n  tag_29\n  jump\t// in\ntag_199:\n    /* \"#utility.yul\":11989:12026   */\n  swap3\n  pop\n    /* \"#utility.yul\":12045:12149   */\n  tag_200\n    /* \"#utility.yul\":12082:12148   */\n  0xffffffffffffffffffffffffffffffffffffffffffffffffffffffffffffffff\n    /* \"#utility.yul\":12072:12080   */\n  dup5\n    /* \"#utility.yul\":12066:12070   */\n  dup5\n    /* \"#utility.yul\":12045:12149   */\n  tag_56\n  jump\t// in\ntag_200:\n    /* \"#utility.yul\":12036:12149   */\n  swap1\n  pop\n    /* \"#utility.yul\":11875:12156   */\n  swap3\n  swap2\n  pop\n  pop\n  jump\t// out\n    /* \"#utility.yul\":12162:12572   */\ntag_12:\n    /* \"#utility.yul\":12202:12209   */\n  0x00\n    /* \"#utility.yul\":12225:12245   */\n  tag_202\n    /* \"#utility.yul\":12243:12244   */\n  dup3\n    /* \"#utility.yul\":12225:12245   */\n  tag_32\n  jump\t// in\ntag_202:\n    /* \"#utility.yul\":12220:12245   */\n  swap2\n  pop\n    /* \"#utility.yul\":12259:12279   */\n  tag_203\n    /* \"#utility.yul\":12277:12278   */\n  dup4\n    /* \"#utility.yul\":12259:12279   */\n  tag_32\n  jump\t// in\ntag_203:\n    /* \"#utility.yul\":12254:12279   */\n  swap3\n  pop\n    /* \"#utility.yul\":12314:12315   */\n  dup3\n    /* \"#utility.yul\":12311:12312   */\n  dup3\n    /* \"#utility.yul\":12307:12316   */\n  mul\n    /* \"#utility.yul\":12336:12366   */\n  tag_204\n    /* \"#utility.yul\":12354:12365   */\n  dup2\n    /* \"#utility.yul\":12336:12366   */\n  tag_32\n  jump\t// in\ntag_204:\n    /* \"#utility.yul\":12325:12366   */\n  swap2\n  pop\n    /* \"#utility.yul\":12515:12516   */\n  dup3\n    /* \"#utility.yul\":12506:12513   */\n  dup3\n    /* \"#utility.yul\":12502:12517   */\n  div\n    /* \"#utility.yul\":12499:12500   */\n  dup5\n    /* \"#utility.yul\":12496:12518   */\n  eq\n    /* \"#utility.yul\":12476:12477   */\n  dup4\n    /* \"#utility.yul\":12469:12478   */\n  iszero\n    /* \"#utility.yul\":12449:12532   */\n  or\n    /* \"#utility.yul\":12426:12565   */\n  tag_205\n  jumpi\n    /* \"#utility.yul\":12545:12563   */\n  tag_206\n  tag_53\n  jump\t// in\ntag_206:\n    /* \"#utility.yul\":12426:12565   */\ntag_205:\n    /* \"#utility.yul\":12210:12572   */\n  pop\n    /* \"#utility.yul\":12162:12572   */\n  swap3\n  swap2\n  pop\n  pop\n  jump\t// out\n    /* \"#utility.yul\":12578:12696   */\ntag_57:\n    /* \"#utility.yul\":12665:12689   */\n  tag_208\n    /* \"#utility.yul\":12683:12688   */\n  dup2\n    /* \"#utility.yul\":12665:12689   */\n  tag_32\n  jump\t// in\ntag_208:\n    /* \"#utility.yul\":12660:12663   */\n  dup3\n    /* \"#utility.yul\":12653:12690   */\n  mstore\n    /* \"#utility.yul\":12578:12696   */\n  pop\n  pop\n  jump\t// out\n    /* \"#utility.yul\":12702:12924   */\ntag_14:\n    /* \"#utility.yul\":12795:12799   */\n  0x00\n    /* \"#utility.yul\":12833:12835   */\n  0x20\n    /* \"#utility.yul\":12822:12831   */\n  dup3\n    /* \"#utility.yul\":12818:12836   */\n  add\n    /* \"#utility.yul\":12810:12836   */\n  swap1\n  pop\n    /* \"#utility.yul\":12846:12917   */\n  tag_210\n    /* \"#utility.yul\":12914:12915   */\n  0x00\n    /* \"#utility.yul\":12903:12912   */\n  dup4\n    /* \"#utility.yul\":12899:12916   */\n  add\n    /* \"#utility.yul\":12890:12896   */\n  dup5\n    /* \"#utility.yul\":12846:12917   */\n  tag_57\n  jump\t// in\ntag_210:\n    /* \"#utility.yul\":12702:12924   */\n  swap3\n  swap2\n  pop\n  pop\n  jump\t// out\n    /* \"lession5.1-TokenContract/TotoroToken.sol\":333:5155  contract TotoroToken {... */\ntag_15:\n  dataSize(sub_0)\n  dup1\n  dataOffset(sub_0)\n  0x00\n  codecopy\n  0x00\n  return\nstop\n\nsub_0: assembly {\n        /* \"lession5.1-TokenContract/TotoroToken.sol\":333:5155  contract TotoroToken {... */\n      mstore(0x40, 0x80)\n      callvalue\n      dup1\n      iszero\n      tag_1\n      jumpi\n      revert(0x00, 0x00)\n    tag_1:\n      pop\n      jumpi(tag_2, lt(calldatasize, 0x04))\n      shr(0xe0, calldataload(0x00))\n      dup1\n      0x5c975abb\n      gt\n      tag_20\n      jumpi\n      dup1\n      0x88d695b2\n      gt\n      tag_21\n      jumpi\n      dup1\n      0x88d695b2\n      eq\n      tag_15\n      jumpi\n      dup1\n      0x8da5cb5b\n      eq\n      tag_16\n      jumpi\n      dup1\n      0x95d89b41\n      eq\n      tag_17\n      jumpi\n      dup1\n      0xa9059cbb\n      eq\n      tag_18\n      jumpi\n      dup1\n      0xdd62ed3e\n      eq\n      tag_19\n      jumpi\n      jump(tag_2)\n    tag_21:\n      dup1\n      0x5c975abb\n      eq\n      tag_11\n      jumpi\n      dup1\n      0x70a08231\n      eq\n      tag_12\n      jumpi\n      dup1\n      0x77163c1d\n      eq\n      tag_13\n      jumpi\n      dup1\n      0x8456cb59\n      eq\n      tag_14\n      jumpi\n      jump(tag_2)\n    tag_20:\n      dup1\n      0x23b872dd\n      gt\n      tag_22\n      jumpi\n      dup1\n      0x23b872dd\n      eq\n      tag_7\n      jumpi\n      dup1\n      0x313ce567\n      eq\n      tag_8\n      jumpi\n      dup1\n      0x40c10f19\n      eq\n      tag_9\n      jumpi\n      dup1\n      0x42966c68\n      eq\n      tag_10\n      jumpi\n      jump(tag_2)\n    tag_22:\n      dup1\n      0x046f7da2\n      eq\n      tag_3\n      jumpi\n      dup1\n      0x06fdde03\n      eq\n      tag_4\n      jumpi\n      dup1\n      0x095ea7b3\n      eq\n      tag_5\n      jumpi\n      dup1\n      0x18160ddd\n      eq\n      tag_6\n      jumpi\n    tag_2:\n      revert(0x00, 0x00)\n        /* \"lession5.1-TokenContract/TotoroToken.sol\":5075:5152  function resume() public onlyOwner whenPaused {... */\n    tag_3:\n      tag_23\n      tag_24\n      jump\t// in\n    tag_23:\n      stop\n        /* \"lession5.1-TokenContract/TotoroToken.sol\":385:403  string public name */\n    tag_4:\n      tag_25\n      tag_26\n      jump\t// in\n    tag_25:\n      mload(0x40)\n      tag_27\n      swap2\n      swap1\n      tag_28\n      jump\t// in\n    tag_27:\n      mload(0x40)\n      dup1\n      swap2\n      sub\n      swap1\n      return\n        /* \"lession5.1-TokenContract/TotoroToken.sol\":2269:2539  function approve(address spender,uint amount) public returns (bool) {... */\n    tag_5:\n      tag_29\n      0x04\n      dup1\n      calldatasize\n      sub\n      dup2\n      add\n      swap1\n      tag_30\n      swap2\n      swap1\n      tag_31\n      jump\t// in\n    tag_30:\n      tag_32\n      jump\t// in\n    tag_29:\n      mload(0x40)\n      tag_33\n      swap2\n      swap1\n      tag_34\n      jump\t// in\n    tag_33:\n      mload(0x40)\n      dup1\n      swap2\n      sub\n      swap1\n      return\n        /* \"lession5.1-TokenContract/TotoroToken.sol\":462:485  uint public totalSupply */\n    tag_6:\n      tag_35\n      tag_36\n      jump\t// in\n    tag_35:\n      mload(0x40)\n      tag_37\n      swap2\n      swap1\n      tag_38\n      jump\t// in\n    tag_37:\n      mload(0x40)\n      dup1\n      swap2\n      sub\n      swap1\n      return\n        /* \"lession5.1-TokenContract/TotoroToken.sol\":2632:3155  function transferFrom(address from,address to,uint amount) public returns (bool) {... */\n    tag_7:\n      tag_39\n      0x04\n      dup1\n      calldatasize\n      sub\n      dup2\n      add\n      swap1\n      tag_40\n      swap2\n      swap1\n      tag_41\n      jump\t// in\n    tag_40:\n      tag_42\n      jump\t// in\n    tag_39:\n      mload(0x40)\n      tag_43\n      swap2\n      swap1\n      tag_34\n      jump\t// in\n    tag_43:\n      mload(0x40)\n      dup1\n      swap2\n      sub\n      swap1\n      return\n        /* \"lession5.1-TokenContract/TotoroToken.sol\":435:456  uint8 public decimals */\n    tag_8:\n      tag_44\n      tag_45\n      jump\t// in\n    tag_44:\n      mload(0x40)\n      tag_46\n      swap2\n      swap1\n      tag_47\n      jump\t// in\n    tag_46:\n      mload(0x40)\n      dup1\n      swap2\n      sub\n      swap1\n      return\n        /* \"lession5.1-TokenContract/TotoroToken.sol\":3256:3499  function mint(address to, uint amount) public onlyOwner {... */\n    tag_9:\n      tag_48\n      0x04\n      dup1\n      calldatasize\n      sub\n      dup2\n      add\n      swap1\n      tag_49\n      swap2\n      swap1\n      tag_31\n      jump\t// in\n    tag_49:\n      tag_50\n      jump\t// in\n    tag_48:\n      stop\n        /* \"lession5.1-TokenContract/TotoroToken.sol\":3582:3827  function burn(uint amount) public {... */\n    tag_10:\n      tag_51\n      0x04\n      dup1\n      calldatasize\n      sub\n      dup2\n      add\n      swap1\n      tag_52\n      swap2\n      swap1\n      tag_53\n      jump\t// in\n    tag_52:\n      tag_54\n      jump\t// in\n    tag_51:\n      stop\n        /* \"lession5.1-TokenContract/TotoroToken.sol\":848:874  bool public paused = false */\n    tag_11:\n      tag_55\n      tag_56\n      jump\t// in\n    tag_55:\n      mload(0x40)\n      tag_57\n      swap2\n      swap1\n      tag_34\n      jump\t// in\n    tag_57:\n      mload(0x40)\n      dup1\n      swap2\n      sub\n      swap1\n      return\n        /* \"lession5.1-TokenContract/TotoroToken.sol\":544:586  mapping (address => uint) public balanceOf */\n    tag_12:\n      tag_58\n      0x04\n      dup1\n      calldatasize\n      sub\n      dup2\n      add\n      swap1\n      tag_59\n      swap2\n      swap1\n      tag_60\n      jump\t// in\n    tag_59:\n      tag_61\n      jump\t// in\n    tag_58:\n      mload(0x40)\n      tag_62\n      swap2\n      swap1\n      tag_38\n      jump\t// in\n    tag_62:\n      mload(0x40)\n      dup1\n      swap2\n      sub\n      swap1\n      return\n        /* \"lession5.1-TokenContract/TotoroToken.sol\":771:806  uint public constant MAX_COUNT = 50 */\n    tag_13:\n      tag_63\n      tag_64\n      jump\t// in\n    tag_63:\n      mload(0x40)\n      tag_65\n      swap2\n      swap1\n      tag_38\n      jump\t// in\n    tag_65:\n      mload(0x40)\n      dup1\n      swap2\n      sub\n      swap1\n      return\n        /* \"lession5.1-TokenContract/TotoroToken.sol\":4977:5055  function pause() public  onlyOwner whenNotPaused{... */\n    tag_14:\n      tag_66\n      tag_67\n      jump\t// in\n    tag_66:\n      stop\n        /* \"lession5.1-TokenContract/TotoroToken.sol\":3859:4957  function batchTransfer(address[] memory recipients,uint[] memory amounts) external {... */\n    tag_15:\n      tag_68\n      0x04\n      dup1\n      calldatasize\n      sub\n      dup2\n      add\n      swap1\n      tag_69\n      swap2\n      swap1\n      tag_70\n      jump\t// in\n    tag_69:\n      tag_71\n      jump\t// in\n    tag_68:\n      stop\n        /* \"lession5.1-TokenContract/TotoroToken.sol\":711:731  address public owner */\n    tag_16:\n      tag_72\n      tag_73\n      jump\t// in\n    tag_72:\n      mload(0x40)\n      tag_74\n      swap2\n      swap1\n      tag_75\n      jump\t// in\n    tag_74:\n      mload(0x40)\n      dup1\n      swap2\n      sub\n      swap1\n      return\n        /* \"lession5.1-TokenContract/TotoroToken.sol\":409:429  string public symbol */\n    tag_17:\n      tag_76\n      tag_77\n      jump\t// in\n    tag_76:\n      mload(0x40)\n      tag_78\n      swap2\n      swap1\n      tag_28\n      jump\t// in\n    tag_78:\n      mload(0x40)\n      dup1\n      swap2\n      sub\n      swap1\n      return\n        /* \"lession5.1-TokenContract/TotoroToken.sol\":1824:2200  function transfer(address to, uint amount) public whenNotPaused returns (bool) {... */\n    tag_18:\n      tag_79\n      0x04\n      dup1\n      calldatasize\n      sub\n      dup2\n      add\n      swap1\n      tag_80\n      swap2\n      swap1\n      tag_31\n      jump\t// in\n    tag_80:\n      tag_81\n      jump\t// in\n    tag_79:\n      mload(0x40)\n      tag_82\n      swap2\n      swap1\n      tag_34\n      jump\t// in\n    tag_82:\n      mload(0x40)\n      dup1\n      swap2\n      sub\n      swap1\n      return\n        /* \"lession5.1-TokenContract/TotoroToken.sol\":624:687  mapping (address => mapping (address => uint)) public allowance */\n    tag_19:\n      tag_83\n      0x04\n      dup1\n      calldatasize\n      sub\n      dup2\n      add\n      swap1\n      tag_84\n      swap2\n      swap1\n      tag_85\n      jump\t// in\n    tag_84:\n      tag_86\n      jump\t// in\n    tag_83:\n      mload(0x40)\n      tag_87\n      swap2\n      swap1\n      tag_38\n      jump\t// in\n    tag_87:\n      mload(0x40)\n      dup1\n      swap2\n      sub\n      swap1\n      return\n        /* \"lession5.1-TokenContract/TotoroToken.sol\":5075:5152  function resume() public onlyOwner whenPaused {... */\n    tag_24:\n        /* \"lession5.1-TokenContract/TotoroToken.sol\":1116:1121  owner */\n      0x06\n      0x00\n      swap1\n      sload\n      swap1\n      0x0100\n      exp\n      swap1\n      div\n      0xffffffffffffffffffffffffffffffffffffffff\n      and\n        /* \"lession5.1-TokenContract/TotoroToken.sol\":1102:1121  msg.sender == owner */\n      0xffffffffffffffffffffffffffffffffffffffff\n      and\n        /* \"lession5.1-TokenContract/TotoroToken.sol\":1102:1112  msg.sender */\n      caller\n        /* \"lession5.1-TokenContract/TotoroToken.sol\":1102:1121  msg.sender == owner */\n      0xffffffffffffffffffffffffffffffffffffffff\n      and\n      eq\n        /* \"lession5.1-TokenContract/TotoroToken.sol\":1094:1146  require(msg.sender == owner, \"Only owner can call!\") */\n      tag_89\n      jumpi\n      mload(0x40)\n      0x08c379a000000000000000000000000000000000000000000000000000000000\n      dup2\n      mstore\n      0x04\n      add\n      tag_90\n      swap1\n      tag_91\n      jump\t// in\n    tag_90:\n      mload(0x40)\n      dup1\n      swap2\n      sub\n      swap1\n      revert\n    tag_89:\n        /* \"lession5.1-TokenContract/TotoroToken.sol\":1312:1318  paused */\n      0x06\n      0x14\n      swap1\n      sload\n      swap1\n      0x0100\n      exp\n      swap1\n      div\n      0xff\n      and\n        /* \"lession5.1-TokenContract/TotoroToken.sol\":1304:1342  require(paused, \"Contract is paused!\") */\n      tag_93\n      jumpi\n      mload(0x40)\n      0x08c379a000000000000000000000000000000000000000000000000000000000\n      dup2\n      mstore\n      0x04\n      add\n      tag_94\n      swap1\n      tag_95\n      jump\t// in\n    tag_94:\n      mload(0x40)\n      dup1\n      swap2\n      sub\n      swap1\n      revert\n    tag_93:\n        /* \"lession5.1-TokenContract/TotoroToken.sol\":5140:5145  false */\n      0x00\n        /* \"lession5.1-TokenContract/TotoroToken.sol\":5131:5137  paused */\n      0x06\n      0x14\n        /* \"lession5.1-TokenContract/TotoroToken.sol\":5131:5145  paused = false */\n      0x0100\n      exp\n      dup2\n      sload\n      dup2\n      0xff\n      mul\n      not\n      and\n      swap1\n      dup4\n      iszero\n      iszero\n      mul\n      or\n      swap1\n      sstore\n      pop\n        /* \"lession5.1-TokenContract/TotoroToken.sol\":5075:5152  function resume() public onlyOwner whenPaused {... */\n      jump\t// out\n        /* \"lession5.1-TokenContract/TotoroToken.sol\":385:403  string public name */\n    tag_26:\n      0x00\n      dup1\n      sload\n      tag_97\n      swap1\n      tag_98\n      jump\t// in\n    tag_97:\n      dup1\n      0x1f\n      add\n      0x20\n      dup1\n      swap2\n      div\n      mul\n      0x20\n      add\n      mload(0x40)\n      swap1\n      dup2\n      add\n      0x40\n      mstore\n      dup1\n      swap3\n      swap2\n      swap1\n      dup2\n      dup2\n      mstore\n      0x20\n      add\n      dup3\n      dup1\n      sload\n      tag_99\n      swap1\n      tag_98\n      jump\t// in\n    tag_99:\n      dup1\n      iszero\n      tag_100\n      jumpi\n      dup1\n      0x1f\n      lt\n      tag_101\n      jumpi\n      0x0100\n      dup1\n      dup4\n      sload\n      div\n      mul\n      dup4\n      mstore\n      swap2\n      0x20\n      add\n      swap2\n      jump(tag_100)\n    tag_101:\n      dup3\n      add\n      swap2\n      swap1\n      0x00\n      mstore\n      keccak256(0x00, 0x20)\n      swap1\n    tag_102:\n      dup2\n      sload\n      dup2\n      mstore\n      swap1\n      0x01\n      add\n      swap1\n      0x20\n      add\n      dup1\n      dup4\n      gt\n      tag_102\n      jumpi\n      dup3\n      swap1\n      sub\n      0x1f\n      and\n      dup3\n      add\n      swap2\n    tag_100:\n      pop\n      pop\n      pop\n      pop\n      pop\n      dup2\n      jump\t// out\n        /* \"lession5.1-TokenContract/TotoroToken.sol\":2269:2539  function approve(address spender,uint amount) public returns (bool) {... */\n    tag_32:\n        /* \"lession5.1-TokenContract/TotoroToken.sol\":2331:2335  bool */\n      0x00\n        /* \"lession5.1-TokenContract/TotoroToken.sol\":2374:2375  0 */\n      0x00\n        /* \"lession5.1-TokenContract/TotoroToken.sol\":2355:2376  spender != address(0) */\n      0xffffffffffffffffffffffffffffffffffffffff\n      and\n        /* \"lession5.1-TokenContract/TotoroToken.sol\":2355:2362  spender */\n      dup4\n        /* \"lession5.1-TokenContract/TotoroToken.sol\":2355:2376  spender != address(0) */\n      0xffffffffffffffffffffffffffffffffffffffff\n      and\n      sub\n        /* \"lession5.1-TokenContract/TotoroToken.sol\":2347:2409  require(spender != address(0), \"Cannot approve zero address!\") */\n      tag_104\n      jumpi\n      mload(0x40)\n      0x08c379a000000000000000000000000000000000000000000000000000000000\n      dup2\n      mstore\n      0x04\n      add\n      tag_105\n      swap1\n      tag_106\n      jump\t// in\n    tag_105:\n      mload(0x40)\n      dup1\n      swap2\n      sub\n      swap1\n      revert\n    tag_104:\n        /* \"lession5.1-TokenContract/TotoroToken.sol\":2453:2459  amount */\n      dup2\n        /* \"lession5.1-TokenContract/TotoroToken.sol\":2420:2429  allowance */\n      0x05\n        /* \"lession5.1-TokenContract/TotoroToken.sol\":2420:2441  allowance[msg.sender] */\n      0x00\n        /* \"lession5.1-TokenContract/TotoroToken.sol\":2430:2440  msg.sender */\n      caller\n        /* \"lession5.1-TokenContract/TotoroToken.sol\":2420:2441  allowance[msg.sender] */\n      0xffffffffffffffffffffffffffffffffffffffff\n      and\n      0xffffffffffffffffffffffffffffffffffffffff\n      and\n      dup2\n      mstore\n      0x20\n      add\n      swap1\n      dup2\n      mstore\n      0x20\n      add\n      0x00\n      keccak256\n        /* \"lession5.1-TokenContract/TotoroToken.sol\":2420:2450  allowance[msg.sender][spender] */\n      0x00\n        /* \"lession5.1-TokenContract/TotoroToken.sol\":2442:2449  spender */\n      dup6\n        /* \"lession5.1-TokenContract/TotoroToken.sol\":2420:2450  allowance[msg.sender][spender] */\n      0xffffffffffffffffffffffffffffffffffffffff\n      and\n      0xffffffffffffffffffffffffffffffffffffffff\n      and\n      dup2\n      mstore\n      0x20\n      add\n      swap1\n      dup2\n      mstore\n      0x20\n      add\n      0x00\n      keccak256\n        /* \"lession5.1-TokenContract/TotoroToken.sol\":2420:2459  allowance[msg.sender][spender] = amount */\n      dup2\n      swap1\n      sstore\n      pop\n        /* \"lession5.1-TokenContract/TotoroToken.sol\":2495:2502  spender */\n      dup3\n        /* \"lession5.1-TokenContract/TotoroToken.sol\":2474:2511  Approval(msg.sender, spender, amount) */\n      0xffffffffffffffffffffffffffffffffffffffff\n      and\n        /* \"lession5.1-TokenContract/TotoroToken.sol\":2483:2493  msg.sender */\n      caller\n        /* \"lession5.1-TokenContract/TotoroToken.sol\":2474:2511  Approval(msg.sender, spender, amount) */\n      0xffffffffffffffffffffffffffffffffffffffff\n      and\n      0x8c5be1e5ebec7d5bd14f71427d1e84f3dd0314c0f7b2291e5b200ac8c7c3b925\n        /* \"lession5.1-TokenContract/TotoroToken.sol\":2504:2510  amount */\n      dup5\n        /* \"lession5.1-TokenContract/TotoroToken.sol\":2474:2511  Approval(msg.sender, spender, amount) */\n      mload(0x40)\n      tag_107\n      swap2\n      swap1\n      tag_38\n      jump\t// in\n    tag_107:\n      mload(0x40)\n      dup1\n      swap2\n      sub\n      swap1\n      log3\n        /* \"lession5.1-TokenContract/TotoroToken.sol\":2528:2532  true */\n      0x01\n        /* \"lession5.1-TokenContract/TotoroToken.sol\":2521:2532  return true */\n      swap1\n      pop\n        /* \"lession5.1-TokenContract/TotoroToken.sol\":2269:2539  function approve(address spender,uint amount) public returns (bool) {... */\n      swap3\n      swap2\n      pop\n      pop\n      jump\t// out\n        /* \"lession5.1-TokenContract/TotoroToken.sol\":462:485  uint public totalSupply */\n    tag_36:\n      sload(0x03)\n      dup2\n      jump\t// out\n        /* \"lession5.1-TokenContract/TotoroToken.sol\":2632:3155  function transferFrom(address from,address to,uint amount) public returns (bool) {... */\n    tag_42:\n        /* \"lession5.1-TokenContract/TotoroToken.sol\":2707:2711  bool */\n      0x00\n        /* \"lession5.1-TokenContract/TotoroToken.sol\":2747:2748  0 */\n      0x00\n        /* \"lession5.1-TokenContract/TotoroToken.sol\":2731:2749  from != address(0) */\n      0xffffffffffffffffffffffffffffffffffffffff\n      and\n        /* \"lession5.1-TokenContract/TotoroToken.sol\":2731:2735  from */\n      dup5\n        /* \"lession5.1-TokenContract/TotoroToken.sol\":2731:2749  from != address(0) */\n      0xffffffffffffffffffffffffffffffffffffffff\n      and\n      sub\n        /* \"lession5.1-TokenContract/TotoroToken.sol\":2723:2763  require(from != address(0),\"From zero!\") */\n      tag_109\n      jumpi\n      mload(0x40)\n      0x08c379a000000000000000000000000000000000000000000000000000000000\n      dup2\n      mstore\n      0x04\n      add\n      tag_110\n      swap1\n      tag_111\n      jump\t// in\n    tag_110:\n      mload(0x40)\n      dup1\n      swap2\n      sub\n      swap1\n      revert\n    tag_109:\n        /* \"lession5.1-TokenContract/TotoroToken.sol\":2795:2796  0 */\n      0x00\n        /* \"lession5.1-TokenContract/TotoroToken.sol\":2781:2797  to != address(0) */\n      0xffffffffffffffffffffffffffffffffffffffff\n      and\n        /* \"lession5.1-TokenContract/TotoroToken.sol\":2781:2783  to */\n      dup4\n        /* \"lession5.1-TokenContract/TotoroToken.sol\":2781:2797  to != address(0) */\n      0xffffffffffffffffffffffffffffffffffffffff\n      and\n      sub\n        /* \"lession5.1-TokenContract/TotoroToken.sol\":2773:2809  require(to != address(0),\"To zero!\") */\n      tag_112\n      jumpi\n      mload(0x40)\n      0x08c379a000000000000000000000000000000000000000000000000000000000\n      dup2\n      mstore\n      0x04\n      add\n      tag_113\n      swap1\n      tag_114\n      jump\t// in\n    tag_113:\n      mload(0x40)\n      dup1\n      swap2\n      sub\n      swap1\n      revert\n    tag_112:\n        /* \"lession5.1-TokenContract/TotoroToken.sol\":2846:2852  amount */\n      dup2\n        /* \"lession5.1-TokenContract/TotoroToken.sol\":2827:2836  balanceOf */\n      0x04\n        /* \"lession5.1-TokenContract/TotoroToken.sol\":2827:2842  balanceOf[from] */\n      0x00\n        /* \"lession5.1-TokenContract/TotoroToken.sol\":2837:2841  from */\n      dup7\n        /* \"lession5.1-TokenContract/TotoroToken.sol\":2827:2842  balanceOf[from] */\n      0xffffffffffffffffffffffffffffffffffffffff\n      and\n      0xffffffffffffffffffffffffffffffffffffffff\n      and\n      dup2\n      mstore\n      0x20\n      add\n      swap1\n      dup2\n      mstore\n      0x20\n      add\n      0x00\n      keccak256\n      sload\n        /* \"lession5.1-TokenContract/TotoroToken.sol\":2827:2852  balanceOf[from] >= amount */\n      lt\n      iszero\n        /* \"lession5.1-TokenContract/TotoroToken.sol\":2819:2878  require(balanceOf[from] >= amount, \"Insufficient balance!\") */\n      tag_115\n      jumpi\n      mload(0x40)\n      0x08c379a000000000000000000000000000000000000000000000000000000000\n      dup2\n      mstore\n      0x04\n      add\n      tag_116\n      swap1\n      tag_117\n      jump\t// in\n    tag_116:\n      mload(0x40)\n      dup1\n      swap2\n      sub\n      swap1\n      revert\n    tag_115:\n        /* \"lession5.1-TokenContract/TotoroToken.sol\":2927:2933  amount */\n      dup2\n        /* \"lession5.1-TokenContract/TotoroToken.sol\":2896:2905  allowance */\n      0x05\n        /* \"lession5.1-TokenContract/TotoroToken.sol\":2896:2911  allowance[from] */\n      0x00\n        /* \"lession5.1-TokenContract/TotoroToken.sol\":2906:2910  from */\n      dup7\n        /* \"lession5.1-TokenContract/TotoroToken.sol\":2896:2911  allowance[from] */\n      0xffffffffffffffffffffffffffffffffffffffff\n      and\n      0xffffffffffffffffffffffffffffffffffffffff\n      and\n      dup2\n      mstore\n      0x20\n      add\n      swap1\n      dup2\n      mstore\n      0x20\n      add\n      0x00\n      keccak256\n        /* \"lession5.1-TokenContract/TotoroToken.sol\":2896:2923  allowance[from][msg.sender] */\n      0x00\n        /* \"lession5.1-TokenContract/TotoroToken.sol\":2912:2922  msg.sender */\n      caller\n        /* \"lession5.1-TokenContract/TotoroToken.sol\":2896:2923  allowance[from][msg.sender] */\n      0xffffffffffffffffffffffffffffffffffffffff\n      and\n      0xffffffffffffffffffffffffffffffffffffffff\n      and\n      dup2\n      mstore\n      0x20\n      add\n      swap1\n      dup2\n      mstore\n      0x20\n      add\n      0x00\n      keccak256\n      sload\n        /* \"lession5.1-TokenContract/TotoroToken.sol\":2896:2933  allowance[from][msg.sender] >= amount */\n      lt\n      iszero\n        /* \"lession5.1-TokenContract/TotoroToken.sol\":2888:2960  require(allowance[from][msg.sender] >= amount, \"Insufficient balance2!\") */\n      tag_118\n      jumpi\n      mload(0x40)\n      0x08c379a000000000000000000000000000000000000000000000000000000000\n      dup2\n      mstore\n      0x04\n      add\n      tag_119\n      swap1\n      tag_120\n      jump\t// in\n    tag_119:\n      mload(0x40)\n      dup1\n      swap2\n      sub\n      swap1\n      revert\n    tag_118:\n        /* \"lession5.1-TokenContract/TotoroToken.sol\":2990:2996  amount */\n      dup2\n        /* \"lession5.1-TokenContract/TotoroToken.sol\":2971:2980  balanceOf */\n      0x04\n        /* \"lession5.1-TokenContract/TotoroToken.sol\":2971:2986  balanceOf[from] */\n      0x00\n        /* \"lession5.1-TokenContract/TotoroToken.sol\":2981:2985  from */\n      dup7\n        /* \"lession5.1-TokenContract/TotoroToken.sol\":2971:2986  balanceOf[from] */\n      0xffffffffffffffffffffffffffffffffffffffff\n      and\n      0xffffffffffffffffffffffffffffffffffffffff\n      and\n      dup2\n      mstore\n      0x20\n      add\n      swap1\n      dup2\n      mstore\n      0x20\n      add\n      0x00\n      keccak256\n      0x00\n        /* \"lession5.1-TokenContract/TotoroToken.sol\":2971:2996  balanceOf[from] -= amount */\n      dup3\n      dup3\n      sload\n      tag_121\n      swap2\n      swap1\n      tag_122\n      jump\t// in\n    tag_121:\n      swap3\n      pop\n      pop\n      dup2\n      swap1\n      sstore\n      pop\n        /* \"lession5.1-TokenContract/TotoroToken.sol\":3023:3029  amount */\n      dup2\n        /* \"lession5.1-TokenContract/TotoroToken.sol\":3006:3015  balanceOf */\n      0x04\n        /* \"lession5.1-TokenContract/TotoroToken.sol\":3006:3019  balanceOf[to] */\n      0x00\n        /* \"lession5.1-TokenContract/TotoroToken.sol\":3016:3018  to */\n      dup6\n        /* \"lession5.1-TokenContract/TotoroToken.sol\":3006:3019  balanceOf[to] */\n      0xffffffffffffffffffffffffffffffffffffffff\n      and\n      0xffffffffffffffffffffffffffffffffffffffff\n      and\n      dup2\n      mstore\n      0x20\n      add\n      swap1\n      dup2\n      mstore\n      0x20\n      add\n      0x00\n      keccak256\n      0x00\n        /* \"lession5.1-TokenContract/TotoroToken.sol\":3006:3029  balanceOf[to] += amount */\n      dup3\n      dup3\n      sload\n      tag_123\n      swap2\n      swap1\n      tag_124\n      jump\t// in\n    tag_123:\n      swap3\n      pop\n      pop\n      dup2\n      swap1\n      sstore\n      pop\n        /* \"lession5.1-TokenContract/TotoroToken.sol\":3070:3076  amount */\n      dup2\n        /* \"lession5.1-TokenContract/TotoroToken.sol\":3039:3048  allowance */\n      0x05\n        /* \"lession5.1-TokenContract/TotoroToken.sol\":3039:3054  allowance[from] */\n      0x00\n        /* \"lession5.1-TokenContract/TotoroToken.sol\":3049:3053  from */\n      dup7\n        /* \"lession5.1-TokenContract/TotoroToken.sol\":3039:3054  allowance[from] */\n      0xffffffffffffffffffffffffffffffffffffffff\n      and\n      0xffffffffffffffffffffffffffffffffffffffff\n      and\n      dup2\n      mstore\n      0x20\n      add\n      swap1\n      dup2\n      mstore\n      0x20\n      add\n      0x00\n      keccak256\n        /* \"lession5.1-TokenContract/TotoroToken.sol\":3039:3066  allowance[from][msg.sender] */\n      0x00\n        /* \"lession5.1-TokenContract/TotoroToken.sol\":3055:3065  msg.sender */\n      caller\n        /* \"lession5.1-TokenContract/TotoroToken.sol\":3039:3066  allowance[from][msg.sender] */\n      0xffffffffffffffffffffffffffffffffffffffff\n      and\n      0xffffffffffffffffffffffffffffffffffffffff\n      and\n      dup2\n      mstore\n      0x20\n      add\n      swap1\n      dup2\n      mstore\n      0x20\n      add\n      0x00\n      keccak256\n      0x00\n        /* \"lession5.1-TokenContract/TotoroToken.sol\":3039:3076  allowance[from][msg.sender] -= amount */\n      dup3\n      dup3\n      sload\n      tag_125\n      swap2\n      swap1\n      tag_122\n      jump\t// in\n    tag_125:\n      swap3\n      pop\n      pop\n      dup2\n      swap1\n      sstore\n      pop\n        /* \"lession5.1-TokenContract/TotoroToken.sol\":3107:3109  to */\n      dup3\n        /* \"lession5.1-TokenContract/TotoroToken.sol\":3092:3118  Transfer(from, to, amount) */\n      0xffffffffffffffffffffffffffffffffffffffff\n      and\n        /* \"lession5.1-TokenContract/TotoroToken.sol\":3101:3105  from */\n      dup5\n        /* \"lession5.1-TokenContract/TotoroToken.sol\":3092:3118  Transfer(from, to, amount) */\n      0xffffffffffffffffffffffffffffffffffffffff\n      and\n      0xddf252ad1be2c89b69c2b068fc378daa952ba7f163c4a11628f55a4df523b3ef\n        /* \"lession5.1-TokenContract/TotoroToken.sol\":3111:3117  amount */\n      dup5\n        /* \"lession5.1-TokenContract/TotoroToken.sol\":3092:3118  Transfer(from, to, amount) */\n      mload(0x40)\n      tag_126\n      swap2\n      swap1\n      tag_38\n      jump\t// in\n    tag_126:\n      mload(0x40)\n      dup1\n      swap2\n      sub\n      swap1\n      log3\n        /* \"lession5.1-TokenContract/TotoroToken.sol\":3144:3148  true */\n      0x01\n        /* \"lession5.1-TokenContract/TotoroToken.sol\":3137:3148  return true */\n      swap1\n      pop\n        /* \"lession5.1-TokenContract/TotoroToken.sol\":2632:3155  function transferFrom(address from,address to,uint amount) public returns (bool) {... */\n      swap4\n      swap3\n      pop\n      pop\n      pop\n      jump\t// out\n        /* \"lession5.1-TokenContract/TotoroToken.sol\":435:456  uint8 public decimals */\n    tag_45:\n      0x02\n      0x00\n      swap1\n      sload\n      swap1\n      0x0100\n      exp\n      swap1\n      div\n      0xff\n      and\n      dup2\n      jump\t// out\n        /* \"lession5.1-TokenContract/TotoroToken.sol\":3256:3499  function mint(address to, uint amount) public onlyOwner {... */\n    tag_50:\n        /* \"lession5.1-TokenContract/TotoroToken.sol\":1116:1121  owner */\n      0x06\n      0x00\n      swap1\n      sload\n      swap1\n      0x0100\n      exp\n      swap1\n      div\n      0xffffffffffffffffffffffffffffffffffffffff\n      and\n        /* \"lession5.1-TokenContract/TotoroToken.sol\":1102:1121  msg.sender == owner */\n      0xffffffffffffffffffffffffffffffffffffffff\n      and\n        /* \"lession5.1-TokenContract/TotoroToken.sol\":1102:1112  msg.sender */\n      caller\n        /* \"lession5.1-TokenContract/TotoroToken.sol\":1102:1121  msg.sender == owner */\n      0xffffffffffffffffffffffffffffffffffffffff\n      and\n      eq\n        /* \"lession5.1-TokenContract/TotoroToken.sol\":1094:1146  require(msg.sender == owner, \"Only owner can call!\") */\n      tag_128\n      jumpi\n      mload(0x40)\n      0x08c379a000000000000000000000000000000000000000000000000000000000\n      dup2\n      mstore\n      0x04\n      add\n      tag_129\n      swap1\n      tag_91\n      jump\t// in\n    tag_129:\n      mload(0x40)\n      dup1\n      swap2\n      sub\n      swap1\n      revert\n    tag_128:\n        /* \"lession5.1-TokenContract/TotoroToken.sol\":3344:3345  0 */\n      0x00\n        /* \"lession5.1-TokenContract/TotoroToken.sol\":3330:3346  to != address(0) */\n      0xffffffffffffffffffffffffffffffffffffffff\n      and\n        /* \"lession5.1-TokenContract/TotoroToken.sol\":3330:3332  to */\n      dup3\n        /* \"lession5.1-TokenContract/TotoroToken.sol\":3330:3346  to != address(0) */\n      0xffffffffffffffffffffffffffffffffffffffff\n      and\n      sub\n        /* \"lession5.1-TokenContract/TotoroToken.sol\":3322:3379  require(to != address(0), \"Cannot mint to zero address!\") */\n      tag_131\n      jumpi\n      mload(0x40)\n      0x08c379a000000000000000000000000000000000000000000000000000000000\n      dup2\n      mstore\n      0x04\n      add\n      tag_132\n      swap1\n      tag_133\n      jump\t// in\n    tag_132:\n      mload(0x40)\n      dup1\n      swap2\n      sub\n      swap1\n      revert\n    tag_131:\n        /* \"lession5.1-TokenContract/TotoroToken.sol\":3405:3411  amount */\n      dup1\n        /* \"lession5.1-TokenContract/TotoroToken.sol\":3390:3401  totalSupply */\n      0x03\n      0x00\n        /* \"lession5.1-TokenContract/TotoroToken.sol\":3390:3411  totalSupply += amount */\n      dup3\n      dup3\n      sload\n      tag_134\n      swap2\n      swap1\n      tag_124\n      jump\t// in\n    tag_134:\n      swap3\n      pop\n      pop\n      dup2\n      swap1\n      sstore\n      pop\n        /* \"lession5.1-TokenContract/TotoroToken.sol\":3438:3444  amount */\n      dup1\n        /* \"lession5.1-TokenContract/TotoroToken.sol\":3421:3430  balanceOf */\n      0x04\n        /* \"lession5.1-TokenContract/TotoroToken.sol\":3421:3434  balanceOf[to] */\n      0x00\n        /* \"lession5.1-TokenContract/TotoroToken.sol\":3431:3433  to */\n      dup5\n        /* \"lession5.1-TokenContract/TotoroToken.sol\":3421:3434  balanceOf[to] */\n      0xffffffffffffffffffffffffffffffffffffffff\n      and\n      0xffffffffffffffffffffffffffffffffffffffff\n      and\n      dup2\n      mstore\n      0x20\n      add\n      swap1\n      dup2\n      mstore\n      0x20\n      add\n      0x00\n      keccak256\n      0x00\n        /* \"lession5.1-TokenContract/TotoroToken.sol\":3421:3444  balanceOf[to] += amount */\n      dup3\n      dup3\n      sload\n      tag_135\n      swap2\n      swap1\n      tag_124\n      jump\t// in\n    tag_135:\n      swap3\n      pop\n      pop\n      dup2\n      swap1\n      sstore\n      pop\n        /* \"lession5.1-TokenContract/TotoroToken.sol\":3481:3483  to */\n      dup2\n        /* \"lession5.1-TokenContract/TotoroToken.sol\":3460:3492  Transfer(address(0), to, amount) */\n      0xffffffffffffffffffffffffffffffffffffffff\n      and\n        /* \"lession5.1-TokenContract/TotoroToken.sol\":3477:3478  0 */\n      0x00\n        /* \"lession5.1-TokenContract/TotoroToken.sol\":3460:3492  Transfer(address(0), to, amount) */\n      0xffffffffffffffffffffffffffffffffffffffff\n      and\n      0xddf252ad1be2c89b69c2b068fc378daa952ba7f163c4a11628f55a4df523b3ef\n        /* \"lession5.1-TokenContract/TotoroToken.sol\":3485:3491  amount */\n      dup4\n        /* \"lession5.1-TokenContract/TotoroToken.sol\":3460:3492  Transfer(address(0), to, amount) */\n      mload(0x40)\n      tag_136\n      swap2\n      swap1\n      tag_38\n      jump\t// in\n    tag_136:\n      mload(0x40)\n      dup1\n      swap2\n      sub\n      swap1\n      log3\n        /* \"lession5.1-TokenContract/TotoroToken.sol\":3256:3499  function mint(address to, uint amount) public onlyOwner {... */\n      pop\n      pop\n      jump\t// out\n        /* \"lession5.1-TokenContract/TotoroToken.sol\":3582:3827  function burn(uint amount) public {... */\n    tag_54:\n        /* \"lession5.1-TokenContract/TotoroToken.sol\":3659:3665  amount */\n      dup1\n        /* \"lession5.1-TokenContract/TotoroToken.sol\":3634:3643  balanceOf */\n      0x04\n        /* \"lession5.1-TokenContract/TotoroToken.sol\":3634:3655  balanceOf[msg.sender] */\n      0x00\n        /* \"lession5.1-TokenContract/TotoroToken.sol\":3644:3654  msg.sender */\n      caller\n        /* \"lession5.1-TokenContract/TotoroToken.sol\":3634:3655  balanceOf[msg.sender] */\n      0xffffffffffffffffffffffffffffffffffffffff\n      and\n      0xffffffffffffffffffffffffffffffffffffffff\n      and\n      dup2\n      mstore\n      0x20\n      add\n      swap1\n      dup2\n      mstore\n      0x20\n      add\n      0x00\n      keccak256\n      sload\n        /* \"lession5.1-TokenContract/TotoroToken.sol\":3634:3665  balanceOf[msg.sender] >= amount */\n      lt\n      iszero\n        /* \"lession5.1-TokenContract/TotoroToken.sol\":3626:3691  require(balanceOf[msg.sender] >= amount, \"Insufficient balance!\") */\n      tag_138\n      jumpi\n      mload(0x40)\n      0x08c379a000000000000000000000000000000000000000000000000000000000\n      dup2\n      mstore\n      0x04\n      add\n      tag_139\n      swap1\n      tag_117\n      jump\t// in\n    tag_139:\n      mload(0x40)\n      dup1\n      swap2\n      sub\n      swap1\n      revert\n    tag_138:\n        /* \"lession5.1-TokenContract/TotoroToken.sol\":3717:3723  amount */\n      dup1\n        /* \"lession5.1-TokenContract/TotoroToken.sol\":3702:3713  totalSupply */\n      0x03\n      0x00\n        /* \"lession5.1-TokenContract/TotoroToken.sol\":3702:3723  totalSupply -= amount */\n      dup3\n      dup3\n      sload\n      tag_140\n      swap2\n      swap1\n      tag_122\n      jump\t// in\n    tag_140:\n      swap3\n      pop\n      pop\n      dup2\n      swap1\n      sstore\n      pop\n        /* \"lession5.1-TokenContract/TotoroToken.sol\":3758:3764  amount */\n      dup1\n        /* \"lession5.1-TokenContract/TotoroToken.sol\":3733:3742  balanceOf */\n      0x04\n        /* \"lession5.1-TokenContract/TotoroToken.sol\":3733:3754  balanceOf[msg.sender] */\n      0x00\n        /* \"lession5.1-TokenContract/TotoroToken.sol\":3743:3753  msg.sender */\n      caller\n        /* \"lession5.1-TokenContract/TotoroToken.sol\":3733:3754  balanceOf[msg.sender] */\n      0xffffffffffffffffffffffffffffffffffffffff\n      and\n      0xffffffffffffffffffffffffffffffffffffffff\n      and\n      dup2\n      mstore\n      0x20\n      add\n      swap1\n      dup2\n      mstore\n      0x20\n      add\n      0x00\n      keccak256\n      0x00\n        /* \"lession5.1-TokenContract/TotoroToken.sol\":3733:3764  balanceOf[msg.sender] -= amount */\n      dup3\n      dup3\n      sload\n      tag_141\n      swap2\n      swap1\n      tag_122\n      jump\t// in\n    tag_141:\n      swap3\n      pop\n      pop\n      dup2\n      swap1\n      sstore\n      pop\n        /* \"lession5.1-TokenContract/TotoroToken.sol\":3809:3810  0 */\n      0x00\n        /* \"lession5.1-TokenContract/TotoroToken.sol\":3780:3820  Transfer(msg.sender, address(0), amount) */\n      0xffffffffffffffffffffffffffffffffffffffff\n      and\n        /* \"lession5.1-TokenContract/TotoroToken.sol\":3789:3799  msg.sender */\n      caller\n        /* \"lession5.1-TokenContract/TotoroToken.sol\":3780:3820  Transfer(msg.sender, address(0), amount) */\n      0xffffffffffffffffffffffffffffffffffffffff\n      and\n      0xddf252ad1be2c89b69c2b068fc378daa952ba7f163c4a11628f55a4df523b3ef\n        /* \"lession5.1-TokenContract/TotoroToken.sol\":3813:3819  amount */\n      dup4\n        /* \"lession5.1-TokenContract/TotoroToken.sol\":3780:3820  Transfer(msg.sender, address(0), amount) */\n      mload(0x40)\n      tag_142\n      swap2\n      swap1\n      tag_38\n      jump\t// in\n    tag_142:\n      mload(0x40)\n      dup1\n      swap2\n      sub\n      swap1\n      log3\n        /* \"lession5.1-TokenContract/TotoroToken.sol\":3582:3827  function burn(uint amount) public {... */\n      pop\n      jump\t// out\n        /* \"lession5.1-TokenContract/TotoroToken.sol\":848:874  bool public paused = false */\n    tag_56:\n      0x06\n      0x14\n      swap1\n      sload\n      swap1\n      0x0100\n      exp\n      swap1\n      div\n      0xff\n      and\n      dup2\n      jump\t// out\n        /* \"lession5.1-TokenContract/TotoroToken.sol\":544:586  mapping (address => uint) public balanceOf */\n    tag_61:\n      mstore(0x20, 0x04)\n      dup1\n      0x00\n      mstore\n      keccak256(0x00, 0x40)\n      0x00\n      swap2\n      pop\n      swap1\n      pop\n      sload\n      dup2\n      jump\t// out\n        /* \"lession5.1-TokenContract/TotoroToken.sol\":771:806  uint public constant MAX_COUNT = 50 */\n    tag_64:\n        /* \"lession5.1-TokenContract/TotoroToken.sol\":804:806  50 */\n      0x32\n        /* \"lession5.1-TokenContract/TotoroToken.sol\":771:806  uint public constant MAX_COUNT = 50 */\n      dup2\n      jump\t// out\n        /* \"lession5.1-TokenContract/TotoroToken.sol\":4977:5055  function pause() public  onlyOwner whenNotPaused{... */\n    tag_67:\n        /* \"lession5.1-TokenContract/TotoroToken.sol\":1116:1121  owner */\n      0x06\n      0x00\n      swap1\n      sload\n      swap1\n      0x0100\n      exp\n      swap1\n      div\n      0xffffffffffffffffffffffffffffffffffffffff\n      and\n        /* \"lession5.1-TokenContract/TotoroToken.sol\":1102:1121  msg.sender == owner */\n      0xffffffffffffffffffffffffffffffffffffffff\n      and\n        /* \"lession5.1-TokenContract/TotoroToken.sol\":1102:1112  msg.sender */\n      caller\n        /* \"lession5.1-TokenContract/TotoroToken.sol\":1102:1121  msg.sender == owner */\n      0xffffffffffffffffffffffffffffffffffffffff\n      and\n      eq\n        /* \"lession5.1-TokenContract/TotoroToken.sol\":1094:1146  require(msg.sender == owner, \"Only owner can call!\") */\n      tag_144\n      jumpi\n      mload(0x40)\n      0x08c379a000000000000000000000000000000000000000000000000000000000\n      dup2\n      mstore\n      0x04\n      add\n      tag_145\n      swap1\n      tag_91\n      jump\t// in\n    tag_145:\n      mload(0x40)\n      dup1\n      swap2\n      sub\n      swap1\n      revert\n    tag_144:\n        /* \"lession5.1-TokenContract/TotoroToken.sol\":1214:1220  paused */\n      0x06\n      0x14\n      swap1\n      sload\n      swap1\n      0x0100\n      exp\n      swap1\n      div\n      0xff\n      and\n        /* \"lession5.1-TokenContract/TotoroToken.sol\":1213:1220  !paused */\n      iszero\n        /* \"lession5.1-TokenContract/TotoroToken.sol\":1205:1248  require(!paused, \"Contract is not paused!\") */\n      tag_147\n      jumpi\n      mload(0x40)\n      0x08c379a000000000000000000000000000000000000000000000000000000000\n      dup2\n      mstore\n      0x04\n      add\n      tag_148\n      swap1\n      tag_149\n      jump\t// in\n    tag_148:\n      mload(0x40)\n      dup1\n      swap2\n      sub\n      swap1\n      revert\n    tag_147:\n        /* \"lession5.1-TokenContract/TotoroToken.sol\":5044:5048  true */\n      0x01\n        /* \"lession5.1-TokenContract/TotoroToken.sol\":5035:5041  paused */\n      0x06\n      0x14\n        /* \"lession5.1-TokenContract/TotoroToken.sol\":5035:5048  paused = true */\n      0x0100\n      exp\n      dup2\n      sload\n      dup2\n      0xff\n      mul\n      not\n      and\n      swap1\n      dup4\n      iszero\n      iszero\n      mul\n      or\n      swap1\n      sstore\n      pop\n        /* \"lession5.1-TokenContract/TotoroToken.sol\":4977:5055  function pause() public  onlyOwner whenNotPaused{... */\n      jump\t// out\n        /* \"lession5.1-TokenContract/TotoroToken.sol\":3859:4957  function batchTransfer(address[] memory recipients,uint[] memory amounts) external {... */\n    tag_71:\n        /* \"lession5.1-TokenContract/TotoroToken.sol\":4010:4011  0 */\n      0x00\n        /* \"lession5.1-TokenContract/TotoroToken.sol\":3990:4000  recipients */\n      dup3\n        /* \"lession5.1-TokenContract/TotoroToken.sol\":3990:4007  recipients.length */\n      mload\n        /* \"lession5.1-TokenContract/TotoroToken.sol\":3990:4011  recipients.length > 0 */\n      gt\n        /* \"lession5.1-TokenContract/TotoroToken.sol\":3990:4050  recipients.length > 0 && recipients.length == amounts.length */\n      dup1\n      iszero\n      tag_152\n      jumpi\n      pop\n        /* \"lession5.1-TokenContract/TotoroToken.sol\":4036:4043  amounts */\n      dup1\n        /* \"lession5.1-TokenContract/TotoroToken.sol\":4036:4050  amounts.length */\n      mload\n        /* \"lession5.1-TokenContract/TotoroToken.sol\":4015:4025  recipients */\n      dup3\n        /* \"lession5.1-TokenContract/TotoroToken.sol\":4015:4032  recipients.length */\n      mload\n        /* \"lession5.1-TokenContract/TotoroToken.sol\":4015:4050  recipients.length == amounts.length */\n      eq\n        /* \"lession5.1-TokenContract/TotoroToken.sol\":3990:4050  recipients.length > 0 && recipients.length == amounts.length */\n    tag_152:\n        /* \"lession5.1-TokenContract/TotoroToken.sol\":3982:4071  require(recipients.length > 0 && recipients.length == amounts.length, \"Length mismatch!\") */\n      tag_153\n      jumpi\n      mload(0x40)\n      0x08c379a000000000000000000000000000000000000000000000000000000000\n      dup2\n      mstore\n      0x04\n      add\n      tag_154\n      swap1\n      tag_155\n      jump\t// in\n    tag_154:\n      mload(0x40)\n      dup1\n      swap2\n      sub\n      swap1\n      revert\n    tag_153:\n        /* \"lession5.1-TokenContract/TotoroToken.sol\":804:806  50 */\n      0x32\n        /* \"lession5.1-TokenContract/TotoroToken.sol\":4119:4129  recipients */\n      dup3\n        /* \"lession5.1-TokenContract/TotoroToken.sol\":4119:4136  recipients.length */\n      mload\n        /* \"lession5.1-TokenContract/TotoroToken.sol\":4119:4149  recipients.length <= MAX_COUNT */\n      gt\n      iszero\n        /* \"lession5.1-TokenContract/TotoroToken.sol\":4111:4173  require(recipients.length <= MAX_COUNT,\"Too many recipients!\") */\n      tag_156\n      jumpi\n      mload(0x40)\n      0x08c379a000000000000000000000000000000000000000000000000000000000\n      dup2\n      mstore\n      0x04\n      add\n      tag_157\n      swap1\n      tag_158\n      jump\t// in\n    tag_157:\n      mload(0x40)\n      dup1\n      swap2\n      sub\n      swap1\n      revert\n    tag_156:\n        /* \"lession5.1-TokenContract/TotoroToken.sol\":4210:4218  uint sum */\n      0x00\n        /* \"lession5.1-TokenContract/TotoroToken.sol\":4221:4222  0 */\n      0x00\n        /* \"lession5.1-TokenContract/TotoroToken.sol\":4210:4222  uint sum = 0 */\n      swap1\n      pop\n        /* \"lession5.1-TokenContract/TotoroToken.sol\":4237:4243  uint i */\n      0x00\n        /* \"lession5.1-TokenContract/TotoroToken.sol\":4246:4247  0 */\n      0x00\n        /* \"lession5.1-TokenContract/TotoroToken.sol\":4237:4247  uint i = 0 */\n      swap1\n      pop\n        /* \"lession5.1-TokenContract/TotoroToken.sol\":4232:4325  for (uint i = 0; i < amounts.length; i++) ... */\n    tag_159:\n        /* \"lession5.1-TokenContract/TotoroToken.sol\":4253:4260  amounts */\n      dup3\n        /* \"lession5.1-TokenContract/TotoroToken.sol\":4253:4267  amounts.length */\n      mload\n        /* \"lession5.1-TokenContract/TotoroToken.sol\":4249:4250  i */\n      dup2\n        /* \"lession5.1-TokenContract/TotoroToken.sol\":4249:4267  i < amounts.length */\n      lt\n        /* \"lession5.1-TokenContract/TotoroToken.sol\":4232:4325  for (uint i = 0; i < amounts.length; i++) ... */\n      iszero\n      tag_160\n      jumpi\n        /* \"lession5.1-TokenContract/TotoroToken.sol\":4304:4311  amounts */\n      dup3\n        /* \"lession5.1-TokenContract/TotoroToken.sol\":4312:4313  i */\n      dup2\n        /* \"lession5.1-TokenContract/TotoroToken.sol\":4304:4314  amounts[i] */\n      dup2\n      mload\n      dup2\n      lt\n      tag_162\n      jumpi\n      tag_163\n      tag_164\n      jump\t// in\n    tag_163:\n    tag_162:\n      0x20\n      mul\n      0x20\n      add\n      add\n      mload\n        /* \"lession5.1-TokenContract/TotoroToken.sol\":4297:4314  sum += amounts[i] */\n      dup3\n      tag_165\n      swap2\n      swap1\n      tag_124\n      jump\t// in\n    tag_165:\n      swap2\n      pop\n        /* \"lession5.1-TokenContract/TotoroToken.sol\":4269:4272  i++ */\n      dup1\n      dup1\n      0x01\n      add\n      swap2\n      pop\n      pop\n        /* \"lession5.1-TokenContract/TotoroToken.sol\":4232:4325  for (uint i = 0; i < amounts.length; i++) ... */\n      jump(tag_159)\n    tag_160:\n      pop\n        /* \"lession5.1-TokenContract/TotoroToken.sol\":4381:4384  sum */\n      dup1\n        /* \"lession5.1-TokenContract/TotoroToken.sol\":4366:4377  totalSupply */\n      sload(0x03)\n        /* \"lession5.1-TokenContract/TotoroToken.sol\":4366:4384  totalSupply >= sum */\n      lt\n      iszero\n        /* \"lession5.1-TokenContract/TotoroToken.sol\":4358:4410  require(totalSupply >= sum, \"Insufficient balance!\") */\n      tag_166\n      jumpi\n      mload(0x40)\n      0x08c379a000000000000000000000000000000000000000000000000000000000\n      dup2\n      mstore\n      0x04\n      add\n      tag_167\n      swap1\n      tag_117\n      jump\t// in\n    tag_167:\n      mload(0x40)\n      dup1\n      swap2\n      sub\n      swap1\n      revert\n    tag_166:\n        /* \"lession5.1-TokenContract/TotoroToken.sol\":4449:4455  uint i */\n      0x00\n        /* \"lession5.1-TokenContract/TotoroToken.sol\":4458:4459  0 */\n      0x00\n        /* \"lession5.1-TokenContract/TotoroToken.sol\":4449:4459  uint i = 0 */\n      swap1\n      pop\n        /* \"lession5.1-TokenContract/TotoroToken.sol\":4444:4951  for (uint i = 0; i < recipients.length; i++) ... */\n    tag_168:\n        /* \"lession5.1-TokenContract/TotoroToken.sol\":4465:4475  recipients */\n      dup4\n        /* \"lession5.1-TokenContract/TotoroToken.sol\":4465:4482  recipients.length */\n      mload\n        /* \"lession5.1-TokenContract/TotoroToken.sol\":4461:4462  i */\n      dup2\n        /* \"lession5.1-TokenContract/TotoroToken.sol\":4461:4482  i < recipients.length */\n      lt\n        /* \"lession5.1-TokenContract/TotoroToken.sol\":4444:4951  for (uint i = 0; i < recipients.length; i++) ... */\n      iszero\n      tag_169\n      jumpi\n        /* \"lession5.1-TokenContract/TotoroToken.sol\":4733:4734  0 */\n      0x00\n        /* \"lession5.1-TokenContract/TotoroToken.sol\":4708:4735  recipients[i] != address(0) */\n      0xffffffffffffffffffffffffffffffffffffffff\n      and\n        /* \"lession5.1-TokenContract/TotoroToken.sol\":4708:4718  recipients */\n      dup5\n        /* \"lession5.1-TokenContract/TotoroToken.sol\":4719:4720  i */\n      dup3\n        /* \"lession5.1-TokenContract/TotoroToken.sol\":4708:4721  recipients[i] */\n      dup2\n      mload\n      dup2\n      lt\n      tag_171\n      jumpi\n      tag_172\n      tag_164\n      jump\t// in\n    tag_172:\n    tag_171:\n      0x20\n      mul\n      0x20\n      add\n      add\n      mload\n        /* \"lession5.1-TokenContract/TotoroToken.sol\":4708:4735  recipients[i] != address(0) */\n      0xffffffffffffffffffffffffffffffffffffffff\n      and\n      sub\n        /* \"lession5.1-TokenContract/TotoroToken.sol\":4700:4772  require(recipients[i] != address(0), \"Cannot transfer to zero address!\") */\n      tag_173\n      jumpi\n      mload(0x40)\n      0x08c379a000000000000000000000000000000000000000000000000000000000\n      dup2\n      mstore\n      0x04\n      add\n      tag_174\n      swap1\n      tag_175\n      jump\t// in\n    tag_174:\n      mload(0x40)\n      dup1\n      swap2\n      sub\n      swap1\n      revert\n    tag_173:\n        /* \"lession5.1-TokenContract/TotoroToken.sol\":4811:4818  amounts */\n      dup3\n        /* \"lession5.1-TokenContract/TotoroToken.sol\":4819:4820  i */\n      dup2\n        /* \"lession5.1-TokenContract/TotoroToken.sol\":4811:4821  amounts[i] */\n      dup2\n      mload\n      dup2\n      lt\n      tag_176\n      jumpi\n      tag_177\n      tag_164\n      jump\t// in\n    tag_177:\n    tag_176:\n      0x20\n      mul\n      0x20\n      add\n      add\n      mload\n        /* \"lession5.1-TokenContract/TotoroToken.sol\":4786:4795  balanceOf */\n      0x04\n        /* \"lession5.1-TokenContract/TotoroToken.sol\":4786:4807  balanceOf[msg.sender] */\n      0x00\n        /* \"lession5.1-TokenContract/TotoroToken.sol\":4796:4806  msg.sender */\n      caller\n        /* \"lession5.1-TokenContract/TotoroToken.sol\":4786:4807  balanceOf[msg.sender] */\n      0xffffffffffffffffffffffffffffffffffffffff\n      and\n      0xffffffffffffffffffffffffffffffffffffffff\n      and\n      dup2\n      mstore\n      0x20\n      add\n      swap1\n      dup2\n      mstore\n      0x20\n      add\n      0x00\n      keccak256\n      0x00\n        /* \"lession5.1-TokenContract/TotoroToken.sol\":4786:4821  balanceOf[msg.sender] -= amounts[i] */\n      dup3\n      dup3\n      sload\n      tag_178\n      swap2\n      swap1\n      tag_122\n      jump\t// in\n    tag_178:\n      swap3\n      pop\n      pop\n      dup2\n      swap1\n      sstore\n      pop\n        /* \"lession5.1-TokenContract/TotoroToken.sol\":4863:4870  amounts */\n      dup3\n        /* \"lession5.1-TokenContract/TotoroToken.sol\":4871:4872  i */\n      dup2\n        /* \"lession5.1-TokenContract/TotoroToken.sol\":4863:4873  amounts[i] */\n      dup2\n      mload\n      dup2\n      lt\n      tag_179\n      jumpi\n      tag_180\n      tag_164\n      jump\t// in\n    tag_180:\n    tag_179:\n      0x20\n      mul\n      0x20\n      add\n      add\n      mload\n        /* \"lession5.1-TokenContract/TotoroToken.sol\":4835:4844  balanceOf */\n      0x04\n        /* \"lession5.1-TokenContract/TotoroToken.sol\":4835:4859  balanceOf[recipients[i]] */\n      0x00\n        /* \"lession5.1-TokenContract/TotoroToken.sol\":4845:4855  recipients */\n      dup7\n        /* \"lession5.1-TokenContract/TotoroToken.sol\":4856:4857  i */\n      dup5\n        /* \"lession5.1-TokenContract/TotoroToken.sol\":4845:4858  recipients[i] */\n      dup2\n      mload\n      dup2\n      lt\n      tag_181\n      jumpi\n      tag_182\n      tag_164\n      jump\t// in\n    tag_182:\n    tag_181:\n      0x20\n      mul\n      0x20\n      add\n      add\n      mload\n        /* \"lession5.1-TokenContract/TotoroToken.sol\":4835:4859  balanceOf[recipients[i]] */\n      0xffffffffffffffffffffffffffffffffffffffff\n      and\n      0xffffffffffffffffffffffffffffffffffffffff\n      and\n      dup2\n      mstore\n      0x20\n      add\n      swap1\n      dup2\n      mstore\n      0x20\n      add\n      0x00\n      keccak256\n      0x00\n        /* \"lession5.1-TokenContract/TotoroToken.sol\":4835:4873  balanceOf[recipients[i]] += amounts[i] */\n      dup3\n      dup3\n      sload\n      tag_183\n      swap2\n      swap1\n      tag_124\n      jump\t// in\n    tag_183:\n      swap3\n      pop\n      pop\n      dup2\n      swap1\n      sstore\n      pop\n        /* \"lession5.1-TokenContract/TotoroToken.sol\":4914:4924  recipients */\n      dup4\n        /* \"lession5.1-TokenContract/TotoroToken.sol\":4925:4926  i */\n      dup2\n        /* \"lession5.1-TokenContract/TotoroToken.sol\":4914:4927  recipients[i] */\n      dup2\n      mload\n      dup2\n      lt\n      tag_184\n      jumpi\n      tag_185\n      tag_164\n      jump\t// in\n    tag_185:\n    tag_184:\n      0x20\n      mul\n      0x20\n      add\n      add\n      mload\n        /* \"lession5.1-TokenContract/TotoroToken.sol\":4893:4940  Transfer(msg.sender, recipients[i], amounts[i]) */\n      0xffffffffffffffffffffffffffffffffffffffff\n      and\n        /* \"lession5.1-TokenContract/TotoroToken.sol\":4902:4912  msg.sender */\n      caller\n        /* \"lession5.1-TokenContract/TotoroToken.sol\":4893:4940  Transfer(msg.sender, recipients[i], amounts[i]) */\n      0xffffffffffffffffffffffffffffffffffffffff\n      and\n      0xddf252ad1be2c89b69c2b068fc378daa952ba7f163c4a11628f55a4df523b3ef\n        /* \"lession5.1-TokenContract/TotoroToken.sol\":4929:4936  amounts */\n      dup6\n        /* \"lession5.1-TokenContract/TotoroToken.sol\":4937:4938  i */\n      dup5\n        /* \"lession5.1-TokenContract/TotoroToken.sol\":4929:4939  amounts[i] */\n      dup2\n      mload\n      dup2\n      lt\n      tag_186\n      jumpi\n      tag_187\n      tag_164\n      jump\t// in\n    tag_187:\n    tag_186:\n      0x20\n      mul\n      0x20\n      add\n      add\n      mload\n        /* \"lession5.1-TokenContract/TotoroToken.sol\":4893:4940  Transfer(msg.sender, recipients[i], amounts[i]) */\n      mload(0x40)\n      tag_188\n      swap2\n      swap1\n      tag_38\n      jump\t// in\n    tag_188:\n      mload(0x40)\n      dup1\n      swap2\n      sub\n      swap1\n      log3\n        /* \"lession5.1-TokenContract/TotoroToken.sol\":4484:4487  i++ */\n      dup1\n      dup1\n      0x01\n      add\n      swap2\n      pop\n      pop\n        /* \"lession5.1-TokenContract/TotoroToken.sol\":4444:4951  for (uint i = 0; i < recipients.length; i++) ... */\n      jump(tag_168)\n    tag_169:\n      pop\n        /* \"lession5.1-TokenContract/TotoroToken.sol\":3942:4957  {... */\n      pop\n        /* \"lession5.1-TokenContract/TotoroToken.sol\":3859:4957  function batchTransfer(address[] memory recipients,uint[] memory amounts) external {... */\n      pop\n      pop\n      jump\t// out\n        /* \"lession5.1-TokenContract/TotoroToken.sol\":711:731  address public owner */\n    tag_73:\n      0x06\n      0x00\n      swap1\n      sload\n      swap1\n      0x0100\n      exp\n      swap1\n      div\n      0xffffffffffffffffffffffffffffffffffffffff\n      and\n      dup2\n      jump\t// out\n        /* \"lession5.1-TokenContract/TotoroToken.sol\":409:429  string public symbol */\n    tag_77:\n      0x01\n      dup1\n      sload\n      tag_189\n      swap1\n      tag_98\n      jump\t// in\n    tag_189:\n      dup1\n      0x1f\n      add\n      0x20\n      dup1\n      swap2\n      div\n      mul\n      0x20\n      add\n      mload(0x40)\n      swap1\n      dup2\n      add\n      0x40\n      mstore\n      dup1\n      swap3\n      swap2\n      swap1\n      dup2\n      dup2\n      mstore\n      0x20\n      add\n      dup3\n      dup1\n      sload\n      tag_190\n      swap1\n      tag_98\n      jump\t// in\n    tag_190:\n      dup1\n      iszero\n      tag_191\n      jumpi\n      dup1\n      0x1f\n      lt\n      tag_192\n      jumpi\n      0x0100\n      dup1\n      dup4\n      sload\n      div\n      mul\n      dup4\n      mstore\n      swap2\n      0x20\n      add\n      swap2\n      jump(tag_191)\n    tag_192:\n      dup3\n      add\n      swap2\n      swap1\n      0x00\n      mstore\n      keccak256(0x00, 0x20)\n      swap1\n    tag_193:\n      dup2\n      sload\n      dup2\n      mstore\n      swap1\n      0x01\n      add\n      swap1\n      0x20\n      add\n      dup1\n      dup4\n      gt\n      tag_193\n      jumpi\n      dup3\n      swap1\n      sub\n      0x1f\n      and\n      dup3\n      add\n      swap2\n    tag_191:\n      pop\n      pop\n      pop\n      pop\n      pop\n      dup2\n      jump\t// out\n        /* \"lession5.1-TokenContract/TotoroToken.sol\":1824:2200  function transfer(address to, uint amount) public whenNotPaused returns (bool) {... */\n    tag_81:\n        /* \"lession5.1-TokenContract/TotoroToken.sol\":1897:1901  bool */\n      0x00\n        /* \"lession5.1-TokenContract/TotoroToken.sol\":1214:1220  paused */\n      0x06\n      0x14\n      swap1\n      sload\n      swap1\n      0x0100\n      exp\n      swap1\n      div\n      0xff\n      and\n        /* \"lession5.1-TokenContract/TotoroToken.sol\":1213:1220  !paused */\n      iszero\n        /* \"lession5.1-TokenContract/TotoroToken.sol\":1205:1248  require(!paused, \"Contract is not paused!\") */\n      tag_195\n      jumpi\n      mload(0x40)\n      0x08c379a000000000000000000000000000000000000000000000000000000000\n      dup2\n      mstore\n      0x04\n      add\n      tag_196\n      swap1\n      tag_149\n      jump\t// in\n    tag_196:\n      mload(0x40)\n      dup1\n      swap2\n      sub\n      swap1\n      revert\n    tag_195:\n        /* \"lession5.1-TokenContract/TotoroToken.sol\":1935:1936  0 */\n      0x00\n        /* \"lession5.1-TokenContract/TotoroToken.sol\":1921:1937  to != address(0) */\n      0xffffffffffffffffffffffffffffffffffffffff\n      and\n        /* \"lession5.1-TokenContract/TotoroToken.sol\":1921:1923  to */\n      dup4\n        /* \"lession5.1-TokenContract/TotoroToken.sol\":1921:1937  to != address(0) */\n      0xffffffffffffffffffffffffffffffffffffffff\n      and\n      sub\n        /* \"lession5.1-TokenContract/TotoroToken.sol\":1913:1974  require(to != address(0), \"Cannot transfer to zero address!\") */\n      tag_198\n      jumpi\n      mload(0x40)\n      0x08c379a000000000000000000000000000000000000000000000000000000000\n      dup2\n      mstore\n      0x04\n      add\n      tag_199\n      swap1\n      tag_175\n      jump\t// in\n    tag_199:\n      mload(0x40)\n      dup1\n      swap2\n      sub\n      swap1\n      revert\n    tag_198:\n        /* \"lession5.1-TokenContract/TotoroToken.sol\":2017:2023  amount */\n      dup2\n        /* \"lession5.1-TokenContract/TotoroToken.sol\":1992:2001  balanceOf */\n      0x04\n        /* \"lession5.1-TokenContract/TotoroToken.sol\":1992:2013  balanceOf[msg.sender] */\n      0x00\n        /* \"lession5.1-TokenContract/TotoroToken.sol\":2002:2012  msg.sender */\n      caller\n        /* \"lession5.1-TokenContract/TotoroToken.sol\":1992:2013  balanceOf[msg.sender] */\n      0xffffffffffffffffffffffffffffffffffffffff\n      and\n      0xffffffffffffffffffffffffffffffffffffffff\n      and\n      dup2\n      mstore\n      0x20\n      add\n      swap1\n      dup2\n      mstore\n      0x20\n      add\n      0x00\n      keccak256\n      sload\n        /* \"lession5.1-TokenContract/TotoroToken.sol\":1992:2023  balanceOf[msg.sender] >= amount */\n      lt\n      iszero\n        /* \"lession5.1-TokenContract/TotoroToken.sol\":1984:2049  require(balanceOf[msg.sender] >= amount, \"Insufficient balance!\") */\n      tag_200\n      jumpi\n      mload(0x40)\n      0x08c379a000000000000000000000000000000000000000000000000000000000\n      dup2\n      mstore\n      0x04\n      add\n      tag_201\n      swap1\n      tag_117\n      jump\t// in\n    tag_201:\n      mload(0x40)\n      dup1\n      swap2\n      sub\n      swap1\n      revert\n    tag_200:\n        /* \"lession5.1-TokenContract/TotoroToken.sol\":2085:2091  amount */\n      dup2\n        /* \"lession5.1-TokenContract/TotoroToken.sol\":2060:2069  balanceOf */\n      0x04\n        /* \"lession5.1-TokenContract/TotoroToken.sol\":2060:2081  balanceOf[msg.sender] */\n      0x00\n        /* \"lession5.1-TokenContract/TotoroToken.sol\":2070:2080  msg.sender */\n      caller\n        /* \"lession5.1-TokenContract/TotoroToken.sol\":2060:2081  balanceOf[msg.sender] */\n      0xffffffffffffffffffffffffffffffffffffffff\n      and\n      0xffffffffffffffffffffffffffffffffffffffff\n      and\n      dup2\n      mstore\n      0x20\n      add\n      swap1\n      dup2\n      mstore\n      0x20\n      add\n      0x00\n      keccak256\n      0x00\n        /* \"lession5.1-TokenContract/TotoroToken.sol\":2060:2091  balanceOf[msg.sender] -= amount */\n      dup3\n      dup3\n      sload\n      tag_202\n      swap2\n      swap1\n      tag_122\n      jump\t// in\n    tag_202:\n      swap3\n      pop\n      pop\n      dup2\n      swap1\n      sstore\n      pop\n        /* \"lession5.1-TokenContract/TotoroToken.sol\":2118:2124  amount */\n      dup2\n        /* \"lession5.1-TokenContract/TotoroToken.sol\":2101:2110  balanceOf */\n      0x04\n        /* \"lession5.1-TokenContract/TotoroToken.sol\":2101:2114  balanceOf[to] */\n      0x00\n        /* \"lession5.1-TokenContract/TotoroToken.sol\":2111:2113  to */\n      dup6\n        /* \"lession5.1-TokenContract/TotoroToken.sol\":2101:2114  balanceOf[to] */\n      0xffffffffffffffffffffffffffffffffffffffff\n      and\n      0xffffffffffffffffffffffffffffffffffffffff\n      and\n      dup2\n      mstore\n      0x20\n      add\n      swap1\n      dup2\n      mstore\n      0x20\n      add\n      0x00\n      keccak256\n      0x00\n        /* \"lession5.1-TokenContract/TotoroToken.sol\":2101:2124  balanceOf[to] += amount */\n      dup3\n      dup3\n      sload\n      tag_203\n      swap2\n      swap1\n      tag_124\n      jump\t// in\n    tag_203:\n      swap3\n      pop\n      pop\n      dup2\n      swap1\n      sstore\n      pop\n        /* \"lession5.1-TokenContract/TotoroToken.sol\":2161:2163  to */\n      dup3\n        /* \"lession5.1-TokenContract/TotoroToken.sol\":2140:2172  Transfer(msg.sender, to, amount) */\n      0xffffffffffffffffffffffffffffffffffffffff\n      and\n        /* \"lession5.1-TokenContract/TotoroToken.sol\":2149:2159  msg.sender */\n      caller\n        /* \"lession5.1-TokenContract/TotoroToken.sol\":2140:2172  Transfer(msg.sender, to, amount) */\n      0xffffffffffffffffffffffffffffffffffffffff\n      and\n      0xddf252ad1be2c89b69c2b068fc378daa952ba7f163c4a11628f55a4df523b3ef\n        /* \"lession5.1-TokenContract/TotoroToken.sol\":2165:2171  amount */\n      dup5\n        /* \"lession5.1-TokenContract/TotoroToken.sol\":2140:2172  Transfer(msg.sender, to, amount) */\n      mload(0x40)\n      tag_204\n      swap2\n      swap1\n      tag_38\n      jump\t// in\n    tag_204:\n      mload(0x40)\n      dup1\n      swap2\n      sub\n      swap1\n      log3\n        /* \"lession5.1-TokenContract/TotoroToken.sol\":2189:2193  true */\n      0x01\n        /* \"lession5.1-TokenContract/TotoroToken.sol\":2182:2193  return true */\n      swap1\n      pop\n        /* \"lession5.1-TokenContract/TotoroToken.sol\":1824:2200  function transfer(address to, uint amount) public whenNotPaused returns (bool) {... */\n      swap3\n      swap2\n      pop\n      pop\n      jump\t// out\n        /* \"lession5.1-TokenContract/TotoroToken.sol\":624:687  mapping (address => mapping (address => uint)) public allowance */\n    tag_86:\n      mstore(0x20, 0x05)\n      dup2\n      0x00\n      mstore\n      mstore(0x20, keccak256(0x00, 0x40))\n      dup1\n      0x00\n      mstore\n      keccak256(0x00, 0x40)\n      0x00\n      swap2\n      pop\n      swap2\n      pop\n      pop\n      sload\n      dup2\n      jump\t// out\n        /* \"#utility.yul\":7:106   */\n    tag_205:\n        /* \"#utility.yul\":59:65   */\n      0x00\n        /* \"#utility.yul\":93:98   */\n      dup2\n        /* \"#utility.yul\":87:99   */\n      mload\n        /* \"#utility.yul\":77:99   */\n      swap1\n      pop\n        /* \"#utility.yul\":7:106   */\n      swap2\n      swap1\n      pop\n      jump\t// out\n        /* \"#utility.yul\":112:281   */\n    tag_206:\n        /* \"#utility.yul\":196:207   */\n      0x00\n        /* \"#utility.yul\":230:236   */\n      dup3\n        /* \"#utility.yul\":225:228   */\n      dup3\n        /* \"#utility.yul\":218:237   */\n      mstore\n        /* \"#utility.yul\":270:274   */\n      0x20\n        /* \"#utility.yul\":265:268   */\n      dup3\n        /* \"#utility.yul\":261:275   */\n      add\n        /* \"#utility.yul\":246:275   */\n      swap1\n      pop\n        /* \"#utility.yul\":112:281   */\n      swap3\n      swap2\n      pop\n      pop\n      jump\t// out\n        /* \"#utility.yul\":287:426   */\n    tag_207:\n        /* \"#utility.yul\":376:382   */\n      dup3\n        /* \"#utility.yul\":371:374   */\n      dup2\n        /* \"#utility.yul\":366:369   */\n      dup4\n        /* \"#utility.yul\":360:383   */\n      mcopy\n        /* \"#utility.yul\":417:418   */\n      0x00\n        /* \"#utility.yul\":408:414   */\n      dup4\n        /* \"#utility.yul\":403:406   */\n      dup4\n        /* \"#utility.yul\":399:415   */\n      add\n        /* \"#utility.yul\":392:419   */\n      mstore\n        /* \"#utility.yul\":287:426   */\n      pop\n      pop\n      pop\n      jump\t// out\n        /* \"#utility.yul\":432:534   */\n    tag_208:\n        /* \"#utility.yul\":473:479   */\n      0x00\n        /* \"#utility.yul\":524:526   */\n      0x1f\n        /* \"#utility.yul\":520:527   */\n      not\n        /* \"#utility.yul\":515:517   */\n      0x1f\n        /* \"#utility.yul\":508:513   */\n      dup4\n        /* \"#utility.yul\":504:518   */\n      add\n        /* \"#utility.yul\":500:528   */\n      and\n        /* \"#utility.yul\":490:528   */\n      swap1\n      pop\n        /* \"#utility.yul\":432:534   */\n      swap2\n      swap1\n      pop\n      jump\t// out\n        /* \"#utility.yul\":540:917   */\n    tag_209:\n        /* \"#utility.yul\":628:631   */\n      0x00\n        /* \"#utility.yul\":656:695   */\n      tag_269\n        /* \"#utility.yul\":689:694   */\n      dup3\n        /* \"#utility.yul\":656:695   */\n      tag_205\n      jump\t// in\n    tag_269:\n        /* \"#utility.yul\":711:782   */\n      tag_270\n        /* \"#utility.yul\":775:781   */\n      dup2\n        /* \"#utility.yul\":770:773   */\n      dup6\n        /* \"#utility.yul\":711:782   */\n      tag_206\n      jump\t// in\n    tag_270:\n        /* \"#utility.yul\":704:782   */\n      swap4\n      pop\n        /* \"#utility.yul\":791:856   */\n      tag_271\n        /* \"#utility.yul\":849:855   */\n      dup2\n        /* \"#utility.yul\":844:847   */\n      dup6\n        /* \"#utility.yul\":837:841   */\n      0x20\n        /* \"#utility.yul\":830:835   */\n      dup7\n        /* \"#utility.yul\":826:842   */\n      add\n        /* \"#utility.yul\":791:856   */\n      tag_207\n      jump\t// in\n    tag_271:\n        /* \"#utility.yul\":881:910   */\n      tag_272\n        /* \"#utility.yul\":903:909   */\n      dup2\n        /* \"#utility.yul\":881:910   */\n      tag_208\n      jump\t// in\n    tag_272:\n        /* \"#utility.yul\":876:879   */\n      dup5\n        /* \"#utility.yul\":872:911   */\n      add\n        /* \"#utility.yul\":865:911   */\n      swap2\n      pop\n        /* \"#utility.yul\":632:917   */\n      pop\n        /* \"#utility.yul\":540:917   */\n      swap3\n      swap2\n      pop\n      pop\n      jump\t// out\n        /* \"#utility.yul\":923:1236   */\n    tag_28:\n        /* \"#utility.yul\":1036:1040   */\n      0x00\n        /* \"#utility.yul\":1074:1076   */\n      0x20\n        /* \"#utility.yul\":1063:1072   */\n      dup3\n        /* \"#utility.yul\":1059:1077   */\n      add\n        /* \"#utility.yul\":1051:1077   */\n      swap1\n      pop\n        /* \"#utility.yul\":1123:1132   */\n      dup2\n        /* \"#utility.yul\":1117:1121   */\n      dup2\n        /* \"#utility.yul\":1113:1133   */\n      sub\n        /* \"#utility.yul\":1109:1110   */\n      0x00\n        /* \"#utility.yul\":1098:1107   */\n      dup4\n        /* \"#utility.yul\":1094:1111   */\n      add\n        /* \"#utility.yul\":1087:1134   */\n      mstore\n        /* \"#utility.yul\":1151:1229   */\n      tag_274\n        /* \"#utility.yul\":1224:1228   */\n      dup2\n        /* \"#utility.yul\":1215:1221   */\n      dup5\n        /* \"#utility.yul\":1151:1229   */\n      tag_209\n      jump\t// in\n    tag_274:\n        /* \"#utility.yul\":1143:1229   */\n      swap1\n      pop\n        /* \"#utility.yul\":923:1236   */\n      swap3\n      swap2\n      pop\n      pop\n      jump\t// out\n        /* \"#utility.yul\":1242:1317   */\n    tag_210:\n        /* \"#utility.yul\":1275:1281   */\n      0x00\n        /* \"#utility.yul\":1308:1310   */\n      0x40\n        /* \"#utility.yul\":1302:1311   */\n      mload\n        /* \"#utility.yul\":1292:1311   */\n      swap1\n      pop\n        /* \"#utility.yul\":1242:1317   */\n      swap1\n      jump\t// out\n        /* \"#utility.yul\":1323:1440   */\n    tag_211:\n        /* \"#utility.yul\":1432:1433   */\n      0x00\n        /* \"#utility.yul\":1429:1430   */\n      0x00\n        /* \"#utility.yul\":1422:1434   */\n      revert\n        /* \"#utility.yul\":1446:1563   */\n    tag_212:\n        /* \"#utility.yul\":1555:1556   */\n      0x00\n        /* \"#utility.yul\":1552:1553   */\n      0x00\n        /* \"#utility.yul\":1545:1557   */\n      revert\n        /* \"#utility.yul\":1569:1695   */\n    tag_213:\n        /* \"#utility.yul\":1606:1613   */\n      0x00\n        /* \"#utility.yul\":1646:1688   */\n      0xffffffffffffffffffffffffffffffffffffffff\n        /* \"#utility.yul\":1639:1644   */\n      dup3\n        /* \"#utility.yul\":1635:1689   */\n      and\n        /* \"#utility.yul\":1624:1689   */\n      swap1\n      pop\n        /* \"#utility.yul\":1569:1695   */\n      swap2\n      swap1\n      pop\n      jump\t// out\n        /* \"#utility.yul\":1701:1797   */\n    tag_214:\n        /* \"#utility.yul\":1738:1745   */\n      0x00\n        /* \"#utility.yul\":1767:1791   */\n      tag_280\n        /* \"#utility.yul\":1785:1790   */\n      dup3\n        /* \"#utility.yul\":1767:1791   */\n      tag_213\n      jump\t// in\n    tag_280:\n        /* \"#utility.yul\":1756:1791   */\n      swap1\n      pop\n        /* \"#utility.yul\":1701:1797   */\n      swap2\n      swap1\n      pop\n      jump\t// out\n        /* \"#utility.yul\":1803:1925   */\n    tag_215:\n        /* \"#utility.yul\":1876:1900   */\n      tag_282\n        /* \"#utility.yul\":1894:1899   */\n      dup2\n        /* \"#utility.yul\":1876:1900   */\n      tag_214\n      jump\t// in\n    tag_282:\n        /* \"#utility.yul\":1869:1874   */\n      dup2\n        /* \"#utility.yul\":1866:1901   */\n      eq\n        /* \"#utility.yul\":1856:1919   */\n      tag_283\n      jumpi\n        /* \"#utility.yul\":1915:1916   */\n      0x00\n        /* \"#utility.yul\":1912:1913   */\n      0x00\n        /* \"#utility.yul\":1905:1917   */\n      revert\n        /* \"#utility.yul\":1856:1919   */\n    tag_283:\n        /* \"#utility.yul\":1803:1925   */\n      pop\n      jump\t// out\n        /* \"#utility.yul\":1931:2070   */\n    tag_216:\n        /* \"#utility.yul\":1977:1982   */\n      0x00\n        /* \"#utility.yul\":2015:2021   */\n      dup2\n        /* \"#utility.yul\":2002:2022   */\n      calldataload\n        /* \"#utility.yul\":1993:2022   */\n      swap1\n      pop\n        /* \"#utility.yul\":2031:2064   */\n      tag_285\n        /* \"#utility.yul\":2058:2063   */\n      dup2\n        /* \"#utility.yul\":2031:2064   */\n      tag_215\n      jump\t// in\n    tag_285:\n        /* \"#utility.yul\":1931:2070   */\n      swap3\n      swap2\n      pop\n      pop\n      jump\t// out\n        /* \"#utility.yul\":2076:2153   */\n    tag_217:\n        /* \"#utility.yul\":2113:2120   */\n      0x00\n        /* \"#utility.yul\":2142:2147   */\n      dup2\n        /* \"#utility.yul\":2131:2147   */\n      swap1\n      pop\n        /* \"#utility.yul\":2076:2153   */\n      swap2\n      swap1\n      pop\n      jump\t// out\n        /* \"#utility.yul\":2159:2281   */\n    tag_218:\n        /* \"#utility.yul\":2232:2256   */\n      tag_288\n        /* \"#utility.yul\":2250:2255   */\n      dup2\n        /* \"#utility.yul\":2232:2256   */\n      tag_217\n      jump\t// in\n    tag_288:\n        /* \"#utility.yul\":2225:2230   */\n      dup2\n        /* \"#utility.yul\":2222:2257   */\n      eq\n        /* \"#utility.yul\":2212:2275   */\n      tag_289\n      jumpi\n        /* \"#utility.yul\":2271:2272   */\n      0x00\n        /* \"#utility.yul\":2268:2269   */\n      0x00\n        /* \"#utility.yul\":2261:2273   */\n      revert\n        /* \"#utility.yul\":2212:2275   */\n    tag_289:\n        /* \"#utility.yul\":2159:2281   */\n      pop\n      jump\t// out\n        /* \"#utility.yul\":2287:2426   */\n    tag_219:\n        /* \"#utility.yul\":2333:2338   */\n      0x00\n        /* \"#utility.yul\":2371:2377   */\n      dup2\n        /* \"#utility.yul\":2358:2378   */\n      calldataload\n        /* \"#utility.yul\":2349:2378   */\n      swap1\n      pop\n        /* \"#utility.yul\":2387:2420   */\n      tag_291\n        /* \"#utility.yul\":2414:2419   */\n      dup2\n        /* \"#utility.yul\":2387:2420   */\n      tag_218\n      jump\t// in\n    tag_291:\n        /* \"#utility.yul\":2287:2426   */\n      swap3\n      swap2\n      pop\n      pop\n      jump\t// out\n        /* \"#utility.yul\":2432:2906   */\n    tag_31:\n        /* \"#utility.yul\":2500:2506   */\n      0x00\n        /* \"#utility.yul\":2508:2514   */\n      0x00\n        /* \"#utility.yul\":2557:2559   */\n      0x40\n        /* \"#utility.yul\":2545:2554   */\n      dup4\n        /* \"#utility.yul\":2536:2543   */\n      dup6\n        /* \"#utility.yul\":2532:2555   */\n      sub\n        /* \"#utility.yul\":2528:2560   */\n      slt\n        /* \"#utility.yul\":2525:2644   */\n      iszero\n      tag_293\n      jumpi\n        /* \"#utility.yul\":2563:2642   */\n      tag_294\n      tag_211\n      jump\t// in\n    tag_294:\n        /* \"#utility.yul\":2525:2644   */\n    tag_293:\n        /* \"#utility.yul\":2683:2684   */\n      0x00\n        /* \"#utility.yul\":2708:2761   */\n      tag_295\n        /* \"#utility.yul\":2753:2760   */\n      dup6\n        /* \"#utility.yul\":2744:2750   */\n      dup3\n        /* \"#utility.yul\":2733:2742   */\n      dup7\n        /* \"#utility.yul\":2729:2751   */\n      add\n        /* \"#utility.yul\":2708:2761   */\n      tag_216\n      jump\t// in\n    tag_295:\n        /* \"#utility.yul\":2698:2761   */\n      swap3\n      pop\n        /* \"#utility.yul\":2654:2771   */\n      pop\n        /* \"#utility.yul\":2810:2812   */\n      0x20\n        /* \"#utility.yul\":2836:2889   */\n      tag_296\n        /* \"#utility.yul\":2881:2888   */\n      dup6\n        /* \"#utility.yul\":2872:2878   */\n      dup3\n        /* \"#utility.yul\":2861:2870   */\n      dup7\n        /* \"#utility.yul\":2857:2879   */\n      add\n        /* \"#utility.yul\":2836:2889   */\n      tag_219\n      jump\t// in\n    tag_296:\n        /* \"#utility.yul\":2826:2889   */\n      swap2\n      pop\n        /* \"#utility.yul\":2781:2899   */\n      pop\n        /* \"#utility.yul\":2432:2906   */\n      swap3\n      pop\n      swap3\n      swap1\n      pop\n      jump\t// out\n        /* \"#utility.yul\":2912:3002   */\n    tag_220:\n        /* \"#utility.yul\":2946:2953   */\n      0x00\n        /* \"#utility.yul\":2989:2994   */\n      dup2\n        /* \"#utility.yul\":2982:2995   */\n      iszero\n        /* \"#utility.yul\":2975:2996   */\n      iszero\n        /* \"#utility.yul\":2964:2996   */\n      swap1\n      pop\n        /* \"#utility.yul\":2912:3002   */\n      swap2\n      swap1\n      pop\n      jump\t// out\n        /* \"#utility.yul\":3008:3117   */\n    tag_221:\n        /* \"#utility.yul\":3089:3110   */\n      tag_299\n        /* \"#utility.yul\":3104:3109   */\n      dup2\n        /* \"#utility.yul\":3089:3110   */\n      tag_220\n      jump\t// in\n    tag_299:\n        /* \"#utility.yul\":3084:3087   */\n      dup3\n        /* \"#utility.yul\":3077:3111   */\n      mstore\n        /* \"#utility.yul\":3008:3117   */\n      pop\n      pop\n      jump\t// out\n        /* \"#utility.yul\":3123:3333   */\n    tag_34:\n        /* \"#utility.yul\":3210:3214   */\n      0x00\n        /* \"#utility.yul\":3248:3250   */\n      0x20\n        /* \"#utility.yul\":3237:3246   */\n      dup3\n        /* \"#utility.yul\":3233:3251   */\n      add\n        /* \"#utility.yul\":3225:3251   */\n      swap1\n      pop\n        /* \"#utility.yul\":3261:3326   */\n      tag_301\n        /* \"#utility.yul\":3323:3324   */\n      0x00\n        /* \"#utility.yul\":3312:3321   */\n      dup4\n        /* \"#utility.yul\":3308:3325   */\n      add\n        /* \"#utility.yul\":3299:3305   */\n      dup5\n        /* \"#utility.yul\":3261:3326   */\n      tag_221\n      jump\t// in\n    tag_301:\n        /* \"#utility.yul\":3123:3333   */\n      swap3\n      swap2\n      pop\n      pop\n      jump\t// out\n        /* \"#utility.yul\":3339:3457   */\n    tag_222:\n        /* \"#utility.yul\":3426:3450   */\n      tag_303\n        /* \"#utility.yul\":3444:3449   */\n      dup2\n        /* \"#utility.yul\":3426:3450   */\n      tag_217\n      jump\t// in\n    tag_303:\n        /* \"#utility.yul\":3421:3424   */\n      dup3\n        /* \"#utility.yul\":3414:3451   */\n      mstore\n        /* \"#utility.yul\":3339:3457   */\n      pop\n      pop\n      jump\t// out\n        /* \"#utility.yul\":3463:3685   */\n    tag_38:\n        /* \"#utility.yul\":3556:3560   */\n      0x00\n        /* \"#utility.yul\":3594:3596   */\n      0x20\n        /* \"#utility.yul\":3583:3592   */\n      dup3\n        /* \"#utility.yul\":3579:3597   */\n      add\n        /* \"#utility.yul\":3571:3597   */\n      swap1\n      pop\n        /* \"#utility.yul\":3607:3678   */\n      tag_305\n        /* \"#utility.yul\":3675:3676   */\n      0x00\n        /* \"#utility.yul\":3664:3673   */\n      dup4\n        /* \"#utility.yul\":3660:3677   */\n      add\n        /* \"#utility.yul\":3651:3657   */\n      dup5\n        /* \"#utility.yul\":3607:3678   */\n      tag_222\n      jump\t// in\n    tag_305:\n        /* \"#utility.yul\":3463:3685   */\n      swap3\n      swap2\n      pop\n      pop\n      jump\t// out\n        /* \"#utility.yul\":3691:4310   */\n    tag_41:\n        /* \"#utility.yul\":3768:3774   */\n      0x00\n        /* \"#utility.yul\":3776:3782   */\n      0x00\n        /* \"#utility.yul\":3784:3790   */\n      0x00\n        /* \"#utility.yul\":3833:3835   */\n      0x60\n        /* \"#utility.yul\":3821:3830   */\n      dup5\n        /* \"#utility.yul\":3812:3819   */\n      dup7\n        /* \"#utility.yul\":3808:3831   */\n      sub\n        /* \"#utility.yul\":3804:3836   */\n      slt\n        /* \"#utility.yul\":3801:3920   */\n      iszero\n      tag_307\n      jumpi\n        /* \"#utility.yul\":3839:3918   */\n      tag_308\n      tag_211\n      jump\t// in\n    tag_308:\n        /* \"#utility.yul\":3801:3920   */\n    tag_307:\n        /* \"#utility.yul\":3959:3960   */\n      0x00\n        /* \"#utility.yul\":3984:4037   */\n      tag_309\n        /* \"#utility.yul\":4029:4036   */\n      dup7\n        /* \"#utility.yul\":4020:4026   */\n      dup3\n        /* \"#utility.yul\":4009:4018   */\n      dup8\n        /* \"#utility.yul\":4005:4027   */\n      add\n        /* \"#utility.yul\":3984:4037   */\n      tag_216\n      jump\t// in\n    tag_309:\n        /* \"#utility.yul\":3974:4037   */\n      swap4\n      pop\n        /* \"#utility.yul\":3930:4047   */\n      pop\n        /* \"#utility.yul\":4086:4088   */\n      0x20\n        /* \"#utility.yul\":4112:4165   */\n      tag_310\n        /* \"#utility.yul\":4157:4164   */\n      dup7\n        /* \"#utility.yul\":4148:4154   */\n      dup3\n        /* \"#utility.yul\":4137:4146   */\n      dup8\n        /* \"#utility.yul\":4133:4155   */\n      add\n        /* \"#utility.yul\":4112:4165   */\n      tag_216\n      jump\t// in\n    tag_310:\n        /* \"#utility.yul\":4102:4165   */\n      swap3\n      pop\n        /* \"#utility.yul\":4057:4175   */\n      pop\n        /* \"#utility.yul\":4214:4216   */\n      0x40\n        /* \"#utility.yul\":4240:4293   */\n      tag_311\n        /* \"#utility.yul\":4285:4292   */\n      dup7\n        /* \"#utility.yul\":4276:4282   */\n      dup3\n        /* \"#utility.yul\":4265:4274   */\n      dup8\n        /* \"#utility.yul\":4261:4283   */\n      add\n        /* \"#utility.yul\":4240:4293   */\n      tag_219\n      jump\t// in\n    tag_311:\n        /* \"#utility.yul\":4230:4293   */\n      swap2\n      pop\n        /* \"#utility.yul\":4185:4303   */\n      pop\n        /* \"#utility.yul\":3691:4310   */\n      swap3\n      pop\n      swap3\n      pop\n      swap3\n      jump\t// out\n        /* \"#utility.yul\":4316:4402   */\n    tag_223:\n        /* \"#utility.yul\":4351:4358   */\n      0x00\n        /* \"#utility.yul\":4391:4395   */\n      0xff\n        /* \"#utility.yul\":4384:4389   */\n      dup3\n        /* \"#utility.yul\":4380:4396   */\n      and\n        /* \"#utility.yul\":4369:4396   */\n      swap1\n      pop\n        /* \"#utility.yul\":4316:4402   */\n      swap2\n      swap1\n      pop\n      jump\t// out\n        /* \"#utility.yul\":4408:4520   */\n    tag_224:\n        /* \"#utility.yul\":4491:4513   */\n      tag_314\n        /* \"#utility.yul\":4507:4512   */\n      dup2\n        /* \"#utility.yul\":4491:4513   */\n      tag_223\n      jump\t// in\n    tag_314:\n        /* \"#utility.yul\":4486:4489   */\n      dup3\n        /* \"#utility.yul\":4479:4514   */\n      mstore\n        /* \"#utility.yul\":4408:4520   */\n      pop\n      pop\n      jump\t// out\n        /* \"#utility.yul\":4526:4740   */\n    tag_47:\n        /* \"#utility.yul\":4615:4619   */\n      0x00\n        /* \"#utility.yul\":4653:4655   */\n      0x20\n        /* \"#utility.yul\":4642:4651   */\n      dup3\n        /* \"#utility.yul\":4638:4656   */\n      add\n        /* \"#utility.yul\":4630:4656   */\n      swap1\n      pop\n        /* \"#utility.yul\":4666:4733   */\n      tag_316\n        /* \"#utility.yul\":4730:4731   */\n      0x00\n        /* \"#utility.yul\":4719:4728   */\n      dup4\n        /* \"#utility.yul\":4715:4732   */\n      add\n        /* \"#utility.yul\":4706:4712   */\n      dup5\n        /* \"#utility.yul\":4666:4733   */\n      tag_224\n      jump\t// in\n    tag_316:\n        /* \"#utility.yul\":4526:4740   */\n      swap3\n      swap2\n      pop\n      pop\n      jump\t// out\n        /* \"#utility.yul\":4746:5075   */\n    tag_53:\n        /* \"#utility.yul\":4805:4811   */\n      0x00\n        /* \"#utility.yul\":4854:4856   */\n      0x20\n        /* \"#utility.yul\":4842:4851   */\n      dup3\n        /* \"#utility.yul\":4833:4840   */\n      dup5\n        /* \"#utility.yul\":4829:4852   */\n      sub\n        /* \"#utility.yul\":4825:4857   */\n      slt\n        /* \"#utility.yul\":4822:4941   */\n      iszero\n      tag_318\n      jumpi\n        /* \"#utility.yul\":4860:4939   */\n      tag_319\n      tag_211\n      jump\t// in\n    tag_319:\n        /* \"#utility.yul\":4822:4941   */\n    tag_318:\n        /* \"#utility.yul\":4980:4981   */\n      0x00\n        /* \"#utility.yul\":5005:5058   */\n      tag_320\n        /* \"#utility.yul\":5050:5057   */\n      dup5\n        /* \"#utility.yul\":5041:5047   */\n      dup3\n        /* \"#utility.yul\":5030:5039   */\n      dup6\n        /* \"#utility.yul\":5026:5048   */\n      add\n        /* \"#utility.yul\":5005:5058   */\n      tag_219\n      jump\t// in\n    tag_320:\n        /* \"#utility.yul\":4995:5058   */\n      swap2\n      pop\n        /* \"#utility.yul\":4951:5068   */\n      pop\n        /* \"#utility.yul\":4746:5075   */\n      swap3\n      swap2\n      pop\n      pop\n      jump\t// out\n        /* \"#utility.yul\":5081:5410   */\n    tag_60:\n        /* \"#utility.yul\":5140:5146   */\n      0x00\n        /* \"#utility.yul\":5189:5191   */\n      0x20\n        /* \"#utility.yul\":5177:5186   */\n      dup3\n        /* \"#utility.yul\":5168:5175   */\n      dup5\n        /* \"#utility.yul\":5164:5187   */\n      sub\n        /* \"#utility.yul\":5160:5192   */\n      slt\n        /* \"#utility.yul\":5157:5276   */\n      iszero\n      tag_322\n      jumpi\n        /* \"#utility.yul\":5195:5274   */\n      tag_323\n      tag_211\n      jump\t// in\n    tag_323:\n        /* \"#utility.yul\":5157:5276   */\n    tag_322:\n        /* \"#utility.yul\":5315:5316   */\n      0x00\n        /* \"#utility.yul\":5340:5393   */\n      tag_324\n        /* \"#utility.yul\":5385:5392   */\n      dup5\n        /* \"#utility.yul\":5376:5382   */\n      dup3\n        /* \"#utility.yul\":5365:5374   */\n      dup6\n        /* \"#utility.yul\":5361:5383   */\n      add\n        /* \"#utility.yul\":5340:5393   */\n      tag_216\n      jump\t// in\n    tag_324:\n        /* \"#utility.yul\":5330:5393   */\n      swap2\n      pop\n        /* \"#utility.yul\":5286:5403   */\n      pop\n        /* \"#utility.yul\":5081:5410   */\n      swap3\n      swap2\n      pop\n      pop\n      jump\t// out\n        /* \"#utility.yul\":5416:5533   */\n    tag_225:\n        /* \"#utility.yul\":5525:5526   */\n      0x00\n        /* \"#utility.yul\":5522:5523   */\n      0x00\n        /* \"#utility.yul\":5515:5527   */\n      revert\n        /* \"#utility.yul\":5539:5719   */\n    tag_226:\n        /* \"#utility.yul\":5587:5664   */\n      0x4e487b7100000000000000000000000000000000000000000000000000000000\n        /* \"#utility.yul\":5584:5585   */\n      0x00\n        /* \"#utility.yul\":5577:5665   */\n      mstore\n        /* \"#utility.yul\":5684:5688   */\n      0x41\n        /* \"#utility.yul\":5681:5682   */\n      0x04\n        /* \"#utility.yul\":5674:5689   */\n      mstore\n        /* \"#utility.yul\":5708:5712   */\n      0x24\n        /* \"#utility.yul\":5705:5706   */\n      0x00\n        /* \"#utility.yul\":5698:5713   */\n      revert\n        /* \"#utility.yul\":5725:6006   */\n    tag_227:\n        /* \"#utility.yul\":5808:5835   */\n      tag_328\n        /* \"#utility.yul\":5830:5834   */\n      dup3\n        /* \"#utility.yul\":5808:5835   */\n      tag_208\n      jump\t// in\n    tag_328:\n        /* \"#utility.yul\":5800:5806   */\n      dup2\n        /* \"#utility.yul\":5796:5836   */\n      add\n        /* \"#utility.yul\":5938:5944   */\n      dup2\n        /* \"#utility.yul\":5926:5936   */\n      dup2\n        /* \"#utility.yul\":5923:5945   */\n      lt\n        /* \"#utility.yul\":5902:5920   */\n      0xffffffffffffffff\n        /* \"#utility.yul\":5890:5900   */\n      dup3\n        /* \"#utility.yul\":5887:5921   */\n      gt\n        /* \"#utility.yul\":5884:5946   */\n      or\n        /* \"#utility.yul\":5881:5969   */\n      iszero\n      tag_329\n      jumpi\n        /* \"#utility.yul\":5949:5967   */\n      tag_330\n      tag_226\n      jump\t// in\n    tag_330:\n        /* \"#utility.yul\":5881:5969   */\n    tag_329:\n        /* \"#utility.yul\":5989:5999   */\n      dup1\n        /* \"#utility.yul\":5985:5987   */\n      0x40\n        /* \"#utility.yul\":5978:6000   */\n      mstore\n        /* \"#utility.yul\":5768:6006   */\n      pop\n        /* \"#utility.yul\":5725:6006   */\n      pop\n      pop\n      jump\t// out\n        /* \"#utility.yul\":6012:6141   */\n    tag_228:\n        /* \"#utility.yul\":6046:6052   */\n      0x00\n        /* \"#utility.yul\":6073:6093   */\n      tag_332\n      tag_210\n      jump\t// in\n    tag_332:\n        /* \"#utility.yul\":6063:6093   */\n      swap1\n      pop\n        /* \"#utility.yul\":6102:6135   */\n      tag_333\n        /* \"#utility.yul\":6130:6134   */\n      dup3\n        /* \"#utility.yul\":6122:6128   */\n      dup3\n        /* \"#utility.yul\":6102:6135   */\n      tag_227\n      jump\t// in\n    tag_333:\n        /* \"#utility.yul\":6012:6141   */\n      swap2\n      swap1\n      pop\n      jump\t// out\n        /* \"#utility.yul\":6147:6458   */\n    tag_229:\n        /* \"#utility.yul\":6224:6228   */\n      0x00\n        /* \"#utility.yul\":6314:6332   */\n      0xffffffffffffffff\n        /* \"#utility.yul\":6306:6312   */\n      dup3\n        /* \"#utility.yul\":6303:6333   */\n      gt\n        /* \"#utility.yul\":6300:6356   */\n      iszero\n      tag_335\n      jumpi\n        /* \"#utility.yul\":6336:6354   */\n      tag_336\n      tag_226\n      jump\t// in\n    tag_336:\n        /* \"#utility.yul\":6300:6356   */\n    tag_335:\n        /* \"#utility.yul\":6386:6390   */\n      0x20\n        /* \"#utility.yul\":6378:6384   */\n      dup3\n        /* \"#utility.yul\":6374:6391   */\n      mul\n        /* \"#utility.yul\":6366:6391   */\n      swap1\n      pop\n        /* \"#utility.yul\":6446:6450   */\n      0x20\n        /* \"#utility.yul\":6440:6444   */\n      dup2\n        /* \"#utility.yul\":6436:6451   */\n      add\n        /* \"#utility.yul\":6428:6451   */\n      swap1\n      pop\n        /* \"#utility.yul\":6147:6458   */\n      swap2\n      swap1\n      pop\n      jump\t// out\n        /* \"#utility.yul\":6464:6581   */\n    tag_230:\n        /* \"#utility.yul\":6573:6574   */\n      0x00\n        /* \"#utility.yul\":6570:6571   */\n      0x00\n        /* \"#utility.yul\":6563:6575   */\n      revert\n        /* \"#utility.yul\":6604:7314   */\n    tag_231:\n        /* \"#utility.yul\":6700:6705   */\n      0x00\n        /* \"#utility.yul\":6725:6806   */\n      tag_339\n        /* \"#utility.yul\":6741:6805   */\n      tag_340\n        /* \"#utility.yul\":6798:6804   */\n      dup5\n        /* \"#utility.yul\":6741:6805   */\n      tag_229\n      jump\t// in\n    tag_340:\n        /* \"#utility.yul\":6725:6806   */\n      tag_228\n      jump\t// in\n    tag_339:\n        /* \"#utility.yul\":6716:6806   */\n      swap1\n      pop\n        /* \"#utility.yul\":6826:6831   */\n      dup1\n        /* \"#utility.yul\":6855:6861   */\n      dup4\n        /* \"#utility.yul\":6848:6853   */\n      dup3\n        /* \"#utility.yul\":6841:6862   */\n      mstore\n        /* \"#utility.yul\":6889:6893   */\n      0x20\n        /* \"#utility.yul\":6882:6887   */\n      dup3\n        /* \"#utility.yul\":6878:6894   */\n      add\n        /* \"#utility.yul\":6871:6894   */\n      swap1\n      pop\n        /* \"#utility.yul\":6942:6946   */\n      0x20\n        /* \"#utility.yul\":6934:6940   */\n      dup5\n        /* \"#utility.yul\":6930:6947   */\n      mul\n        /* \"#utility.yul\":6922:6928   */\n      dup4\n        /* \"#utility.yul\":6918:6948   */\n      add\n        /* \"#utility.yul\":6971:6974   */\n      dup6\n        /* \"#utility.yul\":6963:6969   */\n      dup2\n        /* \"#utility.yul\":6960:6975   */\n      gt\n        /* \"#utility.yul\":6957:7079   */\n      iszero\n      tag_341\n      jumpi\n        /* \"#utility.yul\":6990:7069   */\n      tag_342\n      tag_230\n      jump\t// in\n    tag_342:\n        /* \"#utility.yul\":6957:7079   */\n    tag_341:\n        /* \"#utility.yul\":7105:7111   */\n      dup4\n        /* \"#utility.yul\":7088:7308   */\n    tag_343:\n        /* \"#utility.yul\":7122:7128   */\n      dup2\n        /* \"#utility.yul\":7117:7120   */\n      dup2\n        /* \"#utility.yul\":7114:7129   */\n      lt\n        /* \"#utility.yul\":7088:7308   */\n      iszero\n      tag_345\n      jumpi\n        /* \"#utility.yul\":7197:7200   */\n      dup1\n        /* \"#utility.yul\":7226:7263   */\n      tag_346\n        /* \"#utility.yul\":7259:7262   */\n      dup9\n        /* \"#utility.yul\":7247:7257   */\n      dup3\n        /* \"#utility.yul\":7226:7263   */\n      tag_216\n      jump\t// in\n    tag_346:\n        /* \"#utility.yul\":7221:7224   */\n      dup5\n        /* \"#utility.yul\":7214:7264   */\n      mstore\n        /* \"#utility.yul\":7293:7297   */\n      0x20\n        /* \"#utility.yul\":7288:7291   */\n      dup5\n        /* \"#utility.yul\":7284:7298   */\n      add\n        /* \"#utility.yul\":7277:7298   */\n      swap4\n      pop\n        /* \"#utility.yul\":7164:7308   */\n      pop\n        /* \"#utility.yul\":7148:7152   */\n      0x20\n        /* \"#utility.yul\":7143:7146   */\n      dup2\n        /* \"#utility.yul\":7139:7153   */\n      add\n        /* \"#utility.yul\":7132:7153   */\n      swap1\n      pop\n        /* \"#utility.yul\":7088:7308   */\n      jump(tag_343)\n    tag_345:\n        /* \"#utility.yul\":7092:7113   */\n      pop\n        /* \"#utility.yul\":6706:7314   */\n      pop\n      pop\n        /* \"#utility.yul\":6604:7314   */\n      swap4\n      swap3\n      pop\n      pop\n      pop\n      jump\t// out\n        /* \"#utility.yul\":7337:7707   */\n    tag_232:\n        /* \"#utility.yul\":7408:7413   */\n      0x00\n        /* \"#utility.yul\":7457:7460   */\n      dup3\n        /* \"#utility.yul\":7450:7454   */\n      0x1f\n        /* \"#utility.yul\":7442:7448   */\n      dup4\n        /* \"#utility.yul\":7438:7455   */\n      add\n        /* \"#utility.yul\":7434:7461   */\n      slt\n        /* \"#utility.yul\":7424:7546   */\n      tag_348\n      jumpi\n        /* \"#utility.yul\":7465:7544   */\n      tag_349\n      tag_225\n      jump\t// in\n    tag_349:\n        /* \"#utility.yul\":7424:7546   */\n    tag_348:\n        /* \"#utility.yul\":7582:7588   */\n      dup2\n        /* \"#utility.yul\":7569:7589   */\n      calldataload\n        /* \"#utility.yul\":7607:7701   */\n      tag_350\n        /* \"#utility.yul\":7697:7700   */\n      dup5\n        /* \"#utility.yul\":7689:7695   */\n      dup3\n        /* \"#utility.yul\":7682:7686   */\n      0x20\n        /* \"#utility.yul\":7674:7680   */\n      dup7\n        /* \"#utility.yul\":7670:7687   */\n      add\n        /* \"#utility.yul\":7607:7701   */\n      tag_231\n      jump\t// in\n    tag_350:\n        /* \"#utility.yul\":7598:7701   */\n      swap2\n      pop\n        /* \"#utility.yul\":7414:7707   */\n      pop\n        /* \"#utility.yul\":7337:7707   */\n      swap3\n      swap2\n      pop\n      pop\n      jump\t// out\n        /* \"#utility.yul\":7713:8024   */\n    tag_233:\n        /* \"#utility.yul\":7790:7794   */\n      0x00\n        /* \"#utility.yul\":7880:7898   */\n      0xffffffffffffffff\n        /* \"#utility.yul\":7872:7878   */\n      dup3\n        /* \"#utility.yul\":7869:7899   */\n      gt\n        /* \"#utility.yul\":7866:7922   */\n      iszero\n      tag_352\n      jumpi\n        /* \"#utility.yul\":7902:7920   */\n      tag_353\n      tag_226\n      jump\t// in\n    tag_353:\n        /* \"#utility.yul\":7866:7922   */\n    tag_352:\n        /* \"#utility.yul\":7952:7956   */\n      0x20\n        /* \"#utility.yul\":7944:7950   */\n      dup3\n        /* \"#utility.yul\":7940:7957   */\n      mul\n        /* \"#utility.yul\":7932:7957   */\n      swap1\n      pop\n        /* \"#utility.yul\":8012:8016   */\n      0x20\n        /* \"#utility.yul\":8006:8010   */\n      dup2\n        /* \"#utility.yul\":8002:8017   */\n      add\n        /* \"#utility.yul\":7994:8017   */\n      swap1\n      pop\n        /* \"#utility.yul\":7713:8024   */\n      swap2\n      swap1\n      pop\n      jump\t// out\n        /* \"#utility.yul\":8047:8757   */\n    tag_234:\n        /* \"#utility.yul\":8143:8148   */\n      0x00\n        /* \"#utility.yul\":8168:8249   */\n      tag_355\n        /* \"#utility.yul\":8184:8248   */\n      tag_356\n        /* \"#utility.yul\":8241:8247   */\n      dup5\n        /* \"#utility.yul\":8184:8248   */\n      tag_233\n      jump\t// in\n    tag_356:\n        /* \"#utility.yul\":8168:8249   */\n      tag_228\n      jump\t// in\n    tag_355:\n        /* \"#utility.yul\":8159:8249   */\n      swap1\n      pop\n        /* \"#utility.yul\":8269:8274   */\n      dup1\n        /* \"#utility.yul\":8298:8304   */\n      dup4\n        /* \"#utility.yul\":8291:8296   */\n      dup3\n        /* \"#utility.yul\":8284:8305   */\n      mstore\n        /* \"#utility.yul\":8332:8336   */\n      0x20\n        /* \"#utility.yul\":8325:8330   */\n      dup3\n        /* \"#utility.yul\":8321:8337   */\n      add\n        /* \"#utility.yul\":8314:8337   */\n      swap1\n      pop\n        /* \"#utility.yul\":8385:8389   */\n      0x20\n        /* \"#utility.yul\":8377:8383   */\n      dup5\n        /* \"#utility.yul\":8373:8390   */\n      mul\n        /* \"#utility.yul\":8365:8371   */\n      dup4\n        /* \"#utility.yul\":8361:8391   */\n      add\n        /* \"#utility.yul\":8414:8417   */\n      dup6\n        /* \"#utility.yul\":8406:8412   */\n      dup2\n        /* \"#utility.yul\":8403:8418   */\n      gt\n        /* \"#utility.yul\":8400:8522   */\n      iszero\n      tag_357\n      jumpi\n        /* \"#utility.yul\":8433:8512   */\n      tag_358\n      tag_230\n      jump\t// in\n    tag_358:\n        /* \"#utility.yul\":8400:8522   */\n    tag_357:\n        /* \"#utility.yul\":8548:8554   */\n      dup4\n        /* \"#utility.yul\":8531:8751   */\n    tag_359:\n        /* \"#utility.yul\":8565:8571   */\n      dup2\n        /* \"#utility.yul\":8560:8563   */\n      dup2\n        /* \"#utility.yul\":8557:8572   */\n      lt\n        /* \"#utility.yul\":8531:8751   */\n      iszero\n      tag_361\n      jumpi\n        /* \"#utility.yul\":8640:8643   */\n      dup1\n        /* \"#utility.yul\":8669:8706   */\n      tag_362\n        /* \"#utility.yul\":8702:8705   */\n      dup9\n        /* \"#utility.yul\":8690:8700   */\n      dup3\n        /* \"#utility.yul\":8669:8706   */\n      tag_219\n      jump\t// in\n    tag_362:\n        /* \"#utility.yul\":8664:8667   */\n      dup5\n        /* \"#utility.yul\":8657:8707   */\n      mstore\n        /* \"#utility.yul\":8736:8740   */\n      0x20\n        /* \"#utility.yul\":8731:8734   */\n      dup5\n        /* \"#utility.yul\":8727:8741   */\n      add\n        /* \"#utility.yul\":8720:8741   */\n      swap4\n      pop\n        /* \"#utility.yul\":8607:8751   */\n      pop\n        /* \"#utility.yul\":8591:8595   */\n      0x20\n        /* \"#utility.yul\":8586:8589   */\n      dup2\n        /* \"#utility.yul\":8582:8596   */\n      add\n        /* \"#utility.yul\":8575:8596   */\n      swap1\n      pop\n        /* \"#utility.yul\":8531:8751   */\n      jump(tag_359)\n    tag_361:\n        /* \"#utility.yul\":8535:8556   */\n      pop\n        /* \"#utility.yul\":8149:8757   */\n      pop\n      pop\n        /* \"#utility.yul\":8047:8757   */\n      swap4\n      swap3\n      pop\n      pop\n      pop\n      jump\t// out\n        /* \"#utility.yul\":8780:9150   */\n    tag_235:\n        /* \"#utility.yul\":8851:8856   */\n      0x00\n        /* \"#utility.yul\":8900:8903   */\n      dup3\n        /* \"#utility.yul\":8893:8897   */\n      0x1f\n        /* \"#utility.yul\":8885:8891   */\n      dup4\n        /* \"#utility.yul\":8881:8898   */\n      add\n        /* \"#utility.yul\":8877:8904   */\n      slt\n        /* \"#utility.yul\":8867:8989   */\n      tag_364\n      jumpi\n        /* \"#utility.yul\":8908:8987   */\n      tag_365\n      tag_225\n      jump\t// in\n    tag_365:\n        /* \"#utility.yul\":8867:8989   */\n    tag_364:\n        /* \"#utility.yul\":9025:9031   */\n      dup2\n        /* \"#utility.yul\":9012:9032   */\n      calldataload\n        /* \"#utility.yul\":9050:9144   */\n      tag_366\n        /* \"#utility.yul\":9140:9143   */\n      dup5\n        /* \"#utility.yul\":9132:9138   */\n      dup3\n        /* \"#utility.yul\":9125:9129   */\n      0x20\n        /* \"#utility.yul\":9117:9123   */\n      dup7\n        /* \"#utility.yul\":9113:9130   */\n      add\n        /* \"#utility.yul\":9050:9144   */\n      tag_234\n      jump\t// in\n    tag_366:\n        /* \"#utility.yul\":9041:9144   */\n      swap2\n      pop\n        /* \"#utility.yul\":8857:9150   */\n      pop\n        /* \"#utility.yul\":8780:9150   */\n      swap3\n      swap2\n      pop\n      pop\n      jump\t// out\n        /* \"#utility.yul\":9156:10050   */\n    tag_70:\n        /* \"#utility.yul\":9274:9280   */\n      0x00\n        /* \"#utility.yul\":9282:9288   */\n      0x00\n        /* \"#utility.yul\":9331:9333   */\n      0x40\n        /* \"#utility.yul\":9319:9328   */\n      dup4\n        /* \"#utility.yul\":9310:9317   */\n      dup6\n        /* \"#utility.yul\":9306:9329   */\n      sub\n        /* \"#utility.yul\":9302:9334   */\n      slt\n        /* \"#utility.yul\":9299:9418   */\n      iszero\n      tag_368\n      jumpi\n        /* \"#utility.yul\":9337:9416   */\n      tag_369\n      tag_211\n      jump\t// in\n    tag_369:\n        /* \"#utility.yul\":9299:9418   */\n    tag_368:\n        /* \"#utility.yul\":9485:9486   */\n      0x00\n        /* \"#utility.yul\":9474:9483   */\n      dup4\n        /* \"#utility.yul\":9470:9487   */\n      add\n        /* \"#utility.yul\":9457:9488   */\n      calldataload\n        /* \"#utility.yul\":9515:9533   */\n      0xffffffffffffffff\n        /* \"#utility.yul\":9507:9513   */\n      dup2\n        /* \"#utility.yul\":9504:9534   */\n      gt\n        /* \"#utility.yul\":9501:9618   */\n      iszero\n      tag_370\n      jumpi\n        /* \"#utility.yul\":9537:9616   */\n      tag_371\n      tag_212\n      jump\t// in\n    tag_371:\n        /* \"#utility.yul\":9501:9618   */\n    tag_370:\n        /* \"#utility.yul\":9642:9720   */\n      tag_372\n        /* \"#utility.yul\":9712:9719   */\n      dup6\n        /* \"#utility.yul\":9703:9709   */\n      dup3\n        /* \"#utility.yul\":9692:9701   */\n      dup7\n        /* \"#utility.yul\":9688:9710   */\n      add\n        /* \"#utility.yul\":9642:9720   */\n      tag_232\n      jump\t// in\n    tag_372:\n        /* \"#utility.yul\":9632:9720   */\n      swap3\n      pop\n        /* \"#utility.yul\":9428:9730   */\n      pop\n        /* \"#utility.yul\":9797:9799   */\n      0x20\n        /* \"#utility.yul\":9786:9795   */\n      dup4\n        /* \"#utility.yul\":9782:9800   */\n      add\n        /* \"#utility.yul\":9769:9801   */\n      calldataload\n        /* \"#utility.yul\":9828:9846   */\n      0xffffffffffffffff\n        /* \"#utility.yul\":9820:9826   */\n      dup2\n        /* \"#utility.yul\":9817:9847   */\n      gt\n        /* \"#utility.yul\":9814:9931   */\n      iszero\n      tag_373\n      jumpi\n        /* \"#utility.yul\":9850:9929   */\n      tag_374\n      tag_212\n      jump\t// in\n    tag_374:\n        /* \"#utility.yul\":9814:9931   */\n    tag_373:\n        /* \"#utility.yul\":9955:10033   */\n      tag_375\n        /* \"#utility.yul\":10025:10032   */\n      dup6\n        /* \"#utility.yul\":10016:10022   */\n      dup3\n        /* \"#utility.yul\":10005:10014   */\n      dup7\n        /* \"#utility.yul\":10001:10023   */\n      add\n        /* \"#utility.yul\":9955:10033   */\n      tag_235\n      jump\t// in\n    tag_375:\n        /* \"#utility.yul\":9945:10033   */\n      swap2\n      pop\n        /* \"#utility.yul\":9740:10043   */\n      pop\n        /* \"#utility.yul\":9156:10050   */\n      swap3\n      pop\n      swap3\n      swap1\n      pop\n      jump\t// out\n        /* \"#utility.yul\":10056:10174   */\n    tag_236:\n        /* \"#utility.yul\":10143:10167   */\n      tag_377\n        /* \"#utility.yul\":10161:10166   */\n      dup2\n        /* \"#utility.yul\":10143:10167   */\n      tag_214\n      jump\t// in\n    tag_377:\n        /* \"#utility.yul\":10138:10141   */\n      dup3\n        /* \"#utility.yul\":10131:10168   */\n      mstore\n        /* \"#utility.yul\":10056:10174   */\n      pop\n      pop\n      jump\t// out\n        /* \"#utility.yul\":10180:10402   */\n    tag_75:\n        /* \"#utility.yul\":10273:10277   */\n      0x00\n        /* \"#utility.yul\":10311:10313   */\n      0x20\n        /* \"#utility.yul\":10300:10309   */\n      dup3\n        /* \"#utility.yul\":10296:10314   */\n      add\n        /* \"#utility.yul\":10288:10314   */\n      swap1\n      pop\n        /* \"#utility.yul\":10324:10395   */\n      tag_379\n        /* \"#utility.yul\":10392:10393   */\n      0x00\n        /* \"#utility.yul\":10381:10390   */\n      dup4\n        /* \"#utility.yul\":10377:10394   */\n      add\n        /* \"#utility.yul\":10368:10374   */\n      dup5\n        /* \"#utility.yul\":10324:10395   */\n      tag_236\n      jump\t// in\n    tag_379:\n        /* \"#utility.yul\":10180:10402   */\n      swap3\n      swap2\n      pop\n      pop\n      jump\t// out\n        /* \"#utility.yul\":10408:10882   */\n    tag_85:\n        /* \"#utility.yul\":10476:10482   */\n      0x00\n        /* \"#utility.yul\":10484:10490   */\n      0x00\n        /* \"#utility.yul\":10533:10535   */\n      0x40\n        /* \"#utility.yul\":10521:10530   */\n      dup4\n        /* \"#utility.yul\":10512:10519   */\n      dup6\n        /* \"#utility.yul\":10508:10531   */\n      sub\n        /* \"#utility.yul\":10504:10536   */\n      slt\n        /* \"#utility.yul\":10501:10620   */\n      iszero\n      tag_381\n      jumpi\n        /* \"#utility.yul\":10539:10618   */\n      tag_382\n      tag_211\n      jump\t// in\n    tag_382:\n        /* \"#utility.yul\":10501:10620   */\n    tag_381:\n        /* \"#utility.yul\":10659:10660   */\n      0x00\n        /* \"#utility.yul\":10684:10737   */\n      tag_383\n        /* \"#utility.yul\":10729:10736   */\n      dup6\n        /* \"#utility.yul\":10720:10726   */\n      dup3\n        /* \"#utility.yul\":10709:10718   */\n      dup7\n        /* \"#utility.yul\":10705:10727   */\n      add\n        /* \"#utility.yul\":10684:10737   */\n      tag_216\n      jump\t// in\n    tag_383:\n        /* \"#utility.yul\":10674:10737   */\n      swap3\n      pop\n        /* \"#utility.yul\":10630:10747   */\n      pop\n        /* \"#utility.yul\":10786:10788   */\n      0x20\n        /* \"#utility.yul\":10812:10865   */\n      tag_384\n        /* \"#utility.yul\":10857:10864   */\n      dup6\n        /* \"#utility.yul\":10848:10854   */\n      dup3\n        /* \"#utility.yul\":10837:10846   */\n      dup7\n        /* \"#utility.yul\":10833:10855   */\n      add\n        /* \"#utility.yul\":10812:10865   */\n      tag_216\n      jump\t// in\n    tag_384:\n        /* \"#utility.yul\":10802:10865   */\n      swap2\n      pop\n        /* \"#utility.yul\":10757:10875   */\n      pop\n        /* \"#utility.yul\":10408:10882   */\n      swap3\n      pop\n      swap3\n      swap1\n      pop\n      jump\t// out\n        /* \"#utility.yul\":10888:11058   */\n    tag_237:\n        /* \"#utility.yul\":11028:11050   */\n      0x4f6e6c79206f776e65722063616e2063616c6c21000000000000000000000000\n        /* \"#utility.yul\":11024:11025   */\n      0x00\n        /* \"#utility.yul\":11016:11022   */\n      dup3\n        /* \"#utility.yul\":11012:11026   */\n      add\n        /* \"#utility.yul\":11005:11051   */\n      mstore\n        /* \"#utility.yul\":10888:11058   */\n      pop\n      jump\t// out\n        /* \"#utility.yul\":11064:11430   */\n    tag_238:\n        /* \"#utility.yul\":11206:11209   */\n      0x00\n        /* \"#utility.yul\":11227:11294   */\n      tag_387\n        /* \"#utility.yul\":11291:11293   */\n      0x14\n        /* \"#utility.yul\":11286:11289   */\n      dup4\n        /* \"#utility.yul\":11227:11294   */\n      tag_206\n      jump\t// in\n    tag_387:\n        /* \"#utility.yul\":11220:11294   */\n      swap2\n      pop\n        /* \"#utility.yul\":11303:11396   */\n      tag_388\n        /* \"#utility.yul\":11392:11395   */\n      dup3\n        /* \"#utility.yul\":11303:11396   */\n      tag_237\n      jump\t// in\n    tag_388:\n        /* \"#utility.yul\":11421:11423   */\n      0x20\n        /* \"#utility.yul\":11416:11419   */\n      dup3\n        /* \"#utility.yul\":11412:11424   */\n      add\n        /* \"#utility.yul\":11405:11424   */\n      swap1\n      pop\n        /* \"#utility.yul\":11064:11430   */\n      swap2\n      swap1\n      pop\n      jump\t// out\n        /* \"#utility.yul\":11436:11855   */\n    tag_91:\n        /* \"#utility.yul\":11602:11606   */\n      0x00\n        /* \"#utility.yul\":11640:11642   */\n      0x20\n        /* \"#utility.yul\":11629:11638   */\n      dup3\n        /* \"#utility.yul\":11625:11643   */\n      add\n        /* \"#utility.yul\":11617:11643   */\n      swap1\n      pop\n        /* \"#utility.yul\":11689:11698   */\n      dup2\n        /* \"#utility.yul\":11683:11687   */\n      dup2\n        /* \"#utility.yul\":11679:11699   */\n      sub\n        /* \"#utility.yul\":11675:11676   */\n      0x00\n        /* \"#utility.yul\":11664:11673   */\n      dup4\n        /* \"#utility.yul\":11660:11677   */\n      add\n        /* \"#utility.yul\":11653:11700   */\n      mstore\n        /* \"#utility.yul\":11717:11848   */\n      tag_390\n        /* \"#utility.yul\":11843:11847   */\n      dup2\n        /* \"#utility.yul\":11717:11848   */\n      tag_238\n      jump\t// in\n    tag_390:\n        /* \"#utility.yul\":11709:11848   */\n      swap1\n      pop\n        /* \"#utility.yul\":11436:11855   */\n      swap2\n      swap1\n      pop\n      jump\t// out\n        /* \"#utility.yul\":11861:12030   */\n    tag_239:\n        /* \"#utility.yul\":12001:12022   */\n      0x436f6e7472616374206973207061757365642100000000000000000000000000\n        /* \"#utility.yul\":11997:11998   */\n      0x00\n        /* \"#utility.yul\":11989:11995   */\n      dup3\n        /* \"#utility.yul\":11985:11999   */\n      add\n        /* \"#utility.yul\":11978:12023   */\n      mstore\n        /* \"#utility.yul\":11861:12030   */\n      pop\n      jump\t// out\n        /* \"#utility.yul\":12036:12402   */\n    tag_240:\n        /* \"#utility.yul\":12178:12181   */\n      0x00\n        /* \"#utility.yul\":12199:12266   */\n      tag_393\n        /* \"#utility.yul\":12263:12265   */\n      0x13\n        /* \"#utility.yul\":12258:12261   */\n      dup4\n        /* \"#utility.yul\":12199:12266   */\n      tag_206\n      jump\t// in\n    tag_393:\n        /* \"#utility.yul\":12192:12266   */\n      swap2\n      pop\n        /* \"#utility.yul\":12275:12368   */\n      tag_394\n        /* \"#utility.yul\":12364:12367   */\n      dup3\n        /* \"#utility.yul\":12275:12368   */\n      tag_239\n      jump\t// in\n    tag_394:\n        /* \"#utility.yul\":12393:12395   */\n      0x20\n        /* \"#utility.yul\":12388:12391   */\n      dup3\n        /* \"#utility.yul\":12384:12396   */\n      add\n        /* \"#utility.yul\":12377:12396   */\n      swap1\n      pop\n        /* \"#utility.yul\":12036:12402   */\n      swap2\n      swap1\n      pop\n      jump\t// out\n        /* \"#utility.yul\":12408:12827   */\n    tag_95:\n        /* \"#utility.yul\":12574:12578   */\n      0x00\n        /* \"#utility.yul\":12612:12614   */\n      0x20\n        /* \"#utility.yul\":12601:12610   */\n      dup3\n        /* \"#utility.yul\":12597:12615   */\n      add\n        /* \"#utility.yul\":12589:12615   */\n      swap1\n      pop\n        /* \"#utility.yul\":12661:12670   */\n      dup2\n        /* \"#utility.yul\":12655:12659   */\n      dup2\n        /* \"#utility.yul\":12651:12671   */\n      sub\n        /* \"#utility.yul\":12647:12648   */\n      0x00\n        /* \"#utility.yul\":12636:12645   */\n      dup4\n        /* \"#utility.yul\":12632:12649   */\n      add\n        /* \"#utility.yul\":12625:12672   */\n      mstore\n        /* \"#utility.yul\":12689:12820   */\n      tag_396\n        /* \"#utility.yul\":12815:12819   */\n      dup2\n        /* \"#utility.yul\":12689:12820   */\n      tag_240\n      jump\t// in\n    tag_396:\n        /* \"#utility.yul\":12681:12820   */\n      swap1\n      pop\n        /* \"#utility.yul\":12408:12827   */\n      swap2\n      swap1\n      pop\n      jump\t// out\n        /* \"#utility.yul\":12833:13013   */\n    tag_241:\n        /* \"#utility.yul\":12881:12958   */\n      0x4e487b7100000000000000000000000000000000000000000000000000000000\n        /* \"#utility.yul\":12878:12879   */\n      0x00\n        /* \"#utility.yul\":12871:12959   */\n      mstore\n        /* \"#utility.yul\":12978:12982   */\n      0x22\n        /* \"#utility.yul\":12975:12976   */\n      0x04\n        /* \"#utility.yul\":12968:12983   */\n      mstore\n        /* \"#utility.yul\":13002:13006   */\n      0x24\n        /* \"#utility.yul\":12999:13000   */\n      0x00\n        /* \"#utility.yul\":12992:13007   */\n      revert\n        /* \"#utility.yul\":13019:13339   */\n    tag_98:\n        /* \"#utility.yul\":13063:13069   */\n      0x00\n        /* \"#utility.yul\":13100:13101   */\n      0x02\n        /* \"#utility.yul\":13094:13098   */\n      dup3\n        /* \"#utility.yul\":13090:13102   */\n      div\n        /* \"#utility.yul\":13080:13102   */\n      swap1\n      pop\n        /* \"#utility.yul\":13147:13148   */\n      0x01\n        /* \"#utility.yul\":13141:13145   */\n      dup3\n        /* \"#utility.yul\":13137:13149   */\n      and\n        /* \"#utility.yul\":13168:13186   */\n      dup1\n        /* \"#utility.yul\":13158:13239   */\n      tag_399\n      jumpi\n        /* \"#utility.yul\":13224:13228   */\n      0x7f\n        /* \"#utility.yul\":13216:13222   */\n      dup3\n        /* \"#utility.yul\":13212:13229   */\n      and\n        /* \"#utility.yul\":13202:13229   */\n      swap2\n      pop\n        /* \"#utility.yul\":13158:13239   */\n    tag_399:\n        /* \"#utility.yul\":13286:13288   */\n      0x20\n        /* \"#utility.yul\":13278:13284   */\n      dup3\n        /* \"#utility.yul\":13275:13289   */\n      lt\n        /* \"#utility.yul\":13255:13273   */\n      dup2\n        /* \"#utility.yul\":13252:13290   */\n      sub\n        /* \"#utility.yul\":13249:13333   */\n      tag_400\n      jumpi\n        /* \"#utility.yul\":13305:13323   */\n      tag_401\n      tag_241\n      jump\t// in\n    tag_401:\n        /* \"#utility.yul\":13249:13333   */\n    tag_400:\n        /* \"#utility.yul\":13070:13339   */\n      pop\n        /* \"#utility.yul\":13019:13339   */\n      swap2\n      swap1\n      pop\n      jump\t// out\n        /* \"#utility.yul\":13345:13523   */\n    tag_242:\n        /* \"#utility.yul\":13485:13515   */\n      0x43616e6e6f7420617070726f7665207a65726f20616464726573732100000000\n        /* \"#utility.yul\":13481:13482   */\n      0x00\n        /* \"#utility.yul\":13473:13479   */\n      dup3\n        /* \"#utility.yul\":13469:13483   */\n      add\n        /* \"#utility.yul\":13462:13516   */\n      mstore\n        /* \"#utility.yul\":13345:13523   */\n      pop\n      jump\t// out\n        /* \"#utility.yul\":13529:13895   */\n    tag_243:\n        /* \"#utility.yul\":13671:13674   */\n      0x00\n        /* \"#utility.yul\":13692:13759   */\n      tag_404\n        /* \"#utility.yul\":13756:13758   */\n      0x1c\n        /* \"#utility.yul\":13751:13754   */\n      dup4\n        /* \"#utility.yul\":13692:13759   */\n      tag_206\n      jump\t// in\n    tag_404:\n        /* \"#utility.yul\":13685:13759   */\n      swap2\n      pop\n        /* \"#utility.yul\":13768:13861   */\n      tag_405\n        /* \"#utility.yul\":13857:13860   */\n      dup3\n        /* \"#utility.yul\":13768:13861   */\n      tag_242\n      jump\t// in\n    tag_405:\n        /* \"#utility.yul\":13886:13888   */\n      0x20\n        /* \"#utility.yul\":13881:13884   */\n      dup3\n        /* \"#utility.yul\":13877:13889   */\n      add\n        /* \"#utility.yul\":13870:13889   */\n      swap1\n      pop\n        /* \"#utility.yul\":13529:13895   */\n      swap2\n      swap1\n      pop\n      jump\t// out\n        /* \"#utility.yul\":13901:14320   */\n    tag_106:\n        /* \"#utility.yul\":14067:14071   */\n      0x00\n        /* \"#utility.yul\":14105:14107   */\n      0x20\n        /* \"#utility.yul\":14094:14103   */\n      dup3\n        /* \"#utility.yul\":14090:14108   */\n      add\n        /* \"#utility.yul\":14082:14108   */\n      swap1\n      pop\n        /* \"#utility.yul\":14154:14163   */\n      dup2\n        /* \"#utility.yul\":14148:14152   */\n      dup2\n        /* \"#utility.yul\":14144:14164   */\n      sub\n        /* \"#utility.yul\":14140:14141   */\n      0x00\n        /* \"#utility.yul\":14129:14138   */\n      dup4\n        /* \"#utility.yul\":14125:14142   */\n      add\n        /* \"#utility.yul\":14118:14165   */\n      mstore\n        /* \"#utility.yul\":14182:14313   */\n      tag_407\n        /* \"#utility.yul\":14308:14312   */\n      dup2\n        /* \"#utility.yul\":14182:14313   */\n      tag_243\n      jump\t// in\n    tag_407:\n        /* \"#utility.yul\":14174:14313   */\n      swap1\n      pop\n        /* \"#utility.yul\":13901:14320   */\n      swap2\n      swap1\n      pop\n      jump\t// out\n        /* \"#utility.yul\":14326:14486   */\n    tag_244:\n        /* \"#utility.yul\":14466:14478   */\n      0x46726f6d207a65726f2100000000000000000000000000000000000000000000\n        /* \"#utility.yul\":14462:14463   */\n      0x00\n        /* \"#utility.yul\":14454:14460   */\n      dup3\n        /* \"#utility.yul\":14450:14464   */\n      add\n        /* \"#utility.yul\":14443:14479   */\n      mstore\n        /* \"#utility.yul\":14326:14486   */\n      pop\n      jump\t// out\n        /* \"#utility.yul\":14492:14858   */\n    tag_245:\n        /* \"#utility.yul\":14634:14637   */\n      0x00\n        /* \"#utility.yul\":14655:14722   */\n      tag_410\n        /* \"#utility.yul\":14719:14721   */\n      0x0a\n        /* \"#utility.yul\":14714:14717   */\n      dup4\n        /* \"#utility.yul\":14655:14722   */\n      tag_206\n      jump\t// in\n    tag_410:\n        /* \"#utility.yul\":14648:14722   */\n      swap2\n      pop\n        /* \"#utility.yul\":14731:14824   */\n      tag_411\n        /* \"#utility.yul\":14820:14823   */\n      dup3\n        /* \"#utility.yul\":14731:14824   */\n      tag_244\n      jump\t// in\n    tag_411:\n        /* \"#utility.yul\":14849:14851   */\n      0x20\n        /* \"#utility.yul\":14844:14847   */\n      dup3\n        /* \"#utility.yul\":14840:14852   */\n      add\n        /* \"#utility.yul\":14833:14852   */\n      swap1\n      pop\n        /* \"#utility.yul\":14492:14858   */\n      swap2\n      swap1\n      pop\n      jump\t// out\n        /* \"#utility.yul\":14864:15283   */\n    tag_111:\n        /* \"#utility.yul\":15030:15034   */\n      0x00\n        /* \"#utility.yul\":15068:15070   */\n      0x20\n        /* \"#utility.yul\":15057:15066   */\n      dup3\n        /* \"#utility.yul\":15053:15071   */\n      add\n        /* \"#utility.yul\":15045:15071   */\n      swap1\n      pop\n        /* \"#utility.yul\":15117:15126   */\n      dup2\n        /* \"#utility.yul\":15111:15115   */\n      dup2\n        /* \"#utility.yul\":15107:15127   */\n      sub\n        /* \"#utility.yul\":15103:15104   */\n      0x00\n        /* \"#utility.yul\":15092:15101   */\n      dup4\n        /* \"#utility.yul\":15088:15105   */\n      add\n        /* \"#utility.yul\":15081:15128   */\n      mstore\n        /* \"#utility.yul\":15145:15276   */\n      tag_413\n        /* \"#utility.yul\":15271:15275   */\n      dup2\n        /* \"#utility.yul\":15145:15276   */\n      tag_245\n      jump\t// in\n    tag_413:\n        /* \"#utility.yul\":15137:15276   */\n      swap1\n      pop\n        /* \"#utility.yul\":14864:15283   */\n      swap2\n      swap1\n      pop\n      jump\t// out\n        /* \"#utility.yul\":15289:15447   */\n    tag_246:\n        /* \"#utility.yul\":15429:15439   */\n      0x546f207a65726f21000000000000000000000000000000000000000000000000\n        /* \"#utility.yul\":15425:15426   */\n      0x00\n        /* \"#utility.yul\":15417:15423   */\n      dup3\n        /* \"#utility.yul\":15413:15427   */\n      add\n        /* \"#utility.yul\":15406:15440   */\n      mstore\n        /* \"#utility.yul\":15289:15447   */\n      pop\n      jump\t// out\n        /* \"#utility.yul\":15453:15818   */\n    tag_247:\n        /* \"#utility.yul\":15595:15598   */\n      0x00\n        /* \"#utility.yul\":15616:15682   */\n      tag_416\n        /* \"#utility.yul\":15680:15681   */\n      0x08\n        /* \"#utility.yul\":15675:15678   */\n      dup4\n        /* \"#utility.yul\":15616:15682   */\n      tag_206\n      jump\t// in\n    tag_416:\n        /* \"#utility.yul\":15609:15682   */\n      swap2\n      pop\n        /* \"#utility.yul\":15691:15784   */\n      tag_417\n        /* \"#utility.yul\":15780:15783   */\n      dup3\n        /* \"#utility.yul\":15691:15784   */\n      tag_246\n      jump\t// in\n    tag_417:\n        /* \"#utility.yul\":15809:15811   */\n      0x20\n        /* \"#utility.yul\":15804:15807   */\n      dup3\n        /* \"#utility.yul\":15800:15812   */\n      add\n        /* \"#utility.yul\":15793:15812   */\n      swap1\n      pop\n        /* \"#utility.yul\":15453:15818   */\n      swap2\n      swap1\n      pop\n      jump\t// out\n        /* \"#utility.yul\":15824:16243   */\n    tag_114:\n        /* \"#utility.yul\":15990:15994   */\n      0x00\n        /* \"#utility.yul\":16028:16030   */\n      0x20\n        /* \"#utility.yul\":16017:16026   */\n      dup3\n        /* \"#utility.yul\":16013:16031   */\n      add\n        /* \"#utility.yul\":16005:16031   */\n      swap1\n      pop\n        /* \"#utility.yul\":16077:16086   */\n      dup2\n        /* \"#utility.yul\":16071:16075   */\n      dup2\n        /* \"#utility.yul\":16067:16087   */\n      sub\n        /* \"#utility.yul\":16063:16064   */\n      0x00\n        /* \"#utility.yul\":16052:16061   */\n      dup4\n        /* \"#utility.yul\":16048:16065   */\n      add\n        /* \"#utility.yul\":16041:16088   */\n      mstore\n        /* \"#utility.yul\":16105:16236   */\n      tag_419\n        /* \"#utility.yul\":16231:16235   */\n      dup2\n        /* \"#utility.yul\":16105:16236   */\n      tag_247\n      jump\t// in\n    tag_419:\n        /* \"#utility.yul\":16097:16236   */\n      swap1\n      pop\n        /* \"#utility.yul\":15824:16243   */\n      swap2\n      swap1\n      pop\n      jump\t// out\n        /* \"#utility.yul\":16249:16420   */\n    tag_248:\n        /* \"#utility.yul\":16389:16412   */\n      0x496e73756666696369656e742062616c616e6365210000000000000000000000\n        /* \"#utility.yul\":16385:16386   */\n      0x00\n        /* \"#utility.yul\":16377:16383   */\n      dup3\n        /* \"#utility.yul\":16373:16387   */\n      add\n        /* \"#utility.yul\":16366:16413   */\n      mstore\n        /* \"#utility.yul\":16249:16420   */\n      pop\n      jump\t// out\n        /* \"#utility.yul\":16426:16792   */\n    tag_249:\n        /* \"#utility.yul\":16568:16571   */\n      0x00\n        /* \"#utility.yul\":16589:16656   */\n      tag_422\n        /* \"#utility.yul\":16653:16655   */\n      0x15\n        /* \"#utility.yul\":16648:16651   */\n      dup4\n        /* \"#utility.yul\":16589:16656   */\n      tag_206\n      jump\t// in\n    tag_422:\n        /* \"#utility.yul\":16582:16656   */\n      swap2\n      pop\n        /* \"#utility.yul\":16665:16758   */\n      tag_423\n        /* \"#utility.yul\":16754:16757   */\n      dup3\n        /* \"#utility.yul\":16665:16758   */\n      tag_248\n      jump\t// in\n    tag_423:\n        /* \"#utility.yul\":16783:16785   */\n      0x20\n        /* \"#utility.yul\":16778:16781   */\n      dup3\n        /* \"#utility.yul\":16774:16786   */\n      add\n        /* \"#utility.yul\":16767:16786   */\n      swap1\n      pop\n        /* \"#utility.yul\":16426:16792   */\n      swap2\n      swap1\n      pop\n      jump\t// out\n        /* \"#utility.yul\":16798:17217   */\n    tag_117:\n        /* \"#utility.yul\":16964:16968   */\n      0x00\n        /* \"#utility.yul\":17002:17004   */\n      0x20\n        /* \"#utility.yul\":16991:17000   */\n      dup3\n        /* \"#utility.yul\":16987:17005   */\n      add\n        /* \"#utility.yul\":16979:17005   */\n      swap1\n      pop\n        /* \"#utility.yul\":17051:17060   */\n      dup2\n        /* \"#utility.yul\":17045:17049   */\n      dup2\n        /* \"#utility.yul\":17041:17061   */\n      sub\n        /* \"#utility.yul\":17037:17038   */\n      0x00\n        /* \"#utility.yul\":17026:17035   */\n      dup4\n        /* \"#utility.yul\":17022:17039   */\n      add\n        /* \"#utility.yul\":17015:17062   */\n      mstore\n        /* \"#utility.yul\":17079:17210   */\n      tag_425\n        /* \"#utility.yul\":17205:17209   */\n      dup2\n        /* \"#utility.yul\":17079:17210   */\n      tag_249\n      jump\t// in\n    tag_425:\n        /* \"#utility.yul\":17071:17210   */\n      swap1\n      pop\n        /* \"#utility.yul\":16798:17217   */\n      swap2\n      swap1\n      pop\n      jump\t// out\n        /* \"#utility.yul\":17223:17395   */\n    tag_250:\n        /* \"#utility.yul\":17363:17387   */\n      0x496e73756666696369656e742062616c616e6365322100000000000000000000\n        /* \"#utility.yul\":17359:17360   */\n      0x00\n        /* \"#utility.yul\":17351:17357   */\n      dup3\n        /* \"#utility.yul\":17347:17361   */\n      add\n        /* \"#utility.yul\":17340:17388   */\n      mstore\n        /* \"#utility.yul\":17223:17395   */\n      pop\n      jump\t// out\n        /* \"#utility.yul\":17401:17767   */\n    tag_251:\n        /* \"#utility.yul\":17543:17546   */\n      0x00\n        /* \"#utility.yul\":17564:17631   */\n      tag_428\n        /* \"#utility.yul\":17628:17630   */\n      0x16\n        /* \"#utility.yul\":17623:17626   */\n      dup4\n        /* \"#utility.yul\":17564:17631   */\n      tag_206\n      jump\t// in\n    tag_428:\n        /* \"#utility.yul\":17557:17631   */\n      swap2\n      pop\n        /* \"#utility.yul\":17640:17733   */\n      tag_429\n        /* \"#utility.yul\":17729:17732   */\n      dup3\n        /* \"#utility.yul\":17640:17733   */\n      tag_250\n      jump\t// in\n    tag_429:\n        /* \"#utility.yul\":17758:17760   */\n      0x20\n        /* \"#utility.yul\":17753:17756   */\n      dup3\n        /* \"#utility.yul\":17749:17761   */\n      add\n        /* \"#utility.yul\":17742:17761   */\n      swap1\n      pop\n        /* \"#utility.yul\":17401:17767   */\n      swap2\n      swap1\n      pop\n      jump\t// out\n        /* \"#utility.yul\":17773:18192   */\n    tag_120:\n        /* \"#utility.yul\":17939:17943   */\n      0x00\n        /* \"#utility.yul\":17977:17979   */\n      0x20\n        /* \"#utility.yul\":17966:17975   */\n      dup3\n        /* \"#utility.yul\":17962:17980   */\n      add\n        /* \"#utility.yul\":17954:17980   */\n      swap1\n      pop\n        /* \"#utility.yul\":18026:18035   */\n      dup2\n        /* \"#utility.yul\":18020:18024   */\n      dup2\n        /* \"#utility.yul\":18016:18036   */\n      sub\n        /* \"#utility.yul\":18012:18013   */\n      0x00\n        /* \"#utility.yul\":18001:18010   */\n      dup4\n        /* \"#utility.yul\":17997:18014   */\n      add\n        /* \"#utility.yul\":17990:18037   */\n      mstore\n        /* \"#utility.yul\":18054:18185   */\n      tag_431\n        /* \"#utility.yul\":18180:18184   */\n      dup2\n        /* \"#utility.yul\":18054:18185   */\n      tag_251\n      jump\t// in\n    tag_431:\n        /* \"#utility.yul\":18046:18185   */\n      swap1\n      pop\n        /* \"#utility.yul\":17773:18192   */\n      swap2\n      swap1\n      pop\n      jump\t// out\n        /* \"#utility.yul\":18198:18378   */\n    tag_252:\n        /* \"#utility.yul\":18246:18323   */\n      0x4e487b7100000000000000000000000000000000000000000000000000000000\n        /* \"#utility.yul\":18243:18244   */\n      0x00\n        /* \"#utility.yul\":18236:18324   */\n      mstore\n        /* \"#utility.yul\":18343:18347   */\n      0x11\n        /* \"#utility.yul\":18340:18341   */\n      0x04\n        /* \"#utility.yul\":18333:18348   */\n      mstore\n        /* \"#utility.yul\":18367:18371   */\n      0x24\n        /* \"#utility.yul\":18364:18365   */\n      0x00\n        /* \"#utility.yul\":18357:18372   */\n      revert\n        /* \"#utility.yul\":18384:18578   */\n    tag_122:\n        /* \"#utility.yul\":18424:18428   */\n      0x00\n        /* \"#utility.yul\":18444:18464   */\n      tag_434\n        /* \"#utility.yul\":18462:18463   */\n      dup3\n        /* \"#utility.yul\":18444:18464   */\n      tag_217\n      jump\t// in\n    tag_434:\n        /* \"#utility.yul\":18439:18464   */\n      swap2\n      pop\n        /* \"#utility.yul\":18478:18498   */\n      tag_435\n        /* \"#utility.yul\":18496:18497   */\n      dup4\n        /* \"#utility.yul\":18478:18498   */\n      tag_217\n      jump\t// in\n    tag_435:\n        /* \"#utility.yul\":18473:18498   */\n      swap3\n      pop\n        /* \"#utility.yul\":18522:18523   */\n      dup3\n        /* \"#utility.yul\":18519:18520   */\n      dup3\n        /* \"#utility.yul\":18515:18524   */\n      sub\n        /* \"#utility.yul\":18507:18524   */\n      swap1\n      pop\n        /* \"#utility.yul\":18546:18547   */\n      dup2\n        /* \"#utility.yul\":18540:18544   */\n      dup2\n        /* \"#utility.yul\":18537:18548   */\n      gt\n        /* \"#utility.yul\":18534:18571   */\n      iszero\n      tag_436\n      jumpi\n        /* \"#utility.yul\":18551:18569   */\n      tag_437\n      tag_252\n      jump\t// in\n    tag_437:\n        /* \"#utility.yul\":18534:18571   */\n    tag_436:\n        /* \"#utility.yul\":18384:18578   */\n      swap3\n      swap2\n      pop\n      pop\n      jump\t// out\n        /* \"#utility.yul\":18584:18775   */\n    tag_124:\n        /* \"#utility.yul\":18624:18627   */\n      0x00\n        /* \"#utility.yul\":18643:18663   */\n      tag_439\n        /* \"#utility.yul\":18661:18662   */\n      dup3\n        /* \"#utility.yul\":18643:18663   */\n      tag_217\n      jump\t// in\n    tag_439:\n        /* \"#utility.yul\":18638:18663   */\n      swap2\n      pop\n        /* \"#utility.yul\":18677:18697   */\n      tag_440\n        /* \"#utility.yul\":18695:18696   */\n      dup4\n        /* \"#utility.yul\":18677:18697   */\n      tag_217\n      jump\t// in\n    tag_440:\n        /* \"#utility.yul\":18672:18697   */\n      swap3\n      pop\n        /* \"#utility.yul\":18720:18721   */\n      dup3\n        /* \"#utility.yul\":18717:18718   */\n      dup3\n        /* \"#utility.yul\":18713:18722   */\n      add\n        /* \"#utility.yul\":18706:18722   */\n      swap1\n      pop\n        /* \"#utility.yul\":18741:18744   */\n      dup1\n        /* \"#utility.yul\":18738:18739   */\n      dup3\n        /* \"#utility.yul\":18735:18745   */\n      gt\n        /* \"#utility.yul\":18732:18768   */\n      iszero\n      tag_441\n      jumpi\n        /* \"#utility.yul\":18748:18766   */\n      tag_442\n      tag_252\n      jump\t// in\n    tag_442:\n        /* \"#utility.yul\":18732:18768   */\n    tag_441:\n        /* \"#utility.yul\":18584:18775   */\n      swap3\n      swap2\n      pop\n      pop\n      jump\t// out\n        /* \"#utility.yul\":18781:18959   */\n    tag_253:\n        /* \"#utility.yul\":18921:18951   */\n      0x43616e6e6f74206d696e7420746f207a65726f20616464726573732100000000\n        /* \"#utility.yul\":18917:18918   */\n      0x00\n        /* \"#utility.yul\":18909:18915   */\n      dup3\n        /* \"#utility.yul\":18905:18919   */\n      add\n        /* \"#utility.yul\":18898:18952   */\n      mstore\n        /* \"#utility.yul\":18781:18959   */\n      pop\n      jump\t// out\n        /* \"#utility.yul\":18965:19331   */\n    tag_254:\n        /* \"#utility.yul\":19107:19110   */\n      0x00\n        /* \"#utility.yul\":19128:19195   */\n      tag_445\n        /* \"#utility.yul\":19192:19194   */\n      0x1c\n        /* \"#utility.yul\":19187:19190   */\n      dup4\n        /* \"#utility.yul\":19128:19195   */\n      tag_206\n      jump\t// in\n    tag_445:\n        /* \"#utility.yul\":19121:19195   */\n      swap2\n      pop\n        /* \"#utility.yul\":19204:19297   */\n      tag_446\n        /* \"#utility.yul\":19293:19296   */\n      dup3\n        /* \"#utility.yul\":19204:19297   */\n      tag_253\n      jump\t// in\n    tag_446:\n        /* \"#utility.yul\":19322:19324   */\n      0x20\n        /* \"#utility.yul\":19317:19320   */\n      dup3\n        /* \"#utility.yul\":19313:19325   */\n      add\n        /* \"#utility.yul\":19306:19325   */\n      swap1\n      pop\n        /* \"#utility.yul\":18965:19331   */\n      swap2\n      swap1\n      pop\n      jump\t// out\n        /* \"#utility.yul\":19337:19756   */\n    tag_133:\n        /* \"#utility.yul\":19503:19507   */\n      0x00\n        /* \"#utility.yul\":19541:19543   */\n      0x20\n        /* \"#utility.yul\":19530:19539   */\n      dup3\n        /* \"#utility.yul\":19526:19544   */\n      add\n        /* \"#utility.yul\":19518:19544   */\n      swap1\n      pop\n        /* \"#utility.yul\":19590:19599   */\n      dup2\n        /* \"#utility.yul\":19584:19588   */\n      dup2\n        /* \"#utility.yul\":19580:19600   */\n      sub\n        /* \"#utility.yul\":19576:19577   */\n      0x00\n        /* \"#utility.yul\":19565:19574   */\n      dup4\n        /* \"#utility.yul\":19561:19578   */\n      add\n        /* \"#utility.yul\":19554:19601   */\n      mstore\n        /* \"#utility.yul\":19618:19749   */\n      tag_448\n        /* \"#utility.yul\":19744:19748   */\n      dup2\n        /* \"#utility.yul\":19618:19749   */\n      tag_254\n      jump\t// in\n    tag_448:\n        /* \"#utility.yul\":19610:19749   */\n      swap1\n      pop\n        /* \"#utility.yul\":19337:19756   */\n      swap2\n      swap1\n      pop\n      jump\t// out\n        /* \"#utility.yul\":19762:19935   */\n    tag_255:\n        /* \"#utility.yul\":19902:19927   */\n      0x436f6e7472616374206973206e6f742070617573656421000000000000000000\n        /* \"#utility.yul\":19898:19899   */\n      0x00\n        /* \"#utility.yul\":19890:19896   */\n      dup3\n        /* \"#utility.yul\":19886:19900   */\n      add\n        /* \"#utility.yul\":19879:19928   */\n      mstore\n        /* \"#utility.yul\":19762:19935   */\n      pop\n      jump\t// out\n        /* \"#utility.yul\":19941:20307   */\n    tag_256:\n        /* \"#utility.yul\":20083:20086   */\n      0x00\n        /* \"#utility.yul\":20104:20171   */\n      tag_451\n        /* \"#utility.yul\":20168:20170   */\n      0x17\n        /* \"#utility.yul\":20163:20166   */\n      dup4\n        /* \"#utility.yul\":20104:20171   */\n      tag_206\n      jump\t// in\n    tag_451:\n        /* \"#utility.yul\":20097:20171   */\n      swap2\n      pop\n        /* \"#utility.yul\":20180:20273   */\n      tag_452\n        /* \"#utility.yul\":20269:20272   */\n      dup3\n        /* \"#utility.yul\":20180:20273   */\n      tag_255\n      jump\t// in\n    tag_452:\n        /* \"#utility.yul\":20298:20300   */\n      0x20\n        /* \"#utility.yul\":20293:20296   */\n      dup3\n        /* \"#utility.yul\":20289:20301   */\n      add\n        /* \"#utility.yul\":20282:20301   */\n      swap1\n      pop\n        /* \"#utility.yul\":19941:20307   */\n      swap2\n      swap1\n      pop\n      jump\t// out\n        /* \"#utility.yul\":20313:20732   */\n    tag_149:\n        /* \"#utility.yul\":20479:20483   */\n      0x00\n        /* \"#utility.yul\":20517:20519   */\n      0x20\n        /* \"#utility.yul\":20506:20515   */\n      dup3\n        /* \"#utility.yul\":20502:20520   */\n      add\n        /* \"#utility.yul\":20494:20520   */\n      swap1\n      pop\n        /* \"#utility.yul\":20566:20575   */\n      dup2\n        /* \"#utility.yul\":20560:20564   */\n      dup2\n        /* \"#utility.yul\":20556:20576   */\n      sub\n        /* \"#utility.yul\":20552:20553   */\n      0x00\n        /* \"#utility.yul\":20541:20550   */\n      dup4\n        /* \"#utility.yul\":20537:20554   */\n      add\n        /* \"#utility.yul\":20530:20577   */\n      mstore\n        /* \"#utility.yul\":20594:20725   */\n      tag_454\n        /* \"#utility.yul\":20720:20724   */\n      dup2\n        /* \"#utility.yul\":20594:20725   */\n      tag_256\n      jump\t// in\n    tag_454:\n        /* \"#utility.yul\":20586:20725   */\n      swap1\n      pop\n        /* \"#utility.yul\":20313:20732   */\n      swap2\n      swap1\n      pop\n      jump\t// out\n        /* \"#utility.yul\":20738:20904   */\n    tag_257:\n        /* \"#utility.yul\":20878:20896   */\n      0x4c656e677468206d69736d617463682100000000000000000000000000000000\n        /* \"#utility.yul\":20874:20875   */\n      0x00\n        /* \"#utility.yul\":20866:20872   */\n      dup3\n        /* \"#utility.yul\":20862:20876   */\n      add\n        /* \"#utility.yul\":20855:20897   */\n      mstore\n        /* \"#utility.yul\":20738:20904   */\n      pop\n      jump\t// out\n        /* \"#utility.yul\":20910:21276   */\n    tag_258:\n        /* \"#utility.yul\":21052:21055   */\n      0x00\n        /* \"#utility.yul\":21073:21140   */\n      tag_457\n        /* \"#utility.yul\":21137:21139   */\n      0x10\n        /* \"#utility.yul\":21132:21135   */\n      dup4\n        /* \"#utility.yul\":21073:21140   */\n      tag_206\n      jump\t// in\n    tag_457:\n        /* \"#utility.yul\":21066:21140   */\n      swap2\n      pop\n        /* \"#utility.yul\":21149:21242   */\n      tag_458\n        /* \"#utility.yul\":21238:21241   */\n      dup3\n        /* \"#utility.yul\":21149:21242   */\n      tag_257\n      jump\t// in\n    tag_458:\n        /* \"#utility.yul\":21267:21269   */\n      0x20\n        /* \"#utility.yul\":21262:21265   */\n      dup3\n        /* \"#utility.yul\":21258:21270   */\n      add\n        /* \"#utility.yul\":21251:21270   */\n      swap1\n      pop\n        /* \"#utility.yul\":20910:21276   */\n      swap2\n      swap1\n      pop\n      jump\t// out\n        /* \"#utility.yul\":21282:21701   */\n    tag_155:\n        /* \"#utility.yul\":21448:21452   */\n      0x00\n        /* \"#utility.yul\":21486:21488   */\n      0x20\n        /* \"#utility.yul\":21475:21484   */\n      dup3\n        /* \"#utility.yul\":21471:21489   */\n      add\n        /* \"#utility.yul\":21463:21489   */\n      swap1\n      pop\n        /* \"#utility.yul\":21535:21544   */\n      dup2\n        /* \"#utility.yul\":21529:21533   */\n      dup2\n        /* \"#utility.yul\":21525:21545   */\n      sub\n        /* \"#utility.yul\":21521:21522   */\n      0x00\n        /* \"#utility.yul\":21510:21519   */\n      dup4\n        /* \"#utility.yul\":21506:21523   */\n      add\n        /* \"#utility.yul\":21499:21546   */\n      mstore\n        /* \"#utility.yul\":21563:21694   */\n      tag_460\n        /* \"#utility.yul\":21689:21693   */\n      dup2\n        /* \"#utility.yul\":21563:21694   */\n      tag_258\n      jump\t// in\n    tag_460:\n        /* \"#utility.yul\":21555:21694   */\n      swap1\n      pop\n        /* \"#utility.yul\":21282:21701   */\n      swap2\n      swap1\n      pop\n      jump\t// out\n        /* \"#utility.yul\":21707:21877   */\n    tag_259:\n        /* \"#utility.yul\":21847:21869   */\n      0x546f6f206d616e7920726563697069656e747321000000000000000000000000\n        /* \"#utility.yul\":21843:21844   */\n      0x00\n        /* \"#utility.yul\":21835:21841   */\n      dup3\n        /* \"#utility.yul\":21831:21845   */\n      add\n        /* \"#utility.yul\":21824:21870   */\n      mstore\n        /* \"#utility.yul\":21707:21877   */\n      pop\n      jump\t// out\n        /* \"#utility.yul\":21883:22249   */\n    tag_260:\n        /* \"#utility.yul\":22025:22028   */\n      0x00\n        /* \"#utility.yul\":22046:22113   */\n      tag_463\n        /* \"#utility.yul\":22110:22112   */\n      0x14\n        /* \"#utility.yul\":22105:22108   */\n      dup4\n        /* \"#utility.yul\":22046:22113   */\n      tag_206\n      jump\t// in\n    tag_463:\n        /* \"#utility.yul\":22039:22113   */\n      swap2\n      pop\n        /* \"#utility.yul\":22122:22215   */\n      tag_464\n        /* \"#utility.yul\":22211:22214   */\n      dup3\n        /* \"#utility.yul\":22122:22215   */\n      tag_259\n      jump\t// in\n    tag_464:\n        /* \"#utility.yul\":22240:22242   */\n      0x20\n        /* \"#utility.yul\":22235:22238   */\n      dup3\n        /* \"#utility.yul\":22231:22243   */\n      add\n        /* \"#utility.yul\":22224:22243   */\n      swap1\n      pop\n        /* \"#utility.yul\":21883:22249   */\n      swap2\n      swap1\n      pop\n      jump\t// out\n        /* \"#utility.yul\":22255:22674   */\n    tag_158:\n        /* \"#utility.yul\":22421:22425   */\n      0x00\n        /* \"#utility.yul\":22459:22461   */\n      0x20\n        /* \"#utility.yul\":22448:22457   */\n      dup3\n        /* \"#utility.yul\":22444:22462   */\n      add\n        /* \"#utility.yul\":22436:22462   */\n      swap1\n      pop\n        /* \"#utility.yul\":22508:22517   */\n      dup2\n        /* \"#utility.yul\":22502:22506   */\n      dup2\n        /* \"#utility.yul\":22498:22518   */\n      sub\n        /* \"#utility.yul\":22494:22495   */\n      0x00\n        /* \"#utility.yul\":22483:22492   */\n      dup4\n        /* \"#utility.yul\":22479:22496   */\n      add\n        /* \"#utility.yul\":22472:22519   */\n      mstore\n        /* \"#utility.yul\":22536:22667   */\n      tag_466\n        /* \"#utility.yul\":22662:22666   */\n      dup2\n        /* \"#utility.yul\":22536:22667   */\n      tag_260\n      jump\t// in\n    tag_466:\n        /* \"#utility.yul\":22528:22667   */\n      swap1\n      pop\n        /* \"#utility.yul\":22255:22674   */\n      swap2\n      swap1\n      pop\n      jump\t// out\n        /* \"#utility.yul\":22680:22860   */\n    tag_164:\n        /* \"#utility.yul\":22728:22805   */\n      0x4e487b7100000000000000000000000000000000000000000000000000000000\n        /* \"#utility.yul\":22725:22726   */\n      0x00\n        /* \"#utility.yul\":22718:22806   */\n      mstore\n        /* \"#utility.yul\":22825:22829   */\n      0x32\n        /* \"#utility.yul\":22822:22823   */\n      0x04\n        /* \"#utility.yul\":22815:22830   */\n      mstore\n        /* \"#utility.yul\":22849:22853   */\n      0x24\n        /* \"#utility.yul\":22846:22847   */\n      0x00\n        /* \"#utility.yul\":22839:22854   */\n      revert\n        /* \"#utility.yul\":22866:23048   */\n    tag_261:\n        /* \"#utility.yul\":23006:23040   */\n      0x43616e6e6f74207472616e7366657220746f207a65726f206164647265737321\n        /* \"#utility.yul\":23002:23003   */\n      0x00\n        /* \"#utility.yul\":22994:23000   */\n      dup3\n        /* \"#utility.yul\":22990:23004   */\n      add\n        /* \"#utility.yul\":22983:23041   */\n      mstore\n        /* \"#utility.yul\":22866:23048   */\n      pop\n      jump\t// out\n        /* \"#utility.yul\":23054:23420   */\n    tag_262:\n        /* \"#utility.yul\":23196:23199   */\n      0x00\n        /* \"#utility.yul\":23217:23284   */\n      tag_470\n        /* \"#utility.yul\":23281:23283   */\n      0x20\n        /* \"#utility.yul\":23276:23279   */\n      dup4\n        /* \"#utility.yul\":23217:23284   */\n      tag_206\n      jump\t// in\n    tag_470:\n        /* \"#utility.yul\":23210:23284   */\n      swap2\n      pop\n        /* \"#utility.yul\":23293:23386   */\n      tag_471\n        /* \"#utility.yul\":23382:23385   */\n      dup3\n        /* \"#utility.yul\":23293:23386   */\n      tag_261\n      jump\t// in\n    tag_471:\n        /* \"#utility.yul\":23411:23413   */\n      0x20\n        /* \"#utility.yul\":23406:23409   */\n      dup3\n        /* \"#utility.yul\":23402:23414   */\n      add\n        /* \"#utility.yul\":23395:23414   */\n      swap1\n      pop\n        /* \"#utility.yul\":23054:23420   */\n      swap2\n      swap1\n      pop\n      jump\t// out\n        /* \"#utility.yul\":23426:23845   */\n    tag_175:\n        /* \"#utility.yul\":23592:23596   */\n      0x00\n        /* \"#utility.yul\":23630:23632   */\n      0x20\n        /* \"#utility.yul\":23619:23628   */\n      dup3\n        /* \"#utility.yul\":23615:23633   */\n      add\n        /* \"#utility.yul\":23607:23633   */\n      swap1\n      pop\n        /* \"#utility.yul\":23679:23688   */\n      dup2\n        /* \"#utility.yul\":23673:23677   */\n      dup2\n        /* \"#utility.yul\":23669:23689   */\n      sub\n        /* \"#utility.yul\":23665:23666   */\n      0x00\n        /* \"#utility.yul\":23654:23663   */\n      dup4\n        /* \"#utility.yul\":23650:23667   */\n      add\n        /* \"#utility.yul\":23643:23690   */\n      mstore\n        /* \"#utility.yul\":23707:23838   */\n      tag_473\n        /* \"#utility.yul\":23833:23837   */\n      dup2\n        /* \"#utility.yul\":23707:23838   */\n      tag_262\n      jump\t// in\n    tag_473:\n        /* \"#utility.yul\":23699:23838   */\n      swap1\n      pop\n        /* \"#utility.yul\":23426:23845   */\n      swap2\n      swap1\n      pop\n      jump\t// out\n\n    auxdata: 0xa2646970667358221220c8368a3a9ec9faedc763c71b28bd5cfa828e2e0a2c0bd07a2252cdaf35b57b2b64736f6c63430008220033\n}\n",
				"bytecode": {
					"linkReferences": {},
					"object": "60806040525f600660146101000a81548160ff021916908315150217905550348015610029575f5ffd5b50604051612950380380612950833981810160405281019061004b919061034c565b835f90816100599190610600565b5082600190816100699190610600565b508160025f6101000a81548160ff021916908360ff16021790555081600a610091919061082b565b8161009c9190610875565b6003819055503360065f6101000a81548173ffffffffffffffffffffffffffffffffffffffff021916908373ffffffffffffffffffffffffffffffffffffffff16021790555060035460045f3373ffffffffffffffffffffffffffffffffffffffff1673ffffffffffffffffffffffffffffffffffffffff1681526020019081526020015f20819055503373ffffffffffffffffffffffffffffffffffffffff165f73ffffffffffffffffffffffffffffffffffffffff167fddf252ad1be2c89b69c2b068fc378daa952ba7f163c4a11628f55a4df523b3ef60035460405161018591906108c5565b60405180910390a3505050506108de565b5f604051905090565b5f5ffd5b5f5ffd5b5f5ffd5b5f5ffd5b5f601f19601f8301169050919050565b7f4e487b71000000000000000000000000000000000000000000000000000000005f52604160045260245ffd5b6101f5826101af565b810181811067ffffffffffffffff82111715610214576102136101bf565b5b80604052505050565b5f610226610196565b905061023282826101ec565b919050565b5f67ffffffffffffffff821115610251576102506101bf565b5b61025a826101af565b9050602081019050919050565b8281835e5f83830152505050565b5f61028761028284610237565b61021d565b9050828152602081018484840111156102a3576102a26101ab565b5b6102ae848285610267565b509392505050565b5f82601f8301126102ca576102c96101a7565b5b81516102da848260208601610275565b91505092915050565b5f60ff82169050919050565b6102f8816102e3565b8114610302575f5ffd5b50565b5f81519050610313816102ef565b92915050565b5f819050919050565b61032b81610319565b8114610335575f5ffd5b50565b5f8151905061034681610322565b92915050565b5f5f5f5f608085870312156103645761036361019f565b5b5f85015167ffffffffffffffff811115610381576103806101a3565b5b61038d878288016102b6565b945050602085015167ffffffffffffffff8111156103ae576103ad6101a3565b5b6103ba878288016102b6565b93505060406103cb87828801610305565b92505060606103dc87828801610338565b91505092959194509250565b5f81519050919050565b7f4e487b71000000000000000000000000000000000000000000000000000000005f52602260045260245ffd5b5f600282049050600182168061043657607f821691505b602082108103610449576104486103f2565b5b50919050565b5f819050815f5260205f209050919050565b5f6020601f8301049050919050565b5f82821b905092915050565b5f600883026104ab7fffffffffffffffffffffffffffffffffffffffffffffffffffffffffffffffff82610470565b6104b58683610470565b95508019841693508086168417925050509392505050565b5f819050919050565b5f6104f06104eb6104e684610319565b6104cd565b610319565b9050919050565b5f819050919050565b610509836104d6565b61051d610515826104f7565b84845461047c565b825550505050565b5f5f905090565b610534610525565b61053f818484610500565b505050565b5f5b828110156105655761055a5f82840161052c565b600181019050610546565b505050565b601f8211156105b857828211156105b7576105848161044f565b61058d83610461565b61059685610461565b60208610156105a3575f90505b8083016105b282840382610544565b505050505b5b505050565b5f82821c905092915050565b5f6105d85f19846008026105bd565b1980831691505092915050565b5f6105f083836105c9565b9150826002028217905092915050565b610609826103e8565b67ffffffffffffffff811115610622576106216101bf565b5b61062c825461041f565b61063782828561056a565b5f60209050601f831160018114610668575f8415610656578287015190505b61066085826105e5565b8655506106c7565b601f1984166106768661044f565b5f5b8281101561069d57848901518255600182019150602085019450602081019050610678565b868310156106ba57848901516106b6601f8916826105c9565b8355505b6001600288020188555050505b505050505050565b7f4e487b71000000000000000000000000000000000000000000000000000000005f52601160045260245ffd5b5f8160011c9050919050565b5f5f8291508390505b60018511156107515780860481111561072d5761072c6106cf565b5b600185161561073c5780820291505b808102905061074a856106fc565b9450610711565b94509492505050565b5f826107695760019050610824565b81610776575f9050610824565b816001811461078c5760028114610796576107c5565b6001915050610824565b60ff8411156107a8576107a76106cf565b5b8360020a9150848211156107bf576107be6106cf565b5b50610824565b5060208310610133831016604e8410600b84101617156107fa5782820a9050838111156107f5576107f46106cf565b5b610824565b6108078484846001610708565b9250905081840481111561081e5761081d6106cf565b5b81810290505b9392505050565b5f61083582610319565b9150610840836102e3565b925061086d7fffffffffffffffffffffffffffffffffffffffffffffffffffffffffffffffff848461075a565b905092915050565b5f61087f82610319565b915061088a83610319565b925082820261089881610319565b915082820484148315176108af576108ae6106cf565b5b5092915050565b6108bf81610319565b82525050565b5f6020820190506108d85f8301846108b6565b92915050565b612065806108eb5f395ff3fe608060405234801561000f575f5ffd5b5060043610610109575f3560e01c80635c975abb116100a057806388d695b21161006f57806388d695b21461027f5780638da5cb5b1461029b57806395d89b41146102b9578063a9059cbb146102d7578063dd62ed3e1461030757610109565b80635c975abb1461020957806370a082311461022757806377163c1d146102575780638456cb591461027557610109565b806323b872dd116100dc57806323b872dd14610183578063313ce567146101b357806340c10f19146101d157806342966c68146101ed57610109565b8063046f7da21461010d57806306fdde0314610117578063095ea7b31461013557806318160ddd14610165575b5f5ffd5b610115610337565b005b61011f610431565b60405161012c9190611525565b60405180910390f35b61014f600480360381019061014a91906115e3565b6104bc565b60405161015c919061163b565b60405180910390f35b61016d610617565b60405161017a9190611663565b60405180910390f35b61019d6004803603810190610198919061167c565b61061d565b6040516101aa919061163b565b60405180910390f35b6101bb6109d9565b6040516101c891906116e7565b60405180910390f35b6101eb60048036038101906101e691906115e3565b6109eb565b005b61020760048036038101906102029190611700565b610bbc565b005b610211610d0f565b60405161021e919061163b565b60405180910390f35b610241600480360381019061023c919061172b565b610d22565b60405161024e9190611663565b60405180910390f35b61025f610d37565b60405161026c9190611663565b60405180910390f35b61027d610d3c565b005b61029960048036038101906102949190611956565b610e38565b005b6102a3611190565b6040516102b091906119db565b60405180910390f35b6102c16111b5565b6040516102ce9190611525565b60405180910390f35b6102f160048036038101906102ec91906115e3565b611241565b6040516102fe919061163b565b60405180910390f35b610321600480360381019061031c91906119f4565b611495565b60405161032e9190611663565b60405180910390f35b60065f9054906101000a900473ffffffffffffffffffffffffffffffffffffffff1673ffffffffffffffffffffffffffffffffffffffff163373ffffffffffffffffffffffffffffffffffffffff16146103c6576040517f08c379a00000000000000000000000000000000000000000000000000000000081526004016103bd90611a7c565b60405180910390fd5b600660149054906101000a900460ff16610415576040517f08c379a000000000000000000000000000000000000000000000000000000000815260040161040c90611ae4565b60405180910390fd5b5f600660146101000a81548160ff021916908315150217905550565b5f805461043d90611b2f565b80601f016020809104026020016040519081016040528092919081815260200182805461046990611b2f565b80156104b45780601f1061048b576101008083540402835291602001916104b4565b820191905f5260205f20905b81548152906001019060200180831161049757829003601f168201915b505050505081565b5f5f73ffffffffffffffffffffffffffffffffffffffff168373ffffffffffffffffffffffffffffffffffffffff160361052b576040517f08c379a000000000000000000000000000000000000000000000000000000000815260040161052290611ba9565b60405180910390fd5b8160055f3373ffffffffffffffffffffffffffffffffffffffff1673ffffffffffffffffffffffffffffffffffffffff1681526020019081526020015f205f8573ffffffffffffffffffffffffffffffffffffffff1673ffffffffffffffffffffffffffffffffffffffff1681526020019081526020015f20819055508273ffffffffffffffffffffffffffffffffffffffff163373ffffffffffffffffffffffffffffffffffffffff167f8c5be1e5ebec7d5bd14f71427d1e84f3dd0314c0f7b2291e5b200ac8c7c3b925846040516106059190611663565b60405180910390a36001905092915050565b60035481565b5f5f73ffffffffffffffffffffffffffffffffffffffff168473ffffffffffffffffffffffffffffffffffffffff160361068c576040517f08c379a000000000000000000000000000000000000000000000000000000000815260040161068390611c11565b60405180910390fd5b5f73ffffffffffffffffffffffffffffffffffffffff168373ffffffffffffffffffffffffffffffffffffffff16036106fa576040517f08c379a00000000000000000000000000000000000000000000000000000000081526004016106f190611c79565b60405180910390fd5b8160045f8673ffffffffffffffffffffffffffffffffffffffff1673ffffffffffffffffffffffffffffffffffffffff1681526020019081526020015f2054101561077a576040517f08c379a000000000000000000000000000000000000000000000000000000000815260040161077190611ce1565b60405180910390fd5b8160055f8673ffffffffffffffffffffffffffffffffffffffff1673ffffffffffffffffffffffffffffffffffffffff1681526020019081526020015f205f3373ffffffffffffffffffffffffffffffffffffffff1673ffffffffffffffffffffffffffffffffffffffff1681526020019081526020015f20541015610835576040517f08c379a000000000000000000000000000000000000000000000000000000000815260040161082c90611d49565b60405180910390fd5b8160045f8673ffffffffffffffffffffffffffffffffffffffff1673ffffffffffffffffffffffffffffffffffffffff1681526020019081526020015f205f8282546108819190611d94565b925050819055508160045f8573ffffffffffffffffffffffffffffffffffffffff1673ffffffffffffffffffffffffffffffffffffffff1681526020019081526020015f205f8282546108d49190611dc7565b925050819055508160055f8673ffffffffffffffffffffffffffffffffffffffff1673ffffffffffffffffffffffffffffffffffffffff1681526020019081526020015f205f3373ffffffffffffffffffffffffffffffffffffffff1673ffffffffffffffffffffffffffffffffffffffff1681526020019081526020015f205f8282546109629190611d94565b925050819055508273ffffffffffffffffffffffffffffffffffffffff168473ffffffffffffffffffffffffffffffffffffffff167fddf252ad1be2c89b69c2b068fc378daa952ba7f163c4a11628f55a4df523b3ef846040516109c69190611663565b60405180910390a3600190509392505050565b60025f9054906101000a900460ff1681565b60065f9054906101000a900473ffffffffffffffffffffffffffffffffffffffff1673ffffffffffffffffffffffffffffffffffffffff163373ffffffffffffffffffffffffffffffffffffffff1614610a7a576040517f08c379a0000000000000000000000000000000000000000000000000000000008152600401610a7190611a7c565b60405180910390fd5b5f73ffffffffffffffffffffffffffffffffffffffff168273ffffffffffffffffffffffffffffffffffffffff1603610ae8576040517f08c379a0000000000000000000000000000000000000000000000000000000008152600401610adf90611e44565b60405180910390fd5b8060035f828254610af99190611dc7565b925050819055508060045f8473ffffffffffffffffffffffffffffffffffffffff1673ffffffffffffffffffffffffffffffffffffffff1681526020019081526020015f205f828254610b4c9190611dc7565b925050819055508173ffffffffffffffffffffffffffffffffffffffff165f73ffffffffffffffffffffffffffffffffffffffff167fddf252ad1be2c89b69c2b068fc378daa952ba7f163c4a11628f55a4df523b3ef83604051610bb09190611663565b60405180910390a35050565b8060045f3373ffffffffffffffffffffffffffffffffffffffff1673ffffffffffffffffffffffffffffffffffffffff1681526020019081526020015f20541015610c3c576040517f08c379a0000000000000000000000000000000000000000000000000000000008152600401610c3390611ce1565b60405180910390fd5b8060035f828254610c4d9190611d94565b925050819055508060045f3373ffffffffffffffffffffffffffffffffffffffff1673ffffffffffffffffffffffffffffffffffffffff1681526020019081526020015f205f828254610ca09190611d94565b925050819055505f73ffffffffffffffffffffffffffffffffffffffff163373ffffffffffffffffffffffffffffffffffffffff167fddf252ad1be2c89b69c2b068fc378daa952ba7f163c4a11628f55a4df523b3ef83604051610d049190611663565b60405180910390a350565b600660149054906101000a900460ff1681565b6004602052805f5260405f205f915090505481565b603281565b60065f9054906101000a900473ffffffffffffffffffffffffffffffffffffffff1673ffffffffffffffffffffffffffffffffffffffff163373ffffffffffffffffffffffffffffffffffffffff1614610dcb576040517f08c379a0000000000000000000000000000000000000000000000000000000008152600401610dc290611a7c565b60405180910390fd5b600660149054906101000a900460ff1615610e1b576040517f08c379a0000000000000000000000000000000000000000000000000000000008152600401610e1290611eac565b60405180910390fd5b6001600660146101000a81548160ff021916908315150217905550565b5f8251118015610e49575080518251145b610e88576040517f08c379a0000000000000000000000000000000000000000000000000000000008152600401610e7f90611f14565b60405180910390fd5b603282511115610ecd576040517f08c379a0000000000000000000000000000000000000000000000000000000008152600401610ec490611f7c565b60405180910390fd5b5f5f90505f5f90505b8251811015610f1457828181518110610ef257610ef1611f9a565b5b602002602001015182610f059190611dc7565b91508080600101915050610ed6565b50806003541015610f5a576040517f08c379a0000000000000000000000000000000000000000000000000000000008152600401610f5190611ce1565b60405180910390fd5b5f5f90505b835181101561118a575f73ffffffffffffffffffffffffffffffffffffffff16848281518110610f9257610f91611f9a565b5b602002602001015173ffffffffffffffffffffffffffffffffffffffff1603610ff0576040517f08c379a0000000000000000000000000000000000000000000000000000000008152600401610fe790612011565b60405180910390fd5b82818151811061100357611002611f9a565b5b602002602001015160045f3373ffffffffffffffffffffffffffffffffffffffff1673ffffffffffffffffffffffffffffffffffffffff1681526020019081526020015f205f8282546110569190611d94565b925050819055508281815181106110705761106f611f9a565b5b602002602001015160045f86848151811061108e5761108d611f9a565b5b602002602001015173ffffffffffffffffffffffffffffffffffffffff1673ffffffffffffffffffffffffffffffffffffffff1681526020019081526020015f205f8282546110dd9190611dc7565b925050819055508381815181106110f7576110f6611f9a565b5b602002602001015173ffffffffffffffffffffffffffffffffffffffff163373ffffffffffffffffffffffffffffffffffffffff167fddf252ad1be2c89b69c2b068fc378daa952ba7f163c4a11628f55a4df523b3ef8584815181106111605761115f611f9a565b5b60200260200101516040516111759190611663565b60405180910390a38080600101915050610f5f565b50505050565b60065f9054906101000a900473ffffffffffffffffffffffffffffffffffffffff1681565b600180546111c290611b2f565b80601f01602080910402602001604051908101604052809291908181526020018280546111ee90611b2f565b80156112395780601f1061121057610100808354040283529160200191611239565b820191905f5260205f20905b81548152906001019060200180831161121c57829003601f168201915b505050505081565b5f600660149054906101000a900460ff1615611292576040517f08c379a000000000000000000000000000000000000000000000000000000000815260040161128990611eac565b60405180910390fd5b5f73ffffffffffffffffffffffffffffffffffffffff168373ffffffffffffffffffffffffffffffffffffffff1603611300576040517f08c379a00000000000000000000000000000000000000000000000000000000081526004016112f790612011565b60405180910390fd5b8160045f3373ffffffffffffffffffffffffffffffffffffffff1673ffffffffffffffffffffffffffffffffffffffff1681526020019081526020015f20541015611380576040517f08c379a000000000000000000000000000000000000000000000000000000000815260040161137790611ce1565b60405180910390fd5b8160045f3373ffffffffffffffffffffffffffffffffffffffff1673ffffffffffffffffffffffffffffffffffffffff1681526020019081526020015f205f8282546113cc9190611d94565b925050819055508160045f8573ffffffffffffffffffffffffffffffffffffffff1673ffffffffffffffffffffffffffffffffffffffff1681526020019081526020015f205f82825461141f9190611dc7565b925050819055508273ffffffffffffffffffffffffffffffffffffffff163373ffffffffffffffffffffffffffffffffffffffff167fddf252ad1be2c89b69c2b068fc378daa952ba7f163c4a11628f55a4df523b3ef846040516114839190611663565b60405180910390a36001905092915050565b6005602052815f5260405f20602052805f5260405f205f91509150505481565b5f81519050919050565b5f82825260208201905092915050565b8281835e5f83830152505050565b5f601f19601f8301169050919050565b5f6114f7826114b5565b61150181856114bf565b93506115118185602086016114cf565b61151a816114dd565b840191505092915050565b5f6020820190508181035f83015261153d81846114ed565b905092915050565b5f604051905090565b5f5ffd5b5f5ffd5b5f73ffffffffffffffffffffffffffffffffffffffff82169050919050565b5f61157f82611556565b9050919050565b61158f81611575565b8114611599575f5ffd5b50565b5f813590506115aa81611586565b92915050565b5f819050919050565b6115c2816115b0565b81146115cc575f5ffd5b50565b5f813590506115dd816115b9565b92915050565b5f5f604083850312156115f9576115f861154e565b5b5f6116068582860161159c565b9250506020611617858286016115cf565b9150509250929050565b5f8115159050919050565b61163581611621565b82525050565b5f60208201905061164e5f83018461162c565b92915050565b61165d816115b0565b82525050565b5f6020820190506116765f830184611654565b92915050565b5f5f5f606084860312156116935761169261154e565b5b5f6116a08682870161159c565b93505060206116b18682870161159c565b92505060406116c2868287016115cf565b9150509250925092565b5f60ff82169050919050565b6116e1816116cc565b82525050565b5f6020820190506116fa5f8301846116d8565b92915050565b5f602082840312156117155761171461154e565b5b5f611722848285016115cf565b91505092915050565b5f602082840312156117405761173f61154e565b5b5f61174d8482850161159c565b91505092915050565b5f5ffd5b7f4e487b71000000000000000000000000000000000000000000000000000000005f52604160045260245ffd5b611790826114dd565b810181811067ffffffffffffffff821117156117af576117ae61175a565b5b80604052505050565b5f6117c1611545565b90506117cd8282611787565b919050565b5f67ffffffffffffffff8211156117ec576117eb61175a565b5b602082029050602081019050919050565b5f5ffd5b5f61181361180e846117d2565b6117b8565b90508083825260208201905060208402830185811115611836576118356117fd565b5b835b8181101561185f578061184b888261159c565b845260208401935050602081019050611838565b5050509392505050565b5f82601f83011261187d5761187c611756565b5b813561188d848260208601611801565b91505092915050565b5f67ffffffffffffffff8211156118b0576118af61175a565b5b602082029050602081019050919050565b5f6118d36118ce84611896565b6117b8565b905080838252602082019050602084028301858111156118f6576118f56117fd565b5b835b8181101561191f578061190b88826115cf565b8452602084019350506020810190506118f8565b5050509392505050565b5f82601f83011261193d5761193c611756565b5b813561194d8482602086016118c1565b91505092915050565b5f5f6040838503121561196c5761196b61154e565b5b5f83013567ffffffffffffffff81111561198957611988611552565b5b61199585828601611869565b925050602083013567ffffffffffffffff8111156119b6576119b5611552565b5b6119c285828601611929565b9150509250929050565b6119d581611575565b82525050565b5f6020820190506119ee5f8301846119cc565b92915050565b5f5f60408385031215611a0a57611a0961154e565b5b5f611a178582860161159c565b9250506020611a288582860161159c565b9150509250929050565b7f4f6e6c79206f776e65722063616e2063616c6c210000000000000000000000005f82015250565b5f611a666014836114bf565b9150611a7182611a32565b602082019050919050565b5f6020820190508181035f830152611a9381611a5a565b9050919050565b7f436f6e74726163742069732070617573656421000000000000000000000000005f82015250565b5f611ace6013836114bf565b9150611ad982611a9a565b602082019050919050565b5f6020820190508181035f830152611afb81611ac2565b9050919050565b7f4e487b71000000000000000000000000000000000000000000000000000000005f52602260045260245ffd5b5f6002820490506001821680611b4657607f821691505b602082108103611b5957611b58611b02565b5b50919050565b7f43616e6e6f7420617070726f7665207a65726f206164647265737321000000005f82015250565b5f611b93601c836114bf565b9150611b9e82611b5f565b602082019050919050565b5f6020820190508181035f830152611bc081611b87565b9050919050565b7f46726f6d207a65726f21000000000000000000000000000000000000000000005f82015250565b5f611bfb600a836114bf565b9150611c0682611bc7565b602082019050919050565b5f6020820190508181035f830152611c2881611bef565b9050919050565b7f546f207a65726f210000000000000000000000000000000000000000000000005f82015250565b5f611c636008836114bf565b9150611c6e82611c2f565b602082019050919050565b5f6020820190508181035f830152611c9081611c57565b9050919050565b7f496e73756666696369656e742062616c616e63652100000000000000000000005f82015250565b5f611ccb6015836114bf565b9150611cd682611c97565b602082019050919050565b5f6020820190508181035f830152611cf881611cbf565b9050919050565b7f496e73756666696369656e742062616c616e63653221000000000000000000005f82015250565b5f611d336016836114bf565b9150611d3e82611cff565b602082019050919050565b5f6020820190508181035f830152611d6081611d27565b9050919050565b7f4e487b71000000000000000000000000000000000000000000000000000000005f52601160045260245ffd5b5f611d9e826115b0565b9150611da9836115b0565b9250828203905081811115611dc157611dc0611d67565b5b92915050565b5f611dd1826115b0565b9150611ddc836115b0565b9250828201905080821115611df457611df3611d67565b5b92915050565b7f43616e6e6f74206d696e7420746f207a65726f206164647265737321000000005f82015250565b5f611e2e601c836114bf565b9150611e3982611dfa565b602082019050919050565b5f6020820190508181035f830152611e5b81611e22565b9050919050565b7f436f6e7472616374206973206e6f7420706175736564210000000000000000005f82015250565b5f611e966017836114bf565b9150611ea182611e62565b602082019050919050565b5f6020820190508181035f830152611ec381611e8a565b9050919050565b7f4c656e677468206d69736d6174636821000000000000000000000000000000005f82015250565b5f611efe6010836114bf565b9150611f0982611eca565b602082019050919050565b5f6020820190508181035f830152611f2b81611ef2565b9050919050565b7f546f6f206d616e7920726563697069656e7473210000000000000000000000005f82015250565b5f611f666014836114bf565b9150611f7182611f32565b602082019050919050565b5f6020820190508181035f830152611f9381611f5a565b9050919050565b7f4e487b71000000000000000000000000000000000000000000000000000000005f52603260045260245ffd5b7f43616e6e6f74207472616e7366657220746f207a65726f2061646472657373215f82015250565b5f611ffb6020836114bf565b915061200682611fc7565b602082019050919050565b5f6020820190508181035f83015261202881611fef565b905091905056fea2646970667358221220c8368a3a9ec9faedc763c71b28bd5cfa828e2e0a2c0bd07a2252cdaf35b57b2b64736f6c63430008220033",
					"opcodes": "PUSH1 0x80 PUSH1 0x40 MSTORE PUSH0 PUSH1 0x6 PUSH1 0x14 PUSH2 0x100 EXP DUP2 SLOAD DUP2 PUSH1 0xFF MUL NOT AND SWAP1 DUP4 ISZERO ISZERO MUL OR SWAP1 SSTORE POP CALLVALUE DUP1 ISZERO PUSH2 0x29 JUMPI PUSH0 PUSH0 REVERT JUMPDEST POP PUSH1 0x40 MLOAD PUSH2 0x2950 CODESIZE SUB DUP1 PUSH2 0x2950 DUP4 CODECOPY DUP2 DUP2 ADD PUSH1 0x40 MSTORE DUP2 ADD SWAP1 PUSH2 0x4B SWAP2 SWAP1 PUSH2 0x34C JUMP JUMPDEST DUP4 PUSH0 SWAP1 DUP2 PUSH2 0x59 SWAP2 SWAP1 PUSH2 0x600 JUMP JUMPDEST POP DUP3 PUSH1 0x1 SWAP1 DUP2 PUSH2 0x69 SWAP2 SWAP1 PUSH2 0x600 JUMP JUMPDEST POP DUP2 PUSH1 0x2 PUSH0 PUSH2 0x100 EXP DUP2 SLOAD DUP2 PUSH1 0xFF MUL NOT AND SWAP1 DUP4 PUSH1 0xFF AND MUL OR SWAP1 SSTORE POP DUP2 PUSH1 0xA PUSH2 0x91 SWAP2 SWAP1 PUSH2 0x82B JUMP JUMPDEST DUP2 PUSH2 0x9C SWAP2 SWAP1 PUSH2 0x875 JUMP JUMPDEST PUSH1 0x3 DUP2 SWAP1 SSTORE POP CALLER PUSH1 0x6 PUSH0 PUSH2 0x100 EXP DUP2 SLOAD DUP2 PUSH20 0xFFFFFFFFFFFFFFFFFFFFFFFFFFFFFFFFFFFFFFFF MUL NOT AND SWAP1 DUP4 PUSH20 0xFFFFFFFFFFFFFFFFFFFFFFFFFFFFFFFFFFFFFFFF AND MUL OR SWAP1 SSTORE POP PUSH1 0x3 SLOAD PUSH1 0x4 PUSH0 CALLER PUSH20 0xFFFFFFFFFFFFFFFFFFFFFFFFFFFFFFFFFFFFFFFF AND PUSH20 0xFFFFFFFFFFFFFFFFFFFFFFFFFFFFFFFFFFFFFFFF AND DUP2 MSTORE PUSH1 0x20 ADD SWAP1 DUP2 MSTORE PUSH1 0x20 ADD PUSH0 KECCAK256 DUP2 SWAP1 SSTORE POP CALLER PUSH20 0xFFFFFFFFFFFFFFFFFFFFFFFFFFFFFFFFFFFFFFFF AND PUSH0 PUSH20 0xFFFFFFFFFFFFFFFFFFFFFFFFFFFFFFFFFFFFFFFF AND PUSH32 0xDDF252AD1BE2C89B69C2B068FC378DAA952BA7F163C4A11628F55A4DF523B3EF PUSH1 0x3 SLOAD PUSH1 0x40 MLOAD PUSH2 0x185 SWAP2 SWAP1 PUSH2 0x8C5 JUMP JUMPDEST PUSH1 0x40 MLOAD DUP1 SWAP2 SUB SWAP1 LOG3 POP POP POP POP PUSH2 0x8DE JUMP JUMPDEST PUSH0 PUSH1 0x40 MLOAD SWAP1 POP SWAP1 JUMP JUMPDEST PUSH0 PUSH0 REVERT JUMPDEST PUSH0 PUSH0 REVERT JUMPDEST PUSH0 PUSH0 REVERT JUMPDEST PUSH0 PUSH0 REVERT JUMPDEST PUSH0 PUSH1 0x1F NOT PUSH1 0x1F DUP4 ADD AND SWAP1 POP SWAP2 SWAP1 POP JUMP JUMPDEST PUSH32 0x4E487B7100000000000000000000000000000000000000000000000000000000 PUSH0 MSTORE PUSH1 0x41 PUSH1 0x4 MSTORE PUSH1 0x24 PUSH0 REVERT JUMPDEST PUSH2 0x1F5 DUP3 PUSH2 0x1AF JUMP JUMPDEST DUP2 ADD DUP2 DUP2 LT PUSH8 0xFFFFFFFFFFFFFFFF DUP3 GT OR ISZERO PUSH2 0x214 JUMPI PUSH2 0x213 PUSH2 0x1BF JUMP JUMPDEST JUMPDEST DUP1 PUSH1 0x40 MSTORE POP POP POP JUMP JUMPDEST PUSH0 PUSH2 0x226 PUSH2 0x196 JUMP JUMPDEST SWAP1 POP PUSH2 0x232 DUP3 DUP3 PUSH2 0x1EC JUMP JUMPDEST SWAP2 SWAP1 POP JUMP JUMPDEST PUSH0 PUSH8 0xFFFFFFFFFFFFFFFF DUP3 GT ISZERO PUSH2 0x251 JUMPI PUSH2 0x250 PUSH2 0x1BF JUMP JUMPDEST JUMPDEST PUSH2 0x25A DUP3 PUSH2 0x1AF JUMP JUMPDEST SWAP1 POP PUSH1 0x20 DUP2 ADD SWAP1 POP SWAP2 SWAP1 POP JUMP JUMPDEST DUP3 DUP2 DUP4 MCOPY PUSH0 DUP4 DUP4 ADD MSTORE POP POP POP JUMP JUMPDEST PUSH0 PUSH2 0x287 PUSH2 0x282 DUP5 PUSH2 0x237 JUMP JUMPDEST PUSH2 0x21D JUMP JUMPDEST SWAP1 POP DUP3 DUP2 MSTORE PUSH1 0x20 DUP2 ADD DUP5 DUP5 DUP5 ADD GT ISZERO PUSH2 0x2A3 JUMPI PUSH2 0x2A2 PUSH2 0x1AB JUMP JUMPDEST JUMPDEST PUSH2 0x2AE DUP5 DUP3 DUP6 PUSH2 0x267 JUMP JUMPDEST POP SWAP4 SWAP3 POP POP POP JUMP JUMPDEST PUSH0 DUP3 PUSH1 0x1F DUP4 ADD SLT PUSH2 0x2CA JUMPI PUSH2 0x2C9 PUSH2 0x1A7 JUMP JUMPDEST JUMPDEST DUP2 MLOAD PUSH2 0x2DA DUP5 DUP3 PUSH1 0x20 DUP7 ADD PUSH2 0x275 JUMP JUMPDEST SWAP2 POP POP SWAP3 SWAP2 POP POP JUMP JUMPDEST PUSH0 PUSH1 0xFF DUP3 AND SWAP1 POP SWAP2 SWAP1 POP JUMP JUMPDEST PUSH2 0x2F8 DUP2 PUSH2 0x2E3 JUMP JUMPDEST DUP2 EQ PUSH2 0x302 JUMPI PUSH0 PUSH0 REVERT JUMPDEST POP JUMP JUMPDEST PUSH0 DUP2 MLOAD SWAP1 POP PUSH2 0x313 DUP2 PUSH2 0x2EF JUMP JUMPDEST SWAP3 SWAP2 POP POP JUMP JUMPDEST PUSH0 DUP2 SWAP1 POP SWAP2 SWAP1 POP JUMP JUMPDEST PUSH2 0x32B DUP2 PUSH2 0x319 JUMP JUMPDEST DUP2 EQ PUSH2 0x335 JUMPI PUSH0 PUSH0 REVERT JUMPDEST POP JUMP JUMPDEST PUSH0 DUP2 MLOAD SWAP1 POP PUSH2 0x346 DUP2 PUSH2 0x322 JUMP JUMPDEST SWAP3 SWAP2 POP POP JUMP JUMPDEST PUSH0 PUSH0 PUSH0 PUSH0 PUSH1 0x80 DUP6 DUP8 SUB SLT ISZERO PUSH2 0x364 JUMPI PUSH2 0x363 PUSH2 0x19F JUMP JUMPDEST JUMPDEST PUSH0 DUP6 ADD MLOAD PUSH8 0xFFFFFFFFFFFFFFFF DUP2 GT ISZERO PUSH2 0x381 JUMPI PUSH2 0x380 PUSH2 0x1A3 JUMP JUMPDEST JUMPDEST PUSH2 0x38D DUP8 DUP3 DUP9 ADD PUSH2 0x2B6 JUMP JUMPDEST SWAP5 POP POP PUSH1 0x20 DUP6 ADD MLOAD PUSH8 0xFFFFFFFFFFFFFFFF DUP2 GT ISZERO PUSH2 0x3AE JUMPI PUSH2 0x3AD PUSH2 0x1A3 JUMP JUMPDEST JUMPDEST PUSH2 0x3BA DUP8 DUP3 DUP9 ADD PUSH2 0x2B6 JUMP JUMPDEST SWAP4 POP POP PUSH1 0x40 PUSH2 0x3CB DUP8 DUP3 DUP9 ADD PUSH2 0x305 JUMP JUMPDEST SWAP3 POP POP PUSH1 0x60 PUSH2 0x3DC DUP8 DUP3 DUP9 ADD PUSH2 0x338 JUMP JUMPDEST SWAP2 POP POP SWAP3 SWAP6 SWAP2 SWAP5 POP SWAP3 POP JUMP JUMPDEST PUSH0 DUP2 MLOAD SWAP1 POP SWAP2 SWAP1 POP JUMP JUMPDEST PUSH32 0x4E487B7100000000000000000000000000000000000000000000000000000000 PUSH0 MSTORE PUSH1 0x22 PUSH1 0x4 MSTORE PUSH1 0x24 PUSH0 REVERT JUMPDEST PUSH0 PUSH1 0x2 DUP3 DIV SWAP1 POP PUSH1 0x1 DUP3 AND DUP1 PUSH2 0x436 JUMPI PUSH1 0x7F DUP3 AND SWAP2 POP JUMPDEST PUSH1 0x20 DUP3 LT DUP2 SUB PUSH2 0x449 JUMPI PUSH2 0x448 PUSH2 0x3F2 JUMP JUMPDEST JUMPDEST POP SWAP2 SWAP1 POP JUMP JUMPDEST PUSH0 DUP2 SWAP1 POP DUP2 PUSH0 MSTORE PUSH1 0x20 PUSH0 KECCAK256 SWAP1 POP SWAP2 SWAP1 POP JUMP JUMPDEST PUSH0 PUSH1 0x20 PUSH1 0x1F DUP4 ADD DIV SWAP1 POP SWAP2 SWAP1 POP JUMP JUMPDEST PUSH0 DUP3 DUP3 SHL SWAP1 POP SWAP3 SWAP2 POP POP JUMP JUMPDEST PUSH0 PUSH1 0x8 DUP4 MUL PUSH2 0x4AB PUSH32 0xFFFFFFFFFFFFFFFFFFFFFFFFFFFFFFFFFFFFFFFFFFFFFFFFFFFFFFFFFFFFFFFF DUP3 PUSH2 0x470 JUMP JUMPDEST PUSH2 0x4B5 DUP7 DUP4 PUSH2 0x470 JUMP JUMPDEST SWAP6 POP DUP1 NOT DUP5 AND SWAP4 POP DUP1 DUP7 AND DUP5 OR SWAP3 POP POP POP SWAP4 SWAP3 POP POP POP JUMP JUMPDEST PUSH0 DUP2 SWAP1 POP SWAP2 SWAP1 POP JUMP JUMPDEST PUSH0 PUSH2 0x4F0 PUSH2 0x4EB PUSH2 0x4E6 DUP5 PUSH2 0x319 JUMP JUMPDEST PUSH2 0x4CD JUMP JUMPDEST PUSH2 0x319 JUMP JUMPDEST SWAP1 POP SWAP2 SWAP1 POP JUMP JUMPDEST PUSH0 DUP2 SWAP1 POP SWAP2 SWAP1 POP JUMP JUMPDEST PUSH2 0x509 DUP4 PUSH2 0x4D6 JUMP JUMPDEST PUSH2 0x51D PUSH2 0x515 DUP3 PUSH2 0x4F7 JUMP JUMPDEST DUP5 DUP5 SLOAD PUSH2 0x47C JUMP JUMPDEST DUP3 SSTORE POP POP POP POP JUMP JUMPDEST PUSH0 PUSH0 SWAP1 POP SWAP1 JUMP JUMPDEST PUSH2 0x534 PUSH2 0x525 JUMP JUMPDEST PUSH2 0x53F DUP2 DUP5 DUP5 PUSH2 0x500 JUMP JUMPDEST POP POP POP JUMP JUMPDEST PUSH0 JUMPDEST DUP3 DUP2 LT ISZERO PUSH2 0x565 JUMPI PUSH2 0x55A PUSH0 DUP3 DUP5 ADD PUSH2 0x52C JUMP JUMPDEST PUSH1 0x1 DUP2 ADD SWAP1 POP PUSH2 0x546 JUMP JUMPDEST POP POP POP JUMP JUMPDEST PUSH1 0x1F DUP3 GT ISZERO PUSH2 0x5B8 JUMPI DUP3 DUP3 GT ISZERO PUSH2 0x5B7 JUMPI PUSH2 0x584 DUP2 PUSH2 0x44F JUMP JUMPDEST PUSH2 0x58D DUP4 PUSH2 0x461 JUMP JUMPDEST PUSH2 0x596 DUP6 PUSH2 0x461 JUMP JUMPDEST PUSH1 0x20 DUP7 LT ISZERO PUSH2 0x5A3 JUMPI PUSH0 SWAP1 POP JUMPDEST DUP1 DUP4 ADD PUSH2 0x5B2 DUP3 DUP5 SUB DUP3 PUSH2 0x544 JUMP JUMPDEST POP POP POP POP JUMPDEST JUMPDEST POP POP POP JUMP JUMPDEST PUSH0 DUP3 DUP3 SHR SWAP1 POP SWAP3 SWAP2 POP POP JUMP JUMPDEST PUSH0 PUSH2 0x5D8 PUSH0 NOT DUP5 PUSH1 0x8 MUL PUSH2 0x5BD JUMP JUMPDEST NOT DUP1 DUP4 AND SWAP2 POP POP SWAP3 SWAP2 POP POP JUMP JUMPDEST PUSH0 PUSH2 0x5F0 DUP4 DUP4 PUSH2 0x5C9 JUMP JUMPDEST SWAP2 POP DUP3 PUSH1 0x2 MUL DUP3 OR SWAP1 POP SWAP3 SWAP2 POP POP JUMP JUMPDEST PUSH2 0x609 DUP3 PUSH2 0x3E8 JUMP JUMPDEST PUSH8 0xFFFFFFFFFFFFFFFF DUP2 GT ISZERO PUSH2 0x622 JUMPI PUSH2 0x621 PUSH2 0x1BF JUMP JUMPDEST JUMPDEST PUSH2 0x62C DUP3 SLOAD PUSH2 0x41F JUMP JUMPDEST PUSH2 0x637 DUP3 DUP3 DUP6 PUSH2 0x56A JUMP JUMPDEST PUSH0 PUSH1 0x20 SWAP1 POP PUSH1 0x1F DUP4 GT PUSH1 0x1 DUP2 EQ PUSH2 0x668 JUMPI PUSH0 DUP5 ISZERO PUSH2 0x656 JUMPI DUP3 DUP8 ADD MLOAD SWAP1 POP JUMPDEST PUSH2 0x660 DUP6 DUP3 PUSH2 0x5E5 JUMP JUMPDEST DUP7 SSTORE POP PUSH2 0x6C7 JUMP JUMPDEST PUSH1 0x1F NOT DUP5 AND PUSH2 0x676 DUP7 PUSH2 0x44F JUMP JUMPDEST PUSH0 JUMPDEST DUP3 DUP2 LT ISZERO PUSH2 0x69D JUMPI DUP5 DUP10 ADD MLOAD DUP3 SSTORE PUSH1 0x1 DUP3 ADD SWAP2 POP PUSH1 0x20 DUP6 ADD SWAP5 POP PUSH1 0x20 DUP2 ADD SWAP1 POP PUSH2 0x678 JUMP JUMPDEST DUP7 DUP4 LT ISZERO PUSH2 0x6BA JUMPI DUP5 DUP10 ADD MLOAD PUSH2 0x6B6 PUSH1 0x1F DUP10 AND DUP3 PUSH2 0x5C9 JUMP JUMPDEST DUP4 SSTORE POP JUMPDEST PUSH1 0x1 PUSH1 0x2 DUP9 MUL ADD DUP9 SSTORE POP POP POP JUMPDEST POP POP POP POP POP POP JUMP JUMPDEST PUSH32 0x4E487B7100000000000000000000000000000000000000000000000000000000 PUSH0 MSTORE PUSH1 0x11 PUSH1 0x4 MSTORE PUSH1 0x24 PUSH0 REVERT JUMPDEST PUSH0 DUP2 PUSH1 0x1 SHR SWAP1 POP SWAP2 SWAP1 POP JUMP JUMPDEST PUSH0 PUSH0 DUP3 SWAP2 POP DUP4 SWAP1 POP JUMPDEST PUSH1 0x1 DUP6 GT ISZERO PUSH2 0x751 JUMPI DUP1 DUP7 DIV DUP2 GT ISZERO PUSH2 0x72D JUMPI PUSH2 0x72C PUSH2 0x6CF JUMP JUMPDEST JUMPDEST PUSH1 0x1 DUP6 AND ISZERO PUSH2 0x73C JUMPI DUP1 DUP3 MUL SWAP2 POP JUMPDEST DUP1 DUP2 MUL SWAP1 POP PUSH2 0x74A DUP6 PUSH2 0x6FC JUMP JUMPDEST SWAP5 POP PUSH2 0x711 JUMP JUMPDEST SWAP5 POP SWAP5 SWAP3 POP POP POP JUMP JUMPDEST PUSH0 DUP3 PUSH2 0x769 JUMPI PUSH1 0x1 SWAP1 POP PUSH2 0x824 JUMP JUMPDEST DUP2 PUSH2 0x776 JUMPI PUSH0 SWAP1 POP PUSH2 0x824 JUMP JUMPDEST DUP2 PUSH1 0x1 DUP2 EQ PUSH2 0x78C JUMPI PUSH1 0x2 DUP2 EQ PUSH2 0x796 JUMPI PUSH2 0x7C5 JUMP JUMPDEST PUSH1 0x1 SWAP2 POP POP PUSH2 0x824 JUMP JUMPDEST PUSH1 0xFF DUP5 GT ISZERO PUSH2 0x7A8 JUMPI PUSH2 0x7A7 PUSH2 0x6CF JUMP JUMPDEST JUMPDEST DUP4 PUSH1 0x2 EXP SWAP2 POP DUP5 DUP3 GT ISZERO PUSH2 0x7BF JUMPI PUSH2 0x7BE PUSH2 0x6CF JUMP JUMPDEST JUMPDEST POP PUSH2 0x824 JUMP JUMPDEST POP PUSH1 0x20 DUP4 LT PUSH2 0x133 DUP4 LT AND PUSH1 0x4E DUP5 LT PUSH1 0xB DUP5 LT AND OR ISZERO PUSH2 0x7FA JUMPI DUP3 DUP3 EXP SWAP1 POP DUP4 DUP2 GT ISZERO PUSH2 0x7F5 JUMPI PUSH2 0x7F4 PUSH2 0x6CF JUMP JUMPDEST JUMPDEST PUSH2 0x824 JUMP JUMPDEST PUSH2 0x807 DUP5 DUP5 DUP5 PUSH1 0x1 PUSH2 0x708 JUMP JUMPDEST SWAP3 POP SWAP1 POP DUP2 DUP5 DIV DUP2 GT ISZERO PUSH2 0x81E JUMPI PUSH2 0x81D PUSH2 0x6CF JUMP JUMPDEST JUMPDEST DUP2 DUP2 MUL SWAP1 POP JUMPDEST SWAP4 SWAP3 POP POP POP JUMP JUMPDEST PUSH0 PUSH2 0x835 DUP3 PUSH2 0x319 JUMP JUMPDEST SWAP2 POP PUSH2 0x840 DUP4 PUSH2 0x2E3 JUMP JUMPDEST SWAP3 POP PUSH2 0x86D PUSH32 0xFFFFFFFFFFFFFFFFFFFFFFFFFFFFFFFFFFFFFFFFFFFFFFFFFFFFFFFFFFFFFFFF DUP5 DUP5 PUSH2 0x75A JUMP JUMPDEST SWAP1 POP SWAP3 SWAP2 POP POP JUMP JUMPDEST PUSH0 PUSH2 0x87F DUP3 PUSH2 0x319 JUMP JUMPDEST SWAP2 POP PUSH2 0x88A DUP4 PUSH2 0x319 JUMP JUMPDEST SWAP3 POP DUP3 DUP3 MUL PUSH2 0x898 DUP2 PUSH2 0x319 JUMP JUMPDEST SWAP2 POP DUP3 DUP3 DIV DUP5 EQ DUP4 ISZERO OR PUSH2 0x8AF JUMPI PUSH2 0x8AE PUSH2 0x6CF JUMP JUMPDEST JUMPDEST POP SWAP3 SWAP2 POP POP JUMP JUMPDEST PUSH2 0x8BF DUP2 PUSH2 0x319 JUMP JUMPDEST DUP3 MSTORE POP POP JUMP JUMPDEST PUSH0 PUSH1 0x20 DUP3 ADD SWAP1 POP PUSH2 0x8D8 PUSH0 DUP4 ADD DUP5 PUSH2 0x8B6 JUMP JUMPDEST SWAP3 SWAP2 POP POP JUMP JUMPDEST PUSH2 0x2065 DUP1 PUSH2 0x8EB PUSH0 CODECOPY PUSH0 RETURN INVALID PUSH1 0x80 PUSH1 0x40 MSTORE CALLVALUE DUP1 ISZERO PUSH2 0xF JUMPI PUSH0 PUSH0 REVERT JUMPDEST POP PUSH1 0x4 CALLDATASIZE LT PUSH2 0x109 JUMPI PUSH0 CALLDATALOAD PUSH1 0xE0 SHR DUP1 PUSH4 0x5C975ABB GT PUSH2 0xA0 JUMPI DUP1 PUSH4 0x88D695B2 GT PUSH2 0x6F JUMPI DUP1 PUSH4 0x88D695B2 EQ PUSH2 0x27F JUMPI DUP1 PUSH4 0x8DA5CB5B EQ PUSH2 0x29B JUMPI DUP1 PUSH4 0x95D89B41 EQ PUSH2 0x2B9 JUMPI DUP1 PUSH4 0xA9059CBB EQ PUSH2 0x2D7 JUMPI DUP1 PUSH4 0xDD62ED3E EQ PUSH2 0x307 JUMPI PUSH2 0x109 JUMP JUMPDEST DUP1 PUSH4 0x5C975ABB EQ PUSH2 0x209 JUMPI DUP1 PUSH4 0x70A08231 EQ PUSH2 0x227 JUMPI DUP1 PUSH4 0x77163C1D EQ PUSH2 0x257 JUMPI DUP1 PUSH4 0x8456CB59 EQ PUSH2 0x275 JUMPI PUSH2 0x109 JUMP JUMPDEST DUP1 PUSH4 0x23B872DD GT PUSH2 0xDC JUMPI DUP1 PUSH4 0x23B872DD EQ PUSH2 0x183 JUMPI DUP1 PUSH4 0x313CE567 EQ PUSH2 0x1B3 JUMPI DUP1 PUSH4 0x40C10F19 EQ PUSH2 0x1D1 JUMPI DUP1 PUSH4 0x42966C68 EQ PUSH2 0x1ED JUMPI PUSH2 0x109 JUMP JUMPDEST DUP1 PUSH4 0x46F7DA2 EQ PUSH2 0x10D JUMPI DUP1 PUSH4 0x6FDDE03 EQ PUSH2 0x117 JUMPI DUP1 PUSH4 0x95EA7B3 EQ PUSH2 0x135 JUMPI DUP1 PUSH4 0x18160DDD EQ PUSH2 0x165 JUMPI JUMPDEST PUSH0 PUSH0 REVERT JUMPDEST PUSH2 0x115 PUSH2 0x337 JUMP JUMPDEST STOP JUMPDEST PUSH2 0x11F PUSH2 0x431 JUMP JUMPDEST PUSH1 0x40 MLOAD PUSH2 0x12C SWAP2 SWAP1 PUSH2 0x1525 JUMP JUMPDEST PUSH1 0x40 MLOAD DUP1 SWAP2 SUB SWAP1 RETURN JUMPDEST PUSH2 0x14F PUSH1 0x4 DUP1 CALLDATASIZE SUB DUP2 ADD SWAP1 PUSH2 0x14A SWAP2 SWAP1 PUSH2 0x15E3 JUMP JUMPDEST PUSH2 0x4BC JUMP JUMPDEST PUSH1 0x40 MLOAD PUSH2 0x15C SWAP2 SWAP1 PUSH2 0x163B JUMP JUMPDEST PUSH1 0x40 MLOAD DUP1 SWAP2 SUB SWAP1 RETURN JUMPDEST PUSH2 0x16D PUSH2 0x617 JUMP JUMPDEST PUSH1 0x40 MLOAD PUSH2 0x17A SWAP2 SWAP1 PUSH2 0x1663 JUMP JUMPDEST PUSH1 0x40 MLOAD DUP1 SWAP2 SUB SWAP1 RETURN JUMPDEST PUSH2 0x19D PUSH1 0x4 DUP1 CALLDATASIZE SUB DUP2 ADD SWAP1 PUSH2 0x198 SWAP2 SWAP1 PUSH2 0x167C JUMP JUMPDEST PUSH2 0x61D JUMP JUMPDEST PUSH1 0x40 MLOAD PUSH2 0x1AA SWAP2 SWAP1 PUSH2 0x163B JUMP JUMPDEST PUSH1 0x40 MLOAD DUP1 SWAP2 SUB SWAP1 RETURN JUMPDEST PUSH2 0x1BB PUSH2 0x9D9 JUMP JUMPDEST PUSH1 0x40 MLOAD PUSH2 0x1C8 SWAP2 SWAP1 PUSH2 0x16E7 JUMP JUMPDEST PUSH1 0x40 MLOAD DUP1 SWAP2 SUB SWAP1 RETURN JUMPDEST PUSH2 0x1EB PUSH1 0x4 DUP1 CALLDATASIZE SUB DUP2 ADD SWAP1 PUSH2 0x1E6 SWAP2 SWAP1 PUSH2 0x15E3 JUMP JUMPDEST PUSH2 0x9EB JUMP JUMPDEST STOP JUMPDEST PUSH2 0x207 PUSH1 0x4 DUP1 CALLDATASIZE SUB DUP2 ADD SWAP1 PUSH2 0x202 SWAP2 SWAP1 PUSH2 0x1700 JUMP JUMPDEST PUSH2 0xBBC JUMP JUMPDEST STOP JUMPDEST PUSH2 0x211 PUSH2 0xD0F JUMP JUMPDEST PUSH1 0x40 MLOAD PUSH2 0x21E SWAP2 SWAP1 PUSH2 0x163B JUMP JUMPDEST PUSH1 0x40 MLOAD DUP1 SWAP2 SUB SWAP1 RETURN JUMPDEST PUSH2 0x241 PUSH1 0x4 DUP1 CALLDATASIZE SUB DUP2 ADD SWAP1 PUSH2 0x23C SWAP2 SWAP1 PUSH2 0x172B JUMP JUMPDEST PUSH2 0xD22 JUMP JUMPDEST PUSH1 0x40 MLOAD PUSH2 0x24E SWAP2 SWAP1 PUSH2 0x1663 JUMP JUMPDEST PUSH1 0x40 MLOAD DUP1 SWAP2 SUB SWAP1 RETURN JUMPDEST PUSH2 0x25F PUSH2 0xD37 JUMP JUMPDEST PUSH1 0x40 MLOAD PUSH2 0x26C SWAP2 SWAP1 PUSH2 0x1663 JUMP JUMPDEST PUSH1 0x40 MLOAD DUP1 SWAP2 SUB SWAP1 RETURN JUMPDEST PUSH2 0x27D PUSH2 0xD3C JUMP JUMPDEST STOP JUMPDEST PUSH2 0x299 PUSH1 0x4 DUP1 CALLDATASIZE SUB DUP2 ADD SWAP1 PUSH2 0x294 SWAP2 SWAP1 PUSH2 0x1956 JUMP JUMPDEST PUSH2 0xE38 JUMP JUMPDEST STOP JUMPDEST PUSH2 0x2A3 PUSH2 0x1190 JUMP JUMPDEST PUSH1 0x40 MLOAD PUSH2 0x2B0 SWAP2 SWAP1 PUSH2 0x19DB JUMP JUMPDEST PUSH1 0x40 MLOAD DUP1 SWAP2 SUB SWAP1 RETURN JUMPDEST PUSH2 0x2C1 PUSH2 0x11B5 JUMP JUMPDEST PUSH1 0x40 MLOAD PUSH2 0x2CE SWAP2 SWAP1 PUSH2 0x1525 JUMP JUMPDEST PUSH1 0x40 MLOAD DUP1 SWAP2 SUB SWAP1 RETURN JUMPDEST PUSH2 0x2F1 PUSH1 0x4 DUP1 CALLDATASIZE SUB DUP2 ADD SWAP1 PUSH2 0x2EC SWAP2 SWAP1 PUSH2 0x15E3 JUMP JUMPDEST PUSH2 0x1241 JUMP JUMPDEST PUSH1 0x40 MLOAD PUSH2 0x2FE SWAP2 SWAP1 PUSH2 0x163B JUMP JUMPDEST PUSH1 0x40 MLOAD DUP1 SWAP2 SUB SWAP1 RETURN JUMPDEST PUSH2 0x321 PUSH1 0x4 DUP1 CALLDATASIZE SUB DUP2 ADD SWAP1 PUSH2 0x31C SWAP2 SWAP1 PUSH2 0x19F4 JUMP JUMPDEST PUSH2 0x1495 JUMP JUMPDEST PUSH1 0x40 MLOAD PUSH2 0x32E SWAP2 SWAP1 PUSH2 0x1663 JUMP JUMPDEST PUSH1 0x40 MLOAD DUP1 SWAP2 SUB SWAP1 RETURN JUMPDEST PUSH1 0x6 PUSH0 SWAP1 SLOAD SWAP1 PUSH2 0x100 EXP SWAP1 DIV PUSH20 0xFFFFFFFFFFFFFFFFFFFFFFFFFFFFFFFFFFFFFFFF AND PUSH20 0xFFFFFFFFFFFFFFFFFFFFFFFFFFFFFFFFFFFFFFFF AND CALLER PUSH20 0xFFFFFFFFFFFFFFFFFFFFFFFFFFFFFFFFFFFFFFFF AND EQ PUSH2 0x3C6 JUMPI PUSH1 0x40 MLOAD PUSH32 0x8C379A000000000000000000000000000000000000000000000000000000000 DUP2 MSTORE PUSH1 0x4 ADD PUSH2 0x3BD SWAP1 PUSH2 0x1A7C JUMP JUMPDEST PUSH1 0x40 MLOAD DUP1 SWAP2 SUB SWAP1 REVERT JUMPDEST PUSH1 0x6 PUSH1 0x14 SWAP1 SLOAD SWAP1 PUSH2 0x100 EXP SWAP1 DIV PUSH1 0xFF AND PUSH2 0x415 JUMPI PUSH1 0x40 MLOAD PUSH32 0x8C379A000000000000000000000000000000000000000000000000000000000 DUP2 MSTORE PUSH1 0x4 ADD PUSH2 0x40C SWAP1 PUSH2 0x1AE4 JUMP JUMPDEST PUSH1 0x40 MLOAD DUP1 SWAP2 SUB SWAP1 REVERT JUMPDEST PUSH0 PUSH1 0x6 PUSH1 0x14 PUSH2 0x100 EXP DUP2 SLOAD DUP2 PUSH1 0xFF MUL NOT AND SWAP1 DUP4 ISZERO ISZERO MUL OR SWAP1 SSTORE POP JUMP JUMPDEST PUSH0 DUP1 SLOAD PUSH2 0x43D SWAP1 PUSH2 0x1B2F JUMP JUMPDEST DUP1 PUSH1 0x1F ADD PUSH1 0x20 DUP1 SWAP2 DIV MUL PUSH1 0x20 ADD PUSH1 0x40 MLOAD SWAP1 DUP2 ADD PUSH1 0x40 MSTORE DUP1 SWAP3 SWAP2 SWAP1 DUP2 DUP2 MSTORE PUSH1 0x20 ADD DUP3 DUP1 SLOAD PUSH2 0x469 SWAP1 PUSH2 0x1B2F JUMP JUMPDEST DUP1 ISZERO PUSH2 0x4B4 JUMPI DUP1 PUSH1 0x1F LT PUSH2 0x48B JUMPI PUSH2 0x100 DUP1 DUP4 SLOAD DIV MUL DUP4 MSTORE SWAP2 PUSH1 0x20 ADD SWAP2 PUSH2 0x4B4 JUMP JUMPDEST DUP3 ADD SWAP2 SWAP1 PUSH0 MSTORE PUSH1 0x20 PUSH0 KECCAK256 SWAP1 JUMPDEST DUP2 SLOAD DUP2 MSTORE SWAP1 PUSH1 0x1 ADD SWAP1 PUSH1 0x20 ADD DUP1 DUP4 GT PUSH2 0x497 JUMPI DUP3 SWAP1 SUB PUSH1 0x1F AND DUP3 ADD SWAP2 JUMPDEST POP POP POP POP POP DUP2 JUMP JUMPDEST PUSH0 PUSH0 PUSH20 0xFFFFFFFFFFFFFFFFFFFFFFFFFFFFFFFFFFFFFFFF AND DUP4 PUSH20 0xFFFFFFFFFFFFFFFFFFFFFFFFFFFFFFFFFFFFFFFF AND SUB PUSH2 0x52B JUMPI PUSH1 0x40 MLOAD PUSH32 0x8C379A000000000000000000000000000000000000000000000000000000000 DUP2 MSTORE PUSH1 0x4 ADD PUSH2 0x522 SWAP1 PUSH2 0x1BA9 JUMP JUMPDEST PUSH1 0x40 MLOAD DUP1 SWAP2 SUB SWAP1 REVERT JUMPDEST DUP2 PUSH1 0x5 PUSH0 CALLER PUSH20 0xFFFFFFFFFFFFFFFFFFFFFFFFFFFFFFFFFFFFFFFF AND PUSH20 0xFFFFFFFFFFFFFFFFFFFFFFFFFFFFFFFFFFFFFFFF AND DUP2 MSTORE PUSH1 0x20 ADD SWAP1 DUP2 MSTORE PUSH1 0x20 ADD PUSH0 KECCAK256 PUSH0 DUP6 PUSH20 0xFFFFFFFFFFFFFFFFFFFFFFFFFFFFFFFFFFFFFFFF AND PUSH20 0xFFFFFFFFFFFFFFFFFFFFFFFFFFFFFFFFFFFFFFFF AND DUP2 MSTORE PUSH1 0x20 ADD SWAP1 DUP2 MSTORE PUSH1 0x20 ADD PUSH0 KECCAK256 DUP2 SWAP1 SSTORE POP DUP3 PUSH20 0xFFFFFFFFFFFFFFFFFFFFFFFFFFFFFFFFFFFFFFFF AND CALLER PUSH20 0xFFFFFFFFFFFFFFFFFFFFFFFFFFFFFFFFFFFFFFFF AND PUSH32 0x8C5BE1E5EBEC7D5BD14F71427D1E84F3DD0314C0F7B2291E5B200AC8C7C3B925 DUP5 PUSH1 0x40 MLOAD PUSH2 0x605 SWAP2 SWAP1 PUSH2 0x1663 JUMP JUMPDEST PUSH1 0x40 MLOAD DUP1 SWAP2 SUB SWAP1 LOG3 PUSH1 0x1 SWAP1 POP SWAP3 SWAP2 POP POP JUMP JUMPDEST PUSH1 0x3 SLOAD DUP2 JUMP JUMPDEST PUSH0 PUSH0 PUSH20 0xFFFFFFFFFFFFFFFFFFFFFFFFFFFFFFFFFFFFFFFF AND DUP5 PUSH20 0xFFFFFFFFFFFFFFFFFFFFFFFFFFFFFFFFFFFFFFFF AND SUB PUSH2 0x68C JUMPI PUSH1 0x40 MLOAD PUSH32 0x8C379A000000000000000000000000000000000000000000000000000000000 DUP2 MSTORE PUSH1 0x4 ADD PUSH2 0x683 SWAP1 PUSH2 0x1C11 JUMP JUMPDEST PUSH1 0x40 MLOAD DUP1 SWAP2 SUB SWAP1 REVERT JUMPDEST PUSH0 PUSH20 0xFFFFFFFFFFFFFFFFFFFFFFFFFFFFFFFFFFFFFFFF AND DUP4 PUSH20 0xFFFFFFFFFFFFFFFFFFFFFFFFFFFFFFFFFFFFFFFF AND SUB PUSH2 0x6FA JUMPI PUSH1 0x40 MLOAD PUSH32 0x8C379A000000000000000000000000000000000000000000000000000000000 DUP2 MSTORE PUSH1 0x4 ADD PUSH2 0x6F1 SWAP1 PUSH2 0x1C79 JUMP JUMPDEST PUSH1 0x40 MLOAD DUP1 SWAP2 SUB SWAP1 REVERT JUMPDEST DUP2 PUSH1 0x4 PUSH0 DUP7 PUSH20 0xFFFFFFFFFFFFFFFFFFFFFFFFFFFFFFFFFFFFFFFF AND PUSH20 0xFFFFFFFFFFFFFFFFFFFFFFFFFFFFFFFFFFFFFFFF AND DUP2 MSTORE PUSH1 0x20 ADD SWAP1 DUP2 MSTORE PUSH1 0x20 ADD PUSH0 KECCAK256 SLOAD LT ISZERO PUSH2 0x77A JUMPI PUSH1 0x40 MLOAD PUSH32 0x8C379A000000000000000000000000000000000000000000000000000000000 DUP2 MSTORE PUSH1 0x4 ADD PUSH2 0x771 SWAP1 PUSH2 0x1CE1 JUMP JUMPDEST PUSH1 0x40 MLOAD DUP1 SWAP2 SUB SWAP1 REVERT JUMPDEST DUP2 PUSH1 0x5 PUSH0 DUP7 PUSH20 0xFFFFFFFFFFFFFFFFFFFFFFFFFFFFFFFFFFFFFFFF AND PUSH20 0xFFFFFFFFFFFFFFFFFFFFFFFFFFFFFFFFFFFFFFFF AND DUP2 MSTORE PUSH1 0x20 ADD SWAP1 DUP2 MSTORE PUSH1 0x20 ADD PUSH0 KECCAK256 PUSH0 CALLER PUSH20 0xFFFFFFFFFFFFFFFFFFFFFFFFFFFFFFFFFFFFFFFF AND PUSH20 0xFFFFFFFFFFFFFFFFFFFFFFFFFFFFFFFFFFFFFFFF AND DUP2 MSTORE PUSH1 0x20 ADD SWAP1 DUP2 MSTORE PUSH1 0x20 ADD PUSH0 KECCAK256 SLOAD LT ISZERO PUSH2 0x835 JUMPI PUSH1 0x40 MLOAD PUSH32 0x8C379A000000000000000000000000000000000000000000000000000000000 DUP2 MSTORE PUSH1 0x4 ADD PUSH2 0x82C SWAP1 PUSH2 0x1D49 JUMP JUMPDEST PUSH1 0x40 MLOAD DUP1 SWAP2 SUB SWAP1 REVERT JUMPDEST DUP2 PUSH1 0x4 PUSH0 DUP7 PUSH20 0xFFFFFFFFFFFFFFFFFFFFFFFFFFFFFFFFFFFFFFFF AND PUSH20 0xFFFFFFFFFFFFFFFFFFFFFFFFFFFFFFFFFFFFFFFF AND DUP2 MSTORE PUSH1 0x20 ADD SWAP1 DUP2 MSTORE PUSH1 0x20 ADD PUSH0 KECCAK256 PUSH0 DUP3 DUP3 SLOAD PUSH2 0x881 SWAP2 SWAP1 PUSH2 0x1D94 JUMP JUMPDEST SWAP3 POP POP DUP2 SWAP1 SSTORE POP DUP2 PUSH1 0x4 PUSH0 DUP6 PUSH20 0xFFFFFFFFFFFFFFFFFFFFFFFFFFFFFFFFFFFFFFFF AND PUSH20 0xFFFFFFFFFFFFFFFFFFFFFFFFFFFFFFFFFFFFFFFF AND DUP2 MSTORE PUSH1 0x20 ADD SWAP1 DUP2 MSTORE PUSH1 0x20 ADD PUSH0 KECCAK256 PUSH0 DUP3 DUP3 SLOAD PUSH2 0x8D4 SWAP2 SWAP1 PUSH2 0x1DC7 JUMP JUMPDEST SWAP3 POP POP DUP2 SWAP1 SSTORE POP DUP2 PUSH1 0x5 PUSH0 DUP7 PUSH20 0xFFFFFFFFFFFFFFFFFFFFFFFFFFFFFFFFFFFFFFFF AND PUSH20 0xFFFFFFFFFFFFFFFFFFFFFFFFFFFFFFFFFFFFFFFF AND DUP2 MSTORE PUSH1 0x20 ADD SWAP1 DUP2 MSTORE PUSH1 0x20 ADD PUSH0 KECCAK256 PUSH0 CALLER PUSH20 0xFFFFFFFFFFFFFFFFFFFFFFFFFFFFFFFFFFFFFFFF AND PUSH20 0xFFFFFFFFFFFFFFFFFFFFFFFFFFFFFFFFFFFFFFFF AND DUP2 MSTORE PUSH1 0x20 ADD SWAP1 DUP2 MSTORE PUSH1 0x20 ADD PUSH0 KECCAK256 PUSH0 DUP3 DUP3 SLOAD PUSH2 0x962 SWAP2 SWAP1 PUSH2 0x1D94 JUMP JUMPDEST SWAP3 POP POP DUP2 SWAP1 SSTORE POP DUP3 PUSH20 0xFFFFFFFFFFFFFFFFFFFFFFFFFFFFFFFFFFFFFFFF AND DUP5 PUSH20 0xFFFFFFFFFFFFFFFFFFFFFFFFFFFFFFFFFFFFFFFF AND PUSH32 0xDDF252AD1BE2C89B69C2B068FC378DAA952BA7F163C4A11628F55A4DF523B3EF DUP5 PUSH1 0x40 MLOAD PUSH2 0x9C6 SWAP2 SWAP1 PUSH2 0x1663 JUMP JUMPDEST PUSH1 0x40 MLOAD DUP1 SWAP2 SUB SWAP1 LOG3 PUSH1 0x1 SWAP1 POP SWAP4 SWAP3 POP POP POP JUMP JUMPDEST PUSH1 0x2 PUSH0 SWAP1 SLOAD SWAP1 PUSH2 0x100 EXP SWAP1 DIV PUSH1 0xFF AND DUP2 JUMP JUMPDEST PUSH1 0x6 PUSH0 SWAP1 SLOAD SWAP1 PUSH2 0x100 EXP SWAP1 DIV PUSH20 0xFFFFFFFFFFFFFFFFFFFFFFFFFFFFFFFFFFFFFFFF AND PUSH20 0xFFFFFFFFFFFFFFFFFFFFFFFFFFFFFFFFFFFFFFFF AND CALLER PUSH20 0xFFFFFFFFFFFFFFFFFFFFFFFFFFFFFFFFFFFFFFFF AND EQ PUSH2 0xA7A JUMPI PUSH1 0x40 MLOAD PUSH32 0x8C379A000000000000000000000000000000000000000000000000000000000 DUP2 MSTORE PUSH1 0x4 ADD PUSH2 0xA71 SWAP1 PUSH2 0x1A7C JUMP JUMPDEST PUSH1 0x40 MLOAD DUP1 SWAP2 SUB SWAP1 REVERT JUMPDEST PUSH0 PUSH20 0xFFFFFFFFFFFFFFFFFFFFFFFFFFFFFFFFFFFFFFFF AND DUP3 PUSH20 0xFFFFFFFFFFFFFFFFFFFFFFFFFFFFFFFFFFFFFFFF AND SUB PUSH2 0xAE8 JUMPI PUSH1 0x40 MLOAD PUSH32 0x8C379A000000000000000000000000000000000000000000000000000000000 DUP2 MSTORE PUSH1 0x4 ADD PUSH2 0xADF SWAP1 PUSH2 0x1E44 JUMP JUMPDEST PUSH1 0x40 MLOAD DUP1 SWAP2 SUB SWAP1 REVERT JUMPDEST DUP1 PUSH1 0x3 PUSH0 DUP3 DUP3 SLOAD PUSH2 0xAF9 SWAP2 SWAP1 PUSH2 0x1DC7 JUMP JUMPDEST SWAP3 POP POP DUP2 SWAP1 SSTORE POP DUP1 PUSH1 0x4 PUSH0 DUP5 PUSH20 0xFFFFFFFFFFFFFFFFFFFFFFFFFFFFFFFFFFFFFFFF AND PUSH20 0xFFFFFFFFFFFFFFFFFFFFFFFFFFFFFFFFFFFFFFFF AND DUP2 MSTORE PUSH1 0x20 ADD SWAP1 DUP2 MSTORE PUSH1 0x20 ADD PUSH0 KECCAK256 PUSH0 DUP3 DUP3 SLOAD PUSH2 0xB4C SWAP2 SWAP1 PUSH2 0x1DC7 JUMP JUMPDEST SWAP3 POP POP DUP2 SWAP1 SSTORE POP DUP2 PUSH20 0xFFFFFFFFFFFFFFFFFFFFFFFFFFFFFFFFFFFFFFFF AND PUSH0 PUSH20 0xFFFFFFFFFFFFFFFFFFFFFFFFFFFFFFFFFFFFFFFF AND PUSH32 0xDDF252AD1BE2C89B69C2B068FC378DAA952BA7F163C4A11628F55A4DF523B3EF DUP4 PUSH1 0x40 MLOAD PUSH2 0xBB0 SWAP2 SWAP1 PUSH2 0x1663 JUMP JUMPDEST PUSH1 0x40 MLOAD DUP1 SWAP2 SUB SWAP1 LOG3 POP POP JUMP JUMPDEST DUP1 PUSH1 0x4 PUSH0 CALLER PUSH20 0xFFFFFFFFFFFFFFFFFFFFFFFFFFFFFFFFFFFFFFFF AND PUSH20 0xFFFFFFFFFFFFFFFFFFFFFFFFFFFFFFFFFFFFFFFF AND DUP2 MSTORE PUSH1 0x20 ADD SWAP1 DUP2 MSTORE PUSH1 0x20 ADD PUSH0 KECCAK256 SLOAD LT ISZERO PUSH2 0xC3C JUMPI PUSH1 0x40 MLOAD PUSH32 0x8C379A000000000000000000000000000000000000000000000000000000000 DUP2 MSTORE PUSH1 0x4 ADD PUSH2 0xC33 SWAP1 PUSH2 0x1CE1 JUMP JUMPDEST PUSH1 0x40 MLOAD DUP1 SWAP2 SUB SWAP1 REVERT JUMPDEST DUP1 PUSH1 0x3 PUSH0 DUP3 DUP3 SLOAD PUSH2 0xC4D SWAP2 SWAP1 PUSH2 0x1D94 JUMP JUMPDEST SWAP3 POP POP DUP2 SWAP1 SSTORE POP DUP1 PUSH1 0x4 PUSH0 CALLER PUSH20 0xFFFFFFFFFFFFFFFFFFFFFFFFFFFFFFFFFFFFFFFF AND PUSH20 0xFFFFFFFFFFFFFFFFFFFFFFFFFFFFFFFFFFFFFFFF AND DUP2 MSTORE PUSH1 0x20 ADD SWAP1 DUP2 MSTORE PUSH1 0x20 ADD PUSH0 KECCAK256 PUSH0 DUP3 DUP3 SLOAD PUSH2 0xCA0 SWAP2 SWAP1 PUSH2 0x1D94 JUMP JUMPDEST SWAP3 POP POP DUP2 SWAP1 SSTORE POP PUSH0 PUSH20 0xFFFFFFFFFFFFFFFFFFFFFFFFFFFFFFFFFFFFFFFF AND CALLER PUSH20 0xFFFFFFFFFFFFFFFFFFFFFFFFFFFFFFFFFFFFFFFF AND PUSH32 0xDDF252AD1BE2C89B69C2B068FC378DAA952BA7F163C4A11628F55A4DF523B3EF DUP4 PUSH1 0x40 MLOAD PUSH2 0xD04 SWAP2 SWAP1 PUSH2 0x1663 JUMP JUMPDEST PUSH1 0x40 MLOAD DUP1 SWAP2 SUB SWAP1 LOG3 POP JUMP JUMPDEST PUSH1 0x6 PUSH1 0x14 SWAP1 SLOAD SWAP1 PUSH2 0x100 EXP SWAP1 DIV PUSH1 0xFF AND DUP2 JUMP JUMPDEST PUSH1 0x4 PUSH1 0x20 MSTORE DUP1 PUSH0 MSTORE PUSH1 0x40 PUSH0 KECCAK256 PUSH0 SWAP2 POP SWAP1 POP SLOAD DUP2 JUMP JUMPDEST PUSH1 0x32 DUP2 JUMP JUMPDEST PUSH1 0x6 PUSH0 SWAP1 SLOAD SWAP1 PUSH2 0x100 EXP SWAP1 DIV PUSH20 0xFFFFFFFFFFFFFFFFFFFFFFFFFFFFFFFFFFFFFFFF AND PUSH20 0xFFFFFFFFFFFFFFFFFFFFFFFFFFFFFFFFFFFFFFFF AND CALLER PUSH20 0xFFFFFFFFFFFFFFFFFFFFFFFFFFFFFFFFFFFFFFFF AND EQ PUSH2 0xDCB JUMPI PUSH1 0x40 MLOAD PUSH32 0x8C379A000000000000000000000000000000000000000000000000000000000 DUP2 MSTORE PUSH1 0x4 ADD PUSH2 0xDC2 SWAP1 PUSH2 0x1A7C JUMP JUMPDEST PUSH1 0x40 MLOAD DUP1 SWAP2 SUB SWAP1 REVERT JUMPDEST PUSH1 0x6 PUSH1 0x14 SWAP1 SLOAD SWAP1 PUSH2 0x100 EXP SWAP1 DIV PUSH1 0xFF AND ISZERO PUSH2 0xE1B JUMPI PUSH1 0x40 MLOAD PUSH32 0x8C379A000000000000000000000000000000000000000000000000000000000 DUP2 MSTORE PUSH1 0x4 ADD PUSH2 0xE12 SWAP1 PUSH2 0x1EAC JUMP JUMPDEST PUSH1 0x40 MLOAD DUP1 SWAP2 SUB SWAP1 REVERT JUMPDEST PUSH1 0x1 PUSH1 0x6 PUSH1 0x14 PUSH2 0x100 EXP DUP2 SLOAD DUP2 PUSH1 0xFF MUL NOT AND SWAP1 DUP4 ISZERO ISZERO MUL OR SWAP1 SSTORE POP JUMP JUMPDEST PUSH0 DUP3 MLOAD GT DUP1 ISZERO PUSH2 0xE49 JUMPI POP DUP1 MLOAD DUP3 MLOAD EQ JUMPDEST PUSH2 0xE88 JUMPI PUSH1 0x40 MLOAD PUSH32 0x8C379A000000000000000000000000000000000000000000000000000000000 DUP2 MSTORE PUSH1 0x4 ADD PUSH2 0xE7F SWAP1 PUSH2 0x1F14 JUMP JUMPDEST PUSH1 0x40 MLOAD DUP1 SWAP2 SUB SWAP1 REVERT JUMPDEST PUSH1 0x32 DUP3 MLOAD GT ISZERO PUSH2 0xECD JUMPI PUSH1 0x40 MLOAD PUSH32 0x8C379A000000000000000000000000000000000000000000000000000000000 DUP2 MSTORE PUSH1 0x4 ADD PUSH2 0xEC4 SWAP1 PUSH2 0x1F7C JUMP JUMPDEST PUSH1 0x40 MLOAD DUP1 SWAP2 SUB SWAP1 REVERT JUMPDEST PUSH0 PUSH0 SWAP1 POP PUSH0 PUSH0 SWAP1 POP JUMPDEST DUP3 MLOAD DUP2 LT ISZERO PUSH2 0xF14 JUMPI DUP3 DUP2 DUP2 MLOAD DUP2 LT PUSH2 0xEF2 JUMPI PUSH2 0xEF1 PUSH2 0x1F9A JUMP JUMPDEST JUMPDEST PUSH1 0x20 MUL PUSH1 0x20 ADD ADD MLOAD DUP3 PUSH2 0xF05 SWAP2 SWAP1 PUSH2 0x1DC7 JUMP JUMPDEST SWAP2 POP DUP1 DUP1 PUSH1 0x1 ADD SWAP2 POP POP PUSH2 0xED6 JUMP JUMPDEST POP DUP1 PUSH1 0x3 SLOAD LT ISZERO PUSH2 0xF5A JUMPI PUSH1 0x40 MLOAD PUSH32 0x8C379A000000000000000000000000000000000000000000000000000000000 DUP2 MSTORE PUSH1 0x4 ADD PUSH2 0xF51 SWAP1 PUSH2 0x1CE1 JUMP JUMPDEST PUSH1 0x40 MLOAD DUP1 SWAP2 SUB SWAP1 REVERT JUMPDEST PUSH0 PUSH0 SWAP1 POP JUMPDEST DUP4 MLOAD DUP2 LT ISZERO PUSH2 0x118A JUMPI PUSH0 PUSH20 0xFFFFFFFFFFFFFFFFFFFFFFFFFFFFFFFFFFFFFFFF AND DUP5 DUP3 DUP2 MLOAD DUP2 LT PUSH2 0xF92 JUMPI PUSH2 0xF91 PUSH2 0x1F9A JUMP JUMPDEST JUMPDEST PUSH1 0x20 MUL PUSH1 0x20 ADD ADD MLOAD PUSH20 0xFFFFFFFFFFFFFFFFFFFFFFFFFFFFFFFFFFFFFFFF AND SUB PUSH2 0xFF0 JUMPI PUSH1 0x40 MLOAD PUSH32 0x8C379A000000000000000000000000000000000000000000000000000000000 DUP2 MSTORE PUSH1 0x4 ADD PUSH2 0xFE7 SWAP1 PUSH2 0x2011 JUMP JUMPDEST PUSH1 0x40 MLOAD DUP1 SWAP2 SUB SWAP1 REVERT JUMPDEST DUP3 DUP2 DUP2 MLOAD DUP2 LT PUSH2 0x1003 JUMPI PUSH2 0x1002 PUSH2 0x1F9A JUMP JUMPDEST JUMPDEST PUSH1 0x20 MUL PUSH1 0x20 ADD ADD MLOAD PUSH1 0x4 PUSH0 CALLER PUSH20 0xFFFFFFFFFFFFFFFFFFFFFFFFFFFFFFFFFFFFFFFF AND PUSH20 0xFFFFFFFFFFFFFFFFFFFFFFFFFFFFFFFFFFFFFFFF AND DUP2 MSTORE PUSH1 0x20 ADD SWAP1 DUP2 MSTORE PUSH1 0x20 ADD PUSH0 KECCAK256 PUSH0 DUP3 DUP3 SLOAD PUSH2 0x1056 SWAP2 SWAP1 PUSH2 0x1D94 JUMP JUMPDEST SWAP3 POP POP DUP2 SWAP1 SSTORE POP DUP3 DUP2 DUP2 MLOAD DUP2 LT PUSH2 0x1070 JUMPI PUSH2 0x106F PUSH2 0x1F9A JUMP JUMPDEST JUMPDEST PUSH1 0x20 MUL PUSH1 0x20 ADD ADD MLOAD PUSH1 0x4 PUSH0 DUP7 DUP5 DUP2 MLOAD DUP2 LT PUSH2 0x108E JUMPI PUSH2 0x108D PUSH2 0x1F9A JUMP JUMPDEST JUMPDEST PUSH1 0x20 MUL PUSH1 0x20 ADD ADD MLOAD PUSH20 0xFFFFFFFFFFFFFFFFFFFFFFFFFFFFFFFFFFFFFFFF AND PUSH20 0xFFFFFFFFFFFFFFFFFFFFFFFFFFFFFFFFFFFFFFFF AND DUP2 MSTORE PUSH1 0x20 ADD SWAP1 DUP2 MSTORE PUSH1 0x20 ADD PUSH0 KECCAK256 PUSH0 DUP3 DUP3 SLOAD PUSH2 0x10DD SWAP2 SWAP1 PUSH2 0x1DC7 JUMP JUMPDEST SWAP3 POP POP DUP2 SWAP1 SSTORE POP DUP4 DUP2 DUP2 MLOAD DUP2 LT PUSH2 0x10F7 JUMPI PUSH2 0x10F6 PUSH2 0x1F9A JUMP JUMPDEST JUMPDEST PUSH1 0x20 MUL PUSH1 0x20 ADD ADD MLOAD PUSH20 0xFFFFFFFFFFFFFFFFFFFFFFFFFFFFFFFFFFFFFFFF AND CALLER PUSH20 0xFFFFFFFFFFFFFFFFFFFFFFFFFFFFFFFFFFFFFFFF AND PUSH32 0xDDF252AD1BE2C89B69C2B068FC378DAA952BA7F163C4A11628F55A4DF523B3EF DUP6 DUP5 DUP2 MLOAD DUP2 LT PUSH2 0x1160 JUMPI PUSH2 0x115F PUSH2 0x1F9A JUMP JUMPDEST JUMPDEST PUSH1 0x20 MUL PUSH1 0x20 ADD ADD MLOAD PUSH1 0x40 MLOAD PUSH2 0x1175 SWAP2 SWAP1 PUSH2 0x1663 JUMP JUMPDEST PUSH1 0x40 MLOAD DUP1 SWAP2 SUB SWAP1 LOG3 DUP1 DUP1 PUSH1 0x1 ADD SWAP2 POP POP PUSH2 0xF5F JUMP JUMPDEST POP POP POP POP JUMP JUMPDEST PUSH1 0x6 PUSH0 SWAP1 SLOAD SWAP1 PUSH2 0x100 EXP SWAP1 DIV PUSH20 0xFFFFFFFFFFFFFFFFFFFFFFFFFFFFFFFFFFFFFFFF AND DUP2 JUMP JUMPDEST PUSH1 0x1 DUP1 SLOAD PUSH2 0x11C2 SWAP1 PUSH2 0x1B2F JUMP JUMPDEST DUP1 PUSH1 0x1F ADD PUSH1 0x20 DUP1 SWAP2 DIV MUL PUSH1 0x20 ADD PUSH1 0x40 MLOAD SWAP1 DUP2 ADD PUSH1 0x40 MSTORE DUP1 SWAP3 SWAP2 SWAP1 DUP2 DUP2 MSTORE PUSH1 0x20 ADD DUP3 DUP1 SLOAD PUSH2 0x11EE SWAP1 PUSH2 0x1B2F JUMP JUMPDEST DUP1 ISZERO PUSH2 0x1239 JUMPI DUP1 PUSH1 0x1F LT PUSH2 0x1210 JUMPI PUSH2 0x100 DUP1 DUP4 SLOAD DIV MUL DUP4 MSTORE SWAP2 PUSH1 0x20 ADD SWAP2 PUSH2 0x1239 JUMP JUMPDEST DUP3 ADD SWAP2 SWAP1 PUSH0 MSTORE PUSH1 0x20 PUSH0 KECCAK256 SWAP1 JUMPDEST DUP2 SLOAD DUP2 MSTORE SWAP1 PUSH1 0x1 ADD SWAP1 PUSH1 0x20 ADD DUP1 DUP4 GT PUSH2 0x121C JUMPI DUP3 SWAP1 SUB PUSH1 0x1F AND DUP3 ADD SWAP2 JUMPDEST POP POP POP POP POP DUP2 JUMP JUMPDEST PUSH0 PUSH1 0x6 PUSH1 0x14 SWAP1 SLOAD SWAP1 PUSH2 0x100 EXP SWAP1 DIV PUSH1 0xFF AND ISZERO PUSH2 0x1292 JUMPI PUSH1 0x40 MLOAD PUSH32 0x8C379A000000000000000000000000000000000000000000000000000000000 DUP2 MSTORE PUSH1 0x4 ADD PUSH2 0x1289 SWAP1 PUSH2 0x1EAC JUMP JUMPDEST PUSH1 0x40 MLOAD DUP1 SWAP2 SUB SWAP1 REVERT JUMPDEST PUSH0 PUSH20 0xFFFFFFFFFFFFFFFFFFFFFFFFFFFFFFFFFFFFFFFF AND DUP4 PUSH20 0xFFFFFFFFFFFFFFFFFFFFFFFFFFFFFFFFFFFFFFFF AND SUB PUSH2 0x1300 JUMPI PUSH1 0x40 MLOAD PUSH32 0x8C379A000000000000000000000000000000000000000000000000000000000 DUP2 MSTORE PUSH1 0x4 ADD PUSH2 0x12F7 SWAP1 PUSH2 0x2011 JUMP JUMPDEST PUSH1 0x40 MLOAD DUP1 SWAP2 SUB SWAP1 REVERT JUMPDEST DUP2 PUSH1 0x4 PUSH0 CALLER PUSH20 0xFFFFFFFFFFFFFFFFFFFFFFFFFFFFFFFFFFFFFFFF AND PUSH20 0xFFFFFFFFFFFFFFFFFFFFFFFFFFFFFFFFFFFFFFFF AND DUP2 MSTORE PUSH1 0x20 ADD SWAP1 DUP2 MSTORE PUSH1 0x20 ADD PUSH0 KECCAK256 SLOAD LT ISZERO PUSH2 0x1380 JUMPI PUSH1 0x40 MLOAD PUSH32 0x8C379A000000000000000000000000000000000000000000000000000000000 DUP2 MSTORE PUSH1 0x4 ADD PUSH2 0x1377 SWAP1 PUSH2 0x1CE1 JUMP JUMPDEST PUSH1 0x40 MLOAD DUP1 SWAP2 SUB SWAP1 REVERT JUMPDEST DUP2 PUSH1 0x4 PUSH0 CALLER PUSH20 0xFFFFFFFFFFFFFFFFFFFFFFFFFFFFFFFFFFFFFFFF AND PUSH20 0xFFFFFFFFFFFFFFFFFFFFFFFFFFFFFFFFFFFFFFFF AND DUP2 MSTORE PUSH1 0x20 ADD SWAP1 DUP2 MSTORE PUSH1 0x20 ADD PUSH0 KECCAK256 PUSH0 DUP3 DUP3 SLOAD PUSH2 0x13CC SWAP2 SWAP1 PUSH2 0x1D94 JUMP JUMPDEST SWAP3 POP POP DUP2 SWAP1 SSTORE POP DUP2 PUSH1 0x4 PUSH0 DUP6 PUSH20 0xFFFFFFFFFFFFFFFFFFFFFFFFFFFFFFFFFFFFFFFF AND PUSH20 0xFFFFFFFFFFFFFFFFFFFFFFFFFFFFFFFFFFFFFFFF AND DUP2 MSTORE PUSH1 0x20 ADD SWAP1 DUP2 MSTORE PUSH1 0x20 ADD PUSH0 KECCAK256 PUSH0 DUP3 DUP3 SLOAD PUSH2 0x141F SWAP2 SWAP1 PUSH2 0x1DC7 JUMP JUMPDEST SWAP3 POP POP DUP2 SWAP1 SSTORE POP DUP3 PUSH20 0xFFFFFFFFFFFFFFFFFFFFFFFFFFFFFFFFFFFFFFFF AND CALLER PUSH20 0xFFFFFFFFFFFFFFFFFFFFFFFFFFFFFFFFFFFFFFFF AND PUSH32 0xDDF252AD1BE2C89B69C2B068FC378DAA952BA7F163C4A11628F55A4DF523B3EF DUP5 PUSH1 0x40 MLOAD PUSH2 0x1483 SWAP2 SWAP1 PUSH2 0x1663 JUMP JUMPDEST PUSH1 0x40 MLOAD DUP1 SWAP2 SUB SWAP1 LOG3 PUSH1 0x1 SWAP1 POP SWAP3 SWAP2 POP POP JUMP JUMPDEST PUSH1 0x5 PUSH1 0x20 MSTORE DUP2 PUSH0 MSTORE PUSH1 0x40 PUSH0 KECCAK256 PUSH1 0x20 MSTORE DUP1 PUSH0 MSTORE PUSH1 0x40 PUSH0 KECCAK256 PUSH0 SWAP2 POP SWAP2 POP POP SLOAD DUP2 JUMP JUMPDEST PUSH0 DUP2 MLOAD SWAP1 POP SWAP2 SWAP1 POP JUMP JUMPDEST PUSH0 DUP3 DUP3 MSTORE PUSH1 0x20 DUP3 ADD SWAP1 POP SWAP3 SWAP2 POP POP JUMP JUMPDEST DUP3 DUP2 DUP4 MCOPY PUSH0 DUP4 DUP4 ADD MSTORE POP POP POP JUMP JUMPDEST PUSH0 PUSH1 0x1F NOT PUSH1 0x1F DUP4 ADD AND SWAP1 POP SWAP2 SWAP1 POP JUMP JUMPDEST PUSH0 PUSH2 0x14F7 DUP3 PUSH2 0x14B5 JUMP JUMPDEST PUSH2 0x1501 DUP2 DUP6 PUSH2 0x14BF JUMP JUMPDEST SWAP4 POP PUSH2 0x1511 DUP2 DUP6 PUSH1 0x20 DUP7 ADD PUSH2 0x14CF JUMP JUMPDEST PUSH2 0x151A DUP2 PUSH2 0x14DD JUMP JUMPDEST DUP5 ADD SWAP2 POP POP SWAP3 SWAP2 POP POP JUMP JUMPDEST PUSH0 PUSH1 0x20 DUP3 ADD SWAP1 POP DUP2 DUP2 SUB PUSH0 DUP4 ADD MSTORE PUSH2 0x153D DUP2 DUP5 PUSH2 0x14ED JUMP JUMPDEST SWAP1 POP SWAP3 SWAP2 POP POP JUMP JUMPDEST PUSH0 PUSH1 0x40 MLOAD SWAP1 POP SWAP1 JUMP JUMPDEST PUSH0 PUSH0 REVERT JUMPDEST PUSH0 PUSH0 REVERT JUMPDEST PUSH0 PUSH20 0xFFFFFFFFFFFFFFFFFFFFFFFFFFFFFFFFFFFFFFFF DUP3 AND SWAP1 POP SWAP2 SWAP1 POP JUMP JUMPDEST PUSH0 PUSH2 0x157F DUP3 PUSH2 0x1556 JUMP JUMPDEST SWAP1 POP SWAP2 SWAP1 POP JUMP JUMPDEST PUSH2 0x158F DUP2 PUSH2 0x1575 JUMP JUMPDEST DUP2 EQ PUSH2 0x1599 JUMPI PUSH0 PUSH0 REVERT JUMPDEST POP JUMP JUMPDEST PUSH0 DUP2 CALLDATALOAD SWAP1 POP PUSH2 0x15AA DUP2 PUSH2 0x1586 JUMP JUMPDEST SWAP3 SWAP2 POP POP JUMP JUMPDEST PUSH0 DUP2 SWAP1 POP SWAP2 SWAP1 POP JUMP JUMPDEST PUSH2 0x15C2 DUP2 PUSH2 0x15B0 JUMP JUMPDEST DUP2 EQ PUSH2 0x15CC JUMPI PUSH0 PUSH0 REVERT JUMPDEST POP JUMP JUMPDEST PUSH0 DUP2 CALLDATALOAD SWAP1 POP PUSH2 0x15DD DUP2 PUSH2 0x15B9 JUMP JUMPDEST SWAP3 SWAP2 POP POP JUMP JUMPDEST PUSH0 PUSH0 PUSH1 0x40 DUP4 DUP6 SUB SLT ISZERO PUSH2 0x15F9 JUMPI PUSH2 0x15F8 PUSH2 0x154E JUMP JUMPDEST JUMPDEST PUSH0 PUSH2 0x1606 DUP6 DUP3 DUP7 ADD PUSH2 0x159C JUMP JUMPDEST SWAP3 POP POP PUSH1 0x20 PUSH2 0x1617 DUP6 DUP3 DUP7 ADD PUSH2 0x15CF JUMP JUMPDEST SWAP2 POP POP SWAP3 POP SWAP3 SWAP1 POP JUMP JUMPDEST PUSH0 DUP2 ISZERO ISZERO SWAP1 POP SWAP2 SWAP1 POP JUMP JUMPDEST PUSH2 0x1635 DUP2 PUSH2 0x1621 JUMP JUMPDEST DUP3 MSTORE POP POP JUMP JUMPDEST PUSH0 PUSH1 0x20 DUP3 ADD SWAP1 POP PUSH2 0x164E PUSH0 DUP4 ADD DUP5 PUSH2 0x162C JUMP JUMPDEST SWAP3 SWAP2 POP POP JUMP JUMPDEST PUSH2 0x165D DUP2 PUSH2 0x15B0 JUMP JUMPDEST DUP3 MSTORE POP POP JUMP JUMPDEST PUSH0 PUSH1 0x20 DUP3 ADD SWAP1 POP PUSH2 0x1676 PUSH0 DUP4 ADD DUP5 PUSH2 0x1654 JUMP JUMPDEST SWAP3 SWAP2 POP POP JUMP JUMPDEST PUSH0 PUSH0 PUSH0 PUSH1 0x60 DUP5 DUP7 SUB SLT ISZERO PUSH2 0x1693 JUMPI PUSH2 0x1692 PUSH2 0x154E JUMP JUMPDEST JUMPDEST PUSH0 PUSH2 0x16A0 DUP7 DUP3 DUP8 ADD PUSH2 0x159C JUMP JUMPDEST SWAP4 POP POP PUSH1 0x20 PUSH2 0x16B1 DUP7 DUP3 DUP8 ADD PUSH2 0x159C JUMP JUMPDEST SWAP3 POP POP PUSH1 0x40 PUSH2 0x16C2 DUP7 DUP3 DUP8 ADD PUSH2 0x15CF JUMP JUMPDEST SWAP2 POP POP SWAP3 POP SWAP3 POP SWAP3 JUMP JUMPDEST PUSH0 PUSH1 0xFF DUP3 AND SWAP1 POP SWAP2 SWAP1 POP JUMP JUMPDEST PUSH2 0x16E1 DUP2 PUSH2 0x16CC JUMP JUMPDEST DUP3 MSTORE POP POP JUMP JUMPDEST PUSH0 PUSH1 0x20 DUP3 ADD SWAP1 POP PUSH2 0x16FA PUSH0 DUP4 ADD DUP5 PUSH2 0x16D8 JUMP JUMPDEST SWAP3 SWAP2 POP POP JUMP JUMPDEST PUSH0 PUSH1 0x20 DUP3 DUP5 SUB SLT ISZERO PUSH2 0x1715 JUMPI PUSH2 0x1714 PUSH2 0x154E JUMP JUMPDEST JUMPDEST PUSH0 PUSH2 0x1722 DUP5 DUP3 DUP6 ADD PUSH2 0x15CF JUMP JUMPDEST SWAP2 POP POP SWAP3 SWAP2 POP POP JUMP JUMPDEST PUSH0 PUSH1 0x20 DUP3 DUP5 SUB SLT ISZERO PUSH2 0x1740 JUMPI PUSH2 0x173F PUSH2 0x154E JUMP JUMPDEST JUMPDEST PUSH0 PUSH2 0x174D DUP5 DUP3 DUP6 ADD PUSH2 0x159C JUMP JUMPDEST SWAP2 POP POP SWAP3 SWAP2 POP POP JUMP JUMPDEST PUSH0 PUSH0 REVERT JUMPDEST PUSH32 0x4E487B7100000000000000000000000000000000000000000000000000000000 PUSH0 MSTORE PUSH1 0x41 PUSH1 0x4 MSTORE PUSH1 0x24 PUSH0 REVERT JUMPDEST PUSH2 0x1790 DUP3 PUSH2 0x14DD JUMP JUMPDEST DUP2 ADD DUP2 DUP2 LT PUSH8 0xFFFFFFFFFFFFFFFF DUP3 GT OR ISZERO PUSH2 0x17AF JUMPI PUSH2 0x17AE PUSH2 0x175A JUMP JUMPDEST JUMPDEST DUP1 PUSH1 0x40 MSTORE POP POP POP JUMP JUMPDEST PUSH0 PUSH2 0x17C1 PUSH2 0x1545 JUMP JUMPDEST SWAP1 POP PUSH2 0x17CD DUP3 DUP3 PUSH2 0x1787 JUMP JUMPDEST SWAP2 SWAP1 POP JUMP JUMPDEST PUSH0 PUSH8 0xFFFFFFFFFFFFFFFF DUP3 GT ISZERO PUSH2 0x17EC JUMPI PUSH2 0x17EB PUSH2 0x175A JUMP JUMPDEST JUMPDEST PUSH1 0x20 DUP3 MUL SWAP1 POP PUSH1 0x20 DUP2 ADD SWAP1 POP SWAP2 SWAP1 POP JUMP JUMPDEST PUSH0 PUSH0 REVERT JUMPDEST PUSH0 PUSH2 0x1813 PUSH2 0x180E DUP5 PUSH2 0x17D2 JUMP JUMPDEST PUSH2 0x17B8 JUMP JUMPDEST SWAP1 POP DUP1 DUP4 DUP3 MSTORE PUSH1 0x20 DUP3 ADD SWAP1 POP PUSH1 0x20 DUP5 MUL DUP4 ADD DUP6 DUP2 GT ISZERO PUSH2 0x1836 JUMPI PUSH2 0x1835 PUSH2 0x17FD JUMP JUMPDEST JUMPDEST DUP4 JUMPDEST DUP2 DUP2 LT ISZERO PUSH2 0x185F JUMPI DUP1 PUSH2 0x184B DUP9 DUP3 PUSH2 0x159C JUMP JUMPDEST DUP5 MSTORE PUSH1 0x20 DUP5 ADD SWAP4 POP POP PUSH1 0x20 DUP2 ADD SWAP1 POP PUSH2 0x1838 JUMP JUMPDEST POP POP POP SWAP4 SWAP3 POP POP POP JUMP JUMPDEST PUSH0 DUP3 PUSH1 0x1F DUP4 ADD SLT PUSH2 0x187D JUMPI PUSH2 0x187C PUSH2 0x1756 JUMP JUMPDEST JUMPDEST DUP2 CALLDATALOAD PUSH2 0x188D DUP5 DUP3 PUSH1 0x20 DUP7 ADD PUSH2 0x1801 JUMP JUMPDEST SWAP2 POP POP SWAP3 SWAP2 POP POP JUMP JUMPDEST PUSH0 PUSH8 0xFFFFFFFFFFFFFFFF DUP3 GT ISZERO PUSH2 0x18B0 JUMPI PUSH2 0x18AF PUSH2 0x175A JUMP JUMPDEST JUMPDEST PUSH1 0x20 DUP3 MUL SWAP1 POP PUSH1 0x20 DUP2 ADD SWAP1 POP SWAP2 SWAP1 POP JUMP JUMPDEST PUSH0 PUSH2 0x18D3 PUSH2 0x18CE DUP5 PUSH2 0x1896 JUMP JUMPDEST PUSH2 0x17B8 JUMP JUMPDEST SWAP1 POP DUP1 DUP4 DUP3 MSTORE PUSH1 0x20 DUP3 ADD SWAP1 POP PUSH1 0x20 DUP5 MUL DUP4 ADD DUP6 DUP2 GT ISZERO PUSH2 0x18F6 JUMPI PUSH2 0x18F5 PUSH2 0x17FD JUMP JUMPDEST JUMPDEST DUP4 JUMPDEST DUP2 DUP2 LT ISZERO PUSH2 0x191F JUMPI DUP1 PUSH2 0x190B DUP9 DUP3 PUSH2 0x15CF JUMP JUMPDEST DUP5 MSTORE PUSH1 0x20 DUP5 ADD SWAP4 POP POP PUSH1 0x20 DUP2 ADD SWAP1 POP PUSH2 0x18F8 JUMP JUMPDEST POP POP POP SWAP4 SWAP3 POP POP POP JUMP JUMPDEST PUSH0 DUP3 PUSH1 0x1F DUP4 ADD SLT PUSH2 0x193D JUMPI PUSH2 0x193C PUSH2 0x1756 JUMP JUMPDEST JUMPDEST DUP2 CALLDATALOAD PUSH2 0x194D DUP5 DUP3 PUSH1 0x20 DUP7 ADD PUSH2 0x18C1 JUMP JUMPDEST SWAP2 POP POP SWAP3 SWAP2 POP POP JUMP JUMPDEST PUSH0 PUSH0 PUSH1 0x40 DUP4 DUP6 SUB SLT ISZERO PUSH2 0x196C JUMPI PUSH2 0x196B PUSH2 0x154E JUMP JUMPDEST JUMPDEST PUSH0 DUP4 ADD CALLDATALOAD PUSH8 0xFFFFFFFFFFFFFFFF DUP2 GT ISZERO PUSH2 0x1989 JUMPI PUSH2 0x1988 PUSH2 0x1552 JUMP JUMPDEST JUMPDEST PUSH2 0x1995 DUP6 DUP3 DUP7 ADD PUSH2 0x1869 JUMP JUMPDEST SWAP3 POP POP PUSH1 0x20 DUP4 ADD CALLDATALOAD PUSH8 0xFFFFFFFFFFFFFFFF DUP2 GT ISZERO PUSH2 0x19B6 JUMPI PUSH2 0x19B5 PUSH2 0x1552 JUMP JUMPDEST JUMPDEST PUSH2 0x19C2 DUP6 DUP3 DUP7 ADD PUSH2 0x1929 JUMP JUMPDEST SWAP2 POP POP SWAP3 POP SWAP3 SWAP1 POP JUMP JUMPDEST PUSH2 0x19D5 DUP2 PUSH2 0x1575 JUMP JUMPDEST DUP3 MSTORE POP POP JUMP JUMPDEST PUSH0 PUSH1 0x20 DUP3 ADD SWAP1 POP PUSH2 0x19EE PUSH0 DUP4 ADD DUP5 PUSH2 0x19CC JUMP JUMPDEST SWAP3 SWAP2 POP POP JUMP JUMPDEST PUSH0 PUSH0 PUSH1 0x40 DUP4 DUP6 SUB SLT ISZERO PUSH2 0x1A0A JUMPI PUSH2 0x1A09 PUSH2 0x154E JUMP JUMPDEST JUMPDEST PUSH0 PUSH2 0x1A17 DUP6 DUP3 DUP7 ADD PUSH2 0x159C JUMP JUMPDEST SWAP3 POP POP PUSH1 0x20 PUSH2 0x1A28 DUP6 DUP3 DUP7 ADD PUSH2 0x159C JUMP JUMPDEST SWAP2 POP POP SWAP3 POP SWAP3 SWAP1 POP JUMP JUMPDEST PUSH32 0x4F6E6C79206F776E65722063616E2063616C6C21000000000000000000000000 PUSH0 DUP3 ADD MSTORE POP JUMP JUMPDEST PUSH0 PUSH2 0x1A66 PUSH1 0x14 DUP4 PUSH2 0x14BF JUMP JUMPDEST SWAP2 POP PUSH2 0x1A71 DUP3 PUSH2 0x1A32 JUMP JUMPDEST PUSH1 0x20 DUP3 ADD SWAP1 POP SWAP2 SWAP1 POP JUMP JUMPDEST PUSH0 PUSH1 0x20 DUP3 ADD SWAP1 POP DUP2 DUP2 SUB PUSH0 DUP4 ADD MSTORE PUSH2 0x1A93 DUP2 PUSH2 0x1A5A JUMP JUMPDEST SWAP1 POP SWAP2 SWAP1 POP JUMP JUMPDEST PUSH32 0x436F6E7472616374206973207061757365642100000000000000000000000000 PUSH0 DUP3 ADD MSTORE POP JUMP JUMPDEST PUSH0 PUSH2 0x1ACE PUSH1 0x13 DUP4 PUSH2 0x14BF JUMP JUMPDEST SWAP2 POP PUSH2 0x1AD9 DUP3 PUSH2 0x1A9A JUMP JUMPDEST PUSH1 0x20 DUP3 ADD SWAP1 POP SWAP2 SWAP1 POP JUMP JUMPDEST PUSH0 PUSH1 0x20 DUP3 ADD SWAP1 POP DUP2 DUP2 SUB PUSH0 DUP4 ADD MSTORE PUSH2 0x1AFB DUP2 PUSH2 0x1AC2 JUMP JUMPDEST SWAP1 POP SWAP2 SWAP1 POP JUMP JUMPDEST PUSH32 0x4E487B7100000000000000000000000000000000000000000000000000000000 PUSH0 MSTORE PUSH1 0x22 PUSH1 0x4 MSTORE PUSH1 0x24 PUSH0 REVERT JUMPDEST PUSH0 PUSH1 0x2 DUP3 DIV SWAP1 POP PUSH1 0x1 DUP3 AND DUP1 PUSH2 0x1B46 JUMPI PUSH1 0x7F DUP3 AND SWAP2 POP JUMPDEST PUSH1 0x20 DUP3 LT DUP2 SUB PUSH2 0x1B59 JUMPI PUSH2 0x1B58 PUSH2 0x1B02 JUMP JUMPDEST JUMPDEST POP SWAP2 SWAP1 POP JUMP JUMPDEST PUSH32 0x43616E6E6F7420617070726F7665207A65726F20616464726573732100000000 PUSH0 DUP3 ADD MSTORE POP JUMP JUMPDEST PUSH0 PUSH2 0x1B93 PUSH1 0x1C DUP4 PUSH2 0x14BF JUMP JUMPDEST SWAP2 POP PUSH2 0x1B9E DUP3 PUSH2 0x1B5F JUMP JUMPDEST PUSH1 0x20 DUP3 ADD SWAP1 POP SWAP2 SWAP1 POP JUMP JUMPDEST PUSH0 PUSH1 0x20 DUP3 ADD SWAP1 POP DUP2 DUP2 SUB PUSH0 DUP4 ADD MSTORE PUSH2 0x1BC0 DUP2 PUSH2 0x1B87 JUMP JUMPDEST SWAP1 POP SWAP2 SWAP1 POP JUMP JUMPDEST PUSH32 0x46726F6D207A65726F2100000000000000000000000000000000000000000000 PUSH0 DUP3 ADD MSTORE POP JUMP JUMPDEST PUSH0 PUSH2 0x1BFB PUSH1 0xA DUP4 PUSH2 0x14BF JUMP JUMPDEST SWAP2 POP PUSH2 0x1C06 DUP3 PUSH2 0x1BC7 JUMP JUMPDEST PUSH1 0x20 DUP3 ADD SWAP1 POP SWAP2 SWAP1 POP JUMP JUMPDEST PUSH0 PUSH1 0x20 DUP3 ADD SWAP1 POP DUP2 DUP2 SUB PUSH0 DUP4 ADD MSTORE PUSH2 0x1C28 DUP2 PUSH2 0x1BEF JUMP JUMPDEST SWAP1 POP SWAP2 SWAP1 POP JUMP JUMPDEST PUSH32 0x546F207A65726F21000000000000000000000000000000000000000000000000 PUSH0 DUP3 ADD MSTORE POP JUMP JUMPDEST PUSH0 PUSH2 0x1C63 PUSH1 0x8 DUP4 PUSH2 0x14BF JUMP JUMPDEST SWAP2 POP PUSH2 0x1C6E DUP3 PUSH2 0x1C2F JUMP JUMPDEST PUSH1 0x20 DUP3 ADD SWAP1 POP SWAP2 SWAP1 POP JUMP JUMPDEST PUSH0 PUSH1 0x20 DUP3 ADD SWAP1 POP DUP2 DUP2 SUB PUSH0 DUP4 ADD MSTORE PUSH2 0x1C90 DUP2 PUSH2 0x1C57 JUMP JUMPDEST SWAP1 POP SWAP2 SWAP1 POP JUMP JUMPDEST PUSH32 0x496E73756666696369656E742062616C616E6365210000000000000000000000 PUSH0 DUP3 ADD MSTORE POP JUMP JUMPDEST PUSH0 PUSH2 0x1CCB PUSH1 0x15 DUP4 PUSH2 0x14BF JUMP JUMPDEST SWAP2 POP PUSH2 0x1CD6 DUP3 PUSH2 0x1C97 JUMP JUMPDEST PUSH1 0x20 DUP3 ADD SWAP1 POP SWAP2 SWAP1 POP JUMP JUMPDEST PUSH0 PUSH1 0x20 DUP3 ADD SWAP1 POP DUP2 DUP2 SUB PUSH0 DUP4 ADD MSTORE PUSH2 0x1CF8 DUP2 PUSH2 0x1CBF JUMP JUMPDEST SWAP1 POP SWAP2 SWAP1 POP JUMP JUMPDEST PUSH32 0x496E73756666696369656E742062616C616E6365322100000000000000000000 PUSH0 DUP3 ADD MSTORE POP JUMP JUMPDEST PUSH0 PUSH2 0x1D33 PUSH1 0x16 DUP4 PUSH2 0x14BF JUMP JUMPDEST SWAP2 POP PUSH2 0x1D3E DUP3 PUSH2 0x1CFF JUMP JUMPDEST PUSH1 0x20 DUP3 ADD SWAP1 POP SWAP2 SWAP1 POP JUMP JUMPDEST PUSH0 PUSH1 0x20 DUP3 ADD SWAP1 POP DUP2 DUP2 SUB PUSH0 DUP4 ADD MSTORE PUSH2 0x1D60 DUP2 PUSH2 0x1D27 JUMP JUMPDEST SWAP1 POP SWAP2 SWAP1 POP JUMP JUMPDEST PUSH32 0x4E487B7100000000000000000000000000000000000000000000000000000000 PUSH0 MSTORE PUSH1 0x11 PUSH1 0x4 MSTORE PUSH1 0x24 PUSH0 REVERT JUMPDEST PUSH0 PUSH2 0x1D9E DUP3 PUSH2 0x15B0 JUMP JUMPDEST SWAP2 POP PUSH2 0x1DA9 DUP4 PUSH2 0x15B0 JUMP JUMPDEST SWAP3 POP DUP3 DUP3 SUB SWAP1 POP DUP2 DUP2 GT ISZERO PUSH2 0x1DC1 JUMPI PUSH2 0x1DC0 PUSH2 0x1D67 JUMP JUMPDEST JUMPDEST SWAP3 SWAP2 POP POP JUMP JUMPDEST PUSH0 PUSH2 0x1DD1 DUP3 PUSH2 0x15B0 JUMP JUMPDEST SWAP2 POP PUSH2 0x1DDC DUP4 PUSH2 0x15B0 JUMP JUMPDEST SWAP3 POP DUP3 DUP3 ADD SWAP1 POP DUP1 DUP3 GT ISZERO PUSH2 0x1DF4 JUMPI PUSH2 0x1DF3 PUSH2 0x1D67 JUMP JUMPDEST JUMPDEST SWAP3 SWAP2 POP POP JUMP JUMPDEST PUSH32 0x43616E6E6F74206D696E7420746F207A65726F20616464726573732100000000 PUSH0 DUP3 ADD MSTORE POP JUMP JUMPDEST PUSH0 PUSH2 0x1E2E PUSH1 0x1C DUP4 PUSH2 0x14BF JUMP JUMPDEST SWAP2 POP PUSH2 0x1E39 DUP3 PUSH2 0x1DFA JUMP JUMPDEST PUSH1 0x20 DUP3 ADD SWAP1 POP SWAP2 SWAP1 POP JUMP JUMPDEST PUSH0 PUSH1 0x20 DUP3 ADD SWAP1 POP DUP2 DUP2 SUB PUSH0 DUP4 ADD MSTORE PUSH2 0x1E5B DUP2 PUSH2 0x1E22 JUMP JUMPDEST SWAP1 POP SWAP2 SWAP1 POP JUMP JUMPDEST PUSH32 0x436F6E7472616374206973206E6F742070617573656421000000000000000000 PUSH0 DUP3 ADD MSTORE POP JUMP JUMPDEST PUSH0 PUSH2 0x1E96 PUSH1 0x17 DUP4 PUSH2 0x14BF JUMP JUMPDEST SWAP2 POP PUSH2 0x1EA1 DUP3 PUSH2 0x1E62 JUMP JUMPDEST PUSH1 0x20 DUP3 ADD SWAP1 POP SWAP2 SWAP1 POP JUMP JUMPDEST PUSH0 PUSH1 0x20 DUP3 ADD SWAP1 POP DUP2 DUP2 SUB PUSH0 DUP4 ADD MSTORE PUSH2 0x1EC3 DUP2 PUSH2 0x1E8A JUMP JUMPDEST SWAP1 POP SWAP2 SWAP1 POP JUMP JUMPDEST PUSH32 0x4C656E677468206D69736D617463682100000000000000000000000000000000 PUSH0 DUP3 ADD MSTORE POP JUMP JUMPDEST PUSH0 PUSH2 0x1EFE PUSH1 0x10 DUP4 PUSH2 0x14BF JUMP JUMPDEST SWAP2 POP PUSH2 0x1F09 DUP3 PUSH2 0x1ECA JUMP JUMPDEST PUSH1 0x20 DUP3 ADD SWAP1 POP SWAP2 SWAP1 POP JUMP JUMPDEST PUSH0 PUSH1 0x20 DUP3 ADD SWAP1 POP DUP2 DUP2 SUB PUSH0 DUP4 ADD MSTORE PUSH2 0x1F2B DUP2 PUSH2 0x1EF2 JUMP JUMPDEST SWAP1 POP SWAP2 SWAP1 POP JUMP JUMPDEST PUSH32 0x546F6F206D616E7920726563697069656E747321000000000000000000000000 PUSH0 DUP3 ADD MSTORE POP JUMP JUMPDEST PUSH0 PUSH2 0x1F66 PUSH1 0x14 DUP4 PUSH2 0x14BF JUMP JUMPDEST SWAP2 POP PUSH2 0x1F71 DUP3 PUSH2 0x1F32 JUMP JUMPDEST PUSH1 0x20 DUP3 ADD SWAP1 POP SWAP2 SWAP1 POP JUMP JUMPDEST PUSH0 PUSH1 0x20 DUP3 ADD SWAP1 POP DUP2 DUP2 SUB PUSH0 DUP4 ADD MSTORE PUSH2 0x1F93 DUP2 PUSH2 0x1F5A JUMP JUMPDEST SWAP1 POP SWAP2 SWAP1 POP JUMP JUMPDEST PUSH32 0x4E487B7100000000000000000000000000000000000000000000000000000000 PUSH0 MSTORE PUSH1 0x32 PUSH1 0x4 MSTORE PUSH1 0x24 PUSH0 REVERT JUMPDEST PUSH32 0x43616E6E6F74207472616E7366657220746F207A65726F206164647265737321 PUSH0 DUP3 ADD MSTORE POP JUMP JUMPDEST PUSH0 PUSH2 0x1FFB PUSH1 0x20 DUP4 PUSH2 0x14BF JUMP JUMPDEST SWAP2 POP PUSH2 0x2006 DUP3 PUSH2 0x1FC7 JUMP JUMPDEST PUSH1 0x20 DUP3 ADD SWAP1 POP SWAP2 SWAP1 POP JUMP JUMPDEST PUSH0 PUSH1 0x20 DUP3 ADD SWAP1 POP DUP2 DUP2 SUB PUSH0 DUP4 ADD MSTORE PUSH2 0x2028 DUP2 PUSH2 0x1FEF JUMP JUMPDEST SWAP1 POP SWAP2 SWAP1 POP JUMP INVALID LOG2 PUSH5 0x6970667358 0x22 SLT KECCAK256 0xC8 CALLDATASIZE DUP11 GASPRICE SWAP15 0xC9 STATICCALL 0xED 0xC7 PUSH4 0xC71B28BD TLOAD STATICCALL DUP3 DUP15 0x2E EXP 0x2C SIGNEXTEND 0xD0 PUSH27 0x2252CDAF35B57B2B64736F6C634300082200330000000000000000 "
				},
				"gasEstimates": {
					"creation": {
						"codeDepositCost": "1658600",
						"executionCost": "infinite",
						"totalCost": "infinite"
					},
					"external": {
						"MAX_COUNT()": "392",
						"allowance(address,address)": "infinite",
						"approve(address,uint256)": "infinite",
						"balanceOf(address)": "2847",
						"batchTransfer(address[],uint256[])": "infinite",
						"burn(uint256)": "infinite",
						"decimals()": "2511",
						"mint(address,uint256)": "infinite",
						"name()": "infinite",
						"owner()": "2552",
						"pause()": "28924",
						"paused()": "2540",
						"resume()": "28855",
						"symbol()": "infinite",
						"totalSupply()": "2515",
						"transfer(address,uint256)": "infinite",
						"transferFrom(address,address,uint256)": "infinite"
					}
				},
				"methodIdentifiers": {
					"MAX_COUNT()": "77163c1d",
					"allowance(address,address)": "dd62ed3e",
					"approve(address,uint256)": "095ea7b3",
					"balanceOf(address)": "70a08231",
					"batchTransfer(address[],uint256[])": "88d695b2",
					"burn(uint256)": "42966c68",
					"decimals()": "313ce567",
					"mint(address,uint256)": "40c10f19",
					"name()": "06fdde03",
					"owner()": "8da5cb5b",
					"pause()": "8456cb59",
					"paused()": "5c975abb",
					"resume()": "046f7da2",
					"symbol()": "95d89b41",
					"totalSupply()": "18160ddd",
					"transfer(address,uint256)": "a9059cbb",
					"transferFrom(address,address,uint256)": "23b872dd"
				}
			},
			"storageLayout": {
				"storage": [
					{
						"astId": 4,
						"contract": "lession5.1-TokenContract/TotoroToken.sol:TotoroToken",
						"label": "name",
						"offset": 0,
						"slot": "0",
						"type": "t_string_storage"
					},
					{
						"astId": 6,
						"contract": "lession5.1-TokenContract/TotoroToken.sol:TotoroToken",
						"label": "symbol",
						"offset": 0,
						"slot": "1",
						"type": "t_string_storage"
					},
					{
						"astId": 8,
						"contract": "lession5.1-TokenContract/TotoroToken.sol:TotoroToken",
						"label": "decimals",
						"offset": 0,
						"slot": "2",
						"type": "t_uint8"
					},
					{
						"astId": 10,
						"contract": "lession5.1-TokenContract/TotoroToken.sol:TotoroToken",
						"label": "totalSupply",
						"offset": 0,
						"slot": "3",
						"type": "t_uint256"
					},
					{
						"astId": 14,
						"contract": "lession5.1-TokenContract/TotoroToken.sol:TotoroToken",
						"label": "balanceOf",
						"offset": 0,
						"slot": "4",
						"type": "t_mapping(t_address,t_uint256)"
					},
					{
						"astId": 20,
						"contract": "lession5.1-TokenContract/TotoroToken.sol:TotoroToken",
						"label": "allowance",
						"offset": 0,
						"slot": "5",
						"type": "t_mapping(t_address,t_mapping(t_address,t_uint256))"
					},
					{
						"astId": 22,
						"contract": "lession5.1-TokenContract/TotoroToken.sol:TotoroToken",
						"label": "owner",
						"offset": 0,
						"slot": "6",
						"type": "t_address"
					},
					{
						"astId": 28,
						"contract": "lession5.1-TokenContract/TotoroToken.sol:TotoroToken",
						"label": "paused",
						"offset": 20,
						"slot": "6",
						"type": "t_bool"
					}
				],
				"types": {
					"t_address": {
						"encoding": "inplace",
						"label": "address",
						"numberOfBytes": "20"
					},
					"t_bool": {
						"encoding": "inplace",
						"label": "bool",
						"numberOfBytes": "1"
					},
					"t_mapping(t_address,t_mapping(t_address,t_uint256))": {
						"encoding": "mapping",
						"key": "t_address",
						"label": "mapping(address => mapping(address => uint256))",
						"numberOfBytes": "32",
						"value": "t_mapping(t_address,t_uint256)"
					},
					"t_mapping(t_address,t_uint256)": {
						"encoding": "mapping",
						"key": "t_address",
						"label": "mapping(address => uint256)",
						"numberOfBytes": "32",
						"value": "t_uint256"
					},
					"t_string_storage": {
						"encoding": "bytes",
						"label": "string",
						"numberOfBytes": "32"
					},
					"t_uint256": {
						"encoding": "inplace",
						"label": "uint256",
						"numberOfBytes": "32"
					},
					"t_uint8": {
						"encoding": "inplace",
						"label": "uint8",
						"numberOfBytes": "1"
					}
				}
			},
			"userdoc": {
				"kind": "user",
				"methods": {},
				"notice": "任务： 使⽤今天学到的知识，创建⼀个ERC20代币。 要求： 1. 设置⾃⼰的名称和符号 2. 实现所有核⼼功能（transfer、approve、transferFrom） 3. 添加mint和burn功能 4. 部署到Remix并测试 5. 测试所有功能和错误场景",
				"version": 1
			}
		}
	}
}