{
	"lession3.3-Function/MultiSignatureWallet.sol": {
		"MultiSignatureWallet": {
			"abi": [
				{
					"inputs": [
						{
							"internalType": "uint256",
							"name": "",
							"type": "uint256"
						}
					],
					"name": "owners",
					"outputs": [
						{
							"internalType": "address",
							"name": "",
							"type": "address"
						}
					],
					"stateMutability": "view",
					"type": "function"
				},
				{
					"inputs": [],
					"name": "required",
					"outputs": [
						{
							"internalType": "uint256",
							"name": "",
							"type": "uint256"
						}
					],
					"stateMutability": "view",
					"type": "function"
				},
				{
					"inputs": [],
					"name": "transactionCount",
					"outputs": [
						{
							"internalType": "uint256",
							"name": "",
							"type": "uint256"
						}
					],
					"stateMutability": "view",
					"type": "function"
				},
				{
					"inputs": [
						{
							"internalType": "uint256",
							"name": "",
							"type": "uint256"
						}
					],
					"name": "transactions",
					"outputs": [
						{
							"internalType": "address",
							"name": "to",
							"type": "address"
						},
						{
							"internalType": "uint256",
							"name": "value",
							"type": "uint256"
						},
						{
							"internalType": "bytes",
							"name": "data",
							"type": "bytes"
						},
						{
							"internalType": "bool",
							"name": "executed",
							"type": "bool"
						},
						{
							"internalType": "uint256",
							"name": "confirmations",
							"type": "uint256"
						}
					],
					"stateMutability": "view",
					"type": "function"
				}
			],
			"devdoc": {
				"kind": "dev",
				"methods": {},
				"version": 1
			},
			"evm": {
				"assembly": "    /* \"lession3.3-Function/MultiSignatureWallet.sol\":323:975  contract MultiSignatureWallet {... */\n  mstore(0x40, 0x80)\n    /* \"lession3.3-Function/MultiSignatureWallet.sol\":910:911  0 */\n  0x00\n    /* \"lession3.3-Function/MultiSignatureWallet.sol\":879:911  uint public transactionCount = 0 */\n  0x03\n  sstore\n    /* \"lession3.3-Function/MultiSignatureWallet.sol\":323:975  contract MultiSignatureWallet {... */\n  callvalue\n  dup1\n  iszero\n  tag_1\n  jumpi\n  revert(0x00, 0x00)\ntag_1:\n  pop\n  dataSize(sub_0)\n  dup1\n  dataOffset(sub_0)\n  0x00\n  codecopy\n  0x00\n  return\nstop\n\nsub_0: assembly {\n        /* \"lession3.3-Function/MultiSignatureWallet.sol\":323:975  contract MultiSignatureWallet {... */\n      mstore(0x40, 0x80)\n      callvalue\n      dup1\n      iszero\n      tag_1\n      jumpi\n      revert(0x00, 0x00)\n    tag_1:\n      pop\n      jumpi(tag_2, lt(calldatasize, 0x04))\n      shr(0xe0, calldataload(0x00))\n      dup1\n      0x025e7c27\n      eq\n      tag_3\n      jumpi\n      dup1\n      0x9ace38c2\n      eq\n      tag_4\n      jumpi\n      dup1\n      0xb77bf600\n      eq\n      tag_5\n      jumpi\n      dup1\n      0xdc8452cd\n      eq\n      tag_6\n      jumpi\n    tag_2:\n      revert(0x00, 0x00)\n        /* \"lession3.3-Function/MultiSignatureWallet.sol\":697:720  address[] public owners */\n    tag_3:\n      tag_7\n      0x04\n      dup1\n      calldatasize\n      sub\n      dup2\n      add\n      swap1\n      tag_8\n      swap2\n      swap1\n      tag_9\n      jump\t// in\n    tag_8:\n      tag_10\n      jump\t// in\n    tag_7:\n      mload(0x40)\n      tag_11\n      swap2\n      swap1\n      tag_12\n      jump\t// in\n    tag_11:\n      mload(0x40)\n      dup1\n      swap2\n      sub\n      swap1\n      return\n        /* \"lession3.3-Function/MultiSignatureWallet.sol\":938:971  Transaction[] public transactions */\n    tag_4:\n      tag_13\n      0x04\n      dup1\n      calldatasize\n      sub\n      dup2\n      add\n      swap1\n      tag_14\n      swap2\n      swap1\n      tag_9\n      jump\t// in\n    tag_14:\n      tag_15\n      jump\t// in\n    tag_13:\n      mload(0x40)\n      tag_16\n      swap6\n      swap5\n      swap4\n      swap3\n      swap2\n      swap1\n      tag_17\n      jump\t// in\n    tag_16:\n      mload(0x40)\n      dup1\n      swap2\n      sub\n      swap1\n      return\n        /* \"lession3.3-Function/MultiSignatureWallet.sol\":879:911  uint public transactionCount = 0 */\n    tag_5:\n      tag_18\n      tag_19\n      jump\t// in\n    tag_18:\n      mload(0x40)\n      tag_20\n      swap2\n      swap1\n      tag_21\n      jump\t// in\n    tag_20:\n      mload(0x40)\n      dup1\n      swap2\n      sub\n      swap1\n      return\n        /* \"lession3.3-Function/MultiSignatureWallet.sol\":746:766  uint public required */\n    tag_6:\n      tag_22\n      tag_23\n      jump\t// in\n    tag_22:\n      mload(0x40)\n      tag_24\n      swap2\n      swap1\n      tag_21\n      jump\t// in\n    tag_24:\n      mload(0x40)\n      dup1\n      swap2\n      sub\n      swap1\n      return\n        /* \"lession3.3-Function/MultiSignatureWallet.sol\":697:720  address[] public owners */\n    tag_10:\n      0x00\n      dup2\n      dup2\n      sload\n      dup2\n      lt\n      tag_25\n      jumpi\n      0x00\n      dup1\n      revert\n    tag_25:\n      swap1\n      0x00\n      mstore\n      keccak256(0x00, 0x20)\n      add\n      0x00\n      swap2\n      pop\n      sload\n      swap1\n      0x0100\n      exp\n      swap1\n      div\n      0xffffffffffffffffffffffffffffffffffffffff\n      and\n      dup2\n      jump\t// out\n        /* \"lession3.3-Function/MultiSignatureWallet.sol\":938:971  Transaction[] public transactions */\n    tag_15:\n      0x04\n      dup2\n      dup2\n      sload\n      dup2\n      lt\n      tag_27\n      jumpi\n      0x00\n      dup1\n      revert\n    tag_27:\n      swap1\n      0x00\n      mstore\n      keccak256(0x00, 0x20)\n      swap1\n      0x05\n      mul\n      add\n      0x00\n      swap2\n      pop\n      swap1\n      pop\n      dup1\n      0x00\n      add\n      0x00\n      swap1\n      sload\n      swap1\n      0x0100\n      exp\n      swap1\n      div\n      0xffffffffffffffffffffffffffffffffffffffff\n      and\n      swap1\n      dup1\n      0x01\n      add\n      sload\n      swap1\n      dup1\n      0x02\n      add\n      dup1\n      sload\n      tag_29\n      swap1\n      tag_30\n      jump\t// in\n    tag_29:\n      dup1\n      0x1f\n      add\n      0x20\n      dup1\n      swap2\n      div\n      mul\n      0x20\n      add\n      mload(0x40)\n      swap1\n      dup2\n      add\n      0x40\n      mstore\n      dup1\n      swap3\n      swap2\n      swap1\n      dup2\n      dup2\n      mstore\n      0x20\n      add\n      dup3\n      dup1\n      sload\n      tag_31\n      swap1\n      tag_30\n      jump\t// in\n    tag_31:\n      dup1\n      iszero\n      tag_32\n      jumpi\n      dup1\n      0x1f\n      lt\n      tag_33\n      jumpi\n      0x0100\n      dup1\n      dup4\n      sload\n      div\n      mul\n      dup4\n      mstore\n      swap2\n      0x20\n      add\n      swap2\n      jump(tag_32)\n    tag_33:\n      dup3\n      add\n      swap2\n      swap1\n      0x00\n      mstore\n      keccak256(0x00, 0x20)\n      swap1\n    tag_34:\n      dup2\n      sload\n      dup2\n      mstore\n      swap1\n      0x01\n      add\n      swap1\n      0x20\n      add\n      dup1\n      dup4\n      gt\n      tag_34\n      jumpi\n      dup3\n      swap1\n      sub\n      0x1f\n      and\n      dup3\n      add\n      swap2\n    tag_32:\n      pop\n      pop\n      pop\n      pop\n      pop\n      swap1\n      dup1\n      0x03\n      add\n      0x00\n      swap1\n      sload\n      swap1\n      0x0100\n      exp\n      swap1\n      div\n      0xff\n      and\n      swap1\n      dup1\n      0x04\n      add\n      sload\n      swap1\n      pop\n      dup6\n      jump\t// out\n        /* \"lession3.3-Function/MultiSignatureWallet.sol\":879:911  uint public transactionCount = 0 */\n    tag_19:\n      sload(0x03)\n      dup2\n      jump\t// out\n        /* \"lession3.3-Function/MultiSignatureWallet.sol\":746:766  uint public required */\n    tag_23:\n      sload(0x01)\n      dup2\n      jump\t// out\n        /* \"#utility.yul\":88:205   */\n    tag_36:\n        /* \"#utility.yul\":197:198   */\n      0x00\n        /* \"#utility.yul\":194:195   */\n      0x00\n        /* \"#utility.yul\":187:199   */\n      revert\n        /* \"#utility.yul\":334:411   */\n    tag_38:\n        /* \"#utility.yul\":371:378   */\n      0x00\n        /* \"#utility.yul\":400:405   */\n      dup2\n        /* \"#utility.yul\":389:405   */\n      swap1\n      pop\n        /* \"#utility.yul\":334:411   */\n      swap2\n      swap1\n      pop\n      jump\t// out\n        /* \"#utility.yul\":417:539   */\n    tag_39:\n        /* \"#utility.yul\":490:514   */\n      tag_59\n        /* \"#utility.yul\":508:513   */\n      dup2\n        /* \"#utility.yul\":490:514   */\n      tag_38\n      jump\t// in\n    tag_59:\n        /* \"#utility.yul\":483:488   */\n      dup2\n        /* \"#utility.yul\":480:515   */\n      eq\n        /* \"#utility.yul\":470:533   */\n      tag_60\n      jumpi\n        /* \"#utility.yul\":529:530   */\n      0x00\n        /* \"#utility.yul\":526:527   */\n      0x00\n        /* \"#utility.yul\":519:531   */\n      revert\n        /* \"#utility.yul\":470:533   */\n    tag_60:\n        /* \"#utility.yul\":417:539   */\n      pop\n      jump\t// out\n        /* \"#utility.yul\":545:684   */\n    tag_40:\n        /* \"#utility.yul\":591:596   */\n      0x00\n        /* \"#utility.yul\":629:635   */\n      dup2\n        /* \"#utility.yul\":616:636   */\n      calldataload\n        /* \"#utility.yul\":607:636   */\n      swap1\n      pop\n        /* \"#utility.yul\":645:678   */\n      tag_62\n        /* \"#utility.yul\":672:677   */\n      dup2\n        /* \"#utility.yul\":645:678   */\n      tag_39\n      jump\t// in\n    tag_62:\n        /* \"#utility.yul\":545:684   */\n      swap3\n      swap2\n      pop\n      pop\n      jump\t// out\n        /* \"#utility.yul\":690:1019   */\n    tag_9:\n        /* \"#utility.yul\":749:755   */\n      0x00\n        /* \"#utility.yul\":798:800   */\n      0x20\n        /* \"#utility.yul\":786:795   */\n      dup3\n        /* \"#utility.yul\":777:784   */\n      dup5\n        /* \"#utility.yul\":773:796   */\n      sub\n        /* \"#utility.yul\":769:801   */\n      slt\n        /* \"#utility.yul\":766:885   */\n      iszero\n      tag_64\n      jumpi\n        /* \"#utility.yul\":804:883   */\n      tag_65\n      tag_36\n      jump\t// in\n    tag_65:\n        /* \"#utility.yul\":766:885   */\n    tag_64:\n        /* \"#utility.yul\":924:925   */\n      0x00\n        /* \"#utility.yul\":949:1002   */\n      tag_66\n        /* \"#utility.yul\":994:1001   */\n      dup5\n        /* \"#utility.yul\":985:991   */\n      dup3\n        /* \"#utility.yul\":974:983   */\n      dup6\n        /* \"#utility.yul\":970:992   */\n      add\n        /* \"#utility.yul\":949:1002   */\n      tag_40\n      jump\t// in\n    tag_66:\n        /* \"#utility.yul\":939:1002   */\n      swap2\n      pop\n        /* \"#utility.yul\":895:1012   */\n      pop\n        /* \"#utility.yul\":690:1019   */\n      swap3\n      swap2\n      pop\n      pop\n      jump\t// out\n        /* \"#utility.yul\":1025:1151   */\n    tag_41:\n        /* \"#utility.yul\":1062:1069   */\n      0x00\n        /* \"#utility.yul\":1102:1144   */\n      0xffffffffffffffffffffffffffffffffffffffff\n        /* \"#utility.yul\":1095:1100   */\n      dup3\n        /* \"#utility.yul\":1091:1145   */\n      and\n        /* \"#utility.yul\":1080:1145   */\n      swap1\n      pop\n        /* \"#utility.yul\":1025:1151   */\n      swap2\n      swap1\n      pop\n      jump\t// out\n        /* \"#utility.yul\":1157:1253   */\n    tag_42:\n        /* \"#utility.yul\":1194:1201   */\n      0x00\n        /* \"#utility.yul\":1223:1247   */\n      tag_69\n        /* \"#utility.yul\":1241:1246   */\n      dup3\n        /* \"#utility.yul\":1223:1247   */\n      tag_41\n      jump\t// in\n    tag_69:\n        /* \"#utility.yul\":1212:1247   */\n      swap1\n      pop\n        /* \"#utility.yul\":1157:1253   */\n      swap2\n      swap1\n      pop\n      jump\t// out\n        /* \"#utility.yul\":1259:1377   */\n    tag_43:\n        /* \"#utility.yul\":1346:1370   */\n      tag_71\n        /* \"#utility.yul\":1364:1369   */\n      dup2\n        /* \"#utility.yul\":1346:1370   */\n      tag_42\n      jump\t// in\n    tag_71:\n        /* \"#utility.yul\":1341:1344   */\n      dup3\n        /* \"#utility.yul\":1334:1371   */\n      mstore\n        /* \"#utility.yul\":1259:1377   */\n      pop\n      pop\n      jump\t// out\n        /* \"#utility.yul\":1383:1605   */\n    tag_12:\n        /* \"#utility.yul\":1476:1480   */\n      0x00\n        /* \"#utility.yul\":1514:1516   */\n      0x20\n        /* \"#utility.yul\":1503:1512   */\n      dup3\n        /* \"#utility.yul\":1499:1517   */\n      add\n        /* \"#utility.yul\":1491:1517   */\n      swap1\n      pop\n        /* \"#utility.yul\":1527:1598   */\n      tag_73\n        /* \"#utility.yul\":1595:1596   */\n      0x00\n        /* \"#utility.yul\":1584:1593   */\n      dup4\n        /* \"#utility.yul\":1580:1597   */\n      add\n        /* \"#utility.yul\":1571:1577   */\n      dup5\n        /* \"#utility.yul\":1527:1598   */\n      tag_43\n      jump\t// in\n    tag_73:\n        /* \"#utility.yul\":1383:1605   */\n      swap3\n      swap2\n      pop\n      pop\n      jump\t// out\n        /* \"#utility.yul\":1611:1729   */\n    tag_44:\n        /* \"#utility.yul\":1698:1722   */\n      tag_75\n        /* \"#utility.yul\":1716:1721   */\n      dup2\n        /* \"#utility.yul\":1698:1722   */\n      tag_38\n      jump\t// in\n    tag_75:\n        /* \"#utility.yul\":1693:1696   */\n      dup3\n        /* \"#utility.yul\":1686:1723   */\n      mstore\n        /* \"#utility.yul\":1611:1729   */\n      pop\n      pop\n      jump\t// out\n        /* \"#utility.yul\":1735:1833   */\n    tag_45:\n        /* \"#utility.yul\":1786:1792   */\n      0x00\n        /* \"#utility.yul\":1820:1825   */\n      dup2\n        /* \"#utility.yul\":1814:1826   */\n      mload\n        /* \"#utility.yul\":1804:1826   */\n      swap1\n      pop\n        /* \"#utility.yul\":1735:1833   */\n      swap2\n      swap1\n      pop\n      jump\t// out\n        /* \"#utility.yul\":1839:2007   */\n    tag_46:\n        /* \"#utility.yul\":1922:1933   */\n      0x00\n        /* \"#utility.yul\":1956:1962   */\n      dup3\n        /* \"#utility.yul\":1951:1954   */\n      dup3\n        /* \"#utility.yul\":1944:1963   */\n      mstore\n        /* \"#utility.yul\":1996:2000   */\n      0x20\n        /* \"#utility.yul\":1991:1994   */\n      dup3\n        /* \"#utility.yul\":1987:2001   */\n      add\n        /* \"#utility.yul\":1972:2001   */\n      swap1\n      pop\n        /* \"#utility.yul\":1839:2007   */\n      swap3\n      swap2\n      pop\n      pop\n      jump\t// out\n        /* \"#utility.yul\":2013:2152   */\n    tag_47:\n        /* \"#utility.yul\":2102:2108   */\n      dup3\n        /* \"#utility.yul\":2097:2100   */\n      dup2\n        /* \"#utility.yul\":2092:2095   */\n      dup4\n        /* \"#utility.yul\":2086:2109   */\n      mcopy\n        /* \"#utility.yul\":2143:2144   */\n      0x00\n        /* \"#utility.yul\":2134:2140   */\n      dup4\n        /* \"#utility.yul\":2129:2132   */\n      dup4\n        /* \"#utility.yul\":2125:2141   */\n      add\n        /* \"#utility.yul\":2118:2145   */\n      mstore\n        /* \"#utility.yul\":2013:2152   */\n      pop\n      pop\n      pop\n      jump\t// out\n        /* \"#utility.yul\":2158:2260   */\n    tag_48:\n        /* \"#utility.yul\":2199:2205   */\n      0x00\n        /* \"#utility.yul\":2250:2252   */\n      0x1f\n        /* \"#utility.yul\":2246:2253   */\n      not\n        /* \"#utility.yul\":2241:2243   */\n      0x1f\n        /* \"#utility.yul\":2234:2239   */\n      dup4\n        /* \"#utility.yul\":2230:2244   */\n      add\n        /* \"#utility.yul\":2226:2254   */\n      and\n        /* \"#utility.yul\":2216:2254   */\n      swap1\n      pop\n        /* \"#utility.yul\":2158:2260   */\n      swap2\n      swap1\n      pop\n      jump\t// out\n        /* \"#utility.yul\":2266:2639   */\n    tag_49:\n        /* \"#utility.yul\":2352:2355   */\n      0x00\n        /* \"#utility.yul\":2380:2418   */\n      tag_81\n        /* \"#utility.yul\":2412:2417   */\n      dup3\n        /* \"#utility.yul\":2380:2418   */\n      tag_45\n      jump\t// in\n    tag_81:\n        /* \"#utility.yul\":2434:2504   */\n      tag_82\n        /* \"#utility.yul\":2497:2503   */\n      dup2\n        /* \"#utility.yul\":2492:2495   */\n      dup6\n        /* \"#utility.yul\":2434:2504   */\n      tag_46\n      jump\t// in\n    tag_82:\n        /* \"#utility.yul\":2427:2504   */\n      swap4\n      pop\n        /* \"#utility.yul\":2513:2578   */\n      tag_83\n        /* \"#utility.yul\":2571:2577   */\n      dup2\n        /* \"#utility.yul\":2566:2569   */\n      dup6\n        /* \"#utility.yul\":2559:2563   */\n      0x20\n        /* \"#utility.yul\":2552:2557   */\n      dup7\n        /* \"#utility.yul\":2548:2564   */\n      add\n        /* \"#utility.yul\":2513:2578   */\n      tag_47\n      jump\t// in\n    tag_83:\n        /* \"#utility.yul\":2603:2632   */\n      tag_84\n        /* \"#utility.yul\":2625:2631   */\n      dup2\n        /* \"#utility.yul\":2603:2632   */\n      tag_48\n      jump\t// in\n    tag_84:\n        /* \"#utility.yul\":2598:2601   */\n      dup5\n        /* \"#utility.yul\":2594:2633   */\n      add\n        /* \"#utility.yul\":2587:2633   */\n      swap2\n      pop\n        /* \"#utility.yul\":2356:2639   */\n      pop\n        /* \"#utility.yul\":2266:2639   */\n      swap3\n      swap2\n      pop\n      pop\n      jump\t// out\n        /* \"#utility.yul\":2645:2735   */\n    tag_50:\n        /* \"#utility.yul\":2679:2686   */\n      0x00\n        /* \"#utility.yul\":2722:2727   */\n      dup2\n        /* \"#utility.yul\":2715:2728   */\n      iszero\n        /* \"#utility.yul\":2708:2729   */\n      iszero\n        /* \"#utility.yul\":2697:2729   */\n      swap1\n      pop\n        /* \"#utility.yul\":2645:2735   */\n      swap2\n      swap1\n      pop\n      jump\t// out\n        /* \"#utility.yul\":2741:2850   */\n    tag_51:\n        /* \"#utility.yul\":2822:2843   */\n      tag_87\n        /* \"#utility.yul\":2837:2842   */\n      dup2\n        /* \"#utility.yul\":2822:2843   */\n      tag_50\n      jump\t// in\n    tag_87:\n        /* \"#utility.yul\":2817:2820   */\n      dup3\n        /* \"#utility.yul\":2810:2844   */\n      mstore\n        /* \"#utility.yul\":2741:2850   */\n      pop\n      pop\n      jump\t// out\n        /* \"#utility.yul\":2856:3595   */\n    tag_17:\n        /* \"#utility.yul\":3073:3077   */\n      0x00\n        /* \"#utility.yul\":3111:3114   */\n      0xa0\n        /* \"#utility.yul\":3100:3109   */\n      dup3\n        /* \"#utility.yul\":3096:3115   */\n      add\n        /* \"#utility.yul\":3088:3115   */\n      swap1\n      pop\n        /* \"#utility.yul\":3125:3196   */\n      tag_89\n        /* \"#utility.yul\":3193:3194   */\n      0x00\n        /* \"#utility.yul\":3182:3191   */\n      dup4\n        /* \"#utility.yul\":3178:3195   */\n      add\n        /* \"#utility.yul\":3169:3175   */\n      dup9\n        /* \"#utility.yul\":3125:3196   */\n      tag_43\n      jump\t// in\n    tag_89:\n        /* \"#utility.yul\":3206:3278   */\n      tag_90\n        /* \"#utility.yul\":3274:3276   */\n      0x20\n        /* \"#utility.yul\":3263:3272   */\n      dup4\n        /* \"#utility.yul\":3259:3277   */\n      add\n        /* \"#utility.yul\":3250:3256   */\n      dup8\n        /* \"#utility.yul\":3206:3278   */\n      tag_44\n      jump\t// in\n    tag_90:\n        /* \"#utility.yul\":3325:3334   */\n      dup2\n        /* \"#utility.yul\":3319:3323   */\n      dup2\n        /* \"#utility.yul\":3315:3335   */\n      sub\n        /* \"#utility.yul\":3310:3312   */\n      0x40\n        /* \"#utility.yul\":3299:3308   */\n      dup4\n        /* \"#utility.yul\":3295:3313   */\n      add\n        /* \"#utility.yul\":3288:3336   */\n      mstore\n        /* \"#utility.yul\":3353:3429   */\n      tag_91\n        /* \"#utility.yul\":3424:3428   */\n      dup2\n        /* \"#utility.yul\":3415:3421   */\n      dup7\n        /* \"#utility.yul\":3353:3429   */\n      tag_49\n      jump\t// in\n    tag_91:\n        /* \"#utility.yul\":3345:3429   */\n      swap1\n      pop\n        /* \"#utility.yul\":3439:3505   */\n      tag_92\n        /* \"#utility.yul\":3501:3503   */\n      0x60\n        /* \"#utility.yul\":3490:3499   */\n      dup4\n        /* \"#utility.yul\":3486:3504   */\n      add\n        /* \"#utility.yul\":3477:3483   */\n      dup6\n        /* \"#utility.yul\":3439:3505   */\n      tag_51\n      jump\t// in\n    tag_92:\n        /* \"#utility.yul\":3515:3588   */\n      tag_93\n        /* \"#utility.yul\":3583:3586   */\n      0x80\n        /* \"#utility.yul\":3572:3581   */\n      dup4\n        /* \"#utility.yul\":3568:3587   */\n      add\n        /* \"#utility.yul\":3559:3565   */\n      dup5\n        /* \"#utility.yul\":3515:3588   */\n      tag_44\n      jump\t// in\n    tag_93:\n        /* \"#utility.yul\":2856:3595   */\n      swap7\n      swap6\n      pop\n      pop\n      pop\n      pop\n      pop\n      pop\n      jump\t// out\n        /* \"#utility.yul\":3601:3823   */\n    tag_21:\n        /* \"#utility.yul\":3694:3698   */\n      0x00\n        /* \"#utility.yul\":3732:3734   */\n      0x20\n        /* \"#utility.yul\":3721:3730   */\n      dup3\n        /* \"#utility.yul\":3717:3735   */\n      add\n        /* \"#utility.yul\":3709:3735   */\n      swap1\n      pop\n        /* \"#utility.yul\":3745:3816   */\n      tag_95\n        /* \"#utility.yul\":3813:3814   */\n      0x00\n        /* \"#utility.yul\":3802:3811   */\n      dup4\n        /* \"#utility.yul\":3798:3815   */\n      add\n        /* \"#utility.yul\":3789:3795   */\n      dup5\n        /* \"#utility.yul\":3745:3816   */\n      tag_44\n      jump\t// in\n    tag_95:\n        /* \"#utility.yul\":3601:3823   */\n      swap3\n      swap2\n      pop\n      pop\n      jump\t// out\n        /* \"#utility.yul\":3829:4009   */\n    tag_52:\n        /* \"#utility.yul\":3877:3954   */\n      0x4e487b7100000000000000000000000000000000000000000000000000000000\n        /* \"#utility.yul\":3874:3875   */\n      0x00\n        /* \"#utility.yul\":3867:3955   */\n      mstore\n        /* \"#utility.yul\":3974:3978   */\n      0x22\n        /* \"#utility.yul\":3971:3972   */\n      0x04\n        /* \"#utility.yul\":3964:3979   */\n      mstore\n        /* \"#utility.yul\":3998:4002   */\n      0x24\n        /* \"#utility.yul\":3995:3996   */\n      0x00\n        /* \"#utility.yul\":3988:4003   */\n      revert\n        /* \"#utility.yul\":4015:4335   */\n    tag_30:\n        /* \"#utility.yul\":4059:4065   */\n      0x00\n        /* \"#utility.yul\":4096:4097   */\n      0x02\n        /* \"#utility.yul\":4090:4094   */\n      dup3\n        /* \"#utility.yul\":4086:4098   */\n      div\n        /* \"#utility.yul\":4076:4098   */\n      swap1\n      pop\n        /* \"#utility.yul\":4143:4144   */\n      0x01\n        /* \"#utility.yul\":4137:4141   */\n      dup3\n        /* \"#utility.yul\":4133:4145   */\n      and\n        /* \"#utility.yul\":4164:4182   */\n      dup1\n        /* \"#utility.yul\":4154:4235   */\n      tag_98\n      jumpi\n        /* \"#utility.yul\":4220:4224   */\n      0x7f\n        /* \"#utility.yul\":4212:4218   */\n      dup3\n        /* \"#utility.yul\":4208:4225   */\n      and\n        /* \"#utility.yul\":4198:4225   */\n      swap2\n      pop\n        /* \"#utility.yul\":4154:4235   */\n    tag_98:\n        /* \"#utility.yul\":4282:4284   */\n      0x20\n        /* \"#utility.yul\":4274:4280   */\n      dup3\n        /* \"#utility.yul\":4271:4285   */\n      lt\n        /* \"#utility.yul\":4251:4269   */\n      dup2\n        /* \"#utility.yul\":4248:4286   */\n      sub\n        /* \"#utility.yul\":4245:4329   */\n      tag_99\n      jumpi\n        /* \"#utility.yul\":4301:4319   */\n      tag_100\n      tag_52\n      jump\t// in\n    tag_100:\n        /* \"#utility.yul\":4245:4329   */\n    tag_99:\n        /* \"#utility.yul\":4066:4335   */\n      pop\n        /* \"#utility.yul\":4015:4335   */\n      swap2\n      swap1\n      pop\n      jump\t// out\n\n    auxdata: 0xa26469706673582212203258fa3494ee7f198398b34ca48e867b66fc7235874f7b7b54b089843cee24f264736f6c63430008220033\n}\n",
				"bytecode": {
					"linkReferences": {},
					"object": "60806040525f6003553480156012575f5ffd5b5061047d806100205f395ff3fe608060405234801561000f575f5ffd5b506004361061004a575f3560e01c8063025e7c271461004e5780639ace38c21461007e578063b77bf600146100b2578063dc8452cd146100d0575b5f5ffd5b6100686004803603810190610063919061025d565b6100ee565b60405161007591906102c7565b60405180910390f35b6100986004803603810190610093919061025d565b610128565b6040516100a9959493929190610379565b60405180910390f35b6100ba61021a565b6040516100c791906103d1565b60405180910390f35b6100d8610220565b6040516100e591906103d1565b60405180910390f35b5f81815481106100fc575f80fd5b905f5260205f20015f915054906101000a900473ffffffffffffffffffffffffffffffffffffffff1681565b60048181548110610137575f80fd5b905f5260205f2090600502015f91509050805f015f9054906101000a900473ffffffffffffffffffffffffffffffffffffffff169080600101549080600201805461018190610417565b80601f01602080910402602001604051908101604052809291908181526020018280546101ad90610417565b80156101f85780601f106101cf576101008083540402835291602001916101f8565b820191905f5260205f20905b8154815290600101906020018083116101db57829003601f168201915b505050505090806003015f9054906101000a900460ff16908060040154905085565b60035481565b60015481565b5f5ffd5b5f819050919050565b61023c8161022a565b8114610246575f5ffd5b50565b5f8135905061025781610233565b92915050565b5f6020828403121561027257610271610226565b5b5f61027f84828501610249565b91505092915050565b5f73ffffffffffffffffffffffffffffffffffffffff82169050919050565b5f6102b182610288565b9050919050565b6102c1816102a7565b82525050565b5f6020820190506102da5f8301846102b8565b92915050565b6102e98161022a565b82525050565b5f81519050919050565b5f82825260208201905092915050565b8281835e5f83830152505050565b5f601f19601f8301169050919050565b5f610331826102ef565b61033b81856102f9565b935061034b818560208601610309565b61035481610317565b840191505092915050565b5f8115159050919050565b6103738161035f565b82525050565b5f60a08201905061038c5f8301886102b8565b61039960208301876102e0565b81810360408301526103ab8186610327565b90506103ba606083018561036a565b6103c760808301846102e0565b9695505050505050565b5f6020820190506103e45f8301846102e0565b92915050565b7f4e487b71000000000000000000000000000000000000000000000000000000005f52602260045260245ffd5b5f600282049050600182168061042e57607f821691505b602082108103610441576104406103ea565b5b5091905056fea26469706673582212203258fa3494ee7f198398b34ca48e867b66fc7235874f7b7b54b089843cee24f264736f6c63430008220033",
					"opcodes": "PUSH1 0x80 PUSH1 0x40 MSTORE PUSH0 PUSH1 0x3 SSTORE CALLVALUE DUP1 ISZERO PUSH1 0x12 JUMPI PUSH0 PUSH0 REVERT JUMPDEST POP PUSH2 0x47D DUP1 PUSH2 0x20 PUSH0 CODECOPY PUSH0 RETURN INVALID PUSH1 0x80 PUSH1 0x40 MSTORE CALLVALUE DUP1 ISZERO PUSH2 0xF JUMPI PUSH0 PUSH0 REVERT JUMPDEST POP PUSH1 0x4 CALLDATASIZE LT PUSH2 0x4A JUMPI PUSH0 CALLDATALOAD PUSH1 0xE0 SHR DUP1 PUSH4 0x25E7C27 EQ PUSH2 0x4E JUMPI DUP1 PUSH4 0x9ACE38C2 EQ PUSH2 0x7E JUMPI DUP1 PUSH4 0xB77BF600 EQ PUSH2 0xB2 JUMPI DUP1 PUSH4 0xDC8452CD EQ PUSH2 0xD0 JUMPI JUMPDEST PUSH0 PUSH0 REVERT JUMPDEST PUSH2 0x68 PUSH1 0x4 DUP1 CALLDATASIZE SUB DUP2 ADD SWAP1 PUSH2 0x63 SWAP2 SWAP1 PUSH2 0x25D JUMP JUMPDEST PUSH2 0xEE JUMP JUMPDEST PUSH1 0x40 MLOAD PUSH2 0x75 SWAP2 SWAP1 PUSH2 0x2C7 JUMP JUMPDEST PUSH1 0x40 MLOAD DUP1 SWAP2 SUB SWAP1 RETURN JUMPDEST PUSH2 0x98 PUSH1 0x4 DUP1 CALLDATASIZE SUB DUP2 ADD SWAP1 PUSH2 0x93 SWAP2 SWAP1 PUSH2 0x25D JUMP JUMPDEST PUSH2 0x128 JUMP JUMPDEST PUSH1 0x40 MLOAD PUSH2 0xA9 SWAP6 SWAP5 SWAP4 SWAP3 SWAP2 SWAP1 PUSH2 0x379 JUMP JUMPDEST PUSH1 0x40 MLOAD DUP1 SWAP2 SUB SWAP1 RETURN JUMPDEST PUSH2 0xBA PUSH2 0x21A JUMP JUMPDEST PUSH1 0x40 MLOAD PUSH2 0xC7 SWAP2 SWAP1 PUSH2 0x3D1 JUMP JUMPDEST PUSH1 0x40 MLOAD DUP1 SWAP2 SUB SWAP1 RETURN JUMPDEST PUSH2 0xD8 PUSH2 0x220 JUMP JUMPDEST PUSH1 0x40 MLOAD PUSH2 0xE5 SWAP2 SWAP1 PUSH2 0x3D1 JUMP JUMPDEST PUSH1 0x40 MLOAD DUP1 SWAP2 SUB SWAP1 RETURN JUMPDEST PUSH0 DUP2 DUP2 SLOAD DUP2 LT PUSH2 0xFC JUMPI PUSH0 DUP1 REVERT JUMPDEST SWAP1 PUSH0 MSTORE PUSH1 0x20 PUSH0 KECCAK256 ADD PUSH0 SWAP2 POP SLOAD SWAP1 PUSH2 0x100 EXP SWAP1 DIV PUSH20 0xFFFFFFFFFFFFFFFFFFFFFFFFFFFFFFFFFFFFFFFF AND DUP2 JUMP JUMPDEST PUSH1 0x4 DUP2 DUP2 SLOAD DUP2 LT PUSH2 0x137 JUMPI PUSH0 DUP1 REVERT JUMPDEST SWAP1 PUSH0 MSTORE PUSH1 0x20 PUSH0 KECCAK256 SWAP1 PUSH1 0x5 MUL ADD PUSH0 SWAP2 POP SWAP1 POP DUP1 PUSH0 ADD PUSH0 SWAP1 SLOAD SWAP1 PUSH2 0x100 EXP SWAP1 DIV PUSH20 0xFFFFFFFFFFFFFFFFFFFFFFFFFFFFFFFFFFFFFFFF AND SWAP1 DUP1 PUSH1 0x1 ADD SLOAD SWAP1 DUP1 PUSH1 0x2 ADD DUP1 SLOAD PUSH2 0x181 SWAP1 PUSH2 0x417 JUMP JUMPDEST DUP1 PUSH1 0x1F ADD PUSH1 0x20 DUP1 SWAP2 DIV MUL PUSH1 0x20 ADD PUSH1 0x40 MLOAD SWAP1 DUP2 ADD PUSH1 0x40 MSTORE DUP1 SWAP3 SWAP2 SWAP1 DUP2 DUP2 MSTORE PUSH1 0x20 ADD DUP3 DUP1 SLOAD PUSH2 0x1AD SWAP1 PUSH2 0x417 JUMP JUMPDEST DUP1 ISZERO PUSH2 0x1F8 JUMPI DUP1 PUSH1 0x1F LT PUSH2 0x1CF JUMPI PUSH2 0x100 DUP1 DUP4 SLOAD DIV MUL DUP4 MSTORE SWAP2 PUSH1 0x20 ADD SWAP2 PUSH2 0x1F8 JUMP JUMPDEST DUP3 ADD SWAP2 SWAP1 PUSH0 MSTORE PUSH1 0x20 PUSH0 KECCAK256 SWAP1 JUMPDEST DUP2 SLOAD DUP2 MSTORE SWAP1 PUSH1 0x1 ADD SWAP1 PUSH1 0x20 ADD DUP1 DUP4 GT PUSH2 0x1DB JUMPI DUP3 SWAP1 SUB PUSH1 0x1F AND DUP3 ADD SWAP2 JUMPDEST POP POP POP POP POP SWAP1 DUP1 PUSH1 0x3 ADD PUSH0 SWAP1 SLOAD SWAP1 PUSH2 0x100 EXP SWAP1 DIV PUSH1 0xFF AND SWAP1 DUP1 PUSH1 0x4 ADD SLOAD SWAP1 POP DUP6 JUMP JUMPDEST PUSH1 0x3 SLOAD DUP2 JUMP JUMPDEST PUSH1 0x1 SLOAD DUP2 JUMP JUMPDEST PUSH0 PUSH0 REVERT JUMPDEST PUSH0 DUP2 SWAP1 POP SWAP2 SWAP1 POP JUMP JUMPDEST PUSH2 0x23C DUP2 PUSH2 0x22A JUMP JUMPDEST DUP2 EQ PUSH2 0x246 JUMPI PUSH0 PUSH0 REVERT JUMPDEST POP JUMP JUMPDEST PUSH0 DUP2 CALLDATALOAD SWAP1 POP PUSH2 0x257 DUP2 PUSH2 0x233 JUMP JUMPDEST SWAP3 SWAP2 POP POP JUMP JUMPDEST PUSH0 PUSH1 0x20 DUP3 DUP5 SUB SLT ISZERO PUSH2 0x272 JUMPI PUSH2 0x271 PUSH2 0x226 JUMP JUMPDEST JUMPDEST PUSH0 PUSH2 0x27F DUP5 DUP3 DUP6 ADD PUSH2 0x249 JUMP JUMPDEST SWAP2 POP POP SWAP3 SWAP2 POP POP JUMP JUMPDEST PUSH0 PUSH20 0xFFFFFFFFFFFFFFFFFFFFFFFFFFFFFFFFFFFFFFFF DUP3 AND SWAP1 POP SWAP2 SWAP1 POP JUMP JUMPDEST PUSH0 PUSH2 0x2B1 DUP3 PUSH2 0x288 JUMP JUMPDEST SWAP1 POP SWAP2 SWAP1 POP JUMP JUMPDEST PUSH2 0x2C1 DUP2 PUSH2 0x2A7 JUMP JUMPDEST DUP3 MSTORE POP POP JUMP JUMPDEST PUSH0 PUSH1 0x20 DUP3 ADD SWAP1 POP PUSH2 0x2DA PUSH0 DUP4 ADD DUP5 PUSH2 0x2B8 JUMP JUMPDEST SWAP3 SWAP2 POP POP JUMP JUMPDEST PUSH2 0x2E9 DUP2 PUSH2 0x22A JUMP JUMPDEST DUP3 MSTORE POP POP JUMP JUMPDEST PUSH0 DUP2 MLOAD SWAP1 POP SWAP2 SWAP1 POP JUMP JUMPDEST PUSH0 DUP3 DUP3 MSTORE PUSH1 0x20 DUP3 ADD SWAP1 POP SWAP3 SWAP2 POP POP JUMP JUMPDEST DUP3 DUP2 DUP4 MCOPY PUSH0 DUP4 DUP4 ADD MSTORE POP POP POP JUMP JUMPDEST PUSH0 PUSH1 0x1F NOT PUSH1 0x1F DUP4 ADD AND SWAP1 POP SWAP2 SWAP1 POP JUMP JUMPDEST PUSH0 PUSH2 0x331 DUP3 PUSH2 0x2EF JUMP JUMPDEST PUSH2 0x33B DUP2 DUP6 PUSH2 0x2F9 JUMP JUMPDEST SWAP4 POP PUSH2 0x34B DUP2 DUP6 PUSH1 0x20 DUP7 ADD PUSH2 0x309 JUMP JUMPDEST PUSH2 0x354 DUP2 PUSH2 0x317 JUMP JUMPDEST DUP5 ADD SWAP2 POP POP SWAP3 SWAP2 POP POP JUMP JUMPDEST PUSH0 DUP2 ISZERO ISZERO SWAP1 POP SWAP2 SWAP1 POP JUMP JUMPDEST PUSH2 0x373 DUP2 PUSH2 0x35F JUMP JUMPDEST DUP3 MSTORE POP POP JUMP JUMPDEST PUSH0 PUSH1 0xA0 DUP3 ADD SWAP1 POP PUSH2 0x38C PUSH0 DUP4 ADD DUP9 PUSH2 0x2B8 JUMP JUMPDEST PUSH2 0x399 PUSH1 0x20 DUP4 ADD DUP8 PUSH2 0x2E0 JUMP JUMPDEST DUP2 DUP2 SUB PUSH1 0x40 DUP4 ADD MSTORE PUSH2 0x3AB DUP2 DUP7 PUSH2 0x327 JUMP JUMPDEST SWAP1 POP PUSH2 0x3BA PUSH1 0x60 DUP4 ADD DUP6 PUSH2 0x36A JUMP JUMPDEST PUSH2 0x3C7 PUSH1 0x80 DUP4 ADD DUP5 PUSH2 0x2E0 JUMP JUMPDEST SWAP7 SWAP6 POP POP POP POP POP POP JUMP JUMPDEST PUSH0 PUSH1 0x20 DUP3 ADD SWAP1 POP PUSH2 0x3E4 PUSH0 DUP4 ADD DUP5 PUSH2 0x2E0 JUMP JUMPDEST SWAP3 SWAP2 POP POP JUMP JUMPDEST PUSH32 0x4E487B7100000000000000000000000000000000000000000000000000000000 PUSH0 MSTORE PUSH1 0x22 PUSH1 0x4 MSTORE PUSH1 0x24 PUSH0 REVERT JUMPDEST PUSH0 PUSH1 0x2 DUP3 DIV SWAP1 POP PUSH1 0x1 DUP3 AND DUP1 PUSH2 0x42E JUMPI PUSH1 0x7F DUP3 AND SWAP2 POP JUMPDEST PUSH1 0x20 DUP3 LT DUP2 SUB PUSH2 0x441 JUMPI PUSH2 0x440 PUSH2 0x3EA JUMP JUMPDEST JUMPDEST POP SWAP2 SWAP1 POP JUMP INVALID LOG2 PUSH5 0x6970667358 0x22 SLT KECCAK256 ORIGIN PC STATICCALL CALLVALUE SWAP5 RETURNCONTRACT 0x7F NOT DUP4 SWAP9 0xB3 0x4C LOG4 DUP15 DUP7 PUSH28 0x66FC7235874F7B7B54B089843CEE24F264736F6C6343000822003300 "
				},
				"gasEstimates": {
					"creation": {
						"codeDepositCost": "229800",
						"executionCost": "5272",
						"totalCost": "235072"
					},
					"external": {
						"owners(uint256)": "4921",
						"required()": "2469",
						"transactionCount()": "2447",
						"transactions(uint256)": "infinite"
					}
				},
				"methodIdentifiers": {
					"owners(uint256)": "025e7c27",
					"required()": "dc8452cd",
					"transactionCount()": "b77bf600",
					"transactions(uint256)": "9ace38c2"
				}
			},
			"storageLayout": {
				"storage": [
					{
						"astId": 16,
						"contract": "lession3.3-Function/MultiSignatureWallet.sol:MultiSignatureWallet",
						"label": "owners",
						"offset": 0,
						"slot": "0",
						"type": "t_array(t_address)dyn_storage"
					},
					{
						"astId": 18,
						"contract": "lession3.3-Function/MultiSignatureWallet.sol:MultiSignatureWallet",
						"label": "required",
						"offset": 0,
						"slot": "1",
						"type": "t_uint256"
					},
					{
						"astId": 22,
						"contract": "lession3.3-Function/MultiSignatureWallet.sol:MultiSignatureWallet",
						"label": "isOwner",
						"offset": 0,
						"slot": "2",
						"type": "t_mapping(t_address,t_bool)"
					},
					{
						"astId": 25,
						"contract": "lession3.3-Function/MultiSignatureWallet.sol:MultiSignatureWallet",
						"label": "transactionCount",
						"offset": 0,
						"slot": "3",
						"type": "t_uint256"
					},
					{
						"astId": 29,
						"contract": "lession3.3-Function/MultiSignatureWallet.sol:MultiSignatureWallet",
						"label": "transactions",
						"offset": 0,
						"slot": "4",
						"type": "t_array(t_struct(Transaction)13_storage)dyn_storage"
					}
				],
				"types": {
					"t_address": {
						"encoding": "inplace",
						"label": "address",
						"numberOfBytes": "20"
					},
					"t_array(t_address)dyn_storage": {
						"base": "t_address",
						"encoding": "dynamic_array",
						"label": "address[]",
						"numberOfBytes": "32"
					},
					"t_array(t_struct(Transaction)13_storage)dyn_storage": {
						"base": "t_struct(Transaction)13_storage",
						"encoding": "dynamic_array",
						"label": "struct MultiSignatureWallet.Transaction[]",
						"numberOfBytes": "32"
					},
					"t_bool": {
						"encoding": "inplace",
						"label": "bool",
						"numberOfBytes": "1"
					},
					"t_bytes_storage": {
						"encoding": "bytes",
						"label": "bytes",
						"numberOfBytes": "32"
					},
					"t_mapping(t_address,t_bool)": {
						"encoding": "mapping",
						"key": "t_address",
						"label": "mapping(address => bool)",
						"numberOfBytes": "32",
						"value": "t_bool"
					},
					"t_struct(Transaction)13_storage": {
						"encoding": "inplace",
						"label": "struct MultiSignatureWallet.Transaction",
						"members": [
							{
								"astId": 4,
								"contract": "lession3.3-Function/MultiSignatureWallet.sol:MultiSignatureWallet",
								"label": "to",
								"offset": 0,
								"slot": "0",
								"type": "t_address"
							},
							{
								"astId": 6,
								"contract": "lession3.3-Function/MultiSignatureWallet.sol:MultiSignatureWallet",
								"label": "value",
								"offset": 0,
								"slot": "1",
								"type": "t_uint256"
							},
							{
								"astId": 8,
								"contract": "lession3.3-Function/MultiSignatureWallet.sol:MultiSignatureWallet",
								"label": "data",
								"offset": 0,
								"slot": "2",
								"type": "t_bytes_storage"
							},
							{
								"astId": 10,
								"contract": "lession3.3-Function/MultiSignatureWallet.sol:MultiSignatureWallet",
								"label": "executed",
								"offset": 0,
								"slot": "3",
								"type": "t_bool"
							},
							{
								"astId": 12,
								"contract": "lession3.3-Function/MultiSignatureWallet.sol:MultiSignatureWallet",
								"label": "confirmations",
								"offset": 0,
								"slot": "4",
								"type": "t_uint256"
							}
						],
						"numberOfBytes": "160"
					},
					"t_uint256": {
						"encoding": "inplace",
						"label": "uint256",
						"numberOfBytes": "32"
					}
				}
			},
			"userdoc": {
				"kind": "user",
				"methods": {},
				"notice": "需求： 创建⼀个简单的多签名钱包： 1. 需要多个签名者确认才能执⾏交易 2. 提交交易提案 3. 签名者确认提案 4. 达到阈值后执⾏ 提示： 使⽤struct存储提案 使⽤mapping记录确认 使⽤modifier检查权限",
				"version": 1
			}
		}
	}
}