{
  "_format": "hh3-artifact-1",
  "contractName": "TotoroMarketplace",
  "sourceName": "contracts/TotoroMarketplace.sol",
  "abi": [
    {
      "inputs": [
        {
          "internalType": "address",
          "name": "_feeRecipient",
          "type": "address"
        }
      ],
      "stateMutability": "nonpayable",
      "type": "constructor"
    },
    {
      "inputs": [],
      "name": "ReentrancyGuardReentrantCall",
      "type": "error"
    },
    {
      "anonymous": false,
      "inputs": [
        {
          "indexed": true,
          "internalType": "uint256",
          "name": "auctionId",
          "type": "uint256"
        },
        {
          "indexed": true,
          "internalType": "address",
          "name": "seller",
          "type": "address"
        },
        {
          "indexed": true,
          "internalType": "address",
          "name": "nftContract",
          "type": "address"
        },
        {
          "indexed": false,
          "internalType": "uint256",
          "name": "tokenId",
          "type": "uint256"
        },
        {
          "indexed": false,
          "internalType": "uint256",
          "name": "startPrice",
          "type": "uint256"
        },
        {
          "indexed": false,
          "internalType": "uint256",
          "name": "endTime",
          "type": "uint256"
        }
      ],
      "name": "AuctionCreated",
      "type": "event"
    },
    {
      "anonymous": false,
      "inputs": [
        {
          "indexed": true,
          "internalType": "uint256",
          "name": "auctionId",
          "type": "uint256"
        },
        {
          "indexed": true,
          "internalType": "address",
          "name": "winner",
          "type": "address"
        },
        {
          "indexed": false,
          "internalType": "uint256",
          "name": "finalPrice",
          "type": "uint256"
        }
      ],
      "name": "AuctionEnded",
      "type": "event"
    },
    {
      "anonymous": false,
      "inputs": [
        {
          "indexed": true,
          "internalType": "uint256",
          "name": "auctionId",
          "type": "uint256"
        },
        {
          "indexed": true,
          "internalType": "address",
          "name": "buyer",
          "type": "address"
        },
        {
          "indexed": false,
          "internalType": "uint256",
          "name": "amount",
          "type": "uint256"
        }
      ],
      "name": "BidPlaced",
      "type": "event"
    },
    {
      "anonymous": false,
      "inputs": [
        {
          "indexed": true,
          "internalType": "uint256",
          "name": "listingId",
          "type": "uint256"
        }
      ],
      "name": "NFTDelisted",
      "type": "event"
    },
    {
      "anonymous": false,
      "inputs": [
        {
          "indexed": true,
          "internalType": "uint256",
          "name": "listingId",
          "type": "uint256"
        },
        {
          "indexed": true,
          "internalType": "address",
          "name": "seller",
          "type": "address"
        },
        {
          "indexed": true,
          "internalType": "address",
          "name": "nftContract",
          "type": "address"
        },
        {
          "indexed": false,
          "internalType": "uint256",
          "name": "tokenId",
          "type": "uint256"
        },
        {
          "indexed": false,
          "internalType": "uint256",
          "name": "price",
          "type": "uint256"
        }
      ],
      "name": "NFTListed",
      "type": "event"
    },
    {
      "anonymous": false,
      "inputs": [
        {
          "indexed": true,
          "internalType": "uint256",
          "name": "listingId",
          "type": "uint256"
        },
        {
          "indexed": true,
          "internalType": "address",
          "name": "buyer",
          "type": "address"
        },
        {
          "indexed": true,
          "internalType": "address",
          "name": "seller",
          "type": "address"
        },
        {
          "indexed": false,
          "internalType": "uint256",
          "name": "price",
          "type": "uint256"
        }
      ],
      "name": "NFTSold",
      "type": "event"
    },
    {
      "anonymous": false,
      "inputs": [
        {
          "indexed": true,
          "internalType": "uint256",
          "name": "listingId",
          "type": "uint256"
        },
        {
          "indexed": false,
          "internalType": "uint256",
          "name": "newPrice",
          "type": "uint256"
        }
      ],
      "name": "PriceUpdated",
      "type": "event"
    },
    {
      "inputs": [],
      "name": "auctionCounter",
      "outputs": [
        {
          "internalType": "uint256",
          "name": "",
          "type": "uint256"
        }
      ],
      "stateMutability": "view",
      "type": "function"
    },
    {
      "inputs": [
        {
          "internalType": "uint256",
          "name": "",
          "type": "uint256"
        }
      ],
      "name": "auctions",
      "outputs": [
        {
          "internalType": "address",
          "name": "seller",
          "type": "address"
        },
        {
          "internalType": "address",
          "name": "nftContract",
          "type": "address"
        },
        {
          "internalType": "uint256",
          "name": "tokenId",
          "type": "uint256"
        },
        {
          "internalType": "uint256",
          "name": "startPrice",
          "type": "uint256"
        },
        {
          "internalType": "uint256",
          "name": "highestBid",
          "type": "uint256"
        },
        {
          "internalType": "address",
          "name": "highestBidder",
          "type": "address"
        },
        {
          "internalType": "uint256",
          "name": "endTime",
          "type": "uint256"
        },
        {
          "internalType": "bool",
          "name": "active",
          "type": "bool"
        }
      ],
      "stateMutability": "view",
      "type": "function"
    },
    {
      "inputs": [
        {
          "internalType": "uint256",
          "name": "listingId",
          "type": "uint256"
        }
      ],
      "name": "buyNFT",
      "outputs": [],
      "stateMutability": "payable",
      "type": "function"
    },
    {
      "inputs": [
        {
          "internalType": "address",
          "name": "nftContract",
          "type": "address"
        },
        {
          "internalType": "uint256",
          "name": "tokenId",
          "type": "uint256"
        },
        {
          "internalType": "uint256",
          "name": "startPrice",
          "type": "uint256"
        },
        {
          "internalType": "uint256",
          "name": "durationHours",
          "type": "uint256"
        }
      ],
      "name": "createAuction",
      "outputs": [
        {
          "internalType": "uint256",
          "name": "",
          "type": "uint256"
        }
      ],
      "stateMutability": "nonpayable",
      "type": "function"
    },
    {
      "inputs": [
        {
          "internalType": "uint256",
          "name": "listingId",
          "type": "uint256"
        }
      ],
      "name": "delistNFT",
      "outputs": [],
      "stateMutability": "nonpayable",
      "type": "function"
    },
    {
      "inputs": [
        {
          "internalType": "uint256",
          "name": "auctionId",
          "type": "uint256"
        }
      ],
      "name": "endAuction",
      "outputs": [],
      "stateMutability": "nonpayable",
      "type": "function"
    },
    {
      "inputs": [],
      "name": "feeRecipient",
      "outputs": [
        {
          "internalType": "address",
          "name": "",
          "type": "address"
        }
      ],
      "stateMutability": "view",
      "type": "function"
    },
    {
      "inputs": [
        {
          "internalType": "uint256",
          "name": "auctionId",
          "type": "uint256"
        }
      ],
      "name": "getAuction",
      "outputs": [
        {
          "internalType": "address",
          "name": "seller",
          "type": "address"
        },
        {
          "internalType": "address",
          "name": "nftContract",
          "type": "address"
        },
        {
          "internalType": "uint256",
          "name": "tokenId",
          "type": "uint256"
        },
        {
          "internalType": "uint256",
          "name": "startPrice",
          "type": "uint256"
        },
        {
          "internalType": "uint256",
          "name": "highestBid",
          "type": "uint256"
        },
        {
          "internalType": "address",
          "name": "highestBidder",
          "type": "address"
        },
        {
          "internalType": "uint256",
          "name": "endTime",
          "type": "uint256"
        },
        {
          "internalType": "bool",
          "name": "active",
          "type": "bool"
        }
      ],
      "stateMutability": "view",
      "type": "function"
    },
    {
      "inputs": [
        {
          "internalType": "uint256",
          "name": "listingId",
          "type": "uint256"
        }
      ],
      "name": "getListing",
      "outputs": [
        {
          "internalType": "address",
          "name": "seller",
          "type": "address"
        },
        {
          "internalType": "address",
          "name": "nftContract",
          "type": "address"
        },
        {
          "internalType": "uint256",
          "name": "tokenId",
          "type": "uint256"
        },
        {
          "internalType": "uint256",
          "name": "price",
          "type": "uint256"
        },
        {
          "internalType": "bool",
          "name": "active",
          "type": "bool"
        }
      ],
      "stateMutability": "view",
      "type": "function"
    },
    {
      "inputs": [
        {
          "internalType": "address",
          "name": "nftContract",
          "type": "address"
        },
        {
          "internalType": "uint256",
          "name": "tokenId",
          "type": "uint256"
        },
        {
          "internalType": "uint256",
          "name": "price",
          "type": "uint256"
        }
      ],
      "name": "listNFT",
      "outputs": [
        {
          "internalType": "uint256",
          "name": "",
          "type": "uint256"
        }
      ],
      "stateMutability": "nonpayable",
      "type": "function"
    },
    {
      "inputs": [],
      "name": "listingCounter",
      "outputs": [
        {
          "internalType": "uint256",
          "name": "",
          "type": "uint256"
        }
      ],
      "stateMutability": "view",
      "type": "function"
    },
    {
      "inputs": [
        {
          "internalType": "uint256",
          "name": "",
          "type": "uint256"
        }
      ],
      "name": "listings",
      "outputs": [
        {
          "internalType": "address",
          "name": "seller",
          "type": "address"
        },
        {
          "internalType": "address",
          "name": "nftContract",
          "type": "address"
        },
        {
          "internalType": "uint256",
          "name": "tokenId",
          "type": "uint256"
        },
        {
          "internalType": "uint256",
          "name": "price",
          "type": "uint256"
        },
        {
          "internalType": "bool",
          "name": "active",
          "type": "bool"
        }
      ],
      "stateMutability": "view",
      "type": "function"
    },
    {
      "inputs": [
        {
          "internalType": "uint256",
          "name": "auctionId",
          "type": "uint256"
        }
      ],
      "name": "placeBid",
      "outputs": [],
      "stateMutability": "payable",
      "type": "function"
    },
    {
      "inputs": [],
      "name": "platformFee",
      "outputs": [
        {
          "internalType": "uint256",
          "name": "",
          "type": "uint256"
        }
      ],
      "stateMutability": "view",
      "type": "function"
    },
    {
      "inputs": [
        {
          "internalType": "uint256",
          "name": "newFee",
          "type": "uint256"
        }
      ],
      "name": "setPlatformFee",
      "outputs": [],
      "stateMutability": "nonpayable",
      "type": "function"
    },
    {
      "inputs": [
        {
          "internalType": "address",
          "name": "newRecipient",
          "type": "address"
        }
      ],
      "name": "updateFeeRecipient",
      "outputs": [],
      "stateMutability": "nonpayable",
      "type": "function"
    },
    {
      "inputs": [
        {
          "internalType": "uint256",
          "name": "listingId",
          "type": "uint256"
        },
        {
          "internalType": "uint256",
          "name": "newPrice",
          "type": "uint256"
        }
      ],
      "name": "updatePrice",
      "outputs": [],
      "stateMutability": "nonpayable",
      "type": "function"
    },
    {
      "inputs": [
        {
          "internalType": "uint256",
          "name": "auctionId",
          "type": "uint256"
        }
      ],
      "name": "withdrawBid",
      "outputs": [],
      "stateMutability": "nonpayable",
      "type": "function"
    }
  ],
  "bytecode": "0x608060405260fa600555348015610014575f5ffd5b506040516120e23803806120e2833981016040819052610033916100d6565b60017f9b779b17422d0df92223018b32b4d1fa46e071723d6817e2486d003becc55f00556001600160a01b0381166100b15760405162461bcd60e51b815260206004820152601660248201527f496e76616c69642066656520726563697069656e742100000000000000000000604482015260640160405180910390fd5b600680546001600160a01b0319166001600160a01b0392909216919091179055610103565b5f602082840312156100e6575f5ffd5b81516001600160a01b03811681146100fc575f5ffd5b9392505050565b611fd2806101105f395ff3fe608060405260043610610105575f3560e01c806378bd793511610092578063ad05f1b411610062578063ad05f1b414610459578063b9a2de3a14610478578063cb917b9c14610497578063de74e57b146104b6578063f160d3691461050d575f5ffd5b806378bd79351461036257806382367b2d146104125780639979ef4514610431578063a7e7664414610444575f5ffd5b806346904840116100d8578063469048401461022557806351ed82881461025c578063571a26a01461026f57806361beb1d71461032e5780636c2c9c7d1461034d575f5ffd5b80630eaaf4c814610109578063107a274a1461012a57806312e8e2c3146101e357806326232a2e14610202575b5f5ffd5b348015610114575f5ffd5b50610128610123366004611db1565b61052c565b005b348015610135575f5ffd5b506101a9610144366004611db1565b5f9081526020818152604091829020825160a08101845281546001600160a01b039081168083526001840154909116938201849052600283015494820185905260038301546060830181905260049093015460ff161515608090920182905294929392565b604080516001600160a01b0396871681529590941660208601529284019190915260608301521515608082015260a0015b60405180910390f35b3480156101ee575f5ffd5b506101286101fd366004611db1565b610634565b34801561020d575f5ffd5b5061021760055481565b6040519081526020016101da565b348015610230575f5ffd5b50600654610244906001600160a01b031681565b6040516001600160a01b0390911681526020016101da565b61012861026a366004611db1565b6106c8565b34801561027a575f5ffd5b506102de610289366004611db1565b600260208190525f9182526040909120805460018201549282015460038301546004840154600585015460068601546007909601546001600160a01b0395861697861696949593949293909116919060ff1688565b604080516001600160a01b03998a16815297891660208901528701959095526060860193909352608085019190915290931660a083015260c082019290925290151560e0820152610100016101da565b348015610339575f5ffd5b50610217610348366004611ddc565b610bae565b348015610358575f5ffd5b5061021760015481565b34801561036d575f5ffd5b506102de61037c366004611db1565b5f9081526002602081815260409283902083516101008101855281546001600160a01b039081168083526001840154821694830185905294830154958201869052600383015460608301819052600484015460808401819052600585015490921660a08401819052600685015460c0850181905260079095015460ff16151560e090940184905295979496959094919390929091565b34801561041d575f5ffd5b5061012861042c366004611e14565b610ff0565b61012861043f366004611db1565b611120565b34801561044f575f5ffd5b5061021760035481565b348015610464575f5ffd5b50610217610473366004611e34565b611339565b348015610483575f5ffd5b50610128610492366004611db1565b6116a4565b3480156104a2575f5ffd5b506101286104b1366004611db1565b611ad6565b3480156104c1575f5ffd5b506101a96104d0366004611db1565b5f60208190529081526040902080546001820154600283015460038401546004909401546001600160a01b03938416949390921692909160ff1685565b348015610518575f5ffd5b50610128610527366004611e66565b611bb2565b5f8181526004602090815260408083203384529091529020548061058b5760405162461bcd60e51b81526020600482015260116024820152702737903832b73234b733903932ba3ab93760791b60448201526064015b60405180910390fd5b5f8281526004602090815260408083203380855292528083208390555183908381818185875af1925050503d805f81146105e0576040519150601f19603f3d011682016040523d82523d5f602084013e6105e5565b606091505b505090508061062f5760405162461bcd60e51b8152602060048201526016602482015275109a5919195c881dda5d1a191c985dc819985a5b195960521b6044820152606401610582565b505050565b6006546001600160a01b031633146106825760405162461bcd60e51b8152602060048201526011602482015270139bdd0819995948149958da5c1a595b9d607a1b6044820152606401610582565b6103e88111156106c35760405162461bcd60e51b815260206004820152600c60248201526b08ccaca40e8dede40d0d2ced60a31b6044820152606401610582565b600555565b6106d0611c6a565b5f818152602081905260409020600481015460ff166107265760405162461bcd60e51b81526020600482015260126024820152714c697374696e67206e6f742061637469766560701b6044820152606401610582565b80600301543410156107715760405162461bcd60e51b8152602060048201526014602482015273125b9cdd59999a58da595b9d081c185e5b595b9d60621b6044820152606401610582565b80546001600160a01b031633036107ca5760405162461bcd60e51b815260206004820152601760248201527f43616e6e6f742062757920796f757273656c66204e46540000000000000000006044820152606401610582565b60048101805460ff1916905560055460038201545f91612710916107ee9190611e9c565b6107f89190611eb9565b90505f5f610825846001015f9054906101000a90046001600160a01b031685600201548660030154611c85565b915091505f8184866003015461083b9190611ed8565b6108459190611ed8565b600186015486546002880154604051632142170760e11b81526001600160a01b039283166004820152336024820152604481019190915292935016906342842e0e906064015f604051808303815f87803b1580156108a1575f5ffd5b505af11580156108b3573d5f5f3e3d5ffd5b505050505f821180156108ce57506001600160a01b03831615155b1561096e575f836001600160a01b0316836040515f6040518083038185875af1925050503d805f811461091c576040519150601f19603f3d011682016040523d82523d5f602084013e610921565b606091505b505090508061096c5760405162461bcd60e51b8152602060048201526017602482015276149bde585b1d1e481d1c985b9cd9995c8819985a5b1959604a1b6044820152606401610582565b505b6006546040515f916001600160a01b03169086908381818185875af1925050503d805f81146109b8576040519150601f19603f3d011682016040523d82523d5f602084013e6109bd565b606091505b5050905080610a045760405162461bcd60e51b8152602060048201526013602482015272151c985b9cd9995c881999594819985a5b1959606a1b6044820152606401610582565b85546040515f916001600160a01b03169084908381818185875af1925050503d805f8114610a4d576040519150601f19603f3d011682016040523d82523d5f602084013e610a52565b606091505b5050905080610aa35760405162461bcd60e51b815260206004820152601a60248201527f5472616e7366657220746f2073656c6c6572206661696c6564210000000000006044820152606401610582565b8660030154341115610b445760038701545f903390610ac29034611ed8565b6040515f81818185875af1925050503d805f8114610afb576040519150601f19603f3d011682016040523d82523d5f602084013e610b00565b606091505b5050905080610b425760405162461bcd60e51b815260206004820152600e60248201526d1499599bdd5b990819985a5b195960921b6044820152606401610582565b505b865460038801546040519081526001600160a01b039091169033908a907f8562eb94748e30bb0071e932744ce902b460c683474fcb3bfd567ffa16b1afb29060200160405180910390a450505050505050610bab60015f516020611f7d5f395f51905f5255565b50565b5f5f8311610c095760405162461bcd60e51b815260206004820152602260248201527f5374617274207072696365206d7573742062652067726561746572207468616e604482015261020360f41b6064820152608401610582565b60018211610c655760405162461bcd60e51b8152602060048201526024808201527f4475726174696f6e206d75737420626520677261746572207468616e203120686044820152636f75727360e01b6064820152608401610582565b6001600160a01b038516610cb25760405162461bcd60e51b8152602060048201526014602482015273125b9d985b1a59081391950818dbdb9d1c9858dd60621b6044820152606401610582565b6040516331a9108f60e11b815260048101859052859033906001600160a01b03831690636352211e90602401602060405180830381865afa158015610cf9573d5f5f3e3d5ffd5b505050506040513d601f19601f82011682018060405250810190610d1d9190611eeb565b6001600160a01b031614610d635760405162461bcd60e51b815260206004820152600d60248201526c2737ba103a34329037bbb732b960991b6044820152606401610582565b60405163020604bf60e21b81526004810186905230906001600160a01b0383169063081812fc90602401602060405180830381865afa158015610da8573d5f5f3e3d5ffd5b505050506040513d601f19601f82011682018060405250810190610dcc9190611eeb565b6001600160a01b03161480610e48575060405163e985e9c560e01b81523360048201523060248201526001600160a01b0382169063e985e9c590604401602060405180830381865afa158015610e24573d5f5f3e3d5ffd5b505050506040513d601f19601f82011682018060405250810190610e489190611f06565b610e8f5760405162461bcd60e51b815260206004820152601860248201527713585c9ad95d1c1b1858d9481b9bdd08185c1c1c9bdd995960421b6044820152606401610582565b60038054905f610e9e83611f25565b909155505f9050610eb184610e10611e9c565b610ebb9042611f3d565b6040805161010081018252338082526001600160a01b038b811660208085018281528587018e8152606087018e81525f6080890181815260a08a0182815260c08b018d8152600160e08d0181815260038054875260029a8b9052958f90209d518e54908d166001600160a01b0319918216178f559851918e018054928d16928a16929092179091559551978c019790975592518a8301555160048a01559051600589018054919097169316929092179094559051600686015591516007909401805494151560ff199095169490941790935554925193945090929091907f06b9e486c68303eb64052e0493f906f3d93a1b7149b6b8dcff221aebd16c351390610fda908b908b9088909283526020830191909152604082015260600190565b60405180910390a4505060035495945050505050565b5f811161103f5760405162461bcd60e51b815260206004820152601c60248201527f5072696365206d7573742062652067726561746572207468616e2030000000006044820152606401610582565b5f828152602081905260409020600481015460ff166110955760405162461bcd60e51b81526020600482015260126024820152714c697374696e67206e6f742061637469766560701b6044820152606401610582565b80546001600160a01b031633146110df5760405162461bcd60e51b815260206004820152600e60248201526d2737ba103a34329039b2b63632b960911b6044820152606401610582565b6003810182905560405182815283907f945c1c4e99aa89f648fbfe3df471b916f719e16d960fcec0737d4d56bd6968389060200160405180910390a2505050565b5f818152600260205260409020600781015460ff166111765760405162461bcd60e51b815260206004820152601260248201527141756374696f6e206e6f742061637469766560701b6044820152606401610582565b806006015442106111ba5760405162461bcd60e51b815260206004820152600e60248201526d41756374696f6e20656e6465642160901b6044820152606401610582565b80546001600160a01b031633036112075760405162461bcd60e51b815260206004820152601160248201527014d95b1b195c8818d85b9b9bdd08189a59607a1b6044820152606401610582565b5f81600401545f0361121e5750600381015461124d565b6064826004015460056112319190611e9c565b61123b9190611eb9565b826004015461124a9190611f3d565b90505b8034101561128b5760405162461bcd60e51b815260206004820152600b60248201526a42696420746f6f206c6f7760a81b6044820152606401610582565b60058201546001600160a01b0316156112df576004808301545f8581526020928352604080822060058701546001600160a01b031683529093529182208054919290916112d9908490611f3d565b90915550505b34600483018190556005830180546001600160a01b031916339081179091556040519182529084907f0e54eff26401bf69b81b26f60bd85ef47f5d85275c1d268d84f68d6897431c479060200160405180910390a3505050565b5f5f82116113895760405162461bcd60e51b815260206004820152601c60248201527f5072696365206d7573742062652067726561746572207468616e2030000000006044820152606401610582565b6001600160a01b0384166113d75760405162461bcd60e51b8152602060048201526015602482015274496e76616c6964204e465420636f6e74726163742160581b6044820152606401610582565b6040516331a9108f60e11b815260048101849052849033906001600160a01b03831690636352211e90602401602060405180830381865afa15801561141e573d5f5f3e3d5ffd5b505050506040513d601f19601f820116820180604052508101906114429190611eeb565b6001600160a01b0316146114885760405162461bcd60e51b815260206004820152600d60248201526c2737ba103a34329037bbb732b960991b6044820152606401610582565b60405163020604bf60e21b81526004810185905230906001600160a01b0383169063081812fc90602401602060405180830381865afa1580156114cd573d5f5f3e3d5ffd5b505050506040513d601f19601f820116820180604052508101906114f19190611eeb565b6001600160a01b0316148061156d575060405163e985e9c560e01b81523360048201523060248201526001600160a01b0382169063e985e9c590604401602060405180830381865afa158015611549573d5f5f3e3d5ffd5b505050506040513d601f19601f8201168201806040525081019061156d9190611f06565b6115b45760405162461bcd60e51b815260206004820152601860248201527713585c9ad95d1c1b1858d9481b9bdd08185c1c1c9bdd995960421b6044820152606401610582565b60018054905f6115c383611f25565b90915550506040805160a081018252338082526001600160a01b0388811660208085018281528587018b8152606087018b815260016080890181815281545f9081528087528b902099518a549089166001600160a01b0319918216178b5594518a830180549190991695169490941790965590516002880155516003870155516004909501805495151560ff1990961695909517909455905484518981529384018890529093919290917fb0fe4922ac99799c17a4130d5c045ba2ecdf6e15b75b9ea84aaf0dc28724a42b910160405180910390a450506001549392505050565b6116ac611c6a565b5f818152600260205260409020600781015460ff166117025760405162461bcd60e51b815260206004820152601260248201527141756374696f6e206e6f742061637469766560701b6044820152606401610582565b806006015442101561174a5760405162461bcd60e51b8152602060048201526011602482015270105d58dd1a5bdb881b9bdd08195b991959607a1b6044820152606401610582565b60078101805460ff1916905560058101546001600160a01b031615611a87575f612710600554836004015461177f9190611e9c565b6117899190611eb9565b90505f5f6117b6846001015f9054906101000a90046001600160a01b031685600201548660040154611c85565b915091505f818486600401546117cc9190611ed8565b6117d69190611ed8565b6001860154865460058801546002890154604051632142170760e11b81526001600160a01b0393841660048201529183166024830152604482015292935016906342842e0e906064015f604051808303815f87803b158015611836575f5ffd5b505af1158015611848573d5f5f3e3d5ffd5b505050505f8211801561186357506001600160a01b03831615155b15611903575f836001600160a01b0316836040515f6040518083038185875af1925050503d805f81146118b1576040519150601f19603f3d011682016040523d82523d5f602084013e6118b6565b606091505b50509050806119015760405162461bcd60e51b8152602060048201526017602482015276149bde585b1d1e481d1c985b9cd9995c8819985a5b1959604a1b6044820152606401610582565b505b6006546040515f916001600160a01b03169086908381818185875af1925050503d805f811461194d576040519150601f19603f3d011682016040523d82523d5f602084013e611952565b606091505b50509050806119995760405162461bcd60e51b8152602060048201526013602482015272119959481d1c985b9cd9995c8819985a5b1959606a1b6044820152606401610582565b85546040515f916001600160a01b03169084908381818185875af1925050503d805f81146119e2576040519150601f19603f3d011682016040523d82523d5f602084013e6119e7565b606091505b5050905080611a315760405162461bcd60e51b815260206004820152601660248201527514d95b1b195c88151c985b9cd9995c8819985a5b195960521b6044820152606401610582565b600587015460048801546040519081526001600160a01b039091169089907fd2aa34a4fdbbc6dff6a3e56f46e0f3ae2a31d7785ff3487aa5c95c642acea5019060200160405180910390a3505050505050611abf565b6040515f8082529083907fd2aa34a4fdbbc6dff6a3e56f46e0f3ae2a31d7785ff3487aa5c95c642acea5019060200160405180910390a35b50610bab60015f516020611f7d5f395f51905f5255565b5f818152602081905260409020600481015460ff16611b2d5760405162461bcd60e51b81526020600482015260136024820152724c697374696e67206e6f74206163746976652160681b6044820152606401610582565b80546001600160a01b03163314611b785760405162461bcd60e51b815260206004820152600f60248201526e4e6f74207468652073656c6c65722160881b6044820152606401610582565b60048101805460ff1916905560405182907fc0c55a6edead4433d18cb1e287a0a20a2fa003a6f483bc9823d2e504d70d1c67905f90a25050565b6006546001600160a01b03163314611c005760405162461bcd60e51b8152602060048201526011602482015270139bdd08199959481c9958da5c1a595b9d607a1b6044820152606401610582565b6001600160a01b038116611c485760405162461bcd60e51b815260206004820152600f60248201526e496e76616c6964206164647265737360881b6044820152606401610582565b600680546001600160a01b0319166001600160a01b0392909216919091179055565b611c72611d80565b60025f516020611f7d5f395f51905f5255565b6040516301ffc9a760e01b815263152a902d60e11b60048201525f9081906001600160a01b038616906301ffc9a790602401602060405180830381865afa158015611cd2573d5f5f3e3d5ffd5b505050506040513d601f19601f82011682018060405250810190611cf69190611f06565b15611d725760405163152a902d60e11b815260048101859052602481018490526001600160a01b03861690632a55205a906044016040805180830381865afa158015611d44573d5f5f3e3d5ffd5b505050506040513d601f19601f82011682018060405250810190611d689190611f50565b9092509050611d78565b505f9050805b935093915050565b5f516020611f7d5f395f51905f5254600203611daf57604051633ee5aeb560e01b815260040160405180910390fd5b565b5f60208284031215611dc1575f5ffd5b5035919050565b6001600160a01b0381168114610bab575f5ffd5b5f5f5f5f60808587031215611def575f5ffd5b8435611dfa81611dc8565b966020860135965060408601359560600135945092505050565b5f5f60408385031215611e25575f5ffd5b50508035926020909101359150565b5f5f5f60608486031215611e46575f5ffd5b8335611e5181611dc8565b95602085013595506040909401359392505050565b5f60208284031215611e76575f5ffd5b8135611e8181611dc8565b9392505050565b634e487b7160e01b5f52601160045260245ffd5b8082028115828204841417611eb357611eb3611e88565b92915050565b5f82611ed357634e487b7160e01b5f52601260045260245ffd5b500490565b81810381811115611eb357611eb3611e88565b5f60208284031215611efb575f5ffd5b8151611e8181611dc8565b5f60208284031215611f16575f5ffd5b81518015158114611e81575f5ffd5b5f60018201611f3657611f36611e88565b5060010190565b80820180821115611eb357611eb3611e88565b5f5f60408385031215611f61575f5ffd5b8251611f6c81611dc8565b602093909301519294929350505056fe9b779b17422d0df92223018b32b4d1fa46e071723d6817e2486d003becc55f00a264697066735822122049cf96724d572ddbac176f6f94785f02999a1f8448256c44bf478cbedf193fd564736f6c634300081c0033",
  "linkReferences": {},
  "deployedLinkReferences": {},
  "immutableReferences": {},
  "inputSourceName": "project/contracts/TotoroMarketplace.sol",
  "buildInfoId": "solc-0_8_28-e5559a3703dd10687f72d8dc57e9fcbe69a0ee74"
}