{
  "_format": "hh3-artifact-1",
  "contractName": "TotoroNFT",
  "sourceName": "contracts/TotoroNFT.sol",
  "abi": [
    {
      "inputs": [],
      "stateMutability": "nonpayable",
      "type": "constructor"
    },
    {
      "inputs": [
        {
          "internalType": "address",
          "name": "sender",
          "type": "address"
        },
        {
          "internalType": "uint256",
          "name": "tokenId",
          "type": "uint256"
        },
        {
          "internalType": "address",
          "name": "owner",
          "type": "address"
        }
      ],
      "name": "ERC721IncorrectOwner",
      "type": "error"
    },
    {
      "inputs": [
        {
          "internalType": "address",
          "name": "operator",
          "type": "address"
        },
        {
          "internalType": "uint256",
          "name": "tokenId",
          "type": "uint256"
        }
      ],
      "name": "ERC721InsufficientApproval",
      "type": "error"
    },
    {
      "inputs": [
        {
          "internalType": "address",
          "name": "approver",
          "type": "address"
        }
      ],
      "name": "ERC721InvalidApprover",
      "type": "error"
    },
    {
      "inputs": [
        {
          "internalType": "address",
          "name": "operator",
          "type": "address"
        }
      ],
      "name": "ERC721InvalidOperator",
      "type": "error"
    },
    {
      "inputs": [
        {
          "internalType": "address",
          "name": "owner",
          "type": "address"
        }
      ],
      "name": "ERC721InvalidOwner",
      "type": "error"
    },
    {
      "inputs": [
        {
          "internalType": "address",
          "name": "receiver",
          "type": "address"
        }
      ],
      "name": "ERC721InvalidReceiver",
      "type": "error"
    },
    {
      "inputs": [
        {
          "internalType": "address",
          "name": "sender",
          "type": "address"
        }
      ],
      "name": "ERC721InvalidSender",
      "type": "error"
    },
    {
      "inputs": [
        {
          "internalType": "uint256",
          "name": "tokenId",
          "type": "uint256"
        }
      ],
      "name": "ERC721NonexistentToken",
      "type": "error"
    },
    {
      "inputs": [
        {
          "internalType": "address",
          "name": "owner",
          "type": "address"
        }
      ],
      "name": "OwnableInvalidOwner",
      "type": "error"
    },
    {
      "inputs": [
        {
          "internalType": "address",
          "name": "account",
          "type": "address"
        }
      ],
      "name": "OwnableUnauthorizedAccount",
      "type": "error"
    },
    {
      "anonymous": false,
      "inputs": [
        {
          "indexed": true,
          "internalType": "address",
          "name": "owner",
          "type": "address"
        },
        {
          "indexed": true,
          "internalType": "address",
          "name": "approved",
          "type": "address"
        },
        {
          "indexed": true,
          "internalType": "uint256",
          "name": "tokenId",
          "type": "uint256"
        }
      ],
      "name": "Approval",
      "type": "event"
    },
    {
      "anonymous": false,
      "inputs": [
        {
          "indexed": true,
          "internalType": "address",
          "name": "owner",
          "type": "address"
        },
        {
          "indexed": true,
          "internalType": "address",
          "name": "operator",
          "type": "address"
        },
        {
          "indexed": false,
          "internalType": "bool",
          "name": "approved",
          "type": "bool"
        }
      ],
      "name": "ApprovalForAll",
      "type": "event"
    },
    {
      "anonymous": false,
      "inputs": [
        {
          "indexed": false,
          "internalType": "uint256",
          "name": "_fromTokenId",
          "type": "uint256"
        },
        {
          "indexed": false,
          "internalType": "uint256",
          "name": "_toTokenId",
          "type": "uint256"
        }
      ],
      "name": "BatchMetadataUpdate",
      "type": "event"
    },
    {
      "anonymous": false,
      "inputs": [
        {
          "indexed": false,
          "internalType": "uint256",
          "name": "_tokenId",
          "type": "uint256"
        }
      ],
      "name": "MetadataUpdate",
      "type": "event"
    },
    {
      "anonymous": false,
      "inputs": [
        {
          "indexed": true,
          "internalType": "address",
          "name": "minter",
          "type": "address"
        },
        {
          "indexed": true,
          "internalType": "uint256",
          "name": "tokenId",
          "type": "uint256"
        },
        {
          "indexed": false,
          "internalType": "string",
          "name": "uri",
          "type": "string"
        }
      ],
      "name": "NFTMinted",
      "type": "event"
    },
    {
      "anonymous": false,
      "inputs": [
        {
          "indexed": true,
          "internalType": "address",
          "name": "previousOwner",
          "type": "address"
        },
        {
          "indexed": true,
          "internalType": "address",
          "name": "newOwner",
          "type": "address"
        }
      ],
      "name": "OwnershipTransferred",
      "type": "event"
    },
    {
      "anonymous": false,
      "inputs": [
        {
          "indexed": true,
          "internalType": "address",
          "name": "from",
          "type": "address"
        },
        {
          "indexed": true,
          "internalType": "address",
          "name": "to",
          "type": "address"
        },
        {
          "indexed": true,
          "internalType": "uint256",
          "name": "tokenId",
          "type": "uint256"
        }
      ],
      "name": "Transfer",
      "type": "event"
    },
    {
      "inputs": [],
      "name": "MAX_SUPPLY",
      "outputs": [
        {
          "internalType": "uint256",
          "name": "",
          "type": "uint256"
        }
      ],
      "stateMutability": "view",
      "type": "function"
    },
    {
      "inputs": [
        {
          "internalType": "address",
          "name": "to",
          "type": "address"
        },
        {
          "internalType": "uint256",
          "name": "tokenId",
          "type": "uint256"
        }
      ],
      "name": "approve",
      "outputs": [],
      "stateMutability": "nonpayable",
      "type": "function"
    },
    {
      "inputs": [
        {
          "internalType": "address",
          "name": "owner",
          "type": "address"
        }
      ],
      "name": "balanceOf",
      "outputs": [
        {
          "internalType": "uint256",
          "name": "",
          "type": "uint256"
        }
      ],
      "stateMutability": "view",
      "type": "function"
    },
    {
      "inputs": [
        {
          "internalType": "uint256",
          "name": "tokenId",
          "type": "uint256"
        }
      ],
      "name": "getApproved",
      "outputs": [
        {
          "internalType": "address",
          "name": "",
          "type": "address"
        }
      ],
      "stateMutability": "view",
      "type": "function"
    },
    {
      "inputs": [
        {
          "internalType": "address",
          "name": "owner",
          "type": "address"
        },
        {
          "internalType": "address",
          "name": "operator",
          "type": "address"
        }
      ],
      "name": "isApprovedForAll",
      "outputs": [
        {
          "internalType": "bool",
          "name": "",
          "type": "bool"
        }
      ],
      "stateMutability": "view",
      "type": "function"
    },
    {
      "inputs": [
        {
          "internalType": "string",
          "name": "uri",
          "type": "string"
        }
      ],
      "name": "mint",
      "outputs": [
        {
          "internalType": "uint256",
          "name": "",
          "type": "uint256"
        }
      ],
      "stateMutability": "payable",
      "type": "function"
    },
    {
      "inputs": [],
      "name": "mintPrice",
      "outputs": [
        {
          "internalType": "uint256",
          "name": "",
          "type": "uint256"
        }
      ],
      "stateMutability": "view",
      "type": "function"
    },
    {
      "inputs": [],
      "name": "name",
      "outputs": [
        {
          "internalType": "string",
          "name": "",
          "type": "string"
        }
      ],
      "stateMutability": "view",
      "type": "function"
    },
    {
      "inputs": [],
      "name": "owner",
      "outputs": [
        {
          "internalType": "address",
          "name": "",
          "type": "address"
        }
      ],
      "stateMutability": "view",
      "type": "function"
    },
    {
      "inputs": [
        {
          "internalType": "uint256",
          "name": "tokenId",
          "type": "uint256"
        }
      ],
      "name": "ownerOf",
      "outputs": [
        {
          "internalType": "address",
          "name": "",
          "type": "address"
        }
      ],
      "stateMutability": "view",
      "type": "function"
    },
    {
      "inputs": [],
      "name": "renounceOwnership",
      "outputs": [],
      "stateMutability": "nonpayable",
      "type": "function"
    },
    {
      "inputs": [
        {
          "internalType": "address",
          "name": "from",
          "type": "address"
        },
        {
          "internalType": "address",
          "name": "to",
          "type": "address"
        },
        {
          "internalType": "uint256",
          "name": "tokenId",
          "type": "uint256"
        }
      ],
      "name": "safeTransferFrom",
      "outputs": [],
      "stateMutability": "nonpayable",
      "type": "function"
    },
    {
      "inputs": [
        {
          "internalType": "address",
          "name": "from",
          "type": "address"
        },
        {
          "internalType": "address",
          "name": "to",
          "type": "address"
        },
        {
          "internalType": "uint256",
          "name": "tokenId",
          "type": "uint256"
        },
        {
          "internalType": "bytes",
          "name": "data",
          "type": "bytes"
        }
      ],
      "name": "safeTransferFrom",
      "outputs": [],
      "stateMutability": "nonpayable",
      "type": "function"
    },
    {
      "inputs": [
        {
          "internalType": "address",
          "name": "operator",
          "type": "address"
        },
        {
          "internalType": "bool",
          "name": "approved",
          "type": "bool"
        }
      ],
      "name": "setApprovalForAll",
      "outputs": [],
      "stateMutability": "nonpayable",
      "type": "function"
    },
    {
      "inputs": [
        {
          "internalType": "uint256",
          "name": "newPrice",
          "type": "uint256"
        }
      ],
      "name": "setMintPrice",
      "outputs": [],
      "stateMutability": "nonpayable",
      "type": "function"
    },
    {
      "inputs": [
        {
          "internalType": "bytes4",
          "name": "interfaceId",
          "type": "bytes4"
        }
      ],
      "name": "supportsInterface",
      "outputs": [
        {
          "internalType": "bool",
          "name": "",
          "type": "bool"
        }
      ],
      "stateMutability": "view",
      "type": "function"
    },
    {
      "inputs": [],
      "name": "symbol",
      "outputs": [
        {
          "internalType": "string",
          "name": "",
          "type": "string"
        }
      ],
      "stateMutability": "view",
      "type": "function"
    },
    {
      "inputs": [
        {
          "internalType": "uint256",
          "name": "tokenId",
          "type": "uint256"
        }
      ],
      "name": "tokenURI",
      "outputs": [
        {
          "internalType": "string",
          "name": "",
          "type": "string"
        }
      ],
      "stateMutability": "view",
      "type": "function"
    },
    {
      "inputs": [],
      "name": "totalSupply",
      "outputs": [
        {
          "internalType": "uint256",
          "name": "",
          "type": "uint256"
        }
      ],
      "stateMutability": "view",
      "type": "function"
    },
    {
      "inputs": [
        {
          "internalType": "address",
          "name": "from",
          "type": "address"
        },
        {
          "internalType": "address",
          "name": "to",
          "type": "address"
        },
        {
          "internalType": "uint256",
          "name": "tokenId",
          "type": "uint256"
        }
      ],
      "name": "transferFrom",
      "outputs": [],
      "stateMutability": "nonpayable",
      "type": "function"
    },
    {
      "inputs": [
        {
          "internalType": "address",
          "name": "newOwner",
          "type": "address"
        }
      ],
      "name": "transferOwnership",
      "outputs": [],
      "stateMutability": "nonpayable",
      "type": "function"
    },
    {
      "inputs": [],
      "name": "withdraw",
      "outputs": [],
      "stateMutability": "nonpayable",
      "type": "function"
    }
  ],
  "bytecode": "0x6080604052662386f26fc1000060095534801561001a575f5ffd5b503360405180604001604052806009815260200168151bdd1bdc9bd3919560ba1b815250604051806040016040528060048152602001631513919560e21b815250815f9081610069919061019e565b506001610076828261019e565b5050506001600160a01b0381166100a657604051631e4fbdf760e01b81525f600482015260240160405180910390fd5b6100af816100b5565b50610258565b600780546001600160a01b038381166001600160a01b0319831681179093556040519116919082907f8be0079c531659141344cd1fd0a4f28419497f9722a3daafe3b4186f6b6457e0905f90a35050565b634e487b7160e01b5f52604160045260245ffd5b600181811c9082168061012e57607f821691505b60208210810361014c57634e487b7160e01b5f52602260045260245ffd5b50919050565b601f82111561019957805f5260205f20601f840160051c810160208510156101775750805b601f840160051c820191505b81811015610196575f8155600101610183565b50505b505050565b81516001600160401b038111156101b7576101b7610106565b6101cb816101c5845461011a565b84610152565b6020601f8211600181146101fd575f83156101e65750848201515b5f19600385901b1c1916600184901b178455610196565b5f84815260208120601f198516915b8281101561022c578785015182556020948501946001909201910161020c565b508482101561024957868401515f19600387901b60f8161c191681555b50505050600190811b01905550565b6116fb806102655f395ff3fe608060405260043610610131575f3560e01c806370a08231116100a8578063b88d4fde1161006d578063b88d4fde1461031e578063c87b56dd1461033d578063d85d3d271461035c578063e985e9c51461036f578063f2fde38b1461038e578063f4a0a528146103ad575f5ffd5b806370a082311461029b578063715018a6146102ba5780638da5cb5b146102ce57806395d89b41146102eb578063a22cb465146102ff575f5ffd5b806323b872dd116100f957806323b872dd1461020057806332cb6b0c1461021f5780633ccfd60b1461023457806342842e0e146102485780636352211e146102675780636817c76c14610286575f5ffd5b806301ffc9a71461013557806306fdde0314610169578063081812fc1461018a578063095ea7b3146101c157806318160ddd146101e2575b5f5ffd5b348015610140575f5ffd5b5061015461014f36600461122f565b6103cc565b60405190151581526020015b60405180910390f35b348015610174575f5ffd5b5061017d6103dc565b6040516101609190611278565b348015610195575f5ffd5b506101a96101a436600461128a565b61046b565b6040516001600160a01b039091168152602001610160565b3480156101cc575f5ffd5b506101e06101db3660046112bc565b610492565b005b3480156101ed575f5ffd5b506008545b604051908152602001610160565b34801561020b575f5ffd5b506101e061021a3660046112e4565b6104a1565b34801561022a575f5ffd5b506101f261271081565b34801561023f575f5ffd5b506101e061052f565b348015610253575f5ffd5b506101e06102623660046112e4565b610627565b348015610272575f5ffd5b506101a961028136600461128a565b610646565b348015610291575f5ffd5b506101f260095481565b3480156102a6575f5ffd5b506101f26102b536600461131e565b610650565b3480156102c5575f5ffd5b506101e0610695565b3480156102d9575f5ffd5b506007546001600160a01b03166101a9565b3480156102f6575f5ffd5b5061017d6106a8565b34801561030a575f5ffd5b506101e0610319366004611337565b6106b7565b348015610329575f5ffd5b506101e06103383660046113fb565b6106c2565b348015610348575f5ffd5b5061017d61035736600461128a565b6106da565b6101f261036a366004611472565b6106e5565b34801561037a575f5ffd5b506101546103893660046114b7565b6107eb565b348015610399575f5ffd5b506101e06103a836600461131e565b610818565b3480156103b8575f5ffd5b506101e06103c736600461128a565b610855565b5f6103d682610862565b92915050565b60605f80546103ea906114e8565b80601f0160208091040260200160405190810160405280929190818152602001828054610416906114e8565b80156104615780601f1061043857610100808354040283529160200191610461565b820191905f5260205f20905b81548152906001019060200180831161044457829003601f168201915b5050505050905090565b5f61047582610886565b505f828152600460205260409020546001600160a01b03166103d6565b61049d8282336108be565b5050565b6001600160a01b0382166104cf57604051633250574960e11b81525f60048201526024015b60405180910390fd5b5f6104db8383336108cb565b9050836001600160a01b0316816001600160a01b031614610529576040516364283d7b60e01b81526001600160a01b03808616600483015260248201849052821660448201526064016104c6565b50505050565b6105376109bd565b47806105855760405162461bcd60e51b815260206004820152601760248201527f4e6f2062616c616e636520746f2077697468647261772100000000000000000060448201526064016104c6565b5f6105986007546001600160a01b031690565b6001600160a01b0316826040515f6040518083038185875af1925050503d805f81146105df576040519150601f19603f3d011682016040523d82523d5f602084013e6105e4565b606091505b505090508061049d5760405162461bcd60e51b815260206004820152600f60248201526e1dda5d1a191c985dc819985a5b1959608a1b60448201526064016104c6565b61064183838360405180602001604052805f8152506106c2565b505050565b5f6103d682610886565b5f6001600160a01b03821661067a576040516322718ad960e21b81525f60048201526024016104c6565b506001600160a01b03165f9081526003602052604090205490565b61069d6109bd565b6106a65f6109ea565b565b6060600180546103ea906114e8565b61049d338383610a3b565b6106cd8484846104a1565b6105293385858585610b02565b60606103d682610c2a565b5f6127106008541061072f5760405162461bcd60e51b81526020600482015260136024820152724d617820737570706c7920726561636865642160681b60448201526064016104c6565b6009543410156107785760405162461bcd60e51b8152602060048201526014602482015273125b9cdd59999a58da595b9d081c185e5b595b9d60621b60448201526064016104c6565b60088054905f61078783611520565b90915550506008546107993382610cab565b6107a38184610cc4565b80336001600160a01b03167fd35bb95e09c04b219e35047ce7b7b300e3384264ef84a40456943dbc0fc17c14856040516107dd9190611278565b60405180910390a392915050565b6001600160a01b039182165f90815260056020908152604080832093909416825291909152205460ff1690565b6108206109bd565b6001600160a01b03811661084957604051631e4fbdf760e01b81525f60048201526024016104c6565b610852816109ea565b50565b61085d6109bd565b600955565b5f6001600160e01b03198216632483248360e11b14806103d657506103d682610d13565b5f818152600260205260408120546001600160a01b0316806103d657604051637e27328960e01b8152600481018490526024016104c6565b6106418383836001610d62565b5f828152600260205260408120546001600160a01b03908116908316156108f7576108f7818486610e66565b6001600160a01b03811615610931576109125f855f5f610d62565b6001600160a01b0381165f90815260036020526040902080545f190190555b6001600160a01b0385161561095f576001600160a01b0385165f908152600360205260409020805460010190555b5f8481526002602052604080822080546001600160a01b0319166001600160a01b0389811691821790925591518793918516917fddf252ad1be2c89b69c2b068fc378daa952ba7f163c4a11628f55a4df523b3ef91a4949350505050565b6007546001600160a01b031633146106a65760405163118cdaa760e01b81523360048201526024016104c6565b600780546001600160a01b038381166001600160a01b0319831681179093556040519116919082907f8be0079c531659141344cd1fd0a4f28419497f9722a3daafe3b4186f6b6457e0905f90a35050565b6001600160a01b038316610a645760405163a9fbf51f60e01b81525f60048201526024016104c6565b6001600160a01b038216610a9657604051630b61174360e31b81526001600160a01b03831660048201526024016104c6565b6001600160a01b038381165f81815260056020908152604080832094871680845294825291829020805460ff191686151590811790915591519182527f17307eab39ab6107e8899845ad3d59bd9653f200f220920489ca2b5937696c31910160405180910390a3505050565b6001600160a01b0383163b15610c2357604051630a85bd0160e11b81526001600160a01b0384169063150b7a0290610b44908890889087908790600401611544565b6020604051808303815f875af1925050508015610b7e575060408051601f3d908101601f19168201909252610b7b91810190611580565b60015b610be5573d808015610bab576040519150601f19603f3d011682016040523d82523d5f602084013e610bb0565b606091505b5080515f03610bdd57604051633250574960e11b81526001600160a01b03851660048201526024016104c6565b805160208201fd5b6001600160e01b03198116630a85bd0160e11b14610c2157604051633250574960e11b81526001600160a01b03851660048201526024016104c6565b505b5050505050565b6060610c3582610886565b505f610c4b60408051602081019091525f815290565b90505f610c5784610eca565b905081515f03610c68579392505050565b805115610c9a578181604051602001610c829291906115b2565b60405160208183030381529060405292505050919050565b610ca384610f69565b949350505050565b61049d828260405180602001604052805f815250610fda565b5f828152600660205260409020610cdb828261160a565b506040518281527ff8e1a15aba9398e019f0b49df1a4fde98ee17ae345cb5f6b5e2c27f5033e8ce79060200160405180910390a15050565b5f6001600160e01b031982166380ac58cd60e01b1480610d4357506001600160e01b03198216635b5e139f60e01b145b806103d657506301ffc9a760e01b6001600160e01b03198316146103d6565b8080610d7657506001600160a01b03821615155b15610e37575f610d8584610886565b90506001600160a01b03831615801590610db15750826001600160a01b0316816001600160a01b031614155b8015610dc45750610dc281846107eb565b155b15610ded5760405163a9fbf51f60e01b81526001600160a01b03841660048201526024016104c6565b8115610e355783856001600160a01b0316826001600160a01b03167f8c5be1e5ebec7d5bd14f71427d1e84f3dd0314c0f7b2291e5b200ac8c7c3b92560405160405180910390a45b505b50505f90815260046020526040902080546001600160a01b0319166001600160a01b0392909216919091179055565b610e71838383610ff1565b610641576001600160a01b038316610e9f57604051637e27328960e01b8152600481018290526024016104c6565b60405163177e802f60e01b81526001600160a01b0383166004820152602481018290526044016104c6565b5f818152600660205260409020805460609190610ee6906114e8565b80601f0160208091040260200160405190810160405280929190818152602001828054610f12906114e8565b8015610f5d5780601f10610f3457610100808354040283529160200191610f5d565b820191905f5260205f20905b815481529060010190602001808311610f4057829003601f168201915b50505050509050919050565b6060610f7482610886565b505f610f8a60408051602081019091525f815290565b90505f815111610fa85760405180602001604052805f815250610fd3565b80610fb284611052565b604051602001610fc39291906115b2565b6040516020818303038152906040525b9392505050565b610fe483836110e2565b610641335f858585610b02565b5f6001600160a01b03831615801590610ca35750826001600160a01b0316846001600160a01b0316148061102a575061102a84846107eb565b80610ca35750505f908152600460205260409020546001600160a01b03908116911614919050565b60605f61105e83611143565b60010190505f8167ffffffffffffffff81111561107d5761107d611370565b6040519080825280601f01601f1916602001820160405280156110a7576020820181803683370190505b5090508181016020015b5f19016f181899199a1a9b1b9c1cb0b131b232b360811b600a86061a8153600a85049450846110b157509392505050565b6001600160a01b03821661110b57604051633250574960e11b81525f60048201526024016104c6565b5f61111783835f6108cb565b90506001600160a01b03811615610641576040516339e3563760e11b81525f60048201526024016104c6565b5f8072184f03e93ff9f4daa797ed6e38ed64bf6a1f0160401b83106111815772184f03e93ff9f4daa797ed6e38ed64bf6a1f0160401b830492506040015b6d04ee2d6d415b85acef810000000083106111ad576d04ee2d6d415b85acef8100000000830492506020015b662386f26fc1000083106111cb57662386f26fc10000830492506010015b6305f5e10083106111e3576305f5e100830492506008015b61271083106111f757612710830492506004015b60648310611209576064830492506002015b600a83106103d65760010192915050565b6001600160e01b031981168114610852575f5ffd5b5f6020828403121561123f575f5ffd5b8135610fd38161121a565b5f81518084528060208401602086015e5f602082860101526020601f19601f83011685010191505092915050565b602081525f610fd3602083018461124a565b5f6020828403121561129a575f5ffd5b5035919050565b80356001600160a01b03811681146112b7575f5ffd5b919050565b5f5f604083850312156112cd575f5ffd5b6112d6836112a1565b946020939093013593505050565b5f5f5f606084860312156112f6575f5ffd5b6112ff846112a1565b925061130d602085016112a1565b929592945050506040919091013590565b5f6020828403121561132e575f5ffd5b610fd3826112a1565b5f5f60408385031215611348575f5ffd5b611351836112a1565b915060208301358015158114611365575f5ffd5b809150509250929050565b634e487b7160e01b5f52604160045260245ffd5b5f5f67ffffffffffffffff84111561139e5761139e611370565b50604051601f19601f85018116603f0116810181811067ffffffffffffffff821117156113cd576113cd611370565b6040528381529050808284018510156113e4575f5ffd5b838360208301375f60208583010152509392505050565b5f5f5f5f6080858703121561140e575f5ffd5b611417856112a1565b9350611425602086016112a1565b925060408501359150606085013567ffffffffffffffff811115611447575f5ffd5b8501601f81018713611457575f5ffd5b61146687823560208401611384565b91505092959194509250565b5f60208284031215611482575f5ffd5b813567ffffffffffffffff811115611498575f5ffd5b8201601f810184136114a8575f5ffd5b610ca384823560208401611384565b5f5f604083850312156114c8575f5ffd5b6114d1836112a1565b91506114df602084016112a1565b90509250929050565b600181811c908216806114fc57607f821691505b60208210810361151a57634e487b7160e01b5f52602260045260245ffd5b50919050565b5f6001820161153d57634e487b7160e01b5f52601160045260245ffd5b5060010190565b6001600160a01b03858116825284166020820152604081018390526080606082018190525f906115769083018461124a565b9695505050505050565b5f60208284031215611590575f5ffd5b8151610fd38161121a565b5f81518060208401855e5f93019283525090919050565b5f610ca36115c0838661159b565b8461159b565b601f82111561064157805f5260205f20601f840160051c810160208510156115eb5750805b601f840160051c820191505b81811015610c23575f81556001016115f7565b815167ffffffffffffffff81111561162457611624611370565b6116388161163284546114e8565b846115c6565b6020601f82116001811461166a575f83156116535750848201515b5f19600385901b1c1916600184901b178455610c23565b5f84815260208120601f198516915b828110156116995787850151825560209485019460019092019101611679565b50848210156116b657868401515f19600387901b60f8161c191681555b50505050600190811b0190555056fea26469706673582212209f06655b20cc8db11b5680e1faca0ccf8c33450c6f751ebf643d3a11a7aa62ed64736f6c634300081c0033",
  "linkReferences": {},
  "deployedLinkReferences": {},
  "immutableReferences": {},
  "inputSourceName": "project/contracts/TotoroNFT.sol",
  "buildInfoId": "solc-0_8_28-98066b3bf8180350d9304e975b35c4d3779db65b"
}