{
  "_format": "hh3-artifact-1",
  "contractName": "CrowdfundingFactory",
  "sourceName": "contracts/CrowdfundingFactory.sol",
  "abi": [
    {
      "anonymous": false,
      "inputs": [
        {
          "indexed": true,
          "internalType": "address",
          "name": "creator",
          "type": "address"
        },
        {
          "indexed": true,
          "internalType": "address",
          "name": "campaign",
          "type": "address"
        },
        {
          "indexed": false,
          "internalType": "string",
          "name": "name",
          "type": "string"
        },
        {
          "indexed": false,
          "internalType": "uint256",
          "name": "goal",
          "type": "uint256"
        },
        {
          "indexed": false,
          "internalType": "uint256",
          "name": "deadline",
          "type": "uint256"
        }
      ],
      "name": "CampaignCreated",
      "type": "event"
    },
    {
      "inputs": [
        {
          "internalType": "uint256",
          "name": "",
          "type": "uint256"
        }
      ],
      "name": "campaigns",
      "outputs": [
        {
          "internalType": "contract CrowdfundingCampaign",
          "name": "",
          "type": "address"
        }
      ],
      "stateMutability": "view",
      "type": "function"
    },
    {
      "inputs": [
        {
          "internalType": "string",
          "name": "_name",
          "type": "string"
        },
        {
          "internalType": "uint256",
          "name": "_goal",
          "type": "uint256"
        },
        {
          "internalType": "uint256",
          "name": "_durationInDays",
          "type": "uint256"
        }
      ],
      "name": "createCampaign",
      "outputs": [
        {
          "internalType": "address",
          "name": "",
          "type": "address"
        }
      ],
      "stateMutability": "nonpayable",
      "type": "function"
    },
    {
      "inputs": [],
      "name": "getCampaignCount",
      "outputs": [
        {
          "internalType": "uint256",
          "name": "",
          "type": "uint256"
        }
      ],
      "stateMutability": "view",
      "type": "function"
    },
    {
      "inputs": [],
      "name": "getCampaigns",
      "outputs": [
        {
          "internalType": "address[]",
          "name": "",
          "type": "address[]"
        }
      ],
      "stateMutability": "view",
      "type": "function"
    },
    {
      "inputs": [
        {
          "internalType": "address",
          "name": "user",
          "type": "address"
        }
      ],
      "name": "getUserCampaigns",
      "outputs": [
        {
          "internalType": "address[]",
          "name": "",
          "type": "address[]"
        }
      ],
      "stateMutability": "view",
      "type": "function"
    },
    {
      "inputs": [
        {
          "internalType": "address",
          "name": "",
          "type": "address"
        },
        {
          "internalType": "uint256",
          "name": "",
          "type": "uint256"
        }
      ],
      "name": "userCampaigns",
      "outputs": [
        {
          "internalType": "uint256",
          "name": "",
          "type": "uint256"
        }
      ],
      "stateMutability": "view",
      "type": "function"
    }
  ],
  "bytecode": "0x6080604052348015600e575f5ffd5b50611a4c8061001c5f395ff3fe608060405234801561000f575f5ffd5b5060043610610060575f3560e01c8063141961bc1461006457806319ac74bd146100945780633020580b146100b55780636caa9218146100c8578063a1e5084c146100cf578063a6b03633146100ef575b5f5ffd5b610077610072366004610449565b6100f7565b6040516001600160a01b0390911681526020015b60405180910390f35b6100a76100a236600461047b565b61011e565b60405190815260200161008b565b6100776100c33660046104b7565b610149565b5f546100a7565b6100e26100dd366004610577565b61024c565b60405161008b9190610597565b6100e2610381565b5f8181548110610105575f80fd5b5f918252602090912001546001600160a01b0316905081565b6001602052815f5260405f208181548110610137575f80fd5b905f5260205f20015f91509150505481565b5f5f3385858560405161015b9061043c565b6101689493929190610610565b604051809103905ff080158015610181573d5f5f3e3d5ffd5b505f8054600180820183557f290decd9548b62a8d60345a988386fc84ba6bc95484008f6362f93160ef3e56390910180546001600160a01b0319166001600160a01b038516179055338252602081905260408220915492935090916101e69190610646565b81546001810183555f9283526020909220909101556040516001600160a01b0382169033907f810c1f0481c76c27bfb99d47b443b405e6f4d247fb07302759cb36d58742d07f9061023c9089908990899061066b565b60405180910390a3949350505050565b6001600160a01b0381165f9081526001602090815260408083208054825181850281018501909352808352606094938301828280156102a857602002820191905f5260205f20905b815481526020019060010190808311610294575b505050505090505f815167ffffffffffffffff8111156102ca576102ca6104a3565b6040519080825280602002602001820160405280156102f3578160200160208202803683370190505b5090505f5b8251811015610379575f8382815181106103145761031461068f565b60200260200101518154811061032c5761032c61068f565b905f5260205f20015f9054906101000a90046001600160a01b03168282815181106103595761035961068f565b6001600160a01b03909216602092830291909101909101526001016102f8565b509392505050565b5f80546060919067ffffffffffffffff8111156103a0576103a06104a3565b6040519080825280602002602001820160405280156103c9578160200160208202803683370190505b5090505f5b5f54811015610436575f81815481106103e9576103e961068f565b905f5260205f20015f9054906101000a90046001600160a01b03168282815181106104165761041661068f565b6001600160a01b03909216602092830291909101909101526001016103ce565b50919050565b611373806106a483390190565b5f60208284031215610459575f5ffd5b5035919050565b80356001600160a01b0381168114610476575f5ffd5b919050565b5f5f6040838503121561048c575f5ffd5b61049583610460565b946020939093013593505050565b634e487b7160e01b5f52604160045260245ffd5b5f5f5f606084860312156104c9575f5ffd5b833567ffffffffffffffff8111156104df575f5ffd5b8401601f810186136104ef575f5ffd5b803567ffffffffffffffff811115610509576105096104a3565b604051601f8201601f19908116603f0116810167ffffffffffffffff81118282101715610538576105386104a3565b60405281815282820160200188101561054f575f5ffd5b816020840160208301375f602092820183015297908601359650604090950135949350505050565b5f60208284031215610587575f5ffd5b61059082610460565b9392505050565b602080825282518282018190525f918401906040840190835b818110156105d75783516001600160a01b03168352602093840193909201916001016105b0565b509095945050505050565b5f81518084528060208401602086015e5f602082860101526020601f19601f83011685010191505092915050565b6001600160a01b03851681526080602082018190525f90610633908301866105e2565b6040830194909452506060015292915050565b8181038181111561066557634e487b7160e01b5f52601160045260245ffd5b92915050565b606081525f61067d60608301866105e2565b60208301949094525060400152919050565b634e487b7160e01b5f52603260045260245ffdfe60c060405234801561000f575f5ffd5b5060405161137338038061137383398101604081905261002e91610228565b6001600160a01b0384166100955760405162461bcd60e51b815260206004820152602360248201527f43726f776466756e64696e6743616d706169676e3a20696e76616c6964206f776044820152623732b960e91b60648201526084015b60405180910390fd5b82515f036100f85760405162461bcd60e51b815260206004820152602a60248201527f43726f776466756e64696e6743616d706169676e3a206e616d652063616e6e6f6044820152697420626520656d70747960b01b606482015260840161008c565b5f821161015b5760405162461bcd60e51b815260206004820152602b60248201527f43726f776466756e64696e6743616d706169676e3a20676f616c206d7573742060448201526a626520706f73697469766560a81b606482015260840161008c565b6001811015801561016d5750605a8111155b6101c85760405162461bcd60e51b815260206004820152602660248201527f43726f776466756e64696e6743616d706169676e3a20696e76616c69642064756044820152653930ba34b7b760d11b606482015260840161008c565b6001600160a01b03841660805260016101e1848261038a565b5060a08290526101f48162015180610458565b6101fe9042610475565b60025550505f805460ff19169055506104889050565b634e487b7160e01b5f52604160045260245ffd5b5f5f5f5f6080858703121561023b575f5ffd5b84516001600160a01b0381168114610251575f5ffd5b60208601519094506001600160401b0381111561026c575f5ffd5b8501601f8101871361027c575f5ffd5b80516001600160401b0381111561029557610295610214565b604051601f8201601f19908116603f011681016001600160401b03811182821017156102c3576102c3610214565b6040528181528282016020018910156102da575f5ffd5b8160208401602083015e5f91810160200191909152604087015160609097015195989097509350505050565b600181811c9082168061031a57607f821691505b60208210810361033857634e487b7160e01b5f52602260045260245ffd5b50919050565b601f82111561038557805f5260205f20601f840160051c810160208510156103635750805b601f840160051c820191505b81811015610382575f815560010161036f565b50505b505050565b81516001600160401b038111156103a3576103a3610214565b6103b7816103b18454610306565b8461033e565b6020601f8211600181146103e9575f83156103d25750848201515b5f19600385901b1c1916600184901b178455610382565b5f84815260208120601f198516915b8281101561041857878501518255602094850194600190920191016103f8565b508482101561043557868401515f19600387901b60f8161c191681555b50505050600190811b01905550565b634e487b7160e01b5f52601160045260245ffd5b808202811582820484141761046f5761046f610444565b92915050565b8082018082111561046f5761046f610444565b60805160a051610e996104da5f395f81816101dd015281816106b9015281816108d4015261090101525f8181610263015281816103ee015281816104b20152818161057301526109bd0152610e995ff3fe6080604052600436106100fa575f3560e01c80634bb278f311610092578063af157c1911610062578063af157c1914610299578063be9a6555146102ba578063c19d93fb146102ce578063c5c4744c146102f3578063d7bb99ba14610308575f5ffd5b80634bb278f31461022a578063590e1ae31461023e5780638da5cb5b14610252578063939c445614610285575f5ffd5b80633cb5d100116100cd5780633cb5d1001461017f5780633ccfd60b146101b657806340193883146101cc57806342e94c90146101ff575f5ffd5b806306fdde03146100fe57806322f3e2d414610128578063253da8bd1461014c57806329dcb0cf1461016a575b5f5ffd5b348015610109575f5ffd5b50610112610310565b60405161011f9190610c64565b60405180910390f35b348015610133575f5ffd5b5061013c61039c565b604051901515815260200161011f565b348015610157575f5ffd5b506005545b60405190815260200161011f565b348015610175575f5ffd5b5061015c60025481565b34801561018a575f5ffd5b5061019e610199366004610c99565b6103bb565b6040516001600160a01b03909116815260200161011f565b3480156101c1575f5ffd5b506101ca6103e3565b005b3480156101d7575f5ffd5b5061015c7f000000000000000000000000000000000000000000000000000000000000000081565b34801561020a575f5ffd5b5061015c610219366004610cb0565b60046020525f908152604090205481565b348015610235575f5ffd5b506101ca610614565b348015610249575f5ffd5b506101ca61073d565b34801561025d575f5ffd5b5061019e7f000000000000000000000000000000000000000000000000000000000000000081565b348015610290575f5ffd5b5061015c6108d1565b3480156102a4575f5ffd5b506102ad610952565b60405161011f9190610cdd565b3480156102c5575f5ffd5b506101ca6109b2565b3480156102d9575f5ffd5b505f546102e69060ff1681565b60405161011f9190610d5c565b3480156102fe575f5ffd5b5061015c60035481565b6101ca610aa8565b6001805461031d90610d70565b80601f016020809104026020016040519081016040528092919081815260200182805461034990610d70565b80156103945780601f1061036b57610100808354040283529160200191610394565b820191905f5260205f20905b81548152906001019060200180831161037757829003601f168201915b505050505081565b5f60015f5460ff1660048111156103b5576103b5610d28565b14905090565b600581815481106103ca575f80fd5b5f918252602090912001546001600160a01b0316905081565b336001600160a01b037f000000000000000000000000000000000000000000000000000000000000000016146104605760405162461bcd60e51b815260206004820152601f60248201527f43726f776466756e64696e6743616d706169676e3a206e6f74206f776e65720060448201526064015b60405180910390fd5b6002805f5460ff16600481111561047957610479610d28565b146104965760405162461bcd60e51b815260040161045790610da8565b5f805460ff191660041781556040514791906001600160a01b037f0000000000000000000000000000000000000000000000000000000000000000169083908381818185875af1925050503d805f811461050b576040519150601f19603f3d011682016040523d82523d5f602084013e610510565b606091505b50509050806105715760405162461bcd60e51b815260206004820152602760248201527f43726f776466756e64696e6743616d706169676e3a207769746864726177616c6044820152660819985a5b195960ca1b6064820152608401610457565b7f00000000000000000000000000000000000000000000000000000000000000006001600160a01b03167f7fcf532c15f0a6db0bd6d0e038bea71d30d808c7d98cb3bf7268a95bf5081b65836040516105cc91815260200190565b60405180910390a27fe8a97ea87e4388fa22d496b95a8ed5ced6717f49790318de2b928aaf37a021d860026004604051610607929190610deb565b60405180910390a1505050565b6001805f5460ff16600481111561062d5761062d610d28565b1461064a5760405162461bcd60e51b815260040161045790610da8565b60025442116106ac5760405162461bcd60e51b815260206004820152602860248201527f43726f776466756e64696e6743616d706169676e3a2063616d706169676e206e6044820152671bdd08195b99195960c21b6064820152608401610457565b5f5460035460ff909116907f0000000000000000000000000000000000000000000000000000000000000000116106ee575f805460ff191660021790556106fb565b5f805460ff191660031790555b5f546040517fe8a97ea87e4388fa22d496b95a8ed5ced6717f49790318de2b928aaf37a021d89161073191849160ff1690610deb565b60405180910390a15050565b6003805f5460ff16600481111561075657610756610d28565b146107735760405162461bcd60e51b815260040161045790610da8565b335f90815260046020526040902054806107e75760405162461bcd60e51b815260206004820152602f60248201527f43726f776466756e64696e6743616d706169676e3a206e6f20636f6e7472696260448201526e1d5d1a5bdb881d1bc81c99599d5b99608a1b6064820152608401610457565b335f818152600460205260408082208290555190919083908381818185875af1925050503d805f8114610835576040519150601f19603f3d011682016040523d82523d5f602084013e61083a565b606091505b50509050806108975760405162461bcd60e51b815260206004820152602360248201527f43726f776466756e64696e6743616d706169676e3a20726566756e64206661696044820152621b195960ea1b6064820152608401610457565b60405182815233907fbb28353e4598c3b9199101a66e0989549b659a59a54d2c27fbb183f1932c8e6d9060200160405180910390a2505050565b5f7f00000000000000000000000000000000000000000000000000000000000000005f036108fe57505f90565b5f7f0000000000000000000000000000000000000000000000000000000000000000600354606461092f9190610e1a565b6109399190610e31565b905060648111610949578061094c565b60645b91505090565b606060058054806020026020016040519081016040528092919081815260200182805480156109a857602002820191905f5260205f20905b81546001600160a01b0316815260019091019060200180831161098a575b5050505050905090565b336001600160a01b037f00000000000000000000000000000000000000000000000000000000000000001614610a2a5760405162461bcd60e51b815260206004820152601f60248201527f43726f776466756e64696e6743616d706169676e3a206e6f74206f776e6572006044820152606401610457565b5f805f5460ff166004811115610a4257610a42610d28565b14610a5f5760405162461bcd60e51b815260040161045790610da8565b5f805460ff1916600190811782556040517fe8a97ea87e4388fa22d496b95a8ed5ced6717f49790318de2b928aaf37a021d892610a9d929091610deb565b60405180910390a150565b6001805f5460ff166004811115610ac157610ac1610d28565b14610ade5760405162461bcd60e51b815260040161045790610da8565b6002544210610b2f5760405162461bcd60e51b815260206004820152601d60248201527f43726f776466756e64696e6743616d706169676e3a20657870697265640000006044820152606401610457565b5f3411610b9a5760405162461bcd60e51b815260206004820152603360248201527f43726f776466756e64696e6743616d706169676e3a20636f6e747269627574696044820152726f6e206d75737420626520706f73697469766560681b6064820152608401610457565b335f908152600460205260408120549003610bf157600580546001810182555f919091527f036b6384b5eca791c62761152d0c79bb0604c104a5fb6f4eb0703f3154bb3db00180546001600160a01b031916331790555b335f9081526004602052604081208054349290610c0f908490610e50565b925050819055503460035f828254610c279190610e50565b909155505060405134815233907f4d154d4aae216bed6d0926db77c00df2b57c6b5ba4eee05775de20facede3a7b9060200160405180910390a250565b602081525f82518060208401528060208501604085015e5f604082850101526040601f19601f83011684010191505092915050565b5f60208284031215610ca9575f5ffd5b5035919050565b5f60208284031215610cc0575f5ffd5b81356001600160a01b0381168114610cd6575f5ffd5b9392505050565b602080825282518282018190525f918401906040840190835b81811015610d1d5783516001600160a01b0316835260209384019390920191600101610cf6565b509095945050505050565b634e487b7160e01b5f52602160045260245ffd5b60058110610d5857634e487b7160e01b5f52602160045260245ffd5b9052565b60208101610d6a8284610d3c565b92915050565b600181811c90821680610d8457607f821691505b602082108103610da257634e487b7160e01b5f52602260045260245ffd5b50919050565b60208082526023908201527f43726f776466756e64696e6743616d706169676e3a20696e76616c696420737460408201526261746560e81b606082015260800190565b60408101610df98285610d3c565b610cd66020830184610d3c565b634e487b7160e01b5f52601160045260245ffd5b8082028115828204841417610d6a57610d6a610e06565b5f82610e4b57634e487b7160e01b5f52601260045260245ffd5b500490565b80820180821115610d6a57610d6a610e0656fea2646970667358221220533268c46358ddc870270db03ef45e04e03761566cabbbb1cca5e30674afee3864736f6c634300081c0033a2646970667358221220384967add439009f69697a4ea8f573f751c5584c705d11333d779a9d525fadf764736f6c634300081c0033",
  "linkReferences": {},
  "deployedLinkReferences": {},
  "immutableReferences": {},
  "inputSourceName": "project/contracts/CrowdfundingFactory.sol",
  "buildInfoId": "solc-0_8_28-d45fac5243575e8c9e45c96d894e491bfa0c97a8"
}