{
	"data": {
		"bytecode": {
			"linkReferences": {},
			"object": "60e06040525f5f5f6101000a81548160ff021916908360038111156100275761002661010e565b5b0217905550348015610037575f5ffd5b506040516119a13803806119a183398181016040528101906100599190610172565b3373ffffffffffffffffffffffffffffffffffffffff1660808173ffffffffffffffffffffffffffffffffffffffff16815250508160a08181525050600181101580156100a75750605a8111155b6100e6576040517f08c379a00000000000000000000000000000000000000000000000000000000081526004016100dd9061020a565b60405180910390fd5b62015180816100f59190610255565b426101009190610296565b60c0818152505050506102c9565b7f4e487b71000000000000000000000000000000000000000000000000000000005f52602160045260245ffd5b5f5ffd5b5f819050919050565b6101518161013f565b811461015b575f5ffd5b50565b5f8151905061016c81610148565b92915050565b5f5f604083850312156101885761018761013b565b5b5f6101958582860161015e565b92505060206101a68582860161015e565b9150509250929050565b5f82825260208201905092915050565b7f496e76616c6964206461797321000000000000000000000000000000000000005f82015250565b5f6101f4600d836101b0565b91506101ff826101c0565b602082019050919050565b5f6020820190508181035f830152610221816101e8565b9050919050565b7f4e487b71000000000000000000000000000000000000000000000000000000005f52601160045260245ffd5b5f61025f8261013f565b915061026a8361013f565b92508282026102788161013f565b9150828204841483151761028f5761028e610228565b5b5092915050565b5f6102a08261013f565b91506102ab8361013f565b92508282019050808211156102c3576102c2610228565b5b92915050565b60805160a05160c05161165a6103475f395f818161034b015281816104b70152818161075301528181610775015281816107f70152610bb401525f81816103bf0152818161072f015281816107b80152818161081b0152610d9001525f818161084501528181610a0501528181610acc0152610e88015261165a5ff3fe6080604052600436106100dc575f3560e01c8063a082c86e1161007e578063b78da38611610058578063b78da38614610261578063d7bb99ba14610277578063e4fbb60914610281578063ecfd8928146102ab576100dc565b8063a082c86e146101e3578063a1bed0be1461020d578063ad044f4914610237576100dc565b806322f3e2d4116100ba57806322f3e2d41461014a578063590e1ae3146101745780635a9b0b891461018a578063939c4456146101b9576100dc565b806301cb3b20146100e057806301d2da9b146100f65780630c3f6acf14610120575b5f5ffd5b3480156100eb575f5ffd5b506100f46102d5565b005b348015610101575f5ffd5b5061010a61045c565b6040516101179190610ec8565b60405180910390f35b34801561012b575f5ffd5b50610134610468565b6040516101419190610f54565b60405180910390f35b348015610155575f5ffd5b5061015e610479565b60405161016b9190610f87565b60405180910390f35b34801561017f575f5ffd5b506101886104df565b005b348015610195575f5ffd5b5061019e610719565b6040516101b096959493929190610fa0565b60405180910390f35b3480156101c4575f5ffd5b506101cd6107b5565b6040516101da9190610ec8565b60405180910390f35b3480156101ee575f5ffd5b506101f76107f5565b6040516102049190610ec8565b60405180910390f35b348015610218575f5ffd5b50610221610819565b60405161022e9190610ec8565b60405180910390f35b348015610242575f5ffd5b5061024b61083d565b6040516102589190610ec8565b60405180910390f35b34801561026c575f5ffd5b50610275610843565b005b61027f610b3e565b005b34801561028c575f5ffd5b50610295610e86565b6040516102a2919061103e565b60405180910390f35b3480156102b6575f5ffd5b506102bf610eaa565b6040516102cc9190610ec8565b60405180910390f35b5f8060038111156102e9576102e8610ee1565b5b5f5f9054906101000a900460ff16600381111561030957610308610ee1565b5b14610349576040517f08c379a0000000000000000000000000000000000000000000000000000000008152600401610340906110b1565b60405180910390fd5b7f000000000000000000000000000000000000000000000000000000000000000042116103ab576040517f08c379a00000000000000000000000000000000000000000000000000000000081526004016103a290611119565b60405180910390fd5b5f5f5f9054906101000a900460ff1690505f7f0000000000000000000000000000000000000000000000000000000000000000600154106103ef57600190506103f4565b600290505b805f5f6101000a81548160ff0219169083600381111561041757610416610ee1565b5b02179055507f6248a7c8a8dfdcb56514416ad7ed5cf43c516b01ebe5ec4716e35ea71e3ecf6482824260405161044f93929190611137565b60405180910390a1505050565b67016345785d8a000081565b5f5f9054906101000a900460ff1681565b5f5f600381111561048d5761048c610ee1565b5b5f5f9054906101000a900460ff1660038111156104ad576104ac610ee1565b5b1480156104da57507f00000000000000000000000000000000000000000000000000000000000000004211155b905090565b60028060038111156104f4576104f3610ee1565b5b5f5f9054906101000a900460ff16600381111561051457610513610ee1565b5b14610554576040517f08c379a000000000000000000000000000000000000000000000000000000000815260040161054b906110b1565b60405180910390fd5b5f3390505f60035f8373ffffffffffffffffffffffffffffffffffffffff1673ffffffffffffffffffffffffffffffffffffffff1681526020019081526020015f205490505f81116105db576040517f08c379a00000000000000000000000000000000000000000000000000000000081526004016105d2906111b6565b60405180910390fd5b5f60035f8473ffffffffffffffffffffffffffffffffffffffff1673ffffffffffffffffffffffffffffffffffffffff1681526020019081526020015f20819055505f8273ffffffffffffffffffffffffffffffffffffffff168260405161064290611201565b5f6040518083038185875af1925050503d805f811461067c576040519150601f19603f3d011682016040523d82523d5f602084013e610681565b606091505b50509050806106c5576040517f08c379a00000000000000000000000000000000000000000000000000000000081526004016106bc9061125f565b60405180910390fd5b8273ffffffffffffffffffffffffffffffffffffffff167fd7dee2702d63ad89917b6a4da9981c90c4d24f8c2bdfd64c604ecae57d8d06518360405161070b9190610ec8565b60405180910390a250505050565b5f5f5f5f5f5f5f5f9054906101000a900460ff167f00000000000000000000000000000000000000000000000000000000000000006001547f0000000000000000000000000000000000000000000000000000000000000000427f000000000000000000000000000000000000000000000000000000000000000061079e91906112aa565b600254955095509550955095509550909192939495565b5f7f000000000000000000000000000000000000000000000000000000000000000060646001546107e691906112dd565b6107f0919061134b565b905090565b7f000000000000000000000000000000000000000000000000000000000000000081565b7f000000000000000000000000000000000000000000000000000000000000000081565b60015481565b7f000000000000000000000000000000000000000000000000000000000000000073ffffffffffffffffffffffffffffffffffffffff163373ffffffffffffffffffffffffffffffffffffffff16146108d1576040517f08c379a00000000000000000000000000000000000000000000000000000000081526004016108c8906113c5565b60405180910390fd5b60018060038111156108e6576108e5610ee1565b5b5f5f9054906101000a900460ff16600381111561090657610905610ee1565b5b14610946576040517f08c379a000000000000000000000000000000000000000000000000000000000815260040161093d906110b1565b60405180910390fd5b5f4790505f811161098c576040517f08c379a00000000000000000000000000000000000000000000000000000000081526004016109839061142d565b60405180910390fd5b5f5f5f9054906101000a900460ff16905060035f5f6101000a81548160ff021916908360038111156109c1576109c0610ee1565b5b02179055507f6248a7c8a8dfdcb56514416ad7ed5cf43c516b01ebe5ec4716e35ea71e3ecf64816003426040516109fa93929190611137565b60405180910390a15f7f000000000000000000000000000000000000000000000000000000000000000073ffffffffffffffffffffffffffffffffffffffff1683604051610a4790611201565b5f6040518083038185875af1925050503d805f8114610a81576040519150601f19603f3d011682016040523d82523d5f602084013e610a86565b606091505b5050905080610aca576040517f08c379a0000000000000000000000000000000000000000000000000000000008152600401610ac190611495565b60405180910390fd5b7f000000000000000000000000000000000000000000000000000000000000000073ffffffffffffffffffffffffffffffffffffffff167fc2bb4ea1d0686e49a0d8e37c51111e4183de174a0a3a2a81f91ecf5fcc80612684604051610b309190610ec8565b60405180910390a250505050565b5f806003811115610b5257610b51610ee1565b5b5f5f9054906101000a900460ff166003811115610b7257610b71610ee1565b5b14610bb2576040517f08c379a0000000000000000000000000000000000000000000000000000000008152600401610ba9906110b1565b60405180910390fd5b7f0000000000000000000000000000000000000000000000000000000000000000421115610c15576040517f08c379a0000000000000000000000000000000000000000000000000000000008152600401610c0c906114fd565b60405180910390fd5b5f34905067016345785d8a00008111610c63576040517f08c379a0000000000000000000000000000000000000000000000000000000008152600401610c5a90611565565b60405180910390fd5b5f3390505f60035f8373ffffffffffffffffffffffffffffffffffffffff1673ffffffffffffffffffffffffffffffffffffffff1681526020019081526020015f205403610d2357600481908060018154018082558091505060019003905f5260205f20015f9091909190916101000a81548173ffffffffffffffffffffffffffffffffffffffff021916908373ffffffffffffffffffffffffffffffffffffffff16021790555060025f815480929190610d1d90611583565b91905055505b8160035f8373ffffffffffffffffffffffffffffffffffffffff1673ffffffffffffffffffffffffffffffffffffffff1681526020019081526020015f205f828254610d6f91906115ca565b925050819055508160015f828254610d8791906115ca565b925050819055507f000000000000000000000000000000000000000000000000000000000000000060015410610e2f575f5f5f9054906101000a900460ff16905060015f5f6101000a81548160ff02191690836003811115610dec57610deb610ee1565b5b02179055507f6248a7c8a8dfdcb56514416ad7ed5cf43c516b01ebe5ec4716e35ea71e3ecf6481600142604051610e2593929190611137565b60405180910390a1505b8073ffffffffffffffffffffffffffffffffffffffff167f5f7675b09617d2c9fa4fd13058ee5877a9538f626b0308816736e83748a4504083600154604051610e799291906115fd565b60405180910390a2505050565b7f000000000000000000000000000000000000000000000000000000000000000081565b60025481565b5f819050919050565b610ec281610eb0565b82525050565b5f602082019050610edb5f830184610eb9565b92915050565b7f4e487b71000000000000000000000000000000000000000000000000000000005f52602160045260245ffd5b60048110610f1f57610f1e610ee1565b5b50565b5f819050610f2f82610f0e565b919050565b5f610f3e82610f22565b9050919050565b610f4e81610f34565b82525050565b5f602082019050610f675f830184610f45565b92915050565b5f8115159050919050565b610f8181610f6d565b82525050565b5f602082019050610f9a5f830184610f78565b92915050565b5f60c082019050610fb35f830189610f45565b610fc06020830188610eb9565b610fcd6040830187610eb9565b610fda6060830186610eb9565b610fe76080830185610eb9565b610ff460a0830184610eb9565b979650505050505050565b5f73ffffffffffffffffffffffffffffffffffffffff82169050919050565b5f61102882610fff565b9050919050565b6110388161101e565b82525050565b5f6020820190506110515f83018461102f565b92915050565b5f82825260208201905092915050565b7f496e76616c6964205374617465210000000000000000000000000000000000005f82015250565b5f61109b600e83611057565b91506110a682611067565b602082019050919050565b5f6020820190508181035f8301526110c88161108f565b9050919050565b7f46756e6472616973696e67207374696c6c2061637469766521000000000000005f82015250565b5f611103601983611057565b915061110e826110cf565b602082019050919050565b5f6020820190508181035f830152611130816110f7565b9050919050565b5f60608201905061114a5f830186610f45565b6111576020830185610f45565b6111646040830184610eb9565b949350505050565b7f4e6f20636f6e7472696275746520616d6f756e742100000000000000000000005f82015250565b5f6111a0601583611057565b91506111ab8261116c565b602082019050919050565b5f6020820190508181035f8301526111cd81611194565b9050919050565b5f81905092915050565b50565b5f6111ec5f836111d4565b91506111f7826111de565b5f82019050919050565b5f61120b826111e1565b9150819050919050565b7f5472616e73616374696f6e206661696c656421000000000000000000000000005f82015250565b5f611249601383611057565b915061125482611215565b602082019050919050565b5f6020820190508181035f8301526112768161123d565b9050919050565b7f4e487b71000000000000000000000000000000000000000000000000000000005f52601160045260245ffd5b5f6112b482610eb0565b91506112bf83610eb0565b92508282039050818111156112d7576112d661127d565b5b92915050565b5f6112e782610eb0565b91506112f283610eb0565b925082820261130081610eb0565b915082820484148315176113175761131661127d565b5b5092915050565b7f4e487b71000000000000000000000000000000000000000000000000000000005f52601260045260245ffd5b5f61135582610eb0565b915061136083610eb0565b9250826113705761136f61131e565b5b828204905092915050565b7f4e6f742063726561746f722100000000000000000000000000000000000000005f82015250565b5f6113af600c83611057565b91506113ba8261137b565b602082019050919050565b5f6020820190508181035f8301526113dc816113a3565b9050919050565b7f4e6f2062616c616e636520746f207769746864726177210000000000000000005f82015250565b5f611417601783611057565b9150611422826113e3565b602082019050919050565b5f6020820190508181035f8301526114448161140b565b9050919050565b7f5472616e73666572206661696c656421000000000000000000000000000000005f82015250565b5f61147f601083611057565b915061148a8261144b565b602082019050919050565b5f6020820190508181035f8301526114ac81611473565b9050919050565b7f46756e6472616973696e6720656e6465642100000000000000000000000000005f82015250565b5f6114e7601283611057565b91506114f2826114b3565b602082019050919050565b5f6020820190508181035f830152611514816114db565b9050919050565b7f496e76616c696420616d6f756e742100000000000000000000000000000000005f82015250565b5f61154f600f83611057565b915061155a8261151b565b602082019050919050565b5f6020820190508181035f83015261157c81611543565b9050919050565b5f61158d82610eb0565b91507fffffffffffffffffffffffffffffffffffffffffffffffffffffffffffffffff82036115bf576115be61127d565b5b600182019050919050565b5f6115d482610eb0565b91506115df83610eb0565b92508282019050808211156115f7576115f661127d565b5b92915050565b5f6040820190506116105f830185610eb9565b61161d6020830184610eb9565b939250505056fea264697066735822122094cf63477cd65be3772da1a249773eaeb22c8da6eff73676ad11c88f91b391f164736f6c63430008220033",
			"opcodes": "PUSH1 0xE0 PUSH1 0x40 MSTORE PUSH0 PUSH0 PUSH0 PUSH2 0x100 EXP DUP2 SLOAD DUP2 PUSH1 0xFF MUL NOT AND SWAP1 DUP4 PUSH1 0x3 DUP2 GT ISZERO PUSH2 0x27 JUMPI PUSH2 0x26 PUSH2 0x10E JUMP JUMPDEST JUMPDEST MUL OR SWAP1 SSTORE POP CALLVALUE DUP1 ISZERO PUSH2 0x37 JUMPI PUSH0 PUSH0 REVERT JUMPDEST POP PUSH1 0x40 MLOAD PUSH2 0x19A1 CODESIZE SUB DUP1 PUSH2 0x19A1 DUP4 CODECOPY DUP2 DUP2 ADD PUSH1 0x40 MSTORE DUP2 ADD SWAP1 PUSH2 0x59 SWAP2 SWAP1 PUSH2 0x172 JUMP JUMPDEST CALLER PUSH20 0xFFFFFFFFFFFFFFFFFFFFFFFFFFFFFFFFFFFFFFFF AND PUSH1 0x80 DUP2 PUSH20 0xFFFFFFFFFFFFFFFFFFFFFFFFFFFFFFFFFFFFFFFF AND DUP2 MSTORE POP POP DUP2 PUSH1 0xA0 DUP2 DUP2 MSTORE POP POP PUSH1 0x1 DUP2 LT ISZERO DUP1 ISZERO PUSH2 0xA7 JUMPI POP PUSH1 0x5A DUP2 GT ISZERO JUMPDEST PUSH2 0xE6 JUMPI PUSH1 0x40 MLOAD PUSH32 0x8C379A000000000000000000000000000000000000000000000000000000000 DUP2 MSTORE PUSH1 0x4 ADD PUSH2 0xDD SWAP1 PUSH2 0x20A JUMP JUMPDEST PUSH1 0x40 MLOAD DUP1 SWAP2 SUB SWAP1 REVERT JUMPDEST PUSH3 0x15180 DUP2 PUSH2 0xF5 SWAP2 SWAP1 PUSH2 0x255 JUMP JUMPDEST TIMESTAMP PUSH2 0x100 SWAP2 SWAP1 PUSH2 0x296 JUMP JUMPDEST PUSH1 0xC0 DUP2 DUP2 MSTORE POP POP POP POP PUSH2 0x2C9 JUMP JUMPDEST PUSH32 0x4E487B7100000000000000000000000000000000000000000000000000000000 PUSH0 MSTORE PUSH1 0x21 PUSH1 0x4 MSTORE PUSH1 0x24 PUSH0 REVERT JUMPDEST PUSH0 PUSH0 REVERT JUMPDEST PUSH0 DUP2 SWAP1 POP SWAP2 SWAP1 POP JUMP JUMPDEST PUSH2 0x151 DUP2 PUSH2 0x13F JUMP JUMPDEST DUP2 EQ PUSH2 0x15B JUMPI PUSH0 PUSH0 REVERT JUMPDEST POP JUMP JUMPDEST PUSH0 DUP2 MLOAD SWAP1 POP PUSH2 0x16C DUP2 PUSH2 0x148 JUMP JUMPDEST SWAP3 SWAP2 POP POP JUMP JUMPDEST PUSH0 PUSH0 PUSH1 0x40 DUP4 DUP6 SUB SLT ISZERO PUSH2 0x188 JUMPI PUSH2 0x187 PUSH2 0x13B JUMP JUMPDEST JUMPDEST PUSH0 PUSH2 0x195 DUP6 DUP3 DUP7 ADD PUSH2 0x15E JUMP JUMPDEST SWAP3 POP POP PUSH1 0x20 PUSH2 0x1A6 DUP6 DUP3 DUP7 ADD PUSH2 0x15E JUMP JUMPDEST SWAP2 POP POP SWAP3 POP SWAP3 SWAP1 POP JUMP JUMPDEST PUSH0 DUP3 DUP3 MSTORE PUSH1 0x20 DUP3 ADD SWAP1 POP SWAP3 SWAP2 POP POP JUMP JUMPDEST PUSH32 0x496E76616C696420646179732100000000000000000000000000000000000000 PUSH0 DUP3 ADD MSTORE POP JUMP JUMPDEST PUSH0 PUSH2 0x1F4 PUSH1 0xD DUP4 PUSH2 0x1B0 JUMP JUMPDEST SWAP2 POP PUSH2 0x1FF DUP3 PUSH2 0x1C0 JUMP JUMPDEST PUSH1 0x20 DUP3 ADD SWAP1 POP SWAP2 SWAP1 POP JUMP JUMPDEST PUSH0 PUSH1 0x20 DUP3 ADD SWAP1 POP DUP2 DUP2 SUB PUSH0 DUP4 ADD MSTORE PUSH2 0x221 DUP2 PUSH2 0x1E8 JUMP JUMPDEST SWAP1 POP SWAP2 SWAP1 POP JUMP JUMPDEST PUSH32 0x4E487B7100000000000000000000000000000000000000000000000000000000 PUSH0 MSTORE PUSH1 0x11 PUSH1 0x4 MSTORE PUSH1 0x24 PUSH0 REVERT JUMPDEST PUSH0 PUSH2 0x25F DUP3 PUSH2 0x13F JUMP JUMPDEST SWAP2 POP PUSH2 0x26A DUP4 PUSH2 0x13F JUMP JUMPDEST SWAP3 POP DUP3 DUP3 MUL PUSH2 0x278 DUP2 PUSH2 0x13F JUMP JUMPDEST SWAP2 POP DUP3 DUP3 DIV DUP5 EQ DUP4 ISZERO OR PUSH2 0x28F JUMPI PUSH2 0x28E PUSH2 0x228 JUMP JUMPDEST JUMPDEST POP SWAP3 SWAP2 POP POP JUMP JUMPDEST PUSH0 PUSH2 0x2A0 DUP3 PUSH2 0x13F JUMP JUMPDEST SWAP2 POP PUSH2 0x2AB DUP4 PUSH2 0x13F JUMP JUMPDEST SWAP3 POP DUP3 DUP3 ADD SWAP1 POP DUP1 DUP3 GT ISZERO PUSH2 0x2C3 JUMPI PUSH2 0x2C2 PUSH2 0x228 JUMP JUMPDEST JUMPDEST SWAP3 SWAP2 POP POP JUMP JUMPDEST PUSH1 0x80 MLOAD PUSH1 0xA0 MLOAD PUSH1 0xC0 MLOAD PUSH2 0x165A PUSH2 0x347 PUSH0 CODECOPY PUSH0 DUP2 DUP2 PUSH2 0x34B ADD MSTORE DUP2 DUP2 PUSH2 0x4B7 ADD MSTORE DUP2 DUP2 PUSH2 0x753 ADD MSTORE DUP2 DUP2 PUSH2 0x775 ADD MSTORE DUP2 DUP2 PUSH2 0x7F7 ADD MSTORE PUSH2 0xBB4 ADD MSTORE PUSH0 DUP2 DUP2 PUSH2 0x3BF ADD MSTORE DUP2 DUP2 PUSH2 0x72F ADD MSTORE DUP2 DUP2 PUSH2 0x7B8 ADD MSTORE DUP2 DUP2 PUSH2 0x81B ADD MSTORE PUSH2 0xD90 ADD MSTORE PUSH0 DUP2 DUP2 PUSH2 0x845 ADD MSTORE DUP2 DUP2 PUSH2 0xA05 ADD MSTORE DUP2 DUP2 PUSH2 0xACC ADD MSTORE PUSH2 0xE88 ADD MSTORE PUSH2 0x165A PUSH0 RETURN INVALID PUSH1 0x80 PUSH1 0x40 MSTORE PUSH1 0x4 CALLDATASIZE LT PUSH2 0xDC JUMPI PUSH0 CALLDATALOAD PUSH1 0xE0 SHR DUP1 PUSH4 0xA082C86E GT PUSH2 0x7E JUMPI DUP1 PUSH4 0xB78DA386 GT PUSH2 0x58 JUMPI DUP1 PUSH4 0xB78DA386 EQ PUSH2 0x261 JUMPI DUP1 PUSH4 0xD7BB99BA EQ PUSH2 0x277 JUMPI DUP1 PUSH4 0xE4FBB609 EQ PUSH2 0x281 JUMPI DUP1 PUSH4 0xECFD8928 EQ PUSH2 0x2AB JUMPI PUSH2 0xDC JUMP JUMPDEST DUP1 PUSH4 0xA082C86E EQ PUSH2 0x1E3 JUMPI DUP1 PUSH4 0xA1BED0BE EQ PUSH2 0x20D JUMPI DUP1 PUSH4 0xAD044F49 EQ PUSH2 0x237 JUMPI PUSH2 0xDC JUMP JUMPDEST DUP1 PUSH4 0x22F3E2D4 GT PUSH2 0xBA JUMPI DUP1 PUSH4 0x22F3E2D4 EQ PUSH2 0x14A JUMPI DUP1 PUSH4 0x590E1AE3 EQ PUSH2 0x174 JUMPI DUP1 PUSH4 0x5A9B0B89 EQ PUSH2 0x18A JUMPI DUP1 PUSH4 0x939C4456 EQ PUSH2 0x1B9 JUMPI PUSH2 0xDC JUMP JUMPDEST DUP1 PUSH4 0x1CB3B20 EQ PUSH2 0xE0 JUMPI DUP1 PUSH4 0x1D2DA9B EQ PUSH2 0xF6 JUMPI DUP1 PUSH4 0xC3F6ACF EQ PUSH2 0x120 JUMPI JUMPDEST PUSH0 PUSH0 REVERT JUMPDEST CALLVALUE DUP1 ISZERO PUSH2 0xEB JUMPI PUSH0 PUSH0 REVERT JUMPDEST POP PUSH2 0xF4 PUSH2 0x2D5 JUMP JUMPDEST STOP JUMPDEST CALLVALUE DUP1 ISZERO PUSH2 0x101 JUMPI PUSH0 PUSH0 REVERT JUMPDEST POP PUSH2 0x10A PUSH2 0x45C JUMP JUMPDEST PUSH1 0x40 MLOAD PUSH2 0x117 SWAP2 SWAP1 PUSH2 0xEC8 JUMP JUMPDEST PUSH1 0x40 MLOAD DUP1 SWAP2 SUB SWAP1 RETURN JUMPDEST CALLVALUE DUP1 ISZERO PUSH2 0x12B JUMPI PUSH0 PUSH0 REVERT JUMPDEST POP PUSH2 0x134 PUSH2 0x468 JUMP JUMPDEST PUSH1 0x40 MLOAD PUSH2 0x141 SWAP2 SWAP1 PUSH2 0xF54 JUMP JUMPDEST PUSH1 0x40 MLOAD DUP1 SWAP2 SUB SWAP1 RETURN JUMPDEST CALLVALUE DUP1 ISZERO PUSH2 0x155 JUMPI PUSH0 PUSH0 REVERT JUMPDEST POP PUSH2 0x15E PUSH2 0x479 JUMP JUMPDEST PUSH1 0x40 MLOAD PUSH2 0x16B SWAP2 SWAP1 PUSH2 0xF87 JUMP JUMPDEST PUSH1 0x40 MLOAD DUP1 SWAP2 SUB SWAP1 RETURN JUMPDEST CALLVALUE DUP1 ISZERO PUSH2 0x17F JUMPI PUSH0 PUSH0 REVERT JUMPDEST POP PUSH2 0x188 PUSH2 0x4DF JUMP JUMPDEST STOP JUMPDEST CALLVALUE DUP1 ISZERO PUSH2 0x195 JUMPI PUSH0 PUSH0 REVERT JUMPDEST POP PUSH2 0x19E PUSH2 0x719 JUMP JUMPDEST PUSH1 0x40 MLOAD PUSH2 0x1B0 SWAP7 SWAP6 SWAP5 SWAP4 SWAP3 SWAP2 SWAP1 PUSH2 0xFA0 JUMP JUMPDEST PUSH1 0x40 MLOAD DUP1 SWAP2 SUB SWAP1 RETURN JUMPDEST CALLVALUE DUP1 ISZERO PUSH2 0x1C4 JUMPI PUSH0 PUSH0 REVERT JUMPDEST POP PUSH2 0x1CD PUSH2 0x7B5 JUMP JUMPDEST PUSH1 0x40 MLOAD PUSH2 0x1DA SWAP2 SWAP1 PUSH2 0xEC8 JUMP JUMPDEST PUSH1 0x40 MLOAD DUP1 SWAP2 SUB SWAP1 RETURN JUMPDEST CALLVALUE DUP1 ISZERO PUSH2 0x1EE JUMPI PUSH0 PUSH0 REVERT JUMPDEST POP PUSH2 0x1F7 PUSH2 0x7F5 JUMP JUMPDEST PUSH1 0x40 MLOAD PUSH2 0x204 SWAP2 SWAP1 PUSH2 0xEC8 JUMP JUMPDEST PUSH1 0x40 MLOAD DUP1 SWAP2 SUB SWAP1 RETURN JUMPDEST CALLVALUE DUP1 ISZERO PUSH2 0x218 JUMPI PUSH0 PUSH0 REVERT JUMPDEST POP PUSH2 0x221 PUSH2 0x819 JUMP JUMPDEST PUSH1 0x40 MLOAD PUSH2 0x22E SWAP2 SWAP1 PUSH2 0xEC8 JUMP JUMPDEST PUSH1 0x40 MLOAD DUP1 SWAP2 SUB SWAP1 RETURN JUMPDEST CALLVALUE DUP1 ISZERO PUSH2 0x242 JUMPI PUSH0 PUSH0 REVERT JUMPDEST POP PUSH2 0x24B PUSH2 0x83D JUMP JUMPDEST PUSH1 0x40 MLOAD PUSH2 0x258 SWAP2 SWAP1 PUSH2 0xEC8 JUMP JUMPDEST PUSH1 0x40 MLOAD DUP1 SWAP2 SUB SWAP1 RETURN JUMPDEST CALLVALUE DUP1 ISZERO PUSH2 0x26C JUMPI PUSH0 PUSH0 REVERT JUMPDEST POP PUSH2 0x275 PUSH2 0x843 JUMP JUMPDEST STOP JUMPDEST PUSH2 0x27F PUSH2 0xB3E JUMP JUMPDEST STOP JUMPDEST CALLVALUE DUP1 ISZERO PUSH2 0x28C JUMPI PUSH0 PUSH0 REVERT JUMPDEST POP PUSH2 0x295 PUSH2 0xE86 JUMP JUMPDEST PUSH1 0x40 MLOAD PUSH2 0x2A2 SWAP2 SWAP1 PUSH2 0x103E JUMP JUMPDEST PUSH1 0x40 MLOAD DUP1 SWAP2 SUB SWAP1 RETURN JUMPDEST CALLVALUE DUP1 ISZERO PUSH2 0x2B6 JUMPI PUSH0 PUSH0 REVERT JUMPDEST POP PUSH2 0x2BF PUSH2 0xEAA JUMP JUMPDEST PUSH1 0x40 MLOAD PUSH2 0x2CC SWAP2 SWAP1 PUSH2 0xEC8 JUMP JUMPDEST PUSH1 0x40 MLOAD DUP1 SWAP2 SUB SWAP1 RETURN JUMPDEST PUSH0 DUP1 PUSH1 0x3 DUP2 GT ISZERO PUSH2 0x2E9 JUMPI PUSH2 0x2E8 PUSH2 0xEE1 JUMP JUMPDEST JUMPDEST PUSH0 PUSH0 SWAP1 SLOAD SWAP1 PUSH2 0x100 EXP SWAP1 DIV PUSH1 0xFF AND PUSH1 0x3 DUP2 GT ISZERO PUSH2 0x309 JUMPI PUSH2 0x308 PUSH2 0xEE1 JUMP JUMPDEST JUMPDEST EQ PUSH2 0x349 JUMPI PUSH1 0x40 MLOAD PUSH32 0x8C379A000000000000000000000000000000000000000000000000000000000 DUP2 MSTORE PUSH1 0x4 ADD PUSH2 0x340 SWAP1 PUSH2 0x10B1 JUMP JUMPDEST PUSH1 0x40 MLOAD DUP1 SWAP2 SUB SWAP1 REVERT JUMPDEST PUSH32 0x0 TIMESTAMP GT PUSH2 0x3AB JUMPI PUSH1 0x40 MLOAD PUSH32 0x8C379A000000000000000000000000000000000000000000000000000000000 DUP2 MSTORE PUSH1 0x4 ADD PUSH2 0x3A2 SWAP1 PUSH2 0x1119 JUMP JUMPDEST PUSH1 0x40 MLOAD DUP1 SWAP2 SUB SWAP1 REVERT JUMPDEST PUSH0 PUSH0 PUSH0 SWAP1 SLOAD SWAP1 PUSH2 0x100 EXP SWAP1 DIV PUSH1 0xFF AND SWAP1 POP PUSH0 PUSH32 0x0 PUSH1 0x1 SLOAD LT PUSH2 0x3EF JUMPI PUSH1 0x1 SWAP1 POP PUSH2 0x3F4 JUMP JUMPDEST PUSH1 0x2 SWAP1 POP JUMPDEST DUP1 PUSH0 PUSH0 PUSH2 0x100 EXP DUP2 SLOAD DUP2 PUSH1 0xFF MUL NOT AND SWAP1 DUP4 PUSH1 0x3 DUP2 GT ISZERO PUSH2 0x417 JUMPI PUSH2 0x416 PUSH2 0xEE1 JUMP JUMPDEST JUMPDEST MUL OR SWAP1 SSTORE POP PUSH32 0x6248A7C8A8DFDCB56514416AD7ED5CF43C516B01EBE5EC4716E35EA71E3ECF64 DUP3 DUP3 TIMESTAMP PUSH1 0x40 MLOAD PUSH2 0x44F SWAP4 SWAP3 SWAP2 SWAP1 PUSH2 0x1137 JUMP JUMPDEST PUSH1 0x40 MLOAD DUP1 SWAP2 SUB SWAP1 LOG1 POP POP POP JUMP JUMPDEST PUSH8 0x16345785D8A0000 DUP2 JUMP JUMPDEST PUSH0 PUSH0 SWAP1 SLOAD SWAP1 PUSH2 0x100 EXP SWAP1 DIV PUSH1 0xFF AND DUP2 JUMP JUMPDEST PUSH0 PUSH0 PUSH1 0x3 DUP2 GT ISZERO PUSH2 0x48D JUMPI PUSH2 0x48C PUSH2 0xEE1 JUMP JUMPDEST JUMPDEST PUSH0 PUSH0 SWAP1 SLOAD SWAP1 PUSH2 0x100 EXP SWAP1 DIV PUSH1 0xFF AND PUSH1 0x3 DUP2 GT ISZERO PUSH2 0x4AD JUMPI PUSH2 0x4AC PUSH2 0xEE1 JUMP JUMPDEST JUMPDEST EQ DUP1 ISZERO PUSH2 0x4DA JUMPI POP PUSH32 0x0 TIMESTAMP GT ISZERO JUMPDEST SWAP1 POP SWAP1 JUMP JUMPDEST PUSH1 0x2 DUP1 PUSH1 0x3 DUP2 GT ISZERO PUSH2 0x4F4 JUMPI PUSH2 0x4F3 PUSH2 0xEE1 JUMP JUMPDEST JUMPDEST PUSH0 PUSH0 SWAP1 SLOAD SWAP1 PUSH2 0x100 EXP SWAP1 DIV PUSH1 0xFF AND PUSH1 0x3 DUP2 GT ISZERO PUSH2 0x514 JUMPI PUSH2 0x513 PUSH2 0xEE1 JUMP JUMPDEST JUMPDEST EQ PUSH2 0x554 JUMPI PUSH1 0x40 MLOAD PUSH32 0x8C379A000000000000000000000000000000000000000000000000000000000 DUP2 MSTORE PUSH1 0x4 ADD PUSH2 0x54B SWAP1 PUSH2 0x10B1 JUMP JUMPDEST PUSH1 0x40 MLOAD DUP1 SWAP2 SUB SWAP1 REVERT JUMPDEST PUSH0 CALLER SWAP1 POP PUSH0 PUSH1 0x3 PUSH0 DUP4 PUSH20 0xFFFFFFFFFFFFFFFFFFFFFFFFFFFFFFFFFFFFFFFF AND PUSH20 0xFFFFFFFFFFFFFFFFFFFFFFFFFFFFFFFFFFFFFFFF AND DUP2 MSTORE PUSH1 0x20 ADD SWAP1 DUP2 MSTORE PUSH1 0x20 ADD PUSH0 KECCAK256 SLOAD SWAP1 POP PUSH0 DUP2 GT PUSH2 0x5DB JUMPI PUSH1 0x40 MLOAD PUSH32 0x8C379A000000000000000000000000000000000000000000000000000000000 DUP2 MSTORE PUSH1 0x4 ADD PUSH2 0x5D2 SWAP1 PUSH2 0x11B6 JUMP JUMPDEST PUSH1 0x40 MLOAD DUP1 SWAP2 SUB SWAP1 REVERT JUMPDEST PUSH0 PUSH1 0x3 PUSH0 DUP5 PUSH20 0xFFFFFFFFFFFFFFFFFFFFFFFFFFFFFFFFFFFFFFFF AND PUSH20 0xFFFFFFFFFFFFFFFFFFFFFFFFFFFFFFFFFFFFFFFF AND DUP2 MSTORE PUSH1 0x20 ADD SWAP1 DUP2 MSTORE PUSH1 0x20 ADD PUSH0 KECCAK256 DUP2 SWAP1 SSTORE POP PUSH0 DUP3 PUSH20 0xFFFFFFFFFFFFFFFFFFFFFFFFFFFFFFFFFFFFFFFF AND DUP3 PUSH1 0x40 MLOAD PUSH2 0x642 SWAP1 PUSH2 0x1201 JUMP JUMPDEST PUSH0 PUSH1 0x40 MLOAD DUP1 DUP4 SUB DUP2 DUP6 DUP8 GAS CALL SWAP3 POP POP POP RETURNDATASIZE DUP1 PUSH0 DUP2 EQ PUSH2 0x67C JUMPI PUSH1 0x40 MLOAD SWAP2 POP PUSH1 0x1F NOT PUSH1 0x3F RETURNDATASIZE ADD AND DUP3 ADD PUSH1 0x40 MSTORE RETURNDATASIZE DUP3 MSTORE RETURNDATASIZE PUSH0 PUSH1 0x20 DUP5 ADD RETURNDATACOPY PUSH2 0x681 JUMP JUMPDEST PUSH1 0x60 SWAP2 POP JUMPDEST POP POP SWAP1 POP DUP1 PUSH2 0x6C5 JUMPI PUSH1 0x40 MLOAD PUSH32 0x8C379A000000000000000000000000000000000000000000000000000000000 DUP2 MSTORE PUSH1 0x4 ADD PUSH2 0x6BC SWAP1 PUSH2 0x125F JUMP JUMPDEST PUSH1 0x40 MLOAD DUP1 SWAP2 SUB SWAP1 REVERT JUMPDEST DUP3 PUSH20 0xFFFFFFFFFFFFFFFFFFFFFFFFFFFFFFFFFFFFFFFF AND PUSH32 0xD7DEE2702D63AD89917B6A4DA9981C90C4D24F8C2BDFD64C604ECAE57D8D0651 DUP4 PUSH1 0x40 MLOAD PUSH2 0x70B SWAP2 SWAP1 PUSH2 0xEC8 JUMP JUMPDEST PUSH1 0x40 MLOAD DUP1 SWAP2 SUB SWAP1 LOG2 POP POP POP POP JUMP JUMPDEST PUSH0 PUSH0 PUSH0 PUSH0 PUSH0 PUSH0 PUSH0 PUSH0 SWAP1 SLOAD SWAP1 PUSH2 0x100 EXP SWAP1 DIV PUSH1 0xFF AND PUSH32 0x0 PUSH1 0x1 SLOAD PUSH32 0x0 TIMESTAMP PUSH32 0x0 PUSH2 0x79E SWAP2 SWAP1 PUSH2 0x12AA JUMP JUMPDEST PUSH1 0x2 SLOAD SWAP6 POP SWAP6 POP SWAP6 POP SWAP6 POP SWAP6 POP SWAP6 POP SWAP1 SWAP2 SWAP3 SWAP4 SWAP5 SWAP6 JUMP JUMPDEST PUSH0 PUSH32 0x0 PUSH1 0x64 PUSH1 0x1 SLOAD PUSH2 0x7E6 SWAP2 SWAP1 PUSH2 0x12DD JUMP JUMPDEST PUSH2 0x7F0 SWAP2 SWAP1 PUSH2 0x134B JUMP JUMPDEST SWAP1 POP SWAP1 JUMP JUMPDEST PUSH32 0x0 DUP2 JUMP JUMPDEST PUSH32 0x0 DUP2 JUMP JUMPDEST PUSH1 0x1 SLOAD DUP2 JUMP JUMPDEST PUSH32 0x0 PUSH20 0xFFFFFFFFFFFFFFFFFFFFFFFFFFFFFFFFFFFFFFFF AND CALLER PUSH20 0xFFFFFFFFFFFFFFFFFFFFFFFFFFFFFFFFFFFFFFFF AND EQ PUSH2 0x8D1 JUMPI PUSH1 0x40 MLOAD PUSH32 0x8C379A000000000000000000000000000000000000000000000000000000000 DUP2 MSTORE PUSH1 0x4 ADD PUSH2 0x8C8 SWAP1 PUSH2 0x13C5 JUMP JUMPDEST PUSH1 0x40 MLOAD DUP1 SWAP2 SUB SWAP1 REVERT JUMPDEST PUSH1 0x1 DUP1 PUSH1 0x3 DUP2 GT ISZERO PUSH2 0x8E6 JUMPI PUSH2 0x8E5 PUSH2 0xEE1 JUMP JUMPDEST JUMPDEST PUSH0 PUSH0 SWAP1 SLOAD SWAP1 PUSH2 0x100 EXP SWAP1 DIV PUSH1 0xFF AND PUSH1 0x3 DUP2 GT ISZERO PUSH2 0x906 JUMPI PUSH2 0x905 PUSH2 0xEE1 JUMP JUMPDEST JUMPDEST EQ PUSH2 0x946 JUMPI PUSH1 0x40 MLOAD PUSH32 0x8C379A000000000000000000000000000000000000000000000000000000000 DUP2 MSTORE PUSH1 0x4 ADD PUSH2 0x93D SWAP1 PUSH2 0x10B1 JUMP JUMPDEST PUSH1 0x40 MLOAD DUP1 SWAP2 SUB SWAP1 REVERT JUMPDEST PUSH0 SELFBALANCE SWAP1 POP PUSH0 DUP2 GT PUSH2 0x98C JUMPI PUSH1 0x40 MLOAD PUSH32 0x8C379A000000000000000000000000000000000000000000000000000000000 DUP2 MSTORE PUSH1 0x4 ADD PUSH2 0x983 SWAP1 PUSH2 0x142D JUMP JUMPDEST PUSH1 0x40 MLOAD DUP1 SWAP2 SUB SWAP1 REVERT JUMPDEST PUSH0 PUSH0 PUSH0 SWAP1 SLOAD SWAP1 PUSH2 0x100 EXP SWAP1 DIV PUSH1 0xFF AND SWAP1 POP PUSH1 0x3 PUSH0 PUSH0 PUSH2 0x100 EXP DUP2 SLOAD DUP2 PUSH1 0xFF MUL NOT AND SWAP1 DUP4 PUSH1 0x3 DUP2 GT ISZERO PUSH2 0x9C1 JUMPI PUSH2 0x9C0 PUSH2 0xEE1 JUMP JUMPDEST JUMPDEST MUL OR SWAP1 SSTORE POP PUSH32 0x6248A7C8A8DFDCB56514416AD7ED5CF43C516B01EBE5EC4716E35EA71E3ECF64 DUP2 PUSH1 0x3 TIMESTAMP PUSH1 0x40 MLOAD PUSH2 0x9FA SWAP4 SWAP3 SWAP2 SWAP1 PUSH2 0x1137 JUMP JUMPDEST PUSH1 0x40 MLOAD DUP1 SWAP2 SUB SWAP1 LOG1 PUSH0 PUSH32 0x0 PUSH20 0xFFFFFFFFFFFFFFFFFFFFFFFFFFFFFFFFFFFFFFFF AND DUP4 PUSH1 0x40 MLOAD PUSH2 0xA47 SWAP1 PUSH2 0x1201 JUMP JUMPDEST PUSH0 PUSH1 0x40 MLOAD DUP1 DUP4 SUB DUP2 DUP6 DUP8 GAS CALL SWAP3 POP POP POP RETURNDATASIZE DUP1 PUSH0 DUP2 EQ PUSH2 0xA81 JUMPI PUSH1 0x40 MLOAD SWAP2 POP PUSH1 0x1F NOT PUSH1 0x3F RETURNDATASIZE ADD AND DUP3 ADD PUSH1 0x40 MSTORE RETURNDATASIZE DUP3 MSTORE RETURNDATASIZE PUSH0 PUSH1 0x20 DUP5 ADD RETURNDATACOPY PUSH2 0xA86 JUMP JUMPDEST PUSH1 0x60 SWAP2 POP JUMPDEST POP POP SWAP1 POP DUP1 PUSH2 0xACA JUMPI PUSH1 0x40 MLOAD PUSH32 0x8C379A000000000000000000000000000000000000000000000000000000000 DUP2 MSTORE PUSH1 0x4 ADD PUSH2 0xAC1 SWAP1 PUSH2 0x1495 JUMP JUMPDEST PUSH1 0x40 MLOAD DUP1 SWAP2 SUB SWAP1 REVERT JUMPDEST PUSH32 0x0 PUSH20 0xFFFFFFFFFFFFFFFFFFFFFFFFFFFFFFFFFFFFFFFF AND PUSH32 0xC2BB4EA1D0686E49A0D8E37C51111E4183DE174A0A3A2A81F91ECF5FCC806126 DUP5 PUSH1 0x40 MLOAD PUSH2 0xB30 SWAP2 SWAP1 PUSH2 0xEC8 JUMP JUMPDEST PUSH1 0x40 MLOAD DUP1 SWAP2 SUB SWAP1 LOG2 POP POP POP POP JUMP JUMPDEST PUSH0 DUP1 PUSH1 0x3 DUP2 GT ISZERO PUSH2 0xB52 JUMPI PUSH2 0xB51 PUSH2 0xEE1 JUMP JUMPDEST JUMPDEST PUSH0 PUSH0 SWAP1 SLOAD SWAP1 PUSH2 0x100 EXP SWAP1 DIV PUSH1 0xFF AND PUSH1 0x3 DUP2 GT ISZERO PUSH2 0xB72 JUMPI PUSH2 0xB71 PUSH2 0xEE1 JUMP JUMPDEST JUMPDEST EQ PUSH2 0xBB2 JUMPI PUSH1 0x40 MLOAD PUSH32 0x8C379A000000000000000000000000000000000000000000000000000000000 DUP2 MSTORE PUSH1 0x4 ADD PUSH2 0xBA9 SWAP1 PUSH2 0x10B1 JUMP JUMPDEST PUSH1 0x40 MLOAD DUP1 SWAP2 SUB SWAP1 REVERT JUMPDEST PUSH32 0x0 TIMESTAMP GT ISZERO PUSH2 0xC15 JUMPI PUSH1 0x40 MLOAD PUSH32 0x8C379A000000000000000000000000000000000000000000000000000000000 DUP2 MSTORE PUSH1 0x4 ADD PUSH2 0xC0C SWAP1 PUSH2 0x14FD JUMP JUMPDEST PUSH1 0x40 MLOAD DUP1 SWAP2 SUB SWAP1 REVERT JUMPDEST PUSH0 CALLVALUE SWAP1 POP PUSH8 0x16345785D8A0000 DUP2 GT PUSH2 0xC63 JUMPI PUSH1 0x40 MLOAD PUSH32 0x8C379A000000000000000000000000000000000000000000000000000000000 DUP2 MSTORE PUSH1 0x4 ADD PUSH2 0xC5A SWAP1 PUSH2 0x1565 JUMP JUMPDEST PUSH1 0x40 MLOAD DUP1 SWAP2 SUB SWAP1 REVERT JUMPDEST PUSH0 CALLER SWAP1 POP PUSH0 PUSH1 0x3 PUSH0 DUP4 PUSH20 0xFFFFFFFFFFFFFFFFFFFFFFFFFFFFFFFFFFFFFFFF AND PUSH20 0xFFFFFFFFFFFFFFFFFFFFFFFFFFFFFFFFFFFFFFFF AND DUP2 MSTORE PUSH1 0x20 ADD SWAP1 DUP2 MSTORE PUSH1 0x20 ADD PUSH0 KECCAK256 SLOAD SUB PUSH2 0xD23 JUMPI PUSH1 0x4 DUP2 SWAP1 DUP1 PUSH1 0x1 DUP2 SLOAD ADD DUP1 DUP3 SSTORE DUP1 SWAP2 POP POP PUSH1 0x1 SWAP1 SUB SWAP1 PUSH0 MSTORE PUSH1 0x20 PUSH0 KECCAK256 ADD PUSH0 SWAP1 SWAP2 SWAP1 SWAP2 SWAP1 SWAP2 PUSH2 0x100 EXP DUP2 SLOAD DUP2 PUSH20 0xFFFFFFFFFFFFFFFFFFFFFFFFFFFFFFFFFFFFFFFF MUL NOT AND SWAP1 DUP4 PUSH20 0xFFFFFFFFFFFFFFFFFFFFFFFFFFFFFFFFFFFFFFFF AND MUL OR SWAP1 SSTORE POP PUSH1 0x2 PUSH0 DUP2 SLOAD DUP1 SWAP3 SWAP2 SWAP1 PUSH2 0xD1D SWAP1 PUSH2 0x1583 JUMP JUMPDEST SWAP2 SWAP1 POP SSTORE POP JUMPDEST DUP2 PUSH1 0x3 PUSH0 DUP4 PUSH20 0xFFFFFFFFFFFFFFFFFFFFFFFFFFFFFFFFFFFFFFFF AND PUSH20 0xFFFFFFFFFFFFFFFFFFFFFFFFFFFFFFFFFFFFFFFF AND DUP2 MSTORE PUSH1 0x20 ADD SWAP1 DUP2 MSTORE PUSH1 0x20 ADD PUSH0 KECCAK256 PUSH0 DUP3 DUP3 SLOAD PUSH2 0xD6F SWAP2 SWAP1 PUSH2 0x15CA JUMP JUMPDEST SWAP3 POP POP DUP2 SWAP1 SSTORE POP DUP2 PUSH1 0x1 PUSH0 DUP3 DUP3 SLOAD PUSH2 0xD87 SWAP2 SWAP1 PUSH2 0x15CA JUMP JUMPDEST SWAP3 POP POP DUP2 SWAP1 SSTORE POP PUSH32 0x0 PUSH1 0x1 SLOAD LT PUSH2 0xE2F JUMPI PUSH0 PUSH0 PUSH0 SWAP1 SLOAD SWAP1 PUSH2 0x100 EXP SWAP1 DIV PUSH1 0xFF AND SWAP1 POP PUSH1 0x1 PUSH0 PUSH0 PUSH2 0x100 EXP DUP2 SLOAD DUP2 PUSH1 0xFF MUL NOT AND SWAP1 DUP4 PUSH1 0x3 DUP2 GT ISZERO PUSH2 0xDEC JUMPI PUSH2 0xDEB PUSH2 0xEE1 JUMP JUMPDEST JUMPDEST MUL OR SWAP1 SSTORE POP PUSH32 0x6248A7C8A8DFDCB56514416AD7ED5CF43C516B01EBE5EC4716E35EA71E3ECF64 DUP2 PUSH1 0x1 TIMESTAMP PUSH1 0x40 MLOAD PUSH2 0xE25 SWAP4 SWAP3 SWAP2 SWAP1 PUSH2 0x1137 JUMP JUMPDEST PUSH1 0x40 MLOAD DUP1 SWAP2 SUB SWAP1 LOG1 POP JUMPDEST DUP1 PUSH20 0xFFFFFFFFFFFFFFFFFFFFFFFFFFFFFFFFFFFFFFFF AND PUSH32 0x5F7675B09617D2C9FA4FD13058EE5877A9538F626B0308816736E83748A45040 DUP4 PUSH1 0x1 SLOAD PUSH1 0x40 MLOAD PUSH2 0xE79 SWAP3 SWAP2 SWAP1 PUSH2 0x15FD JUMP JUMPDEST PUSH1 0x40 MLOAD DUP1 SWAP2 SUB SWAP1 LOG2 POP POP POP JUMP JUMPDEST PUSH32 0x0 DUP2 JUMP JUMPDEST PUSH1 0x2 SLOAD DUP2 JUMP JUMPDEST PUSH0 DUP2 SWAP1 POP SWAP2 SWAP1 POP JUMP JUMPDEST PUSH2 0xEC2 DUP2 PUSH2 0xEB0 JUMP JUMPDEST DUP3 MSTORE POP POP JUMP JUMPDEST PUSH0 PUSH1 0x20 DUP3 ADD SWAP1 POP PUSH2 0xEDB PUSH0 DUP4 ADD DUP5 PUSH2 0xEB9 JUMP JUMPDEST SWAP3 SWAP2 POP POP JUMP JUMPDEST PUSH32 0x4E487B7100000000000000000000000000000000000000000000000000000000 PUSH0 MSTORE PUSH1 0x21 PUSH1 0x4 MSTORE PUSH1 0x24 PUSH0 REVERT JUMPDEST PUSH1 0x4 DUP2 LT PUSH2 0xF1F JUMPI PUSH2 0xF1E PUSH2 0xEE1 JUMP JUMPDEST JUMPDEST POP JUMP JUMPDEST PUSH0 DUP2 SWAP1 POP PUSH2 0xF2F DUP3 PUSH2 0xF0E JUMP JUMPDEST SWAP2 SWAP1 POP JUMP JUMPDEST PUSH0 PUSH2 0xF3E DUP3 PUSH2 0xF22 JUMP JUMPDEST SWAP1 POP SWAP2 SWAP1 POP JUMP JUMPDEST PUSH2 0xF4E DUP2 PUSH2 0xF34 JUMP JUMPDEST DUP3 MSTORE POP POP JUMP JUMPDEST PUSH0 PUSH1 0x20 DUP3 ADD SWAP1 POP PUSH2 0xF67 PUSH0 DUP4 ADD DUP5 PUSH2 0xF45 JUMP JUMPDEST SWAP3 SWAP2 POP POP JUMP JUMPDEST PUSH0 DUP2 ISZERO ISZERO SWAP1 POP SWAP2 SWAP1 POP JUMP JUMPDEST PUSH2 0xF81 DUP2 PUSH2 0xF6D JUMP JUMPDEST DUP3 MSTORE POP POP JUMP JUMPDEST PUSH0 PUSH1 0x20 DUP3 ADD SWAP1 POP PUSH2 0xF9A PUSH0 DUP4 ADD DUP5 PUSH2 0xF78 JUMP JUMPDEST SWAP3 SWAP2 POP POP JUMP JUMPDEST PUSH0 PUSH1 0xC0 DUP3 ADD SWAP1 POP PUSH2 0xFB3 PUSH0 DUP4 ADD DUP10 PUSH2 0xF45 JUMP JUMPDEST PUSH2 0xFC0 PUSH1 0x20 DUP4 ADD DUP9 PUSH2 0xEB9 JUMP JUMPDEST PUSH2 0xFCD PUSH1 0x40 DUP4 ADD DUP8 PUSH2 0xEB9 JUMP JUMPDEST PUSH2 0xFDA PUSH1 0x60 DUP4 ADD DUP7 PUSH2 0xEB9 JUMP JUMPDEST PUSH2 0xFE7 PUSH1 0x80 DUP4 ADD DUP6 PUSH2 0xEB9 JUMP JUMPDEST PUSH2 0xFF4 PUSH1 0xA0 DUP4 ADD DUP5 PUSH2 0xEB9 JUMP JUMPDEST SWAP8 SWAP7 POP POP POP POP POP POP POP JUMP JUMPDEST PUSH0 PUSH20 0xFFFFFFFFFFFFFFFFFFFFFFFFFFFFFFFFFFFFFFFF DUP3 AND SWAP1 POP SWAP2 SWAP1 POP JUMP JUMPDEST PUSH0 PUSH2 0x1028 DUP3 PUSH2 0xFFF JUMP JUMPDEST SWAP1 POP SWAP2 SWAP1 POP JUMP JUMPDEST PUSH2 0x1038 DUP2 PUSH2 0x101E JUMP JUMPDEST DUP3 MSTORE POP POP JUMP JUMPDEST PUSH0 PUSH1 0x20 DUP3 ADD SWAP1 POP PUSH2 0x1051 PUSH0 DUP4 ADD DUP5 PUSH2 0x102F JUMP JUMPDEST SWAP3 SWAP2 POP POP JUMP JUMPDEST PUSH0 DUP3 DUP3 MSTORE PUSH1 0x20 DUP3 ADD SWAP1 POP SWAP3 SWAP2 POP POP JUMP JUMPDEST PUSH32 0x496E76616C696420537461746521000000000000000000000000000000000000 PUSH0 DUP3 ADD MSTORE POP JUMP JUMPDEST PUSH0 PUSH2 0x109B PUSH1 0xE DUP4 PUSH2 0x1057 JUMP JUMPDEST SWAP2 POP PUSH2 0x10A6 DUP3 PUSH2 0x1067 JUMP JUMPDEST PUSH1 0x20 DUP3 ADD SWAP1 POP SWAP2 SWAP1 POP JUMP JUMPDEST PUSH0 PUSH1 0x20 DUP3 ADD SWAP1 POP DUP2 DUP2 SUB PUSH0 DUP4 ADD MSTORE PUSH2 0x10C8 DUP2 PUSH2 0x108F JUMP JUMPDEST SWAP1 POP SWAP2 SWAP1 POP JUMP JUMPDEST PUSH32 0x46756E6472616973696E67207374696C6C206163746976652100000000000000 PUSH0 DUP3 ADD MSTORE POP JUMP JUMPDEST PUSH0 PUSH2 0x1103 PUSH1 0x19 DUP4 PUSH2 0x1057 JUMP JUMPDEST SWAP2 POP PUSH2 0x110E DUP3 PUSH2 0x10CF JUMP JUMPDEST PUSH1 0x20 DUP3 ADD SWAP1 POP SWAP2 SWAP1 POP JUMP JUMPDEST PUSH0 PUSH1 0x20 DUP3 ADD SWAP1 POP DUP2 DUP2 SUB PUSH0 DUP4 ADD MSTORE PUSH2 0x1130 DUP2 PUSH2 0x10F7 JUMP JUMPDEST SWAP1 POP SWAP2 SWAP1 POP JUMP JUMPDEST PUSH0 PUSH1 0x60 DUP3 ADD SWAP1 POP PUSH2 0x114A PUSH0 DUP4 ADD DUP7 PUSH2 0xF45 JUMP JUMPDEST PUSH2 0x1157 PUSH1 0x20 DUP4 ADD DUP6 PUSH2 0xF45 JUMP JUMPDEST PUSH2 0x1164 PUSH1 0x40 DUP4 ADD DUP5 PUSH2 0xEB9 JUMP JUMPDEST SWAP5 SWAP4 POP POP POP POP JUMP JUMPDEST PUSH32 0x4E6F20636F6E7472696275746520616D6F756E74210000000000000000000000 PUSH0 DUP3 ADD MSTORE POP JUMP JUMPDEST PUSH0 PUSH2 0x11A0 PUSH1 0x15 DUP4 PUSH2 0x1057 JUMP JUMPDEST SWAP2 POP PUSH2 0x11AB DUP3 PUSH2 0x116C JUMP JUMPDEST PUSH1 0x20 DUP3 ADD SWAP1 POP SWAP2 SWAP1 POP JUMP JUMPDEST PUSH0 PUSH1 0x20 DUP3 ADD SWAP1 POP DUP2 DUP2 SUB PUSH0 DUP4 ADD MSTORE PUSH2 0x11CD DUP2 PUSH2 0x1194 JUMP JUMPDEST SWAP1 POP SWAP2 SWAP1 POP JUMP JUMPDEST PUSH0 DUP2 SWAP1 POP SWAP3 SWAP2 POP POP JUMP JUMPDEST POP JUMP JUMPDEST PUSH0 PUSH2 0x11EC PUSH0 DUP4 PUSH2 0x11D4 JUMP JUMPDEST SWAP2 POP PUSH2 0x11F7 DUP3 PUSH2 0x11DE JUMP JUMPDEST PUSH0 DUP3 ADD SWAP1 POP SWAP2 SWAP1 POP JUMP JUMPDEST PUSH0 PUSH2 0x120B DUP3 PUSH2 0x11E1 JUMP JUMPDEST SWAP2 POP DUP2 SWAP1 POP SWAP2 SWAP1 POP JUMP JUMPDEST PUSH32 0x5472616E73616374696F6E206661696C65642100000000000000000000000000 PUSH0 DUP3 ADD MSTORE POP JUMP JUMPDEST PUSH0 PUSH2 0x1249 PUSH1 0x13 DUP4 PUSH2 0x1057 JUMP JUMPDEST SWAP2 POP PUSH2 0x1254 DUP3 PUSH2 0x1215 JUMP JUMPDEST PUSH1 0x20 DUP3 ADD SWAP1 POP SWAP2 SWAP1 POP JUMP JUMPDEST PUSH0 PUSH1 0x20 DUP3 ADD SWAP1 POP DUP2 DUP2 SUB PUSH0 DUP4 ADD MSTORE PUSH2 0x1276 DUP2 PUSH2 0x123D JUMP JUMPDEST SWAP1 POP SWAP2 SWAP1 POP JUMP JUMPDEST PUSH32 0x4E487B7100000000000000000000000000000000000000000000000000000000 PUSH0 MSTORE PUSH1 0x11 PUSH1 0x4 MSTORE PUSH1 0x24 PUSH0 REVERT JUMPDEST PUSH0 PUSH2 0x12B4 DUP3 PUSH2 0xEB0 JUMP JUMPDEST SWAP2 POP PUSH2 0x12BF DUP4 PUSH2 0xEB0 JUMP JUMPDEST SWAP3 POP DUP3 DUP3 SUB SWAP1 POP DUP2 DUP2 GT ISZERO PUSH2 0x12D7 JUMPI PUSH2 0x12D6 PUSH2 0x127D JUMP JUMPDEST JUMPDEST SWAP3 SWAP2 POP POP JUMP JUMPDEST PUSH0 PUSH2 0x12E7 DUP3 PUSH2 0xEB0 JUMP JUMPDEST SWAP2 POP PUSH2 0x12F2 DUP4 PUSH2 0xEB0 JUMP JUMPDEST SWAP3 POP DUP3 DUP3 MUL PUSH2 0x1300 DUP2 PUSH2 0xEB0 JUMP JUMPDEST SWAP2 POP DUP3 DUP3 DIV DUP5 EQ DUP4 ISZERO OR PUSH2 0x1317 JUMPI PUSH2 0x1316 PUSH2 0x127D JUMP JUMPDEST JUMPDEST POP SWAP3 SWAP2 POP POP JUMP JUMPDEST PUSH32 0x4E487B7100000000000000000000000000000000000000000000000000000000 PUSH0 MSTORE PUSH1 0x12 PUSH1 0x4 MSTORE PUSH1 0x24 PUSH0 REVERT JUMPDEST PUSH0 PUSH2 0x1355 DUP3 PUSH2 0xEB0 JUMP JUMPDEST SWAP2 POP PUSH2 0x1360 DUP4 PUSH2 0xEB0 JUMP JUMPDEST SWAP3 POP DUP3 PUSH2 0x1370 JUMPI PUSH2 0x136F PUSH2 0x131E JUMP JUMPDEST JUMPDEST DUP3 DUP3 DIV SWAP1 POP SWAP3 SWAP2 POP POP JUMP JUMPDEST PUSH32 0x4E6F742063726561746F72210000000000000000000000000000000000000000 PUSH0 DUP3 ADD MSTORE POP JUMP JUMPDEST PUSH0 PUSH2 0x13AF PUSH1 0xC DUP4 PUSH2 0x1057 JUMP JUMPDEST SWAP2 POP PUSH2 0x13BA DUP3 PUSH2 0x137B JUMP JUMPDEST PUSH1 0x20 DUP3 ADD SWAP1 POP SWAP2 SWAP1 POP JUMP JUMPDEST PUSH0 PUSH1 0x20 DUP3 ADD SWAP1 POP DUP2 DUP2 SUB PUSH0 DUP4 ADD MSTORE PUSH2 0x13DC DUP2 PUSH2 0x13A3 JUMP JUMPDEST SWAP1 POP SWAP2 SWAP1 POP JUMP JUMPDEST PUSH32 0x4E6F2062616C616E636520746F20776974686472617721000000000000000000 PUSH0 DUP3 ADD MSTORE POP JUMP JUMPDEST PUSH0 PUSH2 0x1417 PUSH1 0x17 DUP4 PUSH2 0x1057 JUMP JUMPDEST SWAP2 POP PUSH2 0x1422 DUP3 PUSH2 0x13E3 JUMP JUMPDEST PUSH1 0x20 DUP3 ADD SWAP1 POP SWAP2 SWAP1 POP JUMP JUMPDEST PUSH0 PUSH1 0x20 DUP3 ADD SWAP1 POP DUP2 DUP2 SUB PUSH0 DUP4 ADD MSTORE PUSH2 0x1444 DUP2 PUSH2 0x140B JUMP JUMPDEST SWAP1 POP SWAP2 SWAP1 POP JUMP JUMPDEST PUSH32 0x5472616E73666572206661696C65642100000000000000000000000000000000 PUSH0 DUP3 ADD MSTORE POP JUMP JUMPDEST PUSH0 PUSH2 0x147F PUSH1 0x10 DUP4 PUSH2 0x1057 JUMP JUMPDEST SWAP2 POP PUSH2 0x148A DUP3 PUSH2 0x144B JUMP JUMPDEST PUSH1 0x20 DUP3 ADD SWAP1 POP SWAP2 SWAP1 POP JUMP JUMPDEST PUSH0 PUSH1 0x20 DUP3 ADD SWAP1 POP DUP2 DUP2 SUB PUSH0 DUP4 ADD MSTORE PUSH2 0x14AC DUP2 PUSH2 0x1473 JUMP JUMPDEST SWAP1 POP SWAP2 SWAP1 POP JUMP JUMPDEST PUSH32 0x46756E6472616973696E6720656E646564210000000000000000000000000000 PUSH0 DUP3 ADD MSTORE POP JUMP JUMPDEST PUSH0 PUSH2 0x14E7 PUSH1 0x12 DUP4 PUSH2 0x1057 JUMP JUMPDEST SWAP2 POP PUSH2 0x14F2 DUP3 PUSH2 0x14B3 JUMP JUMPDEST PUSH1 0x20 DUP3 ADD SWAP1 POP SWAP2 SWAP1 POP JUMP JUMPDEST PUSH0 PUSH1 0x20 DUP3 ADD SWAP1 POP DUP2 DUP2 SUB PUSH0 DUP4 ADD MSTORE PUSH2 0x1514 DUP2 PUSH2 0x14DB JUMP JUMPDEST SWAP1 POP SWAP2 SWAP1 POP JUMP JUMPDEST PUSH32 0x496E76616C696420616D6F756E74210000000000000000000000000000000000 PUSH0 DUP3 ADD MSTORE POP JUMP JUMPDEST PUSH0 PUSH2 0x154F PUSH1 0xF DUP4 PUSH2 0x1057 JUMP JUMPDEST SWAP2 POP PUSH2 0x155A DUP3 PUSH2 0x151B JUMP JUMPDEST PUSH1 0x20 DUP3 ADD SWAP1 POP SWAP2 SWAP1 POP JUMP JUMPDEST PUSH0 PUSH1 0x20 DUP3 ADD SWAP1 POP DUP2 DUP2 SUB PUSH0 DUP4 ADD MSTORE PUSH2 0x157C DUP2 PUSH2 0x1543 JUMP JUMPDEST SWAP1 POP SWAP2 SWAP1 POP JUMP JUMPDEST PUSH0 PUSH2 0x158D DUP3 PUSH2 0xEB0 JUMP JUMPDEST SWAP2 POP PUSH32 0xFFFFFFFFFFFFFFFFFFFFFFFFFFFFFFFFFFFFFFFFFFFFFFFFFFFFFFFFFFFFFFFF DUP3 SUB PUSH2 0x15BF JUMPI PUSH2 0x15BE PUSH2 0x127D JUMP JUMPDEST JUMPDEST PUSH1 0x1 DUP3 ADD SWAP1 POP SWAP2 SWAP1 POP JUMP JUMPDEST PUSH0 PUSH2 0x15D4 DUP3 PUSH2 0xEB0 JUMP JUMPDEST SWAP2 POP PUSH2 0x15DF DUP4 PUSH2 0xEB0 JUMP JUMPDEST SWAP3 POP DUP3 DUP3 ADD SWAP1 POP DUP1 DUP3 GT ISZERO PUSH2 0x15F7 JUMPI PUSH2 0x15F6 PUSH2 0x127D JUMP JUMPDEST JUMPDEST SWAP3 SWAP2 POP POP JUMP JUMPDEST PUSH0 PUSH1 0x40 DUP3 ADD SWAP1 POP PUSH2 0x1610 PUSH0 DUP4 ADD DUP6 PUSH2 0xEB9 JUMP JUMPDEST PUSH2 0x161D PUSH1 0x20 DUP4 ADD DUP5 PUSH2 0xEB9 JUMP JUMPDEST SWAP4 SWAP3 POP POP POP JUMP INVALID LOG2 PUSH5 0x6970667358 0x22 SLT KECCAK256 SWAP5 0xCF PUSH4 0x477CD65B CALLF 0x772D LOG1 LOG2 BLOBHASH PUSH24 0x3EAEB22C8DA6EFF73676AD11C88F91B391F164736F6C6343 STOP ADDMOD 0x22 STOP CALLER "
		},
		"gasEstimates": {
			"creation": {
				"codeDepositCost": "1144400",
				"executionCost": "infinite",
				"totalCost": "infinite"
			},
			"external": {
				"CREATOR()": "infinite",
				"DEADLINE()": "infinite",
				"GOAL()": "infinite",
				"MINMUM_CONTRIBUTION()": "371",
				"checkGoalReached()": "infinite",
				"contribute()": "infinite",
				"contributorCount()": "2513",
				"currentState()": "2621",
				"getInfo()": "infinite",
				"getProgress()": "infinite",
				"isActive()": "infinite",
				"refund()": "infinite",
				"totalFunded()": "2492",
				"withDrawFunds()": "infinite"
			}
		},
		"methodIdentifiers": {
			"CREATOR()": "e4fbb609",
			"DEADLINE()": "a082c86e",
			"GOAL()": "a1bed0be",
			"MINMUM_CONTRIBUTION()": "01d2da9b",
			"checkGoalReached()": "01cb3b20",
			"contribute()": "d7bb99ba",
			"contributorCount()": "ecfd8928",
			"currentState()": "0c3f6acf",
			"getInfo()": "5a9b0b89",
			"getProgress()": "939c4456",
			"isActive()": "22f3e2d4",
			"refund()": "590e1ae3",
			"totalFunded()": "ad044f49",
			"withDrawFunds()": "b78da386"
		}
	},
	"abi": [
		{
			"inputs": [
				{
					"internalType": "uint256",
					"name": "_GOAL",
					"type": "uint256"
				},
				{
					"internalType": "uint256",
					"name": "durationDays",
					"type": "uint256"
				}
			],
			"stateMutability": "nonpayable",
			"type": "constructor"
		},
		{
			"anonymous": false,
			"inputs": [
				{
					"indexed": true,
					"internalType": "address",
					"name": "contributor",
					"type": "address"
				},
				{
					"indexed": false,
					"internalType": "uint256",
					"name": "amount",
					"type": "uint256"
				},
				{
					"indexed": false,
					"internalType": "uint256",
					"name": "totalFunded",
					"type": "uint256"
				}
			],
			"name": "Contribution",
			"type": "event"
		},
		{
			"anonymous": false,
			"inputs": [
				{
					"indexed": true,
					"internalType": "address",
					"name": "creator",
					"type": "address"
				},
				{
					"indexed": false,
					"internalType": "uint256",
					"name": "amount",
					"type": "uint256"
				}
			],
			"name": "FundsWithdrwan",
			"type": "event"
		},
		{
			"anonymous": false,
			"inputs": [
				{
					"indexed": true,
					"internalType": "address",
					"name": "contributor",
					"type": "address"
				},
				{
					"indexed": false,
					"internalType": "uint256",
					"name": "amount",
					"type": "uint256"
				}
			],
			"name": "Refunded",
			"type": "event"
		},
		{
			"anonymous": false,
			"inputs": [
				{
					"indexed": false,
					"internalType": "enum AdvancedCrowdFunding.State",
					"name": "oldState",
					"type": "uint8"
				},
				{
					"indexed": false,
					"internalType": "enum AdvancedCrowdFunding.State",
					"name": "newState",
					"type": "uint8"
				},
				{
					"indexed": false,
					"internalType": "uint256",
					"name": "timestamp",
					"type": "uint256"
				}
			],
			"name": "StateChanged",
			"type": "event"
		},
		{
			"inputs": [],
			"name": "CREATOR",
			"outputs": [
				{
					"internalType": "address",
					"name": "",
					"type": "address"
				}
			],
			"stateMutability": "view",
			"type": "function"
		},
		{
			"inputs": [],
			"name": "DEADLINE",
			"outputs": [
				{
					"internalType": "uint256",
					"name": "",
					"type": "uint256"
				}
			],
			"stateMutability": "view",
			"type": "function"
		},
		{
			"inputs": [],
			"name": "GOAL",
			"outputs": [
				{
					"internalType": "uint256",
					"name": "",
					"type": "uint256"
				}
			],
			"stateMutability": "view",
			"type": "function"
		},
		{
			"inputs": [],
			"name": "MINMUM_CONTRIBUTION",
			"outputs": [
				{
					"internalType": "uint256",
					"name": "",
					"type": "uint256"
				}
			],
			"stateMutability": "view",
			"type": "function"
		},
		{
			"inputs": [],
			"name": "checkGoalReached",
			"outputs": [],
			"stateMutability": "nonpayable",
			"type": "function"
		},
		{
			"inputs": [],
			"name": "contribute",
			"outputs": [],
			"stateMutability": "payable",
			"type": "function"
		},
		{
			"inputs": [],
			"name": "contributorCount",
			"outputs": [
				{
					"internalType": "uint256",
					"name": "",
					"type": "uint256"
				}
			],
			"stateMutability": "view",
			"type": "function"
		},
		{
			"inputs": [],
			"name": "currentState",
			"outputs": [
				{
					"internalType": "enum AdvancedCrowdFunding.State",
					"name": "",
					"type": "uint8"
				}
			],
			"stateMutability": "view",
			"type": "function"
		},
		{
			"inputs": [],
			"name": "getInfo",
			"outputs": [
				{
					"internalType": "enum AdvancedCrowdFunding.State",
					"name": "",
					"type": "uint8"
				},
				{
					"internalType": "uint256",
					"name": "",
					"type": "uint256"
				},
				{
					"internalType": "uint256",
					"name": "",
					"type": "uint256"
				},
				{
					"internalType": "uint256",
					"name": "",
					"type": "uint256"
				},
				{
					"internalType": "uint256",
					"name": "",
					"type": "uint256"
				},
				{
					"internalType": "uint256",
					"name": "",
					"type": "uint256"
				}
			],
			"stateMutability": "view",
			"type": "function"
		},
		{
			"inputs": [],
			"name": "getProgress",
			"outputs": [
				{
					"internalType": "uint256",
					"name": "",
					"type": "uint256"
				}
			],
			"stateMutability": "view",
			"type": "function"
		},
		{
			"inputs": [],
			"name": "isActive",
			"outputs": [
				{
					"internalType": "bool",
					"name": "",
					"type": "bool"
				}
			],
			"stateMutability": "view",
			"type": "function"
		},
		{
			"inputs": [],
			"name": "refund",
			"outputs": [],
			"stateMutability": "nonpayable",
			"type": "function"
		},
		{
			"inputs": [],
			"name": "totalFunded",
			"outputs": [
				{
					"internalType": "uint256",
					"name": "",
					"type": "uint256"
				}
			],
			"stateMutability": "view",
			"type": "function"
		},
		{
			"inputs": [],
			"name": "withDrawFunds",
			"outputs": [],
			"stateMutability": "nonpayable",
			"type": "function"
		}
	]
}