{
	"data": {
		"bytecode": {
			"linkReferences": {},
			"object": "6080604052348015600e575f5ffd5b50335f5f6101000a81548173ffffffffffffffffffffffffffffffffffffffff021916908373ffffffffffffffffffffffffffffffffffffffff1602179055503373ffffffffffffffffffffffffffffffffffffffff165f73ffffffffffffffffffffffffffffffffffffffff167f8be0079c531659141344cd1fd0a4f28419497f9722a3daafe3b4186f6b6457e060405160405180910390a36109c2806100b55f395ff3fe608060405234801561000f575f5ffd5b506004361061007b575f3560e01c80638456cb59116100595780638456cb59146100d75780638da5cb5b146100e1578063f2fde38b146100ff578063f7b188a51461011b5761007b565b80633fa4f2451461007f578063552410771461009d5780635c975abb146100b9575b5f5ffd5b610087610125565b604051610094919061068a565b60405180910390f35b6100b760048036038101906100b291906106d1565b61012b565b005b6100c1610212565b6040516100ce9190610716565b60405180910390f35b6100df610224565b005b6100e96102bc565b6040516100f6919061076e565b60405180910390f35b610119600480360381019061011491906107b1565b6102e0565b005b610123610498565b005b60015481565b5f5f9054906101000a900473ffffffffffffffffffffffffffffffffffffffff1673ffffffffffffffffffffffffffffffffffffffff163373ffffffffffffffffffffffffffffffffffffffff16146101b9576040517f08c379a00000000000000000000000000000000000000000000000000000000081526004016101b090610836565b60405180910390fd5b5f60149054906101000a900460ff1615610208576040517f08c379a00000000000000000000000000000000000000000000000000000000081526004016101ff9061089e565b60405180910390fd5b8060018190555050565b5f60149054906101000a900460ff1681565b5f5f9054906101000a900473ffffffffffffffffffffffffffffffffffffffff1673ffffffffffffffffffffffffffffffffffffffff163373ffffffffffffffffffffffffffffffffffffffff16146102b2576040517f08c379a00000000000000000000000000000000000000000000000000000000081526004016102a990610836565b60405180910390fd5b6102ba610530565b565b5f5f9054906101000a900473ffffffffffffffffffffffffffffffffffffffff1681565b5f5f9054906101000a900473ffffffffffffffffffffffffffffffffffffffff1673ffffffffffffffffffffffffffffffffffffffff163373ffffffffffffffffffffffffffffffffffffffff161461036e576040517f08c379a000000000000000000000000000000000000000000000000000000000815260040161036590610836565b60405180910390fd5b5f73ffffffffffffffffffffffffffffffffffffffff168173ffffffffffffffffffffffffffffffffffffffff16036103dc576040517f08c379a00000000000000000000000000000000000000000000000000000000081526004016103d390610906565b60405180910390fd5b8073ffffffffffffffffffffffffffffffffffffffff165f5f9054906101000a900473ffffffffffffffffffffffffffffffffffffffff1673ffffffffffffffffffffffffffffffffffffffff167f8be0079c531659141344cd1fd0a4f28419497f9722a3daafe3b4186f6b6457e060405160405180910390a3805f5f6101000a81548173ffffffffffffffffffffffffffffffffffffffff021916908373ffffffffffffffffffffffffffffffffffffffff16021790555050565b5f5f9054906101000a900473ffffffffffffffffffffffffffffffffffffffff1673ffffffffffffffffffffffffffffffffffffffff163373ffffffffffffffffffffffffffffffffffffffff1614610526576040517f08c379a000000000000000000000000000000000000000000000000000000000815260040161051d90610836565b60405180910390fd5b61052e6105d2565b565b5f60149054906101000a900460ff161561057f576040517f08c379a00000000000000000000000000000000000000000000000000000000081526004016105769061089e565b60405180910390fd5b60015f60146101000a81548160ff0219169083151502179055507f62e78cea01bee320cd4e420270b5ea74000d11b0c9f74754ebdbfc544b05a258336040516105c8919061076e565b60405180910390a1565b5f60149054906101000a900460ff16610620576040517f08c379a00000000000000000000000000000000000000000000000000000000081526004016106179061096e565b60405180910390fd5b5f5f60146101000a81548160ff0219169083151502179055507f62e78cea01bee320cd4e420270b5ea74000d11b0c9f74754ebdbfc544b05a25833604051610668919061076e565b60405180910390a1565b5f819050919050565b61068481610672565b82525050565b5f60208201905061069d5f83018461067b565b92915050565b5f5ffd5b6106b081610672565b81146106ba575f5ffd5b50565b5f813590506106cb816106a7565b92915050565b5f602082840312156106e6576106e56106a3565b5b5f6106f3848285016106bd565b91505092915050565b5f8115159050919050565b610710816106fc565b82525050565b5f6020820190506107295f830184610707565b92915050565b5f73ffffffffffffffffffffffffffffffffffffffff82169050919050565b5f6107588261072f565b9050919050565b6107688161074e565b82525050565b5f6020820190506107815f83018461075f565b92915050565b6107908161074e565b811461079a575f5ffd5b50565b5f813590506107ab81610787565b92915050565b5f602082840312156107c6576107c56106a3565b5b5f6107d38482850161079d565b91505092915050565b5f82825260208201905092915050565b7f4f6e6c79206f776e6572210000000000000000000000000000000000000000005f82015250565b5f610820600b836107dc565b915061082b826107ec565b602082019050919050565b5f6020820190508181035f83015261084d81610814565b9050919050565b7f436f6e74726163742069732070617573656421000000000000000000000000005f82015250565b5f6108886013836107dc565b915061089382610854565b602082019050919050565b5f6020820190508181035f8301526108b58161087c565b9050919050565b7f496e76616c6964206164647265737321000000000000000000000000000000005f82015250565b5f6108f06010836107dc565b91506108fb826108bc565b602082019050919050565b5f6020820190508181035f83015261091d816108e4565b9050919050565b7f436f6e7472616374206973206e6f7420706175736564210000000000000000005f82015250565b5f6109586017836107dc565b915061096382610924565b602082019050919050565b5f6020820190508181035f8301526109858161094c565b905091905056fea26469706673582212205d1a5fd16211b21b02b4fd3ab045b75c985b69dcccb6dbd7abb47b25e4b6e4e464736f6c63430008220033",
			"opcodes": "PUSH1 0x80 PUSH1 0x40 MSTORE CALLVALUE DUP1 ISZERO PUSH1 0xE JUMPI PUSH0 PUSH0 REVERT JUMPDEST POP CALLER PUSH0 PUSH0 PUSH2 0x100 EXP DUP2 SLOAD DUP2 PUSH20 0xFFFFFFFFFFFFFFFFFFFFFFFFFFFFFFFFFFFFFFFF MUL NOT AND SWAP1 DUP4 PUSH20 0xFFFFFFFFFFFFFFFFFFFFFFFFFFFFFFFFFFFFFFFF AND MUL OR SWAP1 SSTORE POP CALLER PUSH20 0xFFFFFFFFFFFFFFFFFFFFFFFFFFFFFFFFFFFFFFFF AND PUSH0 PUSH20 0xFFFFFFFFFFFFFFFFFFFFFFFFFFFFFFFFFFFFFFFF AND PUSH32 0x8BE0079C531659141344CD1FD0A4F28419497F9722A3DAAFE3B4186F6B6457E0 PUSH1 0x40 MLOAD PUSH1 0x40 MLOAD DUP1 SWAP2 SUB SWAP1 LOG3 PUSH2 0x9C2 DUP1 PUSH2 0xB5 PUSH0 CODECOPY PUSH0 RETURN INVALID PUSH1 0x80 PUSH1 0x40 MSTORE CALLVALUE DUP1 ISZERO PUSH2 0xF JUMPI PUSH0 PUSH0 REVERT JUMPDEST POP PUSH1 0x4 CALLDATASIZE LT PUSH2 0x7B JUMPI PUSH0 CALLDATALOAD PUSH1 0xE0 SHR DUP1 PUSH4 0x8456CB59 GT PUSH2 0x59 JUMPI DUP1 PUSH4 0x8456CB59 EQ PUSH2 0xD7 JUMPI DUP1 PUSH4 0x8DA5CB5B EQ PUSH2 0xE1 JUMPI DUP1 PUSH4 0xF2FDE38B EQ PUSH2 0xFF JUMPI DUP1 PUSH4 0xF7B188A5 EQ PUSH2 0x11B JUMPI PUSH2 0x7B JUMP JUMPDEST DUP1 PUSH4 0x3FA4F245 EQ PUSH2 0x7F JUMPI DUP1 PUSH4 0x55241077 EQ PUSH2 0x9D JUMPI DUP1 PUSH4 0x5C975ABB EQ PUSH2 0xB9 JUMPI JUMPDEST PUSH0 PUSH0 REVERT JUMPDEST PUSH2 0x87 PUSH2 0x125 JUMP JUMPDEST PUSH1 0x40 MLOAD PUSH2 0x94 SWAP2 SWAP1 PUSH2 0x68A JUMP JUMPDEST PUSH1 0x40 MLOAD DUP1 SWAP2 SUB SWAP1 RETURN JUMPDEST PUSH2 0xB7 PUSH1 0x4 DUP1 CALLDATASIZE SUB DUP2 ADD SWAP1 PUSH2 0xB2 SWAP2 SWAP1 PUSH2 0x6D1 JUMP JUMPDEST PUSH2 0x12B JUMP JUMPDEST STOP JUMPDEST PUSH2 0xC1 PUSH2 0x212 JUMP JUMPDEST PUSH1 0x40 MLOAD PUSH2 0xCE SWAP2 SWAP1 PUSH2 0x716 JUMP JUMPDEST PUSH1 0x40 MLOAD DUP1 SWAP2 SUB SWAP1 RETURN JUMPDEST PUSH2 0xDF PUSH2 0x224 JUMP JUMPDEST STOP JUMPDEST PUSH2 0xE9 PUSH2 0x2BC JUMP JUMPDEST PUSH1 0x40 MLOAD PUSH2 0xF6 SWAP2 SWAP1 PUSH2 0x76E JUMP JUMPDEST PUSH1 0x40 MLOAD DUP1 SWAP2 SUB SWAP1 RETURN JUMPDEST PUSH2 0x119 PUSH1 0x4 DUP1 CALLDATASIZE SUB DUP2 ADD SWAP1 PUSH2 0x114 SWAP2 SWAP1 PUSH2 0x7B1 JUMP JUMPDEST PUSH2 0x2E0 JUMP JUMPDEST STOP JUMPDEST PUSH2 0x123 PUSH2 0x498 JUMP JUMPDEST STOP JUMPDEST PUSH1 0x1 SLOAD DUP2 JUMP JUMPDEST PUSH0 PUSH0 SWAP1 SLOAD SWAP1 PUSH2 0x100 EXP SWAP1 DIV PUSH20 0xFFFFFFFFFFFFFFFFFFFFFFFFFFFFFFFFFFFFFFFF AND PUSH20 0xFFFFFFFFFFFFFFFFFFFFFFFFFFFFFFFFFFFFFFFF AND CALLER PUSH20 0xFFFFFFFFFFFFFFFFFFFFFFFFFFFFFFFFFFFFFFFF AND EQ PUSH2 0x1B9 JUMPI PUSH1 0x40 MLOAD PUSH32 0x8C379A000000000000000000000000000000000000000000000000000000000 DUP2 MSTORE PUSH1 0x4 ADD PUSH2 0x1B0 SWAP1 PUSH2 0x836 JUMP JUMPDEST PUSH1 0x40 MLOAD DUP1 SWAP2 SUB SWAP1 REVERT JUMPDEST PUSH0 PUSH1 0x14 SWAP1 SLOAD SWAP1 PUSH2 0x100 EXP SWAP1 DIV PUSH1 0xFF AND ISZERO PUSH2 0x208 JUMPI PUSH1 0x40 MLOAD PUSH32 0x8C379A000000000000000000000000000000000000000000000000000000000 DUP2 MSTORE PUSH1 0x4 ADD PUSH2 0x1FF SWAP1 PUSH2 0x89E JUMP JUMPDEST PUSH1 0x40 MLOAD DUP1 SWAP2 SUB SWAP1 REVERT JUMPDEST DUP1 PUSH1 0x1 DUP2 SWAP1 SSTORE POP POP JUMP JUMPDEST PUSH0 PUSH1 0x14 SWAP1 SLOAD SWAP1 PUSH2 0x100 EXP SWAP1 DIV PUSH1 0xFF AND DUP2 JUMP JUMPDEST PUSH0 PUSH0 SWAP1 SLOAD SWAP1 PUSH2 0x100 EXP SWAP1 DIV PUSH20 0xFFFFFFFFFFFFFFFFFFFFFFFFFFFFFFFFFFFFFFFF AND PUSH20 0xFFFFFFFFFFFFFFFFFFFFFFFFFFFFFFFFFFFFFFFF AND CALLER PUSH20 0xFFFFFFFFFFFFFFFFFFFFFFFFFFFFFFFFFFFFFFFF AND EQ PUSH2 0x2B2 JUMPI PUSH1 0x40 MLOAD PUSH32 0x8C379A000000000000000000000000000000000000000000000000000000000 DUP2 MSTORE PUSH1 0x4 ADD PUSH2 0x2A9 SWAP1 PUSH2 0x836 JUMP JUMPDEST PUSH1 0x40 MLOAD DUP1 SWAP2 SUB SWAP1 REVERT JUMPDEST PUSH2 0x2BA PUSH2 0x530 JUMP JUMPDEST JUMP JUMPDEST PUSH0 PUSH0 SWAP1 SLOAD SWAP1 PUSH2 0x100 EXP SWAP1 DIV PUSH20 0xFFFFFFFFFFFFFFFFFFFFFFFFFFFFFFFFFFFFFFFF AND DUP2 JUMP JUMPDEST PUSH0 PUSH0 SWAP1 SLOAD SWAP1 PUSH2 0x100 EXP SWAP1 DIV PUSH20 0xFFFFFFFFFFFFFFFFFFFFFFFFFFFFFFFFFFFFFFFF AND PUSH20 0xFFFFFFFFFFFFFFFFFFFFFFFFFFFFFFFFFFFFFFFF AND CALLER PUSH20 0xFFFFFFFFFFFFFFFFFFFFFFFFFFFFFFFFFFFFFFFF AND EQ PUSH2 0x36E JUMPI PUSH1 0x40 MLOAD PUSH32 0x8C379A000000000000000000000000000000000000000000000000000000000 DUP2 MSTORE PUSH1 0x4 ADD PUSH2 0x365 SWAP1 PUSH2 0x836 JUMP JUMPDEST PUSH1 0x40 MLOAD DUP1 SWAP2 SUB SWAP1 REVERT JUMPDEST PUSH0 PUSH20 0xFFFFFFFFFFFFFFFFFFFFFFFFFFFFFFFFFFFFFFFF AND DUP2 PUSH20 0xFFFFFFFFFFFFFFFFFFFFFFFFFFFFFFFFFFFFFFFF AND SUB PUSH2 0x3DC JUMPI PUSH1 0x40 MLOAD PUSH32 0x8C379A000000000000000000000000000000000000000000000000000000000 DUP2 MSTORE PUSH1 0x4 ADD PUSH2 0x3D3 SWAP1 PUSH2 0x906 JUMP JUMPDEST PUSH1 0x40 MLOAD DUP1 SWAP2 SUB SWAP1 REVERT JUMPDEST DUP1 PUSH20 0xFFFFFFFFFFFFFFFFFFFFFFFFFFFFFFFFFFFFFFFF AND PUSH0 PUSH0 SWAP1 SLOAD SWAP1 PUSH2 0x100 EXP SWAP1 DIV PUSH20 0xFFFFFFFFFFFFFFFFFFFFFFFFFFFFFFFFFFFFFFFF AND PUSH20 0xFFFFFFFFFFFFFFFFFFFFFFFFFFFFFFFFFFFFFFFF AND PUSH32 0x8BE0079C531659141344CD1FD0A4F28419497F9722A3DAAFE3B4186F6B6457E0 PUSH1 0x40 MLOAD PUSH1 0x40 MLOAD DUP1 SWAP2 SUB SWAP1 LOG3 DUP1 PUSH0 PUSH0 PUSH2 0x100 EXP DUP2 SLOAD DUP2 PUSH20 0xFFFFFFFFFFFFFFFFFFFFFFFFFFFFFFFFFFFFFFFF MUL NOT AND SWAP1 DUP4 PUSH20 0xFFFFFFFFFFFFFFFFFFFFFFFFFFFFFFFFFFFFFFFF AND MUL OR SWAP1 SSTORE POP POP JUMP JUMPDEST PUSH0 PUSH0 SWAP1 SLOAD SWAP1 PUSH2 0x100 EXP SWAP1 DIV PUSH20 0xFFFFFFFFFFFFFFFFFFFFFFFFFFFFFFFFFFFFFFFF AND PUSH20 0xFFFFFFFFFFFFFFFFFFFFFFFFFFFFFFFFFFFFFFFF AND CALLER PUSH20 0xFFFFFFFFFFFFFFFFFFFFFFFFFFFFFFFFFFFFFFFF AND EQ PUSH2 0x526 JUMPI PUSH1 0x40 MLOAD PUSH32 0x8C379A000000000000000000000000000000000000000000000000000000000 DUP2 MSTORE PUSH1 0x4 ADD PUSH2 0x51D SWAP1 PUSH2 0x836 JUMP JUMPDEST PUSH1 0x40 MLOAD DUP1 SWAP2 SUB SWAP1 REVERT JUMPDEST PUSH2 0x52E PUSH2 0x5D2 JUMP JUMPDEST JUMP JUMPDEST PUSH0 PUSH1 0x14 SWAP1 SLOAD SWAP1 PUSH2 0x100 EXP SWAP1 DIV PUSH1 0xFF AND ISZERO PUSH2 0x57F JUMPI PUSH1 0x40 MLOAD PUSH32 0x8C379A000000000000000000000000000000000000000000000000000000000 DUP2 MSTORE PUSH1 0x4 ADD PUSH2 0x576 SWAP1 PUSH2 0x89E JUMP JUMPDEST PUSH1 0x40 MLOAD DUP1 SWAP2 SUB SWAP1 REVERT JUMPDEST PUSH1 0x1 PUSH0 PUSH1 0x14 PUSH2 0x100 EXP DUP2 SLOAD DUP2 PUSH1 0xFF MUL NOT AND SWAP1 DUP4 ISZERO ISZERO MUL OR SWAP1 SSTORE POP PUSH32 0x62E78CEA01BEE320CD4E420270B5EA74000D11B0C9F74754EBDBFC544B05A258 CALLER PUSH1 0x40 MLOAD PUSH2 0x5C8 SWAP2 SWAP1 PUSH2 0x76E JUMP JUMPDEST PUSH1 0x40 MLOAD DUP1 SWAP2 SUB SWAP1 LOG1 JUMP JUMPDEST PUSH0 PUSH1 0x14 SWAP1 SLOAD SWAP1 PUSH2 0x100 EXP SWAP1 DIV PUSH1 0xFF AND PUSH2 0x620 JUMPI PUSH1 0x40 MLOAD PUSH32 0x8C379A000000000000000000000000000000000000000000000000000000000 DUP2 MSTORE PUSH1 0x4 ADD PUSH2 0x617 SWAP1 PUSH2 0x96E JUMP JUMPDEST PUSH1 0x40 MLOAD DUP1 SWAP2 SUB SWAP1 REVERT JUMPDEST PUSH0 PUSH0 PUSH1 0x14 PUSH2 0x100 EXP DUP2 SLOAD DUP2 PUSH1 0xFF MUL NOT AND SWAP1 DUP4 ISZERO ISZERO MUL OR SWAP1 SSTORE POP PUSH32 0x62E78CEA01BEE320CD4E420270B5EA74000D11B0C9F74754EBDBFC544B05A258 CALLER PUSH1 0x40 MLOAD PUSH2 0x668 SWAP2 SWAP1 PUSH2 0x76E JUMP JUMPDEST PUSH1 0x40 MLOAD DUP1 SWAP2 SUB SWAP1 LOG1 JUMP JUMPDEST PUSH0 DUP2 SWAP1 POP SWAP2 SWAP1 POP JUMP JUMPDEST PUSH2 0x684 DUP2 PUSH2 0x672 JUMP JUMPDEST DUP3 MSTORE POP POP JUMP JUMPDEST PUSH0 PUSH1 0x20 DUP3 ADD SWAP1 POP PUSH2 0x69D PUSH0 DUP4 ADD DUP5 PUSH2 0x67B JUMP JUMPDEST SWAP3 SWAP2 POP POP JUMP JUMPDEST PUSH0 PUSH0 REVERT JUMPDEST PUSH2 0x6B0 DUP2 PUSH2 0x672 JUMP JUMPDEST DUP2 EQ PUSH2 0x6BA JUMPI PUSH0 PUSH0 REVERT JUMPDEST POP JUMP JUMPDEST PUSH0 DUP2 CALLDATALOAD SWAP1 POP PUSH2 0x6CB DUP2 PUSH2 0x6A7 JUMP JUMPDEST SWAP3 SWAP2 POP POP JUMP JUMPDEST PUSH0 PUSH1 0x20 DUP3 DUP5 SUB SLT ISZERO PUSH2 0x6E6 JUMPI PUSH2 0x6E5 PUSH2 0x6A3 JUMP JUMPDEST JUMPDEST PUSH0 PUSH2 0x6F3 DUP5 DUP3 DUP6 ADD PUSH2 0x6BD JUMP JUMPDEST SWAP2 POP POP SWAP3 SWAP2 POP POP JUMP JUMPDEST PUSH0 DUP2 ISZERO ISZERO SWAP1 POP SWAP2 SWAP1 POP JUMP JUMPDEST PUSH2 0x710 DUP2 PUSH2 0x6FC JUMP JUMPDEST DUP3 MSTORE POP POP JUMP JUMPDEST PUSH0 PUSH1 0x20 DUP3 ADD SWAP1 POP PUSH2 0x729 PUSH0 DUP4 ADD DUP5 PUSH2 0x707 JUMP JUMPDEST SWAP3 SWAP2 POP POP JUMP JUMPDEST PUSH0 PUSH20 0xFFFFFFFFFFFFFFFFFFFFFFFFFFFFFFFFFFFFFFFF DUP3 AND SWAP1 POP SWAP2 SWAP1 POP JUMP JUMPDEST PUSH0 PUSH2 0x758 DUP3 PUSH2 0x72F JUMP JUMPDEST SWAP1 POP SWAP2 SWAP1 POP JUMP JUMPDEST PUSH2 0x768 DUP2 PUSH2 0x74E JUMP JUMPDEST DUP3 MSTORE POP POP JUMP JUMPDEST PUSH0 PUSH1 0x20 DUP3 ADD SWAP1 POP PUSH2 0x781 PUSH0 DUP4 ADD DUP5 PUSH2 0x75F JUMP JUMPDEST SWAP3 SWAP2 POP POP JUMP JUMPDEST PUSH2 0x790 DUP2 PUSH2 0x74E JUMP JUMPDEST DUP2 EQ PUSH2 0x79A JUMPI PUSH0 PUSH0 REVERT JUMPDEST POP JUMP JUMPDEST PUSH0 DUP2 CALLDATALOAD SWAP1 POP PUSH2 0x7AB DUP2 PUSH2 0x787 JUMP JUMPDEST SWAP3 SWAP2 POP POP JUMP JUMPDEST PUSH0 PUSH1 0x20 DUP3 DUP5 SUB SLT ISZERO PUSH2 0x7C6 JUMPI PUSH2 0x7C5 PUSH2 0x6A3 JUMP JUMPDEST JUMPDEST PUSH0 PUSH2 0x7D3 DUP5 DUP3 DUP6 ADD PUSH2 0x79D JUMP JUMPDEST SWAP2 POP POP SWAP3 SWAP2 POP POP JUMP JUMPDEST PUSH0 DUP3 DUP3 MSTORE PUSH1 0x20 DUP3 ADD SWAP1 POP SWAP3 SWAP2 POP POP JUMP JUMPDEST PUSH32 0x4F6E6C79206F776E657221000000000000000000000000000000000000000000 PUSH0 DUP3 ADD MSTORE POP JUMP JUMPDEST PUSH0 PUSH2 0x820 PUSH1 0xB DUP4 PUSH2 0x7DC JUMP JUMPDEST SWAP2 POP PUSH2 0x82B DUP3 PUSH2 0x7EC JUMP JUMPDEST PUSH1 0x20 DUP3 ADD SWAP1 POP SWAP2 SWAP1 POP JUMP JUMPDEST PUSH0 PUSH1 0x20 DUP3 ADD SWAP1 POP DUP2 DUP2 SUB PUSH0 DUP4 ADD MSTORE PUSH2 0x84D DUP2 PUSH2 0x814 JUMP JUMPDEST SWAP1 POP SWAP2 SWAP1 POP JUMP JUMPDEST PUSH32 0x436F6E7472616374206973207061757365642100000000000000000000000000 PUSH0 DUP3 ADD MSTORE POP JUMP JUMPDEST PUSH0 PUSH2 0x888 PUSH1 0x13 DUP4 PUSH2 0x7DC JUMP JUMPDEST SWAP2 POP PUSH2 0x893 DUP3 PUSH2 0x854 JUMP JUMPDEST PUSH1 0x20 DUP3 ADD SWAP1 POP SWAP2 SWAP1 POP JUMP JUMPDEST PUSH0 PUSH1 0x20 DUP3 ADD SWAP1 POP DUP2 DUP2 SUB PUSH0 DUP4 ADD MSTORE PUSH2 0x8B5 DUP2 PUSH2 0x87C JUMP JUMPDEST SWAP1 POP SWAP2 SWAP1 POP JUMP JUMPDEST PUSH32 0x496E76616C696420616464726573732100000000000000000000000000000000 PUSH0 DUP3 ADD MSTORE POP JUMP JUMPDEST PUSH0 PUSH2 0x8F0 PUSH1 0x10 DUP4 PUSH2 0x7DC JUMP JUMPDEST SWAP2 POP PUSH2 0x8FB DUP3 PUSH2 0x8BC JUMP JUMPDEST PUSH1 0x20 DUP3 ADD SWAP1 POP SWAP2 SWAP1 POP JUMP JUMPDEST PUSH0 PUSH1 0x20 DUP3 ADD SWAP1 POP DUP2 DUP2 SUB PUSH0 DUP4 ADD MSTORE PUSH2 0x91D DUP2 PUSH2 0x8E4 JUMP JUMPDEST SWAP1 POP SWAP2 SWAP1 POP JUMP JUMPDEST PUSH32 0x436F6E7472616374206973206E6F742070617573656421000000000000000000 PUSH0 DUP3 ADD MSTORE POP JUMP JUMPDEST PUSH0 PUSH2 0x958 PUSH1 0x17 DUP4 PUSH2 0x7DC JUMP JUMPDEST SWAP2 POP PUSH2 0x963 DUP3 PUSH2 0x924 JUMP JUMPDEST PUSH1 0x20 DUP3 ADD SWAP1 POP SWAP2 SWAP1 POP JUMP JUMPDEST PUSH0 PUSH1 0x20 DUP3 ADD SWAP1 POP DUP2 DUP2 SUB PUSH0 DUP4 ADD MSTORE PUSH2 0x985 DUP2 PUSH2 0x94C JUMP JUMPDEST SWAP1 POP SWAP2 SWAP1 POP JUMP INVALID LOG2 PUSH5 0x6970667358 0x22 SLT KECCAK256 TSTORE BYTE PUSH0 DATALOADN 0x6211 0xB2 SHL MUL 0xB4 REVERT GASPRICE 0xB0 GASLIMIT 0xB7 TLOAD SWAP9 JUMPDEST PUSH10 0xDCCCB6DBD7ABB47B25E4 0xB6 RETF RETF PUSH5 0x736F6C6343 STOP ADDMOD 0x22 STOP CALLER "
		},
		"gasEstimates": {
			"creation": {
				"codeDepositCost": "499600",
				"executionCost": "26342",
				"totalCost": "525942"
			},
			"external": {
				"owner()": "2529",
				"pause()": "30091",
				"paused()": "2561",
				"setValue(uint256)": "26911",
				"transferOwnership(address)": "30639",
				"unPause()": "30153",
				"value()": "2426"
			}
		},
		"methodIdentifiers": {
			"owner()": "8da5cb5b",
			"pause()": "8456cb59",
			"paused()": "5c975abb",
			"setValue(uint256)": "55241077",
			"transferOwnership(address)": "f2fde38b",
			"unPause()": "f7b188a5",
			"value()": "3fa4f245"
		}
	},
	"abi": [
		{
			"anonymous": false,
			"inputs": [
				{
					"indexed": true,
					"internalType": "address",
					"name": "previousOwner",
					"type": "address"
				},
				{
					"indexed": true,
					"internalType": "address",
					"name": "newOwner",
					"type": "address"
				}
			],
			"name": "OwnershipTransferred",
			"type": "event"
		},
		{
			"anonymous": false,
			"inputs": [
				{
					"indexed": false,
					"internalType": "address",
					"name": "account",
					"type": "address"
				}
			],
			"name": "Paused",
			"type": "event"
		},
		{
			"anonymous": false,
			"inputs": [
				{
					"indexed": false,
					"internalType": "address",
					"name": "account",
					"type": "address"
				}
			],
			"name": "UnPaused",
			"type": "event"
		},
		{
			"inputs": [],
			"name": "owner",
			"outputs": [
				{
					"internalType": "address",
					"name": "",
					"type": "address"
				}
			],
			"stateMutability": "view",
			"type": "function"
		},
		{
			"inputs": [],
			"name": "pause",
			"outputs": [],
			"stateMutability": "nonpayable",
			"type": "function"
		},
		{
			"inputs": [],
			"name": "paused",
			"outputs": [
				{
					"internalType": "bool",
					"name": "",
					"type": "bool"
				}
			],
			"stateMutability": "view",
			"type": "function"
		},
		{
			"inputs": [
				{
					"internalType": "uint256",
					"name": "_value",
					"type": "uint256"
				}
			],
			"name": "setValue",
			"outputs": [],
			"stateMutability": "nonpayable",
			"type": "function"
		},
		{
			"inputs": [
				{
					"internalType": "address",
					"name": "newOwner",
					"type": "address"
				}
			],
			"name": "transferOwnership",
			"outputs": [],
			"stateMutability": "nonpayable",
			"type": "function"
		},
		{
			"inputs": [],
			"name": "unPause",
			"outputs": [],
			"stateMutability": "nonpayable",
			"type": "function"
		},
		{
			"inputs": [],
			"name": "value",
			"outputs": [
				{
					"internalType": "uint256",
					"name": "",
					"type": "uint256"
				}
			],
			"stateMutability": "view",
			"type": "function"
		}
	]
}