{
	"data": {
		"bytecode": {
			"linkReferences": {},
			"object": "60806040525f5f5f6101000a81548160ff0219169083151502179055503480156026575f5ffd5b503360025f6101000a81548173ffffffffffffffffffffffffffffffffffffffff021916908373ffffffffffffffffffffffffffffffffffffffff160217905550610ce8806100745f395ff3fe608060405260043610610094575f3560e01c80638da5cb5b116100585780638da5cb5b14610175578063b1e4c5251461019f578063d0e30db0146101b5578063e1e158a5146101bf578063f8b2cb4f146101e9576100a3565b806327e235e3146100a75780632e1a7d4d146100e35780635c975abb1461010b57806363a599a4146101355780636f9fb98a1461014b576100a3565b366100a3576100a1610225565b005b5f5ffd5b3480156100b2575f5ffd5b506100cd60048036038101906100c891906108d4565b610362565b6040516100da9190610917565b60405180910390f35b3480156100ee575f5ffd5b506101096004803603810190610104919061095a565b610377565b005b348015610116575f5ffd5b5061011f61052c565b60405161012c919061099f565b60405180910390f35b348015610140575f5ffd5b5061014961053d565b005b348015610156575f5ffd5b5061015f61069c565b60405161016c9190610917565b60405180910390f35b348015610180575f5ffd5b506101896106a3565b60405161019691906109c7565b60405180910390f35b3480156101aa575f5ffd5b506101b36106c8565b005b6101bd610225565b005b3480156101ca575f5ffd5b506101d3610825565b6040516101e09190610917565b60405180910390f35b3480156101f4575f5ffd5b5061020f600480360381019061020a91906108d4565b610830565b60405161021c9190610917565b60405180910390f35b5f5f9054906101000a900460ff1615610273576040517f08c379a000000000000000000000000000000000000000000000000000000000815260040161026a90610a3a565b60405180910390fd5b662386f26fc10000803410156102be576040517f08c379a00000000000000000000000000000000000000000000000000000000081526004016102b590610aa2565b60405180910390fd5b3460015f3373ffffffffffffffffffffffffffffffffffffffff1673ffffffffffffffffffffffffffffffffffffffff1681526020019081526020015f205f82825461030a9190610aed565b925050819055503373ffffffffffffffffffffffffffffffffffffffff167f951fdc61d6a98f96098a17ea6ac287a6fd38aea6bef73083c93b274cb830107d346040516103579190610917565b60405180910390a250565b6001602052805f5260405f205f915090505481565b5f5f9054906101000a900460ff16156103c5576040517f08c379a00000000000000000000000000000000000000000000000000000000081526004016103bc90610a3a565b60405180910390fd5b8060015f3373ffffffffffffffffffffffffffffffffffffffff1673ffffffffffffffffffffffffffffffffffffffff1681526020019081526020015f205411610444576040517f08c379a000000000000000000000000000000000000000000000000000000000815260040161043b90610b6a565b60405180910390fd5b8060015f3373ffffffffffffffffffffffffffffffffffffffff1673ffffffffffffffffffffffffffffffffffffffff1681526020019081526020015f205f8282546104909190610b88565b925050819055503373ffffffffffffffffffffffffffffffffffffffff166108fc8290811502906040515f60405180830381858888f193505050501580156104da573d5f5f3e3d5ffd5b503373ffffffffffffffffffffffffffffffffffffffff167f98824d89d47225910d3e61aa38b640d29d58b43e2dc47b4d986a588c88e0a2a8826040516105219190610917565b60405180910390a250565b5f5f9054906101000a900460ff1681565b60025f9054906101000a900473ffffffffffffffffffffffffffffffffffffffff1673ffffffffffffffffffffffffffffffffffffffff163373ffffffffffffffffffffffffffffffffffffffff16146105cc576040517f08c379a00000000000000000000000000000000000000000000000000000000081526004016105c390610c05565b60405180910390fd5b5f5f9054906101000a900460ff161561061a576040517f08c379a000000000000000000000000000000000000000000000000000000000815260040161061190610a3a565b60405180910390fd5b60015f5f6101000a81548160ff0219169083151502179055507ff901959fc42133df20032a09eaceb492895d44eee56f006aae56bc882b68807960025f9054906101000a900473ffffffffffffffffffffffffffffffffffffffff165f5f9054906101000a900460ff16604051610692929190610c23565b60405180910390a1565b5f47905090565b60025f9054906101000a900473ffffffffffffffffffffffffffffffffffffffff1681565b60025f9054906101000a900473ffffffffffffffffffffffffffffffffffffffff1673ffffffffffffffffffffffffffffffffffffffff163373ffffffffffffffffffffffffffffffffffffffff1614610757576040517f08c379a000000000000000000000000000000000000000000000000000000000815260040161074e90610c05565b60405180910390fd5b5f5f9054906101000a900460ff166107a4576040517f08c379a000000000000000000000000000000000000000000000000000000000815260040161079b90610c94565b60405180910390fd5b5f5f5f6101000a81548160ff0219169083151502179055507ff901959fc42133df20032a09eaceb492895d44eee56f006aae56bc882b68807960025f9054906101000a900473ffffffffffffffffffffffffffffffffffffffff165f5f9054906101000a900460ff1660405161081b929190610c23565b60405180910390a1565b662386f26fc1000081565b5f60015f8373ffffffffffffffffffffffffffffffffffffffff1673ffffffffffffffffffffffffffffffffffffffff1681526020019081526020015f20549050919050565b5f5ffd5b5f73ffffffffffffffffffffffffffffffffffffffff82169050919050565b5f6108a38261087a565b9050919050565b6108b381610899565b81146108bd575f5ffd5b50565b5f813590506108ce816108aa565b92915050565b5f602082840312156108e9576108e8610876565b5b5f6108f6848285016108c0565b91505092915050565b5f819050919050565b610911816108ff565b82525050565b5f60208201905061092a5f830184610908565b92915050565b610939816108ff565b8114610943575f5ffd5b50565b5f8135905061095481610930565b92915050565b5f6020828403121561096f5761096e610876565b5b5f61097c84828501610946565b91505092915050565b5f8115159050919050565b61099981610985565b82525050565b5f6020820190506109b25f830184610990565b92915050565b6109c181610899565b82525050565b5f6020820190506109da5f8301846109b8565b92915050565b5f82825260208201905092915050565b7f53746174652069732070617573656421000000000000000000000000000000005f82015250565b5f610a246010836109e0565b9150610a2f826109f0565b602082019050919050565b5f6020820190508181035f830152610a5181610a18565b9050919050565b7f42656c6f7720746865206d696e696d756d20616d6f756e7421000000000000005f82015250565b5f610a8c6019836109e0565b9150610a9782610a58565b602082019050919050565b5f6020820190508181035f830152610ab981610a80565b9050919050565b7f4e487b71000000000000000000000000000000000000000000000000000000005f52601160045260245ffd5b5f610af7826108ff565b9150610b02836108ff565b9250828201905080821115610b1a57610b19610ac0565b5b92915050565b7f496e73756666696369656e742042616c616e63650000000000000000000000005f82015250565b5f610b546014836109e0565b9150610b5f82610b20565b602082019050919050565b5f6020820190508181035f830152610b8181610b48565b9050919050565b5f610b92826108ff565b9150610b9d836108ff565b9250828203905081811115610bb557610bb4610ac0565b5b92915050565b7f4f6e6c79206f776e65722063616e2063616c6c210000000000000000000000005f82015250565b5f610bef6014836109e0565b9150610bfa82610bbb565b602082019050919050565b5f6020820190508181035f830152610c1c81610be3565b9050919050565b5f604082019050610c365f8301856109b8565b610c436020830184610990565b9392505050565b7f5374617465206973206e6f7420706175736564210000000000000000000000005f82015250565b5f610c7e6014836109e0565b9150610c8982610c4a565b602082019050919050565b5f6020820190508181035f830152610cab81610c72565b905091905056fea2646970667358221220bf304f73616e282fcfb943b928fd34e3a81bfc248c621800b043bed3e624a74a64736f6c63430008220033",
			"opcodes": "PUSH1 0x80 PUSH1 0x40 MSTORE PUSH0 PUSH0 PUSH0 PUSH2 0x100 EXP DUP2 SLOAD DUP2 PUSH1 0xFF MUL NOT AND SWAP1 DUP4 ISZERO ISZERO MUL OR SWAP1 SSTORE POP CALLVALUE DUP1 ISZERO PUSH1 0x26 JUMPI PUSH0 PUSH0 REVERT JUMPDEST POP CALLER PUSH1 0x2 PUSH0 PUSH2 0x100 EXP DUP2 SLOAD DUP2 PUSH20 0xFFFFFFFFFFFFFFFFFFFFFFFFFFFFFFFFFFFFFFFF MUL NOT AND SWAP1 DUP4 PUSH20 0xFFFFFFFFFFFFFFFFFFFFFFFFFFFFFFFFFFFFFFFF AND MUL OR SWAP1 SSTORE POP PUSH2 0xCE8 DUP1 PUSH2 0x74 PUSH0 CODECOPY PUSH0 RETURN INVALID PUSH1 0x80 PUSH1 0x40 MSTORE PUSH1 0x4 CALLDATASIZE LT PUSH2 0x94 JUMPI PUSH0 CALLDATALOAD PUSH1 0xE0 SHR DUP1 PUSH4 0x8DA5CB5B GT PUSH2 0x58 JUMPI DUP1 PUSH4 0x8DA5CB5B EQ PUSH2 0x175 JUMPI DUP1 PUSH4 0xB1E4C525 EQ PUSH2 0x19F JUMPI DUP1 PUSH4 0xD0E30DB0 EQ PUSH2 0x1B5 JUMPI DUP1 PUSH4 0xE1E158A5 EQ PUSH2 0x1BF JUMPI DUP1 PUSH4 0xF8B2CB4F EQ PUSH2 0x1E9 JUMPI PUSH2 0xA3 JUMP JUMPDEST DUP1 PUSH4 0x27E235E3 EQ PUSH2 0xA7 JUMPI DUP1 PUSH4 0x2E1A7D4D EQ PUSH2 0xE3 JUMPI DUP1 PUSH4 0x5C975ABB EQ PUSH2 0x10B JUMPI DUP1 PUSH4 0x63A599A4 EQ PUSH2 0x135 JUMPI DUP1 PUSH4 0x6F9FB98A EQ PUSH2 0x14B JUMPI PUSH2 0xA3 JUMP JUMPDEST CALLDATASIZE PUSH2 0xA3 JUMPI PUSH2 0xA1 PUSH2 0x225 JUMP JUMPDEST STOP JUMPDEST PUSH0 PUSH0 REVERT JUMPDEST CALLVALUE DUP1 ISZERO PUSH2 0xB2 JUMPI PUSH0 PUSH0 REVERT JUMPDEST POP PUSH2 0xCD PUSH1 0x4 DUP1 CALLDATASIZE SUB DUP2 ADD SWAP1 PUSH2 0xC8 SWAP2 SWAP1 PUSH2 0x8D4 JUMP JUMPDEST PUSH2 0x362 JUMP JUMPDEST PUSH1 0x40 MLOAD PUSH2 0xDA SWAP2 SWAP1 PUSH2 0x917 JUMP JUMPDEST PUSH1 0x40 MLOAD DUP1 SWAP2 SUB SWAP1 RETURN JUMPDEST CALLVALUE DUP1 ISZERO PUSH2 0xEE JUMPI PUSH0 PUSH0 REVERT JUMPDEST POP PUSH2 0x109 PUSH1 0x4 DUP1 CALLDATASIZE SUB DUP2 ADD SWAP1 PUSH2 0x104 SWAP2 SWAP1 PUSH2 0x95A JUMP JUMPDEST PUSH2 0x377 JUMP JUMPDEST STOP JUMPDEST CALLVALUE DUP1 ISZERO PUSH2 0x116 JUMPI PUSH0 PUSH0 REVERT JUMPDEST POP PUSH2 0x11F PUSH2 0x52C JUMP JUMPDEST PUSH1 0x40 MLOAD PUSH2 0x12C SWAP2 SWAP1 PUSH2 0x99F JUMP JUMPDEST PUSH1 0x40 MLOAD DUP1 SWAP2 SUB SWAP1 RETURN JUMPDEST CALLVALUE DUP1 ISZERO PUSH2 0x140 JUMPI PUSH0 PUSH0 REVERT JUMPDEST POP PUSH2 0x149 PUSH2 0x53D JUMP JUMPDEST STOP JUMPDEST CALLVALUE DUP1 ISZERO PUSH2 0x156 JUMPI PUSH0 PUSH0 REVERT JUMPDEST POP PUSH2 0x15F PUSH2 0x69C JUMP JUMPDEST PUSH1 0x40 MLOAD PUSH2 0x16C SWAP2 SWAP1 PUSH2 0x917 JUMP JUMPDEST PUSH1 0x40 MLOAD DUP1 SWAP2 SUB SWAP1 RETURN JUMPDEST CALLVALUE DUP1 ISZERO PUSH2 0x180 JUMPI PUSH0 PUSH0 REVERT JUMPDEST POP PUSH2 0x189 PUSH2 0x6A3 JUMP JUMPDEST PUSH1 0x40 MLOAD PUSH2 0x196 SWAP2 SWAP1 PUSH2 0x9C7 JUMP JUMPDEST PUSH1 0x40 MLOAD DUP1 SWAP2 SUB SWAP1 RETURN JUMPDEST CALLVALUE DUP1 ISZERO PUSH2 0x1AA JUMPI PUSH0 PUSH0 REVERT JUMPDEST POP PUSH2 0x1B3 PUSH2 0x6C8 JUMP JUMPDEST STOP JUMPDEST PUSH2 0x1BD PUSH2 0x225 JUMP JUMPDEST STOP JUMPDEST CALLVALUE DUP1 ISZERO PUSH2 0x1CA JUMPI PUSH0 PUSH0 REVERT JUMPDEST POP PUSH2 0x1D3 PUSH2 0x825 JUMP JUMPDEST PUSH1 0x40 MLOAD PUSH2 0x1E0 SWAP2 SWAP1 PUSH2 0x917 JUMP JUMPDEST PUSH1 0x40 MLOAD DUP1 SWAP2 SUB SWAP1 RETURN JUMPDEST CALLVALUE DUP1 ISZERO PUSH2 0x1F4 JUMPI PUSH0 PUSH0 REVERT JUMPDEST POP PUSH2 0x20F PUSH1 0x4 DUP1 CALLDATASIZE SUB DUP2 ADD SWAP1 PUSH2 0x20A SWAP2 SWAP1 PUSH2 0x8D4 JUMP JUMPDEST PUSH2 0x830 JUMP JUMPDEST PUSH1 0x40 MLOAD PUSH2 0x21C SWAP2 SWAP1 PUSH2 0x917 JUMP JUMPDEST PUSH1 0x40 MLOAD DUP1 SWAP2 SUB SWAP1 RETURN JUMPDEST PUSH0 PUSH0 SWAP1 SLOAD SWAP1 PUSH2 0x100 EXP SWAP1 DIV PUSH1 0xFF AND ISZERO PUSH2 0x273 JUMPI PUSH1 0x40 MLOAD PUSH32 0x8C379A000000000000000000000000000000000000000000000000000000000 DUP2 MSTORE PUSH1 0x4 ADD PUSH2 0x26A SWAP1 PUSH2 0xA3A JUMP JUMPDEST PUSH1 0x40 MLOAD DUP1 SWAP2 SUB SWAP1 REVERT JUMPDEST PUSH7 0x2386F26FC10000 DUP1 CALLVALUE LT ISZERO PUSH2 0x2BE JUMPI PUSH1 0x40 MLOAD PUSH32 0x8C379A000000000000000000000000000000000000000000000000000000000 DUP2 MSTORE PUSH1 0x4 ADD PUSH2 0x2B5 SWAP1 PUSH2 0xAA2 JUMP JUMPDEST PUSH1 0x40 MLOAD DUP1 SWAP2 SUB SWAP1 REVERT JUMPDEST CALLVALUE PUSH1 0x1 PUSH0 CALLER PUSH20 0xFFFFFFFFFFFFFFFFFFFFFFFFFFFFFFFFFFFFFFFF AND PUSH20 0xFFFFFFFFFFFFFFFFFFFFFFFFFFFFFFFFFFFFFFFF AND DUP2 MSTORE PUSH1 0x20 ADD SWAP1 DUP2 MSTORE PUSH1 0x20 ADD PUSH0 KECCAK256 PUSH0 DUP3 DUP3 SLOAD PUSH2 0x30A SWAP2 SWAP1 PUSH2 0xAED JUMP JUMPDEST SWAP3 POP POP DUP2 SWAP1 SSTORE POP CALLER PUSH20 0xFFFFFFFFFFFFFFFFFFFFFFFFFFFFFFFFFFFFFFFF AND PUSH32 0x951FDC61D6A98F96098A17EA6AC287A6FD38AEA6BEF73083C93B274CB830107D CALLVALUE PUSH1 0x40 MLOAD PUSH2 0x357 SWAP2 SWAP1 PUSH2 0x917 JUMP JUMPDEST PUSH1 0x40 MLOAD DUP1 SWAP2 SUB SWAP1 LOG2 POP JUMP JUMPDEST PUSH1 0x1 PUSH1 0x20 MSTORE DUP1 PUSH0 MSTORE PUSH1 0x40 PUSH0 KECCAK256 PUSH0 SWAP2 POP SWAP1 POP SLOAD DUP2 JUMP JUMPDEST PUSH0 PUSH0 SWAP1 SLOAD SWAP1 PUSH2 0x100 EXP SWAP1 DIV PUSH1 0xFF AND ISZERO PUSH2 0x3C5 JUMPI PUSH1 0x40 MLOAD PUSH32 0x8C379A000000000000000000000000000000000000000000000000000000000 DUP2 MSTORE PUSH1 0x4 ADD PUSH2 0x3BC SWAP1 PUSH2 0xA3A JUMP JUMPDEST PUSH1 0x40 MLOAD DUP1 SWAP2 SUB SWAP1 REVERT JUMPDEST DUP1 PUSH1 0x1 PUSH0 CALLER PUSH20 0xFFFFFFFFFFFFFFFFFFFFFFFFFFFFFFFFFFFFFFFF AND PUSH20 0xFFFFFFFFFFFFFFFFFFFFFFFFFFFFFFFFFFFFFFFF AND DUP2 MSTORE PUSH1 0x20 ADD SWAP1 DUP2 MSTORE PUSH1 0x20 ADD PUSH0 KECCAK256 SLOAD GT PUSH2 0x444 JUMPI PUSH1 0x40 MLOAD PUSH32 0x8C379A000000000000000000000000000000000000000000000000000000000 DUP2 MSTORE PUSH1 0x4 ADD PUSH2 0x43B SWAP1 PUSH2 0xB6A JUMP JUMPDEST PUSH1 0x40 MLOAD DUP1 SWAP2 SUB SWAP1 REVERT JUMPDEST DUP1 PUSH1 0x1 PUSH0 CALLER PUSH20 0xFFFFFFFFFFFFFFFFFFFFFFFFFFFFFFFFFFFFFFFF AND PUSH20 0xFFFFFFFFFFFFFFFFFFFFFFFFFFFFFFFFFFFFFFFF AND DUP2 MSTORE PUSH1 0x20 ADD SWAP1 DUP2 MSTORE PUSH1 0x20 ADD PUSH0 KECCAK256 PUSH0 DUP3 DUP3 SLOAD PUSH2 0x490 SWAP2 SWAP1 PUSH2 0xB88 JUMP JUMPDEST SWAP3 POP POP DUP2 SWAP1 SSTORE POP CALLER PUSH20 0xFFFFFFFFFFFFFFFFFFFFFFFFFFFFFFFFFFFFFFFF AND PUSH2 0x8FC DUP3 SWAP1 DUP2 ISZERO MUL SWAP1 PUSH1 0x40 MLOAD PUSH0 PUSH1 0x40 MLOAD DUP1 DUP4 SUB DUP2 DUP6 DUP9 DUP9 CALL SWAP4 POP POP POP POP ISZERO DUP1 ISZERO PUSH2 0x4DA JUMPI RETURNDATASIZE PUSH0 PUSH0 RETURNDATACOPY RETURNDATASIZE PUSH0 REVERT JUMPDEST POP CALLER PUSH20 0xFFFFFFFFFFFFFFFFFFFFFFFFFFFFFFFFFFFFFFFF AND PUSH32 0x98824D89D47225910D3E61AA38B640D29D58B43E2DC47B4D986A588C88E0A2A8 DUP3 PUSH1 0x40 MLOAD PUSH2 0x521 SWAP2 SWAP1 PUSH2 0x917 JUMP JUMPDEST PUSH1 0x40 MLOAD DUP1 SWAP2 SUB SWAP1 LOG2 POP JUMP JUMPDEST PUSH0 PUSH0 SWAP1 SLOAD SWAP1 PUSH2 0x100 EXP SWAP1 DIV PUSH1 0xFF AND DUP2 JUMP JUMPDEST PUSH1 0x2 PUSH0 SWAP1 SLOAD SWAP1 PUSH2 0x100 EXP SWAP1 DIV PUSH20 0xFFFFFFFFFFFFFFFFFFFFFFFFFFFFFFFFFFFFFFFF AND PUSH20 0xFFFFFFFFFFFFFFFFFFFFFFFFFFFFFFFFFFFFFFFF AND CALLER PUSH20 0xFFFFFFFFFFFFFFFFFFFFFFFFFFFFFFFFFFFFFFFF AND EQ PUSH2 0x5CC JUMPI PUSH1 0x40 MLOAD PUSH32 0x8C379A000000000000000000000000000000000000000000000000000000000 DUP2 MSTORE PUSH1 0x4 ADD PUSH2 0x5C3 SWAP1 PUSH2 0xC05 JUMP JUMPDEST PUSH1 0x40 MLOAD DUP1 SWAP2 SUB SWAP1 REVERT JUMPDEST PUSH0 PUSH0 SWAP1 SLOAD SWAP1 PUSH2 0x100 EXP SWAP1 DIV PUSH1 0xFF AND ISZERO PUSH2 0x61A JUMPI PUSH1 0x40 MLOAD PUSH32 0x8C379A000000000000000000000000000000000000000000000000000000000 DUP2 MSTORE PUSH1 0x4 ADD PUSH2 0x611 SWAP1 PUSH2 0xA3A JUMP JUMPDEST PUSH1 0x40 MLOAD DUP1 SWAP2 SUB SWAP1 REVERT JUMPDEST PUSH1 0x1 PUSH0 PUSH0 PUSH2 0x100 EXP DUP2 SLOAD DUP2 PUSH1 0xFF MUL NOT AND SWAP1 DUP4 ISZERO ISZERO MUL OR SWAP1 SSTORE POP PUSH32 0xF901959FC42133DF20032A09EACEB492895D44EEE56F006AAE56BC882B688079 PUSH1 0x2 PUSH0 SWAP1 SLOAD SWAP1 PUSH2 0x100 EXP SWAP1 DIV PUSH20 0xFFFFFFFFFFFFFFFFFFFFFFFFFFFFFFFFFFFFFFFF AND PUSH0 PUSH0 SWAP1 SLOAD SWAP1 PUSH2 0x100 EXP SWAP1 DIV PUSH1 0xFF AND PUSH1 0x40 MLOAD PUSH2 0x692 SWAP3 SWAP2 SWAP1 PUSH2 0xC23 JUMP JUMPDEST PUSH1 0x40 MLOAD DUP1 SWAP2 SUB SWAP1 LOG1 JUMP JUMPDEST PUSH0 SELFBALANCE SWAP1 POP SWAP1 JUMP JUMPDEST PUSH1 0x2 PUSH0 SWAP1 SLOAD SWAP1 PUSH2 0x100 EXP SWAP1 DIV PUSH20 0xFFFFFFFFFFFFFFFFFFFFFFFFFFFFFFFFFFFFFFFF AND DUP2 JUMP JUMPDEST PUSH1 0x2 PUSH0 SWAP1 SLOAD SWAP1 PUSH2 0x100 EXP SWAP1 DIV PUSH20 0xFFFFFFFFFFFFFFFFFFFFFFFFFFFFFFFFFFFFFFFF AND PUSH20 0xFFFFFFFFFFFFFFFFFFFFFFFFFFFFFFFFFFFFFFFF AND CALLER PUSH20 0xFFFFFFFFFFFFFFFFFFFFFFFFFFFFFFFFFFFFFFFF AND EQ PUSH2 0x757 JUMPI PUSH1 0x40 MLOAD PUSH32 0x8C379A000000000000000000000000000000000000000000000000000000000 DUP2 MSTORE PUSH1 0x4 ADD PUSH2 0x74E SWAP1 PUSH2 0xC05 JUMP JUMPDEST PUSH1 0x40 MLOAD DUP1 SWAP2 SUB SWAP1 REVERT JUMPDEST PUSH0 PUSH0 SWAP1 SLOAD SWAP1 PUSH2 0x100 EXP SWAP1 DIV PUSH1 0xFF AND PUSH2 0x7A4 JUMPI PUSH1 0x40 MLOAD PUSH32 0x8C379A000000000000000000000000000000000000000000000000000000000 DUP2 MSTORE PUSH1 0x4 ADD PUSH2 0x79B SWAP1 PUSH2 0xC94 JUMP JUMPDEST PUSH1 0x40 MLOAD DUP1 SWAP2 SUB SWAP1 REVERT JUMPDEST PUSH0 PUSH0 PUSH0 PUSH2 0x100 EXP DUP2 SLOAD DUP2 PUSH1 0xFF MUL NOT AND SWAP1 DUP4 ISZERO ISZERO MUL OR SWAP1 SSTORE POP PUSH32 0xF901959FC42133DF20032A09EACEB492895D44EEE56F006AAE56BC882B688079 PUSH1 0x2 PUSH0 SWAP1 SLOAD SWAP1 PUSH2 0x100 EXP SWAP1 DIV PUSH20 0xFFFFFFFFFFFFFFFFFFFFFFFFFFFFFFFFFFFFFFFF AND PUSH0 PUSH0 SWAP1 SLOAD SWAP1 PUSH2 0x100 EXP SWAP1 DIV PUSH1 0xFF AND PUSH1 0x40 MLOAD PUSH2 0x81B SWAP3 SWAP2 SWAP1 PUSH2 0xC23 JUMP JUMPDEST PUSH1 0x40 MLOAD DUP1 SWAP2 SUB SWAP1 LOG1 JUMP JUMPDEST PUSH7 0x2386F26FC10000 DUP2 JUMP JUMPDEST PUSH0 PUSH1 0x1 PUSH0 DUP4 PUSH20 0xFFFFFFFFFFFFFFFFFFFFFFFFFFFFFFFFFFFFFFFF AND PUSH20 0xFFFFFFFFFFFFFFFFFFFFFFFFFFFFFFFFFFFFFFFF AND DUP2 MSTORE PUSH1 0x20 ADD SWAP1 DUP2 MSTORE PUSH1 0x20 ADD PUSH0 KECCAK256 SLOAD SWAP1 POP SWAP2 SWAP1 POP JUMP JUMPDEST PUSH0 PUSH0 REVERT JUMPDEST PUSH0 PUSH20 0xFFFFFFFFFFFFFFFFFFFFFFFFFFFFFFFFFFFFFFFF DUP3 AND SWAP1 POP SWAP2 SWAP1 POP JUMP JUMPDEST PUSH0 PUSH2 0x8A3 DUP3 PUSH2 0x87A JUMP JUMPDEST SWAP1 POP SWAP2 SWAP1 POP JUMP JUMPDEST PUSH2 0x8B3 DUP2 PUSH2 0x899 JUMP JUMPDEST DUP2 EQ PUSH2 0x8BD JUMPI PUSH0 PUSH0 REVERT JUMPDEST POP JUMP JUMPDEST PUSH0 DUP2 CALLDATALOAD SWAP1 POP PUSH2 0x8CE DUP2 PUSH2 0x8AA JUMP JUMPDEST SWAP3 SWAP2 POP POP JUMP JUMPDEST PUSH0 PUSH1 0x20 DUP3 DUP5 SUB SLT ISZERO PUSH2 0x8E9 JUMPI PUSH2 0x8E8 PUSH2 0x876 JUMP JUMPDEST JUMPDEST PUSH0 PUSH2 0x8F6 DUP5 DUP3 DUP6 ADD PUSH2 0x8C0 JUMP JUMPDEST SWAP2 POP POP SWAP3 SWAP2 POP POP JUMP JUMPDEST PUSH0 DUP2 SWAP1 POP SWAP2 SWAP1 POP JUMP JUMPDEST PUSH2 0x911 DUP2 PUSH2 0x8FF JUMP JUMPDEST DUP3 MSTORE POP POP JUMP JUMPDEST PUSH0 PUSH1 0x20 DUP3 ADD SWAP1 POP PUSH2 0x92A PUSH0 DUP4 ADD DUP5 PUSH2 0x908 JUMP JUMPDEST SWAP3 SWAP2 POP POP JUMP JUMPDEST PUSH2 0x939 DUP2 PUSH2 0x8FF JUMP JUMPDEST DUP2 EQ PUSH2 0x943 JUMPI PUSH0 PUSH0 REVERT JUMPDEST POP JUMP JUMPDEST PUSH0 DUP2 CALLDATALOAD SWAP1 POP PUSH2 0x954 DUP2 PUSH2 0x930 JUMP JUMPDEST SWAP3 SWAP2 POP POP JUMP JUMPDEST PUSH0 PUSH1 0x20 DUP3 DUP5 SUB SLT ISZERO PUSH2 0x96F JUMPI PUSH2 0x96E PUSH2 0x876 JUMP JUMPDEST JUMPDEST PUSH0 PUSH2 0x97C DUP5 DUP3 DUP6 ADD PUSH2 0x946 JUMP JUMPDEST SWAP2 POP POP SWAP3 SWAP2 POP POP JUMP JUMPDEST PUSH0 DUP2 ISZERO ISZERO SWAP1 POP SWAP2 SWAP1 POP JUMP JUMPDEST PUSH2 0x999 DUP2 PUSH2 0x985 JUMP JUMPDEST DUP3 MSTORE POP POP JUMP JUMPDEST PUSH0 PUSH1 0x20 DUP3 ADD SWAP1 POP PUSH2 0x9B2 PUSH0 DUP4 ADD DUP5 PUSH2 0x990 JUMP JUMPDEST SWAP3 SWAP2 POP POP JUMP JUMPDEST PUSH2 0x9C1 DUP2 PUSH2 0x899 JUMP JUMPDEST DUP3 MSTORE POP POP JUMP JUMPDEST PUSH0 PUSH1 0x20 DUP3 ADD SWAP1 POP PUSH2 0x9DA PUSH0 DUP4 ADD DUP5 PUSH2 0x9B8 JUMP JUMPDEST SWAP3 SWAP2 POP POP JUMP JUMPDEST PUSH0 DUP3 DUP3 MSTORE PUSH1 0x20 DUP3 ADD SWAP1 POP SWAP3 SWAP2 POP POP JUMP JUMPDEST PUSH32 0x5374617465206973207061757365642100000000000000000000000000000000 PUSH0 DUP3 ADD MSTORE POP JUMP JUMPDEST PUSH0 PUSH2 0xA24 PUSH1 0x10 DUP4 PUSH2 0x9E0 JUMP JUMPDEST SWAP2 POP PUSH2 0xA2F DUP3 PUSH2 0x9F0 JUMP JUMPDEST PUSH1 0x20 DUP3 ADD SWAP1 POP SWAP2 SWAP1 POP JUMP JUMPDEST PUSH0 PUSH1 0x20 DUP3 ADD SWAP1 POP DUP2 DUP2 SUB PUSH0 DUP4 ADD MSTORE PUSH2 0xA51 DUP2 PUSH2 0xA18 JUMP JUMPDEST SWAP1 POP SWAP2 SWAP1 POP JUMP JUMPDEST PUSH32 0x42656C6F7720746865206D696E696D756D20616D6F756E742100000000000000 PUSH0 DUP3 ADD MSTORE POP JUMP JUMPDEST PUSH0 PUSH2 0xA8C PUSH1 0x19 DUP4 PUSH2 0x9E0 JUMP JUMPDEST SWAP2 POP PUSH2 0xA97 DUP3 PUSH2 0xA58 JUMP JUMPDEST PUSH1 0x20 DUP3 ADD SWAP1 POP SWAP2 SWAP1 POP JUMP JUMPDEST PUSH0 PUSH1 0x20 DUP3 ADD SWAP1 POP DUP2 DUP2 SUB PUSH0 DUP4 ADD MSTORE PUSH2 0xAB9 DUP2 PUSH2 0xA80 JUMP JUMPDEST SWAP1 POP SWAP2 SWAP1 POP JUMP JUMPDEST PUSH32 0x4E487B7100000000000000000000000000000000000000000000000000000000 PUSH0 MSTORE PUSH1 0x11 PUSH1 0x4 MSTORE PUSH1 0x24 PUSH0 REVERT JUMPDEST PUSH0 PUSH2 0xAF7 DUP3 PUSH2 0x8FF JUMP JUMPDEST SWAP2 POP PUSH2 0xB02 DUP4 PUSH2 0x8FF JUMP JUMPDEST SWAP3 POP DUP3 DUP3 ADD SWAP1 POP DUP1 DUP3 GT ISZERO PUSH2 0xB1A JUMPI PUSH2 0xB19 PUSH2 0xAC0 JUMP JUMPDEST JUMPDEST SWAP3 SWAP2 POP POP JUMP JUMPDEST PUSH32 0x496E73756666696369656E742042616C616E6365000000000000000000000000 PUSH0 DUP3 ADD MSTORE POP JUMP JUMPDEST PUSH0 PUSH2 0xB54 PUSH1 0x14 DUP4 PUSH2 0x9E0 JUMP JUMPDEST SWAP2 POP PUSH2 0xB5F DUP3 PUSH2 0xB20 JUMP JUMPDEST PUSH1 0x20 DUP3 ADD SWAP1 POP SWAP2 SWAP1 POP JUMP JUMPDEST PUSH0 PUSH1 0x20 DUP3 ADD SWAP1 POP DUP2 DUP2 SUB PUSH0 DUP4 ADD MSTORE PUSH2 0xB81 DUP2 PUSH2 0xB48 JUMP JUMPDEST SWAP1 POP SWAP2 SWAP1 POP JUMP JUMPDEST PUSH0 PUSH2 0xB92 DUP3 PUSH2 0x8FF JUMP JUMPDEST SWAP2 POP PUSH2 0xB9D DUP4 PUSH2 0x8FF JUMP JUMPDEST SWAP3 POP DUP3 DUP3 SUB SWAP1 POP DUP2 DUP2 GT ISZERO PUSH2 0xBB5 JUMPI PUSH2 0xBB4 PUSH2 0xAC0 JUMP JUMPDEST JUMPDEST SWAP3 SWAP2 POP POP JUMP JUMPDEST PUSH32 0x4F6E6C79206F776E65722063616E2063616C6C21000000000000000000000000 PUSH0 DUP3 ADD MSTORE POP JUMP JUMPDEST PUSH0 PUSH2 0xBEF PUSH1 0x14 DUP4 PUSH2 0x9E0 JUMP JUMPDEST SWAP2 POP PUSH2 0xBFA DUP3 PUSH2 0xBBB JUMP JUMPDEST PUSH1 0x20 DUP3 ADD SWAP1 POP SWAP2 SWAP1 POP JUMP JUMPDEST PUSH0 PUSH1 0x20 DUP3 ADD SWAP1 POP DUP2 DUP2 SUB PUSH0 DUP4 ADD MSTORE PUSH2 0xC1C DUP2 PUSH2 0xBE3 JUMP JUMPDEST SWAP1 POP SWAP2 SWAP1 POP JUMP JUMPDEST PUSH0 PUSH1 0x40 DUP3 ADD SWAP1 POP PUSH2 0xC36 PUSH0 DUP4 ADD DUP6 PUSH2 0x9B8 JUMP JUMPDEST PUSH2 0xC43 PUSH1 0x20 DUP4 ADD DUP5 PUSH2 0x990 JUMP JUMPDEST SWAP4 SWAP3 POP POP POP JUMP JUMPDEST PUSH32 0x5374617465206973206E6F742070617573656421000000000000000000000000 PUSH0 DUP3 ADD MSTORE POP JUMP JUMPDEST PUSH0 PUSH2 0xC7E PUSH1 0x14 DUP4 PUSH2 0x9E0 JUMP JUMPDEST SWAP2 POP PUSH2 0xC89 DUP3 PUSH2 0xC4A JUMP JUMPDEST PUSH1 0x20 DUP3 ADD SWAP1 POP SWAP2 SWAP1 POP JUMP JUMPDEST PUSH0 PUSH1 0x20 DUP3 ADD SWAP1 POP DUP2 DUP2 SUB PUSH0 DUP4 ADD MSTORE PUSH2 0xCAB DUP2 PUSH2 0xC72 JUMP JUMPDEST SWAP1 POP SWAP2 SWAP1 POP JUMP INVALID LOG2 PUSH5 0x6970667358 0x22 SLT KECCAK256 0xBF ADDRESS 0x4F PUSH20 0x616E282FCFB943B928FD34E3A81BFC248C621800 0xB0 NUMBER 0xBE 0xD3 DUPN 0x24 0xA7 BLOBBASEFEE PUSH5 0x736F6C6343 STOP ADDMOD 0x22 STOP CALLER "
		},
		"gasEstimates": {
			"creation": {
				"codeDepositCost": "660800",
				"executionCost": "49223",
				"totalCost": "710023"
			},
			"external": {
				"MIN_DEPOSIT()": "391",
				"balances(address)": "2803",
				"deposit()": "infinite",
				"emergencyStop()": "34667",
				"getBalance(address)": "2917",
				"getContractBalance()": "423",
				"owner()": "2508",
				"paused()": "2510",
				"rsume()": "34618",
				"withdraw(uint256)": "infinite"
			}
		},
		"methodIdentifiers": {
			"MIN_DEPOSIT()": "e1e158a5",
			"balances(address)": "27e235e3",
			"deposit()": "d0e30db0",
			"emergencyStop()": "63a599a4",
			"getBalance(address)": "f8b2cb4f",
			"getContractBalance()": "6f9fb98a",
			"owner()": "8da5cb5b",
			"paused()": "5c975abb",
			"rsume()": "b1e4c525",
			"withdraw(uint256)": "2e1a7d4d"
		}
	},
	"abi": [
		{
			"inputs": [],
			"stateMutability": "nonpayable",
			"type": "constructor"
		},
		{
			"anonymous": false,
			"inputs": [
				{
					"indexed": false,
					"internalType": "address",
					"name": "by",
					"type": "address"
				},
				{
					"indexed": false,
					"internalType": "bool",
					"name": "paused",
					"type": "bool"
				}
			],
			"name": "StateChanged",
			"type": "event"
		},
		{
			"anonymous": false,
			"inputs": [
				{
					"indexed": true,
					"internalType": "address",
					"name": "user",
					"type": "address"
				},
				{
					"indexed": false,
					"internalType": "uint256",
					"name": "amount",
					"type": "uint256"
				}
			],
			"name": "UserDeposited",
			"type": "event"
		},
		{
			"anonymous": false,
			"inputs": [
				{
					"indexed": true,
					"internalType": "address",
					"name": "user",
					"type": "address"
				},
				{
					"indexed": false,
					"internalType": "uint256",
					"name": "amount",
					"type": "uint256"
				}
			],
			"name": "UserWithdraw",
			"type": "event"
		},
		{
			"inputs": [],
			"name": "MIN_DEPOSIT",
			"outputs": [
				{
					"internalType": "uint256",
					"name": "",
					"type": "uint256"
				}
			],
			"stateMutability": "view",
			"type": "function"
		},
		{
			"inputs": [
				{
					"internalType": "address",
					"name": "",
					"type": "address"
				}
			],
			"name": "balances",
			"outputs": [
				{
					"internalType": "uint256",
					"name": "",
					"type": "uint256"
				}
			],
			"stateMutability": "view",
			"type": "function"
		},
		{
			"inputs": [],
			"name": "deposit",
			"outputs": [],
			"stateMutability": "payable",
			"type": "function"
		},
		{
			"inputs": [],
			"name": "emergencyStop",
			"outputs": [],
			"stateMutability": "nonpayable",
			"type": "function"
		},
		{
			"inputs": [
				{
					"internalType": "address",
					"name": "user",
					"type": "address"
				}
			],
			"name": "getBalance",
			"outputs": [
				{
					"internalType": "uint256",
					"name": "",
					"type": "uint256"
				}
			],
			"stateMutability": "view",
			"type": "function"
		},
		{
			"inputs": [],
			"name": "getContractBalance",
			"outputs": [
				{
					"internalType": "uint256",
					"name": "",
					"type": "uint256"
				}
			],
			"stateMutability": "view",
			"type": "function"
		},
		{
			"inputs": [],
			"name": "owner",
			"outputs": [
				{
					"internalType": "address",
					"name": "",
					"type": "address"
				}
			],
			"stateMutability": "view",
			"type": "function"
		},
		{
			"inputs": [],
			"name": "paused",
			"outputs": [
				{
					"internalType": "bool",
					"name": "",
					"type": "bool"
				}
			],
			"stateMutability": "view",
			"type": "function"
		},
		{
			"inputs": [],
			"name": "rsume",
			"outputs": [],
			"stateMutability": "nonpayable",
			"type": "function"
		},
		{
			"inputs": [
				{
					"internalType": "uint256",
					"name": "amount",
					"type": "uint256"
				}
			],
			"name": "withdraw",
			"outputs": [],
			"stateMutability": "nonpayable",
			"type": "function"
		},
		{
			"stateMutability": "payable",
			"type": "receive"
		}
	]
}