{
	"data": {
		"bytecode": {
			"linkReferences": {},
			"object": "6080604052662386f26fc1000060095534801561001a575f5ffd5b50336040518060400160405280600981526020017f546f746f726f4e465400000000000000000000000000000000000000000000008152506040518060400160405280600481526020017f544e465400000000000000000000000000000000000000000000000000000000815250815f9081610096919061043f565b5080600190816100a6919061043f565b5050505f73ffffffffffffffffffffffffffffffffffffffff168173ffffffffffffffffffffffffffffffffffffffff1603610119575f6040517f1e4fbdf7000000000000000000000000000000000000000000000000000000008152600401610110919061054d565b60405180910390fd5b6101288161012e60201b60201c565b50610566565b5f60075f9054906101000a900473ffffffffffffffffffffffffffffffffffffffff1690508160075f6101000a81548173ffffffffffffffffffffffffffffffffffffffff021916908373ffffffffffffffffffffffffffffffffffffffff1602179055508173ffffffffffffffffffffffffffffffffffffffff168173ffffffffffffffffffffffffffffffffffffffff167f8be0079c531659141344cd1fd0a4f28419497f9722a3daafe3b4186f6b6457e060405160405180910390a35050565b5f81519050919050565b7f4e487b71000000000000000000000000000000000000000000000000000000005f52604160045260245ffd5b7f4e487b71000000000000000000000000000000000000000000000000000000005f52602260045260245ffd5b5f600282049050600182168061026c57607f821691505b60208210810361027f5761027e610228565b5b50919050565b5f819050815f5260205f209050919050565b5f6020601f8301049050919050565b5f82821b905092915050565b5f600883026102e17fffffffffffffffffffffffffffffffffffffffffffffffffffffffffffffffff826102a6565b6102eb86836102a6565b95508019841693508086168417925050509392505050565b5f819050919050565b5f819050919050565b5f61032f61032a61032584610303565b61030c565b610303565b9050919050565b5f819050919050565b61034883610315565b61035c61035482610336565b8484546102b2565b825550505050565b5f5f905090565b610373610364565b61037e81848461033f565b505050565b5f5b828110156103a4576103995f82840161036b565b600181019050610385565b505050565b601f8211156103f757828211156103f6576103c381610285565b6103cc83610297565b6103d585610297565b60208610156103e2575f90505b8083016103f182840382610383565b505050505b5b505050565b5f82821c905092915050565b5f6104175f19846008026103fc565b1980831691505092915050565b5f61042f8383610408565b9150826002028217905092915050565b610448826101f1565b67ffffffffffffffff811115610461576104606101fb565b5b61046b8254610255565b6104768282856103a9565b5f60209050601f8311600181146104a7575f8415610495578287015190505b61049f8582610424565b865550610506565b601f1984166104b586610285565b5f5b828110156104dc578489015182556001820191506020850194506020810190506104b7565b868310156104f957848901516104f5601f891682610408565b8355505b6001600288020188555050505b505050505050565b5f73ffffffffffffffffffffffffffffffffffffffff82169050919050565b5f6105378261050e565b9050919050565b6105478161052d565b82525050565b5f6020820190506105605f83018461053e565b92915050565b612bba806105735f395ff3fe608060405260043610610134575f3560e01c806370a08231116100aa578063b88d4fde1161006e578063b88d4fde146103f0578063c87b56dd14610418578063d85d3d2714610454578063e985e9c514610484578063f2fde38b146104c0578063f4a0a528146104e857610134565b806370a0823114610322578063715018a61461035e5780638da5cb5b1461037457806395d89b411461039e578063a22cb465146103c857610134565b806323b872dd116100fc57806323b872dd1461022c57806332cb6b0c146102545780633ccfd60b1461027e57806342842e0e146102945780636352211e146102bc5780636817c76c146102f857610134565b806301ffc9a71461013857806306fdde0314610174578063081812fc1461019e578063095ea7b3146101da57806318160ddd14610202575b5f5ffd5b348015610143575f5ffd5b5061015e60048036038101906101599190611eab565b610510565b60405161016b9190611ef0565b60405180910390f35b34801561017f575f5ffd5b50610188610521565b6040516101959190611f79565b60405180910390f35b3480156101a9575f5ffd5b506101c460048036038101906101bf9190611fcc565b6105b0565b6040516101d19190612036565b60405180910390f35b3480156101e5575f5ffd5b5061020060048036038101906101fb9190612079565b6105cb565b005b34801561020d575f5ffd5b506102166105e1565b60405161022391906120c6565b60405180910390f35b348015610237575f5ffd5b50610252600480360381019061024d91906120df565b6105ea565b005b34801561025f575f5ffd5b506102686106e9565b60405161027591906120c6565b60405180910390f35b348015610289575f5ffd5b506102926106ef565b005b34801561029f575f5ffd5b506102ba60048036038101906102b591906120df565b6107f0565b005b3480156102c7575f5ffd5b506102e260048036038101906102dd9190611fcc565b61080f565b6040516102ef9190612036565b60405180910390f35b348015610303575f5ffd5b5061030c610820565b60405161031991906120c6565b60405180910390f35b34801561032d575f5ffd5b506103486004803603810190610343919061212f565b610826565b60405161035591906120c6565b60405180910390f35b348015610369575f5ffd5b506103726108dc565b005b34801561037f575f5ffd5b506103886108ef565b6040516103959190612036565b60405180910390f35b3480156103a9575f5ffd5b506103b2610917565b6040516103bf9190611f79565b60405180910390f35b3480156103d3575f5ffd5b506103ee60048036038101906103e99190612184565b6109a7565b005b3480156103fb575f5ffd5b50610416600480360381019061041191906122ee565b6109bd565b005b348015610423575f5ffd5b5061043e60048036038101906104399190611fcc565b6109e2565b60405161044b9190611f79565b60405180910390f35b61046e6004803603810190610469919061240c565b6109f4565b60405161047b91906120c6565b60405180910390f35b34801561048f575f5ffd5b506104aa60048036038101906104a59190612453565b610b09565b6040516104b79190611ef0565b60405180910390f35b3480156104cb575f5ffd5b506104e660048036038101906104e1919061212f565b610b97565b005b3480156104f3575f5ffd5b5061050e60048036038101906105099190611fcc565b610c1b565b005b5f61051a82610c2d565b9050919050565b60605f805461052f906124be565b80601f016020809104026020016040519081016040528092919081815260200182805461055b906124be565b80156105a65780601f1061057d576101008083540402835291602001916105a6565b820191905f5260205f20905b81548152906001019060200180831161058957829003601f168201915b5050505050905090565b5f6105ba82610c8d565b506105c482610d13565b9050919050565b6105dd82826105d8610d4c565b610d53565b5050565b5f600854905090565b5f73ffffffffffffffffffffffffffffffffffffffff168273ffffffffffffffffffffffffffffffffffffffff160361065a575f6040517f64a0ae920000000000000000000000000000000000000000000000000000000081526004016106519190612036565b60405180910390fd5b5f61066d8383610668610d4c565b610d65565b90508373ffffffffffffffffffffffffffffffffffffffff168173ffffffffffffffffffffffffffffffffffffffff16146106e3578382826040517f64283d7b0000000000000000000000000000000000000000000000000000000081526004016106da939291906124ee565b60405180910390fd5b50505050565b61271081565b6106f7610f70565b5f4790505f811161073d576040517f08c379a00000000000000000000000000000000000000000000000000000000081526004016107349061256d565b60405180910390fd5b5f6107466108ef565b73ffffffffffffffffffffffffffffffffffffffff1682604051610769906125b8565b5f6040518083038185875af1925050503d805f81146107a3576040519150601f19603f3d011682016040523d82523d5f602084013e6107a8565b606091505b50509050806107ec576040517f08c379a00000000000000000000000000000000000000000000000000000000081526004016107e390612616565b60405180910390fd5b5050565b61080a83838360405180602001604052805f8152506109bd565b505050565b5f61081982610c8d565b9050919050565b60095481565b5f5f73ffffffffffffffffffffffffffffffffffffffff168273ffffffffffffffffffffffffffffffffffffffff1603610897575f6040517f89c62b6400000000000000000000000000000000000000000000000000000000815260040161088e9190612036565b60405180910390fd5b60035f8373ffffffffffffffffffffffffffffffffffffffff1673ffffffffffffffffffffffffffffffffffffffff1681526020019081526020015f20549050919050565b6108e4610f70565b6108ed5f610ff7565b565b5f60075f9054906101000a900473ffffffffffffffffffffffffffffffffffffffff16905090565b606060018054610926906124be565b80601f0160208091040260200160405190810160405280929190818152602001828054610952906124be565b801561099d5780601f106109745761010080835404028352916020019161099d565b820191905f5260205f20905b81548152906001019060200180831161098057829003601f168201915b5050505050905090565b6109b96109b2610d4c565b83836110ba565b5050565b6109c88484846105ea565b6109dc6109d3610d4c565b85858585611293565b50505050565b60606109ed8261143f565b9050919050565b5f61271060085410610a3b576040517f08c379a0000000000000000000000000000000000000000000000000000000008152600401610a329061267e565b60405180910390fd5b600954341015610a80576040517f08c379a0000000000000000000000000000000000000000000000000000000008152600401610a77906126e6565b60405180910390fd5b60085f815480929190610a9290612731565b91905055505f6008549050610aa733826114bb565b610ab181846114d8565b803373ffffffffffffffffffffffffffffffffffffffff167fd35bb95e09c04b219e35047ce7b7b300e3384264ef84a40456943dbc0fc17c1485604051610af89190611f79565b60405180910390a380915050919050565b5f60055f8473ffffffffffffffffffffffffffffffffffffffff1673ffffffffffffffffffffffffffffffffffffffff1681526020019081526020015f205f8373ffffffffffffffffffffffffffffffffffffffff1673ffffffffffffffffffffffffffffffffffffffff1681526020019081526020015f205f9054906101000a900460ff16905092915050565b610b9f610f70565b5f73ffffffffffffffffffffffffffffffffffffffff168173ffffffffffffffffffffffffffffffffffffffff1603610c0f575f6040517f1e4fbdf7000000000000000000000000000000000000000000000000000000008152600401610c069190612036565b60405180910390fd5b610c1881610ff7565b50565b610c23610f70565b8060098190555050565b5f634906490660e01b7bffffffffffffffffffffffffffffffffffffffffffffffffffffffff1916827bffffffffffffffffffffffffffffffffffffffffffffffffffffffff19161480610c865750610c8582611532565b5b9050919050565b5f5f610c9883611613565b90505f73ffffffffffffffffffffffffffffffffffffffff168173ffffffffffffffffffffffffffffffffffffffff1603610d0a57826040517f7e273289000000000000000000000000000000000000000000000000000000008152600401610d0191906120c6565b60405180910390fd5b80915050919050565b5f60045f8381526020019081526020015f205f9054906101000a900473ffffffffffffffffffffffffffffffffffffffff169050919050565b5f33905090565b610d60838383600161164c565b505050565b5f5f610d7084611613565b90505f73ffffffffffffffffffffffffffffffffffffffff168373ffffffffffffffffffffffffffffffffffffffff1614610db157610db081848661180b565b5b5f73ffffffffffffffffffffffffffffffffffffffff168173ffffffffffffffffffffffffffffffffffffffff1614610e3c57610df05f855f5f61164c565b600160035f8373ffffffffffffffffffffffffffffffffffffffff1673ffffffffffffffffffffffffffffffffffffffff1681526020019081526020015f205f82825403925050819055505b5f73ffffffffffffffffffffffffffffffffffffffff168573ffffffffffffffffffffffffffffffffffffffff1614610ebb57600160035f8773ffffffffffffffffffffffffffffffffffffffff1673ffffffffffffffffffffffffffffffffffffffff1681526020019081526020015f205f82825401925050819055505b8460025f8681526020019081526020015f205f6101000a81548173ffffffffffffffffffffffffffffffffffffffff021916908373ffffffffffffffffffffffffffffffffffffffff160217905550838573ffffffffffffffffffffffffffffffffffffffff168273ffffffffffffffffffffffffffffffffffffffff167fddf252ad1be2c89b69c2b068fc378daa952ba7f163c4a11628f55a4df523b3ef60405160405180910390a4809150509392505050565b610f78610d4c565b73ffffffffffffffffffffffffffffffffffffffff16610f966108ef565b73ffffffffffffffffffffffffffffffffffffffff1614610ff557610fb9610d4c565b6040517f118cdaa7000000000000000000000000000000000000000000000000000000008152600401610fec9190612036565b60405180910390fd5b565b5f60075f9054906101000a900473ffffffffffffffffffffffffffffffffffffffff1690508160075f6101000a81548173ffffffffffffffffffffffffffffffffffffffff021916908373ffffffffffffffffffffffffffffffffffffffff1602179055508173ffffffffffffffffffffffffffffffffffffffff168173ffffffffffffffffffffffffffffffffffffffff167f8be0079c531659141344cd1fd0a4f28419497f9722a3daafe3b4186f6b6457e060405160405180910390a35050565b5f73ffffffffffffffffffffffffffffffffffffffff168373ffffffffffffffffffffffffffffffffffffffff160361112a575f6040517fa9fbf51f0000000000000000000000000000000000000000000000000000000081526004016111219190612036565b60405180910390fd5b5f73ffffffffffffffffffffffffffffffffffffffff168273ffffffffffffffffffffffffffffffffffffffff160361119a57816040517f5b08ba180000000000000000000000000000000000000000000000000000000081526004016111919190612036565b60405180910390fd5b8060055f8573ffffffffffffffffffffffffffffffffffffffff1673ffffffffffffffffffffffffffffffffffffffff1681526020019081526020015f205f8473ffffffffffffffffffffffffffffffffffffffff1673ffffffffffffffffffffffffffffffffffffffff1681526020019081526020015f205f6101000a81548160ff0219169083151502179055508173ffffffffffffffffffffffffffffffffffffffff168373ffffffffffffffffffffffffffffffffffffffff167f17307eab39ab6107e8899845ad3d59bd9653f200f220920489ca2b5937696c31836040516112869190611ef0565b60405180910390a3505050565b5f8373ffffffffffffffffffffffffffffffffffffffff163b1115611438578273ffffffffffffffffffffffffffffffffffffffff1663150b7a02868685856040518563ffffffff1660e01b81526004016112f194939291906127ca565b6020604051808303815f875af192505050801561132c57506040513d601f19601f820116820180604052508101906113299190612828565b60015b6113ad573d805f811461135a576040519150601f19603f3d011682016040523d82523d5f602084013e61135f565b606091505b505f8151036113a557836040517f64a0ae9200000000000000000000000000000000000000000000000000000000815260040161139c9190612036565b60405180910390fd5b805160208201fd5b63150b7a0260e01b7bffffffffffffffffffffffffffffffffffffffffffffffffffffffff1916817bffffffffffffffffffffffffffffffffffffffffffffffffffffffff19161461143657836040517f64a0ae9200000000000000000000000000000000000000000000000000000000815260040161142d9190612036565b60405180910390fd5b505b5050505050565b606061144a82610c8d565b505f6114546118ce565b90505f611460846118e4565b90505f8251036114745780925050506114b6565b5f815111156114a857818160405160200161149092919061288d565b604051602081830303815290604052925050506114b6565b6114b184611985565b925050505b919050565b6114d4828260405180602001604052805f8152506119eb565b5050565b8060065f8481526020019081526020015f2090816114f69190612a61565b507ff8e1a15aba9398e019f0b49df1a4fde98ee17ae345cb5f6b5e2c27f5033e8ce78260405161152691906120c6565b60405180910390a15050565b5f7f80ac58cd000000000000000000000000000000000000000000000000000000007bffffffffffffffffffffffffffffffffffffffffffffffffffffffff1916827bffffffffffffffffffffffffffffffffffffffffffffffffffffffff191614806115fc57507f5b5e139f000000000000000000000000000000000000000000000000000000007bffffffffffffffffffffffffffffffffffffffffffffffffffffffff1916827bffffffffffffffffffffffffffffffffffffffffffffffffffffffff1916145b8061160c575061160b82611a0e565b5b9050919050565b5f60025f8381526020019081526020015f205f9054906101000a900473ffffffffffffffffffffffffffffffffffffffff169050919050565b808061168457505f73ffffffffffffffffffffffffffffffffffffffff168273ffffffffffffffffffffffffffffffffffffffff1614155b156117b6575f61169384610c8d565b90505f73ffffffffffffffffffffffffffffffffffffffff168373ffffffffffffffffffffffffffffffffffffffff16141580156116fd57508273ffffffffffffffffffffffffffffffffffffffff168173ffffffffffffffffffffffffffffffffffffffff1614155b8015611710575061170e8184610b09565b155b1561175257826040517fa9fbf51f0000000000000000000000000000000000000000000000000000000081526004016117499190612036565b60405180910390fd5b81156117b457838573ffffffffffffffffffffffffffffffffffffffff168273ffffffffffffffffffffffffffffffffffffffff167f8c5be1e5ebec7d5bd14f71427d1e84f3dd0314c0f7b2291e5b200ac8c7c3b92560405160405180910390a45b505b8360045f8581526020019081526020015f205f6101000a81548173ffffffffffffffffffffffffffffffffffffffff021916908373ffffffffffffffffffffffffffffffffffffffff16021790555050505050565b611816838383611a77565b6118c9575f73ffffffffffffffffffffffffffffffffffffffff168373ffffffffffffffffffffffffffffffffffffffff160361188a57806040517f7e27328900000000000000000000000000000000000000000000000000000000815260040161188191906120c6565b60405180910390fd5b81816040517f177e802f0000000000000000000000000000000000000000000000000000000081526004016118c0929190612b30565b60405180910390fd5b505050565b606060405180602001604052805f815250905090565b606060065f8381526020019081526020015f208054611902906124be565b80601f016020809104026020016040519081016040528092919081815260200182805461192e906124be565b80156119795780601f1061195057610100808354040283529160200191611979565b820191905f5260205f20905b81548152906001019060200180831161195c57829003601f168201915b50505050509050919050565b606061199082610c8d565b505f61199a6118ce565b90505f8151116119b85760405180602001604052805f8152506119e3565b806119c284611b37565b6040516020016119d392919061288d565b6040516020818303038152906040525b915050919050565b6119f58383611c01565b611a09611a00610d4c565b5f858585611293565b505050565b5f7f01ffc9a7000000000000000000000000000000000000000000000000000000007bffffffffffffffffffffffffffffffffffffffffffffffffffffffff1916827bffffffffffffffffffffffffffffffffffffffffffffffffffffffff1916149050919050565b5f5f73ffffffffffffffffffffffffffffffffffffffff168373ffffffffffffffffffffffffffffffffffffffff1614158015611b2e57508273ffffffffffffffffffffffffffffffffffffffff168473ffffffffffffffffffffffffffffffffffffffff161480611aef5750611aee8484610b09565b5b80611b2d57508273ffffffffffffffffffffffffffffffffffffffff16611b1583610d13565b73ffffffffffffffffffffffffffffffffffffffff16145b5b90509392505050565b60605f6001611b4584611cf4565b0190505f8167ffffffffffffffff811115611b6357611b626121ca565b5b6040519080825280601f01601f191660200182016040528015611b955781602001600182028036833780820191505090505b5090505f82602083010190505b600115611bf6578080600190039150507f3031323334353637383961626364656600000000000000000000000000000000600a86061a8153600a8581611beb57611bea612b57565b5b0494505f8503611ba2575b819350505050919050565b5f73ffffffffffffffffffffffffffffffffffffffff168273ffffffffffffffffffffffffffffffffffffffff1603611c71575f6040517f64a0ae92000000000000000000000000000000000000000000000000000000008152600401611c689190612036565b60405180910390fd5b5f611c7d83835f610d65565b90505f73ffffffffffffffffffffffffffffffffffffffff168173ffffffffffffffffffffffffffffffffffffffff1614611cef575f6040517f73c6ac6e000000000000000000000000000000000000000000000000000000008152600401611ce69190612036565b60405180910390fd5b505050565b5f5f5f90507a184f03e93ff9f4daa797ed6e38ed64bf6a1f0100000000000000008310611d50577a184f03e93ff9f4daa797ed6e38ed64bf6a1f0100000000000000008381611d4657611d45612b57565b5b0492506040810190505b6d04ee2d6d415b85acef81000000008310611d8d576d04ee2d6d415b85acef81000000008381611d8357611d82612b57565b5b0492506020810190505b662386f26fc100008310611dbc57662386f26fc100008381611db257611db1612b57565b5b0492506010810190505b6305f5e1008310611de5576305f5e1008381611ddb57611dda612b57565b5b0492506008810190505b6127108310611e0a576127108381611e0057611dff612b57565b5b0492506004810190505b60648310611e2d5760648381611e2357611e22612b57565b5b0492506002810190505b600a8310611e3c576001810190505b80915050919050565b5f604051905090565b5f5ffd5b5f5ffd5b5f7fffffffff0000000000000000000000000000000000000000000000000000000082169050919050565b611e8a81611e56565b8114611e94575f5ffd5b50565b5f81359050611ea581611e81565b92915050565b5f60208284031215611ec057611ebf611e4e565b5b5f611ecd84828501611e97565b91505092915050565b5f8115159050919050565b611eea81611ed6565b82525050565b5f602082019050611f035f830184611ee1565b92915050565b5f81519050919050565b5f82825260208201905092915050565b8281835e5f83830152505050565b5f601f19601f8301169050919050565b5f611f4b82611f09565b611f558185611f13565b9350611f65818560208601611f23565b611f6e81611f31565b840191505092915050565b5f6020820190508181035f830152611f918184611f41565b905092915050565b5f819050919050565b611fab81611f99565b8114611fb5575f5ffd5b50565b5f81359050611fc681611fa2565b92915050565b5f60208284031215611fe157611fe0611e4e565b5b5f611fee84828501611fb8565b91505092915050565b5f73ffffffffffffffffffffffffffffffffffffffff82169050919050565b5f61202082611ff7565b9050919050565b61203081612016565b82525050565b5f6020820190506120495f830184612027565b92915050565b61205881612016565b8114612062575f5ffd5b50565b5f813590506120738161204f565b92915050565b5f5f6040838503121561208f5761208e611e4e565b5b5f61209c85828601612065565b92505060206120ad85828601611fb8565b9150509250929050565b6120c081611f99565b82525050565b5f6020820190506120d95f8301846120b7565b92915050565b5f5f5f606084860312156120f6576120f5611e4e565b5b5f61210386828701612065565b935050602061211486828701612065565b925050604061212586828701611fb8565b9150509250925092565b5f6020828403121561214457612143611e4e565b5b5f61215184828501612065565b91505092915050565b61216381611ed6565b811461216d575f5ffd5b50565b5f8135905061217e8161215a565b92915050565b5f5f6040838503121561219a57612199611e4e565b5b5f6121a785828601612065565b92505060206121b885828601612170565b9150509250929050565b5f5ffd5b5f5ffd5b7f4e487b71000000000000000000000000000000000000000000000000000000005f52604160045260245ffd5b61220082611f31565b810181811067ffffffffffffffff8211171561221f5761221e6121ca565b5b80604052505050565b5f612231611e45565b905061223d82826121f7565b919050565b5f67ffffffffffffffff82111561225c5761225b6121ca565b5b61226582611f31565b9050602081019050919050565b828183375f83830152505050565b5f61229261228d84612242565b612228565b9050828152602081018484840111156122ae576122ad6121c6565b5b6122b9848285612272565b509392505050565b5f82601f8301126122d5576122d46121c2565b5b81356122e5848260208601612280565b91505092915050565b5f5f5f5f6080858703121561230657612305611e4e565b5b5f61231387828801612065565b945050602061232487828801612065565b935050604061233587828801611fb8565b925050606085013567ffffffffffffffff81111561235657612355611e52565b5b612362878288016122c1565b91505092959194509250565b5f67ffffffffffffffff821115612388576123876121ca565b5b61239182611f31565b9050602081019050919050565b5f6123b06123ab8461236e565b612228565b9050828152602081018484840111156123cc576123cb6121c6565b5b6123d7848285612272565b509392505050565b5f82601f8301126123f3576123f26121c2565b5b813561240384826020860161239e565b91505092915050565b5f6020828403121561242157612420611e4e565b5b5f82013567ffffffffffffffff81111561243e5761243d611e52565b5b61244a848285016123df565b91505092915050565b5f5f6040838503121561246957612468611e4e565b5b5f61247685828601612065565b925050602061248785828601612065565b9150509250929050565b7f4e487b71000000000000000000000000000000000000000000000000000000005f52602260045260245ffd5b5f60028204905060018216806124d557607f821691505b6020821081036124e8576124e7612491565b5b50919050565b5f6060820190506125015f830186612027565b61250e60208301856120b7565b61251b6040830184612027565b949350505050565b7f4e6f2062616c616e636520746f207769746864726177210000000000000000005f82015250565b5f612557601783611f13565b915061256282612523565b602082019050919050565b5f6020820190508181035f8301526125848161254b565b9050919050565b5f81905092915050565b50565b5f6125a35f8361258b565b91506125ae82612595565b5f82019050919050565b5f6125c282612598565b9150819050919050565b7f7769746864726177206661696c656400000000000000000000000000000000005f82015250565b5f612600600f83611f13565b915061260b826125cc565b602082019050919050565b5f6020820190508181035f83015261262d816125f4565b9050919050565b7f4d617820737570706c79207265616368656421000000000000000000000000005f82015250565b5f612668601383611f13565b915061267382612634565b602082019050919050565b5f6020820190508181035f8301526126958161265c565b9050919050565b7f496e73756666696369656e74207061796d656e740000000000000000000000005f82015250565b5f6126d0601483611f13565b91506126db8261269c565b602082019050919050565b5f6020820190508181035f8301526126fd816126c4565b9050919050565b7f4e487b71000000000000000000000000000000000000000000000000000000005f52601160045260245ffd5b5f61273b82611f99565b91507fffffffffffffffffffffffffffffffffffffffffffffffffffffffffffffffff820361276d5761276c612704565b5b600182019050919050565b5f81519050919050565b5f82825260208201905092915050565b5f61279c82612778565b6127a68185612782565b93506127b6818560208601611f23565b6127bf81611f31565b840191505092915050565b5f6080820190506127dd5f830187612027565b6127ea6020830186612027565b6127f760408301856120b7565b81810360608301526128098184612792565b905095945050505050565b5f8151905061282281611e81565b92915050565b5f6020828403121561283d5761283c611e4e565b5b5f61284a84828501612814565b91505092915050565b5f81905092915050565b5f61286782611f09565b6128718185612853565b9350612881818560208601611f23565b80840191505092915050565b5f612898828561285d565b91506128a4828461285d565b91508190509392505050565b5f819050815f5260205f209050919050565b5f6020601f8301049050919050565b5f82821b905092915050565b5f6008830261290c7fffffffffffffffffffffffffffffffffffffffffffffffffffffffffffffffff826128d1565b61291686836128d1565b95508019841693508086168417925050509392505050565b5f819050919050565b5f61295161294c61294784611f99565b61292e565b611f99565b9050919050565b5f819050919050565b61296a83612937565b61297e61297682612958565b8484546128dd565b825550505050565b5f5f905090565b612995612986565b6129a0818484612961565b505050565b5f5b828110156129c6576129bb5f82840161298d565b6001810190506129a7565b505050565b601f821115612a195782821115612a18576129e5816128b0565b6129ee836128c2565b6129f7856128c2565b6020861015612a04575f90505b808301612a13828403826129a5565b505050505b5b505050565b5f82821c905092915050565b5f612a395f1984600802612a1e565b1980831691505092915050565b5f612a518383612a2a565b9150826002028217905092915050565b612a6a82611f09565b67ffffffffffffffff811115612a8357612a826121ca565b5b612a8d82546124be565b612a988282856129cb565b5f60209050601f831160018114612ac9575f8415612ab7578287015190505b612ac18582612a46565b865550612b28565b601f198416612ad7866128b0565b5f5b82811015612afe57848901518255600182019150602085019450602081019050612ad9565b86831015612b1b5784890151612b17601f891682612a2a565b8355505b6001600288020188555050505b505050505050565b5f604082019050612b435f830185612027565b612b5060208301846120b7565b9392505050565b7f4e487b71000000000000000000000000000000000000000000000000000000005f52601260045260245ffdfea26469706673582212200efc18e3faae48f9c405c201fc344eb70d4981ca5e4350f34f99a119f7b3c00164736f6c63430008220033",
			"opcodes": "PUSH1 0x80 PUSH1 0x40 MSTORE PUSH7 0x2386F26FC10000 PUSH1 0x9 SSTORE CALLVALUE DUP1 ISZERO PUSH2 0x1A JUMPI PUSH0 PUSH0 REVERT JUMPDEST POP CALLER PUSH1 0x40 MLOAD DUP1 PUSH1 0x40 ADD PUSH1 0x40 MSTORE DUP1 PUSH1 0x9 DUP2 MSTORE PUSH1 0x20 ADD PUSH32 0x546F746F726F4E46540000000000000000000000000000000000000000000000 DUP2 MSTORE POP PUSH1 0x40 MLOAD DUP1 PUSH1 0x40 ADD PUSH1 0x40 MSTORE DUP1 PUSH1 0x4 DUP2 MSTORE PUSH1 0x20 ADD PUSH32 0x544E465400000000000000000000000000000000000000000000000000000000 DUP2 MSTORE POP DUP2 PUSH0 SWAP1 DUP2 PUSH2 0x96 SWAP2 SWAP1 PUSH2 0x43F JUMP JUMPDEST POP DUP1 PUSH1 0x1 SWAP1 DUP2 PUSH2 0xA6 SWAP2 SWAP1 PUSH2 0x43F JUMP JUMPDEST POP POP POP PUSH0 PUSH20 0xFFFFFFFFFFFFFFFFFFFFFFFFFFFFFFFFFFFFFFFF AND DUP2 PUSH20 0xFFFFFFFFFFFFFFFFFFFFFFFFFFFFFFFFFFFFFFFF AND SUB PUSH2 0x119 JUMPI PUSH0 PUSH1 0x40 MLOAD PUSH32 0x1E4FBDF700000000000000000000000000000000000000000000000000000000 DUP2 MSTORE PUSH1 0x4 ADD PUSH2 0x110 SWAP2 SWAP1 PUSH2 0x54D JUMP JUMPDEST PUSH1 0x40 MLOAD DUP1 SWAP2 SUB SWAP1 REVERT JUMPDEST PUSH2 0x128 DUP2 PUSH2 0x12E PUSH1 0x20 SHL PUSH1 0x20 SHR JUMP JUMPDEST POP PUSH2 0x566 JUMP JUMPDEST PUSH0 PUSH1 0x7 PUSH0 SWAP1 SLOAD SWAP1 PUSH2 0x100 EXP SWAP1 DIV PUSH20 0xFFFFFFFFFFFFFFFFFFFFFFFFFFFFFFFFFFFFFFFF AND SWAP1 POP DUP2 PUSH1 0x7 PUSH0 PUSH2 0x100 EXP DUP2 SLOAD DUP2 PUSH20 0xFFFFFFFFFFFFFFFFFFFFFFFFFFFFFFFFFFFFFFFF MUL NOT AND SWAP1 DUP4 PUSH20 0xFFFFFFFFFFFFFFFFFFFFFFFFFFFFFFFFFFFFFFFF AND MUL OR SWAP1 SSTORE POP DUP2 PUSH20 0xFFFFFFFFFFFFFFFFFFFFFFFFFFFFFFFFFFFFFFFF AND DUP2 PUSH20 0xFFFFFFFFFFFFFFFFFFFFFFFFFFFFFFFFFFFFFFFF AND PUSH32 0x8BE0079C531659141344CD1FD0A4F28419497F9722A3DAAFE3B4186F6B6457E0 PUSH1 0x40 MLOAD PUSH1 0x40 MLOAD DUP1 SWAP2 SUB SWAP1 LOG3 POP POP JUMP JUMPDEST PUSH0 DUP2 MLOAD SWAP1 POP SWAP2 SWAP1 POP JUMP JUMPDEST PUSH32 0x4E487B7100000000000000000000000000000000000000000000000000000000 PUSH0 MSTORE PUSH1 0x41 PUSH1 0x4 MSTORE PUSH1 0x24 PUSH0 REVERT JUMPDEST PUSH32 0x4E487B7100000000000000000000000000000000000000000000000000000000 PUSH0 MSTORE PUSH1 0x22 PUSH1 0x4 MSTORE PUSH1 0x24 PUSH0 REVERT JUMPDEST PUSH0 PUSH1 0x2 DUP3 DIV SWAP1 POP PUSH1 0x1 DUP3 AND DUP1 PUSH2 0x26C JUMPI PUSH1 0x7F DUP3 AND SWAP2 POP JUMPDEST PUSH1 0x20 DUP3 LT DUP2 SUB PUSH2 0x27F JUMPI PUSH2 0x27E PUSH2 0x228 JUMP JUMPDEST JUMPDEST POP SWAP2 SWAP1 POP JUMP JUMPDEST PUSH0 DUP2 SWAP1 POP DUP2 PUSH0 MSTORE PUSH1 0x20 PUSH0 KECCAK256 SWAP1 POP SWAP2 SWAP1 POP JUMP JUMPDEST PUSH0 PUSH1 0x20 PUSH1 0x1F DUP4 ADD DIV SWAP1 POP SWAP2 SWAP1 POP JUMP JUMPDEST PUSH0 DUP3 DUP3 SHL SWAP1 POP SWAP3 SWAP2 POP POP JUMP JUMPDEST PUSH0 PUSH1 0x8 DUP4 MUL PUSH2 0x2E1 PUSH32 0xFFFFFFFFFFFFFFFFFFFFFFFFFFFFFFFFFFFFFFFFFFFFFFFFFFFFFFFFFFFFFFFF DUP3 PUSH2 0x2A6 JUMP JUMPDEST PUSH2 0x2EB DUP7 DUP4 PUSH2 0x2A6 JUMP JUMPDEST SWAP6 POP DUP1 NOT DUP5 AND SWAP4 POP DUP1 DUP7 AND DUP5 OR SWAP3 POP POP POP SWAP4 SWAP3 POP POP POP JUMP JUMPDEST PUSH0 DUP2 SWAP1 POP SWAP2 SWAP1 POP JUMP JUMPDEST PUSH0 DUP2 SWAP1 POP SWAP2 SWAP1 POP JUMP JUMPDEST PUSH0 PUSH2 0x32F PUSH2 0x32A PUSH2 0x325 DUP5 PUSH2 0x303 JUMP JUMPDEST PUSH2 0x30C JUMP JUMPDEST PUSH2 0x303 JUMP JUMPDEST SWAP1 POP SWAP2 SWAP1 POP JUMP JUMPDEST PUSH0 DUP2 SWAP1 POP SWAP2 SWAP1 POP JUMP JUMPDEST PUSH2 0x348 DUP4 PUSH2 0x315 JUMP JUMPDEST PUSH2 0x35C PUSH2 0x354 DUP3 PUSH2 0x336 JUMP JUMPDEST DUP5 DUP5 SLOAD PUSH2 0x2B2 JUMP JUMPDEST DUP3 SSTORE POP POP POP POP JUMP JUMPDEST PUSH0 PUSH0 SWAP1 POP SWAP1 JUMP JUMPDEST PUSH2 0x373 PUSH2 0x364 JUMP JUMPDEST PUSH2 0x37E DUP2 DUP5 DUP5 PUSH2 0x33F JUMP JUMPDEST POP POP POP JUMP JUMPDEST PUSH0 JUMPDEST DUP3 DUP2 LT ISZERO PUSH2 0x3A4 JUMPI PUSH2 0x399 PUSH0 DUP3 DUP5 ADD PUSH2 0x36B JUMP JUMPDEST PUSH1 0x1 DUP2 ADD SWAP1 POP PUSH2 0x385 JUMP JUMPDEST POP POP POP JUMP JUMPDEST PUSH1 0x1F DUP3 GT ISZERO PUSH2 0x3F7 JUMPI DUP3 DUP3 GT ISZERO PUSH2 0x3F6 JUMPI PUSH2 0x3C3 DUP2 PUSH2 0x285 JUMP JUMPDEST PUSH2 0x3CC DUP4 PUSH2 0x297 JUMP JUMPDEST PUSH2 0x3D5 DUP6 PUSH2 0x297 JUMP JUMPDEST PUSH1 0x20 DUP7 LT ISZERO PUSH2 0x3E2 JUMPI PUSH0 SWAP1 POP JUMPDEST DUP1 DUP4 ADD PUSH2 0x3F1 DUP3 DUP5 SUB DUP3 PUSH2 0x383 JUMP JUMPDEST POP POP POP POP JUMPDEST JUMPDEST POP POP POP JUMP JUMPDEST PUSH0 DUP3 DUP3 SHR SWAP1 POP SWAP3 SWAP2 POP POP JUMP JUMPDEST PUSH0 PUSH2 0x417 PUSH0 NOT DUP5 PUSH1 0x8 MUL PUSH2 0x3FC JUMP JUMPDEST NOT DUP1 DUP4 AND SWAP2 POP POP SWAP3 SWAP2 POP POP JUMP JUMPDEST PUSH0 PUSH2 0x42F DUP4 DUP4 PUSH2 0x408 JUMP JUMPDEST SWAP2 POP DUP3 PUSH1 0x2 MUL DUP3 OR SWAP1 POP SWAP3 SWAP2 POP POP JUMP JUMPDEST PUSH2 0x448 DUP3 PUSH2 0x1F1 JUMP JUMPDEST PUSH8 0xFFFFFFFFFFFFFFFF DUP2 GT ISZERO PUSH2 0x461 JUMPI PUSH2 0x460 PUSH2 0x1FB JUMP JUMPDEST JUMPDEST PUSH2 0x46B DUP3 SLOAD PUSH2 0x255 JUMP JUMPDEST PUSH2 0x476 DUP3 DUP3 DUP6 PUSH2 0x3A9 JUMP JUMPDEST PUSH0 PUSH1 0x20 SWAP1 POP PUSH1 0x1F DUP4 GT PUSH1 0x1 DUP2 EQ PUSH2 0x4A7 JUMPI PUSH0 DUP5 ISZERO PUSH2 0x495 JUMPI DUP3 DUP8 ADD MLOAD SWAP1 POP JUMPDEST PUSH2 0x49F DUP6 DUP3 PUSH2 0x424 JUMP JUMPDEST DUP7 SSTORE POP PUSH2 0x506 JUMP JUMPDEST PUSH1 0x1F NOT DUP5 AND PUSH2 0x4B5 DUP7 PUSH2 0x285 JUMP JUMPDEST PUSH0 JUMPDEST DUP3 DUP2 LT ISZERO PUSH2 0x4DC JUMPI DUP5 DUP10 ADD MLOAD DUP3 SSTORE PUSH1 0x1 DUP3 ADD SWAP2 POP PUSH1 0x20 DUP6 ADD SWAP5 POP PUSH1 0x20 DUP2 ADD SWAP1 POP PUSH2 0x4B7 JUMP JUMPDEST DUP7 DUP4 LT ISZERO PUSH2 0x4F9 JUMPI DUP5 DUP10 ADD MLOAD PUSH2 0x4F5 PUSH1 0x1F DUP10 AND DUP3 PUSH2 0x408 JUMP JUMPDEST DUP4 SSTORE POP JUMPDEST PUSH1 0x1 PUSH1 0x2 DUP9 MUL ADD DUP9 SSTORE POP POP POP JUMPDEST POP POP POP POP POP POP JUMP JUMPDEST PUSH0 PUSH20 0xFFFFFFFFFFFFFFFFFFFFFFFFFFFFFFFFFFFFFFFF DUP3 AND SWAP1 POP SWAP2 SWAP1 POP JUMP JUMPDEST PUSH0 PUSH2 0x537 DUP3 PUSH2 0x50E JUMP JUMPDEST SWAP1 POP SWAP2 SWAP1 POP JUMP JUMPDEST PUSH2 0x547 DUP2 PUSH2 0x52D JUMP JUMPDEST DUP3 MSTORE POP POP JUMP JUMPDEST PUSH0 PUSH1 0x20 DUP3 ADD SWAP1 POP PUSH2 0x560 PUSH0 DUP4 ADD DUP5 PUSH2 0x53E JUMP JUMPDEST SWAP3 SWAP2 POP POP JUMP JUMPDEST PUSH2 0x2BBA DUP1 PUSH2 0x573 PUSH0 CODECOPY PUSH0 RETURN INVALID PUSH1 0x80 PUSH1 0x40 MSTORE PUSH1 0x4 CALLDATASIZE LT PUSH2 0x134 JUMPI PUSH0 CALLDATALOAD PUSH1 0xE0 SHR DUP1 PUSH4 0x70A08231 GT PUSH2 0xAA JUMPI DUP1 PUSH4 0xB88D4FDE GT PUSH2 0x6E JUMPI DUP1 PUSH4 0xB88D4FDE EQ PUSH2 0x3F0 JUMPI DUP1 PUSH4 0xC87B56DD EQ PUSH2 0x418 JUMPI DUP1 PUSH4 0xD85D3D27 EQ PUSH2 0x454 JUMPI DUP1 PUSH4 0xE985E9C5 EQ PUSH2 0x484 JUMPI DUP1 PUSH4 0xF2FDE38B EQ PUSH2 0x4C0 JUMPI DUP1 PUSH4 0xF4A0A528 EQ PUSH2 0x4E8 JUMPI PUSH2 0x134 JUMP JUMPDEST DUP1 PUSH4 0x70A08231 EQ PUSH2 0x322 JUMPI DUP1 PUSH4 0x715018A6 EQ PUSH2 0x35E JUMPI DUP1 PUSH4 0x8DA5CB5B EQ PUSH2 0x374 JUMPI DUP1 PUSH4 0x95D89B41 EQ PUSH2 0x39E JUMPI DUP1 PUSH4 0xA22CB465 EQ PUSH2 0x3C8 JUMPI PUSH2 0x134 JUMP JUMPDEST DUP1 PUSH4 0x23B872DD GT PUSH2 0xFC JUMPI DUP1 PUSH4 0x23B872DD EQ PUSH2 0x22C JUMPI DUP1 PUSH4 0x32CB6B0C EQ PUSH2 0x254 JUMPI DUP1 PUSH4 0x3CCFD60B EQ PUSH2 0x27E JUMPI DUP1 PUSH4 0x42842E0E EQ PUSH2 0x294 JUMPI DUP1 PUSH4 0x6352211E EQ PUSH2 0x2BC JUMPI DUP1 PUSH4 0x6817C76C EQ PUSH2 0x2F8 JUMPI PUSH2 0x134 JUMP JUMPDEST DUP1 PUSH4 0x1FFC9A7 EQ PUSH2 0x138 JUMPI DUP1 PUSH4 0x6FDDE03 EQ PUSH2 0x174 JUMPI DUP1 PUSH4 0x81812FC EQ PUSH2 0x19E JUMPI DUP1 PUSH4 0x95EA7B3 EQ PUSH2 0x1DA JUMPI DUP1 PUSH4 0x18160DDD EQ PUSH2 0x202 JUMPI JUMPDEST PUSH0 PUSH0 REVERT JUMPDEST CALLVALUE DUP1 ISZERO PUSH2 0x143 JUMPI PUSH0 PUSH0 REVERT JUMPDEST POP PUSH2 0x15E PUSH1 0x4 DUP1 CALLDATASIZE SUB DUP2 ADD SWAP1 PUSH2 0x159 SWAP2 SWAP1 PUSH2 0x1EAB JUMP JUMPDEST PUSH2 0x510 JUMP JUMPDEST PUSH1 0x40 MLOAD PUSH2 0x16B SWAP2 SWAP1 PUSH2 0x1EF0 JUMP JUMPDEST PUSH1 0x40 MLOAD DUP1 SWAP2 SUB SWAP1 RETURN JUMPDEST CALLVALUE DUP1 ISZERO PUSH2 0x17F JUMPI PUSH0 PUSH0 REVERT JUMPDEST POP PUSH2 0x188 PUSH2 0x521 JUMP JUMPDEST PUSH1 0x40 MLOAD PUSH2 0x195 SWAP2 SWAP1 PUSH2 0x1F79 JUMP JUMPDEST PUSH1 0x40 MLOAD DUP1 SWAP2 SUB SWAP1 RETURN JUMPDEST CALLVALUE DUP1 ISZERO PUSH2 0x1A9 JUMPI PUSH0 PUSH0 REVERT JUMPDEST POP PUSH2 0x1C4 PUSH1 0x4 DUP1 CALLDATASIZE SUB DUP2 ADD SWAP1 PUSH2 0x1BF SWAP2 SWAP1 PUSH2 0x1FCC JUMP JUMPDEST PUSH2 0x5B0 JUMP JUMPDEST PUSH1 0x40 MLOAD PUSH2 0x1D1 SWAP2 SWAP1 PUSH2 0x2036 JUMP JUMPDEST PUSH1 0x40 MLOAD DUP1 SWAP2 SUB SWAP1 RETURN JUMPDEST CALLVALUE DUP1 ISZERO PUSH2 0x1E5 JUMPI PUSH0 PUSH0 REVERT JUMPDEST POP PUSH2 0x200 PUSH1 0x4 DUP1 CALLDATASIZE SUB DUP2 ADD SWAP1 PUSH2 0x1FB SWAP2 SWAP1 PUSH2 0x2079 JUMP JUMPDEST PUSH2 0x5CB JUMP JUMPDEST STOP JUMPDEST CALLVALUE DUP1 ISZERO PUSH2 0x20D JUMPI PUSH0 PUSH0 REVERT JUMPDEST POP PUSH2 0x216 PUSH2 0x5E1 JUMP JUMPDEST PUSH1 0x40 MLOAD PUSH2 0x223 SWAP2 SWAP1 PUSH2 0x20C6 JUMP JUMPDEST PUSH1 0x40 MLOAD DUP1 SWAP2 SUB SWAP1 RETURN JUMPDEST CALLVALUE DUP1 ISZERO PUSH2 0x237 JUMPI PUSH0 PUSH0 REVERT JUMPDEST POP PUSH2 0x252 PUSH1 0x4 DUP1 CALLDATASIZE SUB DUP2 ADD SWAP1 PUSH2 0x24D SWAP2 SWAP1 PUSH2 0x20DF JUMP JUMPDEST PUSH2 0x5EA JUMP JUMPDEST STOP JUMPDEST CALLVALUE DUP1 ISZERO PUSH2 0x25F JUMPI PUSH0 PUSH0 REVERT JUMPDEST POP PUSH2 0x268 PUSH2 0x6E9 JUMP JUMPDEST PUSH1 0x40 MLOAD PUSH2 0x275 SWAP2 SWAP1 PUSH2 0x20C6 JUMP JUMPDEST PUSH1 0x40 MLOAD DUP1 SWAP2 SUB SWAP1 RETURN JUMPDEST CALLVALUE DUP1 ISZERO PUSH2 0x289 JUMPI PUSH0 PUSH0 REVERT JUMPDEST POP PUSH2 0x292 PUSH2 0x6EF JUMP JUMPDEST STOP JUMPDEST CALLVALUE DUP1 ISZERO PUSH2 0x29F JUMPI PUSH0 PUSH0 REVERT JUMPDEST POP PUSH2 0x2BA PUSH1 0x4 DUP1 CALLDATASIZE SUB DUP2 ADD SWAP1 PUSH2 0x2B5 SWAP2 SWAP1 PUSH2 0x20DF JUMP JUMPDEST PUSH2 0x7F0 JUMP JUMPDEST STOP JUMPDEST CALLVALUE DUP1 ISZERO PUSH2 0x2C7 JUMPI PUSH0 PUSH0 REVERT JUMPDEST POP PUSH2 0x2E2 PUSH1 0x4 DUP1 CALLDATASIZE SUB DUP2 ADD SWAP1 PUSH2 0x2DD SWAP2 SWAP1 PUSH2 0x1FCC JUMP JUMPDEST PUSH2 0x80F JUMP JUMPDEST PUSH1 0x40 MLOAD PUSH2 0x2EF SWAP2 SWAP1 PUSH2 0x2036 JUMP JUMPDEST PUSH1 0x40 MLOAD DUP1 SWAP2 SUB SWAP1 RETURN JUMPDEST CALLVALUE DUP1 ISZERO PUSH2 0x303 JUMPI PUSH0 PUSH0 REVERT JUMPDEST POP PUSH2 0x30C PUSH2 0x820 JUMP JUMPDEST PUSH1 0x40 MLOAD PUSH2 0x319 SWAP2 SWAP1 PUSH2 0x20C6 JUMP JUMPDEST PUSH1 0x40 MLOAD DUP1 SWAP2 SUB SWAP1 RETURN JUMPDEST CALLVALUE DUP1 ISZERO PUSH2 0x32D JUMPI PUSH0 PUSH0 REVERT JUMPDEST POP PUSH2 0x348 PUSH1 0x4 DUP1 CALLDATASIZE SUB DUP2 ADD SWAP1 PUSH2 0x343 SWAP2 SWAP1 PUSH2 0x212F JUMP JUMPDEST PUSH2 0x826 JUMP JUMPDEST PUSH1 0x40 MLOAD PUSH2 0x355 SWAP2 SWAP1 PUSH2 0x20C6 JUMP JUMPDEST PUSH1 0x40 MLOAD DUP1 SWAP2 SUB SWAP1 RETURN JUMPDEST CALLVALUE DUP1 ISZERO PUSH2 0x369 JUMPI PUSH0 PUSH0 REVERT JUMPDEST POP PUSH2 0x372 PUSH2 0x8DC JUMP JUMPDEST STOP JUMPDEST CALLVALUE DUP1 ISZERO PUSH2 0x37F JUMPI PUSH0 PUSH0 REVERT JUMPDEST POP PUSH2 0x388 PUSH2 0x8EF JUMP JUMPDEST PUSH1 0x40 MLOAD PUSH2 0x395 SWAP2 SWAP1 PUSH2 0x2036 JUMP JUMPDEST PUSH1 0x40 MLOAD DUP1 SWAP2 SUB SWAP1 RETURN JUMPDEST CALLVALUE DUP1 ISZERO PUSH2 0x3A9 JUMPI PUSH0 PUSH0 REVERT JUMPDEST POP PUSH2 0x3B2 PUSH2 0x917 JUMP JUMPDEST PUSH1 0x40 MLOAD PUSH2 0x3BF SWAP2 SWAP1 PUSH2 0x1F79 JUMP JUMPDEST PUSH1 0x40 MLOAD DUP1 SWAP2 SUB SWAP1 RETURN JUMPDEST CALLVALUE DUP1 ISZERO PUSH2 0x3D3 JUMPI PUSH0 PUSH0 REVERT JUMPDEST POP PUSH2 0x3EE PUSH1 0x4 DUP1 CALLDATASIZE SUB DUP2 ADD SWAP1 PUSH2 0x3E9 SWAP2 SWAP1 PUSH2 0x2184 JUMP JUMPDEST PUSH2 0x9A7 JUMP JUMPDEST STOP JUMPDEST CALLVALUE DUP1 ISZERO PUSH2 0x3FB JUMPI PUSH0 PUSH0 REVERT JUMPDEST POP PUSH2 0x416 PUSH1 0x4 DUP1 CALLDATASIZE SUB DUP2 ADD SWAP1 PUSH2 0x411 SWAP2 SWAP1 PUSH2 0x22EE JUMP JUMPDEST PUSH2 0x9BD JUMP JUMPDEST STOP JUMPDEST CALLVALUE DUP1 ISZERO PUSH2 0x423 JUMPI PUSH0 PUSH0 REVERT JUMPDEST POP PUSH2 0x43E PUSH1 0x4 DUP1 CALLDATASIZE SUB DUP2 ADD SWAP1 PUSH2 0x439 SWAP2 SWAP1 PUSH2 0x1FCC JUMP JUMPDEST PUSH2 0x9E2 JUMP JUMPDEST PUSH1 0x40 MLOAD PUSH2 0x44B SWAP2 SWAP1 PUSH2 0x1F79 JUMP JUMPDEST PUSH1 0x40 MLOAD DUP1 SWAP2 SUB SWAP1 RETURN JUMPDEST PUSH2 0x46E PUSH1 0x4 DUP1 CALLDATASIZE SUB DUP2 ADD SWAP1 PUSH2 0x469 SWAP2 SWAP1 PUSH2 0x240C JUMP JUMPDEST PUSH2 0x9F4 JUMP JUMPDEST PUSH1 0x40 MLOAD PUSH2 0x47B SWAP2 SWAP1 PUSH2 0x20C6 JUMP JUMPDEST PUSH1 0x40 MLOAD DUP1 SWAP2 SUB SWAP1 RETURN JUMPDEST CALLVALUE DUP1 ISZERO PUSH2 0x48F JUMPI PUSH0 PUSH0 REVERT JUMPDEST POP PUSH2 0x4AA PUSH1 0x4 DUP1 CALLDATASIZE SUB DUP2 ADD SWAP1 PUSH2 0x4A5 SWAP2 SWAP1 PUSH2 0x2453 JUMP JUMPDEST PUSH2 0xB09 JUMP JUMPDEST PUSH1 0x40 MLOAD PUSH2 0x4B7 SWAP2 SWAP1 PUSH2 0x1EF0 JUMP JUMPDEST PUSH1 0x40 MLOAD DUP1 SWAP2 SUB SWAP1 RETURN JUMPDEST CALLVALUE DUP1 ISZERO PUSH2 0x4CB JUMPI PUSH0 PUSH0 REVERT JUMPDEST POP PUSH2 0x4E6 PUSH1 0x4 DUP1 CALLDATASIZE SUB DUP2 ADD SWAP1 PUSH2 0x4E1 SWAP2 SWAP1 PUSH2 0x212F JUMP JUMPDEST PUSH2 0xB97 JUMP JUMPDEST STOP JUMPDEST CALLVALUE DUP1 ISZERO PUSH2 0x4F3 JUMPI PUSH0 PUSH0 REVERT JUMPDEST POP PUSH2 0x50E PUSH1 0x4 DUP1 CALLDATASIZE SUB DUP2 ADD SWAP1 PUSH2 0x509 SWAP2 SWAP1 PUSH2 0x1FCC JUMP JUMPDEST PUSH2 0xC1B JUMP JUMPDEST STOP JUMPDEST PUSH0 PUSH2 0x51A DUP3 PUSH2 0xC2D JUMP JUMPDEST SWAP1 POP SWAP2 SWAP1 POP JUMP JUMPDEST PUSH1 0x60 PUSH0 DUP1 SLOAD PUSH2 0x52F SWAP1 PUSH2 0x24BE JUMP JUMPDEST DUP1 PUSH1 0x1F ADD PUSH1 0x20 DUP1 SWAP2 DIV MUL PUSH1 0x20 ADD PUSH1 0x40 MLOAD SWAP1 DUP2 ADD PUSH1 0x40 MSTORE DUP1 SWAP3 SWAP2 SWAP1 DUP2 DUP2 MSTORE PUSH1 0x20 ADD DUP3 DUP1 SLOAD PUSH2 0x55B SWAP1 PUSH2 0x24BE JUMP JUMPDEST DUP1 ISZERO PUSH2 0x5A6 JUMPI DUP1 PUSH1 0x1F LT PUSH2 0x57D JUMPI PUSH2 0x100 DUP1 DUP4 SLOAD DIV MUL DUP4 MSTORE SWAP2 PUSH1 0x20 ADD SWAP2 PUSH2 0x5A6 JUMP JUMPDEST DUP3 ADD SWAP2 SWAP1 PUSH0 MSTORE PUSH1 0x20 PUSH0 KECCAK256 SWAP1 JUMPDEST DUP2 SLOAD DUP2 MSTORE SWAP1 PUSH1 0x1 ADD SWAP1 PUSH1 0x20 ADD DUP1 DUP4 GT PUSH2 0x589 JUMPI DUP3 SWAP1 SUB PUSH1 0x1F AND DUP3 ADD SWAP2 JUMPDEST POP POP POP POP POP SWAP1 POP SWAP1 JUMP JUMPDEST PUSH0 PUSH2 0x5BA DUP3 PUSH2 0xC8D JUMP JUMPDEST POP PUSH2 0x5C4 DUP3 PUSH2 0xD13 JUMP JUMPDEST SWAP1 POP SWAP2 SWAP1 POP JUMP JUMPDEST PUSH2 0x5DD DUP3 DUP3 PUSH2 0x5D8 PUSH2 0xD4C JUMP JUMPDEST PUSH2 0xD53 JUMP JUMPDEST POP POP JUMP JUMPDEST PUSH0 PUSH1 0x8 SLOAD SWAP1 POP SWAP1 JUMP JUMPDEST PUSH0 PUSH20 0xFFFFFFFFFFFFFFFFFFFFFFFFFFFFFFFFFFFFFFFF AND DUP3 PUSH20 0xFFFFFFFFFFFFFFFFFFFFFFFFFFFFFFFFFFFFFFFF AND SUB PUSH2 0x65A JUMPI PUSH0 PUSH1 0x40 MLOAD PUSH32 0x64A0AE9200000000000000000000000000000000000000000000000000000000 DUP2 MSTORE PUSH1 0x4 ADD PUSH2 0x651 SWAP2 SWAP1 PUSH2 0x2036 JUMP JUMPDEST PUSH1 0x40 MLOAD DUP1 SWAP2 SUB SWAP1 REVERT JUMPDEST PUSH0 PUSH2 0x66D DUP4 DUP4 PUSH2 0x668 PUSH2 0xD4C JUMP JUMPDEST PUSH2 0xD65 JUMP JUMPDEST SWAP1 POP DUP4 PUSH20 0xFFFFFFFFFFFFFFFFFFFFFFFFFFFFFFFFFFFFFFFF AND DUP2 PUSH20 0xFFFFFFFFFFFFFFFFFFFFFFFFFFFFFFFFFFFFFFFF AND EQ PUSH2 0x6E3 JUMPI DUP4 DUP3 DUP3 PUSH1 0x40 MLOAD PUSH32 0x64283D7B00000000000000000000000000000000000000000000000000000000 DUP2 MSTORE PUSH1 0x4 ADD PUSH2 0x6DA SWAP4 SWAP3 SWAP2 SWAP1 PUSH2 0x24EE JUMP JUMPDEST PUSH1 0x40 MLOAD DUP1 SWAP2 SUB SWAP1 REVERT JUMPDEST POP POP POP POP JUMP JUMPDEST PUSH2 0x2710 DUP2 JUMP JUMPDEST PUSH2 0x6F7 PUSH2 0xF70 JUMP JUMPDEST PUSH0 SELFBALANCE SWAP1 POP PUSH0 DUP2 GT PUSH2 0x73D JUMPI PUSH1 0x40 MLOAD PUSH32 0x8C379A000000000000000000000000000000000000000000000000000000000 DUP2 MSTORE PUSH1 0x4 ADD PUSH2 0x734 SWAP1 PUSH2 0x256D JUMP JUMPDEST PUSH1 0x40 MLOAD DUP1 SWAP2 SUB SWAP1 REVERT JUMPDEST PUSH0 PUSH2 0x746 PUSH2 0x8EF JUMP JUMPDEST PUSH20 0xFFFFFFFFFFFFFFFFFFFFFFFFFFFFFFFFFFFFFFFF AND DUP3 PUSH1 0x40 MLOAD PUSH2 0x769 SWAP1 PUSH2 0x25B8 JUMP JUMPDEST PUSH0 PUSH1 0x40 MLOAD DUP1 DUP4 SUB DUP2 DUP6 DUP8 GAS CALL SWAP3 POP POP POP RETURNDATASIZE DUP1 PUSH0 DUP2 EQ PUSH2 0x7A3 JUMPI PUSH1 0x40 MLOAD SWAP2 POP PUSH1 0x1F NOT PUSH1 0x3F RETURNDATASIZE ADD AND DUP3 ADD PUSH1 0x40 MSTORE RETURNDATASIZE DUP3 MSTORE RETURNDATASIZE PUSH0 PUSH1 0x20 DUP5 ADD RETURNDATACOPY PUSH2 0x7A8 JUMP JUMPDEST PUSH1 0x60 SWAP2 POP JUMPDEST POP POP SWAP1 POP DUP1 PUSH2 0x7EC JUMPI PUSH1 0x40 MLOAD PUSH32 0x8C379A000000000000000000000000000000000000000000000000000000000 DUP2 MSTORE PUSH1 0x4 ADD PUSH2 0x7E3 SWAP1 PUSH2 0x2616 JUMP JUMPDEST PUSH1 0x40 MLOAD DUP1 SWAP2 SUB SWAP1 REVERT JUMPDEST POP POP JUMP JUMPDEST PUSH2 0x80A DUP4 DUP4 DUP4 PUSH1 0x40 MLOAD DUP1 PUSH1 0x20 ADD PUSH1 0x40 MSTORE DUP1 PUSH0 DUP2 MSTORE POP PUSH2 0x9BD JUMP JUMPDEST POP POP POP JUMP JUMPDEST PUSH0 PUSH2 0x819 DUP3 PUSH2 0xC8D JUMP JUMPDEST SWAP1 POP SWAP2 SWAP1 POP JUMP JUMPDEST PUSH1 0x9 SLOAD DUP2 JUMP JUMPDEST PUSH0 PUSH0 PUSH20 0xFFFFFFFFFFFFFFFFFFFFFFFFFFFFFFFFFFFFFFFF AND DUP3 PUSH20 0xFFFFFFFFFFFFFFFFFFFFFFFFFFFFFFFFFFFFFFFF AND SUB PUSH2 0x897 JUMPI PUSH0 PUSH1 0x40 MLOAD PUSH32 0x89C62B6400000000000000000000000000000000000000000000000000000000 DUP2 MSTORE PUSH1 0x4 ADD PUSH2 0x88E SWAP2 SWAP1 PUSH2 0x2036 JUMP JUMPDEST PUSH1 0x40 MLOAD DUP1 SWAP2 SUB SWAP1 REVERT JUMPDEST PUSH1 0x3 PUSH0 DUP4 PUSH20 0xFFFFFFFFFFFFFFFFFFFFFFFFFFFFFFFFFFFFFFFF AND PUSH20 0xFFFFFFFFFFFFFFFFFFFFFFFFFFFFFFFFFFFFFFFF AND DUP2 MSTORE PUSH1 0x20 ADD SWAP1 DUP2 MSTORE PUSH1 0x20 ADD PUSH0 KECCAK256 SLOAD SWAP1 POP SWAP2 SWAP1 POP JUMP JUMPDEST PUSH2 0x8E4 PUSH2 0xF70 JUMP JUMPDEST PUSH2 0x8ED PUSH0 PUSH2 0xFF7 JUMP JUMPDEST JUMP JUMPDEST PUSH0 PUSH1 0x7 PUSH0 SWAP1 SLOAD SWAP1 PUSH2 0x100 EXP SWAP1 DIV PUSH20 0xFFFFFFFFFFFFFFFFFFFFFFFFFFFFFFFFFFFFFFFF AND SWAP1 POP SWAP1 JUMP JUMPDEST PUSH1 0x60 PUSH1 0x1 DUP1 SLOAD PUSH2 0x926 SWAP1 PUSH2 0x24BE JUMP JUMPDEST DUP1 PUSH1 0x1F ADD PUSH1 0x20 DUP1 SWAP2 DIV MUL PUSH1 0x20 ADD PUSH1 0x40 MLOAD SWAP1 DUP2 ADD PUSH1 0x40 MSTORE DUP1 SWAP3 SWAP2 SWAP1 DUP2 DUP2 MSTORE PUSH1 0x20 ADD DUP3 DUP1 SLOAD PUSH2 0x952 SWAP1 PUSH2 0x24BE JUMP JUMPDEST DUP1 ISZERO PUSH2 0x99D JUMPI DUP1 PUSH1 0x1F LT PUSH2 0x974 JUMPI PUSH2 0x100 DUP1 DUP4 SLOAD DIV MUL DUP4 MSTORE SWAP2 PUSH1 0x20 ADD SWAP2 PUSH2 0x99D JUMP JUMPDEST DUP3 ADD SWAP2 SWAP1 PUSH0 MSTORE PUSH1 0x20 PUSH0 KECCAK256 SWAP1 JUMPDEST DUP2 SLOAD DUP2 MSTORE SWAP1 PUSH1 0x1 ADD SWAP1 PUSH1 0x20 ADD DUP1 DUP4 GT PUSH2 0x980 JUMPI DUP3 SWAP1 SUB PUSH1 0x1F AND DUP3 ADD SWAP2 JUMPDEST POP POP POP POP POP SWAP1 POP SWAP1 JUMP JUMPDEST PUSH2 0x9B9 PUSH2 0x9B2 PUSH2 0xD4C JUMP JUMPDEST DUP4 DUP4 PUSH2 0x10BA JUMP JUMPDEST POP POP JUMP JUMPDEST PUSH2 0x9C8 DUP5 DUP5 DUP5 PUSH2 0x5EA JUMP JUMPDEST PUSH2 0x9DC PUSH2 0x9D3 PUSH2 0xD4C JUMP JUMPDEST DUP6 DUP6 DUP6 DUP6 PUSH2 0x1293 JUMP JUMPDEST POP POP POP POP JUMP JUMPDEST PUSH1 0x60 PUSH2 0x9ED DUP3 PUSH2 0x143F JUMP JUMPDEST SWAP1 POP SWAP2 SWAP1 POP JUMP JUMPDEST PUSH0 PUSH2 0x2710 PUSH1 0x8 SLOAD LT PUSH2 0xA3B JUMPI PUSH1 0x40 MLOAD PUSH32 0x8C379A000000000000000000000000000000000000000000000000000000000 DUP2 MSTORE PUSH1 0x4 ADD PUSH2 0xA32 SWAP1 PUSH2 0x267E JUMP JUMPDEST PUSH1 0x40 MLOAD DUP1 SWAP2 SUB SWAP1 REVERT JUMPDEST PUSH1 0x9 SLOAD CALLVALUE LT ISZERO PUSH2 0xA80 JUMPI PUSH1 0x40 MLOAD PUSH32 0x8C379A000000000000000000000000000000000000000000000000000000000 DUP2 MSTORE PUSH1 0x4 ADD PUSH2 0xA77 SWAP1 PUSH2 0x26E6 JUMP JUMPDEST PUSH1 0x40 MLOAD DUP1 SWAP2 SUB SWAP1 REVERT JUMPDEST PUSH1 0x8 PUSH0 DUP2 SLOAD DUP1 SWAP3 SWAP2 SWAP1 PUSH2 0xA92 SWAP1 PUSH2 0x2731 JUMP JUMPDEST SWAP2 SWAP1 POP SSTORE POP PUSH0 PUSH1 0x8 SLOAD SWAP1 POP PUSH2 0xAA7 CALLER DUP3 PUSH2 0x14BB JUMP JUMPDEST PUSH2 0xAB1 DUP2 DUP5 PUSH2 0x14D8 JUMP JUMPDEST DUP1 CALLER PUSH20 0xFFFFFFFFFFFFFFFFFFFFFFFFFFFFFFFFFFFFFFFF AND PUSH32 0xD35BB95E09C04B219E35047CE7B7B300E3384264EF84A40456943DBC0FC17C14 DUP6 PUSH1 0x40 MLOAD PUSH2 0xAF8 SWAP2 SWAP1 PUSH2 0x1F79 JUMP JUMPDEST PUSH1 0x40 MLOAD DUP1 SWAP2 SUB SWAP1 LOG3 DUP1 SWAP2 POP POP SWAP2 SWAP1 POP JUMP JUMPDEST PUSH0 PUSH1 0x5 PUSH0 DUP5 PUSH20 0xFFFFFFFFFFFFFFFFFFFFFFFFFFFFFFFFFFFFFFFF AND PUSH20 0xFFFFFFFFFFFFFFFFFFFFFFFFFFFFFFFFFFFFFFFF AND DUP2 MSTORE PUSH1 0x20 ADD SWAP1 DUP2 MSTORE PUSH1 0x20 ADD PUSH0 KECCAK256 PUSH0 DUP4 PUSH20 0xFFFFFFFFFFFFFFFFFFFFFFFFFFFFFFFFFFFFFFFF AND PUSH20 0xFFFFFFFFFFFFFFFFFFFFFFFFFFFFFFFFFFFFFFFF AND DUP2 MSTORE PUSH1 0x20 ADD SWAP1 DUP2 MSTORE PUSH1 0x20 ADD PUSH0 KECCAK256 PUSH0 SWAP1 SLOAD SWAP1 PUSH2 0x100 EXP SWAP1 DIV PUSH1 0xFF AND SWAP1 POP SWAP3 SWAP2 POP POP JUMP JUMPDEST PUSH2 0xB9F PUSH2 0xF70 JUMP JUMPDEST PUSH0 PUSH20 0xFFFFFFFFFFFFFFFFFFFFFFFFFFFFFFFFFFFFFFFF AND DUP2 PUSH20 0xFFFFFFFFFFFFFFFFFFFFFFFFFFFFFFFFFFFFFFFF AND SUB PUSH2 0xC0F JUMPI PUSH0 PUSH1 0x40 MLOAD PUSH32 0x1E4FBDF700000000000000000000000000000000000000000000000000000000 DUP2 MSTORE PUSH1 0x4 ADD PUSH2 0xC06 SWAP2 SWAP1 PUSH2 0x2036 JUMP JUMPDEST PUSH1 0x40 MLOAD DUP1 SWAP2 SUB SWAP1 REVERT JUMPDEST PUSH2 0xC18 DUP2 PUSH2 0xFF7 JUMP JUMPDEST POP JUMP JUMPDEST PUSH2 0xC23 PUSH2 0xF70 JUMP JUMPDEST DUP1 PUSH1 0x9 DUP2 SWAP1 SSTORE POP POP JUMP JUMPDEST PUSH0 PUSH4 0x49064906 PUSH1 0xE0 SHL PUSH28 0xFFFFFFFFFFFFFFFFFFFFFFFFFFFFFFFFFFFFFFFFFFFFFFFFFFFFFFFF NOT AND DUP3 PUSH28 0xFFFFFFFFFFFFFFFFFFFFFFFFFFFFFFFFFFFFFFFFFFFFFFFFFFFFFFFF NOT AND EQ DUP1 PUSH2 0xC86 JUMPI POP PUSH2 0xC85 DUP3 PUSH2 0x1532 JUMP JUMPDEST JUMPDEST SWAP1 POP SWAP2 SWAP1 POP JUMP JUMPDEST PUSH0 PUSH0 PUSH2 0xC98 DUP4 PUSH2 0x1613 JUMP JUMPDEST SWAP1 POP PUSH0 PUSH20 0xFFFFFFFFFFFFFFFFFFFFFFFFFFFFFFFFFFFFFFFF AND DUP2 PUSH20 0xFFFFFFFFFFFFFFFFFFFFFFFFFFFFFFFFFFFFFFFF AND SUB PUSH2 0xD0A JUMPI DUP3 PUSH1 0x40 MLOAD PUSH32 0x7E27328900000000000000000000000000000000000000000000000000000000 DUP2 MSTORE PUSH1 0x4 ADD PUSH2 0xD01 SWAP2 SWAP1 PUSH2 0x20C6 JUMP JUMPDEST PUSH1 0x40 MLOAD DUP1 SWAP2 SUB SWAP1 REVERT JUMPDEST DUP1 SWAP2 POP POP SWAP2 SWAP1 POP JUMP JUMPDEST PUSH0 PUSH1 0x4 PUSH0 DUP4 DUP2 MSTORE PUSH1 0x20 ADD SWAP1 DUP2 MSTORE PUSH1 0x20 ADD PUSH0 KECCAK256 PUSH0 SWAP1 SLOAD SWAP1 PUSH2 0x100 EXP SWAP1 DIV PUSH20 0xFFFFFFFFFFFFFFFFFFFFFFFFFFFFFFFFFFFFFFFF AND SWAP1 POP SWAP2 SWAP1 POP JUMP JUMPDEST PUSH0 CALLER SWAP1 POP SWAP1 JUMP JUMPDEST PUSH2 0xD60 DUP4 DUP4 DUP4 PUSH1 0x1 PUSH2 0x164C JUMP JUMPDEST POP POP POP JUMP JUMPDEST PUSH0 PUSH0 PUSH2 0xD70 DUP5 PUSH2 0x1613 JUMP JUMPDEST SWAP1 POP PUSH0 PUSH20 0xFFFFFFFFFFFFFFFFFFFFFFFFFFFFFFFFFFFFFFFF AND DUP4 PUSH20 0xFFFFFFFFFFFFFFFFFFFFFFFFFFFFFFFFFFFFFFFF AND EQ PUSH2 0xDB1 JUMPI PUSH2 0xDB0 DUP2 DUP5 DUP7 PUSH2 0x180B JUMP JUMPDEST JUMPDEST PUSH0 PUSH20 0xFFFFFFFFFFFFFFFFFFFFFFFFFFFFFFFFFFFFFFFF AND DUP2 PUSH20 0xFFFFFFFFFFFFFFFFFFFFFFFFFFFFFFFFFFFFFFFF AND EQ PUSH2 0xE3C JUMPI PUSH2 0xDF0 PUSH0 DUP6 PUSH0 PUSH0 PUSH2 0x164C JUMP JUMPDEST PUSH1 0x1 PUSH1 0x3 PUSH0 DUP4 PUSH20 0xFFFFFFFFFFFFFFFFFFFFFFFFFFFFFFFFFFFFFFFF AND PUSH20 0xFFFFFFFFFFFFFFFFFFFFFFFFFFFFFFFFFFFFFFFF AND DUP2 MSTORE PUSH1 0x20 ADD SWAP1 DUP2 MSTORE PUSH1 0x20 ADD PUSH0 KECCAK256 PUSH0 DUP3 DUP3 SLOAD SUB SWAP3 POP POP DUP2 SWAP1 SSTORE POP JUMPDEST PUSH0 PUSH20 0xFFFFFFFFFFFFFFFFFFFFFFFFFFFFFFFFFFFFFFFF AND DUP6 PUSH20 0xFFFFFFFFFFFFFFFFFFFFFFFFFFFFFFFFFFFFFFFF AND EQ PUSH2 0xEBB JUMPI PUSH1 0x1 PUSH1 0x3 PUSH0 DUP8 PUSH20 0xFFFFFFFFFFFFFFFFFFFFFFFFFFFFFFFFFFFFFFFF AND PUSH20 0xFFFFFFFFFFFFFFFFFFFFFFFFFFFFFFFFFFFFFFFF AND DUP2 MSTORE PUSH1 0x20 ADD SWAP1 DUP2 MSTORE PUSH1 0x20 ADD PUSH0 KECCAK256 PUSH0 DUP3 DUP3 SLOAD ADD SWAP3 POP POP DUP2 SWAP1 SSTORE POP JUMPDEST DUP5 PUSH1 0x2 PUSH0 DUP7 DUP2 MSTORE PUSH1 0x20 ADD SWAP1 DUP2 MSTORE PUSH1 0x20 ADD PUSH0 KECCAK256 PUSH0 PUSH2 0x100 EXP DUP2 SLOAD DUP2 PUSH20 0xFFFFFFFFFFFFFFFFFFFFFFFFFFFFFFFFFFFFFFFF MUL NOT AND SWAP1 DUP4 PUSH20 0xFFFFFFFFFFFFFFFFFFFFFFFFFFFFFFFFFFFFFFFF AND MUL OR SWAP1 SSTORE POP DUP4 DUP6 PUSH20 0xFFFFFFFFFFFFFFFFFFFFFFFFFFFFFFFFFFFFFFFF AND DUP3 PUSH20 0xFFFFFFFFFFFFFFFFFFFFFFFFFFFFFFFFFFFFFFFF AND PUSH32 0xDDF252AD1BE2C89B69C2B068FC378DAA952BA7F163C4A11628F55A4DF523B3EF PUSH1 0x40 MLOAD PUSH1 0x40 MLOAD DUP1 SWAP2 SUB SWAP1 LOG4 DUP1 SWAP2 POP POP SWAP4 SWAP3 POP POP POP JUMP JUMPDEST PUSH2 0xF78 PUSH2 0xD4C JUMP JUMPDEST PUSH20 0xFFFFFFFFFFFFFFFFFFFFFFFFFFFFFFFFFFFFFFFF AND PUSH2 0xF96 PUSH2 0x8EF JUMP JUMPDEST PUSH20 0xFFFFFFFFFFFFFFFFFFFFFFFFFFFFFFFFFFFFFFFF AND EQ PUSH2 0xFF5 JUMPI PUSH2 0xFB9 PUSH2 0xD4C JUMP JUMPDEST PUSH1 0x40 MLOAD PUSH32 0x118CDAA700000000000000000000000000000000000000000000000000000000 DUP2 MSTORE PUSH1 0x4 ADD PUSH2 0xFEC SWAP2 SWAP1 PUSH2 0x2036 JUMP JUMPDEST PUSH1 0x40 MLOAD DUP1 SWAP2 SUB SWAP1 REVERT JUMPDEST JUMP JUMPDEST PUSH0 PUSH1 0x7 PUSH0 SWAP1 SLOAD SWAP1 PUSH2 0x100 EXP SWAP1 DIV PUSH20 0xFFFFFFFFFFFFFFFFFFFFFFFFFFFFFFFFFFFFFFFF AND SWAP1 POP DUP2 PUSH1 0x7 PUSH0 PUSH2 0x100 EXP DUP2 SLOAD DUP2 PUSH20 0xFFFFFFFFFFFFFFFFFFFFFFFFFFFFFFFFFFFFFFFF MUL NOT AND SWAP1 DUP4 PUSH20 0xFFFFFFFFFFFFFFFFFFFFFFFFFFFFFFFFFFFFFFFF AND MUL OR SWAP1 SSTORE POP DUP2 PUSH20 0xFFFFFFFFFFFFFFFFFFFFFFFFFFFFFFFFFFFFFFFF AND DUP2 PUSH20 0xFFFFFFFFFFFFFFFFFFFFFFFFFFFFFFFFFFFFFFFF AND PUSH32 0x8BE0079C531659141344CD1FD0A4F28419497F9722A3DAAFE3B4186F6B6457E0 PUSH1 0x40 MLOAD PUSH1 0x40 MLOAD DUP1 SWAP2 SUB SWAP1 LOG3 POP POP JUMP JUMPDEST PUSH0 PUSH20 0xFFFFFFFFFFFFFFFFFFFFFFFFFFFFFFFFFFFFFFFF AND DUP4 PUSH20 0xFFFFFFFFFFFFFFFFFFFFFFFFFFFFFFFFFFFFFFFF AND SUB PUSH2 0x112A JUMPI PUSH0 PUSH1 0x40 MLOAD PUSH32 0xA9FBF51F00000000000000000000000000000000000000000000000000000000 DUP2 MSTORE PUSH1 0x4 ADD PUSH2 0x1121 SWAP2 SWAP1 PUSH2 0x2036 JUMP JUMPDEST PUSH1 0x40 MLOAD DUP1 SWAP2 SUB SWAP1 REVERT JUMPDEST PUSH0 PUSH20 0xFFFFFFFFFFFFFFFFFFFFFFFFFFFFFFFFFFFFFFFF AND DUP3 PUSH20 0xFFFFFFFFFFFFFFFFFFFFFFFFFFFFFFFFFFFFFFFF AND SUB PUSH2 0x119A JUMPI DUP2 PUSH1 0x40 MLOAD PUSH32 0x5B08BA1800000000000000000000000000000000000000000000000000000000 DUP2 MSTORE PUSH1 0x4 ADD PUSH2 0x1191 SWAP2 SWAP1 PUSH2 0x2036 JUMP JUMPDEST PUSH1 0x40 MLOAD DUP1 SWAP2 SUB SWAP1 REVERT JUMPDEST DUP1 PUSH1 0x5 PUSH0 DUP6 PUSH20 0xFFFFFFFFFFFFFFFFFFFFFFFFFFFFFFFFFFFFFFFF AND PUSH20 0xFFFFFFFFFFFFFFFFFFFFFFFFFFFFFFFFFFFFFFFF AND DUP2 MSTORE PUSH1 0x20 ADD SWAP1 DUP2 MSTORE PUSH1 0x20 ADD PUSH0 KECCAK256 PUSH0 DUP5 PUSH20 0xFFFFFFFFFFFFFFFFFFFFFFFFFFFFFFFFFFFFFFFF AND PUSH20 0xFFFFFFFFFFFFFFFFFFFFFFFFFFFFFFFFFFFFFFFF AND DUP2 MSTORE PUSH1 0x20 ADD SWAP1 DUP2 MSTORE PUSH1 0x20 ADD PUSH0 KECCAK256 PUSH0 PUSH2 0x100 EXP DUP2 SLOAD DUP2 PUSH1 0xFF MUL NOT AND SWAP1 DUP4 ISZERO ISZERO MUL OR SWAP1 SSTORE POP DUP2 PUSH20 0xFFFFFFFFFFFFFFFFFFFFFFFFFFFFFFFFFFFFFFFF AND DUP4 PUSH20 0xFFFFFFFFFFFFFFFFFFFFFFFFFFFFFFFFFFFFFFFF AND PUSH32 0x17307EAB39AB6107E8899845AD3D59BD9653F200F220920489CA2B5937696C31 DUP4 PUSH1 0x40 MLOAD PUSH2 0x1286 SWAP2 SWAP1 PUSH2 0x1EF0 JUMP JUMPDEST PUSH1 0x40 MLOAD DUP1 SWAP2 SUB SWAP1 LOG3 POP POP POP JUMP JUMPDEST PUSH0 DUP4 PUSH20 0xFFFFFFFFFFFFFFFFFFFFFFFFFFFFFFFFFFFFFFFF AND EXTCODESIZE GT ISZERO PUSH2 0x1438 JUMPI DUP3 PUSH20 0xFFFFFFFFFFFFFFFFFFFFFFFFFFFFFFFFFFFFFFFF AND PUSH4 0x150B7A02 DUP7 DUP7 DUP6 DUP6 PUSH1 0x40 MLOAD DUP6 PUSH4 0xFFFFFFFF AND PUSH1 0xE0 SHL DUP2 MSTORE PUSH1 0x4 ADD PUSH2 0x12F1 SWAP5 SWAP4 SWAP3 SWAP2 SWAP1 PUSH2 0x27CA JUMP JUMPDEST PUSH1 0x20 PUSH1 0x40 MLOAD DUP1 DUP4 SUB DUP2 PUSH0 DUP8 GAS CALL SWAP3 POP POP POP DUP1 ISZERO PUSH2 0x132C JUMPI POP PUSH1 0x40 MLOAD RETURNDATASIZE PUSH1 0x1F NOT PUSH1 0x1F DUP3 ADD AND DUP3 ADD DUP1 PUSH1 0x40 MSTORE POP DUP2 ADD SWAP1 PUSH2 0x1329 SWAP2 SWAP1 PUSH2 0x2828 JUMP JUMPDEST PUSH1 0x1 JUMPDEST PUSH2 0x13AD JUMPI RETURNDATASIZE DUP1 PUSH0 DUP2 EQ PUSH2 0x135A JUMPI PUSH1 0x40 MLOAD SWAP2 POP PUSH1 0x1F NOT PUSH1 0x3F RETURNDATASIZE ADD AND DUP3 ADD PUSH1 0x40 MSTORE RETURNDATASIZE DUP3 MSTORE RETURNDATASIZE PUSH0 PUSH1 0x20 DUP5 ADD RETURNDATACOPY PUSH2 0x135F JUMP JUMPDEST PUSH1 0x60 SWAP2 POP JUMPDEST POP PUSH0 DUP2 MLOAD SUB PUSH2 0x13A5 JUMPI DUP4 PUSH1 0x40 MLOAD PUSH32 0x64A0AE9200000000000000000000000000000000000000000000000000000000 DUP2 MSTORE PUSH1 0x4 ADD PUSH2 0x139C SWAP2 SWAP1 PUSH2 0x2036 JUMP JUMPDEST PUSH1 0x40 MLOAD DUP1 SWAP2 SUB SWAP1 REVERT JUMPDEST DUP1 MLOAD PUSH1 0x20 DUP3 ADD REVERT JUMPDEST PUSH4 0x150B7A02 PUSH1 0xE0 SHL PUSH28 0xFFFFFFFFFFFFFFFFFFFFFFFFFFFFFFFFFFFFFFFFFFFFFFFFFFFFFFFF NOT AND DUP2 PUSH28 0xFFFFFFFFFFFFFFFFFFFFFFFFFFFFFFFFFFFFFFFFFFFFFFFFFFFFFFFF NOT AND EQ PUSH2 0x1436 JUMPI DUP4 PUSH1 0x40 MLOAD PUSH32 0x64A0AE9200000000000000000000000000000000000000000000000000000000 DUP2 MSTORE PUSH1 0x4 ADD PUSH2 0x142D SWAP2 SWAP1 PUSH2 0x2036 JUMP JUMPDEST PUSH1 0x40 MLOAD DUP1 SWAP2 SUB SWAP1 REVERT JUMPDEST POP JUMPDEST POP POP POP POP POP JUMP JUMPDEST PUSH1 0x60 PUSH2 0x144A DUP3 PUSH2 0xC8D JUMP JUMPDEST POP PUSH0 PUSH2 0x1454 PUSH2 0x18CE JUMP JUMPDEST SWAP1 POP PUSH0 PUSH2 0x1460 DUP5 PUSH2 0x18E4 JUMP JUMPDEST SWAP1 POP PUSH0 DUP3 MLOAD SUB PUSH2 0x1474 JUMPI DUP1 SWAP3 POP POP POP PUSH2 0x14B6 JUMP JUMPDEST PUSH0 DUP2 MLOAD GT ISZERO PUSH2 0x14A8 JUMPI DUP2 DUP2 PUSH1 0x40 MLOAD PUSH1 0x20 ADD PUSH2 0x1490 SWAP3 SWAP2 SWAP1 PUSH2 0x288D JUMP JUMPDEST PUSH1 0x40 MLOAD PUSH1 0x20 DUP2 DUP4 SUB SUB DUP2 MSTORE SWAP1 PUSH1 0x40 MSTORE SWAP3 POP POP POP PUSH2 0x14B6 JUMP JUMPDEST PUSH2 0x14B1 DUP5 PUSH2 0x1985 JUMP JUMPDEST SWAP3 POP POP POP JUMPDEST SWAP2 SWAP1 POP JUMP JUMPDEST PUSH2 0x14D4 DUP3 DUP3 PUSH1 0x40 MLOAD DUP1 PUSH1 0x20 ADD PUSH1 0x40 MSTORE DUP1 PUSH0 DUP2 MSTORE POP PUSH2 0x19EB JUMP JUMPDEST POP POP JUMP JUMPDEST DUP1 PUSH1 0x6 PUSH0 DUP5 DUP2 MSTORE PUSH1 0x20 ADD SWAP1 DUP2 MSTORE PUSH1 0x20 ADD PUSH0 KECCAK256 SWAP1 DUP2 PUSH2 0x14F6 SWAP2 SWAP1 PUSH2 0x2A61 JUMP JUMPDEST POP PUSH32 0xF8E1A15ABA9398E019F0B49DF1A4FDE98EE17AE345CB5F6B5E2C27F5033E8CE7 DUP3 PUSH1 0x40 MLOAD PUSH2 0x1526 SWAP2 SWAP1 PUSH2 0x20C6 JUMP JUMPDEST PUSH1 0x40 MLOAD DUP1 SWAP2 SUB SWAP1 LOG1 POP POP JUMP JUMPDEST PUSH0 PUSH32 0x80AC58CD00000000000000000000000000000000000000000000000000000000 PUSH28 0xFFFFFFFFFFFFFFFFFFFFFFFFFFFFFFFFFFFFFFFFFFFFFFFFFFFFFFFF NOT AND DUP3 PUSH28 0xFFFFFFFFFFFFFFFFFFFFFFFFFFFFFFFFFFFFFFFFFFFFFFFFFFFFFFFF NOT AND EQ DUP1 PUSH2 0x15FC JUMPI POP PUSH32 0x5B5E139F00000000000000000000000000000000000000000000000000000000 PUSH28 0xFFFFFFFFFFFFFFFFFFFFFFFFFFFFFFFFFFFFFFFFFFFFFFFFFFFFFFFF NOT AND DUP3 PUSH28 0xFFFFFFFFFFFFFFFFFFFFFFFFFFFFFFFFFFFFFFFFFFFFFFFFFFFFFFFF NOT AND EQ JUMPDEST DUP1 PUSH2 0x160C JUMPI POP PUSH2 0x160B DUP3 PUSH2 0x1A0E JUMP JUMPDEST JUMPDEST SWAP1 POP SWAP2 SWAP1 POP JUMP JUMPDEST PUSH0 PUSH1 0x2 PUSH0 DUP4 DUP2 MSTORE PUSH1 0x20 ADD SWAP1 DUP2 MSTORE PUSH1 0x20 ADD PUSH0 KECCAK256 PUSH0 SWAP1 SLOAD SWAP1 PUSH2 0x100 EXP SWAP1 DIV PUSH20 0xFFFFFFFFFFFFFFFFFFFFFFFFFFFFFFFFFFFFFFFF AND SWAP1 POP SWAP2 SWAP1 POP JUMP JUMPDEST DUP1 DUP1 PUSH2 0x1684 JUMPI POP PUSH0 PUSH20 0xFFFFFFFFFFFFFFFFFFFFFFFFFFFFFFFFFFFFFFFF AND DUP3 PUSH20 0xFFFFFFFFFFFFFFFFFFFFFFFFFFFFFFFFFFFFFFFF AND EQ ISZERO JUMPDEST ISZERO PUSH2 0x17B6 JUMPI PUSH0 PUSH2 0x1693 DUP5 PUSH2 0xC8D JUMP JUMPDEST SWAP1 POP PUSH0 PUSH20 0xFFFFFFFFFFFFFFFFFFFFFFFFFFFFFFFFFFFFFFFF AND DUP4 PUSH20 0xFFFFFFFFFFFFFFFFFFFFFFFFFFFFFFFFFFFFFFFF AND EQ ISZERO DUP1 ISZERO PUSH2 0x16FD JUMPI POP DUP3 PUSH20 0xFFFFFFFFFFFFFFFFFFFFFFFFFFFFFFFFFFFFFFFF AND DUP2 PUSH20 0xFFFFFFFFFFFFFFFFFFFFFFFFFFFFFFFFFFFFFFFF AND EQ ISZERO JUMPDEST DUP1 ISZERO PUSH2 0x1710 JUMPI POP PUSH2 0x170E DUP2 DUP5 PUSH2 0xB09 JUMP JUMPDEST ISZERO JUMPDEST ISZERO PUSH2 0x1752 JUMPI DUP3 PUSH1 0x40 MLOAD PUSH32 0xA9FBF51F00000000000000000000000000000000000000000000000000000000 DUP2 MSTORE PUSH1 0x4 ADD PUSH2 0x1749 SWAP2 SWAP1 PUSH2 0x2036 JUMP JUMPDEST PUSH1 0x40 MLOAD DUP1 SWAP2 SUB SWAP1 REVERT JUMPDEST DUP2 ISZERO PUSH2 0x17B4 JUMPI DUP4 DUP6 PUSH20 0xFFFFFFFFFFFFFFFFFFFFFFFFFFFFFFFFFFFFFFFF AND DUP3 PUSH20 0xFFFFFFFFFFFFFFFFFFFFFFFFFFFFFFFFFFFFFFFF AND PUSH32 0x8C5BE1E5EBEC7D5BD14F71427D1E84F3DD0314C0F7B2291E5B200AC8C7C3B925 PUSH1 0x40 MLOAD PUSH1 0x40 MLOAD DUP1 SWAP2 SUB SWAP1 LOG4 JUMPDEST POP JUMPDEST DUP4 PUSH1 0x4 PUSH0 DUP6 DUP2 MSTORE PUSH1 0x20 ADD SWAP1 DUP2 MSTORE PUSH1 0x20 ADD PUSH0 KECCAK256 PUSH0 PUSH2 0x100 EXP DUP2 SLOAD DUP2 PUSH20 0xFFFFFFFFFFFFFFFFFFFFFFFFFFFFFFFFFFFFFFFF MUL NOT AND SWAP1 DUP4 PUSH20 0xFFFFFFFFFFFFFFFFFFFFFFFFFFFFFFFFFFFFFFFF AND MUL OR SWAP1 SSTORE POP POP POP POP POP JUMP JUMPDEST PUSH2 0x1816 DUP4 DUP4 DUP4 PUSH2 0x1A77 JUMP JUMPDEST PUSH2 0x18C9 JUMPI PUSH0 PUSH20 0xFFFFFFFFFFFFFFFFFFFFFFFFFFFFFFFFFFFFFFFF AND DUP4 PUSH20 0xFFFFFFFFFFFFFFFFFFFFFFFFFFFFFFFFFFFFFFFF AND SUB PUSH2 0x188A JUMPI DUP1 PUSH1 0x40 MLOAD PUSH32 0x7E27328900000000000000000000000000000000000000000000000000000000 DUP2 MSTORE PUSH1 0x4 ADD PUSH2 0x1881 SWAP2 SWAP1 PUSH2 0x20C6 JUMP JUMPDEST PUSH1 0x40 MLOAD DUP1 SWAP2 SUB SWAP1 REVERT JUMPDEST DUP2 DUP2 PUSH1 0x40 MLOAD PUSH32 0x177E802F00000000000000000000000000000000000000000000000000000000 DUP2 MSTORE PUSH1 0x4 ADD PUSH2 0x18C0 SWAP3 SWAP2 SWAP1 PUSH2 0x2B30 JUMP JUMPDEST PUSH1 0x40 MLOAD DUP1 SWAP2 SUB SWAP1 REVERT JUMPDEST POP POP POP JUMP JUMPDEST PUSH1 0x60 PUSH1 0x40 MLOAD DUP1 PUSH1 0x20 ADD PUSH1 0x40 MSTORE DUP1 PUSH0 DUP2 MSTORE POP SWAP1 POP SWAP1 JUMP JUMPDEST PUSH1 0x60 PUSH1 0x6 PUSH0 DUP4 DUP2 MSTORE PUSH1 0x20 ADD SWAP1 DUP2 MSTORE PUSH1 0x20 ADD PUSH0 KECCAK256 DUP1 SLOAD PUSH2 0x1902 SWAP1 PUSH2 0x24BE JUMP JUMPDEST DUP1 PUSH1 0x1F ADD PUSH1 0x20 DUP1 SWAP2 DIV MUL PUSH1 0x20 ADD PUSH1 0x40 MLOAD SWAP1 DUP2 ADD PUSH1 0x40 MSTORE DUP1 SWAP3 SWAP2 SWAP1 DUP2 DUP2 MSTORE PUSH1 0x20 ADD DUP3 DUP1 SLOAD PUSH2 0x192E SWAP1 PUSH2 0x24BE JUMP JUMPDEST DUP1 ISZERO PUSH2 0x1979 JUMPI DUP1 PUSH1 0x1F LT PUSH2 0x1950 JUMPI PUSH2 0x100 DUP1 DUP4 SLOAD DIV MUL DUP4 MSTORE SWAP2 PUSH1 0x20 ADD SWAP2 PUSH2 0x1979 JUMP JUMPDEST DUP3 ADD SWAP2 SWAP1 PUSH0 MSTORE PUSH1 0x20 PUSH0 KECCAK256 SWAP1 JUMPDEST DUP2 SLOAD DUP2 MSTORE SWAP1 PUSH1 0x1 ADD SWAP1 PUSH1 0x20 ADD DUP1 DUP4 GT PUSH2 0x195C JUMPI DUP3 SWAP1 SUB PUSH1 0x1F AND DUP3 ADD SWAP2 JUMPDEST POP POP POP POP POP SWAP1 POP SWAP2 SWAP1 POP JUMP JUMPDEST PUSH1 0x60 PUSH2 0x1990 DUP3 PUSH2 0xC8D JUMP JUMPDEST POP PUSH0 PUSH2 0x199A PUSH2 0x18CE JUMP JUMPDEST SWAP1 POP PUSH0 DUP2 MLOAD GT PUSH2 0x19B8 JUMPI PUSH1 0x40 MLOAD DUP1 PUSH1 0x20 ADD PUSH1 0x40 MSTORE DUP1 PUSH0 DUP2 MSTORE POP PUSH2 0x19E3 JUMP JUMPDEST DUP1 PUSH2 0x19C2 DUP5 PUSH2 0x1B37 JUMP JUMPDEST PUSH1 0x40 MLOAD PUSH1 0x20 ADD PUSH2 0x19D3 SWAP3 SWAP2 SWAP1 PUSH2 0x288D JUMP JUMPDEST PUSH1 0x40 MLOAD PUSH1 0x20 DUP2 DUP4 SUB SUB DUP2 MSTORE SWAP1 PUSH1 0x40 MSTORE JUMPDEST SWAP2 POP POP SWAP2 SWAP1 POP JUMP JUMPDEST PUSH2 0x19F5 DUP4 DUP4 PUSH2 0x1C01 JUMP JUMPDEST PUSH2 0x1A09 PUSH2 0x1A00 PUSH2 0xD4C JUMP JUMPDEST PUSH0 DUP6 DUP6 DUP6 PUSH2 0x1293 JUMP JUMPDEST POP POP POP JUMP JUMPDEST PUSH0 PUSH32 0x1FFC9A700000000000000000000000000000000000000000000000000000000 PUSH28 0xFFFFFFFFFFFFFFFFFFFFFFFFFFFFFFFFFFFFFFFFFFFFFFFFFFFFFFFF NOT AND DUP3 PUSH28 0xFFFFFFFFFFFFFFFFFFFFFFFFFFFFFFFFFFFFFFFFFFFFFFFFFFFFFFFF NOT AND EQ SWAP1 POP SWAP2 SWAP1 POP JUMP JUMPDEST PUSH0 PUSH0 PUSH20 0xFFFFFFFFFFFFFFFFFFFFFFFFFFFFFFFFFFFFFFFF AND DUP4 PUSH20 0xFFFFFFFFFFFFFFFFFFFFFFFFFFFFFFFFFFFFFFFF AND EQ ISZERO DUP1 ISZERO PUSH2 0x1B2E JUMPI POP DUP3 PUSH20 0xFFFFFFFFFFFFFFFFFFFFFFFFFFFFFFFFFFFFFFFF AND DUP5 PUSH20 0xFFFFFFFFFFFFFFFFFFFFFFFFFFFFFFFFFFFFFFFF AND EQ DUP1 PUSH2 0x1AEF JUMPI POP PUSH2 0x1AEE DUP5 DUP5 PUSH2 0xB09 JUMP JUMPDEST JUMPDEST DUP1 PUSH2 0x1B2D JUMPI POP DUP3 PUSH20 0xFFFFFFFFFFFFFFFFFFFFFFFFFFFFFFFFFFFFFFFF AND PUSH2 0x1B15 DUP4 PUSH2 0xD13 JUMP JUMPDEST PUSH20 0xFFFFFFFFFFFFFFFFFFFFFFFFFFFFFFFFFFFFFFFF AND EQ JUMPDEST JUMPDEST SWAP1 POP SWAP4 SWAP3 POP POP POP JUMP JUMPDEST PUSH1 0x60 PUSH0 PUSH1 0x1 PUSH2 0x1B45 DUP5 PUSH2 0x1CF4 JUMP JUMPDEST ADD SWAP1 POP PUSH0 DUP2 PUSH8 0xFFFFFFFFFFFFFFFF DUP2 GT ISZERO PUSH2 0x1B63 JUMPI PUSH2 0x1B62 PUSH2 0x21CA JUMP JUMPDEST JUMPDEST PUSH1 0x40 MLOAD SWAP1 DUP1 DUP3 MSTORE DUP1 PUSH1 0x1F ADD PUSH1 0x1F NOT AND PUSH1 0x20 ADD DUP3 ADD PUSH1 0x40 MSTORE DUP1 ISZERO PUSH2 0x1B95 JUMPI DUP2 PUSH1 0x20 ADD PUSH1 0x1 DUP3 MUL DUP1 CALLDATASIZE DUP4 CALLDATACOPY DUP1 DUP3 ADD SWAP2 POP POP SWAP1 POP JUMPDEST POP SWAP1 POP PUSH0 DUP3 PUSH1 0x20 DUP4 ADD ADD SWAP1 POP JUMPDEST PUSH1 0x1 ISZERO PUSH2 0x1BF6 JUMPI DUP1 DUP1 PUSH1 0x1 SWAP1 SUB SWAP2 POP POP PUSH32 0x3031323334353637383961626364656600000000000000000000000000000000 PUSH1 0xA DUP7 MOD BYTE DUP2 MSTORE8 PUSH1 0xA DUP6 DUP2 PUSH2 0x1BEB JUMPI PUSH2 0x1BEA PUSH2 0x2B57 JUMP JUMPDEST JUMPDEST DIV SWAP5 POP PUSH0 DUP6 SUB PUSH2 0x1BA2 JUMPI JUMPDEST DUP2 SWAP4 POP POP POP POP SWAP2 SWAP1 POP JUMP JUMPDEST PUSH0 PUSH20 0xFFFFFFFFFFFFFFFFFFFFFFFFFFFFFFFFFFFFFFFF AND DUP3 PUSH20 0xFFFFFFFFFFFFFFFFFFFFFFFFFFFFFFFFFFFFFFFF AND SUB PUSH2 0x1C71 JUMPI PUSH0 PUSH1 0x40 MLOAD PUSH32 0x64A0AE9200000000000000000000000000000000000000000000000000000000 DUP2 MSTORE PUSH1 0x4 ADD PUSH2 0x1C68 SWAP2 SWAP1 PUSH2 0x2036 JUMP JUMPDEST PUSH1 0x40 MLOAD DUP1 SWAP2 SUB SWAP1 REVERT JUMPDEST PUSH0 PUSH2 0x1C7D DUP4 DUP4 PUSH0 PUSH2 0xD65 JUMP JUMPDEST SWAP1 POP PUSH0 PUSH20 0xFFFFFFFFFFFFFFFFFFFFFFFFFFFFFFFFFFFFFFFF AND DUP2 PUSH20 0xFFFFFFFFFFFFFFFFFFFFFFFFFFFFFFFFFFFFFFFF AND EQ PUSH2 0x1CEF JUMPI PUSH0 PUSH1 0x40 MLOAD PUSH32 0x73C6AC6E00000000000000000000000000000000000000000000000000000000 DUP2 MSTORE PUSH1 0x4 ADD PUSH2 0x1CE6 SWAP2 SWAP1 PUSH2 0x2036 JUMP JUMPDEST PUSH1 0x40 MLOAD DUP1 SWAP2 SUB SWAP1 REVERT JUMPDEST POP POP POP JUMP JUMPDEST PUSH0 PUSH0 PUSH0 SWAP1 POP PUSH27 0x184F03E93FF9F4DAA797ED6E38ED64BF6A1F010000000000000000 DUP4 LT PUSH2 0x1D50 JUMPI PUSH27 0x184F03E93FF9F4DAA797ED6E38ED64BF6A1F010000000000000000 DUP4 DUP2 PUSH2 0x1D46 JUMPI PUSH2 0x1D45 PUSH2 0x2B57 JUMP JUMPDEST JUMPDEST DIV SWAP3 POP PUSH1 0x40 DUP2 ADD SWAP1 POP JUMPDEST PUSH14 0x4EE2D6D415B85ACEF8100000000 DUP4 LT PUSH2 0x1D8D JUMPI PUSH14 0x4EE2D6D415B85ACEF8100000000 DUP4 DUP2 PUSH2 0x1D83 JUMPI PUSH2 0x1D82 PUSH2 0x2B57 JUMP JUMPDEST JUMPDEST DIV SWAP3 POP PUSH1 0x20 DUP2 ADD SWAP1 POP JUMPDEST PUSH7 0x2386F26FC10000 DUP4 LT PUSH2 0x1DBC JUMPI PUSH7 0x2386F26FC10000 DUP4 DUP2 PUSH2 0x1DB2 JUMPI PUSH2 0x1DB1 PUSH2 0x2B57 JUMP JUMPDEST JUMPDEST DIV SWAP3 POP PUSH1 0x10 DUP2 ADD SWAP1 POP JUMPDEST PUSH4 0x5F5E100 DUP4 LT PUSH2 0x1DE5 JUMPI PUSH4 0x5F5E100 DUP4 DUP2 PUSH2 0x1DDB JUMPI PUSH2 0x1DDA PUSH2 0x2B57 JUMP JUMPDEST JUMPDEST DIV SWAP3 POP PUSH1 0x8 DUP2 ADD SWAP1 POP JUMPDEST PUSH2 0x2710 DUP4 LT PUSH2 0x1E0A JUMPI PUSH2 0x2710 DUP4 DUP2 PUSH2 0x1E00 JUMPI PUSH2 0x1DFF PUSH2 0x2B57 JUMP JUMPDEST JUMPDEST DIV SWAP3 POP PUSH1 0x4 DUP2 ADD SWAP1 POP JUMPDEST PUSH1 0x64 DUP4 LT PUSH2 0x1E2D JUMPI PUSH1 0x64 DUP4 DUP2 PUSH2 0x1E23 JUMPI PUSH2 0x1E22 PUSH2 0x2B57 JUMP JUMPDEST JUMPDEST DIV SWAP3 POP PUSH1 0x2 DUP2 ADD SWAP1 POP JUMPDEST PUSH1 0xA DUP4 LT PUSH2 0x1E3C JUMPI PUSH1 0x1 DUP2 ADD SWAP1 POP JUMPDEST DUP1 SWAP2 POP POP SWAP2 SWAP1 POP JUMP JUMPDEST PUSH0 PUSH1 0x40 MLOAD SWAP1 POP SWAP1 JUMP JUMPDEST PUSH0 PUSH0 REVERT JUMPDEST PUSH0 PUSH0 REVERT JUMPDEST PUSH0 PUSH32 0xFFFFFFFF00000000000000000000000000000000000000000000000000000000 DUP3 AND SWAP1 POP SWAP2 SWAP1 POP JUMP JUMPDEST PUSH2 0x1E8A DUP2 PUSH2 0x1E56 JUMP JUMPDEST DUP2 EQ PUSH2 0x1E94 JUMPI PUSH0 PUSH0 REVERT JUMPDEST POP JUMP JUMPDEST PUSH0 DUP2 CALLDATALOAD SWAP1 POP PUSH2 0x1EA5 DUP2 PUSH2 0x1E81 JUMP JUMPDEST SWAP3 SWAP2 POP POP JUMP JUMPDEST PUSH0 PUSH1 0x20 DUP3 DUP5 SUB SLT ISZERO PUSH2 0x1EC0 JUMPI PUSH2 0x1EBF PUSH2 0x1E4E JUMP JUMPDEST JUMPDEST PUSH0 PUSH2 0x1ECD DUP5 DUP3 DUP6 ADD PUSH2 0x1E97 JUMP JUMPDEST SWAP2 POP POP SWAP3 SWAP2 POP POP JUMP JUMPDEST PUSH0 DUP2 ISZERO ISZERO SWAP1 POP SWAP2 SWAP1 POP JUMP JUMPDEST PUSH2 0x1EEA DUP2 PUSH2 0x1ED6 JUMP JUMPDEST DUP3 MSTORE POP POP JUMP JUMPDEST PUSH0 PUSH1 0x20 DUP3 ADD SWAP1 POP PUSH2 0x1F03 PUSH0 DUP4 ADD DUP5 PUSH2 0x1EE1 JUMP JUMPDEST SWAP3 SWAP2 POP POP JUMP JUMPDEST PUSH0 DUP2 MLOAD SWAP1 POP SWAP2 SWAP1 POP JUMP JUMPDEST PUSH0 DUP3 DUP3 MSTORE PUSH1 0x20 DUP3 ADD SWAP1 POP SWAP3 SWAP2 POP POP JUMP JUMPDEST DUP3 DUP2 DUP4 MCOPY PUSH0 DUP4 DUP4 ADD MSTORE POP POP POP JUMP JUMPDEST PUSH0 PUSH1 0x1F NOT PUSH1 0x1F DUP4 ADD AND SWAP1 POP SWAP2 SWAP1 POP JUMP JUMPDEST PUSH0 PUSH2 0x1F4B DUP3 PUSH2 0x1F09 JUMP JUMPDEST PUSH2 0x1F55 DUP2 DUP6 PUSH2 0x1F13 JUMP JUMPDEST SWAP4 POP PUSH2 0x1F65 DUP2 DUP6 PUSH1 0x20 DUP7 ADD PUSH2 0x1F23 JUMP JUMPDEST PUSH2 0x1F6E DUP2 PUSH2 0x1F31 JUMP JUMPDEST DUP5 ADD SWAP2 POP POP SWAP3 SWAP2 POP POP JUMP JUMPDEST PUSH0 PUSH1 0x20 DUP3 ADD SWAP1 POP DUP2 DUP2 SUB PUSH0 DUP4 ADD MSTORE PUSH2 0x1F91 DUP2 DUP5 PUSH2 0x1F41 JUMP JUMPDEST SWAP1 POP SWAP3 SWAP2 POP POP JUMP JUMPDEST PUSH0 DUP2 SWAP1 POP SWAP2 SWAP1 POP JUMP JUMPDEST PUSH2 0x1FAB DUP2 PUSH2 0x1F99 JUMP JUMPDEST DUP2 EQ PUSH2 0x1FB5 JUMPI PUSH0 PUSH0 REVERT JUMPDEST POP JUMP JUMPDEST PUSH0 DUP2 CALLDATALOAD SWAP1 POP PUSH2 0x1FC6 DUP2 PUSH2 0x1FA2 JUMP JUMPDEST SWAP3 SWAP2 POP POP JUMP JUMPDEST PUSH0 PUSH1 0x20 DUP3 DUP5 SUB SLT ISZERO PUSH2 0x1FE1 JUMPI PUSH2 0x1FE0 PUSH2 0x1E4E JUMP JUMPDEST JUMPDEST PUSH0 PUSH2 0x1FEE DUP5 DUP3 DUP6 ADD PUSH2 0x1FB8 JUMP JUMPDEST SWAP2 POP POP SWAP3 SWAP2 POP POP JUMP JUMPDEST PUSH0 PUSH20 0xFFFFFFFFFFFFFFFFFFFFFFFFFFFFFFFFFFFFFFFF DUP3 AND SWAP1 POP SWAP2 SWAP1 POP JUMP JUMPDEST PUSH0 PUSH2 0x2020 DUP3 PUSH2 0x1FF7 JUMP JUMPDEST SWAP1 POP SWAP2 SWAP1 POP JUMP JUMPDEST PUSH2 0x2030 DUP2 PUSH2 0x2016 JUMP JUMPDEST DUP3 MSTORE POP POP JUMP JUMPDEST PUSH0 PUSH1 0x20 DUP3 ADD SWAP1 POP PUSH2 0x2049 PUSH0 DUP4 ADD DUP5 PUSH2 0x2027 JUMP JUMPDEST SWAP3 SWAP2 POP POP JUMP JUMPDEST PUSH2 0x2058 DUP2 PUSH2 0x2016 JUMP JUMPDEST DUP2 EQ PUSH2 0x2062 JUMPI PUSH0 PUSH0 REVERT JUMPDEST POP JUMP JUMPDEST PUSH0 DUP2 CALLDATALOAD SWAP1 POP PUSH2 0x2073 DUP2 PUSH2 0x204F JUMP JUMPDEST SWAP3 SWAP2 POP POP JUMP JUMPDEST PUSH0 PUSH0 PUSH1 0x40 DUP4 DUP6 SUB SLT ISZERO PUSH2 0x208F JUMPI PUSH2 0x208E PUSH2 0x1E4E JUMP JUMPDEST JUMPDEST PUSH0 PUSH2 0x209C DUP6 DUP3 DUP7 ADD PUSH2 0x2065 JUMP JUMPDEST SWAP3 POP POP PUSH1 0x20 PUSH2 0x20AD DUP6 DUP3 DUP7 ADD PUSH2 0x1FB8 JUMP JUMPDEST SWAP2 POP POP SWAP3 POP SWAP3 SWAP1 POP JUMP JUMPDEST PUSH2 0x20C0 DUP2 PUSH2 0x1F99 JUMP JUMPDEST DUP3 MSTORE POP POP JUMP JUMPDEST PUSH0 PUSH1 0x20 DUP3 ADD SWAP1 POP PUSH2 0x20D9 PUSH0 DUP4 ADD DUP5 PUSH2 0x20B7 JUMP JUMPDEST SWAP3 SWAP2 POP POP JUMP JUMPDEST PUSH0 PUSH0 PUSH0 PUSH1 0x60 DUP5 DUP7 SUB SLT ISZERO PUSH2 0x20F6 JUMPI PUSH2 0x20F5 PUSH2 0x1E4E JUMP JUMPDEST JUMPDEST PUSH0 PUSH2 0x2103 DUP7 DUP3 DUP8 ADD PUSH2 0x2065 JUMP JUMPDEST SWAP4 POP POP PUSH1 0x20 PUSH2 0x2114 DUP7 DUP3 DUP8 ADD PUSH2 0x2065 JUMP JUMPDEST SWAP3 POP POP PUSH1 0x40 PUSH2 0x2125 DUP7 DUP3 DUP8 ADD PUSH2 0x1FB8 JUMP JUMPDEST SWAP2 POP POP SWAP3 POP SWAP3 POP SWAP3 JUMP JUMPDEST PUSH0 PUSH1 0x20 DUP3 DUP5 SUB SLT ISZERO PUSH2 0x2144 JUMPI PUSH2 0x2143 PUSH2 0x1E4E JUMP JUMPDEST JUMPDEST PUSH0 PUSH2 0x2151 DUP5 DUP3 DUP6 ADD PUSH2 0x2065 JUMP JUMPDEST SWAP2 POP POP SWAP3 SWAP2 POP POP JUMP JUMPDEST PUSH2 0x2163 DUP2 PUSH2 0x1ED6 JUMP JUMPDEST DUP2 EQ PUSH2 0x216D JUMPI PUSH0 PUSH0 REVERT JUMPDEST POP JUMP JUMPDEST PUSH0 DUP2 CALLDATALOAD SWAP1 POP PUSH2 0x217E DUP2 PUSH2 0x215A JUMP JUMPDEST SWAP3 SWAP2 POP POP JUMP JUMPDEST PUSH0 PUSH0 PUSH1 0x40 DUP4 DUP6 SUB SLT ISZERO PUSH2 0x219A JUMPI PUSH2 0x2199 PUSH2 0x1E4E JUMP JUMPDEST JUMPDEST PUSH0 PUSH2 0x21A7 DUP6 DUP3 DUP7 ADD PUSH2 0x2065 JUMP JUMPDEST SWAP3 POP POP PUSH1 0x20 PUSH2 0x21B8 DUP6 DUP3 DUP7 ADD PUSH2 0x2170 JUMP JUMPDEST SWAP2 POP POP SWAP3 POP SWAP3 SWAP1 POP JUMP JUMPDEST PUSH0 PUSH0 REVERT JUMPDEST PUSH0 PUSH0 REVERT JUMPDEST PUSH32 0x4E487B7100000000000000000000000000000000000000000000000000000000 PUSH0 MSTORE PUSH1 0x41 PUSH1 0x4 MSTORE PUSH1 0x24 PUSH0 REVERT JUMPDEST PUSH2 0x2200 DUP3 PUSH2 0x1F31 JUMP JUMPDEST DUP2 ADD DUP2 DUP2 LT PUSH8 0xFFFFFFFFFFFFFFFF DUP3 GT OR ISZERO PUSH2 0x221F JUMPI PUSH2 0x221E PUSH2 0x21CA JUMP JUMPDEST JUMPDEST DUP1 PUSH1 0x40 MSTORE POP POP POP JUMP JUMPDEST PUSH0 PUSH2 0x2231 PUSH2 0x1E45 JUMP JUMPDEST SWAP1 POP PUSH2 0x223D DUP3 DUP3 PUSH2 0x21F7 JUMP JUMPDEST SWAP2 SWAP1 POP JUMP JUMPDEST PUSH0 PUSH8 0xFFFFFFFFFFFFFFFF DUP3 GT ISZERO PUSH2 0x225C JUMPI PUSH2 0x225B PUSH2 0x21CA JUMP JUMPDEST JUMPDEST PUSH2 0x2265 DUP3 PUSH2 0x1F31 JUMP JUMPDEST SWAP1 POP PUSH1 0x20 DUP2 ADD SWAP1 POP SWAP2 SWAP1 POP JUMP JUMPDEST DUP3 DUP2 DUP4 CALLDATACOPY PUSH0 DUP4 DUP4 ADD MSTORE POP POP POP JUMP JUMPDEST PUSH0 PUSH2 0x2292 PUSH2 0x228D DUP5 PUSH2 0x2242 JUMP JUMPDEST PUSH2 0x2228 JUMP JUMPDEST SWAP1 POP DUP3 DUP2 MSTORE PUSH1 0x20 DUP2 ADD DUP5 DUP5 DUP5 ADD GT ISZERO PUSH2 0x22AE JUMPI PUSH2 0x22AD PUSH2 0x21C6 JUMP JUMPDEST JUMPDEST PUSH2 0x22B9 DUP5 DUP3 DUP6 PUSH2 0x2272 JUMP JUMPDEST POP SWAP4 SWAP3 POP POP POP JUMP JUMPDEST PUSH0 DUP3 PUSH1 0x1F DUP4 ADD SLT PUSH2 0x22D5 JUMPI PUSH2 0x22D4 PUSH2 0x21C2 JUMP JUMPDEST JUMPDEST DUP2 CALLDATALOAD PUSH2 0x22E5 DUP5 DUP3 PUSH1 0x20 DUP7 ADD PUSH2 0x2280 JUMP JUMPDEST SWAP2 POP POP SWAP3 SWAP2 POP POP JUMP JUMPDEST PUSH0 PUSH0 PUSH0 PUSH0 PUSH1 0x80 DUP6 DUP8 SUB SLT ISZERO PUSH2 0x2306 JUMPI PUSH2 0x2305 PUSH2 0x1E4E JUMP JUMPDEST JUMPDEST PUSH0 PUSH2 0x2313 DUP8 DUP3 DUP9 ADD PUSH2 0x2065 JUMP JUMPDEST SWAP5 POP POP PUSH1 0x20 PUSH2 0x2324 DUP8 DUP3 DUP9 ADD PUSH2 0x2065 JUMP JUMPDEST SWAP4 POP POP PUSH1 0x40 PUSH2 0x2335 DUP8 DUP3 DUP9 ADD PUSH2 0x1FB8 JUMP JUMPDEST SWAP3 POP POP PUSH1 0x60 DUP6 ADD CALLDATALOAD PUSH8 0xFFFFFFFFFFFFFFFF DUP2 GT ISZERO PUSH2 0x2356 JUMPI PUSH2 0x2355 PUSH2 0x1E52 JUMP JUMPDEST JUMPDEST PUSH2 0x2362 DUP8 DUP3 DUP9 ADD PUSH2 0x22C1 JUMP JUMPDEST SWAP2 POP POP SWAP3 SWAP6 SWAP2 SWAP5 POP SWAP3 POP JUMP JUMPDEST PUSH0 PUSH8 0xFFFFFFFFFFFFFFFF DUP3 GT ISZERO PUSH2 0x2388 JUMPI PUSH2 0x2387 PUSH2 0x21CA JUMP JUMPDEST JUMPDEST PUSH2 0x2391 DUP3 PUSH2 0x1F31 JUMP JUMPDEST SWAP1 POP PUSH1 0x20 DUP2 ADD SWAP1 POP SWAP2 SWAP1 POP JUMP JUMPDEST PUSH0 PUSH2 0x23B0 PUSH2 0x23AB DUP5 PUSH2 0x236E JUMP JUMPDEST PUSH2 0x2228 JUMP JUMPDEST SWAP1 POP DUP3 DUP2 MSTORE PUSH1 0x20 DUP2 ADD DUP5 DUP5 DUP5 ADD GT ISZERO PUSH2 0x23CC JUMPI PUSH2 0x23CB PUSH2 0x21C6 JUMP JUMPDEST JUMPDEST PUSH2 0x23D7 DUP5 DUP3 DUP6 PUSH2 0x2272 JUMP JUMPDEST POP SWAP4 SWAP3 POP POP POP JUMP JUMPDEST PUSH0 DUP3 PUSH1 0x1F DUP4 ADD SLT PUSH2 0x23F3 JUMPI PUSH2 0x23F2 PUSH2 0x21C2 JUMP JUMPDEST JUMPDEST DUP2 CALLDATALOAD PUSH2 0x2403 DUP5 DUP3 PUSH1 0x20 DUP7 ADD PUSH2 0x239E JUMP JUMPDEST SWAP2 POP POP SWAP3 SWAP2 POP POP JUMP JUMPDEST PUSH0 PUSH1 0x20 DUP3 DUP5 SUB SLT ISZERO PUSH2 0x2421 JUMPI PUSH2 0x2420 PUSH2 0x1E4E JUMP JUMPDEST JUMPDEST PUSH0 DUP3 ADD CALLDATALOAD PUSH8 0xFFFFFFFFFFFFFFFF DUP2 GT ISZERO PUSH2 0x243E JUMPI PUSH2 0x243D PUSH2 0x1E52 JUMP JUMPDEST JUMPDEST PUSH2 0x244A DUP5 DUP3 DUP6 ADD PUSH2 0x23DF JUMP JUMPDEST SWAP2 POP POP SWAP3 SWAP2 POP POP JUMP JUMPDEST PUSH0 PUSH0 PUSH1 0x40 DUP4 DUP6 SUB SLT ISZERO PUSH2 0x2469 JUMPI PUSH2 0x2468 PUSH2 0x1E4E JUMP JUMPDEST JUMPDEST PUSH0 PUSH2 0x2476 DUP6 DUP3 DUP7 ADD PUSH2 0x2065 JUMP JUMPDEST SWAP3 POP POP PUSH1 0x20 PUSH2 0x2487 DUP6 DUP3 DUP7 ADD PUSH2 0x2065 JUMP JUMPDEST SWAP2 POP POP SWAP3 POP SWAP3 SWAP1 POP JUMP JUMPDEST PUSH32 0x4E487B7100000000000000000000000000000000000000000000000000000000 PUSH0 MSTORE PUSH1 0x22 PUSH1 0x4 MSTORE PUSH1 0x24 PUSH0 REVERT JUMPDEST PUSH0 PUSH1 0x2 DUP3 DIV SWAP1 POP PUSH1 0x1 DUP3 AND DUP1 PUSH2 0x24D5 JUMPI PUSH1 0x7F DUP3 AND SWAP2 POP JUMPDEST PUSH1 0x20 DUP3 LT DUP2 SUB PUSH2 0x24E8 JUMPI PUSH2 0x24E7 PUSH2 0x2491 JUMP JUMPDEST JUMPDEST POP SWAP2 SWAP1 POP JUMP JUMPDEST PUSH0 PUSH1 0x60 DUP3 ADD SWAP1 POP PUSH2 0x2501 PUSH0 DUP4 ADD DUP7 PUSH2 0x2027 JUMP JUMPDEST PUSH2 0x250E PUSH1 0x20 DUP4 ADD DUP6 PUSH2 0x20B7 JUMP JUMPDEST PUSH2 0x251B PUSH1 0x40 DUP4 ADD DUP5 PUSH2 0x2027 JUMP JUMPDEST SWAP5 SWAP4 POP POP POP POP JUMP JUMPDEST PUSH32 0x4E6F2062616C616E636520746F20776974686472617721000000000000000000 PUSH0 DUP3 ADD MSTORE POP JUMP JUMPDEST PUSH0 PUSH2 0x2557 PUSH1 0x17 DUP4 PUSH2 0x1F13 JUMP JUMPDEST SWAP2 POP PUSH2 0x2562 DUP3 PUSH2 0x2523 JUMP JUMPDEST PUSH1 0x20 DUP3 ADD SWAP1 POP SWAP2 SWAP1 POP JUMP JUMPDEST PUSH0 PUSH1 0x20 DUP3 ADD SWAP1 POP DUP2 DUP2 SUB PUSH0 DUP4 ADD MSTORE PUSH2 0x2584 DUP2 PUSH2 0x254B JUMP JUMPDEST SWAP1 POP SWAP2 SWAP1 POP JUMP JUMPDEST PUSH0 DUP2 SWAP1 POP SWAP3 SWAP2 POP POP JUMP JUMPDEST POP JUMP JUMPDEST PUSH0 PUSH2 0x25A3 PUSH0 DUP4 PUSH2 0x258B JUMP JUMPDEST SWAP2 POP PUSH2 0x25AE DUP3 PUSH2 0x2595 JUMP JUMPDEST PUSH0 DUP3 ADD SWAP1 POP SWAP2 SWAP1 POP JUMP JUMPDEST PUSH0 PUSH2 0x25C2 DUP3 PUSH2 0x2598 JUMP JUMPDEST SWAP2 POP DUP2 SWAP1 POP SWAP2 SWAP1 POP JUMP JUMPDEST PUSH32 0x7769746864726177206661696C65640000000000000000000000000000000000 PUSH0 DUP3 ADD MSTORE POP JUMP JUMPDEST PUSH0 PUSH2 0x2600 PUSH1 0xF DUP4 PUSH2 0x1F13 JUMP JUMPDEST SWAP2 POP PUSH2 0x260B DUP3 PUSH2 0x25CC JUMP JUMPDEST PUSH1 0x20 DUP3 ADD SWAP1 POP SWAP2 SWAP1 POP JUMP JUMPDEST PUSH0 PUSH1 0x20 DUP3 ADD SWAP1 POP DUP2 DUP2 SUB PUSH0 DUP4 ADD MSTORE PUSH2 0x262D DUP2 PUSH2 0x25F4 JUMP JUMPDEST SWAP1 POP SWAP2 SWAP1 POP JUMP JUMPDEST PUSH32 0x4D617820737570706C7920726561636865642100000000000000000000000000 PUSH0 DUP3 ADD MSTORE POP JUMP JUMPDEST PUSH0 PUSH2 0x2668 PUSH1 0x13 DUP4 PUSH2 0x1F13 JUMP JUMPDEST SWAP2 POP PUSH2 0x2673 DUP3 PUSH2 0x2634 JUMP JUMPDEST PUSH1 0x20 DUP3 ADD SWAP1 POP SWAP2 SWAP1 POP JUMP JUMPDEST PUSH0 PUSH1 0x20 DUP3 ADD SWAP1 POP DUP2 DUP2 SUB PUSH0 DUP4 ADD MSTORE PUSH2 0x2695 DUP2 PUSH2 0x265C JUMP JUMPDEST SWAP1 POP SWAP2 SWAP1 POP JUMP JUMPDEST PUSH32 0x496E73756666696369656E74207061796D656E74000000000000000000000000 PUSH0 DUP3 ADD MSTORE POP JUMP JUMPDEST PUSH0 PUSH2 0x26D0 PUSH1 0x14 DUP4 PUSH2 0x1F13 JUMP JUMPDEST SWAP2 POP PUSH2 0x26DB DUP3 PUSH2 0x269C JUMP JUMPDEST PUSH1 0x20 DUP3 ADD SWAP1 POP SWAP2 SWAP1 POP JUMP JUMPDEST PUSH0 PUSH1 0x20 DUP3 ADD SWAP1 POP DUP2 DUP2 SUB PUSH0 DUP4 ADD MSTORE PUSH2 0x26FD DUP2 PUSH2 0x26C4 JUMP JUMPDEST SWAP1 POP SWAP2 SWAP1 POP JUMP JUMPDEST PUSH32 0x4E487B7100000000000000000000000000000000000000000000000000000000 PUSH0 MSTORE PUSH1 0x11 PUSH1 0x4 MSTORE PUSH1 0x24 PUSH0 REVERT JUMPDEST PUSH0 PUSH2 0x273B DUP3 PUSH2 0x1F99 JUMP JUMPDEST SWAP2 POP PUSH32 0xFFFFFFFFFFFFFFFFFFFFFFFFFFFFFFFFFFFFFFFFFFFFFFFFFFFFFFFFFFFFFFFF DUP3 SUB PUSH2 0x276D JUMPI PUSH2 0x276C PUSH2 0x2704 JUMP JUMPDEST JUMPDEST PUSH1 0x1 DUP3 ADD SWAP1 POP SWAP2 SWAP1 POP JUMP JUMPDEST PUSH0 DUP2 MLOAD SWAP1 POP SWAP2 SWAP1 POP JUMP JUMPDEST PUSH0 DUP3 DUP3 MSTORE PUSH1 0x20 DUP3 ADD SWAP1 POP SWAP3 SWAP2 POP POP JUMP JUMPDEST PUSH0 PUSH2 0x279C DUP3 PUSH2 0x2778 JUMP JUMPDEST PUSH2 0x27A6 DUP2 DUP6 PUSH2 0x2782 JUMP JUMPDEST SWAP4 POP PUSH2 0x27B6 DUP2 DUP6 PUSH1 0x20 DUP7 ADD PUSH2 0x1F23 JUMP JUMPDEST PUSH2 0x27BF DUP2 PUSH2 0x1F31 JUMP JUMPDEST DUP5 ADD SWAP2 POP POP SWAP3 SWAP2 POP POP JUMP JUMPDEST PUSH0 PUSH1 0x80 DUP3 ADD SWAP1 POP PUSH2 0x27DD PUSH0 DUP4 ADD DUP8 PUSH2 0x2027 JUMP JUMPDEST PUSH2 0x27EA PUSH1 0x20 DUP4 ADD DUP7 PUSH2 0x2027 JUMP JUMPDEST PUSH2 0x27F7 PUSH1 0x40 DUP4 ADD DUP6 PUSH2 0x20B7 JUMP JUMPDEST DUP2 DUP2 SUB PUSH1 0x60 DUP4 ADD MSTORE PUSH2 0x2809 DUP2 DUP5 PUSH2 0x2792 JUMP JUMPDEST SWAP1 POP SWAP6 SWAP5 POP POP POP POP POP JUMP JUMPDEST PUSH0 DUP2 MLOAD SWAP1 POP PUSH2 0x2822 DUP2 PUSH2 0x1E81 JUMP JUMPDEST SWAP3 SWAP2 POP POP JUMP JUMPDEST PUSH0 PUSH1 0x20 DUP3 DUP5 SUB SLT ISZERO PUSH2 0x283D JUMPI PUSH2 0x283C PUSH2 0x1E4E JUMP JUMPDEST JUMPDEST PUSH0 PUSH2 0x284A DUP5 DUP3 DUP6 ADD PUSH2 0x2814 JUMP JUMPDEST SWAP2 POP POP SWAP3 SWAP2 POP POP JUMP JUMPDEST PUSH0 DUP2 SWAP1 POP SWAP3 SWAP2 POP POP JUMP JUMPDEST PUSH0 PUSH2 0x2867 DUP3 PUSH2 0x1F09 JUMP JUMPDEST PUSH2 0x2871 DUP2 DUP6 PUSH2 0x2853 JUMP JUMPDEST SWAP4 POP PUSH2 0x2881 DUP2 DUP6 PUSH1 0x20 DUP7 ADD PUSH2 0x1F23 JUMP JUMPDEST DUP1 DUP5 ADD SWAP2 POP POP SWAP3 SWAP2 POP POP JUMP JUMPDEST PUSH0 PUSH2 0x2898 DUP3 DUP6 PUSH2 0x285D JUMP JUMPDEST SWAP2 POP PUSH2 0x28A4 DUP3 DUP5 PUSH2 0x285D JUMP JUMPDEST SWAP2 POP DUP2 SWAP1 POP SWAP4 SWAP3 POP POP POP JUMP JUMPDEST PUSH0 DUP2 SWAP1 POP DUP2 PUSH0 MSTORE PUSH1 0x20 PUSH0 KECCAK256 SWAP1 POP SWAP2 SWAP1 POP JUMP JUMPDEST PUSH0 PUSH1 0x20 PUSH1 0x1F DUP4 ADD DIV SWAP1 POP SWAP2 SWAP1 POP JUMP JUMPDEST PUSH0 DUP3 DUP3 SHL SWAP1 POP SWAP3 SWAP2 POP POP JUMP JUMPDEST PUSH0 PUSH1 0x8 DUP4 MUL PUSH2 0x290C PUSH32 0xFFFFFFFFFFFFFFFFFFFFFFFFFFFFFFFFFFFFFFFFFFFFFFFFFFFFFFFFFFFFFFFF DUP3 PUSH2 0x28D1 JUMP JUMPDEST PUSH2 0x2916 DUP7 DUP4 PUSH2 0x28D1 JUMP JUMPDEST SWAP6 POP DUP1 NOT DUP5 AND SWAP4 POP DUP1 DUP7 AND DUP5 OR SWAP3 POP POP POP SWAP4 SWAP3 POP POP POP JUMP JUMPDEST PUSH0 DUP2 SWAP1 POP SWAP2 SWAP1 POP JUMP JUMPDEST PUSH0 PUSH2 0x2951 PUSH2 0x294C PUSH2 0x2947 DUP5 PUSH2 0x1F99 JUMP JUMPDEST PUSH2 0x292E JUMP JUMPDEST PUSH2 0x1F99 JUMP JUMPDEST SWAP1 POP SWAP2 SWAP1 POP JUMP JUMPDEST PUSH0 DUP2 SWAP1 POP SWAP2 SWAP1 POP JUMP JUMPDEST PUSH2 0x296A DUP4 PUSH2 0x2937 JUMP JUMPDEST PUSH2 0x297E PUSH2 0x2976 DUP3 PUSH2 0x2958 JUMP JUMPDEST DUP5 DUP5 SLOAD PUSH2 0x28DD JUMP JUMPDEST DUP3 SSTORE POP POP POP POP JUMP JUMPDEST PUSH0 PUSH0 SWAP1 POP SWAP1 JUMP JUMPDEST PUSH2 0x2995 PUSH2 0x2986 JUMP JUMPDEST PUSH2 0x29A0 DUP2 DUP5 DUP5 PUSH2 0x2961 JUMP JUMPDEST POP POP POP JUMP JUMPDEST PUSH0 JUMPDEST DUP3 DUP2 LT ISZERO PUSH2 0x29C6 JUMPI PUSH2 0x29BB PUSH0 DUP3 DUP5 ADD PUSH2 0x298D JUMP JUMPDEST PUSH1 0x1 DUP2 ADD SWAP1 POP PUSH2 0x29A7 JUMP JUMPDEST POP POP POP JUMP JUMPDEST PUSH1 0x1F DUP3 GT ISZERO PUSH2 0x2A19 JUMPI DUP3 DUP3 GT ISZERO PUSH2 0x2A18 JUMPI PUSH2 0x29E5 DUP2 PUSH2 0x28B0 JUMP JUMPDEST PUSH2 0x29EE DUP4 PUSH2 0x28C2 JUMP JUMPDEST PUSH2 0x29F7 DUP6 PUSH2 0x28C2 JUMP JUMPDEST PUSH1 0x20 DUP7 LT ISZERO PUSH2 0x2A04 JUMPI PUSH0 SWAP1 POP JUMPDEST DUP1 DUP4 ADD PUSH2 0x2A13 DUP3 DUP5 SUB DUP3 PUSH2 0x29A5 JUMP JUMPDEST POP POP POP POP JUMPDEST JUMPDEST POP POP POP JUMP JUMPDEST PUSH0 DUP3 DUP3 SHR SWAP1 POP SWAP3 SWAP2 POP POP JUMP JUMPDEST PUSH0 PUSH2 0x2A39 PUSH0 NOT DUP5 PUSH1 0x8 MUL PUSH2 0x2A1E JUMP JUMPDEST NOT DUP1 DUP4 AND SWAP2 POP POP SWAP3 SWAP2 POP POP JUMP JUMPDEST PUSH0 PUSH2 0x2A51 DUP4 DUP4 PUSH2 0x2A2A JUMP JUMPDEST SWAP2 POP DUP3 PUSH1 0x2 MUL DUP3 OR SWAP1 POP SWAP3 SWAP2 POP POP JUMP JUMPDEST PUSH2 0x2A6A DUP3 PUSH2 0x1F09 JUMP JUMPDEST PUSH8 0xFFFFFFFFFFFFFFFF DUP2 GT ISZERO PUSH2 0x2A83 JUMPI PUSH2 0x2A82 PUSH2 0x21CA JUMP JUMPDEST JUMPDEST PUSH2 0x2A8D DUP3 SLOAD PUSH2 0x24BE JUMP JUMPDEST PUSH2 0x2A98 DUP3 DUP3 DUP6 PUSH2 0x29CB JUMP JUMPDEST PUSH0 PUSH1 0x20 SWAP1 POP PUSH1 0x1F DUP4 GT PUSH1 0x1 DUP2 EQ PUSH2 0x2AC9 JUMPI PUSH0 DUP5 ISZERO PUSH2 0x2AB7 JUMPI DUP3 DUP8 ADD MLOAD SWAP1 POP JUMPDEST PUSH2 0x2AC1 DUP6 DUP3 PUSH2 0x2A46 JUMP JUMPDEST DUP7 SSTORE POP PUSH2 0x2B28 JUMP JUMPDEST PUSH1 0x1F NOT DUP5 AND PUSH2 0x2AD7 DUP7 PUSH2 0x28B0 JUMP JUMPDEST PUSH0 JUMPDEST DUP3 DUP2 LT ISZERO PUSH2 0x2AFE JUMPI DUP5 DUP10 ADD MLOAD DUP3 SSTORE PUSH1 0x1 DUP3 ADD SWAP2 POP PUSH1 0x20 DUP6 ADD SWAP5 POP PUSH1 0x20 DUP2 ADD SWAP1 POP PUSH2 0x2AD9 JUMP JUMPDEST DUP7 DUP4 LT ISZERO PUSH2 0x2B1B JUMPI DUP5 DUP10 ADD MLOAD PUSH2 0x2B17 PUSH1 0x1F DUP10 AND DUP3 PUSH2 0x2A2A JUMP JUMPDEST DUP4 SSTORE POP JUMPDEST PUSH1 0x1 PUSH1 0x2 DUP9 MUL ADD DUP9 SSTORE POP POP POP JUMPDEST POP POP POP POP POP POP JUMP JUMPDEST PUSH0 PUSH1 0x40 DUP3 ADD SWAP1 POP PUSH2 0x2B43 PUSH0 DUP4 ADD DUP6 PUSH2 0x2027 JUMP JUMPDEST PUSH2 0x2B50 PUSH1 0x20 DUP4 ADD DUP5 PUSH2 0x20B7 JUMP JUMPDEST SWAP4 SWAP3 POP POP POP JUMP JUMPDEST PUSH32 0x4E487B7100000000000000000000000000000000000000000000000000000000 PUSH0 MSTORE PUSH1 0x12 PUSH1 0x4 MSTORE PUSH1 0x24 PUSH0 REVERT INVALID LOG2 PUSH5 0x6970667358 0x22 SLT KECCAK256 0xE 0xFC XOR CALLF 0xFAAE BASEFEE EXTDELEGATECALL 0xC4 SDIV 0xC2 ADD 0xFC CALLVALUE 0x4E 0xB7 0xD BLOBHASH DUP2 0xCA MCOPY NUMBER POP RETURN 0x4F SWAP10 LOG1 NOT 0xF7 0xB3 0xC0 ADD PUSH5 0x736F6C6343 STOP ADDMOD 0x22 STOP CALLER "
		},
		"gasEstimates": {
			"creation": {
				"codeDepositCost": "2238800",
				"executionCost": "infinite",
				"totalCost": "infinite"
			},
			"external": {
				"MAX_SUPPLY()": "370",
				"approve(address,uint256)": "infinite",
				"balanceOf(address)": "infinite",
				"getApproved(uint256)": "infinite",
				"isApprovedForAll(address,address)": "infinite",
				"mint(string)": "infinite",
				"mintPrice()": "2558",
				"name()": "infinite",
				"owner()": "2582",
				"ownerOf(uint256)": "infinite",
				"renounceOwnership()": "infinite",
				"safeTransferFrom(address,address,uint256)": "infinite",
				"safeTransferFrom(address,address,uint256,bytes)": "infinite",
				"setApprovalForAll(address,bool)": "infinite",
				"setMintPrice(uint256)": "infinite",
				"supportsInterface(bytes4)": "923",
				"symbol()": "infinite",
				"tokenURI(uint256)": "infinite",
				"totalSupply()": "2544",
				"transferFrom(address,address,uint256)": "infinite",
				"transferOwnership(address)": "infinite",
				"withdraw()": "infinite"
			}
		},
		"methodIdentifiers": {
			"MAX_SUPPLY()": "32cb6b0c",
			"approve(address,uint256)": "095ea7b3",
			"balanceOf(address)": "70a08231",
			"getApproved(uint256)": "081812fc",
			"isApprovedForAll(address,address)": "e985e9c5",
			"mint(string)": "d85d3d27",
			"mintPrice()": "6817c76c",
			"name()": "06fdde03",
			"owner()": "8da5cb5b",
			"ownerOf(uint256)": "6352211e",
			"renounceOwnership()": "715018a6",
			"safeTransferFrom(address,address,uint256)": "42842e0e",
			"safeTransferFrom(address,address,uint256,bytes)": "b88d4fde",
			"setApprovalForAll(address,bool)": "a22cb465",
			"setMintPrice(uint256)": "f4a0a528",
			"supportsInterface(bytes4)": "01ffc9a7",
			"symbol()": "95d89b41",
			"tokenURI(uint256)": "c87b56dd",
			"totalSupply()": "18160ddd",
			"transferFrom(address,address,uint256)": "23b872dd",
			"transferOwnership(address)": "f2fde38b",
			"withdraw()": "3ccfd60b"
		}
	},
	"abi": [
		{
			"inputs": [],
			"stateMutability": "nonpayable",
			"type": "constructor"
		},
		{
			"inputs": [
				{
					"internalType": "address",
					"name": "sender",
					"type": "address"
				},
				{
					"internalType": "uint256",
					"name": "tokenId",
					"type": "uint256"
				},
				{
					"internalType": "address",
					"name": "owner",
					"type": "address"
				}
			],
			"name": "ERC721IncorrectOwner",
			"type": "error"
		},
		{
			"inputs": [
				{
					"internalType": "address",
					"name": "operator",
					"type": "address"
				},
				{
					"internalType": "uint256",
					"name": "tokenId",
					"type": "uint256"
				}
			],
			"name": "ERC721InsufficientApproval",
			"type": "error"
		},
		{
			"inputs": [
				{
					"internalType": "address",
					"name": "approver",
					"type": "address"
				}
			],
			"name": "ERC721InvalidApprover",
			"type": "error"
		},
		{
			"inputs": [
				{
					"internalType": "address",
					"name": "operator",
					"type": "address"
				}
			],
			"name": "ERC721InvalidOperator",
			"type": "error"
		},
		{
			"inputs": [
				{
					"internalType": "address",
					"name": "owner",
					"type": "address"
				}
			],
			"name": "ERC721InvalidOwner",
			"type": "error"
		},
		{
			"inputs": [
				{
					"internalType": "address",
					"name": "receiver",
					"type": "address"
				}
			],
			"name": "ERC721InvalidReceiver",
			"type": "error"
		},
		{
			"inputs": [
				{
					"internalType": "address",
					"name": "sender",
					"type": "address"
				}
			],
			"name": "ERC721InvalidSender",
			"type": "error"
		},
		{
			"inputs": [
				{
					"internalType": "uint256",
					"name": "tokenId",
					"type": "uint256"
				}
			],
			"name": "ERC721NonexistentToken",
			"type": "error"
		},
		{
			"inputs": [
				{
					"internalType": "address",
					"name": "owner",
					"type": "address"
				}
			],
			"name": "OwnableInvalidOwner",
			"type": "error"
		},
		{
			"inputs": [
				{
					"internalType": "address",
					"name": "account",
					"type": "address"
				}
			],
			"name": "OwnableUnauthorizedAccount",
			"type": "error"
		},
		{
			"anonymous": false,
			"inputs": [
				{
					"indexed": true,
					"internalType": "address",
					"name": "owner",
					"type": "address"
				},
				{
					"indexed": true,
					"internalType": "address",
					"name": "approved",
					"type": "address"
				},
				{
					"indexed": true,
					"internalType": "uint256",
					"name": "tokenId",
					"type": "uint256"
				}
			],
			"name": "Approval",
			"type": "event"
		},
		{
			"anonymous": false,
			"inputs": [
				{
					"indexed": true,
					"internalType": "address",
					"name": "owner",
					"type": "address"
				},
				{
					"indexed": true,
					"internalType": "address",
					"name": "operator",
					"type": "address"
				},
				{
					"indexed": false,
					"internalType": "bool",
					"name": "approved",
					"type": "bool"
				}
			],
			"name": "ApprovalForAll",
			"type": "event"
		},
		{
			"anonymous": false,
			"inputs": [
				{
					"indexed": false,
					"internalType": "uint256",
					"name": "_fromTokenId",
					"type": "uint256"
				},
				{
					"indexed": false,
					"internalType": "uint256",
					"name": "_toTokenId",
					"type": "uint256"
				}
			],
			"name": "BatchMetadataUpdate",
			"type": "event"
		},
		{
			"anonymous": false,
			"inputs": [
				{
					"indexed": false,
					"internalType": "uint256",
					"name": "_tokenId",
					"type": "uint256"
				}
			],
			"name": "MetadataUpdate",
			"type": "event"
		},
		{
			"anonymous": false,
			"inputs": [
				{
					"indexed": true,
					"internalType": "address",
					"name": "minter",
					"type": "address"
				},
				{
					"indexed": true,
					"internalType": "uint256",
					"name": "tokenId",
					"type": "uint256"
				},
				{
					"indexed": false,
					"internalType": "string",
					"name": "uri",
					"type": "string"
				}
			],
			"name": "NFTMinted",
			"type": "event"
		},
		{
			"anonymous": false,
			"inputs": [
				{
					"indexed": true,
					"internalType": "address",
					"name": "previousOwner",
					"type": "address"
				},
				{
					"indexed": true,
					"internalType": "address",
					"name": "newOwner",
					"type": "address"
				}
			],
			"name": "OwnershipTransferred",
			"type": "event"
		},
		{
			"anonymous": false,
			"inputs": [
				{
					"indexed": true,
					"internalType": "address",
					"name": "from",
					"type": "address"
				},
				{
					"indexed": true,
					"internalType": "address",
					"name": "to",
					"type": "address"
				},
				{
					"indexed": true,
					"internalType": "uint256",
					"name": "tokenId",
					"type": "uint256"
				}
			],
			"name": "Transfer",
			"type": "event"
		},
		{
			"inputs": [],
			"name": "MAX_SUPPLY",
			"outputs": [
				{
					"internalType": "uint256",
					"name": "",
					"type": "uint256"
				}
			],
			"stateMutability": "view",
			"type": "function"
		},
		{
			"inputs": [
				{
					"internalType": "address",
					"name": "to",
					"type": "address"
				},
				{
					"internalType": "uint256",
					"name": "tokenId",
					"type": "uint256"
				}
			],
			"name": "approve",
			"outputs": [],
			"stateMutability": "nonpayable",
			"type": "function"
		},
		{
			"inputs": [
				{
					"internalType": "address",
					"name": "owner",
					"type": "address"
				}
			],
			"name": "balanceOf",
			"outputs": [
				{
					"internalType": "uint256",
					"name": "",
					"type": "uint256"
				}
			],
			"stateMutability": "view",
			"type": "function"
		},
		{
			"inputs": [
				{
					"internalType": "uint256",
					"name": "tokenId",
					"type": "uint256"
				}
			],
			"name": "getApproved",
			"outputs": [
				{
					"internalType": "address",
					"name": "",
					"type": "address"
				}
			],
			"stateMutability": "view",
			"type": "function"
		},
		{
			"inputs": [
				{
					"internalType": "address",
					"name": "owner",
					"type": "address"
				},
				{
					"internalType": "address",
					"name": "operator",
					"type": "address"
				}
			],
			"name": "isApprovedForAll",
			"outputs": [
				{
					"internalType": "bool",
					"name": "",
					"type": "bool"
				}
			],
			"stateMutability": "view",
			"type": "function"
		},
		{
			"inputs": [
				{
					"internalType": "string",
					"name": "uri",
					"type": "string"
				}
			],
			"name": "mint",
			"outputs": [
				{
					"internalType": "uint256",
					"name": "",
					"type": "uint256"
				}
			],
			"stateMutability": "payable",
			"type": "function"
		},
		{
			"inputs": [],
			"name": "mintPrice",
			"outputs": [
				{
					"internalType": "uint256",
					"name": "",
					"type": "uint256"
				}
			],
			"stateMutability": "view",
			"type": "function"
		},
		{
			"inputs": [],
			"name": "name",
			"outputs": [
				{
					"internalType": "string",
					"name": "",
					"type": "string"
				}
			],
			"stateMutability": "view",
			"type": "function"
		},
		{
			"inputs": [],
			"name": "owner",
			"outputs": [
				{
					"internalType": "address",
					"name": "",
					"type": "address"
				}
			],
			"stateMutability": "view",
			"type": "function"
		},
		{
			"inputs": [
				{
					"internalType": "uint256",
					"name": "tokenId",
					"type": "uint256"
				}
			],
			"name": "ownerOf",
			"outputs": [
				{
					"internalType": "address",
					"name": "",
					"type": "address"
				}
			],
			"stateMutability": "view",
			"type": "function"
		},
		{
			"inputs": [],
			"name": "renounceOwnership",
			"outputs": [],
			"stateMutability": "nonpayable",
			"type": "function"
		},
		{
			"inputs": [
				{
					"internalType": "address",
					"name": "from",
					"type": "address"
				},
				{
					"internalType": "address",
					"name": "to",
					"type": "address"
				},
				{
					"internalType": "uint256",
					"name": "tokenId",
					"type": "uint256"
				}
			],
			"name": "safeTransferFrom",
			"outputs": [],
			"stateMutability": "nonpayable",
			"type": "function"
		},
		{
			"inputs": [
				{
					"internalType": "address",
					"name": "from",
					"type": "address"
				},
				{
					"internalType": "address",
					"name": "to",
					"type": "address"
				},
				{
					"internalType": "uint256",
					"name": "tokenId",
					"type": "uint256"
				},
				{
					"internalType": "bytes",
					"name": "data",
					"type": "bytes"
				}
			],
			"name": "safeTransferFrom",
			"outputs": [],
			"stateMutability": "nonpayable",
			"type": "function"
		},
		{
			"inputs": [
				{
					"internalType": "address",
					"name": "operator",
					"type": "address"
				},
				{
					"internalType": "bool",
					"name": "approved",
					"type": "bool"
				}
			],
			"name": "setApprovalForAll",
			"outputs": [],
			"stateMutability": "nonpayable",
			"type": "function"
		},
		{
			"inputs": [
				{
					"internalType": "uint256",
					"name": "newPrice",
					"type": "uint256"
				}
			],
			"name": "setMintPrice",
			"outputs": [],
			"stateMutability": "nonpayable",
			"type": "function"
		},
		{
			"inputs": [
				{
					"internalType": "bytes4",
					"name": "interfaceId",
					"type": "bytes4"
				}
			],
			"name": "supportsInterface",
			"outputs": [
				{
					"internalType": "bool",
					"name": "",
					"type": "bool"
				}
			],
			"stateMutability": "view",
			"type": "function"
		},
		{
			"inputs": [],
			"name": "symbol",
			"outputs": [
				{
					"internalType": "string",
					"name": "",
					"type": "string"
				}
			],
			"stateMutability": "view",
			"type": "function"
		},
		{
			"inputs": [
				{
					"internalType": "uint256",
					"name": "tokenId",
					"type": "uint256"
				}
			],
			"name": "tokenURI",
			"outputs": [
				{
					"internalType": "string",
					"name": "",
					"type": "string"
				}
			],
			"stateMutability": "view",
			"type": "function"
		},
		{
			"inputs": [],
			"name": "totalSupply",
			"outputs": [
				{
					"internalType": "uint256",
					"name": "",
					"type": "uint256"
				}
			],
			"stateMutability": "view",
			"type": "function"
		},
		{
			"inputs": [
				{
					"internalType": "address",
					"name": "from",
					"type": "address"
				},
				{
					"internalType": "address",
					"name": "to",
					"type": "address"
				},
				{
					"internalType": "uint256",
					"name": "tokenId",
					"type": "uint256"
				}
			],
			"name": "transferFrom",
			"outputs": [],
			"stateMutability": "nonpayable",
			"type": "function"
		},
		{
			"inputs": [
				{
					"internalType": "address",
					"name": "newOwner",
					"type": "address"
				}
			],
			"name": "transferOwnership",
			"outputs": [],
			"stateMutability": "nonpayable",
			"type": "function"
		},
		{
			"inputs": [],
			"name": "withdraw",
			"outputs": [],
			"stateMutability": "nonpayable",
			"type": "function"
		}
	]
}