{
	"data": {
		"bytecode": {
			"linkReferences": {},
			"object": "608060405260fa600555348015610014575f5ffd5b506040516140e83803806140e88339818101604052810190610036919061019e565b600161005461004961010e60201b60201c565b61013760201b60201c565b5f01819055505f73ffffffffffffffffffffffffffffffffffffffff168173ffffffffffffffffffffffffffffffffffffffff16036100c8576040517f08c379a00000000000000000000000000000000000000000000000000000000081526004016100bf90610223565b60405180910390fd5b8060065f6101000a81548173ffffffffffffffffffffffffffffffffffffffff021916908373ffffffffffffffffffffffffffffffffffffffff16021790555050610241565b5f7f9b779b17422d0df92223018b32b4d1fa46e071723d6817e2486d003becc55f005f1b905090565b5f819050919050565b5f5ffd5b5f73ffffffffffffffffffffffffffffffffffffffff82169050919050565b5f61016d82610144565b9050919050565b61017d81610163565b8114610187575f5ffd5b50565b5f8151905061019881610174565b92915050565b5f602082840312156101b3576101b2610140565b5b5f6101c08482850161018a565b91505092915050565b5f82825260208201905092915050565b7f496e76616c69642066656520726563697069656e7421000000000000000000005f82015250565b5f61020d6016836101c9565b9150610218826101d9565b602082019050919050565b5f6020820190508181035f83015261023a81610201565b9050919050565b613e9a8061024e5f395ff3fe608060405260043610610108575f3560e01c806378bd793511610094578063ad05f1b411610063578063ad05f1b414610366578063b9a2de3a146103a2578063cb917b9c146103ca578063de74e57b146103f2578063f160d3691461043257610108565b806378bd7935146102b557806382367b2d146102f85780639979ef4514610320578063a7e766441461033c57610108565b806346904840116100db57806346904840146101c657806351ed8288146101f0578063571a26a01461020c57806361beb1d71461024f5780636c2c9c7d1461028b57610108565b80630eaaf4c81461010c578063107a274a1461013457806312e8e2c31461017457806326232a2e1461019c575b5f5ffd5b348015610117575f5ffd5b50610132600480360381019061012d9190612afa565b61045a565b005b34801561013f575f5ffd5b5061015a60048036038101906101559190612afa565b6105ea565b60405161016b959493929190612b8d565b60405180910390f35b34801561017f575f5ffd5b5061019a60048036038101906101959190612afa565b610710565b005b3480156101a7575f5ffd5b506101b06107ee565b6040516101bd9190612bde565b60405180910390f35b3480156101d1575f5ffd5b506101da6107f4565b6040516101e79190612bf7565b60405180910390f35b61020a60048036038101906102059190612afa565b610819565b005b348015610217575f5ffd5b50610232600480360381019061022d9190612afa565b610e85565b604051610246989796959493929190612c10565b60405180910390f35b34801561025a575f5ffd5b5061027560048036038101906102709190612cb6565b610f32565b6040516102829190612bde565b60405180910390f35b348015610296575f5ffd5b5061029f6114cf565b6040516102ac9190612bde565b60405180910390f35b3480156102c0575f5ffd5b506102db60048036038101906102d69190612afa565b6114d5565b6040516102ef989796959493929190612c10565b60405180910390f35b348015610303575f5ffd5b5061031e60048036038101906103199190612d1a565b611680565b005b61033a60048036038101906103359190612afa565b6117fb565b005b348015610347575f5ffd5b50610350611b3e565b60405161035d9190612bde565b60405180910390f35b348015610371575f5ffd5b5061038c60048036038101906103879190612d58565b611b44565b6040516103999190612bde565b60405180910390f35b3480156103ad575f5ffd5b506103c860048036038101906103c39190612afa565b611ffa565b005b3480156103d5575f5ffd5b506103f060048036038101906103eb9190612afa565b6125ca565b005b3480156103fd575f5ffd5b5061041860048036038101906104139190612afa565b612709565b604051610429959493929190612b8d565b60405180910390f35b34801561043d575f5ffd5b5061045860048036038101906104539190612da8565b612784565b005b5f60045f8381526020019081526020015f205f3373ffffffffffffffffffffffffffffffffffffffff1673ffffffffffffffffffffffffffffffffffffffff1681526020019081526020015f205490505f81116104ec576040517f08c379a00000000000000000000000000000000000000000000000000000000081526004016104e390612e2d565b60405180910390fd5b5f60045f8481526020019081526020015f205f3373ffffffffffffffffffffffffffffffffffffffff1673ffffffffffffffffffffffffffffffffffffffff1681526020019081526020015f20819055505f3373ffffffffffffffffffffffffffffffffffffffff168260405161056290612e78565b5f6040518083038185875af1925050503d805f811461059c576040519150601f19603f3d011682016040523d82523d5f602084013e6105a1565b606091505b50509050806105e5576040517f08c379a00000000000000000000000000000000000000000000000000000000081526004016105dc90612ed6565b60405180910390fd5b505050565b5f5f5f5f5f5f5f5f8881526020019081526020015f206040518060a00160405290815f82015f9054906101000a900473ffffffffffffffffffffffffffffffffffffffff1673ffffffffffffffffffffffffffffffffffffffff1673ffffffffffffffffffffffffffffffffffffffff168152602001600182015f9054906101000a900473ffffffffffffffffffffffffffffffffffffffff1673ffffffffffffffffffffffffffffffffffffffff1673ffffffffffffffffffffffffffffffffffffffff1681526020016002820154815260200160038201548152602001600482015f9054906101000a900460ff1615151515815250509050805f01518160200151826040015183606001518460800151955095509550955095505091939590929450565b60065f9054906101000a900473ffffffffffffffffffffffffffffffffffffffff1673ffffffffffffffffffffffffffffffffffffffff163373ffffffffffffffffffffffffffffffffffffffff161461079f576040517f08c379a000000000000000000000000000000000000000000000000000000000815260040161079690612f3e565b60405180910390fd5b6103e88111156107e4576040517f08c379a00000000000000000000000000000000000000000000000000000000081526004016107db90612fa6565b60405180910390fd5b8060058190555050565b60055481565b60065f9054906101000a900473ffffffffffffffffffffffffffffffffffffffff1681565b6108216128c4565b5f5f5f8381526020019081526020015f209050806004015f9054906101000a900460ff16610884576040517f08c379a000000000000000000000000000000000000000000000000000000000815260040161087b9061300e565b60405180910390fd5b80600301543410156108cb576040517f08c379a00000000000000000000000000000000000000000000000000000000081526004016108c290613076565b60405180910390fd5b805f015f9054906101000a900473ffffffffffffffffffffffffffffffffffffffff1673ffffffffffffffffffffffffffffffffffffffff163373ffffffffffffffffffffffffffffffffffffffff160361095b576040517f08c379a0000000000000000000000000000000000000000000000000000000008152600401610952906130de565b60405180910390fd5b5f816004015f6101000a81548160ff0219169083151502179055505f612710600554836003015461098c9190613129565b6109969190613197565b90505f5f6109d0846001015f9054906101000a900473ffffffffffffffffffffffffffffffffffffffff16856002015486600301546128e6565b915091505f818486600301546109e691906131c7565b6109f091906131c7565b9050846001015f9054906101000a900473ffffffffffffffffffffffffffffffffffffffff1673ffffffffffffffffffffffffffffffffffffffff166342842e0e865f015f9054906101000a900473ffffffffffffffffffffffffffffffffffffffff163388600201546040518463ffffffff1660e01b8152600401610a78939291906131fa565b5f604051808303815f87803b158015610a8f575f5ffd5b505af1158015610aa1573d5f5f3e3d5ffd5b505050505f82118015610ae057505f73ffffffffffffffffffffffffffffffffffffffff168373ffffffffffffffffffffffffffffffffffffffff1614155b15610b8f575f8373ffffffffffffffffffffffffffffffffffffffff1683604051610b0a90612e78565b5f6040518083038185875af1925050503d805f8114610b44576040519150601f19603f3d011682016040523d82523d5f602084013e610b49565b606091505b5050905080610b8d576040517f08c379a0000000000000000000000000000000000000000000000000000000008152600401610b8490613279565b60405180910390fd5b505b5f60065f9054906101000a900473ffffffffffffffffffffffffffffffffffffffff1673ffffffffffffffffffffffffffffffffffffffff1685604051610bd590612e78565b5f6040518083038185875af1925050503d805f8114610c0f576040519150601f19603f3d011682016040523d82523d5f602084013e610c14565b606091505b5050905080610c58576040517f08c379a0000000000000000000000000000000000000000000000000000000008152600401610c4f906132e1565b60405180910390fd5b5f865f015f9054906101000a900473ffffffffffffffffffffffffffffffffffffffff1673ffffffffffffffffffffffffffffffffffffffff1683604051610c9f90612e78565b5f6040518083038185875af1925050503d805f8114610cd9576040519150601f19603f3d011682016040523d82523d5f602084013e610cde565b606091505b5050905080610d22576040517f08c379a0000000000000000000000000000000000000000000000000000000008152600401610d1990613349565b60405180910390fd5b8660030154341115610de7575f3373ffffffffffffffffffffffffffffffffffffffff16886003015434610d5691906131c7565b604051610d6290612e78565b5f6040518083038185875af1925050503d805f8114610d9c576040519150601f19603f3d011682016040523d82523d5f602084013e610da1565b606091505b5050905080610de5576040517f08c379a0000000000000000000000000000000000000000000000000000000008152600401610ddc906133b1565b60405180910390fd5b505b865f015f9054906101000a900473ffffffffffffffffffffffffffffffffffffffff1673ffffffffffffffffffffffffffffffffffffffff163373ffffffffffffffffffffffffffffffffffffffff16897f8562eb94748e30bb0071e932744ce902b460c683474fcb3bfd567ffa16b1afb28a60030154604051610e6b9190612bde565b60405180910390a450505050505050610e82612a1a565b50565b6002602052805f5260405f205f91509050805f015f9054906101000a900473ffffffffffffffffffffffffffffffffffffffff1690806001015f9054906101000a900473ffffffffffffffffffffffffffffffffffffffff1690806002015490806003015490806004015490806005015f9054906101000a900473ffffffffffffffffffffffffffffffffffffffff1690806006015490806007015f9054906101000a900460ff16905088565b5f5f8311610f75576040517f08c379a0000000000000000000000000000000000000000000000000000000008152600401610f6c9061343f565b60405180910390fd5b60018211610fb8576040517f08c379a0000000000000000000000000000000000000000000000000000000008152600401610faf906134cd565b60405180910390fd5b5f73ffffffffffffffffffffffffffffffffffffffff168573ffffffffffffffffffffffffffffffffffffffff1603611026576040517f08c379a000000000000000000000000000000000000000000000000000000000815260040161101d90613535565b60405180910390fd5b5f8590503373ffffffffffffffffffffffffffffffffffffffff168173ffffffffffffffffffffffffffffffffffffffff16636352211e876040518263ffffffff1660e01b815260040161107a9190612bde565b602060405180830381865afa158015611095573d5f5f3e3d5ffd5b505050506040513d601f19601f820116820180604052508101906110b99190613567565b73ffffffffffffffffffffffffffffffffffffffff161461110f576040517f08c379a0000000000000000000000000000000000000000000000000000000008152600401611106906135dc565b60405180910390fd5b3073ffffffffffffffffffffffffffffffffffffffff168173ffffffffffffffffffffffffffffffffffffffff1663081812fc876040518263ffffffff1660e01b815260040161115f9190612bde565b602060405180830381865afa15801561117a573d5f5f3e3d5ffd5b505050506040513d601f19601f8201168201806040525081019061119e9190613567565b73ffffffffffffffffffffffffffffffffffffffff16148061123657508073ffffffffffffffffffffffffffffffffffffffff1663e985e9c533306040518363ffffffff1660e01b81526004016111f69291906135fa565b602060405180830381865afa158015611211573d5f5f3e3d5ffd5b505050506040513d601f19601f82011682018060405250810190611235919061364b565b5b611275576040517f08c379a000000000000000000000000000000000000000000000000000000000815260040161126c906136c0565b60405180910390fd5b60035f815480929190611287906136de565b91905055505f610e108461129b9190613129565b426112a69190613725565b90506040518061010001604052803373ffffffffffffffffffffffffffffffffffffffff1681526020018873ffffffffffffffffffffffffffffffffffffffff1681526020018781526020018681526020015f81526020015f73ffffffffffffffffffffffffffffffffffffffff1681526020018281526020016001151581525060025f60035481526020019081526020015f205f820151815f015f6101000a81548173ffffffffffffffffffffffffffffffffffffffff021916908373ffffffffffffffffffffffffffffffffffffffff1602179055506020820151816001015f6101000a81548173ffffffffffffffffffffffffffffffffffffffff021916908373ffffffffffffffffffffffffffffffffffffffff16021790555060408201518160020155606082015181600301556080820151816004015560a0820151816005015f6101000a81548173ffffffffffffffffffffffffffffffffffffffff021916908373ffffffffffffffffffffffffffffffffffffffff16021790555060c0820151816006015560e0820151816007015f6101000a81548160ff0219169083151502179055509050508673ffffffffffffffffffffffffffffffffffffffff163373ffffffffffffffffffffffffffffffffffffffff166003547f06b9e486c68303eb64052e0493f906f3d93a1b7149b6b8dcff221aebd16c35138989866040516114b893929190613758565b60405180910390a460035492505050949350505050565b60015481565b5f5f5f5f5f5f5f5f5f60025f8b81526020019081526020015f20604051806101000160405290815f82015f9054906101000a900473ffffffffffffffffffffffffffffffffffffffff1673ffffffffffffffffffffffffffffffffffffffff1673ffffffffffffffffffffffffffffffffffffffff168152602001600182015f9054906101000a900473ffffffffffffffffffffffffffffffffffffffff1673ffffffffffffffffffffffffffffffffffffffff1673ffffffffffffffffffffffffffffffffffffffff168152602001600282015481526020016003820154815260200160048201548152602001600582015f9054906101000a900473ffffffffffffffffffffffffffffffffffffffff1673ffffffffffffffffffffffffffffffffffffffff1673ffffffffffffffffffffffffffffffffffffffff16815260200160068201548152602001600782015f9054906101000a900460ff1615151515815250509050805f015181602001518260400151836060015184608001518560a001518660c001518760e001519850985098509850985098509850985050919395975091939597565b5f81116116c2576040517f08c379a00000000000000000000000000000000000000000000000000000000081526004016116b9906137d7565b60405180910390fd5b5f5f5f8481526020019081526020015f209050806004015f9054906101000a900460ff16611725576040517f08c379a000000000000000000000000000000000000000000000000000000000815260040161171c9061300e565b60405180910390fd5b3373ffffffffffffffffffffffffffffffffffffffff16815f015f9054906101000a900473ffffffffffffffffffffffffffffffffffffffff1673ffffffffffffffffffffffffffffffffffffffff16146117b5576040517f08c379a00000000000000000000000000000000000000000000000000000000081526004016117ac9061383f565b60405180910390fd5b818160030181905550827f945c1c4e99aa89f648fbfe3df471b916f719e16d960fcec0737d4d56bd696838836040516117ee9190612bde565b60405180910390a2505050565b5f60025f8381526020019081526020015f209050806007015f9054906101000a900460ff1661185f576040517f08c379a0000000000000000000000000000000000000000000000000000000008152600401611856906138a7565b60405180910390fd5b806006015442106118a5576040517f08c379a000000000000000000000000000000000000000000000000000000000815260040161189c9061390f565b60405180910390fd5b805f015f9054906101000a900473ffffffffffffffffffffffffffffffffffffffff1673ffffffffffffffffffffffffffffffffffffffff163373ffffffffffffffffffffffffffffffffffffffff1603611935576040517f08c379a000000000000000000000000000000000000000000000000000000000815260040161192c90613977565b60405180910390fd5b5f5f82600401540361194d578160030154905061197c565b6064600583600401546119609190613129565b61196a9190613197565b82600401546119799190613725565b90505b803410156119bf576040517f08c379a00000000000000000000000000000000000000000000000000000000081526004016119b6906139df565b60405180910390fd5b5f73ffffffffffffffffffffffffffffffffffffffff16826005015f9054906101000a900473ffffffffffffffffffffffffffffffffffffffff1673ffffffffffffffffffffffffffffffffffffffff1614611a9f57816004015460045f8581526020019081526020015f205f846005015f9054906101000a900473ffffffffffffffffffffffffffffffffffffffff1673ffffffffffffffffffffffffffffffffffffffff1673ffffffffffffffffffffffffffffffffffffffff1681526020019081526020015f205f828254611a979190613725565b925050819055505b34826004018190555033826005015f6101000a81548173ffffffffffffffffffffffffffffffffffffffff021916908373ffffffffffffffffffffffffffffffffffffffff1602179055503373ffffffffffffffffffffffffffffffffffffffff16837f0e54eff26401bf69b81b26f60bd85ef47f5d85275c1d268d84f68d6897431c4734604051611b319190612bde565b60405180910390a3505050565b60035481565b5f5f8211611b87576040517f08c379a0000000000000000000000000000000000000000000000000000000008152600401611b7e906137d7565b60405180910390fd5b5f73ffffffffffffffffffffffffffffffffffffffff168473ffffffffffffffffffffffffffffffffffffffff1603611bf5576040517f08c379a0000000000000000000000000000000000000000000000000000000008152600401611bec90613a47565b60405180910390fd5b5f8490503373ffffffffffffffffffffffffffffffffffffffff168173ffffffffffffffffffffffffffffffffffffffff16636352211e866040518263ffffffff1660e01b8152600401611c499190612bde565b602060405180830381865afa158015611c64573d5f5f3e3d5ffd5b505050506040513d601f19601f82011682018060405250810190611c889190613567565b73ffffffffffffffffffffffffffffffffffffffff1614611cde576040517f08c379a0000000000000000000000000000000000000000000000000000000008152600401611cd5906135dc565b60405180910390fd5b3073ffffffffffffffffffffffffffffffffffffffff168173ffffffffffffffffffffffffffffffffffffffff1663081812fc866040518263ffffffff1660e01b8152600401611d2e9190612bde565b602060405180830381865afa158015611d49573d5f5f3e3d5ffd5b505050506040513d601f19601f82011682018060405250810190611d6d9190613567565b73ffffffffffffffffffffffffffffffffffffffff161480611e0557508073ffffffffffffffffffffffffffffffffffffffff1663e985e9c533306040518363ffffffff1660e01b8152600401611dc59291906135fa565b602060405180830381865afa158015611de0573d5f5f3e3d5ffd5b505050506040513d601f19601f82011682018060405250810190611e04919061364b565b5b611e44576040517f08c379a0000000000000000000000000000000000000000000000000000000008152600401611e3b906136c0565b60405180910390fd5b60015f815480929190611e56906136de565b91905055506040518060a001604052803373ffffffffffffffffffffffffffffffffffffffff1681526020018673ffffffffffffffffffffffffffffffffffffffff168152602001858152602001848152602001600115158152505f5f60015481526020019081526020015f205f820151815f015f6101000a81548173ffffffffffffffffffffffffffffffffffffffff021916908373ffffffffffffffffffffffffffffffffffffffff1602179055506020820151816001015f6101000a81548173ffffffffffffffffffffffffffffffffffffffff021916908373ffffffffffffffffffffffffffffffffffffffff16021790555060408201518160020155606082015181600301556080820151816004015f6101000a81548160ff0219169083151502179055509050508473ffffffffffffffffffffffffffffffffffffffff163373ffffffffffffffffffffffffffffffffffffffff166001547fb0fe4922ac99799c17a4130d5c045ba2ecdf6e15b75b9ea84aaf0dc28724a42b8787604051611fe5929190613a65565b60405180910390a46001549150509392505050565b6120026128c4565b5f60025f8381526020019081526020015f209050806007015f9054906101000a900460ff16612066576040517f08c379a000000000000000000000000000000000000000000000000000000000815260040161205d906138a7565b60405180910390fd5b80600601544210156120ad576040517f08c379a00000000000000000000000000000000000000000000000000000000081526004016120a490613ad6565b60405180910390fd5b5f816007015f6101000a81548160ff0219169083151502179055505f73ffffffffffffffffffffffffffffffffffffffff16816005015f9054906101000a900473ffffffffffffffffffffffffffffffffffffffff1673ffffffffffffffffffffffffffffffffffffffff161461256e575f61271060055483600401546121349190613129565b61213e9190613197565b90505f5f612178846001015f9054906101000a900473ffffffffffffffffffffffffffffffffffffffff16856002015486600401546128e6565b915091505f8184866004015461218e91906131c7565b61219891906131c7565b9050846001015f9054906101000a900473ffffffffffffffffffffffffffffffffffffffff1673ffffffffffffffffffffffffffffffffffffffff166342842e0e865f015f9054906101000a900473ffffffffffffffffffffffffffffffffffffffff16876005015f9054906101000a900473ffffffffffffffffffffffffffffffffffffffff1688600201546040518463ffffffff1660e01b8152600401612243939291906131fa565b5f604051808303815f87803b15801561225a575f5ffd5b505af115801561226c573d5f5f3e3d5ffd5b505050505f821180156122ab57505f73ffffffffffffffffffffffffffffffffffffffff168373ffffffffffffffffffffffffffffffffffffffff1614155b1561235a575f8373ffffffffffffffffffffffffffffffffffffffff16836040516122d590612e78565b5f6040518083038185875af1925050503d805f811461230f576040519150601f19603f3d011682016040523d82523d5f602084013e612314565b606091505b5050905080612358576040517f08c379a000000000000000000000000000000000000000000000000000000000815260040161234f90613279565b60405180910390fd5b505b5f60065f9054906101000a900473ffffffffffffffffffffffffffffffffffffffff1673ffffffffffffffffffffffffffffffffffffffff16856040516123a090612e78565b5f6040518083038185875af1925050503d805f81146123da576040519150601f19603f3d011682016040523d82523d5f602084013e6123df565b606091505b5050905080612423576040517f08c379a000000000000000000000000000000000000000000000000000000000815260040161241a90613b3e565b60405180910390fd5b5f865f015f9054906101000a900473ffffffffffffffffffffffffffffffffffffffff1673ffffffffffffffffffffffffffffffffffffffff168360405161246a90612e78565b5f6040518083038185875af1925050503d805f81146124a4576040519150601f19603f3d011682016040523d82523d5f602084013e6124a9565b606091505b50509050806124ed576040517f08c379a00000000000000000000000000000000000000000000000000000000081526004016124e490613ba6565b60405180910390fd5b866005015f9054906101000a900473ffffffffffffffffffffffffffffffffffffffff1673ffffffffffffffffffffffffffffffffffffffff16887fd2aa34a4fdbbc6dff6a3e56f46e0f3ae2a31d7785ff3487aa5c95c642acea501896004015460405161255b9190612bde565b60405180910390a35050505050506125be565b5f73ffffffffffffffffffffffffffffffffffffffff16827fd2aa34a4fdbbc6dff6a3e56f46e0f3ae2a31d7785ff3487aa5c95c642acea5015f6040516125b59190613c06565b60405180910390a35b506125c7612a1a565b50565b5f5f5f8381526020019081526020015f209050806004015f9054906101000a900460ff1661262d576040517f08c379a000000000000000000000000000000000000000000000000000000000815260040161262490613c69565b60405180910390fd5b3373ffffffffffffffffffffffffffffffffffffffff16815f015f9054906101000a900473ffffffffffffffffffffffffffffffffffffffff1673ffffffffffffffffffffffffffffffffffffffff16146126bd576040517f08c379a00000000000000000000000000000000000000000000000000000000081526004016126b490613cd1565b60405180910390fd5b5f816004015f6101000a81548160ff021916908315150217905550817fc0c55a6edead4433d18cb1e287a0a20a2fa003a6f483bc9823d2e504d70d1c6760405160405180910390a25050565b5f602052805f5260405f205f91509050805f015f9054906101000a900473ffffffffffffffffffffffffffffffffffffffff1690806001015f9054906101000a900473ffffffffffffffffffffffffffffffffffffffff1690806002015490806003015490806004015f9054906101000a900460ff16905085565b60065f9054906101000a900473ffffffffffffffffffffffffffffffffffffffff1673ffffffffffffffffffffffffffffffffffffffff163373ffffffffffffffffffffffffffffffffffffffff1614612813576040517f08c379a000000000000000000000000000000000000000000000000000000000815260040161280a90613d39565b60405180910390fd5b5f73ffffffffffffffffffffffffffffffffffffffff168173ffffffffffffffffffffffffffffffffffffffff1603612881576040517f08c379a000000000000000000000000000000000000000000000000000000000815260040161287890613da1565b60405180910390fd5b8060065f6101000a81548173ffffffffffffffffffffffffffffffffffffffff021916908373ffffffffffffffffffffffffffffffffffffffff16021790555050565b6128cc612a34565b60026128de6128d9612a75565b612a9e565b5f0181905550565b5f5f8473ffffffffffffffffffffffffffffffffffffffff166301ffc9a77f2a55205a000000000000000000000000000000000000000000000000000000006040518263ffffffff1660e01b81526004016129419190613df9565b602060405180830381865afa15801561295c573d5f5f3e3d5ffd5b505050506040513d601f19601f82011682018060405250810190612980919061364b565b15612a0b578473ffffffffffffffffffffffffffffffffffffffff16632a55205a85856040518363ffffffff1660e01b81526004016129c0929190613a65565b6040805180830381865afa1580156129da573d5f5f3e3d5ffd5b505050506040513d601f19601f820116820180604052508101906129fe9190613e26565b8092508193505050612a12565b5f91505f90505b935093915050565b6001612a2c612a27612a75565b612a9e565b5f0181905550565b612a3c612aa7565b15612a73576040517f3ee5aeb500000000000000000000000000000000000000000000000000000000815260040160405180910390fd5b565b5f7f9b779b17422d0df92223018b32b4d1fa46e071723d6817e2486d003becc55f005f1b905090565b5f819050919050565b5f6002612aba612ab5612a75565b612a9e565b5f015414905090565b5f5ffd5b5f819050919050565b612ad981612ac7565b8114612ae3575f5ffd5b50565b5f81359050612af481612ad0565b92915050565b5f60208284031215612b0f57612b0e612ac3565b5b5f612b1c84828501612ae6565b91505092915050565b5f73ffffffffffffffffffffffffffffffffffffffff82169050919050565b5f612b4e82612b25565b9050919050565b612b5e81612b44565b82525050565b612b6d81612ac7565b82525050565b5f8115159050919050565b612b8781612b73565b82525050565b5f60a082019050612ba05f830188612b55565b612bad6020830187612b55565b612bba6040830186612b64565b612bc76060830185612b64565b612bd46080830184612b7e565b9695505050505050565b5f602082019050612bf15f830184612b64565b92915050565b5f602082019050612c0a5f830184612b55565b92915050565b5f61010082019050612c245f83018b612b55565b612c31602083018a612b55565b612c3e6040830189612b64565b612c4b6060830188612b64565b612c586080830187612b64565b612c6560a0830186612b55565b612c7260c0830185612b64565b612c7f60e0830184612b7e565b9998505050505050505050565b612c9581612b44565b8114612c9f575f5ffd5b50565b5f81359050612cb081612c8c565b92915050565b5f5f5f5f60808587031215612cce57612ccd612ac3565b5b5f612cdb87828801612ca2565b9450506020612cec87828801612ae6565b9350506040612cfd87828801612ae6565b9250506060612d0e87828801612ae6565b91505092959194509250565b5f5f60408385031215612d3057612d2f612ac3565b5b5f612d3d85828601612ae6565b9250506020612d4e85828601612ae6565b9150509250929050565b5f5f5f60608486031215612d6f57612d6e612ac3565b5b5f612d7c86828701612ca2565b9350506020612d8d86828701612ae6565b9250506040612d9e86828701612ae6565b9150509250925092565b5f60208284031215612dbd57612dbc612ac3565b5b5f612dca84828501612ca2565b91505092915050565b5f82825260208201905092915050565b7f4e6f2070656e64696e672072657475726e0000000000000000000000000000005f82015250565b5f612e17601183612dd3565b9150612e2282612de3565b602082019050919050565b5f6020820190508181035f830152612e4481612e0b565b9050919050565b5f81905092915050565b50565b5f612e635f83612e4b565b9150612e6e82612e55565b5f82019050919050565b5f612e8282612e58565b9150819050919050565b7f426964646572207769746864726177206661696c6564000000000000000000005f82015250565b5f612ec0601683612dd3565b9150612ecb82612e8c565b602082019050919050565b5f6020820190508181035f830152612eed81612eb4565b9050919050565b7f4e6f742066656520526563697069656e740000000000000000000000000000005f82015250565b5f612f28601183612dd3565b9150612f3382612ef4565b602082019050919050565b5f6020820190508181035f830152612f5581612f1c565b9050919050565b7f46656520746f6f206869676800000000000000000000000000000000000000005f82015250565b5f612f90600c83612dd3565b9150612f9b82612f5c565b602082019050919050565b5f6020820190508181035f830152612fbd81612f84565b9050919050565b7f4c697374696e67206e6f742061637469766500000000000000000000000000005f82015250565b5f612ff8601283612dd3565b915061300382612fc4565b602082019050919050565b5f6020820190508181035f83015261302581612fec565b9050919050565b7f496e73756666696369656e74207061796d656e740000000000000000000000005f82015250565b5f613060601483612dd3565b915061306b8261302c565b602082019050919050565b5f6020820190508181035f83015261308d81613054565b9050919050565b7f43616e6e6f742062757920796f757273656c66204e46540000000000000000005f82015250565b5f6130c8601783612dd3565b91506130d382613094565b602082019050919050565b5f6020820190508181035f8301526130f5816130bc565b9050919050565b7f4e487b71000000000000000000000000000000000000000000000000000000005f52601160045260245ffd5b5f61313382612ac7565b915061313e83612ac7565b925082820261314c81612ac7565b91508282048414831517613163576131626130fc565b5b5092915050565b7f4e487b71000000000000000000000000000000000000000000000000000000005f52601260045260245ffd5b5f6131a182612ac7565b91506131ac83612ac7565b9250826131bc576131bb61316a565b5b828204905092915050565b5f6131d182612ac7565b91506131dc83612ac7565b92508282039050818111156131f4576131f36130fc565b5b92915050565b5f60608201905061320d5f830186612b55565b61321a6020830185612b55565b6132276040830184612b64565b949350505050565b7f526f79616c7479207472616e73666572206661696c65640000000000000000005f82015250565b5f613263601783612dd3565b915061326e8261322f565b602082019050919050565b5f6020820190508181035f83015261329081613257565b9050919050565b7f5472616e7366657220666565206661696c6564000000000000000000000000005f82015250565b5f6132cb601383612dd3565b91506132d682613297565b602082019050919050565b5f6020820190508181035f8301526132f8816132bf565b9050919050565b7f5472616e7366657220746f2073656c6c6572206661696c6564210000000000005f82015250565b5f613333601a83612dd3565b915061333e826132ff565b602082019050919050565b5f6020820190508181035f83015261336081613327565b9050919050565b7f5265666f756e64206661696c65640000000000000000000000000000000000005f82015250565b5f61339b600e83612dd3565b91506133a682613367565b602082019050919050565b5f6020820190508181035f8301526133c88161338f565b9050919050565b7f5374617274207072696365206d7573742062652067726561746572207468616e5f8201527f2030000000000000000000000000000000000000000000000000000000000000602082015250565b5f613429602283612dd3565b9150613434826133cf565b604082019050919050565b5f6020820190508181035f8301526134568161341d565b9050919050565b7f4475726174696f6e206d75737420626520677261746572207468616e203120685f8201527f6f75727300000000000000000000000000000000000000000000000000000000602082015250565b5f6134b7602483612dd3565b91506134c28261345d565b604082019050919050565b5f6020820190508181035f8301526134e4816134ab565b9050919050565b7f496e76616c6964204e465420636f6e74726163740000000000000000000000005f82015250565b5f61351f601483612dd3565b915061352a826134eb565b602082019050919050565b5f6020820190508181035f83015261354c81613513565b9050919050565b5f8151905061356181612c8c565b92915050565b5f6020828403121561357c5761357b612ac3565b5b5f61358984828501613553565b91505092915050565b7f4e6f7420746865206f776e6572000000000000000000000000000000000000005f82015250565b5f6135c6600d83612dd3565b91506135d182613592565b602082019050919050565b5f6020820190508181035f8301526135f3816135ba565b9050919050565b5f60408201905061360d5f830185612b55565b61361a6020830184612b55565b9392505050565b61362a81612b73565b8114613634575f5ffd5b50565b5f8151905061364581613621565b92915050565b5f602082840312156136605761365f612ac3565b5b5f61366d84828501613637565b91505092915050565b7f4d61726b6574706c616365206e6f7420617070726f76656400000000000000005f82015250565b5f6136aa601883612dd3565b91506136b582613676565b602082019050919050565b5f6020820190508181035f8301526136d78161369e565b9050919050565b5f6136e882612ac7565b91507fffffffffffffffffffffffffffffffffffffffffffffffffffffffffffffffff820361371a576137196130fc565b5b600182019050919050565b5f61372f82612ac7565b915061373a83612ac7565b9250828201905080821115613752576137516130fc565b5b92915050565b5f60608201905061376b5f830186612b64565b6137786020830185612b64565b6137856040830184612b64565b949350505050565b7f5072696365206d7573742062652067726561746572207468616e2030000000005f82015250565b5f6137c1601c83612dd3565b91506137cc8261378d565b602082019050919050565b5f6020820190508181035f8301526137ee816137b5565b9050919050565b7f4e6f74207468652073656c6c65720000000000000000000000000000000000005f82015250565b5f613829600e83612dd3565b9150613834826137f5565b602082019050919050565b5f6020820190508181035f8301526138568161381d565b9050919050565b7f41756374696f6e206e6f742061637469766500000000000000000000000000005f82015250565b5f613891601283612dd3565b915061389c8261385d565b602082019050919050565b5f6020820190508181035f8301526138be81613885565b9050919050565b7f41756374696f6e20656e646564210000000000000000000000000000000000005f82015250565b5f6138f9600e83612dd3565b9150613904826138c5565b602082019050919050565b5f6020820190508181035f830152613926816138ed565b9050919050565b7f53656c6c65722063616e6e6f74206269640000000000000000000000000000005f82015250565b5f613961601183612dd3565b915061396c8261392d565b602082019050919050565b5f6020820190508181035f83015261398e81613955565b9050919050565b7f42696420746f6f206c6f770000000000000000000000000000000000000000005f82015250565b5f6139c9600b83612dd3565b91506139d482613995565b602082019050919050565b5f6020820190508181035f8301526139f6816139bd565b9050919050565b7f496e76616c6964204e465420636f6e74726163742100000000000000000000005f82015250565b5f613a31601583612dd3565b9150613a3c826139fd565b602082019050919050565b5f6020820190508181035f830152613a5e81613a25565b9050919050565b5f604082019050613a785f830185612b64565b613a856020830184612b64565b9392505050565b7f41756374696f6e206e6f7420656e6465640000000000000000000000000000005f82015250565b5f613ac0601183612dd3565b9150613acb82613a8c565b602082019050919050565b5f6020820190508181035f830152613aed81613ab4565b9050919050565b7f466565207472616e73666572206661696c6564000000000000000000000000005f82015250565b5f613b28601383612dd3565b9150613b3382613af4565b602082019050919050565b5f6020820190508181035f830152613b5581613b1c565b9050919050565b7f53656c6c6572205472616e73666572206661696c6564000000000000000000005f82015250565b5f613b90601683612dd3565b9150613b9b82613b5c565b602082019050919050565b5f6020820190508181035f830152613bbd81613b84565b9050919050565b5f819050919050565b5f819050919050565b5f613bf0613beb613be684613bc4565b613bcd565b612ac7565b9050919050565b613c0081613bd6565b82525050565b5f602082019050613c195f830184613bf7565b92915050565b7f4c697374696e67206e6f742061637469766521000000000000000000000000005f82015250565b5f613c53601383612dd3565b9150613c5e82613c1f565b602082019050919050565b5f6020820190508181035f830152613c8081613c47565b9050919050565b7f4e6f74207468652073656c6c65722100000000000000000000000000000000005f82015250565b5f613cbb600f83612dd3565b9150613cc682613c87565b602082019050919050565b5f6020820190508181035f830152613ce881613caf565b9050919050565b7f4e6f742066656520726563697069656e740000000000000000000000000000005f82015250565b5f613d23601183612dd3565b9150613d2e82613cef565b602082019050919050565b5f6020820190508181035f830152613d5081613d17565b9050919050565b7f496e76616c6964206164647265737300000000000000000000000000000000005f82015250565b5f613d8b600f83612dd3565b9150613d9682613d57565b602082019050919050565b5f6020820190508181035f830152613db881613d7f565b9050919050565b5f7fffffffff0000000000000000000000000000000000000000000000000000000082169050919050565b613df381613dbf565b82525050565b5f602082019050613e0c5f830184613dea565b92915050565b5f81519050613e2081612ad0565b92915050565b5f5f60408385031215613e3c57613e3b612ac3565b5b5f613e4985828601613553565b9250506020613e5a85828601613e12565b915050925092905056fea264697066735822122074c7b0b6ffbdb5f3a83231240b079f56175fc229b9051ca8d133ceb2935a77b464736f6c63430008220033",
			"opcodes": "PUSH1 0x80 PUSH1 0x40 MSTORE PUSH1 0xFA PUSH1 0x5 SSTORE CALLVALUE DUP1 ISZERO PUSH2 0x14 JUMPI PUSH0 PUSH0 REVERT JUMPDEST POP PUSH1 0x40 MLOAD PUSH2 0x40E8 CODESIZE SUB DUP1 PUSH2 0x40E8 DUP4 CODECOPY DUP2 DUP2 ADD PUSH1 0x40 MSTORE DUP2 ADD SWAP1 PUSH2 0x36 SWAP2 SWAP1 PUSH2 0x19E JUMP JUMPDEST PUSH1 0x1 PUSH2 0x54 PUSH2 0x49 PUSH2 0x10E PUSH1 0x20 SHL PUSH1 0x20 SHR JUMP JUMPDEST PUSH2 0x137 PUSH1 0x20 SHL PUSH1 0x20 SHR JUMP JUMPDEST PUSH0 ADD DUP2 SWAP1 SSTORE POP PUSH0 PUSH20 0xFFFFFFFFFFFFFFFFFFFFFFFFFFFFFFFFFFFFFFFF AND DUP2 PUSH20 0xFFFFFFFFFFFFFFFFFFFFFFFFFFFFFFFFFFFFFFFF AND SUB PUSH2 0xC8 JUMPI PUSH1 0x40 MLOAD PUSH32 0x8C379A000000000000000000000000000000000000000000000000000000000 DUP2 MSTORE PUSH1 0x4 ADD PUSH2 0xBF SWAP1 PUSH2 0x223 JUMP JUMPDEST PUSH1 0x40 MLOAD DUP1 SWAP2 SUB SWAP1 REVERT JUMPDEST DUP1 PUSH1 0x6 PUSH0 PUSH2 0x100 EXP DUP2 SLOAD DUP2 PUSH20 0xFFFFFFFFFFFFFFFFFFFFFFFFFFFFFFFFFFFFFFFF MUL NOT AND SWAP1 DUP4 PUSH20 0xFFFFFFFFFFFFFFFFFFFFFFFFFFFFFFFFFFFFFFFF AND MUL OR SWAP1 SSTORE POP POP PUSH2 0x241 JUMP JUMPDEST PUSH0 PUSH32 0x9B779B17422D0DF92223018B32B4D1FA46E071723D6817E2486D003BECC55F00 PUSH0 SHL SWAP1 POP SWAP1 JUMP JUMPDEST PUSH0 DUP2 SWAP1 POP SWAP2 SWAP1 POP JUMP JUMPDEST PUSH0 PUSH0 REVERT JUMPDEST PUSH0 PUSH20 0xFFFFFFFFFFFFFFFFFFFFFFFFFFFFFFFFFFFFFFFF DUP3 AND SWAP1 POP SWAP2 SWAP1 POP JUMP JUMPDEST PUSH0 PUSH2 0x16D DUP3 PUSH2 0x144 JUMP JUMPDEST SWAP1 POP SWAP2 SWAP1 POP JUMP JUMPDEST PUSH2 0x17D DUP2 PUSH2 0x163 JUMP JUMPDEST DUP2 EQ PUSH2 0x187 JUMPI PUSH0 PUSH0 REVERT JUMPDEST POP JUMP JUMPDEST PUSH0 DUP2 MLOAD SWAP1 POP PUSH2 0x198 DUP2 PUSH2 0x174 JUMP JUMPDEST SWAP3 SWAP2 POP POP JUMP JUMPDEST PUSH0 PUSH1 0x20 DUP3 DUP5 SUB SLT ISZERO PUSH2 0x1B3 JUMPI PUSH2 0x1B2 PUSH2 0x140 JUMP JUMPDEST JUMPDEST PUSH0 PUSH2 0x1C0 DUP5 DUP3 DUP6 ADD PUSH2 0x18A JUMP JUMPDEST SWAP2 POP POP SWAP3 SWAP2 POP POP JUMP JUMPDEST PUSH0 DUP3 DUP3 MSTORE PUSH1 0x20 DUP3 ADD SWAP1 POP SWAP3 SWAP2 POP POP JUMP JUMPDEST PUSH32 0x496E76616C69642066656520726563697069656E742100000000000000000000 PUSH0 DUP3 ADD MSTORE POP JUMP JUMPDEST PUSH0 PUSH2 0x20D PUSH1 0x16 DUP4 PUSH2 0x1C9 JUMP JUMPDEST SWAP2 POP PUSH2 0x218 DUP3 PUSH2 0x1D9 JUMP JUMPDEST PUSH1 0x20 DUP3 ADD SWAP1 POP SWAP2 SWAP1 POP JUMP JUMPDEST PUSH0 PUSH1 0x20 DUP3 ADD SWAP1 POP DUP2 DUP2 SUB PUSH0 DUP4 ADD MSTORE PUSH2 0x23A DUP2 PUSH2 0x201 JUMP JUMPDEST SWAP1 POP SWAP2 SWAP1 POP JUMP JUMPDEST PUSH2 0x3E9A DUP1 PUSH2 0x24E PUSH0 CODECOPY PUSH0 RETURN INVALID PUSH1 0x80 PUSH1 0x40 MSTORE PUSH1 0x4 CALLDATASIZE LT PUSH2 0x108 JUMPI PUSH0 CALLDATALOAD PUSH1 0xE0 SHR DUP1 PUSH4 0x78BD7935 GT PUSH2 0x94 JUMPI DUP1 PUSH4 0xAD05F1B4 GT PUSH2 0x63 JUMPI DUP1 PUSH4 0xAD05F1B4 EQ PUSH2 0x366 JUMPI DUP1 PUSH4 0xB9A2DE3A EQ PUSH2 0x3A2 JUMPI DUP1 PUSH4 0xCB917B9C EQ PUSH2 0x3CA JUMPI DUP1 PUSH4 0xDE74E57B EQ PUSH2 0x3F2 JUMPI DUP1 PUSH4 0xF160D369 EQ PUSH2 0x432 JUMPI PUSH2 0x108 JUMP JUMPDEST DUP1 PUSH4 0x78BD7935 EQ PUSH2 0x2B5 JUMPI DUP1 PUSH4 0x82367B2D EQ PUSH2 0x2F8 JUMPI DUP1 PUSH4 0x9979EF45 EQ PUSH2 0x320 JUMPI DUP1 PUSH4 0xA7E76644 EQ PUSH2 0x33C JUMPI PUSH2 0x108 JUMP JUMPDEST DUP1 PUSH4 0x46904840 GT PUSH2 0xDB JUMPI DUP1 PUSH4 0x46904840 EQ PUSH2 0x1C6 JUMPI DUP1 PUSH4 0x51ED8288 EQ PUSH2 0x1F0 JUMPI DUP1 PUSH4 0x571A26A0 EQ PUSH2 0x20C JUMPI DUP1 PUSH4 0x61BEB1D7 EQ PUSH2 0x24F JUMPI DUP1 PUSH4 0x6C2C9C7D EQ PUSH2 0x28B JUMPI PUSH2 0x108 JUMP JUMPDEST DUP1 PUSH4 0xEAAF4C8 EQ PUSH2 0x10C JUMPI DUP1 PUSH4 0x107A274A EQ PUSH2 0x134 JUMPI DUP1 PUSH4 0x12E8E2C3 EQ PUSH2 0x174 JUMPI DUP1 PUSH4 0x26232A2E EQ PUSH2 0x19C JUMPI JUMPDEST PUSH0 PUSH0 REVERT JUMPDEST CALLVALUE DUP1 ISZERO PUSH2 0x117 JUMPI PUSH0 PUSH0 REVERT JUMPDEST POP PUSH2 0x132 PUSH1 0x4 DUP1 CALLDATASIZE SUB DUP2 ADD SWAP1 PUSH2 0x12D SWAP2 SWAP1 PUSH2 0x2AFA JUMP JUMPDEST PUSH2 0x45A JUMP JUMPDEST STOP JUMPDEST CALLVALUE DUP1 ISZERO PUSH2 0x13F JUMPI PUSH0 PUSH0 REVERT JUMPDEST POP PUSH2 0x15A PUSH1 0x4 DUP1 CALLDATASIZE SUB DUP2 ADD SWAP1 PUSH2 0x155 SWAP2 SWAP1 PUSH2 0x2AFA JUMP JUMPDEST PUSH2 0x5EA JUMP JUMPDEST PUSH1 0x40 MLOAD PUSH2 0x16B SWAP6 SWAP5 SWAP4 SWAP3 SWAP2 SWAP1 PUSH2 0x2B8D JUMP JUMPDEST PUSH1 0x40 MLOAD DUP1 SWAP2 SUB SWAP1 RETURN JUMPDEST CALLVALUE DUP1 ISZERO PUSH2 0x17F JUMPI PUSH0 PUSH0 REVERT JUMPDEST POP PUSH2 0x19A PUSH1 0x4 DUP1 CALLDATASIZE SUB DUP2 ADD SWAP1 PUSH2 0x195 SWAP2 SWAP1 PUSH2 0x2AFA JUMP JUMPDEST PUSH2 0x710 JUMP JUMPDEST STOP JUMPDEST CALLVALUE DUP1 ISZERO PUSH2 0x1A7 JUMPI PUSH0 PUSH0 REVERT JUMPDEST POP PUSH2 0x1B0 PUSH2 0x7EE JUMP JUMPDEST PUSH1 0x40 MLOAD PUSH2 0x1BD SWAP2 SWAP1 PUSH2 0x2BDE JUMP JUMPDEST PUSH1 0x40 MLOAD DUP1 SWAP2 SUB SWAP1 RETURN JUMPDEST CALLVALUE DUP1 ISZERO PUSH2 0x1D1 JUMPI PUSH0 PUSH0 REVERT JUMPDEST POP PUSH2 0x1DA PUSH2 0x7F4 JUMP JUMPDEST PUSH1 0x40 MLOAD PUSH2 0x1E7 SWAP2 SWAP1 PUSH2 0x2BF7 JUMP JUMPDEST PUSH1 0x40 MLOAD DUP1 SWAP2 SUB SWAP1 RETURN JUMPDEST PUSH2 0x20A PUSH1 0x4 DUP1 CALLDATASIZE SUB DUP2 ADD SWAP1 PUSH2 0x205 SWAP2 SWAP1 PUSH2 0x2AFA JUMP JUMPDEST PUSH2 0x819 JUMP JUMPDEST STOP JUMPDEST CALLVALUE DUP1 ISZERO PUSH2 0x217 JUMPI PUSH0 PUSH0 REVERT JUMPDEST POP PUSH2 0x232 PUSH1 0x4 DUP1 CALLDATASIZE SUB DUP2 ADD SWAP1 PUSH2 0x22D SWAP2 SWAP1 PUSH2 0x2AFA JUMP JUMPDEST PUSH2 0xE85 JUMP JUMPDEST PUSH1 0x40 MLOAD PUSH2 0x246 SWAP9 SWAP8 SWAP7 SWAP6 SWAP5 SWAP4 SWAP3 SWAP2 SWAP1 PUSH2 0x2C10 JUMP JUMPDEST PUSH1 0x40 MLOAD DUP1 SWAP2 SUB SWAP1 RETURN JUMPDEST CALLVALUE DUP1 ISZERO PUSH2 0x25A JUMPI PUSH0 PUSH0 REVERT JUMPDEST POP PUSH2 0x275 PUSH1 0x4 DUP1 CALLDATASIZE SUB DUP2 ADD SWAP1 PUSH2 0x270 SWAP2 SWAP1 PUSH2 0x2CB6 JUMP JUMPDEST PUSH2 0xF32 JUMP JUMPDEST PUSH1 0x40 MLOAD PUSH2 0x282 SWAP2 SWAP1 PUSH2 0x2BDE JUMP JUMPDEST PUSH1 0x40 MLOAD DUP1 SWAP2 SUB SWAP1 RETURN JUMPDEST CALLVALUE DUP1 ISZERO PUSH2 0x296 JUMPI PUSH0 PUSH0 REVERT JUMPDEST POP PUSH2 0x29F PUSH2 0x14CF JUMP JUMPDEST PUSH1 0x40 MLOAD PUSH2 0x2AC SWAP2 SWAP1 PUSH2 0x2BDE JUMP JUMPDEST PUSH1 0x40 MLOAD DUP1 SWAP2 SUB SWAP1 RETURN JUMPDEST CALLVALUE DUP1 ISZERO PUSH2 0x2C0 JUMPI PUSH0 PUSH0 REVERT JUMPDEST POP PUSH2 0x2DB PUSH1 0x4 DUP1 CALLDATASIZE SUB DUP2 ADD SWAP1 PUSH2 0x2D6 SWAP2 SWAP1 PUSH2 0x2AFA JUMP JUMPDEST PUSH2 0x14D5 JUMP JUMPDEST PUSH1 0x40 MLOAD PUSH2 0x2EF SWAP9 SWAP8 SWAP7 SWAP6 SWAP5 SWAP4 SWAP3 SWAP2 SWAP1 PUSH2 0x2C10 JUMP JUMPDEST PUSH1 0x40 MLOAD DUP1 SWAP2 SUB SWAP1 RETURN JUMPDEST CALLVALUE DUP1 ISZERO PUSH2 0x303 JUMPI PUSH0 PUSH0 REVERT JUMPDEST POP PUSH2 0x31E PUSH1 0x4 DUP1 CALLDATASIZE SUB DUP2 ADD SWAP1 PUSH2 0x319 SWAP2 SWAP1 PUSH2 0x2D1A JUMP JUMPDEST PUSH2 0x1680 JUMP JUMPDEST STOP JUMPDEST PUSH2 0x33A PUSH1 0x4 DUP1 CALLDATASIZE SUB DUP2 ADD SWAP1 PUSH2 0x335 SWAP2 SWAP1 PUSH2 0x2AFA JUMP JUMPDEST PUSH2 0x17FB JUMP JUMPDEST STOP JUMPDEST CALLVALUE DUP1 ISZERO PUSH2 0x347 JUMPI PUSH0 PUSH0 REVERT JUMPDEST POP PUSH2 0x350 PUSH2 0x1B3E JUMP JUMPDEST PUSH1 0x40 MLOAD PUSH2 0x35D SWAP2 SWAP1 PUSH2 0x2BDE JUMP JUMPDEST PUSH1 0x40 MLOAD DUP1 SWAP2 SUB SWAP1 RETURN JUMPDEST CALLVALUE DUP1 ISZERO PUSH2 0x371 JUMPI PUSH0 PUSH0 REVERT JUMPDEST POP PUSH2 0x38C PUSH1 0x4 DUP1 CALLDATASIZE SUB DUP2 ADD SWAP1 PUSH2 0x387 SWAP2 SWAP1 PUSH2 0x2D58 JUMP JUMPDEST PUSH2 0x1B44 JUMP JUMPDEST PUSH1 0x40 MLOAD PUSH2 0x399 SWAP2 SWAP1 PUSH2 0x2BDE JUMP JUMPDEST PUSH1 0x40 MLOAD DUP1 SWAP2 SUB SWAP1 RETURN JUMPDEST CALLVALUE DUP1 ISZERO PUSH2 0x3AD JUMPI PUSH0 PUSH0 REVERT JUMPDEST POP PUSH2 0x3C8 PUSH1 0x4 DUP1 CALLDATASIZE SUB DUP2 ADD SWAP1 PUSH2 0x3C3 SWAP2 SWAP1 PUSH2 0x2AFA JUMP JUMPDEST PUSH2 0x1FFA JUMP JUMPDEST STOP JUMPDEST CALLVALUE DUP1 ISZERO PUSH2 0x3D5 JUMPI PUSH0 PUSH0 REVERT JUMPDEST POP PUSH2 0x3F0 PUSH1 0x4 DUP1 CALLDATASIZE SUB DUP2 ADD SWAP1 PUSH2 0x3EB SWAP2 SWAP1 PUSH2 0x2AFA JUMP JUMPDEST PUSH2 0x25CA JUMP JUMPDEST STOP JUMPDEST CALLVALUE DUP1 ISZERO PUSH2 0x3FD JUMPI PUSH0 PUSH0 REVERT JUMPDEST POP PUSH2 0x418 PUSH1 0x4 DUP1 CALLDATASIZE SUB DUP2 ADD SWAP1 PUSH2 0x413 SWAP2 SWAP1 PUSH2 0x2AFA JUMP JUMPDEST PUSH2 0x2709 JUMP JUMPDEST PUSH1 0x40 MLOAD PUSH2 0x429 SWAP6 SWAP5 SWAP4 SWAP3 SWAP2 SWAP1 PUSH2 0x2B8D JUMP JUMPDEST PUSH1 0x40 MLOAD DUP1 SWAP2 SUB SWAP1 RETURN JUMPDEST CALLVALUE DUP1 ISZERO PUSH2 0x43D JUMPI PUSH0 PUSH0 REVERT JUMPDEST POP PUSH2 0x458 PUSH1 0x4 DUP1 CALLDATASIZE SUB DUP2 ADD SWAP1 PUSH2 0x453 SWAP2 SWAP1 PUSH2 0x2DA8 JUMP JUMPDEST PUSH2 0x2784 JUMP JUMPDEST STOP JUMPDEST PUSH0 PUSH1 0x4 PUSH0 DUP4 DUP2 MSTORE PUSH1 0x20 ADD SWAP1 DUP2 MSTORE PUSH1 0x20 ADD PUSH0 KECCAK256 PUSH0 CALLER PUSH20 0xFFFFFFFFFFFFFFFFFFFFFFFFFFFFFFFFFFFFFFFF AND PUSH20 0xFFFFFFFFFFFFFFFFFFFFFFFFFFFFFFFFFFFFFFFF AND DUP2 MSTORE PUSH1 0x20 ADD SWAP1 DUP2 MSTORE PUSH1 0x20 ADD PUSH0 KECCAK256 SLOAD SWAP1 POP PUSH0 DUP2 GT PUSH2 0x4EC JUMPI PUSH1 0x40 MLOAD PUSH32 0x8C379A000000000000000000000000000000000000000000000000000000000 DUP2 MSTORE PUSH1 0x4 ADD PUSH2 0x4E3 SWAP1 PUSH2 0x2E2D JUMP JUMPDEST PUSH1 0x40 MLOAD DUP1 SWAP2 SUB SWAP1 REVERT JUMPDEST PUSH0 PUSH1 0x4 PUSH0 DUP5 DUP2 MSTORE PUSH1 0x20 ADD SWAP1 DUP2 MSTORE PUSH1 0x20 ADD PUSH0 KECCAK256 PUSH0 CALLER PUSH20 0xFFFFFFFFFFFFFFFFFFFFFFFFFFFFFFFFFFFFFFFF AND PUSH20 0xFFFFFFFFFFFFFFFFFFFFFFFFFFFFFFFFFFFFFFFF AND DUP2 MSTORE PUSH1 0x20 ADD SWAP1 DUP2 MSTORE PUSH1 0x20 ADD PUSH0 KECCAK256 DUP2 SWAP1 SSTORE POP PUSH0 CALLER PUSH20 0xFFFFFFFFFFFFFFFFFFFFFFFFFFFFFFFFFFFFFFFF AND DUP3 PUSH1 0x40 MLOAD PUSH2 0x562 SWAP1 PUSH2 0x2E78 JUMP JUMPDEST PUSH0 PUSH1 0x40 MLOAD DUP1 DUP4 SUB DUP2 DUP6 DUP8 GAS CALL SWAP3 POP POP POP RETURNDATASIZE DUP1 PUSH0 DUP2 EQ PUSH2 0x59C JUMPI PUSH1 0x40 MLOAD SWAP2 POP PUSH1 0x1F NOT PUSH1 0x3F RETURNDATASIZE ADD AND DUP3 ADD PUSH1 0x40 MSTORE RETURNDATASIZE DUP3 MSTORE RETURNDATASIZE PUSH0 PUSH1 0x20 DUP5 ADD RETURNDATACOPY PUSH2 0x5A1 JUMP JUMPDEST PUSH1 0x60 SWAP2 POP JUMPDEST POP POP SWAP1 POP DUP1 PUSH2 0x5E5 JUMPI PUSH1 0x40 MLOAD PUSH32 0x8C379A000000000000000000000000000000000000000000000000000000000 DUP2 MSTORE PUSH1 0x4 ADD PUSH2 0x5DC SWAP1 PUSH2 0x2ED6 JUMP JUMPDEST PUSH1 0x40 MLOAD DUP1 SWAP2 SUB SWAP1 REVERT JUMPDEST POP POP POP JUMP JUMPDEST PUSH0 PUSH0 PUSH0 PUSH0 PUSH0 PUSH0 PUSH0 PUSH0 DUP9 DUP2 MSTORE PUSH1 0x20 ADD SWAP1 DUP2 MSTORE PUSH1 0x20 ADD PUSH0 KECCAK256 PUSH1 0x40 MLOAD DUP1 PUSH1 0xA0 ADD PUSH1 0x40 MSTORE SWAP1 DUP2 PUSH0 DUP3 ADD PUSH0 SWAP1 SLOAD SWAP1 PUSH2 0x100 EXP SWAP1 DIV PUSH20 0xFFFFFFFFFFFFFFFFFFFFFFFFFFFFFFFFFFFFFFFF AND PUSH20 0xFFFFFFFFFFFFFFFFFFFFFFFFFFFFFFFFFFFFFFFF AND PUSH20 0xFFFFFFFFFFFFFFFFFFFFFFFFFFFFFFFFFFFFFFFF AND DUP2 MSTORE PUSH1 0x20 ADD PUSH1 0x1 DUP3 ADD PUSH0 SWAP1 SLOAD SWAP1 PUSH2 0x100 EXP SWAP1 DIV PUSH20 0xFFFFFFFFFFFFFFFFFFFFFFFFFFFFFFFFFFFFFFFF AND PUSH20 0xFFFFFFFFFFFFFFFFFFFFFFFFFFFFFFFFFFFFFFFF AND PUSH20 0xFFFFFFFFFFFFFFFFFFFFFFFFFFFFFFFFFFFFFFFF AND DUP2 MSTORE PUSH1 0x20 ADD PUSH1 0x2 DUP3 ADD SLOAD DUP2 MSTORE PUSH1 0x20 ADD PUSH1 0x3 DUP3 ADD SLOAD DUP2 MSTORE PUSH1 0x20 ADD PUSH1 0x4 DUP3 ADD PUSH0 SWAP1 SLOAD SWAP1 PUSH2 0x100 EXP SWAP1 DIV PUSH1 0xFF AND ISZERO ISZERO ISZERO ISZERO DUP2 MSTORE POP POP SWAP1 POP DUP1 PUSH0 ADD MLOAD DUP2 PUSH1 0x20 ADD MLOAD DUP3 PUSH1 0x40 ADD MLOAD DUP4 PUSH1 0x60 ADD MLOAD DUP5 PUSH1 0x80 ADD MLOAD SWAP6 POP SWAP6 POP SWAP6 POP SWAP6 POP SWAP6 POP POP SWAP2 SWAP4 SWAP6 SWAP1 SWAP3 SWAP5 POP JUMP JUMPDEST PUSH1 0x6 PUSH0 SWAP1 SLOAD SWAP1 PUSH2 0x100 EXP SWAP1 DIV PUSH20 0xFFFFFFFFFFFFFFFFFFFFFFFFFFFFFFFFFFFFFFFF AND PUSH20 0xFFFFFFFFFFFFFFFFFFFFFFFFFFFFFFFFFFFFFFFF AND CALLER PUSH20 0xFFFFFFFFFFFFFFFFFFFFFFFFFFFFFFFFFFFFFFFF AND EQ PUSH2 0x79F JUMPI PUSH1 0x40 MLOAD PUSH32 0x8C379A000000000000000000000000000000000000000000000000000000000 DUP2 MSTORE PUSH1 0x4 ADD PUSH2 0x796 SWAP1 PUSH2 0x2F3E JUMP JUMPDEST PUSH1 0x40 MLOAD DUP1 SWAP2 SUB SWAP1 REVERT JUMPDEST PUSH2 0x3E8 DUP2 GT ISZERO PUSH2 0x7E4 JUMPI PUSH1 0x40 MLOAD PUSH32 0x8C379A000000000000000000000000000000000000000000000000000000000 DUP2 MSTORE PUSH1 0x4 ADD PUSH2 0x7DB SWAP1 PUSH2 0x2FA6 JUMP JUMPDEST PUSH1 0x40 MLOAD DUP1 SWAP2 SUB SWAP1 REVERT JUMPDEST DUP1 PUSH1 0x5 DUP2 SWAP1 SSTORE POP POP JUMP JUMPDEST PUSH1 0x5 SLOAD DUP2 JUMP JUMPDEST PUSH1 0x6 PUSH0 SWAP1 SLOAD SWAP1 PUSH2 0x100 EXP SWAP1 DIV PUSH20 0xFFFFFFFFFFFFFFFFFFFFFFFFFFFFFFFFFFFFFFFF AND DUP2 JUMP JUMPDEST PUSH2 0x821 PUSH2 0x28C4 JUMP JUMPDEST PUSH0 PUSH0 PUSH0 DUP4 DUP2 MSTORE PUSH1 0x20 ADD SWAP1 DUP2 MSTORE PUSH1 0x20 ADD PUSH0 KECCAK256 SWAP1 POP DUP1 PUSH1 0x4 ADD PUSH0 SWAP1 SLOAD SWAP1 PUSH2 0x100 EXP SWAP1 DIV PUSH1 0xFF AND PUSH2 0x884 JUMPI PUSH1 0x40 MLOAD PUSH32 0x8C379A000000000000000000000000000000000000000000000000000000000 DUP2 MSTORE PUSH1 0x4 ADD PUSH2 0x87B SWAP1 PUSH2 0x300E JUMP JUMPDEST PUSH1 0x40 MLOAD DUP1 SWAP2 SUB SWAP1 REVERT JUMPDEST DUP1 PUSH1 0x3 ADD SLOAD CALLVALUE LT ISZERO PUSH2 0x8CB JUMPI PUSH1 0x40 MLOAD PUSH32 0x8C379A000000000000000000000000000000000000000000000000000000000 DUP2 MSTORE PUSH1 0x4 ADD PUSH2 0x8C2 SWAP1 PUSH2 0x3076 JUMP JUMPDEST PUSH1 0x40 MLOAD DUP1 SWAP2 SUB SWAP1 REVERT JUMPDEST DUP1 PUSH0 ADD PUSH0 SWAP1 SLOAD SWAP1 PUSH2 0x100 EXP SWAP1 DIV PUSH20 0xFFFFFFFFFFFFFFFFFFFFFFFFFFFFFFFFFFFFFFFF AND PUSH20 0xFFFFFFFFFFFFFFFFFFFFFFFFFFFFFFFFFFFFFFFF AND CALLER PUSH20 0xFFFFFFFFFFFFFFFFFFFFFFFFFFFFFFFFFFFFFFFF AND SUB PUSH2 0x95B JUMPI PUSH1 0x40 MLOAD PUSH32 0x8C379A000000000000000000000000000000000000000000000000000000000 DUP2 MSTORE PUSH1 0x4 ADD PUSH2 0x952 SWAP1 PUSH2 0x30DE JUMP JUMPDEST PUSH1 0x40 MLOAD DUP1 SWAP2 SUB SWAP1 REVERT JUMPDEST PUSH0 DUP2 PUSH1 0x4 ADD PUSH0 PUSH2 0x100 EXP DUP2 SLOAD DUP2 PUSH1 0xFF MUL NOT AND SWAP1 DUP4 ISZERO ISZERO MUL OR SWAP1 SSTORE POP PUSH0 PUSH2 0x2710 PUSH1 0x5 SLOAD DUP4 PUSH1 0x3 ADD SLOAD PUSH2 0x98C SWAP2 SWAP1 PUSH2 0x3129 JUMP JUMPDEST PUSH2 0x996 SWAP2 SWAP1 PUSH2 0x3197 JUMP JUMPDEST SWAP1 POP PUSH0 PUSH0 PUSH2 0x9D0 DUP5 PUSH1 0x1 ADD PUSH0 SWAP1 SLOAD SWAP1 PUSH2 0x100 EXP SWAP1 DIV PUSH20 0xFFFFFFFFFFFFFFFFFFFFFFFFFFFFFFFFFFFFFFFF AND DUP6 PUSH1 0x2 ADD SLOAD DUP7 PUSH1 0x3 ADD SLOAD PUSH2 0x28E6 JUMP JUMPDEST SWAP2 POP SWAP2 POP PUSH0 DUP2 DUP5 DUP7 PUSH1 0x3 ADD SLOAD PUSH2 0x9E6 SWAP2 SWAP1 PUSH2 0x31C7 JUMP JUMPDEST PUSH2 0x9F0 SWAP2 SWAP1 PUSH2 0x31C7 JUMP JUMPDEST SWAP1 POP DUP5 PUSH1 0x1 ADD PUSH0 SWAP1 SLOAD SWAP1 PUSH2 0x100 EXP SWAP1 DIV PUSH20 0xFFFFFFFFFFFFFFFFFFFFFFFFFFFFFFFFFFFFFFFF AND PUSH20 0xFFFFFFFFFFFFFFFFFFFFFFFFFFFFFFFFFFFFFFFF AND PUSH4 0x42842E0E DUP7 PUSH0 ADD PUSH0 SWAP1 SLOAD SWAP1 PUSH2 0x100 EXP SWAP1 DIV PUSH20 0xFFFFFFFFFFFFFFFFFFFFFFFFFFFFFFFFFFFFFFFF AND CALLER DUP9 PUSH1 0x2 ADD SLOAD PUSH1 0x40 MLOAD DUP5 PUSH4 0xFFFFFFFF AND PUSH1 0xE0 SHL DUP2 MSTORE PUSH1 0x4 ADD PUSH2 0xA78 SWAP4 SWAP3 SWAP2 SWAP1 PUSH2 0x31FA JUMP JUMPDEST PUSH0 PUSH1 0x40 MLOAD DUP1 DUP4 SUB DUP2 PUSH0 DUP8 DUP1 EXTCODESIZE ISZERO DUP1 ISZERO PUSH2 0xA8F JUMPI PUSH0 PUSH0 REVERT JUMPDEST POP GAS CALL ISZERO DUP1 ISZERO PUSH2 0xAA1 JUMPI RETURNDATASIZE PUSH0 PUSH0 RETURNDATACOPY RETURNDATASIZE PUSH0 REVERT JUMPDEST POP POP POP POP PUSH0 DUP3 GT DUP1 ISZERO PUSH2 0xAE0 JUMPI POP PUSH0 PUSH20 0xFFFFFFFFFFFFFFFFFFFFFFFFFFFFFFFFFFFFFFFF AND DUP4 PUSH20 0xFFFFFFFFFFFFFFFFFFFFFFFFFFFFFFFFFFFFFFFF AND EQ ISZERO JUMPDEST ISZERO PUSH2 0xB8F JUMPI PUSH0 DUP4 PUSH20 0xFFFFFFFFFFFFFFFFFFFFFFFFFFFFFFFFFFFFFFFF AND DUP4 PUSH1 0x40 MLOAD PUSH2 0xB0A SWAP1 PUSH2 0x2E78 JUMP JUMPDEST PUSH0 PUSH1 0x40 MLOAD DUP1 DUP4 SUB DUP2 DUP6 DUP8 GAS CALL SWAP3 POP POP POP RETURNDATASIZE DUP1 PUSH0 DUP2 EQ PUSH2 0xB44 JUMPI PUSH1 0x40 MLOAD SWAP2 POP PUSH1 0x1F NOT PUSH1 0x3F RETURNDATASIZE ADD AND DUP3 ADD PUSH1 0x40 MSTORE RETURNDATASIZE DUP3 MSTORE RETURNDATASIZE PUSH0 PUSH1 0x20 DUP5 ADD RETURNDATACOPY PUSH2 0xB49 JUMP JUMPDEST PUSH1 0x60 SWAP2 POP JUMPDEST POP POP SWAP1 POP DUP1 PUSH2 0xB8D JUMPI PUSH1 0x40 MLOAD PUSH32 0x8C379A000000000000000000000000000000000000000000000000000000000 DUP2 MSTORE PUSH1 0x4 ADD PUSH2 0xB84 SWAP1 PUSH2 0x3279 JUMP JUMPDEST PUSH1 0x40 MLOAD DUP1 SWAP2 SUB SWAP1 REVERT JUMPDEST POP JUMPDEST PUSH0 PUSH1 0x6 PUSH0 SWAP1 SLOAD SWAP1 PUSH2 0x100 EXP SWAP1 DIV PUSH20 0xFFFFFFFFFFFFFFFFFFFFFFFFFFFFFFFFFFFFFFFF AND PUSH20 0xFFFFFFFFFFFFFFFFFFFFFFFFFFFFFFFFFFFFFFFF AND DUP6 PUSH1 0x40 MLOAD PUSH2 0xBD5 SWAP1 PUSH2 0x2E78 JUMP JUMPDEST PUSH0 PUSH1 0x40 MLOAD DUP1 DUP4 SUB DUP2 DUP6 DUP8 GAS CALL SWAP3 POP POP POP RETURNDATASIZE DUP1 PUSH0 DUP2 EQ PUSH2 0xC0F JUMPI PUSH1 0x40 MLOAD SWAP2 POP PUSH1 0x1F NOT PUSH1 0x3F RETURNDATASIZE ADD AND DUP3 ADD PUSH1 0x40 MSTORE RETURNDATASIZE DUP3 MSTORE RETURNDATASIZE PUSH0 PUSH1 0x20 DUP5 ADD RETURNDATACOPY PUSH2 0xC14 JUMP JUMPDEST PUSH1 0x60 SWAP2 POP JUMPDEST POP POP SWAP1 POP DUP1 PUSH2 0xC58 JUMPI PUSH1 0x40 MLOAD PUSH32 0x8C379A000000000000000000000000000000000000000000000000000000000 DUP2 MSTORE PUSH1 0x4 ADD PUSH2 0xC4F SWAP1 PUSH2 0x32E1 JUMP JUMPDEST PUSH1 0x40 MLOAD DUP1 SWAP2 SUB SWAP1 REVERT JUMPDEST PUSH0 DUP7 PUSH0 ADD PUSH0 SWAP1 SLOAD SWAP1 PUSH2 0x100 EXP SWAP1 DIV PUSH20 0xFFFFFFFFFFFFFFFFFFFFFFFFFFFFFFFFFFFFFFFF AND PUSH20 0xFFFFFFFFFFFFFFFFFFFFFFFFFFFFFFFFFFFFFFFF AND DUP4 PUSH1 0x40 MLOAD PUSH2 0xC9F SWAP1 PUSH2 0x2E78 JUMP JUMPDEST PUSH0 PUSH1 0x40 MLOAD DUP1 DUP4 SUB DUP2 DUP6 DUP8 GAS CALL SWAP3 POP POP POP RETURNDATASIZE DUP1 PUSH0 DUP2 EQ PUSH2 0xCD9 JUMPI PUSH1 0x40 MLOAD SWAP2 POP PUSH1 0x1F NOT PUSH1 0x3F RETURNDATASIZE ADD AND DUP3 ADD PUSH1 0x40 MSTORE RETURNDATASIZE DUP3 MSTORE RETURNDATASIZE PUSH0 PUSH1 0x20 DUP5 ADD RETURNDATACOPY PUSH2 0xCDE JUMP JUMPDEST PUSH1 0x60 SWAP2 POP JUMPDEST POP POP SWAP1 POP DUP1 PUSH2 0xD22 JUMPI PUSH1 0x40 MLOAD PUSH32 0x8C379A000000000000000000000000000000000000000000000000000000000 DUP2 MSTORE PUSH1 0x4 ADD PUSH2 0xD19 SWAP1 PUSH2 0x3349 JUMP JUMPDEST PUSH1 0x40 MLOAD DUP1 SWAP2 SUB SWAP1 REVERT JUMPDEST DUP7 PUSH1 0x3 ADD SLOAD CALLVALUE GT ISZERO PUSH2 0xDE7 JUMPI PUSH0 CALLER PUSH20 0xFFFFFFFFFFFFFFFFFFFFFFFFFFFFFFFFFFFFFFFF AND DUP9 PUSH1 0x3 ADD SLOAD CALLVALUE PUSH2 0xD56 SWAP2 SWAP1 PUSH2 0x31C7 JUMP JUMPDEST PUSH1 0x40 MLOAD PUSH2 0xD62 SWAP1 PUSH2 0x2E78 JUMP JUMPDEST PUSH0 PUSH1 0x40 MLOAD DUP1 DUP4 SUB DUP2 DUP6 DUP8 GAS CALL SWAP3 POP POP POP RETURNDATASIZE DUP1 PUSH0 DUP2 EQ PUSH2 0xD9C JUMPI PUSH1 0x40 MLOAD SWAP2 POP PUSH1 0x1F NOT PUSH1 0x3F RETURNDATASIZE ADD AND DUP3 ADD PUSH1 0x40 MSTORE RETURNDATASIZE DUP3 MSTORE RETURNDATASIZE PUSH0 PUSH1 0x20 DUP5 ADD RETURNDATACOPY PUSH2 0xDA1 JUMP JUMPDEST PUSH1 0x60 SWAP2 POP JUMPDEST POP POP SWAP1 POP DUP1 PUSH2 0xDE5 JUMPI PUSH1 0x40 MLOAD PUSH32 0x8C379A000000000000000000000000000000000000000000000000000000000 DUP2 MSTORE PUSH1 0x4 ADD PUSH2 0xDDC SWAP1 PUSH2 0x33B1 JUMP JUMPDEST PUSH1 0x40 MLOAD DUP1 SWAP2 SUB SWAP1 REVERT JUMPDEST POP JUMPDEST DUP7 PUSH0 ADD PUSH0 SWAP1 SLOAD SWAP1 PUSH2 0x100 EXP SWAP1 DIV PUSH20 0xFFFFFFFFFFFFFFFFFFFFFFFFFFFFFFFFFFFFFFFF AND PUSH20 0xFFFFFFFFFFFFFFFFFFFFFFFFFFFFFFFFFFFFFFFF AND CALLER PUSH20 0xFFFFFFFFFFFFFFFFFFFFFFFFFFFFFFFFFFFFFFFF AND DUP10 PUSH32 0x8562EB94748E30BB0071E932744CE902B460C683474FCB3BFD567FFA16B1AFB2 DUP11 PUSH1 0x3 ADD SLOAD PUSH1 0x40 MLOAD PUSH2 0xE6B SWAP2 SWAP1 PUSH2 0x2BDE JUMP JUMPDEST PUSH1 0x40 MLOAD DUP1 SWAP2 SUB SWAP1 LOG4 POP POP POP POP POP POP POP PUSH2 0xE82 PUSH2 0x2A1A JUMP JUMPDEST POP JUMP JUMPDEST PUSH1 0x2 PUSH1 0x20 MSTORE DUP1 PUSH0 MSTORE PUSH1 0x40 PUSH0 KECCAK256 PUSH0 SWAP2 POP SWAP1 POP DUP1 PUSH0 ADD PUSH0 SWAP1 SLOAD SWAP1 PUSH2 0x100 EXP SWAP1 DIV PUSH20 0xFFFFFFFFFFFFFFFFFFFFFFFFFFFFFFFFFFFFFFFF AND SWAP1 DUP1 PUSH1 0x1 ADD PUSH0 SWAP1 SLOAD SWAP1 PUSH2 0x100 EXP SWAP1 DIV PUSH20 0xFFFFFFFFFFFFFFFFFFFFFFFFFFFFFFFFFFFFFFFF AND SWAP1 DUP1 PUSH1 0x2 ADD SLOAD SWAP1 DUP1 PUSH1 0x3 ADD SLOAD SWAP1 DUP1 PUSH1 0x4 ADD SLOAD SWAP1 DUP1 PUSH1 0x5 ADD PUSH0 SWAP1 SLOAD SWAP1 PUSH2 0x100 EXP SWAP1 DIV PUSH20 0xFFFFFFFFFFFFFFFFFFFFFFFFFFFFFFFFFFFFFFFF AND SWAP1 DUP1 PUSH1 0x6 ADD SLOAD SWAP1 DUP1 PUSH1 0x7 ADD PUSH0 SWAP1 SLOAD SWAP1 PUSH2 0x100 EXP SWAP1 DIV PUSH1 0xFF AND SWAP1 POP DUP9 JUMP JUMPDEST PUSH0 PUSH0 DUP4 GT PUSH2 0xF75 JUMPI PUSH1 0x40 MLOAD PUSH32 0x8C379A000000000000000000000000000000000000000000000000000000000 DUP2 MSTORE PUSH1 0x4 ADD PUSH2 0xF6C SWAP1 PUSH2 0x343F JUMP JUMPDEST PUSH1 0x40 MLOAD DUP1 SWAP2 SUB SWAP1 REVERT JUMPDEST PUSH1 0x1 DUP3 GT PUSH2 0xFB8 JUMPI PUSH1 0x40 MLOAD PUSH32 0x8C379A000000000000000000000000000000000000000000000000000000000 DUP2 MSTORE PUSH1 0x4 ADD PUSH2 0xFAF SWAP1 PUSH2 0x34CD JUMP JUMPDEST PUSH1 0x40 MLOAD DUP1 SWAP2 SUB SWAP1 REVERT JUMPDEST PUSH0 PUSH20 0xFFFFFFFFFFFFFFFFFFFFFFFFFFFFFFFFFFFFFFFF AND DUP6 PUSH20 0xFFFFFFFFFFFFFFFFFFFFFFFFFFFFFFFFFFFFFFFF AND SUB PUSH2 0x1026 JUMPI PUSH1 0x40 MLOAD PUSH32 0x8C379A000000000000000000000000000000000000000000000000000000000 DUP2 MSTORE PUSH1 0x4 ADD PUSH2 0x101D SWAP1 PUSH2 0x3535 JUMP JUMPDEST PUSH1 0x40 MLOAD DUP1 SWAP2 SUB SWAP1 REVERT JUMPDEST PUSH0 DUP6 SWAP1 POP CALLER PUSH20 0xFFFFFFFFFFFFFFFFFFFFFFFFFFFFFFFFFFFFFFFF AND DUP2 PUSH20 0xFFFFFFFFFFFFFFFFFFFFFFFFFFFFFFFFFFFFFFFF AND PUSH4 0x6352211E DUP8 PUSH1 0x40 MLOAD DUP3 PUSH4 0xFFFFFFFF AND PUSH1 0xE0 SHL DUP2 MSTORE PUSH1 0x4 ADD PUSH2 0x107A SWAP2 SWAP1 PUSH2 0x2BDE JUMP JUMPDEST PUSH1 0x20 PUSH1 0x40 MLOAD DUP1 DUP4 SUB DUP2 DUP7 GAS STATICCALL ISZERO DUP1 ISZERO PUSH2 0x1095 JUMPI RETURNDATASIZE PUSH0 PUSH0 RETURNDATACOPY RETURNDATASIZE PUSH0 REVERT JUMPDEST POP POP POP POP PUSH1 0x40 MLOAD RETURNDATASIZE PUSH1 0x1F NOT PUSH1 0x1F DUP3 ADD AND DUP3 ADD DUP1 PUSH1 0x40 MSTORE POP DUP2 ADD SWAP1 PUSH2 0x10B9 SWAP2 SWAP1 PUSH2 0x3567 JUMP JUMPDEST PUSH20 0xFFFFFFFFFFFFFFFFFFFFFFFFFFFFFFFFFFFFFFFF AND EQ PUSH2 0x110F JUMPI PUSH1 0x40 MLOAD PUSH32 0x8C379A000000000000000000000000000000000000000000000000000000000 DUP2 MSTORE PUSH1 0x4 ADD PUSH2 0x1106 SWAP1 PUSH2 0x35DC JUMP JUMPDEST PUSH1 0x40 MLOAD DUP1 SWAP2 SUB SWAP1 REVERT JUMPDEST ADDRESS PUSH20 0xFFFFFFFFFFFFFFFFFFFFFFFFFFFFFFFFFFFFFFFF AND DUP2 PUSH20 0xFFFFFFFFFFFFFFFFFFFFFFFFFFFFFFFFFFFFFFFF AND PUSH4 0x81812FC DUP8 PUSH1 0x40 MLOAD DUP3 PUSH4 0xFFFFFFFF AND PUSH1 0xE0 SHL DUP2 MSTORE PUSH1 0x4 ADD PUSH2 0x115F SWAP2 SWAP1 PUSH2 0x2BDE JUMP JUMPDEST PUSH1 0x20 PUSH1 0x40 MLOAD DUP1 DUP4 SUB DUP2 DUP7 GAS STATICCALL ISZERO DUP1 ISZERO PUSH2 0x117A JUMPI RETURNDATASIZE PUSH0 PUSH0 RETURNDATACOPY RETURNDATASIZE PUSH0 REVERT JUMPDEST POP POP POP POP PUSH1 0x40 MLOAD RETURNDATASIZE PUSH1 0x1F NOT PUSH1 0x1F DUP3 ADD AND DUP3 ADD DUP1 PUSH1 0x40 MSTORE POP DUP2 ADD SWAP1 PUSH2 0x119E SWAP2 SWAP1 PUSH2 0x3567 JUMP JUMPDEST PUSH20 0xFFFFFFFFFFFFFFFFFFFFFFFFFFFFFFFFFFFFFFFF AND EQ DUP1 PUSH2 0x1236 JUMPI POP DUP1 PUSH20 0xFFFFFFFFFFFFFFFFFFFFFFFFFFFFFFFFFFFFFFFF AND PUSH4 0xE985E9C5 CALLER ADDRESS PUSH1 0x40 MLOAD DUP4 PUSH4 0xFFFFFFFF AND PUSH1 0xE0 SHL DUP2 MSTORE PUSH1 0x4 ADD PUSH2 0x11F6 SWAP3 SWAP2 SWAP1 PUSH2 0x35FA JUMP JUMPDEST PUSH1 0x20 PUSH1 0x40 MLOAD DUP1 DUP4 SUB DUP2 DUP7 GAS STATICCALL ISZERO DUP1 ISZERO PUSH2 0x1211 JUMPI RETURNDATASIZE PUSH0 PUSH0 RETURNDATACOPY RETURNDATASIZE PUSH0 REVERT JUMPDEST POP POP POP POP PUSH1 0x40 MLOAD RETURNDATASIZE PUSH1 0x1F NOT PUSH1 0x1F DUP3 ADD AND DUP3 ADD DUP1 PUSH1 0x40 MSTORE POP DUP2 ADD SWAP1 PUSH2 0x1235 SWAP2 SWAP1 PUSH2 0x364B JUMP JUMPDEST JUMPDEST PUSH2 0x1275 JUMPI PUSH1 0x40 MLOAD PUSH32 0x8C379A000000000000000000000000000000000000000000000000000000000 DUP2 MSTORE PUSH1 0x4 ADD PUSH2 0x126C SWAP1 PUSH2 0x36C0 JUMP JUMPDEST PUSH1 0x40 MLOAD DUP1 SWAP2 SUB SWAP1 REVERT JUMPDEST PUSH1 0x3 PUSH0 DUP2 SLOAD DUP1 SWAP3 SWAP2 SWAP1 PUSH2 0x1287 SWAP1 PUSH2 0x36DE JUMP JUMPDEST SWAP2 SWAP1 POP SSTORE POP PUSH0 PUSH2 0xE10 DUP5 PUSH2 0x129B SWAP2 SWAP1 PUSH2 0x3129 JUMP JUMPDEST TIMESTAMP PUSH2 0x12A6 SWAP2 SWAP1 PUSH2 0x3725 JUMP JUMPDEST SWAP1 POP PUSH1 0x40 MLOAD DUP1 PUSH2 0x100 ADD PUSH1 0x40 MSTORE DUP1 CALLER PUSH20 0xFFFFFFFFFFFFFFFFFFFFFFFFFFFFFFFFFFFFFFFF AND DUP2 MSTORE PUSH1 0x20 ADD DUP9 PUSH20 0xFFFFFFFFFFFFFFFFFFFFFFFFFFFFFFFFFFFFFFFF AND DUP2 MSTORE PUSH1 0x20 ADD DUP8 DUP2 MSTORE PUSH1 0x20 ADD DUP7 DUP2 MSTORE PUSH1 0x20 ADD PUSH0 DUP2 MSTORE PUSH1 0x20 ADD PUSH0 PUSH20 0xFFFFFFFFFFFFFFFFFFFFFFFFFFFFFFFFFFFFFFFF AND DUP2 MSTORE PUSH1 0x20 ADD DUP3 DUP2 MSTORE PUSH1 0x20 ADD PUSH1 0x1 ISZERO ISZERO DUP2 MSTORE POP PUSH1 0x2 PUSH0 PUSH1 0x3 SLOAD DUP2 MSTORE PUSH1 0x20 ADD SWAP1 DUP2 MSTORE PUSH1 0x20 ADD PUSH0 KECCAK256 PUSH0 DUP3 ADD MLOAD DUP2 PUSH0 ADD PUSH0 PUSH2 0x100 EXP DUP2 SLOAD DUP2 PUSH20 0xFFFFFFFFFFFFFFFFFFFFFFFFFFFFFFFFFFFFFFFF MUL NOT AND SWAP1 DUP4 PUSH20 0xFFFFFFFFFFFFFFFFFFFFFFFFFFFFFFFFFFFFFFFF AND MUL OR SWAP1 SSTORE POP PUSH1 0x20 DUP3 ADD MLOAD DUP2 PUSH1 0x1 ADD PUSH0 PUSH2 0x100 EXP DUP2 SLOAD DUP2 PUSH20 0xFFFFFFFFFFFFFFFFFFFFFFFFFFFFFFFFFFFFFFFF MUL NOT AND SWAP1 DUP4 PUSH20 0xFFFFFFFFFFFFFFFFFFFFFFFFFFFFFFFFFFFFFFFF AND MUL OR SWAP1 SSTORE POP PUSH1 0x40 DUP3 ADD MLOAD DUP2 PUSH1 0x2 ADD SSTORE PUSH1 0x60 DUP3 ADD MLOAD DUP2 PUSH1 0x3 ADD SSTORE PUSH1 0x80 DUP3 ADD MLOAD DUP2 PUSH1 0x4 ADD SSTORE PUSH1 0xA0 DUP3 ADD MLOAD DUP2 PUSH1 0x5 ADD PUSH0 PUSH2 0x100 EXP DUP2 SLOAD DUP2 PUSH20 0xFFFFFFFFFFFFFFFFFFFFFFFFFFFFFFFFFFFFFFFF MUL NOT AND SWAP1 DUP4 PUSH20 0xFFFFFFFFFFFFFFFFFFFFFFFFFFFFFFFFFFFFFFFF AND MUL OR SWAP1 SSTORE POP PUSH1 0xC0 DUP3 ADD MLOAD DUP2 PUSH1 0x6 ADD SSTORE PUSH1 0xE0 DUP3 ADD MLOAD DUP2 PUSH1 0x7 ADD PUSH0 PUSH2 0x100 EXP DUP2 SLOAD DUP2 PUSH1 0xFF MUL NOT AND SWAP1 DUP4 ISZERO ISZERO MUL OR SWAP1 SSTORE POP SWAP1 POP POP DUP7 PUSH20 0xFFFFFFFFFFFFFFFFFFFFFFFFFFFFFFFFFFFFFFFF AND CALLER PUSH20 0xFFFFFFFFFFFFFFFFFFFFFFFFFFFFFFFFFFFFFFFF AND PUSH1 0x3 SLOAD PUSH32 0x6B9E486C68303EB64052E0493F906F3D93A1B7149B6B8DCFF221AEBD16C3513 DUP10 DUP10 DUP7 PUSH1 0x40 MLOAD PUSH2 0x14B8 SWAP4 SWAP3 SWAP2 SWAP1 PUSH2 0x3758 JUMP JUMPDEST PUSH1 0x40 MLOAD DUP1 SWAP2 SUB SWAP1 LOG4 PUSH1 0x3 SLOAD SWAP3 POP POP POP SWAP5 SWAP4 POP POP POP POP JUMP JUMPDEST PUSH1 0x1 SLOAD DUP2 JUMP JUMPDEST PUSH0 PUSH0 PUSH0 PUSH0 PUSH0 PUSH0 PUSH0 PUSH0 PUSH0 PUSH1 0x2 PUSH0 DUP12 DUP2 MSTORE PUSH1 0x20 ADD SWAP1 DUP2 MSTORE PUSH1 0x20 ADD PUSH0 KECCAK256 PUSH1 0x40 MLOAD DUP1 PUSH2 0x100 ADD PUSH1 0x40 MSTORE SWAP1 DUP2 PUSH0 DUP3 ADD PUSH0 SWAP1 SLOAD SWAP1 PUSH2 0x100 EXP SWAP1 DIV PUSH20 0xFFFFFFFFFFFFFFFFFFFFFFFFFFFFFFFFFFFFFFFF AND PUSH20 0xFFFFFFFFFFFFFFFFFFFFFFFFFFFFFFFFFFFFFFFF AND PUSH20 0xFFFFFFFFFFFFFFFFFFFFFFFFFFFFFFFFFFFFFFFF AND DUP2 MSTORE PUSH1 0x20 ADD PUSH1 0x1 DUP3 ADD PUSH0 SWAP1 SLOAD SWAP1 PUSH2 0x100 EXP SWAP1 DIV PUSH20 0xFFFFFFFFFFFFFFFFFFFFFFFFFFFFFFFFFFFFFFFF AND PUSH20 0xFFFFFFFFFFFFFFFFFFFFFFFFFFFFFFFFFFFFFFFF AND PUSH20 0xFFFFFFFFFFFFFFFFFFFFFFFFFFFFFFFFFFFFFFFF AND DUP2 MSTORE PUSH1 0x20 ADD PUSH1 0x2 DUP3 ADD SLOAD DUP2 MSTORE PUSH1 0x20 ADD PUSH1 0x3 DUP3 ADD SLOAD DUP2 MSTORE PUSH1 0x20 ADD PUSH1 0x4 DUP3 ADD SLOAD DUP2 MSTORE PUSH1 0x20 ADD PUSH1 0x5 DUP3 ADD PUSH0 SWAP1 SLOAD SWAP1 PUSH2 0x100 EXP SWAP1 DIV PUSH20 0xFFFFFFFFFFFFFFFFFFFFFFFFFFFFFFFFFFFFFFFF AND PUSH20 0xFFFFFFFFFFFFFFFFFFFFFFFFFFFFFFFFFFFFFFFF AND PUSH20 0xFFFFFFFFFFFFFFFFFFFFFFFFFFFFFFFFFFFFFFFF AND DUP2 MSTORE PUSH1 0x20 ADD PUSH1 0x6 DUP3 ADD SLOAD DUP2 MSTORE PUSH1 0x20 ADD PUSH1 0x7 DUP3 ADD PUSH0 SWAP1 SLOAD SWAP1 PUSH2 0x100 EXP SWAP1 DIV PUSH1 0xFF AND ISZERO ISZERO ISZERO ISZERO DUP2 MSTORE POP POP SWAP1 POP DUP1 PUSH0 ADD MLOAD DUP2 PUSH1 0x20 ADD MLOAD DUP3 PUSH1 0x40 ADD MLOAD DUP4 PUSH1 0x60 ADD MLOAD DUP5 PUSH1 0x80 ADD MLOAD DUP6 PUSH1 0xA0 ADD MLOAD DUP7 PUSH1 0xC0 ADD MLOAD DUP8 PUSH1 0xE0 ADD MLOAD SWAP9 POP SWAP9 POP SWAP9 POP SWAP9 POP SWAP9 POP SWAP9 POP SWAP9 POP SWAP9 POP POP SWAP2 SWAP4 SWAP6 SWAP8 POP SWAP2 SWAP4 SWAP6 SWAP8 JUMP JUMPDEST PUSH0 DUP2 GT PUSH2 0x16C2 JUMPI PUSH1 0x40 MLOAD PUSH32 0x8C379A000000000000000000000000000000000000000000000000000000000 DUP2 MSTORE PUSH1 0x4 ADD PUSH2 0x16B9 SWAP1 PUSH2 0x37D7 JUMP JUMPDEST PUSH1 0x40 MLOAD DUP1 SWAP2 SUB SWAP1 REVERT JUMPDEST PUSH0 PUSH0 PUSH0 DUP5 DUP2 MSTORE PUSH1 0x20 ADD SWAP1 DUP2 MSTORE PUSH1 0x20 ADD PUSH0 KECCAK256 SWAP1 POP DUP1 PUSH1 0x4 ADD PUSH0 SWAP1 SLOAD SWAP1 PUSH2 0x100 EXP SWAP1 DIV PUSH1 0xFF AND PUSH2 0x1725 JUMPI PUSH1 0x40 MLOAD PUSH32 0x8C379A000000000000000000000000000000000000000000000000000000000 DUP2 MSTORE PUSH1 0x4 ADD PUSH2 0x171C SWAP1 PUSH2 0x300E JUMP JUMPDEST PUSH1 0x40 MLOAD DUP1 SWAP2 SUB SWAP1 REVERT JUMPDEST CALLER PUSH20 0xFFFFFFFFFFFFFFFFFFFFFFFFFFFFFFFFFFFFFFFF AND DUP2 PUSH0 ADD PUSH0 SWAP1 SLOAD SWAP1 PUSH2 0x100 EXP SWAP1 DIV PUSH20 0xFFFFFFFFFFFFFFFFFFFFFFFFFFFFFFFFFFFFFFFF AND PUSH20 0xFFFFFFFFFFFFFFFFFFFFFFFFFFFFFFFFFFFFFFFF AND EQ PUSH2 0x17B5 JUMPI PUSH1 0x40 MLOAD PUSH32 0x8C379A000000000000000000000000000000000000000000000000000000000 DUP2 MSTORE PUSH1 0x4 ADD PUSH2 0x17AC SWAP1 PUSH2 0x383F JUMP JUMPDEST PUSH1 0x40 MLOAD DUP1 SWAP2 SUB SWAP1 REVERT JUMPDEST DUP2 DUP2 PUSH1 0x3 ADD DUP2 SWAP1 SSTORE POP DUP3 PUSH32 0x945C1C4E99AA89F648FBFE3DF471B916F719E16D960FCEC0737D4D56BD696838 DUP4 PUSH1 0x40 MLOAD PUSH2 0x17EE SWAP2 SWAP1 PUSH2 0x2BDE JUMP JUMPDEST PUSH1 0x40 MLOAD DUP1 SWAP2 SUB SWAP1 LOG2 POP POP POP JUMP JUMPDEST PUSH0 PUSH1 0x2 PUSH0 DUP4 DUP2 MSTORE PUSH1 0x20 ADD SWAP1 DUP2 MSTORE PUSH1 0x20 ADD PUSH0 KECCAK256 SWAP1 POP DUP1 PUSH1 0x7 ADD PUSH0 SWAP1 SLOAD SWAP1 PUSH2 0x100 EXP SWAP1 DIV PUSH1 0xFF AND PUSH2 0x185F JUMPI PUSH1 0x40 MLOAD PUSH32 0x8C379A000000000000000000000000000000000000000000000000000000000 DUP2 MSTORE PUSH1 0x4 ADD PUSH2 0x1856 SWAP1 PUSH2 0x38A7 JUMP JUMPDEST PUSH1 0x40 MLOAD DUP1 SWAP2 SUB SWAP1 REVERT JUMPDEST DUP1 PUSH1 0x6 ADD SLOAD TIMESTAMP LT PUSH2 0x18A5 JUMPI PUSH1 0x40 MLOAD PUSH32 0x8C379A000000000000000000000000000000000000000000000000000000000 DUP2 MSTORE PUSH1 0x4 ADD PUSH2 0x189C SWAP1 PUSH2 0x390F JUMP JUMPDEST PUSH1 0x40 MLOAD DUP1 SWAP2 SUB SWAP1 REVERT JUMPDEST DUP1 PUSH0 ADD PUSH0 SWAP1 SLOAD SWAP1 PUSH2 0x100 EXP SWAP1 DIV PUSH20 0xFFFFFFFFFFFFFFFFFFFFFFFFFFFFFFFFFFFFFFFF AND PUSH20 0xFFFFFFFFFFFFFFFFFFFFFFFFFFFFFFFFFFFFFFFF AND CALLER PUSH20 0xFFFFFFFFFFFFFFFFFFFFFFFFFFFFFFFFFFFFFFFF AND SUB PUSH2 0x1935 JUMPI PUSH1 0x40 MLOAD PUSH32 0x8C379A000000000000000000000000000000000000000000000000000000000 DUP2 MSTORE PUSH1 0x4 ADD PUSH2 0x192C SWAP1 PUSH2 0x3977 JUMP JUMPDEST PUSH1 0x40 MLOAD DUP1 SWAP2 SUB SWAP1 REVERT JUMPDEST PUSH0 PUSH0 DUP3 PUSH1 0x4 ADD SLOAD SUB PUSH2 0x194D JUMPI DUP2 PUSH1 0x3 ADD SLOAD SWAP1 POP PUSH2 0x197C JUMP JUMPDEST PUSH1 0x64 PUSH1 0x5 DUP4 PUSH1 0x4 ADD SLOAD PUSH2 0x1960 SWAP2 SWAP1 PUSH2 0x3129 JUMP JUMPDEST PUSH2 0x196A SWAP2 SWAP1 PUSH2 0x3197 JUMP JUMPDEST DUP3 PUSH1 0x4 ADD SLOAD PUSH2 0x1979 SWAP2 SWAP1 PUSH2 0x3725 JUMP JUMPDEST SWAP1 POP JUMPDEST DUP1 CALLVALUE LT ISZERO PUSH2 0x19BF JUMPI PUSH1 0x40 MLOAD PUSH32 0x8C379A000000000000000000000000000000000000000000000000000000000 DUP2 MSTORE PUSH1 0x4 ADD PUSH2 0x19B6 SWAP1 PUSH2 0x39DF JUMP JUMPDEST PUSH1 0x40 MLOAD DUP1 SWAP2 SUB SWAP1 REVERT JUMPDEST PUSH0 PUSH20 0xFFFFFFFFFFFFFFFFFFFFFFFFFFFFFFFFFFFFFFFF AND DUP3 PUSH1 0x5 ADD PUSH0 SWAP1 SLOAD SWAP1 PUSH2 0x100 EXP SWAP1 DIV PUSH20 0xFFFFFFFFFFFFFFFFFFFFFFFFFFFFFFFFFFFFFFFF AND PUSH20 0xFFFFFFFFFFFFFFFFFFFFFFFFFFFFFFFFFFFFFFFF AND EQ PUSH2 0x1A9F JUMPI DUP2 PUSH1 0x4 ADD SLOAD PUSH1 0x4 PUSH0 DUP6 DUP2 MSTORE PUSH1 0x20 ADD SWAP1 DUP2 MSTORE PUSH1 0x20 ADD PUSH0 KECCAK256 PUSH0 DUP5 PUSH1 0x5 ADD PUSH0 SWAP1 SLOAD SWAP1 PUSH2 0x100 EXP SWAP1 DIV PUSH20 0xFFFFFFFFFFFFFFFFFFFFFFFFFFFFFFFFFFFFFFFF AND PUSH20 0xFFFFFFFFFFFFFFFFFFFFFFFFFFFFFFFFFFFFFFFF AND PUSH20 0xFFFFFFFFFFFFFFFFFFFFFFFFFFFFFFFFFFFFFFFF AND DUP2 MSTORE PUSH1 0x20 ADD SWAP1 DUP2 MSTORE PUSH1 0x20 ADD PUSH0 KECCAK256 PUSH0 DUP3 DUP3 SLOAD PUSH2 0x1A97 SWAP2 SWAP1 PUSH2 0x3725 JUMP JUMPDEST SWAP3 POP POP DUP2 SWAP1 SSTORE POP JUMPDEST CALLVALUE DUP3 PUSH1 0x4 ADD DUP2 SWAP1 SSTORE POP CALLER DUP3 PUSH1 0x5 ADD PUSH0 PUSH2 0x100 EXP DUP2 SLOAD DUP2 PUSH20 0xFFFFFFFFFFFFFFFFFFFFFFFFFFFFFFFFFFFFFFFF MUL NOT AND SWAP1 DUP4 PUSH20 0xFFFFFFFFFFFFFFFFFFFFFFFFFFFFFFFFFFFFFFFF AND MUL OR SWAP1 SSTORE POP CALLER PUSH20 0xFFFFFFFFFFFFFFFFFFFFFFFFFFFFFFFFFFFFFFFF AND DUP4 PUSH32 0xE54EFF26401BF69B81B26F60BD85EF47F5D85275C1D268D84F68D6897431C47 CALLVALUE PUSH1 0x40 MLOAD PUSH2 0x1B31 SWAP2 SWAP1 PUSH2 0x2BDE JUMP JUMPDEST PUSH1 0x40 MLOAD DUP1 SWAP2 SUB SWAP1 LOG3 POP POP POP JUMP JUMPDEST PUSH1 0x3 SLOAD DUP2 JUMP JUMPDEST PUSH0 PUSH0 DUP3 GT PUSH2 0x1B87 JUMPI PUSH1 0x40 MLOAD PUSH32 0x8C379A000000000000000000000000000000000000000000000000000000000 DUP2 MSTORE PUSH1 0x4 ADD PUSH2 0x1B7E SWAP1 PUSH2 0x37D7 JUMP JUMPDEST PUSH1 0x40 MLOAD DUP1 SWAP2 SUB SWAP1 REVERT JUMPDEST PUSH0 PUSH20 0xFFFFFFFFFFFFFFFFFFFFFFFFFFFFFFFFFFFFFFFF AND DUP5 PUSH20 0xFFFFFFFFFFFFFFFFFFFFFFFFFFFFFFFFFFFFFFFF AND SUB PUSH2 0x1BF5 JUMPI PUSH1 0x40 MLOAD PUSH32 0x8C379A000000000000000000000000000000000000000000000000000000000 DUP2 MSTORE PUSH1 0x4 ADD PUSH2 0x1BEC SWAP1 PUSH2 0x3A47 JUMP JUMPDEST PUSH1 0x40 MLOAD DUP1 SWAP2 SUB SWAP1 REVERT JUMPDEST PUSH0 DUP5 SWAP1 POP CALLER PUSH20 0xFFFFFFFFFFFFFFFFFFFFFFFFFFFFFFFFFFFFFFFF AND DUP2 PUSH20 0xFFFFFFFFFFFFFFFFFFFFFFFFFFFFFFFFFFFFFFFF AND PUSH4 0x6352211E DUP7 PUSH1 0x40 MLOAD DUP3 PUSH4 0xFFFFFFFF AND PUSH1 0xE0 SHL DUP2 MSTORE PUSH1 0x4 ADD PUSH2 0x1C49 SWAP2 SWAP1 PUSH2 0x2BDE JUMP JUMPDEST PUSH1 0x20 PUSH1 0x40 MLOAD DUP1 DUP4 SUB DUP2 DUP7 GAS STATICCALL ISZERO DUP1 ISZERO PUSH2 0x1C64 JUMPI RETURNDATASIZE PUSH0 PUSH0 RETURNDATACOPY RETURNDATASIZE PUSH0 REVERT JUMPDEST POP POP POP POP PUSH1 0x40 MLOAD RETURNDATASIZE PUSH1 0x1F NOT PUSH1 0x1F DUP3 ADD AND DUP3 ADD DUP1 PUSH1 0x40 MSTORE POP DUP2 ADD SWAP1 PUSH2 0x1C88 SWAP2 SWAP1 PUSH2 0x3567 JUMP JUMPDEST PUSH20 0xFFFFFFFFFFFFFFFFFFFFFFFFFFFFFFFFFFFFFFFF AND EQ PUSH2 0x1CDE JUMPI PUSH1 0x40 MLOAD PUSH32 0x8C379A000000000000000000000000000000000000000000000000000000000 DUP2 MSTORE PUSH1 0x4 ADD PUSH2 0x1CD5 SWAP1 PUSH2 0x35DC JUMP JUMPDEST PUSH1 0x40 MLOAD DUP1 SWAP2 SUB SWAP1 REVERT JUMPDEST ADDRESS PUSH20 0xFFFFFFFFFFFFFFFFFFFFFFFFFFFFFFFFFFFFFFFF AND DUP2 PUSH20 0xFFFFFFFFFFFFFFFFFFFFFFFFFFFFFFFFFFFFFFFF AND PUSH4 0x81812FC DUP7 PUSH1 0x40 MLOAD DUP3 PUSH4 0xFFFFFFFF AND PUSH1 0xE0 SHL DUP2 MSTORE PUSH1 0x4 ADD PUSH2 0x1D2E SWAP2 SWAP1 PUSH2 0x2BDE JUMP JUMPDEST PUSH1 0x20 PUSH1 0x40 MLOAD DUP1 DUP4 SUB DUP2 DUP7 GAS STATICCALL ISZERO DUP1 ISZERO PUSH2 0x1D49 JUMPI RETURNDATASIZE PUSH0 PUSH0 RETURNDATACOPY RETURNDATASIZE PUSH0 REVERT JUMPDEST POP POP POP POP PUSH1 0x40 MLOAD RETURNDATASIZE PUSH1 0x1F NOT PUSH1 0x1F DUP3 ADD AND DUP3 ADD DUP1 PUSH1 0x40 MSTORE POP DUP2 ADD SWAP1 PUSH2 0x1D6D SWAP2 SWAP1 PUSH2 0x3567 JUMP JUMPDEST PUSH20 0xFFFFFFFFFFFFFFFFFFFFFFFFFFFFFFFFFFFFFFFF AND EQ DUP1 PUSH2 0x1E05 JUMPI POP DUP1 PUSH20 0xFFFFFFFFFFFFFFFFFFFFFFFFFFFFFFFFFFFFFFFF AND PUSH4 0xE985E9C5 CALLER ADDRESS PUSH1 0x40 MLOAD DUP4 PUSH4 0xFFFFFFFF AND PUSH1 0xE0 SHL DUP2 MSTORE PUSH1 0x4 ADD PUSH2 0x1DC5 SWAP3 SWAP2 SWAP1 PUSH2 0x35FA JUMP JUMPDEST PUSH1 0x20 PUSH1 0x40 MLOAD DUP1 DUP4 SUB DUP2 DUP7 GAS STATICCALL ISZERO DUP1 ISZERO PUSH2 0x1DE0 JUMPI RETURNDATASIZE PUSH0 PUSH0 RETURNDATACOPY RETURNDATASIZE PUSH0 REVERT JUMPDEST POP POP POP POP PUSH1 0x40 MLOAD RETURNDATASIZE PUSH1 0x1F NOT PUSH1 0x1F DUP3 ADD AND DUP3 ADD DUP1 PUSH1 0x40 MSTORE POP DUP2 ADD SWAP1 PUSH2 0x1E04 SWAP2 SWAP1 PUSH2 0x364B JUMP JUMPDEST JUMPDEST PUSH2 0x1E44 JUMPI PUSH1 0x40 MLOAD PUSH32 0x8C379A000000000000000000000000000000000000000000000000000000000 DUP2 MSTORE PUSH1 0x4 ADD PUSH2 0x1E3B SWAP1 PUSH2 0x36C0 JUMP JUMPDEST PUSH1 0x40 MLOAD DUP1 SWAP2 SUB SWAP1 REVERT JUMPDEST PUSH1 0x1 PUSH0 DUP2 SLOAD DUP1 SWAP3 SWAP2 SWAP1 PUSH2 0x1E56 SWAP1 PUSH2 0x36DE JUMP JUMPDEST SWAP2 SWAP1 POP SSTORE POP PUSH1 0x40 MLOAD DUP1 PUSH1 0xA0 ADD PUSH1 0x40 MSTORE DUP1 CALLER PUSH20 0xFFFFFFFFFFFFFFFFFFFFFFFFFFFFFFFFFFFFFFFF AND DUP2 MSTORE PUSH1 0x20 ADD DUP7 PUSH20 0xFFFFFFFFFFFFFFFFFFFFFFFFFFFFFFFFFFFFFFFF AND DUP2 MSTORE PUSH1 0x20 ADD DUP6 DUP2 MSTORE PUSH1 0x20 ADD DUP5 DUP2 MSTORE PUSH1 0x20 ADD PUSH1 0x1 ISZERO ISZERO DUP2 MSTORE POP PUSH0 PUSH0 PUSH1 0x1 SLOAD DUP2 MSTORE PUSH1 0x20 ADD SWAP1 DUP2 MSTORE PUSH1 0x20 ADD PUSH0 KECCAK256 PUSH0 DUP3 ADD MLOAD DUP2 PUSH0 ADD PUSH0 PUSH2 0x100 EXP DUP2 SLOAD DUP2 PUSH20 0xFFFFFFFFFFFFFFFFFFFFFFFFFFFFFFFFFFFFFFFF MUL NOT AND SWAP1 DUP4 PUSH20 0xFFFFFFFFFFFFFFFFFFFFFFFFFFFFFFFFFFFFFFFF AND MUL OR SWAP1 SSTORE POP PUSH1 0x20 DUP3 ADD MLOAD DUP2 PUSH1 0x1 ADD PUSH0 PUSH2 0x100 EXP DUP2 SLOAD DUP2 PUSH20 0xFFFFFFFFFFFFFFFFFFFFFFFFFFFFFFFFFFFFFFFF MUL NOT AND SWAP1 DUP4 PUSH20 0xFFFFFFFFFFFFFFFFFFFFFFFFFFFFFFFFFFFFFFFF AND MUL OR SWAP1 SSTORE POP PUSH1 0x40 DUP3 ADD MLOAD DUP2 PUSH1 0x2 ADD SSTORE PUSH1 0x60 DUP3 ADD MLOAD DUP2 PUSH1 0x3 ADD SSTORE PUSH1 0x80 DUP3 ADD MLOAD DUP2 PUSH1 0x4 ADD PUSH0 PUSH2 0x100 EXP DUP2 SLOAD DUP2 PUSH1 0xFF MUL NOT AND SWAP1 DUP4 ISZERO ISZERO MUL OR SWAP1 SSTORE POP SWAP1 POP POP DUP5 PUSH20 0xFFFFFFFFFFFFFFFFFFFFFFFFFFFFFFFFFFFFFFFF AND CALLER PUSH20 0xFFFFFFFFFFFFFFFFFFFFFFFFFFFFFFFFFFFFFFFF AND PUSH1 0x1 SLOAD PUSH32 0xB0FE4922AC99799C17A4130D5C045BA2ECDF6E15B75B9EA84AAF0DC28724A42B DUP8 DUP8 PUSH1 0x40 MLOAD PUSH2 0x1FE5 SWAP3 SWAP2 SWAP1 PUSH2 0x3A65 JUMP JUMPDEST PUSH1 0x40 MLOAD DUP1 SWAP2 SUB SWAP1 LOG4 PUSH1 0x1 SLOAD SWAP2 POP POP SWAP4 SWAP3 POP POP POP JUMP JUMPDEST PUSH2 0x2002 PUSH2 0x28C4 JUMP JUMPDEST PUSH0 PUSH1 0x2 PUSH0 DUP4 DUP2 MSTORE PUSH1 0x20 ADD SWAP1 DUP2 MSTORE PUSH1 0x20 ADD PUSH0 KECCAK256 SWAP1 POP DUP1 PUSH1 0x7 ADD PUSH0 SWAP1 SLOAD SWAP1 PUSH2 0x100 EXP SWAP1 DIV PUSH1 0xFF AND PUSH2 0x2066 JUMPI PUSH1 0x40 MLOAD PUSH32 0x8C379A000000000000000000000000000000000000000000000000000000000 DUP2 MSTORE PUSH1 0x4 ADD PUSH2 0x205D SWAP1 PUSH2 0x38A7 JUMP JUMPDEST PUSH1 0x40 MLOAD DUP1 SWAP2 SUB SWAP1 REVERT JUMPDEST DUP1 PUSH1 0x6 ADD SLOAD TIMESTAMP LT ISZERO PUSH2 0x20AD JUMPI PUSH1 0x40 MLOAD PUSH32 0x8C379A000000000000000000000000000000000000000000000000000000000 DUP2 MSTORE PUSH1 0x4 ADD PUSH2 0x20A4 SWAP1 PUSH2 0x3AD6 JUMP JUMPDEST PUSH1 0x40 MLOAD DUP1 SWAP2 SUB SWAP1 REVERT JUMPDEST PUSH0 DUP2 PUSH1 0x7 ADD PUSH0 PUSH2 0x100 EXP DUP2 SLOAD DUP2 PUSH1 0xFF MUL NOT AND SWAP1 DUP4 ISZERO ISZERO MUL OR SWAP1 SSTORE POP PUSH0 PUSH20 0xFFFFFFFFFFFFFFFFFFFFFFFFFFFFFFFFFFFFFFFF AND DUP2 PUSH1 0x5 ADD PUSH0 SWAP1 SLOAD SWAP1 PUSH2 0x100 EXP SWAP1 DIV PUSH20 0xFFFFFFFFFFFFFFFFFFFFFFFFFFFFFFFFFFFFFFFF AND PUSH20 0xFFFFFFFFFFFFFFFFFFFFFFFFFFFFFFFFFFFFFFFF AND EQ PUSH2 0x256E JUMPI PUSH0 PUSH2 0x2710 PUSH1 0x5 SLOAD DUP4 PUSH1 0x4 ADD SLOAD PUSH2 0x2134 SWAP2 SWAP1 PUSH2 0x3129 JUMP JUMPDEST PUSH2 0x213E SWAP2 SWAP1 PUSH2 0x3197 JUMP JUMPDEST SWAP1 POP PUSH0 PUSH0 PUSH2 0x2178 DUP5 PUSH1 0x1 ADD PUSH0 SWAP1 SLOAD SWAP1 PUSH2 0x100 EXP SWAP1 DIV PUSH20 0xFFFFFFFFFFFFFFFFFFFFFFFFFFFFFFFFFFFFFFFF AND DUP6 PUSH1 0x2 ADD SLOAD DUP7 PUSH1 0x4 ADD SLOAD PUSH2 0x28E6 JUMP JUMPDEST SWAP2 POP SWAP2 POP PUSH0 DUP2 DUP5 DUP7 PUSH1 0x4 ADD SLOAD PUSH2 0x218E SWAP2 SWAP1 PUSH2 0x31C7 JUMP JUMPDEST PUSH2 0x2198 SWAP2 SWAP1 PUSH2 0x31C7 JUMP JUMPDEST SWAP1 POP DUP5 PUSH1 0x1 ADD PUSH0 SWAP1 SLOAD SWAP1 PUSH2 0x100 EXP SWAP1 DIV PUSH20 0xFFFFFFFFFFFFFFFFFFFFFFFFFFFFFFFFFFFFFFFF AND PUSH20 0xFFFFFFFFFFFFFFFFFFFFFFFFFFFFFFFFFFFFFFFF AND PUSH4 0x42842E0E DUP7 PUSH0 ADD PUSH0 SWAP1 SLOAD SWAP1 PUSH2 0x100 EXP SWAP1 DIV PUSH20 0xFFFFFFFFFFFFFFFFFFFFFFFFFFFFFFFFFFFFFFFF AND DUP8 PUSH1 0x5 ADD PUSH0 SWAP1 SLOAD SWAP1 PUSH2 0x100 EXP SWAP1 DIV PUSH20 0xFFFFFFFFFFFFFFFFFFFFFFFFFFFFFFFFFFFFFFFF AND DUP9 PUSH1 0x2 ADD SLOAD PUSH1 0x40 MLOAD DUP5 PUSH4 0xFFFFFFFF AND PUSH1 0xE0 SHL DUP2 MSTORE PUSH1 0x4 ADD PUSH2 0x2243 SWAP4 SWAP3 SWAP2 SWAP1 PUSH2 0x31FA JUMP JUMPDEST PUSH0 PUSH1 0x40 MLOAD DUP1 DUP4 SUB DUP2 PUSH0 DUP8 DUP1 EXTCODESIZE ISZERO DUP1 ISZERO PUSH2 0x225A JUMPI PUSH0 PUSH0 REVERT JUMPDEST POP GAS CALL ISZERO DUP1 ISZERO PUSH2 0x226C JUMPI RETURNDATASIZE PUSH0 PUSH0 RETURNDATACOPY RETURNDATASIZE PUSH0 REVERT JUMPDEST POP POP POP POP PUSH0 DUP3 GT DUP1 ISZERO PUSH2 0x22AB JUMPI POP PUSH0 PUSH20 0xFFFFFFFFFFFFFFFFFFFFFFFFFFFFFFFFFFFFFFFF AND DUP4 PUSH20 0xFFFFFFFFFFFFFFFFFFFFFFFFFFFFFFFFFFFFFFFF AND EQ ISZERO JUMPDEST ISZERO PUSH2 0x235A JUMPI PUSH0 DUP4 PUSH20 0xFFFFFFFFFFFFFFFFFFFFFFFFFFFFFFFFFFFFFFFF AND DUP4 PUSH1 0x40 MLOAD PUSH2 0x22D5 SWAP1 PUSH2 0x2E78 JUMP JUMPDEST PUSH0 PUSH1 0x40 MLOAD DUP1 DUP4 SUB DUP2 DUP6 DUP8 GAS CALL SWAP3 POP POP POP RETURNDATASIZE DUP1 PUSH0 DUP2 EQ PUSH2 0x230F JUMPI PUSH1 0x40 MLOAD SWAP2 POP PUSH1 0x1F NOT PUSH1 0x3F RETURNDATASIZE ADD AND DUP3 ADD PUSH1 0x40 MSTORE RETURNDATASIZE DUP3 MSTORE RETURNDATASIZE PUSH0 PUSH1 0x20 DUP5 ADD RETURNDATACOPY PUSH2 0x2314 JUMP JUMPDEST PUSH1 0x60 SWAP2 POP JUMPDEST POP POP SWAP1 POP DUP1 PUSH2 0x2358 JUMPI PUSH1 0x40 MLOAD PUSH32 0x8C379A000000000000000000000000000000000000000000000000000000000 DUP2 MSTORE PUSH1 0x4 ADD PUSH2 0x234F SWAP1 PUSH2 0x3279 JUMP JUMPDEST PUSH1 0x40 MLOAD DUP1 SWAP2 SUB SWAP1 REVERT JUMPDEST POP JUMPDEST PUSH0 PUSH1 0x6 PUSH0 SWAP1 SLOAD SWAP1 PUSH2 0x100 EXP SWAP1 DIV PUSH20 0xFFFFFFFFFFFFFFFFFFFFFFFFFFFFFFFFFFFFFFFF AND PUSH20 0xFFFFFFFFFFFFFFFFFFFFFFFFFFFFFFFFFFFFFFFF AND DUP6 PUSH1 0x40 MLOAD PUSH2 0x23A0 SWAP1 PUSH2 0x2E78 JUMP JUMPDEST PUSH0 PUSH1 0x40 MLOAD DUP1 DUP4 SUB DUP2 DUP6 DUP8 GAS CALL SWAP3 POP POP POP RETURNDATASIZE DUP1 PUSH0 DUP2 EQ PUSH2 0x23DA JUMPI PUSH1 0x40 MLOAD SWAP2 POP PUSH1 0x1F NOT PUSH1 0x3F RETURNDATASIZE ADD AND DUP3 ADD PUSH1 0x40 MSTORE RETURNDATASIZE DUP3 MSTORE RETURNDATASIZE PUSH0 PUSH1 0x20 DUP5 ADD RETURNDATACOPY PUSH2 0x23DF JUMP JUMPDEST PUSH1 0x60 SWAP2 POP JUMPDEST POP POP SWAP1 POP DUP1 PUSH2 0x2423 JUMPI PUSH1 0x40 MLOAD PUSH32 0x8C379A000000000000000000000000000000000000000000000000000000000 DUP2 MSTORE PUSH1 0x4 ADD PUSH2 0x241A SWAP1 PUSH2 0x3B3E JUMP JUMPDEST PUSH1 0x40 MLOAD DUP1 SWAP2 SUB SWAP1 REVERT JUMPDEST PUSH0 DUP7 PUSH0 ADD PUSH0 SWAP1 SLOAD SWAP1 PUSH2 0x100 EXP SWAP1 DIV PUSH20 0xFFFFFFFFFFFFFFFFFFFFFFFFFFFFFFFFFFFFFFFF AND PUSH20 0xFFFFFFFFFFFFFFFFFFFFFFFFFFFFFFFFFFFFFFFF AND DUP4 PUSH1 0x40 MLOAD PUSH2 0x246A SWAP1 PUSH2 0x2E78 JUMP JUMPDEST PUSH0 PUSH1 0x40 MLOAD DUP1 DUP4 SUB DUP2 DUP6 DUP8 GAS CALL SWAP3 POP POP POP RETURNDATASIZE DUP1 PUSH0 DUP2 EQ PUSH2 0x24A4 JUMPI PUSH1 0x40 MLOAD SWAP2 POP PUSH1 0x1F NOT PUSH1 0x3F RETURNDATASIZE ADD AND DUP3 ADD PUSH1 0x40 MSTORE RETURNDATASIZE DUP3 MSTORE RETURNDATASIZE PUSH0 PUSH1 0x20 DUP5 ADD RETURNDATACOPY PUSH2 0x24A9 JUMP JUMPDEST PUSH1 0x60 SWAP2 POP JUMPDEST POP POP SWAP1 POP DUP1 PUSH2 0x24ED JUMPI PUSH1 0x40 MLOAD PUSH32 0x8C379A000000000000000000000000000000000000000000000000000000000 DUP2 MSTORE PUSH1 0x4 ADD PUSH2 0x24E4 SWAP1 PUSH2 0x3BA6 JUMP JUMPDEST PUSH1 0x40 MLOAD DUP1 SWAP2 SUB SWAP1 REVERT JUMPDEST DUP7 PUSH1 0x5 ADD PUSH0 SWAP1 SLOAD SWAP1 PUSH2 0x100 EXP SWAP1 DIV PUSH20 0xFFFFFFFFFFFFFFFFFFFFFFFFFFFFFFFFFFFFFFFF AND PUSH20 0xFFFFFFFFFFFFFFFFFFFFFFFFFFFFFFFFFFFFFFFF AND DUP9 PUSH32 0xD2AA34A4FDBBC6DFF6A3E56F46E0F3AE2A31D7785FF3487AA5C95C642ACEA501 DUP10 PUSH1 0x4 ADD SLOAD PUSH1 0x40 MLOAD PUSH2 0x255B SWAP2 SWAP1 PUSH2 0x2BDE JUMP JUMPDEST PUSH1 0x40 MLOAD DUP1 SWAP2 SUB SWAP1 LOG3 POP POP POP POP POP POP PUSH2 0x25BE JUMP JUMPDEST PUSH0 PUSH20 0xFFFFFFFFFFFFFFFFFFFFFFFFFFFFFFFFFFFFFFFF AND DUP3 PUSH32 0xD2AA34A4FDBBC6DFF6A3E56F46E0F3AE2A31D7785FF3487AA5C95C642ACEA501 PUSH0 PUSH1 0x40 MLOAD PUSH2 0x25B5 SWAP2 SWAP1 PUSH2 0x3C06 JUMP JUMPDEST PUSH1 0x40 MLOAD DUP1 SWAP2 SUB SWAP1 LOG3 JUMPDEST POP PUSH2 0x25C7 PUSH2 0x2A1A JUMP JUMPDEST POP JUMP JUMPDEST PUSH0 PUSH0 PUSH0 DUP4 DUP2 MSTORE PUSH1 0x20 ADD SWAP1 DUP2 MSTORE PUSH1 0x20 ADD PUSH0 KECCAK256 SWAP1 POP DUP1 PUSH1 0x4 ADD PUSH0 SWAP1 SLOAD SWAP1 PUSH2 0x100 EXP SWAP1 DIV PUSH1 0xFF AND PUSH2 0x262D JUMPI PUSH1 0x40 MLOAD PUSH32 0x8C379A000000000000000000000000000000000000000000000000000000000 DUP2 MSTORE PUSH1 0x4 ADD PUSH2 0x2624 SWAP1 PUSH2 0x3C69 JUMP JUMPDEST PUSH1 0x40 MLOAD DUP1 SWAP2 SUB SWAP1 REVERT JUMPDEST CALLER PUSH20 0xFFFFFFFFFFFFFFFFFFFFFFFFFFFFFFFFFFFFFFFF AND DUP2 PUSH0 ADD PUSH0 SWAP1 SLOAD SWAP1 PUSH2 0x100 EXP SWAP1 DIV PUSH20 0xFFFFFFFFFFFFFFFFFFFFFFFFFFFFFFFFFFFFFFFF AND PUSH20 0xFFFFFFFFFFFFFFFFFFFFFFFFFFFFFFFFFFFFFFFF AND EQ PUSH2 0x26BD JUMPI PUSH1 0x40 MLOAD PUSH32 0x8C379A000000000000000000000000000000000000000000000000000000000 DUP2 MSTORE PUSH1 0x4 ADD PUSH2 0x26B4 SWAP1 PUSH2 0x3CD1 JUMP JUMPDEST PUSH1 0x40 MLOAD DUP1 SWAP2 SUB SWAP1 REVERT JUMPDEST PUSH0 DUP2 PUSH1 0x4 ADD PUSH0 PUSH2 0x100 EXP DUP2 SLOAD DUP2 PUSH1 0xFF MUL NOT AND SWAP1 DUP4 ISZERO ISZERO MUL OR SWAP1 SSTORE POP DUP2 PUSH32 0xC0C55A6EDEAD4433D18CB1E287A0A20A2FA003A6F483BC9823D2E504D70D1C67 PUSH1 0x40 MLOAD PUSH1 0x40 MLOAD DUP1 SWAP2 SUB SWAP1 LOG2 POP POP JUMP JUMPDEST PUSH0 PUSH1 0x20 MSTORE DUP1 PUSH0 MSTORE PUSH1 0x40 PUSH0 KECCAK256 PUSH0 SWAP2 POP SWAP1 POP DUP1 PUSH0 ADD PUSH0 SWAP1 SLOAD SWAP1 PUSH2 0x100 EXP SWAP1 DIV PUSH20 0xFFFFFFFFFFFFFFFFFFFFFFFFFFFFFFFFFFFFFFFF AND SWAP1 DUP1 PUSH1 0x1 ADD PUSH0 SWAP1 SLOAD SWAP1 PUSH2 0x100 EXP SWAP1 DIV PUSH20 0xFFFFFFFFFFFFFFFFFFFFFFFFFFFFFFFFFFFFFFFF AND SWAP1 DUP1 PUSH1 0x2 ADD SLOAD SWAP1 DUP1 PUSH1 0x3 ADD SLOAD SWAP1 DUP1 PUSH1 0x4 ADD PUSH0 SWAP1 SLOAD SWAP1 PUSH2 0x100 EXP SWAP1 DIV PUSH1 0xFF AND SWAP1 POP DUP6 JUMP JUMPDEST PUSH1 0x6 PUSH0 SWAP1 SLOAD SWAP1 PUSH2 0x100 EXP SWAP1 DIV PUSH20 0xFFFFFFFFFFFFFFFFFFFFFFFFFFFFFFFFFFFFFFFF AND PUSH20 0xFFFFFFFFFFFFFFFFFFFFFFFFFFFFFFFFFFFFFFFF AND CALLER PUSH20 0xFFFFFFFFFFFFFFFFFFFFFFFFFFFFFFFFFFFFFFFF AND EQ PUSH2 0x2813 JUMPI PUSH1 0x40 MLOAD PUSH32 0x8C379A000000000000000000000000000000000000000000000000000000000 DUP2 MSTORE PUSH1 0x4 ADD PUSH2 0x280A SWAP1 PUSH2 0x3D39 JUMP JUMPDEST PUSH1 0x40 MLOAD DUP1 SWAP2 SUB SWAP1 REVERT JUMPDEST PUSH0 PUSH20 0xFFFFFFFFFFFFFFFFFFFFFFFFFFFFFFFFFFFFFFFF AND DUP2 PUSH20 0xFFFFFFFFFFFFFFFFFFFFFFFFFFFFFFFFFFFFFFFF AND SUB PUSH2 0x2881 JUMPI PUSH1 0x40 MLOAD PUSH32 0x8C379A000000000000000000000000000000000000000000000000000000000 DUP2 MSTORE PUSH1 0x4 ADD PUSH2 0x2878 SWAP1 PUSH2 0x3DA1 JUMP JUMPDEST PUSH1 0x40 MLOAD DUP1 SWAP2 SUB SWAP1 REVERT JUMPDEST DUP1 PUSH1 0x6 PUSH0 PUSH2 0x100 EXP DUP2 SLOAD DUP2 PUSH20 0xFFFFFFFFFFFFFFFFFFFFFFFFFFFFFFFFFFFFFFFF MUL NOT AND SWAP1 DUP4 PUSH20 0xFFFFFFFFFFFFFFFFFFFFFFFFFFFFFFFFFFFFFFFF AND MUL OR SWAP1 SSTORE POP POP JUMP JUMPDEST PUSH2 0x28CC PUSH2 0x2A34 JUMP JUMPDEST PUSH1 0x2 PUSH2 0x28DE PUSH2 0x28D9 PUSH2 0x2A75 JUMP JUMPDEST PUSH2 0x2A9E JUMP JUMPDEST PUSH0 ADD DUP2 SWAP1 SSTORE POP JUMP JUMPDEST PUSH0 PUSH0 DUP5 PUSH20 0xFFFFFFFFFFFFFFFFFFFFFFFFFFFFFFFFFFFFFFFF AND PUSH4 0x1FFC9A7 PUSH32 0x2A55205A00000000000000000000000000000000000000000000000000000000 PUSH1 0x40 MLOAD DUP3 PUSH4 0xFFFFFFFF AND PUSH1 0xE0 SHL DUP2 MSTORE PUSH1 0x4 ADD PUSH2 0x2941 SWAP2 SWAP1 PUSH2 0x3DF9 JUMP JUMPDEST PUSH1 0x20 PUSH1 0x40 MLOAD DUP1 DUP4 SUB DUP2 DUP7 GAS STATICCALL ISZERO DUP1 ISZERO PUSH2 0x295C JUMPI RETURNDATASIZE PUSH0 PUSH0 RETURNDATACOPY RETURNDATASIZE PUSH0 REVERT JUMPDEST POP POP POP POP PUSH1 0x40 MLOAD RETURNDATASIZE PUSH1 0x1F NOT PUSH1 0x1F DUP3 ADD AND DUP3 ADD DUP1 PUSH1 0x40 MSTORE POP DUP2 ADD SWAP1 PUSH2 0x2980 SWAP2 SWAP1 PUSH2 0x364B JUMP JUMPDEST ISZERO PUSH2 0x2A0B JUMPI DUP5 PUSH20 0xFFFFFFFFFFFFFFFFFFFFFFFFFFFFFFFFFFFFFFFF AND PUSH4 0x2A55205A DUP6 DUP6 PUSH1 0x40 MLOAD DUP4 PUSH4 0xFFFFFFFF AND PUSH1 0xE0 SHL DUP2 MSTORE PUSH1 0x4 ADD PUSH2 0x29C0 SWAP3 SWAP2 SWAP1 PUSH2 0x3A65 JUMP JUMPDEST PUSH1 0x40 DUP1 MLOAD DUP1 DUP4 SUB DUP2 DUP7 GAS STATICCALL ISZERO DUP1 ISZERO PUSH2 0x29DA JUMPI RETURNDATASIZE PUSH0 PUSH0 RETURNDATACOPY RETURNDATASIZE PUSH0 REVERT JUMPDEST POP POP POP POP PUSH1 0x40 MLOAD RETURNDATASIZE PUSH1 0x1F NOT PUSH1 0x1F DUP3 ADD AND DUP3 ADD DUP1 PUSH1 0x40 MSTORE POP DUP2 ADD SWAP1 PUSH2 0x29FE SWAP2 SWAP1 PUSH2 0x3E26 JUMP JUMPDEST DUP1 SWAP3 POP DUP2 SWAP4 POP POP POP PUSH2 0x2A12 JUMP JUMPDEST PUSH0 SWAP2 POP PUSH0 SWAP1 POP JUMPDEST SWAP4 POP SWAP4 SWAP2 POP POP JUMP JUMPDEST PUSH1 0x1 PUSH2 0x2A2C PUSH2 0x2A27 PUSH2 0x2A75 JUMP JUMPDEST PUSH2 0x2A9E JUMP JUMPDEST PUSH0 ADD DUP2 SWAP1 SSTORE POP JUMP JUMPDEST PUSH2 0x2A3C PUSH2 0x2AA7 JUMP JUMPDEST ISZERO PUSH2 0x2A73 JUMPI PUSH1 0x40 MLOAD PUSH32 0x3EE5AEB500000000000000000000000000000000000000000000000000000000 DUP2 MSTORE PUSH1 0x4 ADD PUSH1 0x40 MLOAD DUP1 SWAP2 SUB SWAP1 REVERT JUMPDEST JUMP JUMPDEST PUSH0 PUSH32 0x9B779B17422D0DF92223018B32B4D1FA46E071723D6817E2486D003BECC55F00 PUSH0 SHL SWAP1 POP SWAP1 JUMP JUMPDEST PUSH0 DUP2 SWAP1 POP SWAP2 SWAP1 POP JUMP JUMPDEST PUSH0 PUSH1 0x2 PUSH2 0x2ABA PUSH2 0x2AB5 PUSH2 0x2A75 JUMP JUMPDEST PUSH2 0x2A9E JUMP JUMPDEST PUSH0 ADD SLOAD EQ SWAP1 POP SWAP1 JUMP JUMPDEST PUSH0 PUSH0 REVERT JUMPDEST PUSH0 DUP2 SWAP1 POP SWAP2 SWAP1 POP JUMP JUMPDEST PUSH2 0x2AD9 DUP2 PUSH2 0x2AC7 JUMP JUMPDEST DUP2 EQ PUSH2 0x2AE3 JUMPI PUSH0 PUSH0 REVERT JUMPDEST POP JUMP JUMPDEST PUSH0 DUP2 CALLDATALOAD SWAP1 POP PUSH2 0x2AF4 DUP2 PUSH2 0x2AD0 JUMP JUMPDEST SWAP3 SWAP2 POP POP JUMP JUMPDEST PUSH0 PUSH1 0x20 DUP3 DUP5 SUB SLT ISZERO PUSH2 0x2B0F JUMPI PUSH2 0x2B0E PUSH2 0x2AC3 JUMP JUMPDEST JUMPDEST PUSH0 PUSH2 0x2B1C DUP5 DUP3 DUP6 ADD PUSH2 0x2AE6 JUMP JUMPDEST SWAP2 POP POP SWAP3 SWAP2 POP POP JUMP JUMPDEST PUSH0 PUSH20 0xFFFFFFFFFFFFFFFFFFFFFFFFFFFFFFFFFFFFFFFF DUP3 AND SWAP1 POP SWAP2 SWAP1 POP JUMP JUMPDEST PUSH0 PUSH2 0x2B4E DUP3 PUSH2 0x2B25 JUMP JUMPDEST SWAP1 POP SWAP2 SWAP1 POP JUMP JUMPDEST PUSH2 0x2B5E DUP2 PUSH2 0x2B44 JUMP JUMPDEST DUP3 MSTORE POP POP JUMP JUMPDEST PUSH2 0x2B6D DUP2 PUSH2 0x2AC7 JUMP JUMPDEST DUP3 MSTORE POP POP JUMP JUMPDEST PUSH0 DUP2 ISZERO ISZERO SWAP1 POP SWAP2 SWAP1 POP JUMP JUMPDEST PUSH2 0x2B87 DUP2 PUSH2 0x2B73 JUMP JUMPDEST DUP3 MSTORE POP POP JUMP JUMPDEST PUSH0 PUSH1 0xA0 DUP3 ADD SWAP1 POP PUSH2 0x2BA0 PUSH0 DUP4 ADD DUP9 PUSH2 0x2B55 JUMP JUMPDEST PUSH2 0x2BAD PUSH1 0x20 DUP4 ADD DUP8 PUSH2 0x2B55 JUMP JUMPDEST PUSH2 0x2BBA PUSH1 0x40 DUP4 ADD DUP7 PUSH2 0x2B64 JUMP JUMPDEST PUSH2 0x2BC7 PUSH1 0x60 DUP4 ADD DUP6 PUSH2 0x2B64 JUMP JUMPDEST PUSH2 0x2BD4 PUSH1 0x80 DUP4 ADD DUP5 PUSH2 0x2B7E JUMP JUMPDEST SWAP7 SWAP6 POP POP POP POP POP POP JUMP JUMPDEST PUSH0 PUSH1 0x20 DUP3 ADD SWAP1 POP PUSH2 0x2BF1 PUSH0 DUP4 ADD DUP5 PUSH2 0x2B64 JUMP JUMPDEST SWAP3 SWAP2 POP POP JUMP JUMPDEST PUSH0 PUSH1 0x20 DUP3 ADD SWAP1 POP PUSH2 0x2C0A PUSH0 DUP4 ADD DUP5 PUSH2 0x2B55 JUMP JUMPDEST SWAP3 SWAP2 POP POP JUMP JUMPDEST PUSH0 PUSH2 0x100 DUP3 ADD SWAP1 POP PUSH2 0x2C24 PUSH0 DUP4 ADD DUP12 PUSH2 0x2B55 JUMP JUMPDEST PUSH2 0x2C31 PUSH1 0x20 DUP4 ADD DUP11 PUSH2 0x2B55 JUMP JUMPDEST PUSH2 0x2C3E PUSH1 0x40 DUP4 ADD DUP10 PUSH2 0x2B64 JUMP JUMPDEST PUSH2 0x2C4B PUSH1 0x60 DUP4 ADD DUP9 PUSH2 0x2B64 JUMP JUMPDEST PUSH2 0x2C58 PUSH1 0x80 DUP4 ADD DUP8 PUSH2 0x2B64 JUMP JUMPDEST PUSH2 0x2C65 PUSH1 0xA0 DUP4 ADD DUP7 PUSH2 0x2B55 JUMP JUMPDEST PUSH2 0x2C72 PUSH1 0xC0 DUP4 ADD DUP6 PUSH2 0x2B64 JUMP JUMPDEST PUSH2 0x2C7F PUSH1 0xE0 DUP4 ADD DUP5 PUSH2 0x2B7E JUMP JUMPDEST SWAP10 SWAP9 POP POP POP POP POP POP POP POP POP JUMP JUMPDEST PUSH2 0x2C95 DUP2 PUSH2 0x2B44 JUMP JUMPDEST DUP2 EQ PUSH2 0x2C9F JUMPI PUSH0 PUSH0 REVERT JUMPDEST POP JUMP JUMPDEST PUSH0 DUP2 CALLDATALOAD SWAP1 POP PUSH2 0x2CB0 DUP2 PUSH2 0x2C8C JUMP JUMPDEST SWAP3 SWAP2 POP POP JUMP JUMPDEST PUSH0 PUSH0 PUSH0 PUSH0 PUSH1 0x80 DUP6 DUP8 SUB SLT ISZERO PUSH2 0x2CCE JUMPI PUSH2 0x2CCD PUSH2 0x2AC3 JUMP JUMPDEST JUMPDEST PUSH0 PUSH2 0x2CDB DUP8 DUP3 DUP9 ADD PUSH2 0x2CA2 JUMP JUMPDEST SWAP5 POP POP PUSH1 0x20 PUSH2 0x2CEC DUP8 DUP3 DUP9 ADD PUSH2 0x2AE6 JUMP JUMPDEST SWAP4 POP POP PUSH1 0x40 PUSH2 0x2CFD DUP8 DUP3 DUP9 ADD PUSH2 0x2AE6 JUMP JUMPDEST SWAP3 POP POP PUSH1 0x60 PUSH2 0x2D0E DUP8 DUP3 DUP9 ADD PUSH2 0x2AE6 JUMP JUMPDEST SWAP2 POP POP SWAP3 SWAP6 SWAP2 SWAP5 POP SWAP3 POP JUMP JUMPDEST PUSH0 PUSH0 PUSH1 0x40 DUP4 DUP6 SUB SLT ISZERO PUSH2 0x2D30 JUMPI PUSH2 0x2D2F PUSH2 0x2AC3 JUMP JUMPDEST JUMPDEST PUSH0 PUSH2 0x2D3D DUP6 DUP3 DUP7 ADD PUSH2 0x2AE6 JUMP JUMPDEST SWAP3 POP POP PUSH1 0x20 PUSH2 0x2D4E DUP6 DUP3 DUP7 ADD PUSH2 0x2AE6 JUMP JUMPDEST SWAP2 POP POP SWAP3 POP SWAP3 SWAP1 POP JUMP JUMPDEST PUSH0 PUSH0 PUSH0 PUSH1 0x60 DUP5 DUP7 SUB SLT ISZERO PUSH2 0x2D6F JUMPI PUSH2 0x2D6E PUSH2 0x2AC3 JUMP JUMPDEST JUMPDEST PUSH0 PUSH2 0x2D7C DUP7 DUP3 DUP8 ADD PUSH2 0x2CA2 JUMP JUMPDEST SWAP4 POP POP PUSH1 0x20 PUSH2 0x2D8D DUP7 DUP3 DUP8 ADD PUSH2 0x2AE6 JUMP JUMPDEST SWAP3 POP POP PUSH1 0x40 PUSH2 0x2D9E DUP7 DUP3 DUP8 ADD PUSH2 0x2AE6 JUMP JUMPDEST SWAP2 POP POP SWAP3 POP SWAP3 POP SWAP3 JUMP JUMPDEST PUSH0 PUSH1 0x20 DUP3 DUP5 SUB SLT ISZERO PUSH2 0x2DBD JUMPI PUSH2 0x2DBC PUSH2 0x2AC3 JUMP JUMPDEST JUMPDEST PUSH0 PUSH2 0x2DCA DUP5 DUP3 DUP6 ADD PUSH2 0x2CA2 JUMP JUMPDEST SWAP2 POP POP SWAP3 SWAP2 POP POP JUMP JUMPDEST PUSH0 DUP3 DUP3 MSTORE PUSH1 0x20 DUP3 ADD SWAP1 POP SWAP3 SWAP2 POP POP JUMP JUMPDEST PUSH32 0x4E6F2070656E64696E672072657475726E000000000000000000000000000000 PUSH0 DUP3 ADD MSTORE POP JUMP JUMPDEST PUSH0 PUSH2 0x2E17 PUSH1 0x11 DUP4 PUSH2 0x2DD3 JUMP JUMPDEST SWAP2 POP PUSH2 0x2E22 DUP3 PUSH2 0x2DE3 JUMP JUMPDEST PUSH1 0x20 DUP3 ADD SWAP1 POP SWAP2 SWAP1 POP JUMP JUMPDEST PUSH0 PUSH1 0x20 DUP3 ADD SWAP1 POP DUP2 DUP2 SUB PUSH0 DUP4 ADD MSTORE PUSH2 0x2E44 DUP2 PUSH2 0x2E0B JUMP JUMPDEST SWAP1 POP SWAP2 SWAP1 POP JUMP JUMPDEST PUSH0 DUP2 SWAP1 POP SWAP3 SWAP2 POP POP JUMP JUMPDEST POP JUMP JUMPDEST PUSH0 PUSH2 0x2E63 PUSH0 DUP4 PUSH2 0x2E4B JUMP JUMPDEST SWAP2 POP PUSH2 0x2E6E DUP3 PUSH2 0x2E55 JUMP JUMPDEST PUSH0 DUP3 ADD SWAP1 POP SWAP2 SWAP1 POP JUMP JUMPDEST PUSH0 PUSH2 0x2E82 DUP3 PUSH2 0x2E58 JUMP JUMPDEST SWAP2 POP DUP2 SWAP1 POP SWAP2 SWAP1 POP JUMP JUMPDEST PUSH32 0x426964646572207769746864726177206661696C656400000000000000000000 PUSH0 DUP3 ADD MSTORE POP JUMP JUMPDEST PUSH0 PUSH2 0x2EC0 PUSH1 0x16 DUP4 PUSH2 0x2DD3 JUMP JUMPDEST SWAP2 POP PUSH2 0x2ECB DUP3 PUSH2 0x2E8C JUMP JUMPDEST PUSH1 0x20 DUP3 ADD SWAP1 POP SWAP2 SWAP1 POP JUMP JUMPDEST PUSH0 PUSH1 0x20 DUP3 ADD SWAP1 POP DUP2 DUP2 SUB PUSH0 DUP4 ADD MSTORE PUSH2 0x2EED DUP2 PUSH2 0x2EB4 JUMP JUMPDEST SWAP1 POP SWAP2 SWAP1 POP JUMP JUMPDEST PUSH32 0x4E6F742066656520526563697069656E74000000000000000000000000000000 PUSH0 DUP3 ADD MSTORE POP JUMP JUMPDEST PUSH0 PUSH2 0x2F28 PUSH1 0x11 DUP4 PUSH2 0x2DD3 JUMP JUMPDEST SWAP2 POP PUSH2 0x2F33 DUP3 PUSH2 0x2EF4 JUMP JUMPDEST PUSH1 0x20 DUP3 ADD SWAP1 POP SWAP2 SWAP1 POP JUMP JUMPDEST PUSH0 PUSH1 0x20 DUP3 ADD SWAP1 POP DUP2 DUP2 SUB PUSH0 DUP4 ADD MSTORE PUSH2 0x2F55 DUP2 PUSH2 0x2F1C JUMP JUMPDEST SWAP1 POP SWAP2 SWAP1 POP JUMP JUMPDEST PUSH32 0x46656520746F6F20686967680000000000000000000000000000000000000000 PUSH0 DUP3 ADD MSTORE POP JUMP JUMPDEST PUSH0 PUSH2 0x2F90 PUSH1 0xC DUP4 PUSH2 0x2DD3 JUMP JUMPDEST SWAP2 POP PUSH2 0x2F9B DUP3 PUSH2 0x2F5C JUMP JUMPDEST PUSH1 0x20 DUP3 ADD SWAP1 POP SWAP2 SWAP1 POP JUMP JUMPDEST PUSH0 PUSH1 0x20 DUP3 ADD SWAP1 POP DUP2 DUP2 SUB PUSH0 DUP4 ADD MSTORE PUSH2 0x2FBD DUP2 PUSH2 0x2F84 JUMP JUMPDEST SWAP1 POP SWAP2 SWAP1 POP JUMP JUMPDEST PUSH32 0x4C697374696E67206E6F74206163746976650000000000000000000000000000 PUSH0 DUP3 ADD MSTORE POP JUMP JUMPDEST PUSH0 PUSH2 0x2FF8 PUSH1 0x12 DUP4 PUSH2 0x2DD3 JUMP JUMPDEST SWAP2 POP PUSH2 0x3003 DUP3 PUSH2 0x2FC4 JUMP JUMPDEST PUSH1 0x20 DUP3 ADD SWAP1 POP SWAP2 SWAP1 POP JUMP JUMPDEST PUSH0 PUSH1 0x20 DUP3 ADD SWAP1 POP DUP2 DUP2 SUB PUSH0 DUP4 ADD MSTORE PUSH2 0x3025 DUP2 PUSH2 0x2FEC JUMP JUMPDEST SWAP1 POP SWAP2 SWAP1 POP JUMP JUMPDEST PUSH32 0x496E73756666696369656E74207061796D656E74000000000000000000000000 PUSH0 DUP3 ADD MSTORE POP JUMP JUMPDEST PUSH0 PUSH2 0x3060 PUSH1 0x14 DUP4 PUSH2 0x2DD3 JUMP JUMPDEST SWAP2 POP PUSH2 0x306B DUP3 PUSH2 0x302C JUMP JUMPDEST PUSH1 0x20 DUP3 ADD SWAP1 POP SWAP2 SWAP1 POP JUMP JUMPDEST PUSH0 PUSH1 0x20 DUP3 ADD SWAP1 POP DUP2 DUP2 SUB PUSH0 DUP4 ADD MSTORE PUSH2 0x308D DUP2 PUSH2 0x3054 JUMP JUMPDEST SWAP1 POP SWAP2 SWAP1 POP JUMP JUMPDEST PUSH32 0x43616E6E6F742062757920796F757273656C66204E4654000000000000000000 PUSH0 DUP3 ADD MSTORE POP JUMP JUMPDEST PUSH0 PUSH2 0x30C8 PUSH1 0x17 DUP4 PUSH2 0x2DD3 JUMP JUMPDEST SWAP2 POP PUSH2 0x30D3 DUP3 PUSH2 0x3094 JUMP JUMPDEST PUSH1 0x20 DUP3 ADD SWAP1 POP SWAP2 SWAP1 POP JUMP JUMPDEST PUSH0 PUSH1 0x20 DUP3 ADD SWAP1 POP DUP2 DUP2 SUB PUSH0 DUP4 ADD MSTORE PUSH2 0x30F5 DUP2 PUSH2 0x30BC JUMP JUMPDEST SWAP1 POP SWAP2 SWAP1 POP JUMP JUMPDEST PUSH32 0x4E487B7100000000000000000000000000000000000000000000000000000000 PUSH0 MSTORE PUSH1 0x11 PUSH1 0x4 MSTORE PUSH1 0x24 PUSH0 REVERT JUMPDEST PUSH0 PUSH2 0x3133 DUP3 PUSH2 0x2AC7 JUMP JUMPDEST SWAP2 POP PUSH2 0x313E DUP4 PUSH2 0x2AC7 JUMP JUMPDEST SWAP3 POP DUP3 DUP3 MUL PUSH2 0x314C DUP2 PUSH2 0x2AC7 JUMP JUMPDEST SWAP2 POP DUP3 DUP3 DIV DUP5 EQ DUP4 ISZERO OR PUSH2 0x3163 JUMPI PUSH2 0x3162 PUSH2 0x30FC JUMP JUMPDEST JUMPDEST POP SWAP3 SWAP2 POP POP JUMP JUMPDEST PUSH32 0x4E487B7100000000000000000000000000000000000000000000000000000000 PUSH0 MSTORE PUSH1 0x12 PUSH1 0x4 MSTORE PUSH1 0x24 PUSH0 REVERT JUMPDEST PUSH0 PUSH2 0x31A1 DUP3 PUSH2 0x2AC7 JUMP JUMPDEST SWAP2 POP PUSH2 0x31AC DUP4 PUSH2 0x2AC7 JUMP JUMPDEST SWAP3 POP DUP3 PUSH2 0x31BC JUMPI PUSH2 0x31BB PUSH2 0x316A JUMP JUMPDEST JUMPDEST DUP3 DUP3 DIV SWAP1 POP SWAP3 SWAP2 POP POP JUMP JUMPDEST PUSH0 PUSH2 0x31D1 DUP3 PUSH2 0x2AC7 JUMP JUMPDEST SWAP2 POP PUSH2 0x31DC DUP4 PUSH2 0x2AC7 JUMP JUMPDEST SWAP3 POP DUP3 DUP3 SUB SWAP1 POP DUP2 DUP2 GT ISZERO PUSH2 0x31F4 JUMPI PUSH2 0x31F3 PUSH2 0x30FC JUMP JUMPDEST JUMPDEST SWAP3 SWAP2 POP POP JUMP JUMPDEST PUSH0 PUSH1 0x60 DUP3 ADD SWAP1 POP PUSH2 0x320D PUSH0 DUP4 ADD DUP7 PUSH2 0x2B55 JUMP JUMPDEST PUSH2 0x321A PUSH1 0x20 DUP4 ADD DUP6 PUSH2 0x2B55 JUMP JUMPDEST PUSH2 0x3227 PUSH1 0x40 DUP4 ADD DUP5 PUSH2 0x2B64 JUMP JUMPDEST SWAP5 SWAP4 POP POP POP POP JUMP JUMPDEST PUSH32 0x526F79616C7479207472616E73666572206661696C6564000000000000000000 PUSH0 DUP3 ADD MSTORE POP JUMP JUMPDEST PUSH0 PUSH2 0x3263 PUSH1 0x17 DUP4 PUSH2 0x2DD3 JUMP JUMPDEST SWAP2 POP PUSH2 0x326E DUP3 PUSH2 0x322F JUMP JUMPDEST PUSH1 0x20 DUP3 ADD SWAP1 POP SWAP2 SWAP1 POP JUMP JUMPDEST PUSH0 PUSH1 0x20 DUP3 ADD SWAP1 POP DUP2 DUP2 SUB PUSH0 DUP4 ADD MSTORE PUSH2 0x3290 DUP2 PUSH2 0x3257 JUMP JUMPDEST SWAP1 POP SWAP2 SWAP1 POP JUMP JUMPDEST PUSH32 0x5472616E7366657220666565206661696C656400000000000000000000000000 PUSH0 DUP3 ADD MSTORE POP JUMP JUMPDEST PUSH0 PUSH2 0x32CB PUSH1 0x13 DUP4 PUSH2 0x2DD3 JUMP JUMPDEST SWAP2 POP PUSH2 0x32D6 DUP3 PUSH2 0x3297 JUMP JUMPDEST PUSH1 0x20 DUP3 ADD SWAP1 POP SWAP2 SWAP1 POP JUMP JUMPDEST PUSH0 PUSH1 0x20 DUP3 ADD SWAP1 POP DUP2 DUP2 SUB PUSH0 DUP4 ADD MSTORE PUSH2 0x32F8 DUP2 PUSH2 0x32BF JUMP JUMPDEST SWAP1 POP SWAP2 SWAP1 POP JUMP JUMPDEST PUSH32 0x5472616E7366657220746F2073656C6C6572206661696C656421000000000000 PUSH0 DUP3 ADD MSTORE POP JUMP JUMPDEST PUSH0 PUSH2 0x3333 PUSH1 0x1A DUP4 PUSH2 0x2DD3 JUMP JUMPDEST SWAP2 POP PUSH2 0x333E DUP3 PUSH2 0x32FF JUMP JUMPDEST PUSH1 0x20 DUP3 ADD SWAP1 POP SWAP2 SWAP1 POP JUMP JUMPDEST PUSH0 PUSH1 0x20 DUP3 ADD SWAP1 POP DUP2 DUP2 SUB PUSH0 DUP4 ADD MSTORE PUSH2 0x3360 DUP2 PUSH2 0x3327 JUMP JUMPDEST SWAP1 POP SWAP2 SWAP1 POP JUMP JUMPDEST PUSH32 0x5265666F756E64206661696C6564000000000000000000000000000000000000 PUSH0 DUP3 ADD MSTORE POP JUMP JUMPDEST PUSH0 PUSH2 0x339B PUSH1 0xE DUP4 PUSH2 0x2DD3 JUMP JUMPDEST SWAP2 POP PUSH2 0x33A6 DUP3 PUSH2 0x3367 JUMP JUMPDEST PUSH1 0x20 DUP3 ADD SWAP1 POP SWAP2 SWAP1 POP JUMP JUMPDEST PUSH0 PUSH1 0x20 DUP3 ADD SWAP1 POP DUP2 DUP2 SUB PUSH0 DUP4 ADD MSTORE PUSH2 0x33C8 DUP2 PUSH2 0x338F JUMP JUMPDEST SWAP1 POP SWAP2 SWAP1 POP JUMP JUMPDEST PUSH32 0x5374617274207072696365206D7573742062652067726561746572207468616E PUSH0 DUP3 ADD MSTORE PUSH32 0x2030000000000000000000000000000000000000000000000000000000000000 PUSH1 0x20 DUP3 ADD MSTORE POP JUMP JUMPDEST PUSH0 PUSH2 0x3429 PUSH1 0x22 DUP4 PUSH2 0x2DD3 JUMP JUMPDEST SWAP2 POP PUSH2 0x3434 DUP3 PUSH2 0x33CF JUMP JUMPDEST PUSH1 0x40 DUP3 ADD SWAP1 POP SWAP2 SWAP1 POP JUMP JUMPDEST PUSH0 PUSH1 0x20 DUP3 ADD SWAP1 POP DUP2 DUP2 SUB PUSH0 DUP4 ADD MSTORE PUSH2 0x3456 DUP2 PUSH2 0x341D JUMP JUMPDEST SWAP1 POP SWAP2 SWAP1 POP JUMP JUMPDEST PUSH32 0x4475726174696F6E206D75737420626520677261746572207468616E20312068 PUSH0 DUP3 ADD MSTORE PUSH32 0x6F75727300000000000000000000000000000000000000000000000000000000 PUSH1 0x20 DUP3 ADD MSTORE POP JUMP JUMPDEST PUSH0 PUSH2 0x34B7 PUSH1 0x24 DUP4 PUSH2 0x2DD3 JUMP JUMPDEST SWAP2 POP PUSH2 0x34C2 DUP3 PUSH2 0x345D JUMP JUMPDEST PUSH1 0x40 DUP3 ADD SWAP1 POP SWAP2 SWAP1 POP JUMP JUMPDEST PUSH0 PUSH1 0x20 DUP3 ADD SWAP1 POP DUP2 DUP2 SUB PUSH0 DUP4 ADD MSTORE PUSH2 0x34E4 DUP2 PUSH2 0x34AB JUMP JUMPDEST SWAP1 POP SWAP2 SWAP1 POP JUMP JUMPDEST PUSH32 0x496E76616C6964204E465420636F6E7472616374000000000000000000000000 PUSH0 DUP3 ADD MSTORE POP JUMP JUMPDEST PUSH0 PUSH2 0x351F PUSH1 0x14 DUP4 PUSH2 0x2DD3 JUMP JUMPDEST SWAP2 POP PUSH2 0x352A DUP3 PUSH2 0x34EB JUMP JUMPDEST PUSH1 0x20 DUP3 ADD SWAP1 POP SWAP2 SWAP1 POP JUMP JUMPDEST PUSH0 PUSH1 0x20 DUP3 ADD SWAP1 POP DUP2 DUP2 SUB PUSH0 DUP4 ADD MSTORE PUSH2 0x354C DUP2 PUSH2 0x3513 JUMP JUMPDEST SWAP1 POP SWAP2 SWAP1 POP JUMP JUMPDEST PUSH0 DUP2 MLOAD SWAP1 POP PUSH2 0x3561 DUP2 PUSH2 0x2C8C JUMP JUMPDEST SWAP3 SWAP2 POP POP JUMP JUMPDEST PUSH0 PUSH1 0x20 DUP3 DUP5 SUB SLT ISZERO PUSH2 0x357C JUMPI PUSH2 0x357B PUSH2 0x2AC3 JUMP JUMPDEST JUMPDEST PUSH0 PUSH2 0x3589 DUP5 DUP3 DUP6 ADD PUSH2 0x3553 JUMP JUMPDEST SWAP2 POP POP SWAP3 SWAP2 POP POP JUMP JUMPDEST PUSH32 0x4E6F7420746865206F776E657200000000000000000000000000000000000000 PUSH0 DUP3 ADD MSTORE POP JUMP JUMPDEST PUSH0 PUSH2 0x35C6 PUSH1 0xD DUP4 PUSH2 0x2DD3 JUMP JUMPDEST SWAP2 POP PUSH2 0x35D1 DUP3 PUSH2 0x3592 JUMP JUMPDEST PUSH1 0x20 DUP3 ADD SWAP1 POP SWAP2 SWAP1 POP JUMP JUMPDEST PUSH0 PUSH1 0x20 DUP3 ADD SWAP1 POP DUP2 DUP2 SUB PUSH0 DUP4 ADD MSTORE PUSH2 0x35F3 DUP2 PUSH2 0x35BA JUMP JUMPDEST SWAP1 POP SWAP2 SWAP1 POP JUMP JUMPDEST PUSH0 PUSH1 0x40 DUP3 ADD SWAP1 POP PUSH2 0x360D PUSH0 DUP4 ADD DUP6 PUSH2 0x2B55 JUMP JUMPDEST PUSH2 0x361A PUSH1 0x20 DUP4 ADD DUP5 PUSH2 0x2B55 JUMP JUMPDEST SWAP4 SWAP3 POP POP POP JUMP JUMPDEST PUSH2 0x362A DUP2 PUSH2 0x2B73 JUMP JUMPDEST DUP2 EQ PUSH2 0x3634 JUMPI PUSH0 PUSH0 REVERT JUMPDEST POP JUMP JUMPDEST PUSH0 DUP2 MLOAD SWAP1 POP PUSH2 0x3645 DUP2 PUSH2 0x3621 JUMP JUMPDEST SWAP3 SWAP2 POP POP JUMP JUMPDEST PUSH0 PUSH1 0x20 DUP3 DUP5 SUB SLT ISZERO PUSH2 0x3660 JUMPI PUSH2 0x365F PUSH2 0x2AC3 JUMP JUMPDEST JUMPDEST PUSH0 PUSH2 0x366D DUP5 DUP3 DUP6 ADD PUSH2 0x3637 JUMP JUMPDEST SWAP2 POP POP SWAP3 SWAP2 POP POP JUMP JUMPDEST PUSH32 0x4D61726B6574706C616365206E6F7420617070726F7665640000000000000000 PUSH0 DUP3 ADD MSTORE POP JUMP JUMPDEST PUSH0 PUSH2 0x36AA PUSH1 0x18 DUP4 PUSH2 0x2DD3 JUMP JUMPDEST SWAP2 POP PUSH2 0x36B5 DUP3 PUSH2 0x3676 JUMP JUMPDEST PUSH1 0x20 DUP3 ADD SWAP1 POP SWAP2 SWAP1 POP JUMP JUMPDEST PUSH0 PUSH1 0x20 DUP3 ADD SWAP1 POP DUP2 DUP2 SUB PUSH0 DUP4 ADD MSTORE PUSH2 0x36D7 DUP2 PUSH2 0x369E JUMP JUMPDEST SWAP1 POP SWAP2 SWAP1 POP JUMP JUMPDEST PUSH0 PUSH2 0x36E8 DUP3 PUSH2 0x2AC7 JUMP JUMPDEST SWAP2 POP PUSH32 0xFFFFFFFFFFFFFFFFFFFFFFFFFFFFFFFFFFFFFFFFFFFFFFFFFFFFFFFFFFFFFFFF DUP3 SUB PUSH2 0x371A JUMPI PUSH2 0x3719 PUSH2 0x30FC JUMP JUMPDEST JUMPDEST PUSH1 0x1 DUP3 ADD SWAP1 POP SWAP2 SWAP1 POP JUMP JUMPDEST PUSH0 PUSH2 0x372F DUP3 PUSH2 0x2AC7 JUMP JUMPDEST SWAP2 POP PUSH2 0x373A DUP4 PUSH2 0x2AC7 JUMP JUMPDEST SWAP3 POP DUP3 DUP3 ADD SWAP1 POP DUP1 DUP3 GT ISZERO PUSH2 0x3752 JUMPI PUSH2 0x3751 PUSH2 0x30FC JUMP JUMPDEST JUMPDEST SWAP3 SWAP2 POP POP JUMP JUMPDEST PUSH0 PUSH1 0x60 DUP3 ADD SWAP1 POP PUSH2 0x376B PUSH0 DUP4 ADD DUP7 PUSH2 0x2B64 JUMP JUMPDEST PUSH2 0x3778 PUSH1 0x20 DUP4 ADD DUP6 PUSH2 0x2B64 JUMP JUMPDEST PUSH2 0x3785 PUSH1 0x40 DUP4 ADD DUP5 PUSH2 0x2B64 JUMP JUMPDEST SWAP5 SWAP4 POP POP POP POP JUMP JUMPDEST PUSH32 0x5072696365206D7573742062652067726561746572207468616E203000000000 PUSH0 DUP3 ADD MSTORE POP JUMP JUMPDEST PUSH0 PUSH2 0x37C1 PUSH1 0x1C DUP4 PUSH2 0x2DD3 JUMP JUMPDEST SWAP2 POP PUSH2 0x37CC DUP3 PUSH2 0x378D JUMP JUMPDEST PUSH1 0x20 DUP3 ADD SWAP1 POP SWAP2 SWAP1 POP JUMP JUMPDEST PUSH0 PUSH1 0x20 DUP3 ADD SWAP1 POP DUP2 DUP2 SUB PUSH0 DUP4 ADD MSTORE PUSH2 0x37EE DUP2 PUSH2 0x37B5 JUMP JUMPDEST SWAP1 POP SWAP2 SWAP1 POP JUMP JUMPDEST PUSH32 0x4E6F74207468652073656C6C6572000000000000000000000000000000000000 PUSH0 DUP3 ADD MSTORE POP JUMP JUMPDEST PUSH0 PUSH2 0x3829 PUSH1 0xE DUP4 PUSH2 0x2DD3 JUMP JUMPDEST SWAP2 POP PUSH2 0x3834 DUP3 PUSH2 0x37F5 JUMP JUMPDEST PUSH1 0x20 DUP3 ADD SWAP1 POP SWAP2 SWAP1 POP JUMP JUMPDEST PUSH0 PUSH1 0x20 DUP3 ADD SWAP1 POP DUP2 DUP2 SUB PUSH0 DUP4 ADD MSTORE PUSH2 0x3856 DUP2 PUSH2 0x381D JUMP JUMPDEST SWAP1 POP SWAP2 SWAP1 POP JUMP JUMPDEST PUSH32 0x41756374696F6E206E6F74206163746976650000000000000000000000000000 PUSH0 DUP3 ADD MSTORE POP JUMP JUMPDEST PUSH0 PUSH2 0x3891 PUSH1 0x12 DUP4 PUSH2 0x2DD3 JUMP JUMPDEST SWAP2 POP PUSH2 0x389C DUP3 PUSH2 0x385D JUMP JUMPDEST PUSH1 0x20 DUP3 ADD SWAP1 POP SWAP2 SWAP1 POP JUMP JUMPDEST PUSH0 PUSH1 0x20 DUP3 ADD SWAP1 POP DUP2 DUP2 SUB PUSH0 DUP4 ADD MSTORE PUSH2 0x38BE DUP2 PUSH2 0x3885 JUMP JUMPDEST SWAP1 POP SWAP2 SWAP1 POP JUMP JUMPDEST PUSH32 0x41756374696F6E20656E64656421000000000000000000000000000000000000 PUSH0 DUP3 ADD MSTORE POP JUMP JUMPDEST PUSH0 PUSH2 0x38F9 PUSH1 0xE DUP4 PUSH2 0x2DD3 JUMP JUMPDEST SWAP2 POP PUSH2 0x3904 DUP3 PUSH2 0x38C5 JUMP JUMPDEST PUSH1 0x20 DUP3 ADD SWAP1 POP SWAP2 SWAP1 POP JUMP JUMPDEST PUSH0 PUSH1 0x20 DUP3 ADD SWAP1 POP DUP2 DUP2 SUB PUSH0 DUP4 ADD MSTORE PUSH2 0x3926 DUP2 PUSH2 0x38ED JUMP JUMPDEST SWAP1 POP SWAP2 SWAP1 POP JUMP JUMPDEST PUSH32 0x53656C6C65722063616E6E6F7420626964000000000000000000000000000000 PUSH0 DUP3 ADD MSTORE POP JUMP JUMPDEST PUSH0 PUSH2 0x3961 PUSH1 0x11 DUP4 PUSH2 0x2DD3 JUMP JUMPDEST SWAP2 POP PUSH2 0x396C DUP3 PUSH2 0x392D JUMP JUMPDEST PUSH1 0x20 DUP3 ADD SWAP1 POP SWAP2 SWAP1 POP JUMP JUMPDEST PUSH0 PUSH1 0x20 DUP3 ADD SWAP1 POP DUP2 DUP2 SUB PUSH0 DUP4 ADD MSTORE PUSH2 0x398E DUP2 PUSH2 0x3955 JUMP JUMPDEST SWAP1 POP SWAP2 SWAP1 POP JUMP JUMPDEST PUSH32 0x42696420746F6F206C6F77000000000000000000000000000000000000000000 PUSH0 DUP3 ADD MSTORE POP JUMP JUMPDEST PUSH0 PUSH2 0x39C9 PUSH1 0xB DUP4 PUSH2 0x2DD3 JUMP JUMPDEST SWAP2 POP PUSH2 0x39D4 DUP3 PUSH2 0x3995 JUMP JUMPDEST PUSH1 0x20 DUP3 ADD SWAP1 POP SWAP2 SWAP1 POP JUMP JUMPDEST PUSH0 PUSH1 0x20 DUP3 ADD SWAP1 POP DUP2 DUP2 SUB PUSH0 DUP4 ADD MSTORE PUSH2 0x39F6 DUP2 PUSH2 0x39BD JUMP JUMPDEST SWAP1 POP SWAP2 SWAP1 POP JUMP JUMPDEST PUSH32 0x496E76616C6964204E465420636F6E7472616374210000000000000000000000 PUSH0 DUP3 ADD MSTORE POP JUMP JUMPDEST PUSH0 PUSH2 0x3A31 PUSH1 0x15 DUP4 PUSH2 0x2DD3 JUMP JUMPDEST SWAP2 POP PUSH2 0x3A3C DUP3 PUSH2 0x39FD JUMP JUMPDEST PUSH1 0x20 DUP3 ADD SWAP1 POP SWAP2 SWAP1 POP JUMP JUMPDEST PUSH0 PUSH1 0x20 DUP3 ADD SWAP1 POP DUP2 DUP2 SUB PUSH0 DUP4 ADD MSTORE PUSH2 0x3A5E DUP2 PUSH2 0x3A25 JUMP JUMPDEST SWAP1 POP SWAP2 SWAP1 POP JUMP JUMPDEST PUSH0 PUSH1 0x40 DUP3 ADD SWAP1 POP PUSH2 0x3A78 PUSH0 DUP4 ADD DUP6 PUSH2 0x2B64 JUMP JUMPDEST PUSH2 0x3A85 PUSH1 0x20 DUP4 ADD DUP5 PUSH2 0x2B64 JUMP JUMPDEST SWAP4 SWAP3 POP POP POP JUMP JUMPDEST PUSH32 0x41756374696F6E206E6F7420656E646564000000000000000000000000000000 PUSH0 DUP3 ADD MSTORE POP JUMP JUMPDEST PUSH0 PUSH2 0x3AC0 PUSH1 0x11 DUP4 PUSH2 0x2DD3 JUMP JUMPDEST SWAP2 POP PUSH2 0x3ACB DUP3 PUSH2 0x3A8C JUMP JUMPDEST PUSH1 0x20 DUP3 ADD SWAP1 POP SWAP2 SWAP1 POP JUMP JUMPDEST PUSH0 PUSH1 0x20 DUP3 ADD SWAP1 POP DUP2 DUP2 SUB PUSH0 DUP4 ADD MSTORE PUSH2 0x3AED DUP2 PUSH2 0x3AB4 JUMP JUMPDEST SWAP1 POP SWAP2 SWAP1 POP JUMP JUMPDEST PUSH32 0x466565207472616E73666572206661696C656400000000000000000000000000 PUSH0 DUP3 ADD MSTORE POP JUMP JUMPDEST PUSH0 PUSH2 0x3B28 PUSH1 0x13 DUP4 PUSH2 0x2DD3 JUMP JUMPDEST SWAP2 POP PUSH2 0x3B33 DUP3 PUSH2 0x3AF4 JUMP JUMPDEST PUSH1 0x20 DUP3 ADD SWAP1 POP SWAP2 SWAP1 POP JUMP JUMPDEST PUSH0 PUSH1 0x20 DUP3 ADD SWAP1 POP DUP2 DUP2 SUB PUSH0 DUP4 ADD MSTORE PUSH2 0x3B55 DUP2 PUSH2 0x3B1C JUMP JUMPDEST SWAP1 POP SWAP2 SWAP1 POP JUMP JUMPDEST PUSH32 0x53656C6C6572205472616E73666572206661696C656400000000000000000000 PUSH0 DUP3 ADD MSTORE POP JUMP JUMPDEST PUSH0 PUSH2 0x3B90 PUSH1 0x16 DUP4 PUSH2 0x2DD3 JUMP JUMPDEST SWAP2 POP PUSH2 0x3B9B DUP3 PUSH2 0x3B5C JUMP JUMPDEST PUSH1 0x20 DUP3 ADD SWAP1 POP SWAP2 SWAP1 POP JUMP JUMPDEST PUSH0 PUSH1 0x20 DUP3 ADD SWAP1 POP DUP2 DUP2 SUB PUSH0 DUP4 ADD MSTORE PUSH2 0x3BBD DUP2 PUSH2 0x3B84 JUMP JUMPDEST SWAP1 POP SWAP2 SWAP1 POP JUMP JUMPDEST PUSH0 DUP2 SWAP1 POP SWAP2 SWAP1 POP JUMP JUMPDEST PUSH0 DUP2 SWAP1 POP SWAP2 SWAP1 POP JUMP JUMPDEST PUSH0 PUSH2 0x3BF0 PUSH2 0x3BEB PUSH2 0x3BE6 DUP5 PUSH2 0x3BC4 JUMP JUMPDEST PUSH2 0x3BCD JUMP JUMPDEST PUSH2 0x2AC7 JUMP JUMPDEST SWAP1 POP SWAP2 SWAP1 POP JUMP JUMPDEST PUSH2 0x3C00 DUP2 PUSH2 0x3BD6 JUMP JUMPDEST DUP3 MSTORE POP POP JUMP JUMPDEST PUSH0 PUSH1 0x20 DUP3 ADD SWAP1 POP PUSH2 0x3C19 PUSH0 DUP4 ADD DUP5 PUSH2 0x3BF7 JUMP JUMPDEST SWAP3 SWAP2 POP POP JUMP JUMPDEST PUSH32 0x4C697374696E67206E6F74206163746976652100000000000000000000000000 PUSH0 DUP3 ADD MSTORE POP JUMP JUMPDEST PUSH0 PUSH2 0x3C53 PUSH1 0x13 DUP4 PUSH2 0x2DD3 JUMP JUMPDEST SWAP2 POP PUSH2 0x3C5E DUP3 PUSH2 0x3C1F JUMP JUMPDEST PUSH1 0x20 DUP3 ADD SWAP1 POP SWAP2 SWAP1 POP JUMP JUMPDEST PUSH0 PUSH1 0x20 DUP3 ADD SWAP1 POP DUP2 DUP2 SUB PUSH0 DUP4 ADD MSTORE PUSH2 0x3C80 DUP2 PUSH2 0x3C47 JUMP JUMPDEST SWAP1 POP SWAP2 SWAP1 POP JUMP JUMPDEST PUSH32 0x4E6F74207468652073656C6C6572210000000000000000000000000000000000 PUSH0 DUP3 ADD MSTORE POP JUMP JUMPDEST PUSH0 PUSH2 0x3CBB PUSH1 0xF DUP4 PUSH2 0x2DD3 JUMP JUMPDEST SWAP2 POP PUSH2 0x3CC6 DUP3 PUSH2 0x3C87 JUMP JUMPDEST PUSH1 0x20 DUP3 ADD SWAP1 POP SWAP2 SWAP1 POP JUMP JUMPDEST PUSH0 PUSH1 0x20 DUP3 ADD SWAP1 POP DUP2 DUP2 SUB PUSH0 DUP4 ADD MSTORE PUSH2 0x3CE8 DUP2 PUSH2 0x3CAF JUMP JUMPDEST SWAP1 POP SWAP2 SWAP1 POP JUMP JUMPDEST PUSH32 0x4E6F742066656520726563697069656E74000000000000000000000000000000 PUSH0 DUP3 ADD MSTORE POP JUMP JUMPDEST PUSH0 PUSH2 0x3D23 PUSH1 0x11 DUP4 PUSH2 0x2DD3 JUMP JUMPDEST SWAP2 POP PUSH2 0x3D2E DUP3 PUSH2 0x3CEF JUMP JUMPDEST PUSH1 0x20 DUP3 ADD SWAP1 POP SWAP2 SWAP1 POP JUMP JUMPDEST PUSH0 PUSH1 0x20 DUP3 ADD SWAP1 POP DUP2 DUP2 SUB PUSH0 DUP4 ADD MSTORE PUSH2 0x3D50 DUP2 PUSH2 0x3D17 JUMP JUMPDEST SWAP1 POP SWAP2 SWAP1 POP JUMP JUMPDEST PUSH32 0x496E76616C696420616464726573730000000000000000000000000000000000 PUSH0 DUP3 ADD MSTORE POP JUMP JUMPDEST PUSH0 PUSH2 0x3D8B PUSH1 0xF DUP4 PUSH2 0x2DD3 JUMP JUMPDEST SWAP2 POP PUSH2 0x3D96 DUP3 PUSH2 0x3D57 JUMP JUMPDEST PUSH1 0x20 DUP3 ADD SWAP1 POP SWAP2 SWAP1 POP JUMP JUMPDEST PUSH0 PUSH1 0x20 DUP3 ADD SWAP1 POP DUP2 DUP2 SUB PUSH0 DUP4 ADD MSTORE PUSH2 0x3DB8 DUP2 PUSH2 0x3D7F JUMP JUMPDEST SWAP1 POP SWAP2 SWAP1 POP JUMP JUMPDEST PUSH0 PUSH32 0xFFFFFFFF00000000000000000000000000000000000000000000000000000000 DUP3 AND SWAP1 POP SWAP2 SWAP1 POP JUMP JUMPDEST PUSH2 0x3DF3 DUP2 PUSH2 0x3DBF JUMP JUMPDEST DUP3 MSTORE POP POP JUMP JUMPDEST PUSH0 PUSH1 0x20 DUP3 ADD SWAP1 POP PUSH2 0x3E0C PUSH0 DUP4 ADD DUP5 PUSH2 0x3DEA JUMP JUMPDEST SWAP3 SWAP2 POP POP JUMP JUMPDEST PUSH0 DUP2 MLOAD SWAP1 POP PUSH2 0x3E20 DUP2 PUSH2 0x2AD0 JUMP JUMPDEST SWAP3 SWAP2 POP POP JUMP JUMPDEST PUSH0 PUSH0 PUSH1 0x40 DUP4 DUP6 SUB SLT ISZERO PUSH2 0x3E3C JUMPI PUSH2 0x3E3B PUSH2 0x2AC3 JUMP JUMPDEST JUMPDEST PUSH0 PUSH2 0x3E49 DUP6 DUP3 DUP7 ADD PUSH2 0x3553 JUMP JUMPDEST SWAP3 POP POP PUSH1 0x20 PUSH2 0x3E5A DUP6 DUP3 DUP7 ADD PUSH2 0x3E12 JUMP JUMPDEST SWAP2 POP POP SWAP3 POP SWAP3 SWAP1 POP JUMP INVALID LOG2 PUSH5 0x6970667358 0x22 SLT KECCAK256 PUSH21 0xC7B0B6FFBDB5F3A83231240B079F56175FC229B905 SHR 0xA8 DATALOADN 0x33CE 0xB2 SWAP4 GAS PUSH24 0xB464736F6C63430008220033000000000000000000000000 "
		},
		"gasEstimates": {
			"creation": {
				"codeDepositCost": "3205200",
				"executionCost": "infinite",
				"totalCost": "infinite"
			},
			"external": {
				"auctionCounter()": "2514",
				"auctions(uint256)": "infinite",
				"buyNFT(uint256)": "infinite",
				"createAuction(address,uint256,uint256,uint256)": "infinite",
				"delistNFT(uint256)": "30312",
				"endAuction(uint256)": "infinite",
				"feeRecipient()": "2531",
				"getAuction(uint256)": "infinite",
				"getListing(uint256)": "infinite",
				"listNFT(address,uint256,uint256)": "infinite",
				"listingCounter()": "2536",
				"listings(uint256)": "infinite",
				"placeBid(uint256)": "infinite",
				"platformFee()": "2515",
				"setPlatformFee(uint256)": "24778",
				"updateFeeRecipient(address)": "27028",
				"updatePrice(uint256,uint256)": "infinite",
				"withdrawBid(uint256)": "infinite"
			},
			"internal": {
				"_getRoyaltyInfo(address,uint256,uint256)": "infinite"
			}
		},
		"methodIdentifiers": {
			"auctionCounter()": "a7e76644",
			"auctions(uint256)": "571a26a0",
			"buyNFT(uint256)": "51ed8288",
			"createAuction(address,uint256,uint256,uint256)": "61beb1d7",
			"delistNFT(uint256)": "cb917b9c",
			"endAuction(uint256)": "b9a2de3a",
			"feeRecipient()": "46904840",
			"getAuction(uint256)": "78bd7935",
			"getListing(uint256)": "107a274a",
			"listNFT(address,uint256,uint256)": "ad05f1b4",
			"listingCounter()": "6c2c9c7d",
			"listings(uint256)": "de74e57b",
			"placeBid(uint256)": "9979ef45",
			"platformFee()": "26232a2e",
			"setPlatformFee(uint256)": "12e8e2c3",
			"updateFeeRecipient(address)": "f160d369",
			"updatePrice(uint256,uint256)": "82367b2d",
			"withdrawBid(uint256)": "0eaaf4c8"
		}
	},
	"abi": [
		{
			"inputs": [
				{
					"internalType": "address",
					"name": "_feeRecipient",
					"type": "address"
				}
			],
			"stateMutability": "nonpayable",
			"type": "constructor"
		},
		{
			"inputs": [],
			"name": "ReentrancyGuardReentrantCall",
			"type": "error"
		},
		{
			"anonymous": false,
			"inputs": [
				{
					"indexed": true,
					"internalType": "uint256",
					"name": "auctionId",
					"type": "uint256"
				},
				{
					"indexed": true,
					"internalType": "address",
					"name": "seller",
					"type": "address"
				},
				{
					"indexed": true,
					"internalType": "address",
					"name": "nftContract",
					"type": "address"
				},
				{
					"indexed": false,
					"internalType": "uint256",
					"name": "tokenId",
					"type": "uint256"
				},
				{
					"indexed": false,
					"internalType": "uint256",
					"name": "startPrice",
					"type": "uint256"
				},
				{
					"indexed": false,
					"internalType": "uint256",
					"name": "endTime",
					"type": "uint256"
				}
			],
			"name": "AuctionCreated",
			"type": "event"
		},
		{
			"anonymous": false,
			"inputs": [
				{
					"indexed": true,
					"internalType": "uint256",
					"name": "auctionId",
					"type": "uint256"
				},
				{
					"indexed": true,
					"internalType": "address",
					"name": "winner",
					"type": "address"
				},
				{
					"indexed": false,
					"internalType": "uint256",
					"name": "finalPrice",
					"type": "uint256"
				}
			],
			"name": "AuctionEnded",
			"type": "event"
		},
		{
			"anonymous": false,
			"inputs": [
				{
					"indexed": true,
					"internalType": "uint256",
					"name": "auctionId",
					"type": "uint256"
				},
				{
					"indexed": true,
					"internalType": "address",
					"name": "buyer",
					"type": "address"
				},
				{
					"indexed": false,
					"internalType": "uint256",
					"name": "amount",
					"type": "uint256"
				}
			],
			"name": "BidPlaced",
			"type": "event"
		},
		{
			"anonymous": false,
			"inputs": [
				{
					"indexed": true,
					"internalType": "uint256",
					"name": "listingId",
					"type": "uint256"
				}
			],
			"name": "NFTDelisted",
			"type": "event"
		},
		{
			"anonymous": false,
			"inputs": [
				{
					"indexed": true,
					"internalType": "uint256",
					"name": "listingId",
					"type": "uint256"
				},
				{
					"indexed": true,
					"internalType": "address",
					"name": "seller",
					"type": "address"
				},
				{
					"indexed": true,
					"internalType": "address",
					"name": "nftContract",
					"type": "address"
				},
				{
					"indexed": false,
					"internalType": "uint256",
					"name": "tokenId",
					"type": "uint256"
				},
				{
					"indexed": false,
					"internalType": "uint256",
					"name": "price",
					"type": "uint256"
				}
			],
			"name": "NFTListed",
			"type": "event"
		},
		{
			"anonymous": false,
			"inputs": [
				{
					"indexed": true,
					"internalType": "uint256",
					"name": "listingId",
					"type": "uint256"
				},
				{
					"indexed": true,
					"internalType": "address",
					"name": "buyer",
					"type": "address"
				},
				{
					"indexed": true,
					"internalType": "address",
					"name": "seller",
					"type": "address"
				},
				{
					"indexed": false,
					"internalType": "uint256",
					"name": "price",
					"type": "uint256"
				}
			],
			"name": "NFTSold",
			"type": "event"
		},
		{
			"anonymous": false,
			"inputs": [
				{
					"indexed": true,
					"internalType": "uint256",
					"name": "listingId",
					"type": "uint256"
				},
				{
					"indexed": false,
					"internalType": "uint256",
					"name": "newPrice",
					"type": "uint256"
				}
			],
			"name": "PriceUpdated",
			"type": "event"
		},
		{
			"inputs": [],
			"name": "auctionCounter",
			"outputs": [
				{
					"internalType": "uint256",
					"name": "",
					"type": "uint256"
				}
			],
			"stateMutability": "view",
			"type": "function"
		},
		{
			"inputs": [
				{
					"internalType": "uint256",
					"name": "",
					"type": "uint256"
				}
			],
			"name": "auctions",
			"outputs": [
				{
					"internalType": "address",
					"name": "seller",
					"type": "address"
				},
				{
					"internalType": "address",
					"name": "nftContract",
					"type": "address"
				},
				{
					"internalType": "uint256",
					"name": "tokenId",
					"type": "uint256"
				},
				{
					"internalType": "uint256",
					"name": "startPrice",
					"type": "uint256"
				},
				{
					"internalType": "uint256",
					"name": "highestBid",
					"type": "uint256"
				},
				{
					"internalType": "address",
					"name": "highestBidder",
					"type": "address"
				},
				{
					"internalType": "uint256",
					"name": "endTime",
					"type": "uint256"
				},
				{
					"internalType": "bool",
					"name": "active",
					"type": "bool"
				}
			],
			"stateMutability": "view",
			"type": "function"
		},
		{
			"inputs": [
				{
					"internalType": "uint256",
					"name": "listingId",
					"type": "uint256"
				}
			],
			"name": "buyNFT",
			"outputs": [],
			"stateMutability": "payable",
			"type": "function"
		},
		{
			"inputs": [
				{
					"internalType": "address",
					"name": "nftContract",
					"type": "address"
				},
				{
					"internalType": "uint256",
					"name": "tokenId",
					"type": "uint256"
				},
				{
					"internalType": "uint256",
					"name": "startPrice",
					"type": "uint256"
				},
				{
					"internalType": "uint256",
					"name": "durationHours",
					"type": "uint256"
				}
			],
			"name": "createAuction",
			"outputs": [
				{
					"internalType": "uint256",
					"name": "",
					"type": "uint256"
				}
			],
			"stateMutability": "nonpayable",
			"type": "function"
		},
		{
			"inputs": [
				{
					"internalType": "uint256",
					"name": "listingId",
					"type": "uint256"
				}
			],
			"name": "delistNFT",
			"outputs": [],
			"stateMutability": "nonpayable",
			"type": "function"
		},
		{
			"inputs": [
				{
					"internalType": "uint256",
					"name": "auctionId",
					"type": "uint256"
				}
			],
			"name": "endAuction",
			"outputs": [],
			"stateMutability": "nonpayable",
			"type": "function"
		},
		{
			"inputs": [],
			"name": "feeRecipient",
			"outputs": [
				{
					"internalType": "address",
					"name": "",
					"type": "address"
				}
			],
			"stateMutability": "view",
			"type": "function"
		},
		{
			"inputs": [
				{
					"internalType": "uint256",
					"name": "auctionId",
					"type": "uint256"
				}
			],
			"name": "getAuction",
			"outputs": [
				{
					"internalType": "address",
					"name": "seller",
					"type": "address"
				},
				{
					"internalType": "address",
					"name": "nftContract",
					"type": "address"
				},
				{
					"internalType": "uint256",
					"name": "tokenId",
					"type": "uint256"
				},
				{
					"internalType": "uint256",
					"name": "startPrice",
					"type": "uint256"
				},
				{
					"internalType": "uint256",
					"name": "highestBid",
					"type": "uint256"
				},
				{
					"internalType": "address",
					"name": "highestBidder",
					"type": "address"
				},
				{
					"internalType": "uint256",
					"name": "endTime",
					"type": "uint256"
				},
				{
					"internalType": "bool",
					"name": "active",
					"type": "bool"
				}
			],
			"stateMutability": "view",
			"type": "function"
		},
		{
			"inputs": [
				{
					"internalType": "uint256",
					"name": "listingId",
					"type": "uint256"
				}
			],
			"name": "getListing",
			"outputs": [
				{
					"internalType": "address",
					"name": "seller",
					"type": "address"
				},
				{
					"internalType": "address",
					"name": "nftContract",
					"type": "address"
				},
				{
					"internalType": "uint256",
					"name": "tokenId",
					"type": "uint256"
				},
				{
					"internalType": "uint256",
					"name": "price",
					"type": "uint256"
				},
				{
					"internalType": "bool",
					"name": "active",
					"type": "bool"
				}
			],
			"stateMutability": "view",
			"type": "function"
		},
		{
			"inputs": [
				{
					"internalType": "address",
					"name": "nftContract",
					"type": "address"
				},
				{
					"internalType": "uint256",
					"name": "tokenId",
					"type": "uint256"
				},
				{
					"internalType": "uint256",
					"name": "price",
					"type": "uint256"
				}
			],
			"name": "listNFT",
			"outputs": [
				{
					"internalType": "uint256",
					"name": "",
					"type": "uint256"
				}
			],
			"stateMutability": "nonpayable",
			"type": "function"
		},
		{
			"inputs": [],
			"name": "listingCounter",
			"outputs": [
				{
					"internalType": "uint256",
					"name": "",
					"type": "uint256"
				}
			],
			"stateMutability": "view",
			"type": "function"
		},
		{
			"inputs": [
				{
					"internalType": "uint256",
					"name": "",
					"type": "uint256"
				}
			],
			"name": "listings",
			"outputs": [
				{
					"internalType": "address",
					"name": "seller",
					"type": "address"
				},
				{
					"internalType": "address",
					"name": "nftContract",
					"type": "address"
				},
				{
					"internalType": "uint256",
					"name": "tokenId",
					"type": "uint256"
				},
				{
					"internalType": "uint256",
					"name": "price",
					"type": "uint256"
				},
				{
					"internalType": "bool",
					"name": "active",
					"type": "bool"
				}
			],
			"stateMutability": "view",
			"type": "function"
		},
		{
			"inputs": [
				{
					"internalType": "uint256",
					"name": "auctionId",
					"type": "uint256"
				}
			],
			"name": "placeBid",
			"outputs": [],
			"stateMutability": "payable",
			"type": "function"
		},
		{
			"inputs": [],
			"name": "platformFee",
			"outputs": [
				{
					"internalType": "uint256",
					"name": "",
					"type": "uint256"
				}
			],
			"stateMutability": "view",
			"type": "function"
		},
		{
			"inputs": [
				{
					"internalType": "uint256",
					"name": "newFee",
					"type": "uint256"
				}
			],
			"name": "setPlatformFee",
			"outputs": [],
			"stateMutability": "nonpayable",
			"type": "function"
		},
		{
			"inputs": [
				{
					"internalType": "address",
					"name": "newRecipient",
					"type": "address"
				}
			],
			"name": "updateFeeRecipient",
			"outputs": [],
			"stateMutability": "nonpayable",
			"type": "function"
		},
		{
			"inputs": [
				{
					"internalType": "uint256",
					"name": "listingId",
					"type": "uint256"
				},
				{
					"internalType": "uint256",
					"name": "newPrice",
					"type": "uint256"
				}
			],
			"name": "updatePrice",
			"outputs": [],
			"stateMutability": "nonpayable",
			"type": "function"
		},
		{
			"inputs": [
				{
					"internalType": "uint256",
					"name": "auctionId",
					"type": "uint256"
				}
			],
			"name": "withdrawBid",
			"outputs": [],
			"stateMutability": "nonpayable",
			"type": "function"
		}
	]
}