{
	"data": {
		"bytecode": {
			"linkReferences": {},
			"object": "6080604052348015600e575f5ffd5b5061091c8061001c5f395ff3fe608060405234801561000f575f5ffd5b506004361061004a575f3560e01c8063421b2d8b1461004e57806353ed51431461006a578063723331bb1461008857806398575188146100b8575b5f5ffd5b6100686004803603810190610063919061055c565b6100d4565b005b61007261013e565b60405161007f919061063e565b60405180910390f35b6100a2600480360381019061009d9190610691565b61014e565b6040516100af91906106cb565b60405180910390f35b6100d260048036038101906100cd919061055c565b6101b3565b005b6100e7815f61021c90919063ffffffff16565b15610127576040517f08c379a000000000000000000000000000000000000000000000000000000000815260040161011e9061073e565b60405180910390fd5b61013a815f61024990919063ffffffff16565b5050565b60606101495f610276565b905090565b5f6101585f610295565b8210610199576040517f08c379a0000000000000000000000000000000000000000000000000000000008152600401610190906107a6565b60405180910390fd5b6101ac825f6102a890919063ffffffff16565b9050919050565b6101c6815f61021c90919063ffffffff16565b610205576040517f08c379a00000000000000000000000000000000000000000000000000000000081526004016101fc9061080e565b60405180910390fd5b610218815f6102bf90919063ffffffff16565b5050565b5f610241835f018373ffffffffffffffffffffffffffffffffffffffff165f1b6102ec565b905092915050565b5f61026e835f018373ffffffffffffffffffffffffffffffffffffffff165f1b61030c565b905092915050565b60605f610284835f01610373565b905060608190508092505050919050565b5f6102a1825f016103cc565b9050919050565b5f6102b5835f01836103db565b5f1c905092915050565b5f6102e4835f018373ffffffffffffffffffffffffffffffffffffffff165f1b610402565b905092915050565b5f5f836001015f8481526020019081526020015f20541415905092915050565b5f61031783836102ec565b61036957825f0182908060018154018082558091505060019003905f5260205f20015f9091909190915055825f0180549050836001015f8481526020019081526020015f20819055506001905061036d565b5f90505b92915050565b6060815f018054806020026020016040519081016040528092919081815260200182805480156103c057602002820191905f5260205f20905b8154815260200190600101908083116103ac575b50505050509050919050565b5f815f01805490509050919050565b5f825f0182815481106103f1576103f061082c565b5b905f5260205f200154905092915050565b5f5f836001015f8481526020019081526020015f205490505f81146104f3575f60018261042f9190610886565b90505f6001865f01805490506104459190610886565b90508082146104ab575f865f0182815481106104645761046361082c565b5b905f5260205f200154905080875f0184815481106104855761048461082c565b5b905f5260205f20018190555083876001015f8381526020019081526020015f2081905550505b855f018054806104be576104bd6108b9565b5b600190038181905f5260205f20015f90559055856001015f8681526020019081526020015f205f9055600193505050506104f8565b5f9150505b92915050565b5f5ffd5b5f73ffffffffffffffffffffffffffffffffffffffff82169050919050565b5f61052b82610502565b9050919050565b61053b81610521565b8114610545575f5ffd5b50565b5f8135905061055681610532565b92915050565b5f60208284031215610571576105706104fe565b5b5f61057e84828501610548565b91505092915050565b5f81519050919050565b5f82825260208201905092915050565b5f819050602082019050919050565b6105b981610521565b82525050565b5f6105ca83836105b0565b60208301905092915050565b5f602082019050919050565b5f6105ec82610587565b6105f68185610591565b9350610601836105a1565b805f5b8381101561063157815161061888826105bf565b9750610623836105d6565b925050600181019050610604565b5085935050505092915050565b5f6020820190508181035f83015261065681846105e2565b905092915050565b5f819050919050565b6106708161065e565b811461067a575f5ffd5b50565b5f8135905061068b81610667565b92915050565b5f602082840312156106a6576106a56104fe565b5b5f6106b38482850161067d565b91505092915050565b6106c581610521565b82525050565b5f6020820190506106de5f8301846106bc565b92915050565b5f82825260208201905092915050565b7f416c7265616479206578697374210000000000000000000000000000000000005f82015250565b5f610728600e836106e4565b9150610733826106f4565b602082019050919050565b5f6020820190508181035f8301526107558161071c565b9050919050565b7f496e646578206f7574206f6620626f756e6473210000000000000000000000005f82015250565b5f6107906014836106e4565b915061079b8261075c565b602082019050919050565b5f6020820190508181035f8301526107bd81610784565b9050919050565b7f55736572206e6f742065786973742100000000000000000000000000000000005f82015250565b5f6107f8600f836106e4565b9150610803826107c4565b602082019050919050565b5f6020820190508181035f830152610825816107ec565b9050919050565b7f4e487b71000000000000000000000000000000000000000000000000000000005f52603260045260245ffd5b7f4e487b71000000000000000000000000000000000000000000000000000000005f52601160045260245ffd5b5f6108908261065e565b915061089b8361065e565b92508282039050818111156108b3576108b2610859565b5b92915050565b7f4e487b71000000000000000000000000000000000000000000000000000000005f52603160045260245ffdfea264697066735822122097d3b2fff8d1063766f45c35a54d598b01839963595860fe339da541faeccafa64736f6c63430008220033",
			"opcodes": "PUSH1 0x80 PUSH1 0x40 MSTORE CALLVALUE DUP1 ISZERO PUSH1 0xE JUMPI PUSH0 PUSH0 REVERT JUMPDEST POP PUSH2 0x91C DUP1 PUSH2 0x1C PUSH0 CODECOPY PUSH0 RETURN INVALID PUSH1 0x80 PUSH1 0x40 MSTORE CALLVALUE DUP1 ISZERO PUSH2 0xF JUMPI PUSH0 PUSH0 REVERT JUMPDEST POP PUSH1 0x4 CALLDATASIZE LT PUSH2 0x4A JUMPI PUSH0 CALLDATALOAD PUSH1 0xE0 SHR DUP1 PUSH4 0x421B2D8B EQ PUSH2 0x4E JUMPI DUP1 PUSH4 0x53ED5143 EQ PUSH2 0x6A JUMPI DUP1 PUSH4 0x723331BB EQ PUSH2 0x88 JUMPI DUP1 PUSH4 0x98575188 EQ PUSH2 0xB8 JUMPI JUMPDEST PUSH0 PUSH0 REVERT JUMPDEST PUSH2 0x68 PUSH1 0x4 DUP1 CALLDATASIZE SUB DUP2 ADD SWAP1 PUSH2 0x63 SWAP2 SWAP1 PUSH2 0x55C JUMP JUMPDEST PUSH2 0xD4 JUMP JUMPDEST STOP JUMPDEST PUSH2 0x72 PUSH2 0x13E JUMP JUMPDEST PUSH1 0x40 MLOAD PUSH2 0x7F SWAP2 SWAP1 PUSH2 0x63E JUMP JUMPDEST PUSH1 0x40 MLOAD DUP1 SWAP2 SUB SWAP1 RETURN JUMPDEST PUSH2 0xA2 PUSH1 0x4 DUP1 CALLDATASIZE SUB DUP2 ADD SWAP1 PUSH2 0x9D SWAP2 SWAP1 PUSH2 0x691 JUMP JUMPDEST PUSH2 0x14E JUMP JUMPDEST PUSH1 0x40 MLOAD PUSH2 0xAF SWAP2 SWAP1 PUSH2 0x6CB JUMP JUMPDEST PUSH1 0x40 MLOAD DUP1 SWAP2 SUB SWAP1 RETURN JUMPDEST PUSH2 0xD2 PUSH1 0x4 DUP1 CALLDATASIZE SUB DUP2 ADD SWAP1 PUSH2 0xCD SWAP2 SWAP1 PUSH2 0x55C JUMP JUMPDEST PUSH2 0x1B3 JUMP JUMPDEST STOP JUMPDEST PUSH2 0xE7 DUP2 PUSH0 PUSH2 0x21C SWAP1 SWAP2 SWAP1 PUSH4 0xFFFFFFFF AND JUMP JUMPDEST ISZERO PUSH2 0x127 JUMPI PUSH1 0x40 MLOAD PUSH32 0x8C379A000000000000000000000000000000000000000000000000000000000 DUP2 MSTORE PUSH1 0x4 ADD PUSH2 0x11E SWAP1 PUSH2 0x73E JUMP JUMPDEST PUSH1 0x40 MLOAD DUP1 SWAP2 SUB SWAP1 REVERT JUMPDEST PUSH2 0x13A DUP2 PUSH0 PUSH2 0x249 SWAP1 SWAP2 SWAP1 PUSH4 0xFFFFFFFF AND JUMP JUMPDEST POP POP JUMP JUMPDEST PUSH1 0x60 PUSH2 0x149 PUSH0 PUSH2 0x276 JUMP JUMPDEST SWAP1 POP SWAP1 JUMP JUMPDEST PUSH0 PUSH2 0x158 PUSH0 PUSH2 0x295 JUMP JUMPDEST DUP3 LT PUSH2 0x199 JUMPI PUSH1 0x40 MLOAD PUSH32 0x8C379A000000000000000000000000000000000000000000000000000000000 DUP2 MSTORE PUSH1 0x4 ADD PUSH2 0x190 SWAP1 PUSH2 0x7A6 JUMP JUMPDEST PUSH1 0x40 MLOAD DUP1 SWAP2 SUB SWAP1 REVERT JUMPDEST PUSH2 0x1AC DUP3 PUSH0 PUSH2 0x2A8 SWAP1 SWAP2 SWAP1 PUSH4 0xFFFFFFFF AND JUMP JUMPDEST SWAP1 POP SWAP2 SWAP1 POP JUMP JUMPDEST PUSH2 0x1C6 DUP2 PUSH0 PUSH2 0x21C SWAP1 SWAP2 SWAP1 PUSH4 0xFFFFFFFF AND JUMP JUMPDEST PUSH2 0x205 JUMPI PUSH1 0x40 MLOAD PUSH32 0x8C379A000000000000000000000000000000000000000000000000000000000 DUP2 MSTORE PUSH1 0x4 ADD PUSH2 0x1FC SWAP1 PUSH2 0x80E JUMP JUMPDEST PUSH1 0x40 MLOAD DUP1 SWAP2 SUB SWAP1 REVERT JUMPDEST PUSH2 0x218 DUP2 PUSH0 PUSH2 0x2BF SWAP1 SWAP2 SWAP1 PUSH4 0xFFFFFFFF AND JUMP JUMPDEST POP POP JUMP JUMPDEST PUSH0 PUSH2 0x241 DUP4 PUSH0 ADD DUP4 PUSH20 0xFFFFFFFFFFFFFFFFFFFFFFFFFFFFFFFFFFFFFFFF AND PUSH0 SHL PUSH2 0x2EC JUMP JUMPDEST SWAP1 POP SWAP3 SWAP2 POP POP JUMP JUMPDEST PUSH0 PUSH2 0x26E DUP4 PUSH0 ADD DUP4 PUSH20 0xFFFFFFFFFFFFFFFFFFFFFFFFFFFFFFFFFFFFFFFF AND PUSH0 SHL PUSH2 0x30C JUMP JUMPDEST SWAP1 POP SWAP3 SWAP2 POP POP JUMP JUMPDEST PUSH1 0x60 PUSH0 PUSH2 0x284 DUP4 PUSH0 ADD PUSH2 0x373 JUMP JUMPDEST SWAP1 POP PUSH1 0x60 DUP2 SWAP1 POP DUP1 SWAP3 POP POP POP SWAP2 SWAP1 POP JUMP JUMPDEST PUSH0 PUSH2 0x2A1 DUP3 PUSH0 ADD PUSH2 0x3CC JUMP JUMPDEST SWAP1 POP SWAP2 SWAP1 POP JUMP JUMPDEST PUSH0 PUSH2 0x2B5 DUP4 PUSH0 ADD DUP4 PUSH2 0x3DB JUMP JUMPDEST PUSH0 SHR SWAP1 POP SWAP3 SWAP2 POP POP JUMP JUMPDEST PUSH0 PUSH2 0x2E4 DUP4 PUSH0 ADD DUP4 PUSH20 0xFFFFFFFFFFFFFFFFFFFFFFFFFFFFFFFFFFFFFFFF AND PUSH0 SHL PUSH2 0x402 JUMP JUMPDEST SWAP1 POP SWAP3 SWAP2 POP POP JUMP JUMPDEST PUSH0 PUSH0 DUP4 PUSH1 0x1 ADD PUSH0 DUP5 DUP2 MSTORE PUSH1 0x20 ADD SWAP1 DUP2 MSTORE PUSH1 0x20 ADD PUSH0 KECCAK256 SLOAD EQ ISZERO SWAP1 POP SWAP3 SWAP2 POP POP JUMP JUMPDEST PUSH0 PUSH2 0x317 DUP4 DUP4 PUSH2 0x2EC JUMP JUMPDEST PUSH2 0x369 JUMPI DUP3 PUSH0 ADD DUP3 SWAP1 DUP1 PUSH1 0x1 DUP2 SLOAD ADD DUP1 DUP3 SSTORE DUP1 SWAP2 POP POP PUSH1 0x1 SWAP1 SUB SWAP1 PUSH0 MSTORE PUSH1 0x20 PUSH0 KECCAK256 ADD PUSH0 SWAP1 SWAP2 SWAP1 SWAP2 SWAP1 SWAP2 POP SSTORE DUP3 PUSH0 ADD DUP1 SLOAD SWAP1 POP DUP4 PUSH1 0x1 ADD PUSH0 DUP5 DUP2 MSTORE PUSH1 0x20 ADD SWAP1 DUP2 MSTORE PUSH1 0x20 ADD PUSH0 KECCAK256 DUP2 SWAP1 SSTORE POP PUSH1 0x1 SWAP1 POP PUSH2 0x36D JUMP JUMPDEST PUSH0 SWAP1 POP JUMPDEST SWAP3 SWAP2 POP POP JUMP JUMPDEST PUSH1 0x60 DUP2 PUSH0 ADD DUP1 SLOAD DUP1 PUSH1 0x20 MUL PUSH1 0x20 ADD PUSH1 0x40 MLOAD SWAP1 DUP2 ADD PUSH1 0x40 MSTORE DUP1 SWAP3 SWAP2 SWAP1 DUP2 DUP2 MSTORE PUSH1 0x20 ADD DUP3 DUP1 SLOAD DUP1 ISZERO PUSH2 0x3C0 JUMPI PUSH1 0x20 MUL DUP3 ADD SWAP2 SWAP1 PUSH0 MSTORE PUSH1 0x20 PUSH0 KECCAK256 SWAP1 JUMPDEST DUP2 SLOAD DUP2 MSTORE PUSH1 0x20 ADD SWAP1 PUSH1 0x1 ADD SWAP1 DUP1 DUP4 GT PUSH2 0x3AC JUMPI JUMPDEST POP POP POP POP POP SWAP1 POP SWAP2 SWAP1 POP JUMP JUMPDEST PUSH0 DUP2 PUSH0 ADD DUP1 SLOAD SWAP1 POP SWAP1 POP SWAP2 SWAP1 POP JUMP JUMPDEST PUSH0 DUP3 PUSH0 ADD DUP3 DUP2 SLOAD DUP2 LT PUSH2 0x3F1 JUMPI PUSH2 0x3F0 PUSH2 0x82C JUMP JUMPDEST JUMPDEST SWAP1 PUSH0 MSTORE PUSH1 0x20 PUSH0 KECCAK256 ADD SLOAD SWAP1 POP SWAP3 SWAP2 POP POP JUMP JUMPDEST PUSH0 PUSH0 DUP4 PUSH1 0x1 ADD PUSH0 DUP5 DUP2 MSTORE PUSH1 0x20 ADD SWAP1 DUP2 MSTORE PUSH1 0x20 ADD PUSH0 KECCAK256 SLOAD SWAP1 POP PUSH0 DUP2 EQ PUSH2 0x4F3 JUMPI PUSH0 PUSH1 0x1 DUP3 PUSH2 0x42F SWAP2 SWAP1 PUSH2 0x886 JUMP JUMPDEST SWAP1 POP PUSH0 PUSH1 0x1 DUP7 PUSH0 ADD DUP1 SLOAD SWAP1 POP PUSH2 0x445 SWAP2 SWAP1 PUSH2 0x886 JUMP JUMPDEST SWAP1 POP DUP1 DUP3 EQ PUSH2 0x4AB JUMPI PUSH0 DUP7 PUSH0 ADD DUP3 DUP2 SLOAD DUP2 LT PUSH2 0x464 JUMPI PUSH2 0x463 PUSH2 0x82C JUMP JUMPDEST JUMPDEST SWAP1 PUSH0 MSTORE PUSH1 0x20 PUSH0 KECCAK256 ADD SLOAD SWAP1 POP DUP1 DUP8 PUSH0 ADD DUP5 DUP2 SLOAD DUP2 LT PUSH2 0x485 JUMPI PUSH2 0x484 PUSH2 0x82C JUMP JUMPDEST JUMPDEST SWAP1 PUSH0 MSTORE PUSH1 0x20 PUSH0 KECCAK256 ADD DUP2 SWAP1 SSTORE POP DUP4 DUP8 PUSH1 0x1 ADD PUSH0 DUP4 DUP2 MSTORE PUSH1 0x20 ADD SWAP1 DUP2 MSTORE PUSH1 0x20 ADD PUSH0 KECCAK256 DUP2 SWAP1 SSTORE POP POP JUMPDEST DUP6 PUSH0 ADD DUP1 SLOAD DUP1 PUSH2 0x4BE JUMPI PUSH2 0x4BD PUSH2 0x8B9 JUMP JUMPDEST JUMPDEST PUSH1 0x1 SWAP1 SUB DUP2 DUP2 SWAP1 PUSH0 MSTORE PUSH1 0x20 PUSH0 KECCAK256 ADD PUSH0 SWAP1 SSTORE SWAP1 SSTORE DUP6 PUSH1 0x1 ADD PUSH0 DUP7 DUP2 MSTORE PUSH1 0x20 ADD SWAP1 DUP2 MSTORE PUSH1 0x20 ADD PUSH0 KECCAK256 PUSH0 SWAP1 SSTORE PUSH1 0x1 SWAP4 POP POP POP POP PUSH2 0x4F8 JUMP JUMPDEST PUSH0 SWAP2 POP POP JUMPDEST SWAP3 SWAP2 POP POP JUMP JUMPDEST PUSH0 PUSH0 REVERT JUMPDEST PUSH0 PUSH20 0xFFFFFFFFFFFFFFFFFFFFFFFFFFFFFFFFFFFFFFFF DUP3 AND SWAP1 POP SWAP2 SWAP1 POP JUMP JUMPDEST PUSH0 PUSH2 0x52B DUP3 PUSH2 0x502 JUMP JUMPDEST SWAP1 POP SWAP2 SWAP1 POP JUMP JUMPDEST PUSH2 0x53B DUP2 PUSH2 0x521 JUMP JUMPDEST DUP2 EQ PUSH2 0x545 JUMPI PUSH0 PUSH0 REVERT JUMPDEST POP JUMP JUMPDEST PUSH0 DUP2 CALLDATALOAD SWAP1 POP PUSH2 0x556 DUP2 PUSH2 0x532 JUMP JUMPDEST SWAP3 SWAP2 POP POP JUMP JUMPDEST PUSH0 PUSH1 0x20 DUP3 DUP5 SUB SLT ISZERO PUSH2 0x571 JUMPI PUSH2 0x570 PUSH2 0x4FE JUMP JUMPDEST JUMPDEST PUSH0 PUSH2 0x57E DUP5 DUP3 DUP6 ADD PUSH2 0x548 JUMP JUMPDEST SWAP2 POP POP SWAP3 SWAP2 POP POP JUMP JUMPDEST PUSH0 DUP2 MLOAD SWAP1 POP SWAP2 SWAP1 POP JUMP JUMPDEST PUSH0 DUP3 DUP3 MSTORE PUSH1 0x20 DUP3 ADD SWAP1 POP SWAP3 SWAP2 POP POP JUMP JUMPDEST PUSH0 DUP2 SWAP1 POP PUSH1 0x20 DUP3 ADD SWAP1 POP SWAP2 SWAP1 POP JUMP JUMPDEST PUSH2 0x5B9 DUP2 PUSH2 0x521 JUMP JUMPDEST DUP3 MSTORE POP POP JUMP JUMPDEST PUSH0 PUSH2 0x5CA DUP4 DUP4 PUSH2 0x5B0 JUMP JUMPDEST PUSH1 0x20 DUP4 ADD SWAP1 POP SWAP3 SWAP2 POP POP JUMP JUMPDEST PUSH0 PUSH1 0x20 DUP3 ADD SWAP1 POP SWAP2 SWAP1 POP JUMP JUMPDEST PUSH0 PUSH2 0x5EC DUP3 PUSH2 0x587 JUMP JUMPDEST PUSH2 0x5F6 DUP2 DUP6 PUSH2 0x591 JUMP JUMPDEST SWAP4 POP PUSH2 0x601 DUP4 PUSH2 0x5A1 JUMP JUMPDEST DUP1 PUSH0 JUMPDEST DUP4 DUP2 LT ISZERO PUSH2 0x631 JUMPI DUP2 MLOAD PUSH2 0x618 DUP9 DUP3 PUSH2 0x5BF JUMP JUMPDEST SWAP8 POP PUSH2 0x623 DUP4 PUSH2 0x5D6 JUMP JUMPDEST SWAP3 POP POP PUSH1 0x1 DUP2 ADD SWAP1 POP PUSH2 0x604 JUMP JUMPDEST POP DUP6 SWAP4 POP POP POP POP SWAP3 SWAP2 POP POP JUMP JUMPDEST PUSH0 PUSH1 0x20 DUP3 ADD SWAP1 POP DUP2 DUP2 SUB PUSH0 DUP4 ADD MSTORE PUSH2 0x656 DUP2 DUP5 PUSH2 0x5E2 JUMP JUMPDEST SWAP1 POP SWAP3 SWAP2 POP POP JUMP JUMPDEST PUSH0 DUP2 SWAP1 POP SWAP2 SWAP1 POP JUMP JUMPDEST PUSH2 0x670 DUP2 PUSH2 0x65E JUMP JUMPDEST DUP2 EQ PUSH2 0x67A JUMPI PUSH0 PUSH0 REVERT JUMPDEST POP JUMP JUMPDEST PUSH0 DUP2 CALLDATALOAD SWAP1 POP PUSH2 0x68B DUP2 PUSH2 0x667 JUMP JUMPDEST SWAP3 SWAP2 POP POP JUMP JUMPDEST PUSH0 PUSH1 0x20 DUP3 DUP5 SUB SLT ISZERO PUSH2 0x6A6 JUMPI PUSH2 0x6A5 PUSH2 0x4FE JUMP JUMPDEST JUMPDEST PUSH0 PUSH2 0x6B3 DUP5 DUP3 DUP6 ADD PUSH2 0x67D JUMP JUMPDEST SWAP2 POP POP SWAP3 SWAP2 POP POP JUMP JUMPDEST PUSH2 0x6C5 DUP2 PUSH2 0x521 JUMP JUMPDEST DUP3 MSTORE POP POP JUMP JUMPDEST PUSH0 PUSH1 0x20 DUP3 ADD SWAP1 POP PUSH2 0x6DE PUSH0 DUP4 ADD DUP5 PUSH2 0x6BC JUMP JUMPDEST SWAP3 SWAP2 POP POP JUMP JUMPDEST PUSH0 DUP3 DUP3 MSTORE PUSH1 0x20 DUP3 ADD SWAP1 POP SWAP3 SWAP2 POP POP JUMP JUMPDEST PUSH32 0x416C726561647920657869737421000000000000000000000000000000000000 PUSH0 DUP3 ADD MSTORE POP JUMP JUMPDEST PUSH0 PUSH2 0x728 PUSH1 0xE DUP4 PUSH2 0x6E4 JUMP JUMPDEST SWAP2 POP PUSH2 0x733 DUP3 PUSH2 0x6F4 JUMP JUMPDEST PUSH1 0x20 DUP3 ADD SWAP1 POP SWAP2 SWAP1 POP JUMP JUMPDEST PUSH0 PUSH1 0x20 DUP3 ADD SWAP1 POP DUP2 DUP2 SUB PUSH0 DUP4 ADD MSTORE PUSH2 0x755 DUP2 PUSH2 0x71C JUMP JUMPDEST SWAP1 POP SWAP2 SWAP1 POP JUMP JUMPDEST PUSH32 0x496E646578206F7574206F6620626F756E647321000000000000000000000000 PUSH0 DUP3 ADD MSTORE POP JUMP JUMPDEST PUSH0 PUSH2 0x790 PUSH1 0x14 DUP4 PUSH2 0x6E4 JUMP JUMPDEST SWAP2 POP PUSH2 0x79B DUP3 PUSH2 0x75C JUMP JUMPDEST PUSH1 0x20 DUP3 ADD SWAP1 POP SWAP2 SWAP1 POP JUMP JUMPDEST PUSH0 PUSH1 0x20 DUP3 ADD SWAP1 POP DUP2 DUP2 SUB PUSH0 DUP4 ADD MSTORE PUSH2 0x7BD DUP2 PUSH2 0x784 JUMP JUMPDEST SWAP1 POP SWAP2 SWAP1 POP JUMP JUMPDEST PUSH32 0x55736572206E6F74206578697374210000000000000000000000000000000000 PUSH0 DUP3 ADD MSTORE POP JUMP JUMPDEST PUSH0 PUSH2 0x7F8 PUSH1 0xF DUP4 PUSH2 0x6E4 JUMP JUMPDEST SWAP2 POP PUSH2 0x803 DUP3 PUSH2 0x7C4 JUMP JUMPDEST PUSH1 0x20 DUP3 ADD SWAP1 POP SWAP2 SWAP1 POP JUMP JUMPDEST PUSH0 PUSH1 0x20 DUP3 ADD SWAP1 POP DUP2 DUP2 SUB PUSH0 DUP4 ADD MSTORE PUSH2 0x825 DUP2 PUSH2 0x7EC JUMP JUMPDEST SWAP1 POP SWAP2 SWAP1 POP JUMP JUMPDEST PUSH32 0x4E487B7100000000000000000000000000000000000000000000000000000000 PUSH0 MSTORE PUSH1 0x32 PUSH1 0x4 MSTORE PUSH1 0x24 PUSH0 REVERT JUMPDEST PUSH32 0x4E487B7100000000000000000000000000000000000000000000000000000000 PUSH0 MSTORE PUSH1 0x11 PUSH1 0x4 MSTORE PUSH1 0x24 PUSH0 REVERT JUMPDEST PUSH0 PUSH2 0x890 DUP3 PUSH2 0x65E JUMP JUMPDEST SWAP2 POP PUSH2 0x89B DUP4 PUSH2 0x65E JUMP JUMPDEST SWAP3 POP DUP3 DUP3 SUB SWAP1 POP DUP2 DUP2 GT ISZERO PUSH2 0x8B3 JUMPI PUSH2 0x8B2 PUSH2 0x859 JUMP JUMPDEST JUMPDEST SWAP3 SWAP2 POP POP JUMP JUMPDEST PUSH32 0x4E487B7100000000000000000000000000000000000000000000000000000000 PUSH0 MSTORE PUSH1 0x31 PUSH1 0x4 MSTORE PUSH1 0x24 PUSH0 REVERT INVALID LOG2 PUSH5 0x6970667358 0x22 SLT KECCAK256 SWAP8 0xD3 0xB2 SELFDESTRUCT EXTCALL DATALOADN 0x637 PUSH7 0xF45C35A54D598B ADD DUP4 SWAP10 PUSH4 0x595860FE CALLER SWAP14 0xA5 COINBASE STATICCALL EOFCREATE 0xCA STATICCALL PUSH5 0x736F6C6343 STOP ADDMOD 0x22 STOP CALLER "
		},
		"gasEstimates": {
			"creation": {
				"codeDepositCost": "466400",
				"executionCost": "497",
				"totalCost": "466897"
			},
			"external": {
				"addUser(address)": "infinite",
				"checkUser(uint256)": "infinite",
				"getAll()": "infinite",
				"removeUser(address)": "infinite"
			}
		},
		"methodIdentifiers": {
			"addUser(address)": "421b2d8b",
			"checkUser(uint256)": "723331bb",
			"getAll()": "53ed5143",
			"removeUser(address)": "98575188"
		}
	},
	"abi": [
		{
			"inputs": [
				{
					"internalType": "address",
					"name": "user",
					"type": "address"
				}
			],
			"name": "addUser",
			"outputs": [],
			"stateMutability": "nonpayable",
			"type": "function"
		},
		{
			"inputs": [
				{
					"internalType": "uint256",
					"name": "index",
					"type": "uint256"
				}
			],
			"name": "checkUser",
			"outputs": [
				{
					"internalType": "address",
					"name": "",
					"type": "address"
				}
			],
			"stateMutability": "view",
			"type": "function"
		},
		{
			"inputs": [],
			"name": "getAll",
			"outputs": [
				{
					"internalType": "address[]",
					"name": "",
					"type": "address[]"
				}
			],
			"stateMutability": "view",
			"type": "function"
		},
		{
			"inputs": [
				{
					"internalType": "address",
					"name": "user",
					"type": "address"
				}
			],
			"name": "removeUser",
			"outputs": [],
			"stateMutability": "nonpayable",
			"type": "function"
		}
	]
}